{
	"contracts/EnglishAuction.sol": {
		"EnglishAuction": {
			"abi": [
				{
					"inputs": [
						{
							"internalType": "address",
							"name": "_nft",
							"type": "address"
						},
						{
							"internalType": "uint256",
							"name": "_nftId",
							"type": "uint256"
						},
						{
							"internalType": "uint256",
							"name": "_startingBid",
							"type": "uint256"
						}
					],
					"stateMutability": "nonpayable",
					"type": "constructor"
				},
				{
					"anonymous": false,
					"inputs": [
						{
							"indexed": true,
							"internalType": "address",
							"name": "sender",
							"type": "address"
						},
						{
							"indexed": false,
							"internalType": "uint256",
							"name": "amount",
							"type": "uint256"
						}
					],
					"name": "Bid",
					"type": "event"
				},
				{
					"anonymous": false,
					"inputs": [],
					"name": "Start",
					"type": "event"
				},
				{
					"anonymous": false,
					"inputs": [
						{
							"indexed": true,
							"internalType": "address",
							"name": "bidder",
							"type": "address"
						},
						{
							"indexed": false,
							"internalType": "uint256",
							"name": "amount",
							"type": "uint256"
						}
					],
					"name": "Withdraw",
					"type": "event"
				},
				{
					"inputs": [],
					"name": "bid",
					"outputs": [],
					"stateMutability": "payable",
					"type": "function"
				},
				{
					"inputs": [
						{
							"internalType": "address",
							"name": "",
							"type": "address"
						}
					],
					"name": "bids",
					"outputs": [
						{
							"internalType": "uint256",
							"name": "",
							"type": "uint256"
						}
					],
					"stateMutability": "view",
					"type": "function"
				},
				{
					"inputs": [],
					"name": "end",
					"outputs": [],
					"stateMutability": "nonpayable",
					"type": "function"
				},
				{
					"inputs": [],
					"name": "endAt",
					"outputs": [
						{
							"internalType": "uint32",
							"name": "",
							"type": "uint32"
						}
					],
					"stateMutability": "view",
					"type": "function"
				},
				{
					"inputs": [],
					"name": "ended",
					"outputs": [
						{
							"internalType": "bool",
							"name": "",
							"type": "bool"
						}
					],
					"stateMutability": "view",
					"type": "function"
				},
				{
					"inputs": [],
					"name": "highestBid",
					"outputs": [
						{
							"internalType": "uint256",
							"name": "",
							"type": "uint256"
						}
					],
					"stateMutability": "view",
					"type": "function"
				},
				{
					"inputs": [],
					"name": "highestBidder",
					"outputs": [
						{
							"internalType": "address",
							"name": "",
							"type": "address"
						}
					],
					"stateMutability": "view",
					"type": "function"
				},
				{
					"inputs": [],
					"name": "nft",
					"outputs": [
						{
							"internalType": "contract IERC721",
							"name": "",
							"type": "address"
						}
					],
					"stateMutability": "view",
					"type": "function"
				},
				{
					"inputs": [],
					"name": "nftId",
					"outputs": [
						{
							"internalType": "uint256",
							"name": "",
							"type": "uint256"
						}
					],
					"stateMutability": "view",
					"type": "function"
				},
				{
					"inputs": [],
					"name": "seller",
					"outputs": [
						{
							"internalType": "address payable",
							"name": "",
							"type": "address"
						}
					],
					"stateMutability": "view",
					"type": "function"
				},
				{
					"inputs": [],
					"name": "start",
					"outputs": [],
					"stateMutability": "nonpayable",
					"type": "function"
				},
				{
					"inputs": [],
					"name": "started",
					"outputs": [
						{
							"internalType": "bool",
							"name": "",
							"type": "bool"
						}
					],
					"stateMutability": "view",
					"type": "function"
				},
				{
					"inputs": [],
					"name": "withdraw",
					"outputs": [],
					"stateMutability": "nonpayable",
					"type": "function"
				}
			],
			"devdoc": {
				"kind": "dev",
				"methods": {},
				"version": 1
			},
			"evm": {
				"assembly": "    /* \"contracts/EnglishAuction.sol\":183:1828  contract EnglishAuction { ... */\n  mstore(0x40, 0xe0)\n    /* \"contracts/EnglishAuction.sol\":639:860  constructor(... */\n  callvalue\n  dup1\n  iszero\n  tag_1\n  jumpi\n  0x00\n  dup1\n  revert\ntag_1:\n  pop\n  mload(0x40)\n  sub(codesize, bytecodeSize)\n  dup1\n  bytecodeSize\n  dup4\n  codecopy\n  dup2\n  dup2\n  add\n  0x40\n  mstore\n  dup2\n  add\n  swap1\n  tag_2\n  swap2\n  swap1\n  tag_3\n  jump\t// in\ntag_2:\n    /* \"contracts/EnglishAuction.sol\":751:755  _nft */\n  dup3\n    /* \"contracts/EnglishAuction.sol\":737:756  nft = IERC721(_nft) */\n  0xffffffffffffffffffffffffffffffffffffffff\n  and\n  0x80\n  dup2\n  0xffffffffffffffffffffffffffffffffffffffff\n  and\n  0x60\n  shl\n  dup2\n  mstore\n  pop\n  pop\n    /* \"contracts/EnglishAuction.sol\":774:780  _nftId */\n  dup2\n    /* \"contracts/EnglishAuction.sol\":766:780  nftId = _nftId */\n  0xa0\n  dup2\n  dup2\n  mstore\n  pop\n  pop\n    /* \"contracts/EnglishAuction.sol\":807:817  msg.sender */\n  caller\n    /* \"contracts/EnglishAuction.sol\":790:818  seller = payable(msg.sender) */\n  0xffffffffffffffffffffffffffffffffffffffff\n  and\n  0xc0\n  dup2\n  0xffffffffffffffffffffffffffffffffffffffff\n  and\n  0x60\n  shl\n  dup2\n  mstore\n  pop\n  pop\n    /* \"contracts/EnglishAuction.sol\":841:853  _startingBid */\n  dup1\n    /* \"contracts/EnglishAuction.sol\":828:838  highestBid */\n  0x01\n    /* \"contracts/EnglishAuction.sol\":828:853  highestBid = _startingBid */\n  dup2\n  swap1\n  sstore\n  pop\n    /* \"contracts/EnglishAuction.sol\":639:860  constructor(... */\n  pop\n  pop\n  pop\n    /* \"contracts/EnglishAuction.sol\":183:1828  contract EnglishAuction { ... */\n  jump(tag_6)\n    /* \"#utility.yul\":7:150   */\ntag_8:\n    /* \"#utility.yul\":64:69   */\n  0x00\n    /* \"#utility.yul\":95:101   */\n  dup2\n    /* \"#utility.yul\":89:102   */\n  mload\n    /* \"#utility.yul\":80:102   */\n  swap1\n  pop\n    /* \"#utility.yul\":111:144   */\n  tag_10\n    /* \"#utility.yul\":138:143   */\n  dup2\n    /* \"#utility.yul\":111:144   */\n  tag_11\n  jump\t// in\ntag_10:\n    /* \"#utility.yul\":7:150   */\n  swap3\n  swap2\n  pop\n  pop\n  jump\t// out\n    /* \"#utility.yul\":156:299   */\ntag_12:\n    /* \"#utility.yul\":213:218   */\n  0x00\n    /* \"#utility.yul\":244:250   */\n  dup2\n    /* \"#utility.yul\":238:251   */\n  mload\n    /* \"#utility.yul\":229:251   */\n  swap1\n  pop\n    /* \"#utility.yul\":260:293   */\n  tag_14\n    /* \"#utility.yul\":287:292   */\n  dup2\n    /* \"#utility.yul\":260:293   */\n  tag_15\n  jump\t// in\ntag_14:\n    /* \"#utility.yul\":156:299   */\n  swap3\n  swap2\n  pop\n  pop\n  jump\t// out\n    /* \"#utility.yul\":305:968   */\ntag_3:\n    /* \"#utility.yul\":393:399   */\n  0x00\n    /* \"#utility.yul\":401:407   */\n  dup1\n    /* \"#utility.yul\":409:415   */\n  0x00\n    /* \"#utility.yul\":458:460   */\n  0x60\n    /* \"#utility.yul\":446:455   */\n  dup5\n    /* \"#utility.yul\":437:444   */\n  dup7\n    /* \"#utility.yul\":433:456   */\n  sub\n    /* \"#utility.yul\":429:461   */\n  slt\n    /* \"#utility.yul\":426:545   */\n  iszero\n  tag_17\n  jumpi\n    /* \"#utility.yul\":464:543   */\n  tag_18\n  tag_19\n  jump\t// in\ntag_18:\n    /* \"#utility.yul\":426:545   */\ntag_17:\n    /* \"#utility.yul\":584:585   */\n  0x00\n    /* \"#utility.yul\":609:673   */\n  tag_20\n    /* \"#utility.yul\":665:672   */\n  dup7\n    /* \"#utility.yul\":656:662   */\n  dup3\n    /* \"#utility.yul\":645:654   */\n  dup8\n    /* \"#utility.yul\":641:663   */\n  add\n    /* \"#utility.yul\":609:673   */\n  tag_8\n  jump\t// in\ntag_20:\n    /* \"#utility.yul\":599:673   */\n  swap4\n  pop\n    /* \"#utility.yul\":555:683   */\n  pop\n    /* \"#utility.yul\":722:724   */\n  0x20\n    /* \"#utility.yul\":748:812   */\n  tag_21\n    /* \"#utility.yul\":804:811   */\n  dup7\n    /* \"#utility.yul\":795:801   */\n  dup3\n    /* \"#utility.yul\":784:793   */\n  dup8\n    /* \"#utility.yul\":780:802   */\n  add\n    /* \"#utility.yul\":748:812   */\n  tag_12\n  jump\t// in\ntag_21:\n    /* \"#utility.yul\":738:812   */\n  swap3\n  pop\n    /* \"#utility.yul\":693:822   */\n  pop\n    /* \"#utility.yul\":861:863   */\n  0x40\n    /* \"#utility.yul\":887:951   */\n  tag_22\n    /* \"#utility.yul\":943:950   */\n  dup7\n    /* \"#utility.yul\":934:940   */\n  dup3\n    /* \"#utility.yul\":923:932   */\n  dup8\n    /* \"#utility.yul\":919:941   */\n  add\n    /* \"#utility.yul\":887:951   */\n  tag_12\n  jump\t// in\ntag_22:\n    /* \"#utility.yul\":877:951   */\n  swap2\n  pop\n    /* \"#utility.yul\":832:961   */\n  pop\n    /* \"#utility.yul\":305:968   */\n  swap3\n  pop\n  swap3\n  pop\n  swap3\n  jump\t// out\n    /* \"#utility.yul\":1055:1151   */\ntag_25:\n    /* \"#utility.yul\":1092:1099   */\n  0x00\n    /* \"#utility.yul\":1121:1145   */\n  tag_27\n    /* \"#utility.yul\":1139:1144   */\n  dup3\n    /* \"#utility.yul\":1121:1145   */\n  tag_28\n  jump\t// in\ntag_27:\n    /* \"#utility.yul\":1110:1145   */\n  swap1\n  pop\n    /* \"#utility.yul\":1055:1151   */\n  swap2\n  swap1\n  pop\n  jump\t// out\n    /* \"#utility.yul\":1157:1283   */\ntag_28:\n    /* \"#utility.yul\":1194:1201   */\n  0x00\n    /* \"#utility.yul\":1234:1276   */\n  0xffffffffffffffffffffffffffffffffffffffff\n    /* \"#utility.yul\":1227:1232   */\n  dup3\n    /* \"#utility.yul\":1223:1277   */\n  and\n    /* \"#utility.yul\":1212:1277   */\n  swap1\n  pop\n    /* \"#utility.yul\":1157:1283   */\n  swap2\n  swap1\n  pop\n  jump\t// out\n    /* \"#utility.yul\":1289:1366   */\ntag_30:\n    /* \"#utility.yul\":1326:1333   */\n  0x00\n    /* \"#utility.yul\":1355:1360   */\n  dup2\n    /* \"#utility.yul\":1344:1360   */\n  swap1\n  pop\n    /* \"#utility.yul\":1289:1366   */\n  swap2\n  swap1\n  pop\n  jump\t// out\n    /* \"#utility.yul\":1495:1612   */\ntag_19:\n    /* \"#utility.yul\":1604:1605   */\n  0x00\n    /* \"#utility.yul\":1601:1602   */\n  dup1\n    /* \"#utility.yul\":1594:1606   */\n  revert\n    /* \"#utility.yul\":1618:1740   */\ntag_11:\n    /* \"#utility.yul\":1691:1715   */\n  tag_36\n    /* \"#utility.yul\":1709:1714   */\n  dup2\n    /* \"#utility.yul\":1691:1715   */\n  tag_25\n  jump\t// in\ntag_36:\n    /* \"#utility.yul\":1684:1689   */\n  dup2\n    /* \"#utility.yul\":1681:1716   */\n  eq\n    /* \"#utility.yul\":1671:1734   */\n  tag_37\n  jumpi\n    /* \"#utility.yul\":1730:1731   */\n  0x00\n    /* \"#utility.yul\":1727:1728   */\n  dup1\n    /* \"#utility.yul\":1720:1732   */\n  revert\n    /* \"#utility.yul\":1671:1734   */\ntag_37:\n    /* \"#utility.yul\":1618:1740   */\n  pop\n  jump\t// out\n    /* \"#utility.yul\":1746:1868   */\ntag_15:\n    /* \"#utility.yul\":1819:1843   */\n  tag_39\n    /* \"#utility.yul\":1837:1842   */\n  dup2\n    /* \"#utility.yul\":1819:1843   */\n  tag_30\n  jump\t// in\ntag_39:\n    /* \"#utility.yul\":1812:1817   */\n  dup2\n    /* \"#utility.yul\":1809:1844   */\n  eq\n    /* \"#utility.yul\":1799:1862   */\n  tag_40\n  jumpi\n    /* \"#utility.yul\":1858:1859   */\n  0x00\n    /* \"#utility.yul\":1855:1856   */\n  dup1\n    /* \"#utility.yul\":1848:1860   */\n  revert\n    /* \"#utility.yul\":1799:1862   */\ntag_40:\n    /* \"#utility.yul\":1746:1868   */\n  pop\n  jump\t// out\n    /* \"contracts/EnglishAuction.sol\":183:1828  contract EnglishAuction { ... */\ntag_6:\n  shr(0x60, mload(0x80))\n  mload(0xa0)\n  shr(0x60, mload(0xc0))\n  codecopy(0x00, dataOffset(sub_0), dataSize(sub_0))\n  0x00\n  assignImmutable(\"0x8b953cbb84328003779eb1ef176ef07f7dd0ae3d4a8e408de53d15a36466c86e\")\n  0x00\n  assignImmutable(\"0xbbf5a24880b10a5f9f601c4058e4771ddea17e7d765ceb3c903814e1c0d621e0\")\n  0x00\n  assignImmutable(\"0x9560168699514dcd528543d614e81b4f36adf182dc624d2f1eb91df8addd987e\")\n  return(0x00, dataSize(sub_0))\nstop\n\nsub_0: assembly {\n        /* \"contracts/EnglishAuction.sol\":183:1828  contract EnglishAuction { ... */\n      mstore(0x40, 0x80)\n      jumpi(tag_1, lt(calldatasize, 0x04))\n      shr(0xe0, calldataload(0x00))\n      dup1\n      0x62ea82db\n      gt\n      tag_15\n      jumpi\n      dup1\n      0xbe9a6555\n      gt\n      tag_16\n      jumpi\n      dup1\n      0xbe9a6555\n      eq\n      tag_11\n      jumpi\n      dup1\n      0xc6bc5182\n      eq\n      tag_12\n      jumpi\n      dup1\n      0xd57bde79\n      eq\n      tag_13\n      jumpi\n      dup1\n      0xefbe1c1c\n      eq\n      tag_14\n      jumpi\n      jump(tag_1)\n    tag_16:\n      dup1\n      0x62ea82db\n      eq\n      tag_8\n      jumpi\n      dup1\n      0x7cc3ae8c\n      eq\n      tag_9\n      jumpi\n      dup1\n      0x91f90157\n      eq\n      tag_10\n      jumpi\n      jump(tag_1)\n    tag_15:\n      dup1\n      0x08551a53\n      eq\n      tag_2\n      jumpi\n      dup1\n      0x12fa6feb\n      eq\n      tag_3\n      jumpi\n      dup1\n      0x1998aeef\n      eq\n      tag_4\n      jumpi\n      dup1\n      0x1f2698ab\n      eq\n      tag_5\n      jumpi\n      dup1\n      0x3ccfd60b\n      eq\n      tag_6\n      jumpi\n      dup1\n      0x47ccca02\n      eq\n      tag_7\n      jumpi\n    tag_1:\n      0x00\n      dup1\n      revert\n        /* \"contracts/EnglishAuction.sol\":410:449  address payable public immutable seller */\n    tag_2:\n      callvalue\n      dup1\n      iszero\n      tag_17\n      jumpi\n      0x00\n      dup1\n      revert\n    tag_17:\n      pop\n      tag_18\n      tag_19\n      jump\t// in\n    tag_18:\n      mload(0x40)\n      tag_20\n      swap2\n      swap1\n      tag_21\n      jump\t// in\n    tag_20:\n      mload(0x40)\n      dup1\n      swap2\n      sub\n      swap1\n      return\n        /* \"contracts/EnglishAuction.sol\":505:522  bool public ended */\n    tag_3:\n      callvalue\n      dup1\n      iszero\n      tag_22\n      jumpi\n      0x00\n      dup1\n      revert\n    tag_22:\n      pop\n      tag_23\n      tag_24\n      jump\t// in\n    tag_23:\n      mload(0x40)\n      tag_25\n      swap2\n      swap1\n      tag_26\n      jump\t// in\n    tag_25:\n      mload(0x40)\n      dup1\n      swap2\n      sub\n      swap1\n      return\n        /* \"contracts/EnglishAuction.sol\":1139:1522  function bid() external payable {... */\n    tag_4:\n      tag_27\n      tag_28\n      jump\t// in\n    tag_27:\n      stop\n        /* \"contracts/EnglishAuction.sol\":480:499  bool public started */\n    tag_5:\n      callvalue\n      dup1\n      iszero\n      tag_29\n      jumpi\n      0x00\n      dup1\n      revert\n    tag_29:\n      pop\n      tag_30\n      tag_31\n      jump\t// in\n    tag_30:\n      mload(0x40)\n      tag_32\n      swap2\n      swap1\n      tag_26\n      jump\t// in\n    tag_32:\n      mload(0x40)\n      dup1\n      swap2\n      sub\n      swap1\n      return\n        /* \"contracts/EnglishAuction.sol\":1528:1714  function withdraw() external {... */\n    tag_6:\n      callvalue\n      dup1\n      iszero\n      tag_33\n      jumpi\n      0x00\n      dup1\n      revert\n    tag_33:\n      pop\n      tag_34\n      tag_35\n      jump\t// in\n    tag_34:\n      stop\n        /* \"contracts/EnglishAuction.sol\":342:370  IERC721 public immutable nft */\n    tag_7:\n      callvalue\n      dup1\n      iszero\n      tag_36\n      jumpi\n      0x00\n      dup1\n      revert\n    tag_36:\n      pop\n      tag_37\n      tag_38\n      jump\t// in\n    tag_37:\n      mload(0x40)\n      tag_39\n      swap2\n      swap1\n      tag_40\n      jump\t// in\n    tag_39:\n      mload(0x40)\n      dup1\n      swap2\n      sub\n      swap1\n      return\n        /* \"contracts/EnglishAuction.sol\":592:628  mapping(address => uint) public bids */\n    tag_8:\n      callvalue\n      dup1\n      iszero\n      tag_41\n      jumpi\n      0x00\n      dup1\n      revert\n    tag_41:\n      pop\n      tag_42\n      0x04\n      dup1\n      calldatasize\n      sub\n      dup2\n      add\n      swap1\n      tag_43\n      swap2\n      swap1\n      tag_44\n      jump\t// in\n    tag_43:\n      tag_45\n      jump\t// in\n    tag_42:\n      mload(0x40)\n      tag_46\n      swap2\n      swap1\n      tag_47\n      jump\t// in\n    tag_46:\n      mload(0x40)\n      dup1\n      swap2\n      sub\n      swap1\n      return\n        /* \"contracts/EnglishAuction.sol\":455:474  uint32 public endAt */\n    tag_9:\n      callvalue\n      dup1\n      iszero\n      tag_48\n      jumpi\n      0x00\n      dup1\n      revert\n    tag_48:\n      pop\n      tag_49\n      tag_50\n      jump\t// in\n    tag_49:\n      mload(0x40)\n      tag_51\n      swap2\n      swap1\n      tag_52\n      jump\t// in\n    tag_51:\n      mload(0x40)\n      dup1\n      swap2\n      sub\n      swap1\n      return\n        /* \"contracts/EnglishAuction.sol\":529:557  address public highestBidder */\n    tag_10:\n      callvalue\n      dup1\n      iszero\n      tag_53\n      jumpi\n      0x00\n      dup1\n      revert\n    tag_53:\n      pop\n      tag_54\n      tag_55\n      jump\t// in\n    tag_54:\n      mload(0x40)\n      tag_56\n      swap2\n      swap1\n      tag_57\n      jump\t// in\n    tag_56:\n      mload(0x40)\n      dup1\n      swap2\n      sub\n      swap1\n      return\n        /* \"contracts/EnglishAuction.sol\":866:1133  function start() external {... */\n    tag_11:\n      callvalue\n      dup1\n      iszero\n      tag_58\n      jumpi\n      0x00\n      dup1\n      revert\n    tag_58:\n      pop\n      tag_59\n      tag_60\n      jump\t// in\n    tag_59:\n      stop\n        /* \"contracts/EnglishAuction.sol\":376:403  uint public immutable nftId */\n    tag_12:\n      callvalue\n      dup1\n      iszero\n      tag_61\n      jumpi\n      0x00\n      dup1\n      revert\n    tag_61:\n      pop\n      tag_62\n      tag_63\n      jump\t// in\n    tag_62:\n      mload(0x40)\n      tag_64\n      swap2\n      swap1\n      tag_47\n      jump\t// in\n    tag_64:\n      mload(0x40)\n      dup1\n      swap2\n      sub\n      swap1\n      return\n        /* \"contracts/EnglishAuction.sol\":563:585  uint public highestBid */\n    tag_13:\n      callvalue\n      dup1\n      iszero\n      tag_65\n      jumpi\n      0x00\n      dup1\n      revert\n    tag_65:\n      pop\n      tag_66\n      tag_67\n      jump\t// in\n    tag_66:\n      mload(0x40)\n      tag_68\n      swap2\n      swap1\n      tag_47\n      jump\t// in\n    tag_68:\n      mload(0x40)\n      dup1\n      swap2\n      sub\n      swap1\n      return\n        /* \"contracts/EnglishAuction.sol\":1720:1825  function end() external {... */\n    tag_14:\n      callvalue\n      dup1\n      iszero\n      tag_69\n      jumpi\n      0x00\n      dup1\n      revert\n    tag_69:\n      pop\n      tag_70\n      tag_71\n      jump\t// in\n    tag_70:\n      stop\n        /* \"contracts/EnglishAuction.sol\":410:449  address payable public immutable seller */\n    tag_19:\n      immutable(\"0x8b953cbb84328003779eb1ef176ef07f7dd0ae3d4a8e408de53d15a36466c86e\")\n      dup2\n      jump\t// out\n        /* \"contracts/EnglishAuction.sol\":505:522  bool public ended */\n    tag_24:\n      0x00\n      0x05\n      swap1\n      sload\n      swap1\n      0x0100\n      exp\n      swap1\n      div\n      0xff\n      and\n      dup2\n      jump\t// out\n        /* \"contracts/EnglishAuction.sol\":1139:1522  function bid() external payable {... */\n    tag_28:\n        /* \"contracts/EnglishAuction.sol\":1189:1196  started */\n      0x00\n      0x04\n      swap1\n      sload\n      swap1\n      0x0100\n      exp\n      swap1\n      div\n      0xff\n      and\n        /* \"contracts/EnglishAuction.sol\":1181:1204  require(started, \"not\") */\n      tag_73\n      jumpi\n      mload(0x40)\n      0x08c379a000000000000000000000000000000000000000000000000000000000\n      dup2\n      mstore\n      0x04\n      add\n      tag_74\n      swap1\n      tag_75\n      jump\t// in\n    tag_74:\n      mload(0x40)\n      dup1\n      swap2\n      sub\n      swap1\n      revert\n    tag_73:\n        /* \"contracts/EnglishAuction.sol\":1240:1245  endAt */\n      0x00\n      dup1\n      sload\n      swap1\n      0x0100\n      exp\n      swap1\n      div\n      0xffffffff\n      and\n        /* \"contracts/EnglishAuction.sol\":1222:1245  block.timestamp < endAt */\n      0xffffffff\n      and\n        /* \"contracts/EnglishAuction.sol\":1222:1237  block.timestamp */\n      timestamp\n        /* \"contracts/EnglishAuction.sol\":1222:1245  block.timestamp < endAt */\n      lt\n        /* \"contracts/EnglishAuction.sol\":1214:1255  require(block.timestamp < endAt, \"ended\") */\n      tag_76\n      jumpi\n      mload(0x40)\n      0x08c379a000000000000000000000000000000000000000000000000000000000\n      dup2\n      mstore\n      0x04\n      add\n      tag_77\n      swap1\n      tag_78\n      jump\t// in\n    tag_77:\n      mload(0x40)\n      dup1\n      swap2\n      sub\n      swap1\n      revert\n    tag_76:\n        /* \"contracts/EnglishAuction.sol\":1285:1295  highestBid */\n      sload(0x01)\n        /* \"contracts/EnglishAuction.sol\":1273:1282  msg.value */\n      callvalue\n        /* \"contracts/EnglishAuction.sol\":1273:1295  msg.value > highestBid */\n      gt\n        /* \"contracts/EnglishAuction.sol\":1265:1305  require(msg.value > highestBid, \"value\") */\n      tag_79\n      jumpi\n      mload(0x40)\n      0x08c379a000000000000000000000000000000000000000000000000000000000\n      dup2\n      mstore\n      0x04\n      add\n      tag_80\n      swap1\n      tag_81\n      jump\t// in\n    tag_80:\n      mload(0x40)\n      dup1\n      swap2\n      sub\n      swap1\n      revert\n    tag_79:\n        /* \"contracts/EnglishAuction.sol\":1344:1345  0 */\n      0x00\n        /* \"contracts/EnglishAuction.sol\":1319:1346  highestBidder != address(0) */\n      0xffffffffffffffffffffffffffffffffffffffff\n      and\n        /* \"contracts/EnglishAuction.sol\":1319:1332  highestBidder */\n      0x00\n      0x06\n      swap1\n      sload\n      swap1\n      0x0100\n      exp\n      swap1\n      div\n      0xffffffffffffffffffffffffffffffffffffffff\n      and\n        /* \"contracts/EnglishAuction.sol\":1319:1346  highestBidder != address(0) */\n      0xffffffffffffffffffffffffffffffffffffffff\n      and\n      eq\n        /* \"contracts/EnglishAuction.sol\":1316:1406  if(highestBidder != address(0)) {... */\n      tag_82\n      jumpi\n        /* \"contracts/EnglishAuction.sol\":1385:1395  highestBid */\n      sload(0x01)\n        /* \"contracts/EnglishAuction.sol\":1362:1366  bids */\n      0x02\n        /* \"contracts/EnglishAuction.sol\":1362:1381  bids[highestBidder] */\n      0x00\n        /* \"contracts/EnglishAuction.sol\":1367:1380  highestBidder */\n      dup1\n      0x06\n      swap1\n      sload\n      swap1\n      0x0100\n      exp\n      swap1\n      div\n      0xffffffffffffffffffffffffffffffffffffffff\n      and\n        /* \"contracts/EnglishAuction.sol\":1362:1381  bids[highestBidder] */\n      0xffffffffffffffffffffffffffffffffffffffff\n      and\n      0xffffffffffffffffffffffffffffffffffffffff\n      and\n      dup2\n      mstore\n      0x20\n      add\n      swap1\n      dup2\n      mstore\n      0x20\n      add\n      0x00\n      keccak256\n      0x00\n        /* \"contracts/EnglishAuction.sol\":1362:1395  bids[highestBidder] += highestBid */\n      dup3\n      dup3\n      sload\n      tag_83\n      swap2\n      swap1\n      tag_84\n      jump\t// in\n    tag_83:\n      swap3\n      pop\n      pop\n      dup2\n      swap1\n      sstore\n      pop\n        /* \"contracts/EnglishAuction.sol\":1316:1406  if(highestBidder != address(0)) {... */\n    tag_82:\n        /* \"contracts/EnglishAuction.sol\":1428:1437  msg.value */\n      callvalue\n        /* \"contracts/EnglishAuction.sol\":1415:1425  highestBid */\n      0x01\n        /* \"contracts/EnglishAuction.sol\":1415:1437  highestBid = msg.value */\n      dup2\n      swap1\n      sstore\n      pop\n        /* \"contracts/EnglishAuction.sol\":1463:1473  msg.sender */\n      caller\n        /* \"contracts/EnglishAuction.sol\":1447:1460  highestBidder */\n      0x00\n      0x06\n        /* \"contracts/EnglishAuction.sol\":1447:1473  highestBidder = msg.sender */\n      0x0100\n      exp\n      dup2\n      sload\n      dup2\n      0xffffffffffffffffffffffffffffffffffffffff\n      mul\n      not\n      and\n      swap1\n      dup4\n      0xffffffffffffffffffffffffffffffffffffffff\n      and\n      mul\n      or\n      swap1\n      sstore\n      pop\n        /* \"contracts/EnglishAuction.sol\":1493:1503  msg.sender */\n      caller\n        /* \"contracts/EnglishAuction.sol\":1489:1515  Bid(msg.sender, msg.value) */\n      0xffffffffffffffffffffffffffffffffffffffff\n      and\n      0xe684a55f31b79eca403df938249029212a5925ec6be8012e099b45bc1019e5d2\n        /* \"contracts/EnglishAuction.sol\":1505:1514  msg.value */\n      callvalue\n        /* \"contracts/EnglishAuction.sol\":1489:1515  Bid(msg.sender, msg.value) */\n      mload(0x40)\n      tag_85\n      swap2\n      swap1\n      tag_47\n      jump\t// in\n    tag_85:\n      mload(0x40)\n      dup1\n      swap2\n      sub\n      swap1\n      log2\n        /* \"contracts/EnglishAuction.sol\":1139:1522  function bid() external payable {... */\n      jump\t// out\n        /* \"contracts/EnglishAuction.sol\":480:499  bool public started */\n    tag_31:\n      0x00\n      0x04\n      swap1\n      sload\n      swap1\n      0x0100\n      exp\n      swap1\n      div\n      0xff\n      and\n      dup2\n      jump\t// out\n        /* \"contracts/EnglishAuction.sol\":1528:1714  function withdraw() external {... */\n    tag_35:\n        /* \"contracts/EnglishAuction.sol\":1567:1575  uint bal */\n      0x00\n        /* \"contracts/EnglishAuction.sol\":1578:1582  bids */\n      0x02\n        /* \"contracts/EnglishAuction.sol\":1578:1594  bids[msg.sender] */\n      0x00\n        /* \"contracts/EnglishAuction.sol\":1583:1593  msg.sender */\n      caller\n        /* \"contracts/EnglishAuction.sol\":1578:1594  bids[msg.sender] */\n      0xffffffffffffffffffffffffffffffffffffffff\n      and\n      0xffffffffffffffffffffffffffffffffffffffff\n      and\n      dup2\n      mstore\n      0x20\n      add\n      swap1\n      dup2\n      mstore\n      0x20\n      add\n      0x00\n      keccak256\n      sload\n        /* \"contracts/EnglishAuction.sol\":1567:1594  uint bal = bids[msg.sender] */\n      swap1\n      pop\n        /* \"contracts/EnglishAuction.sol\":1623:1624  0 */\n      0x00\n        /* \"contracts/EnglishAuction.sol\":1604:1608  bids */\n      0x02\n        /* \"contracts/EnglishAuction.sol\":1604:1620  bids[msg.sender] */\n      0x00\n        /* \"contracts/EnglishAuction.sol\":1609:1619  msg.sender */\n      caller\n        /* \"contracts/EnglishAuction.sol\":1604:1620  bids[msg.sender] */\n      0xffffffffffffffffffffffffffffffffffffffff\n      and\n      0xffffffffffffffffffffffffffffffffffffffff\n      and\n      dup2\n      mstore\n      0x20\n      add\n      swap1\n      dup2\n      mstore\n      0x20\n      add\n      0x00\n      keccak256\n        /* \"contracts/EnglishAuction.sol\":1604:1624  bids[msg.sender] = 0 */\n      dup2\n      swap1\n      sstore\n      pop\n        /* \"contracts/EnglishAuction.sol\":1642:1652  msg.sender */\n      caller\n        /* \"contracts/EnglishAuction.sol\":1634:1662  payable(msg.sender).transfer */\n      0xffffffffffffffffffffffffffffffffffffffff\n      and\n        /* \"contracts/EnglishAuction.sol\":1634:1667  payable(msg.sender).transfer(bal) */\n      0x08fc\n        /* \"contracts/EnglishAuction.sol\":1663:1666  bal */\n      dup3\n        /* \"contracts/EnglishAuction.sol\":1634:1667  payable(msg.sender).transfer(bal) */\n      swap1\n      dup2\n      iszero\n      mul\n      swap1\n      mload(0x40)\n      0x00\n      mload(0x40)\n      dup1\n      dup4\n      sub\n      dup2\n      dup6\n      dup9\n      dup9\n      call\n      swap4\n      pop\n      pop\n      pop\n      pop\n      iszero\n      dup1\n      iszero\n      tag_88\n      jumpi\n      returndatasize\n      0x00\n      dup1\n      returndatacopy\n      revert(0x00, returndatasize)\n    tag_88:\n      pop\n        /* \"contracts/EnglishAuction.sol\":1691:1701  msg.sender */\n      caller\n        /* \"contracts/EnglishAuction.sol\":1682:1707  Withdraw(msg.sender, bal) */\n      0xffffffffffffffffffffffffffffffffffffffff\n      and\n      0x884edad9ce6fa2440d8a54cc123490eb96d2768479d49ff9c7366125a9424364\n        /* \"contracts/EnglishAuction.sol\":1703:1706  bal */\n      dup3\n        /* \"contracts/EnglishAuction.sol\":1682:1707  Withdraw(msg.sender, bal) */\n      mload(0x40)\n      tag_89\n      swap2\n      swap1\n      tag_47\n      jump\t// in\n    tag_89:\n      mload(0x40)\n      dup1\n      swap2\n      sub\n      swap1\n      log2\n        /* \"contracts/EnglishAuction.sol\":1557:1714  {... */\n      pop\n        /* \"contracts/EnglishAuction.sol\":1528:1714  function withdraw() external {... */\n      jump\t// out\n        /* \"contracts/EnglishAuction.sol\":342:370  IERC721 public immutable nft */\n    tag_38:\n      immutable(\"0x9560168699514dcd528543d614e81b4f36adf182dc624d2f1eb91df8addd987e\")\n      dup2\n      jump\t// out\n        /* \"contracts/EnglishAuction.sol\":592:628  mapping(address => uint) public bids */\n    tag_45:\n      mstore(0x20, 0x02)\n      dup1\n      0x00\n      mstore\n      keccak256(0x00, 0x40)\n      0x00\n      swap2\n      pop\n      swap1\n      pop\n      sload\n      dup2\n      jump\t// out\n        /* \"contracts/EnglishAuction.sol\":455:474  uint32 public endAt */\n    tag_50:\n      0x00\n      dup1\n      sload\n      swap1\n      0x0100\n      exp\n      swap1\n      div\n      0xffffffff\n      and\n      dup2\n      jump\t// out\n        /* \"contracts/EnglishAuction.sol\":529:557  address public highestBidder */\n    tag_55:\n      0x00\n      0x06\n      swap1\n      sload\n      swap1\n      0x0100\n      exp\n      swap1\n      div\n      0xffffffffffffffffffffffffffffffffffffffff\n      and\n      dup2\n      jump\t// out\n        /* \"contracts/EnglishAuction.sol\":866:1133  function start() external {... */\n    tag_60:\n        /* \"contracts/EnglishAuction.sol\":924:930  seller */\n      immutable(\"0x8b953cbb84328003779eb1ef176ef07f7dd0ae3d4a8e408de53d15a36466c86e\")\n        /* \"contracts/EnglishAuction.sol\":910:930  msg.sender == seller */\n      0xffffffffffffffffffffffffffffffffffffffff\n      and\n        /* \"contracts/EnglishAuction.sol\":910:920  msg.sender */\n      caller\n        /* \"contracts/EnglishAuction.sol\":910:930  msg.sender == seller */\n      0xffffffffffffffffffffffffffffffffffffffff\n      and\n      eq\n        /* \"contracts/EnglishAuction.sol\":902:938  require(msg.sender == seller, \"not\") */\n      tag_91\n      jumpi\n      mload(0x40)\n      0x08c379a000000000000000000000000000000000000000000000000000000000\n      dup2\n      mstore\n      0x04\n      add\n      tag_92\n      swap1\n      tag_75\n      jump\t// in\n    tag_92:\n      mload(0x40)\n      dup1\n      swap2\n      sub\n      swap1\n      revert\n    tag_91:\n        /* \"contracts/EnglishAuction.sol\":957:964  started */\n      0x00\n      0x04\n      swap1\n      sload\n      swap1\n      0x0100\n      exp\n      swap1\n      div\n      0xff\n      and\n        /* \"contracts/EnglishAuction.sol\":956:964  !started */\n      iszero\n        /* \"contracts/EnglishAuction.sol\":948:976  require(!started, \"started\") */\n      tag_93\n      jumpi\n      mload(0x40)\n      0x08c379a000000000000000000000000000000000000000000000000000000000\n      dup2\n      mstore\n      0x04\n      add\n      tag_94\n      swap1\n      tag_95\n      jump\t// in\n    tag_94:\n      mload(0x40)\n      dup1\n      swap2\n      sub\n      swap1\n      revert\n    tag_93:\n        /* \"contracts/EnglishAuction.sol\":997:1001  true */\n      0x01\n        /* \"contracts/EnglishAuction.sol\":987:994  started */\n      0x00\n      0x04\n        /* \"contracts/EnglishAuction.sol\":987:1001  started = true */\n      0x0100\n      exp\n      dup2\n      sload\n      dup2\n      0xff\n      mul\n      not\n      and\n      swap1\n      dup4\n      iszero\n      iszero\n      mul\n      or\n      swap1\n      sstore\n      pop\n        /* \"contracts/EnglishAuction.sol\":1044:1046  60 */\n      0x3c\n        /* \"contracts/EnglishAuction.sol\":1026:1041  block.timestamp */\n      timestamp\n        /* \"contracts/EnglishAuction.sol\":1026:1046  block.timestamp + 60 */\n      tag_96\n      swap2\n      swap1\n      tag_84\n      jump\t// in\n    tag_96:\n        /* \"contracts/EnglishAuction.sol\":1011:1016  endAt */\n      0x00\n      dup1\n        /* \"contracts/EnglishAuction.sol\":1011:1047  endAt = uint32(block.timestamp + 60) */\n      0x0100\n      exp\n      dup2\n      sload\n      dup2\n      0xffffffff\n      mul\n      not\n      and\n      swap1\n      dup4\n      0xffffffff\n      and\n      mul\n      or\n      swap1\n      sstore\n      pop\n        /* \"contracts/EnglishAuction.sol\":1057:1060  nft */\n      immutable(\"0x9560168699514dcd528543d614e81b4f36adf182dc624d2f1eb91df8addd987e\")\n        /* \"contracts/EnglishAuction.sol\":1057:1073  nft.transferFrom */\n      0xffffffffffffffffffffffffffffffffffffffff\n      and\n      0x23b872dd\n        /* \"contracts/EnglishAuction.sol\":1074:1080  seller */\n      immutable(\"0x8b953cbb84328003779eb1ef176ef07f7dd0ae3d4a8e408de53d15a36466c86e\")\n        /* \"contracts/EnglishAuction.sol\":1090:1094  this */\n      address\n        /* \"contracts/EnglishAuction.sol\":1097:1102  nftId */\n      immutable(\"0xbbf5a24880b10a5f9f601c4058e4771ddea17e7d765ceb3c903814e1c0d621e0\")\n        /* \"contracts/EnglishAuction.sol\":1057:1103  nft.transferFrom(seller, address(this), nftId) */\n      mload(0x40)\n      dup5\n      0xffffffff\n      and\n      0xe0\n      shl\n      dup2\n      mstore\n      0x04\n      add\n      tag_97\n      swap4\n      swap3\n      swap2\n      swap1\n      tag_98\n      jump\t// in\n    tag_97:\n      0x00\n      mload(0x40)\n      dup1\n      dup4\n      sub\n      dup2\n      0x00\n      dup8\n      dup1\n      extcodesize\n      iszero\n      dup1\n      iszero\n      tag_99\n      jumpi\n      0x00\n      dup1\n      revert\n    tag_99:\n      pop\n      gas\n      call\n      iszero\n      dup1\n      iszero\n      tag_101\n      jumpi\n      returndatasize\n      0x00\n      dup1\n      returndatacopy\n      revert(0x00, returndatasize)\n    tag_101:\n      pop\n      pop\n      pop\n      pop\n        /* \"contracts/EnglishAuction.sol\":1119:1126  Start() */\n      0x1b55ba3aa851a46be3b365aee5b5c140edd620d578922f3e8466d2cbd96f954b\n      mload(0x40)\n      mload(0x40)\n      dup1\n      swap2\n      sub\n      swap1\n      log1\n        /* \"contracts/EnglishAuction.sol\":866:1133  function start() external {... */\n      jump\t// out\n        /* \"contracts/EnglishAuction.sol\":376:403  uint public immutable nftId */\n    tag_63:\n      immutable(\"0xbbf5a24880b10a5f9f601c4058e4771ddea17e7d765ceb3c903814e1c0d621e0\")\n      dup2\n      jump\t// out\n        /* \"contracts/EnglishAuction.sol\":563:585  uint public highestBid */\n    tag_67:\n      sload(0x01)\n      dup2\n      jump\t// out\n        /* \"contracts/EnglishAuction.sol\":1720:1825  function end() external {... */\n    tag_71:\n        /* \"contracts/EnglishAuction.sol\":1762:1769  started */\n      0x00\n      0x04\n      swap1\n      sload\n      swap1\n      0x0100\n      exp\n      swap1\n      div\n      0xff\n      and\n        /* \"contracts/EnglishAuction.sol\":1754:1777  require(started, \"not\") */\n      tag_103\n      jumpi\n      mload(0x40)\n      0x08c379a000000000000000000000000000000000000000000000000000000000\n      dup2\n      mstore\n      0x04\n      add\n      tag_104\n      swap1\n      tag_75\n      jump\t// in\n    tag_104:\n      mload(0x40)\n      dup1\n      swap2\n      sub\n      swap1\n      revert\n    tag_103:\n        /* \"contracts/EnglishAuction.sol\":1796:1801  ended */\n      0x00\n      0x05\n      swap1\n      sload\n      swap1\n      0x0100\n      exp\n      swap1\n      div\n      0xff\n      and\n        /* \"contracts/EnglishAuction.sol\":1795:1801  !ended */\n      iszero\n        /* \"contracts/EnglishAuction.sol\":1787:1809  require(!ended, \"not\") */\n      tag_105\n      jumpi\n      mload(0x40)\n      0x08c379a000000000000000000000000000000000000000000000000000000000\n      dup2\n      mstore\n      0x04\n      add\n      tag_106\n      swap1\n      tag_75\n      jump\t// in\n    tag_106:\n      mload(0x40)\n      dup1\n      swap2\n      sub\n      swap1\n      revert\n    tag_105:\n        /* \"contracts/EnglishAuction.sol\":1720:1825  function end() external {... */\n      jump\t// out\n        /* \"#utility.yul\":7:146   */\n    tag_108:\n        /* \"#utility.yul\":53:58   */\n      0x00\n        /* \"#utility.yul\":91:97   */\n      dup2\n        /* \"#utility.yul\":78:98   */\n      calldataload\n        /* \"#utility.yul\":69:98   */\n      swap1\n      pop\n        /* \"#utility.yul\":107:140   */\n      tag_110\n        /* \"#utility.yul\":134:139   */\n      dup2\n        /* \"#utility.yul\":107:140   */\n      tag_111\n      jump\t// in\n    tag_110:\n        /* \"#utility.yul\":7:146   */\n      swap3\n      swap2\n      pop\n      pop\n      jump\t// out\n        /* \"#utility.yul\":152:481   */\n    tag_44:\n        /* \"#utility.yul\":211:217   */\n      0x00\n        /* \"#utility.yul\":260:262   */\n      0x20\n        /* \"#utility.yul\":248:257   */\n      dup3\n        /* \"#utility.yul\":239:246   */\n      dup5\n        /* \"#utility.yul\":235:258   */\n      sub\n        /* \"#utility.yul\":231:263   */\n      slt\n        /* \"#utility.yul\":228:347   */\n      iszero\n      tag_113\n      jumpi\n        /* \"#utility.yul\":266:345   */\n      tag_114\n      tag_115\n      jump\t// in\n    tag_114:\n        /* \"#utility.yul\":228:347   */\n    tag_113:\n        /* \"#utility.yul\":386:387   */\n      0x00\n        /* \"#utility.yul\":411:464   */\n      tag_116\n        /* \"#utility.yul\":456:463   */\n      dup5\n        /* \"#utility.yul\":447:453   */\n      dup3\n        /* \"#utility.yul\":436:445   */\n      dup6\n        /* \"#utility.yul\":432:454   */\n      add\n        /* \"#utility.yul\":411:464   */\n      tag_108\n      jump\t// in\n    tag_116:\n        /* \"#utility.yul\":401:464   */\n      swap2\n      pop\n        /* \"#utility.yul\":357:474   */\n      pop\n        /* \"#utility.yul\":152:481   */\n      swap3\n      swap2\n      pop\n      pop\n      jump\t// out\n        /* \"#utility.yul\":487:634   */\n    tag_117:\n        /* \"#utility.yul\":582:627   */\n      tag_119\n        /* \"#utility.yul\":621:626   */\n      dup2\n        /* \"#utility.yul\":582:627   */\n      tag_120\n      jump\t// in\n    tag_119:\n        /* \"#utility.yul\":577:580   */\n      dup3\n        /* \"#utility.yul\":570:628   */\n      mstore\n        /* \"#utility.yul\":487:634   */\n      pop\n      pop\n      jump\t// out\n        /* \"#utility.yul\":640:782   */\n    tag_121:\n        /* \"#utility.yul\":743:775   */\n      tag_123\n        /* \"#utility.yul\":769:774   */\n      dup2\n        /* \"#utility.yul\":743:775   */\n      tag_124\n      jump\t// in\n    tag_123:\n        /* \"#utility.yul\":738:741   */\n      dup3\n        /* \"#utility.yul\":731:776   */\n      mstore\n        /* \"#utility.yul\":640:782   */\n      pop\n      pop\n      jump\t// out\n        /* \"#utility.yul\":788:906   */\n    tag_125:\n        /* \"#utility.yul\":875:899   */\n      tag_127\n        /* \"#utility.yul\":893:898   */\n      dup2\n        /* \"#utility.yul\":875:899   */\n      tag_128\n      jump\t// in\n    tag_127:\n        /* \"#utility.yul\":870:873   */\n      dup3\n        /* \"#utility.yul\":863:900   */\n      mstore\n        /* \"#utility.yul\":788:906   */\n      pop\n      pop\n      jump\t// out\n        /* \"#utility.yul\":912:1021   */\n    tag_129:\n        /* \"#utility.yul\":993:1014   */\n      tag_131\n        /* \"#utility.yul\":1008:1013   */\n      dup2\n        /* \"#utility.yul\":993:1014   */\n      tag_132\n      jump\t// in\n    tag_131:\n        /* \"#utility.yul\":988:991   */\n      dup3\n        /* \"#utility.yul\":981:1015   */\n      mstore\n        /* \"#utility.yul\":912:1021   */\n      pop\n      pop\n      jump\t// out\n        /* \"#utility.yul\":1027:1186   */\n    tag_133:\n        /* \"#utility.yul\":1128:1179   */\n      tag_135\n        /* \"#utility.yul\":1173:1178   */\n      dup2\n        /* \"#utility.yul\":1128:1179   */\n      tag_136\n      jump\t// in\n    tag_135:\n        /* \"#utility.yul\":1123:1126   */\n      dup3\n        /* \"#utility.yul\":1116:1180   */\n      mstore\n        /* \"#utility.yul\":1027:1186   */\n      pop\n      pop\n      jump\t// out\n        /* \"#utility.yul\":1192:1557   */\n    tag_137:\n        /* \"#utility.yul\":1334:1337   */\n      0x00\n        /* \"#utility.yul\":1355:1421   */\n      tag_139\n        /* \"#utility.yul\":1419:1420   */\n      0x03\n        /* \"#utility.yul\":1414:1417   */\n      dup4\n        /* \"#utility.yul\":1355:1421   */\n      tag_140\n      jump\t// in\n    tag_139:\n        /* \"#utility.yul\":1348:1421   */\n      swap2\n      pop\n        /* \"#utility.yul\":1430:1523   */\n      tag_141\n        /* \"#utility.yul\":1519:1522   */\n      dup3\n        /* \"#utility.yul\":1430:1523   */\n      tag_142\n      jump\t// in\n    tag_141:\n        /* \"#utility.yul\":1548:1550   */\n      0x20\n        /* \"#utility.yul\":1543:1546   */\n      dup3\n        /* \"#utility.yul\":1539:1551   */\n      add\n        /* \"#utility.yul\":1532:1551   */\n      swap1\n      pop\n        /* \"#utility.yul\":1192:1557   */\n      swap2\n      swap1\n      pop\n      jump\t// out\n        /* \"#utility.yul\":1563:1928   */\n    tag_143:\n        /* \"#utility.yul\":1705:1708   */\n      0x00\n        /* \"#utility.yul\":1726:1792   */\n      tag_145\n        /* \"#utility.yul\":1790:1791   */\n      0x05\n        /* \"#utility.yul\":1785:1788   */\n      dup4\n        /* \"#utility.yul\":1726:1792   */\n      tag_140\n      jump\t// in\n    tag_145:\n        /* \"#utility.yul\":1719:1792   */\n      swap2\n      pop\n        /* \"#utility.yul\":1801:1894   */\n      tag_146\n        /* \"#utility.yul\":1890:1893   */\n      dup3\n        /* \"#utility.yul\":1801:1894   */\n      tag_147\n      jump\t// in\n    tag_146:\n        /* \"#utility.yul\":1919:1921   */\n      0x20\n        /* \"#utility.yul\":1914:1917   */\n      dup3\n        /* \"#utility.yul\":1910:1922   */\n      add\n        /* \"#utility.yul\":1903:1922   */\n      swap1\n      pop\n        /* \"#utility.yul\":1563:1928   */\n      swap2\n      swap1\n      pop\n      jump\t// out\n        /* \"#utility.yul\":1934:2299   */\n    tag_148:\n        /* \"#utility.yul\":2076:2079   */\n      0x00\n        /* \"#utility.yul\":2097:2163   */\n      tag_150\n        /* \"#utility.yul\":2161:2162   */\n      0x07\n        /* \"#utility.yul\":2156:2159   */\n      dup4\n        /* \"#utility.yul\":2097:2163   */\n      tag_140\n      jump\t// in\n    tag_150:\n        /* \"#utility.yul\":2090:2163   */\n      swap2\n      pop\n        /* \"#utility.yul\":2172:2265   */\n      tag_151\n        /* \"#utility.yul\":2261:2264   */\n      dup3\n        /* \"#utility.yul\":2172:2265   */\n      tag_152\n      jump\t// in\n    tag_151:\n        /* \"#utility.yul\":2290:2292   */\n      0x20\n        /* \"#utility.yul\":2285:2288   */\n      dup3\n        /* \"#utility.yul\":2281:2293   */\n      add\n        /* \"#utility.yul\":2274:2293   */\n      swap1\n      pop\n        /* \"#utility.yul\":1934:2299   */\n      swap2\n      swap1\n      pop\n      jump\t// out\n        /* \"#utility.yul\":2305:2670   */\n    tag_153:\n        /* \"#utility.yul\":2447:2450   */\n      0x00\n        /* \"#utility.yul\":2468:2534   */\n      tag_155\n        /* \"#utility.yul\":2532:2533   */\n      0x05\n        /* \"#utility.yul\":2527:2530   */\n      dup4\n        /* \"#utility.yul\":2468:2534   */\n      tag_140\n      jump\t// in\n    tag_155:\n        /* \"#utility.yul\":2461:2534   */\n      swap2\n      pop\n        /* \"#utility.yul\":2543:2636   */\n      tag_156\n        /* \"#utility.yul\":2632:2635   */\n      dup3\n        /* \"#utility.yul\":2543:2636   */\n      tag_157\n      jump\t// in\n    tag_156:\n        /* \"#utility.yul\":2661:2663   */\n      0x20\n        /* \"#utility.yul\":2656:2659   */\n      dup3\n        /* \"#utility.yul\":2652:2664   */\n      add\n        /* \"#utility.yul\":2645:2664   */\n      swap1\n      pop\n        /* \"#utility.yul\":2305:2670   */\n      swap2\n      swap1\n      pop\n      jump\t// out\n        /* \"#utility.yul\":2676:2794   */\n    tag_158:\n        /* \"#utility.yul\":2763:2787   */\n      tag_160\n        /* \"#utility.yul\":2781:2786   */\n      dup2\n        /* \"#utility.yul\":2763:2787   */\n      tag_161\n      jump\t// in\n    tag_160:\n        /* \"#utility.yul\":2758:2761   */\n      dup3\n        /* \"#utility.yul\":2751:2788   */\n      mstore\n        /* \"#utility.yul\":2676:2794   */\n      pop\n      pop\n      jump\t// out\n        /* \"#utility.yul\":2800:2915   */\n    tag_162:\n        /* \"#utility.yul\":2885:2908   */\n      tag_164\n        /* \"#utility.yul\":2902:2907   */\n      dup2\n        /* \"#utility.yul\":2885:2908   */\n      tag_165\n      jump\t// in\n    tag_164:\n        /* \"#utility.yul\":2880:2883   */\n      dup3\n        /* \"#utility.yul\":2873:2909   */\n      mstore\n        /* \"#utility.yul\":2800:2915   */\n      pop\n      pop\n      jump\t// out\n        /* \"#utility.yul\":2921:3143   */\n    tag_57:\n        /* \"#utility.yul\":3014:3018   */\n      0x00\n        /* \"#utility.yul\":3052:3054   */\n      0x20\n        /* \"#utility.yul\":3041:3050   */\n      dup3\n        /* \"#utility.yul\":3037:3055   */\n      add\n        /* \"#utility.yul\":3029:3055   */\n      swap1\n      pop\n        /* \"#utility.yul\":3065:3136   */\n      tag_167\n        /* \"#utility.yul\":3133:3134   */\n      0x00\n        /* \"#utility.yul\":3122:3131   */\n      dup4\n        /* \"#utility.yul\":3118:3135   */\n      add\n        /* \"#utility.yul\":3109:3115   */\n      dup5\n        /* \"#utility.yul\":3065:3136   */\n      tag_125\n      jump\t// in\n    tag_167:\n        /* \"#utility.yul\":2921:3143   */\n      swap3\n      swap2\n      pop\n      pop\n      jump\t// out\n        /* \"#utility.yul\":3149:3403   */\n    tag_21:\n        /* \"#utility.yul\":3258:3262   */\n      0x00\n        /* \"#utility.yul\":3296:3298   */\n      0x20\n        /* \"#utility.yul\":3285:3294   */\n      dup3\n        /* \"#utility.yul\":3281:3299   */\n      add\n        /* \"#utility.yul\":3273:3299   */\n      swap1\n      pop\n        /* \"#utility.yul\":3309:3396   */\n      tag_169\n        /* \"#utility.yul\":3393:3394   */\n      0x00\n        /* \"#utility.yul\":3382:3391   */\n      dup4\n        /* \"#utility.yul\":3378:3395   */\n      add\n        /* \"#utility.yul\":3369:3375   */\n      dup5\n        /* \"#utility.yul\":3309:3396   */\n      tag_121\n      jump\t// in\n    tag_169:\n        /* \"#utility.yul\":3149:3403   */\n      swap3\n      swap2\n      pop\n      pop\n      jump\t// out\n        /* \"#utility.yul\":3409:3867   */\n    tag_98:\n        /* \"#utility.yul\":3566:3570   */\n      0x00\n        /* \"#utility.yul\":3604:3606   */\n      0x60\n        /* \"#utility.yul\":3593:3602   */\n      dup3\n        /* \"#utility.yul\":3589:3607   */\n      add\n        /* \"#utility.yul\":3581:3607   */\n      swap1\n      pop\n        /* \"#utility.yul\":3617:3696   */\n      tag_171\n        /* \"#utility.yul\":3693:3694   */\n      0x00\n        /* \"#utility.yul\":3682:3691   */\n      dup4\n        /* \"#utility.yul\":3678:3695   */\n      add\n        /* \"#utility.yul\":3669:3675   */\n      dup7\n        /* \"#utility.yul\":3617:3696   */\n      tag_117\n      jump\t// in\n    tag_171:\n        /* \"#utility.yul\":3706:3778   */\n      tag_172\n        /* \"#utility.yul\":3774:3776   */\n      0x20\n        /* \"#utility.yul\":3763:3772   */\n      dup4\n        /* \"#utility.yul\":3759:3777   */\n      add\n        /* \"#utility.yul\":3750:3756   */\n      dup6\n        /* \"#utility.yul\":3706:3778   */\n      tag_125\n      jump\t// in\n    tag_172:\n        /* \"#utility.yul\":3788:3860   */\n      tag_173\n        /* \"#utility.yul\":3856:3858   */\n      0x40\n        /* \"#utility.yul\":3845:3854   */\n      dup4\n        /* \"#utility.yul\":3841:3859   */\n      add\n        /* \"#utility.yul\":3832:3838   */\n      dup5\n        /* \"#utility.yul\":3788:3860   */\n      tag_158\n      jump\t// in\n    tag_173:\n        /* \"#utility.yul\":3409:3867   */\n      swap5\n      swap4\n      pop\n      pop\n      pop\n      pop\n      jump\t// out\n        /* \"#utility.yul\":3873:4083   */\n    tag_26:\n        /* \"#utility.yul\":3960:3964   */\n      0x00\n        /* \"#utility.yul\":3998:4000   */\n      0x20\n        /* \"#utility.yul\":3987:3996   */\n      dup3\n        /* \"#utility.yul\":3983:4001   */\n      add\n        /* \"#utility.yul\":3975:4001   */\n      swap1\n      pop\n        /* \"#utility.yul\":4011:4076   */\n      tag_175\n        /* \"#utility.yul\":4073:4074   */\n      0x00\n        /* \"#utility.yul\":4062:4071   */\n      dup4\n        /* \"#utility.yul\":4058:4075   */\n      add\n        /* \"#utility.yul\":4049:4055   */\n      dup5\n        /* \"#utility.yul\":4011:4076   */\n      tag_129\n      jump\t// in\n    tag_175:\n        /* \"#utility.yul\":3873:4083   */\n      swap3\n      swap2\n      pop\n      pop\n      jump\t// out\n        /* \"#utility.yul\":4089:4339   */\n    tag_40:\n        /* \"#utility.yul\":4196:4200   */\n      0x00\n        /* \"#utility.yul\":4234:4236   */\n      0x20\n        /* \"#utility.yul\":4223:4232   */\n      dup3\n        /* \"#utility.yul\":4219:4237   */\n      add\n        /* \"#utility.yul\":4211:4237   */\n      swap1\n      pop\n        /* \"#utility.yul\":4247:4332   */\n      tag_177\n        /* \"#utility.yul\":4329:4330   */\n      0x00\n        /* \"#utility.yul\":4318:4327   */\n      dup4\n        /* \"#utility.yul\":4314:4331   */\n      add\n        /* \"#utility.yul\":4305:4311   */\n      dup5\n        /* \"#utility.yul\":4247:4332   */\n      tag_133\n      jump\t// in\n    tag_177:\n        /* \"#utility.yul\":4089:4339   */\n      swap3\n      swap2\n      pop\n      pop\n      jump\t// out\n        /* \"#utility.yul\":4345:4764   */\n    tag_75:\n        /* \"#utility.yul\":4511:4515   */\n      0x00\n        /* \"#utility.yul\":4549:4551   */\n      0x20\n        /* \"#utility.yul\":4538:4547   */\n      dup3\n        /* \"#utility.yul\":4534:4552   */\n      add\n        /* \"#utility.yul\":4526:4552   */\n      swap1\n      pop\n        /* \"#utility.yul\":4598:4607   */\n      dup2\n        /* \"#utility.yul\":4592:4596   */\n      dup2\n        /* \"#utility.yul\":4588:4608   */\n      sub\n        /* \"#utility.yul\":4584:4585   */\n      0x00\n        /* \"#utility.yul\":4573:4582   */\n      dup4\n        /* \"#utility.yul\":4569:4586   */\n      add\n        /* \"#utility.yul\":4562:4609   */\n      mstore\n        /* \"#utility.yul\":4626:4757   */\n      tag_179\n        /* \"#utility.yul\":4752:4756   */\n      dup2\n        /* \"#utility.yul\":4626:4757   */\n      tag_137\n      jump\t// in\n    tag_179:\n        /* \"#utility.yul\":4618:4757   */\n      swap1\n      pop\n        /* \"#utility.yul\":4345:4764   */\n      swap2\n      swap1\n      pop\n      jump\t// out\n        /* \"#utility.yul\":4770:5189   */\n    tag_81:\n        /* \"#utility.yul\":4936:4940   */\n      0x00\n        /* \"#utility.yul\":4974:4976   */\n      0x20\n        /* \"#utility.yul\":4963:4972   */\n      dup3\n        /* \"#utility.yul\":4959:4977   */\n      add\n        /* \"#utility.yul\":4951:4977   */\n      swap1\n      pop\n        /* \"#utility.yul\":5023:5032   */\n      dup2\n        /* \"#utility.yul\":5017:5021   */\n      dup2\n        /* \"#utility.yul\":5013:5033   */\n      sub\n        /* \"#utility.yul\":5009:5010   */\n      0x00\n        /* \"#utility.yul\":4998:5007   */\n      dup4\n        /* \"#utility.yul\":4994:5011   */\n      add\n        /* \"#utility.yul\":4987:5034   */\n      mstore\n        /* \"#utility.yul\":5051:5182   */\n      tag_181\n        /* \"#utility.yul\":5177:5181   */\n      dup2\n        /* \"#utility.yul\":5051:5182   */\n      tag_143\n      jump\t// in\n    tag_181:\n        /* \"#utility.yul\":5043:5182   */\n      swap1\n      pop\n        /* \"#utility.yul\":4770:5189   */\n      swap2\n      swap1\n      pop\n      jump\t// out\n        /* \"#utility.yul\":5195:5614   */\n    tag_95:\n        /* \"#utility.yul\":5361:5365   */\n      0x00\n        /* \"#utility.yul\":5399:5401   */\n      0x20\n        /* \"#utility.yul\":5388:5397   */\n      dup3\n        /* \"#utility.yul\":5384:5402   */\n      add\n        /* \"#utility.yul\":5376:5402   */\n      swap1\n      pop\n        /* \"#utility.yul\":5448:5457   */\n      dup2\n        /* \"#utility.yul\":5442:5446   */\n      dup2\n        /* \"#utility.yul\":5438:5458   */\n      sub\n        /* \"#utility.yul\":5434:5435   */\n      0x00\n        /* \"#utility.yul\":5423:5432   */\n      dup4\n        /* \"#utility.yul\":5419:5436   */\n      add\n        /* \"#utility.yul\":5412:5459   */\n      mstore\n        /* \"#utility.yul\":5476:5607   */\n      tag_183\n        /* \"#utility.yul\":5602:5606   */\n      dup2\n        /* \"#utility.yul\":5476:5607   */\n      tag_148\n      jump\t// in\n    tag_183:\n        /* \"#utility.yul\":5468:5607   */\n      swap1\n      pop\n        /* \"#utility.yul\":5195:5614   */\n      swap2\n      swap1\n      pop\n      jump\t// out\n        /* \"#utility.yul\":5620:6039   */\n    tag_78:\n        /* \"#utility.yul\":5786:5790   */\n      0x00\n        /* \"#utility.yul\":5824:5826   */\n      0x20\n        /* \"#utility.yul\":5813:5822   */\n      dup3\n        /* \"#utility.yul\":5809:5827   */\n      add\n        /* \"#utility.yul\":5801:5827   */\n      swap1\n      pop\n        /* \"#utility.yul\":5873:5882   */\n      dup2\n        /* \"#utility.yul\":5867:5871   */\n      dup2\n        /* \"#utility.yul\":5863:5883   */\n      sub\n        /* \"#utility.yul\":5859:5860   */\n      0x00\n        /* \"#utility.yul\":5848:5857   */\n      dup4\n        /* \"#utility.yul\":5844:5861   */\n      add\n        /* \"#utility.yul\":5837:5884   */\n      mstore\n        /* \"#utility.yul\":5901:6032   */\n      tag_185\n        /* \"#utility.yul\":6027:6031   */\n      dup2\n        /* \"#utility.yul\":5901:6032   */\n      tag_153\n      jump\t// in\n    tag_185:\n        /* \"#utility.yul\":5893:6032   */\n      swap1\n      pop\n        /* \"#utility.yul\":5620:6039   */\n      swap2\n      swap1\n      pop\n      jump\t// out\n        /* \"#utility.yul\":6045:6267   */\n    tag_47:\n        /* \"#utility.yul\":6138:6142   */\n      0x00\n        /* \"#utility.yul\":6176:6178   */\n      0x20\n        /* \"#utility.yul\":6165:6174   */\n      dup3\n        /* \"#utility.yul\":6161:6179   */\n      add\n        /* \"#utility.yul\":6153:6179   */\n      swap1\n      pop\n        /* \"#utility.yul\":6189:6260   */\n      tag_187\n        /* \"#utility.yul\":6257:6258   */\n      0x00\n        /* \"#utility.yul\":6246:6255   */\n      dup4\n        /* \"#utility.yul\":6242:6259   */\n      add\n        /* \"#utility.yul\":6233:6239   */\n      dup5\n        /* \"#utility.yul\":6189:6260   */\n      tag_158\n      jump\t// in\n    tag_187:\n        /* \"#utility.yul\":6045:6267   */\n      swap3\n      swap2\n      pop\n      pop\n      jump\t// out\n        /* \"#utility.yul\":6273:6491   */\n    tag_52:\n        /* \"#utility.yul\":6364:6368   */\n      0x00\n        /* \"#utility.yul\":6402:6404   */\n      0x20\n        /* \"#utility.yul\":6391:6400   */\n      dup3\n        /* \"#utility.yul\":6387:6405   */\n      add\n        /* \"#utility.yul\":6379:6405   */\n      swap1\n      pop\n        /* \"#utility.yul\":6415:6484   */\n      tag_189\n        /* \"#utility.yul\":6481:6482   */\n      0x00\n        /* \"#utility.yul\":6470:6479   */\n      dup4\n        /* \"#utility.yul\":6466:6483   */\n      add\n        /* \"#utility.yul\":6457:6463   */\n      dup5\n        /* \"#utility.yul\":6415:6484   */\n      tag_162\n      jump\t// in\n    tag_189:\n        /* \"#utility.yul\":6273:6491   */\n      swap3\n      swap2\n      pop\n      pop\n      jump\t// out\n        /* \"#utility.yul\":6578:6747   */\n    tag_140:\n        /* \"#utility.yul\":6662:6673   */\n      0x00\n        /* \"#utility.yul\":6696:6702   */\n      dup3\n        /* \"#utility.yul\":6691:6694   */\n      dup3\n        /* \"#utility.yul\":6684:6703   */\n      mstore\n        /* \"#utility.yul\":6736:6740   */\n      0x20\n        /* \"#utility.yul\":6731:6734   */\n      dup3\n        /* \"#utility.yul\":6727:6741   */\n      add\n        /* \"#utility.yul\":6712:6741   */\n      swap1\n      pop\n        /* \"#utility.yul\":6578:6747   */\n      swap3\n      swap2\n      pop\n      pop\n      jump\t// out\n        /* \"#utility.yul\":6753:7058   */\n    tag_84:\n        /* \"#utility.yul\":6793:6796   */\n      0x00\n        /* \"#utility.yul\":6812:6832   */\n      tag_194\n        /* \"#utility.yul\":6830:6831   */\n      dup3\n        /* \"#utility.yul\":6812:6832   */\n      tag_161\n      jump\t// in\n    tag_194:\n        /* \"#utility.yul\":6807:6832   */\n      swap2\n      pop\n        /* \"#utility.yul\":6846:6866   */\n      tag_195\n        /* \"#utility.yul\":6864:6865   */\n      dup4\n        /* \"#utility.yul\":6846:6866   */\n      tag_161\n      jump\t// in\n    tag_195:\n        /* \"#utility.yul\":6841:6866   */\n      swap3\n      pop\n        /* \"#utility.yul\":7000:7001   */\n      dup3\n        /* \"#utility.yul\":6932:6998   */\n      0xffffffffffffffffffffffffffffffffffffffffffffffffffffffffffffffff\n        /* \"#utility.yul\":6928:7002   */\n      sub\n        /* \"#utility.yul\":6925:6926   */\n      dup3\n        /* \"#utility.yul\":6922:7003   */\n      gt\n        /* \"#utility.yul\":6919:7026   */\n      iszero\n      tag_196\n      jumpi\n        /* \"#utility.yul\":7006:7024   */\n      tag_197\n      tag_198\n      jump\t// in\n    tag_197:\n        /* \"#utility.yul\":6919:7026   */\n    tag_196:\n        /* \"#utility.yul\":7050:7051   */\n      dup3\n        /* \"#utility.yul\":7047:7048   */\n      dup3\n        /* \"#utility.yul\":7043:7052   */\n      add\n        /* \"#utility.yul\":7036:7052   */\n      swap1\n      pop\n        /* \"#utility.yul\":6753:7058   */\n      swap3\n      swap2\n      pop\n      pop\n      jump\t// out\n        /* \"#utility.yul\":7064:7160   */\n    tag_128:\n        /* \"#utility.yul\":7101:7108   */\n      0x00\n        /* \"#utility.yul\":7130:7154   */\n      tag_200\n        /* \"#utility.yul\":7148:7153   */\n      dup3\n        /* \"#utility.yul\":7130:7154   */\n      tag_201\n      jump\t// in\n    tag_200:\n        /* \"#utility.yul\":7119:7154   */\n      swap1\n      pop\n        /* \"#utility.yul\":7064:7160   */\n      swap2\n      swap1\n      pop\n      jump\t// out\n        /* \"#utility.yul\":7166:7270   */\n    tag_124:\n        /* \"#utility.yul\":7211:7218   */\n      0x00\n        /* \"#utility.yul\":7240:7264   */\n      tag_203\n        /* \"#utility.yul\":7258:7263   */\n      dup3\n        /* \"#utility.yul\":7240:7264   */\n      tag_201\n      jump\t// in\n    tag_203:\n        /* \"#utility.yul\":7229:7264   */\n      swap1\n      pop\n        /* \"#utility.yul\":7166:7270   */\n      swap2\n      swap1\n      pop\n      jump\t// out\n        /* \"#utility.yul\":7276:7366   */\n    tag_132:\n        /* \"#utility.yul\":7310:7317   */\n      0x00\n        /* \"#utility.yul\":7353:7358   */\n      dup2\n        /* \"#utility.yul\":7346:7359   */\n      iszero\n        /* \"#utility.yul\":7339:7360   */\n      iszero\n        /* \"#utility.yul\":7328:7360   */\n      swap1\n      pop\n        /* \"#utility.yul\":7276:7366   */\n      swap2\n      swap1\n      pop\n      jump\t// out\n        /* \"#utility.yul\":7372:7498   */\n    tag_201:\n        /* \"#utility.yul\":7409:7416   */\n      0x00\n        /* \"#utility.yul\":7449:7491   */\n      0xffffffffffffffffffffffffffffffffffffffff\n        /* \"#utility.yul\":7442:7447   */\n      dup3\n        /* \"#utility.yul\":7438:7492   */\n      and\n        /* \"#utility.yul\":7427:7492   */\n      swap1\n      pop\n        /* \"#utility.yul\":7372:7498   */\n      swap2\n      swap1\n      pop\n      jump\t// out\n        /* \"#utility.yul\":7504:7581   */\n    tag_161:\n        /* \"#utility.yul\":7541:7548   */\n      0x00\n        /* \"#utility.yul\":7570:7575   */\n      dup2\n        /* \"#utility.yul\":7559:7575   */\n      swap1\n      pop\n        /* \"#utility.yul\":7504:7581   */\n      swap2\n      swap1\n      pop\n      jump\t// out\n        /* \"#utility.yul\":7587:7680   */\n    tag_165:\n        /* \"#utility.yul\":7623:7630   */\n      0x00\n        /* \"#utility.yul\":7663:7673   */\n      0xffffffff\n        /* \"#utility.yul\":7656:7661   */\n      dup3\n        /* \"#utility.yul\":7652:7674   */\n      and\n        /* \"#utility.yul\":7641:7674   */\n      swap1\n      pop\n        /* \"#utility.yul\":7587:7680   */\n      swap2\n      swap1\n      pop\n      jump\t// out\n        /* \"#utility.yul\":7686:7820   */\n    tag_120:\n        /* \"#utility.yul\":7744:7753   */\n      0x00\n        /* \"#utility.yul\":7777:7814   */\n      tag_209\n        /* \"#utility.yul\":7808:7813   */\n      dup3\n        /* \"#utility.yul\":7777:7814   */\n      tag_210\n      jump\t// in\n    tag_209:\n        /* \"#utility.yul\":7764:7814   */\n      swap1\n      pop\n        /* \"#utility.yul\":7686:7820   */\n      swap2\n      swap1\n      pop\n      jump\t// out\n        /* \"#utility.yul\":7826:7966   */\n    tag_136:\n        /* \"#utility.yul\":7890:7899   */\n      0x00\n        /* \"#utility.yul\":7923:7960   */\n      tag_212\n        /* \"#utility.yul\":7954:7959   */\n      dup3\n        /* \"#utility.yul\":7923:7960   */\n      tag_210\n      jump\t// in\n    tag_212:\n        /* \"#utility.yul\":7910:7960   */\n      swap1\n      pop\n        /* \"#utility.yul\":7826:7966   */\n      swap2\n      swap1\n      pop\n      jump\t// out\n        /* \"#utility.yul\":7972:8098   */\n    tag_210:\n        /* \"#utility.yul\":8022:8031   */\n      0x00\n        /* \"#utility.yul\":8055:8092   */\n      tag_214\n        /* \"#utility.yul\":8086:8091   */\n      dup3\n        /* \"#utility.yul\":8055:8092   */\n      tag_215\n      jump\t// in\n    tag_214:\n        /* \"#utility.yul\":8042:8092   */\n      swap1\n      pop\n        /* \"#utility.yul\":7972:8098   */\n      swap2\n      swap1\n      pop\n      jump\t// out\n        /* \"#utility.yul\":8104:8217   */\n    tag_215:\n        /* \"#utility.yul\":8154:8163   */\n      0x00\n        /* \"#utility.yul\":8187:8211   */\n      tag_217\n        /* \"#utility.yul\":8205:8210   */\n      dup3\n        /* \"#utility.yul\":8187:8211   */\n      tag_201\n      jump\t// in\n    tag_217:\n        /* \"#utility.yul\":8174:8211   */\n      swap1\n      pop\n        /* \"#utility.yul\":8104:8217   */\n      swap2\n      swap1\n      pop\n      jump\t// out\n        /* \"#utility.yul\":8223:8403   */\n    tag_198:\n        /* \"#utility.yul\":8271:8348   */\n      0x4e487b7100000000000000000000000000000000000000000000000000000000\n        /* \"#utility.yul\":8268:8269   */\n      0x00\n        /* \"#utility.yul\":8261:8349   */\n      mstore\n        /* \"#utility.yul\":8368:8372   */\n      0x11\n        /* \"#utility.yul\":8365:8366   */\n      0x04\n        /* \"#utility.yul\":8358:8373   */\n      mstore\n        /* \"#utility.yul\":8392:8396   */\n      0x24\n        /* \"#utility.yul\":8389:8390   */\n      0x00\n        /* \"#utility.yul\":8382:8397   */\n      revert\n        /* \"#utility.yul\":8532:8649   */\n    tag_115:\n        /* \"#utility.yul\":8641:8642   */\n      0x00\n        /* \"#utility.yul\":8638:8639   */\n      dup1\n        /* \"#utility.yul\":8631:8643   */\n      revert\n        /* \"#utility.yul\":8655:8808   */\n    tag_142:\n        /* \"#utility.yul\":8795:8800   */\n      0x6e6f740000000000000000000000000000000000000000000000000000000000\n        /* \"#utility.yul\":8791:8792   */\n      0x00\n        /* \"#utility.yul\":8783:8789   */\n      dup3\n        /* \"#utility.yul\":8779:8793   */\n      add\n        /* \"#utility.yul\":8772:8801   */\n      mstore\n        /* \"#utility.yul\":8655:8808   */\n      pop\n      jump\t// out\n        /* \"#utility.yul\":8814:8969   */\n    tag_147:\n        /* \"#utility.yul\":8954:8961   */\n      0x76616c7565000000000000000000000000000000000000000000000000000000\n        /* \"#utility.yul\":8950:8951   */\n      0x00\n        /* \"#utility.yul\":8942:8948   */\n      dup3\n        /* \"#utility.yul\":8938:8952   */\n      add\n        /* \"#utility.yul\":8931:8962   */\n      mstore\n        /* \"#utility.yul\":8814:8969   */\n      pop\n      jump\t// out\n        /* \"#utility.yul\":8975:9132   */\n    tag_152:\n        /* \"#utility.yul\":9115:9124   */\n      0x7374617274656400000000000000000000000000000000000000000000000000\n        /* \"#utility.yul\":9111:9112   */\n      0x00\n        /* \"#utility.yul\":9103:9109   */\n      dup3\n        /* \"#utility.yul\":9099:9113   */\n      add\n        /* \"#utility.yul\":9092:9125   */\n      mstore\n        /* \"#utility.yul\":8975:9132   */\n      pop\n      jump\t// out\n        /* \"#utility.yul\":9138:9293   */\n    tag_157:\n        /* \"#utility.yul\":9278:9285   */\n      0x656e646564000000000000000000000000000000000000000000000000000000\n        /* \"#utility.yul\":9274:9275   */\n      0x00\n        /* \"#utility.yul\":9266:9272   */\n      dup3\n        /* \"#utility.yul\":9262:9276   */\n      add\n        /* \"#utility.yul\":9255:9286   */\n      mstore\n        /* \"#utility.yul\":9138:9293   */\n      pop\n      jump\t// out\n        /* \"#utility.yul\":9299:9421   */\n    tag_111:\n        /* \"#utility.yul\":9372:9396   */\n      tag_227\n        /* \"#utility.yul\":9390:9395   */\n      dup2\n        /* \"#utility.yul\":9372:9396   */\n      tag_128\n      jump\t// in\n    tag_227:\n        /* \"#utility.yul\":9365:9370   */\n      dup2\n        /* \"#utility.yul\":9362:9397   */\n      eq\n        /* \"#utility.yul\":9352:9415   */\n      tag_228\n      jumpi\n        /* \"#utility.yul\":9411:9412   */\n      0x00\n        /* \"#utility.yul\":9408:9409   */\n      dup1\n        /* \"#utility.yul\":9401:9413   */\n      revert\n        /* \"#utility.yul\":9352:9415   */\n    tag_228:\n        /* \"#utility.yul\":9299:9421   */\n      pop\n      jump\t// out\n\n    auxdata: 0xa2646970667358221220c1e88f62d070566e989fe34548392f1e259e15b6f657978b312010b2d55f984664736f6c63430008070033\n}\n",
				"bytecode": {
					"linkReferences": {},
					"object": "60e06040523480156200001157600080fd5b50604051620010aa380380620010aa8339818101604052810190620000379190620000eb565b8273ffffffffffffffffffffffffffffffffffffffff1660808173ffffffffffffffffffffffffffffffffffffffff1660601b815250508160a081815250503373ffffffffffffffffffffffffffffffffffffffff1660c08173ffffffffffffffffffffffffffffffffffffffff1660601b8152505080600181905550505050620001be565b600081519050620000ce816200018a565b92915050565b600081519050620000e581620001a4565b92915050565b60008060006060848603121562000107576200010662000185565b5b60006200011786828701620000bd565b93505060206200012a86828701620000d4565b92505060406200013d86828701620000d4565b9150509250925092565b600062000154826200015b565b9050919050565b600073ffffffffffffffffffffffffffffffffffffffff82169050919050565b6000819050919050565b600080fd5b620001958162000147565b8114620001a157600080fd5b50565b620001af816200017b565b8114620001bb57600080fd5b50565b60805160601c60a05160c05160601c610e9a62000210600039600081816102ad015281816106e10152610842015260008181610864015261090301526000818161066b01526108060152610e9a6000f3fe6080604052600436106100c25760003560e01c806362ea82db1161007f578063be9a655511610059578063be9a655514610227578063c6bc51821461023e578063d57bde7914610269578063efbe1c1c14610294576100c2565b806362ea82db146101945780637cc3ae8c146101d157806391f90157146101fc576100c2565b806308551a53146100c757806312fa6feb146100f25780631998aeef1461011d5780631f2698ab146101275780633ccfd60b1461015257806347ccca0214610169575b600080fd5b3480156100d357600080fd5b506100dc6102ab565b6040516100e99190610b1e565b60405180910390f35b3480156100fe57600080fd5b506101076102cf565b6040516101149190610b70565b60405180910390f35b6101256102e2565b005b34801561013357600080fd5b5061013c610535565b6040516101499190610b70565b60405180910390f35b34801561015e57600080fd5b50610167610548565b005b34801561017557600080fd5b5061017e610669565b60405161018b9190610b8b565b60405180910390f35b3480156101a057600080fd5b506101bb60048036038101906101b691906109e1565b61068d565b6040516101c89190610c26565b60405180910390f35b3480156101dd57600080fd5b506101e66106a5565b6040516101f39190610c41565b60405180910390f35b34801561020857600080fd5b506102116106b9565b60405161021e9190610b03565b60405180910390f35b34801561023357600080fd5b5061023c6106df565b005b34801561024a57600080fd5b50610253610901565b6040516102609190610c26565b60405180910390f35b34801561027557600080fd5b5061027e610925565b60405161028b9190610c26565b60405180910390f35b3480156102a057600080fd5b506102a961092b565b005b7f000000000000000000000000000000000000000000000000000000000000000081565b600060059054906101000a900460ff1681565b600060049054906101000a900460ff16610331576040517f08c379a000000000000000000000000000000000000000000000000000000000815260040161032890610ba6565b60405180910390fd5b60008054906101000a900463ffffffff1663ffffffff164210610389576040517f08c379a000000000000000000000000000000000000000000000000000000000815260040161038090610c06565b60405180910390fd5b60015434116103cd576040517f08c379a00000000000000000000000000000000000000000000000000000000081526004016103c490610bc6565b60405180910390fd5b600073ffffffffffffffffffffffffffffffffffffffff16600060069054906101000a900473ffffffffffffffffffffffffffffffffffffffff1673ffffffffffffffffffffffffffffffffffffffff161461049d57600154600260008060069054906101000a900473ffffffffffffffffffffffffffffffffffffffff1673ffffffffffffffffffffffffffffffffffffffff1673ffffffffffffffffffffffffffffffffffffffff16815260200190815260200160002060008282546104959190610c6d565b925050819055505b3460018190555033600060066101000a81548173ffffffffffffffffffffffffffffffffffffffff021916908373ffffffffffffffffffffffffffffffffffffffff1602179055503373ffffffffffffffffffffffffffffffffffffffff167fe684a55f31b79eca403df938249029212a5925ec6be8012e099b45bc1019e5d23460405161052b9190610c26565b60405180910390a2565b600060049054906101000a900460ff1681565b6000600260003373ffffffffffffffffffffffffffffffffffffffff1673ffffffffffffffffffffffffffffffffffffffff1681526020019081526020016000205490506000600260003373ffffffffffffffffffffffffffffffffffffffff1673ffffffffffffffffffffffffffffffffffffffff168152602001908152602001600020819055503373ffffffffffffffffffffffffffffffffffffffff166108fc829081150290604051600060405180830381858888f19350505050158015610617573d6000803e3d6000fd5b503373ffffffffffffffffffffffffffffffffffffffff167f884edad9ce6fa2440d8a54cc123490eb96d2768479d49ff9c7366125a94243648260405161065e9190610c26565b60405180910390a250565b7f000000000000000000000000000000000000000000000000000000000000000081565b60026020528060005260406000206000915090505481565b60008054906101000a900463ffffffff1681565b600060069054906101000a900473ffffffffffffffffffffffffffffffffffffffff1681565b7f000000000000000000000000000000000000000000000000000000000000000073ffffffffffffffffffffffffffffffffffffffff163373ffffffffffffffffffffffffffffffffffffffff161461076d576040517f08c379a000000000000000000000000000000000000000000000000000000000815260040161076490610ba6565b60405180910390fd5b600060049054906101000a900460ff16156107bd576040517f08c379a00000000000000000000000000000000000000000000000000000000081526004016107b490610be6565b60405180910390fd5b6001600060046101000a81548160ff021916908315150217905550603c426107e59190610c6d565b6000806101000a81548163ffffffff021916908363ffffffff1602179055507f000000000000000000000000000000000000000000000000000000000000000073ffffffffffffffffffffffffffffffffffffffff166323b872dd7f0000000000000000000000000000000000000000000000000000000000000000307f00000000000000000000000000000000000000000000000000000000000000006040518463ffffffff1660e01b81526004016108a193929190610b39565b600060405180830381600087803b1580156108bb57600080fd5b505af11580156108cf573d6000803e3d6000fd5b505050507f1b55ba3aa851a46be3b365aee5b5c140edd620d578922f3e8466d2cbd96f954b60405160405180910390a1565b7f000000000000000000000000000000000000000000000000000000000000000081565b60015481565b600060049054906101000a900460ff1661097a576040517f08c379a000000000000000000000000000000000000000000000000000000000815260040161097190610ba6565b60405180910390fd5b600060059054906101000a900460ff16156109ca576040517f08c379a00000000000000000000000000000000000000000000000000000000081526004016109c190610ba6565b60405180910390fd5b565b6000813590506109db81610e4d565b92915050565b6000602082840312156109f7576109f6610da4565b5b6000610a05848285016109cc565b91505092915050565b610a1781610d2d565b82525050565b610a2681610cd5565b82525050565b610a3581610cc3565b82525050565b610a4481610ce7565b82525050565b610a5381610d3f565b82525050565b6000610a66600383610c5c565b9150610a7182610da9565b602082019050919050565b6000610a89600583610c5c565b9150610a9482610dd2565b602082019050919050565b6000610aac600783610c5c565b9150610ab782610dfb565b602082019050919050565b6000610acf600583610c5c565b9150610ada82610e24565b602082019050919050565b610aee81610d13565b82525050565b610afd81610d1d565b82525050565b6000602082019050610b186000830184610a2c565b92915050565b6000602082019050610b336000830184610a1d565b92915050565b6000606082019050610b4e6000830186610a0e565b610b5b6020830185610a2c565b610b686040830184610ae5565b949350505050565b6000602082019050610b856000830184610a3b565b92915050565b6000602082019050610ba06000830184610a4a565b92915050565b60006020820190508181036000830152610bbf81610a59565b9050919050565b60006020820190508181036000830152610bdf81610a7c565b9050919050565b60006020820190508181036000830152610bff81610a9f565b9050919050565b60006020820190508181036000830152610c1f81610ac2565b9050919050565b6000602082019050610c3b6000830184610ae5565b92915050565b6000602082019050610c566000830184610af4565b92915050565b600082825260208201905092915050565b6000610c7882610d13565b9150610c8383610d13565b9250827fffffffffffffffffffffffffffffffffffffffffffffffffffffffffffffffff03821115610cb857610cb7610d75565b5b828201905092915050565b6000610cce82610cf3565b9050919050565b6000610ce082610cf3565b9050919050565b60008115159050919050565b600073ffffffffffffffffffffffffffffffffffffffff82169050919050565b6000819050919050565b600063ffffffff82169050919050565b6000610d3882610d51565b9050919050565b6000610d4a82610d51565b9050919050565b6000610d5c82610d63565b9050919050565b6000610d6e82610cf3565b9050919050565b7f4e487b7100000000000000000000000000000000000000000000000000000000600052601160045260246000fd5b600080fd5b7f6e6f740000000000000000000000000000000000000000000000000000000000600082015250565b7f76616c7565000000000000000000000000000000000000000000000000000000600082015250565b7f7374617274656400000000000000000000000000000000000000000000000000600082015250565b7f656e646564000000000000000000000000000000000000000000000000000000600082015250565b610e5681610cc3565b8114610e6157600080fd5b5056fea2646970667358221220c1e88f62d070566e989fe34548392f1e259e15b6f657978b312010b2d55f984664736f6c63430008070033",
					"opcodes": "PUSH1 0xE0 PUSH1 0x40 MSTORE CALLVALUE DUP1 ISZERO PUSH3 0x11 JUMPI PUSH1 0x0 DUP1 REVERT JUMPDEST POP PUSH1 0x40 MLOAD PUSH3 0x10AA CODESIZE SUB DUP1 PUSH3 0x10AA DUP4 CODECOPY DUP2 DUP2 ADD PUSH1 0x40 MSTORE DUP2 ADD SWAP1 PUSH3 0x37 SWAP2 SWAP1 PUSH3 0xEB JUMP JUMPDEST DUP3 PUSH20 0xFFFFFFFFFFFFFFFFFFFFFFFFFFFFFFFFFFFFFFFF AND PUSH1 0x80 DUP2 PUSH20 0xFFFFFFFFFFFFFFFFFFFFFFFFFFFFFFFFFFFFFFFF AND PUSH1 0x60 SHL DUP2 MSTORE POP POP DUP2 PUSH1 0xA0 DUP2 DUP2 MSTORE POP POP CALLER PUSH20 0xFFFFFFFFFFFFFFFFFFFFFFFFFFFFFFFFFFFFFFFF AND PUSH1 0xC0 DUP2 PUSH20 0xFFFFFFFFFFFFFFFFFFFFFFFFFFFFFFFFFFFFFFFF AND PUSH1 0x60 SHL DUP2 MSTORE POP POP DUP1 PUSH1 0x1 DUP2 SWAP1 SSTORE POP POP POP POP PUSH3 0x1BE JUMP JUMPDEST PUSH1 0x0 DUP2 MLOAD SWAP1 POP PUSH3 0xCE DUP2 PUSH3 0x18A JUMP JUMPDEST SWAP3 SWAP2 POP POP JUMP JUMPDEST PUSH1 0x0 DUP2 MLOAD SWAP1 POP PUSH3 0xE5 DUP2 PUSH3 0x1A4 JUMP JUMPDEST SWAP3 SWAP2 POP POP JUMP JUMPDEST PUSH1 0x0 DUP1 PUSH1 0x0 PUSH1 0x60 DUP5 DUP7 SUB SLT ISZERO PUSH3 0x107 JUMPI PUSH3 0x106 PUSH3 0x185 JUMP JUMPDEST JUMPDEST PUSH1 0x0 PUSH3 0x117 DUP7 DUP3 DUP8 ADD PUSH3 0xBD JUMP JUMPDEST SWAP4 POP POP PUSH1 0x20 PUSH3 0x12A DUP7 DUP3 DUP8 ADD PUSH3 0xD4 JUMP JUMPDEST SWAP3 POP POP PUSH1 0x40 PUSH3 0x13D DUP7 DUP3 DUP8 ADD PUSH3 0xD4 JUMP JUMPDEST SWAP2 POP POP SWAP3 POP SWAP3 POP SWAP3 JUMP JUMPDEST PUSH1 0x0 PUSH3 0x154 DUP3 PUSH3 0x15B JUMP JUMPDEST SWAP1 POP SWAP2 SWAP1 POP JUMP JUMPDEST PUSH1 0x0 PUSH20 0xFFFFFFFFFFFFFFFFFFFFFFFFFFFFFFFFFFFFFFFF DUP3 AND SWAP1 POP SWAP2 SWAP1 POP JUMP JUMPDEST PUSH1 0x0 DUP2 SWAP1 POP SWAP2 SWAP1 POP JUMP JUMPDEST PUSH1 0x0 DUP1 REVERT JUMPDEST PUSH3 0x195 DUP2 PUSH3 0x147 JUMP JUMPDEST DUP2 EQ PUSH3 0x1A1 JUMPI PUSH1 0x0 DUP1 REVERT JUMPDEST POP JUMP JUMPDEST PUSH3 0x1AF DUP2 PUSH3 0x17B JUMP JUMPDEST DUP2 EQ PUSH3 0x1BB JUMPI PUSH1 0x0 DUP1 REVERT JUMPDEST POP JUMP JUMPDEST PUSH1 0x80 MLOAD PUSH1 0x60 SHR PUSH1 0xA0 MLOAD PUSH1 0xC0 MLOAD PUSH1 0x60 SHR PUSH2 0xE9A PUSH3 0x210 PUSH1 0x0 CODECOPY PUSH1 0x0 DUP2 DUP2 PUSH2 0x2AD ADD MSTORE DUP2 DUP2 PUSH2 0x6E1 ADD MSTORE PUSH2 0x842 ADD MSTORE PUSH1 0x0 DUP2 DUP2 PUSH2 0x864 ADD MSTORE PUSH2 0x903 ADD MSTORE PUSH1 0x0 DUP2 DUP2 PUSH2 0x66B ADD MSTORE PUSH2 0x806 ADD MSTORE PUSH2 0xE9A PUSH1 0x0 RETURN INVALID PUSH1 0x80 PUSH1 0x40 MSTORE PUSH1 0x4 CALLDATASIZE LT PUSH2 0xC2 JUMPI PUSH1 0x0 CALLDATALOAD PUSH1 0xE0 SHR DUP1 PUSH4 0x62EA82DB GT PUSH2 0x7F JUMPI DUP1 PUSH4 0xBE9A6555 GT PUSH2 0x59 JUMPI DUP1 PUSH4 0xBE9A6555 EQ PUSH2 0x227 JUMPI DUP1 PUSH4 0xC6BC5182 EQ PUSH2 0x23E JUMPI DUP1 PUSH4 0xD57BDE79 EQ PUSH2 0x269 JUMPI DUP1 PUSH4 0xEFBE1C1C EQ PUSH2 0x294 JUMPI PUSH2 0xC2 JUMP JUMPDEST DUP1 PUSH4 0x62EA82DB EQ PUSH2 0x194 JUMPI DUP1 PUSH4 0x7CC3AE8C EQ PUSH2 0x1D1 JUMPI DUP1 PUSH4 0x91F90157 EQ PUSH2 0x1FC JUMPI PUSH2 0xC2 JUMP JUMPDEST DUP1 PUSH4 0x8551A53 EQ PUSH2 0xC7 JUMPI DUP1 PUSH4 0x12FA6FEB EQ PUSH2 0xF2 JUMPI DUP1 PUSH4 0x1998AEEF EQ PUSH2 0x11D JUMPI DUP1 PUSH4 0x1F2698AB EQ PUSH2 0x127 JUMPI DUP1 PUSH4 0x3CCFD60B EQ PUSH2 0x152 JUMPI DUP1 PUSH4 0x47CCCA02 EQ PUSH2 0x169 JUMPI JUMPDEST PUSH1 0x0 DUP1 REVERT JUMPDEST CALLVALUE DUP1 ISZERO PUSH2 0xD3 JUMPI PUSH1 0x0 DUP1 REVERT JUMPDEST POP PUSH2 0xDC PUSH2 0x2AB JUMP JUMPDEST PUSH1 0x40 MLOAD PUSH2 0xE9 SWAP2 SWAP1 PUSH2 0xB1E JUMP JUMPDEST PUSH1 0x40 MLOAD DUP1 SWAP2 SUB SWAP1 RETURN JUMPDEST CALLVALUE DUP1 ISZERO PUSH2 0xFE JUMPI PUSH1 0x0 DUP1 REVERT JUMPDEST POP PUSH2 0x107 PUSH2 0x2CF JUMP JUMPDEST PUSH1 0x40 MLOAD PUSH2 0x114 SWAP2 SWAP1 PUSH2 0xB70 JUMP JUMPDEST PUSH1 0x40 MLOAD DUP1 SWAP2 SUB SWAP1 RETURN JUMPDEST PUSH2 0x125 PUSH2 0x2E2 JUMP JUMPDEST STOP JUMPDEST CALLVALUE DUP1 ISZERO PUSH2 0x133 JUMPI PUSH1 0x0 DUP1 REVERT JUMPDEST POP PUSH2 0x13C PUSH2 0x535 JUMP JUMPDEST PUSH1 0x40 MLOAD PUSH2 0x149 SWAP2 SWAP1 PUSH2 0xB70 JUMP JUMPDEST PUSH1 0x40 MLOAD DUP1 SWAP2 SUB SWAP1 RETURN JUMPDEST CALLVALUE DUP1 ISZERO PUSH2 0x15E JUMPI PUSH1 0x0 DUP1 REVERT JUMPDEST POP PUSH2 0x167 PUSH2 0x548 JUMP JUMPDEST STOP JUMPDEST CALLVALUE DUP1 ISZERO PUSH2 0x175 JUMPI PUSH1 0x0 DUP1 REVERT JUMPDEST POP PUSH2 0x17E PUSH2 0x669 JUMP JUMPDEST PUSH1 0x40 MLOAD PUSH2 0x18B SWAP2 SWAP1 PUSH2 0xB8B JUMP JUMPDEST PUSH1 0x40 MLOAD DUP1 SWAP2 SUB SWAP1 RETURN JUMPDEST CALLVALUE DUP1 ISZERO PUSH2 0x1A0 JUMPI PUSH1 0x0 DUP1 REVERT JUMPDEST POP PUSH2 0x1BB PUSH1 0x4 DUP1 CALLDATASIZE SUB DUP2 ADD SWAP1 PUSH2 0x1B6 SWAP2 SWAP1 PUSH2 0x9E1 JUMP JUMPDEST PUSH2 0x68D JUMP JUMPDEST PUSH1 0x40 MLOAD PUSH2 0x1C8 SWAP2 SWAP1 PUSH2 0xC26 JUMP JUMPDEST PUSH1 0x40 MLOAD DUP1 SWAP2 SUB SWAP1 RETURN JUMPDEST CALLVALUE DUP1 ISZERO PUSH2 0x1DD JUMPI PUSH1 0x0 DUP1 REVERT JUMPDEST POP PUSH2 0x1E6 PUSH2 0x6A5 JUMP JUMPDEST PUSH1 0x40 MLOAD PUSH2 0x1F3 SWAP2 SWAP1 PUSH2 0xC41 JUMP JUMPDEST PUSH1 0x40 MLOAD DUP1 SWAP2 SUB SWAP1 RETURN JUMPDEST CALLVALUE DUP1 ISZERO PUSH2 0x208 JUMPI PUSH1 0x0 DUP1 REVERT JUMPDEST POP PUSH2 0x211 PUSH2 0x6B9 JUMP JUMPDEST PUSH1 0x40 MLOAD PUSH2 0x21E SWAP2 SWAP1 PUSH2 0xB03 JUMP JUMPDEST PUSH1 0x40 MLOAD DUP1 SWAP2 SUB SWAP1 RETURN JUMPDEST CALLVALUE DUP1 ISZERO PUSH2 0x233 JUMPI PUSH1 0x0 DUP1 REVERT JUMPDEST POP PUSH2 0x23C PUSH2 0x6DF JUMP JUMPDEST STOP JUMPDEST CALLVALUE DUP1 ISZERO PUSH2 0x24A JUMPI PUSH1 0x0 DUP1 REVERT JUMPDEST POP PUSH2 0x253 PUSH2 0x901 JUMP JUMPDEST PUSH1 0x40 MLOAD PUSH2 0x260 SWAP2 SWAP1 PUSH2 0xC26 JUMP JUMPDEST PUSH1 0x40 MLOAD DUP1 SWAP2 SUB SWAP1 RETURN JUMPDEST CALLVALUE DUP1 ISZERO PUSH2 0x275 JUMPI PUSH1 0x0 DUP1 REVERT JUMPDEST POP PUSH2 0x27E PUSH2 0x925 JUMP JUMPDEST PUSH1 0x40 MLOAD PUSH2 0x28B SWAP2 SWAP1 PUSH2 0xC26 JUMP JUMPDEST PUSH1 0x40 MLOAD DUP1 SWAP2 SUB SWAP1 RETURN JUMPDEST CALLVALUE DUP1 ISZERO PUSH2 0x2A0 JUMPI PUSH1 0x0 DUP1 REVERT JUMPDEST POP PUSH2 0x2A9 PUSH2 0x92B JUMP JUMPDEST STOP JUMPDEST PUSH32 0x0 DUP2 JUMP JUMPDEST PUSH1 0x0 PUSH1 0x5 SWAP1 SLOAD SWAP1 PUSH2 0x100 EXP SWAP1 DIV PUSH1 0xFF AND DUP2 JUMP JUMPDEST PUSH1 0x0 PUSH1 0x4 SWAP1 SLOAD SWAP1 PUSH2 0x100 EXP SWAP1 DIV PUSH1 0xFF AND PUSH2 0x331 JUMPI PUSH1 0x40 MLOAD PUSH32 0x8C379A000000000000000000000000000000000000000000000000000000000 DUP2 MSTORE PUSH1 0x4 ADD PUSH2 0x328 SWAP1 PUSH2 0xBA6 JUMP JUMPDEST PUSH1 0x40 MLOAD DUP1 SWAP2 SUB SWAP1 REVERT JUMPDEST PUSH1 0x0 DUP1 SLOAD SWAP1 PUSH2 0x100 EXP SWAP1 DIV PUSH4 0xFFFFFFFF AND PUSH4 0xFFFFFFFF AND TIMESTAMP LT PUSH2 0x389 JUMPI PUSH1 0x40 MLOAD PUSH32 0x8C379A000000000000000000000000000000000000000000000000000000000 DUP2 MSTORE PUSH1 0x4 ADD PUSH2 0x380 SWAP1 PUSH2 0xC06 JUMP JUMPDEST PUSH1 0x40 MLOAD DUP1 SWAP2 SUB SWAP1 REVERT JUMPDEST PUSH1 0x1 SLOAD CALLVALUE GT PUSH2 0x3CD JUMPI PUSH1 0x40 MLOAD PUSH32 0x8C379A000000000000000000000000000000000000000000000000000000000 DUP2 MSTORE PUSH1 0x4 ADD PUSH2 0x3C4 SWAP1 PUSH2 0xBC6 JUMP JUMPDEST PUSH1 0x40 MLOAD DUP1 SWAP2 SUB SWAP1 REVERT JUMPDEST PUSH1 0x0 PUSH20 0xFFFFFFFFFFFFFFFFFFFFFFFFFFFFFFFFFFFFFFFF AND PUSH1 0x0 PUSH1 0x6 SWAP1 SLOAD SWAP1 PUSH2 0x100 EXP SWAP1 DIV PUSH20 0xFFFFFFFFFFFFFFFFFFFFFFFFFFFFFFFFFFFFFFFF AND PUSH20 0xFFFFFFFFFFFFFFFFFFFFFFFFFFFFFFFFFFFFFFFF AND EQ PUSH2 0x49D JUMPI PUSH1 0x1 SLOAD PUSH1 0x2 PUSH1 0x0 DUP1 PUSH1 0x6 SWAP1 SLOAD SWAP1 PUSH2 0x100 EXP SWAP1 DIV PUSH20 0xFFFFFFFFFFFFFFFFFFFFFFFFFFFFFFFFFFFFFFFF AND PUSH20 0xFFFFFFFFFFFFFFFFFFFFFFFFFFFFFFFFFFFFFFFF AND PUSH20 0xFFFFFFFFFFFFFFFFFFFFFFFFFFFFFFFFFFFFFFFF AND DUP2 MSTORE PUSH1 0x20 ADD SWAP1 DUP2 MSTORE PUSH1 0x20 ADD PUSH1 0x0 KECCAK256 PUSH1 0x0 DUP3 DUP3 SLOAD PUSH2 0x495 SWAP2 SWAP1 PUSH2 0xC6D JUMP JUMPDEST SWAP3 POP POP DUP2 SWAP1 SSTORE POP JUMPDEST CALLVALUE PUSH1 0x1 DUP2 SWAP1 SSTORE POP CALLER PUSH1 0x0 PUSH1 0x6 PUSH2 0x100 EXP DUP2 SLOAD DUP2 PUSH20 0xFFFFFFFFFFFFFFFFFFFFFFFFFFFFFFFFFFFFFFFF MUL NOT AND SWAP1 DUP4 PUSH20 0xFFFFFFFFFFFFFFFFFFFFFFFFFFFFFFFFFFFFFFFF AND MUL OR SWAP1 SSTORE POP CALLER PUSH20 0xFFFFFFFFFFFFFFFFFFFFFFFFFFFFFFFFFFFFFFFF AND PUSH32 0xE684A55F31B79ECA403DF938249029212A5925EC6BE8012E099B45BC1019E5D2 CALLVALUE PUSH1 0x40 MLOAD PUSH2 0x52B SWAP2 SWAP1 PUSH2 0xC26 JUMP JUMPDEST PUSH1 0x40 MLOAD DUP1 SWAP2 SUB SWAP1 LOG2 JUMP JUMPDEST PUSH1 0x0 PUSH1 0x4 SWAP1 SLOAD SWAP1 PUSH2 0x100 EXP SWAP1 DIV PUSH1 0xFF AND DUP2 JUMP JUMPDEST PUSH1 0x0 PUSH1 0x2 PUSH1 0x0 CALLER PUSH20 0xFFFFFFFFFFFFFFFFFFFFFFFFFFFFFFFFFFFFFFFF AND PUSH20 0xFFFFFFFFFFFFFFFFFFFFFFFFFFFFFFFFFFFFFFFF AND DUP2 MSTORE PUSH1 0x20 ADD SWAP1 DUP2 MSTORE PUSH1 0x20 ADD PUSH1 0x0 KECCAK256 SLOAD SWAP1 POP PUSH1 0x0 PUSH1 0x2 PUSH1 0x0 CALLER PUSH20 0xFFFFFFFFFFFFFFFFFFFFFFFFFFFFFFFFFFFFFFFF AND PUSH20 0xFFFFFFFFFFFFFFFFFFFFFFFFFFFFFFFFFFFFFFFF AND DUP2 MSTORE PUSH1 0x20 ADD SWAP1 DUP2 MSTORE PUSH1 0x20 ADD PUSH1 0x0 KECCAK256 DUP2 SWAP1 SSTORE POP CALLER PUSH20 0xFFFFFFFFFFFFFFFFFFFFFFFFFFFFFFFFFFFFFFFF AND PUSH2 0x8FC DUP3 SWAP1 DUP2 ISZERO MUL SWAP1 PUSH1 0x40 MLOAD PUSH1 0x0 PUSH1 0x40 MLOAD DUP1 DUP4 SUB DUP2 DUP6 DUP9 DUP9 CALL SWAP4 POP POP POP POP ISZERO DUP1 ISZERO PUSH2 0x617 JUMPI RETURNDATASIZE PUSH1 0x0 DUP1 RETURNDATACOPY RETURNDATASIZE PUSH1 0x0 REVERT JUMPDEST POP CALLER PUSH20 0xFFFFFFFFFFFFFFFFFFFFFFFFFFFFFFFFFFFFFFFF AND PUSH32 0x884EDAD9CE6FA2440D8A54CC123490EB96D2768479D49FF9C7366125A9424364 DUP3 PUSH1 0x40 MLOAD PUSH2 0x65E SWAP2 SWAP1 PUSH2 0xC26 JUMP JUMPDEST PUSH1 0x40 MLOAD DUP1 SWAP2 SUB SWAP1 LOG2 POP JUMP JUMPDEST PUSH32 0x0 DUP2 JUMP JUMPDEST PUSH1 0x2 PUSH1 0x20 MSTORE DUP1 PUSH1 0x0 MSTORE PUSH1 0x40 PUSH1 0x0 KECCAK256 PUSH1 0x0 SWAP2 POP SWAP1 POP SLOAD DUP2 JUMP JUMPDEST PUSH1 0x0 DUP1 SLOAD SWAP1 PUSH2 0x100 EXP SWAP1 DIV PUSH4 0xFFFFFFFF AND DUP2 JUMP JUMPDEST PUSH1 0x0 PUSH1 0x6 SWAP1 SLOAD SWAP1 PUSH2 0x100 EXP SWAP1 DIV PUSH20 0xFFFFFFFFFFFFFFFFFFFFFFFFFFFFFFFFFFFFFFFF AND DUP2 JUMP JUMPDEST PUSH32 0x0 PUSH20 0xFFFFFFFFFFFFFFFFFFFFFFFFFFFFFFFFFFFFFFFF AND CALLER PUSH20 0xFFFFFFFFFFFFFFFFFFFFFFFFFFFFFFFFFFFFFFFF AND EQ PUSH2 0x76D JUMPI PUSH1 0x40 MLOAD PUSH32 0x8C379A000000000000000000000000000000000000000000000000000000000 DUP2 MSTORE PUSH1 0x4 ADD PUSH2 0x764 SWAP1 PUSH2 0xBA6 JUMP JUMPDEST PUSH1 0x40 MLOAD DUP1 SWAP2 SUB SWAP1 REVERT JUMPDEST PUSH1 0x0 PUSH1 0x4 SWAP1 SLOAD SWAP1 PUSH2 0x100 EXP SWAP1 DIV PUSH1 0xFF AND ISZERO PUSH2 0x7BD JUMPI PUSH1 0x40 MLOAD PUSH32 0x8C379A000000000000000000000000000000000000000000000000000000000 DUP2 MSTORE PUSH1 0x4 ADD PUSH2 0x7B4 SWAP1 PUSH2 0xBE6 JUMP JUMPDEST PUSH1 0x40 MLOAD DUP1 SWAP2 SUB SWAP1 REVERT JUMPDEST PUSH1 0x1 PUSH1 0x0 PUSH1 0x4 PUSH2 0x100 EXP DUP2 SLOAD DUP2 PUSH1 0xFF MUL NOT AND SWAP1 DUP4 ISZERO ISZERO MUL OR SWAP1 SSTORE POP PUSH1 0x3C TIMESTAMP PUSH2 0x7E5 SWAP2 SWAP1 PUSH2 0xC6D JUMP JUMPDEST PUSH1 0x0 DUP1 PUSH2 0x100 EXP DUP2 SLOAD DUP2 PUSH4 0xFFFFFFFF MUL NOT AND SWAP1 DUP4 PUSH4 0xFFFFFFFF AND MUL OR SWAP1 SSTORE POP PUSH32 0x0 PUSH20 0xFFFFFFFFFFFFFFFFFFFFFFFFFFFFFFFFFFFFFFFF AND PUSH4 0x23B872DD PUSH32 0x0 ADDRESS PUSH32 0x0 PUSH1 0x40 MLOAD DUP5 PUSH4 0xFFFFFFFF AND PUSH1 0xE0 SHL DUP2 MSTORE PUSH1 0x4 ADD PUSH2 0x8A1 SWAP4 SWAP3 SWAP2 SWAP1 PUSH2 0xB39 JUMP JUMPDEST PUSH1 0x0 PUSH1 0x40 MLOAD DUP1 DUP4 SUB DUP2 PUSH1 0x0 DUP8 DUP1 EXTCODESIZE ISZERO DUP1 ISZERO PUSH2 0x8BB JUMPI PUSH1 0x0 DUP1 REVERT JUMPDEST POP GAS CALL ISZERO DUP1 ISZERO PUSH2 0x8CF JUMPI RETURNDATASIZE PUSH1 0x0 DUP1 RETURNDATACOPY RETURNDATASIZE PUSH1 0x0 REVERT JUMPDEST POP POP POP POP PUSH32 0x1B55BA3AA851A46BE3B365AEE5B5C140EDD620D578922F3E8466D2CBD96F954B PUSH1 0x40 MLOAD PUSH1 0x40 MLOAD DUP1 SWAP2 SUB SWAP1 LOG1 JUMP JUMPDEST PUSH32 0x0 DUP2 JUMP JUMPDEST PUSH1 0x1 SLOAD DUP2 JUMP JUMPDEST PUSH1 0x0 PUSH1 0x4 SWAP1 SLOAD SWAP1 PUSH2 0x100 EXP SWAP1 DIV PUSH1 0xFF AND PUSH2 0x97A JUMPI PUSH1 0x40 MLOAD PUSH32 0x8C379A000000000000000000000000000000000000000000000000000000000 DUP2 MSTORE PUSH1 0x4 ADD PUSH2 0x971 SWAP1 PUSH2 0xBA6 JUMP JUMPDEST PUSH1 0x40 MLOAD DUP1 SWAP2 SUB SWAP1 REVERT JUMPDEST PUSH1 0x0 PUSH1 0x5 SWAP1 SLOAD SWAP1 PUSH2 0x100 EXP SWAP1 DIV PUSH1 0xFF AND ISZERO PUSH2 0x9CA JUMPI PUSH1 0x40 MLOAD PUSH32 0x8C379A000000000000000000000000000000000000000000000000000000000 DUP2 MSTORE PUSH1 0x4 ADD PUSH2 0x9C1 SWAP1 PUSH2 0xBA6 JUMP JUMPDEST PUSH1 0x40 MLOAD DUP1 SWAP2 SUB SWAP1 REVERT JUMPDEST JUMP JUMPDEST PUSH1 0x0 DUP2 CALLDATALOAD SWAP1 POP PUSH2 0x9DB DUP2 PUSH2 0xE4D JUMP JUMPDEST SWAP3 SWAP2 POP POP JUMP JUMPDEST PUSH1 0x0 PUSH1 0x20 DUP3 DUP5 SUB SLT ISZERO PUSH2 0x9F7 JUMPI PUSH2 0x9F6 PUSH2 0xDA4 JUMP JUMPDEST JUMPDEST PUSH1 0x0 PUSH2 0xA05 DUP5 DUP3 DUP6 ADD PUSH2 0x9CC JUMP JUMPDEST SWAP2 POP POP SWAP3 SWAP2 POP POP JUMP JUMPDEST PUSH2 0xA17 DUP2 PUSH2 0xD2D JUMP JUMPDEST DUP3 MSTORE POP POP JUMP JUMPDEST PUSH2 0xA26 DUP2 PUSH2 0xCD5 JUMP JUMPDEST DUP3 MSTORE POP POP JUMP JUMPDEST PUSH2 0xA35 DUP2 PUSH2 0xCC3 JUMP JUMPDEST DUP3 MSTORE POP POP JUMP JUMPDEST PUSH2 0xA44 DUP2 PUSH2 0xCE7 JUMP JUMPDEST DUP3 MSTORE POP POP JUMP JUMPDEST PUSH2 0xA53 DUP2 PUSH2 0xD3F JUMP JUMPDEST DUP3 MSTORE POP POP JUMP JUMPDEST PUSH1 0x0 PUSH2 0xA66 PUSH1 0x3 DUP4 PUSH2 0xC5C JUMP JUMPDEST SWAP2 POP PUSH2 0xA71 DUP3 PUSH2 0xDA9 JUMP JUMPDEST PUSH1 0x20 DUP3 ADD SWAP1 POP SWAP2 SWAP1 POP JUMP JUMPDEST PUSH1 0x0 PUSH2 0xA89 PUSH1 0x5 DUP4 PUSH2 0xC5C JUMP JUMPDEST SWAP2 POP PUSH2 0xA94 DUP3 PUSH2 0xDD2 JUMP JUMPDEST PUSH1 0x20 DUP3 ADD SWAP1 POP SWAP2 SWAP1 POP JUMP JUMPDEST PUSH1 0x0 PUSH2 0xAAC PUSH1 0x7 DUP4 PUSH2 0xC5C JUMP JUMPDEST SWAP2 POP PUSH2 0xAB7 DUP3 PUSH2 0xDFB JUMP JUMPDEST PUSH1 0x20 DUP3 ADD SWAP1 POP SWAP2 SWAP1 POP JUMP JUMPDEST PUSH1 0x0 PUSH2 0xACF PUSH1 0x5 DUP4 PUSH2 0xC5C JUMP JUMPDEST SWAP2 POP PUSH2 0xADA DUP3 PUSH2 0xE24 JUMP JUMPDEST PUSH1 0x20 DUP3 ADD SWAP1 POP SWAP2 SWAP1 POP JUMP JUMPDEST PUSH2 0xAEE DUP2 PUSH2 0xD13 JUMP JUMPDEST DUP3 MSTORE POP POP JUMP JUMPDEST PUSH2 0xAFD DUP2 PUSH2 0xD1D JUMP JUMPDEST DUP3 MSTORE POP POP JUMP JUMPDEST PUSH1 0x0 PUSH1 0x20 DUP3 ADD SWAP1 POP PUSH2 0xB18 PUSH1 0x0 DUP4 ADD DUP5 PUSH2 0xA2C JUMP JUMPDEST SWAP3 SWAP2 POP POP JUMP JUMPDEST PUSH1 0x0 PUSH1 0x20 DUP3 ADD SWAP1 POP PUSH2 0xB33 PUSH1 0x0 DUP4 ADD DUP5 PUSH2 0xA1D JUMP JUMPDEST SWAP3 SWAP2 POP POP JUMP JUMPDEST PUSH1 0x0 PUSH1 0x60 DUP3 ADD SWAP1 POP PUSH2 0xB4E PUSH1 0x0 DUP4 ADD DUP7 PUSH2 0xA0E JUMP JUMPDEST PUSH2 0xB5B PUSH1 0x20 DUP4 ADD DUP6 PUSH2 0xA2C JUMP JUMPDEST PUSH2 0xB68 PUSH1 0x40 DUP4 ADD DUP5 PUSH2 0xAE5 JUMP JUMPDEST SWAP5 SWAP4 POP POP POP POP JUMP JUMPDEST PUSH1 0x0 PUSH1 0x20 DUP3 ADD SWAP1 POP PUSH2 0xB85 PUSH1 0x0 DUP4 ADD DUP5 PUSH2 0xA3B JUMP JUMPDEST SWAP3 SWAP2 POP POP JUMP JUMPDEST PUSH1 0x0 PUSH1 0x20 DUP3 ADD SWAP1 POP PUSH2 0xBA0 PUSH1 0x0 DUP4 ADD DUP5 PUSH2 0xA4A JUMP JUMPDEST SWAP3 SWAP2 POP POP JUMP JUMPDEST PUSH1 0x0 PUSH1 0x20 DUP3 ADD SWAP1 POP DUP2 DUP2 SUB PUSH1 0x0 DUP4 ADD MSTORE PUSH2 0xBBF DUP2 PUSH2 0xA59 JUMP JUMPDEST SWAP1 POP SWAP2 SWAP1 POP JUMP JUMPDEST PUSH1 0x0 PUSH1 0x20 DUP3 ADD SWAP1 POP DUP2 DUP2 SUB PUSH1 0x0 DUP4 ADD MSTORE PUSH2 0xBDF DUP2 PUSH2 0xA7C JUMP JUMPDEST SWAP1 POP SWAP2 SWAP1 POP JUMP JUMPDEST PUSH1 0x0 PUSH1 0x20 DUP3 ADD SWAP1 POP DUP2 DUP2 SUB PUSH1 0x0 DUP4 ADD MSTORE PUSH2 0xBFF DUP2 PUSH2 0xA9F JUMP JUMPDEST SWAP1 POP SWAP2 SWAP1 POP JUMP JUMPDEST PUSH1 0x0 PUSH1 0x20 DUP3 ADD SWAP1 POP DUP2 DUP2 SUB PUSH1 0x0 DUP4 ADD MSTORE PUSH2 0xC1F DUP2 PUSH2 0xAC2 JUMP JUMPDEST SWAP1 POP SWAP2 SWAP1 POP JUMP JUMPDEST PUSH1 0x0 PUSH1 0x20 DUP3 ADD SWAP1 POP PUSH2 0xC3B PUSH1 0x0 DUP4 ADD DUP5 PUSH2 0xAE5 JUMP JUMPDEST SWAP3 SWAP2 POP POP JUMP JUMPDEST PUSH1 0x0 PUSH1 0x20 DUP3 ADD SWAP1 POP PUSH2 0xC56 PUSH1 0x0 DUP4 ADD DUP5 PUSH2 0xAF4 JUMP JUMPDEST SWAP3 SWAP2 POP POP JUMP JUMPDEST PUSH1 0x0 DUP3 DUP3 MSTORE PUSH1 0x20 DUP3 ADD SWAP1 POP SWAP3 SWAP2 POP POP JUMP JUMPDEST PUSH1 0x0 PUSH2 0xC78 DUP3 PUSH2 0xD13 JUMP JUMPDEST SWAP2 POP PUSH2 0xC83 DUP4 PUSH2 0xD13 JUMP JUMPDEST SWAP3 POP DUP3 PUSH32 0xFFFFFFFFFFFFFFFFFFFFFFFFFFFFFFFFFFFFFFFFFFFFFFFFFFFFFFFFFFFFFFFF SUB DUP3 GT ISZERO PUSH2 0xCB8 JUMPI PUSH2 0xCB7 PUSH2 0xD75 JUMP JUMPDEST JUMPDEST DUP3 DUP3 ADD SWAP1 POP SWAP3 SWAP2 POP POP JUMP JUMPDEST PUSH1 0x0 PUSH2 0xCCE DUP3 PUSH2 0xCF3 JUMP JUMPDEST SWAP1 POP SWAP2 SWAP1 POP JUMP JUMPDEST PUSH1 0x0 PUSH2 0xCE0 DUP3 PUSH2 0xCF3 JUMP JUMPDEST SWAP1 POP SWAP2 SWAP1 POP JUMP JUMPDEST PUSH1 0x0 DUP2 ISZERO ISZERO SWAP1 POP SWAP2 SWAP1 POP JUMP JUMPDEST PUSH1 0x0 PUSH20 0xFFFFFFFFFFFFFFFFFFFFFFFFFFFFFFFFFFFFFFFF DUP3 AND SWAP1 POP SWAP2 SWAP1 POP JUMP JUMPDEST PUSH1 0x0 DUP2 SWAP1 POP SWAP2 SWAP1 POP JUMP JUMPDEST PUSH1 0x0 PUSH4 0xFFFFFFFF DUP3 AND SWAP1 POP SWAP2 SWAP1 POP JUMP JUMPDEST PUSH1 0x0 PUSH2 0xD38 DUP3 PUSH2 0xD51 JUMP JUMPDEST SWAP1 POP SWAP2 SWAP1 POP JUMP JUMPDEST PUSH1 0x0 PUSH2 0xD4A DUP3 PUSH2 0xD51 JUMP JUMPDEST SWAP1 POP SWAP2 SWAP1 POP JUMP JUMPDEST PUSH1 0x0 PUSH2 0xD5C DUP3 PUSH2 0xD63 JUMP JUMPDEST SWAP1 POP SWAP2 SWAP1 POP JUMP JUMPDEST PUSH1 0x0 PUSH2 0xD6E DUP3 PUSH2 0xCF3 JUMP JUMPDEST SWAP1 POP SWAP2 SWAP1 POP JUMP JUMPDEST PUSH32 0x4E487B7100000000000000000000000000000000000000000000000000000000 PUSH1 0x0 MSTORE PUSH1 0x11 PUSH1 0x4 MSTORE PUSH1 0x24 PUSH1 0x0 REVERT JUMPDEST PUSH1 0x0 DUP1 REVERT JUMPDEST PUSH32 0x6E6F740000000000000000000000000000000000000000000000000000000000 PUSH1 0x0 DUP3 ADD MSTORE POP JUMP JUMPDEST PUSH32 0x76616C7565000000000000000000000000000000000000000000000000000000 PUSH1 0x0 DUP3 ADD MSTORE POP JUMP JUMPDEST PUSH32 0x7374617274656400000000000000000000000000000000000000000000000000 PUSH1 0x0 DUP3 ADD MSTORE POP JUMP JUMPDEST PUSH32 0x656E646564000000000000000000000000000000000000000000000000000000 PUSH1 0x0 DUP3 ADD MSTORE POP JUMP JUMPDEST PUSH2 0xE56 DUP2 PUSH2 0xCC3 JUMP JUMPDEST DUP2 EQ PUSH2 0xE61 JUMPI PUSH1 0x0 DUP1 REVERT JUMPDEST POP JUMP INVALID LOG2 PUSH5 0x6970667358 0x22 SLT KECCAK256 0xC1 0xE8 DUP16 PUSH3 0xD07056 PUSH15 0x989FE34548392F1E259E15B6F65797 DUP12 BALANCE KECCAK256 LT 0xB2 0xD5 0x5F SWAP9 CHAINID PUSH5 0x736F6C6343 STOP ADDMOD SMOD STOP CALLER "
				},
				"gasEstimates": {
					"creation": {
						"codeDepositCost": "747600",
						"executionCost": "infinite",
						"totalCost": "infinite"
					},
					"external": {
						"bid()": "infinite",
						"bids(address)": "2837",
						"end()": "4930",
						"endAt()": "2513",
						"ended()": "2544",
						"highestBid()": "2495",
						"highestBidder()": "2631",
						"nft()": "infinite",
						"nftId()": "infinite",
						"seller()": "infinite",
						"start()": "infinite",
						"started()": "2588",
						"withdraw()": "infinite"
					}
				},
				"methodIdentifiers": {
					"bid()": "1998aeef",
					"bids(address)": "62ea82db",
					"end()": "efbe1c1c",
					"endAt()": "7cc3ae8c",
					"ended()": "12fa6feb",
					"highestBid()": "d57bde79",
					"highestBidder()": "91f90157",
					"nft()": "47ccca02",
					"nftId()": "c6bc5182",
					"seller()": "08551a53",
					"start()": "be9a6555",
					"started()": "1f2698ab",
					"withdraw()": "3ccfd60b"
				}
			},
			"storageLayout": {
				"storage": [
					{
						"astId": 34,
						"contract": "contracts/EnglishAuction.sol:EnglishAuction",
						"label": "endAt",
						"offset": 0,
						"slot": "0",
						"type": "t_uint32"
					},
					{
						"astId": 36,
						"contract": "contracts/EnglishAuction.sol:EnglishAuction",
						"label": "started",
						"offset": 4,
						"slot": "0",
						"type": "t_bool"
					},
					{
						"astId": 38,
						"contract": "contracts/EnglishAuction.sol:EnglishAuction",
						"label": "ended",
						"offset": 5,
						"slot": "0",
						"type": "t_bool"
					},
					{
						"astId": 40,
						"contract": "contracts/EnglishAuction.sol:EnglishAuction",
						"label": "highestBidder",
						"offset": 6,
						"slot": "0",
						"type": "t_address"
					},
					{
						"astId": 42,
						"contract": "contracts/EnglishAuction.sol:EnglishAuction",
						"label": "highestBid",
						"offset": 0,
						"slot": "1",
						"type": "t_uint256"
					},
					{
						"astId": 46,
						"contract": "contracts/EnglishAuction.sol:EnglishAuction",
						"label": "bids",
						"offset": 0,
						"slot": "2",
						"type": "t_mapping(t_address,t_uint256)"
					}
				],
				"types": {
					"t_address": {
						"encoding": "inplace",
						"label": "address",
						"numberOfBytes": "20"
					},
					"t_bool": {
						"encoding": "inplace",
						"label": "bool",
						"numberOfBytes": "1"
					},
					"t_mapping(t_address,t_uint256)": {
						"encoding": "mapping",
						"key": "t_address",
						"label": "mapping(address => uint256)",
						"numberOfBytes": "32",
						"value": "t_uint256"
					},
					"t_uint256": {
						"encoding": "inplace",
						"label": "uint256",
						"numberOfBytes": "32"
					},
					"t_uint32": {
						"encoding": "inplace",
						"label": "uint32",
						"numberOfBytes": "4"
					}
				}
			},
			"userdoc": {
				"kind": "user",
				"methods": {},
				"version": 1
			}
		}
	}
}