{
	"contracts/16_Overloading.sol": {
		"HelloWeb3": {
			"abi": [
				{
					"inputs": [],
					"name": "arrayPush",
					"outputs": [
						{
							"internalType": "uint256[]",
							"name": "",
							"type": "uint256[]"
						}
					],
					"stateMutability": "nonpayable",
					"type": "function"
				}
			],
			"devdoc": {
				"kind": "dev",
				"methods": {},
				"version": 1
			},
			"evm": {
				"assembly": "    /* \"contracts/16_Overloading.sol\":56:300  contract HelloWeb3 {... */\n  mstore(0x40, 0x80)\n    /* \"contracts/16_Overloading.sol\":109:110  3 */\n  0x03\n    /* \"contracts/16_Overloading.sol\":98:111  new uint[](3) */\n  0xffffffffffffffff\n  dup2\n  gt\n  iszero\n  tag_1\n  jumpi\n  tag_2\n  tag_3\n  jump\t// in\ntag_2:\ntag_1:\n  mload(0x40)\n  swap1\n  dup1\n  dup3\n  mstore\n  dup1\n  0x20\n  mul\n  0x20\n  add\n  dup3\n  add\n  0x40\n  mstore\n  dup1\n  iszero\n  tag_4\n  jumpi\n  dup2\n  0x20\n  add\n  0x20\n  dup3\n  mul\n  dup1\n  calldatasize\n  dup4\n  calldatacopy\n  dup1\n  dup3\n  add\n  swap2\n  pop\n  pop\n  swap1\n  pop\ntag_4:\n  pop\n    /* \"contracts/16_Overloading.sol\":81:111  uint[]  array4 = new uint[](3) */\n  0x00\n  swap1\n  dup1\n  mload\n  swap1\n  0x20\n  add\n  swap1\n  tag_5\n  swap3\n  swap2\n  swap1\n  tag_6\n  jump\t// in\ntag_5:\n  pop\n    /* \"contracts/16_Overloading.sol\":56:300  contract HelloWeb3 {... */\n  callvalue\n  dup1\n  iszero\n  tag_7\n  jumpi\n  0x00\n  dup1\n  revert\ntag_7:\n  pop\n  jump(tag_8)\ntag_6:\n  dup3\n  dup1\n  sload\n  dup3\n  dup3\n  sstore\n  swap1\n  0x00\n  mstore\n  keccak256(0x00, 0x20)\n  swap1\n  dup2\n  add\n  swap3\n  dup3\n  iszero\n  tag_9\n  jumpi\n  swap2\n  0x20\n  mul\n  dup3\n  add\ntag_10:\n  dup3\n  dup2\n  gt\n  iszero\n  tag_11\n  jumpi\n  dup3\n  mload\n  dup3\n  sstore\n  swap2\n  0x20\n  add\n  swap2\n  swap1\n  0x01\n  add\n  swap1\n  jump(tag_10)\ntag_11:\ntag_9:\n  pop\n  swap1\n  pop\n  tag_12\n  swap2\n  swap1\n  tag_13\n  jump\t// in\ntag_12:\n  pop\n  swap1\n  jump\t// out\ntag_13:\ntag_14:\n  dup1\n  dup3\n  gt\n  iszero\n  tag_15\n  jumpi\n  0x00\n  dup2\n  0x00\n  swap1\n  sstore\n  pop\n  0x01\n  add\n  jump(tag_14)\ntag_15:\n  pop\n  swap1\n  jump\t// out\n    /* \"#utility.yul\":7:187   */\ntag_3:\n    /* \"#utility.yul\":55:132   */\n  0x4e487b7100000000000000000000000000000000000000000000000000000000\n    /* \"#utility.yul\":52:53   */\n  0x00\n    /* \"#utility.yul\":45:133   */\n  mstore\n    /* \"#utility.yul\":152:156   */\n  0x41\n    /* \"#utility.yul\":149:150   */\n  0x04\n    /* \"#utility.yul\":142:157   */\n  mstore\n    /* \"#utility.yul\":176:180   */\n  0x24\n    /* \"#utility.yul\":173:174   */\n  0x00\n    /* \"#utility.yul\":166:181   */\n  revert\n    /* \"contracts/16_Overloading.sol\":56:300  contract HelloWeb3 {... */\ntag_8:\n  dataSize(sub_0)\n  dup1\n  dataOffset(sub_0)\n  0x00\n  codecopy\n  0x00\n  return\nstop\n\nsub_0: assembly {\n        /* \"contracts/16_Overloading.sol\":56:300  contract HelloWeb3 {... */\n      mstore(0x40, 0x80)\n      callvalue\n      dup1\n      iszero\n      tag_1\n      jumpi\n      0x00\n      dup1\n      revert\n    tag_1:\n      pop\n      jumpi(tag_2, lt(calldatasize, 0x04))\n      shr(0xe0, calldataload(0x00))\n      dup1\n      0x47f6ac11\n      eq\n      tag_3\n      jumpi\n    tag_2:\n      0x00\n      dup1\n      revert\n        /* \"contracts/16_Overloading.sol\":122:298  function arrayPush() public returns (uint[] memory) {... */\n    tag_3:\n      tag_4\n      tag_5\n      jump\t// in\n    tag_4:\n      mload(0x40)\n      tag_6\n      swap2\n      swap1\n      tag_7\n      jump\t// in\n    tag_6:\n      mload(0x40)\n      dup1\n      swap2\n      sub\n      swap1\n      return\n    tag_5:\n        /* \"contracts/16_Overloading.sol\":159:172  uint[] memory */\n      0x60\n        /* \"contracts/16_Overloading.sol\":184:200  uint[2] memory a */\n      0x00\n        /* \"contracts/16_Overloading.sol\":184:215  uint[2] memory a = [uint(1), 2] */\n      mload(0x40)\n      dup1\n      0x40\n      add\n      0x40\n      mstore\n      dup1\n        /* \"contracts/16_Overloading.sol\":209:210  1 */\n      0x01\n        /* \"contracts/16_Overloading.sol\":184:215  uint[2] memory a = [uint(1), 2] */\n      dup2\n      mstore\n      0x20\n      add\n        /* \"contracts/16_Overloading.sol\":213:214  2 */\n      0x02\n        /* \"contracts/16_Overloading.sol\":184:215  uint[2] memory a = [uint(1), 2] */\n      dup2\n      mstore\n      pop\n      swap1\n      pop\n        /* \"contracts/16_Overloading.sol\":243:244  a */\n      dup1\n        /* \"contracts/16_Overloading.sol\":234:240  array4 */\n      0x00\n        /* \"contracts/16_Overloading.sol\":234:244  array4 = a */\n      swap1\n      0x02\n      tag_9\n      swap3\n      swap2\n      swap1\n      tag_10\n      jump\t// in\n    tag_9:\n      pop\n        /* \"contracts/16_Overloading.sol\":254:260  array4 */\n      0x00\n        /* \"contracts/16_Overloading.sol\":266:267  3 */\n      0x03\n        /* \"contracts/16_Overloading.sol\":254:268  array4.push(3) */\n      swap1\n      dup1\n      0x01\n      dup2\n      sload\n      add\n      dup1\n      dup3\n      sstore\n      dup1\n      swap2\n      pop\n      pop\n      0x01\n      swap1\n      sub\n      swap1\n      0x00\n      mstore\n      keccak256(0x00, 0x20)\n      add\n      0x00\n      swap1\n      swap2\n      swap1\n      swap2\n      swap1\n      swap2\n      pop\n      sstore\n        /* \"contracts/16_Overloading.sol\":285:291  array4 */\n      0x00\n        /* \"contracts/16_Overloading.sol\":278:291  return array4 */\n      dup1\n      sload\n      dup1\n      0x20\n      mul\n      0x20\n      add\n      mload(0x40)\n      swap1\n      dup2\n      add\n      0x40\n      mstore\n      dup1\n      swap3\n      swap2\n      swap1\n      dup2\n      dup2\n      mstore\n      0x20\n      add\n      dup3\n      dup1\n      sload\n      dup1\n      iszero\n      tag_12\n      jumpi\n      0x20\n      mul\n      dup3\n      add\n      swap2\n      swap1\n      0x00\n      mstore\n      keccak256(0x00, 0x20)\n      swap1\n    tag_13:\n      dup2\n      sload\n      dup2\n      mstore\n      0x20\n      add\n      swap1\n      0x01\n      add\n      swap1\n      dup1\n      dup4\n      gt\n      tag_13\n      jumpi\n    tag_12:\n      pop\n      pop\n      pop\n      pop\n      pop\n      swap2\n      pop\n      pop\n        /* \"contracts/16_Overloading.sol\":122:298  function arrayPush() public returns (uint[] memory) {... */\n      swap1\n      jump\t// out\n    tag_10:\n      dup3\n      dup1\n      sload\n      dup3\n      dup3\n      sstore\n      swap1\n      0x00\n      mstore\n      keccak256(0x00, 0x20)\n      swap1\n      dup2\n      add\n      swap3\n      dup3\n      iszero\n      tag_14\n      jumpi\n      swap2\n      0x20\n      mul\n      dup3\n      add\n    tag_15:\n      dup3\n      dup2\n      gt\n      iszero\n      tag_16\n      jumpi\n      dup3\n      mload\n      dup3\n      sstore\n      swap2\n      0x20\n      add\n      swap2\n      swap1\n      0x01\n      add\n      swap1\n      jump(tag_15)\n    tag_16:\n    tag_14:\n      pop\n      swap1\n      pop\n      tag_17\n      swap2\n      swap1\n      tag_18\n      jump\t// in\n    tag_17:\n      pop\n      swap1\n      jump\t// out\n    tag_18:\n    tag_19:\n      dup1\n      dup3\n      gt\n      iszero\n      tag_20\n      jumpi\n      0x00\n      dup2\n      0x00\n      swap1\n      sstore\n      pop\n      0x01\n      add\n      jump(tag_19)\n    tag_20:\n      pop\n      swap1\n      jump\t// out\n        /* \"#utility.yul\":7:186   */\n    tag_22:\n        /* \"#utility.yul\":76:86   */\n      0x00\n        /* \"#utility.yul\":97:143   */\n      tag_24\n        /* \"#utility.yul\":139:142   */\n      dup4\n        /* \"#utility.yul\":131:137   */\n      dup4\n        /* \"#utility.yul\":97:143   */\n      tag_25\n      jump\t// in\n    tag_24:\n        /* \"#utility.yul\":175:179   */\n      0x20\n        /* \"#utility.yul\":170:173   */\n      dup4\n        /* \"#utility.yul\":166:180   */\n      add\n        /* \"#utility.yul\":152:180   */\n      swap1\n      pop\n        /* \"#utility.yul\":7:186   */\n      swap3\n      swap2\n      pop\n      pop\n      jump\t// out\n        /* \"#utility.yul\":222:954   */\n    tag_26:\n        /* \"#utility.yul\":341:344   */\n      0x00\n        /* \"#utility.yul\":370:424   */\n      tag_28\n        /* \"#utility.yul\":418:423   */\n      dup3\n        /* \"#utility.yul\":370:424   */\n      tag_29\n      jump\t// in\n    tag_28:\n        /* \"#utility.yul\":440:526   */\n      tag_30\n        /* \"#utility.yul\":519:525   */\n      dup2\n        /* \"#utility.yul\":514:517   */\n      dup6\n        /* \"#utility.yul\":440:526   */\n      tag_31\n      jump\t// in\n    tag_30:\n        /* \"#utility.yul\":433:526   */\n      swap4\n      pop\n        /* \"#utility.yul\":550:606   */\n      tag_32\n        /* \"#utility.yul\":600:605   */\n      dup4\n        /* \"#utility.yul\":550:606   */\n      tag_33\n      jump\t// in\n    tag_32:\n        /* \"#utility.yul\":629:636   */\n      dup1\n        /* \"#utility.yul\":660:661   */\n      0x00\n        /* \"#utility.yul\":645:929   */\n    tag_34:\n        /* \"#utility.yul\":670:676   */\n      dup4\n        /* \"#utility.yul\":667:668   */\n      dup2\n        /* \"#utility.yul\":664:677   */\n      lt\n        /* \"#utility.yul\":645:929   */\n      iszero\n      tag_36\n      jumpi\n        /* \"#utility.yul\":746:752   */\n      dup2\n        /* \"#utility.yul\":740:753   */\n      mload\n        /* \"#utility.yul\":773:836   */\n      tag_37\n        /* \"#utility.yul\":832:835   */\n      dup9\n        /* \"#utility.yul\":817:830   */\n      dup3\n        /* \"#utility.yul\":773:836   */\n      tag_22\n      jump\t// in\n    tag_37:\n        /* \"#utility.yul\":766:836   */\n      swap8\n      pop\n        /* \"#utility.yul\":859:919   */\n      tag_38\n        /* \"#utility.yul\":912:918   */\n      dup4\n        /* \"#utility.yul\":859:919   */\n      tag_39\n      jump\t// in\n    tag_38:\n        /* \"#utility.yul\":849:919   */\n      swap3\n      pop\n        /* \"#utility.yul\":705:929   */\n      pop\n        /* \"#utility.yul\":692:693   */\n      0x01\n        /* \"#utility.yul\":689:690   */\n      dup2\n        /* \"#utility.yul\":685:694   */\n      add\n        /* \"#utility.yul\":680:694   */\n      swap1\n      pop\n        /* \"#utility.yul\":645:929   */\n      jump(tag_34)\n    tag_36:\n        /* \"#utility.yul\":649:663   */\n      pop\n        /* \"#utility.yul\":945:948   */\n      dup6\n        /* \"#utility.yul\":938:948   */\n      swap4\n      pop\n        /* \"#utility.yul\":346:954   */\n      pop\n      pop\n      pop\n        /* \"#utility.yul\":222:954   */\n      swap3\n      swap2\n      pop\n      pop\n      jump\t// out\n        /* \"#utility.yul\":960:1068   */\n    tag_25:\n        /* \"#utility.yul\":1037:1061   */\n      tag_41\n        /* \"#utility.yul\":1055:1060   */\n      dup2\n        /* \"#utility.yul\":1037:1061   */\n      tag_42\n      jump\t// in\n    tag_41:\n        /* \"#utility.yul\":1032:1035   */\n      dup3\n        /* \"#utility.yul\":1025:1062   */\n      mstore\n        /* \"#utility.yul\":960:1068   */\n      pop\n      pop\n      jump\t// out\n        /* \"#utility.yul\":1074:1447   */\n    tag_7:\n        /* \"#utility.yul\":1217:1221   */\n      0x00\n        /* \"#utility.yul\":1255:1257   */\n      0x20\n        /* \"#utility.yul\":1244:1253   */\n      dup3\n        /* \"#utility.yul\":1240:1258   */\n      add\n        /* \"#utility.yul\":1232:1258   */\n      swap1\n      pop\n        /* \"#utility.yul\":1304:1313   */\n      dup2\n        /* \"#utility.yul\":1298:1302   */\n      dup2\n        /* \"#utility.yul\":1294:1314   */\n      sub\n        /* \"#utility.yul\":1290:1291   */\n      0x00\n        /* \"#utility.yul\":1279:1288   */\n      dup4\n        /* \"#utility.yul\":1275:1292   */\n      add\n        /* \"#utility.yul\":1268:1315   */\n      mstore\n        /* \"#utility.yul\":1332:1440   */\n      tag_44\n        /* \"#utility.yul\":1435:1439   */\n      dup2\n        /* \"#utility.yul\":1426:1432   */\n      dup5\n        /* \"#utility.yul\":1332:1440   */\n      tag_26\n      jump\t// in\n    tag_44:\n        /* \"#utility.yul\":1324:1440   */\n      swap1\n      pop\n        /* \"#utility.yul\":1074:1447   */\n      swap3\n      swap2\n      pop\n      pop\n      jump\t// out\n        /* \"#utility.yul\":1453:1585   */\n    tag_33:\n        /* \"#utility.yul\":1520:1524   */\n      0x00\n        /* \"#utility.yul\":1543:1546   */\n      dup2\n        /* \"#utility.yul\":1535:1546   */\n      swap1\n      pop\n        /* \"#utility.yul\":1573:1577   */\n      0x20\n        /* \"#utility.yul\":1568:1571   */\n      dup3\n        /* \"#utility.yul\":1564:1578   */\n      add\n        /* \"#utility.yul\":1556:1578   */\n      swap1\n      pop\n        /* \"#utility.yul\":1453:1585   */\n      swap2\n      swap1\n      pop\n      jump\t// out\n        /* \"#utility.yul\":1591:1705   */\n    tag_29:\n        /* \"#utility.yul\":1658:1664   */\n      0x00\n        /* \"#utility.yul\":1692:1697   */\n      dup2\n        /* \"#utility.yul\":1686:1698   */\n      mload\n        /* \"#utility.yul\":1676:1698   */\n      swap1\n      pop\n        /* \"#utility.yul\":1591:1705   */\n      swap2\n      swap1\n      pop\n      jump\t// out\n        /* \"#utility.yul\":1711:1824   */\n    tag_39:\n        /* \"#utility.yul\":1781:1785   */\n      0x00\n        /* \"#utility.yul\":1813:1817   */\n      0x20\n        /* \"#utility.yul\":1808:1811   */\n      dup3\n        /* \"#utility.yul\":1804:1818   */\n      add\n        /* \"#utility.yul\":1796:1818   */\n      swap1\n      pop\n        /* \"#utility.yul\":1711:1824   */\n      swap2\n      swap1\n      pop\n      jump\t// out\n        /* \"#utility.yul\":1830:2014   */\n    tag_31:\n        /* \"#utility.yul\":1929:1940   */\n      0x00\n        /* \"#utility.yul\":1963:1969   */\n      dup3\n        /* \"#utility.yul\":1958:1961   */\n      dup3\n        /* \"#utility.yul\":1951:1970   */\n      mstore\n        /* \"#utility.yul\":2003:2007   */\n      0x20\n        /* \"#utility.yul\":1998:2001   */\n      dup3\n        /* \"#utility.yul\":1994:2008   */\n      add\n        /* \"#utility.yul\":1979:2008   */\n      swap1\n      pop\n        /* \"#utility.yul\":1830:2014   */\n      swap3\n      swap2\n      pop\n      pop\n      jump\t// out\n        /* \"#utility.yul\":2020:2097   */\n    tag_42:\n        /* \"#utility.yul\":2057:2064   */\n      0x00\n        /* \"#utility.yul\":2086:2091   */\n      dup2\n        /* \"#utility.yul\":2075:2091   */\n      swap1\n      pop\n        /* \"#utility.yul\":2020:2097   */\n      swap2\n      swap1\n      pop\n      jump\t// out\n\n    auxdata: 0xa2646970667358221220c58d0cb54d247d220b3112702666250d0621c8825788c83e4a7e8c259d7f2de664736f6c63430008070033\n}\n",
				"bytecode": {
					"linkReferences": {},
					"object": "6080604052600367ffffffffffffffff81111561001f5761001e6100e0565b5b60405190808252806020026020018201604052801561004d5781602001602082028036833780820191505090505b5060009080519060200190610063929190610076565b5034801561007057600080fd5b5061010f565b8280548282559060005260206000209081019282156100b2579160200282015b828111156100b1578251825591602001919060010190610096565b5b5090506100bf91906100c3565b5090565b5b808211156100dc5760008160009055506001016100c4565b5090565b7f4e487b7100000000000000000000000000000000000000000000000000000000600052604160045260246000fd5b6102888061011e6000396000f3fe608060405234801561001057600080fd5b506004361061002b5760003560e01c806347f6ac1114610030575b600080fd5b61003861004e565b60405161004591906101ed565b60405180910390f35b606060006040518060400160405280600181526020016002815250905080600090600261007c9291906100fe565b5060006003908060018154018082558091505060019003906000526020600020016000909190919091505560008054806020026020016040519081016040528092919081815260200182805480156100f357602002820191906000526020600020905b8154815260200190600101908083116100df575b505050505091505090565b82805482825590600052602060002090810192821561013a579160200282015b8281111561013957825182559160200191906001019061011e565b5b509050610147919061014b565b5090565b5b8082111561016457600081600090555060010161014c565b5090565b600061017483836101de565b60208301905092915050565b600061018b8261021f565b6101958185610237565b93506101a08361020f565b8060005b838110156101d15781516101b88882610168565b97506101c38361022a565b9250506001810190506101a4565b5085935050505092915050565b6101e781610248565b82525050565b600060208201905081810360008301526102078184610180565b905092915050565b6000819050602082019050919050565b600081519050919050565b6000602082019050919050565b600082825260208201905092915050565b600081905091905056fea2646970667358221220c58d0cb54d247d220b3112702666250d0621c8825788c83e4a7e8c259d7f2de664736f6c63430008070033",
					"opcodes": "PUSH1 0x80 PUSH1 0x40 MSTORE PUSH1 0x3 PUSH8 0xFFFFFFFFFFFFFFFF DUP2 GT ISZERO PUSH2 0x1F JUMPI PUSH2 0x1E PUSH2 0xE0 JUMP JUMPDEST JUMPDEST PUSH1 0x40 MLOAD SWAP1 DUP1 DUP3 MSTORE DUP1 PUSH1 0x20 MUL PUSH1 0x20 ADD DUP3 ADD PUSH1 0x40 MSTORE DUP1 ISZERO PUSH2 0x4D JUMPI DUP2 PUSH1 0x20 ADD PUSH1 0x20 DUP3 MUL DUP1 CALLDATASIZE DUP4 CALLDATACOPY DUP1 DUP3 ADD SWAP2 POP POP SWAP1 POP JUMPDEST POP PUSH1 0x0 SWAP1 DUP1 MLOAD SWAP1 PUSH1 0x20 ADD SWAP1 PUSH2 0x63 SWAP3 SWAP2 SWAP1 PUSH2 0x76 JUMP JUMPDEST POP CALLVALUE DUP1 ISZERO PUSH2 0x70 JUMPI PUSH1 0x0 DUP1 REVERT JUMPDEST POP PUSH2 0x10F JUMP JUMPDEST DUP3 DUP1 SLOAD DUP3 DUP3 SSTORE SWAP1 PUSH1 0x0 MSTORE PUSH1 0x20 PUSH1 0x0 KECCAK256 SWAP1 DUP2 ADD SWAP3 DUP3 ISZERO PUSH2 0xB2 JUMPI SWAP2 PUSH1 0x20 MUL DUP3 ADD JUMPDEST DUP3 DUP2 GT ISZERO PUSH2 0xB1 JUMPI DUP3 MLOAD DUP3 SSTORE SWAP2 PUSH1 0x20 ADD SWAP2 SWAP1 PUSH1 0x1 ADD SWAP1 PUSH2 0x96 JUMP JUMPDEST JUMPDEST POP SWAP1 POP PUSH2 0xBF SWAP2 SWAP1 PUSH2 0xC3 JUMP JUMPDEST POP SWAP1 JUMP JUMPDEST JUMPDEST DUP1 DUP3 GT ISZERO PUSH2 0xDC JUMPI PUSH1 0x0 DUP2 PUSH1 0x0 SWAP1 SSTORE POP PUSH1 0x1 ADD PUSH2 0xC4 JUMP JUMPDEST POP SWAP1 JUMP JUMPDEST PUSH32 0x4E487B7100000000000000000000000000000000000000000000000000000000 PUSH1 0x0 MSTORE PUSH1 0x41 PUSH1 0x4 MSTORE PUSH1 0x24 PUSH1 0x0 REVERT JUMPDEST PUSH2 0x288 DUP1 PUSH2 0x11E PUSH1 0x0 CODECOPY PUSH1 0x0 RETURN INVALID PUSH1 0x80 PUSH1 0x40 MSTORE CALLVALUE DUP1 ISZERO PUSH2 0x10 JUMPI PUSH1 0x0 DUP1 REVERT JUMPDEST POP PUSH1 0x4 CALLDATASIZE LT PUSH2 0x2B JUMPI PUSH1 0x0 CALLDATALOAD PUSH1 0xE0 SHR DUP1 PUSH4 0x47F6AC11 EQ PUSH2 0x30 JUMPI JUMPDEST PUSH1 0x0 DUP1 REVERT JUMPDEST PUSH2 0x38 PUSH2 0x4E JUMP JUMPDEST PUSH1 0x40 MLOAD PUSH2 0x45 SWAP2 SWAP1 PUSH2 0x1ED JUMP JUMPDEST PUSH1 0x40 MLOAD DUP1 SWAP2 SUB SWAP1 RETURN JUMPDEST PUSH1 0x60 PUSH1 0x0 PUSH1 0x40 MLOAD DUP1 PUSH1 0x40 ADD PUSH1 0x40 MSTORE DUP1 PUSH1 0x1 DUP2 MSTORE PUSH1 0x20 ADD PUSH1 0x2 DUP2 MSTORE POP SWAP1 POP DUP1 PUSH1 0x0 SWAP1 PUSH1 0x2 PUSH2 0x7C SWAP3 SWAP2 SWAP1 PUSH2 0xFE JUMP JUMPDEST POP PUSH1 0x0 PUSH1 0x3 SWAP1 DUP1 PUSH1 0x1 DUP2 SLOAD ADD DUP1 DUP3 SSTORE DUP1 SWAP2 POP POP PUSH1 0x1 SWAP1 SUB SWAP1 PUSH1 0x0 MSTORE PUSH1 0x20 PUSH1 0x0 KECCAK256 ADD PUSH1 0x0 SWAP1 SWAP2 SWAP1 SWAP2 SWAP1 SWAP2 POP SSTORE PUSH1 0x0 DUP1 SLOAD DUP1 PUSH1 0x20 MUL PUSH1 0x20 ADD PUSH1 0x40 MLOAD SWAP1 DUP2 ADD PUSH1 0x40 MSTORE DUP1 SWAP3 SWAP2 SWAP1 DUP2 DUP2 MSTORE PUSH1 0x20 ADD DUP3 DUP1 SLOAD DUP1 ISZERO PUSH2 0xF3 JUMPI PUSH1 0x20 MUL DUP3 ADD SWAP2 SWAP1 PUSH1 0x0 MSTORE PUSH1 0x20 PUSH1 0x0 KECCAK256 SWAP1 JUMPDEST DUP2 SLOAD DUP2 MSTORE PUSH1 0x20 ADD SWAP1 PUSH1 0x1 ADD SWAP1 DUP1 DUP4 GT PUSH2 0xDF JUMPI JUMPDEST POP POP POP POP POP SWAP2 POP POP SWAP1 JUMP JUMPDEST DUP3 DUP1 SLOAD DUP3 DUP3 SSTORE SWAP1 PUSH1 0x0 MSTORE PUSH1 0x20 PUSH1 0x0 KECCAK256 SWAP1 DUP2 ADD SWAP3 DUP3 ISZERO PUSH2 0x13A JUMPI SWAP2 PUSH1 0x20 MUL DUP3 ADD JUMPDEST DUP3 DUP2 GT ISZERO PUSH2 0x139 JUMPI DUP3 MLOAD DUP3 SSTORE SWAP2 PUSH1 0x20 ADD SWAP2 SWAP1 PUSH1 0x1 ADD SWAP1 PUSH2 0x11E JUMP JUMPDEST JUMPDEST POP SWAP1 POP PUSH2 0x147 SWAP2 SWAP1 PUSH2 0x14B JUMP JUMPDEST POP SWAP1 JUMP JUMPDEST JUMPDEST DUP1 DUP3 GT ISZERO PUSH2 0x164 JUMPI PUSH1 0x0 DUP2 PUSH1 0x0 SWAP1 SSTORE POP PUSH1 0x1 ADD PUSH2 0x14C JUMP JUMPDEST POP SWAP1 JUMP JUMPDEST PUSH1 0x0 PUSH2 0x174 DUP4 DUP4 PUSH2 0x1DE JUMP JUMPDEST PUSH1 0x20 DUP4 ADD SWAP1 POP SWAP3 SWAP2 POP POP JUMP JUMPDEST PUSH1 0x0 PUSH2 0x18B DUP3 PUSH2 0x21F JUMP JUMPDEST PUSH2 0x195 DUP2 DUP6 PUSH2 0x237 JUMP JUMPDEST SWAP4 POP PUSH2 0x1A0 DUP4 PUSH2 0x20F JUMP JUMPDEST DUP1 PUSH1 0x0 JUMPDEST DUP4 DUP2 LT ISZERO PUSH2 0x1D1 JUMPI DUP2 MLOAD PUSH2 0x1B8 DUP9 DUP3 PUSH2 0x168 JUMP JUMPDEST SWAP8 POP PUSH2 0x1C3 DUP4 PUSH2 0x22A JUMP JUMPDEST SWAP3 POP POP PUSH1 0x1 DUP2 ADD SWAP1 POP PUSH2 0x1A4 JUMP JUMPDEST POP DUP6 SWAP4 POP POP POP POP SWAP3 SWAP2 POP POP JUMP JUMPDEST PUSH2 0x1E7 DUP2 PUSH2 0x248 JUMP JUMPDEST DUP3 MSTORE POP POP JUMP JUMPDEST PUSH1 0x0 PUSH1 0x20 DUP3 ADD SWAP1 POP DUP2 DUP2 SUB PUSH1 0x0 DUP4 ADD MSTORE PUSH2 0x207 DUP2 DUP5 PUSH2 0x180 JUMP JUMPDEST SWAP1 POP SWAP3 SWAP2 POP POP JUMP JUMPDEST PUSH1 0x0 DUP2 SWAP1 POP PUSH1 0x20 DUP3 ADD SWAP1 POP SWAP2 SWAP1 POP JUMP JUMPDEST PUSH1 0x0 DUP2 MLOAD SWAP1 POP SWAP2 SWAP1 POP JUMP JUMPDEST PUSH1 0x0 PUSH1 0x20 DUP3 ADD SWAP1 POP SWAP2 SWAP1 POP JUMP JUMPDEST PUSH1 0x0 DUP3 DUP3 MSTORE PUSH1 0x20 DUP3 ADD SWAP1 POP SWAP3 SWAP2 POP POP JUMP JUMPDEST PUSH1 0x0 DUP2 SWAP1 POP SWAP2 SWAP1 POP JUMP INVALID LOG2 PUSH5 0x6970667358 0x22 SLT KECCAK256 0xC5 DUP14 0xC 0xB5 0x4D 0x24 PUSH30 0x220B3112702666250D0621C8825788C83E4A7E8C259D7F2DE664736F6C63 NUMBER STOP ADDMOD SMOD STOP CALLER "
				},
				"gasEstimates": {
					"creation": {
						"codeDepositCost": "129600",
						"executionCost": "infinite",
						"totalCost": "infinite"
					},
					"external": {
						"arrayPush()": "infinite"
					}
				},
				"methodIdentifiers": {
					"arrayPush()": "47f6ac11"
				}
			},
			"storageLayout": {
				"storage": [
					{
						"astId": 9,
						"contract": "contracts/16_Overloading.sol:HelloWeb3",
						"label": "array4",
						"offset": 0,
						"slot": "0",
						"type": "t_array(t_uint256)dyn_storage"
					}
				],
				"types": {
					"t_array(t_uint256)dyn_storage": {
						"base": "t_uint256",
						"encoding": "dynamic_array",
						"label": "uint256[]",
						"numberOfBytes": "32"
					},
					"t_uint256": {
						"encoding": "inplace",
						"label": "uint256",
						"numberOfBytes": "32"
					}
				}
			},
			"userdoc": {
				"kind": "user",
				"methods": {},
				"version": 1
			}
		}
	}
}