{
	"contracts/StakePool.sol": {
		"StakePool": {
			"abi": [
				{
					"inputs": [
						{
							"internalType": "address",
							"name": "_tokenAddress",
							"type": "address"
						}
					],
					"stateMutability": "nonpayable",
					"type": "constructor"
				},
				{
					"anonymous": false,
					"inputs": [
						{
							"indexed": true,
							"internalType": "address",
							"name": "user",
							"type": "address"
						},
						{
							"indexed": false,
							"internalType": "uint256",
							"name": "receiveNumber",
							"type": "uint256"
						}
					],
					"name": "Receive",
					"type": "event"
				},
				{
					"anonymous": false,
					"inputs": [
						{
							"indexed": true,
							"internalType": "address",
							"name": "user",
							"type": "address"
						},
						{
							"indexed": false,
							"internalType": "uint256",
							"name": "stakeNumber",
							"type": "uint256"
						}
					],
					"name": "Stake",
					"type": "event"
				},
				{
					"anonymous": false,
					"inputs": [
						{
							"indexed": true,
							"internalType": "address",
							"name": "user",
							"type": "address"
						},
						{
							"indexed": false,
							"internalType": "uint256",
							"name": "unStakeNumber",
							"type": "uint256"
						}
					],
					"name": "UnStake",
					"type": "event"
				},
				{
					"anonymous": false,
					"inputs": [
						{
							"indexed": false,
							"internalType": "uint8",
							"name": "ratio",
							"type": "uint8"
						}
					],
					"name": "UpdateRatio",
					"type": "event"
				},
				{
					"inputs": [],
					"name": "ierc20",
					"outputs": [
						{
							"internalType": "contract IERC20",
							"name": "",
							"type": "address"
						}
					],
					"stateMutability": "view",
					"type": "function"
				},
				{
					"inputs": [],
					"name": "owner",
					"outputs": [
						{
							"internalType": "address",
							"name": "",
							"type": "address"
						}
					],
					"stateMutability": "view",
					"type": "function"
				},
				{
					"inputs": [],
					"name": "ratio",
					"outputs": [
						{
							"internalType": "uint8",
							"name": "",
							"type": "uint8"
						}
					],
					"stateMutability": "view",
					"type": "function"
				},
				{
					"inputs": [],
					"name": "received",
					"outputs": [],
					"stateMutability": "payable",
					"type": "function"
				},
				{
					"inputs": [
						{
							"internalType": "uint8",
							"name": "_ratio",
							"type": "uint8"
						}
					],
					"name": "setRatio",
					"outputs": [],
					"stateMutability": "nonpayable",
					"type": "function"
				},
				{
					"inputs": [
						{
							"internalType": "uint256",
							"name": "_stakeNumber",
							"type": "uint256"
						}
					],
					"name": "stake",
					"outputs": [],
					"stateMutability": "payable",
					"type": "function"
				},
				{
					"inputs": [],
					"name": "tokenAddress",
					"outputs": [
						{
							"internalType": "address",
							"name": "",
							"type": "address"
						}
					],
					"stateMutability": "view",
					"type": "function"
				},
				{
					"inputs": [],
					"name": "totalStakeNumber",
					"outputs": [
						{
							"internalType": "uint256",
							"name": "",
							"type": "uint256"
						}
					],
					"stateMutability": "view",
					"type": "function"
				},
				{
					"inputs": [],
					"name": "unStake",
					"outputs": [],
					"stateMutability": "payable",
					"type": "function"
				},
				{
					"inputs": [
						{
							"internalType": "address",
							"name": "",
							"type": "address"
						}
					],
					"name": "userStakes",
					"outputs": [
						{
							"internalType": "uint256",
							"name": "stakeNumber",
							"type": "uint256"
						},
						{
							"internalType": "uint256",
							"name": "currentInterest",
							"type": "uint256"
						},
						{
							"internalType": "uint256",
							"name": "claimedInterest",
							"type": "uint256"
						},
						{
							"internalType": "uint256",
							"name": "lastStakeTime",
							"type": "uint256"
						}
					],
					"stateMutability": "view",
					"type": "function"
				}
			],
			"devdoc": {
				"kind": "dev",
				"methods": {},
				"version": 1
			},
			"evm": {
				"assembly": "    /* \"contracts/StakePool.sol\":702:3524  contract StakePool{... */\n  mstore(0x40, 0x80)\n    /* \"contracts/StakePool.sol\":1165:1166  1 */\n  0x01\n    /* \"contracts/StakePool.sol\":1131:1166  uint256 public totalStakeNumber = 1 */\n  0x00\n  sstore\n    /* \"contracts/StakePool.sol\":1399:1567  constructor(address _tokenAddress) {... */\n  callvalue\n  dup1\n  iszero\n  tag_1\n  jumpi\n  0x00\n  dup1\n  revert\ntag_1:\n  pop\n  mload(0x40)\n  sub(codesize, bytecodeSize)\n  dup1\n  bytecodeSize\n  dup4\n  codecopy\n  dup2\n  dup2\n  add\n  0x40\n  mstore\n  dup2\n  add\n  swap1\n  tag_2\n  swap2\n  swap1\n  tag_3\n  jump\t// in\ntag_2:\n    /* \"contracts/StakePool.sol\":1459:1472  _tokenAddress */\n  dup1\n    /* \"contracts/StakePool.sol\":1444:1456  tokenAddress */\n  0x01\n  0x00\n    /* \"contracts/StakePool.sol\":1444:1472  tokenAddress = _tokenAddress */\n  0x0100\n  exp\n  dup2\n  sload\n  dup2\n  0xffffffffffffffffffffffffffffffffffffffff\n  mul\n  not\n  and\n  swap1\n  dup4\n  0xffffffffffffffffffffffffffffffffffffffff\n  and\n  mul\n  or\n  swap1\n  sstore\n  pop\n    /* \"contracts/StakePool.sol\":1498:1511  _tokenAddress */\n  dup1\n    /* \"contracts/StakePool.sol\":1482:1488  ierc20 */\n  0x04\n  0x00\n    /* \"contracts/StakePool.sol\":1482:1512  ierc20 = IERC20(_tokenAddress) */\n  0x0100\n  exp\n  dup2\n  sload\n  dup2\n  0xffffffffffffffffffffffffffffffffffffffff\n  mul\n  not\n  and\n  swap1\n  dup4\n  0xffffffffffffffffffffffffffffffffffffffff\n  and\n  mul\n  or\n  swap1\n  sstore\n  pop\n    /* \"contracts/StakePool.sol\":1530:1532  50 */\n  0x32\n    /* \"contracts/StakePool.sol\":1522:1527  ratio */\n  0x02\n  0x14\n    /* \"contracts/StakePool.sol\":1522:1532  ratio = 50 */\n  0x0100\n  exp\n  dup2\n  sload\n  dup2\n  0xff\n  mul\n  not\n  and\n  swap1\n  dup4\n  0xff\n  and\n  mul\n  or\n  swap1\n  sstore\n  pop\n    /* \"contracts/StakePool.sol\":1550:1560  msg.sender */\n  caller\n    /* \"contracts/StakePool.sol\":1542:1547  owner */\n  0x02\n  0x00\n    /* \"contracts/StakePool.sol\":1542:1560  owner = msg.sender */\n  0x0100\n  exp\n  dup2\n  sload\n  dup2\n  0xffffffffffffffffffffffffffffffffffffffff\n  mul\n  not\n  and\n  swap1\n  dup4\n  0xffffffffffffffffffffffffffffffffffffffff\n  and\n  mul\n  or\n  swap1\n  sstore\n  pop\n    /* \"contracts/StakePool.sol\":1399:1567  constructor(address _tokenAddress) {... */\n  pop\n    /* \"contracts/StakePool.sol\":702:3524  contract StakePool{... */\n  jump(tag_6)\n    /* \"#utility.yul\":88:205   */\ntag_8:\n    /* \"#utility.yul\":197:198   */\n  0x00\n    /* \"#utility.yul\":194:195   */\n  dup1\n    /* \"#utility.yul\":187:199   */\n  revert\n    /* \"#utility.yul\":334:460   */\ntag_10:\n    /* \"#utility.yul\":371:378   */\n  0x00\n    /* \"#utility.yul\":411:453   */\n  0xffffffffffffffffffffffffffffffffffffffff\n    /* \"#utility.yul\":404:409   */\n  dup3\n    /* \"#utility.yul\":400:454   */\n  and\n    /* \"#utility.yul\":389:454   */\n  swap1\n  pop\n    /* \"#utility.yul\":334:460   */\n  swap2\n  swap1\n  pop\n  jump\t// out\n    /* \"#utility.yul\":466:562   */\ntag_11:\n    /* \"#utility.yul\":503:510   */\n  0x00\n    /* \"#utility.yul\":532:556   */\n  tag_20\n    /* \"#utility.yul\":550:555   */\n  dup3\n    /* \"#utility.yul\":532:556   */\n  tag_10\n  jump\t// in\ntag_20:\n    /* \"#utility.yul\":521:556   */\n  swap1\n  pop\n    /* \"#utility.yul\":466:562   */\n  swap2\n  swap1\n  pop\n  jump\t// out\n    /* \"#utility.yul\":568:690   */\ntag_12:\n    /* \"#utility.yul\":641:665   */\n  tag_22\n    /* \"#utility.yul\":659:664   */\n  dup2\n    /* \"#utility.yul\":641:665   */\n  tag_11\n  jump\t// in\ntag_22:\n    /* \"#utility.yul\":634:639   */\n  dup2\n    /* \"#utility.yul\":631:666   */\n  eq\n    /* \"#utility.yul\":621:684   */\n  tag_23\n  jumpi\n    /* \"#utility.yul\":680:681   */\n  0x00\n    /* \"#utility.yul\":677:678   */\n  dup1\n    /* \"#utility.yul\":670:682   */\n  revert\n    /* \"#utility.yul\":621:684   */\ntag_23:\n    /* \"#utility.yul\":568:690   */\n  pop\n  jump\t// out\n    /* \"#utility.yul\":696:839   */\ntag_13:\n    /* \"#utility.yul\":753:758   */\n  0x00\n    /* \"#utility.yul\":784:790   */\n  dup2\n    /* \"#utility.yul\":778:791   */\n  mload\n    /* \"#utility.yul\":769:791   */\n  swap1\n  pop\n    /* \"#utility.yul\":800:833   */\n  tag_25\n    /* \"#utility.yul\":827:832   */\n  dup2\n    /* \"#utility.yul\":800:833   */\n  tag_12\n  jump\t// in\ntag_25:\n    /* \"#utility.yul\":696:839   */\n  swap3\n  swap2\n  pop\n  pop\n  jump\t// out\n    /* \"#utility.yul\":845:1196   */\ntag_3:\n    /* \"#utility.yul\":915:921   */\n  0x00\n    /* \"#utility.yul\":964:966   */\n  0x20\n    /* \"#utility.yul\":952:961   */\n  dup3\n    /* \"#utility.yul\":943:950   */\n  dup5\n    /* \"#utility.yul\":939:962   */\n  sub\n    /* \"#utility.yul\":935:967   */\n  slt\n    /* \"#utility.yul\":932:1051   */\n  iszero\n  tag_27\n  jumpi\n    /* \"#utility.yul\":970:1049   */\n  tag_28\n  tag_8\n  jump\t// in\ntag_28:\n    /* \"#utility.yul\":932:1051   */\ntag_27:\n    /* \"#utility.yul\":1090:1091   */\n  0x00\n    /* \"#utility.yul\":1115:1179   */\n  tag_29\n    /* \"#utility.yul\":1171:1178   */\n  dup5\n    /* \"#utility.yul\":1162:1168   */\n  dup3\n    /* \"#utility.yul\":1151:1160   */\n  dup6\n    /* \"#utility.yul\":1147:1169   */\n  add\n    /* \"#utility.yul\":1115:1179   */\n  tag_13\n  jump\t// in\ntag_29:\n    /* \"#utility.yul\":1105:1179   */\n  swap2\n  pop\n    /* \"#utility.yul\":1061:1189   */\n  pop\n    /* \"#utility.yul\":845:1196   */\n  swap3\n  swap2\n  pop\n  pop\n  jump\t// out\n    /* \"contracts/StakePool.sol\":702:3524  contract StakePool{... */\ntag_6:\n  dataSize(sub_0)\n  dup1\n  dataOffset(sub_0)\n  0x00\n  codecopy\n  0x00\n  return\nstop\n\nsub_0: assembly {\n        /* \"contracts/StakePool.sol\":702:3524  contract StakePool{... */\n      mstore(0x40, 0x80)\n      jumpi(tag_1, lt(calldatasize, 0x04))\n      shr(0xe0, calldataload(0x00))\n      dup1\n      0x8da5cb5b\n      gt\n      tag_12\n      jumpi\n      dup1\n      0x8da5cb5b\n      eq\n      tag_7\n      jumpi\n      dup1\n      0x8da7ad23\n      eq\n      tag_8\n      jumpi\n      dup1\n      0x9d76ea58\n      eq\n      tag_9\n      jumpi\n      dup1\n      0xa694fc3a\n      eq\n      tag_10\n      jumpi\n      dup1\n      0xbf0ae63d\n      eq\n      tag_11\n      jumpi\n      jump(tag_1)\n    tag_12:\n      dup1\n      0x53b645e5\n      eq\n      tag_2\n      jumpi\n      dup1\n      0x71ca337d\n      eq\n      tag_3\n      jumpi\n      dup1\n      0x73cf575a\n      eq\n      tag_4\n      jumpi\n      dup1\n      0x83a6deb5\n      eq\n      tag_5\n      jumpi\n      dup1\n      0x8d994beb\n      eq\n      tag_6\n      jumpi\n    tag_1:\n      0x00\n      dup1\n      revert\n        /* \"contracts/StakePool.sol\":1131:1166  uint256 public totalStakeNumber = 1 */\n    tag_2:\n      callvalue\n      dup1\n      iszero\n      tag_13\n      jumpi\n      0x00\n      dup1\n      revert\n    tag_13:\n      pop\n      tag_14\n      tag_15\n      jump\t// in\n    tag_14:\n      mload(0x40)\n      tag_16\n      swap2\n      swap1\n      tag_17\n      jump\t// in\n    tag_16:\n      mload(0x40)\n      dup1\n      swap2\n      sub\n      swap1\n      return\n        /* \"contracts/StakePool.sol\":1274:1292  uint8 public ratio */\n    tag_3:\n      callvalue\n      dup1\n      iszero\n      tag_18\n      jumpi\n      0x00\n      dup1\n      revert\n    tag_18:\n      pop\n      tag_19\n      tag_20\n      jump\t// in\n    tag_19:\n      mload(0x40)\n      tag_21\n      swap2\n      swap1\n      tag_22\n      jump\t// in\n    tag_21:\n      mload(0x40)\n      dup1\n      swap2\n      sub\n      swap1\n      return\n        /* \"contracts/StakePool.sol\":2253:2891  function unStake() external payable {... */\n    tag_4:\n      tag_23\n      tag_24\n      jump\t// in\n    tag_23:\n      stop\n        /* \"contracts/StakePool.sol\":2897:3244  function received() external payable {... */\n    tag_5:\n      tag_25\n      tag_26\n      jump\t// in\n    tag_25:\n      stop\n        /* \"contracts/StakePool.sol\":1670:1795  function setRatio(uint8 _ratio) external onlyOwner {    ... */\n    tag_6:\n      callvalue\n      dup1\n      iszero\n      tag_27\n      jumpi\n      0x00\n      dup1\n      revert\n    tag_27:\n      pop\n      tag_28\n      0x04\n      dup1\n      calldatasize\n      sub\n      dup2\n      add\n      swap1\n      tag_29\n      swap2\n      swap1\n      tag_30\n      jump\t// in\n    tag_29:\n      tag_31\n      jump\t// in\n    tag_28:\n      stop\n        /* \"contracts/StakePool.sol\":1248:1268  address public owner */\n    tag_7:\n      callvalue\n      dup1\n      iszero\n      tag_32\n      jumpi\n      0x00\n      dup1\n      revert\n    tag_32:\n      pop\n      tag_33\n      tag_34\n      jump\t// in\n    tag_33:\n      mload(0x40)\n      tag_35\n      swap2\n      swap1\n      tag_36\n      jump\t// in\n    tag_35:\n      mload(0x40)\n      dup1\n      swap2\n      sub\n      swap1\n      return\n        /* \"contracts/StakePool.sol\":1324:1366  mapping(address => User) public userStakes */\n    tag_8:\n      callvalue\n      dup1\n      iszero\n      tag_37\n      jumpi\n      0x00\n      dup1\n      revert\n    tag_37:\n      pop\n      tag_38\n      0x04\n      dup1\n      calldatasize\n      sub\n      dup2\n      add\n      swap1\n      tag_39\n      swap2\n      swap1\n      tag_40\n      jump\t// in\n    tag_39:\n      tag_41\n      jump\t// in\n    tag_38:\n      mload(0x40)\n      tag_42\n      swap5\n      swap4\n      swap3\n      swap2\n      swap1\n      tag_43\n      jump\t// in\n    tag_42:\n      mload(0x40)\n      dup1\n      swap2\n      sub\n      swap1\n      return\n        /* \"contracts/StakePool.sol\":1192:1219  address public tokenAddress */\n    tag_9:\n      callvalue\n      dup1\n      iszero\n      tag_44\n      jumpi\n      0x00\n      dup1\n      revert\n    tag_44:\n      pop\n      tag_45\n      tag_46\n      jump\t// in\n    tag_45:\n      mload(0x40)\n      tag_47\n      swap2\n      swap1\n      tag_36\n      jump\t// in\n    tag_47:\n      mload(0x40)\n      dup1\n      swap2\n      sub\n      swap1\n      return\n        /* \"contracts/StakePool.sol\":1805:2247  function stake(uint256 _stakeNumber) external payable {... */\n    tag_10:\n      tag_48\n      0x04\n      dup1\n      calldatasize\n      sub\n      dup2\n      add\n      swap1\n      tag_49\n      swap2\n      swap1\n      tag_50\n      jump\t// in\n    tag_49:\n      tag_51\n      jump\t// in\n    tag_48:\n      stop\n        /* \"contracts/StakePool.sol\":1372:1392  IERC20 public ierc20 */\n    tag_11:\n      callvalue\n      dup1\n      iszero\n      tag_52\n      jumpi\n      0x00\n      dup1\n      revert\n    tag_52:\n      pop\n      tag_53\n      tag_54\n      jump\t// in\n    tag_53:\n      mload(0x40)\n      tag_55\n      swap2\n      swap1\n      tag_56\n      jump\t// in\n    tag_55:\n      mload(0x40)\n      dup1\n      swap2\n      sub\n      swap1\n      return\n        /* \"contracts/StakePool.sol\":1131:1166  uint256 public totalStakeNumber = 1 */\n    tag_15:\n      sload(0x00)\n      dup2\n      jump\t// out\n        /* \"contracts/StakePool.sol\":1274:1292  uint8 public ratio */\n    tag_20:\n      0x02\n      0x14\n      swap1\n      sload\n      swap1\n      0x0100\n      exp\n      swap1\n      div\n      0xff\n      and\n      dup2\n      jump\t// out\n        /* \"contracts/StakePool.sol\":2253:2891  function unStake() external payable {... */\n    tag_24:\n        /* \"contracts/StakePool.sol\":2336:2350  uint256 insert */\n      0x00\n        /* \"contracts/StakePool.sol\":2353:2368  getUserInsert() */\n      tag_58\n        /* \"contracts/StakePool.sol\":2353:2366  getUserInsert */\n      tag_59\n        /* \"contracts/StakePool.sol\":2353:2368  getUserInsert() */\n      jump\t// in\n    tag_58:\n        /* \"contracts/StakePool.sol\":2336:2368  uint256 insert = getUserInsert() */\n      swap1\n      pop\n        /* \"contracts/StakePool.sol\":2378:2384  ierc20 */\n      0x04\n      0x00\n      swap1\n      sload\n      swap1\n      0x0100\n      exp\n      swap1\n      div\n      0xffffffffffffffffffffffffffffffffffffffff\n      and\n        /* \"contracts/StakePool.sol\":2378:2393  ierc20.transfer */\n      0xffffffffffffffffffffffffffffffffffffffff\n      and\n      0xa9059cbb\n        /* \"contracts/StakePool.sol\":2394:2404  msg.sender */\n      caller\n        /* \"contracts/StakePool.sol\":2406:2416  userStakes */\n      0x03\n        /* \"contracts/StakePool.sol\":2406:2428  userStakes[msg.sender] */\n      0x00\n        /* \"contracts/StakePool.sol\":2417:2427  msg.sender */\n      caller\n        /* \"contracts/StakePool.sol\":2406:2428  userStakes[msg.sender] */\n      0xffffffffffffffffffffffffffffffffffffffff\n      and\n      0xffffffffffffffffffffffffffffffffffffffff\n      and\n      dup2\n      mstore\n      0x20\n      add\n      swap1\n      dup2\n      mstore\n      0x20\n      add\n      0x00\n      keccak256\n        /* \"contracts/StakePool.sol\":2406:2440  userStakes[msg.sender].stakeNumber */\n      0x00\n      add\n      sload\n        /* \"contracts/StakePool.sol\":2378:2441  ierc20.transfer(msg.sender, userStakes[msg.sender].stakeNumber) */\n      mload(0x40)\n      dup4\n      0xffffffff\n      and\n      0xe0\n      shl\n      dup2\n      mstore\n      0x04\n      add\n      tag_60\n      swap3\n      swap2\n      swap1\n      tag_61\n      jump\t// in\n    tag_60:\n      0x20\n      mload(0x40)\n      dup1\n      dup4\n      sub\n      dup2\n      0x00\n      dup8\n      gas\n      call\n      iszero\n      dup1\n      iszero\n      tag_63\n      jumpi\n      returndatasize\n      0x00\n      dup1\n      returndatacopy\n      revert(0x00, returndatasize)\n    tag_63:\n      pop\n      pop\n      pop\n      pop\n      mload(0x40)\n      returndatasize\n      not(0x1f)\n      0x1f\n      dup3\n      add\n      and\n      dup3\n      add\n      dup1\n      0x40\n      mstore\n      pop\n      dup2\n      add\n      swap1\n      tag_64\n      swap2\n      swap1\n      tag_65\n      jump\t// in\n    tag_64:\n      pop\n        /* \"contracts/StakePool.sol\":2451:2457  ierc20 */\n      0x04\n      0x00\n      swap1\n      sload\n      swap1\n      0x0100\n      exp\n      swap1\n      div\n      0xffffffffffffffffffffffffffffffffffffffff\n      and\n        /* \"contracts/StakePool.sol\":2451:2466  ierc20.transfer */\n      0xffffffffffffffffffffffffffffffffffffffff\n      and\n      0xa9059cbb\n        /* \"contracts/StakePool.sol\":2467:2477  msg.sender */\n      caller\n        /* \"contracts/StakePool.sol\":2479:2485  insert */\n      dup4\n        /* \"contracts/StakePool.sol\":2451:2486  ierc20.transfer(msg.sender, insert) */\n      mload(0x40)\n      dup4\n      0xffffffff\n      and\n      0xe0\n      shl\n      dup2\n      mstore\n      0x04\n      add\n      tag_66\n      swap3\n      swap2\n      swap1\n      tag_61\n      jump\t// in\n    tag_66:\n      0x20\n      mload(0x40)\n      dup1\n      dup4\n      sub\n      dup2\n      0x00\n      dup8\n      gas\n      call\n      iszero\n      dup1\n      iszero\n      tag_68\n      jumpi\n      returndatasize\n      0x00\n      dup1\n      returndatacopy\n      revert(0x00, returndatasize)\n    tag_68:\n      pop\n      pop\n      pop\n      pop\n      mload(0x40)\n      returndatasize\n      not(0x1f)\n      0x1f\n      dup3\n      add\n      and\n      dup3\n      add\n      dup1\n      0x40\n      mstore\n      pop\n      dup2\n      add\n      swap1\n      tag_69\n      swap2\n      swap1\n      tag_65\n      jump\t// in\n    tag_69:\n      pop\n        /* \"contracts/StakePool.sol\":2509:2519  msg.sender */\n      caller\n        /* \"contracts/StakePool.sol\":2501:2556  UnStake(msg.sender, userStakes[msg.sender].stakeNumber) */\n      0xffffffffffffffffffffffffffffffffffffffff\n      and\n      0xb24546d975e2628748efc9aced80665e0fad66272033e5c0ea25fd3afac99795\n        /* \"contracts/StakePool.sol\":2521:2531  userStakes */\n      0x03\n        /* \"contracts/StakePool.sol\":2521:2543  userStakes[msg.sender] */\n      0x00\n        /* \"contracts/StakePool.sol\":2532:2542  msg.sender */\n      caller\n        /* \"contracts/StakePool.sol\":2521:2543  userStakes[msg.sender] */\n      0xffffffffffffffffffffffffffffffffffffffff\n      and\n      0xffffffffffffffffffffffffffffffffffffffff\n      and\n      dup2\n      mstore\n      0x20\n      add\n      swap1\n      dup2\n      mstore\n      0x20\n      add\n      0x00\n      keccak256\n        /* \"contracts/StakePool.sol\":2521:2555  userStakes[msg.sender].stakeNumber */\n      0x00\n      add\n      sload\n        /* \"contracts/StakePool.sol\":2501:2556  UnStake(msg.sender, userStakes[msg.sender].stakeNumber) */\n      mload(0x40)\n      tag_70\n      swap2\n      swap1\n      tag_17\n      jump\t// in\n    tag_70:\n      mload(0x40)\n      dup1\n      swap2\n      sub\n      swap1\n      log2\n        /* \"contracts/StakePool.sol\":2579:2589  msg.sender */\n      caller\n        /* \"contracts/StakePool.sol\":2571:2598  Receive(msg.sender, insert) */\n      0xffffffffffffffffffffffffffffffffffffffff\n      and\n      0xd6717f327e0cb88b4a97a7f67a453e9258252c34937ccbdd86de7cb840e7def3\n        /* \"contracts/StakePool.sol\":2591:2597  insert */\n      dup3\n        /* \"contracts/StakePool.sol\":2571:2598  Receive(msg.sender, insert) */\n      mload(0x40)\n      tag_71\n      swap2\n      swap1\n      tag_17\n      jump\t// in\n    tag_71:\n      mload(0x40)\n      dup1\n      swap2\n      sub\n      swap1\n      log2\n        /* \"contracts/StakePool.sol\":2650:2656  insert */\n      dup1\n        /* \"contracts/StakePool.sol\":2608:2618  userStakes */\n      0x03\n        /* \"contracts/StakePool.sol\":2608:2630  userStakes[msg.sender] */\n      0x00\n        /* \"contracts/StakePool.sol\":2619:2629  msg.sender */\n      caller\n        /* \"contracts/StakePool.sol\":2608:2630  userStakes[msg.sender] */\n      0xffffffffffffffffffffffffffffffffffffffff\n      and\n      0xffffffffffffffffffffffffffffffffffffffff\n      and\n      dup2\n      mstore\n      0x20\n      add\n      swap1\n      dup2\n      mstore\n      0x20\n      add\n      0x00\n      keccak256\n        /* \"contracts/StakePool.sol\":2608:2646  userStakes[msg.sender].claimedInterest */\n      0x02\n      add\n      0x00\n        /* \"contracts/StakePool.sol\":2608:2656  userStakes[msg.sender].claimedInterest += insert */\n      dup3\n      dup3\n      sload\n      tag_72\n      swap2\n      swap1\n      tag_73\n      jump\t// in\n    tag_72:\n      swap3\n      pop\n      pop\n      dup2\n      swap1\n      sstore\n      pop\n        /* \"contracts/StakePool.sol\":2705:2720  block.timestamp */\n      timestamp\n        /* \"contracts/StakePool.sol\":2666:2676  userStakes */\n      0x03\n        /* \"contracts/StakePool.sol\":2666:2688  userStakes[msg.sender] */\n      0x00\n        /* \"contracts/StakePool.sol\":2677:2687  msg.sender */\n      caller\n        /* \"contracts/StakePool.sol\":2666:2688  userStakes[msg.sender] */\n      0xffffffffffffffffffffffffffffffffffffffff\n      and\n      0xffffffffffffffffffffffffffffffffffffffff\n      and\n      dup2\n      mstore\n      0x20\n      add\n      swap1\n      dup2\n      mstore\n      0x20\n      add\n      0x00\n      keccak256\n        /* \"contracts/StakePool.sol\":2666:2702  userStakes[msg.sender].lastStakeTime */\n      0x03\n      add\n        /* \"contracts/StakePool.sol\":2666:2720  userStakes[msg.sender].lastStakeTime = block.timestamp */\n      dup2\n      swap1\n      sstore\n      pop\n        /* \"contracts/StakePool.sol\":2750:2760  userStakes */\n      0x03\n        /* \"contracts/StakePool.sol\":2750:2772  userStakes[msg.sender] */\n      0x00\n        /* \"contracts/StakePool.sol\":2761:2771  msg.sender */\n      caller\n        /* \"contracts/StakePool.sol\":2750:2772  userStakes[msg.sender] */\n      0xffffffffffffffffffffffffffffffffffffffff\n      and\n      0xffffffffffffffffffffffffffffffffffffffff\n      and\n      dup2\n      mstore\n      0x20\n      add\n      swap1\n      dup2\n      mstore\n      0x20\n      add\n      0x00\n      keccak256\n        /* \"contracts/StakePool.sol\":2750:2784  userStakes[msg.sender].stakeNumber */\n      0x00\n      add\n      sload\n        /* \"contracts/StakePool.sol\":2730:2746  totalStakeNumber */\n      0x00\n      dup1\n        /* \"contracts/StakePool.sol\":2730:2784  totalStakeNumber -= userStakes[msg.sender].stakeNumber */\n      dup3\n      dup3\n      sload\n      tag_74\n      swap2\n      swap1\n      tag_75\n      jump\t// in\n    tag_74:\n      swap3\n      pop\n      pop\n      dup2\n      swap1\n      sstore\n      pop\n        /* \"contracts/StakePool.sol\":2831:2832  0 */\n      0x00\n        /* \"contracts/StakePool.sol\":2794:2804  userStakes */\n      0x03\n        /* \"contracts/StakePool.sol\":2794:2816  userStakes[msg.sender] */\n      0x00\n        /* \"contracts/StakePool.sol\":2805:2815  msg.sender */\n      caller\n        /* \"contracts/StakePool.sol\":2794:2816  userStakes[msg.sender] */\n      0xffffffffffffffffffffffffffffffffffffffff\n      and\n      0xffffffffffffffffffffffffffffffffffffffff\n      and\n      dup2\n      mstore\n      0x20\n      add\n      swap1\n      dup2\n      mstore\n      0x20\n      add\n      0x00\n      keccak256\n        /* \"contracts/StakePool.sol\":2794:2828  userStakes[msg.sender].stakeNumber */\n      0x00\n      add\n        /* \"contracts/StakePool.sol\":2794:2832  userStakes[msg.sender].stakeNumber = 0 */\n      dup2\n      swap1\n      sstore\n      pop\n        /* \"contracts/StakePool.sol\":2883:2884  0 */\n      0x00\n        /* \"contracts/StakePool.sol\":2842:2852  userStakes */\n      0x03\n        /* \"contracts/StakePool.sol\":2842:2864  userStakes[msg.sender] */\n      0x00\n        /* \"contracts/StakePool.sol\":2853:2863  msg.sender */\n      caller\n        /* \"contracts/StakePool.sol\":2842:2864  userStakes[msg.sender] */\n      0xffffffffffffffffffffffffffffffffffffffff\n      and\n      0xffffffffffffffffffffffffffffffffffffffff\n      and\n      dup2\n      mstore\n      0x20\n      add\n      swap1\n      dup2\n      mstore\n      0x20\n      add\n      0x00\n      keccak256\n        /* \"contracts/StakePool.sol\":2842:2880  userStakes[msg.sender].currentInterest */\n      0x01\n      add\n        /* \"contracts/StakePool.sol\":2842:2884  userStakes[msg.sender].currentInterest = 0 */\n      dup2\n      swap1\n      sstore\n      pop\n        /* \"contracts/StakePool.sol\":2289:2891  {... */\n      pop\n        /* \"contracts/StakePool.sol\":2253:2891  function unStake() external payable {... */\n      jump\t// out\n        /* \"contracts/StakePool.sol\":2897:3244  function received() external payable {... */\n    tag_26:\n        /* \"contracts/StakePool.sol\":2944:2958  uint256 insert */\n      0x00\n        /* \"contracts/StakePool.sol\":2961:2976  getUserInsert() */\n      tag_77\n        /* \"contracts/StakePool.sol\":2961:2974  getUserInsert */\n      tag_59\n        /* \"contracts/StakePool.sol\":2961:2976  getUserInsert() */\n      jump\t// in\n    tag_77:\n        /* \"contracts/StakePool.sol\":2944:2976  uint256 insert = getUserInsert() */\n      swap1\n      pop\n        /* \"contracts/StakePool.sol\":2986:2992  ierc20 */\n      0x04\n      0x00\n      swap1\n      sload\n      swap1\n      0x0100\n      exp\n      swap1\n      div\n      0xffffffffffffffffffffffffffffffffffffffff\n      and\n        /* \"contracts/StakePool.sol\":2986:3001  ierc20.transfer */\n      0xffffffffffffffffffffffffffffffffffffffff\n      and\n      0xa9059cbb\n        /* \"contracts/StakePool.sol\":3002:3012  msg.sender */\n      caller\n        /* \"contracts/StakePool.sol\":3014:3020  insert */\n      dup4\n        /* \"contracts/StakePool.sol\":2986:3021  ierc20.transfer(msg.sender, insert) */\n      mload(0x40)\n      dup4\n      0xffffffff\n      and\n      0xe0\n      shl\n      dup2\n      mstore\n      0x04\n      add\n      tag_78\n      swap3\n      swap2\n      swap1\n      tag_61\n      jump\t// in\n    tag_78:\n      0x20\n      mload(0x40)\n      dup1\n      dup4\n      sub\n      dup2\n      0x00\n      dup8\n      gas\n      call\n      iszero\n      dup1\n      iszero\n      tag_80\n      jumpi\n      returndatasize\n      0x00\n      dup1\n      returndatacopy\n      revert(0x00, returndatasize)\n    tag_80:\n      pop\n      pop\n      pop\n      pop\n      mload(0x40)\n      returndatasize\n      not(0x1f)\n      0x1f\n      dup3\n      add\n      and\n      dup3\n      add\n      dup1\n      0x40\n      mstore\n      pop\n      dup2\n      add\n      swap1\n      tag_81\n      swap2\n      swap1\n      tag_65\n      jump\t// in\n    tag_81:\n      pop\n        /* \"contracts/StakePool.sol\":3044:3054  msg.sender */\n      caller\n        /* \"contracts/StakePool.sol\":3036:3063  Receive(msg.sender, insert) */\n      0xffffffffffffffffffffffffffffffffffffffff\n      and\n      0xd6717f327e0cb88b4a97a7f67a453e9258252c34937ccbdd86de7cb840e7def3\n        /* \"contracts/StakePool.sol\":3056:3062  insert */\n      dup3\n        /* \"contracts/StakePool.sol\":3036:3063  Receive(msg.sender, insert) */\n      mload(0x40)\n      tag_82\n      swap2\n      swap1\n      tag_17\n      jump\t// in\n    tag_82:\n      mload(0x40)\n      dup1\n      swap2\n      sub\n      swap1\n      log2\n        /* \"contracts/StakePool.sol\":3115:3121  insert */\n      dup1\n        /* \"contracts/StakePool.sol\":3073:3083  userStakes */\n      0x03\n        /* \"contracts/StakePool.sol\":3073:3095  userStakes[msg.sender] */\n      0x00\n        /* \"contracts/StakePool.sol\":3084:3094  msg.sender */\n      caller\n        /* \"contracts/StakePool.sol\":3073:3095  userStakes[msg.sender] */\n      0xffffffffffffffffffffffffffffffffffffffff\n      and\n      0xffffffffffffffffffffffffffffffffffffffff\n      and\n      dup2\n      mstore\n      0x20\n      add\n      swap1\n      dup2\n      mstore\n      0x20\n      add\n      0x00\n      keccak256\n        /* \"contracts/StakePool.sol\":3073:3111  userStakes[msg.sender].claimedInterest */\n      0x02\n      add\n      0x00\n        /* \"contracts/StakePool.sol\":3073:3121  userStakes[msg.sender].claimedInterest += insert */\n      dup3\n      dup3\n      sload\n      tag_83\n      swap2\n      swap1\n      tag_73\n      jump\t// in\n    tag_83:\n      swap3\n      pop\n      pop\n      dup2\n      swap1\n      sstore\n      pop\n        /* \"contracts/StakePool.sol\":3170:3185  block.timestamp */\n      timestamp\n        /* \"contracts/StakePool.sol\":3131:3141  userStakes */\n      0x03\n        /* \"contracts/StakePool.sol\":3131:3153  userStakes[msg.sender] */\n      0x00\n        /* \"contracts/StakePool.sol\":3142:3152  msg.sender */\n      caller\n        /* \"contracts/StakePool.sol\":3131:3153  userStakes[msg.sender] */\n      0xffffffffffffffffffffffffffffffffffffffff\n      and\n      0xffffffffffffffffffffffffffffffffffffffff\n      and\n      dup2\n      mstore\n      0x20\n      add\n      swap1\n      dup2\n      mstore\n      0x20\n      add\n      0x00\n      keccak256\n        /* \"contracts/StakePool.sol\":3131:3167  userStakes[msg.sender].lastStakeTime */\n      0x03\n      add\n        /* \"contracts/StakePool.sol\":3131:3185  userStakes[msg.sender].lastStakeTime = block.timestamp */\n      dup2\n      swap1\n      sstore\n      pop\n        /* \"contracts/StakePool.sol\":3236:3237  0 */\n      0x00\n        /* \"contracts/StakePool.sol\":3195:3205  userStakes */\n      0x03\n        /* \"contracts/StakePool.sol\":3195:3217  userStakes[msg.sender] */\n      0x00\n        /* \"contracts/StakePool.sol\":3206:3216  msg.sender */\n      caller\n        /* \"contracts/StakePool.sol\":3195:3217  userStakes[msg.sender] */\n      0xffffffffffffffffffffffffffffffffffffffff\n      and\n      0xffffffffffffffffffffffffffffffffffffffff\n      and\n      dup2\n      mstore\n      0x20\n      add\n      swap1\n      dup2\n      mstore\n      0x20\n      add\n      0x00\n      keccak256\n        /* \"contracts/StakePool.sol\":3195:3233  userStakes[msg.sender].currentInterest */\n      0x01\n      add\n        /* \"contracts/StakePool.sol\":3195:3237  userStakes[msg.sender].currentInterest = 0 */\n      dup2\n      swap1\n      sstore\n      pop\n        /* \"contracts/StakePool.sol\":2934:3244  {... */\n      pop\n        /* \"contracts/StakePool.sol\":2897:3244  function received() external payable {... */\n      jump\t// out\n        /* \"contracts/StakePool.sol\":1670:1795  function setRatio(uint8 _ratio) external onlyOwner {    ... */\n    tag_31:\n        /* \"contracts/StakePool.sol\":1626:1631  owner */\n      0x02\n      0x00\n      swap1\n      sload\n      swap1\n      0x0100\n      exp\n      swap1\n      div\n      0xffffffffffffffffffffffffffffffffffffffff\n      and\n        /* \"contracts/StakePool.sol\":1612:1631  msg.sender == owner */\n      0xffffffffffffffffffffffffffffffffffffffff\n      and\n        /* \"contracts/StakePool.sol\":1612:1622  msg.sender */\n      caller\n        /* \"contracts/StakePool.sol\":1612:1631  msg.sender == owner */\n      0xffffffffffffffffffffffffffffffffffffffff\n      and\n      eq\n        /* \"contracts/StakePool.sol\":1604:1646  require(msg.sender == owner , \"not owner\") */\n      tag_85\n      jumpi\n      mload(0x40)\n      0x08c379a000000000000000000000000000000000000000000000000000000000\n      dup2\n      mstore\n      0x04\n      add\n      tag_86\n      swap1\n      tag_87\n      jump\t// in\n    tag_86:\n      mload(0x40)\n      dup1\n      swap2\n      sub\n      swap1\n      revert\n    tag_85:\n        /* \"contracts/StakePool.sol\":1743:1749  _ratio */\n      dup1\n        /* \"contracts/StakePool.sol\":1735:1740  ratio */\n      0x02\n      0x14\n        /* \"contracts/StakePool.sol\":1735:1749  ratio = _ratio */\n      0x0100\n      exp\n      dup2\n      sload\n      dup2\n      0xff\n      mul\n      not\n      and\n      swap1\n      dup4\n      0xff\n      and\n      mul\n      or\n      swap1\n      sstore\n      pop\n        /* \"contracts/StakePool.sol\":1769:1788  UpdateRatio(_ratio) */\n      0x86fdfa566b117b03b2ef4d50c64fe89efd432852397764c120c6796cfdd820f8\n        /* \"contracts/StakePool.sol\":1781:1787  _ratio */\n      dup2\n        /* \"contracts/StakePool.sol\":1769:1788  UpdateRatio(_ratio) */\n      mload(0x40)\n      tag_89\n      swap2\n      swap1\n      tag_22\n      jump\t// in\n    tag_89:\n      mload(0x40)\n      dup1\n      swap2\n      sub\n      swap1\n      log1\n        /* \"contracts/StakePool.sol\":1670:1795  function setRatio(uint8 _ratio) external onlyOwner {    ... */\n      pop\n      jump\t// out\n        /* \"contracts/StakePool.sol\":1248:1268  address public owner */\n    tag_34:\n      0x02\n      0x00\n      swap1\n      sload\n      swap1\n      0x0100\n      exp\n      swap1\n      div\n      0xffffffffffffffffffffffffffffffffffffffff\n      and\n      dup2\n      jump\t// out\n        /* \"contracts/StakePool.sol\":1324:1366  mapping(address => User) public userStakes */\n    tag_41:\n      mstore(0x20, 0x03)\n      dup1\n      0x00\n      mstore\n      keccak256(0x00, 0x40)\n      0x00\n      swap2\n      pop\n      swap1\n      pop\n      dup1\n      0x00\n      add\n      sload\n      swap1\n      dup1\n      0x01\n      add\n      sload\n      swap1\n      dup1\n      0x02\n      add\n      sload\n      swap1\n      dup1\n      0x03\n      add\n      sload\n      swap1\n      pop\n      dup5\n      jump\t// out\n        /* \"contracts/StakePool.sol\":1192:1219  address public tokenAddress */\n    tag_46:\n      0x01\n      0x00\n      swap1\n      sload\n      swap1\n      0x0100\n      exp\n      swap1\n      div\n      0xffffffffffffffffffffffffffffffffffffffff\n      and\n      dup2\n      jump\t// out\n        /* \"contracts/StakePool.sol\":1805:2247  function stake(uint256 _stakeNumber) external payable {... */\n    tag_51:\n        /* \"contracts/StakePool.sol\":1869:1875  ierc20 */\n      0x04\n      0x00\n      swap1\n      sload\n      swap1\n      0x0100\n      exp\n      swap1\n      div\n      0xffffffffffffffffffffffffffffffffffffffff\n      and\n        /* \"contracts/StakePool.sol\":1869:1888  ierc20.transferFrom */\n      0xffffffffffffffffffffffffffffffffffffffff\n      and\n      0x23b872dd\n        /* \"contracts/StakePool.sol\":1889:1899  msg.sender */\n      caller\n        /* \"contracts/StakePool.sol\":1909:1913  this */\n      address\n        /* \"contracts/StakePool.sol\":1916:1928  _stakeNumber */\n      dup5\n        /* \"contracts/StakePool.sol\":1869:1929  ierc20.transferFrom(msg.sender, address(this), _stakeNumber) */\n      mload(0x40)\n      dup5\n      0xffffffff\n      and\n      0xe0\n      shl\n      dup2\n      mstore\n      0x04\n      add\n      tag_91\n      swap4\n      swap3\n      swap2\n      swap1\n      tag_92\n      jump\t// in\n    tag_91:\n      0x20\n      mload(0x40)\n      dup1\n      dup4\n      sub\n      dup2\n      0x00\n      dup8\n      gas\n      call\n      iszero\n      dup1\n      iszero\n      tag_94\n      jumpi\n      returndatasize\n      0x00\n      dup1\n      returndatacopy\n      revert(0x00, returndatasize)\n    tag_94:\n      pop\n      pop\n      pop\n      pop\n      mload(0x40)\n      returndatasize\n      not(0x1f)\n      0x1f\n      dup3\n      add\n      and\n      dup3\n      add\n      dup1\n      0x40\n      mstore\n      pop\n      dup2\n      add\n      swap1\n      tag_95\n      swap2\n      swap1\n      tag_65\n      jump\t// in\n    tag_95:\n      pop\n        /* \"contracts/StakePool.sol\":2013:2028  getUserInsert() */\n      tag_96\n        /* \"contracts/StakePool.sol\":2013:2026  getUserInsert */\n      tag_59\n        /* \"contracts/StakePool.sol\":2013:2028  getUserInsert() */\n      jump\t// in\n    tag_96:\n        /* \"contracts/StakePool.sol\":1972:1982  userStakes */\n      0x03\n        /* \"contracts/StakePool.sol\":1972:1994  userStakes[msg.sender] */\n      0x00\n        /* \"contracts/StakePool.sol\":1983:1993  msg.sender */\n      caller\n        /* \"contracts/StakePool.sol\":1972:1994  userStakes[msg.sender] */\n      0xffffffffffffffffffffffffffffffffffffffff\n      and\n      0xffffffffffffffffffffffffffffffffffffffff\n      and\n      dup2\n      mstore\n      0x20\n      add\n      swap1\n      dup2\n      mstore\n      0x20\n      add\n      0x00\n      keccak256\n        /* \"contracts/StakePool.sol\":1972:2010  userStakes[msg.sender].currentInterest */\n      0x01\n      add\n        /* \"contracts/StakePool.sol\":1972:2028  userStakes[msg.sender].currentInterest = getUserInsert() */\n      dup2\n      swap1\n      sstore\n      pop\n        /* \"contracts/StakePool.sol\":2076:2088  _stakeNumber */\n      dup1\n        /* \"contracts/StakePool.sol\":2038:2048  userStakes */\n      0x03\n        /* \"contracts/StakePool.sol\":2038:2060  userStakes[msg.sender] */\n      0x00\n        /* \"contracts/StakePool.sol\":2049:2059  msg.sender */\n      caller\n        /* \"contracts/StakePool.sol\":2038:2060  userStakes[msg.sender] */\n      0xffffffffffffffffffffffffffffffffffffffff\n      and\n      0xffffffffffffffffffffffffffffffffffffffff\n      and\n      dup2\n      mstore\n      0x20\n      add\n      swap1\n      dup2\n      mstore\n      0x20\n      add\n      0x00\n      keccak256\n        /* \"contracts/StakePool.sol\":2038:2072  userStakes[msg.sender].stakeNumber */\n      0x00\n      add\n      0x00\n        /* \"contracts/StakePool.sol\":2038:2088  userStakes[msg.sender].stakeNumber += _stakeNumber */\n      dup3\n      dup3\n      sload\n      tag_97\n      swap2\n      swap1\n      tag_73\n      jump\t// in\n    tag_97:\n      swap3\n      pop\n      pop\n      dup2\n      swap1\n      sstore\n      pop\n        /* \"contracts/StakePool.sol\":2137:2152  block.timestamp */\n      timestamp\n        /* \"contracts/StakePool.sol\":2098:2108  userStakes */\n      0x03\n        /* \"contracts/StakePool.sol\":2098:2120  userStakes[msg.sender] */\n      0x00\n        /* \"contracts/StakePool.sol\":2109:2119  msg.sender */\n      caller\n        /* \"contracts/StakePool.sol\":2098:2120  userStakes[msg.sender] */\n      0xffffffffffffffffffffffffffffffffffffffff\n      and\n      0xffffffffffffffffffffffffffffffffffffffff\n      and\n      dup2\n      mstore\n      0x20\n      add\n      swap1\n      dup2\n      mstore\n      0x20\n      add\n      0x00\n      keccak256\n        /* \"contracts/StakePool.sol\":2098:2134  userStakes[msg.sender].lastStakeTime */\n      0x03\n      add\n        /* \"contracts/StakePool.sol\":2098:2152  userStakes[msg.sender].lastStakeTime = block.timestamp */\n      dup2\n      swap1\n      sstore\n      pop\n        /* \"contracts/StakePool.sol\":2182:2194  _stakeNumber */\n      dup1\n        /* \"contracts/StakePool.sol\":2162:2178  totalStakeNumber */\n      0x00\n      dup1\n        /* \"contracts/StakePool.sol\":2162:2194  totalStakeNumber += _stakeNumber */\n      dup3\n      dup3\n      sload\n      tag_98\n      swap2\n      swap1\n      tag_73\n      jump\t// in\n    tag_98:\n      swap3\n      pop\n      pop\n      dup2\n      swap1\n      sstore\n      pop\n        /* \"contracts/StakePool.sol\":2215:2225  msg.sender */\n      caller\n        /* \"contracts/StakePool.sol\":2209:2240  Stake(msg.sender, _stakeNumber) */\n      0xffffffffffffffffffffffffffffffffffffffff\n      and\n      0xebedb8b3c678666e7f36970bc8f57abf6d8fa2e828c0da91ea5b75bf68ed101a\n        /* \"contracts/StakePool.sol\":2227:2239  _stakeNumber */\n      dup3\n        /* \"contracts/StakePool.sol\":2209:2240  Stake(msg.sender, _stakeNumber) */\n      mload(0x40)\n      tag_99\n      swap2\n      swap1\n      tag_17\n      jump\t// in\n    tag_99:\n      mload(0x40)\n      dup1\n      swap2\n      sub\n      swap1\n      log2\n        /* \"contracts/StakePool.sol\":1805:2247  function stake(uint256 _stakeNumber) external payable {... */\n      pop\n      jump\t// out\n        /* \"contracts/StakePool.sol\":1372:1392  IERC20 public ierc20 */\n    tag_54:\n      0x04\n      0x00\n      swap1\n      sload\n      swap1\n      0x0100\n      exp\n      swap1\n      div\n      0xffffffffffffffffffffffffffffffffffffffff\n      and\n      dup2\n      jump\t// out\n        /* \"contracts/StakePool.sol\":3251:3518  function getUserInsert() private view returns (uint256 interest) {... */\n    tag_59:\n        /* \"contracts/StakePool.sol\":3298:3314  uint256 interest */\n      0x00\n        /* \"contracts/StakePool.sol\":3502:3510  31536000 */\n      0x01e13380\n        /* \"contracts/StakePool.sol\":3496:3499  100 */\n      0x64\n        /* \"contracts/StakePool.sol\":3488:3493  ratio */\n      0x02\n      0x14\n      swap1\n      sload\n      swap1\n      0x0100\n      exp\n      swap1\n      div\n      0xff\n      and\n        /* \"contracts/StakePool.sol\":3451:3493  userStakes[msg.sender].stakeNumber * ratio */\n      0xff\n      and\n        /* \"contracts/StakePool.sol\":3451:3461  userStakes */\n      0x03\n        /* \"contracts/StakePool.sol\":3451:3473  userStakes[msg.sender] */\n      0x00\n        /* \"contracts/StakePool.sol\":3462:3472  msg.sender */\n      caller\n        /* \"contracts/StakePool.sol\":3451:3473  userStakes[msg.sender] */\n      0xffffffffffffffffffffffffffffffffffffffff\n      and\n      0xffffffffffffffffffffffffffffffffffffffff\n      and\n      dup2\n      mstore\n      0x20\n      add\n      swap1\n      dup2\n      mstore\n      0x20\n      add\n      0x00\n      keccak256\n        /* \"contracts/StakePool.sol\":3451:3485  userStakes[msg.sender].stakeNumber */\n      0x00\n      add\n      sload\n        /* \"contracts/StakePool.sol\":3451:3493  userStakes[msg.sender].stakeNumber * ratio */\n      tag_101\n      swap2\n      swap1\n      tag_102\n      jump\t// in\n    tag_101:\n        /* \"contracts/StakePool.sol\":3451:3499  userStakes[msg.sender].stakeNumber * ratio / 100 */\n      tag_103\n      swap2\n      swap1\n      tag_104\n      jump\t// in\n    tag_103:\n        /* \"contracts/StakePool.sol\":3451:3510  userStakes[msg.sender].stakeNumber * ratio / 100 / 31536000 */\n      tag_105\n      swap2\n      swap1\n      tag_104\n      jump\t// in\n    tag_105:\n        /* \"contracts/StakePool.sol\":3410:3420  userStakes */\n      0x03\n        /* \"contracts/StakePool.sol\":3410:3432  userStakes[msg.sender] */\n      0x00\n        /* \"contracts/StakePool.sol\":3421:3431  msg.sender */\n      caller\n        /* \"contracts/StakePool.sol\":3410:3432  userStakes[msg.sender] */\n      0xffffffffffffffffffffffffffffffffffffffff\n      and\n      0xffffffffffffffffffffffffffffffffffffffff\n      and\n      dup2\n      mstore\n      0x20\n      add\n      swap1\n      dup2\n      mstore\n      0x20\n      add\n      0x00\n      keccak256\n        /* \"contracts/StakePool.sol\":3410:3446  userStakes[msg.sender].lastStakeTime */\n      0x03\n      add\n      sload\n        /* \"contracts/StakePool.sol\":3392:3407  block.timestamp */\n      timestamp\n        /* \"contracts/StakePool.sol\":3392:3446  block.timestamp - userStakes[msg.sender].lastStakeTime */\n      tag_106\n      swap2\n      swap1\n      tag_75\n      jump\t// in\n    tag_106:\n        /* \"contracts/StakePool.sol\":3391:3511  (block.timestamp - userStakes[msg.sender].lastStakeTime) * (userStakes[msg.sender].stakeNumber * ratio / 100 / 31536000) */\n      tag_107\n      swap2\n      swap1\n      tag_102\n      jump\t// in\n    tag_107:\n        /* \"contracts/StakePool.sol\":3337:3347  userStakes */\n      0x03\n        /* \"contracts/StakePool.sol\":3337:3359  userStakes[msg.sender] */\n      0x00\n        /* \"contracts/StakePool.sol\":3348:3358  msg.sender */\n      caller\n        /* \"contracts/StakePool.sol\":3337:3359  userStakes[msg.sender] */\n      0xffffffffffffffffffffffffffffffffffffffff\n      and\n      0xffffffffffffffffffffffffffffffffffffffff\n      and\n      dup2\n      mstore\n      0x20\n      add\n      swap1\n      dup2\n      mstore\n      0x20\n      add\n      0x00\n      keccak256\n        /* \"contracts/StakePool.sol\":3337:3375  userStakes[msg.sender].currentInterest */\n      0x01\n      add\n      sload\n        /* \"contracts/StakePool.sol\":3337:3511  userStakes[msg.sender].currentInterest + ... */\n      tag_108\n      swap2\n      swap1\n      tag_73\n      jump\t// in\n    tag_108:\n        /* \"contracts/StakePool.sol\":3326:3511  interest = userStakes[msg.sender].currentInterest + ... */\n      swap1\n      pop\n        /* \"contracts/StakePool.sol\":3251:3518  function getUserInsert() private view returns (uint256 interest) {... */\n      swap1\n      jump\t// out\n        /* \"#utility.yul\":7:84   */\n    tag_109:\n        /* \"#utility.yul\":44:51   */\n      0x00\n        /* \"#utility.yul\":73:78   */\n      dup2\n        /* \"#utility.yul\":62:78   */\n      swap1\n      pop\n        /* \"#utility.yul\":7:84   */\n      swap2\n      swap1\n      pop\n      jump\t// out\n        /* \"#utility.yul\":90:208   */\n    tag_110:\n        /* \"#utility.yul\":177:201   */\n      tag_141\n        /* \"#utility.yul\":195:200   */\n      dup2\n        /* \"#utility.yul\":177:201   */\n      tag_109\n      jump\t// in\n    tag_141:\n        /* \"#utility.yul\":172:175   */\n      dup3\n        /* \"#utility.yul\":165:202   */\n      mstore\n        /* \"#utility.yul\":90:208   */\n      pop\n      pop\n      jump\t// out\n        /* \"#utility.yul\":214:436   */\n    tag_17:\n        /* \"#utility.yul\":307:311   */\n      0x00\n        /* \"#utility.yul\":345:347   */\n      0x20\n        /* \"#utility.yul\":334:343   */\n      dup3\n        /* \"#utility.yul\":330:348   */\n      add\n        /* \"#utility.yul\":322:348   */\n      swap1\n      pop\n        /* \"#utility.yul\":358:429   */\n      tag_143\n        /* \"#utility.yul\":426:427   */\n      0x00\n        /* \"#utility.yul\":415:424   */\n      dup4\n        /* \"#utility.yul\":411:428   */\n      add\n        /* \"#utility.yul\":402:408   */\n      dup5\n        /* \"#utility.yul\":358:429   */\n      tag_110\n      jump\t// in\n    tag_143:\n        /* \"#utility.yul\":214:436   */\n      swap3\n      swap2\n      pop\n      pop\n      jump\t// out\n        /* \"#utility.yul\":442:528   */\n    tag_111:\n        /* \"#utility.yul\":477:484   */\n      0x00\n        /* \"#utility.yul\":517:521   */\n      0xff\n        /* \"#utility.yul\":510:515   */\n      dup3\n        /* \"#utility.yul\":506:522   */\n      and\n        /* \"#utility.yul\":495:522   */\n      swap1\n      pop\n        /* \"#utility.yul\":442:528   */\n      swap2\n      swap1\n      pop\n      jump\t// out\n        /* \"#utility.yul\":534:646   */\n    tag_112:\n        /* \"#utility.yul\":617:639   */\n      tag_146\n        /* \"#utility.yul\":633:638   */\n      dup2\n        /* \"#utility.yul\":617:639   */\n      tag_111\n      jump\t// in\n    tag_146:\n        /* \"#utility.yul\":612:615   */\n      dup3\n        /* \"#utility.yul\":605:640   */\n      mstore\n        /* \"#utility.yul\":534:646   */\n      pop\n      pop\n      jump\t// out\n        /* \"#utility.yul\":652:866   */\n    tag_22:\n        /* \"#utility.yul\":741:745   */\n      0x00\n        /* \"#utility.yul\":779:781   */\n      0x20\n        /* \"#utility.yul\":768:777   */\n      dup3\n        /* \"#utility.yul\":764:782   */\n      add\n        /* \"#utility.yul\":756:782   */\n      swap1\n      pop\n        /* \"#utility.yul\":792:859   */\n      tag_148\n        /* \"#utility.yul\":856:857   */\n      0x00\n        /* \"#utility.yul\":845:854   */\n      dup4\n        /* \"#utility.yul\":841:858   */\n      add\n        /* \"#utility.yul\":832:838   */\n      dup5\n        /* \"#utility.yul\":792:859   */\n      tag_112\n      jump\t// in\n    tag_148:\n        /* \"#utility.yul\":652:866   */\n      swap3\n      swap2\n      pop\n      pop\n      jump\t// out\n        /* \"#utility.yul\":953:1070   */\n    tag_114:\n        /* \"#utility.yul\":1062:1063   */\n      0x00\n        /* \"#utility.yul\":1059:1060   */\n      dup1\n        /* \"#utility.yul\":1052:1064   */\n      revert\n        /* \"#utility.yul\":1199:1317   */\n    tag_116:\n        /* \"#utility.yul\":1270:1292   */\n      tag_153\n        /* \"#utility.yul\":1286:1291   */\n      dup2\n        /* \"#utility.yul\":1270:1292   */\n      tag_111\n      jump\t// in\n    tag_153:\n        /* \"#utility.yul\":1263:1268   */\n      dup2\n        /* \"#utility.yul\":1260:1293   */\n      eq\n        /* \"#utility.yul\":1250:1311   */\n      tag_154\n      jumpi\n        /* \"#utility.yul\":1307:1308   */\n      0x00\n        /* \"#utility.yul\":1304:1305   */\n      dup1\n        /* \"#utility.yul\":1297:1309   */\n      revert\n        /* \"#utility.yul\":1250:1311   */\n    tag_154:\n        /* \"#utility.yul\":1199:1317   */\n      pop\n      jump\t// out\n        /* \"#utility.yul\":1323:1458   */\n    tag_117:\n        /* \"#utility.yul\":1367:1372   */\n      0x00\n        /* \"#utility.yul\":1405:1411   */\n      dup2\n        /* \"#utility.yul\":1392:1412   */\n      calldataload\n        /* \"#utility.yul\":1383:1412   */\n      swap1\n      pop\n        /* \"#utility.yul\":1421:1452   */\n      tag_156\n        /* \"#utility.yul\":1446:1451   */\n      dup2\n        /* \"#utility.yul\":1421:1452   */\n      tag_116\n      jump\t// in\n    tag_156:\n        /* \"#utility.yul\":1323:1458   */\n      swap3\n      swap2\n      pop\n      pop\n      jump\t// out\n        /* \"#utility.yul\":1464:1789   */\n    tag_30:\n        /* \"#utility.yul\":1521:1527   */\n      0x00\n        /* \"#utility.yul\":1570:1572   */\n      0x20\n        /* \"#utility.yul\":1558:1567   */\n      dup3\n        /* \"#utility.yul\":1549:1556   */\n      dup5\n        /* \"#utility.yul\":1545:1568   */\n      sub\n        /* \"#utility.yul\":1541:1573   */\n      slt\n        /* \"#utility.yul\":1538:1657   */\n      iszero\n      tag_158\n      jumpi\n        /* \"#utility.yul\":1576:1655   */\n      tag_159\n      tag_114\n      jump\t// in\n    tag_159:\n        /* \"#utility.yul\":1538:1657   */\n    tag_158:\n        /* \"#utility.yul\":1696:1697   */\n      0x00\n        /* \"#utility.yul\":1721:1772   */\n      tag_160\n        /* \"#utility.yul\":1764:1771   */\n      dup5\n        /* \"#utility.yul\":1755:1761   */\n      dup3\n        /* \"#utility.yul\":1744:1753   */\n      dup6\n        /* \"#utility.yul\":1740:1762   */\n      add\n        /* \"#utility.yul\":1721:1772   */\n      tag_117\n      jump\t// in\n    tag_160:\n        /* \"#utility.yul\":1711:1772   */\n      swap2\n      pop\n        /* \"#utility.yul\":1667:1782   */\n      pop\n        /* \"#utility.yul\":1464:1789   */\n      swap3\n      swap2\n      pop\n      pop\n      jump\t// out\n        /* \"#utility.yul\":1795:1921   */\n    tag_118:\n        /* \"#utility.yul\":1832:1839   */\n      0x00\n        /* \"#utility.yul\":1872:1914   */\n      0xffffffffffffffffffffffffffffffffffffffff\n        /* \"#utility.yul\":1865:1870   */\n      dup3\n        /* \"#utility.yul\":1861:1915   */\n      and\n        /* \"#utility.yul\":1850:1915   */\n      swap1\n      pop\n        /* \"#utility.yul\":1795:1921   */\n      swap2\n      swap1\n      pop\n      jump\t// out\n        /* \"#utility.yul\":1927:2023   */\n    tag_119:\n        /* \"#utility.yul\":1964:1971   */\n      0x00\n        /* \"#utility.yul\":1993:2017   */\n      tag_163\n        /* \"#utility.yul\":2011:2016   */\n      dup3\n        /* \"#utility.yul\":1993:2017   */\n      tag_118\n      jump\t// in\n    tag_163:\n        /* \"#utility.yul\":1982:2017   */\n      swap1\n      pop\n        /* \"#utility.yul\":1927:2023   */\n      swap2\n      swap1\n      pop\n      jump\t// out\n        /* \"#utility.yul\":2029:2147   */\n    tag_120:\n        /* \"#utility.yul\":2116:2140   */\n      tag_165\n        /* \"#utility.yul\":2134:2139   */\n      dup2\n        /* \"#utility.yul\":2116:2140   */\n      tag_119\n      jump\t// in\n    tag_165:\n        /* \"#utility.yul\":2111:2114   */\n      dup3\n        /* \"#utility.yul\":2104:2141   */\n      mstore\n        /* \"#utility.yul\":2029:2147   */\n      pop\n      pop\n      jump\t// out\n        /* \"#utility.yul\":2153:2375   */\n    tag_36:\n        /* \"#utility.yul\":2246:2250   */\n      0x00\n        /* \"#utility.yul\":2284:2286   */\n      0x20\n        /* \"#utility.yul\":2273:2282   */\n      dup3\n        /* \"#utility.yul\":2269:2287   */\n      add\n        /* \"#utility.yul\":2261:2287   */\n      swap1\n      pop\n        /* \"#utility.yul\":2297:2368   */\n      tag_167\n        /* \"#utility.yul\":2365:2366   */\n      0x00\n        /* \"#utility.yul\":2354:2363   */\n      dup4\n        /* \"#utility.yul\":2350:2367   */\n      add\n        /* \"#utility.yul\":2341:2347   */\n      dup5\n        /* \"#utility.yul\":2297:2368   */\n      tag_120\n      jump\t// in\n    tag_167:\n        /* \"#utility.yul\":2153:2375   */\n      swap3\n      swap2\n      pop\n      pop\n      jump\t// out\n        /* \"#utility.yul\":2381:2503   */\n    tag_121:\n        /* \"#utility.yul\":2454:2478   */\n      tag_169\n        /* \"#utility.yul\":2472:2477   */\n      dup2\n        /* \"#utility.yul\":2454:2478   */\n      tag_119\n      jump\t// in\n    tag_169:\n        /* \"#utility.yul\":2447:2452   */\n      dup2\n        /* \"#utility.yul\":2444:2479   */\n      eq\n        /* \"#utility.yul\":2434:2497   */\n      tag_170\n      jumpi\n        /* \"#utility.yul\":2493:2494   */\n      0x00\n        /* \"#utility.yul\":2490:2491   */\n      dup1\n        /* \"#utility.yul\":2483:2495   */\n      revert\n        /* \"#utility.yul\":2434:2497   */\n    tag_170:\n        /* \"#utility.yul\":2381:2503   */\n      pop\n      jump\t// out\n        /* \"#utility.yul\":2509:2648   */\n    tag_122:\n        /* \"#utility.yul\":2555:2560   */\n      0x00\n        /* \"#utility.yul\":2593:2599   */\n      dup2\n        /* \"#utility.yul\":2580:2600   */\n      calldataload\n        /* \"#utility.yul\":2571:2600   */\n      swap1\n      pop\n        /* \"#utility.yul\":2609:2642   */\n      tag_172\n        /* \"#utility.yul\":2636:2641   */\n      dup2\n        /* \"#utility.yul\":2609:2642   */\n      tag_121\n      jump\t// in\n    tag_172:\n        /* \"#utility.yul\":2509:2648   */\n      swap3\n      swap2\n      pop\n      pop\n      jump\t// out\n        /* \"#utility.yul\":2654:2983   */\n    tag_40:\n        /* \"#utility.yul\":2713:2719   */\n      0x00\n        /* \"#utility.yul\":2762:2764   */\n      0x20\n        /* \"#utility.yul\":2750:2759   */\n      dup3\n        /* \"#utility.yul\":2741:2748   */\n      dup5\n        /* \"#utility.yul\":2737:2760   */\n      sub\n        /* \"#utility.yul\":2733:2765   */\n      slt\n        /* \"#utility.yul\":2730:2849   */\n      iszero\n      tag_174\n      jumpi\n        /* \"#utility.yul\":2768:2847   */\n      tag_175\n      tag_114\n      jump\t// in\n    tag_175:\n        /* \"#utility.yul\":2730:2849   */\n    tag_174:\n        /* \"#utility.yul\":2888:2889   */\n      0x00\n        /* \"#utility.yul\":2913:2966   */\n      tag_176\n        /* \"#utility.yul\":2958:2965   */\n      dup5\n        /* \"#utility.yul\":2949:2955   */\n      dup3\n        /* \"#utility.yul\":2938:2947   */\n      dup6\n        /* \"#utility.yul\":2934:2956   */\n      add\n        /* \"#utility.yul\":2913:2966   */\n      tag_122\n      jump\t// in\n    tag_176:\n        /* \"#utility.yul\":2903:2966   */\n      swap2\n      pop\n        /* \"#utility.yul\":2859:2976   */\n      pop\n        /* \"#utility.yul\":2654:2983   */\n      swap3\n      swap2\n      pop\n      pop\n      jump\t// out\n        /* \"#utility.yul\":2989:3542   */\n    tag_43:\n        /* \"#utility.yul\":3166:3170   */\n      0x00\n        /* \"#utility.yul\":3204:3207   */\n      0x80\n        /* \"#utility.yul\":3193:3202   */\n      dup3\n        /* \"#utility.yul\":3189:3208   */\n      add\n        /* \"#utility.yul\":3181:3208   */\n      swap1\n      pop\n        /* \"#utility.yul\":3218:3289   */\n      tag_178\n        /* \"#utility.yul\":3286:3287   */\n      0x00\n        /* \"#utility.yul\":3275:3284   */\n      dup4\n        /* \"#utility.yul\":3271:3288   */\n      add\n        /* \"#utility.yul\":3262:3268   */\n      dup8\n        /* \"#utility.yul\":3218:3289   */\n      tag_110\n      jump\t// in\n    tag_178:\n        /* \"#utility.yul\":3299:3371   */\n      tag_179\n        /* \"#utility.yul\":3367:3369   */\n      0x20\n        /* \"#utility.yul\":3356:3365   */\n      dup4\n        /* \"#utility.yul\":3352:3370   */\n      add\n        /* \"#utility.yul\":3343:3349   */\n      dup7\n        /* \"#utility.yul\":3299:3371   */\n      tag_110\n      jump\t// in\n    tag_179:\n        /* \"#utility.yul\":3381:3453   */\n      tag_180\n        /* \"#utility.yul\":3449:3451   */\n      0x40\n        /* \"#utility.yul\":3438:3447   */\n      dup4\n        /* \"#utility.yul\":3434:3452   */\n      add\n        /* \"#utility.yul\":3425:3431   */\n      dup6\n        /* \"#utility.yul\":3381:3453   */\n      tag_110\n      jump\t// in\n    tag_180:\n        /* \"#utility.yul\":3463:3535   */\n      tag_181\n        /* \"#utility.yul\":3531:3533   */\n      0x60\n        /* \"#utility.yul\":3520:3529   */\n      dup4\n        /* \"#utility.yul\":3516:3534   */\n      add\n        /* \"#utility.yul\":3507:3513   */\n      dup5\n        /* \"#utility.yul\":3463:3535   */\n      tag_110\n      jump\t// in\n    tag_181:\n        /* \"#utility.yul\":2989:3542   */\n      swap6\n      swap5\n      pop\n      pop\n      pop\n      pop\n      pop\n      jump\t// out\n        /* \"#utility.yul\":3548:3670   */\n    tag_123:\n        /* \"#utility.yul\":3621:3645   */\n      tag_183\n        /* \"#utility.yul\":3639:3644   */\n      dup2\n        /* \"#utility.yul\":3621:3645   */\n      tag_109\n      jump\t// in\n    tag_183:\n        /* \"#utility.yul\":3614:3619   */\n      dup2\n        /* \"#utility.yul\":3611:3646   */\n      eq\n        /* \"#utility.yul\":3601:3664   */\n      tag_184\n      jumpi\n        /* \"#utility.yul\":3660:3661   */\n      0x00\n        /* \"#utility.yul\":3657:3658   */\n      dup1\n        /* \"#utility.yul\":3650:3662   */\n      revert\n        /* \"#utility.yul\":3601:3664   */\n    tag_184:\n        /* \"#utility.yul\":3548:3670   */\n      pop\n      jump\t// out\n        /* \"#utility.yul\":3676:3815   */\n    tag_124:\n        /* \"#utility.yul\":3722:3727   */\n      0x00\n        /* \"#utility.yul\":3760:3766   */\n      dup2\n        /* \"#utility.yul\":3747:3767   */\n      calldataload\n        /* \"#utility.yul\":3738:3767   */\n      swap1\n      pop\n        /* \"#utility.yul\":3776:3809   */\n      tag_186\n        /* \"#utility.yul\":3803:3808   */\n      dup2\n        /* \"#utility.yul\":3776:3809   */\n      tag_123\n      jump\t// in\n    tag_186:\n        /* \"#utility.yul\":3676:3815   */\n      swap3\n      swap2\n      pop\n      pop\n      jump\t// out\n        /* \"#utility.yul\":3821:4150   */\n    tag_50:\n        /* \"#utility.yul\":3880:3886   */\n      0x00\n        /* \"#utility.yul\":3929:3931   */\n      0x20\n        /* \"#utility.yul\":3917:3926   */\n      dup3\n        /* \"#utility.yul\":3908:3915   */\n      dup5\n        /* \"#utility.yul\":3904:3927   */\n      sub\n        /* \"#utility.yul\":3900:3932   */\n      slt\n        /* \"#utility.yul\":3897:4016   */\n      iszero\n      tag_188\n      jumpi\n        /* \"#utility.yul\":3935:4014   */\n      tag_189\n      tag_114\n      jump\t// in\n    tag_189:\n        /* \"#utility.yul\":3897:4016   */\n    tag_188:\n        /* \"#utility.yul\":4055:4056   */\n      0x00\n        /* \"#utility.yul\":4080:4133   */\n      tag_190\n        /* \"#utility.yul\":4125:4132   */\n      dup5\n        /* \"#utility.yul\":4116:4122   */\n      dup3\n        /* \"#utility.yul\":4105:4114   */\n      dup6\n        /* \"#utility.yul\":4101:4123   */\n      add\n        /* \"#utility.yul\":4080:4133   */\n      tag_124\n      jump\t// in\n    tag_190:\n        /* \"#utility.yul\":4070:4133   */\n      swap2\n      pop\n        /* \"#utility.yul\":4026:4143   */\n      pop\n        /* \"#utility.yul\":3821:4150   */\n      swap3\n      swap2\n      pop\n      pop\n      jump\t// out\n        /* \"#utility.yul\":4156:4216   */\n    tag_125:\n        /* \"#utility.yul\":4184:4187   */\n      0x00\n        /* \"#utility.yul\":4205:4210   */\n      dup2\n        /* \"#utility.yul\":4198:4210   */\n      swap1\n      pop\n        /* \"#utility.yul\":4156:4216   */\n      swap2\n      swap1\n      pop\n      jump\t// out\n        /* \"#utility.yul\":4222:4364   */\n    tag_126:\n        /* \"#utility.yul\":4272:4281   */\n      0x00\n        /* \"#utility.yul\":4305:4358   */\n      tag_193\n        /* \"#utility.yul\":4323:4357   */\n      tag_194\n        /* \"#utility.yul\":4332:4356   */\n      tag_195\n        /* \"#utility.yul\":4350:4355   */\n      dup5\n        /* \"#utility.yul\":4332:4356   */\n      tag_118\n      jump\t// in\n    tag_195:\n        /* \"#utility.yul\":4323:4357   */\n      tag_125\n      jump\t// in\n    tag_194:\n        /* \"#utility.yul\":4305:4358   */\n      tag_118\n      jump\t// in\n    tag_193:\n        /* \"#utility.yul\":4292:4358   */\n      swap1\n      pop\n        /* \"#utility.yul\":4222:4364   */\n      swap2\n      swap1\n      pop\n      jump\t// out\n        /* \"#utility.yul\":4370:4496   */\n    tag_127:\n        /* \"#utility.yul\":4420:4429   */\n      0x00\n        /* \"#utility.yul\":4453:4490   */\n      tag_197\n        /* \"#utility.yul\":4484:4489   */\n      dup3\n        /* \"#utility.yul\":4453:4490   */\n      tag_126\n      jump\t// in\n    tag_197:\n        /* \"#utility.yul\":4440:4490   */\n      swap1\n      pop\n        /* \"#utility.yul\":4370:4496   */\n      swap2\n      swap1\n      pop\n      jump\t// out\n        /* \"#utility.yul\":4502:4641   */\n    tag_128:\n        /* \"#utility.yul\":4565:4574   */\n      0x00\n        /* \"#utility.yul\":4598:4635   */\n      tag_199\n        /* \"#utility.yul\":4629:4634   */\n      dup3\n        /* \"#utility.yul\":4598:4635   */\n      tag_127\n      jump\t// in\n    tag_199:\n        /* \"#utility.yul\":4585:4635   */\n      swap1\n      pop\n        /* \"#utility.yul\":4502:4641   */\n      swap2\n      swap1\n      pop\n      jump\t// out\n        /* \"#utility.yul\":4647:4804   */\n    tag_129:\n        /* \"#utility.yul\":4747:4797   */\n      tag_201\n        /* \"#utility.yul\":4791:4796   */\n      dup2\n        /* \"#utility.yul\":4747:4797   */\n      tag_128\n      jump\t// in\n    tag_201:\n        /* \"#utility.yul\":4742:4745   */\n      dup3\n        /* \"#utility.yul\":4735:4798   */\n      mstore\n        /* \"#utility.yul\":4647:4804   */\n      pop\n      pop\n      jump\t// out\n        /* \"#utility.yul\":4810:5058   */\n    tag_56:\n        /* \"#utility.yul\":4916:4920   */\n      0x00\n        /* \"#utility.yul\":4954:4956   */\n      0x20\n        /* \"#utility.yul\":4943:4952   */\n      dup3\n        /* \"#utility.yul\":4939:4957   */\n      add\n        /* \"#utility.yul\":4931:4957   */\n      swap1\n      pop\n        /* \"#utility.yul\":4967:5051   */\n      tag_203\n        /* \"#utility.yul\":5048:5049   */\n      0x00\n        /* \"#utility.yul\":5037:5046   */\n      dup4\n        /* \"#utility.yul\":5033:5050   */\n      add\n        /* \"#utility.yul\":5024:5030   */\n      dup5\n        /* \"#utility.yul\":4967:5051   */\n      tag_129\n      jump\t// in\n    tag_203:\n        /* \"#utility.yul\":4810:5058   */\n      swap3\n      swap2\n      pop\n      pop\n      jump\t// out\n        /* \"#utility.yul\":5064:5396   */\n    tag_61:\n        /* \"#utility.yul\":5185:5189   */\n      0x00\n        /* \"#utility.yul\":5223:5225   */\n      0x40\n        /* \"#utility.yul\":5212:5221   */\n      dup3\n        /* \"#utility.yul\":5208:5226   */\n      add\n        /* \"#utility.yul\":5200:5226   */\n      swap1\n      pop\n        /* \"#utility.yul\":5236:5307   */\n      tag_205\n        /* \"#utility.yul\":5304:5305   */\n      0x00\n        /* \"#utility.yul\":5293:5302   */\n      dup4\n        /* \"#utility.yul\":5289:5306   */\n      add\n        /* \"#utility.yul\":5280:5286   */\n      dup6\n        /* \"#utility.yul\":5236:5307   */\n      tag_120\n      jump\t// in\n    tag_205:\n        /* \"#utility.yul\":5317:5389   */\n      tag_206\n        /* \"#utility.yul\":5385:5387   */\n      0x20\n        /* \"#utility.yul\":5374:5383   */\n      dup4\n        /* \"#utility.yul\":5370:5388   */\n      add\n        /* \"#utility.yul\":5361:5367   */\n      dup5\n        /* \"#utility.yul\":5317:5389   */\n      tag_110\n      jump\t// in\n    tag_206:\n        /* \"#utility.yul\":5064:5396   */\n      swap4\n      swap3\n      pop\n      pop\n      pop\n      jump\t// out\n        /* \"#utility.yul\":5402:5492   */\n    tag_130:\n        /* \"#utility.yul\":5436:5443   */\n      0x00\n        /* \"#utility.yul\":5479:5484   */\n      dup2\n        /* \"#utility.yul\":5472:5485   */\n      iszero\n        /* \"#utility.yul\":5465:5486   */\n      iszero\n        /* \"#utility.yul\":5454:5486   */\n      swap1\n      pop\n        /* \"#utility.yul\":5402:5492   */\n      swap2\n      swap1\n      pop\n      jump\t// out\n        /* \"#utility.yul\":5498:5614   */\n    tag_131:\n        /* \"#utility.yul\":5568:5589   */\n      tag_209\n        /* \"#utility.yul\":5583:5588   */\n      dup2\n        /* \"#utility.yul\":5568:5589   */\n      tag_130\n      jump\t// in\n    tag_209:\n        /* \"#utility.yul\":5561:5566   */\n      dup2\n        /* \"#utility.yul\":5558:5590   */\n      eq\n        /* \"#utility.yul\":5548:5608   */\n      tag_210\n      jumpi\n        /* \"#utility.yul\":5604:5605   */\n      0x00\n        /* \"#utility.yul\":5601:5602   */\n      dup1\n        /* \"#utility.yul\":5594:5606   */\n      revert\n        /* \"#utility.yul\":5548:5608   */\n    tag_210:\n        /* \"#utility.yul\":5498:5614   */\n      pop\n      jump\t// out\n        /* \"#utility.yul\":5620:5757   */\n    tag_132:\n        /* \"#utility.yul\":5674:5679   */\n      0x00\n        /* \"#utility.yul\":5705:5711   */\n      dup2\n        /* \"#utility.yul\":5699:5712   */\n      mload\n        /* \"#utility.yul\":5690:5712   */\n      swap1\n      pop\n        /* \"#utility.yul\":5721:5751   */\n      tag_212\n        /* \"#utility.yul\":5745:5750   */\n      dup2\n        /* \"#utility.yul\":5721:5751   */\n      tag_131\n      jump\t// in\n    tag_212:\n        /* \"#utility.yul\":5620:5757   */\n      swap3\n      swap2\n      pop\n      pop\n      jump\t// out\n        /* \"#utility.yul\":5763:6108   */\n    tag_65:\n        /* \"#utility.yul\":5830:5836   */\n      0x00\n        /* \"#utility.yul\":5879:5881   */\n      0x20\n        /* \"#utility.yul\":5867:5876   */\n      dup3\n        /* \"#utility.yul\":5858:5865   */\n      dup5\n        /* \"#utility.yul\":5854:5877   */\n      sub\n        /* \"#utility.yul\":5850:5882   */\n      slt\n        /* \"#utility.yul\":5847:5966   */\n      iszero\n      tag_214\n      jumpi\n        /* \"#utility.yul\":5885:5964   */\n      tag_215\n      tag_114\n      jump\t// in\n    tag_215:\n        /* \"#utility.yul\":5847:5966   */\n    tag_214:\n        /* \"#utility.yul\":6005:6006   */\n      0x00\n        /* \"#utility.yul\":6030:6091   */\n      tag_216\n        /* \"#utility.yul\":6083:6090   */\n      dup5\n        /* \"#utility.yul\":6074:6080   */\n      dup3\n        /* \"#utility.yul\":6063:6072   */\n      dup6\n        /* \"#utility.yul\":6059:6081   */\n      add\n        /* \"#utility.yul\":6030:6091   */\n      tag_132\n      jump\t// in\n    tag_216:\n        /* \"#utility.yul\":6020:6091   */\n      swap2\n      pop\n        /* \"#utility.yul\":5976:6101   */\n      pop\n        /* \"#utility.yul\":5763:6108   */\n      swap3\n      swap2\n      pop\n      pop\n      jump\t// out\n        /* \"#utility.yul\":6114:6294   */\n    tag_133:\n        /* \"#utility.yul\":6162:6239   */\n      0x4e487b7100000000000000000000000000000000000000000000000000000000\n        /* \"#utility.yul\":6159:6160   */\n      0x00\n        /* \"#utility.yul\":6152:6240   */\n      mstore\n        /* \"#utility.yul\":6259:6263   */\n      0x11\n        /* \"#utility.yul\":6256:6257   */\n      0x04\n        /* \"#utility.yul\":6249:6264   */\n      mstore\n        /* \"#utility.yul\":6283:6287   */\n      0x24\n        /* \"#utility.yul\":6280:6281   */\n      0x00\n        /* \"#utility.yul\":6273:6288   */\n      revert\n        /* \"#utility.yul\":6300:6605   */\n    tag_73:\n        /* \"#utility.yul\":6340:6343   */\n      0x00\n        /* \"#utility.yul\":6359:6379   */\n      tag_219\n        /* \"#utility.yul\":6377:6378   */\n      dup3\n        /* \"#utility.yul\":6359:6379   */\n      tag_109\n      jump\t// in\n    tag_219:\n        /* \"#utility.yul\":6354:6379   */\n      swap2\n      pop\n        /* \"#utility.yul\":6393:6413   */\n      tag_220\n        /* \"#utility.yul\":6411:6412   */\n      dup4\n        /* \"#utility.yul\":6393:6413   */\n      tag_109\n      jump\t// in\n    tag_220:\n        /* \"#utility.yul\":6388:6413   */\n      swap3\n      pop\n        /* \"#utility.yul\":6547:6548   */\n      dup3\n        /* \"#utility.yul\":6479:6545   */\n      0xffffffffffffffffffffffffffffffffffffffffffffffffffffffffffffffff\n        /* \"#utility.yul\":6475:6549   */\n      sub\n        /* \"#utility.yul\":6472:6473   */\n      dup3\n        /* \"#utility.yul\":6469:6550   */\n      gt\n        /* \"#utility.yul\":6466:6573   */\n      iszero\n      tag_221\n      jumpi\n        /* \"#utility.yul\":6553:6571   */\n      tag_222\n      tag_133\n      jump\t// in\n    tag_222:\n        /* \"#utility.yul\":6466:6573   */\n    tag_221:\n        /* \"#utility.yul\":6597:6598   */\n      dup3\n        /* \"#utility.yul\":6594:6595   */\n      dup3\n        /* \"#utility.yul\":6590:6599   */\n      add\n        /* \"#utility.yul\":6583:6599   */\n      swap1\n      pop\n        /* \"#utility.yul\":6300:6605   */\n      swap3\n      swap2\n      pop\n      pop\n      jump\t// out\n        /* \"#utility.yul\":6611:6802   */\n    tag_75:\n        /* \"#utility.yul\":6651:6655   */\n      0x00\n        /* \"#utility.yul\":6671:6691   */\n      tag_224\n        /* \"#utility.yul\":6689:6690   */\n      dup3\n        /* \"#utility.yul\":6671:6691   */\n      tag_109\n      jump\t// in\n    tag_224:\n        /* \"#utility.yul\":6666:6691   */\n      swap2\n      pop\n        /* \"#utility.yul\":6705:6725   */\n      tag_225\n        /* \"#utility.yul\":6723:6724   */\n      dup4\n        /* \"#utility.yul\":6705:6725   */\n      tag_109\n      jump\t// in\n    tag_225:\n        /* \"#utility.yul\":6700:6725   */\n      swap3\n      pop\n        /* \"#utility.yul\":6744:6745   */\n      dup3\n        /* \"#utility.yul\":6741:6742   */\n      dup3\n        /* \"#utility.yul\":6738:6746   */\n      lt\n        /* \"#utility.yul\":6735:6769   */\n      iszero\n      tag_226\n      jumpi\n        /* \"#utility.yul\":6749:6767   */\n      tag_227\n      tag_133\n      jump\t// in\n    tag_227:\n        /* \"#utility.yul\":6735:6769   */\n    tag_226:\n        /* \"#utility.yul\":6794:6795   */\n      dup3\n        /* \"#utility.yul\":6791:6792   */\n      dup3\n        /* \"#utility.yul\":6787:6796   */\n      sub\n        /* \"#utility.yul\":6779:6796   */\n      swap1\n      pop\n        /* \"#utility.yul\":6611:6802   */\n      swap3\n      swap2\n      pop\n      pop\n      jump\t// out\n        /* \"#utility.yul\":6808:6977   */\n    tag_134:\n        /* \"#utility.yul\":6892:6903   */\n      0x00\n        /* \"#utility.yul\":6926:6932   */\n      dup3\n        /* \"#utility.yul\":6921:6924   */\n      dup3\n        /* \"#utility.yul\":6914:6933   */\n      mstore\n        /* \"#utility.yul\":6966:6970   */\n      0x20\n        /* \"#utility.yul\":6961:6964   */\n      dup3\n        /* \"#utility.yul\":6957:6971   */\n      add\n        /* \"#utility.yul\":6942:6971   */\n      swap1\n      pop\n        /* \"#utility.yul\":6808:6977   */\n      swap3\n      swap2\n      pop\n      pop\n      jump\t// out\n        /* \"#utility.yul\":6983:7142   */\n    tag_135:\n        /* \"#utility.yul\":7123:7134   */\n      0x6e6f74206f776e65720000000000000000000000000000000000000000000000\n        /* \"#utility.yul\":7119:7120   */\n      0x00\n        /* \"#utility.yul\":7111:7117   */\n      dup3\n        /* \"#utility.yul\":7107:7121   */\n      add\n        /* \"#utility.yul\":7100:7135   */\n      mstore\n        /* \"#utility.yul\":6983:7142   */\n      pop\n      jump\t// out\n        /* \"#utility.yul\":7148:7513   */\n    tag_136:\n        /* \"#utility.yul\":7290:7293   */\n      0x00\n        /* \"#utility.yul\":7311:7377   */\n      tag_231\n        /* \"#utility.yul\":7375:7376   */\n      0x09\n        /* \"#utility.yul\":7370:7373   */\n      dup4\n        /* \"#utility.yul\":7311:7377   */\n      tag_134\n      jump\t// in\n    tag_231:\n        /* \"#utility.yul\":7304:7377   */\n      swap2\n      pop\n        /* \"#utility.yul\":7386:7479   */\n      tag_232\n        /* \"#utility.yul\":7475:7478   */\n      dup3\n        /* \"#utility.yul\":7386:7479   */\n      tag_135\n      jump\t// in\n    tag_232:\n        /* \"#utility.yul\":7504:7506   */\n      0x20\n        /* \"#utility.yul\":7499:7502   */\n      dup3\n        /* \"#utility.yul\":7495:7507   */\n      add\n        /* \"#utility.yul\":7488:7507   */\n      swap1\n      pop\n        /* \"#utility.yul\":7148:7513   */\n      swap2\n      swap1\n      pop\n      jump\t// out\n        /* \"#utility.yul\":7519:7938   */\n    tag_87:\n        /* \"#utility.yul\":7685:7689   */\n      0x00\n        /* \"#utility.yul\":7723:7725   */\n      0x20\n        /* \"#utility.yul\":7712:7721   */\n      dup3\n        /* \"#utility.yul\":7708:7726   */\n      add\n        /* \"#utility.yul\":7700:7726   */\n      swap1\n      pop\n        /* \"#utility.yul\":7772:7781   */\n      dup2\n        /* \"#utility.yul\":7766:7770   */\n      dup2\n        /* \"#utility.yul\":7762:7782   */\n      sub\n        /* \"#utility.yul\":7758:7759   */\n      0x00\n        /* \"#utility.yul\":7747:7756   */\n      dup4\n        /* \"#utility.yul\":7743:7760   */\n      add\n        /* \"#utility.yul\":7736:7783   */\n      mstore\n        /* \"#utility.yul\":7800:7931   */\n      tag_234\n        /* \"#utility.yul\":7926:7930   */\n      dup2\n        /* \"#utility.yul\":7800:7931   */\n      tag_136\n      jump\t// in\n    tag_234:\n        /* \"#utility.yul\":7792:7931   */\n      swap1\n      pop\n        /* \"#utility.yul\":7519:7938   */\n      swap2\n      swap1\n      pop\n      jump\t// out\n        /* \"#utility.yul\":7944:8386   */\n    tag_92:\n        /* \"#utility.yul\":8093:8097   */\n      0x00\n        /* \"#utility.yul\":8131:8133   */\n      0x60\n        /* \"#utility.yul\":8120:8129   */\n      dup3\n        /* \"#utility.yul\":8116:8134   */\n      add\n        /* \"#utility.yul\":8108:8134   */\n      swap1\n      pop\n        /* \"#utility.yul\":8144:8215   */\n      tag_236\n        /* \"#utility.yul\":8212:8213   */\n      0x00\n        /* \"#utility.yul\":8201:8210   */\n      dup4\n        /* \"#utility.yul\":8197:8214   */\n      add\n        /* \"#utility.yul\":8188:8194   */\n      dup7\n        /* \"#utility.yul\":8144:8215   */\n      tag_120\n      jump\t// in\n    tag_236:\n        /* \"#utility.yul\":8225:8297   */\n      tag_237\n        /* \"#utility.yul\":8293:8295   */\n      0x20\n        /* \"#utility.yul\":8282:8291   */\n      dup4\n        /* \"#utility.yul\":8278:8296   */\n      add\n        /* \"#utility.yul\":8269:8275   */\n      dup6\n        /* \"#utility.yul\":8225:8297   */\n      tag_120\n      jump\t// in\n    tag_237:\n        /* \"#utility.yul\":8307:8379   */\n      tag_238\n        /* \"#utility.yul\":8375:8377   */\n      0x40\n        /* \"#utility.yul\":8364:8373   */\n      dup4\n        /* \"#utility.yul\":8360:8378   */\n      add\n        /* \"#utility.yul\":8351:8357   */\n      dup5\n        /* \"#utility.yul\":8307:8379   */\n      tag_110\n      jump\t// in\n    tag_238:\n        /* \"#utility.yul\":7944:8386   */\n      swap5\n      swap4\n      pop\n      pop\n      pop\n      pop\n      jump\t// out\n        /* \"#utility.yul\":8392:8740   */\n    tag_102:\n        /* \"#utility.yul\":8432:8439   */\n      0x00\n        /* \"#utility.yul\":8455:8475   */\n      tag_240\n        /* \"#utility.yul\":8473:8474   */\n      dup3\n        /* \"#utility.yul\":8455:8475   */\n      tag_109\n      jump\t// in\n    tag_240:\n        /* \"#utility.yul\":8450:8475   */\n      swap2\n      pop\n        /* \"#utility.yul\":8489:8509   */\n      tag_241\n        /* \"#utility.yul\":8507:8508   */\n      dup4\n        /* \"#utility.yul\":8489:8509   */\n      tag_109\n      jump\t// in\n    tag_241:\n        /* \"#utility.yul\":8484:8509   */\n      swap3\n      pop\n        /* \"#utility.yul\":8677:8678   */\n      dup2\n        /* \"#utility.yul\":8609:8675   */\n      0xffffffffffffffffffffffffffffffffffffffffffffffffffffffffffffffff\n        /* \"#utility.yul\":8605:8679   */\n      div\n        /* \"#utility.yul\":8602:8603   */\n      dup4\n        /* \"#utility.yul\":8599:8680   */\n      gt\n        /* \"#utility.yul\":8594:8595   */\n      dup3\n        /* \"#utility.yul\":8587:8596   */\n      iszero\n        /* \"#utility.yul\":8580:8597   */\n      iszero\n        /* \"#utility.yul\":8576:8681   */\n      and\n        /* \"#utility.yul\":8573:8704   */\n      iszero\n      tag_242\n      jumpi\n        /* \"#utility.yul\":8684:8702   */\n      tag_243\n      tag_133\n      jump\t// in\n    tag_243:\n        /* \"#utility.yul\":8573:8704   */\n    tag_242:\n        /* \"#utility.yul\":8732:8733   */\n      dup3\n        /* \"#utility.yul\":8729:8730   */\n      dup3\n        /* \"#utility.yul\":8725:8734   */\n      mul\n        /* \"#utility.yul\":8714:8734   */\n      swap1\n      pop\n        /* \"#utility.yul\":8392:8740   */\n      swap3\n      swap2\n      pop\n      pop\n      jump\t// out\n        /* \"#utility.yul\":8746:8926   */\n    tag_137:\n        /* \"#utility.yul\":8794:8871   */\n      0x4e487b7100000000000000000000000000000000000000000000000000000000\n        /* \"#utility.yul\":8791:8792   */\n      0x00\n        /* \"#utility.yul\":8784:8872   */\n      mstore\n        /* \"#utility.yul\":8891:8895   */\n      0x12\n        /* \"#utility.yul\":8888:8889   */\n      0x04\n        /* \"#utility.yul\":8881:8896   */\n      mstore\n        /* \"#utility.yul\":8915:8919   */\n      0x24\n        /* \"#utility.yul\":8912:8913   */\n      0x00\n        /* \"#utility.yul\":8905:8920   */\n      revert\n        /* \"#utility.yul\":8932:9117   */\n    tag_104:\n        /* \"#utility.yul\":8972:8973   */\n      0x00\n        /* \"#utility.yul\":8989:9009   */\n      tag_246\n        /* \"#utility.yul\":9007:9008   */\n      dup3\n        /* \"#utility.yul\":8989:9009   */\n      tag_109\n      jump\t// in\n    tag_246:\n        /* \"#utility.yul\":8984:9009   */\n      swap2\n      pop\n        /* \"#utility.yul\":9023:9043   */\n      tag_247\n        /* \"#utility.yul\":9041:9042   */\n      dup4\n        /* \"#utility.yul\":9023:9043   */\n      tag_109\n      jump\t// in\n    tag_247:\n        /* \"#utility.yul\":9018:9043   */\n      swap3\n      pop\n        /* \"#utility.yul\":9062:9063   */\n      dup3\n        /* \"#utility.yul\":9052:9087   */\n      tag_248\n      jumpi\n        /* \"#utility.yul\":9067:9085   */\n      tag_249\n      tag_137\n      jump\t// in\n    tag_249:\n        /* \"#utility.yul\":9052:9087   */\n    tag_248:\n        /* \"#utility.yul\":9109:9110   */\n      dup3\n        /* \"#utility.yul\":9106:9107   */\n      dup3\n        /* \"#utility.yul\":9102:9111   */\n      div\n        /* \"#utility.yul\":9097:9111   */\n      swap1\n      pop\n        /* \"#utility.yul\":8932:9117   */\n      swap3\n      swap2\n      pop\n      pop\n      jump\t// out\n\n    auxdata: 0xa264697066735822122050e815940dbc0ad742ec457191edde7775187e9dca474725fd74ba613e8502b764736f6c634300080f0033\n}\n",
				"bytecode": {
					"linkReferences": {},
					"object": "608060405260016000553480156200001657600080fd5b50604051620013f7380380620013f783398181016040528101906200003c91906200018c565b80600160006101000a81548173ffffffffffffffffffffffffffffffffffffffff021916908373ffffffffffffffffffffffffffffffffffffffff16021790555080600460006101000a81548173ffffffffffffffffffffffffffffffffffffffff021916908373ffffffffffffffffffffffffffffffffffffffff1602179055506032600260146101000a81548160ff021916908360ff16021790555033600260006101000a81548173ffffffffffffffffffffffffffffffffffffffff021916908373ffffffffffffffffffffffffffffffffffffffff16021790555050620001be565b600080fd5b600073ffffffffffffffffffffffffffffffffffffffff82169050919050565b6000620001548262000127565b9050919050565b620001668162000147565b81146200017257600080fd5b50565b60008151905062000186816200015b565b92915050565b600060208284031215620001a557620001a462000122565b5b6000620001b58482850162000175565b91505092915050565b61122980620001ce6000396000f3fe6080604052600436106100915760003560e01c80638da5cb5b116100595780638da5cb5b146101295780638da7ad23146101545780639d76ea5814610194578063a694fc3a146101bf578063bf0ae63d146101db57610091565b806353b645e51461009657806371ca337d146100c157806373cf575a146100ec57806383a6deb5146100f65780638d994beb14610100575b600080fd5b3480156100a257600080fd5b506100ab610206565b6040516100b89190610cc1565b60405180910390f35b3480156100cd57600080fd5b506100d661020c565b6040516100e39190610cf8565b60405180910390f35b6100f461021f565b005b6100fe61061a565b005b34801561010c57600080fd5b5061012760048036038101906101229190610d44565b610800565b005b34801561013557600080fd5b5061013e6108e5565b60405161014b9190610db2565b60405180910390f35b34801561016057600080fd5b5061017b60048036038101906101769190610df9565b61090b565b60405161018b9493929190610e26565b60405180910390f35b3480156101a057600080fd5b506101a961093b565b6040516101b69190610db2565b60405180910390f35b6101d960048036038101906101d49190610e97565b610961565b005b3480156101e757600080fd5b506101f0610b5b565b6040516101fd9190610f23565b60405180910390f35b60005481565b600260149054906101000a900460ff1681565b6000610229610b81565b9050600460009054906101000a900473ffffffffffffffffffffffffffffffffffffffff1673ffffffffffffffffffffffffffffffffffffffff1663a9059cbb33600360003373ffffffffffffffffffffffffffffffffffffffff1673ffffffffffffffffffffffffffffffffffffffff168152602001908152602001600020600001546040518363ffffffff1660e01b81526004016102ca929190610f3e565b6020604051808303816000875af11580156102e9573d6000803e3d6000fd5b505050506040513d601f19601f8201168201806040525081019061030d9190610f9f565b50600460009054906101000a900473ffffffffffffffffffffffffffffffffffffffff1673ffffffffffffffffffffffffffffffffffffffff1663a9059cbb33836040518363ffffffff1660e01b815260040161036b929190610f3e565b6020604051808303816000875af115801561038a573d6000803e3d6000fd5b505050506040513d601f19601f820116820180604052508101906103ae9190610f9f565b503373ffffffffffffffffffffffffffffffffffffffff167fb24546d975e2628748efc9aced80665e0fad66272033e5c0ea25fd3afac99795600360003373ffffffffffffffffffffffffffffffffffffffff1673ffffffffffffffffffffffffffffffffffffffff168152602001908152602001600020600001546040516104379190610cc1565b60405180910390a23373ffffffffffffffffffffffffffffffffffffffff167fd6717f327e0cb88b4a97a7f67a453e9258252c34937ccbdd86de7cb840e7def3826040516104859190610cc1565b60405180910390a280600360003373ffffffffffffffffffffffffffffffffffffffff1673ffffffffffffffffffffffffffffffffffffffff16815260200190815260200160002060020160008282546104df9190610ffb565b9250508190555042600360003373ffffffffffffffffffffffffffffffffffffffff1673ffffffffffffffffffffffffffffffffffffffff16815260200190815260200160002060030181905550600360003373ffffffffffffffffffffffffffffffffffffffff1673ffffffffffffffffffffffffffffffffffffffff168152602001908152602001600020600001546000808282546105809190611051565b925050819055506000600360003373ffffffffffffffffffffffffffffffffffffffff1673ffffffffffffffffffffffffffffffffffffffff168152602001908152602001600020600001819055506000600360003373ffffffffffffffffffffffffffffffffffffffff1673ffffffffffffffffffffffffffffffffffffffff1681526020019081526020016000206001018190555050565b6000610624610b81565b9050600460009054906101000a900473ffffffffffffffffffffffffffffffffffffffff1673ffffffffffffffffffffffffffffffffffffffff1663a9059cbb33836040518363ffffffff1660e01b8152600401610683929190610f3e565b6020604051808303816000875af11580156106a2573d6000803e3d6000fd5b505050506040513d601f19601f820116820180604052508101906106c69190610f9f565b503373ffffffffffffffffffffffffffffffffffffffff167fd6717f327e0cb88b4a97a7f67a453e9258252c34937ccbdd86de7cb840e7def38260405161070d9190610cc1565b60405180910390a280600360003373ffffffffffffffffffffffffffffffffffffffff1673ffffffffffffffffffffffffffffffffffffffff16815260200190815260200160002060020160008282546107679190610ffb565b9250508190555042600360003373ffffffffffffffffffffffffffffffffffffffff1673ffffffffffffffffffffffffffffffffffffffff168152602001908152602001600020600301819055506000600360003373ffffffffffffffffffffffffffffffffffffffff1673ffffffffffffffffffffffffffffffffffffffff1681526020019081526020016000206001018190555050565b600260009054906101000a900473ffffffffffffffffffffffffffffffffffffffff1673ffffffffffffffffffffffffffffffffffffffff163373ffffffffffffffffffffffffffffffffffffffff1614610890576040517f08c379a0000000000000000000000000000000000000000000000000000000008152600401610887906110e2565b60405180910390fd5b80600260146101000a81548160ff021916908360ff1602179055507f86fdfa566b117b03b2ef4d50c64fe89efd432852397764c120c6796cfdd820f8816040516108da9190610cf8565b60405180910390a150565b600260009054906101000a900473ffffffffffffffffffffffffffffffffffffffff1681565b60036020528060005260406000206000915090508060000154908060010154908060020154908060030154905084565b600160009054906101000a900473ffffffffffffffffffffffffffffffffffffffff1681565b600460009054906101000a900473ffffffffffffffffffffffffffffffffffffffff1673ffffffffffffffffffffffffffffffffffffffff166323b872dd3330846040518463ffffffff1660e01b81526004016109c093929190611102565b6020604051808303816000875af11580156109df573d6000803e3d6000fd5b505050506040513d601f19601f82011682018060405250810190610a039190610f9f565b50610a0c610b81565b600360003373ffffffffffffffffffffffffffffffffffffffff1673ffffffffffffffffffffffffffffffffffffffff1681526020019081526020016000206001018190555080600360003373ffffffffffffffffffffffffffffffffffffffff1673ffffffffffffffffffffffffffffffffffffffff1681526020019081526020016000206000016000828254610aa49190610ffb565b9250508190555042600360003373ffffffffffffffffffffffffffffffffffffffff1673ffffffffffffffffffffffffffffffffffffffff1681526020019081526020016000206003018190555080600080828254610b039190610ffb565b925050819055503373ffffffffffffffffffffffffffffffffffffffff167febedb8b3c678666e7f36970bc8f57abf6d8fa2e828c0da91ea5b75bf68ed101a82604051610b509190610cc1565b60405180910390a250565b600460009054906101000a900473ffffffffffffffffffffffffffffffffffffffff1681565b60006301e133806064600260149054906101000a900460ff1660ff16600360003373ffffffffffffffffffffffffffffffffffffffff1673ffffffffffffffffffffffffffffffffffffffff16815260200190815260200160002060000154610bea9190611139565b610bf491906111c2565b610bfe91906111c2565b600360003373ffffffffffffffffffffffffffffffffffffffff1673ffffffffffffffffffffffffffffffffffffffff1681526020019081526020016000206003015442610c4c9190611051565b610c569190611139565b600360003373ffffffffffffffffffffffffffffffffffffffff1673ffffffffffffffffffffffffffffffffffffffff16815260200190815260200160002060010154610ca39190610ffb565b905090565b6000819050919050565b610cbb81610ca8565b82525050565b6000602082019050610cd66000830184610cb2565b92915050565b600060ff82169050919050565b610cf281610cdc565b82525050565b6000602082019050610d0d6000830184610ce9565b92915050565b600080fd5b610d2181610cdc565b8114610d2c57600080fd5b50565b600081359050610d3e81610d18565b92915050565b600060208284031215610d5a57610d59610d13565b5b6000610d6884828501610d2f565b91505092915050565b600073ffffffffffffffffffffffffffffffffffffffff82169050919050565b6000610d9c82610d71565b9050919050565b610dac81610d91565b82525050565b6000602082019050610dc76000830184610da3565b92915050565b610dd681610d91565b8114610de157600080fd5b50565b600081359050610df381610dcd565b92915050565b600060208284031215610e0f57610e0e610d13565b5b6000610e1d84828501610de4565b91505092915050565b6000608082019050610e3b6000830187610cb2565b610e486020830186610cb2565b610e556040830185610cb2565b610e626060830184610cb2565b95945050505050565b610e7481610ca8565b8114610e7f57600080fd5b50565b600081359050610e9181610e6b565b92915050565b600060208284031215610ead57610eac610d13565b5b6000610ebb84828501610e82565b91505092915050565b6000819050919050565b6000610ee9610ee4610edf84610d71565b610ec4565b610d71565b9050919050565b6000610efb82610ece565b9050919050565b6000610f0d82610ef0565b9050919050565b610f1d81610f02565b82525050565b6000602082019050610f386000830184610f14565b92915050565b6000604082019050610f536000830185610da3565b610f606020830184610cb2565b9392505050565b60008115159050919050565b610f7c81610f67565b8114610f8757600080fd5b50565b600081519050610f9981610f73565b92915050565b600060208284031215610fb557610fb4610d13565b5b6000610fc384828501610f8a565b91505092915050565b7f4e487b7100000000000000000000000000000000000000000000000000000000600052601160045260246000fd5b600061100682610ca8565b915061101183610ca8565b9250827fffffffffffffffffffffffffffffffffffffffffffffffffffffffffffffffff0382111561104657611045610fcc565b5b828201905092915050565b600061105c82610ca8565b915061106783610ca8565b92508282101561107a57611079610fcc565b5b828203905092915050565b600082825260208201905092915050565b7f6e6f74206f776e65720000000000000000000000000000000000000000000000600082015250565b60006110cc600983611085565b91506110d782611096565b602082019050919050565b600060208201905081810360008301526110fb816110bf565b9050919050565b60006060820190506111176000830186610da3565b6111246020830185610da3565b6111316040830184610cb2565b949350505050565b600061114482610ca8565b915061114f83610ca8565b9250817fffffffffffffffffffffffffffffffffffffffffffffffffffffffffffffffff048311821515161561118857611187610fcc565b5b828202905092915050565b7f4e487b7100000000000000000000000000000000000000000000000000000000600052601260045260246000fd5b60006111cd82610ca8565b91506111d883610ca8565b9250826111e8576111e7611193565b5b82820490509291505056fea264697066735822122050e815940dbc0ad742ec457191edde7775187e9dca474725fd74ba613e8502b764736f6c634300080f0033",
					"opcodes": "PUSH1 0x80 PUSH1 0x40 MSTORE PUSH1 0x1 PUSH1 0x0 SSTORE CALLVALUE DUP1 ISZERO PUSH3 0x16 JUMPI PUSH1 0x0 DUP1 REVERT JUMPDEST POP PUSH1 0x40 MLOAD PUSH3 0x13F7 CODESIZE SUB DUP1 PUSH3 0x13F7 DUP4 CODECOPY DUP2 DUP2 ADD PUSH1 0x40 MSTORE DUP2 ADD SWAP1 PUSH3 0x3C SWAP2 SWAP1 PUSH3 0x18C JUMP JUMPDEST DUP1 PUSH1 0x1 PUSH1 0x0 PUSH2 0x100 EXP DUP2 SLOAD DUP2 PUSH20 0xFFFFFFFFFFFFFFFFFFFFFFFFFFFFFFFFFFFFFFFF MUL NOT AND SWAP1 DUP4 PUSH20 0xFFFFFFFFFFFFFFFFFFFFFFFFFFFFFFFFFFFFFFFF AND MUL OR SWAP1 SSTORE POP DUP1 PUSH1 0x4 PUSH1 0x0 PUSH2 0x100 EXP DUP2 SLOAD DUP2 PUSH20 0xFFFFFFFFFFFFFFFFFFFFFFFFFFFFFFFFFFFFFFFF MUL NOT AND SWAP1 DUP4 PUSH20 0xFFFFFFFFFFFFFFFFFFFFFFFFFFFFFFFFFFFFFFFF AND MUL OR SWAP1 SSTORE POP PUSH1 0x32 PUSH1 0x2 PUSH1 0x14 PUSH2 0x100 EXP DUP2 SLOAD DUP2 PUSH1 0xFF MUL NOT AND SWAP1 DUP4 PUSH1 0xFF AND MUL OR SWAP1 SSTORE POP CALLER PUSH1 0x2 PUSH1 0x0 PUSH2 0x100 EXP DUP2 SLOAD DUP2 PUSH20 0xFFFFFFFFFFFFFFFFFFFFFFFFFFFFFFFFFFFFFFFF MUL NOT AND SWAP1 DUP4 PUSH20 0xFFFFFFFFFFFFFFFFFFFFFFFFFFFFFFFFFFFFFFFF AND MUL OR SWAP1 SSTORE POP POP PUSH3 0x1BE JUMP JUMPDEST PUSH1 0x0 DUP1 REVERT JUMPDEST PUSH1 0x0 PUSH20 0xFFFFFFFFFFFFFFFFFFFFFFFFFFFFFFFFFFFFFFFF DUP3 AND SWAP1 POP SWAP2 SWAP1 POP JUMP JUMPDEST PUSH1 0x0 PUSH3 0x154 DUP3 PUSH3 0x127 JUMP JUMPDEST SWAP1 POP SWAP2 SWAP1 POP JUMP JUMPDEST PUSH3 0x166 DUP2 PUSH3 0x147 JUMP JUMPDEST DUP2 EQ PUSH3 0x172 JUMPI PUSH1 0x0 DUP1 REVERT JUMPDEST POP JUMP JUMPDEST PUSH1 0x0 DUP2 MLOAD SWAP1 POP PUSH3 0x186 DUP2 PUSH3 0x15B JUMP JUMPDEST SWAP3 SWAP2 POP POP JUMP JUMPDEST PUSH1 0x0 PUSH1 0x20 DUP3 DUP5 SUB SLT ISZERO PUSH3 0x1A5 JUMPI PUSH3 0x1A4 PUSH3 0x122 JUMP JUMPDEST JUMPDEST PUSH1 0x0 PUSH3 0x1B5 DUP5 DUP3 DUP6 ADD PUSH3 0x175 JUMP JUMPDEST SWAP2 POP POP SWAP3 SWAP2 POP POP JUMP JUMPDEST PUSH2 0x1229 DUP1 PUSH3 0x1CE PUSH1 0x0 CODECOPY PUSH1 0x0 RETURN INVALID PUSH1 0x80 PUSH1 0x40 MSTORE PUSH1 0x4 CALLDATASIZE LT PUSH2 0x91 JUMPI PUSH1 0x0 CALLDATALOAD PUSH1 0xE0 SHR DUP1 PUSH4 0x8DA5CB5B GT PUSH2 0x59 JUMPI DUP1 PUSH4 0x8DA5CB5B EQ PUSH2 0x129 JUMPI DUP1 PUSH4 0x8DA7AD23 EQ PUSH2 0x154 JUMPI DUP1 PUSH4 0x9D76EA58 EQ PUSH2 0x194 JUMPI DUP1 PUSH4 0xA694FC3A EQ PUSH2 0x1BF JUMPI DUP1 PUSH4 0xBF0AE63D EQ PUSH2 0x1DB JUMPI PUSH2 0x91 JUMP JUMPDEST DUP1 PUSH4 0x53B645E5 EQ PUSH2 0x96 JUMPI DUP1 PUSH4 0x71CA337D EQ PUSH2 0xC1 JUMPI DUP1 PUSH4 0x73CF575A EQ PUSH2 0xEC JUMPI DUP1 PUSH4 0x83A6DEB5 EQ PUSH2 0xF6 JUMPI DUP1 PUSH4 0x8D994BEB EQ PUSH2 0x100 JUMPI JUMPDEST PUSH1 0x0 DUP1 REVERT JUMPDEST CALLVALUE DUP1 ISZERO PUSH2 0xA2 JUMPI PUSH1 0x0 DUP1 REVERT JUMPDEST POP PUSH2 0xAB PUSH2 0x206 JUMP JUMPDEST PUSH1 0x40 MLOAD PUSH2 0xB8 SWAP2 SWAP1 PUSH2 0xCC1 JUMP JUMPDEST PUSH1 0x40 MLOAD DUP1 SWAP2 SUB SWAP1 RETURN JUMPDEST CALLVALUE DUP1 ISZERO PUSH2 0xCD JUMPI PUSH1 0x0 DUP1 REVERT JUMPDEST POP PUSH2 0xD6 PUSH2 0x20C JUMP JUMPDEST PUSH1 0x40 MLOAD PUSH2 0xE3 SWAP2 SWAP1 PUSH2 0xCF8 JUMP JUMPDEST PUSH1 0x40 MLOAD DUP1 SWAP2 SUB SWAP1 RETURN JUMPDEST PUSH2 0xF4 PUSH2 0x21F JUMP JUMPDEST STOP JUMPDEST PUSH2 0xFE PUSH2 0x61A JUMP JUMPDEST STOP JUMPDEST CALLVALUE DUP1 ISZERO PUSH2 0x10C JUMPI PUSH1 0x0 DUP1 REVERT JUMPDEST POP PUSH2 0x127 PUSH1 0x4 DUP1 CALLDATASIZE SUB DUP2 ADD SWAP1 PUSH2 0x122 SWAP2 SWAP1 PUSH2 0xD44 JUMP JUMPDEST PUSH2 0x800 JUMP JUMPDEST STOP JUMPDEST CALLVALUE DUP1 ISZERO PUSH2 0x135 JUMPI PUSH1 0x0 DUP1 REVERT JUMPDEST POP PUSH2 0x13E PUSH2 0x8E5 JUMP JUMPDEST PUSH1 0x40 MLOAD PUSH2 0x14B SWAP2 SWAP1 PUSH2 0xDB2 JUMP JUMPDEST PUSH1 0x40 MLOAD DUP1 SWAP2 SUB SWAP1 RETURN JUMPDEST CALLVALUE DUP1 ISZERO PUSH2 0x160 JUMPI PUSH1 0x0 DUP1 REVERT JUMPDEST POP PUSH2 0x17B PUSH1 0x4 DUP1 CALLDATASIZE SUB DUP2 ADD SWAP1 PUSH2 0x176 SWAP2 SWAP1 PUSH2 0xDF9 JUMP JUMPDEST PUSH2 0x90B JUMP JUMPDEST PUSH1 0x40 MLOAD PUSH2 0x18B SWAP5 SWAP4 SWAP3 SWAP2 SWAP1 PUSH2 0xE26 JUMP JUMPDEST PUSH1 0x40 MLOAD DUP1 SWAP2 SUB SWAP1 RETURN JUMPDEST CALLVALUE DUP1 ISZERO PUSH2 0x1A0 JUMPI PUSH1 0x0 DUP1 REVERT JUMPDEST POP PUSH2 0x1A9 PUSH2 0x93B JUMP JUMPDEST PUSH1 0x40 MLOAD PUSH2 0x1B6 SWAP2 SWAP1 PUSH2 0xDB2 JUMP JUMPDEST PUSH1 0x40 MLOAD DUP1 SWAP2 SUB SWAP1 RETURN JUMPDEST PUSH2 0x1D9 PUSH1 0x4 DUP1 CALLDATASIZE SUB DUP2 ADD SWAP1 PUSH2 0x1D4 SWAP2 SWAP1 PUSH2 0xE97 JUMP JUMPDEST PUSH2 0x961 JUMP JUMPDEST STOP JUMPDEST CALLVALUE DUP1 ISZERO PUSH2 0x1E7 JUMPI PUSH1 0x0 DUP1 REVERT JUMPDEST POP PUSH2 0x1F0 PUSH2 0xB5B JUMP JUMPDEST PUSH1 0x40 MLOAD PUSH2 0x1FD SWAP2 SWAP1 PUSH2 0xF23 JUMP JUMPDEST PUSH1 0x40 MLOAD DUP1 SWAP2 SUB SWAP1 RETURN JUMPDEST PUSH1 0x0 SLOAD DUP2 JUMP JUMPDEST PUSH1 0x2 PUSH1 0x14 SWAP1 SLOAD SWAP1 PUSH2 0x100 EXP SWAP1 DIV PUSH1 0xFF AND DUP2 JUMP JUMPDEST PUSH1 0x0 PUSH2 0x229 PUSH2 0xB81 JUMP JUMPDEST SWAP1 POP PUSH1 0x4 PUSH1 0x0 SWAP1 SLOAD SWAP1 PUSH2 0x100 EXP SWAP1 DIV PUSH20 0xFFFFFFFFFFFFFFFFFFFFFFFFFFFFFFFFFFFFFFFF AND PUSH20 0xFFFFFFFFFFFFFFFFFFFFFFFFFFFFFFFFFFFFFFFF AND PUSH4 0xA9059CBB CALLER PUSH1 0x3 PUSH1 0x0 CALLER PUSH20 0xFFFFFFFFFFFFFFFFFFFFFFFFFFFFFFFFFFFFFFFF AND PUSH20 0xFFFFFFFFFFFFFFFFFFFFFFFFFFFFFFFFFFFFFFFF AND DUP2 MSTORE PUSH1 0x20 ADD SWAP1 DUP2 MSTORE PUSH1 0x20 ADD PUSH1 0x0 KECCAK256 PUSH1 0x0 ADD SLOAD PUSH1 0x40 MLOAD DUP4 PUSH4 0xFFFFFFFF AND PUSH1 0xE0 SHL DUP2 MSTORE PUSH1 0x4 ADD PUSH2 0x2CA SWAP3 SWAP2 SWAP1 PUSH2 0xF3E JUMP JUMPDEST PUSH1 0x20 PUSH1 0x40 MLOAD DUP1 DUP4 SUB DUP2 PUSH1 0x0 DUP8 GAS CALL ISZERO DUP1 ISZERO PUSH2 0x2E9 JUMPI RETURNDATASIZE PUSH1 0x0 DUP1 RETURNDATACOPY RETURNDATASIZE PUSH1 0x0 REVERT JUMPDEST POP POP POP POP PUSH1 0x40 MLOAD RETURNDATASIZE PUSH1 0x1F NOT PUSH1 0x1F DUP3 ADD AND DUP3 ADD DUP1 PUSH1 0x40 MSTORE POP DUP2 ADD SWAP1 PUSH2 0x30D SWAP2 SWAP1 PUSH2 0xF9F JUMP JUMPDEST POP PUSH1 0x4 PUSH1 0x0 SWAP1 SLOAD SWAP1 PUSH2 0x100 EXP SWAP1 DIV PUSH20 0xFFFFFFFFFFFFFFFFFFFFFFFFFFFFFFFFFFFFFFFF AND PUSH20 0xFFFFFFFFFFFFFFFFFFFFFFFFFFFFFFFFFFFFFFFF AND PUSH4 0xA9059CBB CALLER DUP4 PUSH1 0x40 MLOAD DUP4 PUSH4 0xFFFFFFFF AND PUSH1 0xE0 SHL DUP2 MSTORE PUSH1 0x4 ADD PUSH2 0x36B SWAP3 SWAP2 SWAP1 PUSH2 0xF3E JUMP JUMPDEST PUSH1 0x20 PUSH1 0x40 MLOAD DUP1 DUP4 SUB DUP2 PUSH1 0x0 DUP8 GAS CALL ISZERO DUP1 ISZERO PUSH2 0x38A JUMPI RETURNDATASIZE PUSH1 0x0 DUP1 RETURNDATACOPY RETURNDATASIZE PUSH1 0x0 REVERT JUMPDEST POP POP POP POP PUSH1 0x40 MLOAD RETURNDATASIZE PUSH1 0x1F NOT PUSH1 0x1F DUP3 ADD AND DUP3 ADD DUP1 PUSH1 0x40 MSTORE POP DUP2 ADD SWAP1 PUSH2 0x3AE SWAP2 SWAP1 PUSH2 0xF9F JUMP JUMPDEST POP CALLER PUSH20 0xFFFFFFFFFFFFFFFFFFFFFFFFFFFFFFFFFFFFFFFF AND PUSH32 0xB24546D975E2628748EFC9ACED80665E0FAD66272033E5C0EA25FD3AFAC99795 PUSH1 0x3 PUSH1 0x0 CALLER PUSH20 0xFFFFFFFFFFFFFFFFFFFFFFFFFFFFFFFFFFFFFFFF AND PUSH20 0xFFFFFFFFFFFFFFFFFFFFFFFFFFFFFFFFFFFFFFFF AND DUP2 MSTORE PUSH1 0x20 ADD SWAP1 DUP2 MSTORE PUSH1 0x20 ADD PUSH1 0x0 KECCAK256 PUSH1 0x0 ADD SLOAD PUSH1 0x40 MLOAD PUSH2 0x437 SWAP2 SWAP1 PUSH2 0xCC1 JUMP JUMPDEST PUSH1 0x40 MLOAD DUP1 SWAP2 SUB SWAP1 LOG2 CALLER PUSH20 0xFFFFFFFFFFFFFFFFFFFFFFFFFFFFFFFFFFFFFFFF AND PUSH32 0xD6717F327E0CB88B4A97A7F67A453E9258252C34937CCBDD86DE7CB840E7DEF3 DUP3 PUSH1 0x40 MLOAD PUSH2 0x485 SWAP2 SWAP1 PUSH2 0xCC1 JUMP JUMPDEST PUSH1 0x40 MLOAD DUP1 SWAP2 SUB SWAP1 LOG2 DUP1 PUSH1 0x3 PUSH1 0x0 CALLER PUSH20 0xFFFFFFFFFFFFFFFFFFFFFFFFFFFFFFFFFFFFFFFF AND PUSH20 0xFFFFFFFFFFFFFFFFFFFFFFFFFFFFFFFFFFFFFFFF AND DUP2 MSTORE PUSH1 0x20 ADD SWAP1 DUP2 MSTORE PUSH1 0x20 ADD PUSH1 0x0 KECCAK256 PUSH1 0x2 ADD PUSH1 0x0 DUP3 DUP3 SLOAD PUSH2 0x4DF SWAP2 SWAP1 PUSH2 0xFFB JUMP JUMPDEST SWAP3 POP POP DUP2 SWAP1 SSTORE POP TIMESTAMP PUSH1 0x3 PUSH1 0x0 CALLER PUSH20 0xFFFFFFFFFFFFFFFFFFFFFFFFFFFFFFFFFFFFFFFF AND PUSH20 0xFFFFFFFFFFFFFFFFFFFFFFFFFFFFFFFFFFFFFFFF AND DUP2 MSTORE PUSH1 0x20 ADD SWAP1 DUP2 MSTORE PUSH1 0x20 ADD PUSH1 0x0 KECCAK256 PUSH1 0x3 ADD DUP2 SWAP1 SSTORE POP PUSH1 0x3 PUSH1 0x0 CALLER PUSH20 0xFFFFFFFFFFFFFFFFFFFFFFFFFFFFFFFFFFFFFFFF AND PUSH20 0xFFFFFFFFFFFFFFFFFFFFFFFFFFFFFFFFFFFFFFFF AND DUP2 MSTORE PUSH1 0x20 ADD SWAP1 DUP2 MSTORE PUSH1 0x20 ADD PUSH1 0x0 KECCAK256 PUSH1 0x0 ADD SLOAD PUSH1 0x0 DUP1 DUP3 DUP3 SLOAD PUSH2 0x580 SWAP2 SWAP1 PUSH2 0x1051 JUMP JUMPDEST SWAP3 POP POP DUP2 SWAP1 SSTORE POP PUSH1 0x0 PUSH1 0x3 PUSH1 0x0 CALLER PUSH20 0xFFFFFFFFFFFFFFFFFFFFFFFFFFFFFFFFFFFFFFFF AND PUSH20 0xFFFFFFFFFFFFFFFFFFFFFFFFFFFFFFFFFFFFFFFF AND DUP2 MSTORE PUSH1 0x20 ADD SWAP1 DUP2 MSTORE PUSH1 0x20 ADD PUSH1 0x0 KECCAK256 PUSH1 0x0 ADD DUP2 SWAP1 SSTORE POP PUSH1 0x0 PUSH1 0x3 PUSH1 0x0 CALLER PUSH20 0xFFFFFFFFFFFFFFFFFFFFFFFFFFFFFFFFFFFFFFFF AND PUSH20 0xFFFFFFFFFFFFFFFFFFFFFFFFFFFFFFFFFFFFFFFF AND DUP2 MSTORE PUSH1 0x20 ADD SWAP1 DUP2 MSTORE PUSH1 0x20 ADD PUSH1 0x0 KECCAK256 PUSH1 0x1 ADD DUP2 SWAP1 SSTORE POP POP JUMP JUMPDEST PUSH1 0x0 PUSH2 0x624 PUSH2 0xB81 JUMP JUMPDEST SWAP1 POP PUSH1 0x4 PUSH1 0x0 SWAP1 SLOAD SWAP1 PUSH2 0x100 EXP SWAP1 DIV PUSH20 0xFFFFFFFFFFFFFFFFFFFFFFFFFFFFFFFFFFFFFFFF AND PUSH20 0xFFFFFFFFFFFFFFFFFFFFFFFFFFFFFFFFFFFFFFFF AND PUSH4 0xA9059CBB CALLER DUP4 PUSH1 0x40 MLOAD DUP4 PUSH4 0xFFFFFFFF AND PUSH1 0xE0 SHL DUP2 MSTORE PUSH1 0x4 ADD PUSH2 0x683 SWAP3 SWAP2 SWAP1 PUSH2 0xF3E JUMP JUMPDEST PUSH1 0x20 PUSH1 0x40 MLOAD DUP1 DUP4 SUB DUP2 PUSH1 0x0 DUP8 GAS CALL ISZERO DUP1 ISZERO PUSH2 0x6A2 JUMPI RETURNDATASIZE PUSH1 0x0 DUP1 RETURNDATACOPY RETURNDATASIZE PUSH1 0x0 REVERT JUMPDEST POP POP POP POP PUSH1 0x40 MLOAD RETURNDATASIZE PUSH1 0x1F NOT PUSH1 0x1F DUP3 ADD AND DUP3 ADD DUP1 PUSH1 0x40 MSTORE POP DUP2 ADD SWAP1 PUSH2 0x6C6 SWAP2 SWAP1 PUSH2 0xF9F JUMP JUMPDEST POP CALLER PUSH20 0xFFFFFFFFFFFFFFFFFFFFFFFFFFFFFFFFFFFFFFFF AND PUSH32 0xD6717F327E0CB88B4A97A7F67A453E9258252C34937CCBDD86DE7CB840E7DEF3 DUP3 PUSH1 0x40 MLOAD PUSH2 0x70D SWAP2 SWAP1 PUSH2 0xCC1 JUMP JUMPDEST PUSH1 0x40 MLOAD DUP1 SWAP2 SUB SWAP1 LOG2 DUP1 PUSH1 0x3 PUSH1 0x0 CALLER PUSH20 0xFFFFFFFFFFFFFFFFFFFFFFFFFFFFFFFFFFFFFFFF AND PUSH20 0xFFFFFFFFFFFFFFFFFFFFFFFFFFFFFFFFFFFFFFFF AND DUP2 MSTORE PUSH1 0x20 ADD SWAP1 DUP2 MSTORE PUSH1 0x20 ADD PUSH1 0x0 KECCAK256 PUSH1 0x2 ADD PUSH1 0x0 DUP3 DUP3 SLOAD PUSH2 0x767 SWAP2 SWAP1 PUSH2 0xFFB JUMP JUMPDEST SWAP3 POP POP DUP2 SWAP1 SSTORE POP TIMESTAMP PUSH1 0x3 PUSH1 0x0 CALLER PUSH20 0xFFFFFFFFFFFFFFFFFFFFFFFFFFFFFFFFFFFFFFFF AND PUSH20 0xFFFFFFFFFFFFFFFFFFFFFFFFFFFFFFFFFFFFFFFF AND DUP2 MSTORE PUSH1 0x20 ADD SWAP1 DUP2 MSTORE PUSH1 0x20 ADD PUSH1 0x0 KECCAK256 PUSH1 0x3 ADD DUP2 SWAP1 SSTORE POP PUSH1 0x0 PUSH1 0x3 PUSH1 0x0 CALLER PUSH20 0xFFFFFFFFFFFFFFFFFFFFFFFFFFFFFFFFFFFFFFFF AND PUSH20 0xFFFFFFFFFFFFFFFFFFFFFFFFFFFFFFFFFFFFFFFF AND DUP2 MSTORE PUSH1 0x20 ADD SWAP1 DUP2 MSTORE PUSH1 0x20 ADD PUSH1 0x0 KECCAK256 PUSH1 0x1 ADD DUP2 SWAP1 SSTORE POP POP JUMP JUMPDEST PUSH1 0x2 PUSH1 0x0 SWAP1 SLOAD SWAP1 PUSH2 0x100 EXP SWAP1 DIV PUSH20 0xFFFFFFFFFFFFFFFFFFFFFFFFFFFFFFFFFFFFFFFF AND PUSH20 0xFFFFFFFFFFFFFFFFFFFFFFFFFFFFFFFFFFFFFFFF AND CALLER PUSH20 0xFFFFFFFFFFFFFFFFFFFFFFFFFFFFFFFFFFFFFFFF AND EQ PUSH2 0x890 JUMPI PUSH1 0x40 MLOAD PUSH32 0x8C379A000000000000000000000000000000000000000000000000000000000 DUP2 MSTORE PUSH1 0x4 ADD PUSH2 0x887 SWAP1 PUSH2 0x10E2 JUMP JUMPDEST PUSH1 0x40 MLOAD DUP1 SWAP2 SUB SWAP1 REVERT JUMPDEST DUP1 PUSH1 0x2 PUSH1 0x14 PUSH2 0x100 EXP DUP2 SLOAD DUP2 PUSH1 0xFF MUL NOT AND SWAP1 DUP4 PUSH1 0xFF AND MUL OR SWAP1 SSTORE POP PUSH32 0x86FDFA566B117B03B2EF4D50C64FE89EFD432852397764C120C6796CFDD820F8 DUP2 PUSH1 0x40 MLOAD PUSH2 0x8DA SWAP2 SWAP1 PUSH2 0xCF8 JUMP JUMPDEST PUSH1 0x40 MLOAD DUP1 SWAP2 SUB SWAP1 LOG1 POP JUMP JUMPDEST PUSH1 0x2 PUSH1 0x0 SWAP1 SLOAD SWAP1 PUSH2 0x100 EXP SWAP1 DIV PUSH20 0xFFFFFFFFFFFFFFFFFFFFFFFFFFFFFFFFFFFFFFFF AND DUP2 JUMP JUMPDEST PUSH1 0x3 PUSH1 0x20 MSTORE DUP1 PUSH1 0x0 MSTORE PUSH1 0x40 PUSH1 0x0 KECCAK256 PUSH1 0x0 SWAP2 POP SWAP1 POP DUP1 PUSH1 0x0 ADD SLOAD SWAP1 DUP1 PUSH1 0x1 ADD SLOAD SWAP1 DUP1 PUSH1 0x2 ADD SLOAD SWAP1 DUP1 PUSH1 0x3 ADD SLOAD SWAP1 POP DUP5 JUMP JUMPDEST PUSH1 0x1 PUSH1 0x0 SWAP1 SLOAD SWAP1 PUSH2 0x100 EXP SWAP1 DIV PUSH20 0xFFFFFFFFFFFFFFFFFFFFFFFFFFFFFFFFFFFFFFFF AND DUP2 JUMP JUMPDEST PUSH1 0x4 PUSH1 0x0 SWAP1 SLOAD SWAP1 PUSH2 0x100 EXP SWAP1 DIV PUSH20 0xFFFFFFFFFFFFFFFFFFFFFFFFFFFFFFFFFFFFFFFF AND PUSH20 0xFFFFFFFFFFFFFFFFFFFFFFFFFFFFFFFFFFFFFFFF AND PUSH4 0x23B872DD CALLER ADDRESS DUP5 PUSH1 0x40 MLOAD DUP5 PUSH4 0xFFFFFFFF AND PUSH1 0xE0 SHL DUP2 MSTORE PUSH1 0x4 ADD PUSH2 0x9C0 SWAP4 SWAP3 SWAP2 SWAP1 PUSH2 0x1102 JUMP JUMPDEST PUSH1 0x20 PUSH1 0x40 MLOAD DUP1 DUP4 SUB DUP2 PUSH1 0x0 DUP8 GAS CALL ISZERO DUP1 ISZERO PUSH2 0x9DF JUMPI RETURNDATASIZE PUSH1 0x0 DUP1 RETURNDATACOPY RETURNDATASIZE PUSH1 0x0 REVERT JUMPDEST POP POP POP POP PUSH1 0x40 MLOAD RETURNDATASIZE PUSH1 0x1F NOT PUSH1 0x1F DUP3 ADD AND DUP3 ADD DUP1 PUSH1 0x40 MSTORE POP DUP2 ADD SWAP1 PUSH2 0xA03 SWAP2 SWAP1 PUSH2 0xF9F JUMP JUMPDEST POP PUSH2 0xA0C PUSH2 0xB81 JUMP JUMPDEST PUSH1 0x3 PUSH1 0x0 CALLER PUSH20 0xFFFFFFFFFFFFFFFFFFFFFFFFFFFFFFFFFFFFFFFF AND PUSH20 0xFFFFFFFFFFFFFFFFFFFFFFFFFFFFFFFFFFFFFFFF AND DUP2 MSTORE PUSH1 0x20 ADD SWAP1 DUP2 MSTORE PUSH1 0x20 ADD PUSH1 0x0 KECCAK256 PUSH1 0x1 ADD DUP2 SWAP1 SSTORE POP DUP1 PUSH1 0x3 PUSH1 0x0 CALLER PUSH20 0xFFFFFFFFFFFFFFFFFFFFFFFFFFFFFFFFFFFFFFFF AND PUSH20 0xFFFFFFFFFFFFFFFFFFFFFFFFFFFFFFFFFFFFFFFF AND DUP2 MSTORE PUSH1 0x20 ADD SWAP1 DUP2 MSTORE PUSH1 0x20 ADD PUSH1 0x0 KECCAK256 PUSH1 0x0 ADD PUSH1 0x0 DUP3 DUP3 SLOAD PUSH2 0xAA4 SWAP2 SWAP1 PUSH2 0xFFB JUMP JUMPDEST SWAP3 POP POP DUP2 SWAP1 SSTORE POP TIMESTAMP PUSH1 0x3 PUSH1 0x0 CALLER PUSH20 0xFFFFFFFFFFFFFFFFFFFFFFFFFFFFFFFFFFFFFFFF AND PUSH20 0xFFFFFFFFFFFFFFFFFFFFFFFFFFFFFFFFFFFFFFFF AND DUP2 MSTORE PUSH1 0x20 ADD SWAP1 DUP2 MSTORE PUSH1 0x20 ADD PUSH1 0x0 KECCAK256 PUSH1 0x3 ADD DUP2 SWAP1 SSTORE POP DUP1 PUSH1 0x0 DUP1 DUP3 DUP3 SLOAD PUSH2 0xB03 SWAP2 SWAP1 PUSH2 0xFFB JUMP JUMPDEST SWAP3 POP POP DUP2 SWAP1 SSTORE POP CALLER PUSH20 0xFFFFFFFFFFFFFFFFFFFFFFFFFFFFFFFFFFFFFFFF AND PUSH32 0xEBEDB8B3C678666E7F36970BC8F57ABF6D8FA2E828C0DA91EA5B75BF68ED101A DUP3 PUSH1 0x40 MLOAD PUSH2 0xB50 SWAP2 SWAP1 PUSH2 0xCC1 JUMP JUMPDEST PUSH1 0x40 MLOAD DUP1 SWAP2 SUB SWAP1 LOG2 POP JUMP JUMPDEST PUSH1 0x4 PUSH1 0x0 SWAP1 SLOAD SWAP1 PUSH2 0x100 EXP SWAP1 DIV PUSH20 0xFFFFFFFFFFFFFFFFFFFFFFFFFFFFFFFFFFFFFFFF AND DUP2 JUMP JUMPDEST PUSH1 0x0 PUSH4 0x1E13380 PUSH1 0x64 PUSH1 0x2 PUSH1 0x14 SWAP1 SLOAD SWAP1 PUSH2 0x100 EXP SWAP1 DIV PUSH1 0xFF AND PUSH1 0xFF AND PUSH1 0x3 PUSH1 0x0 CALLER PUSH20 0xFFFFFFFFFFFFFFFFFFFFFFFFFFFFFFFFFFFFFFFF AND PUSH20 0xFFFFFFFFFFFFFFFFFFFFFFFFFFFFFFFFFFFFFFFF AND DUP2 MSTORE PUSH1 0x20 ADD SWAP1 DUP2 MSTORE PUSH1 0x20 ADD PUSH1 0x0 KECCAK256 PUSH1 0x0 ADD SLOAD PUSH2 0xBEA SWAP2 SWAP1 PUSH2 0x1139 JUMP JUMPDEST PUSH2 0xBF4 SWAP2 SWAP1 PUSH2 0x11C2 JUMP JUMPDEST PUSH2 0xBFE SWAP2 SWAP1 PUSH2 0x11C2 JUMP JUMPDEST PUSH1 0x3 PUSH1 0x0 CALLER PUSH20 0xFFFFFFFFFFFFFFFFFFFFFFFFFFFFFFFFFFFFFFFF AND PUSH20 0xFFFFFFFFFFFFFFFFFFFFFFFFFFFFFFFFFFFFFFFF AND DUP2 MSTORE PUSH1 0x20 ADD SWAP1 DUP2 MSTORE PUSH1 0x20 ADD PUSH1 0x0 KECCAK256 PUSH1 0x3 ADD SLOAD TIMESTAMP PUSH2 0xC4C SWAP2 SWAP1 PUSH2 0x1051 JUMP JUMPDEST PUSH2 0xC56 SWAP2 SWAP1 PUSH2 0x1139 JUMP JUMPDEST PUSH1 0x3 PUSH1 0x0 CALLER PUSH20 0xFFFFFFFFFFFFFFFFFFFFFFFFFFFFFFFFFFFFFFFF AND PUSH20 0xFFFFFFFFFFFFFFFFFFFFFFFFFFFFFFFFFFFFFFFF AND DUP2 MSTORE PUSH1 0x20 ADD SWAP1 DUP2 MSTORE PUSH1 0x20 ADD PUSH1 0x0 KECCAK256 PUSH1 0x1 ADD SLOAD PUSH2 0xCA3 SWAP2 SWAP1 PUSH2 0xFFB JUMP JUMPDEST SWAP1 POP SWAP1 JUMP JUMPDEST PUSH1 0x0 DUP2 SWAP1 POP SWAP2 SWAP1 POP JUMP JUMPDEST PUSH2 0xCBB DUP2 PUSH2 0xCA8 JUMP JUMPDEST DUP3 MSTORE POP POP JUMP JUMPDEST PUSH1 0x0 PUSH1 0x20 DUP3 ADD SWAP1 POP PUSH2 0xCD6 PUSH1 0x0 DUP4 ADD DUP5 PUSH2 0xCB2 JUMP JUMPDEST SWAP3 SWAP2 POP POP JUMP JUMPDEST PUSH1 0x0 PUSH1 0xFF DUP3 AND SWAP1 POP SWAP2 SWAP1 POP JUMP JUMPDEST PUSH2 0xCF2 DUP2 PUSH2 0xCDC JUMP JUMPDEST DUP3 MSTORE POP POP JUMP JUMPDEST PUSH1 0x0 PUSH1 0x20 DUP3 ADD SWAP1 POP PUSH2 0xD0D PUSH1 0x0 DUP4 ADD DUP5 PUSH2 0xCE9 JUMP JUMPDEST SWAP3 SWAP2 POP POP JUMP JUMPDEST PUSH1 0x0 DUP1 REVERT JUMPDEST PUSH2 0xD21 DUP2 PUSH2 0xCDC JUMP JUMPDEST DUP2 EQ PUSH2 0xD2C JUMPI PUSH1 0x0 DUP1 REVERT JUMPDEST POP JUMP JUMPDEST PUSH1 0x0 DUP2 CALLDATALOAD SWAP1 POP PUSH2 0xD3E DUP2 PUSH2 0xD18 JUMP JUMPDEST SWAP3 SWAP2 POP POP JUMP JUMPDEST PUSH1 0x0 PUSH1 0x20 DUP3 DUP5 SUB SLT ISZERO PUSH2 0xD5A JUMPI PUSH2 0xD59 PUSH2 0xD13 JUMP JUMPDEST JUMPDEST PUSH1 0x0 PUSH2 0xD68 DUP5 DUP3 DUP6 ADD PUSH2 0xD2F JUMP JUMPDEST SWAP2 POP POP SWAP3 SWAP2 POP POP JUMP JUMPDEST PUSH1 0x0 PUSH20 0xFFFFFFFFFFFFFFFFFFFFFFFFFFFFFFFFFFFFFFFF DUP3 AND SWAP1 POP SWAP2 SWAP1 POP JUMP JUMPDEST PUSH1 0x0 PUSH2 0xD9C DUP3 PUSH2 0xD71 JUMP JUMPDEST SWAP1 POP SWAP2 SWAP1 POP JUMP JUMPDEST PUSH2 0xDAC DUP2 PUSH2 0xD91 JUMP JUMPDEST DUP3 MSTORE POP POP JUMP JUMPDEST PUSH1 0x0 PUSH1 0x20 DUP3 ADD SWAP1 POP PUSH2 0xDC7 PUSH1 0x0 DUP4 ADD DUP5 PUSH2 0xDA3 JUMP JUMPDEST SWAP3 SWAP2 POP POP JUMP JUMPDEST PUSH2 0xDD6 DUP2 PUSH2 0xD91 JUMP JUMPDEST DUP2 EQ PUSH2 0xDE1 JUMPI PUSH1 0x0 DUP1 REVERT JUMPDEST POP JUMP JUMPDEST PUSH1 0x0 DUP2 CALLDATALOAD SWAP1 POP PUSH2 0xDF3 DUP2 PUSH2 0xDCD JUMP JUMPDEST SWAP3 SWAP2 POP POP JUMP JUMPDEST PUSH1 0x0 PUSH1 0x20 DUP3 DUP5 SUB SLT ISZERO PUSH2 0xE0F JUMPI PUSH2 0xE0E PUSH2 0xD13 JUMP JUMPDEST JUMPDEST PUSH1 0x0 PUSH2 0xE1D DUP5 DUP3 DUP6 ADD PUSH2 0xDE4 JUMP JUMPDEST SWAP2 POP POP SWAP3 SWAP2 POP POP JUMP JUMPDEST PUSH1 0x0 PUSH1 0x80 DUP3 ADD SWAP1 POP PUSH2 0xE3B PUSH1 0x0 DUP4 ADD DUP8 PUSH2 0xCB2 JUMP JUMPDEST PUSH2 0xE48 PUSH1 0x20 DUP4 ADD DUP7 PUSH2 0xCB2 JUMP JUMPDEST PUSH2 0xE55 PUSH1 0x40 DUP4 ADD DUP6 PUSH2 0xCB2 JUMP JUMPDEST PUSH2 0xE62 PUSH1 0x60 DUP4 ADD DUP5 PUSH2 0xCB2 JUMP JUMPDEST SWAP6 SWAP5 POP POP POP POP POP JUMP JUMPDEST PUSH2 0xE74 DUP2 PUSH2 0xCA8 JUMP JUMPDEST DUP2 EQ PUSH2 0xE7F JUMPI PUSH1 0x0 DUP1 REVERT JUMPDEST POP JUMP JUMPDEST PUSH1 0x0 DUP2 CALLDATALOAD SWAP1 POP PUSH2 0xE91 DUP2 PUSH2 0xE6B JUMP JUMPDEST SWAP3 SWAP2 POP POP JUMP JUMPDEST PUSH1 0x0 PUSH1 0x20 DUP3 DUP5 SUB SLT ISZERO PUSH2 0xEAD JUMPI PUSH2 0xEAC PUSH2 0xD13 JUMP JUMPDEST JUMPDEST PUSH1 0x0 PUSH2 0xEBB DUP5 DUP3 DUP6 ADD PUSH2 0xE82 JUMP JUMPDEST SWAP2 POP POP SWAP3 SWAP2 POP POP JUMP JUMPDEST PUSH1 0x0 DUP2 SWAP1 POP SWAP2 SWAP1 POP JUMP JUMPDEST PUSH1 0x0 PUSH2 0xEE9 PUSH2 0xEE4 PUSH2 0xEDF DUP5 PUSH2 0xD71 JUMP JUMPDEST PUSH2 0xEC4 JUMP JUMPDEST PUSH2 0xD71 JUMP JUMPDEST SWAP1 POP SWAP2 SWAP1 POP JUMP JUMPDEST PUSH1 0x0 PUSH2 0xEFB DUP3 PUSH2 0xECE JUMP JUMPDEST SWAP1 POP SWAP2 SWAP1 POP JUMP JUMPDEST PUSH1 0x0 PUSH2 0xF0D DUP3 PUSH2 0xEF0 JUMP JUMPDEST SWAP1 POP SWAP2 SWAP1 POP JUMP JUMPDEST PUSH2 0xF1D DUP2 PUSH2 0xF02 JUMP JUMPDEST DUP3 MSTORE POP POP JUMP JUMPDEST PUSH1 0x0 PUSH1 0x20 DUP3 ADD SWAP1 POP PUSH2 0xF38 PUSH1 0x0 DUP4 ADD DUP5 PUSH2 0xF14 JUMP JUMPDEST SWAP3 SWAP2 POP POP JUMP JUMPDEST PUSH1 0x0 PUSH1 0x40 DUP3 ADD SWAP1 POP PUSH2 0xF53 PUSH1 0x0 DUP4 ADD DUP6 PUSH2 0xDA3 JUMP JUMPDEST PUSH2 0xF60 PUSH1 0x20 DUP4 ADD DUP5 PUSH2 0xCB2 JUMP JUMPDEST SWAP4 SWAP3 POP POP POP JUMP JUMPDEST PUSH1 0x0 DUP2 ISZERO ISZERO SWAP1 POP SWAP2 SWAP1 POP JUMP JUMPDEST PUSH2 0xF7C DUP2 PUSH2 0xF67 JUMP JUMPDEST DUP2 EQ PUSH2 0xF87 JUMPI PUSH1 0x0 DUP1 REVERT JUMPDEST POP JUMP JUMPDEST PUSH1 0x0 DUP2 MLOAD SWAP1 POP PUSH2 0xF99 DUP2 PUSH2 0xF73 JUMP JUMPDEST SWAP3 SWAP2 POP POP JUMP JUMPDEST PUSH1 0x0 PUSH1 0x20 DUP3 DUP5 SUB SLT ISZERO PUSH2 0xFB5 JUMPI PUSH2 0xFB4 PUSH2 0xD13 JUMP JUMPDEST JUMPDEST PUSH1 0x0 PUSH2 0xFC3 DUP5 DUP3 DUP6 ADD PUSH2 0xF8A JUMP JUMPDEST SWAP2 POP POP SWAP3 SWAP2 POP POP JUMP JUMPDEST PUSH32 0x4E487B7100000000000000000000000000000000000000000000000000000000 PUSH1 0x0 MSTORE PUSH1 0x11 PUSH1 0x4 MSTORE PUSH1 0x24 PUSH1 0x0 REVERT JUMPDEST PUSH1 0x0 PUSH2 0x1006 DUP3 PUSH2 0xCA8 JUMP JUMPDEST SWAP2 POP PUSH2 0x1011 DUP4 PUSH2 0xCA8 JUMP JUMPDEST SWAP3 POP DUP3 PUSH32 0xFFFFFFFFFFFFFFFFFFFFFFFFFFFFFFFFFFFFFFFFFFFFFFFFFFFFFFFFFFFFFFFF SUB DUP3 GT ISZERO PUSH2 0x1046 JUMPI PUSH2 0x1045 PUSH2 0xFCC JUMP JUMPDEST JUMPDEST DUP3 DUP3 ADD SWAP1 POP SWAP3 SWAP2 POP POP JUMP JUMPDEST PUSH1 0x0 PUSH2 0x105C DUP3 PUSH2 0xCA8 JUMP JUMPDEST SWAP2 POP PUSH2 0x1067 DUP4 PUSH2 0xCA8 JUMP JUMPDEST SWAP3 POP DUP3 DUP3 LT ISZERO PUSH2 0x107A JUMPI PUSH2 0x1079 PUSH2 0xFCC JUMP JUMPDEST JUMPDEST DUP3 DUP3 SUB SWAP1 POP SWAP3 SWAP2 POP POP JUMP JUMPDEST PUSH1 0x0 DUP3 DUP3 MSTORE PUSH1 0x20 DUP3 ADD SWAP1 POP SWAP3 SWAP2 POP POP JUMP JUMPDEST PUSH32 0x6E6F74206F776E65720000000000000000000000000000000000000000000000 PUSH1 0x0 DUP3 ADD MSTORE POP JUMP JUMPDEST PUSH1 0x0 PUSH2 0x10CC PUSH1 0x9 DUP4 PUSH2 0x1085 JUMP JUMPDEST SWAP2 POP PUSH2 0x10D7 DUP3 PUSH2 0x1096 JUMP JUMPDEST PUSH1 0x20 DUP3 ADD SWAP1 POP SWAP2 SWAP1 POP JUMP JUMPDEST PUSH1 0x0 PUSH1 0x20 DUP3 ADD SWAP1 POP DUP2 DUP2 SUB PUSH1 0x0 DUP4 ADD MSTORE PUSH2 0x10FB DUP2 PUSH2 0x10BF JUMP JUMPDEST SWAP1 POP SWAP2 SWAP1 POP JUMP JUMPDEST PUSH1 0x0 PUSH1 0x60 DUP3 ADD SWAP1 POP PUSH2 0x1117 PUSH1 0x0 DUP4 ADD DUP7 PUSH2 0xDA3 JUMP JUMPDEST PUSH2 0x1124 PUSH1 0x20 DUP4 ADD DUP6 PUSH2 0xDA3 JUMP JUMPDEST PUSH2 0x1131 PUSH1 0x40 DUP4 ADD DUP5 PUSH2 0xCB2 JUMP JUMPDEST SWAP5 SWAP4 POP POP POP POP JUMP JUMPDEST PUSH1 0x0 PUSH2 0x1144 DUP3 PUSH2 0xCA8 JUMP JUMPDEST SWAP2 POP PUSH2 0x114F DUP4 PUSH2 0xCA8 JUMP JUMPDEST SWAP3 POP DUP2 PUSH32 0xFFFFFFFFFFFFFFFFFFFFFFFFFFFFFFFFFFFFFFFFFFFFFFFFFFFFFFFFFFFFFFFF DIV DUP4 GT DUP3 ISZERO ISZERO AND ISZERO PUSH2 0x1188 JUMPI PUSH2 0x1187 PUSH2 0xFCC JUMP JUMPDEST JUMPDEST DUP3 DUP3 MUL SWAP1 POP SWAP3 SWAP2 POP POP JUMP JUMPDEST PUSH32 0x4E487B7100000000000000000000000000000000000000000000000000000000 PUSH1 0x0 MSTORE PUSH1 0x12 PUSH1 0x4 MSTORE PUSH1 0x24 PUSH1 0x0 REVERT JUMPDEST PUSH1 0x0 PUSH2 0x11CD DUP3 PUSH2 0xCA8 JUMP JUMPDEST SWAP2 POP PUSH2 0x11D8 DUP4 PUSH2 0xCA8 JUMP JUMPDEST SWAP3 POP DUP3 PUSH2 0x11E8 JUMPI PUSH2 0x11E7 PUSH2 0x1193 JUMP JUMPDEST JUMPDEST DUP3 DUP3 DIV SWAP1 POP SWAP3 SWAP2 POP POP JUMP INVALID LOG2 PUSH5 0x6970667358 0x22 SLT KECCAK256 POP 0xE8 ISZERO SWAP5 0xD 0xBC EXP 0xD7 TIMESTAMP 0xEC GASLIMIT PUSH18 0x91EDDE7775187E9DCA474725FD74BA613E85 MUL 0xB7 PUSH5 0x736F6C6343 STOP ADDMOD 0xF STOP CALLER "
				},
				"gasEstimates": {
					"creation": {
						"codeDepositCost": "929800",
						"executionCost": "infinite",
						"totalCost": "infinite"
					},
					"external": {
						"ierc20()": "infinite",
						"owner()": "2514",
						"ratio()": "2544",
						"received()": "infinite",
						"setRatio(uint8)": "infinite",
						"stake(uint256)": "infinite",
						"tokenAddress()": "2558",
						"totalStakeNumber()": "2430",
						"unStake()": "infinite",
						"userStakes(address)": "infinite"
					},
					"internal": {
						"getUserInsert()": "infinite"
					}
				},
				"methodIdentifiers": {
					"ierc20()": "bf0ae63d",
					"owner()": "8da5cb5b",
					"ratio()": "71ca337d",
					"received()": "83a6deb5",
					"setRatio(uint8)": "8d994beb",
					"stake(uint256)": "a694fc3a",
					"tokenAddress()": "9d76ea58",
					"totalStakeNumber()": "53b645e5",
					"unStake()": "73cf575a",
					"userStakes(address)": "8da7ad23"
				}
			},
			"storageLayout": {
				"storage": [
					{
						"astId": 102,
						"contract": "contracts/StakePool.sol:StakePool",
						"label": "totalStakeNumber",
						"offset": 0,
						"slot": "0",
						"type": "t_uint256"
					},
					{
						"astId": 104,
						"contract": "contracts/StakePool.sol:StakePool",
						"label": "tokenAddress",
						"offset": 0,
						"slot": "1",
						"type": "t_address"
					},
					{
						"astId": 106,
						"contract": "contracts/StakePool.sol:StakePool",
						"label": "owner",
						"offset": 0,
						"slot": "2",
						"type": "t_address"
					},
					{
						"astId": 108,
						"contract": "contracts/StakePool.sol:StakePool",
						"label": "ratio",
						"offset": 20,
						"slot": "2",
						"type": "t_uint8"
					},
					{
						"astId": 113,
						"contract": "contracts/StakePool.sol:StakePool",
						"label": "userStakes",
						"offset": 0,
						"slot": "3",
						"type": "t_mapping(t_address,t_struct(User)99_storage)"
					},
					{
						"astId": 116,
						"contract": "contracts/StakePool.sol:StakePool",
						"label": "ierc20",
						"offset": 0,
						"slot": "4",
						"type": "t_contract(IERC20)68"
					}
				],
				"types": {
					"t_address": {
						"encoding": "inplace",
						"label": "address",
						"numberOfBytes": "20"
					},
					"t_contract(IERC20)68": {
						"encoding": "inplace",
						"label": "contract IERC20",
						"numberOfBytes": "20"
					},
					"t_mapping(t_address,t_struct(User)99_storage)": {
						"encoding": "mapping",
						"key": "t_address",
						"label": "mapping(address => struct StakePool.User)",
						"numberOfBytes": "32",
						"value": "t_struct(User)99_storage"
					},
					"t_struct(User)99_storage": {
						"encoding": "inplace",
						"label": "struct StakePool.User",
						"members": [
							{
								"astId": 92,
								"contract": "contracts/StakePool.sol:StakePool",
								"label": "stakeNumber",
								"offset": 0,
								"slot": "0",
								"type": "t_uint256"
							},
							{
								"astId": 94,
								"contract": "contracts/StakePool.sol:StakePool",
								"label": "currentInterest",
								"offset": 0,
								"slot": "1",
								"type": "t_uint256"
							},
							{
								"astId": 96,
								"contract": "contracts/StakePool.sol:StakePool",
								"label": "claimedInterest",
								"offset": 0,
								"slot": "2",
								"type": "t_uint256"
							},
							{
								"astId": 98,
								"contract": "contracts/StakePool.sol:StakePool",
								"label": "lastStakeTime",
								"offset": 0,
								"slot": "3",
								"type": "t_uint256"
							}
						],
						"numberOfBytes": "128"
					},
					"t_uint256": {
						"encoding": "inplace",
						"label": "uint256",
						"numberOfBytes": "32"
					},
					"t_uint8": {
						"encoding": "inplace",
						"label": "uint8",
						"numberOfBytes": "1"
					}
				}
			},
			"userdoc": {
				"kind": "user",
				"methods": {},
				"version": 1
			}
		}
	}
}