{
	"contracts/16_Overloading.sol": {
		"Overloading": {
			"abi": [
				{
					"inputs": [
						{
							"internalType": "uint256",
							"name": "_number",
							"type": "uint256"
						}
					],
					"name": "getString1",
					"outputs": [
						{
							"internalType": "string",
							"name": "",
							"type": "string"
						}
					],
					"stateMutability": "pure",
					"type": "function"
				},
				{
					"inputs": [
						{
							"internalType": "uint256",
							"name": "_number",
							"type": "uint256"
						}
					],
					"name": "getString2",
					"outputs": [
						{
							"internalType": "string",
							"name": "",
							"type": "string"
						}
					],
					"stateMutability": "pure",
					"type": "function"
				}
			],
			"devdoc": {
				"kind": "dev",
				"methods": {},
				"version": 1
			},
			"evm": {
				"assembly": "    /* \"contracts/16_Overloading.sol\":85:400  contract Overloading {... */\n  mstore(0x40, 0x80)\n  callvalue\n  dup1\n  iszero\n  tag_1\n  jumpi\n  0x00\n  dup1\n  revert\ntag_1:\n  pop\n  dataSize(sub_0)\n  dup1\n  dataOffset(sub_0)\n  0x00\n  codecopy\n  0x00\n  return\nstop\n\nsub_0: assembly {\n        /* \"contracts/16_Overloading.sol\":85:400  contract Overloading {... */\n      mstore(0x40, 0x80)\n      callvalue\n      dup1\n      iszero\n      tag_1\n      jumpi\n      0x00\n      dup1\n      revert\n    tag_1:\n      pop\n      jumpi(tag_2, lt(calldatasize, 0x04))\n      shr(0xe0, calldataload(0x00))\n      dup1\n      0xd6ee0f32\n      eq\n      tag_3\n      jumpi\n      dup1\n      0xe65eac98\n      eq\n      tag_4\n      jumpi\n    tag_2:\n      0x00\n      dup1\n      revert\n        /* \"contracts/16_Overloading.sol\":146:269  function getString1(uint256 _number) public pure returns(string memory) {... */\n    tag_3:\n      tag_5\n      0x04\n      dup1\n      calldatasize\n      sub\n      dup2\n      add\n      swap1\n      tag_6\n      swap2\n      swap1\n      tag_7\n      jump\t// in\n    tag_6:\n      tag_8\n      jump\t// in\n    tag_5:\n      mload(0x40)\n      tag_9\n      swap2\n      swap1\n      tag_10\n      jump\t// in\n    tag_9:\n      mload(0x40)\n      dup1\n      swap2\n      sub\n      swap1\n      return\n        /* \"contracts/16_Overloading.sol\":275:398  function getString2(uint256 _number) public pure returns(string memory){... */\n    tag_4:\n      tag_11\n      0x04\n      dup1\n      calldatasize\n      sub\n      dup2\n      add\n      swap1\n      tag_12\n      swap2\n      swap1\n      tag_7\n      jump\t// in\n    tag_12:\n      tag_13\n      jump\t// in\n    tag_11:\n      mload(0x40)\n      tag_14\n      swap2\n      swap1\n      tag_10\n      jump\t// in\n    tag_14:\n      mload(0x40)\n      dup1\n      swap2\n      sub\n      swap1\n      return\n        /* \"contracts/16_Overloading.sol\":146:269  function getString1(uint256 _number) public pure returns(string memory) {... */\n    tag_8:\n        /* \"contracts/16_Overloading.sol\":203:216  string memory */\n      0x60\n        /* \"contracts/16_Overloading.sol\":234:241  _number */\n      dup2\n        /* \"contracts/16_Overloading.sol\":234:253  _number.toHexString */\n      linkerSymbol(\"0051dfcbe1ca495ea516efb541e8b3690b7b33a2bd42231947ca0e2aa2657ba7\")\n      0x8fba8d5c\n      swap1\n      swap2\n        /* \"contracts/16_Overloading.sol\":234:255  _number.toHexString() */\n      mload(0x40)\n      dup3\n      0xffffffff\n      and\n      0xe0\n      shl\n      dup2\n      mstore\n      0x04\n      add\n      tag_16\n      swap2\n      swap1\n      tag_17\n      jump\t// in\n    tag_16:\n      0x00\n      mload(0x40)\n      dup1\n      dup4\n      sub\n      dup2\n      dup7\n      dup1\n      extcodesize\n      iszero\n      dup1\n      iszero\n      tag_18\n      jumpi\n      0x00\n      dup1\n      revert\n    tag_18:\n      pop\n      gas\n      delegatecall\n      iszero\n      dup1\n      iszero\n      tag_20\n      jumpi\n      returndatasize\n      0x00\n      dup1\n      returndatacopy\n      revert(0x00, returndatasize)\n    tag_20:\n      pop\n      pop\n      pop\n      pop\n      mload(0x40)\n      returndatasize\n      0x00\n      dup3\n      returndatacopy\n      returndatasize\n      not(0x1f)\n      0x1f\n      dup3\n      add\n      and\n      dup3\n      add\n      dup1\n      0x40\n      mstore\n      pop\n      dup2\n      add\n      swap1\n      tag_21\n      swap2\n      swap1\n      tag_22\n      jump\t// in\n    tag_21:\n        /* \"contracts/16_Overloading.sol\":227:255  return _number.toHexString() */\n      swap1\n      pop\n        /* \"contracts/16_Overloading.sol\":146:269  function getString1(uint256 _number) public pure returns(string memory) {... */\n      swap2\n      swap1\n      pop\n      jump\t// out\n        /* \"contracts/16_Overloading.sol\":275:398  function getString2(uint256 _number) public pure returns(string memory){... */\n    tag_13:\n        /* \"contracts/16_Overloading.sol\":332:345  string memory */\n      0x60\n        /* \"contracts/16_Overloading.sol\":363:370  Strings */\n      linkerSymbol(\"0051dfcbe1ca495ea516efb541e8b3690b7b33a2bd42231947ca0e2aa2657ba7\")\n        /* \"contracts/16_Overloading.sol\":363:382  Strings.toHexString */\n      0x8fba8d5c\n        /* \"contracts/16_Overloading.sol\":383:390  _number */\n      dup4\n        /* \"contracts/16_Overloading.sol\":363:391  Strings.toHexString(_number) */\n      mload(0x40)\n      dup3\n      0xffffffff\n      and\n      0xe0\n      shl\n      dup2\n      mstore\n      0x04\n      add\n      tag_24\n      swap2\n      swap1\n      tag_17\n      jump\t// in\n    tag_24:\n      0x00\n      mload(0x40)\n      dup1\n      dup4\n      sub\n      dup2\n      dup7\n      dup1\n      extcodesize\n      iszero\n      dup1\n      iszero\n      tag_25\n      jumpi\n      0x00\n      dup1\n      revert\n    tag_25:\n      pop\n      gas\n      delegatecall\n      iszero\n      dup1\n      iszero\n      tag_27\n      jumpi\n      returndatasize\n      0x00\n      dup1\n      returndatacopy\n      revert(0x00, returndatasize)\n    tag_27:\n      pop\n      pop\n      pop\n      pop\n      mload(0x40)\n      returndatasize\n      0x00\n      dup3\n      returndatacopy\n      returndatasize\n      not(0x1f)\n      0x1f\n      dup3\n      add\n      and\n      dup3\n      add\n      dup1\n      0x40\n      mstore\n      pop\n      dup2\n      add\n      swap1\n      tag_28\n      swap2\n      swap1\n      tag_22\n      jump\t// in\n    tag_28:\n        /* \"contracts/16_Overloading.sol\":356:391  return Strings.toHexString(_number) */\n      swap1\n      pop\n        /* \"contracts/16_Overloading.sol\":275:398  function getString2(uint256 _number) public pure returns(string memory){... */\n      swap2\n      swap1\n      pop\n      jump\t// out\n        /* \"#utility.yul\":7:428   */\n    tag_30:\n        /* \"#utility.yul\":96:101   */\n      0x00\n        /* \"#utility.yul\":121:187   */\n      tag_32\n        /* \"#utility.yul\":137:186   */\n      tag_33\n        /* \"#utility.yul\":179:185   */\n      dup5\n        /* \"#utility.yul\":137:186   */\n      tag_34\n      jump\t// in\n    tag_33:\n        /* \"#utility.yul\":121:187   */\n      tag_35\n      jump\t// in\n    tag_32:\n        /* \"#utility.yul\":112:187   */\n      swap1\n      pop\n        /* \"#utility.yul\":210:216   */\n      dup3\n        /* \"#utility.yul\":203:208   */\n      dup2\n        /* \"#utility.yul\":196:217   */\n      mstore\n        /* \"#utility.yul\":248:252   */\n      0x20\n        /* \"#utility.yul\":241:246   */\n      dup2\n        /* \"#utility.yul\":237:253   */\n      add\n        /* \"#utility.yul\":286:289   */\n      dup5\n        /* \"#utility.yul\":277:283   */\n      dup5\n        /* \"#utility.yul\":272:275   */\n      dup5\n        /* \"#utility.yul\":268:284   */\n      add\n        /* \"#utility.yul\":265:290   */\n      gt\n        /* \"#utility.yul\":262:374   */\n      iszero\n      tag_36\n      jumpi\n        /* \"#utility.yul\":293:372   */\n      tag_37\n      tag_38\n      jump\t// in\n    tag_37:\n        /* \"#utility.yul\":262:374   */\n    tag_36:\n        /* \"#utility.yul\":383:422   */\n      tag_39\n        /* \"#utility.yul\":415:421   */\n      dup5\n        /* \"#utility.yul\":410:413   */\n      dup3\n        /* \"#utility.yul\":405:408   */\n      dup6\n        /* \"#utility.yul\":383:422   */\n      tag_40\n      jump\t// in\n    tag_39:\n        /* \"#utility.yul\":102:428   */\n      pop\n        /* \"#utility.yul\":7:428   */\n      swap4\n      swap3\n      pop\n      pop\n      pop\n      jump\t// out\n        /* \"#utility.yul\":448:803   */\n    tag_41:\n        /* \"#utility.yul\":515:520   */\n      0x00\n        /* \"#utility.yul\":564:567   */\n      dup3\n        /* \"#utility.yul\":557:561   */\n      0x1f\n        /* \"#utility.yul\":549:555   */\n      dup4\n        /* \"#utility.yul\":545:562   */\n      add\n        /* \"#utility.yul\":541:568   */\n      slt\n        /* \"#utility.yul\":531:653   */\n      tag_43\n      jumpi\n        /* \"#utility.yul\":572:651   */\n      tag_44\n      tag_45\n      jump\t// in\n    tag_44:\n        /* \"#utility.yul\":531:653   */\n    tag_43:\n        /* \"#utility.yul\":682:688   */\n      dup2\n        /* \"#utility.yul\":676:689   */\n      mload\n        /* \"#utility.yul\":707:797   */\n      tag_46\n        /* \"#utility.yul\":793:796   */\n      dup5\n        /* \"#utility.yul\":785:791   */\n      dup3\n        /* \"#utility.yul\":778:782   */\n      0x20\n        /* \"#utility.yul\":770:776   */\n      dup7\n        /* \"#utility.yul\":766:783   */\n      add\n        /* \"#utility.yul\":707:797   */\n      tag_30\n      jump\t// in\n    tag_46:\n        /* \"#utility.yul\":698:797   */\n      swap2\n      pop\n        /* \"#utility.yul\":521:803   */\n      pop\n        /* \"#utility.yul\":448:803   */\n      swap3\n      swap2\n      pop\n      pop\n      jump\t// out\n        /* \"#utility.yul\":809:948   */\n    tag_47:\n        /* \"#utility.yul\":855:860   */\n      0x00\n        /* \"#utility.yul\":893:899   */\n      dup2\n        /* \"#utility.yul\":880:900   */\n      calldataload\n        /* \"#utility.yul\":871:900   */\n      swap1\n      pop\n        /* \"#utility.yul\":909:942   */\n      tag_49\n        /* \"#utility.yul\":936:941   */\n      dup2\n        /* \"#utility.yul\":909:942   */\n      tag_50\n      jump\t// in\n    tag_49:\n        /* \"#utility.yul\":809:948   */\n      swap3\n      swap2\n      pop\n      pop\n      jump\t// out\n        /* \"#utility.yul\":954:1478   */\n    tag_22:\n        /* \"#utility.yul\":1034:1040   */\n      0x00\n        /* \"#utility.yul\":1083:1085   */\n      0x20\n        /* \"#utility.yul\":1071:1080   */\n      dup3\n        /* \"#utility.yul\":1062:1069   */\n      dup5\n        /* \"#utility.yul\":1058:1081   */\n      sub\n        /* \"#utility.yul\":1054:1086   */\n      slt\n        /* \"#utility.yul\":1051:1170   */\n      iszero\n      tag_52\n      jumpi\n        /* \"#utility.yul\":1089:1168   */\n      tag_53\n      tag_54\n      jump\t// in\n    tag_53:\n        /* \"#utility.yul\":1051:1170   */\n    tag_52:\n        /* \"#utility.yul\":1230:1231   */\n      0x00\n        /* \"#utility.yul\":1219:1228   */\n      dup3\n        /* \"#utility.yul\":1215:1232   */\n      add\n        /* \"#utility.yul\":1209:1233   */\n      mload\n        /* \"#utility.yul\":1260:1278   */\n      0xffffffffffffffff\n        /* \"#utility.yul\":1252:1258   */\n      dup2\n        /* \"#utility.yul\":1249:1279   */\n      gt\n        /* \"#utility.yul\":1246:1363   */\n      iszero\n      tag_55\n      jumpi\n        /* \"#utility.yul\":1282:1361   */\n      tag_56\n      tag_57\n      jump\t// in\n    tag_56:\n        /* \"#utility.yul\":1246:1363   */\n    tag_55:\n        /* \"#utility.yul\":1387:1461   */\n      tag_58\n        /* \"#utility.yul\":1453:1460   */\n      dup5\n        /* \"#utility.yul\":1444:1450   */\n      dup3\n        /* \"#utility.yul\":1433:1442   */\n      dup6\n        /* \"#utility.yul\":1429:1451   */\n      add\n        /* \"#utility.yul\":1387:1461   */\n      tag_41\n      jump\t// in\n    tag_58:\n        /* \"#utility.yul\":1377:1461   */\n      swap2\n      pop\n        /* \"#utility.yul\":1180:1471   */\n      pop\n        /* \"#utility.yul\":954:1478   */\n      swap3\n      swap2\n      pop\n      pop\n      jump\t// out\n        /* \"#utility.yul\":1484:1813   */\n    tag_7:\n        /* \"#utility.yul\":1543:1549   */\n      0x00\n        /* \"#utility.yul\":1592:1594   */\n      0x20\n        /* \"#utility.yul\":1580:1589   */\n      dup3\n        /* \"#utility.yul\":1571:1578   */\n      dup5\n        /* \"#utility.yul\":1567:1590   */\n      sub\n        /* \"#utility.yul\":1563:1595   */\n      slt\n        /* \"#utility.yul\":1560:1679   */\n      iszero\n      tag_60\n      jumpi\n        /* \"#utility.yul\":1598:1677   */\n      tag_61\n      tag_54\n      jump\t// in\n    tag_61:\n        /* \"#utility.yul\":1560:1679   */\n    tag_60:\n        /* \"#utility.yul\":1718:1719   */\n      0x00\n        /* \"#utility.yul\":1743:1796   */\n      tag_62\n        /* \"#utility.yul\":1788:1795   */\n      dup5\n        /* \"#utility.yul\":1779:1785   */\n      dup3\n        /* \"#utility.yul\":1768:1777   */\n      dup6\n        /* \"#utility.yul\":1764:1786   */\n      add\n        /* \"#utility.yul\":1743:1796   */\n      tag_47\n      jump\t// in\n    tag_62:\n        /* \"#utility.yul\":1733:1796   */\n      swap2\n      pop\n        /* \"#utility.yul\":1689:1806   */\n      pop\n        /* \"#utility.yul\":1484:1813   */\n      swap3\n      swap2\n      pop\n      pop\n      jump\t// out\n        /* \"#utility.yul\":1819:2183   */\n    tag_63:\n        /* \"#utility.yul\":1907:1910   */\n      0x00\n        /* \"#utility.yul\":1935:1974   */\n      tag_65\n        /* \"#utility.yul\":1968:1973   */\n      dup3\n        /* \"#utility.yul\":1935:1974   */\n      tag_66\n      jump\t// in\n    tag_65:\n        /* \"#utility.yul\":1990:2061   */\n      tag_67\n        /* \"#utility.yul\":2054:2060   */\n      dup2\n        /* \"#utility.yul\":2049:2052   */\n      dup6\n        /* \"#utility.yul\":1990:2061   */\n      tag_68\n      jump\t// in\n    tag_67:\n        /* \"#utility.yul\":1983:2061   */\n      swap4\n      pop\n        /* \"#utility.yul\":2070:2122   */\n      tag_69\n        /* \"#utility.yul\":2115:2121   */\n      dup2\n        /* \"#utility.yul\":2110:2113   */\n      dup6\n        /* \"#utility.yul\":2103:2107   */\n      0x20\n        /* \"#utility.yul\":2096:2101   */\n      dup7\n        /* \"#utility.yul\":2092:2108   */\n      add\n        /* \"#utility.yul\":2070:2122   */\n      tag_40\n      jump\t// in\n    tag_69:\n        /* \"#utility.yul\":2147:2176   */\n      tag_70\n        /* \"#utility.yul\":2169:2175   */\n      dup2\n        /* \"#utility.yul\":2147:2176   */\n      tag_71\n      jump\t// in\n    tag_70:\n        /* \"#utility.yul\":2142:2145   */\n      dup5\n        /* \"#utility.yul\":2138:2177   */\n      add\n        /* \"#utility.yul\":2131:2177   */\n      swap2\n      pop\n        /* \"#utility.yul\":1911:2183   */\n      pop\n        /* \"#utility.yul\":1819:2183   */\n      swap3\n      swap2\n      pop\n      pop\n      jump\t// out\n        /* \"#utility.yul\":2189:2315   */\n    tag_72:\n        /* \"#utility.yul\":2284:2308   */\n      tag_74\n        /* \"#utility.yul\":2302:2307   */\n      dup2\n        /* \"#utility.yul\":2284:2308   */\n      tag_75\n      jump\t// in\n    tag_74:\n        /* \"#utility.yul\":2279:2282   */\n      dup3\n        /* \"#utility.yul\":2272:2309   */\n      mstore\n        /* \"#utility.yul\":2189:2315   */\n      pop\n      pop\n      jump\t// out\n        /* \"#utility.yul\":2321:2634   */\n    tag_10:\n        /* \"#utility.yul\":2434:2438   */\n      0x00\n        /* \"#utility.yul\":2472:2474   */\n      0x20\n        /* \"#utility.yul\":2461:2470   */\n      dup3\n        /* \"#utility.yul\":2457:2475   */\n      add\n        /* \"#utility.yul\":2449:2475   */\n      swap1\n      pop\n        /* \"#utility.yul\":2521:2530   */\n      dup2\n        /* \"#utility.yul\":2515:2519   */\n      dup2\n        /* \"#utility.yul\":2511:2531   */\n      sub\n        /* \"#utility.yul\":2507:2508   */\n      0x00\n        /* \"#utility.yul\":2496:2505   */\n      dup4\n        /* \"#utility.yul\":2492:2509   */\n      add\n        /* \"#utility.yul\":2485:2532   */\n      mstore\n        /* \"#utility.yul\":2549:2627   */\n      tag_77\n        /* \"#utility.yul\":2622:2626   */\n      dup2\n        /* \"#utility.yul\":2613:2619   */\n      dup5\n        /* \"#utility.yul\":2549:2627   */\n      tag_63\n      jump\t// in\n    tag_77:\n        /* \"#utility.yul\":2541:2627   */\n      swap1\n      pop\n        /* \"#utility.yul\":2321:2634   */\n      swap3\n      swap2\n      pop\n      pop\n      jump\t// out\n        /* \"#utility.yul\":2640:2878   */\n    tag_17:\n        /* \"#utility.yul\":2741:2745   */\n      0x00\n        /* \"#utility.yul\":2779:2781   */\n      0x20\n        /* \"#utility.yul\":2768:2777   */\n      dup3\n        /* \"#utility.yul\":2764:2782   */\n      add\n        /* \"#utility.yul\":2756:2782   */\n      swap1\n      pop\n        /* \"#utility.yul\":2792:2871   */\n      tag_79\n        /* \"#utility.yul\":2868:2869   */\n      0x00\n        /* \"#utility.yul\":2857:2866   */\n      dup4\n        /* \"#utility.yul\":2853:2870   */\n      add\n        /* \"#utility.yul\":2844:2850   */\n      dup5\n        /* \"#utility.yul\":2792:2871   */\n      tag_72\n      jump\t// in\n    tag_79:\n        /* \"#utility.yul\":2640:2878   */\n      swap3\n      swap2\n      pop\n      pop\n      jump\t// out\n        /* \"#utility.yul\":2884:3013   */\n    tag_35:\n        /* \"#utility.yul\":2918:2924   */\n      0x00\n        /* \"#utility.yul\":2945:2965   */\n      tag_81\n      tag_82\n      jump\t// in\n    tag_81:\n        /* \"#utility.yul\":2935:2965   */\n      swap1\n      pop\n        /* \"#utility.yul\":2974:3007   */\n      tag_83\n        /* \"#utility.yul\":3002:3006   */\n      dup3\n        /* \"#utility.yul\":2994:3000   */\n      dup3\n        /* \"#utility.yul\":2974:3007   */\n      tag_84\n      jump\t// in\n    tag_83:\n        /* \"#utility.yul\":2884:3013   */\n      swap2\n      swap1\n      pop\n      jump\t// out\n        /* \"#utility.yul\":3019:3094   */\n    tag_82:\n        /* \"#utility.yul\":3052:3058   */\n      0x00\n        /* \"#utility.yul\":3085:3087   */\n      0x40\n        /* \"#utility.yul\":3079:3088   */\n      mload\n        /* \"#utility.yul\":3069:3088   */\n      swap1\n      pop\n        /* \"#utility.yul\":3019:3094   */\n      swap1\n      jump\t// out\n        /* \"#utility.yul\":3100:3408   */\n    tag_34:\n        /* \"#utility.yul\":3162:3166   */\n      0x00\n        /* \"#utility.yul\":3252:3270   */\n      0xffffffffffffffff\n        /* \"#utility.yul\":3244:3250   */\n      dup3\n        /* \"#utility.yul\":3241:3271   */\n      gt\n        /* \"#utility.yul\":3238:3294   */\n      iszero\n      tag_87\n      jumpi\n        /* \"#utility.yul\":3274:3292   */\n      tag_88\n      tag_89\n      jump\t// in\n    tag_88:\n        /* \"#utility.yul\":3238:3294   */\n    tag_87:\n        /* \"#utility.yul\":3312:3341   */\n      tag_90\n        /* \"#utility.yul\":3334:3340   */\n      dup3\n        /* \"#utility.yul\":3312:3341   */\n      tag_71\n      jump\t// in\n    tag_90:\n        /* \"#utility.yul\":3304:3341   */\n      swap1\n      pop\n        /* \"#utility.yul\":3396:3400   */\n      0x20\n        /* \"#utility.yul\":3390:3394   */\n      dup2\n        /* \"#utility.yul\":3386:3401   */\n      add\n        /* \"#utility.yul\":3378:3401   */\n      swap1\n      pop\n        /* \"#utility.yul\":3100:3408   */\n      swap2\n      swap1\n      pop\n      jump\t// out\n        /* \"#utility.yul\":3414:3513   */\n    tag_66:\n        /* \"#utility.yul\":3466:3472   */\n      0x00\n        /* \"#utility.yul\":3500:3505   */\n      dup2\n        /* \"#utility.yul\":3494:3506   */\n      mload\n        /* \"#utility.yul\":3484:3506   */\n      swap1\n      pop\n        /* \"#utility.yul\":3414:3513   */\n      swap2\n      swap1\n      pop\n      jump\t// out\n        /* \"#utility.yul\":3519:3688   */\n    tag_68:\n        /* \"#utility.yul\":3603:3614   */\n      0x00\n        /* \"#utility.yul\":3637:3643   */\n      dup3\n        /* \"#utility.yul\":3632:3635   */\n      dup3\n        /* \"#utility.yul\":3625:3644   */\n      mstore\n        /* \"#utility.yul\":3677:3681   */\n      0x20\n        /* \"#utility.yul\":3672:3675   */\n      dup3\n        /* \"#utility.yul\":3668:3682   */\n      add\n        /* \"#utility.yul\":3653:3682   */\n      swap1\n      pop\n        /* \"#utility.yul\":3519:3688   */\n      swap3\n      swap2\n      pop\n      pop\n      jump\t// out\n        /* \"#utility.yul\":3694:3771   */\n    tag_75:\n        /* \"#utility.yul\":3731:3738   */\n      0x00\n        /* \"#utility.yul\":3760:3765   */\n      dup2\n        /* \"#utility.yul\":3749:3765   */\n      swap1\n      pop\n        /* \"#utility.yul\":3694:3771   */\n      swap2\n      swap1\n      pop\n      jump\t// out\n        /* \"#utility.yul\":3777:4084   */\n    tag_40:\n        /* \"#utility.yul\":3845:3846   */\n      0x00\n        /* \"#utility.yul\":3855:3968   */\n    tag_95:\n        /* \"#utility.yul\":3869:3875   */\n      dup4\n        /* \"#utility.yul\":3866:3867   */\n      dup2\n        /* \"#utility.yul\":3863:3876   */\n      lt\n        /* \"#utility.yul\":3855:3968   */\n      iszero\n      tag_97\n      jumpi\n        /* \"#utility.yul\":3954:3955   */\n      dup1\n        /* \"#utility.yul\":3949:3952   */\n      dup3\n        /* \"#utility.yul\":3945:3956   */\n      add\n        /* \"#utility.yul\":3939:3957   */\n      mload\n        /* \"#utility.yul\":3935:3936   */\n      dup2\n        /* \"#utility.yul\":3930:3933   */\n      dup5\n        /* \"#utility.yul\":3926:3937   */\n      add\n        /* \"#utility.yul\":3919:3958   */\n      mstore\n        /* \"#utility.yul\":3891:3893   */\n      0x20\n        /* \"#utility.yul\":3888:3889   */\n      dup2\n        /* \"#utility.yul\":3884:3894   */\n      add\n        /* \"#utility.yul\":3879:3894   */\n      swap1\n      pop\n        /* \"#utility.yul\":3855:3968   */\n      jump(tag_95)\n    tag_97:\n        /* \"#utility.yul\":3986:3992   */\n      dup4\n        /* \"#utility.yul\":3983:3984   */\n      dup2\n        /* \"#utility.yul\":3980:3993   */\n      gt\n        /* \"#utility.yul\":3977:4078   */\n      iszero\n      tag_98\n      jumpi\n        /* \"#utility.yul\":4066:4067   */\n      0x00\n        /* \"#utility.yul\":4057:4063   */\n      dup5\n        /* \"#utility.yul\":4052:4055   */\n      dup5\n        /* \"#utility.yul\":4048:4064   */\n      add\n        /* \"#utility.yul\":4041:4068   */\n      mstore\n        /* \"#utility.yul\":3977:4078   */\n    tag_98:\n        /* \"#utility.yul\":3826:4084   */\n      pop\n        /* \"#utility.yul\":3777:4084   */\n      pop\n      pop\n      pop\n      jump\t// out\n        /* \"#utility.yul\":4090:4371   */\n    tag_84:\n        /* \"#utility.yul\":4173:4200   */\n      tag_100\n        /* \"#utility.yul\":4195:4199   */\n      dup3\n        /* \"#utility.yul\":4173:4200   */\n      tag_71\n      jump\t// in\n    tag_100:\n        /* \"#utility.yul\":4165:4171   */\n      dup2\n        /* \"#utility.yul\":4161:4201   */\n      add\n        /* \"#utility.yul\":4303:4309   */\n      dup2\n        /* \"#utility.yul\":4291:4301   */\n      dup2\n        /* \"#utility.yul\":4288:4310   */\n      lt\n        /* \"#utility.yul\":4267:4285   */\n      0xffffffffffffffff\n        /* \"#utility.yul\":4255:4265   */\n      dup3\n        /* \"#utility.yul\":4252:4286   */\n      gt\n        /* \"#utility.yul\":4249:4311   */\n      or\n        /* \"#utility.yul\":4246:4334   */\n      iszero\n      tag_101\n      jumpi\n        /* \"#utility.yul\":4314:4332   */\n      tag_102\n      tag_89\n      jump\t// in\n    tag_102:\n        /* \"#utility.yul\":4246:4334   */\n    tag_101:\n        /* \"#utility.yul\":4354:4364   */\n      dup1\n        /* \"#utility.yul\":4350:4352   */\n      0x40\n        /* \"#utility.yul\":4343:4365   */\n      mstore\n        /* \"#utility.yul\":4133:4371   */\n      pop\n        /* \"#utility.yul\":4090:4371   */\n      pop\n      pop\n      jump\t// out\n        /* \"#utility.yul\":4377:4557   */\n    tag_89:\n        /* \"#utility.yul\":4425:4502   */\n      0x4e487b7100000000000000000000000000000000000000000000000000000000\n        /* \"#utility.yul\":4422:4423   */\n      0x00\n        /* \"#utility.yul\":4415:4503   */\n      mstore\n        /* \"#utility.yul\":4522:4526   */\n      0x41\n        /* \"#utility.yul\":4519:4520   */\n      0x04\n        /* \"#utility.yul\":4512:4527   */\n      mstore\n        /* \"#utility.yul\":4546:4550   */\n      0x24\n        /* \"#utility.yul\":4543:4544   */\n      0x00\n        /* \"#utility.yul\":4536:4551   */\n      revert\n        /* \"#utility.yul\":4563:4680   */\n    tag_45:\n        /* \"#utility.yul\":4672:4673   */\n      0x00\n        /* \"#utility.yul\":4669:4670   */\n      dup1\n        /* \"#utility.yul\":4662:4674   */\n      revert\n        /* \"#utility.yul\":4686:4803   */\n    tag_38:\n        /* \"#utility.yul\":4795:4796   */\n      0x00\n        /* \"#utility.yul\":4792:4793   */\n      dup1\n        /* \"#utility.yul\":4785:4797   */\n      revert\n        /* \"#utility.yul\":4809:4926   */\n    tag_57:\n        /* \"#utility.yul\":4918:4919   */\n      0x00\n        /* \"#utility.yul\":4915:4916   */\n      dup1\n        /* \"#utility.yul\":4908:4920   */\n      revert\n        /* \"#utility.yul\":4932:5049   */\n    tag_54:\n        /* \"#utility.yul\":5041:5042   */\n      0x00\n        /* \"#utility.yul\":5038:5039   */\n      dup1\n        /* \"#utility.yul\":5031:5043   */\n      revert\n        /* \"#utility.yul\":5055:5157   */\n    tag_71:\n        /* \"#utility.yul\":5096:5102   */\n      0x00\n        /* \"#utility.yul\":5147:5149   */\n      0x1f\n        /* \"#utility.yul\":5143:5150   */\n      not\n        /* \"#utility.yul\":5138:5140   */\n      0x1f\n        /* \"#utility.yul\":5131:5136   */\n      dup4\n        /* \"#utility.yul\":5127:5141   */\n      add\n        /* \"#utility.yul\":5123:5151   */\n      and\n        /* \"#utility.yul\":5113:5151   */\n      swap1\n      pop\n        /* \"#utility.yul\":5055:5157   */\n      swap2\n      swap1\n      pop\n      jump\t// out\n        /* \"#utility.yul\":5163:5285   */\n    tag_50:\n        /* \"#utility.yul\":5236:5260   */\n      tag_110\n        /* \"#utility.yul\":5254:5259   */\n      dup2\n        /* \"#utility.yul\":5236:5260   */\n      tag_75\n      jump\t// in\n    tag_110:\n        /* \"#utility.yul\":5229:5234   */\n      dup2\n        /* \"#utility.yul\":5226:5261   */\n      eq\n        /* \"#utility.yul\":5216:5279   */\n      tag_111\n      jumpi\n        /* \"#utility.yul\":5275:5276   */\n      0x00\n        /* \"#utility.yul\":5272:5273   */\n      dup1\n        /* \"#utility.yul\":5265:5277   */\n      revert\n        /* \"#utility.yul\":5216:5279   */\n    tag_111:\n        /* \"#utility.yul\":5163:5285   */\n      pop\n      jump\t// out\n\n    auxdata: 0xa26469706673582212205e68d3064bee8cc0f09055ccb0b14a595502a2faab6089240b6c1f81e1f5c86664736f6c63430008070033\n}\n",
				"bytecode": {
					"linkReferences": {
						"utils/Strings.sol": {
							"Strings": [
								{
									"length": 20,
									"start": 192
								},
								{
									"length": 20,
									"start": 342
								}
							]
						}
					},
					"object": "608060405234801561001057600080fd5b506104c8806100206000396000f3fe608060405234801561001057600080fd5b50600436106100365760003560e01c8063d6ee0f321461003b578063e65eac981461006b575b600080fd5b61005560048036038101906100509190610295565b61009b565b604051610062919061030a565b60405180910390f35b61008560048036038101906100809190610295565b610132565b604051610092919061030a565b60405180910390f35b60608173__$0051dfcbe1ca495ea516efb541e8b3690b$__638fba8d5c90916040518263ffffffff1660e01b81526004016100d6919061032c565b60006040518083038186803b1580156100ee57600080fd5b505af4158015610102573d6000803e3d6000fd5b505050506040513d6000823e3d601f19601f8201168201806040525081019061012b919061024c565b9050919050565b606073__$0051dfcbe1ca495ea516efb541e8b3690b$__638fba8d5c836040518263ffffffff1660e01b815260040161016b919061032c565b60006040518083038186803b15801561018357600080fd5b505af4158015610197573d6000803e3d6000fd5b505050506040513d6000823e3d601f19601f820116820180604052508101906101c0919061024c565b9050919050565b60006101da6101d58461036c565b610347565b9050828152602081018484840111156101f6576101f561045b565b5b6102018482856103c3565b509392505050565b600082601f83011261021e5761021d610456565b5b815161022e8482602086016101c7565b91505092915050565b6000813590506102468161047b565b92915050565b60006020828403121561026257610261610465565b5b600082015167ffffffffffffffff8111156102805761027f610460565b5b61028c84828501610209565b91505092915050565b6000602082840312156102ab576102aa610465565b5b60006102b984828501610237565b91505092915050565b60006102cd8261039d565b6102d781856103a8565b93506102e78185602086016103c3565b6102f08161046a565b840191505092915050565b610304816103b9565b82525050565b6000602082019050818103600083015261032481846102c2565b905092915050565b600060208201905061034160008301846102fb565b92915050565b6000610351610362565b905061035d82826103f6565b919050565b6000604051905090565b600067ffffffffffffffff82111561038757610386610427565b5b6103908261046a565b9050602081019050919050565b600081519050919050565b600082825260208201905092915050565b6000819050919050565b60005b838110156103e15780820151818401526020810190506103c6565b838111156103f0576000848401525b50505050565b6103ff8261046a565b810181811067ffffffffffffffff8211171561041e5761041d610427565b5b80604052505050565b7f4e487b7100000000000000000000000000000000000000000000000000000000600052604160045260246000fd5b600080fd5b600080fd5b600080fd5b600080fd5b6000601f19601f8301169050919050565b610484816103b9565b811461048f57600080fd5b5056fea26469706673582212205e68d3064bee8cc0f09055ccb0b14a595502a2faab6089240b6c1f81e1f5c86664736f6c63430008070033",
					"opcodes": "PUSH1 0x80 PUSH1 0x40 MSTORE CALLVALUE DUP1 ISZERO PUSH2 0x10 JUMPI PUSH1 0x0 DUP1 REVERT JUMPDEST POP PUSH2 0x4C8 DUP1 PUSH2 0x20 PUSH1 0x0 CODECOPY PUSH1 0x0 RETURN INVALID PUSH1 0x80 PUSH1 0x40 MSTORE CALLVALUE DUP1 ISZERO PUSH2 0x10 JUMPI PUSH1 0x0 DUP1 REVERT JUMPDEST POP PUSH1 0x4 CALLDATASIZE LT PUSH2 0x36 JUMPI PUSH1 0x0 CALLDATALOAD PUSH1 0xE0 SHR DUP1 PUSH4 0xD6EE0F32 EQ PUSH2 0x3B JUMPI DUP1 PUSH4 0xE65EAC98 EQ PUSH2 0x6B JUMPI JUMPDEST PUSH1 0x0 DUP1 REVERT JUMPDEST PUSH2 0x55 PUSH1 0x4 DUP1 CALLDATASIZE SUB DUP2 ADD SWAP1 PUSH2 0x50 SWAP2 SWAP1 PUSH2 0x295 JUMP JUMPDEST PUSH2 0x9B JUMP JUMPDEST PUSH1 0x40 MLOAD PUSH2 0x62 SWAP2 SWAP1 PUSH2 0x30A JUMP JUMPDEST PUSH1 0x40 MLOAD DUP1 SWAP2 SUB SWAP1 RETURN JUMPDEST PUSH2 0x85 PUSH1 0x4 DUP1 CALLDATASIZE SUB DUP2 ADD SWAP1 PUSH2 0x80 SWAP2 SWAP1 PUSH2 0x295 JUMP JUMPDEST PUSH2 0x132 JUMP JUMPDEST PUSH1 0x40 MLOAD PUSH2 0x92 SWAP2 SWAP1 PUSH2 0x30A JUMP JUMPDEST PUSH1 0x40 MLOAD DUP1 SWAP2 SUB SWAP1 RETURN JUMPDEST PUSH1 0x60 DUP2 PUSH20 0x0 PUSH4 0x8FBA8D5C SWAP1 SWAP2 PUSH1 0x40 MLOAD DUP3 PUSH4 0xFFFFFFFF AND PUSH1 0xE0 SHL DUP2 MSTORE PUSH1 0x4 ADD PUSH2 0xD6 SWAP2 SWAP1 PUSH2 0x32C JUMP JUMPDEST PUSH1 0x0 PUSH1 0x40 MLOAD DUP1 DUP4 SUB DUP2 DUP7 DUP1 EXTCODESIZE ISZERO DUP1 ISZERO PUSH2 0xEE JUMPI PUSH1 0x0 DUP1 REVERT JUMPDEST POP GAS DELEGATECALL ISZERO DUP1 ISZERO PUSH2 0x102 JUMPI RETURNDATASIZE PUSH1 0x0 DUP1 RETURNDATACOPY RETURNDATASIZE PUSH1 0x0 REVERT JUMPDEST POP POP POP POP PUSH1 0x40 MLOAD RETURNDATASIZE PUSH1 0x0 DUP3 RETURNDATACOPY RETURNDATASIZE PUSH1 0x1F NOT PUSH1 0x1F DUP3 ADD AND DUP3 ADD DUP1 PUSH1 0x40 MSTORE POP DUP2 ADD SWAP1 PUSH2 0x12B SWAP2 SWAP1 PUSH2 0x24C JUMP JUMPDEST SWAP1 POP SWAP2 SWAP1 POP JUMP JUMPDEST PUSH1 0x60 PUSH20 0x0 PUSH4 0x8FBA8D5C DUP4 PUSH1 0x40 MLOAD DUP3 PUSH4 0xFFFFFFFF AND PUSH1 0xE0 SHL DUP2 MSTORE PUSH1 0x4 ADD PUSH2 0x16B SWAP2 SWAP1 PUSH2 0x32C JUMP JUMPDEST PUSH1 0x0 PUSH1 0x40 MLOAD DUP1 DUP4 SUB DUP2 DUP7 DUP1 EXTCODESIZE ISZERO DUP1 ISZERO PUSH2 0x183 JUMPI PUSH1 0x0 DUP1 REVERT JUMPDEST POP GAS DELEGATECALL ISZERO DUP1 ISZERO PUSH2 0x197 JUMPI RETURNDATASIZE PUSH1 0x0 DUP1 RETURNDATACOPY RETURNDATASIZE PUSH1 0x0 REVERT JUMPDEST POP POP POP POP PUSH1 0x40 MLOAD RETURNDATASIZE PUSH1 0x0 DUP3 RETURNDATACOPY RETURNDATASIZE PUSH1 0x1F NOT PUSH1 0x1F DUP3 ADD AND DUP3 ADD DUP1 PUSH1 0x40 MSTORE POP DUP2 ADD SWAP1 PUSH2 0x1C0 SWAP2 SWAP1 PUSH2 0x24C JUMP JUMPDEST SWAP1 POP SWAP2 SWAP1 POP JUMP JUMPDEST PUSH1 0x0 PUSH2 0x1DA PUSH2 0x1D5 DUP5 PUSH2 0x36C JUMP JUMPDEST PUSH2 0x347 JUMP JUMPDEST SWAP1 POP DUP3 DUP2 MSTORE PUSH1 0x20 DUP2 ADD DUP5 DUP5 DUP5 ADD GT ISZERO PUSH2 0x1F6 JUMPI PUSH2 0x1F5 PUSH2 0x45B JUMP JUMPDEST JUMPDEST PUSH2 0x201 DUP5 DUP3 DUP6 PUSH2 0x3C3 JUMP JUMPDEST POP SWAP4 SWAP3 POP POP POP JUMP JUMPDEST PUSH1 0x0 DUP3 PUSH1 0x1F DUP4 ADD SLT PUSH2 0x21E JUMPI PUSH2 0x21D PUSH2 0x456 JUMP JUMPDEST JUMPDEST DUP2 MLOAD PUSH2 0x22E DUP5 DUP3 PUSH1 0x20 DUP7 ADD PUSH2 0x1C7 JUMP JUMPDEST SWAP2 POP POP SWAP3 SWAP2 POP POP JUMP JUMPDEST PUSH1 0x0 DUP2 CALLDATALOAD SWAP1 POP PUSH2 0x246 DUP2 PUSH2 0x47B JUMP JUMPDEST SWAP3 SWAP2 POP POP JUMP JUMPDEST PUSH1 0x0 PUSH1 0x20 DUP3 DUP5 SUB SLT ISZERO PUSH2 0x262 JUMPI PUSH2 0x261 PUSH2 0x465 JUMP JUMPDEST JUMPDEST PUSH1 0x0 DUP3 ADD MLOAD PUSH8 0xFFFFFFFFFFFFFFFF DUP2 GT ISZERO PUSH2 0x280 JUMPI PUSH2 0x27F PUSH2 0x460 JUMP JUMPDEST JUMPDEST PUSH2 0x28C DUP5 DUP3 DUP6 ADD PUSH2 0x209 JUMP JUMPDEST SWAP2 POP POP SWAP3 SWAP2 POP POP JUMP JUMPDEST PUSH1 0x0 PUSH1 0x20 DUP3 DUP5 SUB SLT ISZERO PUSH2 0x2AB JUMPI PUSH2 0x2AA PUSH2 0x465 JUMP JUMPDEST JUMPDEST PUSH1 0x0 PUSH2 0x2B9 DUP5 DUP3 DUP6 ADD PUSH2 0x237 JUMP JUMPDEST SWAP2 POP POP SWAP3 SWAP2 POP POP JUMP JUMPDEST PUSH1 0x0 PUSH2 0x2CD DUP3 PUSH2 0x39D JUMP JUMPDEST PUSH2 0x2D7 DUP2 DUP6 PUSH2 0x3A8 JUMP JUMPDEST SWAP4 POP PUSH2 0x2E7 DUP2 DUP6 PUSH1 0x20 DUP7 ADD PUSH2 0x3C3 JUMP JUMPDEST PUSH2 0x2F0 DUP2 PUSH2 0x46A JUMP JUMPDEST DUP5 ADD SWAP2 POP POP SWAP3 SWAP2 POP POP JUMP JUMPDEST PUSH2 0x304 DUP2 PUSH2 0x3B9 JUMP JUMPDEST DUP3 MSTORE POP POP JUMP JUMPDEST PUSH1 0x0 PUSH1 0x20 DUP3 ADD SWAP1 POP DUP2 DUP2 SUB PUSH1 0x0 DUP4 ADD MSTORE PUSH2 0x324 DUP2 DUP5 PUSH2 0x2C2 JUMP JUMPDEST SWAP1 POP SWAP3 SWAP2 POP POP JUMP JUMPDEST PUSH1 0x0 PUSH1 0x20 DUP3 ADD SWAP1 POP PUSH2 0x341 PUSH1 0x0 DUP4 ADD DUP5 PUSH2 0x2FB JUMP JUMPDEST SWAP3 SWAP2 POP POP JUMP JUMPDEST PUSH1 0x0 PUSH2 0x351 PUSH2 0x362 JUMP JUMPDEST SWAP1 POP PUSH2 0x35D DUP3 DUP3 PUSH2 0x3F6 JUMP JUMPDEST SWAP2 SWAP1 POP JUMP JUMPDEST PUSH1 0x0 PUSH1 0x40 MLOAD SWAP1 POP SWAP1 JUMP JUMPDEST PUSH1 0x0 PUSH8 0xFFFFFFFFFFFFFFFF DUP3 GT ISZERO PUSH2 0x387 JUMPI PUSH2 0x386 PUSH2 0x427 JUMP JUMPDEST JUMPDEST PUSH2 0x390 DUP3 PUSH2 0x46A JUMP JUMPDEST SWAP1 POP PUSH1 0x20 DUP2 ADD SWAP1 POP SWAP2 SWAP1 POP JUMP JUMPDEST PUSH1 0x0 DUP2 MLOAD SWAP1 POP SWAP2 SWAP1 POP JUMP JUMPDEST PUSH1 0x0 DUP3 DUP3 MSTORE PUSH1 0x20 DUP3 ADD SWAP1 POP SWAP3 SWAP2 POP POP JUMP JUMPDEST PUSH1 0x0 DUP2 SWAP1 POP SWAP2 SWAP1 POP JUMP JUMPDEST PUSH1 0x0 JUMPDEST DUP4 DUP2 LT ISZERO PUSH2 0x3E1 JUMPI DUP1 DUP3 ADD MLOAD DUP2 DUP5 ADD MSTORE PUSH1 0x20 DUP2 ADD SWAP1 POP PUSH2 0x3C6 JUMP JUMPDEST DUP4 DUP2 GT ISZERO PUSH2 0x3F0 JUMPI PUSH1 0x0 DUP5 DUP5 ADD MSTORE JUMPDEST POP POP POP POP JUMP JUMPDEST PUSH2 0x3FF DUP3 PUSH2 0x46A JUMP JUMPDEST DUP2 ADD DUP2 DUP2 LT PUSH8 0xFFFFFFFFFFFFFFFF DUP3 GT OR ISZERO PUSH2 0x41E JUMPI PUSH2 0x41D PUSH2 0x427 JUMP JUMPDEST JUMPDEST DUP1 PUSH1 0x40 MSTORE POP POP POP JUMP JUMPDEST PUSH32 0x4E487B7100000000000000000000000000000000000000000000000000000000 PUSH1 0x0 MSTORE PUSH1 0x41 PUSH1 0x4 MSTORE PUSH1 0x24 PUSH1 0x0 REVERT JUMPDEST PUSH1 0x0 DUP1 REVERT JUMPDEST PUSH1 0x0 DUP1 REVERT JUMPDEST PUSH1 0x0 DUP1 REVERT JUMPDEST PUSH1 0x0 DUP1 REVERT JUMPDEST PUSH1 0x0 PUSH1 0x1F NOT PUSH1 0x1F DUP4 ADD AND SWAP1 POP SWAP2 SWAP1 POP JUMP JUMPDEST PUSH2 0x484 DUP2 PUSH2 0x3B9 JUMP JUMPDEST DUP2 EQ PUSH2 0x48F JUMPI PUSH1 0x0 DUP1 REVERT JUMPDEST POP JUMP INVALID LOG2 PUSH5 0x6970667358 0x22 SLT KECCAK256 0x5E PUSH9 0xD3064BEE8CC0F09055 0xCC 0xB0 0xB1 0x4A MSIZE SSTORE MUL LOG2 STATICCALL 0xAB PUSH1 0x89 0x24 SIGNEXTEND PUSH13 0x1F81E1F5C86664736F6C634300 ADDMOD SMOD STOP CALLER "
				},
				"gasEstimates": {
					"creation": {
						"codeDepositCost": "244800",
						"executionCost": "287",
						"totalCost": "245087"
					},
					"external": {
						"getString1(uint256)": "infinite",
						"getString2(uint256)": "infinite"
					}
				},
				"methodIdentifiers": {
					"getString1(uint256)": "d6ee0f32",
					"getString2(uint256)": "e65eac98"
				}
			},
			"storageLayout": {
				"storage": [],
				"types": null
			},
			"userdoc": {
				"kind": "user",
				"methods": {},
				"version": 1
			}
		}
	}
}