{
	"contracts/StakePool.sol": {
		"StakePool": {
			"abi": [
				{
					"inputs": [
						{
							"internalType": "address",
							"name": "_tokenAddress",
							"type": "address"
						}
					],
					"stateMutability": "nonpayable",
					"type": "constructor"
				},
				{
					"anonymous": false,
					"inputs": [
						{
							"indexed": true,
							"internalType": "address",
							"name": "user",
							"type": "address"
						},
						{
							"indexed": false,
							"internalType": "uint256",
							"name": "receiveNumber",
							"type": "uint256"
						}
					],
					"name": "Receive",
					"type": "event"
				},
				{
					"anonymous": false,
					"inputs": [
						{
							"indexed": true,
							"internalType": "address",
							"name": "user",
							"type": "address"
						},
						{
							"indexed": false,
							"internalType": "uint256",
							"name": "stakeNumber",
							"type": "uint256"
						}
					],
					"name": "Stake",
					"type": "event"
				},
				{
					"anonymous": false,
					"inputs": [
						{
							"indexed": true,
							"internalType": "address",
							"name": "user",
							"type": "address"
						},
						{
							"indexed": false,
							"internalType": "uint256",
							"name": "unStakeNumber",
							"type": "uint256"
						}
					],
					"name": "UnStake",
					"type": "event"
				},
				{
					"anonymous": false,
					"inputs": [
						{
							"indexed": false,
							"internalType": "uint8",
							"name": "ratio",
							"type": "uint8"
						}
					],
					"name": "UpdateRatio",
					"type": "event"
				},
				{
					"inputs": [],
					"name": "ierc20",
					"outputs": [
						{
							"internalType": "contract IERC20",
							"name": "",
							"type": "address"
						}
					],
					"stateMutability": "view",
					"type": "function"
				},
				{
					"inputs": [],
					"name": "owner",
					"outputs": [
						{
							"internalType": "address",
							"name": "",
							"type": "address"
						}
					],
					"stateMutability": "view",
					"type": "function"
				},
				{
					"inputs": [],
					"name": "ratio",
					"outputs": [
						{
							"internalType": "uint256",
							"name": "",
							"type": "uint256"
						}
					],
					"stateMutability": "view",
					"type": "function"
				},
				{
					"inputs": [
						{
							"internalType": "uint256",
							"name": "_stakeNumber",
							"type": "uint256"
						}
					],
					"name": "stake",
					"outputs": [],
					"stateMutability": "payable",
					"type": "function"
				},
				{
					"inputs": [],
					"name": "tokenAddress",
					"outputs": [
						{
							"internalType": "address",
							"name": "",
							"type": "address"
						}
					],
					"stateMutability": "view",
					"type": "function"
				},
				{
					"inputs": [],
					"name": "totalStakeNumber",
					"outputs": [
						{
							"internalType": "uint256",
							"name": "",
							"type": "uint256"
						}
					],
					"stateMutability": "view",
					"type": "function"
				},
				{
					"inputs": [],
					"name": "unStake",
					"outputs": [],
					"stateMutability": "payable",
					"type": "function"
				},
				{
					"inputs": [
						{
							"internalType": "address",
							"name": "",
							"type": "address"
						}
					],
					"name": "userStakes",
					"outputs": [
						{
							"internalType": "uint256",
							"name": "stakeNumber",
							"type": "uint256"
						},
						{
							"internalType": "uint256",
							"name": "currentInterest",
							"type": "uint256"
						},
						{
							"internalType": "uint256",
							"name": "claimedInterest",
							"type": "uint256"
						},
						{
							"internalType": "uint256",
							"name": "lastInerest",
							"type": "uint256"
						},
						{
							"internalType": "uint256",
							"name": "lastStakeTime",
							"type": "uint256"
						}
					],
					"stateMutability": "view",
					"type": "function"
				}
			],
			"devdoc": {
				"kind": "dev",
				"methods": {},
				"version": 1
			},
			"evm": {
				"assembly": "    /* \"contracts/StakePool.sol\":702:2462  contract StakePool{... */\n  mstore(0x40, 0x80)\n    /* \"contracts/StakePool.sol\":1194:1195  1 */\n  0x01\n    /* \"contracts/StakePool.sol\":1160:1195  uint256 public totalStakeNumber = 1 */\n  0x00\n  sstore\n    /* \"contracts/StakePool.sol\":1430:1570  constructor(address _tokenAddress) {... */\n  callvalue\n  dup1\n  iszero\n  tag_1\n  jumpi\n  0x00\n  dup1\n  revert\ntag_1:\n  pop\n  mload(0x40)\n  sub(codesize, bytecodeSize)\n  dup1\n  bytecodeSize\n  dup4\n  codecopy\n  dup2\n  dup2\n  add\n  0x40\n  mstore\n  dup2\n  add\n  swap1\n  tag_2\n  swap2\n  swap1\n  tag_3\n  jump\t// in\ntag_2:\n    /* \"contracts/StakePool.sol\":1490:1503  _tokenAddress */\n  dup1\n    /* \"contracts/StakePool.sol\":1475:1487  tokenAddress */\n  0x01\n  0x00\n    /* \"contracts/StakePool.sol\":1475:1503  tokenAddress = _tokenAddress */\n  0x0100\n  exp\n  dup2\n  sload\n  dup2\n  0xffffffffffffffffffffffffffffffffffffffff\n  mul\n  not\n  and\n  swap1\n  dup4\n  0xffffffffffffffffffffffffffffffffffffffff\n  and\n  mul\n  or\n  swap1\n  sstore\n  pop\n    /* \"contracts/StakePool.sol\":1529:1542  _tokenAddress */\n  dup1\n    /* \"contracts/StakePool.sol\":1513:1519  ierc20 */\n  0x05\n  0x00\n    /* \"contracts/StakePool.sol\":1513:1543  ierc20 = IERC20(_tokenAddress) */\n  0x0100\n  exp\n  dup2\n  sload\n  dup2\n  0xffffffffffffffffffffffffffffffffffffffff\n  mul\n  not\n  and\n  swap1\n  dup4\n  0xffffffffffffffffffffffffffffffffffffffff\n  and\n  mul\n  or\n  swap1\n  sstore\n  pop\n    /* \"contracts/StakePool.sol\":1561:1563  50 */\n  0x32\n    /* \"contracts/StakePool.sol\":1553:1558  ratio */\n  0x03\n    /* \"contracts/StakePool.sol\":1553:1563  ratio = 50 */\n  dup2\n  swap1\n  sstore\n  pop\n    /* \"contracts/StakePool.sol\":1430:1570  constructor(address _tokenAddress) {... */\n  pop\n    /* \"contracts/StakePool.sol\":702:2462  contract StakePool{... */\n  jump(tag_6)\n    /* \"#utility.yul\":88:205   */\ntag_8:\n    /* \"#utility.yul\":197:198   */\n  0x00\n    /* \"#utility.yul\":194:195   */\n  dup1\n    /* \"#utility.yul\":187:199   */\n  revert\n    /* \"#utility.yul\":334:460   */\ntag_10:\n    /* \"#utility.yul\":371:378   */\n  0x00\n    /* \"#utility.yul\":411:453   */\n  0xffffffffffffffffffffffffffffffffffffffff\n    /* \"#utility.yul\":404:409   */\n  dup3\n    /* \"#utility.yul\":400:454   */\n  and\n    /* \"#utility.yul\":389:454   */\n  swap1\n  pop\n    /* \"#utility.yul\":334:460   */\n  swap2\n  swap1\n  pop\n  jump\t// out\n    /* \"#utility.yul\":466:562   */\ntag_11:\n    /* \"#utility.yul\":503:510   */\n  0x00\n    /* \"#utility.yul\":532:556   */\n  tag_20\n    /* \"#utility.yul\":550:555   */\n  dup3\n    /* \"#utility.yul\":532:556   */\n  tag_10\n  jump\t// in\ntag_20:\n    /* \"#utility.yul\":521:556   */\n  swap1\n  pop\n    /* \"#utility.yul\":466:562   */\n  swap2\n  swap1\n  pop\n  jump\t// out\n    /* \"#utility.yul\":568:690   */\ntag_12:\n    /* \"#utility.yul\":641:665   */\n  tag_22\n    /* \"#utility.yul\":659:664   */\n  dup2\n    /* \"#utility.yul\":641:665   */\n  tag_11\n  jump\t// in\ntag_22:\n    /* \"#utility.yul\":634:639   */\n  dup2\n    /* \"#utility.yul\":631:666   */\n  eq\n    /* \"#utility.yul\":621:684   */\n  tag_23\n  jumpi\n    /* \"#utility.yul\":680:681   */\n  0x00\n    /* \"#utility.yul\":677:678   */\n  dup1\n    /* \"#utility.yul\":670:682   */\n  revert\n    /* \"#utility.yul\":621:684   */\ntag_23:\n    /* \"#utility.yul\":568:690   */\n  pop\n  jump\t// out\n    /* \"#utility.yul\":696:839   */\ntag_13:\n    /* \"#utility.yul\":753:758   */\n  0x00\n    /* \"#utility.yul\":784:790   */\n  dup2\n    /* \"#utility.yul\":778:791   */\n  mload\n    /* \"#utility.yul\":769:791   */\n  swap1\n  pop\n    /* \"#utility.yul\":800:833   */\n  tag_25\n    /* \"#utility.yul\":827:832   */\n  dup2\n    /* \"#utility.yul\":800:833   */\n  tag_12\n  jump\t// in\ntag_25:\n    /* \"#utility.yul\":696:839   */\n  swap3\n  swap2\n  pop\n  pop\n  jump\t// out\n    /* \"#utility.yul\":845:1196   */\ntag_3:\n    /* \"#utility.yul\":915:921   */\n  0x00\n    /* \"#utility.yul\":964:966   */\n  0x20\n    /* \"#utility.yul\":952:961   */\n  dup3\n    /* \"#utility.yul\":943:950   */\n  dup5\n    /* \"#utility.yul\":939:962   */\n  sub\n    /* \"#utility.yul\":935:967   */\n  slt\n    /* \"#utility.yul\":932:1051   */\n  iszero\n  tag_27\n  jumpi\n    /* \"#utility.yul\":970:1049   */\n  tag_28\n  tag_8\n  jump\t// in\ntag_28:\n    /* \"#utility.yul\":932:1051   */\ntag_27:\n    /* \"#utility.yul\":1090:1091   */\n  0x00\n    /* \"#utility.yul\":1115:1179   */\n  tag_29\n    /* \"#utility.yul\":1171:1178   */\n  dup5\n    /* \"#utility.yul\":1162:1168   */\n  dup3\n    /* \"#utility.yul\":1151:1160   */\n  dup6\n    /* \"#utility.yul\":1147:1169   */\n  add\n    /* \"#utility.yul\":1115:1179   */\n  tag_13\n  jump\t// in\ntag_29:\n    /* \"#utility.yul\":1105:1179   */\n  swap2\n  pop\n    /* \"#utility.yul\":1061:1189   */\n  pop\n    /* \"#utility.yul\":845:1196   */\n  swap3\n  swap2\n  pop\n  pop\n  jump\t// out\n    /* \"contracts/StakePool.sol\":702:2462  contract StakePool{... */\ntag_6:\n  dataSize(sub_0)\n  dup1\n  dataOffset(sub_0)\n  0x00\n  codecopy\n  0x00\n  return\nstop\n\nsub_0: assembly {\n        /* \"contracts/StakePool.sol\":702:2462  contract StakePool{... */\n      mstore(0x40, 0x80)\n      jumpi(tag_1, lt(calldatasize, 0x04))\n      shr(0xe0, calldataload(0x00))\n      dup1\n      0x8da7ad23\n      gt\n      tag_10\n      jumpi\n      dup1\n      0x8da7ad23\n      eq\n      tag_6\n      jumpi\n      dup1\n      0x9d76ea58\n      eq\n      tag_7\n      jumpi\n      dup1\n      0xa694fc3a\n      eq\n      tag_8\n      jumpi\n      dup1\n      0xbf0ae63d\n      eq\n      tag_9\n      jumpi\n      jump(tag_1)\n    tag_10:\n      dup1\n      0x53b645e5\n      eq\n      tag_2\n      jumpi\n      dup1\n      0x71ca337d\n      eq\n      tag_3\n      jumpi\n      dup1\n      0x73cf575a\n      eq\n      tag_4\n      jumpi\n      dup1\n      0x8da5cb5b\n      eq\n      tag_5\n      jumpi\n    tag_1:\n      0x00\n      dup1\n      revert\n        /* \"contracts/StakePool.sol\":1160:1195  uint256 public totalStakeNumber = 1 */\n    tag_2:\n      callvalue\n      dup1\n      iszero\n      tag_11\n      jumpi\n      0x00\n      dup1\n      revert\n    tag_11:\n      pop\n      tag_12\n      tag_13\n      jump\t// in\n    tag_12:\n      mload(0x40)\n      tag_14\n      swap2\n      swap1\n      tag_15\n      jump\t// in\n    tag_14:\n      mload(0x40)\n      dup1\n      swap2\n      sub\n      swap1\n      return\n        /* \"contracts/StakePool.sol\":1303:1323  uint256 public ratio */\n    tag_3:\n      callvalue\n      dup1\n      iszero\n      tag_16\n      jumpi\n      0x00\n      dup1\n      revert\n    tag_16:\n      pop\n      tag_17\n      tag_18\n      jump\t// in\n    tag_17:\n      mload(0x40)\n      tag_19\n      swap2\n      swap1\n      tag_15\n      jump\t// in\n    tag_19:\n      mload(0x40)\n      dup1\n      swap2\n      sub\n      swap1\n      return\n        /* \"contracts/StakePool.sol\":2293:2456  function unStake() external payable {... */\n    tag_4:\n      tag_20\n      tag_21\n      jump\t// in\n    tag_20:\n      stop\n        /* \"contracts/StakePool.sol\":1277:1297  address public owner */\n    tag_5:\n      callvalue\n      dup1\n      iszero\n      tag_22\n      jumpi\n      0x00\n      dup1\n      revert\n    tag_22:\n      pop\n      tag_23\n      tag_24\n      jump\t// in\n    tag_23:\n      mload(0x40)\n      tag_25\n      swap2\n      swap1\n      tag_26\n      jump\t// in\n    tag_25:\n      mload(0x40)\n      dup1\n      swap2\n      sub\n      swap1\n      return\n        /* \"contracts/StakePool.sol\":1355:1397  mapping(address => User) public userStakes */\n    tag_6:\n      callvalue\n      dup1\n      iszero\n      tag_27\n      jumpi\n      0x00\n      dup1\n      revert\n    tag_27:\n      pop\n      tag_28\n      0x04\n      dup1\n      calldatasize\n      sub\n      dup2\n      add\n      swap1\n      tag_29\n      swap2\n      swap1\n      tag_30\n      jump\t// in\n    tag_29:\n      tag_31\n      jump\t// in\n    tag_28:\n      mload(0x40)\n      tag_32\n      swap6\n      swap5\n      swap4\n      swap3\n      swap2\n      swap1\n      tag_33\n      jump\t// in\n    tag_32:\n      mload(0x40)\n      dup1\n      swap2\n      sub\n      swap1\n      return\n        /* \"contracts/StakePool.sol\":1221:1248  address public tokenAddress */\n    tag_7:\n      callvalue\n      dup1\n      iszero\n      tag_34\n      jumpi\n      0x00\n      dup1\n      revert\n    tag_34:\n      pop\n      tag_35\n      tag_36\n      jump\t// in\n    tag_35:\n      mload(0x40)\n      tag_37\n      swap2\n      swap1\n      tag_26\n      jump\t// in\n    tag_37:\n      mload(0x40)\n      dup1\n      swap2\n      sub\n      swap1\n      return\n        /* \"contracts/StakePool.sol\":1677:2287  function stake(uint256 _stakeNumber) external payable {... */\n    tag_8:\n      tag_38\n      0x04\n      dup1\n      calldatasize\n      sub\n      dup2\n      add\n      swap1\n      tag_39\n      swap2\n      swap1\n      tag_40\n      jump\t// in\n    tag_39:\n      tag_41\n      jump\t// in\n    tag_38:\n      stop\n        /* \"contracts/StakePool.sol\":1403:1423  IERC20 public ierc20 */\n    tag_9:\n      callvalue\n      dup1\n      iszero\n      tag_42\n      jumpi\n      0x00\n      dup1\n      revert\n    tag_42:\n      pop\n      tag_43\n      tag_44\n      jump\t// in\n    tag_43:\n      mload(0x40)\n      tag_45\n      swap2\n      swap1\n      tag_46\n      jump\t// in\n    tag_45:\n      mload(0x40)\n      dup1\n      swap2\n      sub\n      swap1\n      return\n        /* \"contracts/StakePool.sol\":1160:1195  uint256 public totalStakeNumber = 1 */\n    tag_13:\n      sload(0x00)\n      dup2\n      jump\t// out\n        /* \"contracts/StakePool.sol\":1303:1323  uint256 public ratio */\n    tag_18:\n      sload(0x03)\n      dup2\n      jump\t// out\n        /* \"contracts/StakePool.sol\":2293:2456  function unStake() external payable {... */\n    tag_21:\n        /* \"contracts/StakePool.sol\":2376:2382  ierc20 */\n      0x05\n      0x00\n      swap1\n      sload\n      swap1\n      0x0100\n      exp\n      swap1\n      div\n      0xffffffffffffffffffffffffffffffffffffffff\n      and\n        /* \"contracts/StakePool.sol\":2376:2391  ierc20.transfer */\n      0xffffffffffffffffffffffffffffffffffffffff\n      and\n      0xa9059cbb\n        /* \"contracts/StakePool.sol\":2392:2402  msg.sender */\n      caller\n        /* \"contracts/StakePool.sol\":2404:2414  userStakes */\n      0x04\n        /* \"contracts/StakePool.sol\":2404:2426  userStakes[msg.sender] */\n      0x00\n        /* \"contracts/StakePool.sol\":2415:2425  msg.sender */\n      caller\n        /* \"contracts/StakePool.sol\":2404:2426  userStakes[msg.sender] */\n      0xffffffffffffffffffffffffffffffffffffffff\n      and\n      0xffffffffffffffffffffffffffffffffffffffff\n      and\n      dup2\n      mstore\n      0x20\n      add\n      swap1\n      dup2\n      mstore\n      0x20\n      add\n      0x00\n      keccak256\n        /* \"contracts/StakePool.sol\":2404:2438  userStakes[msg.sender].stakeNumber */\n      0x00\n      add\n      sload\n        /* \"contracts/StakePool.sol\":2376:2439  ierc20.transfer(msg.sender, userStakes[msg.sender].stakeNumber) */\n      mload(0x40)\n      dup4\n      0xffffffff\n      and\n      0xe0\n      shl\n      dup2\n      mstore\n      0x04\n      add\n      tag_48\n      swap3\n      swap2\n      swap1\n      tag_49\n      jump\t// in\n    tag_48:\n      0x20\n      mload(0x40)\n      dup1\n      dup4\n      sub\n      dup2\n      0x00\n      dup8\n      gas\n      call\n      iszero\n      dup1\n      iszero\n      tag_51\n      jumpi\n      returndatasize\n      0x00\n      dup1\n      returndatacopy\n      revert(0x00, returndatasize)\n    tag_51:\n      pop\n      pop\n      pop\n      pop\n      mload(0x40)\n      returndatasize\n      not(0x1f)\n      0x1f\n      dup3\n      add\n      and\n      dup3\n      add\n      dup1\n      0x40\n      mstore\n      pop\n      dup2\n      add\n      swap1\n      tag_52\n      swap2\n      swap1\n      tag_53\n      jump\t// in\n    tag_52:\n      pop\n        /* \"contracts/StakePool.sol\":2293:2456  function unStake() external payable {... */\n      jump\t// out\n        /* \"contracts/StakePool.sol\":1277:1297  address public owner */\n    tag_24:\n      0x02\n      0x00\n      swap1\n      sload\n      swap1\n      0x0100\n      exp\n      swap1\n      div\n      0xffffffffffffffffffffffffffffffffffffffff\n      and\n      dup2\n      jump\t// out\n        /* \"contracts/StakePool.sol\":1355:1397  mapping(address => User) public userStakes */\n    tag_31:\n      mstore(0x20, 0x04)\n      dup1\n      0x00\n      mstore\n      keccak256(0x00, 0x40)\n      0x00\n      swap2\n      pop\n      swap1\n      pop\n      dup1\n      0x00\n      add\n      sload\n      swap1\n      dup1\n      0x01\n      add\n      sload\n      swap1\n      dup1\n      0x02\n      add\n      sload\n      swap1\n      dup1\n      0x03\n      add\n      sload\n      swap1\n      dup1\n      0x04\n      add\n      sload\n      swap1\n      pop\n      dup6\n      jump\t// out\n        /* \"contracts/StakePool.sol\":1221:1248  address public tokenAddress */\n    tag_36:\n      0x01\n      0x00\n      swap1\n      sload\n      swap1\n      0x0100\n      exp\n      swap1\n      div\n      0xffffffffffffffffffffffffffffffffffffffff\n      and\n      dup2\n      jump\t// out\n        /* \"contracts/StakePool.sol\":1677:2287  function stake(uint256 _stakeNumber) external payable {... */\n    tag_41:\n        /* \"contracts/StakePool.sol\":1741:1747  ierc20 */\n      0x05\n      0x00\n      swap1\n      sload\n      swap1\n      0x0100\n      exp\n      swap1\n      div\n      0xffffffffffffffffffffffffffffffffffffffff\n      and\n        /* \"contracts/StakePool.sol\":1741:1760  ierc20.transferFrom */\n      0xffffffffffffffffffffffffffffffffffffffff\n      and\n      0x23b872dd\n        /* \"contracts/StakePool.sol\":1761:1771  msg.sender */\n      caller\n        /* \"contracts/StakePool.sol\":1781:1785  this */\n      address\n        /* \"contracts/StakePool.sol\":1788:1800  _stakeNumber */\n      dup5\n        /* \"contracts/StakePool.sol\":1741:1801  ierc20.transferFrom(msg.sender, address(this), _stakeNumber) */\n      mload(0x40)\n      dup5\n      0xffffffff\n      and\n      0xe0\n      shl\n      dup2\n      mstore\n      0x04\n      add\n      tag_55\n      swap4\n      swap3\n      swap2\n      swap1\n      tag_56\n      jump\t// in\n    tag_55:\n      0x20\n      mload(0x40)\n      dup1\n      dup4\n      sub\n      dup2\n      0x00\n      dup8\n      gas\n      call\n      iszero\n      dup1\n      iszero\n      tag_58\n      jumpi\n      returndatasize\n      0x00\n      dup1\n      returndatacopy\n      revert(0x00, returndatasize)\n    tag_58:\n      pop\n      pop\n      pop\n      pop\n      mload(0x40)\n      returndatasize\n      not(0x1f)\n      0x1f\n      dup3\n      add\n      and\n      dup3\n      add\n      dup1\n      0x40\n      mstore\n      pop\n      dup2\n      add\n      swap1\n      tag_59\n      swap2\n      swap1\n      tag_53\n      jump\t// in\n    tag_59:\n      pop\n        /* \"contracts/StakePool.sol\":2050:2058  31536000 */\n      0x01e13380\n        /* \"contracts/StakePool.sol\":2044:2047  100 */\n      0x64\n        /* \"contracts/StakePool.sol\":2036:2041  ratio */\n      sload(0x03)\n        /* \"contracts/StakePool.sol\":1999:2009  userStakes */\n      0x04\n        /* \"contracts/StakePool.sol\":1999:2021  userStakes[msg.sender] */\n      0x00\n        /* \"contracts/StakePool.sol\":2010:2020  msg.sender */\n      caller\n        /* \"contracts/StakePool.sol\":1999:2021  userStakes[msg.sender] */\n      0xffffffffffffffffffffffffffffffffffffffff\n      and\n      0xffffffffffffffffffffffffffffffffffffffff\n      and\n      dup2\n      mstore\n      0x20\n      add\n      swap1\n      dup2\n      mstore\n      0x20\n      add\n      0x00\n      keccak256\n        /* \"contracts/StakePool.sol\":1999:2033  userStakes[msg.sender].stakeNumber */\n      0x00\n      add\n      sload\n        /* \"contracts/StakePool.sol\":1999:2041  userStakes[msg.sender].stakeNumber * ratio */\n      tag_60\n      swap2\n      swap1\n      tag_61\n      jump\t// in\n    tag_60:\n        /* \"contracts/StakePool.sol\":1999:2047  userStakes[msg.sender].stakeNumber * ratio / 100 */\n      tag_62\n      swap2\n      swap1\n      tag_63\n      jump\t// in\n    tag_62:\n        /* \"contracts/StakePool.sol\":1999:2058  userStakes[msg.sender].stakeNumber * ratio / 100 / 31536000 */\n      tag_64\n      swap2\n      swap1\n      tag_63\n      jump\t// in\n    tag_64:\n        /* \"contracts/StakePool.sol\":1958:1968  userStakes */\n      0x04\n        /* \"contracts/StakePool.sol\":1958:1980  userStakes[msg.sender] */\n      0x00\n        /* \"contracts/StakePool.sol\":1969:1979  msg.sender */\n      caller\n        /* \"contracts/StakePool.sol\":1958:1980  userStakes[msg.sender] */\n      0xffffffffffffffffffffffffffffffffffffffff\n      and\n      0xffffffffffffffffffffffffffffffffffffffff\n      and\n      dup2\n      mstore\n      0x20\n      add\n      swap1\n      dup2\n      mstore\n      0x20\n      add\n      0x00\n      keccak256\n        /* \"contracts/StakePool.sol\":1958:1994  userStakes[msg.sender].lastStakeTime */\n      0x04\n      add\n      sload\n        /* \"contracts/StakePool.sol\":1940:1955  block.timestamp */\n      timestamp\n        /* \"contracts/StakePool.sol\":1940:1994  block.timestamp - userStakes[msg.sender].lastStakeTime */\n      tag_65\n      swap2\n      swap1\n      tag_66\n      jump\t// in\n    tag_65:\n        /* \"contracts/StakePool.sol\":1939:2059  (block.timestamp - userStakes[msg.sender].lastStakeTime) * (userStakes[msg.sender].stakeNumber * ratio / 100 / 31536000) */\n      tag_67\n      swap2\n      swap1\n      tag_61\n      jump\t// in\n    tag_67:\n        /* \"contracts/StakePool.sol\":1885:1895  userStakes */\n      0x04\n        /* \"contracts/StakePool.sol\":1885:1907  userStakes[msg.sender] */\n      0x00\n        /* \"contracts/StakePool.sol\":1896:1906  msg.sender */\n      caller\n        /* \"contracts/StakePool.sol\":1885:1907  userStakes[msg.sender] */\n      0xffffffffffffffffffffffffffffffffffffffff\n      and\n      0xffffffffffffffffffffffffffffffffffffffff\n      and\n      dup2\n      mstore\n      0x20\n      add\n      swap1\n      dup2\n      mstore\n      0x20\n      add\n      0x00\n      keccak256\n        /* \"contracts/StakePool.sol\":1885:1923  userStakes[msg.sender].currentInterest */\n      0x01\n      add\n      sload\n        /* \"contracts/StakePool.sol\":1885:2059  userStakes[msg.sender].currentInterest + ... */\n      tag_68\n      swap2\n      swap1\n      tag_69\n      jump\t// in\n    tag_68:\n        /* \"contracts/StakePool.sol\":1844:1854  userStakes */\n      0x04\n        /* \"contracts/StakePool.sol\":1844:1866  userStakes[msg.sender] */\n      0x00\n        /* \"contracts/StakePool.sol\":1855:1865  msg.sender */\n      caller\n        /* \"contracts/StakePool.sol\":1844:1866  userStakes[msg.sender] */\n      0xffffffffffffffffffffffffffffffffffffffff\n      and\n      0xffffffffffffffffffffffffffffffffffffffff\n      and\n      dup2\n      mstore\n      0x20\n      add\n      swap1\n      dup2\n      mstore\n      0x20\n      add\n      0x00\n      keccak256\n        /* \"contracts/StakePool.sol\":1844:1882  userStakes[msg.sender].currentInterest */\n      0x01\n      add\n        /* \"contracts/StakePool.sol\":1844:2059  userStakes[msg.sender].currentInterest = userStakes[msg.sender].currentInterest + ... */\n      dup2\n      swap1\n      sstore\n      pop\n        /* \"contracts/StakePool.sol\":2107:2119  _stakeNumber */\n      dup1\n        /* \"contracts/StakePool.sol\":2069:2079  userStakes */\n      0x04\n        /* \"contracts/StakePool.sol\":2069:2091  userStakes[msg.sender] */\n      0x00\n        /* \"contracts/StakePool.sol\":2080:2090  msg.sender */\n      caller\n        /* \"contracts/StakePool.sol\":2069:2091  userStakes[msg.sender] */\n      0xffffffffffffffffffffffffffffffffffffffff\n      and\n      0xffffffffffffffffffffffffffffffffffffffff\n      and\n      dup2\n      mstore\n      0x20\n      add\n      swap1\n      dup2\n      mstore\n      0x20\n      add\n      0x00\n      keccak256\n        /* \"contracts/StakePool.sol\":2069:2103  userStakes[msg.sender].stakeNumber */\n      0x00\n      add\n      0x00\n        /* \"contracts/StakePool.sol\":2069:2119  userStakes[msg.sender].stakeNumber += _stakeNumber */\n      dup3\n      dup3\n      sload\n      tag_70\n      swap2\n      swap1\n      tag_69\n      jump\t// in\n    tag_70:\n      swap3\n      pop\n      pop\n      dup2\n      swap1\n      sstore\n      pop\n        /* \"contracts/StakePool.sol\":2168:2183  block.timestamp */\n      timestamp\n        /* \"contracts/StakePool.sol\":2129:2139  userStakes */\n      0x04\n        /* \"contracts/StakePool.sol\":2129:2151  userStakes[msg.sender] */\n      0x00\n        /* \"contracts/StakePool.sol\":2140:2150  msg.sender */\n      caller\n        /* \"contracts/StakePool.sol\":2129:2151  userStakes[msg.sender] */\n      0xffffffffffffffffffffffffffffffffffffffff\n      and\n      0xffffffffffffffffffffffffffffffffffffffff\n      and\n      dup2\n      mstore\n      0x20\n      add\n      swap1\n      dup2\n      mstore\n      0x20\n      add\n      0x00\n      keccak256\n        /* \"contracts/StakePool.sol\":2129:2165  userStakes[msg.sender].lastStakeTime */\n      0x04\n      add\n        /* \"contracts/StakePool.sol\":2129:2183  userStakes[msg.sender].lastStakeTime = block.timestamp */\n      dup2\n      swap1\n      sstore\n      pop\n        /* \"contracts/StakePool.sol\":2213:2225  _stakeNumber */\n      dup1\n        /* \"contracts/StakePool.sol\":2193:2209  totalStakeNumber */\n      0x00\n      dup1\n        /* \"contracts/StakePool.sol\":2193:2225  totalStakeNumber += _stakeNumber */\n      dup3\n      dup3\n      sload\n      tag_71\n      swap2\n      swap1\n      tag_69\n      jump\t// in\n    tag_71:\n      swap3\n      pop\n      pop\n      dup2\n      swap1\n      sstore\n      pop\n        /* \"contracts/StakePool.sol\":2255:2265  msg.sender */\n      caller\n        /* \"contracts/StakePool.sol\":2249:2280  Stake(msg.sender, _stakeNumber) */\n      0xffffffffffffffffffffffffffffffffffffffff\n      and\n      0xebedb8b3c678666e7f36970bc8f57abf6d8fa2e828c0da91ea5b75bf68ed101a\n        /* \"contracts/StakePool.sol\":2267:2279  _stakeNumber */\n      dup3\n        /* \"contracts/StakePool.sol\":2249:2280  Stake(msg.sender, _stakeNumber) */\n      mload(0x40)\n      tag_72\n      swap2\n      swap1\n      tag_15\n      jump\t// in\n    tag_72:\n      mload(0x40)\n      dup1\n      swap2\n      sub\n      swap1\n      log2\n        /* \"contracts/StakePool.sol\":1677:2287  function stake(uint256 _stakeNumber) external payable {... */\n      pop\n      jump\t// out\n        /* \"contracts/StakePool.sol\":1403:1423  IERC20 public ierc20 */\n    tag_44:\n      0x05\n      0x00\n      swap1\n      sload\n      swap1\n      0x0100\n      exp\n      swap1\n      div\n      0xffffffffffffffffffffffffffffffffffffffff\n      and\n      dup2\n      jump\t// out\n        /* \"#utility.yul\":7:84   */\n    tag_73:\n        /* \"#utility.yul\":44:51   */\n      0x00\n        /* \"#utility.yul\":73:78   */\n      dup2\n        /* \"#utility.yul\":62:78   */\n      swap1\n      pop\n        /* \"#utility.yul\":7:84   */\n      swap2\n      swap1\n      pop\n      jump\t// out\n        /* \"#utility.yul\":90:208   */\n    tag_74:\n        /* \"#utility.yul\":177:201   */\n      tag_98\n        /* \"#utility.yul\":195:200   */\n      dup2\n        /* \"#utility.yul\":177:201   */\n      tag_73\n      jump\t// in\n    tag_98:\n        /* \"#utility.yul\":172:175   */\n      dup3\n        /* \"#utility.yul\":165:202   */\n      mstore\n        /* \"#utility.yul\":90:208   */\n      pop\n      pop\n      jump\t// out\n        /* \"#utility.yul\":214:436   */\n    tag_15:\n        /* \"#utility.yul\":307:311   */\n      0x00\n        /* \"#utility.yul\":345:347   */\n      0x20\n        /* \"#utility.yul\":334:343   */\n      dup3\n        /* \"#utility.yul\":330:348   */\n      add\n        /* \"#utility.yul\":322:348   */\n      swap1\n      pop\n        /* \"#utility.yul\":358:429   */\n      tag_100\n        /* \"#utility.yul\":426:427   */\n      0x00\n        /* \"#utility.yul\":415:424   */\n      dup4\n        /* \"#utility.yul\":411:428   */\n      add\n        /* \"#utility.yul\":402:408   */\n      dup5\n        /* \"#utility.yul\":358:429   */\n      tag_74\n      jump\t// in\n    tag_100:\n        /* \"#utility.yul\":214:436   */\n      swap3\n      swap2\n      pop\n      pop\n      jump\t// out\n        /* \"#utility.yul\":442:568   */\n    tag_75:\n        /* \"#utility.yul\":479:486   */\n      0x00\n        /* \"#utility.yul\":519:561   */\n      0xffffffffffffffffffffffffffffffffffffffff\n        /* \"#utility.yul\":512:517   */\n      dup3\n        /* \"#utility.yul\":508:562   */\n      and\n        /* \"#utility.yul\":497:562   */\n      swap1\n      pop\n        /* \"#utility.yul\":442:568   */\n      swap2\n      swap1\n      pop\n      jump\t// out\n        /* \"#utility.yul\":574:670   */\n    tag_76:\n        /* \"#utility.yul\":611:618   */\n      0x00\n        /* \"#utility.yul\":640:664   */\n      tag_103\n        /* \"#utility.yul\":658:663   */\n      dup3\n        /* \"#utility.yul\":640:664   */\n      tag_75\n      jump\t// in\n    tag_103:\n        /* \"#utility.yul\":629:664   */\n      swap1\n      pop\n        /* \"#utility.yul\":574:670   */\n      swap2\n      swap1\n      pop\n      jump\t// out\n        /* \"#utility.yul\":676:794   */\n    tag_77:\n        /* \"#utility.yul\":763:787   */\n      tag_105\n        /* \"#utility.yul\":781:786   */\n      dup2\n        /* \"#utility.yul\":763:787   */\n      tag_76\n      jump\t// in\n    tag_105:\n        /* \"#utility.yul\":758:761   */\n      dup3\n        /* \"#utility.yul\":751:788   */\n      mstore\n        /* \"#utility.yul\":676:794   */\n      pop\n      pop\n      jump\t// out\n        /* \"#utility.yul\":800:1022   */\n    tag_26:\n        /* \"#utility.yul\":893:897   */\n      0x00\n        /* \"#utility.yul\":931:933   */\n      0x20\n        /* \"#utility.yul\":920:929   */\n      dup3\n        /* \"#utility.yul\":916:934   */\n      add\n        /* \"#utility.yul\":908:934   */\n      swap1\n      pop\n        /* \"#utility.yul\":944:1015   */\n      tag_107\n        /* \"#utility.yul\":1012:1013   */\n      0x00\n        /* \"#utility.yul\":1001:1010   */\n      dup4\n        /* \"#utility.yul\":997:1014   */\n      add\n        /* \"#utility.yul\":988:994   */\n      dup5\n        /* \"#utility.yul\":944:1015   */\n      tag_77\n      jump\t// in\n    tag_107:\n        /* \"#utility.yul\":800:1022   */\n      swap3\n      swap2\n      pop\n      pop\n      jump\t// out\n        /* \"#utility.yul\":1109:1226   */\n    tag_79:\n        /* \"#utility.yul\":1218:1219   */\n      0x00\n        /* \"#utility.yul\":1215:1216   */\n      dup1\n        /* \"#utility.yul\":1208:1220   */\n      revert\n        /* \"#utility.yul\":1355:1477   */\n    tag_81:\n        /* \"#utility.yul\":1428:1452   */\n      tag_112\n        /* \"#utility.yul\":1446:1451   */\n      dup2\n        /* \"#utility.yul\":1428:1452   */\n      tag_76\n      jump\t// in\n    tag_112:\n        /* \"#utility.yul\":1421:1426   */\n      dup2\n        /* \"#utility.yul\":1418:1453   */\n      eq\n        /* \"#utility.yul\":1408:1471   */\n      tag_113\n      jumpi\n        /* \"#utility.yul\":1467:1468   */\n      0x00\n        /* \"#utility.yul\":1464:1465   */\n      dup1\n        /* \"#utility.yul\":1457:1469   */\n      revert\n        /* \"#utility.yul\":1408:1471   */\n    tag_113:\n        /* \"#utility.yul\":1355:1477   */\n      pop\n      jump\t// out\n        /* \"#utility.yul\":1483:1622   */\n    tag_82:\n        /* \"#utility.yul\":1529:1534   */\n      0x00\n        /* \"#utility.yul\":1567:1573   */\n      dup2\n        /* \"#utility.yul\":1554:1574   */\n      calldataload\n        /* \"#utility.yul\":1545:1574   */\n      swap1\n      pop\n        /* \"#utility.yul\":1583:1616   */\n      tag_115\n        /* \"#utility.yul\":1610:1615   */\n      dup2\n        /* \"#utility.yul\":1583:1616   */\n      tag_81\n      jump\t// in\n    tag_115:\n        /* \"#utility.yul\":1483:1622   */\n      swap3\n      swap2\n      pop\n      pop\n      jump\t// out\n        /* \"#utility.yul\":1628:1957   */\n    tag_30:\n        /* \"#utility.yul\":1687:1693   */\n      0x00\n        /* \"#utility.yul\":1736:1738   */\n      0x20\n        /* \"#utility.yul\":1724:1733   */\n      dup3\n        /* \"#utility.yul\":1715:1722   */\n      dup5\n        /* \"#utility.yul\":1711:1734   */\n      sub\n        /* \"#utility.yul\":1707:1739   */\n      slt\n        /* \"#utility.yul\":1704:1823   */\n      iszero\n      tag_117\n      jumpi\n        /* \"#utility.yul\":1742:1821   */\n      tag_118\n      tag_79\n      jump\t// in\n    tag_118:\n        /* \"#utility.yul\":1704:1823   */\n    tag_117:\n        /* \"#utility.yul\":1862:1863   */\n      0x00\n        /* \"#utility.yul\":1887:1940   */\n      tag_119\n        /* \"#utility.yul\":1932:1939   */\n      dup5\n        /* \"#utility.yul\":1923:1929   */\n      dup3\n        /* \"#utility.yul\":1912:1921   */\n      dup6\n        /* \"#utility.yul\":1908:1930   */\n      add\n        /* \"#utility.yul\":1887:1940   */\n      tag_82\n      jump\t// in\n    tag_119:\n        /* \"#utility.yul\":1877:1940   */\n      swap2\n      pop\n        /* \"#utility.yul\":1833:1950   */\n      pop\n        /* \"#utility.yul\":1628:1957   */\n      swap3\n      swap2\n      pop\n      pop\n      jump\t// out\n        /* \"#utility.yul\":1963:2627   */\n    tag_33:\n        /* \"#utility.yul\":2168:2172   */\n      0x00\n        /* \"#utility.yul\":2206:2209   */\n      0xa0\n        /* \"#utility.yul\":2195:2204   */\n      dup3\n        /* \"#utility.yul\":2191:2210   */\n      add\n        /* \"#utility.yul\":2183:2210   */\n      swap1\n      pop\n        /* \"#utility.yul\":2220:2291   */\n      tag_121\n        /* \"#utility.yul\":2288:2289   */\n      0x00\n        /* \"#utility.yul\":2277:2286   */\n      dup4\n        /* \"#utility.yul\":2273:2290   */\n      add\n        /* \"#utility.yul\":2264:2270   */\n      dup9\n        /* \"#utility.yul\":2220:2291   */\n      tag_74\n      jump\t// in\n    tag_121:\n        /* \"#utility.yul\":2301:2373   */\n      tag_122\n        /* \"#utility.yul\":2369:2371   */\n      0x20\n        /* \"#utility.yul\":2358:2367   */\n      dup4\n        /* \"#utility.yul\":2354:2372   */\n      add\n        /* \"#utility.yul\":2345:2351   */\n      dup8\n        /* \"#utility.yul\":2301:2373   */\n      tag_74\n      jump\t// in\n    tag_122:\n        /* \"#utility.yul\":2383:2455   */\n      tag_123\n        /* \"#utility.yul\":2451:2453   */\n      0x40\n        /* \"#utility.yul\":2440:2449   */\n      dup4\n        /* \"#utility.yul\":2436:2454   */\n      add\n        /* \"#utility.yul\":2427:2433   */\n      dup7\n        /* \"#utility.yul\":2383:2455   */\n      tag_74\n      jump\t// in\n    tag_123:\n        /* \"#utility.yul\":2465:2537   */\n      tag_124\n        /* \"#utility.yul\":2533:2535   */\n      0x60\n        /* \"#utility.yul\":2522:2531   */\n      dup4\n        /* \"#utility.yul\":2518:2536   */\n      add\n        /* \"#utility.yul\":2509:2515   */\n      dup6\n        /* \"#utility.yul\":2465:2537   */\n      tag_74\n      jump\t// in\n    tag_124:\n        /* \"#utility.yul\":2547:2620   */\n      tag_125\n        /* \"#utility.yul\":2615:2618   */\n      0x80\n        /* \"#utility.yul\":2604:2613   */\n      dup4\n        /* \"#utility.yul\":2600:2619   */\n      add\n        /* \"#utility.yul\":2591:2597   */\n      dup5\n        /* \"#utility.yul\":2547:2620   */\n      tag_74\n      jump\t// in\n    tag_125:\n        /* \"#utility.yul\":1963:2627   */\n      swap7\n      swap6\n      pop\n      pop\n      pop\n      pop\n      pop\n      pop\n      jump\t// out\n        /* \"#utility.yul\":2633:2755   */\n    tag_83:\n        /* \"#utility.yul\":2706:2730   */\n      tag_127\n        /* \"#utility.yul\":2724:2729   */\n      dup2\n        /* \"#utility.yul\":2706:2730   */\n      tag_73\n      jump\t// in\n    tag_127:\n        /* \"#utility.yul\":2699:2704   */\n      dup2\n        /* \"#utility.yul\":2696:2731   */\n      eq\n        /* \"#utility.yul\":2686:2749   */\n      tag_128\n      jumpi\n        /* \"#utility.yul\":2745:2746   */\n      0x00\n        /* \"#utility.yul\":2742:2743   */\n      dup1\n        /* \"#utility.yul\":2735:2747   */\n      revert\n        /* \"#utility.yul\":2686:2749   */\n    tag_128:\n        /* \"#utility.yul\":2633:2755   */\n      pop\n      jump\t// out\n        /* \"#utility.yul\":2761:2900   */\n    tag_84:\n        /* \"#utility.yul\":2807:2812   */\n      0x00\n        /* \"#utility.yul\":2845:2851   */\n      dup2\n        /* \"#utility.yul\":2832:2852   */\n      calldataload\n        /* \"#utility.yul\":2823:2852   */\n      swap1\n      pop\n        /* \"#utility.yul\":2861:2894   */\n      tag_130\n        /* \"#utility.yul\":2888:2893   */\n      dup2\n        /* \"#utility.yul\":2861:2894   */\n      tag_83\n      jump\t// in\n    tag_130:\n        /* \"#utility.yul\":2761:2900   */\n      swap3\n      swap2\n      pop\n      pop\n      jump\t// out\n        /* \"#utility.yul\":2906:3235   */\n    tag_40:\n        /* \"#utility.yul\":2965:2971   */\n      0x00\n        /* \"#utility.yul\":3014:3016   */\n      0x20\n        /* \"#utility.yul\":3002:3011   */\n      dup3\n        /* \"#utility.yul\":2993:3000   */\n      dup5\n        /* \"#utility.yul\":2989:3012   */\n      sub\n        /* \"#utility.yul\":2985:3017   */\n      slt\n        /* \"#utility.yul\":2982:3101   */\n      iszero\n      tag_132\n      jumpi\n        /* \"#utility.yul\":3020:3099   */\n      tag_133\n      tag_79\n      jump\t// in\n    tag_133:\n        /* \"#utility.yul\":2982:3101   */\n    tag_132:\n        /* \"#utility.yul\":3140:3141   */\n      0x00\n        /* \"#utility.yul\":3165:3218   */\n      tag_134\n        /* \"#utility.yul\":3210:3217   */\n      dup5\n        /* \"#utility.yul\":3201:3207   */\n      dup3\n        /* \"#utility.yul\":3190:3199   */\n      dup6\n        /* \"#utility.yul\":3186:3208   */\n      add\n        /* \"#utility.yul\":3165:3218   */\n      tag_84\n      jump\t// in\n    tag_134:\n        /* \"#utility.yul\":3155:3218   */\n      swap2\n      pop\n        /* \"#utility.yul\":3111:3228   */\n      pop\n        /* \"#utility.yul\":2906:3235   */\n      swap3\n      swap2\n      pop\n      pop\n      jump\t// out\n        /* \"#utility.yul\":3241:3301   */\n    tag_85:\n        /* \"#utility.yul\":3269:3272   */\n      0x00\n        /* \"#utility.yul\":3290:3295   */\n      dup2\n        /* \"#utility.yul\":3283:3295   */\n      swap1\n      pop\n        /* \"#utility.yul\":3241:3301   */\n      swap2\n      swap1\n      pop\n      jump\t// out\n        /* \"#utility.yul\":3307:3449   */\n    tag_86:\n        /* \"#utility.yul\":3357:3366   */\n      0x00\n        /* \"#utility.yul\":3390:3443   */\n      tag_137\n        /* \"#utility.yul\":3408:3442   */\n      tag_138\n        /* \"#utility.yul\":3417:3441   */\n      tag_139\n        /* \"#utility.yul\":3435:3440   */\n      dup5\n        /* \"#utility.yul\":3417:3441   */\n      tag_75\n      jump\t// in\n    tag_139:\n        /* \"#utility.yul\":3408:3442   */\n      tag_85\n      jump\t// in\n    tag_138:\n        /* \"#utility.yul\":3390:3443   */\n      tag_75\n      jump\t// in\n    tag_137:\n        /* \"#utility.yul\":3377:3443   */\n      swap1\n      pop\n        /* \"#utility.yul\":3307:3449   */\n      swap2\n      swap1\n      pop\n      jump\t// out\n        /* \"#utility.yul\":3455:3581   */\n    tag_87:\n        /* \"#utility.yul\":3505:3514   */\n      0x00\n        /* \"#utility.yul\":3538:3575   */\n      tag_141\n        /* \"#utility.yul\":3569:3574   */\n      dup3\n        /* \"#utility.yul\":3538:3575   */\n      tag_86\n      jump\t// in\n    tag_141:\n        /* \"#utility.yul\":3525:3575   */\n      swap1\n      pop\n        /* \"#utility.yul\":3455:3581   */\n      swap2\n      swap1\n      pop\n      jump\t// out\n        /* \"#utility.yul\":3587:3726   */\n    tag_88:\n        /* \"#utility.yul\":3650:3659   */\n      0x00\n        /* \"#utility.yul\":3683:3720   */\n      tag_143\n        /* \"#utility.yul\":3714:3719   */\n      dup3\n        /* \"#utility.yul\":3683:3720   */\n      tag_87\n      jump\t// in\n    tag_143:\n        /* \"#utility.yul\":3670:3720   */\n      swap1\n      pop\n        /* \"#utility.yul\":3587:3726   */\n      swap2\n      swap1\n      pop\n      jump\t// out\n        /* \"#utility.yul\":3732:3889   */\n    tag_89:\n        /* \"#utility.yul\":3832:3882   */\n      tag_145\n        /* \"#utility.yul\":3876:3881   */\n      dup2\n        /* \"#utility.yul\":3832:3882   */\n      tag_88\n      jump\t// in\n    tag_145:\n        /* \"#utility.yul\":3827:3830   */\n      dup3\n        /* \"#utility.yul\":3820:3883   */\n      mstore\n        /* \"#utility.yul\":3732:3889   */\n      pop\n      pop\n      jump\t// out\n        /* \"#utility.yul\":3895:4143   */\n    tag_46:\n        /* \"#utility.yul\":4001:4005   */\n      0x00\n        /* \"#utility.yul\":4039:4041   */\n      0x20\n        /* \"#utility.yul\":4028:4037   */\n      dup3\n        /* \"#utility.yul\":4024:4042   */\n      add\n        /* \"#utility.yul\":4016:4042   */\n      swap1\n      pop\n        /* \"#utility.yul\":4052:4136   */\n      tag_147\n        /* \"#utility.yul\":4133:4134   */\n      0x00\n        /* \"#utility.yul\":4122:4131   */\n      dup4\n        /* \"#utility.yul\":4118:4135   */\n      add\n        /* \"#utility.yul\":4109:4115   */\n      dup5\n        /* \"#utility.yul\":4052:4136   */\n      tag_89\n      jump\t// in\n    tag_147:\n        /* \"#utility.yul\":3895:4143   */\n      swap3\n      swap2\n      pop\n      pop\n      jump\t// out\n        /* \"#utility.yul\":4149:4481   */\n    tag_49:\n        /* \"#utility.yul\":4270:4274   */\n      0x00\n        /* \"#utility.yul\":4308:4310   */\n      0x40\n        /* \"#utility.yul\":4297:4306   */\n      dup3\n        /* \"#utility.yul\":4293:4311   */\n      add\n        /* \"#utility.yul\":4285:4311   */\n      swap1\n      pop\n        /* \"#utility.yul\":4321:4392   */\n      tag_149\n        /* \"#utility.yul\":4389:4390   */\n      0x00\n        /* \"#utility.yul\":4378:4387   */\n      dup4\n        /* \"#utility.yul\":4374:4391   */\n      add\n        /* \"#utility.yul\":4365:4371   */\n      dup6\n        /* \"#utility.yul\":4321:4392   */\n      tag_77\n      jump\t// in\n    tag_149:\n        /* \"#utility.yul\":4402:4474   */\n      tag_150\n        /* \"#utility.yul\":4470:4472   */\n      0x20\n        /* \"#utility.yul\":4459:4468   */\n      dup4\n        /* \"#utility.yul\":4455:4473   */\n      add\n        /* \"#utility.yul\":4446:4452   */\n      dup5\n        /* \"#utility.yul\":4402:4474   */\n      tag_74\n      jump\t// in\n    tag_150:\n        /* \"#utility.yul\":4149:4481   */\n      swap4\n      swap3\n      pop\n      pop\n      pop\n      jump\t// out\n        /* \"#utility.yul\":4487:4577   */\n    tag_90:\n        /* \"#utility.yul\":4521:4528   */\n      0x00\n        /* \"#utility.yul\":4564:4569   */\n      dup2\n        /* \"#utility.yul\":4557:4570   */\n      iszero\n        /* \"#utility.yul\":4550:4571   */\n      iszero\n        /* \"#utility.yul\":4539:4571   */\n      swap1\n      pop\n        /* \"#utility.yul\":4487:4577   */\n      swap2\n      swap1\n      pop\n      jump\t// out\n        /* \"#utility.yul\":4583:4699   */\n    tag_91:\n        /* \"#utility.yul\":4653:4674   */\n      tag_153\n        /* \"#utility.yul\":4668:4673   */\n      dup2\n        /* \"#utility.yul\":4653:4674   */\n      tag_90\n      jump\t// in\n    tag_153:\n        /* \"#utility.yul\":4646:4651   */\n      dup2\n        /* \"#utility.yul\":4643:4675   */\n      eq\n        /* \"#utility.yul\":4633:4693   */\n      tag_154\n      jumpi\n        /* \"#utility.yul\":4689:4690   */\n      0x00\n        /* \"#utility.yul\":4686:4687   */\n      dup1\n        /* \"#utility.yul\":4679:4691   */\n      revert\n        /* \"#utility.yul\":4633:4693   */\n    tag_154:\n        /* \"#utility.yul\":4583:4699   */\n      pop\n      jump\t// out\n        /* \"#utility.yul\":4705:4842   */\n    tag_92:\n        /* \"#utility.yul\":4759:4764   */\n      0x00\n        /* \"#utility.yul\":4790:4796   */\n      dup2\n        /* \"#utility.yul\":4784:4797   */\n      mload\n        /* \"#utility.yul\":4775:4797   */\n      swap1\n      pop\n        /* \"#utility.yul\":4806:4836   */\n      tag_156\n        /* \"#utility.yul\":4830:4835   */\n      dup2\n        /* \"#utility.yul\":4806:4836   */\n      tag_91\n      jump\t// in\n    tag_156:\n        /* \"#utility.yul\":4705:4842   */\n      swap3\n      swap2\n      pop\n      pop\n      jump\t// out\n        /* \"#utility.yul\":4848:5193   */\n    tag_53:\n        /* \"#utility.yul\":4915:4921   */\n      0x00\n        /* \"#utility.yul\":4964:4966   */\n      0x20\n        /* \"#utility.yul\":4952:4961   */\n      dup3\n        /* \"#utility.yul\":4943:4950   */\n      dup5\n        /* \"#utility.yul\":4939:4962   */\n      sub\n        /* \"#utility.yul\":4935:4967   */\n      slt\n        /* \"#utility.yul\":4932:5051   */\n      iszero\n      tag_158\n      jumpi\n        /* \"#utility.yul\":4970:5049   */\n      tag_159\n      tag_79\n      jump\t// in\n    tag_159:\n        /* \"#utility.yul\":4932:5051   */\n    tag_158:\n        /* \"#utility.yul\":5090:5091   */\n      0x00\n        /* \"#utility.yul\":5115:5176   */\n      tag_160\n        /* \"#utility.yul\":5168:5175   */\n      dup5\n        /* \"#utility.yul\":5159:5165   */\n      dup3\n        /* \"#utility.yul\":5148:5157   */\n      dup6\n        /* \"#utility.yul\":5144:5166   */\n      add\n        /* \"#utility.yul\":5115:5176   */\n      tag_92\n      jump\t// in\n    tag_160:\n        /* \"#utility.yul\":5105:5176   */\n      swap2\n      pop\n        /* \"#utility.yul\":5061:5186   */\n      pop\n        /* \"#utility.yul\":4848:5193   */\n      swap3\n      swap2\n      pop\n      pop\n      jump\t// out\n        /* \"#utility.yul\":5199:5641   */\n    tag_56:\n        /* \"#utility.yul\":5348:5352   */\n      0x00\n        /* \"#utility.yul\":5386:5388   */\n      0x60\n        /* \"#utility.yul\":5375:5384   */\n      dup3\n        /* \"#utility.yul\":5371:5389   */\n      add\n        /* \"#utility.yul\":5363:5389   */\n      swap1\n      pop\n        /* \"#utility.yul\":5399:5470   */\n      tag_162\n        /* \"#utility.yul\":5467:5468   */\n      0x00\n        /* \"#utility.yul\":5456:5465   */\n      dup4\n        /* \"#utility.yul\":5452:5469   */\n      add\n        /* \"#utility.yul\":5443:5449   */\n      dup7\n        /* \"#utility.yul\":5399:5470   */\n      tag_77\n      jump\t// in\n    tag_162:\n        /* \"#utility.yul\":5480:5552   */\n      tag_163\n        /* \"#utility.yul\":5548:5550   */\n      0x20\n        /* \"#utility.yul\":5537:5546   */\n      dup4\n        /* \"#utility.yul\":5533:5551   */\n      add\n        /* \"#utility.yul\":5524:5530   */\n      dup6\n        /* \"#utility.yul\":5480:5552   */\n      tag_77\n      jump\t// in\n    tag_163:\n        /* \"#utility.yul\":5562:5634   */\n      tag_164\n        /* \"#utility.yul\":5630:5632   */\n      0x40\n        /* \"#utility.yul\":5619:5628   */\n      dup4\n        /* \"#utility.yul\":5615:5633   */\n      add\n        /* \"#utility.yul\":5606:5612   */\n      dup5\n        /* \"#utility.yul\":5562:5634   */\n      tag_74\n      jump\t// in\n    tag_164:\n        /* \"#utility.yul\":5199:5641   */\n      swap5\n      swap4\n      pop\n      pop\n      pop\n      pop\n      jump\t// out\n        /* \"#utility.yul\":5647:5827   */\n    tag_93:\n        /* \"#utility.yul\":5695:5772   */\n      0x4e487b7100000000000000000000000000000000000000000000000000000000\n        /* \"#utility.yul\":5692:5693   */\n      0x00\n        /* \"#utility.yul\":5685:5773   */\n      mstore\n        /* \"#utility.yul\":5792:5796   */\n      0x11\n        /* \"#utility.yul\":5789:5790   */\n      0x04\n        /* \"#utility.yul\":5782:5797   */\n      mstore\n        /* \"#utility.yul\":5816:5820   */\n      0x24\n        /* \"#utility.yul\":5813:5814   */\n      0x00\n        /* \"#utility.yul\":5806:5821   */\n      revert\n        /* \"#utility.yul\":5833:6181   */\n    tag_61:\n        /* \"#utility.yul\":5873:5880   */\n      0x00\n        /* \"#utility.yul\":5896:5916   */\n      tag_167\n        /* \"#utility.yul\":5914:5915   */\n      dup3\n        /* \"#utility.yul\":5896:5916   */\n      tag_73\n      jump\t// in\n    tag_167:\n        /* \"#utility.yul\":5891:5916   */\n      swap2\n      pop\n        /* \"#utility.yul\":5930:5950   */\n      tag_168\n        /* \"#utility.yul\":5948:5949   */\n      dup4\n        /* \"#utility.yul\":5930:5950   */\n      tag_73\n      jump\t// in\n    tag_168:\n        /* \"#utility.yul\":5925:5950   */\n      swap3\n      pop\n        /* \"#utility.yul\":6118:6119   */\n      dup2\n        /* \"#utility.yul\":6050:6116   */\n      0xffffffffffffffffffffffffffffffffffffffffffffffffffffffffffffffff\n        /* \"#utility.yul\":6046:6120   */\n      div\n        /* \"#utility.yul\":6043:6044   */\n      dup4\n        /* \"#utility.yul\":6040:6121   */\n      gt\n        /* \"#utility.yul\":6035:6036   */\n      dup3\n        /* \"#utility.yul\":6028:6037   */\n      iszero\n        /* \"#utility.yul\":6021:6038   */\n      iszero\n        /* \"#utility.yul\":6017:6122   */\n      and\n        /* \"#utility.yul\":6014:6145   */\n      iszero\n      tag_169\n      jumpi\n        /* \"#utility.yul\":6125:6143   */\n      tag_170\n      tag_93\n      jump\t// in\n    tag_170:\n        /* \"#utility.yul\":6014:6145   */\n    tag_169:\n        /* \"#utility.yul\":6173:6174   */\n      dup3\n        /* \"#utility.yul\":6170:6171   */\n      dup3\n        /* \"#utility.yul\":6166:6175   */\n      mul\n        /* \"#utility.yul\":6155:6175   */\n      swap1\n      pop\n        /* \"#utility.yul\":5833:6181   */\n      swap3\n      swap2\n      pop\n      pop\n      jump\t// out\n        /* \"#utility.yul\":6187:6367   */\n    tag_94:\n        /* \"#utility.yul\":6235:6312   */\n      0x4e487b7100000000000000000000000000000000000000000000000000000000\n        /* \"#utility.yul\":6232:6233   */\n      0x00\n        /* \"#utility.yul\":6225:6313   */\n      mstore\n        /* \"#utility.yul\":6332:6336   */\n      0x12\n        /* \"#utility.yul\":6329:6330   */\n      0x04\n        /* \"#utility.yul\":6322:6337   */\n      mstore\n        /* \"#utility.yul\":6356:6360   */\n      0x24\n        /* \"#utility.yul\":6353:6354   */\n      0x00\n        /* \"#utility.yul\":6346:6361   */\n      revert\n        /* \"#utility.yul\":6373:6558   */\n    tag_63:\n        /* \"#utility.yul\":6413:6414   */\n      0x00\n        /* \"#utility.yul\":6430:6450   */\n      tag_173\n        /* \"#utility.yul\":6448:6449   */\n      dup3\n        /* \"#utility.yul\":6430:6450   */\n      tag_73\n      jump\t// in\n    tag_173:\n        /* \"#utility.yul\":6425:6450   */\n      swap2\n      pop\n        /* \"#utility.yul\":6464:6484   */\n      tag_174\n        /* \"#utility.yul\":6482:6483   */\n      dup4\n        /* \"#utility.yul\":6464:6484   */\n      tag_73\n      jump\t// in\n    tag_174:\n        /* \"#utility.yul\":6459:6484   */\n      swap3\n      pop\n        /* \"#utility.yul\":6503:6504   */\n      dup3\n        /* \"#utility.yul\":6493:6528   */\n      tag_175\n      jumpi\n        /* \"#utility.yul\":6508:6526   */\n      tag_176\n      tag_94\n      jump\t// in\n    tag_176:\n        /* \"#utility.yul\":6493:6528   */\n    tag_175:\n        /* \"#utility.yul\":6550:6551   */\n      dup3\n        /* \"#utility.yul\":6547:6548   */\n      dup3\n        /* \"#utility.yul\":6543:6552   */\n      div\n        /* \"#utility.yul\":6538:6552   */\n      swap1\n      pop\n        /* \"#utility.yul\":6373:6558   */\n      swap3\n      swap2\n      pop\n      pop\n      jump\t// out\n        /* \"#utility.yul\":6564:6755   */\n    tag_66:\n        /* \"#utility.yul\":6604:6608   */\n      0x00\n        /* \"#utility.yul\":6624:6644   */\n      tag_178\n        /* \"#utility.yul\":6642:6643   */\n      dup3\n        /* \"#utility.yul\":6624:6644   */\n      tag_73\n      jump\t// in\n    tag_178:\n        /* \"#utility.yul\":6619:6644   */\n      swap2\n      pop\n        /* \"#utility.yul\":6658:6678   */\n      tag_179\n        /* \"#utility.yul\":6676:6677   */\n      dup4\n        /* \"#utility.yul\":6658:6678   */\n      tag_73\n      jump\t// in\n    tag_179:\n        /* \"#utility.yul\":6653:6678   */\n      swap3\n      pop\n        /* \"#utility.yul\":6697:6698   */\n      dup3\n        /* \"#utility.yul\":6694:6695   */\n      dup3\n        /* \"#utility.yul\":6691:6699   */\n      lt\n        /* \"#utility.yul\":6688:6722   */\n      iszero\n      tag_180\n      jumpi\n        /* \"#utility.yul\":6702:6720   */\n      tag_181\n      tag_93\n      jump\t// in\n    tag_181:\n        /* \"#utility.yul\":6688:6722   */\n    tag_180:\n        /* \"#utility.yul\":6747:6748   */\n      dup3\n        /* \"#utility.yul\":6744:6745   */\n      dup3\n        /* \"#utility.yul\":6740:6749   */\n      sub\n        /* \"#utility.yul\":6732:6749   */\n      swap1\n      pop\n        /* \"#utility.yul\":6564:6755   */\n      swap3\n      swap2\n      pop\n      pop\n      jump\t// out\n        /* \"#utility.yul\":6761:7066   */\n    tag_69:\n        /* \"#utility.yul\":6801:6804   */\n      0x00\n        /* \"#utility.yul\":6820:6840   */\n      tag_183\n        /* \"#utility.yul\":6838:6839   */\n      dup3\n        /* \"#utility.yul\":6820:6840   */\n      tag_73\n      jump\t// in\n    tag_183:\n        /* \"#utility.yul\":6815:6840   */\n      swap2\n      pop\n        /* \"#utility.yul\":6854:6874   */\n      tag_184\n        /* \"#utility.yul\":6872:6873   */\n      dup4\n        /* \"#utility.yul\":6854:6874   */\n      tag_73\n      jump\t// in\n    tag_184:\n        /* \"#utility.yul\":6849:6874   */\n      swap3\n      pop\n        /* \"#utility.yul\":7008:7009   */\n      dup3\n        /* \"#utility.yul\":6940:7006   */\n      0xffffffffffffffffffffffffffffffffffffffffffffffffffffffffffffffff\n        /* \"#utility.yul\":6936:7010   */\n      sub\n        /* \"#utility.yul\":6933:6934   */\n      dup3\n        /* \"#utility.yul\":6930:7011   */\n      gt\n        /* \"#utility.yul\":6927:7034   */\n      iszero\n      tag_185\n      jumpi\n        /* \"#utility.yul\":7014:7032   */\n      tag_186\n      tag_93\n      jump\t// in\n    tag_186:\n        /* \"#utility.yul\":6927:7034   */\n    tag_185:\n        /* \"#utility.yul\":7058:7059   */\n      dup3\n        /* \"#utility.yul\":7055:7056   */\n      dup3\n        /* \"#utility.yul\":7051:7060   */\n      add\n        /* \"#utility.yul\":7044:7060   */\n      swap1\n      pop\n        /* \"#utility.yul\":6761:7066   */\n      swap3\n      swap2\n      pop\n      pop\n      jump\t// out\n\n    auxdata: 0xa2646970667358221220f2ce8fb03bee9388e2a6a95388fee86b0dc015603d083732d14d16965978d9f164736f6c634300080f0033\n}\n",
				"bytecode": {
					"linkReferences": {},
					"object": "6080604052600160005534801561001557600080fd5b50604051610c41380380610c418339818101604052810190610037919061012a565b80600160006101000a81548173ffffffffffffffffffffffffffffffffffffffff021916908373ffffffffffffffffffffffffffffffffffffffff16021790555080600560006101000a81548173ffffffffffffffffffffffffffffffffffffffff021916908373ffffffffffffffffffffffffffffffffffffffff160217905550603260038190555050610157565b600080fd5b600073ffffffffffffffffffffffffffffffffffffffff82169050919050565b60006100f7826100cc565b9050919050565b610107816100ec565b811461011257600080fd5b50565b600081519050610124816100fe565b92915050565b6000602082840312156101405761013f6100c7565b5b600061014e84828501610115565b91505092915050565b610adb806101666000396000f3fe60806040526004361061007b5760003560e01c80638da7ad231161004e5780638da7ad231461010b5780639d76ea581461014c578063a694fc3a14610177578063bf0ae63d146101935761007b565b806353b645e51461008057806371ca337d146100ab57806373cf575a146100d65780638da5cb5b146100e0575b600080fd5b34801561008c57600080fd5b506100956101be565b6040516100a29190610672565b60405180910390f35b3480156100b757600080fd5b506100c06101c4565b6040516100cd9190610672565b60405180910390f35b6100de6101ca565b005b3480156100ec57600080fd5b506100f56102af565b60405161010291906106ce565b60405180910390f35b34801561011757600080fd5b50610132600480360381019061012d919061071a565b6102d5565b604051610143959493929190610747565b60405180910390f35b34801561015857600080fd5b5061016161030b565b60405161016e91906106ce565b60405180910390f35b610191600480360381019061018c91906107c6565b610331565b005b34801561019f57600080fd5b506101a8610633565b6040516101b59190610852565b60405180910390f35b60005481565b60035481565b600560009054906101000a900473ffffffffffffffffffffffffffffffffffffffff1673ffffffffffffffffffffffffffffffffffffffff1663a9059cbb33600460003373ffffffffffffffffffffffffffffffffffffffff1673ffffffffffffffffffffffffffffffffffffffff168152602001908152602001600020600001546040518363ffffffff1660e01b815260040161026992919061086d565b6020604051808303816000875af1158015610288573d6000803e3d6000fd5b505050506040513d601f19601f820116820180604052508101906102ac91906108ce565b50565b600260009054906101000a900473ffffffffffffffffffffffffffffffffffffffff1681565b60046020528060005260406000206000915090508060000154908060010154908060020154908060030154908060040154905085565b600160009054906101000a900473ffffffffffffffffffffffffffffffffffffffff1681565b600560009054906101000a900473ffffffffffffffffffffffffffffffffffffffff1673ffffffffffffffffffffffffffffffffffffffff166323b872dd3330846040518463ffffffff1660e01b8152600401610390939291906108fb565b6020604051808303816000875af11580156103af573d6000803e3d6000fd5b505050506040513d601f19601f820116820180604052508101906103d391906108ce565b506301e133806064600354600460003373ffffffffffffffffffffffffffffffffffffffff1673ffffffffffffffffffffffffffffffffffffffff1681526020019081526020016000206000015461042b9190610961565b61043591906109ea565b61043f91906109ea565b600460003373ffffffffffffffffffffffffffffffffffffffff1673ffffffffffffffffffffffffffffffffffffffff168152602001908152602001600020600401544261048d9190610a1b565b6104979190610961565b600460003373ffffffffffffffffffffffffffffffffffffffff1673ffffffffffffffffffffffffffffffffffffffff168152602001908152602001600020600101546104e49190610a4f565b600460003373ffffffffffffffffffffffffffffffffffffffff1673ffffffffffffffffffffffffffffffffffffffff1681526020019081526020016000206001018190555080600460003373ffffffffffffffffffffffffffffffffffffffff1673ffffffffffffffffffffffffffffffffffffffff168152602001908152602001600020600001600082825461057c9190610a4f565b9250508190555042600460003373ffffffffffffffffffffffffffffffffffffffff1673ffffffffffffffffffffffffffffffffffffffff16815260200190815260200160002060040181905550806000808282546105db9190610a4f565b925050819055503373ffffffffffffffffffffffffffffffffffffffff167febedb8b3c678666e7f36970bc8f57abf6d8fa2e828c0da91ea5b75bf68ed101a826040516106289190610672565b60405180910390a250565b600560009054906101000a900473ffffffffffffffffffffffffffffffffffffffff1681565b6000819050919050565b61066c81610659565b82525050565b60006020820190506106876000830184610663565b92915050565b600073ffffffffffffffffffffffffffffffffffffffff82169050919050565b60006106b88261068d565b9050919050565b6106c8816106ad565b82525050565b60006020820190506106e360008301846106bf565b92915050565b600080fd5b6106f7816106ad565b811461070257600080fd5b50565b600081359050610714816106ee565b92915050565b6000602082840312156107305761072f6106e9565b5b600061073e84828501610705565b91505092915050565b600060a08201905061075c6000830188610663565b6107696020830187610663565b6107766040830186610663565b6107836060830185610663565b6107906080830184610663565b9695505050505050565b6107a381610659565b81146107ae57600080fd5b50565b6000813590506107c08161079a565b92915050565b6000602082840312156107dc576107db6106e9565b5b60006107ea848285016107b1565b91505092915050565b6000819050919050565b600061081861081361080e8461068d565b6107f3565b61068d565b9050919050565b600061082a826107fd565b9050919050565b600061083c8261081f565b9050919050565b61084c81610831565b82525050565b60006020820190506108676000830184610843565b92915050565b600060408201905061088260008301856106bf565b61088f6020830184610663565b9392505050565b60008115159050919050565b6108ab81610896565b81146108b657600080fd5b50565b6000815190506108c8816108a2565b92915050565b6000602082840312156108e4576108e36106e9565b5b60006108f2848285016108b9565b91505092915050565b600060608201905061091060008301866106bf565b61091d60208301856106bf565b61092a6040830184610663565b949350505050565b7f4e487b7100000000000000000000000000000000000000000000000000000000600052601160045260246000fd5b600061096c82610659565b915061097783610659565b9250817fffffffffffffffffffffffffffffffffffffffffffffffffffffffffffffffff04831182151516156109b0576109af610932565b5b828202905092915050565b7f4e487b7100000000000000000000000000000000000000000000000000000000600052601260045260246000fd5b60006109f582610659565b9150610a0083610659565b925082610a1057610a0f6109bb565b5b828204905092915050565b6000610a2682610659565b9150610a3183610659565b925082821015610a4457610a43610932565b5b828203905092915050565b6000610a5a82610659565b9150610a6583610659565b9250827fffffffffffffffffffffffffffffffffffffffffffffffffffffffffffffffff03821115610a9a57610a99610932565b5b82820190509291505056fea2646970667358221220f2ce8fb03bee9388e2a6a95388fee86b0dc015603d083732d14d16965978d9f164736f6c634300080f0033",
					"opcodes": "PUSH1 0x80 PUSH1 0x40 MSTORE PUSH1 0x1 PUSH1 0x0 SSTORE CALLVALUE DUP1 ISZERO PUSH2 0x15 JUMPI PUSH1 0x0 DUP1 REVERT JUMPDEST POP PUSH1 0x40 MLOAD PUSH2 0xC41 CODESIZE SUB DUP1 PUSH2 0xC41 DUP4 CODECOPY DUP2 DUP2 ADD PUSH1 0x40 MSTORE DUP2 ADD SWAP1 PUSH2 0x37 SWAP2 SWAP1 PUSH2 0x12A JUMP JUMPDEST DUP1 PUSH1 0x1 PUSH1 0x0 PUSH2 0x100 EXP DUP2 SLOAD DUP2 PUSH20 0xFFFFFFFFFFFFFFFFFFFFFFFFFFFFFFFFFFFFFFFF MUL NOT AND SWAP1 DUP4 PUSH20 0xFFFFFFFFFFFFFFFFFFFFFFFFFFFFFFFFFFFFFFFF AND MUL OR SWAP1 SSTORE POP DUP1 PUSH1 0x5 PUSH1 0x0 PUSH2 0x100 EXP DUP2 SLOAD DUP2 PUSH20 0xFFFFFFFFFFFFFFFFFFFFFFFFFFFFFFFFFFFFFFFF MUL NOT AND SWAP1 DUP4 PUSH20 0xFFFFFFFFFFFFFFFFFFFFFFFFFFFFFFFFFFFFFFFF AND MUL OR SWAP1 SSTORE POP PUSH1 0x32 PUSH1 0x3 DUP2 SWAP1 SSTORE POP POP PUSH2 0x157 JUMP JUMPDEST PUSH1 0x0 DUP1 REVERT JUMPDEST PUSH1 0x0 PUSH20 0xFFFFFFFFFFFFFFFFFFFFFFFFFFFFFFFFFFFFFFFF DUP3 AND SWAP1 POP SWAP2 SWAP1 POP JUMP JUMPDEST PUSH1 0x0 PUSH2 0xF7 DUP3 PUSH2 0xCC JUMP JUMPDEST SWAP1 POP SWAP2 SWAP1 POP JUMP JUMPDEST PUSH2 0x107 DUP2 PUSH2 0xEC JUMP JUMPDEST DUP2 EQ PUSH2 0x112 JUMPI PUSH1 0x0 DUP1 REVERT JUMPDEST POP JUMP JUMPDEST PUSH1 0x0 DUP2 MLOAD SWAP1 POP PUSH2 0x124 DUP2 PUSH2 0xFE JUMP JUMPDEST SWAP3 SWAP2 POP POP JUMP JUMPDEST PUSH1 0x0 PUSH1 0x20 DUP3 DUP5 SUB SLT ISZERO PUSH2 0x140 JUMPI PUSH2 0x13F PUSH2 0xC7 JUMP JUMPDEST JUMPDEST PUSH1 0x0 PUSH2 0x14E DUP5 DUP3 DUP6 ADD PUSH2 0x115 JUMP JUMPDEST SWAP2 POP POP SWAP3 SWAP2 POP POP JUMP JUMPDEST PUSH2 0xADB DUP1 PUSH2 0x166 PUSH1 0x0 CODECOPY PUSH1 0x0 RETURN INVALID PUSH1 0x80 PUSH1 0x40 MSTORE PUSH1 0x4 CALLDATASIZE LT PUSH2 0x7B JUMPI PUSH1 0x0 CALLDATALOAD PUSH1 0xE0 SHR DUP1 PUSH4 0x8DA7AD23 GT PUSH2 0x4E JUMPI DUP1 PUSH4 0x8DA7AD23 EQ PUSH2 0x10B JUMPI DUP1 PUSH4 0x9D76EA58 EQ PUSH2 0x14C JUMPI DUP1 PUSH4 0xA694FC3A EQ PUSH2 0x177 JUMPI DUP1 PUSH4 0xBF0AE63D EQ PUSH2 0x193 JUMPI PUSH2 0x7B JUMP JUMPDEST DUP1 PUSH4 0x53B645E5 EQ PUSH2 0x80 JUMPI DUP1 PUSH4 0x71CA337D EQ PUSH2 0xAB JUMPI DUP1 PUSH4 0x73CF575A EQ PUSH2 0xD6 JUMPI DUP1 PUSH4 0x8DA5CB5B EQ PUSH2 0xE0 JUMPI JUMPDEST PUSH1 0x0 DUP1 REVERT JUMPDEST CALLVALUE DUP1 ISZERO PUSH2 0x8C JUMPI PUSH1 0x0 DUP1 REVERT JUMPDEST POP PUSH2 0x95 PUSH2 0x1BE JUMP JUMPDEST PUSH1 0x40 MLOAD PUSH2 0xA2 SWAP2 SWAP1 PUSH2 0x672 JUMP JUMPDEST PUSH1 0x40 MLOAD DUP1 SWAP2 SUB SWAP1 RETURN JUMPDEST CALLVALUE DUP1 ISZERO PUSH2 0xB7 JUMPI PUSH1 0x0 DUP1 REVERT JUMPDEST POP PUSH2 0xC0 PUSH2 0x1C4 JUMP JUMPDEST PUSH1 0x40 MLOAD PUSH2 0xCD SWAP2 SWAP1 PUSH2 0x672 JUMP JUMPDEST PUSH1 0x40 MLOAD DUP1 SWAP2 SUB SWAP1 RETURN JUMPDEST PUSH2 0xDE PUSH2 0x1CA JUMP JUMPDEST STOP JUMPDEST CALLVALUE DUP1 ISZERO PUSH2 0xEC JUMPI PUSH1 0x0 DUP1 REVERT JUMPDEST POP PUSH2 0xF5 PUSH2 0x2AF JUMP JUMPDEST PUSH1 0x40 MLOAD PUSH2 0x102 SWAP2 SWAP1 PUSH2 0x6CE JUMP JUMPDEST PUSH1 0x40 MLOAD DUP1 SWAP2 SUB SWAP1 RETURN JUMPDEST CALLVALUE DUP1 ISZERO PUSH2 0x117 JUMPI PUSH1 0x0 DUP1 REVERT JUMPDEST POP PUSH2 0x132 PUSH1 0x4 DUP1 CALLDATASIZE SUB DUP2 ADD SWAP1 PUSH2 0x12D SWAP2 SWAP1 PUSH2 0x71A JUMP JUMPDEST PUSH2 0x2D5 JUMP JUMPDEST PUSH1 0x40 MLOAD PUSH2 0x143 SWAP6 SWAP5 SWAP4 SWAP3 SWAP2 SWAP1 PUSH2 0x747 JUMP JUMPDEST PUSH1 0x40 MLOAD DUP1 SWAP2 SUB SWAP1 RETURN JUMPDEST CALLVALUE DUP1 ISZERO PUSH2 0x158 JUMPI PUSH1 0x0 DUP1 REVERT JUMPDEST POP PUSH2 0x161 PUSH2 0x30B JUMP JUMPDEST PUSH1 0x40 MLOAD PUSH2 0x16E SWAP2 SWAP1 PUSH2 0x6CE JUMP JUMPDEST PUSH1 0x40 MLOAD DUP1 SWAP2 SUB SWAP1 RETURN JUMPDEST PUSH2 0x191 PUSH1 0x4 DUP1 CALLDATASIZE SUB DUP2 ADD SWAP1 PUSH2 0x18C SWAP2 SWAP1 PUSH2 0x7C6 JUMP JUMPDEST PUSH2 0x331 JUMP JUMPDEST STOP JUMPDEST CALLVALUE DUP1 ISZERO PUSH2 0x19F JUMPI PUSH1 0x0 DUP1 REVERT JUMPDEST POP PUSH2 0x1A8 PUSH2 0x633 JUMP JUMPDEST PUSH1 0x40 MLOAD PUSH2 0x1B5 SWAP2 SWAP1 PUSH2 0x852 JUMP JUMPDEST PUSH1 0x40 MLOAD DUP1 SWAP2 SUB SWAP1 RETURN JUMPDEST PUSH1 0x0 SLOAD DUP2 JUMP JUMPDEST PUSH1 0x3 SLOAD DUP2 JUMP JUMPDEST PUSH1 0x5 PUSH1 0x0 SWAP1 SLOAD SWAP1 PUSH2 0x100 EXP SWAP1 DIV PUSH20 0xFFFFFFFFFFFFFFFFFFFFFFFFFFFFFFFFFFFFFFFF AND PUSH20 0xFFFFFFFFFFFFFFFFFFFFFFFFFFFFFFFFFFFFFFFF AND PUSH4 0xA9059CBB CALLER PUSH1 0x4 PUSH1 0x0 CALLER PUSH20 0xFFFFFFFFFFFFFFFFFFFFFFFFFFFFFFFFFFFFFFFF AND PUSH20 0xFFFFFFFFFFFFFFFFFFFFFFFFFFFFFFFFFFFFFFFF AND DUP2 MSTORE PUSH1 0x20 ADD SWAP1 DUP2 MSTORE PUSH1 0x20 ADD PUSH1 0x0 KECCAK256 PUSH1 0x0 ADD SLOAD PUSH1 0x40 MLOAD DUP4 PUSH4 0xFFFFFFFF AND PUSH1 0xE0 SHL DUP2 MSTORE PUSH1 0x4 ADD PUSH2 0x269 SWAP3 SWAP2 SWAP1 PUSH2 0x86D JUMP JUMPDEST PUSH1 0x20 PUSH1 0x40 MLOAD DUP1 DUP4 SUB DUP2 PUSH1 0x0 DUP8 GAS CALL ISZERO DUP1 ISZERO PUSH2 0x288 JUMPI RETURNDATASIZE PUSH1 0x0 DUP1 RETURNDATACOPY RETURNDATASIZE PUSH1 0x0 REVERT JUMPDEST POP POP POP POP PUSH1 0x40 MLOAD RETURNDATASIZE PUSH1 0x1F NOT PUSH1 0x1F DUP3 ADD AND DUP3 ADD DUP1 PUSH1 0x40 MSTORE POP DUP2 ADD SWAP1 PUSH2 0x2AC SWAP2 SWAP1 PUSH2 0x8CE JUMP JUMPDEST POP JUMP JUMPDEST PUSH1 0x2 PUSH1 0x0 SWAP1 SLOAD SWAP1 PUSH2 0x100 EXP SWAP1 DIV PUSH20 0xFFFFFFFFFFFFFFFFFFFFFFFFFFFFFFFFFFFFFFFF AND DUP2 JUMP JUMPDEST PUSH1 0x4 PUSH1 0x20 MSTORE DUP1 PUSH1 0x0 MSTORE PUSH1 0x40 PUSH1 0x0 KECCAK256 PUSH1 0x0 SWAP2 POP SWAP1 POP DUP1 PUSH1 0x0 ADD SLOAD SWAP1 DUP1 PUSH1 0x1 ADD SLOAD SWAP1 DUP1 PUSH1 0x2 ADD SLOAD SWAP1 DUP1 PUSH1 0x3 ADD SLOAD SWAP1 DUP1 PUSH1 0x4 ADD SLOAD SWAP1 POP DUP6 JUMP JUMPDEST PUSH1 0x1 PUSH1 0x0 SWAP1 SLOAD SWAP1 PUSH2 0x100 EXP SWAP1 DIV PUSH20 0xFFFFFFFFFFFFFFFFFFFFFFFFFFFFFFFFFFFFFFFF AND DUP2 JUMP JUMPDEST PUSH1 0x5 PUSH1 0x0 SWAP1 SLOAD SWAP1 PUSH2 0x100 EXP SWAP1 DIV PUSH20 0xFFFFFFFFFFFFFFFFFFFFFFFFFFFFFFFFFFFFFFFF AND PUSH20 0xFFFFFFFFFFFFFFFFFFFFFFFFFFFFFFFFFFFFFFFF AND PUSH4 0x23B872DD CALLER ADDRESS DUP5 PUSH1 0x40 MLOAD DUP5 PUSH4 0xFFFFFFFF AND PUSH1 0xE0 SHL DUP2 MSTORE PUSH1 0x4 ADD PUSH2 0x390 SWAP4 SWAP3 SWAP2 SWAP1 PUSH2 0x8FB JUMP JUMPDEST PUSH1 0x20 PUSH1 0x40 MLOAD DUP1 DUP4 SUB DUP2 PUSH1 0x0 DUP8 GAS CALL ISZERO DUP1 ISZERO PUSH2 0x3AF JUMPI RETURNDATASIZE PUSH1 0x0 DUP1 RETURNDATACOPY RETURNDATASIZE PUSH1 0x0 REVERT JUMPDEST POP POP POP POP PUSH1 0x40 MLOAD RETURNDATASIZE PUSH1 0x1F NOT PUSH1 0x1F DUP3 ADD AND DUP3 ADD DUP1 PUSH1 0x40 MSTORE POP DUP2 ADD SWAP1 PUSH2 0x3D3 SWAP2 SWAP1 PUSH2 0x8CE JUMP JUMPDEST POP PUSH4 0x1E13380 PUSH1 0x64 PUSH1 0x3 SLOAD PUSH1 0x4 PUSH1 0x0 CALLER PUSH20 0xFFFFFFFFFFFFFFFFFFFFFFFFFFFFFFFFFFFFFFFF AND PUSH20 0xFFFFFFFFFFFFFFFFFFFFFFFFFFFFFFFFFFFFFFFF AND DUP2 MSTORE PUSH1 0x20 ADD SWAP1 DUP2 MSTORE PUSH1 0x20 ADD PUSH1 0x0 KECCAK256 PUSH1 0x0 ADD SLOAD PUSH2 0x42B SWAP2 SWAP1 PUSH2 0x961 JUMP JUMPDEST PUSH2 0x435 SWAP2 SWAP1 PUSH2 0x9EA JUMP JUMPDEST PUSH2 0x43F SWAP2 SWAP1 PUSH2 0x9EA JUMP JUMPDEST PUSH1 0x4 PUSH1 0x0 CALLER PUSH20 0xFFFFFFFFFFFFFFFFFFFFFFFFFFFFFFFFFFFFFFFF AND PUSH20 0xFFFFFFFFFFFFFFFFFFFFFFFFFFFFFFFFFFFFFFFF AND DUP2 MSTORE PUSH1 0x20 ADD SWAP1 DUP2 MSTORE PUSH1 0x20 ADD PUSH1 0x0 KECCAK256 PUSH1 0x4 ADD SLOAD TIMESTAMP PUSH2 0x48D SWAP2 SWAP1 PUSH2 0xA1B JUMP JUMPDEST PUSH2 0x497 SWAP2 SWAP1 PUSH2 0x961 JUMP JUMPDEST PUSH1 0x4 PUSH1 0x0 CALLER PUSH20 0xFFFFFFFFFFFFFFFFFFFFFFFFFFFFFFFFFFFFFFFF AND PUSH20 0xFFFFFFFFFFFFFFFFFFFFFFFFFFFFFFFFFFFFFFFF AND DUP2 MSTORE PUSH1 0x20 ADD SWAP1 DUP2 MSTORE PUSH1 0x20 ADD PUSH1 0x0 KECCAK256 PUSH1 0x1 ADD SLOAD PUSH2 0x4E4 SWAP2 SWAP1 PUSH2 0xA4F JUMP JUMPDEST PUSH1 0x4 PUSH1 0x0 CALLER PUSH20 0xFFFFFFFFFFFFFFFFFFFFFFFFFFFFFFFFFFFFFFFF AND PUSH20 0xFFFFFFFFFFFFFFFFFFFFFFFFFFFFFFFFFFFFFFFF AND DUP2 MSTORE PUSH1 0x20 ADD SWAP1 DUP2 MSTORE PUSH1 0x20 ADD PUSH1 0x0 KECCAK256 PUSH1 0x1 ADD DUP2 SWAP1 SSTORE POP DUP1 PUSH1 0x4 PUSH1 0x0 CALLER PUSH20 0xFFFFFFFFFFFFFFFFFFFFFFFFFFFFFFFFFFFFFFFF AND PUSH20 0xFFFFFFFFFFFFFFFFFFFFFFFFFFFFFFFFFFFFFFFF AND DUP2 MSTORE PUSH1 0x20 ADD SWAP1 DUP2 MSTORE PUSH1 0x20 ADD PUSH1 0x0 KECCAK256 PUSH1 0x0 ADD PUSH1 0x0 DUP3 DUP3 SLOAD PUSH2 0x57C SWAP2 SWAP1 PUSH2 0xA4F JUMP JUMPDEST SWAP3 POP POP DUP2 SWAP1 SSTORE POP TIMESTAMP PUSH1 0x4 PUSH1 0x0 CALLER PUSH20 0xFFFFFFFFFFFFFFFFFFFFFFFFFFFFFFFFFFFFFFFF AND PUSH20 0xFFFFFFFFFFFFFFFFFFFFFFFFFFFFFFFFFFFFFFFF AND DUP2 MSTORE PUSH1 0x20 ADD SWAP1 DUP2 MSTORE PUSH1 0x20 ADD PUSH1 0x0 KECCAK256 PUSH1 0x4 ADD DUP2 SWAP1 SSTORE POP DUP1 PUSH1 0x0 DUP1 DUP3 DUP3 SLOAD PUSH2 0x5DB SWAP2 SWAP1 PUSH2 0xA4F JUMP JUMPDEST SWAP3 POP POP DUP2 SWAP1 SSTORE POP CALLER PUSH20 0xFFFFFFFFFFFFFFFFFFFFFFFFFFFFFFFFFFFFFFFF AND PUSH32 0xEBEDB8B3C678666E7F36970BC8F57ABF6D8FA2E828C0DA91EA5B75BF68ED101A DUP3 PUSH1 0x40 MLOAD PUSH2 0x628 SWAP2 SWAP1 PUSH2 0x672 JUMP JUMPDEST PUSH1 0x40 MLOAD DUP1 SWAP2 SUB SWAP1 LOG2 POP JUMP JUMPDEST PUSH1 0x5 PUSH1 0x0 SWAP1 SLOAD SWAP1 PUSH2 0x100 EXP SWAP1 DIV PUSH20 0xFFFFFFFFFFFFFFFFFFFFFFFFFFFFFFFFFFFFFFFF AND DUP2 JUMP JUMPDEST PUSH1 0x0 DUP2 SWAP1 POP SWAP2 SWAP1 POP JUMP JUMPDEST PUSH2 0x66C DUP2 PUSH2 0x659 JUMP JUMPDEST DUP3 MSTORE POP POP JUMP JUMPDEST PUSH1 0x0 PUSH1 0x20 DUP3 ADD SWAP1 POP PUSH2 0x687 PUSH1 0x0 DUP4 ADD DUP5 PUSH2 0x663 JUMP JUMPDEST SWAP3 SWAP2 POP POP JUMP JUMPDEST PUSH1 0x0 PUSH20 0xFFFFFFFFFFFFFFFFFFFFFFFFFFFFFFFFFFFFFFFF DUP3 AND SWAP1 POP SWAP2 SWAP1 POP JUMP JUMPDEST PUSH1 0x0 PUSH2 0x6B8 DUP3 PUSH2 0x68D JUMP JUMPDEST SWAP1 POP SWAP2 SWAP1 POP JUMP JUMPDEST PUSH2 0x6C8 DUP2 PUSH2 0x6AD JUMP JUMPDEST DUP3 MSTORE POP POP JUMP JUMPDEST PUSH1 0x0 PUSH1 0x20 DUP3 ADD SWAP1 POP PUSH2 0x6E3 PUSH1 0x0 DUP4 ADD DUP5 PUSH2 0x6BF JUMP JUMPDEST SWAP3 SWAP2 POP POP JUMP JUMPDEST PUSH1 0x0 DUP1 REVERT JUMPDEST PUSH2 0x6F7 DUP2 PUSH2 0x6AD JUMP JUMPDEST DUP2 EQ PUSH2 0x702 JUMPI PUSH1 0x0 DUP1 REVERT JUMPDEST POP JUMP JUMPDEST PUSH1 0x0 DUP2 CALLDATALOAD SWAP1 POP PUSH2 0x714 DUP2 PUSH2 0x6EE JUMP JUMPDEST SWAP3 SWAP2 POP POP JUMP JUMPDEST PUSH1 0x0 PUSH1 0x20 DUP3 DUP5 SUB SLT ISZERO PUSH2 0x730 JUMPI PUSH2 0x72F PUSH2 0x6E9 JUMP JUMPDEST JUMPDEST PUSH1 0x0 PUSH2 0x73E DUP5 DUP3 DUP6 ADD PUSH2 0x705 JUMP JUMPDEST SWAP2 POP POP SWAP3 SWAP2 POP POP JUMP JUMPDEST PUSH1 0x0 PUSH1 0xA0 DUP3 ADD SWAP1 POP PUSH2 0x75C PUSH1 0x0 DUP4 ADD DUP9 PUSH2 0x663 JUMP JUMPDEST PUSH2 0x769 PUSH1 0x20 DUP4 ADD DUP8 PUSH2 0x663 JUMP JUMPDEST PUSH2 0x776 PUSH1 0x40 DUP4 ADD DUP7 PUSH2 0x663 JUMP JUMPDEST PUSH2 0x783 PUSH1 0x60 DUP4 ADD DUP6 PUSH2 0x663 JUMP JUMPDEST PUSH2 0x790 PUSH1 0x80 DUP4 ADD DUP5 PUSH2 0x663 JUMP JUMPDEST SWAP7 SWAP6 POP POP POP POP POP POP JUMP JUMPDEST PUSH2 0x7A3 DUP2 PUSH2 0x659 JUMP JUMPDEST DUP2 EQ PUSH2 0x7AE JUMPI PUSH1 0x0 DUP1 REVERT JUMPDEST POP JUMP JUMPDEST PUSH1 0x0 DUP2 CALLDATALOAD SWAP1 POP PUSH2 0x7C0 DUP2 PUSH2 0x79A JUMP JUMPDEST SWAP3 SWAP2 POP POP JUMP JUMPDEST PUSH1 0x0 PUSH1 0x20 DUP3 DUP5 SUB SLT ISZERO PUSH2 0x7DC JUMPI PUSH2 0x7DB PUSH2 0x6E9 JUMP JUMPDEST JUMPDEST PUSH1 0x0 PUSH2 0x7EA DUP5 DUP3 DUP6 ADD PUSH2 0x7B1 JUMP JUMPDEST SWAP2 POP POP SWAP3 SWAP2 POP POP JUMP JUMPDEST PUSH1 0x0 DUP2 SWAP1 POP SWAP2 SWAP1 POP JUMP JUMPDEST PUSH1 0x0 PUSH2 0x818 PUSH2 0x813 PUSH2 0x80E DUP5 PUSH2 0x68D JUMP JUMPDEST PUSH2 0x7F3 JUMP JUMPDEST PUSH2 0x68D JUMP JUMPDEST SWAP1 POP SWAP2 SWAP1 POP JUMP JUMPDEST PUSH1 0x0 PUSH2 0x82A DUP3 PUSH2 0x7FD JUMP JUMPDEST SWAP1 POP SWAP2 SWAP1 POP JUMP JUMPDEST PUSH1 0x0 PUSH2 0x83C DUP3 PUSH2 0x81F JUMP JUMPDEST SWAP1 POP SWAP2 SWAP1 POP JUMP JUMPDEST PUSH2 0x84C DUP2 PUSH2 0x831 JUMP JUMPDEST DUP3 MSTORE POP POP JUMP JUMPDEST PUSH1 0x0 PUSH1 0x20 DUP3 ADD SWAP1 POP PUSH2 0x867 PUSH1 0x0 DUP4 ADD DUP5 PUSH2 0x843 JUMP JUMPDEST SWAP3 SWAP2 POP POP JUMP JUMPDEST PUSH1 0x0 PUSH1 0x40 DUP3 ADD SWAP1 POP PUSH2 0x882 PUSH1 0x0 DUP4 ADD DUP6 PUSH2 0x6BF JUMP JUMPDEST PUSH2 0x88F PUSH1 0x20 DUP4 ADD DUP5 PUSH2 0x663 JUMP JUMPDEST SWAP4 SWAP3 POP POP POP JUMP JUMPDEST PUSH1 0x0 DUP2 ISZERO ISZERO SWAP1 POP SWAP2 SWAP1 POP JUMP JUMPDEST PUSH2 0x8AB DUP2 PUSH2 0x896 JUMP JUMPDEST DUP2 EQ PUSH2 0x8B6 JUMPI PUSH1 0x0 DUP1 REVERT JUMPDEST POP JUMP JUMPDEST PUSH1 0x0 DUP2 MLOAD SWAP1 POP PUSH2 0x8C8 DUP2 PUSH2 0x8A2 JUMP JUMPDEST SWAP3 SWAP2 POP POP JUMP JUMPDEST PUSH1 0x0 PUSH1 0x20 DUP3 DUP5 SUB SLT ISZERO PUSH2 0x8E4 JUMPI PUSH2 0x8E3 PUSH2 0x6E9 JUMP JUMPDEST JUMPDEST PUSH1 0x0 PUSH2 0x8F2 DUP5 DUP3 DUP6 ADD PUSH2 0x8B9 JUMP JUMPDEST SWAP2 POP POP SWAP3 SWAP2 POP POP JUMP JUMPDEST PUSH1 0x0 PUSH1 0x60 DUP3 ADD SWAP1 POP PUSH2 0x910 PUSH1 0x0 DUP4 ADD DUP7 PUSH2 0x6BF JUMP JUMPDEST PUSH2 0x91D PUSH1 0x20 DUP4 ADD DUP6 PUSH2 0x6BF JUMP JUMPDEST PUSH2 0x92A PUSH1 0x40 DUP4 ADD DUP5 PUSH2 0x663 JUMP JUMPDEST SWAP5 SWAP4 POP POP POP POP JUMP JUMPDEST PUSH32 0x4E487B7100000000000000000000000000000000000000000000000000000000 PUSH1 0x0 MSTORE PUSH1 0x11 PUSH1 0x4 MSTORE PUSH1 0x24 PUSH1 0x0 REVERT JUMPDEST PUSH1 0x0 PUSH2 0x96C DUP3 PUSH2 0x659 JUMP JUMPDEST SWAP2 POP PUSH2 0x977 DUP4 PUSH2 0x659 JUMP JUMPDEST SWAP3 POP DUP2 PUSH32 0xFFFFFFFFFFFFFFFFFFFFFFFFFFFFFFFFFFFFFFFFFFFFFFFFFFFFFFFFFFFFFFFF DIV DUP4 GT DUP3 ISZERO ISZERO AND ISZERO PUSH2 0x9B0 JUMPI PUSH2 0x9AF PUSH2 0x932 JUMP JUMPDEST JUMPDEST DUP3 DUP3 MUL SWAP1 POP SWAP3 SWAP2 POP POP JUMP JUMPDEST PUSH32 0x4E487B7100000000000000000000000000000000000000000000000000000000 PUSH1 0x0 MSTORE PUSH1 0x12 PUSH1 0x4 MSTORE PUSH1 0x24 PUSH1 0x0 REVERT JUMPDEST PUSH1 0x0 PUSH2 0x9F5 DUP3 PUSH2 0x659 JUMP JUMPDEST SWAP2 POP PUSH2 0xA00 DUP4 PUSH2 0x659 JUMP JUMPDEST SWAP3 POP DUP3 PUSH2 0xA10 JUMPI PUSH2 0xA0F PUSH2 0x9BB JUMP JUMPDEST JUMPDEST DUP3 DUP3 DIV SWAP1 POP SWAP3 SWAP2 POP POP JUMP JUMPDEST PUSH1 0x0 PUSH2 0xA26 DUP3 PUSH2 0x659 JUMP JUMPDEST SWAP2 POP PUSH2 0xA31 DUP4 PUSH2 0x659 JUMP JUMPDEST SWAP3 POP DUP3 DUP3 LT ISZERO PUSH2 0xA44 JUMPI PUSH2 0xA43 PUSH2 0x932 JUMP JUMPDEST JUMPDEST DUP3 DUP3 SUB SWAP1 POP SWAP3 SWAP2 POP POP JUMP JUMPDEST PUSH1 0x0 PUSH2 0xA5A DUP3 PUSH2 0x659 JUMP JUMPDEST SWAP2 POP PUSH2 0xA65 DUP4 PUSH2 0x659 JUMP JUMPDEST SWAP3 POP DUP3 PUSH32 0xFFFFFFFFFFFFFFFFFFFFFFFFFFFFFFFFFFFFFFFFFFFFFFFFFFFFFFFFFFFFFFFF SUB DUP3 GT ISZERO PUSH2 0xA9A JUMPI PUSH2 0xA99 PUSH2 0x932 JUMP JUMPDEST JUMPDEST DUP3 DUP3 ADD SWAP1 POP SWAP3 SWAP2 POP POP JUMP INVALID LOG2 PUSH5 0x6970667358 0x22 SLT KECCAK256 CALLCODE 0xCE DUP16 0xB0 EXTCODESIZE 0xEE SWAP4 DUP9 0xE2 0xA6 0xA9 MSTORE8 DUP9 INVALID 0xE8 PUSH12 0xDC015603D083732D14D1696 MSIZE PUSH25 0xD9F164736F6C634300080F0033000000000000000000000000 "
				},
				"gasEstimates": {
					"creation": {
						"codeDepositCost": "555800",
						"executionCost": "infinite",
						"totalCost": "infinite"
					},
					"external": {
						"ierc20()": "infinite",
						"owner()": "2581",
						"ratio()": "2452",
						"stake(uint256)": "infinite",
						"tokenAddress()": "2536",
						"totalStakeNumber()": "2430",
						"unStake()": "infinite",
						"userStakes(address)": "infinite"
					}
				},
				"methodIdentifiers": {
					"ierc20()": "bf0ae63d",
					"owner()": "8da5cb5b",
					"ratio()": "71ca337d",
					"stake(uint256)": "a694fc3a",
					"tokenAddress()": "9d76ea58",
					"totalStakeNumber()": "53b645e5",
					"unStake()": "73cf575a",
					"userStakes(address)": "8da7ad23"
				}
			},
			"storageLayout": {
				"storage": [
					{
						"astId": 104,
						"contract": "contracts/StakePool.sol:StakePool",
						"label": "totalStakeNumber",
						"offset": 0,
						"slot": "0",
						"type": "t_uint256"
					},
					{
						"astId": 106,
						"contract": "contracts/StakePool.sol:StakePool",
						"label": "tokenAddress",
						"offset": 0,
						"slot": "1",
						"type": "t_address"
					},
					{
						"astId": 108,
						"contract": "contracts/StakePool.sol:StakePool",
						"label": "owner",
						"offset": 0,
						"slot": "2",
						"type": "t_address"
					},
					{
						"astId": 110,
						"contract": "contracts/StakePool.sol:StakePool",
						"label": "ratio",
						"offset": 0,
						"slot": "3",
						"type": "t_uint256"
					},
					{
						"astId": 115,
						"contract": "contracts/StakePool.sol:StakePool",
						"label": "userStakes",
						"offset": 0,
						"slot": "4",
						"type": "t_mapping(t_address,t_struct(User)101_storage)"
					},
					{
						"astId": 118,
						"contract": "contracts/StakePool.sol:StakePool",
						"label": "ierc20",
						"offset": 0,
						"slot": "5",
						"type": "t_contract(IERC20)68"
					}
				],
				"types": {
					"t_address": {
						"encoding": "inplace",
						"label": "address",
						"numberOfBytes": "20"
					},
					"t_contract(IERC20)68": {
						"encoding": "inplace",
						"label": "contract IERC20",
						"numberOfBytes": "20"
					},
					"t_mapping(t_address,t_struct(User)101_storage)": {
						"encoding": "mapping",
						"key": "t_address",
						"label": "mapping(address => struct StakePool.User)",
						"numberOfBytes": "32",
						"value": "t_struct(User)101_storage"
					},
					"t_struct(User)101_storage": {
						"encoding": "inplace",
						"label": "struct StakePool.User",
						"members": [
							{
								"astId": 92,
								"contract": "contracts/StakePool.sol:StakePool",
								"label": "stakeNumber",
								"offset": 0,
								"slot": "0",
								"type": "t_uint256"
							},
							{
								"astId": 94,
								"contract": "contracts/StakePool.sol:StakePool",
								"label": "currentInterest",
								"offset": 0,
								"slot": "1",
								"type": "t_uint256"
							},
							{
								"astId": 96,
								"contract": "contracts/StakePool.sol:StakePool",
								"label": "claimedInterest",
								"offset": 0,
								"slot": "2",
								"type": "t_uint256"
							},
							{
								"astId": 98,
								"contract": "contracts/StakePool.sol:StakePool",
								"label": "lastInerest",
								"offset": 0,
								"slot": "3",
								"type": "t_uint256"
							},
							{
								"astId": 100,
								"contract": "contracts/StakePool.sol:StakePool",
								"label": "lastStakeTime",
								"offset": 0,
								"slot": "4",
								"type": "t_uint256"
							}
						],
						"numberOfBytes": "160"
					},
					"t_uint256": {
						"encoding": "inplace",
						"label": "uint256",
						"numberOfBytes": "32"
					}
				}
			},
			"userdoc": {
				"kind": "user",
				"methods": {},
				"version": 1
			}
		}
	}
}