{
	"contracts/StakePool.sol": {
		"StakePool": {
			"abi": [
				{
					"inputs": [
						{
							"internalType": "address",
							"name": "_tokenAddress",
							"type": "address"
						}
					],
					"stateMutability": "nonpayable",
					"type": "constructor"
				},
				{
					"anonymous": false,
					"inputs": [
						{
							"indexed": true,
							"internalType": "address",
							"name": "user",
							"type": "address"
						},
						{
							"indexed": false,
							"internalType": "uint256",
							"name": "receiveNumber",
							"type": "uint256"
						}
					],
					"name": "Receive",
					"type": "event"
				},
				{
					"anonymous": false,
					"inputs": [
						{
							"indexed": true,
							"internalType": "address",
							"name": "user",
							"type": "address"
						},
						{
							"indexed": false,
							"internalType": "uint256",
							"name": "stakeNumber",
							"type": "uint256"
						}
					],
					"name": "Stake",
					"type": "event"
				},
				{
					"anonymous": false,
					"inputs": [
						{
							"indexed": true,
							"internalType": "address",
							"name": "user",
							"type": "address"
						},
						{
							"indexed": false,
							"internalType": "uint256",
							"name": "unStakeNumber",
							"type": "uint256"
						}
					],
					"name": "UnStake",
					"type": "event"
				},
				{
					"anonymous": false,
					"inputs": [
						{
							"indexed": false,
							"internalType": "uint8",
							"name": "ratio",
							"type": "uint8"
						}
					],
					"name": "UpdateRatio",
					"type": "event"
				},
				{
					"inputs": [],
					"name": "ierc20",
					"outputs": [
						{
							"internalType": "contract IERC20",
							"name": "",
							"type": "address"
						}
					],
					"stateMutability": "view",
					"type": "function"
				},
				{
					"inputs": [],
					"name": "owner",
					"outputs": [
						{
							"internalType": "address",
							"name": "",
							"type": "address"
						}
					],
					"stateMutability": "view",
					"type": "function"
				},
				{
					"inputs": [
						{
							"internalType": "uint256",
							"name": "_stakeNumber",
							"type": "uint256"
						}
					],
					"name": "stake",
					"outputs": [],
					"stateMutability": "payable",
					"type": "function"
				},
				{
					"inputs": [],
					"name": "tokenAddress",
					"outputs": [
						{
							"internalType": "address",
							"name": "",
							"type": "address"
						}
					],
					"stateMutability": "view",
					"type": "function"
				},
				{
					"inputs": [],
					"name": "totalStakeNumber",
					"outputs": [
						{
							"internalType": "uint256",
							"name": "",
							"type": "uint256"
						}
					],
					"stateMutability": "view",
					"type": "function"
				},
				{
					"inputs": [
						{
							"internalType": "address",
							"name": "",
							"type": "address"
						}
					],
					"name": "userStakes",
					"outputs": [
						{
							"internalType": "uint256",
							"name": "stakeNumber",
							"type": "uint256"
						},
						{
							"internalType": "uint256",
							"name": "currentInterest",
							"type": "uint256"
						},
						{
							"internalType": "uint256",
							"name": "claimedInterest",
							"type": "uint256"
						},
						{
							"internalType": "uint256",
							"name": "lastInerest",
							"type": "uint256"
						},
						{
							"internalType": "uint256",
							"name": "lastStakeTime",
							"type": "uint256"
						}
					],
					"stateMutability": "view",
					"type": "function"
				}
			],
			"devdoc": {
				"kind": "dev",
				"methods": {},
				"version": 1
			},
			"evm": {
				"assembly": "    /* \"contracts/StakePool.sol\":702:1769  contract StakePool{... */\n  mstore(0x40, 0x80)\n    /* \"contracts/StakePool.sol\":1194:1195  1 */\n  0x01\n    /* \"contracts/StakePool.sol\":1160:1195  uint256 public totalStakeNumber = 1 */\n  0x00\n  sstore\n    /* \"contracts/StakePool.sol\":1405:1525  constructor(address _tokenAddress) {... */\n  callvalue\n  dup1\n  iszero\n  tag_1\n  jumpi\n  0x00\n  dup1\n  revert\ntag_1:\n  pop\n  mload(0x40)\n  sub(codesize, bytecodeSize)\n  dup1\n  bytecodeSize\n  dup4\n  codecopy\n  dup2\n  dup2\n  add\n  0x40\n  mstore\n  dup2\n  add\n  swap1\n  tag_2\n  swap2\n  swap1\n  tag_3\n  jump\t// in\ntag_2:\n    /* \"contracts/StakePool.sol\":1465:1478  _tokenAddress */\n  dup1\n    /* \"contracts/StakePool.sol\":1450:1462  tokenAddress */\n  0x01\n  0x00\n    /* \"contracts/StakePool.sol\":1450:1478  tokenAddress = _tokenAddress */\n  0x0100\n  exp\n  dup2\n  sload\n  dup2\n  0xffffffffffffffffffffffffffffffffffffffff\n  mul\n  not\n  and\n  swap1\n  dup4\n  0xffffffffffffffffffffffffffffffffffffffff\n  and\n  mul\n  or\n  swap1\n  sstore\n  pop\n    /* \"contracts/StakePool.sol\":1504:1517  _tokenAddress */\n  dup1\n    /* \"contracts/StakePool.sol\":1488:1494  ierc20 */\n  0x04\n  0x00\n    /* \"contracts/StakePool.sol\":1488:1518  ierc20 = IERC20(_tokenAddress) */\n  0x0100\n  exp\n  dup2\n  sload\n  dup2\n  0xffffffffffffffffffffffffffffffffffffffff\n  mul\n  not\n  and\n  swap1\n  dup4\n  0xffffffffffffffffffffffffffffffffffffffff\n  and\n  mul\n  or\n  swap1\n  sstore\n  pop\n    /* \"contracts/StakePool.sol\":1405:1525  constructor(address _tokenAddress) {... */\n  pop\n    /* \"contracts/StakePool.sol\":702:1769  contract StakePool{... */\n  jump(tag_6)\n    /* \"#utility.yul\":88:205   */\ntag_8:\n    /* \"#utility.yul\":197:198   */\n  0x00\n    /* \"#utility.yul\":194:195   */\n  dup1\n    /* \"#utility.yul\":187:199   */\n  revert\n    /* \"#utility.yul\":334:460   */\ntag_10:\n    /* \"#utility.yul\":371:378   */\n  0x00\n    /* \"#utility.yul\":411:453   */\n  0xffffffffffffffffffffffffffffffffffffffff\n    /* \"#utility.yul\":404:409   */\n  dup3\n    /* \"#utility.yul\":400:454   */\n  and\n    /* \"#utility.yul\":389:454   */\n  swap1\n  pop\n    /* \"#utility.yul\":334:460   */\n  swap2\n  swap1\n  pop\n  jump\t// out\n    /* \"#utility.yul\":466:562   */\ntag_11:\n    /* \"#utility.yul\":503:510   */\n  0x00\n    /* \"#utility.yul\":532:556   */\n  tag_20\n    /* \"#utility.yul\":550:555   */\n  dup3\n    /* \"#utility.yul\":532:556   */\n  tag_10\n  jump\t// in\ntag_20:\n    /* \"#utility.yul\":521:556   */\n  swap1\n  pop\n    /* \"#utility.yul\":466:562   */\n  swap2\n  swap1\n  pop\n  jump\t// out\n    /* \"#utility.yul\":568:690   */\ntag_12:\n    /* \"#utility.yul\":641:665   */\n  tag_22\n    /* \"#utility.yul\":659:664   */\n  dup2\n    /* \"#utility.yul\":641:665   */\n  tag_11\n  jump\t// in\ntag_22:\n    /* \"#utility.yul\":634:639   */\n  dup2\n    /* \"#utility.yul\":631:666   */\n  eq\n    /* \"#utility.yul\":621:684   */\n  tag_23\n  jumpi\n    /* \"#utility.yul\":680:681   */\n  0x00\n    /* \"#utility.yul\":677:678   */\n  dup1\n    /* \"#utility.yul\":670:682   */\n  revert\n    /* \"#utility.yul\":621:684   */\ntag_23:\n    /* \"#utility.yul\":568:690   */\n  pop\n  jump\t// out\n    /* \"#utility.yul\":696:839   */\ntag_13:\n    /* \"#utility.yul\":753:758   */\n  0x00\n    /* \"#utility.yul\":784:790   */\n  dup2\n    /* \"#utility.yul\":778:791   */\n  mload\n    /* \"#utility.yul\":769:791   */\n  swap1\n  pop\n    /* \"#utility.yul\":800:833   */\n  tag_25\n    /* \"#utility.yul\":827:832   */\n  dup2\n    /* \"#utility.yul\":800:833   */\n  tag_12\n  jump\t// in\ntag_25:\n    /* \"#utility.yul\":696:839   */\n  swap3\n  swap2\n  pop\n  pop\n  jump\t// out\n    /* \"#utility.yul\":845:1196   */\ntag_3:\n    /* \"#utility.yul\":915:921   */\n  0x00\n    /* \"#utility.yul\":964:966   */\n  0x20\n    /* \"#utility.yul\":952:961   */\n  dup3\n    /* \"#utility.yul\":943:950   */\n  dup5\n    /* \"#utility.yul\":939:962   */\n  sub\n    /* \"#utility.yul\":935:967   */\n  slt\n    /* \"#utility.yul\":932:1051   */\n  iszero\n  tag_27\n  jumpi\n    /* \"#utility.yul\":970:1049   */\n  tag_28\n  tag_8\n  jump\t// in\ntag_28:\n    /* \"#utility.yul\":932:1051   */\ntag_27:\n    /* \"#utility.yul\":1090:1091   */\n  0x00\n    /* \"#utility.yul\":1115:1179   */\n  tag_29\n    /* \"#utility.yul\":1171:1178   */\n  dup5\n    /* \"#utility.yul\":1162:1168   */\n  dup3\n    /* \"#utility.yul\":1151:1160   */\n  dup6\n    /* \"#utility.yul\":1147:1169   */\n  add\n    /* \"#utility.yul\":1115:1179   */\n  tag_13\n  jump\t// in\ntag_29:\n    /* \"#utility.yul\":1105:1179   */\n  swap2\n  pop\n    /* \"#utility.yul\":1061:1189   */\n  pop\n    /* \"#utility.yul\":845:1196   */\n  swap3\n  swap2\n  pop\n  pop\n  jump\t// out\n    /* \"contracts/StakePool.sol\":702:1769  contract StakePool{... */\ntag_6:\n  dataSize(sub_0)\n  dup1\n  dataOffset(sub_0)\n  0x00\n  codecopy\n  0x00\n  return\nstop\n\nsub_0: assembly {\n        /* \"contracts/StakePool.sol\":702:1769  contract StakePool{... */\n      mstore(0x40, 0x80)\n      jumpi(tag_1, lt(calldatasize, 0x04))\n      shr(0xe0, calldataload(0x00))\n      dup1\n      0x53b645e5\n      eq\n      tag_2\n      jumpi\n      dup1\n      0x8da5cb5b\n      eq\n      tag_3\n      jumpi\n      dup1\n      0x8da7ad23\n      eq\n      tag_4\n      jumpi\n      dup1\n      0x9d76ea58\n      eq\n      tag_5\n      jumpi\n      dup1\n      0xa694fc3a\n      eq\n      tag_6\n      jumpi\n      dup1\n      0xbf0ae63d\n      eq\n      tag_7\n      jumpi\n    tag_1:\n      0x00\n      dup1\n      revert\n        /* \"contracts/StakePool.sol\":1160:1195  uint256 public totalStakeNumber = 1 */\n    tag_2:\n      callvalue\n      dup1\n      iszero\n      tag_8\n      jumpi\n      0x00\n      dup1\n      revert\n    tag_8:\n      pop\n      tag_9\n      tag_10\n      jump\t// in\n    tag_9:\n      mload(0x40)\n      tag_11\n      swap2\n      swap1\n      tag_12\n      jump\t// in\n    tag_11:\n      mload(0x40)\n      dup1\n      swap2\n      sub\n      swap1\n      return\n        /* \"contracts/StakePool.sol\":1277:1297  address public owner */\n    tag_3:\n      callvalue\n      dup1\n      iszero\n      tag_13\n      jumpi\n      0x00\n      dup1\n      revert\n    tag_13:\n      pop\n      tag_14\n      tag_15\n      jump\t// in\n    tag_14:\n      mload(0x40)\n      tag_16\n      swap2\n      swap1\n      tag_17\n      jump\t// in\n    tag_16:\n      mload(0x40)\n      dup1\n      swap2\n      sub\n      swap1\n      return\n        /* \"contracts/StakePool.sol\":1329:1371  mapping(address => User) public userStakes */\n    tag_4:\n      callvalue\n      dup1\n      iszero\n      tag_18\n      jumpi\n      0x00\n      dup1\n      revert\n    tag_18:\n      pop\n      tag_19\n      0x04\n      dup1\n      calldatasize\n      sub\n      dup2\n      add\n      swap1\n      tag_20\n      swap2\n      swap1\n      tag_21\n      jump\t// in\n    tag_20:\n      tag_22\n      jump\t// in\n    tag_19:\n      mload(0x40)\n      tag_23\n      swap6\n      swap5\n      swap4\n      swap3\n      swap2\n      swap1\n      tag_24\n      jump\t// in\n    tag_23:\n      mload(0x40)\n      dup1\n      swap2\n      sub\n      swap1\n      return\n        /* \"contracts/StakePool.sol\":1221:1248  address public tokenAddress */\n    tag_5:\n      callvalue\n      dup1\n      iszero\n      tag_25\n      jumpi\n      0x00\n      dup1\n      revert\n    tag_25:\n      pop\n      tag_26\n      tag_27\n      jump\t// in\n    tag_26:\n      mload(0x40)\n      tag_28\n      swap2\n      swap1\n      tag_17\n      jump\t// in\n    tag_28:\n      mload(0x40)\n      dup1\n      swap2\n      sub\n      swap1\n      return\n        /* \"contracts/StakePool.sol\":1632:1763  function stake(uint256 _stakeNumber) external payable {... */\n    tag_6:\n      tag_29\n      0x04\n      dup1\n      calldatasize\n      sub\n      dup2\n      add\n      swap1\n      tag_30\n      swap2\n      swap1\n      tag_31\n      jump\t// in\n    tag_30:\n      tag_32\n      jump\t// in\n    tag_29:\n      stop\n        /* \"contracts/StakePool.sol\":1377:1397  IERC20 public ierc20 */\n    tag_7:\n      callvalue\n      dup1\n      iszero\n      tag_33\n      jumpi\n      0x00\n      dup1\n      revert\n    tag_33:\n      pop\n      tag_34\n      tag_35\n      jump\t// in\n    tag_34:\n      mload(0x40)\n      tag_36\n      swap2\n      swap1\n      tag_37\n      jump\t// in\n    tag_36:\n      mload(0x40)\n      dup1\n      swap2\n      sub\n      swap1\n      return\n        /* \"contracts/StakePool.sol\":1160:1195  uint256 public totalStakeNumber = 1 */\n    tag_10:\n      sload(0x00)\n      dup2\n      jump\t// out\n        /* \"contracts/StakePool.sol\":1277:1297  address public owner */\n    tag_15:\n      0x02\n      0x00\n      swap1\n      sload\n      swap1\n      0x0100\n      exp\n      swap1\n      div\n      0xffffffffffffffffffffffffffffffffffffffff\n      and\n      dup2\n      jump\t// out\n        /* \"contracts/StakePool.sol\":1329:1371  mapping(address => User) public userStakes */\n    tag_22:\n      mstore(0x20, 0x03)\n      dup1\n      0x00\n      mstore\n      keccak256(0x00, 0x40)\n      0x00\n      swap2\n      pop\n      swap1\n      pop\n      dup1\n      0x00\n      add\n      sload\n      swap1\n      dup1\n      0x01\n      add\n      sload\n      swap1\n      dup1\n      0x02\n      add\n      sload\n      swap1\n      dup1\n      0x03\n      add\n      sload\n      swap1\n      dup1\n      0x04\n      add\n      sload\n      swap1\n      pop\n      dup6\n      jump\t// out\n        /* \"contracts/StakePool.sol\":1221:1248  address public tokenAddress */\n    tag_27:\n      0x01\n      0x00\n      swap1\n      sload\n      swap1\n      0x0100\n      exp\n      swap1\n      div\n      0xffffffffffffffffffffffffffffffffffffffff\n      and\n      dup2\n      jump\t// out\n        /* \"contracts/StakePool.sol\":1632:1763  function stake(uint256 _stakeNumber) external payable {... */\n    tag_32:\n        /* \"contracts/StakePool.sol\":1735:1747  _stakeNumber */\n      dup1\n        /* \"contracts/StakePool.sol\":1697:1707  userStakes */\n      0x03\n        /* \"contracts/StakePool.sol\":1697:1719  userStakes[msg.sender] */\n      0x00\n        /* \"contracts/StakePool.sol\":1708:1718  msg.sender */\n      caller\n        /* \"contracts/StakePool.sol\":1697:1719  userStakes[msg.sender] */\n      0xffffffffffffffffffffffffffffffffffffffff\n      and\n      0xffffffffffffffffffffffffffffffffffffffff\n      and\n      dup2\n      mstore\n      0x20\n      add\n      swap1\n      dup2\n      mstore\n      0x20\n      add\n      0x00\n      keccak256\n        /* \"contracts/StakePool.sol\":1697:1731  userStakes[msg.sender].stakeNumber */\n      0x00\n      add\n      0x00\n        /* \"contracts/StakePool.sol\":1697:1747  userStakes[msg.sender].stakeNumber += _stakeNumber */\n      dup3\n      dup3\n      sload\n      tag_39\n      swap2\n      swap1\n      tag_40\n      jump\t// in\n    tag_39:\n      swap3\n      pop\n      pop\n      dup2\n      swap1\n      sstore\n      pop\n        /* \"contracts/StakePool.sol\":1632:1763  function stake(uint256 _stakeNumber) external payable {... */\n      pop\n      jump\t// out\n        /* \"contracts/StakePool.sol\":1377:1397  IERC20 public ierc20 */\n    tag_35:\n      0x04\n      0x00\n      swap1\n      sload\n      swap1\n      0x0100\n      exp\n      swap1\n      div\n      0xffffffffffffffffffffffffffffffffffffffff\n      and\n      dup2\n      jump\t// out\n        /* \"#utility.yul\":7:84   */\n    tag_41:\n        /* \"#utility.yul\":44:51   */\n      0x00\n        /* \"#utility.yul\":73:78   */\n      dup2\n        /* \"#utility.yul\":62:78   */\n      swap1\n      pop\n        /* \"#utility.yul\":7:84   */\n      swap2\n      swap1\n      pop\n      jump\t// out\n        /* \"#utility.yul\":90:208   */\n    tag_42:\n        /* \"#utility.yul\":177:201   */\n      tag_62\n        /* \"#utility.yul\":195:200   */\n      dup2\n        /* \"#utility.yul\":177:201   */\n      tag_41\n      jump\t// in\n    tag_62:\n        /* \"#utility.yul\":172:175   */\n      dup3\n        /* \"#utility.yul\":165:202   */\n      mstore\n        /* \"#utility.yul\":90:208   */\n      pop\n      pop\n      jump\t// out\n        /* \"#utility.yul\":214:436   */\n    tag_12:\n        /* \"#utility.yul\":307:311   */\n      0x00\n        /* \"#utility.yul\":345:347   */\n      0x20\n        /* \"#utility.yul\":334:343   */\n      dup3\n        /* \"#utility.yul\":330:348   */\n      add\n        /* \"#utility.yul\":322:348   */\n      swap1\n      pop\n        /* \"#utility.yul\":358:429   */\n      tag_64\n        /* \"#utility.yul\":426:427   */\n      0x00\n        /* \"#utility.yul\":415:424   */\n      dup4\n        /* \"#utility.yul\":411:428   */\n      add\n        /* \"#utility.yul\":402:408   */\n      dup5\n        /* \"#utility.yul\":358:429   */\n      tag_42\n      jump\t// in\n    tag_64:\n        /* \"#utility.yul\":214:436   */\n      swap3\n      swap2\n      pop\n      pop\n      jump\t// out\n        /* \"#utility.yul\":442:568   */\n    tag_43:\n        /* \"#utility.yul\":479:486   */\n      0x00\n        /* \"#utility.yul\":519:561   */\n      0xffffffffffffffffffffffffffffffffffffffff\n        /* \"#utility.yul\":512:517   */\n      dup3\n        /* \"#utility.yul\":508:562   */\n      and\n        /* \"#utility.yul\":497:562   */\n      swap1\n      pop\n        /* \"#utility.yul\":442:568   */\n      swap2\n      swap1\n      pop\n      jump\t// out\n        /* \"#utility.yul\":574:670   */\n    tag_44:\n        /* \"#utility.yul\":611:618   */\n      0x00\n        /* \"#utility.yul\":640:664   */\n      tag_67\n        /* \"#utility.yul\":658:663   */\n      dup3\n        /* \"#utility.yul\":640:664   */\n      tag_43\n      jump\t// in\n    tag_67:\n        /* \"#utility.yul\":629:664   */\n      swap1\n      pop\n        /* \"#utility.yul\":574:670   */\n      swap2\n      swap1\n      pop\n      jump\t// out\n        /* \"#utility.yul\":676:794   */\n    tag_45:\n        /* \"#utility.yul\":763:787   */\n      tag_69\n        /* \"#utility.yul\":781:786   */\n      dup2\n        /* \"#utility.yul\":763:787   */\n      tag_44\n      jump\t// in\n    tag_69:\n        /* \"#utility.yul\":758:761   */\n      dup3\n        /* \"#utility.yul\":751:788   */\n      mstore\n        /* \"#utility.yul\":676:794   */\n      pop\n      pop\n      jump\t// out\n        /* \"#utility.yul\":800:1022   */\n    tag_17:\n        /* \"#utility.yul\":893:897   */\n      0x00\n        /* \"#utility.yul\":931:933   */\n      0x20\n        /* \"#utility.yul\":920:929   */\n      dup3\n        /* \"#utility.yul\":916:934   */\n      add\n        /* \"#utility.yul\":908:934   */\n      swap1\n      pop\n        /* \"#utility.yul\":944:1015   */\n      tag_71\n        /* \"#utility.yul\":1012:1013   */\n      0x00\n        /* \"#utility.yul\":1001:1010   */\n      dup4\n        /* \"#utility.yul\":997:1014   */\n      add\n        /* \"#utility.yul\":988:994   */\n      dup5\n        /* \"#utility.yul\":944:1015   */\n      tag_45\n      jump\t// in\n    tag_71:\n        /* \"#utility.yul\":800:1022   */\n      swap3\n      swap2\n      pop\n      pop\n      jump\t// out\n        /* \"#utility.yul\":1109:1226   */\n    tag_47:\n        /* \"#utility.yul\":1218:1219   */\n      0x00\n        /* \"#utility.yul\":1215:1216   */\n      dup1\n        /* \"#utility.yul\":1208:1220   */\n      revert\n        /* \"#utility.yul\":1355:1477   */\n    tag_49:\n        /* \"#utility.yul\":1428:1452   */\n      tag_76\n        /* \"#utility.yul\":1446:1451   */\n      dup2\n        /* \"#utility.yul\":1428:1452   */\n      tag_44\n      jump\t// in\n    tag_76:\n        /* \"#utility.yul\":1421:1426   */\n      dup2\n        /* \"#utility.yul\":1418:1453   */\n      eq\n        /* \"#utility.yul\":1408:1471   */\n      tag_77\n      jumpi\n        /* \"#utility.yul\":1467:1468   */\n      0x00\n        /* \"#utility.yul\":1464:1465   */\n      dup1\n        /* \"#utility.yul\":1457:1469   */\n      revert\n        /* \"#utility.yul\":1408:1471   */\n    tag_77:\n        /* \"#utility.yul\":1355:1477   */\n      pop\n      jump\t// out\n        /* \"#utility.yul\":1483:1622   */\n    tag_50:\n        /* \"#utility.yul\":1529:1534   */\n      0x00\n        /* \"#utility.yul\":1567:1573   */\n      dup2\n        /* \"#utility.yul\":1554:1574   */\n      calldataload\n        /* \"#utility.yul\":1545:1574   */\n      swap1\n      pop\n        /* \"#utility.yul\":1583:1616   */\n      tag_79\n        /* \"#utility.yul\":1610:1615   */\n      dup2\n        /* \"#utility.yul\":1583:1616   */\n      tag_49\n      jump\t// in\n    tag_79:\n        /* \"#utility.yul\":1483:1622   */\n      swap3\n      swap2\n      pop\n      pop\n      jump\t// out\n        /* \"#utility.yul\":1628:1957   */\n    tag_21:\n        /* \"#utility.yul\":1687:1693   */\n      0x00\n        /* \"#utility.yul\":1736:1738   */\n      0x20\n        /* \"#utility.yul\":1724:1733   */\n      dup3\n        /* \"#utility.yul\":1715:1722   */\n      dup5\n        /* \"#utility.yul\":1711:1734   */\n      sub\n        /* \"#utility.yul\":1707:1739   */\n      slt\n        /* \"#utility.yul\":1704:1823   */\n      iszero\n      tag_81\n      jumpi\n        /* \"#utility.yul\":1742:1821   */\n      tag_82\n      tag_47\n      jump\t// in\n    tag_82:\n        /* \"#utility.yul\":1704:1823   */\n    tag_81:\n        /* \"#utility.yul\":1862:1863   */\n      0x00\n        /* \"#utility.yul\":1887:1940   */\n      tag_83\n        /* \"#utility.yul\":1932:1939   */\n      dup5\n        /* \"#utility.yul\":1923:1929   */\n      dup3\n        /* \"#utility.yul\":1912:1921   */\n      dup6\n        /* \"#utility.yul\":1908:1930   */\n      add\n        /* \"#utility.yul\":1887:1940   */\n      tag_50\n      jump\t// in\n    tag_83:\n        /* \"#utility.yul\":1877:1940   */\n      swap2\n      pop\n        /* \"#utility.yul\":1833:1950   */\n      pop\n        /* \"#utility.yul\":1628:1957   */\n      swap3\n      swap2\n      pop\n      pop\n      jump\t// out\n        /* \"#utility.yul\":1963:2627   */\n    tag_24:\n        /* \"#utility.yul\":2168:2172   */\n      0x00\n        /* \"#utility.yul\":2206:2209   */\n      0xa0\n        /* \"#utility.yul\":2195:2204   */\n      dup3\n        /* \"#utility.yul\":2191:2210   */\n      add\n        /* \"#utility.yul\":2183:2210   */\n      swap1\n      pop\n        /* \"#utility.yul\":2220:2291   */\n      tag_85\n        /* \"#utility.yul\":2288:2289   */\n      0x00\n        /* \"#utility.yul\":2277:2286   */\n      dup4\n        /* \"#utility.yul\":2273:2290   */\n      add\n        /* \"#utility.yul\":2264:2270   */\n      dup9\n        /* \"#utility.yul\":2220:2291   */\n      tag_42\n      jump\t// in\n    tag_85:\n        /* \"#utility.yul\":2301:2373   */\n      tag_86\n        /* \"#utility.yul\":2369:2371   */\n      0x20\n        /* \"#utility.yul\":2358:2367   */\n      dup4\n        /* \"#utility.yul\":2354:2372   */\n      add\n        /* \"#utility.yul\":2345:2351   */\n      dup8\n        /* \"#utility.yul\":2301:2373   */\n      tag_42\n      jump\t// in\n    tag_86:\n        /* \"#utility.yul\":2383:2455   */\n      tag_87\n        /* \"#utility.yul\":2451:2453   */\n      0x40\n        /* \"#utility.yul\":2440:2449   */\n      dup4\n        /* \"#utility.yul\":2436:2454   */\n      add\n        /* \"#utility.yul\":2427:2433   */\n      dup7\n        /* \"#utility.yul\":2383:2455   */\n      tag_42\n      jump\t// in\n    tag_87:\n        /* \"#utility.yul\":2465:2537   */\n      tag_88\n        /* \"#utility.yul\":2533:2535   */\n      0x60\n        /* \"#utility.yul\":2522:2531   */\n      dup4\n        /* \"#utility.yul\":2518:2536   */\n      add\n        /* \"#utility.yul\":2509:2515   */\n      dup6\n        /* \"#utility.yul\":2465:2537   */\n      tag_42\n      jump\t// in\n    tag_88:\n        /* \"#utility.yul\":2547:2620   */\n      tag_89\n        /* \"#utility.yul\":2615:2618   */\n      0x80\n        /* \"#utility.yul\":2604:2613   */\n      dup4\n        /* \"#utility.yul\":2600:2619   */\n      add\n        /* \"#utility.yul\":2591:2597   */\n      dup5\n        /* \"#utility.yul\":2547:2620   */\n      tag_42\n      jump\t// in\n    tag_89:\n        /* \"#utility.yul\":1963:2627   */\n      swap7\n      swap6\n      pop\n      pop\n      pop\n      pop\n      pop\n      pop\n      jump\t// out\n        /* \"#utility.yul\":2633:2755   */\n    tag_51:\n        /* \"#utility.yul\":2706:2730   */\n      tag_91\n        /* \"#utility.yul\":2724:2729   */\n      dup2\n        /* \"#utility.yul\":2706:2730   */\n      tag_41\n      jump\t// in\n    tag_91:\n        /* \"#utility.yul\":2699:2704   */\n      dup2\n        /* \"#utility.yul\":2696:2731   */\n      eq\n        /* \"#utility.yul\":2686:2749   */\n      tag_92\n      jumpi\n        /* \"#utility.yul\":2745:2746   */\n      0x00\n        /* \"#utility.yul\":2742:2743   */\n      dup1\n        /* \"#utility.yul\":2735:2747   */\n      revert\n        /* \"#utility.yul\":2686:2749   */\n    tag_92:\n        /* \"#utility.yul\":2633:2755   */\n      pop\n      jump\t// out\n        /* \"#utility.yul\":2761:2900   */\n    tag_52:\n        /* \"#utility.yul\":2807:2812   */\n      0x00\n        /* \"#utility.yul\":2845:2851   */\n      dup2\n        /* \"#utility.yul\":2832:2852   */\n      calldataload\n        /* \"#utility.yul\":2823:2852   */\n      swap1\n      pop\n        /* \"#utility.yul\":2861:2894   */\n      tag_94\n        /* \"#utility.yul\":2888:2893   */\n      dup2\n        /* \"#utility.yul\":2861:2894   */\n      tag_51\n      jump\t// in\n    tag_94:\n        /* \"#utility.yul\":2761:2900   */\n      swap3\n      swap2\n      pop\n      pop\n      jump\t// out\n        /* \"#utility.yul\":2906:3235   */\n    tag_31:\n        /* \"#utility.yul\":2965:2971   */\n      0x00\n        /* \"#utility.yul\":3014:3016   */\n      0x20\n        /* \"#utility.yul\":3002:3011   */\n      dup3\n        /* \"#utility.yul\":2993:3000   */\n      dup5\n        /* \"#utility.yul\":2989:3012   */\n      sub\n        /* \"#utility.yul\":2985:3017   */\n      slt\n        /* \"#utility.yul\":2982:3101   */\n      iszero\n      tag_96\n      jumpi\n        /* \"#utility.yul\":3020:3099   */\n      tag_97\n      tag_47\n      jump\t// in\n    tag_97:\n        /* \"#utility.yul\":2982:3101   */\n    tag_96:\n        /* \"#utility.yul\":3140:3141   */\n      0x00\n        /* \"#utility.yul\":3165:3218   */\n      tag_98\n        /* \"#utility.yul\":3210:3217   */\n      dup5\n        /* \"#utility.yul\":3201:3207   */\n      dup3\n        /* \"#utility.yul\":3190:3199   */\n      dup6\n        /* \"#utility.yul\":3186:3208   */\n      add\n        /* \"#utility.yul\":3165:3218   */\n      tag_52\n      jump\t// in\n    tag_98:\n        /* \"#utility.yul\":3155:3218   */\n      swap2\n      pop\n        /* \"#utility.yul\":3111:3228   */\n      pop\n        /* \"#utility.yul\":2906:3235   */\n      swap3\n      swap2\n      pop\n      pop\n      jump\t// out\n        /* \"#utility.yul\":3241:3301   */\n    tag_53:\n        /* \"#utility.yul\":3269:3272   */\n      0x00\n        /* \"#utility.yul\":3290:3295   */\n      dup2\n        /* \"#utility.yul\":3283:3295   */\n      swap1\n      pop\n        /* \"#utility.yul\":3241:3301   */\n      swap2\n      swap1\n      pop\n      jump\t// out\n        /* \"#utility.yul\":3307:3449   */\n    tag_54:\n        /* \"#utility.yul\":3357:3366   */\n      0x00\n        /* \"#utility.yul\":3390:3443   */\n      tag_101\n        /* \"#utility.yul\":3408:3442   */\n      tag_102\n        /* \"#utility.yul\":3417:3441   */\n      tag_103\n        /* \"#utility.yul\":3435:3440   */\n      dup5\n        /* \"#utility.yul\":3417:3441   */\n      tag_43\n      jump\t// in\n    tag_103:\n        /* \"#utility.yul\":3408:3442   */\n      tag_53\n      jump\t// in\n    tag_102:\n        /* \"#utility.yul\":3390:3443   */\n      tag_43\n      jump\t// in\n    tag_101:\n        /* \"#utility.yul\":3377:3443   */\n      swap1\n      pop\n        /* \"#utility.yul\":3307:3449   */\n      swap2\n      swap1\n      pop\n      jump\t// out\n        /* \"#utility.yul\":3455:3581   */\n    tag_55:\n        /* \"#utility.yul\":3505:3514   */\n      0x00\n        /* \"#utility.yul\":3538:3575   */\n      tag_105\n        /* \"#utility.yul\":3569:3574   */\n      dup3\n        /* \"#utility.yul\":3538:3575   */\n      tag_54\n      jump\t// in\n    tag_105:\n        /* \"#utility.yul\":3525:3575   */\n      swap1\n      pop\n        /* \"#utility.yul\":3455:3581   */\n      swap2\n      swap1\n      pop\n      jump\t// out\n        /* \"#utility.yul\":3587:3726   */\n    tag_56:\n        /* \"#utility.yul\":3650:3659   */\n      0x00\n        /* \"#utility.yul\":3683:3720   */\n      tag_107\n        /* \"#utility.yul\":3714:3719   */\n      dup3\n        /* \"#utility.yul\":3683:3720   */\n      tag_55\n      jump\t// in\n    tag_107:\n        /* \"#utility.yul\":3670:3720   */\n      swap1\n      pop\n        /* \"#utility.yul\":3587:3726   */\n      swap2\n      swap1\n      pop\n      jump\t// out\n        /* \"#utility.yul\":3732:3889   */\n    tag_57:\n        /* \"#utility.yul\":3832:3882   */\n      tag_109\n        /* \"#utility.yul\":3876:3881   */\n      dup2\n        /* \"#utility.yul\":3832:3882   */\n      tag_56\n      jump\t// in\n    tag_109:\n        /* \"#utility.yul\":3827:3830   */\n      dup3\n        /* \"#utility.yul\":3820:3883   */\n      mstore\n        /* \"#utility.yul\":3732:3889   */\n      pop\n      pop\n      jump\t// out\n        /* \"#utility.yul\":3895:4143   */\n    tag_37:\n        /* \"#utility.yul\":4001:4005   */\n      0x00\n        /* \"#utility.yul\":4039:4041   */\n      0x20\n        /* \"#utility.yul\":4028:4037   */\n      dup3\n        /* \"#utility.yul\":4024:4042   */\n      add\n        /* \"#utility.yul\":4016:4042   */\n      swap1\n      pop\n        /* \"#utility.yul\":4052:4136   */\n      tag_111\n        /* \"#utility.yul\":4133:4134   */\n      0x00\n        /* \"#utility.yul\":4122:4131   */\n      dup4\n        /* \"#utility.yul\":4118:4135   */\n      add\n        /* \"#utility.yul\":4109:4115   */\n      dup5\n        /* \"#utility.yul\":4052:4136   */\n      tag_57\n      jump\t// in\n    tag_111:\n        /* \"#utility.yul\":3895:4143   */\n      swap3\n      swap2\n      pop\n      pop\n      jump\t// out\n        /* \"#utility.yul\":4149:4329   */\n    tag_58:\n        /* \"#utility.yul\":4197:4274   */\n      0x4e487b7100000000000000000000000000000000000000000000000000000000\n        /* \"#utility.yul\":4194:4195   */\n      0x00\n        /* \"#utility.yul\":4187:4275   */\n      mstore\n        /* \"#utility.yul\":4294:4298   */\n      0x11\n        /* \"#utility.yul\":4291:4292   */\n      0x04\n        /* \"#utility.yul\":4284:4299   */\n      mstore\n        /* \"#utility.yul\":4318:4322   */\n      0x24\n        /* \"#utility.yul\":4315:4316   */\n      0x00\n        /* \"#utility.yul\":4308:4323   */\n      revert\n        /* \"#utility.yul\":4335:4640   */\n    tag_40:\n        /* \"#utility.yul\":4375:4378   */\n      0x00\n        /* \"#utility.yul\":4394:4414   */\n      tag_114\n        /* \"#utility.yul\":4412:4413   */\n      dup3\n        /* \"#utility.yul\":4394:4414   */\n      tag_41\n      jump\t// in\n    tag_114:\n        /* \"#utility.yul\":4389:4414   */\n      swap2\n      pop\n        /* \"#utility.yul\":4428:4448   */\n      tag_115\n        /* \"#utility.yul\":4446:4447   */\n      dup4\n        /* \"#utility.yul\":4428:4448   */\n      tag_41\n      jump\t// in\n    tag_115:\n        /* \"#utility.yul\":4423:4448   */\n      swap3\n      pop\n        /* \"#utility.yul\":4582:4583   */\n      dup3\n        /* \"#utility.yul\":4514:4580   */\n      0xffffffffffffffffffffffffffffffffffffffffffffffffffffffffffffffff\n        /* \"#utility.yul\":4510:4584   */\n      sub\n        /* \"#utility.yul\":4507:4508   */\n      dup3\n        /* \"#utility.yul\":4504:4585   */\n      gt\n        /* \"#utility.yul\":4501:4608   */\n      iszero\n      tag_116\n      jumpi\n        /* \"#utility.yul\":4588:4606   */\n      tag_117\n      tag_58\n      jump\t// in\n    tag_117:\n        /* \"#utility.yul\":4501:4608   */\n    tag_116:\n        /* \"#utility.yul\":4632:4633   */\n      dup3\n        /* \"#utility.yul\":4629:4630   */\n      dup3\n        /* \"#utility.yul\":4625:4634   */\n      add\n        /* \"#utility.yul\":4618:4634   */\n      swap1\n      pop\n        /* \"#utility.yul\":4335:4640   */\n      swap3\n      swap2\n      pop\n      pop\n      jump\t// out\n\n    auxdata: 0xa26469706673582212206a9796de0f7214794f6e7b556d0b1c1b043fb6f83585156724e80d287406f26364736f6c634300080f0033\n}\n",
				"bytecode": {
					"linkReferences": {},
					"object": "6080604052600160005534801561001557600080fd5b5060405161069a38038061069a83398181016040528101906100379190610122565b80600160006101000a81548173ffffffffffffffffffffffffffffffffffffffff021916908373ffffffffffffffffffffffffffffffffffffffff16021790555080600460006101000a81548173ffffffffffffffffffffffffffffffffffffffff021916908373ffffffffffffffffffffffffffffffffffffffff1602179055505061014f565b600080fd5b600073ffffffffffffffffffffffffffffffffffffffff82169050919050565b60006100ef826100c4565b9050919050565b6100ff816100e4565b811461010a57600080fd5b50565b60008151905061011c816100f6565b92915050565b600060208284031215610138576101376100bf565b5b60006101468482850161010d565b91505092915050565b61053c8061015e6000396000f3fe6080604052600436106100555760003560e01c806353b645e51461005a5780638da5cb5b146100855780638da7ad23146100b05780639d76ea58146100f1578063a694fc3a1461011c578063bf0ae63d14610138575b600080fd5b34801561006657600080fd5b5061006f610163565b60405161007c9190610286565b60405180910390f35b34801561009157600080fd5b5061009a610169565b6040516100a791906102e2565b60405180910390f35b3480156100bc57600080fd5b506100d760048036038101906100d2919061032e565b61018f565b6040516100e895949392919061035b565b60405180910390f35b3480156100fd57600080fd5b506101066101c5565b60405161011391906102e2565b60405180910390f35b610136600480360381019061013191906103da565b6101eb565b005b34801561014457600080fd5b5061014d610247565b60405161015a9190610466565b60405180910390f35b60005481565b600260009054906101000a900473ffffffffffffffffffffffffffffffffffffffff1681565b60036020528060005260406000206000915090508060000154908060010154908060020154908060030154908060040154905085565b600160009054906101000a900473ffffffffffffffffffffffffffffffffffffffff1681565b80600360003373ffffffffffffffffffffffffffffffffffffffff1673ffffffffffffffffffffffffffffffffffffffff168152602001908152602001600020600001600082825461023d91906104b0565b9250508190555050565b600460009054906101000a900473ffffffffffffffffffffffffffffffffffffffff1681565b6000819050919050565b6102808161026d565b82525050565b600060208201905061029b6000830184610277565b92915050565b600073ffffffffffffffffffffffffffffffffffffffff82169050919050565b60006102cc826102a1565b9050919050565b6102dc816102c1565b82525050565b60006020820190506102f760008301846102d3565b92915050565b600080fd5b61030b816102c1565b811461031657600080fd5b50565b60008135905061032881610302565b92915050565b600060208284031215610344576103436102fd565b5b600061035284828501610319565b91505092915050565b600060a0820190506103706000830188610277565b61037d6020830187610277565b61038a6040830186610277565b6103976060830185610277565b6103a46080830184610277565b9695505050505050565b6103b78161026d565b81146103c257600080fd5b50565b6000813590506103d4816103ae565b92915050565b6000602082840312156103f0576103ef6102fd565b5b60006103fe848285016103c5565b91505092915050565b6000819050919050565b600061042c610427610422846102a1565b610407565b6102a1565b9050919050565b600061043e82610411565b9050919050565b600061045082610433565b9050919050565b61046081610445565b82525050565b600060208201905061047b6000830184610457565b92915050565b7f4e487b7100000000000000000000000000000000000000000000000000000000600052601160045260246000fd5b60006104bb8261026d565b91506104c68361026d565b9250827fffffffffffffffffffffffffffffffffffffffffffffffffffffffffffffffff038211156104fb576104fa610481565b5b82820190509291505056fea26469706673582212206a9796de0f7214794f6e7b556d0b1c1b043fb6f83585156724e80d287406f26364736f6c634300080f0033",
					"opcodes": "PUSH1 0x80 PUSH1 0x40 MSTORE PUSH1 0x1 PUSH1 0x0 SSTORE CALLVALUE DUP1 ISZERO PUSH2 0x15 JUMPI PUSH1 0x0 DUP1 REVERT JUMPDEST POP PUSH1 0x40 MLOAD PUSH2 0x69A CODESIZE SUB DUP1 PUSH2 0x69A DUP4 CODECOPY DUP2 DUP2 ADD PUSH1 0x40 MSTORE DUP2 ADD SWAP1 PUSH2 0x37 SWAP2 SWAP1 PUSH2 0x122 JUMP JUMPDEST DUP1 PUSH1 0x1 PUSH1 0x0 PUSH2 0x100 EXP DUP2 SLOAD DUP2 PUSH20 0xFFFFFFFFFFFFFFFFFFFFFFFFFFFFFFFFFFFFFFFF MUL NOT AND SWAP1 DUP4 PUSH20 0xFFFFFFFFFFFFFFFFFFFFFFFFFFFFFFFFFFFFFFFF AND MUL OR SWAP1 SSTORE POP DUP1 PUSH1 0x4 PUSH1 0x0 PUSH2 0x100 EXP DUP2 SLOAD DUP2 PUSH20 0xFFFFFFFFFFFFFFFFFFFFFFFFFFFFFFFFFFFFFFFF MUL NOT AND SWAP1 DUP4 PUSH20 0xFFFFFFFFFFFFFFFFFFFFFFFFFFFFFFFFFFFFFFFF AND MUL OR SWAP1 SSTORE POP POP PUSH2 0x14F JUMP JUMPDEST PUSH1 0x0 DUP1 REVERT JUMPDEST PUSH1 0x0 PUSH20 0xFFFFFFFFFFFFFFFFFFFFFFFFFFFFFFFFFFFFFFFF DUP3 AND SWAP1 POP SWAP2 SWAP1 POP JUMP JUMPDEST PUSH1 0x0 PUSH2 0xEF DUP3 PUSH2 0xC4 JUMP JUMPDEST SWAP1 POP SWAP2 SWAP1 POP JUMP JUMPDEST PUSH2 0xFF DUP2 PUSH2 0xE4 JUMP JUMPDEST DUP2 EQ PUSH2 0x10A JUMPI PUSH1 0x0 DUP1 REVERT JUMPDEST POP JUMP JUMPDEST PUSH1 0x0 DUP2 MLOAD SWAP1 POP PUSH2 0x11C DUP2 PUSH2 0xF6 JUMP JUMPDEST SWAP3 SWAP2 POP POP JUMP JUMPDEST PUSH1 0x0 PUSH1 0x20 DUP3 DUP5 SUB SLT ISZERO PUSH2 0x138 JUMPI PUSH2 0x137 PUSH2 0xBF JUMP JUMPDEST JUMPDEST PUSH1 0x0 PUSH2 0x146 DUP5 DUP3 DUP6 ADD PUSH2 0x10D JUMP JUMPDEST SWAP2 POP POP SWAP3 SWAP2 POP POP JUMP JUMPDEST PUSH2 0x53C DUP1 PUSH2 0x15E PUSH1 0x0 CODECOPY PUSH1 0x0 RETURN INVALID PUSH1 0x80 PUSH1 0x40 MSTORE PUSH1 0x4 CALLDATASIZE LT PUSH2 0x55 JUMPI PUSH1 0x0 CALLDATALOAD PUSH1 0xE0 SHR DUP1 PUSH4 0x53B645E5 EQ PUSH2 0x5A JUMPI DUP1 PUSH4 0x8DA5CB5B EQ PUSH2 0x85 JUMPI DUP1 PUSH4 0x8DA7AD23 EQ PUSH2 0xB0 JUMPI DUP1 PUSH4 0x9D76EA58 EQ PUSH2 0xF1 JUMPI DUP1 PUSH4 0xA694FC3A EQ PUSH2 0x11C JUMPI DUP1 PUSH4 0xBF0AE63D EQ PUSH2 0x138 JUMPI JUMPDEST PUSH1 0x0 DUP1 REVERT JUMPDEST CALLVALUE DUP1 ISZERO PUSH2 0x66 JUMPI PUSH1 0x0 DUP1 REVERT JUMPDEST POP PUSH2 0x6F PUSH2 0x163 JUMP JUMPDEST PUSH1 0x40 MLOAD PUSH2 0x7C SWAP2 SWAP1 PUSH2 0x286 JUMP JUMPDEST PUSH1 0x40 MLOAD DUP1 SWAP2 SUB SWAP1 RETURN JUMPDEST CALLVALUE DUP1 ISZERO PUSH2 0x91 JUMPI PUSH1 0x0 DUP1 REVERT JUMPDEST POP PUSH2 0x9A PUSH2 0x169 JUMP JUMPDEST PUSH1 0x40 MLOAD PUSH2 0xA7 SWAP2 SWAP1 PUSH2 0x2E2 JUMP JUMPDEST PUSH1 0x40 MLOAD DUP1 SWAP2 SUB SWAP1 RETURN JUMPDEST CALLVALUE DUP1 ISZERO PUSH2 0xBC JUMPI PUSH1 0x0 DUP1 REVERT JUMPDEST POP PUSH2 0xD7 PUSH1 0x4 DUP1 CALLDATASIZE SUB DUP2 ADD SWAP1 PUSH2 0xD2 SWAP2 SWAP1 PUSH2 0x32E JUMP JUMPDEST PUSH2 0x18F JUMP JUMPDEST PUSH1 0x40 MLOAD PUSH2 0xE8 SWAP6 SWAP5 SWAP4 SWAP3 SWAP2 SWAP1 PUSH2 0x35B JUMP JUMPDEST PUSH1 0x40 MLOAD DUP1 SWAP2 SUB SWAP1 RETURN JUMPDEST CALLVALUE DUP1 ISZERO PUSH2 0xFD JUMPI PUSH1 0x0 DUP1 REVERT JUMPDEST POP PUSH2 0x106 PUSH2 0x1C5 JUMP JUMPDEST PUSH1 0x40 MLOAD PUSH2 0x113 SWAP2 SWAP1 PUSH2 0x2E2 JUMP JUMPDEST PUSH1 0x40 MLOAD DUP1 SWAP2 SUB SWAP1 RETURN JUMPDEST PUSH2 0x136 PUSH1 0x4 DUP1 CALLDATASIZE SUB DUP2 ADD SWAP1 PUSH2 0x131 SWAP2 SWAP1 PUSH2 0x3DA JUMP JUMPDEST PUSH2 0x1EB JUMP JUMPDEST STOP JUMPDEST CALLVALUE DUP1 ISZERO PUSH2 0x144 JUMPI PUSH1 0x0 DUP1 REVERT JUMPDEST POP PUSH2 0x14D PUSH2 0x247 JUMP JUMPDEST PUSH1 0x40 MLOAD PUSH2 0x15A SWAP2 SWAP1 PUSH2 0x466 JUMP JUMPDEST PUSH1 0x40 MLOAD DUP1 SWAP2 SUB SWAP1 RETURN JUMPDEST PUSH1 0x0 SLOAD DUP2 JUMP JUMPDEST PUSH1 0x2 PUSH1 0x0 SWAP1 SLOAD SWAP1 PUSH2 0x100 EXP SWAP1 DIV PUSH20 0xFFFFFFFFFFFFFFFFFFFFFFFFFFFFFFFFFFFFFFFF AND DUP2 JUMP JUMPDEST PUSH1 0x3 PUSH1 0x20 MSTORE DUP1 PUSH1 0x0 MSTORE PUSH1 0x40 PUSH1 0x0 KECCAK256 PUSH1 0x0 SWAP2 POP SWAP1 POP DUP1 PUSH1 0x0 ADD SLOAD SWAP1 DUP1 PUSH1 0x1 ADD SLOAD SWAP1 DUP1 PUSH1 0x2 ADD SLOAD SWAP1 DUP1 PUSH1 0x3 ADD SLOAD SWAP1 DUP1 PUSH1 0x4 ADD SLOAD SWAP1 POP DUP6 JUMP JUMPDEST PUSH1 0x1 PUSH1 0x0 SWAP1 SLOAD SWAP1 PUSH2 0x100 EXP SWAP1 DIV PUSH20 0xFFFFFFFFFFFFFFFFFFFFFFFFFFFFFFFFFFFFFFFF AND DUP2 JUMP JUMPDEST DUP1 PUSH1 0x3 PUSH1 0x0 CALLER PUSH20 0xFFFFFFFFFFFFFFFFFFFFFFFFFFFFFFFFFFFFFFFF AND PUSH20 0xFFFFFFFFFFFFFFFFFFFFFFFFFFFFFFFFFFFFFFFF AND DUP2 MSTORE PUSH1 0x20 ADD SWAP1 DUP2 MSTORE PUSH1 0x20 ADD PUSH1 0x0 KECCAK256 PUSH1 0x0 ADD PUSH1 0x0 DUP3 DUP3 SLOAD PUSH2 0x23D SWAP2 SWAP1 PUSH2 0x4B0 JUMP JUMPDEST SWAP3 POP POP DUP2 SWAP1 SSTORE POP POP JUMP JUMPDEST PUSH1 0x4 PUSH1 0x0 SWAP1 SLOAD SWAP1 PUSH2 0x100 EXP SWAP1 DIV PUSH20 0xFFFFFFFFFFFFFFFFFFFFFFFFFFFFFFFFFFFFFFFF AND DUP2 JUMP JUMPDEST PUSH1 0x0 DUP2 SWAP1 POP SWAP2 SWAP1 POP JUMP JUMPDEST PUSH2 0x280 DUP2 PUSH2 0x26D JUMP JUMPDEST DUP3 MSTORE POP POP JUMP JUMPDEST PUSH1 0x0 PUSH1 0x20 DUP3 ADD SWAP1 POP PUSH2 0x29B PUSH1 0x0 DUP4 ADD DUP5 PUSH2 0x277 JUMP JUMPDEST SWAP3 SWAP2 POP POP JUMP JUMPDEST PUSH1 0x0 PUSH20 0xFFFFFFFFFFFFFFFFFFFFFFFFFFFFFFFFFFFFFFFF DUP3 AND SWAP1 POP SWAP2 SWAP1 POP JUMP JUMPDEST PUSH1 0x0 PUSH2 0x2CC DUP3 PUSH2 0x2A1 JUMP JUMPDEST SWAP1 POP SWAP2 SWAP1 POP JUMP JUMPDEST PUSH2 0x2DC DUP2 PUSH2 0x2C1 JUMP JUMPDEST DUP3 MSTORE POP POP JUMP JUMPDEST PUSH1 0x0 PUSH1 0x20 DUP3 ADD SWAP1 POP PUSH2 0x2F7 PUSH1 0x0 DUP4 ADD DUP5 PUSH2 0x2D3 JUMP JUMPDEST SWAP3 SWAP2 POP POP JUMP JUMPDEST PUSH1 0x0 DUP1 REVERT JUMPDEST PUSH2 0x30B DUP2 PUSH2 0x2C1 JUMP JUMPDEST DUP2 EQ PUSH2 0x316 JUMPI PUSH1 0x0 DUP1 REVERT JUMPDEST POP JUMP JUMPDEST PUSH1 0x0 DUP2 CALLDATALOAD SWAP1 POP PUSH2 0x328 DUP2 PUSH2 0x302 JUMP JUMPDEST SWAP3 SWAP2 POP POP JUMP JUMPDEST PUSH1 0x0 PUSH1 0x20 DUP3 DUP5 SUB SLT ISZERO PUSH2 0x344 JUMPI PUSH2 0x343 PUSH2 0x2FD JUMP JUMPDEST JUMPDEST PUSH1 0x0 PUSH2 0x352 DUP5 DUP3 DUP6 ADD PUSH2 0x319 JUMP JUMPDEST SWAP2 POP POP SWAP3 SWAP2 POP POP JUMP JUMPDEST PUSH1 0x0 PUSH1 0xA0 DUP3 ADD SWAP1 POP PUSH2 0x370 PUSH1 0x0 DUP4 ADD DUP9 PUSH2 0x277 JUMP JUMPDEST PUSH2 0x37D PUSH1 0x20 DUP4 ADD DUP8 PUSH2 0x277 JUMP JUMPDEST PUSH2 0x38A PUSH1 0x40 DUP4 ADD DUP7 PUSH2 0x277 JUMP JUMPDEST PUSH2 0x397 PUSH1 0x60 DUP4 ADD DUP6 PUSH2 0x277 JUMP JUMPDEST PUSH2 0x3A4 PUSH1 0x80 DUP4 ADD DUP5 PUSH2 0x277 JUMP JUMPDEST SWAP7 SWAP6 POP POP POP POP POP POP JUMP JUMPDEST PUSH2 0x3B7 DUP2 PUSH2 0x26D JUMP JUMPDEST DUP2 EQ PUSH2 0x3C2 JUMPI PUSH1 0x0 DUP1 REVERT JUMPDEST POP JUMP JUMPDEST PUSH1 0x0 DUP2 CALLDATALOAD SWAP1 POP PUSH2 0x3D4 DUP2 PUSH2 0x3AE JUMP JUMPDEST SWAP3 SWAP2 POP POP JUMP JUMPDEST PUSH1 0x0 PUSH1 0x20 DUP3 DUP5 SUB SLT ISZERO PUSH2 0x3F0 JUMPI PUSH2 0x3EF PUSH2 0x2FD JUMP JUMPDEST JUMPDEST PUSH1 0x0 PUSH2 0x3FE DUP5 DUP3 DUP6 ADD PUSH2 0x3C5 JUMP JUMPDEST SWAP2 POP POP SWAP3 SWAP2 POP POP JUMP JUMPDEST PUSH1 0x0 DUP2 SWAP1 POP SWAP2 SWAP1 POP JUMP JUMPDEST PUSH1 0x0 PUSH2 0x42C PUSH2 0x427 PUSH2 0x422 DUP5 PUSH2 0x2A1 JUMP JUMPDEST PUSH2 0x407 JUMP JUMPDEST PUSH2 0x2A1 JUMP JUMPDEST SWAP1 POP SWAP2 SWAP1 POP JUMP JUMPDEST PUSH1 0x0 PUSH2 0x43E DUP3 PUSH2 0x411 JUMP JUMPDEST SWAP1 POP SWAP2 SWAP1 POP JUMP JUMPDEST PUSH1 0x0 PUSH2 0x450 DUP3 PUSH2 0x433 JUMP JUMPDEST SWAP1 POP SWAP2 SWAP1 POP JUMP JUMPDEST PUSH2 0x460 DUP2 PUSH2 0x445 JUMP JUMPDEST DUP3 MSTORE POP POP JUMP JUMPDEST PUSH1 0x0 PUSH1 0x20 DUP3 ADD SWAP1 POP PUSH2 0x47B PUSH1 0x0 DUP4 ADD DUP5 PUSH2 0x457 JUMP JUMPDEST SWAP3 SWAP2 POP POP JUMP JUMPDEST PUSH32 0x4E487B7100000000000000000000000000000000000000000000000000000000 PUSH1 0x0 MSTORE PUSH1 0x11 PUSH1 0x4 MSTORE PUSH1 0x24 PUSH1 0x0 REVERT JUMPDEST PUSH1 0x0 PUSH2 0x4BB DUP3 PUSH2 0x26D JUMP JUMPDEST SWAP2 POP PUSH2 0x4C6 DUP4 PUSH2 0x26D JUMP JUMPDEST SWAP3 POP DUP3 PUSH32 0xFFFFFFFFFFFFFFFFFFFFFFFFFFFFFFFFFFFFFFFFFFFFFFFFFFFFFFFFFFFFFFFF SUB DUP3 GT ISZERO PUSH2 0x4FB JUMPI PUSH2 0x4FA PUSH2 0x481 JUMP JUMPDEST JUMPDEST DUP3 DUP3 ADD SWAP1 POP SWAP3 SWAP2 POP POP JUMP INVALID LOG2 PUSH5 0x6970667358 0x22 SLT KECCAK256 PUSH11 0x9796DE0F7214794F6E7B55 PUSH14 0xB1C1B043FB6F83585156724E80D 0x28 PUSH21 0x6F26364736F6C634300080F003300000000000000 "
				},
				"gasEstimates": {
					"creation": {
						"codeDepositCost": "268000",
						"executionCost": "infinite",
						"totalCost": "infinite"
					},
					"external": {
						"ierc20()": "infinite",
						"owner()": "2514",
						"stake(uint256)": "infinite",
						"tokenAddress()": "2558",
						"totalStakeNumber()": "2407",
						"userStakes(address)": "infinite"
					}
				},
				"methodIdentifiers": {
					"ierc20()": "bf0ae63d",
					"owner()": "8da5cb5b",
					"stake(uint256)": "a694fc3a",
					"tokenAddress()": "9d76ea58",
					"totalStakeNumber()": "53b645e5",
					"userStakes(address)": "8da7ad23"
				}
			},
			"storageLayout": {
				"storage": [
					{
						"astId": 104,
						"contract": "contracts/StakePool.sol:StakePool",
						"label": "totalStakeNumber",
						"offset": 0,
						"slot": "0",
						"type": "t_uint256"
					},
					{
						"astId": 106,
						"contract": "contracts/StakePool.sol:StakePool",
						"label": "tokenAddress",
						"offset": 0,
						"slot": "1",
						"type": "t_address"
					},
					{
						"astId": 108,
						"contract": "contracts/StakePool.sol:StakePool",
						"label": "owner",
						"offset": 0,
						"slot": "2",
						"type": "t_address"
					},
					{
						"astId": 113,
						"contract": "contracts/StakePool.sol:StakePool",
						"label": "userStakes",
						"offset": 0,
						"slot": "3",
						"type": "t_mapping(t_address,t_struct(User)101_storage)"
					},
					{
						"astId": 116,
						"contract": "contracts/StakePool.sol:StakePool",
						"label": "ierc20",
						"offset": 0,
						"slot": "4",
						"type": "t_contract(IERC20)68"
					}
				],
				"types": {
					"t_address": {
						"encoding": "inplace",
						"label": "address",
						"numberOfBytes": "20"
					},
					"t_contract(IERC20)68": {
						"encoding": "inplace",
						"label": "contract IERC20",
						"numberOfBytes": "20"
					},
					"t_mapping(t_address,t_struct(User)101_storage)": {
						"encoding": "mapping",
						"key": "t_address",
						"label": "mapping(address => struct StakePool.User)",
						"numberOfBytes": "32",
						"value": "t_struct(User)101_storage"
					},
					"t_struct(User)101_storage": {
						"encoding": "inplace",
						"label": "struct StakePool.User",
						"members": [
							{
								"astId": 92,
								"contract": "contracts/StakePool.sol:StakePool",
								"label": "stakeNumber",
								"offset": 0,
								"slot": "0",
								"type": "t_uint256"
							},
							{
								"astId": 94,
								"contract": "contracts/StakePool.sol:StakePool",
								"label": "currentInterest",
								"offset": 0,
								"slot": "1",
								"type": "t_uint256"
							},
							{
								"astId": 96,
								"contract": "contracts/StakePool.sol:StakePool",
								"label": "claimedInterest",
								"offset": 0,
								"slot": "2",
								"type": "t_uint256"
							},
							{
								"astId": 98,
								"contract": "contracts/StakePool.sol:StakePool",
								"label": "lastInerest",
								"offset": 0,
								"slot": "3",
								"type": "t_uint256"
							},
							{
								"astId": 100,
								"contract": "contracts/StakePool.sol:StakePool",
								"label": "lastStakeTime",
								"offset": 0,
								"slot": "4",
								"type": "t_uint256"
							}
						],
						"numberOfBytes": "160"
					},
					"t_uint256": {
						"encoding": "inplace",
						"label": "uint256",
						"numberOfBytes": "32"
					}
				}
			},
			"userdoc": {
				"kind": "user",
				"methods": {},
				"version": 1
			}
		}
	}
}