{
	"contracts/SushiPool.sol": {
		"SushiPool": {
			"abi": [
				{
					"inputs": [
						{
							"internalType": "uint256",
							"name": "_output",
							"type": "uint256"
						}
					],
					"stateMutability": "nonpayable",
					"type": "constructor"
				},
				{
					"inputs": [],
					"name": "currentAt",
					"outputs": [
						{
							"internalType": "uint256",
							"name": "",
							"type": "uint256"
						}
					],
					"stateMutability": "view",
					"type": "function"
				},
				{
					"inputs": [],
					"name": "lastStakeTime",
					"outputs": [
						{
							"internalType": "uint256",
							"name": "",
							"type": "uint256"
						}
					],
					"stateMutability": "view",
					"type": "function"
				},
				{
					"inputs": [],
					"name": "output",
					"outputs": [
						{
							"internalType": "uint256",
							"name": "",
							"type": "uint256"
						}
					],
					"stateMutability": "view",
					"type": "function"
				},
				{
					"inputs": [],
					"name": "rn",
					"outputs": [
						{
							"internalType": "uint256",
							"name": "",
							"type": "uint256"
						}
					],
					"stateMutability": "view",
					"type": "function"
				},
				{
					"inputs": [
						{
							"internalType": "uint256",
							"name": "_amount",
							"type": "uint256"
						}
					],
					"name": "stake",
					"outputs": [],
					"stateMutability": "nonpayable",
					"type": "function"
				},
				{
					"inputs": [],
					"name": "stakeTotal",
					"outputs": [
						{
							"internalType": "uint256",
							"name": "",
							"type": "uint256"
						}
					],
					"stateMutability": "view",
					"type": "function"
				},
				{
					"inputs": [],
					"name": "startAt",
					"outputs": [
						{
							"internalType": "uint256",
							"name": "",
							"type": "uint256"
						}
					],
					"stateMutability": "view",
					"type": "function"
				},
				{
					"inputs": [
						{
							"internalType": "address",
							"name": "",
							"type": "address"
						}
					],
					"name": "users",
					"outputs": [
						{
							"internalType": "uint256",
							"name": "stakeNumber",
							"type": "uint256"
						},
						{
							"internalType": "uint256",
							"name": "stakeTime",
							"type": "uint256"
						},
						{
							"internalType": "uint256",
							"name": "insert",
							"type": "uint256"
						},
						{
							"internalType": "uint256",
							"name": "ru",
							"type": "uint256"
						}
					],
					"stateMutability": "view",
					"type": "function"
				}
			],
			"devdoc": {
				"kind": "dev",
				"methods": {},
				"version": 1
			},
			"evm": {
				"assembly": "    /* \"contracts/SushiPool.sol\":56:1310  contract SushiPool {... */\n  mstore(0x40, 0x80)\n    /* \"contracts/SushiPool.sol\":555:714  constructor(uint256 _output) {... */\n  callvalue\n  dup1\n  iszero\n  tag_1\n  jumpi\n  0x00\n  dup1\n  revert\ntag_1:\n  pop\n  mload(0x40)\n  sub(codesize, bytecodeSize)\n  dup1\n  bytecodeSize\n  dup4\n  codecopy\n  dup2\n  dup2\n  add\n  0x40\n  mstore\n  dup2\n  add\n  swap1\n  tag_2\n  swap2\n  swap1\n  tag_3\n  jump\t// in\ntag_2:\n    /* \"contracts/SushiPool.sol\":603:610  _output */\n  dup1\n    /* \"contracts/SushiPool.sol\":594:600  output */\n  0x02\n    /* \"contracts/SushiPool.sol\":594:610  output = _output */\n  dup2\n  swap1\n  sstore\n  pop\n    /* \"contracts/SushiPool.sol\":692:707  block.timestamp */\n  timestamp\n    /* \"contracts/SushiPool.sol\":676:689  lastStakeTime */\n  0x04\n    /* \"contracts/SushiPool.sol\":676:707  lastStakeTime = block.timestamp */\n  dup2\n  swap1\n  sstore\n  pop\n    /* \"contracts/SushiPool.sol\":555:714  constructor(uint256 _output) {... */\n  pop\n    /* \"contracts/SushiPool.sol\":56:1310  contract SushiPool {... */\n  jump(tag_6)\n    /* \"#utility.yul\":88:205   */\ntag_8:\n    /* \"#utility.yul\":197:198   */\n  0x00\n    /* \"#utility.yul\":194:195   */\n  dup1\n    /* \"#utility.yul\":187:199   */\n  revert\n    /* \"#utility.yul\":334:411   */\ntag_10:\n    /* \"#utility.yul\":371:378   */\n  0x00\n    /* \"#utility.yul\":400:405   */\n  dup2\n    /* \"#utility.yul\":389:405   */\n  swap1\n  pop\n    /* \"#utility.yul\":334:411   */\n  swap2\n  swap1\n  pop\n  jump\t// out\n    /* \"#utility.yul\":417:539   */\ntag_11:\n    /* \"#utility.yul\":490:514   */\n  tag_19\n    /* \"#utility.yul\":508:513   */\n  dup2\n    /* \"#utility.yul\":490:514   */\n  tag_10\n  jump\t// in\ntag_19:\n    /* \"#utility.yul\":483:488   */\n  dup2\n    /* \"#utility.yul\":480:515   */\n  eq\n    /* \"#utility.yul\":470:533   */\n  tag_20\n  jumpi\n    /* \"#utility.yul\":529:530   */\n  0x00\n    /* \"#utility.yul\":526:527   */\n  dup1\n    /* \"#utility.yul\":519:531   */\n  revert\n    /* \"#utility.yul\":470:533   */\ntag_20:\n    /* \"#utility.yul\":417:539   */\n  pop\n  jump\t// out\n    /* \"#utility.yul\":545:688   */\ntag_12:\n    /* \"#utility.yul\":602:607   */\n  0x00\n    /* \"#utility.yul\":633:639   */\n  dup2\n    /* \"#utility.yul\":627:640   */\n  mload\n    /* \"#utility.yul\":618:640   */\n  swap1\n  pop\n    /* \"#utility.yul\":649:682   */\n  tag_22\n    /* \"#utility.yul\":676:681   */\n  dup2\n    /* \"#utility.yul\":649:682   */\n  tag_11\n  jump\t// in\ntag_22:\n    /* \"#utility.yul\":545:688   */\n  swap3\n  swap2\n  pop\n  pop\n  jump\t// out\n    /* \"#utility.yul\":694:1045   */\ntag_3:\n    /* \"#utility.yul\":764:770   */\n  0x00\n    /* \"#utility.yul\":813:815   */\n  0x20\n    /* \"#utility.yul\":801:810   */\n  dup3\n    /* \"#utility.yul\":792:799   */\n  dup5\n    /* \"#utility.yul\":788:811   */\n  sub\n    /* \"#utility.yul\":784:816   */\n  slt\n    /* \"#utility.yul\":781:900   */\n  iszero\n  tag_24\n  jumpi\n    /* \"#utility.yul\":819:898   */\n  tag_25\n  tag_8\n  jump\t// in\ntag_25:\n    /* \"#utility.yul\":781:900   */\ntag_24:\n    /* \"#utility.yul\":939:940   */\n  0x00\n    /* \"#utility.yul\":964:1028   */\n  tag_26\n    /* \"#utility.yul\":1020:1027   */\n  dup5\n    /* \"#utility.yul\":1011:1017   */\n  dup3\n    /* \"#utility.yul\":1000:1009   */\n  dup6\n    /* \"#utility.yul\":996:1018   */\n  add\n    /* \"#utility.yul\":964:1028   */\n  tag_12\n  jump\t// in\ntag_26:\n    /* \"#utility.yul\":954:1028   */\n  swap2\n  pop\n    /* \"#utility.yul\":910:1038   */\n  pop\n    /* \"#utility.yul\":694:1045   */\n  swap3\n  swap2\n  pop\n  pop\n  jump\t// out\n    /* \"contracts/SushiPool.sol\":56:1310  contract SushiPool {... */\ntag_6:\n  dataSize(sub_0)\n  dup1\n  dataOffset(sub_0)\n  0x00\n  codecopy\n  0x00\n  return\nstop\n\nsub_0: assembly {\n        /* \"contracts/SushiPool.sol\":56:1310  contract SushiPool {... */\n      mstore(0x40, 0x80)\n      callvalue\n      dup1\n      iszero\n      tag_1\n      jumpi\n      0x00\n      dup1\n      revert\n    tag_1:\n      pop\n      jumpi(tag_2, lt(calldatasize, 0x04))\n      shr(0xe0, calldataload(0x00))\n      dup1\n      0xa694fc3a\n      gt\n      tag_11\n      jumpi\n      dup1\n      0xa694fc3a\n      eq\n      tag_7\n      jumpi\n      dup1\n      0xa87430ba\n      eq\n      tag_8\n      jumpi\n      dup1\n      0xc7446565\n      eq\n      tag_9\n      jumpi\n      dup1\n      0xf20eaeb8\n      eq\n      tag_10\n      jumpi\n      jump(tag_2)\n    tag_11:\n      dup1\n      0x4b5c8bdf\n      eq\n      tag_3\n      jumpi\n      dup1\n      0x64d4db10\n      eq\n      tag_4\n      jumpi\n      dup1\n      0x833a3b85\n      eq\n      tag_5\n      jumpi\n      dup1\n      0x8d48c9c8\n      eq\n      tag_6\n      jumpi\n    tag_2:\n      0x00\n      dup1\n      revert\n        /* \"contracts/SushiPool.sol\":271:296  uint256 public stakeTotal */\n    tag_3:\n      tag_12\n      tag_13\n      jump\t// in\n    tag_12:\n      mload(0x40)\n      tag_14\n      swap2\n      swap1\n      tag_15\n      jump\t// in\n    tag_14:\n      mload(0x40)\n      dup1\n      swap2\n      sub\n      swap1\n      return\n        /* \"contracts/SushiPool.sol\":442:470  uint256 public lastStakeTime */\n    tag_4:\n      tag_16\n      tag_17\n      jump\t// in\n    tag_16:\n      mload(0x40)\n      tag_18\n      swap2\n      swap1\n      tag_15\n      jump\t// in\n    tag_18:\n      mload(0x40)\n      dup1\n      swap2\n      sub\n      swap1\n      return\n        /* \"contracts/SushiPool.sol\":524:548  uint256 public currentAt */\n    tag_5:\n      tag_19\n      tag_20\n      jump\t// in\n    tag_19:\n      mload(0x40)\n      tag_21\n      swap2\n      swap1\n      tag_15\n      jump\t// in\n    tag_21:\n      mload(0x40)\n      dup1\n      swap2\n      sub\n      swap1\n      return\n        /* \"contracts/SushiPool.sol\":387:404  uint256 public rn */\n    tag_6:\n      tag_22\n      tag_23\n      jump\t// in\n    tag_22:\n      mload(0x40)\n      tag_24\n      swap2\n      swap1\n      tag_15\n      jump\t// in\n    tag_24:\n      mload(0x40)\n      dup1\n      swap2\n      sub\n      swap1\n      return\n        /* \"contracts/SushiPool.sol\":784:1295  function stake(uint256 _amount) external {... */\n    tag_7:\n      tag_25\n      0x04\n      dup1\n      calldatasize\n      sub\n      dup2\n      add\n      swap1\n      tag_26\n      swap2\n      swap1\n      tag_27\n      jump\t// in\n    tag_26:\n      tag_28\n      jump\t// in\n    tag_25:\n      stop\n        /* \"contracts/SushiPool.sol\":207:244  mapping(address => User) public users */\n    tag_8:\n      tag_29\n      0x04\n      dup1\n      calldatasize\n      sub\n      dup2\n      add\n      swap1\n      tag_30\n      swap2\n      swap1\n      tag_31\n      jump\t// in\n    tag_30:\n      tag_32\n      jump\t// in\n    tag_29:\n      mload(0x40)\n      tag_33\n      swap5\n      swap4\n      swap3\n      swap2\n      swap1\n      tag_34\n      jump\t// in\n    tag_33:\n      mload(0x40)\n      dup1\n      swap2\n      sub\n      swap1\n      return\n        /* \"contracts/SushiPool.sol\":496:518  uint256 public startAt */\n    tag_9:\n      tag_35\n      tag_36\n      jump\t// in\n    tag_35:\n      mload(0x40)\n      tag_37\n      swap2\n      swap1\n      tag_15\n      jump\t// in\n    tag_37:\n      mload(0x40)\n      dup1\n      swap2\n      sub\n      swap1\n      return\n        /* \"contracts/SushiPool.sol\":322:343  uint256 public output */\n    tag_10:\n      tag_38\n      tag_39\n      jump\t// in\n    tag_38:\n      mload(0x40)\n      tag_40\n      swap2\n      swap1\n      tag_15\n      jump\t// in\n    tag_40:\n      mload(0x40)\n      dup1\n      swap2\n      sub\n      swap1\n      return\n        /* \"contracts/SushiPool.sol\":271:296  uint256 public stakeTotal */\n    tag_13:\n      sload(0x01)\n      dup2\n      jump\t// out\n        /* \"contracts/SushiPool.sol\":442:470  uint256 public lastStakeTime */\n    tag_17:\n      sload(0x04)\n      dup2\n      jump\t// out\n        /* \"contracts/SushiPool.sol\":524:548  uint256 public currentAt */\n    tag_20:\n      sload(0x06)\n      dup2\n      jump\t// out\n        /* \"contracts/SushiPool.sol\":387:404  uint256 public rn */\n    tag_23:\n      sload(0x03)\n      dup2\n      jump\t// out\n        /* \"contracts/SushiPool.sol\":784:1295  function stake(uint256 _amount) external {... */\n    tag_28:\n        /* \"contracts/SushiPool.sol\":835:852  User storage user */\n      0x00\n        /* \"contracts/SushiPool.sol\":855:860  users */\n      dup1\n        /* \"contracts/SushiPool.sol\":855:872  users[msg.sender] */\n      0x00\n        /* \"contracts/SushiPool.sol\":861:871  msg.sender */\n      caller\n        /* \"contracts/SushiPool.sol\":855:872  users[msg.sender] */\n      0xffffffffffffffffffffffffffffffffffffffff\n      and\n      0xffffffffffffffffffffffffffffffffffffffff\n      and\n      dup2\n      mstore\n      0x20\n      add\n      swap1\n      dup2\n      mstore\n      0x20\n      add\n      0x00\n      keccak256\n        /* \"contracts/SushiPool.sol\":835:872  User storage user = users[msg.sender] */\n      swap1\n      pop\n        /* \"contracts/SushiPool.sol\":882:902  uint256 secondOutPut */\n      0x00\n        /* \"contracts/SushiPool.sol\":930:931  0 */\n      dup1\n        /* \"contracts/SushiPool.sol\":916:926  stakeTotal */\n      sload(0x01)\n        /* \"contracts/SushiPool.sol\":916:931  stakeTotal != 0 */\n      eq\n        /* \"contracts/SushiPool.sol\":912:992  if (stakeTotal != 0) {... */\n      tag_42\n      jumpi\n        /* \"contracts/SushiPool.sol\":971:981  stakeTotal */\n      sload(0x01)\n        /* \"contracts/SushiPool.sol\":962:968  output */\n      sload(0x02)\n        /* \"contracts/SushiPool.sol\":962:981  output / stakeTotal */\n      tag_43\n      swap2\n      swap1\n      tag_44\n      jump\t// in\n    tag_43:\n        /* \"contracts/SushiPool.sol\":947:981  secondOutPut = output / stakeTotal */\n      swap1\n      pop\n        /* \"contracts/SushiPool.sol\":912:992  if (stakeTotal != 0) {... */\n    tag_42:\n        /* \"contracts/SushiPool.sol\":1043:1055  secondOutPut */\n      dup1\n        /* \"contracts/SushiPool.sol\":1026:1039  lastStakeTime */\n      sload(0x04)\n        /* \"contracts/SushiPool.sol\":1008:1023  block.timestamp */\n      timestamp\n        /* \"contracts/SushiPool.sol\":1008:1039  block.timestamp - lastStakeTime */\n      tag_45\n      swap2\n      swap1\n      tag_46\n      jump\t// in\n    tag_45:\n        /* \"contracts/SushiPool.sol\":1007:1055  (block.timestamp - lastStakeTime) * secondOutPut */\n      tag_47\n      swap2\n      swap1\n      tag_48\n      jump\t// in\n    tag_47:\n        /* \"contracts/SushiPool.sol\":1001:1003  rn */\n      0x03\n      0x00\n        /* \"contracts/SushiPool.sol\":1001:1055  rn += (block.timestamp - lastStakeTime) * secondOutPut */\n      dup3\n      dup3\n      sload\n      tag_49\n      swap2\n      swap1\n      tag_50\n      jump\t// in\n    tag_49:\n      swap3\n      pop\n      pop\n      dup2\n      swap1\n      sstore\n      pop\n        /* \"contracts/SushiPool.sol\":1098:1102  user */\n      dup2\n        /* \"contracts/SushiPool.sol\":1098:1114  user.stakeNumber */\n      0x00\n      add\n      sload\n        /* \"contracts/SushiPool.sol\":1087:1091  user */\n      dup3\n        /* \"contracts/SushiPool.sol\":1087:1094  user.ru */\n      0x03\n      add\n      sload\n        /* \"contracts/SushiPool.sol\":1082:1084  rn */\n      sload(0x03)\n        /* \"contracts/SushiPool.sol\":1082:1094  rn - user.ru */\n      tag_51\n      swap2\n      swap1\n      tag_46\n      jump\t// in\n    tag_51:\n        /* \"contracts/SushiPool.sol\":1081:1114  (rn - user.ru) * user.stakeNumber */\n      tag_52\n      swap2\n      swap1\n      tag_48\n      jump\t// in\n    tag_52:\n        /* \"contracts/SushiPool.sol\":1065:1069  user */\n      dup3\n        /* \"contracts/SushiPool.sol\":1065:1076  user.insert */\n      0x02\n      add\n      0x00\n        /* \"contracts/SushiPool.sol\":1065:1114  user.insert +=  (rn - user.ru) * user.stakeNumber */\n      dup3\n      dup3\n      sload\n      tag_53\n      swap2\n      swap1\n      tag_50\n      jump\t// in\n    tag_53:\n      swap3\n      pop\n      pop\n      dup2\n      swap1\n      sstore\n      pop\n        /* \"contracts/SushiPool.sol\":1134:1136  rn */\n      sload(0x03)\n        /* \"contracts/SushiPool.sol\":1124:1128  user */\n      dup3\n        /* \"contracts/SushiPool.sol\":1124:1131  user.ru */\n      0x03\n      add\n        /* \"contracts/SushiPool.sol\":1124:1136  user.ru = rn */\n      dup2\n      swap1\n      sstore\n      pop\n        /* \"contracts/SushiPool.sol\":1166:1173  _amount */\n      dup3\n        /* \"contracts/SushiPool.sol\":1146:1150  user */\n      dup3\n        /* \"contracts/SushiPool.sol\":1146:1162  user.stakeNumber */\n      0x00\n      add\n      0x00\n        /* \"contracts/SushiPool.sol\":1146:1173  user.stakeNumber += _amount */\n      dup3\n      dup3\n      sload\n      tag_54\n      swap2\n      swap1\n      tag_50\n      jump\t// in\n    tag_54:\n      swap3\n      pop\n      pop\n      dup2\n      swap1\n      sstore\n      pop\n        /* \"contracts/SushiPool.sol\":1200:1215  block.timestamp */\n      timestamp\n        /* \"contracts/SushiPool.sol\":1183:1187  user */\n      dup3\n        /* \"contracts/SushiPool.sol\":1183:1197  user.stakeTime */\n      0x01\n      add\n        /* \"contracts/SushiPool.sol\":1183:1215  user.stakeTime = block.timestamp */\n      dup2\n      swap1\n      sstore\n      pop\n        /* \"contracts/SushiPool.sol\":1239:1246  _amount */\n      dup3\n        /* \"contracts/SushiPool.sol\":1225:1235  stakeTotal */\n      0x01\n      0x00\n        /* \"contracts/SushiPool.sol\":1225:1246  stakeTotal += _amount */\n      dup3\n      dup3\n      sload\n      tag_55\n      swap2\n      swap1\n      tag_50\n      jump\t// in\n    tag_55:\n      swap3\n      pop\n      pop\n      dup2\n      swap1\n      sstore\n      pop\n        /* \"contracts/SushiPool.sol\":1272:1287  block.timestamp */\n      timestamp\n        /* \"contracts/SushiPool.sol\":1256:1269  lastStakeTime */\n      0x04\n        /* \"contracts/SushiPool.sol\":1256:1287  lastStakeTime = block.timestamp */\n      dup2\n      swap1\n      sstore\n      pop\n        /* \"contracts/SushiPool.sol\":825:1295  {... */\n      pop\n      pop\n        /* \"contracts/SushiPool.sol\":784:1295  function stake(uint256 _amount) external {... */\n      pop\n      jump\t// out\n        /* \"contracts/SushiPool.sol\":207:244  mapping(address => User) public users */\n    tag_32:\n      mstore(0x20, 0x00)\n      dup1\n      0x00\n      mstore\n      keccak256(0x00, 0x40)\n      0x00\n      swap2\n      pop\n      swap1\n      pop\n      dup1\n      0x00\n      add\n      sload\n      swap1\n      dup1\n      0x01\n      add\n      sload\n      swap1\n      dup1\n      0x02\n      add\n      sload\n      swap1\n      dup1\n      0x03\n      add\n      sload\n      swap1\n      pop\n      dup5\n      jump\t// out\n        /* \"contracts/SushiPool.sol\":496:518  uint256 public startAt */\n    tag_36:\n      sload(0x05)\n      dup2\n      jump\t// out\n        /* \"contracts/SushiPool.sol\":322:343  uint256 public output */\n    tag_39:\n      sload(0x02)\n      dup2\n      jump\t// out\n        /* \"#utility.yul\":7:84   */\n    tag_56:\n        /* \"#utility.yul\":44:51   */\n      0x00\n        /* \"#utility.yul\":73:78   */\n      dup2\n        /* \"#utility.yul\":62:78   */\n      swap1\n      pop\n        /* \"#utility.yul\":7:84   */\n      swap2\n      swap1\n      pop\n      jump\t// out\n        /* \"#utility.yul\":90:208   */\n    tag_57:\n        /* \"#utility.yul\":177:201   */\n      tag_72\n        /* \"#utility.yul\":195:200   */\n      dup2\n        /* \"#utility.yul\":177:201   */\n      tag_56\n      jump\t// in\n    tag_72:\n        /* \"#utility.yul\":172:175   */\n      dup3\n        /* \"#utility.yul\":165:202   */\n      mstore\n        /* \"#utility.yul\":90:208   */\n      pop\n      pop\n      jump\t// out\n        /* \"#utility.yul\":214:436   */\n    tag_15:\n        /* \"#utility.yul\":307:311   */\n      0x00\n        /* \"#utility.yul\":345:347   */\n      0x20\n        /* \"#utility.yul\":334:343   */\n      dup3\n        /* \"#utility.yul\":330:348   */\n      add\n        /* \"#utility.yul\":322:348   */\n      swap1\n      pop\n        /* \"#utility.yul\":358:429   */\n      tag_74\n        /* \"#utility.yul\":426:427   */\n      0x00\n        /* \"#utility.yul\":415:424   */\n      dup4\n        /* \"#utility.yul\":411:428   */\n      add\n        /* \"#utility.yul\":402:408   */\n      dup5\n        /* \"#utility.yul\":358:429   */\n      tag_57\n      jump\t// in\n    tag_74:\n        /* \"#utility.yul\":214:436   */\n      swap3\n      swap2\n      pop\n      pop\n      jump\t// out\n        /* \"#utility.yul\":523:640   */\n    tag_59:\n        /* \"#utility.yul\":632:633   */\n      0x00\n        /* \"#utility.yul\":629:630   */\n      dup1\n        /* \"#utility.yul\":622:634   */\n      revert\n        /* \"#utility.yul\":769:891   */\n    tag_61:\n        /* \"#utility.yul\":842:866   */\n      tag_79\n        /* \"#utility.yul\":860:865   */\n      dup2\n        /* \"#utility.yul\":842:866   */\n      tag_56\n      jump\t// in\n    tag_79:\n        /* \"#utility.yul\":835:840   */\n      dup2\n        /* \"#utility.yul\":832:867   */\n      eq\n        /* \"#utility.yul\":822:885   */\n      tag_80\n      jumpi\n        /* \"#utility.yul\":881:882   */\n      0x00\n        /* \"#utility.yul\":878:879   */\n      dup1\n        /* \"#utility.yul\":871:883   */\n      revert\n        /* \"#utility.yul\":822:885   */\n    tag_80:\n        /* \"#utility.yul\":769:891   */\n      pop\n      jump\t// out\n        /* \"#utility.yul\":897:1036   */\n    tag_62:\n        /* \"#utility.yul\":943:948   */\n      0x00\n        /* \"#utility.yul\":981:987   */\n      dup2\n        /* \"#utility.yul\":968:988   */\n      calldataload\n        /* \"#utility.yul\":959:988   */\n      swap1\n      pop\n        /* \"#utility.yul\":997:1030   */\n      tag_82\n        /* \"#utility.yul\":1024:1029   */\n      dup2\n        /* \"#utility.yul\":997:1030   */\n      tag_61\n      jump\t// in\n    tag_82:\n        /* \"#utility.yul\":897:1036   */\n      swap3\n      swap2\n      pop\n      pop\n      jump\t// out\n        /* \"#utility.yul\":1042:1371   */\n    tag_27:\n        /* \"#utility.yul\":1101:1107   */\n      0x00\n        /* \"#utility.yul\":1150:1152   */\n      0x20\n        /* \"#utility.yul\":1138:1147   */\n      dup3\n        /* \"#utility.yul\":1129:1136   */\n      dup5\n        /* \"#utility.yul\":1125:1148   */\n      sub\n        /* \"#utility.yul\":1121:1153   */\n      slt\n        /* \"#utility.yul\":1118:1237   */\n      iszero\n      tag_84\n      jumpi\n        /* \"#utility.yul\":1156:1235   */\n      tag_85\n      tag_59\n      jump\t// in\n    tag_85:\n        /* \"#utility.yul\":1118:1237   */\n    tag_84:\n        /* \"#utility.yul\":1276:1277   */\n      0x00\n        /* \"#utility.yul\":1301:1354   */\n      tag_86\n        /* \"#utility.yul\":1346:1353   */\n      dup5\n        /* \"#utility.yul\":1337:1343   */\n      dup3\n        /* \"#utility.yul\":1326:1335   */\n      dup6\n        /* \"#utility.yul\":1322:1344   */\n      add\n        /* \"#utility.yul\":1301:1354   */\n      tag_62\n      jump\t// in\n    tag_86:\n        /* \"#utility.yul\":1291:1354   */\n      swap2\n      pop\n        /* \"#utility.yul\":1247:1364   */\n      pop\n        /* \"#utility.yul\":1042:1371   */\n      swap3\n      swap2\n      pop\n      pop\n      jump\t// out\n        /* \"#utility.yul\":1377:1503   */\n    tag_63:\n        /* \"#utility.yul\":1414:1421   */\n      0x00\n        /* \"#utility.yul\":1454:1496   */\n      0xffffffffffffffffffffffffffffffffffffffff\n        /* \"#utility.yul\":1447:1452   */\n      dup3\n        /* \"#utility.yul\":1443:1497   */\n      and\n        /* \"#utility.yul\":1432:1497   */\n      swap1\n      pop\n        /* \"#utility.yul\":1377:1503   */\n      swap2\n      swap1\n      pop\n      jump\t// out\n        /* \"#utility.yul\":1509:1605   */\n    tag_64:\n        /* \"#utility.yul\":1546:1553   */\n      0x00\n        /* \"#utility.yul\":1575:1599   */\n      tag_89\n        /* \"#utility.yul\":1593:1598   */\n      dup3\n        /* \"#utility.yul\":1575:1599   */\n      tag_63\n      jump\t// in\n    tag_89:\n        /* \"#utility.yul\":1564:1599   */\n      swap1\n      pop\n        /* \"#utility.yul\":1509:1605   */\n      swap2\n      swap1\n      pop\n      jump\t// out\n        /* \"#utility.yul\":1611:1733   */\n    tag_65:\n        /* \"#utility.yul\":1684:1708   */\n      tag_91\n        /* \"#utility.yul\":1702:1707   */\n      dup2\n        /* \"#utility.yul\":1684:1708   */\n      tag_64\n      jump\t// in\n    tag_91:\n        /* \"#utility.yul\":1677:1682   */\n      dup2\n        /* \"#utility.yul\":1674:1709   */\n      eq\n        /* \"#utility.yul\":1664:1727   */\n      tag_92\n      jumpi\n        /* \"#utility.yul\":1723:1724   */\n      0x00\n        /* \"#utility.yul\":1720:1721   */\n      dup1\n        /* \"#utility.yul\":1713:1725   */\n      revert\n        /* \"#utility.yul\":1664:1727   */\n    tag_92:\n        /* \"#utility.yul\":1611:1733   */\n      pop\n      jump\t// out\n        /* \"#utility.yul\":1739:1878   */\n    tag_66:\n        /* \"#utility.yul\":1785:1790   */\n      0x00\n        /* \"#utility.yul\":1823:1829   */\n      dup2\n        /* \"#utility.yul\":1810:1830   */\n      calldataload\n        /* \"#utility.yul\":1801:1830   */\n      swap1\n      pop\n        /* \"#utility.yul\":1839:1872   */\n      tag_94\n        /* \"#utility.yul\":1866:1871   */\n      dup2\n        /* \"#utility.yul\":1839:1872   */\n      tag_65\n      jump\t// in\n    tag_94:\n        /* \"#utility.yul\":1739:1878   */\n      swap3\n      swap2\n      pop\n      pop\n      jump\t// out\n        /* \"#utility.yul\":1884:2213   */\n    tag_31:\n        /* \"#utility.yul\":1943:1949   */\n      0x00\n        /* \"#utility.yul\":1992:1994   */\n      0x20\n        /* \"#utility.yul\":1980:1989   */\n      dup3\n        /* \"#utility.yul\":1971:1978   */\n      dup5\n        /* \"#utility.yul\":1967:1990   */\n      sub\n        /* \"#utility.yul\":1963:1995   */\n      slt\n        /* \"#utility.yul\":1960:2079   */\n      iszero\n      tag_96\n      jumpi\n        /* \"#utility.yul\":1998:2077   */\n      tag_97\n      tag_59\n      jump\t// in\n    tag_97:\n        /* \"#utility.yul\":1960:2079   */\n    tag_96:\n        /* \"#utility.yul\":2118:2119   */\n      0x00\n        /* \"#utility.yul\":2143:2196   */\n      tag_98\n        /* \"#utility.yul\":2188:2195   */\n      dup5\n        /* \"#utility.yul\":2179:2185   */\n      dup3\n        /* \"#utility.yul\":2168:2177   */\n      dup6\n        /* \"#utility.yul\":2164:2186   */\n      add\n        /* \"#utility.yul\":2143:2196   */\n      tag_66\n      jump\t// in\n    tag_98:\n        /* \"#utility.yul\":2133:2196   */\n      swap2\n      pop\n        /* \"#utility.yul\":2089:2206   */\n      pop\n        /* \"#utility.yul\":1884:2213   */\n      swap3\n      swap2\n      pop\n      pop\n      jump\t// out\n        /* \"#utility.yul\":2219:2772   */\n    tag_34:\n        /* \"#utility.yul\":2396:2400   */\n      0x00\n        /* \"#utility.yul\":2434:2437   */\n      0x80\n        /* \"#utility.yul\":2423:2432   */\n      dup3\n        /* \"#utility.yul\":2419:2438   */\n      add\n        /* \"#utility.yul\":2411:2438   */\n      swap1\n      pop\n        /* \"#utility.yul\":2448:2519   */\n      tag_100\n        /* \"#utility.yul\":2516:2517   */\n      0x00\n        /* \"#utility.yul\":2505:2514   */\n      dup4\n        /* \"#utility.yul\":2501:2518   */\n      add\n        /* \"#utility.yul\":2492:2498   */\n      dup8\n        /* \"#utility.yul\":2448:2519   */\n      tag_57\n      jump\t// in\n    tag_100:\n        /* \"#utility.yul\":2529:2601   */\n      tag_101\n        /* \"#utility.yul\":2597:2599   */\n      0x20\n        /* \"#utility.yul\":2586:2595   */\n      dup4\n        /* \"#utility.yul\":2582:2600   */\n      add\n        /* \"#utility.yul\":2573:2579   */\n      dup7\n        /* \"#utility.yul\":2529:2601   */\n      tag_57\n      jump\t// in\n    tag_101:\n        /* \"#utility.yul\":2611:2683   */\n      tag_102\n        /* \"#utility.yul\":2679:2681   */\n      0x40\n        /* \"#utility.yul\":2668:2677   */\n      dup4\n        /* \"#utility.yul\":2664:2682   */\n      add\n        /* \"#utility.yul\":2655:2661   */\n      dup6\n        /* \"#utility.yul\":2611:2683   */\n      tag_57\n      jump\t// in\n    tag_102:\n        /* \"#utility.yul\":2693:2765   */\n      tag_103\n        /* \"#utility.yul\":2761:2763   */\n      0x60\n        /* \"#utility.yul\":2750:2759   */\n      dup4\n        /* \"#utility.yul\":2746:2764   */\n      add\n        /* \"#utility.yul\":2737:2743   */\n      dup5\n        /* \"#utility.yul\":2693:2765   */\n      tag_57\n      jump\t// in\n    tag_103:\n        /* \"#utility.yul\":2219:2772   */\n      swap6\n      swap5\n      pop\n      pop\n      pop\n      pop\n      pop\n      jump\t// out\n        /* \"#utility.yul\":2778:2958   */\n    tag_67:\n        /* \"#utility.yul\":2826:2903   */\n      0x4e487b7100000000000000000000000000000000000000000000000000000000\n        /* \"#utility.yul\":2823:2824   */\n      0x00\n        /* \"#utility.yul\":2816:2904   */\n      mstore\n        /* \"#utility.yul\":2923:2927   */\n      0x12\n        /* \"#utility.yul\":2920:2921   */\n      0x04\n        /* \"#utility.yul\":2913:2928   */\n      mstore\n        /* \"#utility.yul\":2947:2951   */\n      0x24\n        /* \"#utility.yul\":2944:2945   */\n      0x00\n        /* \"#utility.yul\":2937:2952   */\n      revert\n        /* \"#utility.yul\":2964:3144   */\n    tag_68:\n        /* \"#utility.yul\":3012:3089   */\n      0x4e487b7100000000000000000000000000000000000000000000000000000000\n        /* \"#utility.yul\":3009:3010   */\n      0x00\n        /* \"#utility.yul\":3002:3090   */\n      mstore\n        /* \"#utility.yul\":3109:3113   */\n      0x11\n        /* \"#utility.yul\":3106:3107   */\n      0x04\n        /* \"#utility.yul\":3099:3114   */\n      mstore\n        /* \"#utility.yul\":3133:3137   */\n      0x24\n        /* \"#utility.yul\":3130:3131   */\n      0x00\n        /* \"#utility.yul\":3123:3138   */\n      revert\n        /* \"#utility.yul\":3150:3335   */\n    tag_44:\n        /* \"#utility.yul\":3190:3191   */\n      0x00\n        /* \"#utility.yul\":3207:3227   */\n      tag_107\n        /* \"#utility.yul\":3225:3226   */\n      dup3\n        /* \"#utility.yul\":3207:3227   */\n      tag_56\n      jump\t// in\n    tag_107:\n        /* \"#utility.yul\":3202:3227   */\n      swap2\n      pop\n        /* \"#utility.yul\":3241:3261   */\n      tag_108\n        /* \"#utility.yul\":3259:3260   */\n      dup4\n        /* \"#utility.yul\":3241:3261   */\n      tag_56\n      jump\t// in\n    tag_108:\n        /* \"#utility.yul\":3236:3261   */\n      swap3\n      pop\n        /* \"#utility.yul\":3280:3281   */\n      dup3\n        /* \"#utility.yul\":3270:3305   */\n      tag_109\n      jumpi\n        /* \"#utility.yul\":3285:3303   */\n      tag_110\n      tag_67\n      jump\t// in\n    tag_110:\n        /* \"#utility.yul\":3270:3305   */\n    tag_109:\n        /* \"#utility.yul\":3327:3328   */\n      dup3\n        /* \"#utility.yul\":3324:3325   */\n      dup3\n        /* \"#utility.yul\":3320:3329   */\n      div\n        /* \"#utility.yul\":3315:3329   */\n      swap1\n      pop\n        /* \"#utility.yul\":3150:3335   */\n      swap3\n      swap2\n      pop\n      pop\n      jump\t// out\n        /* \"#utility.yul\":3341:3532   */\n    tag_46:\n        /* \"#utility.yul\":3381:3385   */\n      0x00\n        /* \"#utility.yul\":3401:3421   */\n      tag_112\n        /* \"#utility.yul\":3419:3420   */\n      dup3\n        /* \"#utility.yul\":3401:3421   */\n      tag_56\n      jump\t// in\n    tag_112:\n        /* \"#utility.yul\":3396:3421   */\n      swap2\n      pop\n        /* \"#utility.yul\":3435:3455   */\n      tag_113\n        /* \"#utility.yul\":3453:3454   */\n      dup4\n        /* \"#utility.yul\":3435:3455   */\n      tag_56\n      jump\t// in\n    tag_113:\n        /* \"#utility.yul\":3430:3455   */\n      swap3\n      pop\n        /* \"#utility.yul\":3474:3475   */\n      dup3\n        /* \"#utility.yul\":3471:3472   */\n      dup3\n        /* \"#utility.yul\":3468:3476   */\n      lt\n        /* \"#utility.yul\":3465:3499   */\n      iszero\n      tag_114\n      jumpi\n        /* \"#utility.yul\":3479:3497   */\n      tag_115\n      tag_68\n      jump\t// in\n    tag_115:\n        /* \"#utility.yul\":3465:3499   */\n    tag_114:\n        /* \"#utility.yul\":3524:3525   */\n      dup3\n        /* \"#utility.yul\":3521:3522   */\n      dup3\n        /* \"#utility.yul\":3517:3526   */\n      sub\n        /* \"#utility.yul\":3509:3526   */\n      swap1\n      pop\n        /* \"#utility.yul\":3341:3532   */\n      swap3\n      swap2\n      pop\n      pop\n      jump\t// out\n        /* \"#utility.yul\":3538:3886   */\n    tag_48:\n        /* \"#utility.yul\":3578:3585   */\n      0x00\n        /* \"#utility.yul\":3601:3621   */\n      tag_117\n        /* \"#utility.yul\":3619:3620   */\n      dup3\n        /* \"#utility.yul\":3601:3621   */\n      tag_56\n      jump\t// in\n    tag_117:\n        /* \"#utility.yul\":3596:3621   */\n      swap2\n      pop\n        /* \"#utility.yul\":3635:3655   */\n      tag_118\n        /* \"#utility.yul\":3653:3654   */\n      dup4\n        /* \"#utility.yul\":3635:3655   */\n      tag_56\n      jump\t// in\n    tag_118:\n        /* \"#utility.yul\":3630:3655   */\n      swap3\n      pop\n        /* \"#utility.yul\":3823:3824   */\n      dup2\n        /* \"#utility.yul\":3755:3821   */\n      0xffffffffffffffffffffffffffffffffffffffffffffffffffffffffffffffff\n        /* \"#utility.yul\":3751:3825   */\n      div\n        /* \"#utility.yul\":3748:3749   */\n      dup4\n        /* \"#utility.yul\":3745:3826   */\n      gt\n        /* \"#utility.yul\":3740:3741   */\n      dup3\n        /* \"#utility.yul\":3733:3742   */\n      iszero\n        /* \"#utility.yul\":3726:3743   */\n      iszero\n        /* \"#utility.yul\":3722:3827   */\n      and\n        /* \"#utility.yul\":3719:3850   */\n      iszero\n      tag_119\n      jumpi\n        /* \"#utility.yul\":3830:3848   */\n      tag_120\n      tag_68\n      jump\t// in\n    tag_120:\n        /* \"#utility.yul\":3719:3850   */\n    tag_119:\n        /* \"#utility.yul\":3878:3879   */\n      dup3\n        /* \"#utility.yul\":3875:3876   */\n      dup3\n        /* \"#utility.yul\":3871:3880   */\n      mul\n        /* \"#utility.yul\":3860:3880   */\n      swap1\n      pop\n        /* \"#utility.yul\":3538:3886   */\n      swap3\n      swap2\n      pop\n      pop\n      jump\t// out\n        /* \"#utility.yul\":3892:4197   */\n    tag_50:\n        /* \"#utility.yul\":3932:3935   */\n      0x00\n        /* \"#utility.yul\":3951:3971   */\n      tag_122\n        /* \"#utility.yul\":3969:3970   */\n      dup3\n        /* \"#utility.yul\":3951:3971   */\n      tag_56\n      jump\t// in\n    tag_122:\n        /* \"#utility.yul\":3946:3971   */\n      swap2\n      pop\n        /* \"#utility.yul\":3985:4005   */\n      tag_123\n        /* \"#utility.yul\":4003:4004   */\n      dup4\n        /* \"#utility.yul\":3985:4005   */\n      tag_56\n      jump\t// in\n    tag_123:\n        /* \"#utility.yul\":3980:4005   */\n      swap3\n      pop\n        /* \"#utility.yul\":4139:4140   */\n      dup3\n        /* \"#utility.yul\":4071:4137   */\n      0xffffffffffffffffffffffffffffffffffffffffffffffffffffffffffffffff\n        /* \"#utility.yul\":4067:4141   */\n      sub\n        /* \"#utility.yul\":4064:4065   */\n      dup3\n        /* \"#utility.yul\":4061:4142   */\n      gt\n        /* \"#utility.yul\":4058:4165   */\n      iszero\n      tag_124\n      jumpi\n        /* \"#utility.yul\":4145:4163   */\n      tag_125\n      tag_68\n      jump\t// in\n    tag_125:\n        /* \"#utility.yul\":4058:4165   */\n    tag_124:\n        /* \"#utility.yul\":4189:4190   */\n      dup3\n        /* \"#utility.yul\":4186:4187   */\n      dup3\n        /* \"#utility.yul\":4182:4191   */\n      add\n        /* \"#utility.yul\":4175:4191   */\n      swap1\n      pop\n        /* \"#utility.yul\":3892:4197   */\n      swap3\n      swap2\n      pop\n      pop\n      jump\t// out\n\n    auxdata: 0xa2646970667358221220676f17be603a87611465009e5c28f33875eadeb1c3c65df3f47f134f88265b0c64736f6c634300080f0033\n}\n",
				"bytecode": {
					"linkReferences": {},
					"object": "608060405234801561001057600080fd5b506040516106cc3803806106cc83398181016040528101906100329190610081565b8060028190555042600481905550506100ae565b600080fd5b6000819050919050565b61005e8161004b565b811461006957600080fd5b50565b60008151905061007b81610055565b92915050565b60006020828403121561009757610096610046565b5b60006100a58482850161006c565b91505092915050565b61060f806100bd6000396000f3fe608060405234801561001057600080fd5b50600436106100885760003560e01c8063a694fc3a1161005b578063a694fc3a14610105578063a87430ba14610121578063c744656514610154578063f20eaeb81461017257610088565b80634b5c8bdf1461008d57806364d4db10146100ab578063833a3b85146100c95780638d48c9c8146100e7575b600080fd5b610095610190565b6040516100a2919061031d565b60405180910390f35b6100b3610196565b6040516100c0919061031d565b60405180910390f35b6100d161019c565b6040516100de919061031d565b60405180910390f35b6100ef6101a2565b6040516100fc919061031d565b60405180910390f35b61011f600480360381019061011a9190610369565b6101a8565b005b61013b600480360381019061013691906103f4565b6102c8565b60405161014b9493929190610421565b60405180910390f35b61015c6102f8565b604051610169919061031d565b60405180910390f35b61017a6102fe565b604051610187919061031d565b60405180910390f35b60015481565b60045481565b60065481565b60035481565b60008060003373ffffffffffffffffffffffffffffffffffffffff1673ffffffffffffffffffffffffffffffffffffffff1681526020019081526020016000209050600080600154146102085760015460025461020591906104c4565b90505b806004544261021791906104f5565b6102219190610529565b600360008282546102329190610583565b925050819055508160000154826003015460035461025091906104f5565b61025a9190610529565b82600201600082825461026d9190610583565b925050819055506003548260030181905550828260000160008282546102939190610583565b9250508190555042826001018190555082600160008282546102b59190610583565b9250508190555042600481905550505050565b60006020528060005260406000206000915090508060000154908060010154908060020154908060030154905084565b60055481565b60025481565b6000819050919050565b61031781610304565b82525050565b6000602082019050610332600083018461030e565b92915050565b600080fd5b61034681610304565b811461035157600080fd5b50565b6000813590506103638161033d565b92915050565b60006020828403121561037f5761037e610338565b5b600061038d84828501610354565b91505092915050565b600073ffffffffffffffffffffffffffffffffffffffff82169050919050565b60006103c182610396565b9050919050565b6103d1816103b6565b81146103dc57600080fd5b50565b6000813590506103ee816103c8565b92915050565b60006020828403121561040a57610409610338565b5b6000610418848285016103df565b91505092915050565b6000608082019050610436600083018761030e565b610443602083018661030e565b610450604083018561030e565b61045d606083018461030e565b95945050505050565b7f4e487b7100000000000000000000000000000000000000000000000000000000600052601260045260246000fd5b7f4e487b7100000000000000000000000000000000000000000000000000000000600052601160045260246000fd5b60006104cf82610304565b91506104da83610304565b9250826104ea576104e9610466565b5b828204905092915050565b600061050082610304565b915061050b83610304565b92508282101561051e5761051d610495565b5b828203905092915050565b600061053482610304565b915061053f83610304565b9250817fffffffffffffffffffffffffffffffffffffffffffffffffffffffffffffffff048311821515161561057857610577610495565b5b828202905092915050565b600061058e82610304565b915061059983610304565b9250827fffffffffffffffffffffffffffffffffffffffffffffffffffffffffffffffff038211156105ce576105cd610495565b5b82820190509291505056fea2646970667358221220676f17be603a87611465009e5c28f33875eadeb1c3c65df3f47f134f88265b0c64736f6c634300080f0033",
					"opcodes": "PUSH1 0x80 PUSH1 0x40 MSTORE CALLVALUE DUP1 ISZERO PUSH2 0x10 JUMPI PUSH1 0x0 DUP1 REVERT JUMPDEST POP PUSH1 0x40 MLOAD PUSH2 0x6CC CODESIZE SUB DUP1 PUSH2 0x6CC DUP4 CODECOPY DUP2 DUP2 ADD PUSH1 0x40 MSTORE DUP2 ADD SWAP1 PUSH2 0x32 SWAP2 SWAP1 PUSH2 0x81 JUMP JUMPDEST DUP1 PUSH1 0x2 DUP2 SWAP1 SSTORE POP TIMESTAMP PUSH1 0x4 DUP2 SWAP1 SSTORE POP POP PUSH2 0xAE JUMP JUMPDEST PUSH1 0x0 DUP1 REVERT JUMPDEST PUSH1 0x0 DUP2 SWAP1 POP SWAP2 SWAP1 POP JUMP JUMPDEST PUSH2 0x5E DUP2 PUSH2 0x4B JUMP JUMPDEST DUP2 EQ PUSH2 0x69 JUMPI PUSH1 0x0 DUP1 REVERT JUMPDEST POP JUMP JUMPDEST PUSH1 0x0 DUP2 MLOAD SWAP1 POP PUSH2 0x7B DUP2 PUSH2 0x55 JUMP JUMPDEST SWAP3 SWAP2 POP POP JUMP JUMPDEST PUSH1 0x0 PUSH1 0x20 DUP3 DUP5 SUB SLT ISZERO PUSH2 0x97 JUMPI PUSH2 0x96 PUSH2 0x46 JUMP JUMPDEST JUMPDEST PUSH1 0x0 PUSH2 0xA5 DUP5 DUP3 DUP6 ADD PUSH2 0x6C JUMP JUMPDEST SWAP2 POP POP SWAP3 SWAP2 POP POP JUMP JUMPDEST PUSH2 0x60F DUP1 PUSH2 0xBD PUSH1 0x0 CODECOPY PUSH1 0x0 RETURN INVALID PUSH1 0x80 PUSH1 0x40 MSTORE CALLVALUE DUP1 ISZERO PUSH2 0x10 JUMPI PUSH1 0x0 DUP1 REVERT JUMPDEST POP PUSH1 0x4 CALLDATASIZE LT PUSH2 0x88 JUMPI PUSH1 0x0 CALLDATALOAD PUSH1 0xE0 SHR DUP1 PUSH4 0xA694FC3A GT PUSH2 0x5B JUMPI DUP1 PUSH4 0xA694FC3A EQ PUSH2 0x105 JUMPI DUP1 PUSH4 0xA87430BA EQ PUSH2 0x121 JUMPI DUP1 PUSH4 0xC7446565 EQ PUSH2 0x154 JUMPI DUP1 PUSH4 0xF20EAEB8 EQ PUSH2 0x172 JUMPI PUSH2 0x88 JUMP JUMPDEST DUP1 PUSH4 0x4B5C8BDF EQ PUSH2 0x8D JUMPI DUP1 PUSH4 0x64D4DB10 EQ PUSH2 0xAB JUMPI DUP1 PUSH4 0x833A3B85 EQ PUSH2 0xC9 JUMPI DUP1 PUSH4 0x8D48C9C8 EQ PUSH2 0xE7 JUMPI JUMPDEST PUSH1 0x0 DUP1 REVERT JUMPDEST PUSH2 0x95 PUSH2 0x190 JUMP JUMPDEST PUSH1 0x40 MLOAD PUSH2 0xA2 SWAP2 SWAP1 PUSH2 0x31D JUMP JUMPDEST PUSH1 0x40 MLOAD DUP1 SWAP2 SUB SWAP1 RETURN JUMPDEST PUSH2 0xB3 PUSH2 0x196 JUMP JUMPDEST PUSH1 0x40 MLOAD PUSH2 0xC0 SWAP2 SWAP1 PUSH2 0x31D JUMP JUMPDEST PUSH1 0x40 MLOAD DUP1 SWAP2 SUB SWAP1 RETURN JUMPDEST PUSH2 0xD1 PUSH2 0x19C JUMP JUMPDEST PUSH1 0x40 MLOAD PUSH2 0xDE SWAP2 SWAP1 PUSH2 0x31D JUMP JUMPDEST PUSH1 0x40 MLOAD DUP1 SWAP2 SUB SWAP1 RETURN JUMPDEST PUSH2 0xEF PUSH2 0x1A2 JUMP JUMPDEST PUSH1 0x40 MLOAD PUSH2 0xFC SWAP2 SWAP1 PUSH2 0x31D JUMP JUMPDEST PUSH1 0x40 MLOAD DUP1 SWAP2 SUB SWAP1 RETURN JUMPDEST PUSH2 0x11F PUSH1 0x4 DUP1 CALLDATASIZE SUB DUP2 ADD SWAP1 PUSH2 0x11A SWAP2 SWAP1 PUSH2 0x369 JUMP JUMPDEST PUSH2 0x1A8 JUMP JUMPDEST STOP JUMPDEST PUSH2 0x13B PUSH1 0x4 DUP1 CALLDATASIZE SUB DUP2 ADD SWAP1 PUSH2 0x136 SWAP2 SWAP1 PUSH2 0x3F4 JUMP JUMPDEST PUSH2 0x2C8 JUMP JUMPDEST PUSH1 0x40 MLOAD PUSH2 0x14B SWAP5 SWAP4 SWAP3 SWAP2 SWAP1 PUSH2 0x421 JUMP JUMPDEST PUSH1 0x40 MLOAD DUP1 SWAP2 SUB SWAP1 RETURN JUMPDEST PUSH2 0x15C PUSH2 0x2F8 JUMP JUMPDEST PUSH1 0x40 MLOAD PUSH2 0x169 SWAP2 SWAP1 PUSH2 0x31D JUMP JUMPDEST PUSH1 0x40 MLOAD DUP1 SWAP2 SUB SWAP1 RETURN JUMPDEST PUSH2 0x17A PUSH2 0x2FE JUMP JUMPDEST PUSH1 0x40 MLOAD PUSH2 0x187 SWAP2 SWAP1 PUSH2 0x31D JUMP JUMPDEST PUSH1 0x40 MLOAD DUP1 SWAP2 SUB SWAP1 RETURN JUMPDEST PUSH1 0x1 SLOAD DUP2 JUMP JUMPDEST PUSH1 0x4 SLOAD DUP2 JUMP JUMPDEST PUSH1 0x6 SLOAD DUP2 JUMP JUMPDEST PUSH1 0x3 SLOAD DUP2 JUMP JUMPDEST PUSH1 0x0 DUP1 PUSH1 0x0 CALLER PUSH20 0xFFFFFFFFFFFFFFFFFFFFFFFFFFFFFFFFFFFFFFFF AND PUSH20 0xFFFFFFFFFFFFFFFFFFFFFFFFFFFFFFFFFFFFFFFF AND DUP2 MSTORE PUSH1 0x20 ADD SWAP1 DUP2 MSTORE PUSH1 0x20 ADD PUSH1 0x0 KECCAK256 SWAP1 POP PUSH1 0x0 DUP1 PUSH1 0x1 SLOAD EQ PUSH2 0x208 JUMPI PUSH1 0x1 SLOAD PUSH1 0x2 SLOAD PUSH2 0x205 SWAP2 SWAP1 PUSH2 0x4C4 JUMP JUMPDEST SWAP1 POP JUMPDEST DUP1 PUSH1 0x4 SLOAD TIMESTAMP PUSH2 0x217 SWAP2 SWAP1 PUSH2 0x4F5 JUMP JUMPDEST PUSH2 0x221 SWAP2 SWAP1 PUSH2 0x529 JUMP JUMPDEST PUSH1 0x3 PUSH1 0x0 DUP3 DUP3 SLOAD PUSH2 0x232 SWAP2 SWAP1 PUSH2 0x583 JUMP JUMPDEST SWAP3 POP POP DUP2 SWAP1 SSTORE POP DUP2 PUSH1 0x0 ADD SLOAD DUP3 PUSH1 0x3 ADD SLOAD PUSH1 0x3 SLOAD PUSH2 0x250 SWAP2 SWAP1 PUSH2 0x4F5 JUMP JUMPDEST PUSH2 0x25A SWAP2 SWAP1 PUSH2 0x529 JUMP JUMPDEST DUP3 PUSH1 0x2 ADD PUSH1 0x0 DUP3 DUP3 SLOAD PUSH2 0x26D SWAP2 SWAP1 PUSH2 0x583 JUMP JUMPDEST SWAP3 POP POP DUP2 SWAP1 SSTORE POP PUSH1 0x3 SLOAD DUP3 PUSH1 0x3 ADD DUP2 SWAP1 SSTORE POP DUP3 DUP3 PUSH1 0x0 ADD PUSH1 0x0 DUP3 DUP3 SLOAD PUSH2 0x293 SWAP2 SWAP1 PUSH2 0x583 JUMP JUMPDEST SWAP3 POP POP DUP2 SWAP1 SSTORE POP TIMESTAMP DUP3 PUSH1 0x1 ADD DUP2 SWAP1 SSTORE POP DUP3 PUSH1 0x1 PUSH1 0x0 DUP3 DUP3 SLOAD PUSH2 0x2B5 SWAP2 SWAP1 PUSH2 0x583 JUMP JUMPDEST SWAP3 POP POP DUP2 SWAP1 SSTORE POP TIMESTAMP PUSH1 0x4 DUP2 SWAP1 SSTORE POP POP POP POP JUMP JUMPDEST PUSH1 0x0 PUSH1 0x20 MSTORE DUP1 PUSH1 0x0 MSTORE PUSH1 0x40 PUSH1 0x0 KECCAK256 PUSH1 0x0 SWAP2 POP SWAP1 POP DUP1 PUSH1 0x0 ADD SLOAD SWAP1 DUP1 PUSH1 0x1 ADD SLOAD SWAP1 DUP1 PUSH1 0x2 ADD SLOAD SWAP1 DUP1 PUSH1 0x3 ADD SLOAD SWAP1 POP DUP5 JUMP JUMPDEST PUSH1 0x5 SLOAD DUP2 JUMP JUMPDEST PUSH1 0x2 SLOAD DUP2 JUMP JUMPDEST PUSH1 0x0 DUP2 SWAP1 POP SWAP2 SWAP1 POP JUMP JUMPDEST PUSH2 0x317 DUP2 PUSH2 0x304 JUMP JUMPDEST DUP3 MSTORE POP POP JUMP JUMPDEST PUSH1 0x0 PUSH1 0x20 DUP3 ADD SWAP1 POP PUSH2 0x332 PUSH1 0x0 DUP4 ADD DUP5 PUSH2 0x30E JUMP JUMPDEST SWAP3 SWAP2 POP POP JUMP JUMPDEST PUSH1 0x0 DUP1 REVERT JUMPDEST PUSH2 0x346 DUP2 PUSH2 0x304 JUMP JUMPDEST DUP2 EQ PUSH2 0x351 JUMPI PUSH1 0x0 DUP1 REVERT JUMPDEST POP JUMP JUMPDEST PUSH1 0x0 DUP2 CALLDATALOAD SWAP1 POP PUSH2 0x363 DUP2 PUSH2 0x33D JUMP JUMPDEST SWAP3 SWAP2 POP POP JUMP JUMPDEST PUSH1 0x0 PUSH1 0x20 DUP3 DUP5 SUB SLT ISZERO PUSH2 0x37F JUMPI PUSH2 0x37E PUSH2 0x338 JUMP JUMPDEST JUMPDEST PUSH1 0x0 PUSH2 0x38D DUP5 DUP3 DUP6 ADD PUSH2 0x354 JUMP JUMPDEST SWAP2 POP POP SWAP3 SWAP2 POP POP JUMP JUMPDEST PUSH1 0x0 PUSH20 0xFFFFFFFFFFFFFFFFFFFFFFFFFFFFFFFFFFFFFFFF DUP3 AND SWAP1 POP SWAP2 SWAP1 POP JUMP JUMPDEST PUSH1 0x0 PUSH2 0x3C1 DUP3 PUSH2 0x396 JUMP JUMPDEST SWAP1 POP SWAP2 SWAP1 POP JUMP JUMPDEST PUSH2 0x3D1 DUP2 PUSH2 0x3B6 JUMP JUMPDEST DUP2 EQ PUSH2 0x3DC JUMPI PUSH1 0x0 DUP1 REVERT JUMPDEST POP JUMP JUMPDEST PUSH1 0x0 DUP2 CALLDATALOAD SWAP1 POP PUSH2 0x3EE DUP2 PUSH2 0x3C8 JUMP JUMPDEST SWAP3 SWAP2 POP POP JUMP JUMPDEST PUSH1 0x0 PUSH1 0x20 DUP3 DUP5 SUB SLT ISZERO PUSH2 0x40A JUMPI PUSH2 0x409 PUSH2 0x338 JUMP JUMPDEST JUMPDEST PUSH1 0x0 PUSH2 0x418 DUP5 DUP3 DUP6 ADD PUSH2 0x3DF JUMP JUMPDEST SWAP2 POP POP SWAP3 SWAP2 POP POP JUMP JUMPDEST PUSH1 0x0 PUSH1 0x80 DUP3 ADD SWAP1 POP PUSH2 0x436 PUSH1 0x0 DUP4 ADD DUP8 PUSH2 0x30E JUMP JUMPDEST PUSH2 0x443 PUSH1 0x20 DUP4 ADD DUP7 PUSH2 0x30E JUMP JUMPDEST PUSH2 0x450 PUSH1 0x40 DUP4 ADD DUP6 PUSH2 0x30E JUMP JUMPDEST PUSH2 0x45D PUSH1 0x60 DUP4 ADD DUP5 PUSH2 0x30E JUMP JUMPDEST SWAP6 SWAP5 POP POP POP POP POP JUMP JUMPDEST PUSH32 0x4E487B7100000000000000000000000000000000000000000000000000000000 PUSH1 0x0 MSTORE PUSH1 0x12 PUSH1 0x4 MSTORE PUSH1 0x24 PUSH1 0x0 REVERT JUMPDEST PUSH32 0x4E487B7100000000000000000000000000000000000000000000000000000000 PUSH1 0x0 MSTORE PUSH1 0x11 PUSH1 0x4 MSTORE PUSH1 0x24 PUSH1 0x0 REVERT JUMPDEST PUSH1 0x0 PUSH2 0x4CF DUP3 PUSH2 0x304 JUMP JUMPDEST SWAP2 POP PUSH2 0x4DA DUP4 PUSH2 0x304 JUMP JUMPDEST SWAP3 POP DUP3 PUSH2 0x4EA JUMPI PUSH2 0x4E9 PUSH2 0x466 JUMP JUMPDEST JUMPDEST DUP3 DUP3 DIV SWAP1 POP SWAP3 SWAP2 POP POP JUMP JUMPDEST PUSH1 0x0 PUSH2 0x500 DUP3 PUSH2 0x304 JUMP JUMPDEST SWAP2 POP PUSH2 0x50B DUP4 PUSH2 0x304 JUMP JUMPDEST SWAP3 POP DUP3 DUP3 LT ISZERO PUSH2 0x51E JUMPI PUSH2 0x51D PUSH2 0x495 JUMP JUMPDEST JUMPDEST DUP3 DUP3 SUB SWAP1 POP SWAP3 SWAP2 POP POP JUMP JUMPDEST PUSH1 0x0 PUSH2 0x534 DUP3 PUSH2 0x304 JUMP JUMPDEST SWAP2 POP PUSH2 0x53F DUP4 PUSH2 0x304 JUMP JUMPDEST SWAP3 POP DUP2 PUSH32 0xFFFFFFFFFFFFFFFFFFFFFFFFFFFFFFFFFFFFFFFFFFFFFFFFFFFFFFFFFFFFFFFF DIV DUP4 GT DUP3 ISZERO ISZERO AND ISZERO PUSH2 0x578 JUMPI PUSH2 0x577 PUSH2 0x495 JUMP JUMPDEST JUMPDEST DUP3 DUP3 MUL SWAP1 POP SWAP3 SWAP2 POP POP JUMP JUMPDEST PUSH1 0x0 PUSH2 0x58E DUP3 PUSH2 0x304 JUMP JUMPDEST SWAP2 POP PUSH2 0x599 DUP4 PUSH2 0x304 JUMP JUMPDEST SWAP3 POP DUP3 PUSH32 0xFFFFFFFFFFFFFFFFFFFFFFFFFFFFFFFFFFFFFFFFFFFFFFFFFFFFFFFFFFFFFFFF SUB DUP3 GT ISZERO PUSH2 0x5CE JUMPI PUSH2 0x5CD PUSH2 0x495 JUMP JUMPDEST JUMPDEST DUP3 DUP3 ADD SWAP1 POP SWAP3 SWAP2 POP POP JUMP INVALID LOG2 PUSH5 0x6970667358 0x22 SLT KECCAK256 PUSH8 0x6F17BE603A876114 PUSH6 0x9E5C28F338 PUSH22 0xEADEB1C3C65DF3F47F134F88265B0C64736F6C634300 ADDMOD 0xF STOP CALLER "
				},
				"gasEstimates": {
					"creation": {
						"codeDepositCost": "310200",
						"executionCost": "infinite",
						"totalCost": "infinite"
					},
					"external": {
						"currentAt()": "2474",
						"lastStakeTime()": "2452",
						"output()": "2495",
						"rn()": "2496",
						"stake(uint256)": "infinite",
						"stakeTotal()": "2430",
						"startAt()": "2473",
						"users(address)": "infinite"
					}
				},
				"methodIdentifiers": {
					"currentAt()": "833a3b85",
					"lastStakeTime()": "64d4db10",
					"output()": "f20eaeb8",
					"rn()": "8d48c9c8",
					"stake(uint256)": "a694fc3a",
					"stakeTotal()": "4b5c8bdf",
					"startAt()": "c7446565",
					"users(address)": "a87430ba"
				}
			},
			"storageLayout": {
				"storage": [
					{
						"astId": 15,
						"contract": "contracts/SushiPool.sol:SushiPool",
						"label": "users",
						"offset": 0,
						"slot": "0",
						"type": "t_mapping(t_address,t_struct(User)10_storage)"
					},
					{
						"astId": 17,
						"contract": "contracts/SushiPool.sol:SushiPool",
						"label": "stakeTotal",
						"offset": 0,
						"slot": "1",
						"type": "t_uint256"
					},
					{
						"astId": 19,
						"contract": "contracts/SushiPool.sol:SushiPool",
						"label": "output",
						"offset": 0,
						"slot": "2",
						"type": "t_uint256"
					},
					{
						"astId": 21,
						"contract": "contracts/SushiPool.sol:SushiPool",
						"label": "rn",
						"offset": 0,
						"slot": "3",
						"type": "t_uint256"
					},
					{
						"astId": 23,
						"contract": "contracts/SushiPool.sol:SushiPool",
						"label": "lastStakeTime",
						"offset": 0,
						"slot": "4",
						"type": "t_uint256"
					},
					{
						"astId": 25,
						"contract": "contracts/SushiPool.sol:SushiPool",
						"label": "startAt",
						"offset": 0,
						"slot": "5",
						"type": "t_uint256"
					},
					{
						"astId": 27,
						"contract": "contracts/SushiPool.sol:SushiPool",
						"label": "currentAt",
						"offset": 0,
						"slot": "6",
						"type": "t_uint256"
					}
				],
				"types": {
					"t_address": {
						"encoding": "inplace",
						"label": "address",
						"numberOfBytes": "20"
					},
					"t_mapping(t_address,t_struct(User)10_storage)": {
						"encoding": "mapping",
						"key": "t_address",
						"label": "mapping(address => struct SushiPool.User)",
						"numberOfBytes": "32",
						"value": "t_struct(User)10_storage"
					},
					"t_struct(User)10_storage": {
						"encoding": "inplace",
						"label": "struct SushiPool.User",
						"members": [
							{
								"astId": 3,
								"contract": "contracts/SushiPool.sol:SushiPool",
								"label": "stakeNumber",
								"offset": 0,
								"slot": "0",
								"type": "t_uint256"
							},
							{
								"astId": 5,
								"contract": "contracts/SushiPool.sol:SushiPool",
								"label": "stakeTime",
								"offset": 0,
								"slot": "1",
								"type": "t_uint256"
							},
							{
								"astId": 7,
								"contract": "contracts/SushiPool.sol:SushiPool",
								"label": "insert",
								"offset": 0,
								"slot": "2",
								"type": "t_uint256"
							},
							{
								"astId": 9,
								"contract": "contracts/SushiPool.sol:SushiPool",
								"label": "ru",
								"offset": 0,
								"slot": "3",
								"type": "t_uint256"
							}
						],
						"numberOfBytes": "128"
					},
					"t_uint256": {
						"encoding": "inplace",
						"label": "uint256",
						"numberOfBytes": "32"
					}
				}
			},
			"userdoc": {
				"kind": "user",
				"methods": {
					"stake(uint256)": {
						"notice": "用户质押  amount 质押数量"
					}
				},
				"version": 1
			}
		}
	}
}