{
	"contracts/EnglishAuction.sol": {
		"EnglishAuction": {
			"abi": [
				{
					"inputs": [
						{
							"internalType": "address",
							"name": "_nft",
							"type": "address"
						},
						{
							"internalType": "uint256",
							"name": "_nftId",
							"type": "uint256"
						},
						{
							"internalType": "uint256",
							"name": "_startingBid",
							"type": "uint256"
						}
					],
					"stateMutability": "nonpayable",
					"type": "constructor"
				},
				{
					"inputs": [
						{
							"internalType": "address",
							"name": "",
							"type": "address"
						}
					],
					"name": "bids",
					"outputs": [
						{
							"internalType": "uint256",
							"name": "",
							"type": "uint256"
						}
					],
					"stateMutability": "view",
					"type": "function"
				},
				{
					"inputs": [],
					"name": "endAt",
					"outputs": [
						{
							"internalType": "uint32",
							"name": "",
							"type": "uint32"
						}
					],
					"stateMutability": "view",
					"type": "function"
				},
				{
					"inputs": [],
					"name": "ended",
					"outputs": [
						{
							"internalType": "bool",
							"name": "",
							"type": "bool"
						}
					],
					"stateMutability": "view",
					"type": "function"
				},
				{
					"inputs": [],
					"name": "highestBid",
					"outputs": [
						{
							"internalType": "uint256",
							"name": "",
							"type": "uint256"
						}
					],
					"stateMutability": "view",
					"type": "function"
				},
				{
					"inputs": [],
					"name": "highestBidder",
					"outputs": [
						{
							"internalType": "address",
							"name": "",
							"type": "address"
						}
					],
					"stateMutability": "view",
					"type": "function"
				},
				{
					"inputs": [],
					"name": "nft",
					"outputs": [
						{
							"internalType": "contract IERC721",
							"name": "",
							"type": "address"
						}
					],
					"stateMutability": "view",
					"type": "function"
				},
				{
					"inputs": [],
					"name": "nftId",
					"outputs": [
						{
							"internalType": "uint256",
							"name": "",
							"type": "uint256"
						}
					],
					"stateMutability": "view",
					"type": "function"
				},
				{
					"inputs": [],
					"name": "seller",
					"outputs": [
						{
							"internalType": "address payable",
							"name": "",
							"type": "address"
						}
					],
					"stateMutability": "view",
					"type": "function"
				},
				{
					"inputs": [],
					"name": "start",
					"outputs": [],
					"stateMutability": "nonpayable",
					"type": "function"
				},
				{
					"inputs": [],
					"name": "started",
					"outputs": [
						{
							"internalType": "bool",
							"name": "",
							"type": "bool"
						}
					],
					"stateMutability": "view",
					"type": "function"
				}
			],
			"devdoc": {
				"kind": "dev",
				"methods": {},
				"version": 1
			},
			"evm": {
				"assembly": "    /* \"contracts/EnglishAuction.sol\":183:986  contract EnglishAuction { ... */\n  mstore(0x40, 0xe0)\n    /* \"contracts/EnglishAuction.sol\":512:733  constructor(... */\n  callvalue\n  dup1\n  iszero\n  tag_1\n  jumpi\n  0x00\n  dup1\n  revert\ntag_1:\n  pop\n  mload(0x40)\n  sub(codesize, bytecodeSize)\n  dup1\n  bytecodeSize\n  dup4\n  codecopy\n  dup2\n  dup2\n  add\n  0x40\n  mstore\n  dup2\n  add\n  swap1\n  tag_2\n  swap2\n  swap1\n  tag_3\n  jump\t// in\ntag_2:\n    /* \"contracts/EnglishAuction.sol\":624:628  _nft */\n  dup3\n    /* \"contracts/EnglishAuction.sol\":610:629  nft = IERC721(_nft) */\n  0xffffffffffffffffffffffffffffffffffffffff\n  and\n  0x80\n  dup2\n  0xffffffffffffffffffffffffffffffffffffffff\n  and\n  0x60\n  shl\n  dup2\n  mstore\n  pop\n  pop\n    /* \"contracts/EnglishAuction.sol\":647:653  _nftId */\n  dup2\n    /* \"contracts/EnglishAuction.sol\":639:653  nftId = _nftId */\n  0xa0\n  dup2\n  dup2\n  mstore\n  pop\n  pop\n    /* \"contracts/EnglishAuction.sol\":680:690  msg.sender */\n  caller\n    /* \"contracts/EnglishAuction.sol\":663:691  seller = payable(msg.sender) */\n  0xffffffffffffffffffffffffffffffffffffffff\n  and\n  0xc0\n  dup2\n  0xffffffffffffffffffffffffffffffffffffffff\n  and\n  0x60\n  shl\n  dup2\n  mstore\n  pop\n  pop\n    /* \"contracts/EnglishAuction.sol\":714:726  _startingBid */\n  dup1\n    /* \"contracts/EnglishAuction.sol\":701:711  highestBid */\n  0x01\n    /* \"contracts/EnglishAuction.sol\":701:726  highestBid = _startingBid */\n  dup2\n  swap1\n  sstore\n  pop\n    /* \"contracts/EnglishAuction.sol\":512:733  constructor(... */\n  pop\n  pop\n  pop\n    /* \"contracts/EnglishAuction.sol\":183:986  contract EnglishAuction { ... */\n  jump(tag_6)\n    /* \"#utility.yul\":7:150   */\ntag_8:\n    /* \"#utility.yul\":64:69   */\n  0x00\n    /* \"#utility.yul\":95:101   */\n  dup2\n    /* \"#utility.yul\":89:102   */\n  mload\n    /* \"#utility.yul\":80:102   */\n  swap1\n  pop\n    /* \"#utility.yul\":111:144   */\n  tag_10\n    /* \"#utility.yul\":138:143   */\n  dup2\n    /* \"#utility.yul\":111:144   */\n  tag_11\n  jump\t// in\ntag_10:\n    /* \"#utility.yul\":7:150   */\n  swap3\n  swap2\n  pop\n  pop\n  jump\t// out\n    /* \"#utility.yul\":156:299   */\ntag_12:\n    /* \"#utility.yul\":213:218   */\n  0x00\n    /* \"#utility.yul\":244:250   */\n  dup2\n    /* \"#utility.yul\":238:251   */\n  mload\n    /* \"#utility.yul\":229:251   */\n  swap1\n  pop\n    /* \"#utility.yul\":260:293   */\n  tag_14\n    /* \"#utility.yul\":287:292   */\n  dup2\n    /* \"#utility.yul\":260:293   */\n  tag_15\n  jump\t// in\ntag_14:\n    /* \"#utility.yul\":156:299   */\n  swap3\n  swap2\n  pop\n  pop\n  jump\t// out\n    /* \"#utility.yul\":305:968   */\ntag_3:\n    /* \"#utility.yul\":393:399   */\n  0x00\n    /* \"#utility.yul\":401:407   */\n  dup1\n    /* \"#utility.yul\":409:415   */\n  0x00\n    /* \"#utility.yul\":458:460   */\n  0x60\n    /* \"#utility.yul\":446:455   */\n  dup5\n    /* \"#utility.yul\":437:444   */\n  dup7\n    /* \"#utility.yul\":433:456   */\n  sub\n    /* \"#utility.yul\":429:461   */\n  slt\n    /* \"#utility.yul\":426:545   */\n  iszero\n  tag_17\n  jumpi\n    /* \"#utility.yul\":464:543   */\n  tag_18\n  tag_19\n  jump\t// in\ntag_18:\n    /* \"#utility.yul\":426:545   */\ntag_17:\n    /* \"#utility.yul\":584:585   */\n  0x00\n    /* \"#utility.yul\":609:673   */\n  tag_20\n    /* \"#utility.yul\":665:672   */\n  dup7\n    /* \"#utility.yul\":656:662   */\n  dup3\n    /* \"#utility.yul\":645:654   */\n  dup8\n    /* \"#utility.yul\":641:663   */\n  add\n    /* \"#utility.yul\":609:673   */\n  tag_8\n  jump\t// in\ntag_20:\n    /* \"#utility.yul\":599:673   */\n  swap4\n  pop\n    /* \"#utility.yul\":555:683   */\n  pop\n    /* \"#utility.yul\":722:724   */\n  0x20\n    /* \"#utility.yul\":748:812   */\n  tag_21\n    /* \"#utility.yul\":804:811   */\n  dup7\n    /* \"#utility.yul\":795:801   */\n  dup3\n    /* \"#utility.yul\":784:793   */\n  dup8\n    /* \"#utility.yul\":780:802   */\n  add\n    /* \"#utility.yul\":748:812   */\n  tag_12\n  jump\t// in\ntag_21:\n    /* \"#utility.yul\":738:812   */\n  swap3\n  pop\n    /* \"#utility.yul\":693:822   */\n  pop\n    /* \"#utility.yul\":861:863   */\n  0x40\n    /* \"#utility.yul\":887:951   */\n  tag_22\n    /* \"#utility.yul\":943:950   */\n  dup7\n    /* \"#utility.yul\":934:940   */\n  dup3\n    /* \"#utility.yul\":923:932   */\n  dup8\n    /* \"#utility.yul\":919:941   */\n  add\n    /* \"#utility.yul\":887:951   */\n  tag_12\n  jump\t// in\ntag_22:\n    /* \"#utility.yul\":877:951   */\n  swap2\n  pop\n    /* \"#utility.yul\":832:961   */\n  pop\n    /* \"#utility.yul\":305:968   */\n  swap3\n  pop\n  swap3\n  pop\n  swap3\n  jump\t// out\n    /* \"#utility.yul\":1055:1151   */\ntag_25:\n    /* \"#utility.yul\":1092:1099   */\n  0x00\n    /* \"#utility.yul\":1121:1145   */\n  tag_27\n    /* \"#utility.yul\":1139:1144   */\n  dup3\n    /* \"#utility.yul\":1121:1145   */\n  tag_28\n  jump\t// in\ntag_27:\n    /* \"#utility.yul\":1110:1145   */\n  swap1\n  pop\n    /* \"#utility.yul\":1055:1151   */\n  swap2\n  swap1\n  pop\n  jump\t// out\n    /* \"#utility.yul\":1157:1283   */\ntag_28:\n    /* \"#utility.yul\":1194:1201   */\n  0x00\n    /* \"#utility.yul\":1234:1276   */\n  0xffffffffffffffffffffffffffffffffffffffff\n    /* \"#utility.yul\":1227:1232   */\n  dup3\n    /* \"#utility.yul\":1223:1277   */\n  and\n    /* \"#utility.yul\":1212:1277   */\n  swap1\n  pop\n    /* \"#utility.yul\":1157:1283   */\n  swap2\n  swap1\n  pop\n  jump\t// out\n    /* \"#utility.yul\":1289:1366   */\ntag_30:\n    /* \"#utility.yul\":1326:1333   */\n  0x00\n    /* \"#utility.yul\":1355:1360   */\n  dup2\n    /* \"#utility.yul\":1344:1360   */\n  swap1\n  pop\n    /* \"#utility.yul\":1289:1366   */\n  swap2\n  swap1\n  pop\n  jump\t// out\n    /* \"#utility.yul\":1495:1612   */\ntag_19:\n    /* \"#utility.yul\":1604:1605   */\n  0x00\n    /* \"#utility.yul\":1601:1602   */\n  dup1\n    /* \"#utility.yul\":1594:1606   */\n  revert\n    /* \"#utility.yul\":1618:1740   */\ntag_11:\n    /* \"#utility.yul\":1691:1715   */\n  tag_36\n    /* \"#utility.yul\":1709:1714   */\n  dup2\n    /* \"#utility.yul\":1691:1715   */\n  tag_25\n  jump\t// in\ntag_36:\n    /* \"#utility.yul\":1684:1689   */\n  dup2\n    /* \"#utility.yul\":1681:1716   */\n  eq\n    /* \"#utility.yul\":1671:1734   */\n  tag_37\n  jumpi\n    /* \"#utility.yul\":1730:1731   */\n  0x00\n    /* \"#utility.yul\":1727:1728   */\n  dup1\n    /* \"#utility.yul\":1720:1732   */\n  revert\n    /* \"#utility.yul\":1671:1734   */\ntag_37:\n    /* \"#utility.yul\":1618:1740   */\n  pop\n  jump\t// out\n    /* \"#utility.yul\":1746:1868   */\ntag_15:\n    /* \"#utility.yul\":1819:1843   */\n  tag_39\n    /* \"#utility.yul\":1837:1842   */\n  dup2\n    /* \"#utility.yul\":1819:1843   */\n  tag_30\n  jump\t// in\ntag_39:\n    /* \"#utility.yul\":1812:1817   */\n  dup2\n    /* \"#utility.yul\":1809:1844   */\n  eq\n    /* \"#utility.yul\":1799:1862   */\n  tag_40\n  jumpi\n    /* \"#utility.yul\":1858:1859   */\n  0x00\n    /* \"#utility.yul\":1855:1856   */\n  dup1\n    /* \"#utility.yul\":1848:1860   */\n  revert\n    /* \"#utility.yul\":1799:1862   */\ntag_40:\n    /* \"#utility.yul\":1746:1868   */\n  pop\n  jump\t// out\n    /* \"contracts/EnglishAuction.sol\":183:986  contract EnglishAuction { ... */\ntag_6:\n  shr(0x60, mload(0x80))\n  mload(0xa0)\n  shr(0x60, mload(0xc0))\n  codecopy(0x00, dataOffset(sub_0), dataSize(sub_0))\n  0x00\n  assignImmutable(\"0x8fef2229291b68be841adf029e58b87f39ba144b2d3b0af1760243d0a9bc6a1c\")\n  0x00\n  assignImmutable(\"0x277ab82e5a4641341820a4a2933a62c1de997e42e92548657ae21b3728d580fe\")\n  0x00\n  assignImmutable(\"0x5c4c6aa067b6f8e6cb38e6ab843832a94d1712d661a04d73c517d6a1931a9e5d\")\n  return(0x00, dataSize(sub_0))\nstop\n\nsub_0: assembly {\n        /* \"contracts/EnglishAuction.sol\":183:986  contract EnglishAuction { ... */\n      mstore(0x40, 0x80)\n      callvalue\n      dup1\n      iszero\n      tag_1\n      jumpi\n      0x00\n      dup1\n      revert\n    tag_1:\n      pop\n      jumpi(tag_2, lt(calldatasize, 0x04))\n      shr(0xe0, calldataload(0x00))\n      dup1\n      0x7cc3ae8c\n      gt\n      tag_13\n      jumpi\n      dup1\n      0x7cc3ae8c\n      eq\n      tag_8\n      jumpi\n      dup1\n      0x91f90157\n      eq\n      tag_9\n      jumpi\n      dup1\n      0xbe9a6555\n      eq\n      tag_10\n      jumpi\n      dup1\n      0xc6bc5182\n      eq\n      tag_11\n      jumpi\n      dup1\n      0xd57bde79\n      eq\n      tag_12\n      jumpi\n      jump(tag_2)\n    tag_13:\n      dup1\n      0x08551a53\n      eq\n      tag_3\n      jumpi\n      dup1\n      0x12fa6feb\n      eq\n      tag_4\n      jumpi\n      dup1\n      0x1f2698ab\n      eq\n      tag_5\n      jumpi\n      dup1\n      0x47ccca02\n      eq\n      tag_6\n      jumpi\n      dup1\n      0x62ea82db\n      eq\n      tag_7\n      jumpi\n    tag_2:\n      0x00\n      dup1\n      revert\n        /* \"contracts/EnglishAuction.sol\":283:322  address payable public immutable seller */\n    tag_3:\n      tag_14\n      tag_15\n      jump\t// in\n    tag_14:\n      mload(0x40)\n      tag_16\n      swap2\n      swap1\n      tag_17\n      jump\t// in\n    tag_16:\n      mload(0x40)\n      dup1\n      swap2\n      sub\n      swap1\n      return\n        /* \"contracts/EnglishAuction.sol\":378:395  bool public ended */\n    tag_4:\n      tag_18\n      tag_19\n      jump\t// in\n    tag_18:\n      mload(0x40)\n      tag_20\n      swap2\n      swap1\n      tag_21\n      jump\t// in\n    tag_20:\n      mload(0x40)\n      dup1\n      swap2\n      sub\n      swap1\n      return\n        /* \"contracts/EnglishAuction.sol\":353:372  bool public started */\n    tag_5:\n      tag_22\n      tag_23\n      jump\t// in\n    tag_22:\n      mload(0x40)\n      tag_24\n      swap2\n      swap1\n      tag_21\n      jump\t// in\n    tag_24:\n      mload(0x40)\n      dup1\n      swap2\n      sub\n      swap1\n      return\n        /* \"contracts/EnglishAuction.sol\":215:243  IERC721 public immutable nft */\n    tag_6:\n      tag_25\n      tag_26\n      jump\t// in\n    tag_25:\n      mload(0x40)\n      tag_27\n      swap2\n      swap1\n      tag_28\n      jump\t// in\n    tag_27:\n      mload(0x40)\n      dup1\n      swap2\n      sub\n      swap1\n      return\n        /* \"contracts/EnglishAuction.sol\":465:501  mapping(address => uint) public bids */\n    tag_7:\n      tag_29\n      0x04\n      dup1\n      calldatasize\n      sub\n      dup2\n      add\n      swap1\n      tag_30\n      swap2\n      swap1\n      tag_31\n      jump\t// in\n    tag_30:\n      tag_32\n      jump\t// in\n    tag_29:\n      mload(0x40)\n      tag_33\n      swap2\n      swap1\n      tag_34\n      jump\t// in\n    tag_33:\n      mload(0x40)\n      dup1\n      swap2\n      sub\n      swap1\n      return\n        /* \"contracts/EnglishAuction.sol\":328:347  uint32 public endAt */\n    tag_8:\n      tag_35\n      tag_36\n      jump\t// in\n    tag_35:\n      mload(0x40)\n      tag_37\n      swap2\n      swap1\n      tag_38\n      jump\t// in\n    tag_37:\n      mload(0x40)\n      dup1\n      swap2\n      sub\n      swap1\n      return\n        /* \"contracts/EnglishAuction.sol\":402:430  address public highestBidder */\n    tag_9:\n      tag_39\n      tag_40\n      jump\t// in\n    tag_39:\n      mload(0x40)\n      tag_41\n      swap2\n      swap1\n      tag_42\n      jump\t// in\n    tag_41:\n      mload(0x40)\n      dup1\n      swap2\n      sub\n      swap1\n      return\n        /* \"contracts/EnglishAuction.sol\":739:983  function start() external {... */\n    tag_10:\n      tag_43\n      tag_44\n      jump\t// in\n    tag_43:\n      stop\n        /* \"contracts/EnglishAuction.sol\":249:276  uint public immutable nftId */\n    tag_11:\n      tag_45\n      tag_46\n      jump\t// in\n    tag_45:\n      mload(0x40)\n      tag_47\n      swap2\n      swap1\n      tag_34\n      jump\t// in\n    tag_47:\n      mload(0x40)\n      dup1\n      swap2\n      sub\n      swap1\n      return\n        /* \"contracts/EnglishAuction.sol\":436:458  uint public highestBid */\n    tag_12:\n      tag_48\n      tag_49\n      jump\t// in\n    tag_48:\n      mload(0x40)\n      tag_50\n      swap2\n      swap1\n      tag_34\n      jump\t// in\n    tag_50:\n      mload(0x40)\n      dup1\n      swap2\n      sub\n      swap1\n      return\n        /* \"contracts/EnglishAuction.sol\":283:322  address payable public immutable seller */\n    tag_15:\n      immutable(\"0x8fef2229291b68be841adf029e58b87f39ba144b2d3b0af1760243d0a9bc6a1c\")\n      dup2\n      jump\t// out\n        /* \"contracts/EnglishAuction.sol\":378:395  bool public ended */\n    tag_19:\n      0x00\n      0x05\n      swap1\n      sload\n      swap1\n      0x0100\n      exp\n      swap1\n      div\n      0xff\n      and\n      dup2\n      jump\t// out\n        /* \"contracts/EnglishAuction.sol\":353:372  bool public started */\n    tag_23:\n      0x00\n      0x04\n      swap1\n      sload\n      swap1\n      0x0100\n      exp\n      swap1\n      div\n      0xff\n      and\n      dup2\n      jump\t// out\n        /* \"contracts/EnglishAuction.sol\":215:243  IERC721 public immutable nft */\n    tag_26:\n      immutable(\"0x5c4c6aa067b6f8e6cb38e6ab843832a94d1712d661a04d73c517d6a1931a9e5d\")\n      dup2\n      jump\t// out\n        /* \"contracts/EnglishAuction.sol\":465:501  mapping(address => uint) public bids */\n    tag_32:\n      mstore(0x20, 0x02)\n      dup1\n      0x00\n      mstore\n      keccak256(0x00, 0x40)\n      0x00\n      swap2\n      pop\n      swap1\n      pop\n      sload\n      dup2\n      jump\t// out\n        /* \"contracts/EnglishAuction.sol\":328:347  uint32 public endAt */\n    tag_36:\n      0x00\n      dup1\n      sload\n      swap1\n      0x0100\n      exp\n      swap1\n      div\n      0xffffffff\n      and\n      dup2\n      jump\t// out\n        /* \"contracts/EnglishAuction.sol\":402:430  address public highestBidder */\n    tag_40:\n      0x00\n      0x06\n      swap1\n      sload\n      swap1\n      0x0100\n      exp\n      swap1\n      div\n      0xffffffffffffffffffffffffffffffffffffffff\n      and\n      dup2\n      jump\t// out\n        /* \"contracts/EnglishAuction.sol\":739:983  function start() external {... */\n    tag_44:\n        /* \"contracts/EnglishAuction.sol\":797:803  seller */\n      immutable(\"0x8fef2229291b68be841adf029e58b87f39ba144b2d3b0af1760243d0a9bc6a1c\")\n        /* \"contracts/EnglishAuction.sol\":783:803  msg.sender == seller */\n      0xffffffffffffffffffffffffffffffffffffffff\n      and\n        /* \"contracts/EnglishAuction.sol\":783:793  msg.sender */\n      caller\n        /* \"contracts/EnglishAuction.sol\":783:803  msg.sender == seller */\n      0xffffffffffffffffffffffffffffffffffffffff\n      and\n      eq\n        /* \"contracts/EnglishAuction.sol\":775:811  require(msg.sender == seller, \"not\") */\n      tag_52\n      jumpi\n      mload(0x40)\n      0x08c379a000000000000000000000000000000000000000000000000000000000\n      dup2\n      mstore\n      0x04\n      add\n      tag_53\n      swap1\n      tag_54\n      jump\t// in\n    tag_53:\n      mload(0x40)\n      dup1\n      swap2\n      sub\n      swap1\n      revert\n    tag_52:\n        /* \"contracts/EnglishAuction.sol\":830:837  started */\n      0x00\n      0x04\n      swap1\n      sload\n      swap1\n      0x0100\n      exp\n      swap1\n      div\n      0xff\n      and\n        /* \"contracts/EnglishAuction.sol\":829:837  !started */\n      iszero\n        /* \"contracts/EnglishAuction.sol\":821:849  require(!started, \"started\") */\n      tag_55\n      jumpi\n      mload(0x40)\n      0x08c379a000000000000000000000000000000000000000000000000000000000\n      dup2\n      mstore\n      0x04\n      add\n      tag_56\n      swap1\n      tag_57\n      jump\t// in\n    tag_56:\n      mload(0x40)\n      dup1\n      swap2\n      sub\n      swap1\n      revert\n    tag_55:\n        /* \"contracts/EnglishAuction.sol\":870:874  true */\n      0x01\n        /* \"contracts/EnglishAuction.sol\":860:867  started */\n      0x00\n      0x04\n        /* \"contracts/EnglishAuction.sol\":860:874  started = true */\n      0x0100\n      exp\n      dup2\n      sload\n      dup2\n      0xff\n      mul\n      not\n      and\n      swap1\n      dup4\n      iszero\n      iszero\n      mul\n      or\n      swap1\n      sstore\n      pop\n        /* \"contracts/EnglishAuction.sol\":917:919  60 */\n      0x3c\n        /* \"contracts/EnglishAuction.sol\":899:914  block.timestamp */\n      timestamp\n        /* \"contracts/EnglishAuction.sol\":899:919  block.timestamp + 60 */\n      tag_58\n      swap2\n      swap1\n      tag_59\n      jump\t// in\n    tag_58:\n        /* \"contracts/EnglishAuction.sol\":884:889  endAt */\n      0x00\n      dup1\n        /* \"contracts/EnglishAuction.sol\":884:920  endAt = uint32(block.timestamp + 60) */\n      0x0100\n      exp\n      dup2\n      sload\n      dup2\n      0xffffffff\n      mul\n      not\n      and\n      swap1\n      dup4\n      0xffffffff\n      and\n      mul\n      or\n      swap1\n      sstore\n      pop\n        /* \"contracts/EnglishAuction.sol\":930:933  nft */\n      immutable(\"0x5c4c6aa067b6f8e6cb38e6ab843832a94d1712d661a04d73c517d6a1931a9e5d\")\n        /* \"contracts/EnglishAuction.sol\":930:946  nft.transferFrom */\n      0xffffffffffffffffffffffffffffffffffffffff\n      and\n      0x23b872dd\n        /* \"contracts/EnglishAuction.sol\":947:953  seller */\n      immutable(\"0x8fef2229291b68be841adf029e58b87f39ba144b2d3b0af1760243d0a9bc6a1c\")\n        /* \"contracts/EnglishAuction.sol\":963:967  this */\n      address\n        /* \"contracts/EnglishAuction.sol\":970:975  nftId */\n      immutable(\"0x277ab82e5a4641341820a4a2933a62c1de997e42e92548657ae21b3728d580fe\")\n        /* \"contracts/EnglishAuction.sol\":930:976  nft.transferFrom(seller, address(this), nftId) */\n      mload(0x40)\n      dup5\n      0xffffffff\n      and\n      0xe0\n      shl\n      dup2\n      mstore\n      0x04\n      add\n      tag_60\n      swap4\n      swap3\n      swap2\n      swap1\n      tag_61\n      jump\t// in\n    tag_60:\n      0x00\n      mload(0x40)\n      dup1\n      dup4\n      sub\n      dup2\n      0x00\n      dup8\n      dup1\n      extcodesize\n      iszero\n      dup1\n      iszero\n      tag_62\n      jumpi\n      0x00\n      dup1\n      revert\n    tag_62:\n      pop\n      gas\n      call\n      iszero\n      dup1\n      iszero\n      tag_64\n      jumpi\n      returndatasize\n      0x00\n      dup1\n      returndatacopy\n      revert(0x00, returndatasize)\n    tag_64:\n      pop\n      pop\n      pop\n      pop\n        /* \"contracts/EnglishAuction.sol\":739:983  function start() external {... */\n      jump\t// out\n        /* \"contracts/EnglishAuction.sol\":249:276  uint public immutable nftId */\n    tag_46:\n      immutable(\"0x277ab82e5a4641341820a4a2933a62c1de997e42e92548657ae21b3728d580fe\")\n      dup2\n      jump\t// out\n        /* \"contracts/EnglishAuction.sol\":436:458  uint public highestBid */\n    tag_49:\n      sload(0x01)\n      dup2\n      jump\t// out\n        /* \"#utility.yul\":7:146   */\n    tag_66:\n        /* \"#utility.yul\":53:58   */\n      0x00\n        /* \"#utility.yul\":91:97   */\n      dup2\n        /* \"#utility.yul\":78:98   */\n      calldataload\n        /* \"#utility.yul\":69:98   */\n      swap1\n      pop\n        /* \"#utility.yul\":107:140   */\n      tag_68\n        /* \"#utility.yul\":134:139   */\n      dup2\n        /* \"#utility.yul\":107:140   */\n      tag_69\n      jump\t// in\n    tag_68:\n        /* \"#utility.yul\":7:146   */\n      swap3\n      swap2\n      pop\n      pop\n      jump\t// out\n        /* \"#utility.yul\":152:481   */\n    tag_31:\n        /* \"#utility.yul\":211:217   */\n      0x00\n        /* \"#utility.yul\":260:262   */\n      0x20\n        /* \"#utility.yul\":248:257   */\n      dup3\n        /* \"#utility.yul\":239:246   */\n      dup5\n        /* \"#utility.yul\":235:258   */\n      sub\n        /* \"#utility.yul\":231:263   */\n      slt\n        /* \"#utility.yul\":228:347   */\n      iszero\n      tag_71\n      jumpi\n        /* \"#utility.yul\":266:345   */\n      tag_72\n      tag_73\n      jump\t// in\n    tag_72:\n        /* \"#utility.yul\":228:347   */\n    tag_71:\n        /* \"#utility.yul\":386:387   */\n      0x00\n        /* \"#utility.yul\":411:464   */\n      tag_74\n        /* \"#utility.yul\":456:463   */\n      dup5\n        /* \"#utility.yul\":447:453   */\n      dup3\n        /* \"#utility.yul\":436:445   */\n      dup6\n        /* \"#utility.yul\":432:454   */\n      add\n        /* \"#utility.yul\":411:464   */\n      tag_66\n      jump\t// in\n    tag_74:\n        /* \"#utility.yul\":401:464   */\n      swap2\n      pop\n        /* \"#utility.yul\":357:474   */\n      pop\n        /* \"#utility.yul\":152:481   */\n      swap3\n      swap2\n      pop\n      pop\n      jump\t// out\n        /* \"#utility.yul\":487:634   */\n    tag_75:\n        /* \"#utility.yul\":582:627   */\n      tag_77\n        /* \"#utility.yul\":621:626   */\n      dup2\n        /* \"#utility.yul\":582:627   */\n      tag_78\n      jump\t// in\n    tag_77:\n        /* \"#utility.yul\":577:580   */\n      dup3\n        /* \"#utility.yul\":570:628   */\n      mstore\n        /* \"#utility.yul\":487:634   */\n      pop\n      pop\n      jump\t// out\n        /* \"#utility.yul\":640:782   */\n    tag_79:\n        /* \"#utility.yul\":743:775   */\n      tag_81\n        /* \"#utility.yul\":769:774   */\n      dup2\n        /* \"#utility.yul\":743:775   */\n      tag_82\n      jump\t// in\n    tag_81:\n        /* \"#utility.yul\":738:741   */\n      dup3\n        /* \"#utility.yul\":731:776   */\n      mstore\n        /* \"#utility.yul\":640:782   */\n      pop\n      pop\n      jump\t// out\n        /* \"#utility.yul\":788:906   */\n    tag_83:\n        /* \"#utility.yul\":875:899   */\n      tag_85\n        /* \"#utility.yul\":893:898   */\n      dup2\n        /* \"#utility.yul\":875:899   */\n      tag_86\n      jump\t// in\n    tag_85:\n        /* \"#utility.yul\":870:873   */\n      dup3\n        /* \"#utility.yul\":863:900   */\n      mstore\n        /* \"#utility.yul\":788:906   */\n      pop\n      pop\n      jump\t// out\n        /* \"#utility.yul\":912:1021   */\n    tag_87:\n        /* \"#utility.yul\":993:1014   */\n      tag_89\n        /* \"#utility.yul\":1008:1013   */\n      dup2\n        /* \"#utility.yul\":993:1014   */\n      tag_90\n      jump\t// in\n    tag_89:\n        /* \"#utility.yul\":988:991   */\n      dup3\n        /* \"#utility.yul\":981:1015   */\n      mstore\n        /* \"#utility.yul\":912:1021   */\n      pop\n      pop\n      jump\t// out\n        /* \"#utility.yul\":1027:1186   */\n    tag_91:\n        /* \"#utility.yul\":1128:1179   */\n      tag_93\n        /* \"#utility.yul\":1173:1178   */\n      dup2\n        /* \"#utility.yul\":1128:1179   */\n      tag_94\n      jump\t// in\n    tag_93:\n        /* \"#utility.yul\":1123:1126   */\n      dup3\n        /* \"#utility.yul\":1116:1180   */\n      mstore\n        /* \"#utility.yul\":1027:1186   */\n      pop\n      pop\n      jump\t// out\n        /* \"#utility.yul\":1192:1557   */\n    tag_95:\n        /* \"#utility.yul\":1334:1337   */\n      0x00\n        /* \"#utility.yul\":1355:1421   */\n      tag_97\n        /* \"#utility.yul\":1419:1420   */\n      0x03\n        /* \"#utility.yul\":1414:1417   */\n      dup4\n        /* \"#utility.yul\":1355:1421   */\n      tag_98\n      jump\t// in\n    tag_97:\n        /* \"#utility.yul\":1348:1421   */\n      swap2\n      pop\n        /* \"#utility.yul\":1430:1523   */\n      tag_99\n        /* \"#utility.yul\":1519:1522   */\n      dup3\n        /* \"#utility.yul\":1430:1523   */\n      tag_100\n      jump\t// in\n    tag_99:\n        /* \"#utility.yul\":1548:1550   */\n      0x20\n        /* \"#utility.yul\":1543:1546   */\n      dup3\n        /* \"#utility.yul\":1539:1551   */\n      add\n        /* \"#utility.yul\":1532:1551   */\n      swap1\n      pop\n        /* \"#utility.yul\":1192:1557   */\n      swap2\n      swap1\n      pop\n      jump\t// out\n        /* \"#utility.yul\":1563:1928   */\n    tag_101:\n        /* \"#utility.yul\":1705:1708   */\n      0x00\n        /* \"#utility.yul\":1726:1792   */\n      tag_103\n        /* \"#utility.yul\":1790:1791   */\n      0x07\n        /* \"#utility.yul\":1785:1788   */\n      dup4\n        /* \"#utility.yul\":1726:1792   */\n      tag_98\n      jump\t// in\n    tag_103:\n        /* \"#utility.yul\":1719:1792   */\n      swap2\n      pop\n        /* \"#utility.yul\":1801:1894   */\n      tag_104\n        /* \"#utility.yul\":1890:1893   */\n      dup3\n        /* \"#utility.yul\":1801:1894   */\n      tag_105\n      jump\t// in\n    tag_104:\n        /* \"#utility.yul\":1919:1921   */\n      0x20\n        /* \"#utility.yul\":1914:1917   */\n      dup3\n        /* \"#utility.yul\":1910:1922   */\n      add\n        /* \"#utility.yul\":1903:1922   */\n      swap1\n      pop\n        /* \"#utility.yul\":1563:1928   */\n      swap2\n      swap1\n      pop\n      jump\t// out\n        /* \"#utility.yul\":1934:2052   */\n    tag_106:\n        /* \"#utility.yul\":2021:2045   */\n      tag_108\n        /* \"#utility.yul\":2039:2044   */\n      dup2\n        /* \"#utility.yul\":2021:2045   */\n      tag_109\n      jump\t// in\n    tag_108:\n        /* \"#utility.yul\":2016:2019   */\n      dup3\n        /* \"#utility.yul\":2009:2046   */\n      mstore\n        /* \"#utility.yul\":1934:2052   */\n      pop\n      pop\n      jump\t// out\n        /* \"#utility.yul\":2058:2173   */\n    tag_110:\n        /* \"#utility.yul\":2143:2166   */\n      tag_112\n        /* \"#utility.yul\":2160:2165   */\n      dup2\n        /* \"#utility.yul\":2143:2166   */\n      tag_113\n      jump\t// in\n    tag_112:\n        /* \"#utility.yul\":2138:2141   */\n      dup3\n        /* \"#utility.yul\":2131:2167   */\n      mstore\n        /* \"#utility.yul\":2058:2173   */\n      pop\n      pop\n      jump\t// out\n        /* \"#utility.yul\":2179:2401   */\n    tag_42:\n        /* \"#utility.yul\":2272:2276   */\n      0x00\n        /* \"#utility.yul\":2310:2312   */\n      0x20\n        /* \"#utility.yul\":2299:2308   */\n      dup3\n        /* \"#utility.yul\":2295:2313   */\n      add\n        /* \"#utility.yul\":2287:2313   */\n      swap1\n      pop\n        /* \"#utility.yul\":2323:2394   */\n      tag_115\n        /* \"#utility.yul\":2391:2392   */\n      0x00\n        /* \"#utility.yul\":2380:2389   */\n      dup4\n        /* \"#utility.yul\":2376:2393   */\n      add\n        /* \"#utility.yul\":2367:2373   */\n      dup5\n        /* \"#utility.yul\":2323:2394   */\n      tag_83\n      jump\t// in\n    tag_115:\n        /* \"#utility.yul\":2179:2401   */\n      swap3\n      swap2\n      pop\n      pop\n      jump\t// out\n        /* \"#utility.yul\":2407:2661   */\n    tag_17:\n        /* \"#utility.yul\":2516:2520   */\n      0x00\n        /* \"#utility.yul\":2554:2556   */\n      0x20\n        /* \"#utility.yul\":2543:2552   */\n      dup3\n        /* \"#utility.yul\":2539:2557   */\n      add\n        /* \"#utility.yul\":2531:2557   */\n      swap1\n      pop\n        /* \"#utility.yul\":2567:2654   */\n      tag_117\n        /* \"#utility.yul\":2651:2652   */\n      0x00\n        /* \"#utility.yul\":2640:2649   */\n      dup4\n        /* \"#utility.yul\":2636:2653   */\n      add\n        /* \"#utility.yul\":2627:2633   */\n      dup5\n        /* \"#utility.yul\":2567:2654   */\n      tag_79\n      jump\t// in\n    tag_117:\n        /* \"#utility.yul\":2407:2661   */\n      swap3\n      swap2\n      pop\n      pop\n      jump\t// out\n        /* \"#utility.yul\":2667:3125   */\n    tag_61:\n        /* \"#utility.yul\":2824:2828   */\n      0x00\n        /* \"#utility.yul\":2862:2864   */\n      0x60\n        /* \"#utility.yul\":2851:2860   */\n      dup3\n        /* \"#utility.yul\":2847:2865   */\n      add\n        /* \"#utility.yul\":2839:2865   */\n      swap1\n      pop\n        /* \"#utility.yul\":2875:2954   */\n      tag_119\n        /* \"#utility.yul\":2951:2952   */\n      0x00\n        /* \"#utility.yul\":2940:2949   */\n      dup4\n        /* \"#utility.yul\":2936:2953   */\n      add\n        /* \"#utility.yul\":2927:2933   */\n      dup7\n        /* \"#utility.yul\":2875:2954   */\n      tag_75\n      jump\t// in\n    tag_119:\n        /* \"#utility.yul\":2964:3036   */\n      tag_120\n        /* \"#utility.yul\":3032:3034   */\n      0x20\n        /* \"#utility.yul\":3021:3030   */\n      dup4\n        /* \"#utility.yul\":3017:3035   */\n      add\n        /* \"#utility.yul\":3008:3014   */\n      dup6\n        /* \"#utility.yul\":2964:3036   */\n      tag_83\n      jump\t// in\n    tag_120:\n        /* \"#utility.yul\":3046:3118   */\n      tag_121\n        /* \"#utility.yul\":3114:3116   */\n      0x40\n        /* \"#utility.yul\":3103:3112   */\n      dup4\n        /* \"#utility.yul\":3099:3117   */\n      add\n        /* \"#utility.yul\":3090:3096   */\n      dup5\n        /* \"#utility.yul\":3046:3118   */\n      tag_106\n      jump\t// in\n    tag_121:\n        /* \"#utility.yul\":2667:3125   */\n      swap5\n      swap4\n      pop\n      pop\n      pop\n      pop\n      jump\t// out\n        /* \"#utility.yul\":3131:3341   */\n    tag_21:\n        /* \"#utility.yul\":3218:3222   */\n      0x00\n        /* \"#utility.yul\":3256:3258   */\n      0x20\n        /* \"#utility.yul\":3245:3254   */\n      dup3\n        /* \"#utility.yul\":3241:3259   */\n      add\n        /* \"#utility.yul\":3233:3259   */\n      swap1\n      pop\n        /* \"#utility.yul\":3269:3334   */\n      tag_123\n        /* \"#utility.yul\":3331:3332   */\n      0x00\n        /* \"#utility.yul\":3320:3329   */\n      dup4\n        /* \"#utility.yul\":3316:3333   */\n      add\n        /* \"#utility.yul\":3307:3313   */\n      dup5\n        /* \"#utility.yul\":3269:3334   */\n      tag_87\n      jump\t// in\n    tag_123:\n        /* \"#utility.yul\":3131:3341   */\n      swap3\n      swap2\n      pop\n      pop\n      jump\t// out\n        /* \"#utility.yul\":3347:3597   */\n    tag_28:\n        /* \"#utility.yul\":3454:3458   */\n      0x00\n        /* \"#utility.yul\":3492:3494   */\n      0x20\n        /* \"#utility.yul\":3481:3490   */\n      dup3\n        /* \"#utility.yul\":3477:3495   */\n      add\n        /* \"#utility.yul\":3469:3495   */\n      swap1\n      pop\n        /* \"#utility.yul\":3505:3590   */\n      tag_125\n        /* \"#utility.yul\":3587:3588   */\n      0x00\n        /* \"#utility.yul\":3576:3585   */\n      dup4\n        /* \"#utility.yul\":3572:3589   */\n      add\n        /* \"#utility.yul\":3563:3569   */\n      dup5\n        /* \"#utility.yul\":3505:3590   */\n      tag_91\n      jump\t// in\n    tag_125:\n        /* \"#utility.yul\":3347:3597   */\n      swap3\n      swap2\n      pop\n      pop\n      jump\t// out\n        /* \"#utility.yul\":3603:4022   */\n    tag_54:\n        /* \"#utility.yul\":3769:3773   */\n      0x00\n        /* \"#utility.yul\":3807:3809   */\n      0x20\n        /* \"#utility.yul\":3796:3805   */\n      dup3\n        /* \"#utility.yul\":3792:3810   */\n      add\n        /* \"#utility.yul\":3784:3810   */\n      swap1\n      pop\n        /* \"#utility.yul\":3856:3865   */\n      dup2\n        /* \"#utility.yul\":3850:3854   */\n      dup2\n        /* \"#utility.yul\":3846:3866   */\n      sub\n        /* \"#utility.yul\":3842:3843   */\n      0x00\n        /* \"#utility.yul\":3831:3840   */\n      dup4\n        /* \"#utility.yul\":3827:3844   */\n      add\n        /* \"#utility.yul\":3820:3867   */\n      mstore\n        /* \"#utility.yul\":3884:4015   */\n      tag_127\n        /* \"#utility.yul\":4010:4014   */\n      dup2\n        /* \"#utility.yul\":3884:4015   */\n      tag_95\n      jump\t// in\n    tag_127:\n        /* \"#utility.yul\":3876:4015   */\n      swap1\n      pop\n        /* \"#utility.yul\":3603:4022   */\n      swap2\n      swap1\n      pop\n      jump\t// out\n        /* \"#utility.yul\":4028:4447   */\n    tag_57:\n        /* \"#utility.yul\":4194:4198   */\n      0x00\n        /* \"#utility.yul\":4232:4234   */\n      0x20\n        /* \"#utility.yul\":4221:4230   */\n      dup3\n        /* \"#utility.yul\":4217:4235   */\n      add\n        /* \"#utility.yul\":4209:4235   */\n      swap1\n      pop\n        /* \"#utility.yul\":4281:4290   */\n      dup2\n        /* \"#utility.yul\":4275:4279   */\n      dup2\n        /* \"#utility.yul\":4271:4291   */\n      sub\n        /* \"#utility.yul\":4267:4268   */\n      0x00\n        /* \"#utility.yul\":4256:4265   */\n      dup4\n        /* \"#utility.yul\":4252:4269   */\n      add\n        /* \"#utility.yul\":4245:4292   */\n      mstore\n        /* \"#utility.yul\":4309:4440   */\n      tag_129\n        /* \"#utility.yul\":4435:4439   */\n      dup2\n        /* \"#utility.yul\":4309:4440   */\n      tag_101\n      jump\t// in\n    tag_129:\n        /* \"#utility.yul\":4301:4440   */\n      swap1\n      pop\n        /* \"#utility.yul\":4028:4447   */\n      swap2\n      swap1\n      pop\n      jump\t// out\n        /* \"#utility.yul\":4453:4675   */\n    tag_34:\n        /* \"#utility.yul\":4546:4550   */\n      0x00\n        /* \"#utility.yul\":4584:4586   */\n      0x20\n        /* \"#utility.yul\":4573:4582   */\n      dup3\n        /* \"#utility.yul\":4569:4587   */\n      add\n        /* \"#utility.yul\":4561:4587   */\n      swap1\n      pop\n        /* \"#utility.yul\":4597:4668   */\n      tag_131\n        /* \"#utility.yul\":4665:4666   */\n      0x00\n        /* \"#utility.yul\":4654:4663   */\n      dup4\n        /* \"#utility.yul\":4650:4667   */\n      add\n        /* \"#utility.yul\":4641:4647   */\n      dup5\n        /* \"#utility.yul\":4597:4668   */\n      tag_106\n      jump\t// in\n    tag_131:\n        /* \"#utility.yul\":4453:4675   */\n      swap3\n      swap2\n      pop\n      pop\n      jump\t// out\n        /* \"#utility.yul\":4681:4899   */\n    tag_38:\n        /* \"#utility.yul\":4772:4776   */\n      0x00\n        /* \"#utility.yul\":4810:4812   */\n      0x20\n        /* \"#utility.yul\":4799:4808   */\n      dup3\n        /* \"#utility.yul\":4795:4813   */\n      add\n        /* \"#utility.yul\":4787:4813   */\n      swap1\n      pop\n        /* \"#utility.yul\":4823:4892   */\n      tag_133\n        /* \"#utility.yul\":4889:4890   */\n      0x00\n        /* \"#utility.yul\":4878:4887   */\n      dup4\n        /* \"#utility.yul\":4874:4891   */\n      add\n        /* \"#utility.yul\":4865:4871   */\n      dup5\n        /* \"#utility.yul\":4823:4892   */\n      tag_110\n      jump\t// in\n    tag_133:\n        /* \"#utility.yul\":4681:4899   */\n      swap3\n      swap2\n      pop\n      pop\n      jump\t// out\n        /* \"#utility.yul\":4986:5155   */\n    tag_98:\n        /* \"#utility.yul\":5070:5081   */\n      0x00\n        /* \"#utility.yul\":5104:5110   */\n      dup3\n        /* \"#utility.yul\":5099:5102   */\n      dup3\n        /* \"#utility.yul\":5092:5111   */\n      mstore\n        /* \"#utility.yul\":5144:5148   */\n      0x20\n        /* \"#utility.yul\":5139:5142   */\n      dup3\n        /* \"#utility.yul\":5135:5149   */\n      add\n        /* \"#utility.yul\":5120:5149   */\n      swap1\n      pop\n        /* \"#utility.yul\":4986:5155   */\n      swap3\n      swap2\n      pop\n      pop\n      jump\t// out\n        /* \"#utility.yul\":5161:5466   */\n    tag_59:\n        /* \"#utility.yul\":5201:5204   */\n      0x00\n        /* \"#utility.yul\":5220:5240   */\n      tag_138\n        /* \"#utility.yul\":5238:5239   */\n      dup3\n        /* \"#utility.yul\":5220:5240   */\n      tag_109\n      jump\t// in\n    tag_138:\n        /* \"#utility.yul\":5215:5240   */\n      swap2\n      pop\n        /* \"#utility.yul\":5254:5274   */\n      tag_139\n        /* \"#utility.yul\":5272:5273   */\n      dup4\n        /* \"#utility.yul\":5254:5274   */\n      tag_109\n      jump\t// in\n    tag_139:\n        /* \"#utility.yul\":5249:5274   */\n      swap3\n      pop\n        /* \"#utility.yul\":5408:5409   */\n      dup3\n        /* \"#utility.yul\":5340:5406   */\n      0xffffffffffffffffffffffffffffffffffffffffffffffffffffffffffffffff\n        /* \"#utility.yul\":5336:5410   */\n      sub\n        /* \"#utility.yul\":5333:5334   */\n      dup3\n        /* \"#utility.yul\":5330:5411   */\n      gt\n        /* \"#utility.yul\":5327:5434   */\n      iszero\n      tag_140\n      jumpi\n        /* \"#utility.yul\":5414:5432   */\n      tag_141\n      tag_142\n      jump\t// in\n    tag_141:\n        /* \"#utility.yul\":5327:5434   */\n    tag_140:\n        /* \"#utility.yul\":5458:5459   */\n      dup3\n        /* \"#utility.yul\":5455:5456   */\n      dup3\n        /* \"#utility.yul\":5451:5460   */\n      add\n        /* \"#utility.yul\":5444:5460   */\n      swap1\n      pop\n        /* \"#utility.yul\":5161:5466   */\n      swap3\n      swap2\n      pop\n      pop\n      jump\t// out\n        /* \"#utility.yul\":5472:5568   */\n    tag_86:\n        /* \"#utility.yul\":5509:5516   */\n      0x00\n        /* \"#utility.yul\":5538:5562   */\n      tag_144\n        /* \"#utility.yul\":5556:5561   */\n      dup3\n        /* \"#utility.yul\":5538:5562   */\n      tag_145\n      jump\t// in\n    tag_144:\n        /* \"#utility.yul\":5527:5562   */\n      swap1\n      pop\n        /* \"#utility.yul\":5472:5568   */\n      swap2\n      swap1\n      pop\n      jump\t// out\n        /* \"#utility.yul\":5574:5678   */\n    tag_82:\n        /* \"#utility.yul\":5619:5626   */\n      0x00\n        /* \"#utility.yul\":5648:5672   */\n      tag_147\n        /* \"#utility.yul\":5666:5671   */\n      dup3\n        /* \"#utility.yul\":5648:5672   */\n      tag_145\n      jump\t// in\n    tag_147:\n        /* \"#utility.yul\":5637:5672   */\n      swap1\n      pop\n        /* \"#utility.yul\":5574:5678   */\n      swap2\n      swap1\n      pop\n      jump\t// out\n        /* \"#utility.yul\":5684:5774   */\n    tag_90:\n        /* \"#utility.yul\":5718:5725   */\n      0x00\n        /* \"#utility.yul\":5761:5766   */\n      dup2\n        /* \"#utility.yul\":5754:5767   */\n      iszero\n        /* \"#utility.yul\":5747:5768   */\n      iszero\n        /* \"#utility.yul\":5736:5768   */\n      swap1\n      pop\n        /* \"#utility.yul\":5684:5774   */\n      swap2\n      swap1\n      pop\n      jump\t// out\n        /* \"#utility.yul\":5780:5906   */\n    tag_145:\n        /* \"#utility.yul\":5817:5824   */\n      0x00\n        /* \"#utility.yul\":5857:5899   */\n      0xffffffffffffffffffffffffffffffffffffffff\n        /* \"#utility.yul\":5850:5855   */\n      dup3\n        /* \"#utility.yul\":5846:5900   */\n      and\n        /* \"#utility.yul\":5835:5900   */\n      swap1\n      pop\n        /* \"#utility.yul\":5780:5906   */\n      swap2\n      swap1\n      pop\n      jump\t// out\n        /* \"#utility.yul\":5912:5989   */\n    tag_109:\n        /* \"#utility.yul\":5949:5956   */\n      0x00\n        /* \"#utility.yul\":5978:5983   */\n      dup2\n        /* \"#utility.yul\":5967:5983   */\n      swap1\n      pop\n        /* \"#utility.yul\":5912:5989   */\n      swap2\n      swap1\n      pop\n      jump\t// out\n        /* \"#utility.yul\":5995:6088   */\n    tag_113:\n        /* \"#utility.yul\":6031:6038   */\n      0x00\n        /* \"#utility.yul\":6071:6081   */\n      0xffffffff\n        /* \"#utility.yul\":6064:6069   */\n      dup3\n        /* \"#utility.yul\":6060:6082   */\n      and\n        /* \"#utility.yul\":6049:6082   */\n      swap1\n      pop\n        /* \"#utility.yul\":5995:6088   */\n      swap2\n      swap1\n      pop\n      jump\t// out\n        /* \"#utility.yul\":6094:6228   */\n    tag_78:\n        /* \"#utility.yul\":6152:6161   */\n      0x00\n        /* \"#utility.yul\":6185:6222   */\n      tag_153\n        /* \"#utility.yul\":6216:6221   */\n      dup3\n        /* \"#utility.yul\":6185:6222   */\n      tag_154\n      jump\t// in\n    tag_153:\n        /* \"#utility.yul\":6172:6222   */\n      swap1\n      pop\n        /* \"#utility.yul\":6094:6228   */\n      swap2\n      swap1\n      pop\n      jump\t// out\n        /* \"#utility.yul\":6234:6374   */\n    tag_94:\n        /* \"#utility.yul\":6298:6307   */\n      0x00\n        /* \"#utility.yul\":6331:6368   */\n      tag_156\n        /* \"#utility.yul\":6362:6367   */\n      dup3\n        /* \"#utility.yul\":6331:6368   */\n      tag_154\n      jump\t// in\n    tag_156:\n        /* \"#utility.yul\":6318:6368   */\n      swap1\n      pop\n        /* \"#utility.yul\":6234:6374   */\n      swap2\n      swap1\n      pop\n      jump\t// out\n        /* \"#utility.yul\":6380:6506   */\n    tag_154:\n        /* \"#utility.yul\":6430:6439   */\n      0x00\n        /* \"#utility.yul\":6463:6500   */\n      tag_158\n        /* \"#utility.yul\":6494:6499   */\n      dup3\n        /* \"#utility.yul\":6463:6500   */\n      tag_159\n      jump\t// in\n    tag_158:\n        /* \"#utility.yul\":6450:6500   */\n      swap1\n      pop\n        /* \"#utility.yul\":6380:6506   */\n      swap2\n      swap1\n      pop\n      jump\t// out\n        /* \"#utility.yul\":6512:6625   */\n    tag_159:\n        /* \"#utility.yul\":6562:6571   */\n      0x00\n        /* \"#utility.yul\":6595:6619   */\n      tag_161\n        /* \"#utility.yul\":6613:6618   */\n      dup3\n        /* \"#utility.yul\":6595:6619   */\n      tag_145\n      jump\t// in\n    tag_161:\n        /* \"#utility.yul\":6582:6619   */\n      swap1\n      pop\n        /* \"#utility.yul\":6512:6625   */\n      swap2\n      swap1\n      pop\n      jump\t// out\n        /* \"#utility.yul\":6631:6811   */\n    tag_142:\n        /* \"#utility.yul\":6679:6756   */\n      0x4e487b7100000000000000000000000000000000000000000000000000000000\n        /* \"#utility.yul\":6676:6677   */\n      0x00\n        /* \"#utility.yul\":6669:6757   */\n      mstore\n        /* \"#utility.yul\":6776:6780   */\n      0x11\n        /* \"#utility.yul\":6773:6774   */\n      0x04\n        /* \"#utility.yul\":6766:6781   */\n      mstore\n        /* \"#utility.yul\":6800:6804   */\n      0x24\n        /* \"#utility.yul\":6797:6798   */\n      0x00\n        /* \"#utility.yul\":6790:6805   */\n      revert\n        /* \"#utility.yul\":6940:7057   */\n    tag_73:\n        /* \"#utility.yul\":7049:7050   */\n      0x00\n        /* \"#utility.yul\":7046:7047   */\n      dup1\n        /* \"#utility.yul\":7039:7051   */\n      revert\n        /* \"#utility.yul\":7063:7216   */\n    tag_100:\n        /* \"#utility.yul\":7203:7208   */\n      0x6e6f740000000000000000000000000000000000000000000000000000000000\n        /* \"#utility.yul\":7199:7200   */\n      0x00\n        /* \"#utility.yul\":7191:7197   */\n      dup3\n        /* \"#utility.yul\":7187:7201   */\n      add\n        /* \"#utility.yul\":7180:7209   */\n      mstore\n        /* \"#utility.yul\":7063:7216   */\n      pop\n      jump\t// out\n        /* \"#utility.yul\":7222:7379   */\n    tag_105:\n        /* \"#utility.yul\":7362:7371   */\n      0x7374617274656400000000000000000000000000000000000000000000000000\n        /* \"#utility.yul\":7358:7359   */\n      0x00\n        /* \"#utility.yul\":7350:7356   */\n      dup3\n        /* \"#utility.yul\":7346:7360   */\n      add\n        /* \"#utility.yul\":7339:7372   */\n      mstore\n        /* \"#utility.yul\":7222:7379   */\n      pop\n      jump\t// out\n        /* \"#utility.yul\":7385:7507   */\n    tag_69:\n        /* \"#utility.yul\":7458:7482   */\n      tag_169\n        /* \"#utility.yul\":7476:7481   */\n      dup2\n        /* \"#utility.yul\":7458:7482   */\n      tag_86\n      jump\t// in\n    tag_169:\n        /* \"#utility.yul\":7451:7456   */\n      dup2\n        /* \"#utility.yul\":7448:7483   */\n      eq\n        /* \"#utility.yul\":7438:7501   */\n      tag_170\n      jumpi\n        /* \"#utility.yul\":7497:7498   */\n      0x00\n        /* \"#utility.yul\":7494:7495   */\n      dup1\n        /* \"#utility.yul\":7487:7499   */\n      revert\n        /* \"#utility.yul\":7438:7501   */\n    tag_170:\n        /* \"#utility.yul\":7385:7507   */\n      pop\n      jump\t// out\n\n    auxdata: 0xa2646970667358221220c3e94e0a8f84b7e70026e22e815f189adfbea375dc747543520531e298a6512e64736f6c63430008070033\n}\n",
				"bytecode": {
					"linkReferences": {},
					"object": "60e060405234801561001057600080fd5b50604051610a97380380610a97833981810160405281019061003291906100e1565b8273ffffffffffffffffffffffffffffffffffffffff1660808173ffffffffffffffffffffffffffffffffffffffff1660601b815250508160a081815250503373ffffffffffffffffffffffffffffffffffffffff1660c08173ffffffffffffffffffffffffffffffffffffffff1660601b81525050806001819055505050506101a3565b6000815190506100c681610175565b92915050565b6000815190506100db8161018c565b92915050565b6000806000606084860312156100fa576100f9610170565b5b6000610108868287016100b7565b9350506020610119868287016100cc565b925050604061012a868287016100cc565b9150509250925092565b600061013f82610146565b9050919050565b600073ffffffffffffffffffffffffffffffffffffffff82169050919050565b6000819050919050565b600080fd5b61017e81610134565b811461018957600080fd5b50565b61019581610166565b81146101a057600080fd5b50565b60805160601c60a05160c05160601c6108a36101f4600039600081816101cf0152818161028f01526103f0015260008181610412015261048501526000818161021901526103b401526108a36000f3fe608060405234801561001057600080fd5b506004361061009e5760003560e01c80637cc3ae8c116100665780637cc3ae8c1461014b57806391f9015714610169578063be9a655514610187578063c6bc518214610191578063d57bde79146101af5761009e565b806308551a53146100a357806312fa6feb146100c15780631f2698ab146100df57806347ccca02146100fd57806362ea82db1461011b575b600080fd5b6100ab6101cd565b6040516100b891906105b9565b60405180910390f35b6100c96101f1565b6040516100d6919061060b565b60405180910390f35b6100e7610204565b6040516100f4919061060b565b60405180910390f35b610105610217565b6040516101129190610626565b60405180910390f35b610135600480360381019061013091906104c2565b61023b565b6040516101429190610681565b60405180910390f35b610153610253565b604051610160919061069c565b60405180910390f35b610171610267565b60405161017e919061059e565b60405180910390f35b61018f61028d565b005b610199610483565b6040516101a69190610681565b60405180910390f35b6101b76104a7565b6040516101c49190610681565b60405180910390f35b7f000000000000000000000000000000000000000000000000000000000000000081565b600060059054906101000a900460ff1681565b600060049054906101000a900460ff1681565b7f000000000000000000000000000000000000000000000000000000000000000081565b60026020528060005260406000206000915090505481565b60008054906101000a900463ffffffff1681565b600060069054906101000a900473ffffffffffffffffffffffffffffffffffffffff1681565b7f000000000000000000000000000000000000000000000000000000000000000073ffffffffffffffffffffffffffffffffffffffff163373ffffffffffffffffffffffffffffffffffffffff161461031b576040517f08c379a000000000000000000000000000000000000000000000000000000000815260040161031290610641565b60405180910390fd5b600060049054906101000a900460ff161561036b576040517f08c379a000000000000000000000000000000000000000000000000000000000815260040161036290610661565b60405180910390fd5b6001600060046101000a81548160ff021916908315150217905550603c4261039391906106c8565b6000806101000a81548163ffffffff021916908363ffffffff1602179055507f000000000000000000000000000000000000000000000000000000000000000073ffffffffffffffffffffffffffffffffffffffff166323b872dd7f0000000000000000000000000000000000000000000000000000000000000000307f00000000000000000000000000000000000000000000000000000000000000006040518463ffffffff1660e01b815260040161044f939291906105d4565b600060405180830381600087803b15801561046957600080fd5b505af115801561047d573d6000803e3d6000fd5b50505050565b7f000000000000000000000000000000000000000000000000000000000000000081565b60015481565b6000813590506104bc81610856565b92915050565b6000602082840312156104d8576104d76107ff565b5b60006104e6848285016104ad565b91505092915050565b6104f881610788565b82525050565b61050781610730565b82525050565b6105168161071e565b82525050565b61052581610742565b82525050565b6105348161079a565b82525050565b60006105476003836106b7565b915061055282610804565b602082019050919050565b600061056a6007836106b7565b91506105758261082d565b602082019050919050565b6105898161076e565b82525050565b61059881610778565b82525050565b60006020820190506105b3600083018461050d565b92915050565b60006020820190506105ce60008301846104fe565b92915050565b60006060820190506105e960008301866104ef565b6105f6602083018561050d565b6106036040830184610580565b949350505050565b6000602082019050610620600083018461051c565b92915050565b600060208201905061063b600083018461052b565b92915050565b6000602082019050818103600083015261065a8161053a565b9050919050565b6000602082019050818103600083015261067a8161055d565b9050919050565b60006020820190506106966000830184610580565b92915050565b60006020820190506106b1600083018461058f565b92915050565b600082825260208201905092915050565b60006106d38261076e565b91506106de8361076e565b9250827fffffffffffffffffffffffffffffffffffffffffffffffffffffffffffffffff03821115610713576107126107d0565b5b828201905092915050565b60006107298261074e565b9050919050565b600061073b8261074e565b9050919050565b60008115159050919050565b600073ffffffffffffffffffffffffffffffffffffffff82169050919050565b6000819050919050565b600063ffffffff82169050919050565b6000610793826107ac565b9050919050565b60006107a5826107ac565b9050919050565b60006107b7826107be565b9050919050565b60006107c98261074e565b9050919050565b7f4e487b7100000000000000000000000000000000000000000000000000000000600052601160045260246000fd5b600080fd5b7f6e6f740000000000000000000000000000000000000000000000000000000000600082015250565b7f7374617274656400000000000000000000000000000000000000000000000000600082015250565b61085f8161071e565b811461086a57600080fd5b5056fea2646970667358221220c3e94e0a8f84b7e70026e22e815f189adfbea375dc747543520531e298a6512e64736f6c63430008070033",
					"opcodes": "PUSH1 0xE0 PUSH1 0x40 MSTORE CALLVALUE DUP1 ISZERO PUSH2 0x10 JUMPI PUSH1 0x0 DUP1 REVERT JUMPDEST POP PUSH1 0x40 MLOAD PUSH2 0xA97 CODESIZE SUB DUP1 PUSH2 0xA97 DUP4 CODECOPY DUP2 DUP2 ADD PUSH1 0x40 MSTORE DUP2 ADD SWAP1 PUSH2 0x32 SWAP2 SWAP1 PUSH2 0xE1 JUMP JUMPDEST DUP3 PUSH20 0xFFFFFFFFFFFFFFFFFFFFFFFFFFFFFFFFFFFFFFFF AND PUSH1 0x80 DUP2 PUSH20 0xFFFFFFFFFFFFFFFFFFFFFFFFFFFFFFFFFFFFFFFF AND PUSH1 0x60 SHL DUP2 MSTORE POP POP DUP2 PUSH1 0xA0 DUP2 DUP2 MSTORE POP POP CALLER PUSH20 0xFFFFFFFFFFFFFFFFFFFFFFFFFFFFFFFFFFFFFFFF AND PUSH1 0xC0 DUP2 PUSH20 0xFFFFFFFFFFFFFFFFFFFFFFFFFFFFFFFFFFFFFFFF AND PUSH1 0x60 SHL DUP2 MSTORE POP POP DUP1 PUSH1 0x1 DUP2 SWAP1 SSTORE POP POP POP POP PUSH2 0x1A3 JUMP JUMPDEST PUSH1 0x0 DUP2 MLOAD SWAP1 POP PUSH2 0xC6 DUP2 PUSH2 0x175 JUMP JUMPDEST SWAP3 SWAP2 POP POP JUMP JUMPDEST PUSH1 0x0 DUP2 MLOAD SWAP1 POP PUSH2 0xDB DUP2 PUSH2 0x18C JUMP JUMPDEST SWAP3 SWAP2 POP POP JUMP JUMPDEST PUSH1 0x0 DUP1 PUSH1 0x0 PUSH1 0x60 DUP5 DUP7 SUB SLT ISZERO PUSH2 0xFA JUMPI PUSH2 0xF9 PUSH2 0x170 JUMP JUMPDEST JUMPDEST PUSH1 0x0 PUSH2 0x108 DUP7 DUP3 DUP8 ADD PUSH2 0xB7 JUMP JUMPDEST SWAP4 POP POP PUSH1 0x20 PUSH2 0x119 DUP7 DUP3 DUP8 ADD PUSH2 0xCC JUMP JUMPDEST SWAP3 POP POP PUSH1 0x40 PUSH2 0x12A DUP7 DUP3 DUP8 ADD PUSH2 0xCC JUMP JUMPDEST SWAP2 POP POP SWAP3 POP SWAP3 POP SWAP3 JUMP JUMPDEST PUSH1 0x0 PUSH2 0x13F DUP3 PUSH2 0x146 JUMP JUMPDEST SWAP1 POP SWAP2 SWAP1 POP JUMP JUMPDEST PUSH1 0x0 PUSH20 0xFFFFFFFFFFFFFFFFFFFFFFFFFFFFFFFFFFFFFFFF DUP3 AND SWAP1 POP SWAP2 SWAP1 POP JUMP JUMPDEST PUSH1 0x0 DUP2 SWAP1 POP SWAP2 SWAP1 POP JUMP JUMPDEST PUSH1 0x0 DUP1 REVERT JUMPDEST PUSH2 0x17E DUP2 PUSH2 0x134 JUMP JUMPDEST DUP2 EQ PUSH2 0x189 JUMPI PUSH1 0x0 DUP1 REVERT JUMPDEST POP JUMP JUMPDEST PUSH2 0x195 DUP2 PUSH2 0x166 JUMP JUMPDEST DUP2 EQ PUSH2 0x1A0 JUMPI PUSH1 0x0 DUP1 REVERT JUMPDEST POP JUMP JUMPDEST PUSH1 0x80 MLOAD PUSH1 0x60 SHR PUSH1 0xA0 MLOAD PUSH1 0xC0 MLOAD PUSH1 0x60 SHR PUSH2 0x8A3 PUSH2 0x1F4 PUSH1 0x0 CODECOPY PUSH1 0x0 DUP2 DUP2 PUSH2 0x1CF ADD MSTORE DUP2 DUP2 PUSH2 0x28F ADD MSTORE PUSH2 0x3F0 ADD MSTORE PUSH1 0x0 DUP2 DUP2 PUSH2 0x412 ADD MSTORE PUSH2 0x485 ADD MSTORE PUSH1 0x0 DUP2 DUP2 PUSH2 0x219 ADD MSTORE PUSH2 0x3B4 ADD MSTORE PUSH2 0x8A3 PUSH1 0x0 RETURN INVALID PUSH1 0x80 PUSH1 0x40 MSTORE CALLVALUE DUP1 ISZERO PUSH2 0x10 JUMPI PUSH1 0x0 DUP1 REVERT JUMPDEST POP PUSH1 0x4 CALLDATASIZE LT PUSH2 0x9E JUMPI PUSH1 0x0 CALLDATALOAD PUSH1 0xE0 SHR DUP1 PUSH4 0x7CC3AE8C GT PUSH2 0x66 JUMPI DUP1 PUSH4 0x7CC3AE8C EQ PUSH2 0x14B JUMPI DUP1 PUSH4 0x91F90157 EQ PUSH2 0x169 JUMPI DUP1 PUSH4 0xBE9A6555 EQ PUSH2 0x187 JUMPI DUP1 PUSH4 0xC6BC5182 EQ PUSH2 0x191 JUMPI DUP1 PUSH4 0xD57BDE79 EQ PUSH2 0x1AF JUMPI PUSH2 0x9E JUMP JUMPDEST DUP1 PUSH4 0x8551A53 EQ PUSH2 0xA3 JUMPI DUP1 PUSH4 0x12FA6FEB EQ PUSH2 0xC1 JUMPI DUP1 PUSH4 0x1F2698AB EQ PUSH2 0xDF JUMPI DUP1 PUSH4 0x47CCCA02 EQ PUSH2 0xFD JUMPI DUP1 PUSH4 0x62EA82DB EQ PUSH2 0x11B JUMPI JUMPDEST PUSH1 0x0 DUP1 REVERT JUMPDEST PUSH2 0xAB PUSH2 0x1CD JUMP JUMPDEST PUSH1 0x40 MLOAD PUSH2 0xB8 SWAP2 SWAP1 PUSH2 0x5B9 JUMP JUMPDEST PUSH1 0x40 MLOAD DUP1 SWAP2 SUB SWAP1 RETURN JUMPDEST PUSH2 0xC9 PUSH2 0x1F1 JUMP JUMPDEST PUSH1 0x40 MLOAD PUSH2 0xD6 SWAP2 SWAP1 PUSH2 0x60B JUMP JUMPDEST PUSH1 0x40 MLOAD DUP1 SWAP2 SUB SWAP1 RETURN JUMPDEST PUSH2 0xE7 PUSH2 0x204 JUMP JUMPDEST PUSH1 0x40 MLOAD PUSH2 0xF4 SWAP2 SWAP1 PUSH2 0x60B JUMP JUMPDEST PUSH1 0x40 MLOAD DUP1 SWAP2 SUB SWAP1 RETURN JUMPDEST PUSH2 0x105 PUSH2 0x217 JUMP JUMPDEST PUSH1 0x40 MLOAD PUSH2 0x112 SWAP2 SWAP1 PUSH2 0x626 JUMP JUMPDEST PUSH1 0x40 MLOAD DUP1 SWAP2 SUB SWAP1 RETURN JUMPDEST PUSH2 0x135 PUSH1 0x4 DUP1 CALLDATASIZE SUB DUP2 ADD SWAP1 PUSH2 0x130 SWAP2 SWAP1 PUSH2 0x4C2 JUMP JUMPDEST PUSH2 0x23B JUMP JUMPDEST PUSH1 0x40 MLOAD PUSH2 0x142 SWAP2 SWAP1 PUSH2 0x681 JUMP JUMPDEST PUSH1 0x40 MLOAD DUP1 SWAP2 SUB SWAP1 RETURN JUMPDEST PUSH2 0x153 PUSH2 0x253 JUMP JUMPDEST PUSH1 0x40 MLOAD PUSH2 0x160 SWAP2 SWAP1 PUSH2 0x69C JUMP JUMPDEST PUSH1 0x40 MLOAD DUP1 SWAP2 SUB SWAP1 RETURN JUMPDEST PUSH2 0x171 PUSH2 0x267 JUMP JUMPDEST PUSH1 0x40 MLOAD PUSH2 0x17E SWAP2 SWAP1 PUSH2 0x59E JUMP JUMPDEST PUSH1 0x40 MLOAD DUP1 SWAP2 SUB SWAP1 RETURN JUMPDEST PUSH2 0x18F PUSH2 0x28D JUMP JUMPDEST STOP JUMPDEST PUSH2 0x199 PUSH2 0x483 JUMP JUMPDEST PUSH1 0x40 MLOAD PUSH2 0x1A6 SWAP2 SWAP1 PUSH2 0x681 JUMP JUMPDEST PUSH1 0x40 MLOAD DUP1 SWAP2 SUB SWAP1 RETURN JUMPDEST PUSH2 0x1B7 PUSH2 0x4A7 JUMP JUMPDEST PUSH1 0x40 MLOAD PUSH2 0x1C4 SWAP2 SWAP1 PUSH2 0x681 JUMP JUMPDEST PUSH1 0x40 MLOAD DUP1 SWAP2 SUB SWAP1 RETURN JUMPDEST PUSH32 0x0 DUP2 JUMP JUMPDEST PUSH1 0x0 PUSH1 0x5 SWAP1 SLOAD SWAP1 PUSH2 0x100 EXP SWAP1 DIV PUSH1 0xFF AND DUP2 JUMP JUMPDEST PUSH1 0x0 PUSH1 0x4 SWAP1 SLOAD SWAP1 PUSH2 0x100 EXP SWAP1 DIV PUSH1 0xFF AND DUP2 JUMP JUMPDEST PUSH32 0x0 DUP2 JUMP JUMPDEST PUSH1 0x2 PUSH1 0x20 MSTORE DUP1 PUSH1 0x0 MSTORE PUSH1 0x40 PUSH1 0x0 KECCAK256 PUSH1 0x0 SWAP2 POP SWAP1 POP SLOAD DUP2 JUMP JUMPDEST PUSH1 0x0 DUP1 SLOAD SWAP1 PUSH2 0x100 EXP SWAP1 DIV PUSH4 0xFFFFFFFF AND DUP2 JUMP JUMPDEST PUSH1 0x0 PUSH1 0x6 SWAP1 SLOAD SWAP1 PUSH2 0x100 EXP SWAP1 DIV PUSH20 0xFFFFFFFFFFFFFFFFFFFFFFFFFFFFFFFFFFFFFFFF AND DUP2 JUMP JUMPDEST PUSH32 0x0 PUSH20 0xFFFFFFFFFFFFFFFFFFFFFFFFFFFFFFFFFFFFFFFF AND CALLER PUSH20 0xFFFFFFFFFFFFFFFFFFFFFFFFFFFFFFFFFFFFFFFF AND EQ PUSH2 0x31B JUMPI PUSH1 0x40 MLOAD PUSH32 0x8C379A000000000000000000000000000000000000000000000000000000000 DUP2 MSTORE PUSH1 0x4 ADD PUSH2 0x312 SWAP1 PUSH2 0x641 JUMP JUMPDEST PUSH1 0x40 MLOAD DUP1 SWAP2 SUB SWAP1 REVERT JUMPDEST PUSH1 0x0 PUSH1 0x4 SWAP1 SLOAD SWAP1 PUSH2 0x100 EXP SWAP1 DIV PUSH1 0xFF AND ISZERO PUSH2 0x36B JUMPI PUSH1 0x40 MLOAD PUSH32 0x8C379A000000000000000000000000000000000000000000000000000000000 DUP2 MSTORE PUSH1 0x4 ADD PUSH2 0x362 SWAP1 PUSH2 0x661 JUMP JUMPDEST PUSH1 0x40 MLOAD DUP1 SWAP2 SUB SWAP1 REVERT JUMPDEST PUSH1 0x1 PUSH1 0x0 PUSH1 0x4 PUSH2 0x100 EXP DUP2 SLOAD DUP2 PUSH1 0xFF MUL NOT AND SWAP1 DUP4 ISZERO ISZERO MUL OR SWAP1 SSTORE POP PUSH1 0x3C TIMESTAMP PUSH2 0x393 SWAP2 SWAP1 PUSH2 0x6C8 JUMP JUMPDEST PUSH1 0x0 DUP1 PUSH2 0x100 EXP DUP2 SLOAD DUP2 PUSH4 0xFFFFFFFF MUL NOT AND SWAP1 DUP4 PUSH4 0xFFFFFFFF AND MUL OR SWAP1 SSTORE POP PUSH32 0x0 PUSH20 0xFFFFFFFFFFFFFFFFFFFFFFFFFFFFFFFFFFFFFFFF AND PUSH4 0x23B872DD PUSH32 0x0 ADDRESS PUSH32 0x0 PUSH1 0x40 MLOAD DUP5 PUSH4 0xFFFFFFFF AND PUSH1 0xE0 SHL DUP2 MSTORE PUSH1 0x4 ADD PUSH2 0x44F SWAP4 SWAP3 SWAP2 SWAP1 PUSH2 0x5D4 JUMP JUMPDEST PUSH1 0x0 PUSH1 0x40 MLOAD DUP1 DUP4 SUB DUP2 PUSH1 0x0 DUP8 DUP1 EXTCODESIZE ISZERO DUP1 ISZERO PUSH2 0x469 JUMPI PUSH1 0x0 DUP1 REVERT JUMPDEST POP GAS CALL ISZERO DUP1 ISZERO PUSH2 0x47D JUMPI RETURNDATASIZE PUSH1 0x0 DUP1 RETURNDATACOPY RETURNDATASIZE PUSH1 0x0 REVERT JUMPDEST POP POP POP POP JUMP JUMPDEST PUSH32 0x0 DUP2 JUMP JUMPDEST PUSH1 0x1 SLOAD DUP2 JUMP JUMPDEST PUSH1 0x0 DUP2 CALLDATALOAD SWAP1 POP PUSH2 0x4BC DUP2 PUSH2 0x856 JUMP JUMPDEST SWAP3 SWAP2 POP POP JUMP JUMPDEST PUSH1 0x0 PUSH1 0x20 DUP3 DUP5 SUB SLT ISZERO PUSH2 0x4D8 JUMPI PUSH2 0x4D7 PUSH2 0x7FF JUMP JUMPDEST JUMPDEST PUSH1 0x0 PUSH2 0x4E6 DUP5 DUP3 DUP6 ADD PUSH2 0x4AD JUMP JUMPDEST SWAP2 POP POP SWAP3 SWAP2 POP POP JUMP JUMPDEST PUSH2 0x4F8 DUP2 PUSH2 0x788 JUMP JUMPDEST DUP3 MSTORE POP POP JUMP JUMPDEST PUSH2 0x507 DUP2 PUSH2 0x730 JUMP JUMPDEST DUP3 MSTORE POP POP JUMP JUMPDEST PUSH2 0x516 DUP2 PUSH2 0x71E JUMP JUMPDEST DUP3 MSTORE POP POP JUMP JUMPDEST PUSH2 0x525 DUP2 PUSH2 0x742 JUMP JUMPDEST DUP3 MSTORE POP POP JUMP JUMPDEST PUSH2 0x534 DUP2 PUSH2 0x79A JUMP JUMPDEST DUP3 MSTORE POP POP JUMP JUMPDEST PUSH1 0x0 PUSH2 0x547 PUSH1 0x3 DUP4 PUSH2 0x6B7 JUMP JUMPDEST SWAP2 POP PUSH2 0x552 DUP3 PUSH2 0x804 JUMP JUMPDEST PUSH1 0x20 DUP3 ADD SWAP1 POP SWAP2 SWAP1 POP JUMP JUMPDEST PUSH1 0x0 PUSH2 0x56A PUSH1 0x7 DUP4 PUSH2 0x6B7 JUMP JUMPDEST SWAP2 POP PUSH2 0x575 DUP3 PUSH2 0x82D JUMP JUMPDEST PUSH1 0x20 DUP3 ADD SWAP1 POP SWAP2 SWAP1 POP JUMP JUMPDEST PUSH2 0x589 DUP2 PUSH2 0x76E JUMP JUMPDEST DUP3 MSTORE POP POP JUMP JUMPDEST PUSH2 0x598 DUP2 PUSH2 0x778 JUMP JUMPDEST DUP3 MSTORE POP POP JUMP JUMPDEST PUSH1 0x0 PUSH1 0x20 DUP3 ADD SWAP1 POP PUSH2 0x5B3 PUSH1 0x0 DUP4 ADD DUP5 PUSH2 0x50D JUMP JUMPDEST SWAP3 SWAP2 POP POP JUMP JUMPDEST PUSH1 0x0 PUSH1 0x20 DUP3 ADD SWAP1 POP PUSH2 0x5CE PUSH1 0x0 DUP4 ADD DUP5 PUSH2 0x4FE JUMP JUMPDEST SWAP3 SWAP2 POP POP JUMP JUMPDEST PUSH1 0x0 PUSH1 0x60 DUP3 ADD SWAP1 POP PUSH2 0x5E9 PUSH1 0x0 DUP4 ADD DUP7 PUSH2 0x4EF JUMP JUMPDEST PUSH2 0x5F6 PUSH1 0x20 DUP4 ADD DUP6 PUSH2 0x50D JUMP JUMPDEST PUSH2 0x603 PUSH1 0x40 DUP4 ADD DUP5 PUSH2 0x580 JUMP JUMPDEST SWAP5 SWAP4 POP POP POP POP JUMP JUMPDEST PUSH1 0x0 PUSH1 0x20 DUP3 ADD SWAP1 POP PUSH2 0x620 PUSH1 0x0 DUP4 ADD DUP5 PUSH2 0x51C JUMP JUMPDEST SWAP3 SWAP2 POP POP JUMP JUMPDEST PUSH1 0x0 PUSH1 0x20 DUP3 ADD SWAP1 POP PUSH2 0x63B PUSH1 0x0 DUP4 ADD DUP5 PUSH2 0x52B JUMP JUMPDEST SWAP3 SWAP2 POP POP JUMP JUMPDEST PUSH1 0x0 PUSH1 0x20 DUP3 ADD SWAP1 POP DUP2 DUP2 SUB PUSH1 0x0 DUP4 ADD MSTORE PUSH2 0x65A DUP2 PUSH2 0x53A JUMP JUMPDEST SWAP1 POP SWAP2 SWAP1 POP JUMP JUMPDEST PUSH1 0x0 PUSH1 0x20 DUP3 ADD SWAP1 POP DUP2 DUP2 SUB PUSH1 0x0 DUP4 ADD MSTORE PUSH2 0x67A DUP2 PUSH2 0x55D JUMP JUMPDEST SWAP1 POP SWAP2 SWAP1 POP JUMP JUMPDEST PUSH1 0x0 PUSH1 0x20 DUP3 ADD SWAP1 POP PUSH2 0x696 PUSH1 0x0 DUP4 ADD DUP5 PUSH2 0x580 JUMP JUMPDEST SWAP3 SWAP2 POP POP JUMP JUMPDEST PUSH1 0x0 PUSH1 0x20 DUP3 ADD SWAP1 POP PUSH2 0x6B1 PUSH1 0x0 DUP4 ADD DUP5 PUSH2 0x58F JUMP JUMPDEST SWAP3 SWAP2 POP POP JUMP JUMPDEST PUSH1 0x0 DUP3 DUP3 MSTORE PUSH1 0x20 DUP3 ADD SWAP1 POP SWAP3 SWAP2 POP POP JUMP JUMPDEST PUSH1 0x0 PUSH2 0x6D3 DUP3 PUSH2 0x76E JUMP JUMPDEST SWAP2 POP PUSH2 0x6DE DUP4 PUSH2 0x76E JUMP JUMPDEST SWAP3 POP DUP3 PUSH32 0xFFFFFFFFFFFFFFFFFFFFFFFFFFFFFFFFFFFFFFFFFFFFFFFFFFFFFFFFFFFFFFFF SUB DUP3 GT ISZERO PUSH2 0x713 JUMPI PUSH2 0x712 PUSH2 0x7D0 JUMP JUMPDEST JUMPDEST DUP3 DUP3 ADD SWAP1 POP SWAP3 SWAP2 POP POP JUMP JUMPDEST PUSH1 0x0 PUSH2 0x729 DUP3 PUSH2 0x74E JUMP JUMPDEST SWAP1 POP SWAP2 SWAP1 POP JUMP JUMPDEST PUSH1 0x0 PUSH2 0x73B DUP3 PUSH2 0x74E JUMP JUMPDEST SWAP1 POP SWAP2 SWAP1 POP JUMP JUMPDEST PUSH1 0x0 DUP2 ISZERO ISZERO SWAP1 POP SWAP2 SWAP1 POP JUMP JUMPDEST PUSH1 0x0 PUSH20 0xFFFFFFFFFFFFFFFFFFFFFFFFFFFFFFFFFFFFFFFF DUP3 AND SWAP1 POP SWAP2 SWAP1 POP JUMP JUMPDEST PUSH1 0x0 DUP2 SWAP1 POP SWAP2 SWAP1 POP JUMP JUMPDEST PUSH1 0x0 PUSH4 0xFFFFFFFF DUP3 AND SWAP1 POP SWAP2 SWAP1 POP JUMP JUMPDEST PUSH1 0x0 PUSH2 0x793 DUP3 PUSH2 0x7AC JUMP JUMPDEST SWAP1 POP SWAP2 SWAP1 POP JUMP JUMPDEST PUSH1 0x0 PUSH2 0x7A5 DUP3 PUSH2 0x7AC JUMP JUMPDEST SWAP1 POP SWAP2 SWAP1 POP JUMP JUMPDEST PUSH1 0x0 PUSH2 0x7B7 DUP3 PUSH2 0x7BE JUMP JUMPDEST SWAP1 POP SWAP2 SWAP1 POP JUMP JUMPDEST PUSH1 0x0 PUSH2 0x7C9 DUP3 PUSH2 0x74E JUMP JUMPDEST SWAP1 POP SWAP2 SWAP1 POP JUMP JUMPDEST PUSH32 0x4E487B7100000000000000000000000000000000000000000000000000000000 PUSH1 0x0 MSTORE PUSH1 0x11 PUSH1 0x4 MSTORE PUSH1 0x24 PUSH1 0x0 REVERT JUMPDEST PUSH1 0x0 DUP1 REVERT JUMPDEST PUSH32 0x6E6F740000000000000000000000000000000000000000000000000000000000 PUSH1 0x0 DUP3 ADD MSTORE POP JUMP JUMPDEST PUSH32 0x7374617274656400000000000000000000000000000000000000000000000000 PUSH1 0x0 DUP3 ADD MSTORE POP JUMP JUMPDEST PUSH2 0x85F DUP2 PUSH2 0x71E JUMP JUMPDEST DUP2 EQ PUSH2 0x86A JUMPI PUSH1 0x0 DUP1 REVERT JUMPDEST POP JUMP INVALID LOG2 PUSH5 0x6970667358 0x22 SLT KECCAK256 0xC3 0xE9 0x4E EXP DUP16 DUP5 0xB7 0xE7 STOP 0x26 0xE2 0x2E DUP2 0x5F XOR SWAP11 0xDF 0xBE LOG3 PUSH22 0xDC747543520531E298A6512E64736F6C634300080700 CALLER "
				},
				"gasEstimates": {
					"creation": {
						"codeDepositCost": "442200",
						"executionCost": "infinite",
						"totalCost": "infinite"
					},
					"external": {
						"bids(address)": "2903",
						"endAt()": "2468",
						"ended()": "2544",
						"highestBid()": "2517",
						"highestBidder()": "2586",
						"nft()": "infinite",
						"nftId()": "infinite",
						"seller()": "infinite",
						"start()": "infinite",
						"started()": "2566"
					}
				},
				"methodIdentifiers": {
					"bids(address)": "62ea82db",
					"endAt()": "7cc3ae8c",
					"ended()": "12fa6feb",
					"highestBid()": "d57bde79",
					"highestBidder()": "91f90157",
					"nft()": "47ccca02",
					"nftId()": "c6bc5182",
					"seller()": "08551a53",
					"start()": "be9a6555",
					"started()": "1f2698ab"
				}
			},
			"storageLayout": {
				"storage": [
					{
						"astId": 20,
						"contract": "contracts/EnglishAuction.sol:EnglishAuction",
						"label": "endAt",
						"offset": 0,
						"slot": "0",
						"type": "t_uint32"
					},
					{
						"astId": 22,
						"contract": "contracts/EnglishAuction.sol:EnglishAuction",
						"label": "started",
						"offset": 4,
						"slot": "0",
						"type": "t_bool"
					},
					{
						"astId": 24,
						"contract": "contracts/EnglishAuction.sol:EnglishAuction",
						"label": "ended",
						"offset": 5,
						"slot": "0",
						"type": "t_bool"
					},
					{
						"astId": 26,
						"contract": "contracts/EnglishAuction.sol:EnglishAuction",
						"label": "highestBidder",
						"offset": 6,
						"slot": "0",
						"type": "t_address"
					},
					{
						"astId": 28,
						"contract": "contracts/EnglishAuction.sol:EnglishAuction",
						"label": "highestBid",
						"offset": 0,
						"slot": "1",
						"type": "t_uint256"
					},
					{
						"astId": 32,
						"contract": "contracts/EnglishAuction.sol:EnglishAuction",
						"label": "bids",
						"offset": 0,
						"slot": "2",
						"type": "t_mapping(t_address,t_uint256)"
					}
				],
				"types": {
					"t_address": {
						"encoding": "inplace",
						"label": "address",
						"numberOfBytes": "20"
					},
					"t_bool": {
						"encoding": "inplace",
						"label": "bool",
						"numberOfBytes": "1"
					},
					"t_mapping(t_address,t_uint256)": {
						"encoding": "mapping",
						"key": "t_address",
						"label": "mapping(address => uint256)",
						"numberOfBytes": "32",
						"value": "t_uint256"
					},
					"t_uint256": {
						"encoding": "inplace",
						"label": "uint256",
						"numberOfBytes": "32"
					},
					"t_uint32": {
						"encoding": "inplace",
						"label": "uint32",
						"numberOfBytes": "4"
					}
				}
			},
			"userdoc": {
				"kind": "user",
				"methods": {},
				"version": 1
			}
		}
	}
}