{
	"contracts/SushiPool.sol": {
		"SushiPool": {
			"abi": [
				{
					"inputs": [
						{
							"internalType": "uint256",
							"name": "_output",
							"type": "uint256"
						}
					],
					"stateMutability": "nonpayable",
					"type": "constructor"
				},
				{
					"inputs": [],
					"name": "lastStakeTime",
					"outputs": [
						{
							"internalType": "uint32",
							"name": "",
							"type": "uint32"
						}
					],
					"stateMutability": "view",
					"type": "function"
				},
				{
					"inputs": [],
					"name": "output",
					"outputs": [
						{
							"internalType": "uint256",
							"name": "",
							"type": "uint256"
						}
					],
					"stateMutability": "view",
					"type": "function"
				},
				{
					"inputs": [],
					"name": "rn",
					"outputs": [
						{
							"internalType": "uint256",
							"name": "",
							"type": "uint256"
						}
					],
					"stateMutability": "view",
					"type": "function"
				},
				{
					"inputs": [
						{
							"internalType": "uint256",
							"name": "_amount",
							"type": "uint256"
						}
					],
					"name": "stake",
					"outputs": [],
					"stateMutability": "nonpayable",
					"type": "function"
				},
				{
					"inputs": [],
					"name": "stakeTotal",
					"outputs": [
						{
							"internalType": "uint256",
							"name": "",
							"type": "uint256"
						}
					],
					"stateMutability": "view",
					"type": "function"
				},
				{
					"inputs": [
						{
							"internalType": "address",
							"name": "",
							"type": "address"
						}
					],
					"name": "users",
					"outputs": [
						{
							"internalType": "uint256",
							"name": "stakeNumber",
							"type": "uint256"
						},
						{
							"internalType": "uint32",
							"name": "stakeTime",
							"type": "uint32"
						},
						{
							"internalType": "uint256",
							"name": "insert",
							"type": "uint256"
						},
						{
							"internalType": "uint256",
							"name": "ru",
							"type": "uint256"
						}
					],
					"stateMutability": "view",
					"type": "function"
				}
			],
			"devdoc": {
				"kind": "dev",
				"methods": {},
				"version": 1
			},
			"evm": {
				"assembly": "    /* \"contracts/SushiPool.sol\":56:899  contract SushiPool {... */\n  mstore(0x40, 0x80)\n    /* \"contracts/SushiPool.sol\":473:640  constructor(uint256 _output) {... */\n  callvalue\n  dup1\n  iszero\n  tag_1\n  jumpi\n  0x00\n  dup1\n  revert\ntag_1:\n  pop\n  mload(0x40)\n  sub(codesize, bytecodeSize)\n  dup1\n  bytecodeSize\n  dup4\n  codecopy\n  dup2\n  dup2\n  add\n  0x40\n  mstore\n  dup2\n  add\n  swap1\n  tag_2\n  swap2\n  swap1\n  tag_3\n  jump\t// in\ntag_2:\n    /* \"contracts/SushiPool.sol\":521:528  _output */\n  dup1\n    /* \"contracts/SushiPool.sol\":512:518  output */\n  0x02\n    /* \"contracts/SushiPool.sol\":512:528  output = _output */\n  dup2\n  swap1\n  sstore\n  pop\n    /* \"contracts/SushiPool.sol\":617:632  block.timestamp */\n  timestamp\n    /* \"contracts/SushiPool.sol\":594:607  lastStakeTime */\n  0x04\n  0x00\n    /* \"contracts/SushiPool.sol\":594:633  lastStakeTime = uint32(block.timestamp) */\n  0x0100\n  exp\n  dup2\n  sload\n  dup2\n  0xffffffff\n  mul\n  not\n  and\n  swap1\n  dup4\n  0xffffffff\n  and\n  mul\n  or\n  swap1\n  sstore\n  pop\n    /* \"contracts/SushiPool.sol\":473:640  constructor(uint256 _output) {... */\n  pop\n    /* \"contracts/SushiPool.sol\":56:899  contract SushiPool {... */\n  jump(tag_6)\n    /* \"#utility.yul\":88:205   */\ntag_8:\n    /* \"#utility.yul\":197:198   */\n  0x00\n    /* \"#utility.yul\":194:195   */\n  dup1\n    /* \"#utility.yul\":187:199   */\n  revert\n    /* \"#utility.yul\":334:411   */\ntag_10:\n    /* \"#utility.yul\":371:378   */\n  0x00\n    /* \"#utility.yul\":400:405   */\n  dup2\n    /* \"#utility.yul\":389:405   */\n  swap1\n  pop\n    /* \"#utility.yul\":334:411   */\n  swap2\n  swap1\n  pop\n  jump\t// out\n    /* \"#utility.yul\":417:539   */\ntag_11:\n    /* \"#utility.yul\":490:514   */\n  tag_19\n    /* \"#utility.yul\":508:513   */\n  dup2\n    /* \"#utility.yul\":490:514   */\n  tag_10\n  jump\t// in\ntag_19:\n    /* \"#utility.yul\":483:488   */\n  dup2\n    /* \"#utility.yul\":480:515   */\n  eq\n    /* \"#utility.yul\":470:533   */\n  tag_20\n  jumpi\n    /* \"#utility.yul\":529:530   */\n  0x00\n    /* \"#utility.yul\":526:527   */\n  dup1\n    /* \"#utility.yul\":519:531   */\n  revert\n    /* \"#utility.yul\":470:533   */\ntag_20:\n    /* \"#utility.yul\":417:539   */\n  pop\n  jump\t// out\n    /* \"#utility.yul\":545:688   */\ntag_12:\n    /* \"#utility.yul\":602:607   */\n  0x00\n    /* \"#utility.yul\":633:639   */\n  dup2\n    /* \"#utility.yul\":627:640   */\n  mload\n    /* \"#utility.yul\":618:640   */\n  swap1\n  pop\n    /* \"#utility.yul\":649:682   */\n  tag_22\n    /* \"#utility.yul\":676:681   */\n  dup2\n    /* \"#utility.yul\":649:682   */\n  tag_11\n  jump\t// in\ntag_22:\n    /* \"#utility.yul\":545:688   */\n  swap3\n  swap2\n  pop\n  pop\n  jump\t// out\n    /* \"#utility.yul\":694:1045   */\ntag_3:\n    /* \"#utility.yul\":764:770   */\n  0x00\n    /* \"#utility.yul\":813:815   */\n  0x20\n    /* \"#utility.yul\":801:810   */\n  dup3\n    /* \"#utility.yul\":792:799   */\n  dup5\n    /* \"#utility.yul\":788:811   */\n  sub\n    /* \"#utility.yul\":784:816   */\n  slt\n    /* \"#utility.yul\":781:900   */\n  iszero\n  tag_24\n  jumpi\n    /* \"#utility.yul\":819:898   */\n  tag_25\n  tag_8\n  jump\t// in\ntag_25:\n    /* \"#utility.yul\":781:900   */\ntag_24:\n    /* \"#utility.yul\":939:940   */\n  0x00\n    /* \"#utility.yul\":964:1028   */\n  tag_26\n    /* \"#utility.yul\":1020:1027   */\n  dup5\n    /* \"#utility.yul\":1011:1017   */\n  dup3\n    /* \"#utility.yul\":1000:1009   */\n  dup6\n    /* \"#utility.yul\":996:1018   */\n  add\n    /* \"#utility.yul\":964:1028   */\n  tag_12\n  jump\t// in\ntag_26:\n    /* \"#utility.yul\":954:1028   */\n  swap2\n  pop\n    /* \"#utility.yul\":910:1038   */\n  pop\n    /* \"#utility.yul\":694:1045   */\n  swap3\n  swap2\n  pop\n  pop\n  jump\t// out\n    /* \"contracts/SushiPool.sol\":56:899  contract SushiPool {... */\ntag_6:\n  dataSize(sub_0)\n  dup1\n  dataOffset(sub_0)\n  0x00\n  codecopy\n  0x00\n  return\nstop\n\nsub_0: assembly {\n        /* \"contracts/SushiPool.sol\":56:899  contract SushiPool {... */\n      mstore(0x40, 0x80)\n      callvalue\n      dup1\n      iszero\n      tag_1\n      jumpi\n      0x00\n      dup1\n      revert\n    tag_1:\n      pop\n      jumpi(tag_2, lt(calldatasize, 0x04))\n      shr(0xe0, calldataload(0x00))\n      dup1\n      0x4b5c8bdf\n      eq\n      tag_3\n      jumpi\n      dup1\n      0x64d4db10\n      eq\n      tag_4\n      jumpi\n      dup1\n      0x8d48c9c8\n      eq\n      tag_5\n      jumpi\n      dup1\n      0xa694fc3a\n      eq\n      tag_6\n      jumpi\n      dup1\n      0xa87430ba\n      eq\n      tag_7\n      jumpi\n      dup1\n      0xf20eaeb8\n      eq\n      tag_8\n      jumpi\n    tag_2:\n      0x00\n      dup1\n      revert\n        /* \"contracts/SushiPool.sol\":269:294  uint256 public stakeTotal */\n    tag_3:\n      tag_9\n      tag_10\n      jump\t// in\n    tag_9:\n      mload(0x40)\n      tag_11\n      swap2\n      swap1\n      tag_12\n      jump\t// in\n    tag_11:\n      mload(0x40)\n      dup1\n      swap2\n      sub\n      swap1\n      return\n        /* \"contracts/SushiPool.sol\":440:467  uint32 public lastStakeTime */\n    tag_4:\n      tag_13\n      tag_14\n      jump\t// in\n    tag_13:\n      mload(0x40)\n      tag_15\n      swap2\n      swap1\n      tag_16\n      jump\t// in\n    tag_15:\n      mload(0x40)\n      dup1\n      swap2\n      sub\n      swap1\n      return\n        /* \"contracts/SushiPool.sol\":385:402  uint256 public rn */\n    tag_5:\n      tag_17\n      tag_18\n      jump\t// in\n    tag_17:\n      mload(0x40)\n      tag_19\n      swap2\n      swap1\n      tag_12\n      jump\t// in\n    tag_19:\n      mload(0x40)\n      dup1\n      swap2\n      sub\n      swap1\n      return\n        /* \"contracts/SushiPool.sol\":711:884  function stake(uint256 _amount) external {... */\n    tag_6:\n      tag_20\n      0x04\n      dup1\n      calldatasize\n      sub\n      dup2\n      add\n      swap1\n      tag_21\n      swap2\n      swap1\n      tag_22\n      jump\t// in\n    tag_21:\n      tag_23\n      jump\t// in\n    tag_20:\n      stop\n        /* \"contracts/SushiPool.sol\":205:242  mapping(address => User) public users */\n    tag_7:\n      tag_24\n      0x04\n      dup1\n      calldatasize\n      sub\n      dup2\n      add\n      swap1\n      tag_25\n      swap2\n      swap1\n      tag_26\n      jump\t// in\n    tag_25:\n      tag_27\n      jump\t// in\n    tag_24:\n      mload(0x40)\n      tag_28\n      swap5\n      swap4\n      swap3\n      swap2\n      swap1\n      tag_29\n      jump\t// in\n    tag_28:\n      mload(0x40)\n      dup1\n      swap2\n      sub\n      swap1\n      return\n        /* \"contracts/SushiPool.sol\":320:341  uint256 public output */\n    tag_8:\n      tag_30\n      tag_31\n      jump\t// in\n    tag_30:\n      mload(0x40)\n      tag_32\n      swap2\n      swap1\n      tag_12\n      jump\t// in\n    tag_32:\n      mload(0x40)\n      dup1\n      swap2\n      sub\n      swap1\n      return\n        /* \"contracts/SushiPool.sol\":269:294  uint256 public stakeTotal */\n    tag_10:\n      sload(0x01)\n      dup2\n      jump\t// out\n        /* \"contracts/SushiPool.sol\":440:467  uint32 public lastStakeTime */\n    tag_14:\n      0x04\n      0x00\n      swap1\n      sload\n      swap1\n      0x0100\n      exp\n      swap1\n      div\n      0xffffffff\n      and\n      dup2\n      jump\t// out\n        /* \"contracts/SushiPool.sol\":385:402  uint256 public rn */\n    tag_18:\n      sload(0x03)\n      dup2\n      jump\t// out\n        /* \"contracts/SushiPool.sol\":711:884  function stake(uint256 _amount) external {... */\n    tag_23:\n        /* \"contracts/SushiPool.sol\":762:779  User storage user */\n      0x00\n        /* \"contracts/SushiPool.sol\":782:787  users */\n      dup1\n        /* \"contracts/SushiPool.sol\":782:799  users[msg.sender] */\n      0x00\n        /* \"contracts/SushiPool.sol\":788:798  msg.sender */\n      caller\n        /* \"contracts/SushiPool.sol\":782:799  users[msg.sender] */\n      0xffffffffffffffffffffffffffffffffffffffff\n      and\n      0xffffffffffffffffffffffffffffffffffffffff\n      and\n      dup2\n      mstore\n      0x20\n      add\n      swap1\n      dup2\n      mstore\n      0x20\n      add\n      0x00\n      keccak256\n        /* \"contracts/SushiPool.sol\":762:799  User storage user = users[msg.sender] */\n      swap1\n      pop\n        /* \"contracts/SushiPool.sol\":865:875  stakeTotal */\n      sload(0x01)\n        /* \"contracts/SushiPool.sol\":856:862  output */\n      sload(0x02)\n        /* \"contracts/SushiPool.sol\":856:875  output / stakeTotal */\n      tag_34\n      swap2\n      swap1\n      tag_35\n      jump\t// in\n    tag_34:\n        /* \"contracts/SushiPool.sol\":838:851  lastStakeTime */\n      0x04\n      0x00\n      swap1\n      sload\n      swap1\n      0x0100\n      exp\n      swap1\n      div\n      0xffffffff\n      and\n        /* \"contracts/SushiPool.sol\":820:851  block.timestamp - lastStakeTime */\n      0xffffffff\n      and\n        /* \"contracts/SushiPool.sol\":820:835  block.timestamp */\n      timestamp\n        /* \"contracts/SushiPool.sol\":820:851  block.timestamp - lastStakeTime */\n      tag_36\n      swap2\n      swap1\n      tag_37\n      jump\t// in\n    tag_36:\n        /* \"contracts/SushiPool.sol\":819:876  (block.timestamp - lastStakeTime) * (output / stakeTotal) */\n      tag_38\n      swap2\n      swap1\n      tag_39\n      jump\t// in\n    tag_38:\n        /* \"contracts/SushiPool.sol\":814:816  rn */\n      sload(0x03)\n        /* \"contracts/SushiPool.sol\":814:876  rn + (block.timestamp - lastStakeTime) * (output / stakeTotal) */\n      tag_40\n      swap2\n      swap1\n      tag_41\n      jump\t// in\n    tag_40:\n        /* \"contracts/SushiPool.sol\":809:811  rn */\n      0x03\n        /* \"contracts/SushiPool.sol\":809:876  rn = rn + (block.timestamp - lastStakeTime) * (output / stakeTotal) */\n      dup2\n      swap1\n      sstore\n      pop\n        /* \"contracts/SushiPool.sol\":752:884  {... */\n      pop\n        /* \"contracts/SushiPool.sol\":711:884  function stake(uint256 _amount) external {... */\n      pop\n      jump\t// out\n        /* \"contracts/SushiPool.sol\":205:242  mapping(address => User) public users */\n    tag_27:\n      mstore(0x20, 0x00)\n      dup1\n      0x00\n      mstore\n      keccak256(0x00, 0x40)\n      0x00\n      swap2\n      pop\n      swap1\n      pop\n      dup1\n      0x00\n      add\n      sload\n      swap1\n      dup1\n      0x01\n      add\n      0x00\n      swap1\n      sload\n      swap1\n      0x0100\n      exp\n      swap1\n      div\n      0xffffffff\n      and\n      swap1\n      dup1\n      0x02\n      add\n      sload\n      swap1\n      dup1\n      0x03\n      add\n      sload\n      swap1\n      pop\n      dup5\n      jump\t// out\n        /* \"contracts/SushiPool.sol\":320:341  uint256 public output */\n    tag_31:\n      sload(0x02)\n      dup2\n      jump\t// out\n        /* \"#utility.yul\":7:84   */\n    tag_42:\n        /* \"#utility.yul\":44:51   */\n      0x00\n        /* \"#utility.yul\":73:78   */\n      dup2\n        /* \"#utility.yul\":62:78   */\n      swap1\n      pop\n        /* \"#utility.yul\":7:84   */\n      swap2\n      swap1\n      pop\n      jump\t// out\n        /* \"#utility.yul\":90:208   */\n    tag_43:\n        /* \"#utility.yul\":177:201   */\n      tag_60\n        /* \"#utility.yul\":195:200   */\n      dup2\n        /* \"#utility.yul\":177:201   */\n      tag_42\n      jump\t// in\n    tag_60:\n        /* \"#utility.yul\":172:175   */\n      dup3\n        /* \"#utility.yul\":165:202   */\n      mstore\n        /* \"#utility.yul\":90:208   */\n      pop\n      pop\n      jump\t// out\n        /* \"#utility.yul\":214:436   */\n    tag_12:\n        /* \"#utility.yul\":307:311   */\n      0x00\n        /* \"#utility.yul\":345:347   */\n      0x20\n        /* \"#utility.yul\":334:343   */\n      dup3\n        /* \"#utility.yul\":330:348   */\n      add\n        /* \"#utility.yul\":322:348   */\n      swap1\n      pop\n        /* \"#utility.yul\":358:429   */\n      tag_62\n        /* \"#utility.yul\":426:427   */\n      0x00\n        /* \"#utility.yul\":415:424   */\n      dup4\n        /* \"#utility.yul\":411:428   */\n      add\n        /* \"#utility.yul\":402:408   */\n      dup5\n        /* \"#utility.yul\":358:429   */\n      tag_43\n      jump\t// in\n    tag_62:\n        /* \"#utility.yul\":214:436   */\n      swap3\n      swap2\n      pop\n      pop\n      jump\t// out\n        /* \"#utility.yul\":442:535   */\n    tag_44:\n        /* \"#utility.yul\":478:485   */\n      0x00\n        /* \"#utility.yul\":518:528   */\n      0xffffffff\n        /* \"#utility.yul\":511:516   */\n      dup3\n        /* \"#utility.yul\":507:529   */\n      and\n        /* \"#utility.yul\":496:529   */\n      swap1\n      pop\n        /* \"#utility.yul\":442:535   */\n      swap2\n      swap1\n      pop\n      jump\t// out\n        /* \"#utility.yul\":541:656   */\n    tag_45:\n        /* \"#utility.yul\":626:649   */\n      tag_65\n        /* \"#utility.yul\":643:648   */\n      dup2\n        /* \"#utility.yul\":626:649   */\n      tag_44\n      jump\t// in\n    tag_65:\n        /* \"#utility.yul\":621:624   */\n      dup3\n        /* \"#utility.yul\":614:650   */\n      mstore\n        /* \"#utility.yul\":541:656   */\n      pop\n      pop\n      jump\t// out\n        /* \"#utility.yul\":662:880   */\n    tag_16:\n        /* \"#utility.yul\":753:757   */\n      0x00\n        /* \"#utility.yul\":791:793   */\n      0x20\n        /* \"#utility.yul\":780:789   */\n      dup3\n        /* \"#utility.yul\":776:794   */\n      add\n        /* \"#utility.yul\":768:794   */\n      swap1\n      pop\n        /* \"#utility.yul\":804:873   */\n      tag_67\n        /* \"#utility.yul\":870:871   */\n      0x00\n        /* \"#utility.yul\":859:868   */\n      dup4\n        /* \"#utility.yul\":855:872   */\n      add\n        /* \"#utility.yul\":846:852   */\n      dup5\n        /* \"#utility.yul\":804:873   */\n      tag_45\n      jump\t// in\n    tag_67:\n        /* \"#utility.yul\":662:880   */\n      swap3\n      swap2\n      pop\n      pop\n      jump\t// out\n        /* \"#utility.yul\":967:1084   */\n    tag_47:\n        /* \"#utility.yul\":1076:1077   */\n      0x00\n        /* \"#utility.yul\":1073:1074   */\n      dup1\n        /* \"#utility.yul\":1066:1078   */\n      revert\n        /* \"#utility.yul\":1213:1335   */\n    tag_49:\n        /* \"#utility.yul\":1286:1310   */\n      tag_72\n        /* \"#utility.yul\":1304:1309   */\n      dup2\n        /* \"#utility.yul\":1286:1310   */\n      tag_42\n      jump\t// in\n    tag_72:\n        /* \"#utility.yul\":1279:1284   */\n      dup2\n        /* \"#utility.yul\":1276:1311   */\n      eq\n        /* \"#utility.yul\":1266:1329   */\n      tag_73\n      jumpi\n        /* \"#utility.yul\":1325:1326   */\n      0x00\n        /* \"#utility.yul\":1322:1323   */\n      dup1\n        /* \"#utility.yul\":1315:1327   */\n      revert\n        /* \"#utility.yul\":1266:1329   */\n    tag_73:\n        /* \"#utility.yul\":1213:1335   */\n      pop\n      jump\t// out\n        /* \"#utility.yul\":1341:1480   */\n    tag_50:\n        /* \"#utility.yul\":1387:1392   */\n      0x00\n        /* \"#utility.yul\":1425:1431   */\n      dup2\n        /* \"#utility.yul\":1412:1432   */\n      calldataload\n        /* \"#utility.yul\":1403:1432   */\n      swap1\n      pop\n        /* \"#utility.yul\":1441:1474   */\n      tag_75\n        /* \"#utility.yul\":1468:1473   */\n      dup2\n        /* \"#utility.yul\":1441:1474   */\n      tag_49\n      jump\t// in\n    tag_75:\n        /* \"#utility.yul\":1341:1480   */\n      swap3\n      swap2\n      pop\n      pop\n      jump\t// out\n        /* \"#utility.yul\":1486:1815   */\n    tag_22:\n        /* \"#utility.yul\":1545:1551   */\n      0x00\n        /* \"#utility.yul\":1594:1596   */\n      0x20\n        /* \"#utility.yul\":1582:1591   */\n      dup3\n        /* \"#utility.yul\":1573:1580   */\n      dup5\n        /* \"#utility.yul\":1569:1592   */\n      sub\n        /* \"#utility.yul\":1565:1597   */\n      slt\n        /* \"#utility.yul\":1562:1681   */\n      iszero\n      tag_77\n      jumpi\n        /* \"#utility.yul\":1600:1679   */\n      tag_78\n      tag_47\n      jump\t// in\n    tag_78:\n        /* \"#utility.yul\":1562:1681   */\n    tag_77:\n        /* \"#utility.yul\":1720:1721   */\n      0x00\n        /* \"#utility.yul\":1745:1798   */\n      tag_79\n        /* \"#utility.yul\":1790:1797   */\n      dup5\n        /* \"#utility.yul\":1781:1787   */\n      dup3\n        /* \"#utility.yul\":1770:1779   */\n      dup6\n        /* \"#utility.yul\":1766:1788   */\n      add\n        /* \"#utility.yul\":1745:1798   */\n      tag_50\n      jump\t// in\n    tag_79:\n        /* \"#utility.yul\":1735:1798   */\n      swap2\n      pop\n        /* \"#utility.yul\":1691:1808   */\n      pop\n        /* \"#utility.yul\":1486:1815   */\n      swap3\n      swap2\n      pop\n      pop\n      jump\t// out\n        /* \"#utility.yul\":1821:1947   */\n    tag_51:\n        /* \"#utility.yul\":1858:1865   */\n      0x00\n        /* \"#utility.yul\":1898:1940   */\n      0xffffffffffffffffffffffffffffffffffffffff\n        /* \"#utility.yul\":1891:1896   */\n      dup3\n        /* \"#utility.yul\":1887:1941   */\n      and\n        /* \"#utility.yul\":1876:1941   */\n      swap1\n      pop\n        /* \"#utility.yul\":1821:1947   */\n      swap2\n      swap1\n      pop\n      jump\t// out\n        /* \"#utility.yul\":1953:2049   */\n    tag_52:\n        /* \"#utility.yul\":1990:1997   */\n      0x00\n        /* \"#utility.yul\":2019:2043   */\n      tag_82\n        /* \"#utility.yul\":2037:2042   */\n      dup3\n        /* \"#utility.yul\":2019:2043   */\n      tag_51\n      jump\t// in\n    tag_82:\n        /* \"#utility.yul\":2008:2043   */\n      swap1\n      pop\n        /* \"#utility.yul\":1953:2049   */\n      swap2\n      swap1\n      pop\n      jump\t// out\n        /* \"#utility.yul\":2055:2177   */\n    tag_53:\n        /* \"#utility.yul\":2128:2152   */\n      tag_84\n        /* \"#utility.yul\":2146:2151   */\n      dup2\n        /* \"#utility.yul\":2128:2152   */\n      tag_52\n      jump\t// in\n    tag_84:\n        /* \"#utility.yul\":2121:2126   */\n      dup2\n        /* \"#utility.yul\":2118:2153   */\n      eq\n        /* \"#utility.yul\":2108:2171   */\n      tag_85\n      jumpi\n        /* \"#utility.yul\":2167:2168   */\n      0x00\n        /* \"#utility.yul\":2164:2165   */\n      dup1\n        /* \"#utility.yul\":2157:2169   */\n      revert\n        /* \"#utility.yul\":2108:2171   */\n    tag_85:\n        /* \"#utility.yul\":2055:2177   */\n      pop\n      jump\t// out\n        /* \"#utility.yul\":2183:2322   */\n    tag_54:\n        /* \"#utility.yul\":2229:2234   */\n      0x00\n        /* \"#utility.yul\":2267:2273   */\n      dup2\n        /* \"#utility.yul\":2254:2274   */\n      calldataload\n        /* \"#utility.yul\":2245:2274   */\n      swap1\n      pop\n        /* \"#utility.yul\":2283:2316   */\n      tag_87\n        /* \"#utility.yul\":2310:2315   */\n      dup2\n        /* \"#utility.yul\":2283:2316   */\n      tag_53\n      jump\t// in\n    tag_87:\n        /* \"#utility.yul\":2183:2322   */\n      swap3\n      swap2\n      pop\n      pop\n      jump\t// out\n        /* \"#utility.yul\":2328:2657   */\n    tag_26:\n        /* \"#utility.yul\":2387:2393   */\n      0x00\n        /* \"#utility.yul\":2436:2438   */\n      0x20\n        /* \"#utility.yul\":2424:2433   */\n      dup3\n        /* \"#utility.yul\":2415:2422   */\n      dup5\n        /* \"#utility.yul\":2411:2434   */\n      sub\n        /* \"#utility.yul\":2407:2439   */\n      slt\n        /* \"#utility.yul\":2404:2523   */\n      iszero\n      tag_89\n      jumpi\n        /* \"#utility.yul\":2442:2521   */\n      tag_90\n      tag_47\n      jump\t// in\n    tag_90:\n        /* \"#utility.yul\":2404:2523   */\n    tag_89:\n        /* \"#utility.yul\":2562:2563   */\n      0x00\n        /* \"#utility.yul\":2587:2640   */\n      tag_91\n        /* \"#utility.yul\":2632:2639   */\n      dup5\n        /* \"#utility.yul\":2623:2629   */\n      dup3\n        /* \"#utility.yul\":2612:2621   */\n      dup6\n        /* \"#utility.yul\":2608:2630   */\n      add\n        /* \"#utility.yul\":2587:2640   */\n      tag_54\n      jump\t// in\n    tag_91:\n        /* \"#utility.yul\":2577:2640   */\n      swap2\n      pop\n        /* \"#utility.yul\":2533:2650   */\n      pop\n        /* \"#utility.yul\":2328:2657   */\n      swap3\n      swap2\n      pop\n      pop\n      jump\t// out\n        /* \"#utility.yul\":2663:3212   */\n    tag_29:\n        /* \"#utility.yul\":2838:2842   */\n      0x00\n        /* \"#utility.yul\":2876:2879   */\n      0x80\n        /* \"#utility.yul\":2865:2874   */\n      dup3\n        /* \"#utility.yul\":2861:2880   */\n      add\n        /* \"#utility.yul\":2853:2880   */\n      swap1\n      pop\n        /* \"#utility.yul\":2890:2961   */\n      tag_93\n        /* \"#utility.yul\":2958:2959   */\n      0x00\n        /* \"#utility.yul\":2947:2956   */\n      dup4\n        /* \"#utility.yul\":2943:2960   */\n      add\n        /* \"#utility.yul\":2934:2940   */\n      dup8\n        /* \"#utility.yul\":2890:2961   */\n      tag_43\n      jump\t// in\n    tag_93:\n        /* \"#utility.yul\":2971:3041   */\n      tag_94\n        /* \"#utility.yul\":3037:3039   */\n      0x20\n        /* \"#utility.yul\":3026:3035   */\n      dup4\n        /* \"#utility.yul\":3022:3040   */\n      add\n        /* \"#utility.yul\":3013:3019   */\n      dup7\n        /* \"#utility.yul\":2971:3041   */\n      tag_45\n      jump\t// in\n    tag_94:\n        /* \"#utility.yul\":3051:3123   */\n      tag_95\n        /* \"#utility.yul\":3119:3121   */\n      0x40\n        /* \"#utility.yul\":3108:3117   */\n      dup4\n        /* \"#utility.yul\":3104:3122   */\n      add\n        /* \"#utility.yul\":3095:3101   */\n      dup6\n        /* \"#utility.yul\":3051:3123   */\n      tag_43\n      jump\t// in\n    tag_95:\n        /* \"#utility.yul\":3133:3205   */\n      tag_96\n        /* \"#utility.yul\":3201:3203   */\n      0x60\n        /* \"#utility.yul\":3190:3199   */\n      dup4\n        /* \"#utility.yul\":3186:3204   */\n      add\n        /* \"#utility.yul\":3177:3183   */\n      dup5\n        /* \"#utility.yul\":3133:3205   */\n      tag_43\n      jump\t// in\n    tag_96:\n        /* \"#utility.yul\":2663:3212   */\n      swap6\n      swap5\n      pop\n      pop\n      pop\n      pop\n      pop\n      jump\t// out\n        /* \"#utility.yul\":3218:3398   */\n    tag_55:\n        /* \"#utility.yul\":3266:3343   */\n      0x4e487b7100000000000000000000000000000000000000000000000000000000\n        /* \"#utility.yul\":3263:3264   */\n      0x00\n        /* \"#utility.yul\":3256:3344   */\n      mstore\n        /* \"#utility.yul\":3363:3367   */\n      0x12\n        /* \"#utility.yul\":3360:3361   */\n      0x04\n        /* \"#utility.yul\":3353:3368   */\n      mstore\n        /* \"#utility.yul\":3387:3391   */\n      0x24\n        /* \"#utility.yul\":3384:3385   */\n      0x00\n        /* \"#utility.yul\":3377:3392   */\n      revert\n        /* \"#utility.yul\":3404:3584   */\n    tag_56:\n        /* \"#utility.yul\":3452:3529   */\n      0x4e487b7100000000000000000000000000000000000000000000000000000000\n        /* \"#utility.yul\":3449:3450   */\n      0x00\n        /* \"#utility.yul\":3442:3530   */\n      mstore\n        /* \"#utility.yul\":3549:3553   */\n      0x11\n        /* \"#utility.yul\":3546:3547   */\n      0x04\n        /* \"#utility.yul\":3539:3554   */\n      mstore\n        /* \"#utility.yul\":3573:3577   */\n      0x24\n        /* \"#utility.yul\":3570:3571   */\n      0x00\n        /* \"#utility.yul\":3563:3578   */\n      revert\n        /* \"#utility.yul\":3590:3775   */\n    tag_35:\n        /* \"#utility.yul\":3630:3631   */\n      0x00\n        /* \"#utility.yul\":3647:3667   */\n      tag_100\n        /* \"#utility.yul\":3665:3666   */\n      dup3\n        /* \"#utility.yul\":3647:3667   */\n      tag_42\n      jump\t// in\n    tag_100:\n        /* \"#utility.yul\":3642:3667   */\n      swap2\n      pop\n        /* \"#utility.yul\":3681:3701   */\n      tag_101\n        /* \"#utility.yul\":3699:3700   */\n      dup4\n        /* \"#utility.yul\":3681:3701   */\n      tag_42\n      jump\t// in\n    tag_101:\n        /* \"#utility.yul\":3676:3701   */\n      swap3\n      pop\n        /* \"#utility.yul\":3720:3721   */\n      dup3\n        /* \"#utility.yul\":3710:3745   */\n      tag_102\n      jumpi\n        /* \"#utility.yul\":3725:3743   */\n      tag_103\n      tag_55\n      jump\t// in\n    tag_103:\n        /* \"#utility.yul\":3710:3745   */\n    tag_102:\n        /* \"#utility.yul\":3767:3768   */\n      dup3\n        /* \"#utility.yul\":3764:3765   */\n      dup3\n        /* \"#utility.yul\":3760:3769   */\n      div\n        /* \"#utility.yul\":3755:3769   */\n      swap1\n      pop\n        /* \"#utility.yul\":3590:3775   */\n      swap3\n      swap2\n      pop\n      pop\n      jump\t// out\n        /* \"#utility.yul\":3781:3972   */\n    tag_37:\n        /* \"#utility.yul\":3821:3825   */\n      0x00\n        /* \"#utility.yul\":3841:3861   */\n      tag_105\n        /* \"#utility.yul\":3859:3860   */\n      dup3\n        /* \"#utility.yul\":3841:3861   */\n      tag_42\n      jump\t// in\n    tag_105:\n        /* \"#utility.yul\":3836:3861   */\n      swap2\n      pop\n        /* \"#utility.yul\":3875:3895   */\n      tag_106\n        /* \"#utility.yul\":3893:3894   */\n      dup4\n        /* \"#utility.yul\":3875:3895   */\n      tag_42\n      jump\t// in\n    tag_106:\n        /* \"#utility.yul\":3870:3895   */\n      swap3\n      pop\n        /* \"#utility.yul\":3914:3915   */\n      dup3\n        /* \"#utility.yul\":3911:3912   */\n      dup3\n        /* \"#utility.yul\":3908:3916   */\n      lt\n        /* \"#utility.yul\":3905:3939   */\n      iszero\n      tag_107\n      jumpi\n        /* \"#utility.yul\":3919:3937   */\n      tag_108\n      tag_56\n      jump\t// in\n    tag_108:\n        /* \"#utility.yul\":3905:3939   */\n    tag_107:\n        /* \"#utility.yul\":3964:3965   */\n      dup3\n        /* \"#utility.yul\":3961:3962   */\n      dup3\n        /* \"#utility.yul\":3957:3966   */\n      sub\n        /* \"#utility.yul\":3949:3966   */\n      swap1\n      pop\n        /* \"#utility.yul\":3781:3972   */\n      swap3\n      swap2\n      pop\n      pop\n      jump\t// out\n        /* \"#utility.yul\":3978:4326   */\n    tag_39:\n        /* \"#utility.yul\":4018:4025   */\n      0x00\n        /* \"#utility.yul\":4041:4061   */\n      tag_110\n        /* \"#utility.yul\":4059:4060   */\n      dup3\n        /* \"#utility.yul\":4041:4061   */\n      tag_42\n      jump\t// in\n    tag_110:\n        /* \"#utility.yul\":4036:4061   */\n      swap2\n      pop\n        /* \"#utility.yul\":4075:4095   */\n      tag_111\n        /* \"#utility.yul\":4093:4094   */\n      dup4\n        /* \"#utility.yul\":4075:4095   */\n      tag_42\n      jump\t// in\n    tag_111:\n        /* \"#utility.yul\":4070:4095   */\n      swap3\n      pop\n        /* \"#utility.yul\":4263:4264   */\n      dup2\n        /* \"#utility.yul\":4195:4261   */\n      0xffffffffffffffffffffffffffffffffffffffffffffffffffffffffffffffff\n        /* \"#utility.yul\":4191:4265   */\n      div\n        /* \"#utility.yul\":4188:4189   */\n      dup4\n        /* \"#utility.yul\":4185:4266   */\n      gt\n        /* \"#utility.yul\":4180:4181   */\n      dup3\n        /* \"#utility.yul\":4173:4182   */\n      iszero\n        /* \"#utility.yul\":4166:4183   */\n      iszero\n        /* \"#utility.yul\":4162:4267   */\n      and\n        /* \"#utility.yul\":4159:4290   */\n      iszero\n      tag_112\n      jumpi\n        /* \"#utility.yul\":4270:4288   */\n      tag_113\n      tag_56\n      jump\t// in\n    tag_113:\n        /* \"#utility.yul\":4159:4290   */\n    tag_112:\n        /* \"#utility.yul\":4318:4319   */\n      dup3\n        /* \"#utility.yul\":4315:4316   */\n      dup3\n        /* \"#utility.yul\":4311:4320   */\n      mul\n        /* \"#utility.yul\":4300:4320   */\n      swap1\n      pop\n        /* \"#utility.yul\":3978:4326   */\n      swap3\n      swap2\n      pop\n      pop\n      jump\t// out\n        /* \"#utility.yul\":4332:4637   */\n    tag_41:\n        /* \"#utility.yul\":4372:4375   */\n      0x00\n        /* \"#utility.yul\":4391:4411   */\n      tag_115\n        /* \"#utility.yul\":4409:4410   */\n      dup3\n        /* \"#utility.yul\":4391:4411   */\n      tag_42\n      jump\t// in\n    tag_115:\n        /* \"#utility.yul\":4386:4411   */\n      swap2\n      pop\n        /* \"#utility.yul\":4425:4445   */\n      tag_116\n        /* \"#utility.yul\":4443:4444   */\n      dup4\n        /* \"#utility.yul\":4425:4445   */\n      tag_42\n      jump\t// in\n    tag_116:\n        /* \"#utility.yul\":4420:4445   */\n      swap3\n      pop\n        /* \"#utility.yul\":4579:4580   */\n      dup3\n        /* \"#utility.yul\":4511:4577   */\n      0xffffffffffffffffffffffffffffffffffffffffffffffffffffffffffffffff\n        /* \"#utility.yul\":4507:4581   */\n      sub\n        /* \"#utility.yul\":4504:4505   */\n      dup3\n        /* \"#utility.yul\":4501:4582   */\n      gt\n        /* \"#utility.yul\":4498:4605   */\n      iszero\n      tag_117\n      jumpi\n        /* \"#utility.yul\":4585:4603   */\n      tag_118\n      tag_56\n      jump\t// in\n    tag_118:\n        /* \"#utility.yul\":4498:4605   */\n    tag_117:\n        /* \"#utility.yul\":4629:4630   */\n      dup3\n        /* \"#utility.yul\":4626:4627   */\n      dup3\n        /* \"#utility.yul\":4622:4631   */\n      add\n        /* \"#utility.yul\":4615:4631   */\n      swap1\n      pop\n        /* \"#utility.yul\":4332:4637   */\n      swap3\n      swap2\n      pop\n      pop\n      jump\t// out\n\n    auxdata: 0xa26469706673582212209ffb01d97512e511df61817d818cebd7b64a4e3896b03be02f6c312469939bff64736f6c634300080f0033\n}\n",
				"bytecode": {
					"linkReferences": {},
					"object": "608060405234801561001057600080fd5b506040516106493803806106498339818101604052810190610032919061009b565b8060028190555042600460006101000a81548163ffffffff021916908363ffffffff160217905550506100c8565b600080fd5b6000819050919050565b61007881610065565b811461008357600080fd5b50565b6000815190506100958161006f565b92915050565b6000602082840312156100b1576100b0610060565b5b60006100bf84828501610086565b91505092915050565b610572806100d76000396000f3fe608060405234801561001057600080fd5b50600436106100625760003560e01c80634b5c8bdf1461006757806364d4db10146100855780638d48c9c8146100a3578063a694fc3a146100c1578063a87430ba146100dd578063f20eaeb814610110575b600080fd5b61006f61012e565b60405161007c9190610246565b60405180910390f35b61008d610134565b60405161009a9190610280565b60405180910390f35b6100ab61014a565b6040516100b89190610246565b60405180910390f35b6100db60048036038101906100d691906102cc565b610150565b005b6100f760048036038101906100f29190610357565b6101e7565b6040516101079493929190610384565b60405180910390f35b610118610227565b6040516101259190610246565b60405180910390f35b60015481565b600460009054906101000a900463ffffffff1681565b60035481565b60008060003373ffffffffffffffffffffffffffffffffffffffff1673ffffffffffffffffffffffffffffffffffffffff16815260200190815260200160002090506001546002546101a29190610427565b600460009054906101000a900463ffffffff1663ffffffff16426101c69190610458565b6101d0919061048c565b6003546101dd91906104e6565b6003819055505050565b60006020528060005260406000206000915090508060000154908060010160009054906101000a900463ffffffff16908060020154908060030154905084565b60025481565b6000819050919050565b6102408161022d565b82525050565b600060208201905061025b6000830184610237565b92915050565b600063ffffffff82169050919050565b61027a81610261565b82525050565b60006020820190506102956000830184610271565b92915050565b600080fd5b6102a98161022d565b81146102b457600080fd5b50565b6000813590506102c6816102a0565b92915050565b6000602082840312156102e2576102e161029b565b5b60006102f0848285016102b7565b91505092915050565b600073ffffffffffffffffffffffffffffffffffffffff82169050919050565b6000610324826102f9565b9050919050565b61033481610319565b811461033f57600080fd5b50565b6000813590506103518161032b565b92915050565b60006020828403121561036d5761036c61029b565b5b600061037b84828501610342565b91505092915050565b60006080820190506103996000830187610237565b6103a66020830186610271565b6103b36040830185610237565b6103c06060830184610237565b95945050505050565b7f4e487b7100000000000000000000000000000000000000000000000000000000600052601260045260246000fd5b7f4e487b7100000000000000000000000000000000000000000000000000000000600052601160045260246000fd5b60006104328261022d565b915061043d8361022d565b92508261044d5761044c6103c9565b5b828204905092915050565b60006104638261022d565b915061046e8361022d565b925082821015610481576104806103f8565b5b828203905092915050565b60006104978261022d565b91506104a28361022d565b9250817fffffffffffffffffffffffffffffffffffffffffffffffffffffffffffffffff04831182151516156104db576104da6103f8565b5b828202905092915050565b60006104f18261022d565b91506104fc8361022d565b9250827fffffffffffffffffffffffffffffffffffffffffffffffffffffffffffffffff03821115610531576105306103f8565b5b82820190509291505056fea26469706673582212209ffb01d97512e511df61817d818cebd7b64a4e3896b03be02f6c312469939bff64736f6c634300080f0033",
					"opcodes": "PUSH1 0x80 PUSH1 0x40 MSTORE CALLVALUE DUP1 ISZERO PUSH2 0x10 JUMPI PUSH1 0x0 DUP1 REVERT JUMPDEST POP PUSH1 0x40 MLOAD PUSH2 0x649 CODESIZE SUB DUP1 PUSH2 0x649 DUP4 CODECOPY DUP2 DUP2 ADD PUSH1 0x40 MSTORE DUP2 ADD SWAP1 PUSH2 0x32 SWAP2 SWAP1 PUSH2 0x9B JUMP JUMPDEST DUP1 PUSH1 0x2 DUP2 SWAP1 SSTORE POP TIMESTAMP PUSH1 0x4 PUSH1 0x0 PUSH2 0x100 EXP DUP2 SLOAD DUP2 PUSH4 0xFFFFFFFF MUL NOT AND SWAP1 DUP4 PUSH4 0xFFFFFFFF AND MUL OR SWAP1 SSTORE POP POP PUSH2 0xC8 JUMP JUMPDEST PUSH1 0x0 DUP1 REVERT JUMPDEST PUSH1 0x0 DUP2 SWAP1 POP SWAP2 SWAP1 POP JUMP JUMPDEST PUSH2 0x78 DUP2 PUSH2 0x65 JUMP JUMPDEST DUP2 EQ PUSH2 0x83 JUMPI PUSH1 0x0 DUP1 REVERT JUMPDEST POP JUMP JUMPDEST PUSH1 0x0 DUP2 MLOAD SWAP1 POP PUSH2 0x95 DUP2 PUSH2 0x6F JUMP JUMPDEST SWAP3 SWAP2 POP POP JUMP JUMPDEST PUSH1 0x0 PUSH1 0x20 DUP3 DUP5 SUB SLT ISZERO PUSH2 0xB1 JUMPI PUSH2 0xB0 PUSH2 0x60 JUMP JUMPDEST JUMPDEST PUSH1 0x0 PUSH2 0xBF DUP5 DUP3 DUP6 ADD PUSH2 0x86 JUMP JUMPDEST SWAP2 POP POP SWAP3 SWAP2 POP POP JUMP JUMPDEST PUSH2 0x572 DUP1 PUSH2 0xD7 PUSH1 0x0 CODECOPY PUSH1 0x0 RETURN INVALID PUSH1 0x80 PUSH1 0x40 MSTORE CALLVALUE DUP1 ISZERO PUSH2 0x10 JUMPI PUSH1 0x0 DUP1 REVERT JUMPDEST POP PUSH1 0x4 CALLDATASIZE LT PUSH2 0x62 JUMPI PUSH1 0x0 CALLDATALOAD PUSH1 0xE0 SHR DUP1 PUSH4 0x4B5C8BDF EQ PUSH2 0x67 JUMPI DUP1 PUSH4 0x64D4DB10 EQ PUSH2 0x85 JUMPI DUP1 PUSH4 0x8D48C9C8 EQ PUSH2 0xA3 JUMPI DUP1 PUSH4 0xA694FC3A EQ PUSH2 0xC1 JUMPI DUP1 PUSH4 0xA87430BA EQ PUSH2 0xDD JUMPI DUP1 PUSH4 0xF20EAEB8 EQ PUSH2 0x110 JUMPI JUMPDEST PUSH1 0x0 DUP1 REVERT JUMPDEST PUSH2 0x6F PUSH2 0x12E JUMP JUMPDEST PUSH1 0x40 MLOAD PUSH2 0x7C SWAP2 SWAP1 PUSH2 0x246 JUMP JUMPDEST PUSH1 0x40 MLOAD DUP1 SWAP2 SUB SWAP1 RETURN JUMPDEST PUSH2 0x8D PUSH2 0x134 JUMP JUMPDEST PUSH1 0x40 MLOAD PUSH2 0x9A SWAP2 SWAP1 PUSH2 0x280 JUMP JUMPDEST PUSH1 0x40 MLOAD DUP1 SWAP2 SUB SWAP1 RETURN JUMPDEST PUSH2 0xAB PUSH2 0x14A JUMP JUMPDEST PUSH1 0x40 MLOAD PUSH2 0xB8 SWAP2 SWAP1 PUSH2 0x246 JUMP JUMPDEST PUSH1 0x40 MLOAD DUP1 SWAP2 SUB SWAP1 RETURN JUMPDEST PUSH2 0xDB PUSH1 0x4 DUP1 CALLDATASIZE SUB DUP2 ADD SWAP1 PUSH2 0xD6 SWAP2 SWAP1 PUSH2 0x2CC JUMP JUMPDEST PUSH2 0x150 JUMP JUMPDEST STOP JUMPDEST PUSH2 0xF7 PUSH1 0x4 DUP1 CALLDATASIZE SUB DUP2 ADD SWAP1 PUSH2 0xF2 SWAP2 SWAP1 PUSH2 0x357 JUMP JUMPDEST PUSH2 0x1E7 JUMP JUMPDEST PUSH1 0x40 MLOAD PUSH2 0x107 SWAP5 SWAP4 SWAP3 SWAP2 SWAP1 PUSH2 0x384 JUMP JUMPDEST PUSH1 0x40 MLOAD DUP1 SWAP2 SUB SWAP1 RETURN JUMPDEST PUSH2 0x118 PUSH2 0x227 JUMP JUMPDEST PUSH1 0x40 MLOAD PUSH2 0x125 SWAP2 SWAP1 PUSH2 0x246 JUMP JUMPDEST PUSH1 0x40 MLOAD DUP1 SWAP2 SUB SWAP1 RETURN JUMPDEST PUSH1 0x1 SLOAD DUP2 JUMP JUMPDEST PUSH1 0x4 PUSH1 0x0 SWAP1 SLOAD SWAP1 PUSH2 0x100 EXP SWAP1 DIV PUSH4 0xFFFFFFFF AND DUP2 JUMP JUMPDEST PUSH1 0x3 SLOAD DUP2 JUMP JUMPDEST PUSH1 0x0 DUP1 PUSH1 0x0 CALLER PUSH20 0xFFFFFFFFFFFFFFFFFFFFFFFFFFFFFFFFFFFFFFFF AND PUSH20 0xFFFFFFFFFFFFFFFFFFFFFFFFFFFFFFFFFFFFFFFF AND DUP2 MSTORE PUSH1 0x20 ADD SWAP1 DUP2 MSTORE PUSH1 0x20 ADD PUSH1 0x0 KECCAK256 SWAP1 POP PUSH1 0x1 SLOAD PUSH1 0x2 SLOAD PUSH2 0x1A2 SWAP2 SWAP1 PUSH2 0x427 JUMP JUMPDEST PUSH1 0x4 PUSH1 0x0 SWAP1 SLOAD SWAP1 PUSH2 0x100 EXP SWAP1 DIV PUSH4 0xFFFFFFFF AND PUSH4 0xFFFFFFFF AND TIMESTAMP PUSH2 0x1C6 SWAP2 SWAP1 PUSH2 0x458 JUMP JUMPDEST PUSH2 0x1D0 SWAP2 SWAP1 PUSH2 0x48C JUMP JUMPDEST PUSH1 0x3 SLOAD PUSH2 0x1DD SWAP2 SWAP1 PUSH2 0x4E6 JUMP JUMPDEST PUSH1 0x3 DUP2 SWAP1 SSTORE POP POP POP JUMP JUMPDEST PUSH1 0x0 PUSH1 0x20 MSTORE DUP1 PUSH1 0x0 MSTORE PUSH1 0x40 PUSH1 0x0 KECCAK256 PUSH1 0x0 SWAP2 POP SWAP1 POP DUP1 PUSH1 0x0 ADD SLOAD SWAP1 DUP1 PUSH1 0x1 ADD PUSH1 0x0 SWAP1 SLOAD SWAP1 PUSH2 0x100 EXP SWAP1 DIV PUSH4 0xFFFFFFFF AND SWAP1 DUP1 PUSH1 0x2 ADD SLOAD SWAP1 DUP1 PUSH1 0x3 ADD SLOAD SWAP1 POP DUP5 JUMP JUMPDEST PUSH1 0x2 SLOAD DUP2 JUMP JUMPDEST PUSH1 0x0 DUP2 SWAP1 POP SWAP2 SWAP1 POP JUMP JUMPDEST PUSH2 0x240 DUP2 PUSH2 0x22D JUMP JUMPDEST DUP3 MSTORE POP POP JUMP JUMPDEST PUSH1 0x0 PUSH1 0x20 DUP3 ADD SWAP1 POP PUSH2 0x25B PUSH1 0x0 DUP4 ADD DUP5 PUSH2 0x237 JUMP JUMPDEST SWAP3 SWAP2 POP POP JUMP JUMPDEST PUSH1 0x0 PUSH4 0xFFFFFFFF DUP3 AND SWAP1 POP SWAP2 SWAP1 POP JUMP JUMPDEST PUSH2 0x27A DUP2 PUSH2 0x261 JUMP JUMPDEST DUP3 MSTORE POP POP JUMP JUMPDEST PUSH1 0x0 PUSH1 0x20 DUP3 ADD SWAP1 POP PUSH2 0x295 PUSH1 0x0 DUP4 ADD DUP5 PUSH2 0x271 JUMP JUMPDEST SWAP3 SWAP2 POP POP JUMP JUMPDEST PUSH1 0x0 DUP1 REVERT JUMPDEST PUSH2 0x2A9 DUP2 PUSH2 0x22D JUMP JUMPDEST DUP2 EQ PUSH2 0x2B4 JUMPI PUSH1 0x0 DUP1 REVERT JUMPDEST POP JUMP JUMPDEST PUSH1 0x0 DUP2 CALLDATALOAD SWAP1 POP PUSH2 0x2C6 DUP2 PUSH2 0x2A0 JUMP JUMPDEST SWAP3 SWAP2 POP POP JUMP JUMPDEST PUSH1 0x0 PUSH1 0x20 DUP3 DUP5 SUB SLT ISZERO PUSH2 0x2E2 JUMPI PUSH2 0x2E1 PUSH2 0x29B JUMP JUMPDEST JUMPDEST PUSH1 0x0 PUSH2 0x2F0 DUP5 DUP3 DUP6 ADD PUSH2 0x2B7 JUMP JUMPDEST SWAP2 POP POP SWAP3 SWAP2 POP POP JUMP JUMPDEST PUSH1 0x0 PUSH20 0xFFFFFFFFFFFFFFFFFFFFFFFFFFFFFFFFFFFFFFFF DUP3 AND SWAP1 POP SWAP2 SWAP1 POP JUMP JUMPDEST PUSH1 0x0 PUSH2 0x324 DUP3 PUSH2 0x2F9 JUMP JUMPDEST SWAP1 POP SWAP2 SWAP1 POP JUMP JUMPDEST PUSH2 0x334 DUP2 PUSH2 0x319 JUMP JUMPDEST DUP2 EQ PUSH2 0x33F JUMPI PUSH1 0x0 DUP1 REVERT JUMPDEST POP JUMP JUMPDEST PUSH1 0x0 DUP2 CALLDATALOAD SWAP1 POP PUSH2 0x351 DUP2 PUSH2 0x32B JUMP JUMPDEST SWAP3 SWAP2 POP POP JUMP JUMPDEST PUSH1 0x0 PUSH1 0x20 DUP3 DUP5 SUB SLT ISZERO PUSH2 0x36D JUMPI PUSH2 0x36C PUSH2 0x29B JUMP JUMPDEST JUMPDEST PUSH1 0x0 PUSH2 0x37B DUP5 DUP3 DUP6 ADD PUSH2 0x342 JUMP JUMPDEST SWAP2 POP POP SWAP3 SWAP2 POP POP JUMP JUMPDEST PUSH1 0x0 PUSH1 0x80 DUP3 ADD SWAP1 POP PUSH2 0x399 PUSH1 0x0 DUP4 ADD DUP8 PUSH2 0x237 JUMP JUMPDEST PUSH2 0x3A6 PUSH1 0x20 DUP4 ADD DUP7 PUSH2 0x271 JUMP JUMPDEST PUSH2 0x3B3 PUSH1 0x40 DUP4 ADD DUP6 PUSH2 0x237 JUMP JUMPDEST PUSH2 0x3C0 PUSH1 0x60 DUP4 ADD DUP5 PUSH2 0x237 JUMP JUMPDEST SWAP6 SWAP5 POP POP POP POP POP JUMP JUMPDEST PUSH32 0x4E487B7100000000000000000000000000000000000000000000000000000000 PUSH1 0x0 MSTORE PUSH1 0x12 PUSH1 0x4 MSTORE PUSH1 0x24 PUSH1 0x0 REVERT JUMPDEST PUSH32 0x4E487B7100000000000000000000000000000000000000000000000000000000 PUSH1 0x0 MSTORE PUSH1 0x11 PUSH1 0x4 MSTORE PUSH1 0x24 PUSH1 0x0 REVERT JUMPDEST PUSH1 0x0 PUSH2 0x432 DUP3 PUSH2 0x22D JUMP JUMPDEST SWAP2 POP PUSH2 0x43D DUP4 PUSH2 0x22D JUMP JUMPDEST SWAP3 POP DUP3 PUSH2 0x44D JUMPI PUSH2 0x44C PUSH2 0x3C9 JUMP JUMPDEST JUMPDEST DUP3 DUP3 DIV SWAP1 POP SWAP3 SWAP2 POP POP JUMP JUMPDEST PUSH1 0x0 PUSH2 0x463 DUP3 PUSH2 0x22D JUMP JUMPDEST SWAP2 POP PUSH2 0x46E DUP4 PUSH2 0x22D JUMP JUMPDEST SWAP3 POP DUP3 DUP3 LT ISZERO PUSH2 0x481 JUMPI PUSH2 0x480 PUSH2 0x3F8 JUMP JUMPDEST JUMPDEST DUP3 DUP3 SUB SWAP1 POP SWAP3 SWAP2 POP POP JUMP JUMPDEST PUSH1 0x0 PUSH2 0x497 DUP3 PUSH2 0x22D JUMP JUMPDEST SWAP2 POP PUSH2 0x4A2 DUP4 PUSH2 0x22D JUMP JUMPDEST SWAP3 POP DUP2 PUSH32 0xFFFFFFFFFFFFFFFFFFFFFFFFFFFFFFFFFFFFFFFFFFFFFFFFFFFFFFFFFFFFFFFF DIV DUP4 GT DUP3 ISZERO ISZERO AND ISZERO PUSH2 0x4DB JUMPI PUSH2 0x4DA PUSH2 0x3F8 JUMP JUMPDEST JUMPDEST DUP3 DUP3 MUL SWAP1 POP SWAP3 SWAP2 POP POP JUMP JUMPDEST PUSH1 0x0 PUSH2 0x4F1 DUP3 PUSH2 0x22D JUMP JUMPDEST SWAP2 POP PUSH2 0x4FC DUP4 PUSH2 0x22D JUMP JUMPDEST SWAP3 POP DUP3 PUSH32 0xFFFFFFFFFFFFFFFFFFFFFFFFFFFFFFFFFFFFFFFFFFFFFFFFFFFFFFFFFFFFFFFF SUB DUP3 GT ISZERO PUSH2 0x531 JUMPI PUSH2 0x530 PUSH2 0x3F8 JUMP JUMPDEST JUMPDEST DUP3 DUP3 ADD SWAP1 POP SWAP3 SWAP2 POP POP JUMP INVALID LOG2 PUSH5 0x6970667358 0x22 SLT KECCAK256 SWAP16 0xFB ADD 0xD9 PUSH22 0x12E511DF61817D818CEBD7B64A4E3896B03BE02F6C31 0x24 PUSH10 0x939BFF64736F6C634300 ADDMOD 0xF STOP CALLER "
				},
				"gasEstimates": {
					"creation": {
						"codeDepositCost": "278800",
						"executionCost": "infinite",
						"totalCost": "infinite"
					},
					"external": {
						"lastStakeTime()": "2471",
						"output()": "2517",
						"rn()": "2451",
						"stake(uint256)": "infinite",
						"stakeTotal()": "2407",
						"users(address)": "infinite"
					}
				},
				"methodIdentifiers": {
					"lastStakeTime()": "64d4db10",
					"output()": "f20eaeb8",
					"rn()": "8d48c9c8",
					"stake(uint256)": "a694fc3a",
					"stakeTotal()": "4b5c8bdf",
					"users(address)": "a87430ba"
				}
			},
			"storageLayout": {
				"storage": [
					{
						"astId": 15,
						"contract": "contracts/SushiPool.sol:SushiPool",
						"label": "users",
						"offset": 0,
						"slot": "0",
						"type": "t_mapping(t_address,t_struct(User)10_storage)"
					},
					{
						"astId": 17,
						"contract": "contracts/SushiPool.sol:SushiPool",
						"label": "stakeTotal",
						"offset": 0,
						"slot": "1",
						"type": "t_uint256"
					},
					{
						"astId": 19,
						"contract": "contracts/SushiPool.sol:SushiPool",
						"label": "output",
						"offset": 0,
						"slot": "2",
						"type": "t_uint256"
					},
					{
						"astId": 21,
						"contract": "contracts/SushiPool.sol:SushiPool",
						"label": "rn",
						"offset": 0,
						"slot": "3",
						"type": "t_uint256"
					},
					{
						"astId": 23,
						"contract": "contracts/SushiPool.sol:SushiPool",
						"label": "lastStakeTime",
						"offset": 0,
						"slot": "4",
						"type": "t_uint32"
					}
				],
				"types": {
					"t_address": {
						"encoding": "inplace",
						"label": "address",
						"numberOfBytes": "20"
					},
					"t_mapping(t_address,t_struct(User)10_storage)": {
						"encoding": "mapping",
						"key": "t_address",
						"label": "mapping(address => struct SushiPool.User)",
						"numberOfBytes": "32",
						"value": "t_struct(User)10_storage"
					},
					"t_struct(User)10_storage": {
						"encoding": "inplace",
						"label": "struct SushiPool.User",
						"members": [
							{
								"astId": 3,
								"contract": "contracts/SushiPool.sol:SushiPool",
								"label": "stakeNumber",
								"offset": 0,
								"slot": "0",
								"type": "t_uint256"
							},
							{
								"astId": 5,
								"contract": "contracts/SushiPool.sol:SushiPool",
								"label": "stakeTime",
								"offset": 0,
								"slot": "1",
								"type": "t_uint32"
							},
							{
								"astId": 7,
								"contract": "contracts/SushiPool.sol:SushiPool",
								"label": "insert",
								"offset": 0,
								"slot": "2",
								"type": "t_uint256"
							},
							{
								"astId": 9,
								"contract": "contracts/SushiPool.sol:SushiPool",
								"label": "ru",
								"offset": 0,
								"slot": "3",
								"type": "t_uint256"
							}
						],
						"numberOfBytes": "128"
					},
					"t_uint256": {
						"encoding": "inplace",
						"label": "uint256",
						"numberOfBytes": "32"
					},
					"t_uint32": {
						"encoding": "inplace",
						"label": "uint32",
						"numberOfBytes": "4"
					}
				}
			},
			"userdoc": {
				"kind": "user",
				"methods": {
					"stake(uint256)": {
						"notice": "用户质押  amount 质押数量"
					}
				},
				"version": 1
			}
		}
	}
}