{
	"contracts/StakePool.sol": {
		"StakePool": {
			"abi": [
				{
					"inputs": [
						{
							"internalType": "address",
							"name": "_tokenAddress",
							"type": "address"
						}
					],
					"stateMutability": "nonpayable",
					"type": "constructor"
				},
				{
					"anonymous": false,
					"inputs": [
						{
							"indexed": true,
							"internalType": "address",
							"name": "user",
							"type": "address"
						},
						{
							"indexed": false,
							"internalType": "uint256",
							"name": "receiveNumber",
							"type": "uint256"
						}
					],
					"name": "Receive",
					"type": "event"
				},
				{
					"anonymous": false,
					"inputs": [
						{
							"indexed": true,
							"internalType": "address",
							"name": "user",
							"type": "address"
						},
						{
							"indexed": false,
							"internalType": "uint256",
							"name": "stakeNumber",
							"type": "uint256"
						}
					],
					"name": "Stake",
					"type": "event"
				},
				{
					"anonymous": false,
					"inputs": [
						{
							"indexed": true,
							"internalType": "address",
							"name": "user",
							"type": "address"
						},
						{
							"indexed": false,
							"internalType": "uint256",
							"name": "unStakeNumber",
							"type": "uint256"
						}
					],
					"name": "UnStake",
					"type": "event"
				},
				{
					"anonymous": false,
					"inputs": [
						{
							"indexed": false,
							"internalType": "uint8",
							"name": "ratio",
							"type": "uint8"
						}
					],
					"name": "UpdateRatio",
					"type": "event"
				},
				{
					"inputs": [],
					"name": "ierc20",
					"outputs": [
						{
							"internalType": "contract IERC20",
							"name": "",
							"type": "address"
						}
					],
					"stateMutability": "view",
					"type": "function"
				},
				{
					"inputs": [
						{
							"internalType": "address",
							"name": "_user",
							"type": "address"
						},
						{
							"internalType": "uint256",
							"name": "_stakeNumber",
							"type": "uint256"
						}
					],
					"name": "stake",
					"outputs": [],
					"stateMutability": "payable",
					"type": "function"
				},
				{
					"inputs": [],
					"name": "tokenAddress",
					"outputs": [
						{
							"internalType": "address",
							"name": "",
							"type": "address"
						}
					],
					"stateMutability": "view",
					"type": "function"
				},
				{
					"inputs": [],
					"name": "totalStakeNumber",
					"outputs": [
						{
							"internalType": "uint256",
							"name": "",
							"type": "uint256"
						}
					],
					"stateMutability": "view",
					"type": "function"
				},
				{
					"inputs": [
						{
							"internalType": "address",
							"name": "",
							"type": "address"
						}
					],
					"name": "userStakes",
					"outputs": [
						{
							"internalType": "address",
							"name": "userAddress",
							"type": "address"
						},
						{
							"internalType": "uint256",
							"name": "stakeNumber",
							"type": "uint256"
						},
						{
							"internalType": "uint256",
							"name": "currentInterest",
							"type": "uint256"
						},
						{
							"internalType": "uint256",
							"name": "claimedInterest",
							"type": "uint256"
						}
					],
					"stateMutability": "view",
					"type": "function"
				}
			],
			"devdoc": {
				"kind": "dev",
				"methods": {},
				"version": 1
			},
			"evm": {
				"assembly": "    /* \"contracts/StakePool.sol\":702:1558  contract StakePool{... */\n  mstore(0x40, 0x80)\n    /* \"contracts/StakePool.sol\":1172:1173  1 */\n  0x01\n    /* \"contracts/StakePool.sol\":1138:1173  uint256 public totalStakeNumber = 1 */\n  0x00\n  sstore\n    /* \"contracts/StakePool.sol\":1337:1457  constructor(address _tokenAddress) {... */\n  callvalue\n  dup1\n  iszero\n  tag_1\n  jumpi\n  0x00\n  dup1\n  revert\ntag_1:\n  pop\n  mload(0x40)\n  sub(codesize, bytecodeSize)\n  dup1\n  bytecodeSize\n  dup4\n  codecopy\n  dup2\n  dup2\n  add\n  0x40\n  mstore\n  dup2\n  add\n  swap1\n  tag_2\n  swap2\n  swap1\n  tag_3\n  jump\t// in\ntag_2:\n    /* \"contracts/StakePool.sol\":1397:1410  _tokenAddress */\n  dup1\n    /* \"contracts/StakePool.sol\":1382:1394  tokenAddress */\n  0x01\n  0x00\n    /* \"contracts/StakePool.sol\":1382:1410  tokenAddress = _tokenAddress */\n  0x0100\n  exp\n  dup2\n  sload\n  dup2\n  0xffffffffffffffffffffffffffffffffffffffff\n  mul\n  not\n  and\n  swap1\n  dup4\n  0xffffffffffffffffffffffffffffffffffffffff\n  and\n  mul\n  or\n  swap1\n  sstore\n  pop\n    /* \"contracts/StakePool.sol\":1436:1449  _tokenAddress */\n  dup1\n    /* \"contracts/StakePool.sol\":1420:1426  ierc20 */\n  0x03\n  0x00\n    /* \"contracts/StakePool.sol\":1420:1450  ierc20 = IERC20(_tokenAddress) */\n  0x0100\n  exp\n  dup2\n  sload\n  dup2\n  0xffffffffffffffffffffffffffffffffffffffff\n  mul\n  not\n  and\n  swap1\n  dup4\n  0xffffffffffffffffffffffffffffffffffffffff\n  and\n  mul\n  or\n  swap1\n  sstore\n  pop\n    /* \"contracts/StakePool.sol\":1337:1457  constructor(address _tokenAddress) {... */\n  pop\n    /* \"contracts/StakePool.sol\":702:1558  contract StakePool{... */\n  jump(tag_6)\n    /* \"#utility.yul\":88:205   */\ntag_8:\n    /* \"#utility.yul\":197:198   */\n  0x00\n    /* \"#utility.yul\":194:195   */\n  dup1\n    /* \"#utility.yul\":187:199   */\n  revert\n    /* \"#utility.yul\":334:460   */\ntag_10:\n    /* \"#utility.yul\":371:378   */\n  0x00\n    /* \"#utility.yul\":411:453   */\n  0xffffffffffffffffffffffffffffffffffffffff\n    /* \"#utility.yul\":404:409   */\n  dup3\n    /* \"#utility.yul\":400:454   */\n  and\n    /* \"#utility.yul\":389:454   */\n  swap1\n  pop\n    /* \"#utility.yul\":334:460   */\n  swap2\n  swap1\n  pop\n  jump\t// out\n    /* \"#utility.yul\":466:562   */\ntag_11:\n    /* \"#utility.yul\":503:510   */\n  0x00\n    /* \"#utility.yul\":532:556   */\n  tag_20\n    /* \"#utility.yul\":550:555   */\n  dup3\n    /* \"#utility.yul\":532:556   */\n  tag_10\n  jump\t// in\ntag_20:\n    /* \"#utility.yul\":521:556   */\n  swap1\n  pop\n    /* \"#utility.yul\":466:562   */\n  swap2\n  swap1\n  pop\n  jump\t// out\n    /* \"#utility.yul\":568:690   */\ntag_12:\n    /* \"#utility.yul\":641:665   */\n  tag_22\n    /* \"#utility.yul\":659:664   */\n  dup2\n    /* \"#utility.yul\":641:665   */\n  tag_11\n  jump\t// in\ntag_22:\n    /* \"#utility.yul\":634:639   */\n  dup2\n    /* \"#utility.yul\":631:666   */\n  eq\n    /* \"#utility.yul\":621:684   */\n  tag_23\n  jumpi\n    /* \"#utility.yul\":680:681   */\n  0x00\n    /* \"#utility.yul\":677:678   */\n  dup1\n    /* \"#utility.yul\":670:682   */\n  revert\n    /* \"#utility.yul\":621:684   */\ntag_23:\n    /* \"#utility.yul\":568:690   */\n  pop\n  jump\t// out\n    /* \"#utility.yul\":696:839   */\ntag_13:\n    /* \"#utility.yul\":753:758   */\n  0x00\n    /* \"#utility.yul\":784:790   */\n  dup2\n    /* \"#utility.yul\":778:791   */\n  mload\n    /* \"#utility.yul\":769:791   */\n  swap1\n  pop\n    /* \"#utility.yul\":800:833   */\n  tag_25\n    /* \"#utility.yul\":827:832   */\n  dup2\n    /* \"#utility.yul\":800:833   */\n  tag_12\n  jump\t// in\ntag_25:\n    /* \"#utility.yul\":696:839   */\n  swap3\n  swap2\n  pop\n  pop\n  jump\t// out\n    /* \"#utility.yul\":845:1196   */\ntag_3:\n    /* \"#utility.yul\":915:921   */\n  0x00\n    /* \"#utility.yul\":964:966   */\n  0x20\n    /* \"#utility.yul\":952:961   */\n  dup3\n    /* \"#utility.yul\":943:950   */\n  dup5\n    /* \"#utility.yul\":939:962   */\n  sub\n    /* \"#utility.yul\":935:967   */\n  slt\n    /* \"#utility.yul\":932:1051   */\n  iszero\n  tag_27\n  jumpi\n    /* \"#utility.yul\":970:1049   */\n  tag_28\n  tag_8\n  jump\t// in\ntag_28:\n    /* \"#utility.yul\":932:1051   */\ntag_27:\n    /* \"#utility.yul\":1090:1091   */\n  0x00\n    /* \"#utility.yul\":1115:1179   */\n  tag_29\n    /* \"#utility.yul\":1171:1178   */\n  dup5\n    /* \"#utility.yul\":1162:1168   */\n  dup3\n    /* \"#utility.yul\":1151:1160   */\n  dup6\n    /* \"#utility.yul\":1147:1169   */\n  add\n    /* \"#utility.yul\":1115:1179   */\n  tag_13\n  jump\t// in\ntag_29:\n    /* \"#utility.yul\":1105:1179   */\n  swap2\n  pop\n    /* \"#utility.yul\":1061:1189   */\n  pop\n    /* \"#utility.yul\":845:1196   */\n  swap3\n  swap2\n  pop\n  pop\n  jump\t// out\n    /* \"contracts/StakePool.sol\":702:1558  contract StakePool{... */\ntag_6:\n  dataSize(sub_0)\n  dup1\n  dataOffset(sub_0)\n  0x00\n  codecopy\n  0x00\n  return\nstop\n\nsub_0: assembly {\n        /* \"contracts/StakePool.sol\":702:1558  contract StakePool{... */\n      mstore(0x40, 0x80)\n      jumpi(tag_1, lt(calldatasize, 0x04))\n      shr(0xe0, calldataload(0x00))\n      dup1\n      0x53b645e5\n      eq\n      tag_2\n      jumpi\n      dup1\n      0x8da7ad23\n      eq\n      tag_3\n      jumpi\n      dup1\n      0x9d76ea58\n      eq\n      tag_4\n      jumpi\n      dup1\n      0xadc9772e\n      eq\n      tag_5\n      jumpi\n      dup1\n      0xbf0ae63d\n      eq\n      tag_6\n      jumpi\n    tag_1:\n      0x00\n      dup1\n      revert\n        /* \"contracts/StakePool.sol\":1138:1173  uint256 public totalStakeNumber = 1 */\n    tag_2:\n      callvalue\n      dup1\n      iszero\n      tag_7\n      jumpi\n      0x00\n      dup1\n      revert\n    tag_7:\n      pop\n      tag_8\n      tag_9\n      jump\t// in\n    tag_8:\n      mload(0x40)\n      tag_10\n      swap2\n      swap1\n      tag_11\n      jump\t// in\n    tag_10:\n      mload(0x40)\n      dup1\n      swap2\n      sub\n      swap1\n      return\n        /* \"contracts/StakePool.sol\":1258:1300  mapping(address => User) public userStakes */\n    tag_3:\n      callvalue\n      dup1\n      iszero\n      tag_12\n      jumpi\n      0x00\n      dup1\n      revert\n    tag_12:\n      pop\n      tag_13\n      0x04\n      dup1\n      calldatasize\n      sub\n      dup2\n      add\n      swap1\n      tag_14\n      swap2\n      swap1\n      tag_15\n      jump\t// in\n    tag_14:\n      tag_16\n      jump\t// in\n    tag_13:\n      mload(0x40)\n      tag_17\n      swap5\n      swap4\n      swap3\n      swap2\n      swap1\n      tag_18\n      jump\t// in\n    tag_17:\n      mload(0x40)\n      dup1\n      swap2\n      sub\n      swap1\n      return\n        /* \"contracts/StakePool.sol\":1199:1226  address public tokenAddress */\n    tag_4:\n      callvalue\n      dup1\n      iszero\n      tag_19\n      jumpi\n      0x00\n      dup1\n      revert\n    tag_19:\n      pop\n      tag_20\n      tag_21\n      jump\t// in\n    tag_20:\n      mload(0x40)\n      tag_22\n      swap2\n      swap1\n      tag_23\n      jump\t// in\n    tag_22:\n      mload(0x40)\n      dup1\n      swap2\n      sub\n      swap1\n      return\n        /* \"contracts/StakePool.sol\":1467:1552  function stake(address _user, uint256 _stakeNumber) external payable {... */\n    tag_5:\n      tag_24\n      0x04\n      dup1\n      calldatasize\n      sub\n      dup2\n      add\n      swap1\n      tag_25\n      swap2\n      swap1\n      tag_26\n      jump\t// in\n    tag_25:\n      tag_27\n      jump\t// in\n    tag_24:\n      stop\n        /* \"contracts/StakePool.sol\":1306:1326  IERC20 public ierc20 */\n    tag_6:\n      callvalue\n      dup1\n      iszero\n      tag_28\n      jumpi\n      0x00\n      dup1\n      revert\n    tag_28:\n      pop\n      tag_29\n      tag_30\n      jump\t// in\n    tag_29:\n      mload(0x40)\n      tag_31\n      swap2\n      swap1\n      tag_32\n      jump\t// in\n    tag_31:\n      mload(0x40)\n      dup1\n      swap2\n      sub\n      swap1\n      return\n        /* \"contracts/StakePool.sol\":1138:1173  uint256 public totalStakeNumber = 1 */\n    tag_9:\n      sload(0x00)\n      dup2\n      jump\t// out\n        /* \"contracts/StakePool.sol\":1258:1300  mapping(address => User) public userStakes */\n    tag_16:\n      mstore(0x20, 0x02)\n      dup1\n      0x00\n      mstore\n      keccak256(0x00, 0x40)\n      0x00\n      swap2\n      pop\n      swap1\n      pop\n      dup1\n      0x00\n      add\n      0x00\n      swap1\n      sload\n      swap1\n      0x0100\n      exp\n      swap1\n      div\n      0xffffffffffffffffffffffffffffffffffffffff\n      and\n      swap1\n      dup1\n      0x01\n      add\n      sload\n      swap1\n      dup1\n      0x02\n      add\n      sload\n      swap1\n      dup1\n      0x03\n      add\n      sload\n      swap1\n      pop\n      dup5\n      jump\t// out\n        /* \"contracts/StakePool.sol\":1199:1226  address public tokenAddress */\n    tag_21:\n      0x01\n      0x00\n      swap1\n      sload\n      swap1\n      0x0100\n      exp\n      swap1\n      div\n      0xffffffffffffffffffffffffffffffffffffffff\n      and\n      dup2\n      jump\t// out\n        /* \"contracts/StakePool.sol\":1467:1552  function stake(address _user, uint256 _stakeNumber) external payable {... */\n    tag_27:\n      pop\n      pop\n      jump\t// out\n        /* \"contracts/StakePool.sol\":1306:1326  IERC20 public ierc20 */\n    tag_30:\n      0x03\n      0x00\n      swap1\n      sload\n      swap1\n      0x0100\n      exp\n      swap1\n      div\n      0xffffffffffffffffffffffffffffffffffffffff\n      and\n      dup2\n      jump\t// out\n        /* \"#utility.yul\":7:84   */\n    tag_34:\n        /* \"#utility.yul\":44:51   */\n      0x00\n        /* \"#utility.yul\":73:78   */\n      dup2\n        /* \"#utility.yul\":62:78   */\n      swap1\n      pop\n        /* \"#utility.yul\":7:84   */\n      swap2\n      swap1\n      pop\n      jump\t// out\n        /* \"#utility.yul\":90:208   */\n    tag_35:\n        /* \"#utility.yul\":177:201   */\n      tag_54\n        /* \"#utility.yul\":195:200   */\n      dup2\n        /* \"#utility.yul\":177:201   */\n      tag_34\n      jump\t// in\n    tag_54:\n        /* \"#utility.yul\":172:175   */\n      dup3\n        /* \"#utility.yul\":165:202   */\n      mstore\n        /* \"#utility.yul\":90:208   */\n      pop\n      pop\n      jump\t// out\n        /* \"#utility.yul\":214:436   */\n    tag_11:\n        /* \"#utility.yul\":307:311   */\n      0x00\n        /* \"#utility.yul\":345:347   */\n      0x20\n        /* \"#utility.yul\":334:343   */\n      dup3\n        /* \"#utility.yul\":330:348   */\n      add\n        /* \"#utility.yul\":322:348   */\n      swap1\n      pop\n        /* \"#utility.yul\":358:429   */\n      tag_56\n        /* \"#utility.yul\":426:427   */\n      0x00\n        /* \"#utility.yul\":415:424   */\n      dup4\n        /* \"#utility.yul\":411:428   */\n      add\n        /* \"#utility.yul\":402:408   */\n      dup5\n        /* \"#utility.yul\":358:429   */\n      tag_35\n      jump\t// in\n    tag_56:\n        /* \"#utility.yul\":214:436   */\n      swap3\n      swap2\n      pop\n      pop\n      jump\t// out\n        /* \"#utility.yul\":523:640   */\n    tag_37:\n        /* \"#utility.yul\":632:633   */\n      0x00\n        /* \"#utility.yul\":629:630   */\n      dup1\n        /* \"#utility.yul\":622:634   */\n      revert\n        /* \"#utility.yul\":769:895   */\n    tag_39:\n        /* \"#utility.yul\":806:813   */\n      0x00\n        /* \"#utility.yul\":846:888   */\n      0xffffffffffffffffffffffffffffffffffffffff\n        /* \"#utility.yul\":839:844   */\n      dup3\n        /* \"#utility.yul\":835:889   */\n      and\n        /* \"#utility.yul\":824:889   */\n      swap1\n      pop\n        /* \"#utility.yul\":769:895   */\n      swap2\n      swap1\n      pop\n      jump\t// out\n        /* \"#utility.yul\":901:997   */\n    tag_40:\n        /* \"#utility.yul\":938:945   */\n      0x00\n        /* \"#utility.yul\":967:991   */\n      tag_62\n        /* \"#utility.yul\":985:990   */\n      dup3\n        /* \"#utility.yul\":967:991   */\n      tag_39\n      jump\t// in\n    tag_62:\n        /* \"#utility.yul\":956:991   */\n      swap1\n      pop\n        /* \"#utility.yul\":901:997   */\n      swap2\n      swap1\n      pop\n      jump\t// out\n        /* \"#utility.yul\":1003:1125   */\n    tag_41:\n        /* \"#utility.yul\":1076:1100   */\n      tag_64\n        /* \"#utility.yul\":1094:1099   */\n      dup2\n        /* \"#utility.yul\":1076:1100   */\n      tag_40\n      jump\t// in\n    tag_64:\n        /* \"#utility.yul\":1069:1074   */\n      dup2\n        /* \"#utility.yul\":1066:1101   */\n      eq\n        /* \"#utility.yul\":1056:1119   */\n      tag_65\n      jumpi\n        /* \"#utility.yul\":1115:1116   */\n      0x00\n        /* \"#utility.yul\":1112:1113   */\n      dup1\n        /* \"#utility.yul\":1105:1117   */\n      revert\n        /* \"#utility.yul\":1056:1119   */\n    tag_65:\n        /* \"#utility.yul\":1003:1125   */\n      pop\n      jump\t// out\n        /* \"#utility.yul\":1131:1270   */\n    tag_42:\n        /* \"#utility.yul\":1177:1182   */\n      0x00\n        /* \"#utility.yul\":1215:1221   */\n      dup2\n        /* \"#utility.yul\":1202:1222   */\n      calldataload\n        /* \"#utility.yul\":1193:1222   */\n      swap1\n      pop\n        /* \"#utility.yul\":1231:1264   */\n      tag_67\n        /* \"#utility.yul\":1258:1263   */\n      dup2\n        /* \"#utility.yul\":1231:1264   */\n      tag_41\n      jump\t// in\n    tag_67:\n        /* \"#utility.yul\":1131:1270   */\n      swap3\n      swap2\n      pop\n      pop\n      jump\t// out\n        /* \"#utility.yul\":1276:1605   */\n    tag_15:\n        /* \"#utility.yul\":1335:1341   */\n      0x00\n        /* \"#utility.yul\":1384:1386   */\n      0x20\n        /* \"#utility.yul\":1372:1381   */\n      dup3\n        /* \"#utility.yul\":1363:1370   */\n      dup5\n        /* \"#utility.yul\":1359:1382   */\n      sub\n        /* \"#utility.yul\":1355:1387   */\n      slt\n        /* \"#utility.yul\":1352:1471   */\n      iszero\n      tag_69\n      jumpi\n        /* \"#utility.yul\":1390:1469   */\n      tag_70\n      tag_37\n      jump\t// in\n    tag_70:\n        /* \"#utility.yul\":1352:1471   */\n    tag_69:\n        /* \"#utility.yul\":1510:1511   */\n      0x00\n        /* \"#utility.yul\":1535:1588   */\n      tag_71\n        /* \"#utility.yul\":1580:1587   */\n      dup5\n        /* \"#utility.yul\":1571:1577   */\n      dup3\n        /* \"#utility.yul\":1560:1569   */\n      dup6\n        /* \"#utility.yul\":1556:1578   */\n      add\n        /* \"#utility.yul\":1535:1588   */\n      tag_42\n      jump\t// in\n    tag_71:\n        /* \"#utility.yul\":1525:1588   */\n      swap2\n      pop\n        /* \"#utility.yul\":1481:1598   */\n      pop\n        /* \"#utility.yul\":1276:1605   */\n      swap3\n      swap2\n      pop\n      pop\n      jump\t// out\n        /* \"#utility.yul\":1611:1729   */\n    tag_43:\n        /* \"#utility.yul\":1698:1722   */\n      tag_73\n        /* \"#utility.yul\":1716:1721   */\n      dup2\n        /* \"#utility.yul\":1698:1722   */\n      tag_40\n      jump\t// in\n    tag_73:\n        /* \"#utility.yul\":1693:1696   */\n      dup3\n        /* \"#utility.yul\":1686:1723   */\n      mstore\n        /* \"#utility.yul\":1611:1729   */\n      pop\n      pop\n      jump\t// out\n        /* \"#utility.yul\":1735:2288   */\n    tag_18:\n        /* \"#utility.yul\":1912:1916   */\n      0x00\n        /* \"#utility.yul\":1950:1953   */\n      0x80\n        /* \"#utility.yul\":1939:1948   */\n      dup3\n        /* \"#utility.yul\":1935:1954   */\n      add\n        /* \"#utility.yul\":1927:1954   */\n      swap1\n      pop\n        /* \"#utility.yul\":1964:2035   */\n      tag_75\n        /* \"#utility.yul\":2032:2033   */\n      0x00\n        /* \"#utility.yul\":2021:2030   */\n      dup4\n        /* \"#utility.yul\":2017:2034   */\n      add\n        /* \"#utility.yul\":2008:2014   */\n      dup8\n        /* \"#utility.yul\":1964:2035   */\n      tag_43\n      jump\t// in\n    tag_75:\n        /* \"#utility.yul\":2045:2117   */\n      tag_76\n        /* \"#utility.yul\":2113:2115   */\n      0x20\n        /* \"#utility.yul\":2102:2111   */\n      dup4\n        /* \"#utility.yul\":2098:2116   */\n      add\n        /* \"#utility.yul\":2089:2095   */\n      dup7\n        /* \"#utility.yul\":2045:2117   */\n      tag_35\n      jump\t// in\n    tag_76:\n        /* \"#utility.yul\":2127:2199   */\n      tag_77\n        /* \"#utility.yul\":2195:2197   */\n      0x40\n        /* \"#utility.yul\":2184:2193   */\n      dup4\n        /* \"#utility.yul\":2180:2198   */\n      add\n        /* \"#utility.yul\":2171:2177   */\n      dup6\n        /* \"#utility.yul\":2127:2199   */\n      tag_35\n      jump\t// in\n    tag_77:\n        /* \"#utility.yul\":2209:2281   */\n      tag_78\n        /* \"#utility.yul\":2277:2279   */\n      0x60\n        /* \"#utility.yul\":2266:2275   */\n      dup4\n        /* \"#utility.yul\":2262:2280   */\n      add\n        /* \"#utility.yul\":2253:2259   */\n      dup5\n        /* \"#utility.yul\":2209:2281   */\n      tag_35\n      jump\t// in\n    tag_78:\n        /* \"#utility.yul\":1735:2288   */\n      swap6\n      swap5\n      pop\n      pop\n      pop\n      pop\n      pop\n      jump\t// out\n        /* \"#utility.yul\":2294:2516   */\n    tag_23:\n        /* \"#utility.yul\":2387:2391   */\n      0x00\n        /* \"#utility.yul\":2425:2427   */\n      0x20\n        /* \"#utility.yul\":2414:2423   */\n      dup3\n        /* \"#utility.yul\":2410:2428   */\n      add\n        /* \"#utility.yul\":2402:2428   */\n      swap1\n      pop\n        /* \"#utility.yul\":2438:2509   */\n      tag_80\n        /* \"#utility.yul\":2506:2507   */\n      0x00\n        /* \"#utility.yul\":2495:2504   */\n      dup4\n        /* \"#utility.yul\":2491:2508   */\n      add\n        /* \"#utility.yul\":2482:2488   */\n      dup5\n        /* \"#utility.yul\":2438:2509   */\n      tag_43\n      jump\t// in\n    tag_80:\n        /* \"#utility.yul\":2294:2516   */\n      swap3\n      swap2\n      pop\n      pop\n      jump\t// out\n        /* \"#utility.yul\":2522:2644   */\n    tag_44:\n        /* \"#utility.yul\":2595:2619   */\n      tag_82\n        /* \"#utility.yul\":2613:2618   */\n      dup2\n        /* \"#utility.yul\":2595:2619   */\n      tag_34\n      jump\t// in\n    tag_82:\n        /* \"#utility.yul\":2588:2593   */\n      dup2\n        /* \"#utility.yul\":2585:2620   */\n      eq\n        /* \"#utility.yul\":2575:2638   */\n      tag_83\n      jumpi\n        /* \"#utility.yul\":2634:2635   */\n      0x00\n        /* \"#utility.yul\":2631:2632   */\n      dup1\n        /* \"#utility.yul\":2624:2636   */\n      revert\n        /* \"#utility.yul\":2575:2638   */\n    tag_83:\n        /* \"#utility.yul\":2522:2644   */\n      pop\n      jump\t// out\n        /* \"#utility.yul\":2650:2789   */\n    tag_45:\n        /* \"#utility.yul\":2696:2701   */\n      0x00\n        /* \"#utility.yul\":2734:2740   */\n      dup2\n        /* \"#utility.yul\":2721:2741   */\n      calldataload\n        /* \"#utility.yul\":2712:2741   */\n      swap1\n      pop\n        /* \"#utility.yul\":2750:2783   */\n      tag_85\n        /* \"#utility.yul\":2777:2782   */\n      dup2\n        /* \"#utility.yul\":2750:2783   */\n      tag_44\n      jump\t// in\n    tag_85:\n        /* \"#utility.yul\":2650:2789   */\n      swap3\n      swap2\n      pop\n      pop\n      jump\t// out\n        /* \"#utility.yul\":2795:3269   */\n    tag_26:\n        /* \"#utility.yul\":2863:2869   */\n      0x00\n        /* \"#utility.yul\":2871:2877   */\n      dup1\n        /* \"#utility.yul\":2920:2922   */\n      0x40\n        /* \"#utility.yul\":2908:2917   */\n      dup4\n        /* \"#utility.yul\":2899:2906   */\n      dup6\n        /* \"#utility.yul\":2895:2918   */\n      sub\n        /* \"#utility.yul\":2891:2923   */\n      slt\n        /* \"#utility.yul\":2888:3007   */\n      iszero\n      tag_87\n      jumpi\n        /* \"#utility.yul\":2926:3005   */\n      tag_88\n      tag_37\n      jump\t// in\n    tag_88:\n        /* \"#utility.yul\":2888:3007   */\n    tag_87:\n        /* \"#utility.yul\":3046:3047   */\n      0x00\n        /* \"#utility.yul\":3071:3124   */\n      tag_89\n        /* \"#utility.yul\":3116:3123   */\n      dup6\n        /* \"#utility.yul\":3107:3113   */\n      dup3\n        /* \"#utility.yul\":3096:3105   */\n      dup7\n        /* \"#utility.yul\":3092:3114   */\n      add\n        /* \"#utility.yul\":3071:3124   */\n      tag_42\n      jump\t// in\n    tag_89:\n        /* \"#utility.yul\":3061:3124   */\n      swap3\n      pop\n        /* \"#utility.yul\":3017:3134   */\n      pop\n        /* \"#utility.yul\":3173:3175   */\n      0x20\n        /* \"#utility.yul\":3199:3252   */\n      tag_90\n        /* \"#utility.yul\":3244:3251   */\n      dup6\n        /* \"#utility.yul\":3235:3241   */\n      dup3\n        /* \"#utility.yul\":3224:3233   */\n      dup7\n        /* \"#utility.yul\":3220:3242   */\n      add\n        /* \"#utility.yul\":3199:3252   */\n      tag_45\n      jump\t// in\n    tag_90:\n        /* \"#utility.yul\":3189:3252   */\n      swap2\n      pop\n        /* \"#utility.yul\":3144:3262   */\n      pop\n        /* \"#utility.yul\":2795:3269   */\n      swap3\n      pop\n      swap3\n      swap1\n      pop\n      jump\t// out\n        /* \"#utility.yul\":3275:3335   */\n    tag_46:\n        /* \"#utility.yul\":3303:3306   */\n      0x00\n        /* \"#utility.yul\":3324:3329   */\n      dup2\n        /* \"#utility.yul\":3317:3329   */\n      swap1\n      pop\n        /* \"#utility.yul\":3275:3335   */\n      swap2\n      swap1\n      pop\n      jump\t// out\n        /* \"#utility.yul\":3341:3483   */\n    tag_47:\n        /* \"#utility.yul\":3391:3400   */\n      0x00\n        /* \"#utility.yul\":3424:3477   */\n      tag_93\n        /* \"#utility.yul\":3442:3476   */\n      tag_94\n        /* \"#utility.yul\":3451:3475   */\n      tag_95\n        /* \"#utility.yul\":3469:3474   */\n      dup5\n        /* \"#utility.yul\":3451:3475   */\n      tag_39\n      jump\t// in\n    tag_95:\n        /* \"#utility.yul\":3442:3476   */\n      tag_46\n      jump\t// in\n    tag_94:\n        /* \"#utility.yul\":3424:3477   */\n      tag_39\n      jump\t// in\n    tag_93:\n        /* \"#utility.yul\":3411:3477   */\n      swap1\n      pop\n        /* \"#utility.yul\":3341:3483   */\n      swap2\n      swap1\n      pop\n      jump\t// out\n        /* \"#utility.yul\":3489:3615   */\n    tag_48:\n        /* \"#utility.yul\":3539:3548   */\n      0x00\n        /* \"#utility.yul\":3572:3609   */\n      tag_97\n        /* \"#utility.yul\":3603:3608   */\n      dup3\n        /* \"#utility.yul\":3572:3609   */\n      tag_47\n      jump\t// in\n    tag_97:\n        /* \"#utility.yul\":3559:3609   */\n      swap1\n      pop\n        /* \"#utility.yul\":3489:3615   */\n      swap2\n      swap1\n      pop\n      jump\t// out\n        /* \"#utility.yul\":3621:3760   */\n    tag_49:\n        /* \"#utility.yul\":3684:3693   */\n      0x00\n        /* \"#utility.yul\":3717:3754   */\n      tag_99\n        /* \"#utility.yul\":3748:3753   */\n      dup3\n        /* \"#utility.yul\":3717:3754   */\n      tag_48\n      jump\t// in\n    tag_99:\n        /* \"#utility.yul\":3704:3754   */\n      swap1\n      pop\n        /* \"#utility.yul\":3621:3760   */\n      swap2\n      swap1\n      pop\n      jump\t// out\n        /* \"#utility.yul\":3766:3923   */\n    tag_50:\n        /* \"#utility.yul\":3866:3916   */\n      tag_101\n        /* \"#utility.yul\":3910:3915   */\n      dup2\n        /* \"#utility.yul\":3866:3916   */\n      tag_49\n      jump\t// in\n    tag_101:\n        /* \"#utility.yul\":3861:3864   */\n      dup3\n        /* \"#utility.yul\":3854:3917   */\n      mstore\n        /* \"#utility.yul\":3766:3923   */\n      pop\n      pop\n      jump\t// out\n        /* \"#utility.yul\":3929:4177   */\n    tag_32:\n        /* \"#utility.yul\":4035:4039   */\n      0x00\n        /* \"#utility.yul\":4073:4075   */\n      0x20\n        /* \"#utility.yul\":4062:4071   */\n      dup3\n        /* \"#utility.yul\":4058:4076   */\n      add\n        /* \"#utility.yul\":4050:4076   */\n      swap1\n      pop\n        /* \"#utility.yul\":4086:4170   */\n      tag_103\n        /* \"#utility.yul\":4167:4168   */\n      0x00\n        /* \"#utility.yul\":4156:4165   */\n      dup4\n        /* \"#utility.yul\":4152:4169   */\n      add\n        /* \"#utility.yul\":4143:4149   */\n      dup5\n        /* \"#utility.yul\":4086:4170   */\n      tag_50\n      jump\t// in\n    tag_103:\n        /* \"#utility.yul\":3929:4177   */\n      swap3\n      swap2\n      pop\n      pop\n      jump\t// out\n\n    auxdata: 0xa264697066735822122070d7bcd650f5df13be6eaa51e732af9d153869918a047b0dd07114921ce48da964736f6c634300080f0033\n}\n",
				"bytecode": {
					"linkReferences": {},
					"object": "6080604052600160005534801561001557600080fd5b5060405161057f38038061057f83398181016040528101906100379190610122565b80600160006101000a81548173ffffffffffffffffffffffffffffffffffffffff021916908373ffffffffffffffffffffffffffffffffffffffff16021790555080600360006101000a81548173ffffffffffffffffffffffffffffffffffffffff021916908373ffffffffffffffffffffffffffffffffffffffff1602179055505061014f565b600080fd5b600073ffffffffffffffffffffffffffffffffffffffff82169050919050565b60006100ef826100c4565b9050919050565b6100ff816100e4565b811461010a57600080fd5b50565b60008151905061011c816100f6565b92915050565b600060208284031215610138576101376100bf565b5b60006101468482850161010d565b91505092915050565b6104218061015e6000396000f3fe60806040526004361061004a5760003560e01c806353b645e51461004f5780638da7ad231461007a5780639d76ea58146100ba578063adc9772e146100e5578063bf0ae63d14610101575b600080fd5b34801561005b57600080fd5b5061006461012c565b60405161007191906101eb565b60405180910390f35b34801561008657600080fd5b506100a1600480360381019061009c9190610269565b610132565b6040516100b194939291906102a5565b60405180910390f35b3480156100c657600080fd5b506100cf610182565b6040516100dc91906102ea565b60405180910390f35b6100ff60048036038101906100fa9190610331565b6101a8565b005b34801561010d57600080fd5b506101166101ac565b60405161012391906103d0565b60405180910390f35b60005481565b60026020528060005260406000206000915090508060000160009054906101000a900473ffffffffffffffffffffffffffffffffffffffff16908060010154908060020154908060030154905084565b600160009054906101000a900473ffffffffffffffffffffffffffffffffffffffff1681565b5050565b600360009054906101000a900473ffffffffffffffffffffffffffffffffffffffff1681565b6000819050919050565b6101e5816101d2565b82525050565b600060208201905061020060008301846101dc565b92915050565b600080fd5b600073ffffffffffffffffffffffffffffffffffffffff82169050919050565b60006102368261020b565b9050919050565b6102468161022b565b811461025157600080fd5b50565b6000813590506102638161023d565b92915050565b60006020828403121561027f5761027e610206565b5b600061028d84828501610254565b91505092915050565b61029f8161022b565b82525050565b60006080820190506102ba6000830187610296565b6102c760208301866101dc565b6102d460408301856101dc565b6102e160608301846101dc565b95945050505050565b60006020820190506102ff6000830184610296565b92915050565b61030e816101d2565b811461031957600080fd5b50565b60008135905061032b81610305565b92915050565b6000806040838503121561034857610347610206565b5b600061035685828601610254565b92505060206103678582860161031c565b9150509250929050565b6000819050919050565b600061039661039161038c8461020b565b610371565b61020b565b9050919050565b60006103a88261037b565b9050919050565b60006103ba8261039d565b9050919050565b6103ca816103af565b82525050565b60006020820190506103e560008301846103c1565b9291505056fea264697066735822122070d7bcd650f5df13be6eaa51e732af9d153869918a047b0dd07114921ce48da964736f6c634300080f0033",
					"opcodes": "PUSH1 0x80 PUSH1 0x40 MSTORE PUSH1 0x1 PUSH1 0x0 SSTORE CALLVALUE DUP1 ISZERO PUSH2 0x15 JUMPI PUSH1 0x0 DUP1 REVERT JUMPDEST POP PUSH1 0x40 MLOAD PUSH2 0x57F CODESIZE SUB DUP1 PUSH2 0x57F DUP4 CODECOPY DUP2 DUP2 ADD PUSH1 0x40 MSTORE DUP2 ADD SWAP1 PUSH2 0x37 SWAP2 SWAP1 PUSH2 0x122 JUMP JUMPDEST DUP1 PUSH1 0x1 PUSH1 0x0 PUSH2 0x100 EXP DUP2 SLOAD DUP2 PUSH20 0xFFFFFFFFFFFFFFFFFFFFFFFFFFFFFFFFFFFFFFFF MUL NOT AND SWAP1 DUP4 PUSH20 0xFFFFFFFFFFFFFFFFFFFFFFFFFFFFFFFFFFFFFFFF AND MUL OR SWAP1 SSTORE POP DUP1 PUSH1 0x3 PUSH1 0x0 PUSH2 0x100 EXP DUP2 SLOAD DUP2 PUSH20 0xFFFFFFFFFFFFFFFFFFFFFFFFFFFFFFFFFFFFFFFF MUL NOT AND SWAP1 DUP4 PUSH20 0xFFFFFFFFFFFFFFFFFFFFFFFFFFFFFFFFFFFFFFFF AND MUL OR SWAP1 SSTORE POP POP PUSH2 0x14F JUMP JUMPDEST PUSH1 0x0 DUP1 REVERT JUMPDEST PUSH1 0x0 PUSH20 0xFFFFFFFFFFFFFFFFFFFFFFFFFFFFFFFFFFFFFFFF DUP3 AND SWAP1 POP SWAP2 SWAP1 POP JUMP JUMPDEST PUSH1 0x0 PUSH2 0xEF DUP3 PUSH2 0xC4 JUMP JUMPDEST SWAP1 POP SWAP2 SWAP1 POP JUMP JUMPDEST PUSH2 0xFF DUP2 PUSH2 0xE4 JUMP JUMPDEST DUP2 EQ PUSH2 0x10A JUMPI PUSH1 0x0 DUP1 REVERT JUMPDEST POP JUMP JUMPDEST PUSH1 0x0 DUP2 MLOAD SWAP1 POP PUSH2 0x11C DUP2 PUSH2 0xF6 JUMP JUMPDEST SWAP3 SWAP2 POP POP JUMP JUMPDEST PUSH1 0x0 PUSH1 0x20 DUP3 DUP5 SUB SLT ISZERO PUSH2 0x138 JUMPI PUSH2 0x137 PUSH2 0xBF JUMP JUMPDEST JUMPDEST PUSH1 0x0 PUSH2 0x146 DUP5 DUP3 DUP6 ADD PUSH2 0x10D JUMP JUMPDEST SWAP2 POP POP SWAP3 SWAP2 POP POP JUMP JUMPDEST PUSH2 0x421 DUP1 PUSH2 0x15E PUSH1 0x0 CODECOPY PUSH1 0x0 RETURN INVALID PUSH1 0x80 PUSH1 0x40 MSTORE PUSH1 0x4 CALLDATASIZE LT PUSH2 0x4A JUMPI PUSH1 0x0 CALLDATALOAD PUSH1 0xE0 SHR DUP1 PUSH4 0x53B645E5 EQ PUSH2 0x4F JUMPI DUP1 PUSH4 0x8DA7AD23 EQ PUSH2 0x7A JUMPI DUP1 PUSH4 0x9D76EA58 EQ PUSH2 0xBA JUMPI DUP1 PUSH4 0xADC9772E EQ PUSH2 0xE5 JUMPI DUP1 PUSH4 0xBF0AE63D EQ PUSH2 0x101 JUMPI JUMPDEST PUSH1 0x0 DUP1 REVERT JUMPDEST CALLVALUE DUP1 ISZERO PUSH2 0x5B JUMPI PUSH1 0x0 DUP1 REVERT JUMPDEST POP PUSH2 0x64 PUSH2 0x12C JUMP JUMPDEST PUSH1 0x40 MLOAD PUSH2 0x71 SWAP2 SWAP1 PUSH2 0x1EB JUMP JUMPDEST PUSH1 0x40 MLOAD DUP1 SWAP2 SUB SWAP1 RETURN JUMPDEST CALLVALUE DUP1 ISZERO PUSH2 0x86 JUMPI PUSH1 0x0 DUP1 REVERT JUMPDEST POP PUSH2 0xA1 PUSH1 0x4 DUP1 CALLDATASIZE SUB DUP2 ADD SWAP1 PUSH2 0x9C SWAP2 SWAP1 PUSH2 0x269 JUMP JUMPDEST PUSH2 0x132 JUMP JUMPDEST PUSH1 0x40 MLOAD PUSH2 0xB1 SWAP5 SWAP4 SWAP3 SWAP2 SWAP1 PUSH2 0x2A5 JUMP JUMPDEST PUSH1 0x40 MLOAD DUP1 SWAP2 SUB SWAP1 RETURN JUMPDEST CALLVALUE DUP1 ISZERO PUSH2 0xC6 JUMPI PUSH1 0x0 DUP1 REVERT JUMPDEST POP PUSH2 0xCF PUSH2 0x182 JUMP JUMPDEST PUSH1 0x40 MLOAD PUSH2 0xDC SWAP2 SWAP1 PUSH2 0x2EA JUMP JUMPDEST PUSH1 0x40 MLOAD DUP1 SWAP2 SUB SWAP1 RETURN JUMPDEST PUSH2 0xFF PUSH1 0x4 DUP1 CALLDATASIZE SUB DUP2 ADD SWAP1 PUSH2 0xFA SWAP2 SWAP1 PUSH2 0x331 JUMP JUMPDEST PUSH2 0x1A8 JUMP JUMPDEST STOP JUMPDEST CALLVALUE DUP1 ISZERO PUSH2 0x10D JUMPI PUSH1 0x0 DUP1 REVERT JUMPDEST POP PUSH2 0x116 PUSH2 0x1AC JUMP JUMPDEST PUSH1 0x40 MLOAD PUSH2 0x123 SWAP2 SWAP1 PUSH2 0x3D0 JUMP JUMPDEST PUSH1 0x40 MLOAD DUP1 SWAP2 SUB SWAP1 RETURN JUMPDEST PUSH1 0x0 SLOAD DUP2 JUMP JUMPDEST PUSH1 0x2 PUSH1 0x20 MSTORE DUP1 PUSH1 0x0 MSTORE PUSH1 0x40 PUSH1 0x0 KECCAK256 PUSH1 0x0 SWAP2 POP SWAP1 POP DUP1 PUSH1 0x0 ADD PUSH1 0x0 SWAP1 SLOAD SWAP1 PUSH2 0x100 EXP SWAP1 DIV PUSH20 0xFFFFFFFFFFFFFFFFFFFFFFFFFFFFFFFFFFFFFFFF AND SWAP1 DUP1 PUSH1 0x1 ADD SLOAD SWAP1 DUP1 PUSH1 0x2 ADD SLOAD SWAP1 DUP1 PUSH1 0x3 ADD SLOAD SWAP1 POP DUP5 JUMP JUMPDEST PUSH1 0x1 PUSH1 0x0 SWAP1 SLOAD SWAP1 PUSH2 0x100 EXP SWAP1 DIV PUSH20 0xFFFFFFFFFFFFFFFFFFFFFFFFFFFFFFFFFFFFFFFF AND DUP2 JUMP JUMPDEST POP POP JUMP JUMPDEST PUSH1 0x3 PUSH1 0x0 SWAP1 SLOAD SWAP1 PUSH2 0x100 EXP SWAP1 DIV PUSH20 0xFFFFFFFFFFFFFFFFFFFFFFFFFFFFFFFFFFFFFFFF AND DUP2 JUMP JUMPDEST PUSH1 0x0 DUP2 SWAP1 POP SWAP2 SWAP1 POP JUMP JUMPDEST PUSH2 0x1E5 DUP2 PUSH2 0x1D2 JUMP JUMPDEST DUP3 MSTORE POP POP JUMP JUMPDEST PUSH1 0x0 PUSH1 0x20 DUP3 ADD SWAP1 POP PUSH2 0x200 PUSH1 0x0 DUP4 ADD DUP5 PUSH2 0x1DC JUMP JUMPDEST SWAP3 SWAP2 POP POP JUMP JUMPDEST PUSH1 0x0 DUP1 REVERT JUMPDEST PUSH1 0x0 PUSH20 0xFFFFFFFFFFFFFFFFFFFFFFFFFFFFFFFFFFFFFFFF DUP3 AND SWAP1 POP SWAP2 SWAP1 POP JUMP JUMPDEST PUSH1 0x0 PUSH2 0x236 DUP3 PUSH2 0x20B JUMP JUMPDEST SWAP1 POP SWAP2 SWAP1 POP JUMP JUMPDEST PUSH2 0x246 DUP2 PUSH2 0x22B JUMP JUMPDEST DUP2 EQ PUSH2 0x251 JUMPI PUSH1 0x0 DUP1 REVERT JUMPDEST POP JUMP JUMPDEST PUSH1 0x0 DUP2 CALLDATALOAD SWAP1 POP PUSH2 0x263 DUP2 PUSH2 0x23D JUMP JUMPDEST SWAP3 SWAP2 POP POP JUMP JUMPDEST PUSH1 0x0 PUSH1 0x20 DUP3 DUP5 SUB SLT ISZERO PUSH2 0x27F JUMPI PUSH2 0x27E PUSH2 0x206 JUMP JUMPDEST JUMPDEST PUSH1 0x0 PUSH2 0x28D DUP5 DUP3 DUP6 ADD PUSH2 0x254 JUMP JUMPDEST SWAP2 POP POP SWAP3 SWAP2 POP POP JUMP JUMPDEST PUSH2 0x29F DUP2 PUSH2 0x22B JUMP JUMPDEST DUP3 MSTORE POP POP JUMP JUMPDEST PUSH1 0x0 PUSH1 0x80 DUP3 ADD SWAP1 POP PUSH2 0x2BA PUSH1 0x0 DUP4 ADD DUP8 PUSH2 0x296 JUMP JUMPDEST PUSH2 0x2C7 PUSH1 0x20 DUP4 ADD DUP7 PUSH2 0x1DC JUMP JUMPDEST PUSH2 0x2D4 PUSH1 0x40 DUP4 ADD DUP6 PUSH2 0x1DC JUMP JUMPDEST PUSH2 0x2E1 PUSH1 0x60 DUP4 ADD DUP5 PUSH2 0x1DC JUMP JUMPDEST SWAP6 SWAP5 POP POP POP POP POP JUMP JUMPDEST PUSH1 0x0 PUSH1 0x20 DUP3 ADD SWAP1 POP PUSH2 0x2FF PUSH1 0x0 DUP4 ADD DUP5 PUSH2 0x296 JUMP JUMPDEST SWAP3 SWAP2 POP POP JUMP JUMPDEST PUSH2 0x30E DUP2 PUSH2 0x1D2 JUMP JUMPDEST DUP2 EQ PUSH2 0x319 JUMPI PUSH1 0x0 DUP1 REVERT JUMPDEST POP JUMP JUMPDEST PUSH1 0x0 DUP2 CALLDATALOAD SWAP1 POP PUSH2 0x32B DUP2 PUSH2 0x305 JUMP JUMPDEST SWAP3 SWAP2 POP POP JUMP JUMPDEST PUSH1 0x0 DUP1 PUSH1 0x40 DUP4 DUP6 SUB SLT ISZERO PUSH2 0x348 JUMPI PUSH2 0x347 PUSH2 0x206 JUMP JUMPDEST JUMPDEST PUSH1 0x0 PUSH2 0x356 DUP6 DUP3 DUP7 ADD PUSH2 0x254 JUMP JUMPDEST SWAP3 POP POP PUSH1 0x20 PUSH2 0x367 DUP6 DUP3 DUP7 ADD PUSH2 0x31C JUMP JUMPDEST SWAP2 POP POP SWAP3 POP SWAP3 SWAP1 POP JUMP JUMPDEST PUSH1 0x0 DUP2 SWAP1 POP SWAP2 SWAP1 POP JUMP JUMPDEST PUSH1 0x0 PUSH2 0x396 PUSH2 0x391 PUSH2 0x38C DUP5 PUSH2 0x20B JUMP JUMPDEST PUSH2 0x371 JUMP JUMPDEST PUSH2 0x20B JUMP JUMPDEST SWAP1 POP SWAP2 SWAP1 POP JUMP JUMPDEST PUSH1 0x0 PUSH2 0x3A8 DUP3 PUSH2 0x37B JUMP JUMPDEST SWAP1 POP SWAP2 SWAP1 POP JUMP JUMPDEST PUSH1 0x0 PUSH2 0x3BA DUP3 PUSH2 0x39D JUMP JUMPDEST SWAP1 POP SWAP2 SWAP1 POP JUMP JUMPDEST PUSH2 0x3CA DUP2 PUSH2 0x3AF JUMP JUMPDEST DUP3 MSTORE POP POP JUMP JUMPDEST PUSH1 0x0 PUSH1 0x20 DUP3 ADD SWAP1 POP PUSH2 0x3E5 PUSH1 0x0 DUP4 ADD DUP5 PUSH2 0x3C1 JUMP JUMPDEST SWAP3 SWAP2 POP POP JUMP INVALID LOG2 PUSH5 0x6970667358 0x22 SLT KECCAK256 PUSH17 0xD7BCD650F5DF13BE6EAA51E732AF9D1538 PUSH10 0x918A047B0DD07114921C 0xE4 DUP14 0xA9 PUSH5 0x736F6C6343 STOP ADDMOD 0xF STOP CALLER "
				},
				"gasEstimates": {
					"creation": {
						"codeDepositCost": "211400",
						"executionCost": "infinite",
						"totalCost": "infinite"
					},
					"external": {
						"ierc20()": "infinite",
						"stake(address,uint256)": "648",
						"tokenAddress()": "2536",
						"totalStakeNumber()": "2407",
						"userStakes(address)": "infinite"
					}
				},
				"methodIdentifiers": {
					"ierc20()": "bf0ae63d",
					"stake(address,uint256)": "adc9772e",
					"tokenAddress()": "9d76ea58",
					"totalStakeNumber()": "53b645e5",
					"userStakes(address)": "8da7ad23"
				}
			},
			"storageLayout": {
				"storage": [
					{
						"astId": 102,
						"contract": "contracts/StakePool.sol:StakePool",
						"label": "totalStakeNumber",
						"offset": 0,
						"slot": "0",
						"type": "t_uint256"
					},
					{
						"astId": 104,
						"contract": "contracts/StakePool.sol:StakePool",
						"label": "tokenAddress",
						"offset": 0,
						"slot": "1",
						"type": "t_address"
					},
					{
						"astId": 109,
						"contract": "contracts/StakePool.sol:StakePool",
						"label": "userStakes",
						"offset": 0,
						"slot": "2",
						"type": "t_mapping(t_address,t_struct(User)99_storage)"
					},
					{
						"astId": 112,
						"contract": "contracts/StakePool.sol:StakePool",
						"label": "ierc20",
						"offset": 0,
						"slot": "3",
						"type": "t_contract(IERC20)68"
					}
				],
				"types": {
					"t_address": {
						"encoding": "inplace",
						"label": "address",
						"numberOfBytes": "20"
					},
					"t_contract(IERC20)68": {
						"encoding": "inplace",
						"label": "contract IERC20",
						"numberOfBytes": "20"
					},
					"t_mapping(t_address,t_struct(User)99_storage)": {
						"encoding": "mapping",
						"key": "t_address",
						"label": "mapping(address => struct StakePool.User)",
						"numberOfBytes": "32",
						"value": "t_struct(User)99_storage"
					},
					"t_struct(User)99_storage": {
						"encoding": "inplace",
						"label": "struct StakePool.User",
						"members": [
							{
								"astId": 92,
								"contract": "contracts/StakePool.sol:StakePool",
								"label": "userAddress",
								"offset": 0,
								"slot": "0",
								"type": "t_address"
							},
							{
								"astId": 94,
								"contract": "contracts/StakePool.sol:StakePool",
								"label": "stakeNumber",
								"offset": 0,
								"slot": "1",
								"type": "t_uint256"
							},
							{
								"astId": 96,
								"contract": "contracts/StakePool.sol:StakePool",
								"label": "currentInterest",
								"offset": 0,
								"slot": "2",
								"type": "t_uint256"
							},
							{
								"astId": 98,
								"contract": "contracts/StakePool.sol:StakePool",
								"label": "claimedInterest",
								"offset": 0,
								"slot": "3",
								"type": "t_uint256"
							}
						],
						"numberOfBytes": "128"
					},
					"t_uint256": {
						"encoding": "inplace",
						"label": "uint256",
						"numberOfBytes": "32"
					}
				}
			},
			"userdoc": {
				"kind": "user",
				"methods": {},
				"version": 1
			}
		}
	}
}