{
	"contracts/EnglishAuction.sol": {
		"EnglishAuction": {
			"abi": [
				{
					"inputs": [
						{
							"internalType": "address",
							"name": "_nft",
							"type": "address"
						},
						{
							"internalType": "uint256",
							"name": "_nftId",
							"type": "uint256"
						},
						{
							"internalType": "uint256",
							"name": "_startingBid",
							"type": "uint256"
						}
					],
					"stateMutability": "nonpayable",
					"type": "constructor"
				},
				{
					"inputs": [
						{
							"internalType": "address",
							"name": "",
							"type": "address"
						}
					],
					"name": "bids",
					"outputs": [
						{
							"internalType": "uint256",
							"name": "",
							"type": "uint256"
						}
					],
					"stateMutability": "view",
					"type": "function"
				},
				{
					"inputs": [],
					"name": "endAt",
					"outputs": [
						{
							"internalType": "uint32",
							"name": "",
							"type": "uint32"
						}
					],
					"stateMutability": "view",
					"type": "function"
				},
				{
					"inputs": [],
					"name": "ended",
					"outputs": [
						{
							"internalType": "bool",
							"name": "",
							"type": "bool"
						}
					],
					"stateMutability": "view",
					"type": "function"
				},
				{
					"inputs": [],
					"name": "highestBid",
					"outputs": [
						{
							"internalType": "uint256",
							"name": "",
							"type": "uint256"
						}
					],
					"stateMutability": "view",
					"type": "function"
				},
				{
					"inputs": [],
					"name": "highestBidder",
					"outputs": [
						{
							"internalType": "address",
							"name": "",
							"type": "address"
						}
					],
					"stateMutability": "view",
					"type": "function"
				},
				{
					"inputs": [],
					"name": "nft",
					"outputs": [
						{
							"internalType": "contract IERC721",
							"name": "",
							"type": "address"
						}
					],
					"stateMutability": "view",
					"type": "function"
				},
				{
					"inputs": [],
					"name": "nftId",
					"outputs": [
						{
							"internalType": "uint256",
							"name": "",
							"type": "uint256"
						}
					],
					"stateMutability": "view",
					"type": "function"
				},
				{
					"inputs": [],
					"name": "seller",
					"outputs": [
						{
							"internalType": "address",
							"name": "",
							"type": "address"
						}
					],
					"stateMutability": "view",
					"type": "function"
				},
				{
					"inputs": [],
					"name": "started",
					"outputs": [
						{
							"internalType": "bool",
							"name": "",
							"type": "bool"
						}
					],
					"stateMutability": "view",
					"type": "function"
				}
			],
			"devdoc": {
				"kind": "dev",
				"methods": {},
				"version": 1
			},
			"evm": {
				"assembly": "    /* \"contracts/EnglishAuction.sol\":183:683  contract EnglishAuction { ... */\n  mstore(0x40, 0xe0)\n    /* \"contracts/EnglishAuction.sol\":504:681  constructor(... */\n  callvalue\n  dup1\n  iszero\n  tag_1\n  jumpi\n  0x00\n  dup1\n  revert\ntag_1:\n  pop\n  mload(0x40)\n  sub(codesize, bytecodeSize)\n  dup1\n  bytecodeSize\n  dup4\n  codecopy\n  dup2\n  dup2\n  add\n  0x40\n  mstore\n  dup2\n  add\n  swap1\n  tag_2\n  swap2\n  swap1\n  tag_3\n  jump\t// in\ntag_2:\n    /* \"contracts/EnglishAuction.sol\":616:620  _nft */\n  dup3\n    /* \"contracts/EnglishAuction.sol\":602:621  nft = IERC721(_nft) */\n  0xffffffffffffffffffffffffffffffffffffffff\n  and\n  0x80\n  dup2\n  0xffffffffffffffffffffffffffffffffffffffff\n  and\n  0x60\n  shl\n  dup2\n  mstore\n  pop\n  pop\n    /* \"contracts/EnglishAuction.sol\":639:645  _nftId */\n  dup2\n    /* \"contracts/EnglishAuction.sol\":631:645  nftId = _nftId */\n  0xa0\n  dup2\n  dup2\n  mstore\n  pop\n  pop\n    /* \"contracts/EnglishAuction.sol\":664:674  msg.sender */\n  caller\n    /* \"contracts/EnglishAuction.sol\":655:674  seller = msg.sender */\n  0xffffffffffffffffffffffffffffffffffffffff\n  and\n  0xc0\n  dup2\n  0xffffffffffffffffffffffffffffffffffffffff\n  and\n  0x60\n  shl\n  dup2\n  mstore\n  pop\n  pop\n    /* \"contracts/EnglishAuction.sol\":504:681  constructor(... */\n  pop\n  pop\n  pop\n    /* \"contracts/EnglishAuction.sol\":183:683  contract EnglishAuction { ... */\n  jump(tag_6)\n    /* \"#utility.yul\":7:150   */\ntag_8:\n    /* \"#utility.yul\":64:69   */\n  0x00\n    /* \"#utility.yul\":95:101   */\n  dup2\n    /* \"#utility.yul\":89:102   */\n  mload\n    /* \"#utility.yul\":80:102   */\n  swap1\n  pop\n    /* \"#utility.yul\":111:144   */\n  tag_10\n    /* \"#utility.yul\":138:143   */\n  dup2\n    /* \"#utility.yul\":111:144   */\n  tag_11\n  jump\t// in\ntag_10:\n    /* \"#utility.yul\":7:150   */\n  swap3\n  swap2\n  pop\n  pop\n  jump\t// out\n    /* \"#utility.yul\":156:299   */\ntag_12:\n    /* \"#utility.yul\":213:218   */\n  0x00\n    /* \"#utility.yul\":244:250   */\n  dup2\n    /* \"#utility.yul\":238:251   */\n  mload\n    /* \"#utility.yul\":229:251   */\n  swap1\n  pop\n    /* \"#utility.yul\":260:293   */\n  tag_14\n    /* \"#utility.yul\":287:292   */\n  dup2\n    /* \"#utility.yul\":260:293   */\n  tag_15\n  jump\t// in\ntag_14:\n    /* \"#utility.yul\":156:299   */\n  swap3\n  swap2\n  pop\n  pop\n  jump\t// out\n    /* \"#utility.yul\":305:968   */\ntag_3:\n    /* \"#utility.yul\":393:399   */\n  0x00\n    /* \"#utility.yul\":401:407   */\n  dup1\n    /* \"#utility.yul\":409:415   */\n  0x00\n    /* \"#utility.yul\":458:460   */\n  0x60\n    /* \"#utility.yul\":446:455   */\n  dup5\n    /* \"#utility.yul\":437:444   */\n  dup7\n    /* \"#utility.yul\":433:456   */\n  sub\n    /* \"#utility.yul\":429:461   */\n  slt\n    /* \"#utility.yul\":426:545   */\n  iszero\n  tag_17\n  jumpi\n    /* \"#utility.yul\":464:543   */\n  tag_18\n  tag_19\n  jump\t// in\ntag_18:\n    /* \"#utility.yul\":426:545   */\ntag_17:\n    /* \"#utility.yul\":584:585   */\n  0x00\n    /* \"#utility.yul\":609:673   */\n  tag_20\n    /* \"#utility.yul\":665:672   */\n  dup7\n    /* \"#utility.yul\":656:662   */\n  dup3\n    /* \"#utility.yul\":645:654   */\n  dup8\n    /* \"#utility.yul\":641:663   */\n  add\n    /* \"#utility.yul\":609:673   */\n  tag_8\n  jump\t// in\ntag_20:\n    /* \"#utility.yul\":599:673   */\n  swap4\n  pop\n    /* \"#utility.yul\":555:683   */\n  pop\n    /* \"#utility.yul\":722:724   */\n  0x20\n    /* \"#utility.yul\":748:812   */\n  tag_21\n    /* \"#utility.yul\":804:811   */\n  dup7\n    /* \"#utility.yul\":795:801   */\n  dup3\n    /* \"#utility.yul\":784:793   */\n  dup8\n    /* \"#utility.yul\":780:802   */\n  add\n    /* \"#utility.yul\":748:812   */\n  tag_12\n  jump\t// in\ntag_21:\n    /* \"#utility.yul\":738:812   */\n  swap3\n  pop\n    /* \"#utility.yul\":693:822   */\n  pop\n    /* \"#utility.yul\":861:863   */\n  0x40\n    /* \"#utility.yul\":887:951   */\n  tag_22\n    /* \"#utility.yul\":943:950   */\n  dup7\n    /* \"#utility.yul\":934:940   */\n  dup3\n    /* \"#utility.yul\":923:932   */\n  dup8\n    /* \"#utility.yul\":919:941   */\n  add\n    /* \"#utility.yul\":887:951   */\n  tag_12\n  jump\t// in\ntag_22:\n    /* \"#utility.yul\":877:951   */\n  swap2\n  pop\n    /* \"#utility.yul\":832:961   */\n  pop\n    /* \"#utility.yul\":305:968   */\n  swap3\n  pop\n  swap3\n  pop\n  swap3\n  jump\t// out\n    /* \"#utility.yul\":1055:1151   */\ntag_25:\n    /* \"#utility.yul\":1092:1099   */\n  0x00\n    /* \"#utility.yul\":1121:1145   */\n  tag_27\n    /* \"#utility.yul\":1139:1144   */\n  dup3\n    /* \"#utility.yul\":1121:1145   */\n  tag_28\n  jump\t// in\ntag_27:\n    /* \"#utility.yul\":1110:1145   */\n  swap1\n  pop\n    /* \"#utility.yul\":1055:1151   */\n  swap2\n  swap1\n  pop\n  jump\t// out\n    /* \"#utility.yul\":1157:1283   */\ntag_28:\n    /* \"#utility.yul\":1194:1201   */\n  0x00\n    /* \"#utility.yul\":1234:1276   */\n  0xffffffffffffffffffffffffffffffffffffffff\n    /* \"#utility.yul\":1227:1232   */\n  dup3\n    /* \"#utility.yul\":1223:1277   */\n  and\n    /* \"#utility.yul\":1212:1277   */\n  swap1\n  pop\n    /* \"#utility.yul\":1157:1283   */\n  swap2\n  swap1\n  pop\n  jump\t// out\n    /* \"#utility.yul\":1289:1366   */\ntag_30:\n    /* \"#utility.yul\":1326:1333   */\n  0x00\n    /* \"#utility.yul\":1355:1360   */\n  dup2\n    /* \"#utility.yul\":1344:1360   */\n  swap1\n  pop\n    /* \"#utility.yul\":1289:1366   */\n  swap2\n  swap1\n  pop\n  jump\t// out\n    /* \"#utility.yul\":1495:1612   */\ntag_19:\n    /* \"#utility.yul\":1604:1605   */\n  0x00\n    /* \"#utility.yul\":1601:1602   */\n  dup1\n    /* \"#utility.yul\":1594:1606   */\n  revert\n    /* \"#utility.yul\":1618:1740   */\ntag_11:\n    /* \"#utility.yul\":1691:1715   */\n  tag_36\n    /* \"#utility.yul\":1709:1714   */\n  dup2\n    /* \"#utility.yul\":1691:1715   */\n  tag_25\n  jump\t// in\ntag_36:\n    /* \"#utility.yul\":1684:1689   */\n  dup2\n    /* \"#utility.yul\":1681:1716   */\n  eq\n    /* \"#utility.yul\":1671:1734   */\n  tag_37\n  jumpi\n    /* \"#utility.yul\":1730:1731   */\n  0x00\n    /* \"#utility.yul\":1727:1728   */\n  dup1\n    /* \"#utility.yul\":1720:1732   */\n  revert\n    /* \"#utility.yul\":1671:1734   */\ntag_37:\n    /* \"#utility.yul\":1618:1740   */\n  pop\n  jump\t// out\n    /* \"#utility.yul\":1746:1868   */\ntag_15:\n    /* \"#utility.yul\":1819:1843   */\n  tag_39\n    /* \"#utility.yul\":1837:1842   */\n  dup2\n    /* \"#utility.yul\":1819:1843   */\n  tag_30\n  jump\t// in\ntag_39:\n    /* \"#utility.yul\":1812:1817   */\n  dup2\n    /* \"#utility.yul\":1809:1844   */\n  eq\n    /* \"#utility.yul\":1799:1862   */\n  tag_40\n  jumpi\n    /* \"#utility.yul\":1858:1859   */\n  0x00\n    /* \"#utility.yul\":1855:1856   */\n  dup1\n    /* \"#utility.yul\":1848:1860   */\n  revert\n    /* \"#utility.yul\":1799:1862   */\ntag_40:\n    /* \"#utility.yul\":1746:1868   */\n  pop\n  jump\t// out\n    /* \"contracts/EnglishAuction.sol\":183:683  contract EnglishAuction { ... */\ntag_6:\n  shr(0x60, mload(0x80))\n  mload(0xa0)\n  shr(0x60, mload(0xc0))\n  codecopy(0x00, dataOffset(sub_0), dataSize(sub_0))\n  0x00\n  assignImmutable(\"0x8fef2229291b68be841adf029e58b87f39ba144b2d3b0af1760243d0a9bc6a1c\")\n  0x00\n  assignImmutable(\"0x277ab82e5a4641341820a4a2933a62c1de997e42e92548657ae21b3728d580fe\")\n  0x00\n  assignImmutable(\"0x5c4c6aa067b6f8e6cb38e6ab843832a94d1712d661a04d73c517d6a1931a9e5d\")\n  return(0x00, dataSize(sub_0))\nstop\n\nsub_0: assembly {\n        /* \"contracts/EnglishAuction.sol\":183:683  contract EnglishAuction { ... */\n      mstore(0x40, 0x80)\n      callvalue\n      dup1\n      iszero\n      tag_1\n      jumpi\n      0x00\n      dup1\n      revert\n    tag_1:\n      pop\n      jumpi(tag_2, lt(calldatasize, 0x04))\n      shr(0xe0, calldataload(0x00))\n      dup1\n      0x62ea82db\n      gt\n      tag_12\n      jumpi\n      dup1\n      0x62ea82db\n      eq\n      tag_7\n      jumpi\n      dup1\n      0x7cc3ae8c\n      eq\n      tag_8\n      jumpi\n      dup1\n      0x91f90157\n      eq\n      tag_9\n      jumpi\n      dup1\n      0xc6bc5182\n      eq\n      tag_10\n      jumpi\n      dup1\n      0xd57bde79\n      eq\n      tag_11\n      jumpi\n      jump(tag_2)\n    tag_12:\n      dup1\n      0x08551a53\n      eq\n      tag_3\n      jumpi\n      dup1\n      0x12fa6feb\n      eq\n      tag_4\n      jumpi\n      dup1\n      0x1f2698ab\n      eq\n      tag_5\n      jumpi\n      dup1\n      0x47ccca02\n      eq\n      tag_6\n      jumpi\n    tag_2:\n      0x00\n      dup1\n      revert\n        /* \"contracts/EnglishAuction.sol\":283:314  address public immutable seller */\n    tag_3:\n      tag_13\n      tag_14\n      jump\t// in\n    tag_13:\n      mload(0x40)\n      tag_15\n      swap2\n      swap1\n      tag_16\n      jump\t// in\n    tag_15:\n      mload(0x40)\n      dup1\n      swap2\n      sub\n      swap1\n      return\n        /* \"contracts/EnglishAuction.sol\":370:387  bool public ended */\n    tag_4:\n      tag_17\n      tag_18\n      jump\t// in\n    tag_17:\n      mload(0x40)\n      tag_19\n      swap2\n      swap1\n      tag_20\n      jump\t// in\n    tag_19:\n      mload(0x40)\n      dup1\n      swap2\n      sub\n      swap1\n      return\n        /* \"contracts/EnglishAuction.sol\":345:364  bool public started */\n    tag_5:\n      tag_21\n      tag_22\n      jump\t// in\n    tag_21:\n      mload(0x40)\n      tag_23\n      swap2\n      swap1\n      tag_20\n      jump\t// in\n    tag_23:\n      mload(0x40)\n      dup1\n      swap2\n      sub\n      swap1\n      return\n        /* \"contracts/EnglishAuction.sol\":215:243  IERC721 public immutable nft */\n    tag_6:\n      tag_24\n      tag_25\n      jump\t// in\n    tag_24:\n      mload(0x40)\n      tag_26\n      swap2\n      swap1\n      tag_27\n      jump\t// in\n    tag_26:\n      mload(0x40)\n      dup1\n      swap2\n      sub\n      swap1\n      return\n        /* \"contracts/EnglishAuction.sol\":457:493  mapping(address => uint) public bids */\n    tag_7:\n      tag_28\n      0x04\n      dup1\n      calldatasize\n      sub\n      dup2\n      add\n      swap1\n      tag_29\n      swap2\n      swap1\n      tag_30\n      jump\t// in\n    tag_29:\n      tag_31\n      jump\t// in\n    tag_28:\n      mload(0x40)\n      tag_32\n      swap2\n      swap1\n      tag_33\n      jump\t// in\n    tag_32:\n      mload(0x40)\n      dup1\n      swap2\n      sub\n      swap1\n      return\n        /* \"contracts/EnglishAuction.sol\":320:339  uint32 public endAt */\n    tag_8:\n      tag_34\n      tag_35\n      jump\t// in\n    tag_34:\n      mload(0x40)\n      tag_36\n      swap2\n      swap1\n      tag_37\n      jump\t// in\n    tag_36:\n      mload(0x40)\n      dup1\n      swap2\n      sub\n      swap1\n      return\n        /* \"contracts/EnglishAuction.sol\":394:422  address public highestBidder */\n    tag_9:\n      tag_38\n      tag_39\n      jump\t// in\n    tag_38:\n      mload(0x40)\n      tag_40\n      swap2\n      swap1\n      tag_16\n      jump\t// in\n    tag_40:\n      mload(0x40)\n      dup1\n      swap2\n      sub\n      swap1\n      return\n        /* \"contracts/EnglishAuction.sol\":249:276  uint public immutable nftId */\n    tag_10:\n      tag_41\n      tag_42\n      jump\t// in\n    tag_41:\n      mload(0x40)\n      tag_43\n      swap2\n      swap1\n      tag_33\n      jump\t// in\n    tag_43:\n      mload(0x40)\n      dup1\n      swap2\n      sub\n      swap1\n      return\n        /* \"contracts/EnglishAuction.sol\":428:450  uint public highestBid */\n    tag_11:\n      tag_44\n      tag_45\n      jump\t// in\n    tag_44:\n      mload(0x40)\n      tag_46\n      swap2\n      swap1\n      tag_33\n      jump\t// in\n    tag_46:\n      mload(0x40)\n      dup1\n      swap2\n      sub\n      swap1\n      return\n        /* \"contracts/EnglishAuction.sol\":283:314  address public immutable seller */\n    tag_14:\n      immutable(\"0x8fef2229291b68be841adf029e58b87f39ba144b2d3b0af1760243d0a9bc6a1c\")\n      dup2\n      jump\t// out\n        /* \"contracts/EnglishAuction.sol\":370:387  bool public ended */\n    tag_18:\n      0x00\n      0x05\n      swap1\n      sload\n      swap1\n      0x0100\n      exp\n      swap1\n      div\n      0xff\n      and\n      dup2\n      jump\t// out\n        /* \"contracts/EnglishAuction.sol\":345:364  bool public started */\n    tag_22:\n      0x00\n      0x04\n      swap1\n      sload\n      swap1\n      0x0100\n      exp\n      swap1\n      div\n      0xff\n      and\n      dup2\n      jump\t// out\n        /* \"contracts/EnglishAuction.sol\":215:243  IERC721 public immutable nft */\n    tag_25:\n      immutable(\"0x5c4c6aa067b6f8e6cb38e6ab843832a94d1712d661a04d73c517d6a1931a9e5d\")\n      dup2\n      jump\t// out\n        /* \"contracts/EnglishAuction.sol\":457:493  mapping(address => uint) public bids */\n    tag_31:\n      mstore(0x20, 0x02)\n      dup1\n      0x00\n      mstore\n      keccak256(0x00, 0x40)\n      0x00\n      swap2\n      pop\n      swap1\n      pop\n      sload\n      dup2\n      jump\t// out\n        /* \"contracts/EnglishAuction.sol\":320:339  uint32 public endAt */\n    tag_35:\n      0x00\n      dup1\n      sload\n      swap1\n      0x0100\n      exp\n      swap1\n      div\n      0xffffffff\n      and\n      dup2\n      jump\t// out\n        /* \"contracts/EnglishAuction.sol\":394:422  address public highestBidder */\n    tag_39:\n      0x00\n      0x06\n      swap1\n      sload\n      swap1\n      0x0100\n      exp\n      swap1\n      div\n      0xffffffffffffffffffffffffffffffffffffffff\n      and\n      dup2\n      jump\t// out\n        /* \"contracts/EnglishAuction.sol\":249:276  uint public immutable nftId */\n    tag_42:\n      immutable(\"0x277ab82e5a4641341820a4a2933a62c1de997e42e92548657ae21b3728d580fe\")\n      dup2\n      jump\t// out\n        /* \"contracts/EnglishAuction.sol\":428:450  uint public highestBid */\n    tag_45:\n      sload(0x01)\n      dup2\n      jump\t// out\n        /* \"#utility.yul\":7:146   */\n    tag_48:\n        /* \"#utility.yul\":53:58   */\n      0x00\n        /* \"#utility.yul\":91:97   */\n      dup2\n        /* \"#utility.yul\":78:98   */\n      calldataload\n        /* \"#utility.yul\":69:98   */\n      swap1\n      pop\n        /* \"#utility.yul\":107:140   */\n      tag_50\n        /* \"#utility.yul\":134:139   */\n      dup2\n        /* \"#utility.yul\":107:140   */\n      tag_51\n      jump\t// in\n    tag_50:\n        /* \"#utility.yul\":7:146   */\n      swap3\n      swap2\n      pop\n      pop\n      jump\t// out\n        /* \"#utility.yul\":152:481   */\n    tag_30:\n        /* \"#utility.yul\":211:217   */\n      0x00\n        /* \"#utility.yul\":260:262   */\n      0x20\n        /* \"#utility.yul\":248:257   */\n      dup3\n        /* \"#utility.yul\":239:246   */\n      dup5\n        /* \"#utility.yul\":235:258   */\n      sub\n        /* \"#utility.yul\":231:263   */\n      slt\n        /* \"#utility.yul\":228:347   */\n      iszero\n      tag_53\n      jumpi\n        /* \"#utility.yul\":266:345   */\n      tag_54\n      tag_55\n      jump\t// in\n    tag_54:\n        /* \"#utility.yul\":228:347   */\n    tag_53:\n        /* \"#utility.yul\":386:387   */\n      0x00\n        /* \"#utility.yul\":411:464   */\n      tag_56\n        /* \"#utility.yul\":456:463   */\n      dup5\n        /* \"#utility.yul\":447:453   */\n      dup3\n        /* \"#utility.yul\":436:445   */\n      dup6\n        /* \"#utility.yul\":432:454   */\n      add\n        /* \"#utility.yul\":411:464   */\n      tag_48\n      jump\t// in\n    tag_56:\n        /* \"#utility.yul\":401:464   */\n      swap2\n      pop\n        /* \"#utility.yul\":357:474   */\n      pop\n        /* \"#utility.yul\":152:481   */\n      swap3\n      swap2\n      pop\n      pop\n      jump\t// out\n        /* \"#utility.yul\":487:605   */\n    tag_57:\n        /* \"#utility.yul\":574:598   */\n      tag_59\n        /* \"#utility.yul\":592:597   */\n      dup2\n        /* \"#utility.yul\":574:598   */\n      tag_60\n      jump\t// in\n    tag_59:\n        /* \"#utility.yul\":569:572   */\n      dup3\n        /* \"#utility.yul\":562:599   */\n      mstore\n        /* \"#utility.yul\":487:605   */\n      pop\n      pop\n      jump\t// out\n        /* \"#utility.yul\":611:720   */\n    tag_61:\n        /* \"#utility.yul\":692:713   */\n      tag_63\n        /* \"#utility.yul\":707:712   */\n      dup2\n        /* \"#utility.yul\":692:713   */\n      tag_64\n      jump\t// in\n    tag_63:\n        /* \"#utility.yul\":687:690   */\n      dup3\n        /* \"#utility.yul\":680:714   */\n      mstore\n        /* \"#utility.yul\":611:720   */\n      pop\n      pop\n      jump\t// out\n        /* \"#utility.yul\":726:885   */\n    tag_65:\n        /* \"#utility.yul\":827:878   */\n      tag_67\n        /* \"#utility.yul\":872:877   */\n      dup2\n        /* \"#utility.yul\":827:878   */\n      tag_68\n      jump\t// in\n    tag_67:\n        /* \"#utility.yul\":822:825   */\n      dup3\n        /* \"#utility.yul\":815:879   */\n      mstore\n        /* \"#utility.yul\":726:885   */\n      pop\n      pop\n      jump\t// out\n        /* \"#utility.yul\":891:1009   */\n    tag_69:\n        /* \"#utility.yul\":978:1002   */\n      tag_71\n        /* \"#utility.yul\":996:1001   */\n      dup2\n        /* \"#utility.yul\":978:1002   */\n      tag_72\n      jump\t// in\n    tag_71:\n        /* \"#utility.yul\":973:976   */\n      dup3\n        /* \"#utility.yul\":966:1003   */\n      mstore\n        /* \"#utility.yul\":891:1009   */\n      pop\n      pop\n      jump\t// out\n        /* \"#utility.yul\":1015:1130   */\n    tag_73:\n        /* \"#utility.yul\":1100:1123   */\n      tag_75\n        /* \"#utility.yul\":1117:1122   */\n      dup2\n        /* \"#utility.yul\":1100:1123   */\n      tag_76\n      jump\t// in\n    tag_75:\n        /* \"#utility.yul\":1095:1098   */\n      dup3\n        /* \"#utility.yul\":1088:1124   */\n      mstore\n        /* \"#utility.yul\":1015:1130   */\n      pop\n      pop\n      jump\t// out\n        /* \"#utility.yul\":1136:1358   */\n    tag_16:\n        /* \"#utility.yul\":1229:1233   */\n      0x00\n        /* \"#utility.yul\":1267:1269   */\n      0x20\n        /* \"#utility.yul\":1256:1265   */\n      dup3\n        /* \"#utility.yul\":1252:1270   */\n      add\n        /* \"#utility.yul\":1244:1270   */\n      swap1\n      pop\n        /* \"#utility.yul\":1280:1351   */\n      tag_78\n        /* \"#utility.yul\":1348:1349   */\n      0x00\n        /* \"#utility.yul\":1337:1346   */\n      dup4\n        /* \"#utility.yul\":1333:1350   */\n      add\n        /* \"#utility.yul\":1324:1330   */\n      dup5\n        /* \"#utility.yul\":1280:1351   */\n      tag_57\n      jump\t// in\n    tag_78:\n        /* \"#utility.yul\":1136:1358   */\n      swap3\n      swap2\n      pop\n      pop\n      jump\t// out\n        /* \"#utility.yul\":1364:1574   */\n    tag_20:\n        /* \"#utility.yul\":1451:1455   */\n      0x00\n        /* \"#utility.yul\":1489:1491   */\n      0x20\n        /* \"#utility.yul\":1478:1487   */\n      dup3\n        /* \"#utility.yul\":1474:1492   */\n      add\n        /* \"#utility.yul\":1466:1492   */\n      swap1\n      pop\n        /* \"#utility.yul\":1502:1567   */\n      tag_80\n        /* \"#utility.yul\":1564:1565   */\n      0x00\n        /* \"#utility.yul\":1553:1562   */\n      dup4\n        /* \"#utility.yul\":1549:1566   */\n      add\n        /* \"#utility.yul\":1540:1546   */\n      dup5\n        /* \"#utility.yul\":1502:1567   */\n      tag_61\n      jump\t// in\n    tag_80:\n        /* \"#utility.yul\":1364:1574   */\n      swap3\n      swap2\n      pop\n      pop\n      jump\t// out\n        /* \"#utility.yul\":1580:1830   */\n    tag_27:\n        /* \"#utility.yul\":1687:1691   */\n      0x00\n        /* \"#utility.yul\":1725:1727   */\n      0x20\n        /* \"#utility.yul\":1714:1723   */\n      dup3\n        /* \"#utility.yul\":1710:1728   */\n      add\n        /* \"#utility.yul\":1702:1728   */\n      swap1\n      pop\n        /* \"#utility.yul\":1738:1823   */\n      tag_82\n        /* \"#utility.yul\":1820:1821   */\n      0x00\n        /* \"#utility.yul\":1809:1818   */\n      dup4\n        /* \"#utility.yul\":1805:1822   */\n      add\n        /* \"#utility.yul\":1796:1802   */\n      dup5\n        /* \"#utility.yul\":1738:1823   */\n      tag_65\n      jump\t// in\n    tag_82:\n        /* \"#utility.yul\":1580:1830   */\n      swap3\n      swap2\n      pop\n      pop\n      jump\t// out\n        /* \"#utility.yul\":1836:2058   */\n    tag_33:\n        /* \"#utility.yul\":1929:1933   */\n      0x00\n        /* \"#utility.yul\":1967:1969   */\n      0x20\n        /* \"#utility.yul\":1956:1965   */\n      dup3\n        /* \"#utility.yul\":1952:1970   */\n      add\n        /* \"#utility.yul\":1944:1970   */\n      swap1\n      pop\n        /* \"#utility.yul\":1980:2051   */\n      tag_84\n        /* \"#utility.yul\":2048:2049   */\n      0x00\n        /* \"#utility.yul\":2037:2046   */\n      dup4\n        /* \"#utility.yul\":2033:2050   */\n      add\n        /* \"#utility.yul\":2024:2030   */\n      dup5\n        /* \"#utility.yul\":1980:2051   */\n      tag_69\n      jump\t// in\n    tag_84:\n        /* \"#utility.yul\":1836:2058   */\n      swap3\n      swap2\n      pop\n      pop\n      jump\t// out\n        /* \"#utility.yul\":2064:2282   */\n    tag_37:\n        /* \"#utility.yul\":2155:2159   */\n      0x00\n        /* \"#utility.yul\":2193:2195   */\n      0x20\n        /* \"#utility.yul\":2182:2191   */\n      dup3\n        /* \"#utility.yul\":2178:2196   */\n      add\n        /* \"#utility.yul\":2170:2196   */\n      swap1\n      pop\n        /* \"#utility.yul\":2206:2275   */\n      tag_86\n        /* \"#utility.yul\":2272:2273   */\n      0x00\n        /* \"#utility.yul\":2261:2270   */\n      dup4\n        /* \"#utility.yul\":2257:2274   */\n      add\n        /* \"#utility.yul\":2248:2254   */\n      dup5\n        /* \"#utility.yul\":2206:2275   */\n      tag_73\n      jump\t// in\n    tag_86:\n        /* \"#utility.yul\":2064:2282   */\n      swap3\n      swap2\n      pop\n      pop\n      jump\t// out\n        /* \"#utility.yul\":2369:2465   */\n    tag_60:\n        /* \"#utility.yul\":2406:2413   */\n      0x00\n        /* \"#utility.yul\":2435:2459   */\n      tag_90\n        /* \"#utility.yul\":2453:2458   */\n      dup3\n        /* \"#utility.yul\":2435:2459   */\n      tag_91\n      jump\t// in\n    tag_90:\n        /* \"#utility.yul\":2424:2459   */\n      swap1\n      pop\n        /* \"#utility.yul\":2369:2465   */\n      swap2\n      swap1\n      pop\n      jump\t// out\n        /* \"#utility.yul\":2471:2561   */\n    tag_64:\n        /* \"#utility.yul\":2505:2512   */\n      0x00\n        /* \"#utility.yul\":2548:2553   */\n      dup2\n        /* \"#utility.yul\":2541:2554   */\n      iszero\n        /* \"#utility.yul\":2534:2555   */\n      iszero\n        /* \"#utility.yul\":2523:2555   */\n      swap1\n      pop\n        /* \"#utility.yul\":2471:2561   */\n      swap2\n      swap1\n      pop\n      jump\t// out\n        /* \"#utility.yul\":2567:2693   */\n    tag_91:\n        /* \"#utility.yul\":2604:2611   */\n      0x00\n        /* \"#utility.yul\":2644:2686   */\n      0xffffffffffffffffffffffffffffffffffffffff\n        /* \"#utility.yul\":2637:2642   */\n      dup3\n        /* \"#utility.yul\":2633:2687   */\n      and\n        /* \"#utility.yul\":2622:2687   */\n      swap1\n      pop\n        /* \"#utility.yul\":2567:2693   */\n      swap2\n      swap1\n      pop\n      jump\t// out\n        /* \"#utility.yul\":2699:2776   */\n    tag_72:\n        /* \"#utility.yul\":2736:2743   */\n      0x00\n        /* \"#utility.yul\":2765:2770   */\n      dup2\n        /* \"#utility.yul\":2754:2770   */\n      swap1\n      pop\n        /* \"#utility.yul\":2699:2776   */\n      swap2\n      swap1\n      pop\n      jump\t// out\n        /* \"#utility.yul\":2782:2875   */\n    tag_76:\n        /* \"#utility.yul\":2818:2825   */\n      0x00\n        /* \"#utility.yul\":2858:2868   */\n      0xffffffff\n        /* \"#utility.yul\":2851:2856   */\n      dup3\n        /* \"#utility.yul\":2847:2869   */\n      and\n        /* \"#utility.yul\":2836:2869   */\n      swap1\n      pop\n        /* \"#utility.yul\":2782:2875   */\n      swap2\n      swap1\n      pop\n      jump\t// out\n        /* \"#utility.yul\":2881:3021   */\n    tag_68:\n        /* \"#utility.yul\":2945:2954   */\n      0x00\n        /* \"#utility.yul\":2978:3015   */\n      tag_97\n        /* \"#utility.yul\":3009:3014   */\n      dup3\n        /* \"#utility.yul\":2978:3015   */\n      tag_98\n      jump\t// in\n    tag_97:\n        /* \"#utility.yul\":2965:3015   */\n      swap1\n      pop\n        /* \"#utility.yul\":2881:3021   */\n      swap2\n      swap1\n      pop\n      jump\t// out\n        /* \"#utility.yul\":3027:3153   */\n    tag_98:\n        /* \"#utility.yul\":3077:3086   */\n      0x00\n        /* \"#utility.yul\":3110:3147   */\n      tag_100\n        /* \"#utility.yul\":3141:3146   */\n      dup3\n        /* \"#utility.yul\":3110:3147   */\n      tag_101\n      jump\t// in\n    tag_100:\n        /* \"#utility.yul\":3097:3147   */\n      swap1\n      pop\n        /* \"#utility.yul\":3027:3153   */\n      swap2\n      swap1\n      pop\n      jump\t// out\n        /* \"#utility.yul\":3159:3272   */\n    tag_101:\n        /* \"#utility.yul\":3209:3218   */\n      0x00\n        /* \"#utility.yul\":3242:3266   */\n      tag_103\n        /* \"#utility.yul\":3260:3265   */\n      dup3\n        /* \"#utility.yul\":3242:3266   */\n      tag_91\n      jump\t// in\n    tag_103:\n        /* \"#utility.yul\":3229:3266   */\n      swap1\n      pop\n        /* \"#utility.yul\":3159:3272   */\n      swap2\n      swap1\n      pop\n      jump\t// out\n        /* \"#utility.yul\":3401:3518   */\n    tag_55:\n        /* \"#utility.yul\":3510:3511   */\n      0x00\n        /* \"#utility.yul\":3507:3508   */\n      dup1\n        /* \"#utility.yul\":3500:3512   */\n      revert\n        /* \"#utility.yul\":3524:3646   */\n    tag_51:\n        /* \"#utility.yul\":3597:3621   */\n      tag_108\n        /* \"#utility.yul\":3615:3620   */\n      dup2\n        /* \"#utility.yul\":3597:3621   */\n      tag_60\n      jump\t// in\n    tag_108:\n        /* \"#utility.yul\":3590:3595   */\n      dup2\n        /* \"#utility.yul\":3587:3622   */\n      eq\n        /* \"#utility.yul\":3577:3640   */\n      tag_109\n      jumpi\n        /* \"#utility.yul\":3636:3637   */\n      0x00\n        /* \"#utility.yul\":3633:3634   */\n      dup1\n        /* \"#utility.yul\":3626:3638   */\n      revert\n        /* \"#utility.yul\":3577:3640   */\n    tag_109:\n        /* \"#utility.yul\":3524:3646   */\n      pop\n      jump\t// out\n\n    auxdata: 0xa2646970667358221220cc3223c7e22d9f4f55d5c67b033e14f9ce2a0af7e46e6e5cdee3c699db28ef8d64736f6c63430008070033\n}\n",
				"bytecode": {
					"linkReferences": {},
					"object": "60e060405234801561001057600080fd5b50604051610667380380610667833981810160405281019061003291906100da565b8273ffffffffffffffffffffffffffffffffffffffff1660808173ffffffffffffffffffffffffffffffffffffffff1660601b815250508160a081815250503373ffffffffffffffffffffffffffffffffffffffff1660c08173ffffffffffffffffffffffffffffffffffffffff1660601b8152505050505061019c565b6000815190506100bf8161016e565b92915050565b6000815190506100d481610185565b92915050565b6000806000606084860312156100f3576100f2610169565b5b6000610101868287016100b0565b9350506020610112868287016100c5565b9250506040610123868287016100c5565b9150509250925092565b60006101388261013f565b9050919050565b600073ffffffffffffffffffffffffffffffffffffffff82169050919050565b6000819050919050565b600080fd5b6101778161012d565b811461018257600080fd5b50565b61018e8161015f565b811461019957600080fd5b50565b60805160601c60a05160c05160601c6104966101d160003960006101ba0152600061027a0152600061020401526104966000f3fe608060405234801561001057600080fd5b50600436106100935760003560e01c806362ea82db1161006657806362ea82db146101105780637cc3ae8c1461014057806391f901571461015e578063c6bc51821461017c578063d57bde791461019a57610093565b806308551a531461009857806312fa6feb146100b65780631f2698ab146100d457806347ccca02146100f2575b600080fd5b6100a06101b8565b6040516100ad919061032f565b60405180910390f35b6100be6101dc565b6040516100cb919061034a565b60405180910390f35b6100dc6101ef565b6040516100e9919061034a565b60405180910390f35b6100fa610202565b6040516101079190610365565b60405180910390f35b61012a600480360381019061012591906102b7565b610226565b6040516101379190610380565b60405180910390f35b61014861023e565b604051610155919061039b565b60405180910390f35b610166610252565b604051610173919061032f565b60405180910390f35b610184610278565b6040516101919190610380565b60405180910390f35b6101a261029c565b6040516101af9190610380565b60405180910390f35b7f000000000000000000000000000000000000000000000000000000000000000081565b600060059054906101000a900460ff1681565b600060049054906101000a900460ff1681565b7f000000000000000000000000000000000000000000000000000000000000000081565b60026020528060005260406000206000915090505481565b60008054906101000a900463ffffffff1681565b600060069054906101000a900473ffffffffffffffffffffffffffffffffffffffff1681565b7f000000000000000000000000000000000000000000000000000000000000000081565b60015481565b6000813590506102b181610449565b92915050565b6000602082840312156102cd576102cc610444565b5b60006102db848285016102a2565b91505092915050565b6102ed816103b6565b82525050565b6102fc816103c8565b82525050565b61030b8161040e565b82525050565b61031a816103f4565b82525050565b610329816103fe565b82525050565b600060208201905061034460008301846102e4565b92915050565b600060208201905061035f60008301846102f3565b92915050565b600060208201905061037a6000830184610302565b92915050565b60006020820190506103956000830184610311565b92915050565b60006020820190506103b06000830184610320565b92915050565b60006103c1826103d4565b9050919050565b60008115159050919050565b600073ffffffffffffffffffffffffffffffffffffffff82169050919050565b6000819050919050565b600063ffffffff82169050919050565b600061041982610420565b9050919050565b600061042b82610432565b9050919050565b600061043d826103d4565b9050919050565b600080fd5b610452816103b6565b811461045d57600080fd5b5056fea2646970667358221220cc3223c7e22d9f4f55d5c67b033e14f9ce2a0af7e46e6e5cdee3c699db28ef8d64736f6c63430008070033",
					"opcodes": "PUSH1 0xE0 PUSH1 0x40 MSTORE CALLVALUE DUP1 ISZERO PUSH2 0x10 JUMPI PUSH1 0x0 DUP1 REVERT JUMPDEST POP PUSH1 0x40 MLOAD PUSH2 0x667 CODESIZE SUB DUP1 PUSH2 0x667 DUP4 CODECOPY DUP2 DUP2 ADD PUSH1 0x40 MSTORE DUP2 ADD SWAP1 PUSH2 0x32 SWAP2 SWAP1 PUSH2 0xDA JUMP JUMPDEST DUP3 PUSH20 0xFFFFFFFFFFFFFFFFFFFFFFFFFFFFFFFFFFFFFFFF AND PUSH1 0x80 DUP2 PUSH20 0xFFFFFFFFFFFFFFFFFFFFFFFFFFFFFFFFFFFFFFFF AND PUSH1 0x60 SHL DUP2 MSTORE POP POP DUP2 PUSH1 0xA0 DUP2 DUP2 MSTORE POP POP CALLER PUSH20 0xFFFFFFFFFFFFFFFFFFFFFFFFFFFFFFFFFFFFFFFF AND PUSH1 0xC0 DUP2 PUSH20 0xFFFFFFFFFFFFFFFFFFFFFFFFFFFFFFFFFFFFFFFF AND PUSH1 0x60 SHL DUP2 MSTORE POP POP POP POP POP PUSH2 0x19C JUMP JUMPDEST PUSH1 0x0 DUP2 MLOAD SWAP1 POP PUSH2 0xBF DUP2 PUSH2 0x16E JUMP JUMPDEST SWAP3 SWAP2 POP POP JUMP JUMPDEST PUSH1 0x0 DUP2 MLOAD SWAP1 POP PUSH2 0xD4 DUP2 PUSH2 0x185 JUMP JUMPDEST SWAP3 SWAP2 POP POP JUMP JUMPDEST PUSH1 0x0 DUP1 PUSH1 0x0 PUSH1 0x60 DUP5 DUP7 SUB SLT ISZERO PUSH2 0xF3 JUMPI PUSH2 0xF2 PUSH2 0x169 JUMP JUMPDEST JUMPDEST PUSH1 0x0 PUSH2 0x101 DUP7 DUP3 DUP8 ADD PUSH2 0xB0 JUMP JUMPDEST SWAP4 POP POP PUSH1 0x20 PUSH2 0x112 DUP7 DUP3 DUP8 ADD PUSH2 0xC5 JUMP JUMPDEST SWAP3 POP POP PUSH1 0x40 PUSH2 0x123 DUP7 DUP3 DUP8 ADD PUSH2 0xC5 JUMP JUMPDEST SWAP2 POP POP SWAP3 POP SWAP3 POP SWAP3 JUMP JUMPDEST PUSH1 0x0 PUSH2 0x138 DUP3 PUSH2 0x13F JUMP JUMPDEST SWAP1 POP SWAP2 SWAP1 POP JUMP JUMPDEST PUSH1 0x0 PUSH20 0xFFFFFFFFFFFFFFFFFFFFFFFFFFFFFFFFFFFFFFFF DUP3 AND SWAP1 POP SWAP2 SWAP1 POP JUMP JUMPDEST PUSH1 0x0 DUP2 SWAP1 POP SWAP2 SWAP1 POP JUMP JUMPDEST PUSH1 0x0 DUP1 REVERT JUMPDEST PUSH2 0x177 DUP2 PUSH2 0x12D JUMP JUMPDEST DUP2 EQ PUSH2 0x182 JUMPI PUSH1 0x0 DUP1 REVERT JUMPDEST POP JUMP JUMPDEST PUSH2 0x18E DUP2 PUSH2 0x15F JUMP JUMPDEST DUP2 EQ PUSH2 0x199 JUMPI PUSH1 0x0 DUP1 REVERT JUMPDEST POP JUMP JUMPDEST PUSH1 0x80 MLOAD PUSH1 0x60 SHR PUSH1 0xA0 MLOAD PUSH1 0xC0 MLOAD PUSH1 0x60 SHR PUSH2 0x496 PUSH2 0x1D1 PUSH1 0x0 CODECOPY PUSH1 0x0 PUSH2 0x1BA ADD MSTORE PUSH1 0x0 PUSH2 0x27A ADD MSTORE PUSH1 0x0 PUSH2 0x204 ADD MSTORE PUSH2 0x496 PUSH1 0x0 RETURN INVALID PUSH1 0x80 PUSH1 0x40 MSTORE CALLVALUE DUP1 ISZERO PUSH2 0x10 JUMPI PUSH1 0x0 DUP1 REVERT JUMPDEST POP PUSH1 0x4 CALLDATASIZE LT PUSH2 0x93 JUMPI PUSH1 0x0 CALLDATALOAD PUSH1 0xE0 SHR DUP1 PUSH4 0x62EA82DB GT PUSH2 0x66 JUMPI DUP1 PUSH4 0x62EA82DB EQ PUSH2 0x110 JUMPI DUP1 PUSH4 0x7CC3AE8C EQ PUSH2 0x140 JUMPI DUP1 PUSH4 0x91F90157 EQ PUSH2 0x15E JUMPI DUP1 PUSH4 0xC6BC5182 EQ PUSH2 0x17C JUMPI DUP1 PUSH4 0xD57BDE79 EQ PUSH2 0x19A JUMPI PUSH2 0x93 JUMP JUMPDEST DUP1 PUSH4 0x8551A53 EQ PUSH2 0x98 JUMPI DUP1 PUSH4 0x12FA6FEB EQ PUSH2 0xB6 JUMPI DUP1 PUSH4 0x1F2698AB EQ PUSH2 0xD4 JUMPI DUP1 PUSH4 0x47CCCA02 EQ PUSH2 0xF2 JUMPI JUMPDEST PUSH1 0x0 DUP1 REVERT JUMPDEST PUSH2 0xA0 PUSH2 0x1B8 JUMP JUMPDEST PUSH1 0x40 MLOAD PUSH2 0xAD SWAP2 SWAP1 PUSH2 0x32F JUMP JUMPDEST PUSH1 0x40 MLOAD DUP1 SWAP2 SUB SWAP1 RETURN JUMPDEST PUSH2 0xBE PUSH2 0x1DC JUMP JUMPDEST PUSH1 0x40 MLOAD PUSH2 0xCB SWAP2 SWAP1 PUSH2 0x34A JUMP JUMPDEST PUSH1 0x40 MLOAD DUP1 SWAP2 SUB SWAP1 RETURN JUMPDEST PUSH2 0xDC PUSH2 0x1EF JUMP JUMPDEST PUSH1 0x40 MLOAD PUSH2 0xE9 SWAP2 SWAP1 PUSH2 0x34A JUMP JUMPDEST PUSH1 0x40 MLOAD DUP1 SWAP2 SUB SWAP1 RETURN JUMPDEST PUSH2 0xFA PUSH2 0x202 JUMP JUMPDEST PUSH1 0x40 MLOAD PUSH2 0x107 SWAP2 SWAP1 PUSH2 0x365 JUMP JUMPDEST PUSH1 0x40 MLOAD DUP1 SWAP2 SUB SWAP1 RETURN JUMPDEST PUSH2 0x12A PUSH1 0x4 DUP1 CALLDATASIZE SUB DUP2 ADD SWAP1 PUSH2 0x125 SWAP2 SWAP1 PUSH2 0x2B7 JUMP JUMPDEST PUSH2 0x226 JUMP JUMPDEST PUSH1 0x40 MLOAD PUSH2 0x137 SWAP2 SWAP1 PUSH2 0x380 JUMP JUMPDEST PUSH1 0x40 MLOAD DUP1 SWAP2 SUB SWAP1 RETURN JUMPDEST PUSH2 0x148 PUSH2 0x23E JUMP JUMPDEST PUSH1 0x40 MLOAD PUSH2 0x155 SWAP2 SWAP1 PUSH2 0x39B JUMP JUMPDEST PUSH1 0x40 MLOAD DUP1 SWAP2 SUB SWAP1 RETURN JUMPDEST PUSH2 0x166 PUSH2 0x252 JUMP JUMPDEST PUSH1 0x40 MLOAD PUSH2 0x173 SWAP2 SWAP1 PUSH2 0x32F JUMP JUMPDEST PUSH1 0x40 MLOAD DUP1 SWAP2 SUB SWAP1 RETURN JUMPDEST PUSH2 0x184 PUSH2 0x278 JUMP JUMPDEST PUSH1 0x40 MLOAD PUSH2 0x191 SWAP2 SWAP1 PUSH2 0x380 JUMP JUMPDEST PUSH1 0x40 MLOAD DUP1 SWAP2 SUB SWAP1 RETURN JUMPDEST PUSH2 0x1A2 PUSH2 0x29C JUMP JUMPDEST PUSH1 0x40 MLOAD PUSH2 0x1AF SWAP2 SWAP1 PUSH2 0x380 JUMP JUMPDEST PUSH1 0x40 MLOAD DUP1 SWAP2 SUB SWAP1 RETURN JUMPDEST PUSH32 0x0 DUP2 JUMP JUMPDEST PUSH1 0x0 PUSH1 0x5 SWAP1 SLOAD SWAP1 PUSH2 0x100 EXP SWAP1 DIV PUSH1 0xFF AND DUP2 JUMP JUMPDEST PUSH1 0x0 PUSH1 0x4 SWAP1 SLOAD SWAP1 PUSH2 0x100 EXP SWAP1 DIV PUSH1 0xFF AND DUP2 JUMP JUMPDEST PUSH32 0x0 DUP2 JUMP JUMPDEST PUSH1 0x2 PUSH1 0x20 MSTORE DUP1 PUSH1 0x0 MSTORE PUSH1 0x40 PUSH1 0x0 KECCAK256 PUSH1 0x0 SWAP2 POP SWAP1 POP SLOAD DUP2 JUMP JUMPDEST PUSH1 0x0 DUP1 SLOAD SWAP1 PUSH2 0x100 EXP SWAP1 DIV PUSH4 0xFFFFFFFF AND DUP2 JUMP JUMPDEST PUSH1 0x0 PUSH1 0x6 SWAP1 SLOAD SWAP1 PUSH2 0x100 EXP SWAP1 DIV PUSH20 0xFFFFFFFFFFFFFFFFFFFFFFFFFFFFFFFFFFFFFFFF AND DUP2 JUMP JUMPDEST PUSH32 0x0 DUP2 JUMP JUMPDEST PUSH1 0x1 SLOAD DUP2 JUMP JUMPDEST PUSH1 0x0 DUP2 CALLDATALOAD SWAP1 POP PUSH2 0x2B1 DUP2 PUSH2 0x449 JUMP JUMPDEST SWAP3 SWAP2 POP POP JUMP JUMPDEST PUSH1 0x0 PUSH1 0x20 DUP3 DUP5 SUB SLT ISZERO PUSH2 0x2CD JUMPI PUSH2 0x2CC PUSH2 0x444 JUMP JUMPDEST JUMPDEST PUSH1 0x0 PUSH2 0x2DB DUP5 DUP3 DUP6 ADD PUSH2 0x2A2 JUMP JUMPDEST SWAP2 POP POP SWAP3 SWAP2 POP POP JUMP JUMPDEST PUSH2 0x2ED DUP2 PUSH2 0x3B6 JUMP JUMPDEST DUP3 MSTORE POP POP JUMP JUMPDEST PUSH2 0x2FC DUP2 PUSH2 0x3C8 JUMP JUMPDEST DUP3 MSTORE POP POP JUMP JUMPDEST PUSH2 0x30B DUP2 PUSH2 0x40E JUMP JUMPDEST DUP3 MSTORE POP POP JUMP JUMPDEST PUSH2 0x31A DUP2 PUSH2 0x3F4 JUMP JUMPDEST DUP3 MSTORE POP POP JUMP JUMPDEST PUSH2 0x329 DUP2 PUSH2 0x3FE JUMP JUMPDEST DUP3 MSTORE POP POP JUMP JUMPDEST PUSH1 0x0 PUSH1 0x20 DUP3 ADD SWAP1 POP PUSH2 0x344 PUSH1 0x0 DUP4 ADD DUP5 PUSH2 0x2E4 JUMP JUMPDEST SWAP3 SWAP2 POP POP JUMP JUMPDEST PUSH1 0x0 PUSH1 0x20 DUP3 ADD SWAP1 POP PUSH2 0x35F PUSH1 0x0 DUP4 ADD DUP5 PUSH2 0x2F3 JUMP JUMPDEST SWAP3 SWAP2 POP POP JUMP JUMPDEST PUSH1 0x0 PUSH1 0x20 DUP3 ADD SWAP1 POP PUSH2 0x37A PUSH1 0x0 DUP4 ADD DUP5 PUSH2 0x302 JUMP JUMPDEST SWAP3 SWAP2 POP POP JUMP JUMPDEST PUSH1 0x0 PUSH1 0x20 DUP3 ADD SWAP1 POP PUSH2 0x395 PUSH1 0x0 DUP4 ADD DUP5 PUSH2 0x311 JUMP JUMPDEST SWAP3 SWAP2 POP POP JUMP JUMPDEST PUSH1 0x0 PUSH1 0x20 DUP3 ADD SWAP1 POP PUSH2 0x3B0 PUSH1 0x0 DUP4 ADD DUP5 PUSH2 0x320 JUMP JUMPDEST SWAP3 SWAP2 POP POP JUMP JUMPDEST PUSH1 0x0 PUSH2 0x3C1 DUP3 PUSH2 0x3D4 JUMP JUMPDEST SWAP1 POP SWAP2 SWAP1 POP JUMP JUMPDEST PUSH1 0x0 DUP2 ISZERO ISZERO SWAP1 POP SWAP2 SWAP1 POP JUMP JUMPDEST PUSH1 0x0 PUSH20 0xFFFFFFFFFFFFFFFFFFFFFFFFFFFFFFFFFFFFFFFF DUP3 AND SWAP1 POP SWAP2 SWAP1 POP JUMP JUMPDEST PUSH1 0x0 DUP2 SWAP1 POP SWAP2 SWAP1 POP JUMP JUMPDEST PUSH1 0x0 PUSH4 0xFFFFFFFF DUP3 AND SWAP1 POP SWAP2 SWAP1 POP JUMP JUMPDEST PUSH1 0x0 PUSH2 0x419 DUP3 PUSH2 0x420 JUMP JUMPDEST SWAP1 POP SWAP2 SWAP1 POP JUMP JUMPDEST PUSH1 0x0 PUSH2 0x42B DUP3 PUSH2 0x432 JUMP JUMPDEST SWAP1 POP SWAP2 SWAP1 POP JUMP JUMPDEST PUSH1 0x0 PUSH2 0x43D DUP3 PUSH2 0x3D4 JUMP JUMPDEST SWAP1 POP SWAP2 SWAP1 POP JUMP JUMPDEST PUSH1 0x0 DUP1 REVERT JUMPDEST PUSH2 0x452 DUP2 PUSH2 0x3B6 JUMP JUMPDEST DUP2 EQ PUSH2 0x45D JUMPI PUSH1 0x0 DUP1 REVERT JUMPDEST POP JUMP INVALID LOG2 PUSH5 0x6970667358 0x22 SLT KECCAK256 0xCC ORIGIN 0x23 0xC7 0xE2 0x2D SWAP16 0x4F SSTORE 0xD5 0xC6 PUSH28 0x33E14F9CE2A0AF7E46E6E5CDEE3C699DB28EF8D64736F6C63430008 SMOD STOP CALLER "
				},
				"gasEstimates": {
					"creation": {
						"codeDepositCost": "234800",
						"executionCost": "infinite",
						"totalCost": "infinite"
					},
					"external": {
						"bids(address)": "2814",
						"endAt()": "2490",
						"ended()": "2544",
						"highestBid()": "2517",
						"highestBidder()": "2608",
						"nft()": "infinite",
						"nftId()": "infinite",
						"seller()": "infinite",
						"started()": "2566"
					}
				},
				"methodIdentifiers": {
					"bids(address)": "62ea82db",
					"endAt()": "7cc3ae8c",
					"ended()": "12fa6feb",
					"highestBid()": "d57bde79",
					"highestBidder()": "91f90157",
					"nft()": "47ccca02",
					"nftId()": "c6bc5182",
					"seller()": "08551a53",
					"started()": "1f2698ab"
				}
			},
			"storageLayout": {
				"storage": [
					{
						"astId": 20,
						"contract": "contracts/EnglishAuction.sol:EnglishAuction",
						"label": "endAt",
						"offset": 0,
						"slot": "0",
						"type": "t_uint32"
					},
					{
						"astId": 22,
						"contract": "contracts/EnglishAuction.sol:EnglishAuction",
						"label": "started",
						"offset": 4,
						"slot": "0",
						"type": "t_bool"
					},
					{
						"astId": 24,
						"contract": "contracts/EnglishAuction.sol:EnglishAuction",
						"label": "ended",
						"offset": 5,
						"slot": "0",
						"type": "t_bool"
					},
					{
						"astId": 26,
						"contract": "contracts/EnglishAuction.sol:EnglishAuction",
						"label": "highestBidder",
						"offset": 6,
						"slot": "0",
						"type": "t_address"
					},
					{
						"astId": 28,
						"contract": "contracts/EnglishAuction.sol:EnglishAuction",
						"label": "highestBid",
						"offset": 0,
						"slot": "1",
						"type": "t_uint256"
					},
					{
						"astId": 32,
						"contract": "contracts/EnglishAuction.sol:EnglishAuction",
						"label": "bids",
						"offset": 0,
						"slot": "2",
						"type": "t_mapping(t_address,t_uint256)"
					}
				],
				"types": {
					"t_address": {
						"encoding": "inplace",
						"label": "address",
						"numberOfBytes": "20"
					},
					"t_bool": {
						"encoding": "inplace",
						"label": "bool",
						"numberOfBytes": "1"
					},
					"t_mapping(t_address,t_uint256)": {
						"encoding": "mapping",
						"key": "t_address",
						"label": "mapping(address => uint256)",
						"numberOfBytes": "32",
						"value": "t_uint256"
					},
					"t_uint256": {
						"encoding": "inplace",
						"label": "uint256",
						"numberOfBytes": "32"
					},
					"t_uint32": {
						"encoding": "inplace",
						"label": "uint32",
						"numberOfBytes": "4"
					}
				}
			},
			"userdoc": {
				"kind": "user",
				"methods": {},
				"version": 1
			}
		}
	}
}