{
	"contracts/StakePool.sol": {
		"StakePool": {
			"abi": [
				{
					"inputs": [
						{
							"internalType": "address",
							"name": "_tokenAddress",
							"type": "address"
						}
					],
					"stateMutability": "nonpayable",
					"type": "constructor"
				},
				{
					"anonymous": false,
					"inputs": [
						{
							"indexed": true,
							"internalType": "address",
							"name": "user",
							"type": "address"
						},
						{
							"indexed": false,
							"internalType": "uint256",
							"name": "receiveNumber",
							"type": "uint256"
						}
					],
					"name": "Receive",
					"type": "event"
				},
				{
					"anonymous": false,
					"inputs": [
						{
							"indexed": true,
							"internalType": "address",
							"name": "user",
							"type": "address"
						},
						{
							"indexed": false,
							"internalType": "uint256",
							"name": "stakeNumber",
							"type": "uint256"
						}
					],
					"name": "Stake",
					"type": "event"
				},
				{
					"anonymous": false,
					"inputs": [
						{
							"indexed": true,
							"internalType": "address",
							"name": "user",
							"type": "address"
						},
						{
							"indexed": false,
							"internalType": "uint256",
							"name": "unStakeNumber",
							"type": "uint256"
						}
					],
					"name": "UnStake",
					"type": "event"
				},
				{
					"anonymous": false,
					"inputs": [
						{
							"indexed": false,
							"internalType": "uint8",
							"name": "ratio",
							"type": "uint8"
						}
					],
					"name": "UpdateRatio",
					"type": "event"
				},
				{
					"inputs": [],
					"name": "ierc20",
					"outputs": [
						{
							"internalType": "contract IERC20",
							"name": "",
							"type": "address"
						}
					],
					"stateMutability": "view",
					"type": "function"
				},
				{
					"inputs": [],
					"name": "owner",
					"outputs": [
						{
							"internalType": "address",
							"name": "",
							"type": "address"
						}
					],
					"stateMutability": "view",
					"type": "function"
				},
				{
					"inputs": [],
					"name": "ratio",
					"outputs": [
						{
							"internalType": "uint256",
							"name": "",
							"type": "uint256"
						}
					],
					"stateMutability": "view",
					"type": "function"
				},
				{
					"inputs": [],
					"name": "received",
					"outputs": [],
					"stateMutability": "payable",
					"type": "function"
				},
				{
					"inputs": [
						{
							"internalType": "uint8",
							"name": "_ratio",
							"type": "uint8"
						}
					],
					"name": "setRatio",
					"outputs": [],
					"stateMutability": "nonpayable",
					"type": "function"
				},
				{
					"inputs": [
						{
							"internalType": "uint256",
							"name": "_stakeNumber",
							"type": "uint256"
						}
					],
					"name": "stake",
					"outputs": [],
					"stateMutability": "payable",
					"type": "function"
				},
				{
					"inputs": [],
					"name": "tokenAddress",
					"outputs": [
						{
							"internalType": "address",
							"name": "",
							"type": "address"
						}
					],
					"stateMutability": "view",
					"type": "function"
				},
				{
					"inputs": [],
					"name": "totalStakeNumber",
					"outputs": [
						{
							"internalType": "uint256",
							"name": "",
							"type": "uint256"
						}
					],
					"stateMutability": "view",
					"type": "function"
				},
				{
					"inputs": [],
					"name": "unStake",
					"outputs": [],
					"stateMutability": "payable",
					"type": "function"
				},
				{
					"inputs": [
						{
							"internalType": "address",
							"name": "",
							"type": "address"
						}
					],
					"name": "userStakes",
					"outputs": [
						{
							"internalType": "uint256",
							"name": "stakeNumber",
							"type": "uint256"
						},
						{
							"internalType": "uint256",
							"name": "currentInterest",
							"type": "uint256"
						},
						{
							"internalType": "uint256",
							"name": "claimedInterest",
							"type": "uint256"
						},
						{
							"internalType": "uint256",
							"name": "lastStakeTime",
							"type": "uint256"
						}
					],
					"stateMutability": "view",
					"type": "function"
				}
			],
			"devdoc": {
				"kind": "dev",
				"methods": {},
				"version": 1
			},
			"evm": {
				"assembly": "    /* \"contracts/StakePool.sol\":702:3526  contract StakePool{... */\n  mstore(0x40, 0x80)\n    /* \"contracts/StakePool.sol\":1165:1166  1 */\n  0x01\n    /* \"contracts/StakePool.sol\":1131:1166  uint256 public totalStakeNumber = 1 */\n  0x00\n  sstore\n    /* \"contracts/StakePool.sol\":1401:1569  constructor(address _tokenAddress) {... */\n  callvalue\n  dup1\n  iszero\n  tag_1\n  jumpi\n  0x00\n  dup1\n  revert\ntag_1:\n  pop\n  mload(0x40)\n  sub(codesize, bytecodeSize)\n  dup1\n  bytecodeSize\n  dup4\n  codecopy\n  dup2\n  dup2\n  add\n  0x40\n  mstore\n  dup2\n  add\n  swap1\n  tag_2\n  swap2\n  swap1\n  tag_3\n  jump\t// in\ntag_2:\n    /* \"contracts/StakePool.sol\":1461:1474  _tokenAddress */\n  dup1\n    /* \"contracts/StakePool.sol\":1446:1458  tokenAddress */\n  0x01\n  0x00\n    /* \"contracts/StakePool.sol\":1446:1474  tokenAddress = _tokenAddress */\n  0x0100\n  exp\n  dup2\n  sload\n  dup2\n  0xffffffffffffffffffffffffffffffffffffffff\n  mul\n  not\n  and\n  swap1\n  dup4\n  0xffffffffffffffffffffffffffffffffffffffff\n  and\n  mul\n  or\n  swap1\n  sstore\n  pop\n    /* \"contracts/StakePool.sol\":1500:1513  _tokenAddress */\n  dup1\n    /* \"contracts/StakePool.sol\":1484:1490  ierc20 */\n  0x05\n  0x00\n    /* \"contracts/StakePool.sol\":1484:1514  ierc20 = IERC20(_tokenAddress) */\n  0x0100\n  exp\n  dup2\n  sload\n  dup2\n  0xffffffffffffffffffffffffffffffffffffffff\n  mul\n  not\n  and\n  swap1\n  dup4\n  0xffffffffffffffffffffffffffffffffffffffff\n  and\n  mul\n  or\n  swap1\n  sstore\n  pop\n    /* \"contracts/StakePool.sol\":1532:1534  50 */\n  0x32\n    /* \"contracts/StakePool.sol\":1524:1529  ratio */\n  0x03\n    /* \"contracts/StakePool.sol\":1524:1534  ratio = 50 */\n  dup2\n  swap1\n  sstore\n  pop\n    /* \"contracts/StakePool.sol\":1552:1562  msg.sender */\n  caller\n    /* \"contracts/StakePool.sol\":1544:1549  owner */\n  0x02\n  0x00\n    /* \"contracts/StakePool.sol\":1544:1562  owner = msg.sender */\n  0x0100\n  exp\n  dup2\n  sload\n  dup2\n  0xffffffffffffffffffffffffffffffffffffffff\n  mul\n  not\n  and\n  swap1\n  dup4\n  0xffffffffffffffffffffffffffffffffffffffff\n  and\n  mul\n  or\n  swap1\n  sstore\n  pop\n    /* \"contracts/StakePool.sol\":1401:1569  constructor(address _tokenAddress) {... */\n  pop\n    /* \"contracts/StakePool.sol\":702:3526  contract StakePool{... */\n  jump(tag_6)\n    /* \"#utility.yul\":88:205   */\ntag_8:\n    /* \"#utility.yul\":197:198   */\n  0x00\n    /* \"#utility.yul\":194:195   */\n  dup1\n    /* \"#utility.yul\":187:199   */\n  revert\n    /* \"#utility.yul\":334:460   */\ntag_10:\n    /* \"#utility.yul\":371:378   */\n  0x00\n    /* \"#utility.yul\":411:453   */\n  0xffffffffffffffffffffffffffffffffffffffff\n    /* \"#utility.yul\":404:409   */\n  dup3\n    /* \"#utility.yul\":400:454   */\n  and\n    /* \"#utility.yul\":389:454   */\n  swap1\n  pop\n    /* \"#utility.yul\":334:460   */\n  swap2\n  swap1\n  pop\n  jump\t// out\n    /* \"#utility.yul\":466:562   */\ntag_11:\n    /* \"#utility.yul\":503:510   */\n  0x00\n    /* \"#utility.yul\":532:556   */\n  tag_20\n    /* \"#utility.yul\":550:555   */\n  dup3\n    /* \"#utility.yul\":532:556   */\n  tag_10\n  jump\t// in\ntag_20:\n    /* \"#utility.yul\":521:556   */\n  swap1\n  pop\n    /* \"#utility.yul\":466:562   */\n  swap2\n  swap1\n  pop\n  jump\t// out\n    /* \"#utility.yul\":568:690   */\ntag_12:\n    /* \"#utility.yul\":641:665   */\n  tag_22\n    /* \"#utility.yul\":659:664   */\n  dup2\n    /* \"#utility.yul\":641:665   */\n  tag_11\n  jump\t// in\ntag_22:\n    /* \"#utility.yul\":634:639   */\n  dup2\n    /* \"#utility.yul\":631:666   */\n  eq\n    /* \"#utility.yul\":621:684   */\n  tag_23\n  jumpi\n    /* \"#utility.yul\":680:681   */\n  0x00\n    /* \"#utility.yul\":677:678   */\n  dup1\n    /* \"#utility.yul\":670:682   */\n  revert\n    /* \"#utility.yul\":621:684   */\ntag_23:\n    /* \"#utility.yul\":568:690   */\n  pop\n  jump\t// out\n    /* \"#utility.yul\":696:839   */\ntag_13:\n    /* \"#utility.yul\":753:758   */\n  0x00\n    /* \"#utility.yul\":784:790   */\n  dup2\n    /* \"#utility.yul\":778:791   */\n  mload\n    /* \"#utility.yul\":769:791   */\n  swap1\n  pop\n    /* \"#utility.yul\":800:833   */\n  tag_25\n    /* \"#utility.yul\":827:832   */\n  dup2\n    /* \"#utility.yul\":800:833   */\n  tag_12\n  jump\t// in\ntag_25:\n    /* \"#utility.yul\":696:839   */\n  swap3\n  swap2\n  pop\n  pop\n  jump\t// out\n    /* \"#utility.yul\":845:1196   */\ntag_3:\n    /* \"#utility.yul\":915:921   */\n  0x00\n    /* \"#utility.yul\":964:966   */\n  0x20\n    /* \"#utility.yul\":952:961   */\n  dup3\n    /* \"#utility.yul\":943:950   */\n  dup5\n    /* \"#utility.yul\":939:962   */\n  sub\n    /* \"#utility.yul\":935:967   */\n  slt\n    /* \"#utility.yul\":932:1051   */\n  iszero\n  tag_27\n  jumpi\n    /* \"#utility.yul\":970:1049   */\n  tag_28\n  tag_8\n  jump\t// in\ntag_28:\n    /* \"#utility.yul\":932:1051   */\ntag_27:\n    /* \"#utility.yul\":1090:1091   */\n  0x00\n    /* \"#utility.yul\":1115:1179   */\n  tag_29\n    /* \"#utility.yul\":1171:1178   */\n  dup5\n    /* \"#utility.yul\":1162:1168   */\n  dup3\n    /* \"#utility.yul\":1151:1160   */\n  dup6\n    /* \"#utility.yul\":1147:1169   */\n  add\n    /* \"#utility.yul\":1115:1179   */\n  tag_13\n  jump\t// in\ntag_29:\n    /* \"#utility.yul\":1105:1179   */\n  swap2\n  pop\n    /* \"#utility.yul\":1061:1189   */\n  pop\n    /* \"#utility.yul\":845:1196   */\n  swap3\n  swap2\n  pop\n  pop\n  jump\t// out\n    /* \"contracts/StakePool.sol\":702:3526  contract StakePool{... */\ntag_6:\n  dataSize(sub_0)\n  dup1\n  dataOffset(sub_0)\n  0x00\n  codecopy\n  0x00\n  return\nstop\n\nsub_0: assembly {\n        /* \"contracts/StakePool.sol\":702:3526  contract StakePool{... */\n      mstore(0x40, 0x80)\n      jumpi(tag_1, lt(calldatasize, 0x04))\n      shr(0xe0, calldataload(0x00))\n      dup1\n      0x8da5cb5b\n      gt\n      tag_12\n      jumpi\n      dup1\n      0x8da5cb5b\n      eq\n      tag_7\n      jumpi\n      dup1\n      0x8da7ad23\n      eq\n      tag_8\n      jumpi\n      dup1\n      0x9d76ea58\n      eq\n      tag_9\n      jumpi\n      dup1\n      0xa694fc3a\n      eq\n      tag_10\n      jumpi\n      dup1\n      0xbf0ae63d\n      eq\n      tag_11\n      jumpi\n      jump(tag_1)\n    tag_12:\n      dup1\n      0x53b645e5\n      eq\n      tag_2\n      jumpi\n      dup1\n      0x71ca337d\n      eq\n      tag_3\n      jumpi\n      dup1\n      0x73cf575a\n      eq\n      tag_4\n      jumpi\n      dup1\n      0x83a6deb5\n      eq\n      tag_5\n      jumpi\n      dup1\n      0x8d994beb\n      eq\n      tag_6\n      jumpi\n    tag_1:\n      0x00\n      dup1\n      revert\n        /* \"contracts/StakePool.sol\":1131:1166  uint256 public totalStakeNumber = 1 */\n    tag_2:\n      callvalue\n      dup1\n      iszero\n      tag_13\n      jumpi\n      0x00\n      dup1\n      revert\n    tag_13:\n      pop\n      tag_14\n      tag_15\n      jump\t// in\n    tag_14:\n      mload(0x40)\n      tag_16\n      swap2\n      swap1\n      tag_17\n      jump\t// in\n    tag_16:\n      mload(0x40)\n      dup1\n      swap2\n      sub\n      swap1\n      return\n        /* \"contracts/StakePool.sol\":1274:1294  uint256 public ratio */\n    tag_3:\n      callvalue\n      dup1\n      iszero\n      tag_18\n      jumpi\n      0x00\n      dup1\n      revert\n    tag_18:\n      pop\n      tag_19\n      tag_20\n      jump\t// in\n    tag_19:\n      mload(0x40)\n      tag_21\n      swap2\n      swap1\n      tag_17\n      jump\t// in\n    tag_21:\n      mload(0x40)\n      dup1\n      swap2\n      sub\n      swap1\n      return\n        /* \"contracts/StakePool.sol\":2255:2893  function unStake() external payable {... */\n    tag_4:\n      tag_22\n      tag_23\n      jump\t// in\n    tag_22:\n      stop\n        /* \"contracts/StakePool.sol\":2899:3246  function received() external payable {... */\n    tag_5:\n      tag_24\n      tag_25\n      jump\t// in\n    tag_24:\n      stop\n        /* \"contracts/StakePool.sol\":1672:1797  function setRatio(uint8 _ratio) external onlyOwner {    ... */\n    tag_6:\n      callvalue\n      dup1\n      iszero\n      tag_26\n      jumpi\n      0x00\n      dup1\n      revert\n    tag_26:\n      pop\n      tag_27\n      0x04\n      dup1\n      calldatasize\n      sub\n      dup2\n      add\n      swap1\n      tag_28\n      swap2\n      swap1\n      tag_29\n      jump\t// in\n    tag_28:\n      tag_30\n      jump\t// in\n    tag_27:\n      stop\n        /* \"contracts/StakePool.sol\":1248:1268  address public owner */\n    tag_7:\n      callvalue\n      dup1\n      iszero\n      tag_31\n      jumpi\n      0x00\n      dup1\n      revert\n    tag_31:\n      pop\n      tag_32\n      tag_33\n      jump\t// in\n    tag_32:\n      mload(0x40)\n      tag_34\n      swap2\n      swap1\n      tag_35\n      jump\t// in\n    tag_34:\n      mload(0x40)\n      dup1\n      swap2\n      sub\n      swap1\n      return\n        /* \"contracts/StakePool.sol\":1326:1368  mapping(address => User) public userStakes */\n    tag_8:\n      callvalue\n      dup1\n      iszero\n      tag_36\n      jumpi\n      0x00\n      dup1\n      revert\n    tag_36:\n      pop\n      tag_37\n      0x04\n      dup1\n      calldatasize\n      sub\n      dup2\n      add\n      swap1\n      tag_38\n      swap2\n      swap1\n      tag_39\n      jump\t// in\n    tag_38:\n      tag_40\n      jump\t// in\n    tag_37:\n      mload(0x40)\n      tag_41\n      swap5\n      swap4\n      swap3\n      swap2\n      swap1\n      tag_42\n      jump\t// in\n    tag_41:\n      mload(0x40)\n      dup1\n      swap2\n      sub\n      swap1\n      return\n        /* \"contracts/StakePool.sol\":1192:1219  address public tokenAddress */\n    tag_9:\n      callvalue\n      dup1\n      iszero\n      tag_43\n      jumpi\n      0x00\n      dup1\n      revert\n    tag_43:\n      pop\n      tag_44\n      tag_45\n      jump\t// in\n    tag_44:\n      mload(0x40)\n      tag_46\n      swap2\n      swap1\n      tag_35\n      jump\t// in\n    tag_46:\n      mload(0x40)\n      dup1\n      swap2\n      sub\n      swap1\n      return\n        /* \"contracts/StakePool.sol\":1807:2249  function stake(uint256 _stakeNumber) external payable {... */\n    tag_10:\n      tag_47\n      0x04\n      dup1\n      calldatasize\n      sub\n      dup2\n      add\n      swap1\n      tag_48\n      swap2\n      swap1\n      tag_49\n      jump\t// in\n    tag_48:\n      tag_50\n      jump\t// in\n    tag_47:\n      stop\n        /* \"contracts/StakePool.sol\":1374:1394  IERC20 public ierc20 */\n    tag_11:\n      callvalue\n      dup1\n      iszero\n      tag_51\n      jumpi\n      0x00\n      dup1\n      revert\n    tag_51:\n      pop\n      tag_52\n      tag_53\n      jump\t// in\n    tag_52:\n      mload(0x40)\n      tag_54\n      swap2\n      swap1\n      tag_55\n      jump\t// in\n    tag_54:\n      mload(0x40)\n      dup1\n      swap2\n      sub\n      swap1\n      return\n        /* \"contracts/StakePool.sol\":1131:1166  uint256 public totalStakeNumber = 1 */\n    tag_15:\n      sload(0x00)\n      dup2\n      jump\t// out\n        /* \"contracts/StakePool.sol\":1274:1294  uint256 public ratio */\n    tag_20:\n      sload(0x03)\n      dup2\n      jump\t// out\n        /* \"contracts/StakePool.sol\":2255:2893  function unStake() external payable {... */\n    tag_23:\n        /* \"contracts/StakePool.sol\":2338:2352  uint256 insert */\n      0x00\n        /* \"contracts/StakePool.sol\":2355:2370  getUserInsert() */\n      tag_57\n        /* \"contracts/StakePool.sol\":2355:2368  getUserInsert */\n      tag_58\n        /* \"contracts/StakePool.sol\":2355:2370  getUserInsert() */\n      jump\t// in\n    tag_57:\n        /* \"contracts/StakePool.sol\":2338:2370  uint256 insert = getUserInsert() */\n      swap1\n      pop\n        /* \"contracts/StakePool.sol\":2380:2386  ierc20 */\n      0x05\n      0x00\n      swap1\n      sload\n      swap1\n      0x0100\n      exp\n      swap1\n      div\n      0xffffffffffffffffffffffffffffffffffffffff\n      and\n        /* \"contracts/StakePool.sol\":2380:2395  ierc20.transfer */\n      0xffffffffffffffffffffffffffffffffffffffff\n      and\n      0xa9059cbb\n        /* \"contracts/StakePool.sol\":2396:2406  msg.sender */\n      caller\n        /* \"contracts/StakePool.sol\":2408:2418  userStakes */\n      0x04\n        /* \"contracts/StakePool.sol\":2408:2430  userStakes[msg.sender] */\n      0x00\n        /* \"contracts/StakePool.sol\":2419:2429  msg.sender */\n      caller\n        /* \"contracts/StakePool.sol\":2408:2430  userStakes[msg.sender] */\n      0xffffffffffffffffffffffffffffffffffffffff\n      and\n      0xffffffffffffffffffffffffffffffffffffffff\n      and\n      dup2\n      mstore\n      0x20\n      add\n      swap1\n      dup2\n      mstore\n      0x20\n      add\n      0x00\n      keccak256\n        /* \"contracts/StakePool.sol\":2408:2442  userStakes[msg.sender].stakeNumber */\n      0x00\n      add\n      sload\n        /* \"contracts/StakePool.sol\":2380:2443  ierc20.transfer(msg.sender, userStakes[msg.sender].stakeNumber) */\n      mload(0x40)\n      dup4\n      0xffffffff\n      and\n      0xe0\n      shl\n      dup2\n      mstore\n      0x04\n      add\n      tag_59\n      swap3\n      swap2\n      swap1\n      tag_60\n      jump\t// in\n    tag_59:\n      0x20\n      mload(0x40)\n      dup1\n      dup4\n      sub\n      dup2\n      0x00\n      dup8\n      gas\n      call\n      iszero\n      dup1\n      iszero\n      tag_62\n      jumpi\n      returndatasize\n      0x00\n      dup1\n      returndatacopy\n      revert(0x00, returndatasize)\n    tag_62:\n      pop\n      pop\n      pop\n      pop\n      mload(0x40)\n      returndatasize\n      not(0x1f)\n      0x1f\n      dup3\n      add\n      and\n      dup3\n      add\n      dup1\n      0x40\n      mstore\n      pop\n      dup2\n      add\n      swap1\n      tag_63\n      swap2\n      swap1\n      tag_64\n      jump\t// in\n    tag_63:\n      pop\n        /* \"contracts/StakePool.sol\":2453:2459  ierc20 */\n      0x05\n      0x00\n      swap1\n      sload\n      swap1\n      0x0100\n      exp\n      swap1\n      div\n      0xffffffffffffffffffffffffffffffffffffffff\n      and\n        /* \"contracts/StakePool.sol\":2453:2468  ierc20.transfer */\n      0xffffffffffffffffffffffffffffffffffffffff\n      and\n      0xa9059cbb\n        /* \"contracts/StakePool.sol\":2469:2479  msg.sender */\n      caller\n        /* \"contracts/StakePool.sol\":2481:2487  insert */\n      dup4\n        /* \"contracts/StakePool.sol\":2453:2488  ierc20.transfer(msg.sender, insert) */\n      mload(0x40)\n      dup4\n      0xffffffff\n      and\n      0xe0\n      shl\n      dup2\n      mstore\n      0x04\n      add\n      tag_65\n      swap3\n      swap2\n      swap1\n      tag_60\n      jump\t// in\n    tag_65:\n      0x20\n      mload(0x40)\n      dup1\n      dup4\n      sub\n      dup2\n      0x00\n      dup8\n      gas\n      call\n      iszero\n      dup1\n      iszero\n      tag_67\n      jumpi\n      returndatasize\n      0x00\n      dup1\n      returndatacopy\n      revert(0x00, returndatasize)\n    tag_67:\n      pop\n      pop\n      pop\n      pop\n      mload(0x40)\n      returndatasize\n      not(0x1f)\n      0x1f\n      dup3\n      add\n      and\n      dup3\n      add\n      dup1\n      0x40\n      mstore\n      pop\n      dup2\n      add\n      swap1\n      tag_68\n      swap2\n      swap1\n      tag_64\n      jump\t// in\n    tag_68:\n      pop\n        /* \"contracts/StakePool.sol\":2511:2521  msg.sender */\n      caller\n        /* \"contracts/StakePool.sol\":2503:2558  UnStake(msg.sender, userStakes[msg.sender].stakeNumber) */\n      0xffffffffffffffffffffffffffffffffffffffff\n      and\n      0xb24546d975e2628748efc9aced80665e0fad66272033e5c0ea25fd3afac99795\n        /* \"contracts/StakePool.sol\":2523:2533  userStakes */\n      0x04\n        /* \"contracts/StakePool.sol\":2523:2545  userStakes[msg.sender] */\n      0x00\n        /* \"contracts/StakePool.sol\":2534:2544  msg.sender */\n      caller\n        /* \"contracts/StakePool.sol\":2523:2545  userStakes[msg.sender] */\n      0xffffffffffffffffffffffffffffffffffffffff\n      and\n      0xffffffffffffffffffffffffffffffffffffffff\n      and\n      dup2\n      mstore\n      0x20\n      add\n      swap1\n      dup2\n      mstore\n      0x20\n      add\n      0x00\n      keccak256\n        /* \"contracts/StakePool.sol\":2523:2557  userStakes[msg.sender].stakeNumber */\n      0x00\n      add\n      sload\n        /* \"contracts/StakePool.sol\":2503:2558  UnStake(msg.sender, userStakes[msg.sender].stakeNumber) */\n      mload(0x40)\n      tag_69\n      swap2\n      swap1\n      tag_17\n      jump\t// in\n    tag_69:\n      mload(0x40)\n      dup1\n      swap2\n      sub\n      swap1\n      log2\n        /* \"contracts/StakePool.sol\":2581:2591  msg.sender */\n      caller\n        /* \"contracts/StakePool.sol\":2573:2600  Receive(msg.sender, insert) */\n      0xffffffffffffffffffffffffffffffffffffffff\n      and\n      0xd6717f327e0cb88b4a97a7f67a453e9258252c34937ccbdd86de7cb840e7def3\n        /* \"contracts/StakePool.sol\":2593:2599  insert */\n      dup3\n        /* \"contracts/StakePool.sol\":2573:2600  Receive(msg.sender, insert) */\n      mload(0x40)\n      tag_70\n      swap2\n      swap1\n      tag_17\n      jump\t// in\n    tag_70:\n      mload(0x40)\n      dup1\n      swap2\n      sub\n      swap1\n      log2\n        /* \"contracts/StakePool.sol\":2652:2658  insert */\n      dup1\n        /* \"contracts/StakePool.sol\":2610:2620  userStakes */\n      0x04\n        /* \"contracts/StakePool.sol\":2610:2632  userStakes[msg.sender] */\n      0x00\n        /* \"contracts/StakePool.sol\":2621:2631  msg.sender */\n      caller\n        /* \"contracts/StakePool.sol\":2610:2632  userStakes[msg.sender] */\n      0xffffffffffffffffffffffffffffffffffffffff\n      and\n      0xffffffffffffffffffffffffffffffffffffffff\n      and\n      dup2\n      mstore\n      0x20\n      add\n      swap1\n      dup2\n      mstore\n      0x20\n      add\n      0x00\n      keccak256\n        /* \"contracts/StakePool.sol\":2610:2648  userStakes[msg.sender].claimedInterest */\n      0x02\n      add\n      0x00\n        /* \"contracts/StakePool.sol\":2610:2658  userStakes[msg.sender].claimedInterest += insert */\n      dup3\n      dup3\n      sload\n      tag_71\n      swap2\n      swap1\n      tag_72\n      jump\t// in\n    tag_71:\n      swap3\n      pop\n      pop\n      dup2\n      swap1\n      sstore\n      pop\n        /* \"contracts/StakePool.sol\":2707:2722  block.timestamp */\n      timestamp\n        /* \"contracts/StakePool.sol\":2668:2678  userStakes */\n      0x04\n        /* \"contracts/StakePool.sol\":2668:2690  userStakes[msg.sender] */\n      0x00\n        /* \"contracts/StakePool.sol\":2679:2689  msg.sender */\n      caller\n        /* \"contracts/StakePool.sol\":2668:2690  userStakes[msg.sender] */\n      0xffffffffffffffffffffffffffffffffffffffff\n      and\n      0xffffffffffffffffffffffffffffffffffffffff\n      and\n      dup2\n      mstore\n      0x20\n      add\n      swap1\n      dup2\n      mstore\n      0x20\n      add\n      0x00\n      keccak256\n        /* \"contracts/StakePool.sol\":2668:2704  userStakes[msg.sender].lastStakeTime */\n      0x03\n      add\n        /* \"contracts/StakePool.sol\":2668:2722  userStakes[msg.sender].lastStakeTime = block.timestamp */\n      dup2\n      swap1\n      sstore\n      pop\n        /* \"contracts/StakePool.sol\":2752:2762  userStakes */\n      0x04\n        /* \"contracts/StakePool.sol\":2752:2774  userStakes[msg.sender] */\n      0x00\n        /* \"contracts/StakePool.sol\":2763:2773  msg.sender */\n      caller\n        /* \"contracts/StakePool.sol\":2752:2774  userStakes[msg.sender] */\n      0xffffffffffffffffffffffffffffffffffffffff\n      and\n      0xffffffffffffffffffffffffffffffffffffffff\n      and\n      dup2\n      mstore\n      0x20\n      add\n      swap1\n      dup2\n      mstore\n      0x20\n      add\n      0x00\n      keccak256\n        /* \"contracts/StakePool.sol\":2752:2786  userStakes[msg.sender].stakeNumber */\n      0x00\n      add\n      sload\n        /* \"contracts/StakePool.sol\":2732:2748  totalStakeNumber */\n      0x00\n      dup1\n        /* \"contracts/StakePool.sol\":2732:2786  totalStakeNumber -= userStakes[msg.sender].stakeNumber */\n      dup3\n      dup3\n      sload\n      tag_73\n      swap2\n      swap1\n      tag_74\n      jump\t// in\n    tag_73:\n      swap3\n      pop\n      pop\n      dup2\n      swap1\n      sstore\n      pop\n        /* \"contracts/StakePool.sol\":2833:2834  0 */\n      0x00\n        /* \"contracts/StakePool.sol\":2796:2806  userStakes */\n      0x04\n        /* \"contracts/StakePool.sol\":2796:2818  userStakes[msg.sender] */\n      0x00\n        /* \"contracts/StakePool.sol\":2807:2817  msg.sender */\n      caller\n        /* \"contracts/StakePool.sol\":2796:2818  userStakes[msg.sender] */\n      0xffffffffffffffffffffffffffffffffffffffff\n      and\n      0xffffffffffffffffffffffffffffffffffffffff\n      and\n      dup2\n      mstore\n      0x20\n      add\n      swap1\n      dup2\n      mstore\n      0x20\n      add\n      0x00\n      keccak256\n        /* \"contracts/StakePool.sol\":2796:2830  userStakes[msg.sender].stakeNumber */\n      0x00\n      add\n        /* \"contracts/StakePool.sol\":2796:2834  userStakes[msg.sender].stakeNumber = 0 */\n      dup2\n      swap1\n      sstore\n      pop\n        /* \"contracts/StakePool.sol\":2885:2886  0 */\n      0x00\n        /* \"contracts/StakePool.sol\":2844:2854  userStakes */\n      0x04\n        /* \"contracts/StakePool.sol\":2844:2866  userStakes[msg.sender] */\n      0x00\n        /* \"contracts/StakePool.sol\":2855:2865  msg.sender */\n      caller\n        /* \"contracts/StakePool.sol\":2844:2866  userStakes[msg.sender] */\n      0xffffffffffffffffffffffffffffffffffffffff\n      and\n      0xffffffffffffffffffffffffffffffffffffffff\n      and\n      dup2\n      mstore\n      0x20\n      add\n      swap1\n      dup2\n      mstore\n      0x20\n      add\n      0x00\n      keccak256\n        /* \"contracts/StakePool.sol\":2844:2882  userStakes[msg.sender].currentInterest */\n      0x01\n      add\n        /* \"contracts/StakePool.sol\":2844:2886  userStakes[msg.sender].currentInterest = 0 */\n      dup2\n      swap1\n      sstore\n      pop\n        /* \"contracts/StakePool.sol\":2291:2893  {... */\n      pop\n        /* \"contracts/StakePool.sol\":2255:2893  function unStake() external payable {... */\n      jump\t// out\n        /* \"contracts/StakePool.sol\":2899:3246  function received() external payable {... */\n    tag_25:\n        /* \"contracts/StakePool.sol\":2946:2960  uint256 insert */\n      0x00\n        /* \"contracts/StakePool.sol\":2963:2978  getUserInsert() */\n      tag_76\n        /* \"contracts/StakePool.sol\":2963:2976  getUserInsert */\n      tag_58\n        /* \"contracts/StakePool.sol\":2963:2978  getUserInsert() */\n      jump\t// in\n    tag_76:\n        /* \"contracts/StakePool.sol\":2946:2978  uint256 insert = getUserInsert() */\n      swap1\n      pop\n        /* \"contracts/StakePool.sol\":2988:2994  ierc20 */\n      0x05\n      0x00\n      swap1\n      sload\n      swap1\n      0x0100\n      exp\n      swap1\n      div\n      0xffffffffffffffffffffffffffffffffffffffff\n      and\n        /* \"contracts/StakePool.sol\":2988:3003  ierc20.transfer */\n      0xffffffffffffffffffffffffffffffffffffffff\n      and\n      0xa9059cbb\n        /* \"contracts/StakePool.sol\":3004:3014  msg.sender */\n      caller\n        /* \"contracts/StakePool.sol\":3016:3022  insert */\n      dup4\n        /* \"contracts/StakePool.sol\":2988:3023  ierc20.transfer(msg.sender, insert) */\n      mload(0x40)\n      dup4\n      0xffffffff\n      and\n      0xe0\n      shl\n      dup2\n      mstore\n      0x04\n      add\n      tag_77\n      swap3\n      swap2\n      swap1\n      tag_60\n      jump\t// in\n    tag_77:\n      0x20\n      mload(0x40)\n      dup1\n      dup4\n      sub\n      dup2\n      0x00\n      dup8\n      gas\n      call\n      iszero\n      dup1\n      iszero\n      tag_79\n      jumpi\n      returndatasize\n      0x00\n      dup1\n      returndatacopy\n      revert(0x00, returndatasize)\n    tag_79:\n      pop\n      pop\n      pop\n      pop\n      mload(0x40)\n      returndatasize\n      not(0x1f)\n      0x1f\n      dup3\n      add\n      and\n      dup3\n      add\n      dup1\n      0x40\n      mstore\n      pop\n      dup2\n      add\n      swap1\n      tag_80\n      swap2\n      swap1\n      tag_64\n      jump\t// in\n    tag_80:\n      pop\n        /* \"contracts/StakePool.sol\":3046:3056  msg.sender */\n      caller\n        /* \"contracts/StakePool.sol\":3038:3065  Receive(msg.sender, insert) */\n      0xffffffffffffffffffffffffffffffffffffffff\n      and\n      0xd6717f327e0cb88b4a97a7f67a453e9258252c34937ccbdd86de7cb840e7def3\n        /* \"contracts/StakePool.sol\":3058:3064  insert */\n      dup3\n        /* \"contracts/StakePool.sol\":3038:3065  Receive(msg.sender, insert) */\n      mload(0x40)\n      tag_81\n      swap2\n      swap1\n      tag_17\n      jump\t// in\n    tag_81:\n      mload(0x40)\n      dup1\n      swap2\n      sub\n      swap1\n      log2\n        /* \"contracts/StakePool.sol\":3117:3123  insert */\n      dup1\n        /* \"contracts/StakePool.sol\":3075:3085  userStakes */\n      0x04\n        /* \"contracts/StakePool.sol\":3075:3097  userStakes[msg.sender] */\n      0x00\n        /* \"contracts/StakePool.sol\":3086:3096  msg.sender */\n      caller\n        /* \"contracts/StakePool.sol\":3075:3097  userStakes[msg.sender] */\n      0xffffffffffffffffffffffffffffffffffffffff\n      and\n      0xffffffffffffffffffffffffffffffffffffffff\n      and\n      dup2\n      mstore\n      0x20\n      add\n      swap1\n      dup2\n      mstore\n      0x20\n      add\n      0x00\n      keccak256\n        /* \"contracts/StakePool.sol\":3075:3113  userStakes[msg.sender].claimedInterest */\n      0x02\n      add\n      0x00\n        /* \"contracts/StakePool.sol\":3075:3123  userStakes[msg.sender].claimedInterest += insert */\n      dup3\n      dup3\n      sload\n      tag_82\n      swap2\n      swap1\n      tag_72\n      jump\t// in\n    tag_82:\n      swap3\n      pop\n      pop\n      dup2\n      swap1\n      sstore\n      pop\n        /* \"contracts/StakePool.sol\":3172:3187  block.timestamp */\n      timestamp\n        /* \"contracts/StakePool.sol\":3133:3143  userStakes */\n      0x04\n        /* \"contracts/StakePool.sol\":3133:3155  userStakes[msg.sender] */\n      0x00\n        /* \"contracts/StakePool.sol\":3144:3154  msg.sender */\n      caller\n        /* \"contracts/StakePool.sol\":3133:3155  userStakes[msg.sender] */\n      0xffffffffffffffffffffffffffffffffffffffff\n      and\n      0xffffffffffffffffffffffffffffffffffffffff\n      and\n      dup2\n      mstore\n      0x20\n      add\n      swap1\n      dup2\n      mstore\n      0x20\n      add\n      0x00\n      keccak256\n        /* \"contracts/StakePool.sol\":3133:3169  userStakes[msg.sender].lastStakeTime */\n      0x03\n      add\n        /* \"contracts/StakePool.sol\":3133:3187  userStakes[msg.sender].lastStakeTime = block.timestamp */\n      dup2\n      swap1\n      sstore\n      pop\n        /* \"contracts/StakePool.sol\":3238:3239  0 */\n      0x00\n        /* \"contracts/StakePool.sol\":3197:3207  userStakes */\n      0x04\n        /* \"contracts/StakePool.sol\":3197:3219  userStakes[msg.sender] */\n      0x00\n        /* \"contracts/StakePool.sol\":3208:3218  msg.sender */\n      caller\n        /* \"contracts/StakePool.sol\":3197:3219  userStakes[msg.sender] */\n      0xffffffffffffffffffffffffffffffffffffffff\n      and\n      0xffffffffffffffffffffffffffffffffffffffff\n      and\n      dup2\n      mstore\n      0x20\n      add\n      swap1\n      dup2\n      mstore\n      0x20\n      add\n      0x00\n      keccak256\n        /* \"contracts/StakePool.sol\":3197:3235  userStakes[msg.sender].currentInterest */\n      0x01\n      add\n        /* \"contracts/StakePool.sol\":3197:3239  userStakes[msg.sender].currentInterest = 0 */\n      dup2\n      swap1\n      sstore\n      pop\n        /* \"contracts/StakePool.sol\":2936:3246  {... */\n      pop\n        /* \"contracts/StakePool.sol\":2899:3246  function received() external payable {... */\n      jump\t// out\n        /* \"contracts/StakePool.sol\":1672:1797  function setRatio(uint8 _ratio) external onlyOwner {    ... */\n    tag_30:\n        /* \"contracts/StakePool.sol\":1628:1633  owner */\n      0x02\n      0x00\n      swap1\n      sload\n      swap1\n      0x0100\n      exp\n      swap1\n      div\n      0xffffffffffffffffffffffffffffffffffffffff\n      and\n        /* \"contracts/StakePool.sol\":1614:1633  msg.sender == owner */\n      0xffffffffffffffffffffffffffffffffffffffff\n      and\n        /* \"contracts/StakePool.sol\":1614:1624  msg.sender */\n      caller\n        /* \"contracts/StakePool.sol\":1614:1633  msg.sender == owner */\n      0xffffffffffffffffffffffffffffffffffffffff\n      and\n      eq\n        /* \"contracts/StakePool.sol\":1606:1648  require(msg.sender == owner , \"not owner\") */\n      tag_84\n      jumpi\n      mload(0x40)\n      0x08c379a000000000000000000000000000000000000000000000000000000000\n      dup2\n      mstore\n      0x04\n      add\n      tag_85\n      swap1\n      tag_86\n      jump\t// in\n    tag_85:\n      mload(0x40)\n      dup1\n      swap2\n      sub\n      swap1\n      revert\n    tag_84:\n        /* \"contracts/StakePool.sol\":1745:1751  _ratio */\n      dup1\n        /* \"contracts/StakePool.sol\":1737:1751  ratio = _ratio */\n      0xff\n      and\n        /* \"contracts/StakePool.sol\":1737:1742  ratio */\n      0x03\n        /* \"contracts/StakePool.sol\":1737:1751  ratio = _ratio */\n      dup2\n      swap1\n      sstore\n      pop\n        /* \"contracts/StakePool.sol\":1771:1790  UpdateRatio(_ratio) */\n      0x86fdfa566b117b03b2ef4d50c64fe89efd432852397764c120c6796cfdd820f8\n        /* \"contracts/StakePool.sol\":1783:1789  _ratio */\n      dup2\n        /* \"contracts/StakePool.sol\":1771:1790  UpdateRatio(_ratio) */\n      mload(0x40)\n      tag_88\n      swap2\n      swap1\n      tag_89\n      jump\t// in\n    tag_88:\n      mload(0x40)\n      dup1\n      swap2\n      sub\n      swap1\n      log1\n        /* \"contracts/StakePool.sol\":1672:1797  function setRatio(uint8 _ratio) external onlyOwner {    ... */\n      pop\n      jump\t// out\n        /* \"contracts/StakePool.sol\":1248:1268  address public owner */\n    tag_33:\n      0x02\n      0x00\n      swap1\n      sload\n      swap1\n      0x0100\n      exp\n      swap1\n      div\n      0xffffffffffffffffffffffffffffffffffffffff\n      and\n      dup2\n      jump\t// out\n        /* \"contracts/StakePool.sol\":1326:1368  mapping(address => User) public userStakes */\n    tag_40:\n      mstore(0x20, 0x04)\n      dup1\n      0x00\n      mstore\n      keccak256(0x00, 0x40)\n      0x00\n      swap2\n      pop\n      swap1\n      pop\n      dup1\n      0x00\n      add\n      sload\n      swap1\n      dup1\n      0x01\n      add\n      sload\n      swap1\n      dup1\n      0x02\n      add\n      sload\n      swap1\n      dup1\n      0x03\n      add\n      sload\n      swap1\n      pop\n      dup5\n      jump\t// out\n        /* \"contracts/StakePool.sol\":1192:1219  address public tokenAddress */\n    tag_45:\n      0x01\n      0x00\n      swap1\n      sload\n      swap1\n      0x0100\n      exp\n      swap1\n      div\n      0xffffffffffffffffffffffffffffffffffffffff\n      and\n      dup2\n      jump\t// out\n        /* \"contracts/StakePool.sol\":1807:2249  function stake(uint256 _stakeNumber) external payable {... */\n    tag_50:\n        /* \"contracts/StakePool.sol\":1871:1877  ierc20 */\n      0x05\n      0x00\n      swap1\n      sload\n      swap1\n      0x0100\n      exp\n      swap1\n      div\n      0xffffffffffffffffffffffffffffffffffffffff\n      and\n        /* \"contracts/StakePool.sol\":1871:1890  ierc20.transferFrom */\n      0xffffffffffffffffffffffffffffffffffffffff\n      and\n      0x23b872dd\n        /* \"contracts/StakePool.sol\":1891:1901  msg.sender */\n      caller\n        /* \"contracts/StakePool.sol\":1911:1915  this */\n      address\n        /* \"contracts/StakePool.sol\":1918:1930  _stakeNumber */\n      dup5\n        /* \"contracts/StakePool.sol\":1871:1931  ierc20.transferFrom(msg.sender, address(this), _stakeNumber) */\n      mload(0x40)\n      dup5\n      0xffffffff\n      and\n      0xe0\n      shl\n      dup2\n      mstore\n      0x04\n      add\n      tag_91\n      swap4\n      swap3\n      swap2\n      swap1\n      tag_92\n      jump\t// in\n    tag_91:\n      0x20\n      mload(0x40)\n      dup1\n      dup4\n      sub\n      dup2\n      0x00\n      dup8\n      gas\n      call\n      iszero\n      dup1\n      iszero\n      tag_94\n      jumpi\n      returndatasize\n      0x00\n      dup1\n      returndatacopy\n      revert(0x00, returndatasize)\n    tag_94:\n      pop\n      pop\n      pop\n      pop\n      mload(0x40)\n      returndatasize\n      not(0x1f)\n      0x1f\n      dup3\n      add\n      and\n      dup3\n      add\n      dup1\n      0x40\n      mstore\n      pop\n      dup2\n      add\n      swap1\n      tag_95\n      swap2\n      swap1\n      tag_64\n      jump\t// in\n    tag_95:\n      pop\n        /* \"contracts/StakePool.sol\":2015:2030  getUserInsert() */\n      tag_96\n        /* \"contracts/StakePool.sol\":2015:2028  getUserInsert */\n      tag_58\n        /* \"contracts/StakePool.sol\":2015:2030  getUserInsert() */\n      jump\t// in\n    tag_96:\n        /* \"contracts/StakePool.sol\":1974:1984  userStakes */\n      0x04\n        /* \"contracts/StakePool.sol\":1974:1996  userStakes[msg.sender] */\n      0x00\n        /* \"contracts/StakePool.sol\":1985:1995  msg.sender */\n      caller\n        /* \"contracts/StakePool.sol\":1974:1996  userStakes[msg.sender] */\n      0xffffffffffffffffffffffffffffffffffffffff\n      and\n      0xffffffffffffffffffffffffffffffffffffffff\n      and\n      dup2\n      mstore\n      0x20\n      add\n      swap1\n      dup2\n      mstore\n      0x20\n      add\n      0x00\n      keccak256\n        /* \"contracts/StakePool.sol\":1974:2012  userStakes[msg.sender].currentInterest */\n      0x01\n      add\n        /* \"contracts/StakePool.sol\":1974:2030  userStakes[msg.sender].currentInterest = getUserInsert() */\n      dup2\n      swap1\n      sstore\n      pop\n        /* \"contracts/StakePool.sol\":2078:2090  _stakeNumber */\n      dup1\n        /* \"contracts/StakePool.sol\":2040:2050  userStakes */\n      0x04\n        /* \"contracts/StakePool.sol\":2040:2062  userStakes[msg.sender] */\n      0x00\n        /* \"contracts/StakePool.sol\":2051:2061  msg.sender */\n      caller\n        /* \"contracts/StakePool.sol\":2040:2062  userStakes[msg.sender] */\n      0xffffffffffffffffffffffffffffffffffffffff\n      and\n      0xffffffffffffffffffffffffffffffffffffffff\n      and\n      dup2\n      mstore\n      0x20\n      add\n      swap1\n      dup2\n      mstore\n      0x20\n      add\n      0x00\n      keccak256\n        /* \"contracts/StakePool.sol\":2040:2074  userStakes[msg.sender].stakeNumber */\n      0x00\n      add\n      0x00\n        /* \"contracts/StakePool.sol\":2040:2090  userStakes[msg.sender].stakeNumber += _stakeNumber */\n      dup3\n      dup3\n      sload\n      tag_97\n      swap2\n      swap1\n      tag_72\n      jump\t// in\n    tag_97:\n      swap3\n      pop\n      pop\n      dup2\n      swap1\n      sstore\n      pop\n        /* \"contracts/StakePool.sol\":2139:2154  block.timestamp */\n      timestamp\n        /* \"contracts/StakePool.sol\":2100:2110  userStakes */\n      0x04\n        /* \"contracts/StakePool.sol\":2100:2122  userStakes[msg.sender] */\n      0x00\n        /* \"contracts/StakePool.sol\":2111:2121  msg.sender */\n      caller\n        /* \"contracts/StakePool.sol\":2100:2122  userStakes[msg.sender] */\n      0xffffffffffffffffffffffffffffffffffffffff\n      and\n      0xffffffffffffffffffffffffffffffffffffffff\n      and\n      dup2\n      mstore\n      0x20\n      add\n      swap1\n      dup2\n      mstore\n      0x20\n      add\n      0x00\n      keccak256\n        /* \"contracts/StakePool.sol\":2100:2136  userStakes[msg.sender].lastStakeTime */\n      0x03\n      add\n        /* \"contracts/StakePool.sol\":2100:2154  userStakes[msg.sender].lastStakeTime = block.timestamp */\n      dup2\n      swap1\n      sstore\n      pop\n        /* \"contracts/StakePool.sol\":2184:2196  _stakeNumber */\n      dup1\n        /* \"contracts/StakePool.sol\":2164:2180  totalStakeNumber */\n      0x00\n      dup1\n        /* \"contracts/StakePool.sol\":2164:2196  totalStakeNumber += _stakeNumber */\n      dup3\n      dup3\n      sload\n      tag_98\n      swap2\n      swap1\n      tag_72\n      jump\t// in\n    tag_98:\n      swap3\n      pop\n      pop\n      dup2\n      swap1\n      sstore\n      pop\n        /* \"contracts/StakePool.sol\":2217:2227  msg.sender */\n      caller\n        /* \"contracts/StakePool.sol\":2211:2242  Stake(msg.sender, _stakeNumber) */\n      0xffffffffffffffffffffffffffffffffffffffff\n      and\n      0xebedb8b3c678666e7f36970bc8f57abf6d8fa2e828c0da91ea5b75bf68ed101a\n        /* \"contracts/StakePool.sol\":2229:2241  _stakeNumber */\n      dup3\n        /* \"contracts/StakePool.sol\":2211:2242  Stake(msg.sender, _stakeNumber) */\n      mload(0x40)\n      tag_99\n      swap2\n      swap1\n      tag_17\n      jump\t// in\n    tag_99:\n      mload(0x40)\n      dup1\n      swap2\n      sub\n      swap1\n      log2\n        /* \"contracts/StakePool.sol\":1807:2249  function stake(uint256 _stakeNumber) external payable {... */\n      pop\n      jump\t// out\n        /* \"contracts/StakePool.sol\":1374:1394  IERC20 public ierc20 */\n    tag_53:\n      0x05\n      0x00\n      swap1\n      sload\n      swap1\n      0x0100\n      exp\n      swap1\n      div\n      0xffffffffffffffffffffffffffffffffffffffff\n      and\n      dup2\n      jump\t// out\n        /* \"contracts/StakePool.sol\":3253:3520  function getUserInsert() private view returns (uint256 interest) {... */\n    tag_58:\n        /* \"contracts/StakePool.sol\":3300:3316  uint256 interest */\n      0x00\n        /* \"contracts/StakePool.sol\":3504:3512  31536000 */\n      0x01e13380\n        /* \"contracts/StakePool.sol\":3498:3501  100 */\n      0x64\n        /* \"contracts/StakePool.sol\":3490:3495  ratio */\n      sload(0x03)\n        /* \"contracts/StakePool.sol\":3453:3463  userStakes */\n      0x04\n        /* \"contracts/StakePool.sol\":3453:3475  userStakes[msg.sender] */\n      0x00\n        /* \"contracts/StakePool.sol\":3464:3474  msg.sender */\n      caller\n        /* \"contracts/StakePool.sol\":3453:3475  userStakes[msg.sender] */\n      0xffffffffffffffffffffffffffffffffffffffff\n      and\n      0xffffffffffffffffffffffffffffffffffffffff\n      and\n      dup2\n      mstore\n      0x20\n      add\n      swap1\n      dup2\n      mstore\n      0x20\n      add\n      0x00\n      keccak256\n        /* \"contracts/StakePool.sol\":3453:3487  userStakes[msg.sender].stakeNumber */\n      0x00\n      add\n      sload\n        /* \"contracts/StakePool.sol\":3453:3495  userStakes[msg.sender].stakeNumber * ratio */\n      tag_101\n      swap2\n      swap1\n      tag_102\n      jump\t// in\n    tag_101:\n        /* \"contracts/StakePool.sol\":3453:3501  userStakes[msg.sender].stakeNumber * ratio / 100 */\n      tag_103\n      swap2\n      swap1\n      tag_104\n      jump\t// in\n    tag_103:\n        /* \"contracts/StakePool.sol\":3453:3512  userStakes[msg.sender].stakeNumber * ratio / 100 / 31536000 */\n      tag_105\n      swap2\n      swap1\n      tag_104\n      jump\t// in\n    tag_105:\n        /* \"contracts/StakePool.sol\":3412:3422  userStakes */\n      0x04\n        /* \"contracts/StakePool.sol\":3412:3434  userStakes[msg.sender] */\n      0x00\n        /* \"contracts/StakePool.sol\":3423:3433  msg.sender */\n      caller\n        /* \"contracts/StakePool.sol\":3412:3434  userStakes[msg.sender] */\n      0xffffffffffffffffffffffffffffffffffffffff\n      and\n      0xffffffffffffffffffffffffffffffffffffffff\n      and\n      dup2\n      mstore\n      0x20\n      add\n      swap1\n      dup2\n      mstore\n      0x20\n      add\n      0x00\n      keccak256\n        /* \"contracts/StakePool.sol\":3412:3448  userStakes[msg.sender].lastStakeTime */\n      0x03\n      add\n      sload\n        /* \"contracts/StakePool.sol\":3394:3409  block.timestamp */\n      timestamp\n        /* \"contracts/StakePool.sol\":3394:3448  block.timestamp - userStakes[msg.sender].lastStakeTime */\n      tag_106\n      swap2\n      swap1\n      tag_74\n      jump\t// in\n    tag_106:\n        /* \"contracts/StakePool.sol\":3393:3513  (block.timestamp - userStakes[msg.sender].lastStakeTime) * (userStakes[msg.sender].stakeNumber * ratio / 100 / 31536000) */\n      tag_107\n      swap2\n      swap1\n      tag_102\n      jump\t// in\n    tag_107:\n        /* \"contracts/StakePool.sol\":3339:3349  userStakes */\n      0x04\n        /* \"contracts/StakePool.sol\":3339:3361  userStakes[msg.sender] */\n      0x00\n        /* \"contracts/StakePool.sol\":3350:3360  msg.sender */\n      caller\n        /* \"contracts/StakePool.sol\":3339:3361  userStakes[msg.sender] */\n      0xffffffffffffffffffffffffffffffffffffffff\n      and\n      0xffffffffffffffffffffffffffffffffffffffff\n      and\n      dup2\n      mstore\n      0x20\n      add\n      swap1\n      dup2\n      mstore\n      0x20\n      add\n      0x00\n      keccak256\n        /* \"contracts/StakePool.sol\":3339:3377  userStakes[msg.sender].currentInterest */\n      0x01\n      add\n      sload\n        /* \"contracts/StakePool.sol\":3339:3513  userStakes[msg.sender].currentInterest + ... */\n      tag_108\n      swap2\n      swap1\n      tag_72\n      jump\t// in\n    tag_108:\n        /* \"contracts/StakePool.sol\":3328:3513  interest = userStakes[msg.sender].currentInterest + ... */\n      swap1\n      pop\n        /* \"contracts/StakePool.sol\":3253:3520  function getUserInsert() private view returns (uint256 interest) {... */\n      swap1\n      jump\t// out\n        /* \"#utility.yul\":7:84   */\n    tag_109:\n        /* \"#utility.yul\":44:51   */\n      0x00\n        /* \"#utility.yul\":73:78   */\n      dup2\n        /* \"#utility.yul\":62:78   */\n      swap1\n      pop\n        /* \"#utility.yul\":7:84   */\n      swap2\n      swap1\n      pop\n      jump\t// out\n        /* \"#utility.yul\":90:208   */\n    tag_110:\n        /* \"#utility.yul\":177:201   */\n      tag_141\n        /* \"#utility.yul\":195:200   */\n      dup2\n        /* \"#utility.yul\":177:201   */\n      tag_109\n      jump\t// in\n    tag_141:\n        /* \"#utility.yul\":172:175   */\n      dup3\n        /* \"#utility.yul\":165:202   */\n      mstore\n        /* \"#utility.yul\":90:208   */\n      pop\n      pop\n      jump\t// out\n        /* \"#utility.yul\":214:436   */\n    tag_17:\n        /* \"#utility.yul\":307:311   */\n      0x00\n        /* \"#utility.yul\":345:347   */\n      0x20\n        /* \"#utility.yul\":334:343   */\n      dup3\n        /* \"#utility.yul\":330:348   */\n      add\n        /* \"#utility.yul\":322:348   */\n      swap1\n      pop\n        /* \"#utility.yul\":358:429   */\n      tag_143\n        /* \"#utility.yul\":426:427   */\n      0x00\n        /* \"#utility.yul\":415:424   */\n      dup4\n        /* \"#utility.yul\":411:428   */\n      add\n        /* \"#utility.yul\":402:408   */\n      dup5\n        /* \"#utility.yul\":358:429   */\n      tag_110\n      jump\t// in\n    tag_143:\n        /* \"#utility.yul\":214:436   */\n      swap3\n      swap2\n      pop\n      pop\n      jump\t// out\n        /* \"#utility.yul\":523:640   */\n    tag_112:\n        /* \"#utility.yul\":632:633   */\n      0x00\n        /* \"#utility.yul\":629:630   */\n      dup1\n        /* \"#utility.yul\":622:634   */\n      revert\n        /* \"#utility.yul\":769:855   */\n    tag_114:\n        /* \"#utility.yul\":804:811   */\n      0x00\n        /* \"#utility.yul\":844:848   */\n      0xff\n        /* \"#utility.yul\":837:842   */\n      dup3\n        /* \"#utility.yul\":833:849   */\n      and\n        /* \"#utility.yul\":822:849   */\n      swap1\n      pop\n        /* \"#utility.yul\":769:855   */\n      swap2\n      swap1\n      pop\n      jump\t// out\n        /* \"#utility.yul\":861:979   */\n    tag_115:\n        /* \"#utility.yul\":932:954   */\n      tag_149\n        /* \"#utility.yul\":948:953   */\n      dup2\n        /* \"#utility.yul\":932:954   */\n      tag_114\n      jump\t// in\n    tag_149:\n        /* \"#utility.yul\":925:930   */\n      dup2\n        /* \"#utility.yul\":922:955   */\n      eq\n        /* \"#utility.yul\":912:973   */\n      tag_150\n      jumpi\n        /* \"#utility.yul\":969:970   */\n      0x00\n        /* \"#utility.yul\":966:967   */\n      dup1\n        /* \"#utility.yul\":959:971   */\n      revert\n        /* \"#utility.yul\":912:973   */\n    tag_150:\n        /* \"#utility.yul\":861:979   */\n      pop\n      jump\t// out\n        /* \"#utility.yul\":985:1120   */\n    tag_116:\n        /* \"#utility.yul\":1029:1034   */\n      0x00\n        /* \"#utility.yul\":1067:1073   */\n      dup2\n        /* \"#utility.yul\":1054:1074   */\n      calldataload\n        /* \"#utility.yul\":1045:1074   */\n      swap1\n      pop\n        /* \"#utility.yul\":1083:1114   */\n      tag_152\n        /* \"#utility.yul\":1108:1113   */\n      dup2\n        /* \"#utility.yul\":1083:1114   */\n      tag_115\n      jump\t// in\n    tag_152:\n        /* \"#utility.yul\":985:1120   */\n      swap3\n      swap2\n      pop\n      pop\n      jump\t// out\n        /* \"#utility.yul\":1126:1451   */\n    tag_29:\n        /* \"#utility.yul\":1183:1189   */\n      0x00\n        /* \"#utility.yul\":1232:1234   */\n      0x20\n        /* \"#utility.yul\":1220:1229   */\n      dup3\n        /* \"#utility.yul\":1211:1218   */\n      dup5\n        /* \"#utility.yul\":1207:1230   */\n      sub\n        /* \"#utility.yul\":1203:1235   */\n      slt\n        /* \"#utility.yul\":1200:1319   */\n      iszero\n      tag_154\n      jumpi\n        /* \"#utility.yul\":1238:1317   */\n      tag_155\n      tag_112\n      jump\t// in\n    tag_155:\n        /* \"#utility.yul\":1200:1319   */\n    tag_154:\n        /* \"#utility.yul\":1358:1359   */\n      0x00\n        /* \"#utility.yul\":1383:1434   */\n      tag_156\n        /* \"#utility.yul\":1426:1433   */\n      dup5\n        /* \"#utility.yul\":1417:1423   */\n      dup3\n        /* \"#utility.yul\":1406:1415   */\n      dup6\n        /* \"#utility.yul\":1402:1424   */\n      add\n        /* \"#utility.yul\":1383:1434   */\n      tag_116\n      jump\t// in\n    tag_156:\n        /* \"#utility.yul\":1373:1434   */\n      swap2\n      pop\n        /* \"#utility.yul\":1329:1444   */\n      pop\n        /* \"#utility.yul\":1126:1451   */\n      swap3\n      swap2\n      pop\n      pop\n      jump\t// out\n        /* \"#utility.yul\":1457:1583   */\n    tag_117:\n        /* \"#utility.yul\":1494:1501   */\n      0x00\n        /* \"#utility.yul\":1534:1576   */\n      0xffffffffffffffffffffffffffffffffffffffff\n        /* \"#utility.yul\":1527:1532   */\n      dup3\n        /* \"#utility.yul\":1523:1577   */\n      and\n        /* \"#utility.yul\":1512:1577   */\n      swap1\n      pop\n        /* \"#utility.yul\":1457:1583   */\n      swap2\n      swap1\n      pop\n      jump\t// out\n        /* \"#utility.yul\":1589:1685   */\n    tag_118:\n        /* \"#utility.yul\":1626:1633   */\n      0x00\n        /* \"#utility.yul\":1655:1679   */\n      tag_159\n        /* \"#utility.yul\":1673:1678   */\n      dup3\n        /* \"#utility.yul\":1655:1679   */\n      tag_117\n      jump\t// in\n    tag_159:\n        /* \"#utility.yul\":1644:1679   */\n      swap1\n      pop\n        /* \"#utility.yul\":1589:1685   */\n      swap2\n      swap1\n      pop\n      jump\t// out\n        /* \"#utility.yul\":1691:1809   */\n    tag_119:\n        /* \"#utility.yul\":1778:1802   */\n      tag_161\n        /* \"#utility.yul\":1796:1801   */\n      dup2\n        /* \"#utility.yul\":1778:1802   */\n      tag_118\n      jump\t// in\n    tag_161:\n        /* \"#utility.yul\":1773:1776   */\n      dup3\n        /* \"#utility.yul\":1766:1803   */\n      mstore\n        /* \"#utility.yul\":1691:1809   */\n      pop\n      pop\n      jump\t// out\n        /* \"#utility.yul\":1815:2037   */\n    tag_35:\n        /* \"#utility.yul\":1908:1912   */\n      0x00\n        /* \"#utility.yul\":1946:1948   */\n      0x20\n        /* \"#utility.yul\":1935:1944   */\n      dup3\n        /* \"#utility.yul\":1931:1949   */\n      add\n        /* \"#utility.yul\":1923:1949   */\n      swap1\n      pop\n        /* \"#utility.yul\":1959:2030   */\n      tag_163\n        /* \"#utility.yul\":2027:2028   */\n      0x00\n        /* \"#utility.yul\":2016:2025   */\n      dup4\n        /* \"#utility.yul\":2012:2029   */\n      add\n        /* \"#utility.yul\":2003:2009   */\n      dup5\n        /* \"#utility.yul\":1959:2030   */\n      tag_119\n      jump\t// in\n    tag_163:\n        /* \"#utility.yul\":1815:2037   */\n      swap3\n      swap2\n      pop\n      pop\n      jump\t// out\n        /* \"#utility.yul\":2043:2165   */\n    tag_120:\n        /* \"#utility.yul\":2116:2140   */\n      tag_165\n        /* \"#utility.yul\":2134:2139   */\n      dup2\n        /* \"#utility.yul\":2116:2140   */\n      tag_118\n      jump\t// in\n    tag_165:\n        /* \"#utility.yul\":2109:2114   */\n      dup2\n        /* \"#utility.yul\":2106:2141   */\n      eq\n        /* \"#utility.yul\":2096:2159   */\n      tag_166\n      jumpi\n        /* \"#utility.yul\":2155:2156   */\n      0x00\n        /* \"#utility.yul\":2152:2153   */\n      dup1\n        /* \"#utility.yul\":2145:2157   */\n      revert\n        /* \"#utility.yul\":2096:2159   */\n    tag_166:\n        /* \"#utility.yul\":2043:2165   */\n      pop\n      jump\t// out\n        /* \"#utility.yul\":2171:2310   */\n    tag_121:\n        /* \"#utility.yul\":2217:2222   */\n      0x00\n        /* \"#utility.yul\":2255:2261   */\n      dup2\n        /* \"#utility.yul\":2242:2262   */\n      calldataload\n        /* \"#utility.yul\":2233:2262   */\n      swap1\n      pop\n        /* \"#utility.yul\":2271:2304   */\n      tag_168\n        /* \"#utility.yul\":2298:2303   */\n      dup2\n        /* \"#utility.yul\":2271:2304   */\n      tag_120\n      jump\t// in\n    tag_168:\n        /* \"#utility.yul\":2171:2310   */\n      swap3\n      swap2\n      pop\n      pop\n      jump\t// out\n        /* \"#utility.yul\":2316:2645   */\n    tag_39:\n        /* \"#utility.yul\":2375:2381   */\n      0x00\n        /* \"#utility.yul\":2424:2426   */\n      0x20\n        /* \"#utility.yul\":2412:2421   */\n      dup3\n        /* \"#utility.yul\":2403:2410   */\n      dup5\n        /* \"#utility.yul\":2399:2422   */\n      sub\n        /* \"#utility.yul\":2395:2427   */\n      slt\n        /* \"#utility.yul\":2392:2511   */\n      iszero\n      tag_170\n      jumpi\n        /* \"#utility.yul\":2430:2509   */\n      tag_171\n      tag_112\n      jump\t// in\n    tag_171:\n        /* \"#utility.yul\":2392:2511   */\n    tag_170:\n        /* \"#utility.yul\":2550:2551   */\n      0x00\n        /* \"#utility.yul\":2575:2628   */\n      tag_172\n        /* \"#utility.yul\":2620:2627   */\n      dup5\n        /* \"#utility.yul\":2611:2617   */\n      dup3\n        /* \"#utility.yul\":2600:2609   */\n      dup6\n        /* \"#utility.yul\":2596:2618   */\n      add\n        /* \"#utility.yul\":2575:2628   */\n      tag_121\n      jump\t// in\n    tag_172:\n        /* \"#utility.yul\":2565:2628   */\n      swap2\n      pop\n        /* \"#utility.yul\":2521:2638   */\n      pop\n        /* \"#utility.yul\":2316:2645   */\n      swap3\n      swap2\n      pop\n      pop\n      jump\t// out\n        /* \"#utility.yul\":2651:3204   */\n    tag_42:\n        /* \"#utility.yul\":2828:2832   */\n      0x00\n        /* \"#utility.yul\":2866:2869   */\n      0x80\n        /* \"#utility.yul\":2855:2864   */\n      dup3\n        /* \"#utility.yul\":2851:2870   */\n      add\n        /* \"#utility.yul\":2843:2870   */\n      swap1\n      pop\n        /* \"#utility.yul\":2880:2951   */\n      tag_174\n        /* \"#utility.yul\":2948:2949   */\n      0x00\n        /* \"#utility.yul\":2937:2946   */\n      dup4\n        /* \"#utility.yul\":2933:2950   */\n      add\n        /* \"#utility.yul\":2924:2930   */\n      dup8\n        /* \"#utility.yul\":2880:2951   */\n      tag_110\n      jump\t// in\n    tag_174:\n        /* \"#utility.yul\":2961:3033   */\n      tag_175\n        /* \"#utility.yul\":3029:3031   */\n      0x20\n        /* \"#utility.yul\":3018:3027   */\n      dup4\n        /* \"#utility.yul\":3014:3032   */\n      add\n        /* \"#utility.yul\":3005:3011   */\n      dup7\n        /* \"#utility.yul\":2961:3033   */\n      tag_110\n      jump\t// in\n    tag_175:\n        /* \"#utility.yul\":3043:3115   */\n      tag_176\n        /* \"#utility.yul\":3111:3113   */\n      0x40\n        /* \"#utility.yul\":3100:3109   */\n      dup4\n        /* \"#utility.yul\":3096:3114   */\n      add\n        /* \"#utility.yul\":3087:3093   */\n      dup6\n        /* \"#utility.yul\":3043:3115   */\n      tag_110\n      jump\t// in\n    tag_176:\n        /* \"#utility.yul\":3125:3197   */\n      tag_177\n        /* \"#utility.yul\":3193:3195   */\n      0x60\n        /* \"#utility.yul\":3182:3191   */\n      dup4\n        /* \"#utility.yul\":3178:3196   */\n      add\n        /* \"#utility.yul\":3169:3175   */\n      dup5\n        /* \"#utility.yul\":3125:3197   */\n      tag_110\n      jump\t// in\n    tag_177:\n        /* \"#utility.yul\":2651:3204   */\n      swap6\n      swap5\n      pop\n      pop\n      pop\n      pop\n      pop\n      jump\t// out\n        /* \"#utility.yul\":3210:3332   */\n    tag_122:\n        /* \"#utility.yul\":3283:3307   */\n      tag_179\n        /* \"#utility.yul\":3301:3306   */\n      dup2\n        /* \"#utility.yul\":3283:3307   */\n      tag_109\n      jump\t// in\n    tag_179:\n        /* \"#utility.yul\":3276:3281   */\n      dup2\n        /* \"#utility.yul\":3273:3308   */\n      eq\n        /* \"#utility.yul\":3263:3326   */\n      tag_180\n      jumpi\n        /* \"#utility.yul\":3322:3323   */\n      0x00\n        /* \"#utility.yul\":3319:3320   */\n      dup1\n        /* \"#utility.yul\":3312:3324   */\n      revert\n        /* \"#utility.yul\":3263:3326   */\n    tag_180:\n        /* \"#utility.yul\":3210:3332   */\n      pop\n      jump\t// out\n        /* \"#utility.yul\":3338:3477   */\n    tag_123:\n        /* \"#utility.yul\":3384:3389   */\n      0x00\n        /* \"#utility.yul\":3422:3428   */\n      dup2\n        /* \"#utility.yul\":3409:3429   */\n      calldataload\n        /* \"#utility.yul\":3400:3429   */\n      swap1\n      pop\n        /* \"#utility.yul\":3438:3471   */\n      tag_182\n        /* \"#utility.yul\":3465:3470   */\n      dup2\n        /* \"#utility.yul\":3438:3471   */\n      tag_122\n      jump\t// in\n    tag_182:\n        /* \"#utility.yul\":3338:3477   */\n      swap3\n      swap2\n      pop\n      pop\n      jump\t// out\n        /* \"#utility.yul\":3483:3812   */\n    tag_49:\n        /* \"#utility.yul\":3542:3548   */\n      0x00\n        /* \"#utility.yul\":3591:3593   */\n      0x20\n        /* \"#utility.yul\":3579:3588   */\n      dup3\n        /* \"#utility.yul\":3570:3577   */\n      dup5\n        /* \"#utility.yul\":3566:3589   */\n      sub\n        /* \"#utility.yul\":3562:3594   */\n      slt\n        /* \"#utility.yul\":3559:3678   */\n      iszero\n      tag_184\n      jumpi\n        /* \"#utility.yul\":3597:3676   */\n      tag_185\n      tag_112\n      jump\t// in\n    tag_185:\n        /* \"#utility.yul\":3559:3678   */\n    tag_184:\n        /* \"#utility.yul\":3717:3718   */\n      0x00\n        /* \"#utility.yul\":3742:3795   */\n      tag_186\n        /* \"#utility.yul\":3787:3794   */\n      dup5\n        /* \"#utility.yul\":3778:3784   */\n      dup3\n        /* \"#utility.yul\":3767:3776   */\n      dup6\n        /* \"#utility.yul\":3763:3785   */\n      add\n        /* \"#utility.yul\":3742:3795   */\n      tag_123\n      jump\t// in\n    tag_186:\n        /* \"#utility.yul\":3732:3795   */\n      swap2\n      pop\n        /* \"#utility.yul\":3688:3805   */\n      pop\n        /* \"#utility.yul\":3483:3812   */\n      swap3\n      swap2\n      pop\n      pop\n      jump\t// out\n        /* \"#utility.yul\":3818:3878   */\n    tag_124:\n        /* \"#utility.yul\":3846:3849   */\n      0x00\n        /* \"#utility.yul\":3867:3872   */\n      dup2\n        /* \"#utility.yul\":3860:3872   */\n      swap1\n      pop\n        /* \"#utility.yul\":3818:3878   */\n      swap2\n      swap1\n      pop\n      jump\t// out\n        /* \"#utility.yul\":3884:4026   */\n    tag_125:\n        /* \"#utility.yul\":3934:3943   */\n      0x00\n        /* \"#utility.yul\":3967:4020   */\n      tag_189\n        /* \"#utility.yul\":3985:4019   */\n      tag_190\n        /* \"#utility.yul\":3994:4018   */\n      tag_191\n        /* \"#utility.yul\":4012:4017   */\n      dup5\n        /* \"#utility.yul\":3994:4018   */\n      tag_117\n      jump\t// in\n    tag_191:\n        /* \"#utility.yul\":3985:4019   */\n      tag_124\n      jump\t// in\n    tag_190:\n        /* \"#utility.yul\":3967:4020   */\n      tag_117\n      jump\t// in\n    tag_189:\n        /* \"#utility.yul\":3954:4020   */\n      swap1\n      pop\n        /* \"#utility.yul\":3884:4026   */\n      swap2\n      swap1\n      pop\n      jump\t// out\n        /* \"#utility.yul\":4032:4158   */\n    tag_126:\n        /* \"#utility.yul\":4082:4091   */\n      0x00\n        /* \"#utility.yul\":4115:4152   */\n      tag_193\n        /* \"#utility.yul\":4146:4151   */\n      dup3\n        /* \"#utility.yul\":4115:4152   */\n      tag_125\n      jump\t// in\n    tag_193:\n        /* \"#utility.yul\":4102:4152   */\n      swap1\n      pop\n        /* \"#utility.yul\":4032:4158   */\n      swap2\n      swap1\n      pop\n      jump\t// out\n        /* \"#utility.yul\":4164:4303   */\n    tag_127:\n        /* \"#utility.yul\":4227:4236   */\n      0x00\n        /* \"#utility.yul\":4260:4297   */\n      tag_195\n        /* \"#utility.yul\":4291:4296   */\n      dup3\n        /* \"#utility.yul\":4260:4297   */\n      tag_126\n      jump\t// in\n    tag_195:\n        /* \"#utility.yul\":4247:4297   */\n      swap1\n      pop\n        /* \"#utility.yul\":4164:4303   */\n      swap2\n      swap1\n      pop\n      jump\t// out\n        /* \"#utility.yul\":4309:4466   */\n    tag_128:\n        /* \"#utility.yul\":4409:4459   */\n      tag_197\n        /* \"#utility.yul\":4453:4458   */\n      dup2\n        /* \"#utility.yul\":4409:4459   */\n      tag_127\n      jump\t// in\n    tag_197:\n        /* \"#utility.yul\":4404:4407   */\n      dup3\n        /* \"#utility.yul\":4397:4460   */\n      mstore\n        /* \"#utility.yul\":4309:4466   */\n      pop\n      pop\n      jump\t// out\n        /* \"#utility.yul\":4472:4720   */\n    tag_55:\n        /* \"#utility.yul\":4578:4582   */\n      0x00\n        /* \"#utility.yul\":4616:4618   */\n      0x20\n        /* \"#utility.yul\":4605:4614   */\n      dup3\n        /* \"#utility.yul\":4601:4619   */\n      add\n        /* \"#utility.yul\":4593:4619   */\n      swap1\n      pop\n        /* \"#utility.yul\":4629:4713   */\n      tag_199\n        /* \"#utility.yul\":4710:4711   */\n      0x00\n        /* \"#utility.yul\":4699:4708   */\n      dup4\n        /* \"#utility.yul\":4695:4712   */\n      add\n        /* \"#utility.yul\":4686:4692   */\n      dup5\n        /* \"#utility.yul\":4629:4713   */\n      tag_128\n      jump\t// in\n    tag_199:\n        /* \"#utility.yul\":4472:4720   */\n      swap3\n      swap2\n      pop\n      pop\n      jump\t// out\n        /* \"#utility.yul\":4726:5058   */\n    tag_60:\n        /* \"#utility.yul\":4847:4851   */\n      0x00\n        /* \"#utility.yul\":4885:4887   */\n      0x40\n        /* \"#utility.yul\":4874:4883   */\n      dup3\n        /* \"#utility.yul\":4870:4888   */\n      add\n        /* \"#utility.yul\":4862:4888   */\n      swap1\n      pop\n        /* \"#utility.yul\":4898:4969   */\n      tag_201\n        /* \"#utility.yul\":4966:4967   */\n      0x00\n        /* \"#utility.yul\":4955:4964   */\n      dup4\n        /* \"#utility.yul\":4951:4968   */\n      add\n        /* \"#utility.yul\":4942:4948   */\n      dup6\n        /* \"#utility.yul\":4898:4969   */\n      tag_119\n      jump\t// in\n    tag_201:\n        /* \"#utility.yul\":4979:5051   */\n      tag_202\n        /* \"#utility.yul\":5047:5049   */\n      0x20\n        /* \"#utility.yul\":5036:5045   */\n      dup4\n        /* \"#utility.yul\":5032:5050   */\n      add\n        /* \"#utility.yul\":5023:5029   */\n      dup5\n        /* \"#utility.yul\":4979:5051   */\n      tag_110\n      jump\t// in\n    tag_202:\n        /* \"#utility.yul\":4726:5058   */\n      swap4\n      swap3\n      pop\n      pop\n      pop\n      jump\t// out\n        /* \"#utility.yul\":5064:5154   */\n    tag_129:\n        /* \"#utility.yul\":5098:5105   */\n      0x00\n        /* \"#utility.yul\":5141:5146   */\n      dup2\n        /* \"#utility.yul\":5134:5147   */\n      iszero\n        /* \"#utility.yul\":5127:5148   */\n      iszero\n        /* \"#utility.yul\":5116:5148   */\n      swap1\n      pop\n        /* \"#utility.yul\":5064:5154   */\n      swap2\n      swap1\n      pop\n      jump\t// out\n        /* \"#utility.yul\":5160:5276   */\n    tag_130:\n        /* \"#utility.yul\":5230:5251   */\n      tag_205\n        /* \"#utility.yul\":5245:5250   */\n      dup2\n        /* \"#utility.yul\":5230:5251   */\n      tag_129\n      jump\t// in\n    tag_205:\n        /* \"#utility.yul\":5223:5228   */\n      dup2\n        /* \"#utility.yul\":5220:5252   */\n      eq\n        /* \"#utility.yul\":5210:5270   */\n      tag_206\n      jumpi\n        /* \"#utility.yul\":5266:5267   */\n      0x00\n        /* \"#utility.yul\":5263:5264   */\n      dup1\n        /* \"#utility.yul\":5256:5268   */\n      revert\n        /* \"#utility.yul\":5210:5270   */\n    tag_206:\n        /* \"#utility.yul\":5160:5276   */\n      pop\n      jump\t// out\n        /* \"#utility.yul\":5282:5419   */\n    tag_131:\n        /* \"#utility.yul\":5336:5341   */\n      0x00\n        /* \"#utility.yul\":5367:5373   */\n      dup2\n        /* \"#utility.yul\":5361:5374   */\n      mload\n        /* \"#utility.yul\":5352:5374   */\n      swap1\n      pop\n        /* \"#utility.yul\":5383:5413   */\n      tag_208\n        /* \"#utility.yul\":5407:5412   */\n      dup2\n        /* \"#utility.yul\":5383:5413   */\n      tag_130\n      jump\t// in\n    tag_208:\n        /* \"#utility.yul\":5282:5419   */\n      swap3\n      swap2\n      pop\n      pop\n      jump\t// out\n        /* \"#utility.yul\":5425:5770   */\n    tag_64:\n        /* \"#utility.yul\":5492:5498   */\n      0x00\n        /* \"#utility.yul\":5541:5543   */\n      0x20\n        /* \"#utility.yul\":5529:5538   */\n      dup3\n        /* \"#utility.yul\":5520:5527   */\n      dup5\n        /* \"#utility.yul\":5516:5539   */\n      sub\n        /* \"#utility.yul\":5512:5544   */\n      slt\n        /* \"#utility.yul\":5509:5628   */\n      iszero\n      tag_210\n      jumpi\n        /* \"#utility.yul\":5547:5626   */\n      tag_211\n      tag_112\n      jump\t// in\n    tag_211:\n        /* \"#utility.yul\":5509:5628   */\n    tag_210:\n        /* \"#utility.yul\":5667:5668   */\n      0x00\n        /* \"#utility.yul\":5692:5753   */\n      tag_212\n        /* \"#utility.yul\":5745:5752   */\n      dup5\n        /* \"#utility.yul\":5736:5742   */\n      dup3\n        /* \"#utility.yul\":5725:5734   */\n      dup6\n        /* \"#utility.yul\":5721:5743   */\n      add\n        /* \"#utility.yul\":5692:5753   */\n      tag_131\n      jump\t// in\n    tag_212:\n        /* \"#utility.yul\":5682:5753   */\n      swap2\n      pop\n        /* \"#utility.yul\":5638:5763   */\n      pop\n        /* \"#utility.yul\":5425:5770   */\n      swap3\n      swap2\n      pop\n      pop\n      jump\t// out\n        /* \"#utility.yul\":5776:5956   */\n    tag_132:\n        /* \"#utility.yul\":5824:5901   */\n      0x4e487b7100000000000000000000000000000000000000000000000000000000\n        /* \"#utility.yul\":5821:5822   */\n      0x00\n        /* \"#utility.yul\":5814:5902   */\n      mstore\n        /* \"#utility.yul\":5921:5925   */\n      0x11\n        /* \"#utility.yul\":5918:5919   */\n      0x04\n        /* \"#utility.yul\":5911:5926   */\n      mstore\n        /* \"#utility.yul\":5945:5949   */\n      0x24\n        /* \"#utility.yul\":5942:5943   */\n      0x00\n        /* \"#utility.yul\":5935:5950   */\n      revert\n        /* \"#utility.yul\":5962:6267   */\n    tag_72:\n        /* \"#utility.yul\":6002:6005   */\n      0x00\n        /* \"#utility.yul\":6021:6041   */\n      tag_215\n        /* \"#utility.yul\":6039:6040   */\n      dup3\n        /* \"#utility.yul\":6021:6041   */\n      tag_109\n      jump\t// in\n    tag_215:\n        /* \"#utility.yul\":6016:6041   */\n      swap2\n      pop\n        /* \"#utility.yul\":6055:6075   */\n      tag_216\n        /* \"#utility.yul\":6073:6074   */\n      dup4\n        /* \"#utility.yul\":6055:6075   */\n      tag_109\n      jump\t// in\n    tag_216:\n        /* \"#utility.yul\":6050:6075   */\n      swap3\n      pop\n        /* \"#utility.yul\":6209:6210   */\n      dup3\n        /* \"#utility.yul\":6141:6207   */\n      0xffffffffffffffffffffffffffffffffffffffffffffffffffffffffffffffff\n        /* \"#utility.yul\":6137:6211   */\n      sub\n        /* \"#utility.yul\":6134:6135   */\n      dup3\n        /* \"#utility.yul\":6131:6212   */\n      gt\n        /* \"#utility.yul\":6128:6235   */\n      iszero\n      tag_217\n      jumpi\n        /* \"#utility.yul\":6215:6233   */\n      tag_218\n      tag_132\n      jump\t// in\n    tag_218:\n        /* \"#utility.yul\":6128:6235   */\n    tag_217:\n        /* \"#utility.yul\":6259:6260   */\n      dup3\n        /* \"#utility.yul\":6256:6257   */\n      dup3\n        /* \"#utility.yul\":6252:6261   */\n      add\n        /* \"#utility.yul\":6245:6261   */\n      swap1\n      pop\n        /* \"#utility.yul\":5962:6267   */\n      swap3\n      swap2\n      pop\n      pop\n      jump\t// out\n        /* \"#utility.yul\":6273:6464   */\n    tag_74:\n        /* \"#utility.yul\":6313:6317   */\n      0x00\n        /* \"#utility.yul\":6333:6353   */\n      tag_220\n        /* \"#utility.yul\":6351:6352   */\n      dup3\n        /* \"#utility.yul\":6333:6353   */\n      tag_109\n      jump\t// in\n    tag_220:\n        /* \"#utility.yul\":6328:6353   */\n      swap2\n      pop\n        /* \"#utility.yul\":6367:6387   */\n      tag_221\n        /* \"#utility.yul\":6385:6386   */\n      dup4\n        /* \"#utility.yul\":6367:6387   */\n      tag_109\n      jump\t// in\n    tag_221:\n        /* \"#utility.yul\":6362:6387   */\n      swap3\n      pop\n        /* \"#utility.yul\":6406:6407   */\n      dup3\n        /* \"#utility.yul\":6403:6404   */\n      dup3\n        /* \"#utility.yul\":6400:6408   */\n      lt\n        /* \"#utility.yul\":6397:6431   */\n      iszero\n      tag_222\n      jumpi\n        /* \"#utility.yul\":6411:6429   */\n      tag_223\n      tag_132\n      jump\t// in\n    tag_223:\n        /* \"#utility.yul\":6397:6431   */\n    tag_222:\n        /* \"#utility.yul\":6456:6457   */\n      dup3\n        /* \"#utility.yul\":6453:6454   */\n      dup3\n        /* \"#utility.yul\":6449:6458   */\n      sub\n        /* \"#utility.yul\":6441:6458   */\n      swap1\n      pop\n        /* \"#utility.yul\":6273:6464   */\n      swap3\n      swap2\n      pop\n      pop\n      jump\t// out\n        /* \"#utility.yul\":6470:6639   */\n    tag_133:\n        /* \"#utility.yul\":6554:6565   */\n      0x00\n        /* \"#utility.yul\":6588:6594   */\n      dup3\n        /* \"#utility.yul\":6583:6586   */\n      dup3\n        /* \"#utility.yul\":6576:6595   */\n      mstore\n        /* \"#utility.yul\":6628:6632   */\n      0x20\n        /* \"#utility.yul\":6623:6626   */\n      dup3\n        /* \"#utility.yul\":6619:6633   */\n      add\n        /* \"#utility.yul\":6604:6633   */\n      swap1\n      pop\n        /* \"#utility.yul\":6470:6639   */\n      swap3\n      swap2\n      pop\n      pop\n      jump\t// out\n        /* \"#utility.yul\":6645:6804   */\n    tag_134:\n        /* \"#utility.yul\":6785:6796   */\n      0x6e6f74206f776e65720000000000000000000000000000000000000000000000\n        /* \"#utility.yul\":6781:6782   */\n      0x00\n        /* \"#utility.yul\":6773:6779   */\n      dup3\n        /* \"#utility.yul\":6769:6783   */\n      add\n        /* \"#utility.yul\":6762:6797   */\n      mstore\n        /* \"#utility.yul\":6645:6804   */\n      pop\n      jump\t// out\n        /* \"#utility.yul\":6810:7175   */\n    tag_135:\n        /* \"#utility.yul\":6952:6955   */\n      0x00\n        /* \"#utility.yul\":6973:7039   */\n      tag_227\n        /* \"#utility.yul\":7037:7038   */\n      0x09\n        /* \"#utility.yul\":7032:7035   */\n      dup4\n        /* \"#utility.yul\":6973:7039   */\n      tag_133\n      jump\t// in\n    tag_227:\n        /* \"#utility.yul\":6966:7039   */\n      swap2\n      pop\n        /* \"#utility.yul\":7048:7141   */\n      tag_228\n        /* \"#utility.yul\":7137:7140   */\n      dup3\n        /* \"#utility.yul\":7048:7141   */\n      tag_134\n      jump\t// in\n    tag_228:\n        /* \"#utility.yul\":7166:7168   */\n      0x20\n        /* \"#utility.yul\":7161:7164   */\n      dup3\n        /* \"#utility.yul\":7157:7169   */\n      add\n        /* \"#utility.yul\":7150:7169   */\n      swap1\n      pop\n        /* \"#utility.yul\":6810:7175   */\n      swap2\n      swap1\n      pop\n      jump\t// out\n        /* \"#utility.yul\":7181:7600   */\n    tag_86:\n        /* \"#utility.yul\":7347:7351   */\n      0x00\n        /* \"#utility.yul\":7385:7387   */\n      0x20\n        /* \"#utility.yul\":7374:7383   */\n      dup3\n        /* \"#utility.yul\":7370:7388   */\n      add\n        /* \"#utility.yul\":7362:7388   */\n      swap1\n      pop\n        /* \"#utility.yul\":7434:7443   */\n      dup2\n        /* \"#utility.yul\":7428:7432   */\n      dup2\n        /* \"#utility.yul\":7424:7444   */\n      sub\n        /* \"#utility.yul\":7420:7421   */\n      0x00\n        /* \"#utility.yul\":7409:7418   */\n      dup4\n        /* \"#utility.yul\":7405:7422   */\n      add\n        /* \"#utility.yul\":7398:7445   */\n      mstore\n        /* \"#utility.yul\":7462:7593   */\n      tag_230\n        /* \"#utility.yul\":7588:7592   */\n      dup2\n        /* \"#utility.yul\":7462:7593   */\n      tag_135\n      jump\t// in\n    tag_230:\n        /* \"#utility.yul\":7454:7593   */\n      swap1\n      pop\n        /* \"#utility.yul\":7181:7600   */\n      swap2\n      swap1\n      pop\n      jump\t// out\n        /* \"#utility.yul\":7606:7718   */\n    tag_136:\n        /* \"#utility.yul\":7689:7711   */\n      tag_232\n        /* \"#utility.yul\":7705:7710   */\n      dup2\n        /* \"#utility.yul\":7689:7711   */\n      tag_114\n      jump\t// in\n    tag_232:\n        /* \"#utility.yul\":7684:7687   */\n      dup3\n        /* \"#utility.yul\":7677:7712   */\n      mstore\n        /* \"#utility.yul\":7606:7718   */\n      pop\n      pop\n      jump\t// out\n        /* \"#utility.yul\":7724:7938   */\n    tag_89:\n        /* \"#utility.yul\":7813:7817   */\n      0x00\n        /* \"#utility.yul\":7851:7853   */\n      0x20\n        /* \"#utility.yul\":7840:7849   */\n      dup3\n        /* \"#utility.yul\":7836:7854   */\n      add\n        /* \"#utility.yul\":7828:7854   */\n      swap1\n      pop\n        /* \"#utility.yul\":7864:7931   */\n      tag_234\n        /* \"#utility.yul\":7928:7929   */\n      0x00\n        /* \"#utility.yul\":7917:7926   */\n      dup4\n        /* \"#utility.yul\":7913:7930   */\n      add\n        /* \"#utility.yul\":7904:7910   */\n      dup5\n        /* \"#utility.yul\":7864:7931   */\n      tag_136\n      jump\t// in\n    tag_234:\n        /* \"#utility.yul\":7724:7938   */\n      swap3\n      swap2\n      pop\n      pop\n      jump\t// out\n        /* \"#utility.yul\":7944:8386   */\n    tag_92:\n        /* \"#utility.yul\":8093:8097   */\n      0x00\n        /* \"#utility.yul\":8131:8133   */\n      0x60\n        /* \"#utility.yul\":8120:8129   */\n      dup3\n        /* \"#utility.yul\":8116:8134   */\n      add\n        /* \"#utility.yul\":8108:8134   */\n      swap1\n      pop\n        /* \"#utility.yul\":8144:8215   */\n      tag_236\n        /* \"#utility.yul\":8212:8213   */\n      0x00\n        /* \"#utility.yul\":8201:8210   */\n      dup4\n        /* \"#utility.yul\":8197:8214   */\n      add\n        /* \"#utility.yul\":8188:8194   */\n      dup7\n        /* \"#utility.yul\":8144:8215   */\n      tag_119\n      jump\t// in\n    tag_236:\n        /* \"#utility.yul\":8225:8297   */\n      tag_237\n        /* \"#utility.yul\":8293:8295   */\n      0x20\n        /* \"#utility.yul\":8282:8291   */\n      dup4\n        /* \"#utility.yul\":8278:8296   */\n      add\n        /* \"#utility.yul\":8269:8275   */\n      dup6\n        /* \"#utility.yul\":8225:8297   */\n      tag_119\n      jump\t// in\n    tag_237:\n        /* \"#utility.yul\":8307:8379   */\n      tag_238\n        /* \"#utility.yul\":8375:8377   */\n      0x40\n        /* \"#utility.yul\":8364:8373   */\n      dup4\n        /* \"#utility.yul\":8360:8378   */\n      add\n        /* \"#utility.yul\":8351:8357   */\n      dup5\n        /* \"#utility.yul\":8307:8379   */\n      tag_110\n      jump\t// in\n    tag_238:\n        /* \"#utility.yul\":7944:8386   */\n      swap5\n      swap4\n      pop\n      pop\n      pop\n      pop\n      jump\t// out\n        /* \"#utility.yul\":8392:8740   */\n    tag_102:\n        /* \"#utility.yul\":8432:8439   */\n      0x00\n        /* \"#utility.yul\":8455:8475   */\n      tag_240\n        /* \"#utility.yul\":8473:8474   */\n      dup3\n        /* \"#utility.yul\":8455:8475   */\n      tag_109\n      jump\t// in\n    tag_240:\n        /* \"#utility.yul\":8450:8475   */\n      swap2\n      pop\n        /* \"#utility.yul\":8489:8509   */\n      tag_241\n        /* \"#utility.yul\":8507:8508   */\n      dup4\n        /* \"#utility.yul\":8489:8509   */\n      tag_109\n      jump\t// in\n    tag_241:\n        /* \"#utility.yul\":8484:8509   */\n      swap3\n      pop\n        /* \"#utility.yul\":8677:8678   */\n      dup2\n        /* \"#utility.yul\":8609:8675   */\n      0xffffffffffffffffffffffffffffffffffffffffffffffffffffffffffffffff\n        /* \"#utility.yul\":8605:8679   */\n      div\n        /* \"#utility.yul\":8602:8603   */\n      dup4\n        /* \"#utility.yul\":8599:8680   */\n      gt\n        /* \"#utility.yul\":8594:8595   */\n      dup3\n        /* \"#utility.yul\":8587:8596   */\n      iszero\n        /* \"#utility.yul\":8580:8597   */\n      iszero\n        /* \"#utility.yul\":8576:8681   */\n      and\n        /* \"#utility.yul\":8573:8704   */\n      iszero\n      tag_242\n      jumpi\n        /* \"#utility.yul\":8684:8702   */\n      tag_243\n      tag_132\n      jump\t// in\n    tag_243:\n        /* \"#utility.yul\":8573:8704   */\n    tag_242:\n        /* \"#utility.yul\":8732:8733   */\n      dup3\n        /* \"#utility.yul\":8729:8730   */\n      dup3\n        /* \"#utility.yul\":8725:8734   */\n      mul\n        /* \"#utility.yul\":8714:8734   */\n      swap1\n      pop\n        /* \"#utility.yul\":8392:8740   */\n      swap3\n      swap2\n      pop\n      pop\n      jump\t// out\n        /* \"#utility.yul\":8746:8926   */\n    tag_137:\n        /* \"#utility.yul\":8794:8871   */\n      0x4e487b7100000000000000000000000000000000000000000000000000000000\n        /* \"#utility.yul\":8791:8792   */\n      0x00\n        /* \"#utility.yul\":8784:8872   */\n      mstore\n        /* \"#utility.yul\":8891:8895   */\n      0x12\n        /* \"#utility.yul\":8888:8889   */\n      0x04\n        /* \"#utility.yul\":8881:8896   */\n      mstore\n        /* \"#utility.yul\":8915:8919   */\n      0x24\n        /* \"#utility.yul\":8912:8913   */\n      0x00\n        /* \"#utility.yul\":8905:8920   */\n      revert\n        /* \"#utility.yul\":8932:9117   */\n    tag_104:\n        /* \"#utility.yul\":8972:8973   */\n      0x00\n        /* \"#utility.yul\":8989:9009   */\n      tag_246\n        /* \"#utility.yul\":9007:9008   */\n      dup3\n        /* \"#utility.yul\":8989:9009   */\n      tag_109\n      jump\t// in\n    tag_246:\n        /* \"#utility.yul\":8984:9009   */\n      swap2\n      pop\n        /* \"#utility.yul\":9023:9043   */\n      tag_247\n        /* \"#utility.yul\":9041:9042   */\n      dup4\n        /* \"#utility.yul\":9023:9043   */\n      tag_109\n      jump\t// in\n    tag_247:\n        /* \"#utility.yul\":9018:9043   */\n      swap3\n      pop\n        /* \"#utility.yul\":9062:9063   */\n      dup3\n        /* \"#utility.yul\":9052:9087   */\n      tag_248\n      jumpi\n        /* \"#utility.yul\":9067:9085   */\n      tag_249\n      tag_137\n      jump\t// in\n    tag_249:\n        /* \"#utility.yul\":9052:9087   */\n    tag_248:\n        /* \"#utility.yul\":9109:9110   */\n      dup3\n        /* \"#utility.yul\":9106:9107   */\n      dup3\n        /* \"#utility.yul\":9102:9111   */\n      div\n        /* \"#utility.yul\":9097:9111   */\n      swap1\n      pop\n        /* \"#utility.yul\":8932:9117   */\n      swap3\n      swap2\n      pop\n      pop\n      jump\t// out\n\n    auxdata: 0xa26469706673582212209d98896aa3686a5361ab31cee27dc6fbc6d0443331478db8964387583d988da064736f6c634300080f0033\n}\n",
				"bytecode": {
					"linkReferences": {},
					"object": "608060405260016000553480156200001657600080fd5b50604051620013b5380380620013b583398181016040528101906200003c919062000178565b80600160006101000a81548173ffffffffffffffffffffffffffffffffffffffff021916908373ffffffffffffffffffffffffffffffffffffffff16021790555080600560006101000a81548173ffffffffffffffffffffffffffffffffffffffff021916908373ffffffffffffffffffffffffffffffffffffffff160217905550603260038190555033600260006101000a81548173ffffffffffffffffffffffffffffffffffffffff021916908373ffffffffffffffffffffffffffffffffffffffff16021790555050620001aa565b600080fd5b600073ffffffffffffffffffffffffffffffffffffffff82169050919050565b6000620001408262000113565b9050919050565b620001528162000133565b81146200015e57600080fd5b50565b600081519050620001728162000147565b92915050565b6000602082840312156200019157620001906200010e565b5b6000620001a18482850162000161565b91505092915050565b6111fb80620001ba6000396000f3fe6080604052600436106100915760003560e01c80638da5cb5b116100595780638da5cb5b146101295780638da7ad23146101545780639d76ea5814610194578063a694fc3a146101bf578063bf0ae63d146101db57610091565b806353b645e51461009657806371ca337d146100c157806373cf575a146100ec57806383a6deb5146100f65780638d994beb14610100575b600080fd5b3480156100a257600080fd5b506100ab610206565b6040516100b89190610c93565b60405180910390f35b3480156100cd57600080fd5b506100d661020c565b6040516100e39190610c93565b60405180910390f35b6100f4610212565b005b6100fe61060d565b005b34801561010c57600080fd5b5061012760048036038101906101229190610cec565b6107f3565b005b34801561013557600080fd5b5061013e6108c7565b60405161014b9190610d5a565b60405180910390f35b34801561016057600080fd5b5061017b60048036038101906101769190610da1565b6108ed565b60405161018b9493929190610dce565b60405180910390f35b3480156101a057600080fd5b506101a961091d565b6040516101b69190610d5a565b60405180910390f35b6101d960048036038101906101d49190610e3f565b610943565b005b3480156101e757600080fd5b506101f0610b3d565b6040516101fd9190610ecb565b60405180910390f35b60005481565b60035481565b600061021c610b63565b9050600560009054906101000a900473ffffffffffffffffffffffffffffffffffffffff1673ffffffffffffffffffffffffffffffffffffffff1663a9059cbb33600460003373ffffffffffffffffffffffffffffffffffffffff1673ffffffffffffffffffffffffffffffffffffffff168152602001908152602001600020600001546040518363ffffffff1660e01b81526004016102bd929190610ee6565b6020604051808303816000875af11580156102dc573d6000803e3d6000fd5b505050506040513d601f19601f820116820180604052508101906103009190610f47565b50600560009054906101000a900473ffffffffffffffffffffffffffffffffffffffff1673ffffffffffffffffffffffffffffffffffffffff1663a9059cbb33836040518363ffffffff1660e01b815260040161035e929190610ee6565b6020604051808303816000875af115801561037d573d6000803e3d6000fd5b505050506040513d601f19601f820116820180604052508101906103a19190610f47565b503373ffffffffffffffffffffffffffffffffffffffff167fb24546d975e2628748efc9aced80665e0fad66272033e5c0ea25fd3afac99795600460003373ffffffffffffffffffffffffffffffffffffffff1673ffffffffffffffffffffffffffffffffffffffff1681526020019081526020016000206000015460405161042a9190610c93565b60405180910390a23373ffffffffffffffffffffffffffffffffffffffff167fd6717f327e0cb88b4a97a7f67a453e9258252c34937ccbdd86de7cb840e7def3826040516104789190610c93565b60405180910390a280600460003373ffffffffffffffffffffffffffffffffffffffff1673ffffffffffffffffffffffffffffffffffffffff16815260200190815260200160002060020160008282546104d29190610fa3565b9250508190555042600460003373ffffffffffffffffffffffffffffffffffffffff1673ffffffffffffffffffffffffffffffffffffffff16815260200190815260200160002060030181905550600460003373ffffffffffffffffffffffffffffffffffffffff1673ffffffffffffffffffffffffffffffffffffffff168152602001908152602001600020600001546000808282546105739190610ff9565b925050819055506000600460003373ffffffffffffffffffffffffffffffffffffffff1673ffffffffffffffffffffffffffffffffffffffff168152602001908152602001600020600001819055506000600460003373ffffffffffffffffffffffffffffffffffffffff1673ffffffffffffffffffffffffffffffffffffffff1681526020019081526020016000206001018190555050565b6000610617610b63565b9050600560009054906101000a900473ffffffffffffffffffffffffffffffffffffffff1673ffffffffffffffffffffffffffffffffffffffff1663a9059cbb33836040518363ffffffff1660e01b8152600401610676929190610ee6565b6020604051808303816000875af1158015610695573d6000803e3d6000fd5b505050506040513d601f19601f820116820180604052508101906106b99190610f47565b503373ffffffffffffffffffffffffffffffffffffffff167fd6717f327e0cb88b4a97a7f67a453e9258252c34937ccbdd86de7cb840e7def3826040516107009190610c93565b60405180910390a280600460003373ffffffffffffffffffffffffffffffffffffffff1673ffffffffffffffffffffffffffffffffffffffff168152602001908152602001600020600201600082825461075a9190610fa3565b9250508190555042600460003373ffffffffffffffffffffffffffffffffffffffff1673ffffffffffffffffffffffffffffffffffffffff168152602001908152602001600020600301819055506000600460003373ffffffffffffffffffffffffffffffffffffffff1673ffffffffffffffffffffffffffffffffffffffff1681526020019081526020016000206001018190555050565b600260009054906101000a900473ffffffffffffffffffffffffffffffffffffffff1673ffffffffffffffffffffffffffffffffffffffff163373ffffffffffffffffffffffffffffffffffffffff1614610883576040517f08c379a000000000000000000000000000000000000000000000000000000000815260040161087a9061108a565b60405180910390fd5b8060ff166003819055507f86fdfa566b117b03b2ef4d50c64fe89efd432852397764c120c6796cfdd820f8816040516108bc91906110b9565b60405180910390a150565b600260009054906101000a900473ffffffffffffffffffffffffffffffffffffffff1681565b60046020528060005260406000206000915090508060000154908060010154908060020154908060030154905084565b600160009054906101000a900473ffffffffffffffffffffffffffffffffffffffff1681565b600560009054906101000a900473ffffffffffffffffffffffffffffffffffffffff1673ffffffffffffffffffffffffffffffffffffffff166323b872dd3330846040518463ffffffff1660e01b81526004016109a2939291906110d4565b6020604051808303816000875af11580156109c1573d6000803e3d6000fd5b505050506040513d601f19601f820116820180604052508101906109e59190610f47565b506109ee610b63565b600460003373ffffffffffffffffffffffffffffffffffffffff1673ffffffffffffffffffffffffffffffffffffffff1681526020019081526020016000206001018190555080600460003373ffffffffffffffffffffffffffffffffffffffff1673ffffffffffffffffffffffffffffffffffffffff1681526020019081526020016000206000016000828254610a869190610fa3565b9250508190555042600460003373ffffffffffffffffffffffffffffffffffffffff1673ffffffffffffffffffffffffffffffffffffffff1681526020019081526020016000206003018190555080600080828254610ae59190610fa3565b925050819055503373ffffffffffffffffffffffffffffffffffffffff167febedb8b3c678666e7f36970bc8f57abf6d8fa2e828c0da91ea5b75bf68ed101a82604051610b329190610c93565b60405180910390a250565b600560009054906101000a900473ffffffffffffffffffffffffffffffffffffffff1681565b60006301e133806064600354600460003373ffffffffffffffffffffffffffffffffffffffff1673ffffffffffffffffffffffffffffffffffffffff16815260200190815260200160002060000154610bbc919061110b565b610bc69190611194565b610bd09190611194565b600460003373ffffffffffffffffffffffffffffffffffffffff1673ffffffffffffffffffffffffffffffffffffffff1681526020019081526020016000206003015442610c1e9190610ff9565b610c28919061110b565b600460003373ffffffffffffffffffffffffffffffffffffffff1673ffffffffffffffffffffffffffffffffffffffff16815260200190815260200160002060010154610c759190610fa3565b905090565b6000819050919050565b610c8d81610c7a565b82525050565b6000602082019050610ca86000830184610c84565b92915050565b600080fd5b600060ff82169050919050565b610cc981610cb3565b8114610cd457600080fd5b50565b600081359050610ce681610cc0565b92915050565b600060208284031215610d0257610d01610cae565b5b6000610d1084828501610cd7565b91505092915050565b600073ffffffffffffffffffffffffffffffffffffffff82169050919050565b6000610d4482610d19565b9050919050565b610d5481610d39565b82525050565b6000602082019050610d6f6000830184610d4b565b92915050565b610d7e81610d39565b8114610d8957600080fd5b50565b600081359050610d9b81610d75565b92915050565b600060208284031215610db757610db6610cae565b5b6000610dc584828501610d8c565b91505092915050565b6000608082019050610de36000830187610c84565b610df06020830186610c84565b610dfd6040830185610c84565b610e0a6060830184610c84565b95945050505050565b610e1c81610c7a565b8114610e2757600080fd5b50565b600081359050610e3981610e13565b92915050565b600060208284031215610e5557610e54610cae565b5b6000610e6384828501610e2a565b91505092915050565b6000819050919050565b6000610e91610e8c610e8784610d19565b610e6c565b610d19565b9050919050565b6000610ea382610e76565b9050919050565b6000610eb582610e98565b9050919050565b610ec581610eaa565b82525050565b6000602082019050610ee06000830184610ebc565b92915050565b6000604082019050610efb6000830185610d4b565b610f086020830184610c84565b9392505050565b60008115159050919050565b610f2481610f0f565b8114610f2f57600080fd5b50565b600081519050610f4181610f1b565b92915050565b600060208284031215610f5d57610f5c610cae565b5b6000610f6b84828501610f32565b91505092915050565b7f4e487b7100000000000000000000000000000000000000000000000000000000600052601160045260246000fd5b6000610fae82610c7a565b9150610fb983610c7a565b9250827fffffffffffffffffffffffffffffffffffffffffffffffffffffffffffffffff03821115610fee57610fed610f74565b5b828201905092915050565b600061100482610c7a565b915061100f83610c7a565b92508282101561102257611021610f74565b5b828203905092915050565b600082825260208201905092915050565b7f6e6f74206f776e65720000000000000000000000000000000000000000000000600082015250565b600061107460098361102d565b915061107f8261103e565b602082019050919050565b600060208201905081810360008301526110a381611067565b9050919050565b6110b381610cb3565b82525050565b60006020820190506110ce60008301846110aa565b92915050565b60006060820190506110e96000830186610d4b565b6110f66020830185610d4b565b6111036040830184610c84565b949350505050565b600061111682610c7a565b915061112183610c7a565b9250817fffffffffffffffffffffffffffffffffffffffffffffffffffffffffffffffff048311821515161561115a57611159610f74565b5b828202905092915050565b7f4e487b7100000000000000000000000000000000000000000000000000000000600052601260045260246000fd5b600061119f82610c7a565b91506111aa83610c7a565b9250826111ba576111b9611165565b5b82820490509291505056fea26469706673582212209d98896aa3686a5361ab31cee27dc6fbc6d0443331478db8964387583d988da064736f6c634300080f0033",
					"opcodes": "PUSH1 0x80 PUSH1 0x40 MSTORE PUSH1 0x1 PUSH1 0x0 SSTORE CALLVALUE DUP1 ISZERO PUSH3 0x16 JUMPI PUSH1 0x0 DUP1 REVERT JUMPDEST POP PUSH1 0x40 MLOAD PUSH3 0x13B5 CODESIZE SUB DUP1 PUSH3 0x13B5 DUP4 CODECOPY DUP2 DUP2 ADD PUSH1 0x40 MSTORE DUP2 ADD SWAP1 PUSH3 0x3C SWAP2 SWAP1 PUSH3 0x178 JUMP JUMPDEST DUP1 PUSH1 0x1 PUSH1 0x0 PUSH2 0x100 EXP DUP2 SLOAD DUP2 PUSH20 0xFFFFFFFFFFFFFFFFFFFFFFFFFFFFFFFFFFFFFFFF MUL NOT AND SWAP1 DUP4 PUSH20 0xFFFFFFFFFFFFFFFFFFFFFFFFFFFFFFFFFFFFFFFF AND MUL OR SWAP1 SSTORE POP DUP1 PUSH1 0x5 PUSH1 0x0 PUSH2 0x100 EXP DUP2 SLOAD DUP2 PUSH20 0xFFFFFFFFFFFFFFFFFFFFFFFFFFFFFFFFFFFFFFFF MUL NOT AND SWAP1 DUP4 PUSH20 0xFFFFFFFFFFFFFFFFFFFFFFFFFFFFFFFFFFFFFFFF AND MUL OR SWAP1 SSTORE POP PUSH1 0x32 PUSH1 0x3 DUP2 SWAP1 SSTORE POP CALLER PUSH1 0x2 PUSH1 0x0 PUSH2 0x100 EXP DUP2 SLOAD DUP2 PUSH20 0xFFFFFFFFFFFFFFFFFFFFFFFFFFFFFFFFFFFFFFFF MUL NOT AND SWAP1 DUP4 PUSH20 0xFFFFFFFFFFFFFFFFFFFFFFFFFFFFFFFFFFFFFFFF AND MUL OR SWAP1 SSTORE POP POP PUSH3 0x1AA JUMP JUMPDEST PUSH1 0x0 DUP1 REVERT JUMPDEST PUSH1 0x0 PUSH20 0xFFFFFFFFFFFFFFFFFFFFFFFFFFFFFFFFFFFFFFFF DUP3 AND SWAP1 POP SWAP2 SWAP1 POP JUMP JUMPDEST PUSH1 0x0 PUSH3 0x140 DUP3 PUSH3 0x113 JUMP JUMPDEST SWAP1 POP SWAP2 SWAP1 POP JUMP JUMPDEST PUSH3 0x152 DUP2 PUSH3 0x133 JUMP JUMPDEST DUP2 EQ PUSH3 0x15E JUMPI PUSH1 0x0 DUP1 REVERT JUMPDEST POP JUMP JUMPDEST PUSH1 0x0 DUP2 MLOAD SWAP1 POP PUSH3 0x172 DUP2 PUSH3 0x147 JUMP JUMPDEST SWAP3 SWAP2 POP POP JUMP JUMPDEST PUSH1 0x0 PUSH1 0x20 DUP3 DUP5 SUB SLT ISZERO PUSH3 0x191 JUMPI PUSH3 0x190 PUSH3 0x10E JUMP JUMPDEST JUMPDEST PUSH1 0x0 PUSH3 0x1A1 DUP5 DUP3 DUP6 ADD PUSH3 0x161 JUMP JUMPDEST SWAP2 POP POP SWAP3 SWAP2 POP POP JUMP JUMPDEST PUSH2 0x11FB DUP1 PUSH3 0x1BA PUSH1 0x0 CODECOPY PUSH1 0x0 RETURN INVALID PUSH1 0x80 PUSH1 0x40 MSTORE PUSH1 0x4 CALLDATASIZE LT PUSH2 0x91 JUMPI PUSH1 0x0 CALLDATALOAD PUSH1 0xE0 SHR DUP1 PUSH4 0x8DA5CB5B GT PUSH2 0x59 JUMPI DUP1 PUSH4 0x8DA5CB5B EQ PUSH2 0x129 JUMPI DUP1 PUSH4 0x8DA7AD23 EQ PUSH2 0x154 JUMPI DUP1 PUSH4 0x9D76EA58 EQ PUSH2 0x194 JUMPI DUP1 PUSH4 0xA694FC3A EQ PUSH2 0x1BF JUMPI DUP1 PUSH4 0xBF0AE63D EQ PUSH2 0x1DB JUMPI PUSH2 0x91 JUMP JUMPDEST DUP1 PUSH4 0x53B645E5 EQ PUSH2 0x96 JUMPI DUP1 PUSH4 0x71CA337D EQ PUSH2 0xC1 JUMPI DUP1 PUSH4 0x73CF575A EQ PUSH2 0xEC JUMPI DUP1 PUSH4 0x83A6DEB5 EQ PUSH2 0xF6 JUMPI DUP1 PUSH4 0x8D994BEB EQ PUSH2 0x100 JUMPI JUMPDEST PUSH1 0x0 DUP1 REVERT JUMPDEST CALLVALUE DUP1 ISZERO PUSH2 0xA2 JUMPI PUSH1 0x0 DUP1 REVERT JUMPDEST POP PUSH2 0xAB PUSH2 0x206 JUMP JUMPDEST PUSH1 0x40 MLOAD PUSH2 0xB8 SWAP2 SWAP1 PUSH2 0xC93 JUMP JUMPDEST PUSH1 0x40 MLOAD DUP1 SWAP2 SUB SWAP1 RETURN JUMPDEST CALLVALUE DUP1 ISZERO PUSH2 0xCD JUMPI PUSH1 0x0 DUP1 REVERT JUMPDEST POP PUSH2 0xD6 PUSH2 0x20C JUMP JUMPDEST PUSH1 0x40 MLOAD PUSH2 0xE3 SWAP2 SWAP1 PUSH2 0xC93 JUMP JUMPDEST PUSH1 0x40 MLOAD DUP1 SWAP2 SUB SWAP1 RETURN JUMPDEST PUSH2 0xF4 PUSH2 0x212 JUMP JUMPDEST STOP JUMPDEST PUSH2 0xFE PUSH2 0x60D JUMP JUMPDEST STOP JUMPDEST CALLVALUE DUP1 ISZERO PUSH2 0x10C JUMPI PUSH1 0x0 DUP1 REVERT JUMPDEST POP PUSH2 0x127 PUSH1 0x4 DUP1 CALLDATASIZE SUB DUP2 ADD SWAP1 PUSH2 0x122 SWAP2 SWAP1 PUSH2 0xCEC JUMP JUMPDEST PUSH2 0x7F3 JUMP JUMPDEST STOP JUMPDEST CALLVALUE DUP1 ISZERO PUSH2 0x135 JUMPI PUSH1 0x0 DUP1 REVERT JUMPDEST POP PUSH2 0x13E PUSH2 0x8C7 JUMP JUMPDEST PUSH1 0x40 MLOAD PUSH2 0x14B SWAP2 SWAP1 PUSH2 0xD5A JUMP JUMPDEST PUSH1 0x40 MLOAD DUP1 SWAP2 SUB SWAP1 RETURN JUMPDEST CALLVALUE DUP1 ISZERO PUSH2 0x160 JUMPI PUSH1 0x0 DUP1 REVERT JUMPDEST POP PUSH2 0x17B PUSH1 0x4 DUP1 CALLDATASIZE SUB DUP2 ADD SWAP1 PUSH2 0x176 SWAP2 SWAP1 PUSH2 0xDA1 JUMP JUMPDEST PUSH2 0x8ED JUMP JUMPDEST PUSH1 0x40 MLOAD PUSH2 0x18B SWAP5 SWAP4 SWAP3 SWAP2 SWAP1 PUSH2 0xDCE JUMP JUMPDEST PUSH1 0x40 MLOAD DUP1 SWAP2 SUB SWAP1 RETURN JUMPDEST CALLVALUE DUP1 ISZERO PUSH2 0x1A0 JUMPI PUSH1 0x0 DUP1 REVERT JUMPDEST POP PUSH2 0x1A9 PUSH2 0x91D JUMP JUMPDEST PUSH1 0x40 MLOAD PUSH2 0x1B6 SWAP2 SWAP1 PUSH2 0xD5A JUMP JUMPDEST PUSH1 0x40 MLOAD DUP1 SWAP2 SUB SWAP1 RETURN JUMPDEST PUSH2 0x1D9 PUSH1 0x4 DUP1 CALLDATASIZE SUB DUP2 ADD SWAP1 PUSH2 0x1D4 SWAP2 SWAP1 PUSH2 0xE3F JUMP JUMPDEST PUSH2 0x943 JUMP JUMPDEST STOP JUMPDEST CALLVALUE DUP1 ISZERO PUSH2 0x1E7 JUMPI PUSH1 0x0 DUP1 REVERT JUMPDEST POP PUSH2 0x1F0 PUSH2 0xB3D JUMP JUMPDEST PUSH1 0x40 MLOAD PUSH2 0x1FD SWAP2 SWAP1 PUSH2 0xECB JUMP JUMPDEST PUSH1 0x40 MLOAD DUP1 SWAP2 SUB SWAP1 RETURN JUMPDEST PUSH1 0x0 SLOAD DUP2 JUMP JUMPDEST PUSH1 0x3 SLOAD DUP2 JUMP JUMPDEST PUSH1 0x0 PUSH2 0x21C PUSH2 0xB63 JUMP JUMPDEST SWAP1 POP PUSH1 0x5 PUSH1 0x0 SWAP1 SLOAD SWAP1 PUSH2 0x100 EXP SWAP1 DIV PUSH20 0xFFFFFFFFFFFFFFFFFFFFFFFFFFFFFFFFFFFFFFFF AND PUSH20 0xFFFFFFFFFFFFFFFFFFFFFFFFFFFFFFFFFFFFFFFF AND PUSH4 0xA9059CBB CALLER PUSH1 0x4 PUSH1 0x0 CALLER PUSH20 0xFFFFFFFFFFFFFFFFFFFFFFFFFFFFFFFFFFFFFFFF AND PUSH20 0xFFFFFFFFFFFFFFFFFFFFFFFFFFFFFFFFFFFFFFFF AND DUP2 MSTORE PUSH1 0x20 ADD SWAP1 DUP2 MSTORE PUSH1 0x20 ADD PUSH1 0x0 KECCAK256 PUSH1 0x0 ADD SLOAD PUSH1 0x40 MLOAD DUP4 PUSH4 0xFFFFFFFF AND PUSH1 0xE0 SHL DUP2 MSTORE PUSH1 0x4 ADD PUSH2 0x2BD SWAP3 SWAP2 SWAP1 PUSH2 0xEE6 JUMP JUMPDEST PUSH1 0x20 PUSH1 0x40 MLOAD DUP1 DUP4 SUB DUP2 PUSH1 0x0 DUP8 GAS CALL ISZERO DUP1 ISZERO PUSH2 0x2DC JUMPI RETURNDATASIZE PUSH1 0x0 DUP1 RETURNDATACOPY RETURNDATASIZE PUSH1 0x0 REVERT JUMPDEST POP POP POP POP PUSH1 0x40 MLOAD RETURNDATASIZE PUSH1 0x1F NOT PUSH1 0x1F DUP3 ADD AND DUP3 ADD DUP1 PUSH1 0x40 MSTORE POP DUP2 ADD SWAP1 PUSH2 0x300 SWAP2 SWAP1 PUSH2 0xF47 JUMP JUMPDEST POP PUSH1 0x5 PUSH1 0x0 SWAP1 SLOAD SWAP1 PUSH2 0x100 EXP SWAP1 DIV PUSH20 0xFFFFFFFFFFFFFFFFFFFFFFFFFFFFFFFFFFFFFFFF AND PUSH20 0xFFFFFFFFFFFFFFFFFFFFFFFFFFFFFFFFFFFFFFFF AND PUSH4 0xA9059CBB CALLER DUP4 PUSH1 0x40 MLOAD DUP4 PUSH4 0xFFFFFFFF AND PUSH1 0xE0 SHL DUP2 MSTORE PUSH1 0x4 ADD PUSH2 0x35E SWAP3 SWAP2 SWAP1 PUSH2 0xEE6 JUMP JUMPDEST PUSH1 0x20 PUSH1 0x40 MLOAD DUP1 DUP4 SUB DUP2 PUSH1 0x0 DUP8 GAS CALL ISZERO DUP1 ISZERO PUSH2 0x37D JUMPI RETURNDATASIZE PUSH1 0x0 DUP1 RETURNDATACOPY RETURNDATASIZE PUSH1 0x0 REVERT JUMPDEST POP POP POP POP PUSH1 0x40 MLOAD RETURNDATASIZE PUSH1 0x1F NOT PUSH1 0x1F DUP3 ADD AND DUP3 ADD DUP1 PUSH1 0x40 MSTORE POP DUP2 ADD SWAP1 PUSH2 0x3A1 SWAP2 SWAP1 PUSH2 0xF47 JUMP JUMPDEST POP CALLER PUSH20 0xFFFFFFFFFFFFFFFFFFFFFFFFFFFFFFFFFFFFFFFF AND PUSH32 0xB24546D975E2628748EFC9ACED80665E0FAD66272033E5C0EA25FD3AFAC99795 PUSH1 0x4 PUSH1 0x0 CALLER PUSH20 0xFFFFFFFFFFFFFFFFFFFFFFFFFFFFFFFFFFFFFFFF AND PUSH20 0xFFFFFFFFFFFFFFFFFFFFFFFFFFFFFFFFFFFFFFFF AND DUP2 MSTORE PUSH1 0x20 ADD SWAP1 DUP2 MSTORE PUSH1 0x20 ADD PUSH1 0x0 KECCAK256 PUSH1 0x0 ADD SLOAD PUSH1 0x40 MLOAD PUSH2 0x42A SWAP2 SWAP1 PUSH2 0xC93 JUMP JUMPDEST PUSH1 0x40 MLOAD DUP1 SWAP2 SUB SWAP1 LOG2 CALLER PUSH20 0xFFFFFFFFFFFFFFFFFFFFFFFFFFFFFFFFFFFFFFFF AND PUSH32 0xD6717F327E0CB88B4A97A7F67A453E9258252C34937CCBDD86DE7CB840E7DEF3 DUP3 PUSH1 0x40 MLOAD PUSH2 0x478 SWAP2 SWAP1 PUSH2 0xC93 JUMP JUMPDEST PUSH1 0x40 MLOAD DUP1 SWAP2 SUB SWAP1 LOG2 DUP1 PUSH1 0x4 PUSH1 0x0 CALLER PUSH20 0xFFFFFFFFFFFFFFFFFFFFFFFFFFFFFFFFFFFFFFFF AND PUSH20 0xFFFFFFFFFFFFFFFFFFFFFFFFFFFFFFFFFFFFFFFF AND DUP2 MSTORE PUSH1 0x20 ADD SWAP1 DUP2 MSTORE PUSH1 0x20 ADD PUSH1 0x0 KECCAK256 PUSH1 0x2 ADD PUSH1 0x0 DUP3 DUP3 SLOAD PUSH2 0x4D2 SWAP2 SWAP1 PUSH2 0xFA3 JUMP JUMPDEST SWAP3 POP POP DUP2 SWAP1 SSTORE POP TIMESTAMP PUSH1 0x4 PUSH1 0x0 CALLER PUSH20 0xFFFFFFFFFFFFFFFFFFFFFFFFFFFFFFFFFFFFFFFF AND PUSH20 0xFFFFFFFFFFFFFFFFFFFFFFFFFFFFFFFFFFFFFFFF AND DUP2 MSTORE PUSH1 0x20 ADD SWAP1 DUP2 MSTORE PUSH1 0x20 ADD PUSH1 0x0 KECCAK256 PUSH1 0x3 ADD DUP2 SWAP1 SSTORE POP PUSH1 0x4 PUSH1 0x0 CALLER PUSH20 0xFFFFFFFFFFFFFFFFFFFFFFFFFFFFFFFFFFFFFFFF AND PUSH20 0xFFFFFFFFFFFFFFFFFFFFFFFFFFFFFFFFFFFFFFFF AND DUP2 MSTORE PUSH1 0x20 ADD SWAP1 DUP2 MSTORE PUSH1 0x20 ADD PUSH1 0x0 KECCAK256 PUSH1 0x0 ADD SLOAD PUSH1 0x0 DUP1 DUP3 DUP3 SLOAD PUSH2 0x573 SWAP2 SWAP1 PUSH2 0xFF9 JUMP JUMPDEST SWAP3 POP POP DUP2 SWAP1 SSTORE POP PUSH1 0x0 PUSH1 0x4 PUSH1 0x0 CALLER PUSH20 0xFFFFFFFFFFFFFFFFFFFFFFFFFFFFFFFFFFFFFFFF AND PUSH20 0xFFFFFFFFFFFFFFFFFFFFFFFFFFFFFFFFFFFFFFFF AND DUP2 MSTORE PUSH1 0x20 ADD SWAP1 DUP2 MSTORE PUSH1 0x20 ADD PUSH1 0x0 KECCAK256 PUSH1 0x0 ADD DUP2 SWAP1 SSTORE POP PUSH1 0x0 PUSH1 0x4 PUSH1 0x0 CALLER PUSH20 0xFFFFFFFFFFFFFFFFFFFFFFFFFFFFFFFFFFFFFFFF AND PUSH20 0xFFFFFFFFFFFFFFFFFFFFFFFFFFFFFFFFFFFFFFFF AND DUP2 MSTORE PUSH1 0x20 ADD SWAP1 DUP2 MSTORE PUSH1 0x20 ADD PUSH1 0x0 KECCAK256 PUSH1 0x1 ADD DUP2 SWAP1 SSTORE POP POP JUMP JUMPDEST PUSH1 0x0 PUSH2 0x617 PUSH2 0xB63 JUMP JUMPDEST SWAP1 POP PUSH1 0x5 PUSH1 0x0 SWAP1 SLOAD SWAP1 PUSH2 0x100 EXP SWAP1 DIV PUSH20 0xFFFFFFFFFFFFFFFFFFFFFFFFFFFFFFFFFFFFFFFF AND PUSH20 0xFFFFFFFFFFFFFFFFFFFFFFFFFFFFFFFFFFFFFFFF AND PUSH4 0xA9059CBB CALLER DUP4 PUSH1 0x40 MLOAD DUP4 PUSH4 0xFFFFFFFF AND PUSH1 0xE0 SHL DUP2 MSTORE PUSH1 0x4 ADD PUSH2 0x676 SWAP3 SWAP2 SWAP1 PUSH2 0xEE6 JUMP JUMPDEST PUSH1 0x20 PUSH1 0x40 MLOAD DUP1 DUP4 SUB DUP2 PUSH1 0x0 DUP8 GAS CALL ISZERO DUP1 ISZERO PUSH2 0x695 JUMPI RETURNDATASIZE PUSH1 0x0 DUP1 RETURNDATACOPY RETURNDATASIZE PUSH1 0x0 REVERT JUMPDEST POP POP POP POP PUSH1 0x40 MLOAD RETURNDATASIZE PUSH1 0x1F NOT PUSH1 0x1F DUP3 ADD AND DUP3 ADD DUP1 PUSH1 0x40 MSTORE POP DUP2 ADD SWAP1 PUSH2 0x6B9 SWAP2 SWAP1 PUSH2 0xF47 JUMP JUMPDEST POP CALLER PUSH20 0xFFFFFFFFFFFFFFFFFFFFFFFFFFFFFFFFFFFFFFFF AND PUSH32 0xD6717F327E0CB88B4A97A7F67A453E9258252C34937CCBDD86DE7CB840E7DEF3 DUP3 PUSH1 0x40 MLOAD PUSH2 0x700 SWAP2 SWAP1 PUSH2 0xC93 JUMP JUMPDEST PUSH1 0x40 MLOAD DUP1 SWAP2 SUB SWAP1 LOG2 DUP1 PUSH1 0x4 PUSH1 0x0 CALLER PUSH20 0xFFFFFFFFFFFFFFFFFFFFFFFFFFFFFFFFFFFFFFFF AND PUSH20 0xFFFFFFFFFFFFFFFFFFFFFFFFFFFFFFFFFFFFFFFF AND DUP2 MSTORE PUSH1 0x20 ADD SWAP1 DUP2 MSTORE PUSH1 0x20 ADD PUSH1 0x0 KECCAK256 PUSH1 0x2 ADD PUSH1 0x0 DUP3 DUP3 SLOAD PUSH2 0x75A SWAP2 SWAP1 PUSH2 0xFA3 JUMP JUMPDEST SWAP3 POP POP DUP2 SWAP1 SSTORE POP TIMESTAMP PUSH1 0x4 PUSH1 0x0 CALLER PUSH20 0xFFFFFFFFFFFFFFFFFFFFFFFFFFFFFFFFFFFFFFFF AND PUSH20 0xFFFFFFFFFFFFFFFFFFFFFFFFFFFFFFFFFFFFFFFF AND DUP2 MSTORE PUSH1 0x20 ADD SWAP1 DUP2 MSTORE PUSH1 0x20 ADD PUSH1 0x0 KECCAK256 PUSH1 0x3 ADD DUP2 SWAP1 SSTORE POP PUSH1 0x0 PUSH1 0x4 PUSH1 0x0 CALLER PUSH20 0xFFFFFFFFFFFFFFFFFFFFFFFFFFFFFFFFFFFFFFFF AND PUSH20 0xFFFFFFFFFFFFFFFFFFFFFFFFFFFFFFFFFFFFFFFF AND DUP2 MSTORE PUSH1 0x20 ADD SWAP1 DUP2 MSTORE PUSH1 0x20 ADD PUSH1 0x0 KECCAK256 PUSH1 0x1 ADD DUP2 SWAP1 SSTORE POP POP JUMP JUMPDEST PUSH1 0x2 PUSH1 0x0 SWAP1 SLOAD SWAP1 PUSH2 0x100 EXP SWAP1 DIV PUSH20 0xFFFFFFFFFFFFFFFFFFFFFFFFFFFFFFFFFFFFFFFF AND PUSH20 0xFFFFFFFFFFFFFFFFFFFFFFFFFFFFFFFFFFFFFFFF AND CALLER PUSH20 0xFFFFFFFFFFFFFFFFFFFFFFFFFFFFFFFFFFFFFFFF AND EQ PUSH2 0x883 JUMPI PUSH1 0x40 MLOAD PUSH32 0x8C379A000000000000000000000000000000000000000000000000000000000 DUP2 MSTORE PUSH1 0x4 ADD PUSH2 0x87A SWAP1 PUSH2 0x108A JUMP JUMPDEST PUSH1 0x40 MLOAD DUP1 SWAP2 SUB SWAP1 REVERT JUMPDEST DUP1 PUSH1 0xFF AND PUSH1 0x3 DUP2 SWAP1 SSTORE POP PUSH32 0x86FDFA566B117B03B2EF4D50C64FE89EFD432852397764C120C6796CFDD820F8 DUP2 PUSH1 0x40 MLOAD PUSH2 0x8BC SWAP2 SWAP1 PUSH2 0x10B9 JUMP JUMPDEST PUSH1 0x40 MLOAD DUP1 SWAP2 SUB SWAP1 LOG1 POP JUMP JUMPDEST PUSH1 0x2 PUSH1 0x0 SWAP1 SLOAD SWAP1 PUSH2 0x100 EXP SWAP1 DIV PUSH20 0xFFFFFFFFFFFFFFFFFFFFFFFFFFFFFFFFFFFFFFFF AND DUP2 JUMP JUMPDEST PUSH1 0x4 PUSH1 0x20 MSTORE DUP1 PUSH1 0x0 MSTORE PUSH1 0x40 PUSH1 0x0 KECCAK256 PUSH1 0x0 SWAP2 POP SWAP1 POP DUP1 PUSH1 0x0 ADD SLOAD SWAP1 DUP1 PUSH1 0x1 ADD SLOAD SWAP1 DUP1 PUSH1 0x2 ADD SLOAD SWAP1 DUP1 PUSH1 0x3 ADD SLOAD SWAP1 POP DUP5 JUMP JUMPDEST PUSH1 0x1 PUSH1 0x0 SWAP1 SLOAD SWAP1 PUSH2 0x100 EXP SWAP1 DIV PUSH20 0xFFFFFFFFFFFFFFFFFFFFFFFFFFFFFFFFFFFFFFFF AND DUP2 JUMP JUMPDEST PUSH1 0x5 PUSH1 0x0 SWAP1 SLOAD SWAP1 PUSH2 0x100 EXP SWAP1 DIV PUSH20 0xFFFFFFFFFFFFFFFFFFFFFFFFFFFFFFFFFFFFFFFF AND PUSH20 0xFFFFFFFFFFFFFFFFFFFFFFFFFFFFFFFFFFFFFFFF AND PUSH4 0x23B872DD CALLER ADDRESS DUP5 PUSH1 0x40 MLOAD DUP5 PUSH4 0xFFFFFFFF AND PUSH1 0xE0 SHL DUP2 MSTORE PUSH1 0x4 ADD PUSH2 0x9A2 SWAP4 SWAP3 SWAP2 SWAP1 PUSH2 0x10D4 JUMP JUMPDEST PUSH1 0x20 PUSH1 0x40 MLOAD DUP1 DUP4 SUB DUP2 PUSH1 0x0 DUP8 GAS CALL ISZERO DUP1 ISZERO PUSH2 0x9C1 JUMPI RETURNDATASIZE PUSH1 0x0 DUP1 RETURNDATACOPY RETURNDATASIZE PUSH1 0x0 REVERT JUMPDEST POP POP POP POP PUSH1 0x40 MLOAD RETURNDATASIZE PUSH1 0x1F NOT PUSH1 0x1F DUP3 ADD AND DUP3 ADD DUP1 PUSH1 0x40 MSTORE POP DUP2 ADD SWAP1 PUSH2 0x9E5 SWAP2 SWAP1 PUSH2 0xF47 JUMP JUMPDEST POP PUSH2 0x9EE PUSH2 0xB63 JUMP JUMPDEST PUSH1 0x4 PUSH1 0x0 CALLER PUSH20 0xFFFFFFFFFFFFFFFFFFFFFFFFFFFFFFFFFFFFFFFF AND PUSH20 0xFFFFFFFFFFFFFFFFFFFFFFFFFFFFFFFFFFFFFFFF AND DUP2 MSTORE PUSH1 0x20 ADD SWAP1 DUP2 MSTORE PUSH1 0x20 ADD PUSH1 0x0 KECCAK256 PUSH1 0x1 ADD DUP2 SWAP1 SSTORE POP DUP1 PUSH1 0x4 PUSH1 0x0 CALLER PUSH20 0xFFFFFFFFFFFFFFFFFFFFFFFFFFFFFFFFFFFFFFFF AND PUSH20 0xFFFFFFFFFFFFFFFFFFFFFFFFFFFFFFFFFFFFFFFF AND DUP2 MSTORE PUSH1 0x20 ADD SWAP1 DUP2 MSTORE PUSH1 0x20 ADD PUSH1 0x0 KECCAK256 PUSH1 0x0 ADD PUSH1 0x0 DUP3 DUP3 SLOAD PUSH2 0xA86 SWAP2 SWAP1 PUSH2 0xFA3 JUMP JUMPDEST SWAP3 POP POP DUP2 SWAP1 SSTORE POP TIMESTAMP PUSH1 0x4 PUSH1 0x0 CALLER PUSH20 0xFFFFFFFFFFFFFFFFFFFFFFFFFFFFFFFFFFFFFFFF AND PUSH20 0xFFFFFFFFFFFFFFFFFFFFFFFFFFFFFFFFFFFFFFFF AND DUP2 MSTORE PUSH1 0x20 ADD SWAP1 DUP2 MSTORE PUSH1 0x20 ADD PUSH1 0x0 KECCAK256 PUSH1 0x3 ADD DUP2 SWAP1 SSTORE POP DUP1 PUSH1 0x0 DUP1 DUP3 DUP3 SLOAD PUSH2 0xAE5 SWAP2 SWAP1 PUSH2 0xFA3 JUMP JUMPDEST SWAP3 POP POP DUP2 SWAP1 SSTORE POP CALLER PUSH20 0xFFFFFFFFFFFFFFFFFFFFFFFFFFFFFFFFFFFFFFFF AND PUSH32 0xEBEDB8B3C678666E7F36970BC8F57ABF6D8FA2E828C0DA91EA5B75BF68ED101A DUP3 PUSH1 0x40 MLOAD PUSH2 0xB32 SWAP2 SWAP1 PUSH2 0xC93 JUMP JUMPDEST PUSH1 0x40 MLOAD DUP1 SWAP2 SUB SWAP1 LOG2 POP JUMP JUMPDEST PUSH1 0x5 PUSH1 0x0 SWAP1 SLOAD SWAP1 PUSH2 0x100 EXP SWAP1 DIV PUSH20 0xFFFFFFFFFFFFFFFFFFFFFFFFFFFFFFFFFFFFFFFF AND DUP2 JUMP JUMPDEST PUSH1 0x0 PUSH4 0x1E13380 PUSH1 0x64 PUSH1 0x3 SLOAD PUSH1 0x4 PUSH1 0x0 CALLER PUSH20 0xFFFFFFFFFFFFFFFFFFFFFFFFFFFFFFFFFFFFFFFF AND PUSH20 0xFFFFFFFFFFFFFFFFFFFFFFFFFFFFFFFFFFFFFFFF AND DUP2 MSTORE PUSH1 0x20 ADD SWAP1 DUP2 MSTORE PUSH1 0x20 ADD PUSH1 0x0 KECCAK256 PUSH1 0x0 ADD SLOAD PUSH2 0xBBC SWAP2 SWAP1 PUSH2 0x110B JUMP JUMPDEST PUSH2 0xBC6 SWAP2 SWAP1 PUSH2 0x1194 JUMP JUMPDEST PUSH2 0xBD0 SWAP2 SWAP1 PUSH2 0x1194 JUMP JUMPDEST PUSH1 0x4 PUSH1 0x0 CALLER PUSH20 0xFFFFFFFFFFFFFFFFFFFFFFFFFFFFFFFFFFFFFFFF AND PUSH20 0xFFFFFFFFFFFFFFFFFFFFFFFFFFFFFFFFFFFFFFFF AND DUP2 MSTORE PUSH1 0x20 ADD SWAP1 DUP2 MSTORE PUSH1 0x20 ADD PUSH1 0x0 KECCAK256 PUSH1 0x3 ADD SLOAD TIMESTAMP PUSH2 0xC1E SWAP2 SWAP1 PUSH2 0xFF9 JUMP JUMPDEST PUSH2 0xC28 SWAP2 SWAP1 PUSH2 0x110B JUMP JUMPDEST PUSH1 0x4 PUSH1 0x0 CALLER PUSH20 0xFFFFFFFFFFFFFFFFFFFFFFFFFFFFFFFFFFFFFFFF AND PUSH20 0xFFFFFFFFFFFFFFFFFFFFFFFFFFFFFFFFFFFFFFFF AND DUP2 MSTORE PUSH1 0x20 ADD SWAP1 DUP2 MSTORE PUSH1 0x20 ADD PUSH1 0x0 KECCAK256 PUSH1 0x1 ADD SLOAD PUSH2 0xC75 SWAP2 SWAP1 PUSH2 0xFA3 JUMP JUMPDEST SWAP1 POP SWAP1 JUMP JUMPDEST PUSH1 0x0 DUP2 SWAP1 POP SWAP2 SWAP1 POP JUMP JUMPDEST PUSH2 0xC8D DUP2 PUSH2 0xC7A JUMP JUMPDEST DUP3 MSTORE POP POP JUMP JUMPDEST PUSH1 0x0 PUSH1 0x20 DUP3 ADD SWAP1 POP PUSH2 0xCA8 PUSH1 0x0 DUP4 ADD DUP5 PUSH2 0xC84 JUMP JUMPDEST SWAP3 SWAP2 POP POP JUMP JUMPDEST PUSH1 0x0 DUP1 REVERT JUMPDEST PUSH1 0x0 PUSH1 0xFF DUP3 AND SWAP1 POP SWAP2 SWAP1 POP JUMP JUMPDEST PUSH2 0xCC9 DUP2 PUSH2 0xCB3 JUMP JUMPDEST DUP2 EQ PUSH2 0xCD4 JUMPI PUSH1 0x0 DUP1 REVERT JUMPDEST POP JUMP JUMPDEST PUSH1 0x0 DUP2 CALLDATALOAD SWAP1 POP PUSH2 0xCE6 DUP2 PUSH2 0xCC0 JUMP JUMPDEST SWAP3 SWAP2 POP POP JUMP JUMPDEST PUSH1 0x0 PUSH1 0x20 DUP3 DUP5 SUB SLT ISZERO PUSH2 0xD02 JUMPI PUSH2 0xD01 PUSH2 0xCAE JUMP JUMPDEST JUMPDEST PUSH1 0x0 PUSH2 0xD10 DUP5 DUP3 DUP6 ADD PUSH2 0xCD7 JUMP JUMPDEST SWAP2 POP POP SWAP3 SWAP2 POP POP JUMP JUMPDEST PUSH1 0x0 PUSH20 0xFFFFFFFFFFFFFFFFFFFFFFFFFFFFFFFFFFFFFFFF DUP3 AND SWAP1 POP SWAP2 SWAP1 POP JUMP JUMPDEST PUSH1 0x0 PUSH2 0xD44 DUP3 PUSH2 0xD19 JUMP JUMPDEST SWAP1 POP SWAP2 SWAP1 POP JUMP JUMPDEST PUSH2 0xD54 DUP2 PUSH2 0xD39 JUMP JUMPDEST DUP3 MSTORE POP POP JUMP JUMPDEST PUSH1 0x0 PUSH1 0x20 DUP3 ADD SWAP1 POP PUSH2 0xD6F PUSH1 0x0 DUP4 ADD DUP5 PUSH2 0xD4B JUMP JUMPDEST SWAP3 SWAP2 POP POP JUMP JUMPDEST PUSH2 0xD7E DUP2 PUSH2 0xD39 JUMP JUMPDEST DUP2 EQ PUSH2 0xD89 JUMPI PUSH1 0x0 DUP1 REVERT JUMPDEST POP JUMP JUMPDEST PUSH1 0x0 DUP2 CALLDATALOAD SWAP1 POP PUSH2 0xD9B DUP2 PUSH2 0xD75 JUMP JUMPDEST SWAP3 SWAP2 POP POP JUMP JUMPDEST PUSH1 0x0 PUSH1 0x20 DUP3 DUP5 SUB SLT ISZERO PUSH2 0xDB7 JUMPI PUSH2 0xDB6 PUSH2 0xCAE JUMP JUMPDEST JUMPDEST PUSH1 0x0 PUSH2 0xDC5 DUP5 DUP3 DUP6 ADD PUSH2 0xD8C JUMP JUMPDEST SWAP2 POP POP SWAP3 SWAP2 POP POP JUMP JUMPDEST PUSH1 0x0 PUSH1 0x80 DUP3 ADD SWAP1 POP PUSH2 0xDE3 PUSH1 0x0 DUP4 ADD DUP8 PUSH2 0xC84 JUMP JUMPDEST PUSH2 0xDF0 PUSH1 0x20 DUP4 ADD DUP7 PUSH2 0xC84 JUMP JUMPDEST PUSH2 0xDFD PUSH1 0x40 DUP4 ADD DUP6 PUSH2 0xC84 JUMP JUMPDEST PUSH2 0xE0A PUSH1 0x60 DUP4 ADD DUP5 PUSH2 0xC84 JUMP JUMPDEST SWAP6 SWAP5 POP POP POP POP POP JUMP JUMPDEST PUSH2 0xE1C DUP2 PUSH2 0xC7A JUMP JUMPDEST DUP2 EQ PUSH2 0xE27 JUMPI PUSH1 0x0 DUP1 REVERT JUMPDEST POP JUMP JUMPDEST PUSH1 0x0 DUP2 CALLDATALOAD SWAP1 POP PUSH2 0xE39 DUP2 PUSH2 0xE13 JUMP JUMPDEST SWAP3 SWAP2 POP POP JUMP JUMPDEST PUSH1 0x0 PUSH1 0x20 DUP3 DUP5 SUB SLT ISZERO PUSH2 0xE55 JUMPI PUSH2 0xE54 PUSH2 0xCAE JUMP JUMPDEST JUMPDEST PUSH1 0x0 PUSH2 0xE63 DUP5 DUP3 DUP6 ADD PUSH2 0xE2A JUMP JUMPDEST SWAP2 POP POP SWAP3 SWAP2 POP POP JUMP JUMPDEST PUSH1 0x0 DUP2 SWAP1 POP SWAP2 SWAP1 POP JUMP JUMPDEST PUSH1 0x0 PUSH2 0xE91 PUSH2 0xE8C PUSH2 0xE87 DUP5 PUSH2 0xD19 JUMP JUMPDEST PUSH2 0xE6C JUMP JUMPDEST PUSH2 0xD19 JUMP JUMPDEST SWAP1 POP SWAP2 SWAP1 POP JUMP JUMPDEST PUSH1 0x0 PUSH2 0xEA3 DUP3 PUSH2 0xE76 JUMP JUMPDEST SWAP1 POP SWAP2 SWAP1 POP JUMP JUMPDEST PUSH1 0x0 PUSH2 0xEB5 DUP3 PUSH2 0xE98 JUMP JUMPDEST SWAP1 POP SWAP2 SWAP1 POP JUMP JUMPDEST PUSH2 0xEC5 DUP2 PUSH2 0xEAA JUMP JUMPDEST DUP3 MSTORE POP POP JUMP JUMPDEST PUSH1 0x0 PUSH1 0x20 DUP3 ADD SWAP1 POP PUSH2 0xEE0 PUSH1 0x0 DUP4 ADD DUP5 PUSH2 0xEBC JUMP JUMPDEST SWAP3 SWAP2 POP POP JUMP JUMPDEST PUSH1 0x0 PUSH1 0x40 DUP3 ADD SWAP1 POP PUSH2 0xEFB PUSH1 0x0 DUP4 ADD DUP6 PUSH2 0xD4B JUMP JUMPDEST PUSH2 0xF08 PUSH1 0x20 DUP4 ADD DUP5 PUSH2 0xC84 JUMP JUMPDEST SWAP4 SWAP3 POP POP POP JUMP JUMPDEST PUSH1 0x0 DUP2 ISZERO ISZERO SWAP1 POP SWAP2 SWAP1 POP JUMP JUMPDEST PUSH2 0xF24 DUP2 PUSH2 0xF0F JUMP JUMPDEST DUP2 EQ PUSH2 0xF2F JUMPI PUSH1 0x0 DUP1 REVERT JUMPDEST POP JUMP JUMPDEST PUSH1 0x0 DUP2 MLOAD SWAP1 POP PUSH2 0xF41 DUP2 PUSH2 0xF1B JUMP JUMPDEST SWAP3 SWAP2 POP POP JUMP JUMPDEST PUSH1 0x0 PUSH1 0x20 DUP3 DUP5 SUB SLT ISZERO PUSH2 0xF5D JUMPI PUSH2 0xF5C PUSH2 0xCAE JUMP JUMPDEST JUMPDEST PUSH1 0x0 PUSH2 0xF6B DUP5 DUP3 DUP6 ADD PUSH2 0xF32 JUMP JUMPDEST SWAP2 POP POP SWAP3 SWAP2 POP POP JUMP JUMPDEST PUSH32 0x4E487B7100000000000000000000000000000000000000000000000000000000 PUSH1 0x0 MSTORE PUSH1 0x11 PUSH1 0x4 MSTORE PUSH1 0x24 PUSH1 0x0 REVERT JUMPDEST PUSH1 0x0 PUSH2 0xFAE DUP3 PUSH2 0xC7A JUMP JUMPDEST SWAP2 POP PUSH2 0xFB9 DUP4 PUSH2 0xC7A JUMP JUMPDEST SWAP3 POP DUP3 PUSH32 0xFFFFFFFFFFFFFFFFFFFFFFFFFFFFFFFFFFFFFFFFFFFFFFFFFFFFFFFFFFFFFFFF SUB DUP3 GT ISZERO PUSH2 0xFEE JUMPI PUSH2 0xFED PUSH2 0xF74 JUMP JUMPDEST JUMPDEST DUP3 DUP3 ADD SWAP1 POP SWAP3 SWAP2 POP POP JUMP JUMPDEST PUSH1 0x0 PUSH2 0x1004 DUP3 PUSH2 0xC7A JUMP JUMPDEST SWAP2 POP PUSH2 0x100F DUP4 PUSH2 0xC7A JUMP JUMPDEST SWAP3 POP DUP3 DUP3 LT ISZERO PUSH2 0x1022 JUMPI PUSH2 0x1021 PUSH2 0xF74 JUMP JUMPDEST JUMPDEST DUP3 DUP3 SUB SWAP1 POP SWAP3 SWAP2 POP POP JUMP JUMPDEST PUSH1 0x0 DUP3 DUP3 MSTORE PUSH1 0x20 DUP3 ADD SWAP1 POP SWAP3 SWAP2 POP POP JUMP JUMPDEST PUSH32 0x6E6F74206F776E65720000000000000000000000000000000000000000000000 PUSH1 0x0 DUP3 ADD MSTORE POP JUMP JUMPDEST PUSH1 0x0 PUSH2 0x1074 PUSH1 0x9 DUP4 PUSH2 0x102D JUMP JUMPDEST SWAP2 POP PUSH2 0x107F DUP3 PUSH2 0x103E JUMP JUMPDEST PUSH1 0x20 DUP3 ADD SWAP1 POP SWAP2 SWAP1 POP JUMP JUMPDEST PUSH1 0x0 PUSH1 0x20 DUP3 ADD SWAP1 POP DUP2 DUP2 SUB PUSH1 0x0 DUP4 ADD MSTORE PUSH2 0x10A3 DUP2 PUSH2 0x1067 JUMP JUMPDEST SWAP1 POP SWAP2 SWAP1 POP JUMP JUMPDEST PUSH2 0x10B3 DUP2 PUSH2 0xCB3 JUMP JUMPDEST DUP3 MSTORE POP POP JUMP JUMPDEST PUSH1 0x0 PUSH1 0x20 DUP3 ADD SWAP1 POP PUSH2 0x10CE PUSH1 0x0 DUP4 ADD DUP5 PUSH2 0x10AA JUMP JUMPDEST SWAP3 SWAP2 POP POP JUMP JUMPDEST PUSH1 0x0 PUSH1 0x60 DUP3 ADD SWAP1 POP PUSH2 0x10E9 PUSH1 0x0 DUP4 ADD DUP7 PUSH2 0xD4B JUMP JUMPDEST PUSH2 0x10F6 PUSH1 0x20 DUP4 ADD DUP6 PUSH2 0xD4B JUMP JUMPDEST PUSH2 0x1103 PUSH1 0x40 DUP4 ADD DUP5 PUSH2 0xC84 JUMP JUMPDEST SWAP5 SWAP4 POP POP POP POP JUMP JUMPDEST PUSH1 0x0 PUSH2 0x1116 DUP3 PUSH2 0xC7A JUMP JUMPDEST SWAP2 POP PUSH2 0x1121 DUP4 PUSH2 0xC7A JUMP JUMPDEST SWAP3 POP DUP2 PUSH32 0xFFFFFFFFFFFFFFFFFFFFFFFFFFFFFFFFFFFFFFFFFFFFFFFFFFFFFFFFFFFFFFFF DIV DUP4 GT DUP3 ISZERO ISZERO AND ISZERO PUSH2 0x115A JUMPI PUSH2 0x1159 PUSH2 0xF74 JUMP JUMPDEST JUMPDEST DUP3 DUP3 MUL SWAP1 POP SWAP3 SWAP2 POP POP JUMP JUMPDEST PUSH32 0x4E487B7100000000000000000000000000000000000000000000000000000000 PUSH1 0x0 MSTORE PUSH1 0x12 PUSH1 0x4 MSTORE PUSH1 0x24 PUSH1 0x0 REVERT JUMPDEST PUSH1 0x0 PUSH2 0x119F DUP3 PUSH2 0xC7A JUMP JUMPDEST SWAP2 POP PUSH2 0x11AA DUP4 PUSH2 0xC7A JUMP JUMPDEST SWAP3 POP DUP3 PUSH2 0x11BA JUMPI PUSH2 0x11B9 PUSH2 0x1165 JUMP JUMPDEST JUMPDEST DUP3 DUP3 DIV SWAP1 POP SWAP3 SWAP2 POP POP JUMP INVALID LOG2 PUSH5 0x6970667358 0x22 SLT KECCAK256 SWAP14 SWAP9 DUP10 PUSH11 0xA3686A5361AB31CEE27DC6 0xFB 0xC6 0xD0 DIFFICULTY CALLER BALANCE SELFBALANCE DUP14 0xB8 SWAP7 NUMBER DUP8 PC RETURNDATASIZE SWAP9 DUP14 LOG0 PUSH5 0x736F6C6343 STOP ADDMOD 0xF STOP CALLER "
				},
				"gasEstimates": {
					"creation": {
						"codeDepositCost": "920600",
						"executionCost": "infinite",
						"totalCost": "infinite"
					},
					"external": {
						"ierc20()": "infinite",
						"owner()": "2514",
						"ratio()": "2452",
						"received()": "infinite",
						"setRatio(uint8)": "infinite",
						"stake(uint256)": "infinite",
						"tokenAddress()": "2558",
						"totalStakeNumber()": "2430",
						"unStake()": "infinite",
						"userStakes(address)": "infinite"
					},
					"internal": {
						"getUserInsert()": "infinite"
					}
				},
				"methodIdentifiers": {
					"ierc20()": "bf0ae63d",
					"owner()": "8da5cb5b",
					"ratio()": "71ca337d",
					"received()": "83a6deb5",
					"setRatio(uint8)": "8d994beb",
					"stake(uint256)": "a694fc3a",
					"tokenAddress()": "9d76ea58",
					"totalStakeNumber()": "53b645e5",
					"unStake()": "73cf575a",
					"userStakes(address)": "8da7ad23"
				}
			},
			"storageLayout": {
				"storage": [
					{
						"astId": 102,
						"contract": "contracts/StakePool.sol:StakePool",
						"label": "totalStakeNumber",
						"offset": 0,
						"slot": "0",
						"type": "t_uint256"
					},
					{
						"astId": 104,
						"contract": "contracts/StakePool.sol:StakePool",
						"label": "tokenAddress",
						"offset": 0,
						"slot": "1",
						"type": "t_address"
					},
					{
						"astId": 106,
						"contract": "contracts/StakePool.sol:StakePool",
						"label": "owner",
						"offset": 0,
						"slot": "2",
						"type": "t_address"
					},
					{
						"astId": 108,
						"contract": "contracts/StakePool.sol:StakePool",
						"label": "ratio",
						"offset": 0,
						"slot": "3",
						"type": "t_uint256"
					},
					{
						"astId": 113,
						"contract": "contracts/StakePool.sol:StakePool",
						"label": "userStakes",
						"offset": 0,
						"slot": "4",
						"type": "t_mapping(t_address,t_struct(User)99_storage)"
					},
					{
						"astId": 116,
						"contract": "contracts/StakePool.sol:StakePool",
						"label": "ierc20",
						"offset": 0,
						"slot": "5",
						"type": "t_contract(IERC20)68"
					}
				],
				"types": {
					"t_address": {
						"encoding": "inplace",
						"label": "address",
						"numberOfBytes": "20"
					},
					"t_contract(IERC20)68": {
						"encoding": "inplace",
						"label": "contract IERC20",
						"numberOfBytes": "20"
					},
					"t_mapping(t_address,t_struct(User)99_storage)": {
						"encoding": "mapping",
						"key": "t_address",
						"label": "mapping(address => struct StakePool.User)",
						"numberOfBytes": "32",
						"value": "t_struct(User)99_storage"
					},
					"t_struct(User)99_storage": {
						"encoding": "inplace",
						"label": "struct StakePool.User",
						"members": [
							{
								"astId": 92,
								"contract": "contracts/StakePool.sol:StakePool",
								"label": "stakeNumber",
								"offset": 0,
								"slot": "0",
								"type": "t_uint256"
							},
							{
								"astId": 94,
								"contract": "contracts/StakePool.sol:StakePool",
								"label": "currentInterest",
								"offset": 0,
								"slot": "1",
								"type": "t_uint256"
							},
							{
								"astId": 96,
								"contract": "contracts/StakePool.sol:StakePool",
								"label": "claimedInterest",
								"offset": 0,
								"slot": "2",
								"type": "t_uint256"
							},
							{
								"astId": 98,
								"contract": "contracts/StakePool.sol:StakePool",
								"label": "lastStakeTime",
								"offset": 0,
								"slot": "3",
								"type": "t_uint256"
							}
						],
						"numberOfBytes": "128"
					},
					"t_uint256": {
						"encoding": "inplace",
						"label": "uint256",
						"numberOfBytes": "32"
					}
				}
			},
			"userdoc": {
				"kind": "user",
				"methods": {},
				"version": 1
			}
		}
	}
}