{
	"contracts/StakePool.sol": {
		"StakePool": {
			"abi": [
				{
					"inputs": [
						{
							"internalType": "address",
							"name": "_tokenAddress",
							"type": "address"
						}
					],
					"stateMutability": "nonpayable",
					"type": "constructor"
				},
				{
					"anonymous": false,
					"inputs": [
						{
							"indexed": true,
							"internalType": "address",
							"name": "user",
							"type": "address"
						},
						{
							"indexed": false,
							"internalType": "uint256",
							"name": "receiveNumber",
							"type": "uint256"
						}
					],
					"name": "Receive",
					"type": "event"
				},
				{
					"anonymous": false,
					"inputs": [
						{
							"indexed": true,
							"internalType": "address",
							"name": "user",
							"type": "address"
						},
						{
							"indexed": false,
							"internalType": "uint256",
							"name": "stakeNumber",
							"type": "uint256"
						}
					],
					"name": "Stake",
					"type": "event"
				},
				{
					"anonymous": false,
					"inputs": [
						{
							"indexed": true,
							"internalType": "address",
							"name": "user",
							"type": "address"
						},
						{
							"indexed": false,
							"internalType": "uint256",
							"name": "unStakeNumber",
							"type": "uint256"
						}
					],
					"name": "UnStake",
					"type": "event"
				},
				{
					"anonymous": false,
					"inputs": [
						{
							"indexed": false,
							"internalType": "uint8",
							"name": "ratio",
							"type": "uint8"
						}
					],
					"name": "UpdateRatio",
					"type": "event"
				},
				{
					"inputs": [],
					"name": "ierc20",
					"outputs": [
						{
							"internalType": "contract IERC20",
							"name": "",
							"type": "address"
						}
					],
					"stateMutability": "view",
					"type": "function"
				},
				{
					"inputs": [],
					"name": "owner",
					"outputs": [
						{
							"internalType": "address",
							"name": "",
							"type": "address"
						}
					],
					"stateMutability": "view",
					"type": "function"
				},
				{
					"inputs": [],
					"name": "ratio",
					"outputs": [
						{
							"internalType": "uint256",
							"name": "",
							"type": "uint256"
						}
					],
					"stateMutability": "view",
					"type": "function"
				},
				{
					"inputs": [],
					"name": "received",
					"outputs": [],
					"stateMutability": "payable",
					"type": "function"
				},
				{
					"inputs": [
						{
							"internalType": "uint256",
							"name": "_ratio",
							"type": "uint256"
						}
					],
					"name": "setRatio",
					"outputs": [],
					"stateMutability": "nonpayable",
					"type": "function"
				},
				{
					"inputs": [
						{
							"internalType": "uint256",
							"name": "_stakeNumber",
							"type": "uint256"
						}
					],
					"name": "stake",
					"outputs": [],
					"stateMutability": "payable",
					"type": "function"
				},
				{
					"inputs": [],
					"name": "tokenAddress",
					"outputs": [
						{
							"internalType": "address",
							"name": "",
							"type": "address"
						}
					],
					"stateMutability": "view",
					"type": "function"
				},
				{
					"inputs": [],
					"name": "totalStakeNumber",
					"outputs": [
						{
							"internalType": "uint256",
							"name": "",
							"type": "uint256"
						}
					],
					"stateMutability": "view",
					"type": "function"
				},
				{
					"inputs": [],
					"name": "unStake",
					"outputs": [],
					"stateMutability": "payable",
					"type": "function"
				},
				{
					"inputs": [
						{
							"internalType": "address",
							"name": "",
							"type": "address"
						}
					],
					"name": "userStakes",
					"outputs": [
						{
							"internalType": "uint256",
							"name": "stakeNumber",
							"type": "uint256"
						},
						{
							"internalType": "uint256",
							"name": "currentInterest",
							"type": "uint256"
						},
						{
							"internalType": "uint256",
							"name": "claimedInterest",
							"type": "uint256"
						},
						{
							"internalType": "uint256",
							"name": "lastStakeTime",
							"type": "uint256"
						}
					],
					"stateMutability": "view",
					"type": "function"
				}
			],
			"devdoc": {
				"kind": "dev",
				"methods": {},
				"version": 1
			},
			"evm": {
				"assembly": "    /* \"contracts/StakePool.sol\":702:3328  contract StakePool{... */\n  mstore(0x40, 0x80)\n    /* \"contracts/StakePool.sol\":1165:1166  1 */\n  0x01\n    /* \"contracts/StakePool.sol\":1131:1166  uint256 public totalStakeNumber = 1 */\n  0x00\n  sstore\n    /* \"contracts/StakePool.sol\":1401:1569  constructor(address _tokenAddress) {... */\n  callvalue\n  dup1\n  iszero\n  tag_1\n  jumpi\n  0x00\n  dup1\n  revert\ntag_1:\n  pop\n  mload(0x40)\n  sub(codesize, bytecodeSize)\n  dup1\n  bytecodeSize\n  dup4\n  codecopy\n  dup2\n  dup2\n  add\n  0x40\n  mstore\n  dup2\n  add\n  swap1\n  tag_2\n  swap2\n  swap1\n  tag_3\n  jump\t// in\ntag_2:\n    /* \"contracts/StakePool.sol\":1461:1474  _tokenAddress */\n  dup1\n    /* \"contracts/StakePool.sol\":1446:1458  tokenAddress */\n  0x01\n  0x00\n    /* \"contracts/StakePool.sol\":1446:1474  tokenAddress = _tokenAddress */\n  0x0100\n  exp\n  dup2\n  sload\n  dup2\n  0xffffffffffffffffffffffffffffffffffffffff\n  mul\n  not\n  and\n  swap1\n  dup4\n  0xffffffffffffffffffffffffffffffffffffffff\n  and\n  mul\n  or\n  swap1\n  sstore\n  pop\n    /* \"contracts/StakePool.sol\":1500:1513  _tokenAddress */\n  dup1\n    /* \"contracts/StakePool.sol\":1484:1490  ierc20 */\n  0x05\n  0x00\n    /* \"contracts/StakePool.sol\":1484:1514  ierc20 = IERC20(_tokenAddress) */\n  0x0100\n  exp\n  dup2\n  sload\n  dup2\n  0xffffffffffffffffffffffffffffffffffffffff\n  mul\n  not\n  and\n  swap1\n  dup4\n  0xffffffffffffffffffffffffffffffffffffffff\n  and\n  mul\n  or\n  swap1\n  sstore\n  pop\n    /* \"contracts/StakePool.sol\":1532:1534  50 */\n  0x32\n    /* \"contracts/StakePool.sol\":1524:1529  ratio */\n  0x03\n    /* \"contracts/StakePool.sol\":1524:1534  ratio = 50 */\n  dup2\n  swap1\n  sstore\n  pop\n    /* \"contracts/StakePool.sol\":1552:1562  msg.sender */\n  caller\n    /* \"contracts/StakePool.sol\":1544:1549  owner */\n  0x02\n  0x00\n    /* \"contracts/StakePool.sol\":1544:1562  owner = msg.sender */\n  0x0100\n  exp\n  dup2\n  sload\n  dup2\n  0xffffffffffffffffffffffffffffffffffffffff\n  mul\n  not\n  and\n  swap1\n  dup4\n  0xffffffffffffffffffffffffffffffffffffffff\n  and\n  mul\n  or\n  swap1\n  sstore\n  pop\n    /* \"contracts/StakePool.sol\":1401:1569  constructor(address _tokenAddress) {... */\n  pop\n    /* \"contracts/StakePool.sol\":702:3328  contract StakePool{... */\n  jump(tag_6)\n    /* \"#utility.yul\":88:205   */\ntag_8:\n    /* \"#utility.yul\":197:198   */\n  0x00\n    /* \"#utility.yul\":194:195   */\n  dup1\n    /* \"#utility.yul\":187:199   */\n  revert\n    /* \"#utility.yul\":334:460   */\ntag_10:\n    /* \"#utility.yul\":371:378   */\n  0x00\n    /* \"#utility.yul\":411:453   */\n  0xffffffffffffffffffffffffffffffffffffffff\n    /* \"#utility.yul\":404:409   */\n  dup3\n    /* \"#utility.yul\":400:454   */\n  and\n    /* \"#utility.yul\":389:454   */\n  swap1\n  pop\n    /* \"#utility.yul\":334:460   */\n  swap2\n  swap1\n  pop\n  jump\t// out\n    /* \"#utility.yul\":466:562   */\ntag_11:\n    /* \"#utility.yul\":503:510   */\n  0x00\n    /* \"#utility.yul\":532:556   */\n  tag_20\n    /* \"#utility.yul\":550:555   */\n  dup3\n    /* \"#utility.yul\":532:556   */\n  tag_10\n  jump\t// in\ntag_20:\n    /* \"#utility.yul\":521:556   */\n  swap1\n  pop\n    /* \"#utility.yul\":466:562   */\n  swap2\n  swap1\n  pop\n  jump\t// out\n    /* \"#utility.yul\":568:690   */\ntag_12:\n    /* \"#utility.yul\":641:665   */\n  tag_22\n    /* \"#utility.yul\":659:664   */\n  dup2\n    /* \"#utility.yul\":641:665   */\n  tag_11\n  jump\t// in\ntag_22:\n    /* \"#utility.yul\":634:639   */\n  dup2\n    /* \"#utility.yul\":631:666   */\n  eq\n    /* \"#utility.yul\":621:684   */\n  tag_23\n  jumpi\n    /* \"#utility.yul\":680:681   */\n  0x00\n    /* \"#utility.yul\":677:678   */\n  dup1\n    /* \"#utility.yul\":670:682   */\n  revert\n    /* \"#utility.yul\":621:684   */\ntag_23:\n    /* \"#utility.yul\":568:690   */\n  pop\n  jump\t// out\n    /* \"#utility.yul\":696:839   */\ntag_13:\n    /* \"#utility.yul\":753:758   */\n  0x00\n    /* \"#utility.yul\":784:790   */\n  dup2\n    /* \"#utility.yul\":778:791   */\n  mload\n    /* \"#utility.yul\":769:791   */\n  swap1\n  pop\n    /* \"#utility.yul\":800:833   */\n  tag_25\n    /* \"#utility.yul\":827:832   */\n  dup2\n    /* \"#utility.yul\":800:833   */\n  tag_12\n  jump\t// in\ntag_25:\n    /* \"#utility.yul\":696:839   */\n  swap3\n  swap2\n  pop\n  pop\n  jump\t// out\n    /* \"#utility.yul\":845:1196   */\ntag_3:\n    /* \"#utility.yul\":915:921   */\n  0x00\n    /* \"#utility.yul\":964:966   */\n  0x20\n    /* \"#utility.yul\":952:961   */\n  dup3\n    /* \"#utility.yul\":943:950   */\n  dup5\n    /* \"#utility.yul\":939:962   */\n  sub\n    /* \"#utility.yul\":935:967   */\n  slt\n    /* \"#utility.yul\":932:1051   */\n  iszero\n  tag_27\n  jumpi\n    /* \"#utility.yul\":970:1049   */\n  tag_28\n  tag_8\n  jump\t// in\ntag_28:\n    /* \"#utility.yul\":932:1051   */\ntag_27:\n    /* \"#utility.yul\":1090:1091   */\n  0x00\n    /* \"#utility.yul\":1115:1179   */\n  tag_29\n    /* \"#utility.yul\":1171:1178   */\n  dup5\n    /* \"#utility.yul\":1162:1168   */\n  dup3\n    /* \"#utility.yul\":1151:1160   */\n  dup6\n    /* \"#utility.yul\":1147:1169   */\n  add\n    /* \"#utility.yul\":1115:1179   */\n  tag_13\n  jump\t// in\ntag_29:\n    /* \"#utility.yul\":1105:1179   */\n  swap2\n  pop\n    /* \"#utility.yul\":1061:1189   */\n  pop\n    /* \"#utility.yul\":845:1196   */\n  swap3\n  swap2\n  pop\n  pop\n  jump\t// out\n    /* \"contracts/StakePool.sol\":702:3328  contract StakePool{... */\ntag_6:\n  dataSize(sub_0)\n  dup1\n  dataOffset(sub_0)\n  0x00\n  codecopy\n  0x00\n  return\nstop\n\nsub_0: assembly {\n        /* \"contracts/StakePool.sol\":702:3328  contract StakePool{... */\n      mstore(0x40, 0x80)\n      jumpi(tag_1, lt(calldatasize, 0x04))\n      shr(0xe0, calldataload(0x00))\n      dup1\n      0x8da7ad23\n      gt\n      tag_12\n      jumpi\n      dup1\n      0x8da7ad23\n      eq\n      tag_7\n      jumpi\n      dup1\n      0x9d76ea58\n      eq\n      tag_8\n      jumpi\n      dup1\n      0xa694fc3a\n      eq\n      tag_9\n      jumpi\n      dup1\n      0xb2237ba3\n      eq\n      tag_10\n      jumpi\n      dup1\n      0xbf0ae63d\n      eq\n      tag_11\n      jumpi\n      jump(tag_1)\n    tag_12:\n      dup1\n      0x53b645e5\n      eq\n      tag_2\n      jumpi\n      dup1\n      0x71ca337d\n      eq\n      tag_3\n      jumpi\n      dup1\n      0x73cf575a\n      eq\n      tag_4\n      jumpi\n      dup1\n      0x83a6deb5\n      eq\n      tag_5\n      jumpi\n      dup1\n      0x8da5cb5b\n      eq\n      tag_6\n      jumpi\n    tag_1:\n      0x00\n      dup1\n      revert\n        /* \"contracts/StakePool.sol\":1131:1166  uint256 public totalStakeNumber = 1 */\n    tag_2:\n      callvalue\n      dup1\n      iszero\n      tag_13\n      jumpi\n      0x00\n      dup1\n      revert\n    tag_13:\n      pop\n      tag_14\n      tag_15\n      jump\t// in\n    tag_14:\n      mload(0x40)\n      tag_16\n      swap2\n      swap1\n      tag_17\n      jump\t// in\n    tag_16:\n      mload(0x40)\n      dup1\n      swap2\n      sub\n      swap1\n      return\n        /* \"contracts/StakePool.sol\":1274:1294  uint256 public ratio */\n    tag_3:\n      callvalue\n      dup1\n      iszero\n      tag_18\n      jumpi\n      0x00\n      dup1\n      revert\n    tag_18:\n      pop\n      tag_19\n      tag_20\n      jump\t// in\n    tag_19:\n      mload(0x40)\n      tag_21\n      swap2\n      swap1\n      tag_17\n      jump\t// in\n    tag_21:\n      mload(0x40)\n      dup1\n      swap2\n      sub\n      swap1\n      return\n        /* \"contracts/StakePool.sol\":2220:2777  function unStake() external payable {... */\n    tag_4:\n      tag_22\n      tag_23\n      jump\t// in\n    tag_22:\n      stop\n        /* \"contracts/StakePool.sol\":2783:3048  function received() external payable {... */\n    tag_5:\n      tag_24\n      tag_25\n      jump\t// in\n    tag_24:\n      stop\n        /* \"contracts/StakePool.sol\":1248:1268  address public owner */\n    tag_6:\n      callvalue\n      dup1\n      iszero\n      tag_26\n      jumpi\n      0x00\n      dup1\n      revert\n    tag_26:\n      pop\n      tag_27\n      tag_28\n      jump\t// in\n    tag_27:\n      mload(0x40)\n      tag_29\n      swap2\n      swap1\n      tag_30\n      jump\t// in\n    tag_29:\n      mload(0x40)\n      dup1\n      swap2\n      sub\n      swap1\n      return\n        /* \"contracts/StakePool.sol\":1326:1368  mapping(address => User) public userStakes */\n    tag_7:\n      callvalue\n      dup1\n      iszero\n      tag_31\n      jumpi\n      0x00\n      dup1\n      revert\n    tag_31:\n      pop\n      tag_32\n      0x04\n      dup1\n      calldatasize\n      sub\n      dup2\n      add\n      swap1\n      tag_33\n      swap2\n      swap1\n      tag_34\n      jump\t// in\n    tag_33:\n      tag_35\n      jump\t// in\n    tag_32:\n      mload(0x40)\n      tag_36\n      swap5\n      swap4\n      swap3\n      swap2\n      swap1\n      tag_37\n      jump\t// in\n    tag_36:\n      mload(0x40)\n      dup1\n      swap2\n      sub\n      swap1\n      return\n        /* \"contracts/StakePool.sol\":1192:1219  address public tokenAddress */\n    tag_8:\n      callvalue\n      dup1\n      iszero\n      tag_38\n      jumpi\n      0x00\n      dup1\n      revert\n    tag_38:\n      pop\n      tag_39\n      tag_40\n      jump\t// in\n    tag_39:\n      mload(0x40)\n      tag_41\n      swap2\n      swap1\n      tag_30\n      jump\t// in\n    tag_41:\n      mload(0x40)\n      dup1\n      swap2\n      sub\n      swap1\n      return\n        /* \"contracts/StakePool.sol\":1772:2214  function stake(uint256 _stakeNumber) external payable {... */\n    tag_9:\n      tag_42\n      0x04\n      dup1\n      calldatasize\n      sub\n      dup2\n      add\n      swap1\n      tag_43\n      swap2\n      swap1\n      tag_44\n      jump\t// in\n    tag_43:\n      tag_45\n      jump\t// in\n    tag_42:\n      stop\n        /* \"contracts/StakePool.sol\":1672:1762  function setRatio(uint _ratio) external onlyOwner {    ... */\n    tag_10:\n      callvalue\n      dup1\n      iszero\n      tag_46\n      jumpi\n      0x00\n      dup1\n      revert\n    tag_46:\n      pop\n      tag_47\n      0x04\n      dup1\n      calldatasize\n      sub\n      dup2\n      add\n      swap1\n      tag_48\n      swap2\n      swap1\n      tag_44\n      jump\t// in\n    tag_48:\n      tag_49\n      jump\t// in\n    tag_47:\n      stop\n        /* \"contracts/StakePool.sol\":1374:1394  IERC20 public ierc20 */\n    tag_11:\n      callvalue\n      dup1\n      iszero\n      tag_50\n      jumpi\n      0x00\n      dup1\n      revert\n    tag_50:\n      pop\n      tag_51\n      tag_52\n      jump\t// in\n    tag_51:\n      mload(0x40)\n      tag_53\n      swap2\n      swap1\n      tag_54\n      jump\t// in\n    tag_53:\n      mload(0x40)\n      dup1\n      swap2\n      sub\n      swap1\n      return\n        /* \"contracts/StakePool.sol\":1131:1166  uint256 public totalStakeNumber = 1 */\n    tag_15:\n      sload(0x00)\n      dup2\n      jump\t// out\n        /* \"contracts/StakePool.sol\":1274:1294  uint256 public ratio */\n    tag_20:\n      sload(0x03)\n      dup2\n      jump\t// out\n        /* \"contracts/StakePool.sol\":2220:2777  function unStake() external payable {... */\n    tag_23:\n        /* \"contracts/StakePool.sol\":2303:2309  ierc20 */\n      0x05\n      0x00\n      swap1\n      sload\n      swap1\n      0x0100\n      exp\n      swap1\n      div\n      0xffffffffffffffffffffffffffffffffffffffff\n      and\n        /* \"contracts/StakePool.sol\":2303:2318  ierc20.transfer */\n      0xffffffffffffffffffffffffffffffffffffffff\n      and\n      0xa9059cbb\n        /* \"contracts/StakePool.sol\":2319:2329  msg.sender */\n      caller\n        /* \"contracts/StakePool.sol\":2331:2341  userStakes */\n      0x04\n        /* \"contracts/StakePool.sol\":2331:2353  userStakes[msg.sender] */\n      0x00\n        /* \"contracts/StakePool.sol\":2342:2352  msg.sender */\n      caller\n        /* \"contracts/StakePool.sol\":2331:2353  userStakes[msg.sender] */\n      0xffffffffffffffffffffffffffffffffffffffff\n      and\n      0xffffffffffffffffffffffffffffffffffffffff\n      and\n      dup2\n      mstore\n      0x20\n      add\n      swap1\n      dup2\n      mstore\n      0x20\n      add\n      0x00\n      keccak256\n        /* \"contracts/StakePool.sol\":2331:2365  userStakes[msg.sender].stakeNumber */\n      0x00\n      add\n      sload\n        /* \"contracts/StakePool.sol\":2303:2366  ierc20.transfer(msg.sender, userStakes[msg.sender].stakeNumber) */\n      mload(0x40)\n      dup4\n      0xffffffff\n      and\n      0xe0\n      shl\n      dup2\n      mstore\n      0x04\n      add\n      tag_56\n      swap3\n      swap2\n      swap1\n      tag_57\n      jump\t// in\n    tag_56:\n      0x20\n      mload(0x40)\n      dup1\n      dup4\n      sub\n      dup2\n      0x00\n      dup8\n      gas\n      call\n      iszero\n      dup1\n      iszero\n      tag_59\n      jumpi\n      returndatasize\n      0x00\n      dup1\n      returndatacopy\n      revert(0x00, returndatasize)\n    tag_59:\n      pop\n      pop\n      pop\n      pop\n      mload(0x40)\n      returndatasize\n      not(0x1f)\n      0x1f\n      dup3\n      add\n      and\n      dup3\n      add\n      dup1\n      0x40\n      mstore\n      pop\n      dup2\n      add\n      swap1\n      tag_60\n      swap2\n      swap1\n      tag_61\n      jump\t// in\n    tag_60:\n      pop\n        /* \"contracts/StakePool.sol\":2376:2382  ierc20 */\n      0x05\n      0x00\n      swap1\n      sload\n      swap1\n      0x0100\n      exp\n      swap1\n      div\n      0xffffffffffffffffffffffffffffffffffffffff\n      and\n        /* \"contracts/StakePool.sol\":2376:2391  ierc20.transfer */\n      0xffffffffffffffffffffffffffffffffffffffff\n      and\n      0xa9059cbb\n        /* \"contracts/StakePool.sol\":2392:2402  msg.sender */\n      caller\n        /* \"contracts/StakePool.sol\":2404:2419  getUserInsert() */\n      tag_62\n        /* \"contracts/StakePool.sol\":2404:2417  getUserInsert */\n      tag_63\n        /* \"contracts/StakePool.sol\":2404:2419  getUserInsert() */\n      jump\t// in\n    tag_62:\n        /* \"contracts/StakePool.sol\":2376:2420  ierc20.transfer(msg.sender, getUserInsert()) */\n      mload(0x40)\n      dup4\n      0xffffffff\n      and\n      0xe0\n      shl\n      dup2\n      mstore\n      0x04\n      add\n      tag_64\n      swap3\n      swap2\n      swap1\n      tag_57\n      jump\t// in\n    tag_64:\n      0x20\n      mload(0x40)\n      dup1\n      dup4\n      sub\n      dup2\n      0x00\n      dup8\n      gas\n      call\n      iszero\n      dup1\n      iszero\n      tag_66\n      jumpi\n      returndatasize\n      0x00\n      dup1\n      returndatacopy\n      revert(0x00, returndatasize)\n    tag_66:\n      pop\n      pop\n      pop\n      pop\n      mload(0x40)\n      returndatasize\n      not(0x1f)\n      0x1f\n      dup3\n      add\n      and\n      dup3\n      add\n      dup1\n      0x40\n      mstore\n      pop\n      dup2\n      add\n      swap1\n      tag_67\n      swap2\n      swap1\n      tag_61\n      jump\t// in\n    tag_67:\n      pop\n        /* \"contracts/StakePool.sol\":2443:2453  msg.sender */\n      caller\n        /* \"contracts/StakePool.sol\":2435:2490  UnStake(msg.sender, userStakes[msg.sender].stakeNumber) */\n      0xffffffffffffffffffffffffffffffffffffffff\n      and\n      0xb24546d975e2628748efc9aced80665e0fad66272033e5c0ea25fd3afac99795\n        /* \"contracts/StakePool.sol\":2455:2465  userStakes */\n      0x04\n        /* \"contracts/StakePool.sol\":2455:2477  userStakes[msg.sender] */\n      0x00\n        /* \"contracts/StakePool.sol\":2466:2476  msg.sender */\n      caller\n        /* \"contracts/StakePool.sol\":2455:2477  userStakes[msg.sender] */\n      0xffffffffffffffffffffffffffffffffffffffff\n      and\n      0xffffffffffffffffffffffffffffffffffffffff\n      and\n      dup2\n      mstore\n      0x20\n      add\n      swap1\n      dup2\n      mstore\n      0x20\n      add\n      0x00\n      keccak256\n        /* \"contracts/StakePool.sol\":2455:2489  userStakes[msg.sender].stakeNumber */\n      0x00\n      add\n      sload\n        /* \"contracts/StakePool.sol\":2435:2490  UnStake(msg.sender, userStakes[msg.sender].stakeNumber) */\n      mload(0x40)\n      tag_68\n      swap2\n      swap1\n      tag_17\n      jump\t// in\n    tag_68:\n      mload(0x40)\n      dup1\n      swap2\n      sub\n      swap1\n      log2\n        /* \"contracts/StakePool.sol\":2513:2523  msg.sender */\n      caller\n        /* \"contracts/StakePool.sol\":2505:2541  Receive(msg.sender, getUserInsert()) */\n      0xffffffffffffffffffffffffffffffffffffffff\n      and\n      0xd6717f327e0cb88b4a97a7f67a453e9258252c34937ccbdd86de7cb840e7def3\n        /* \"contracts/StakePool.sol\":2525:2540  getUserInsert() */\n      tag_69\n        /* \"contracts/StakePool.sol\":2525:2538  getUserInsert */\n      tag_63\n        /* \"contracts/StakePool.sol\":2525:2540  getUserInsert() */\n      jump\t// in\n    tag_69:\n        /* \"contracts/StakePool.sol\":2505:2541  Receive(msg.sender, getUserInsert()) */\n      mload(0x40)\n      tag_70\n      swap2\n      swap1\n      tag_17\n      jump\t// in\n    tag_70:\n      mload(0x40)\n      dup1\n      swap2\n      sub\n      swap1\n      log2\n        /* \"contracts/StakePool.sol\":2591:2606  block.timestamp */\n      timestamp\n        /* \"contracts/StakePool.sol\":2552:2562  userStakes */\n      0x04\n        /* \"contracts/StakePool.sol\":2552:2574  userStakes[msg.sender] */\n      0x00\n        /* \"contracts/StakePool.sol\":2563:2573  msg.sender */\n      caller\n        /* \"contracts/StakePool.sol\":2552:2574  userStakes[msg.sender] */\n      0xffffffffffffffffffffffffffffffffffffffff\n      and\n      0xffffffffffffffffffffffffffffffffffffffff\n      and\n      dup2\n      mstore\n      0x20\n      add\n      swap1\n      dup2\n      mstore\n      0x20\n      add\n      0x00\n      keccak256\n        /* \"contracts/StakePool.sol\":2552:2588  userStakes[msg.sender].lastStakeTime */\n      0x03\n      add\n        /* \"contracts/StakePool.sol\":2552:2606  userStakes[msg.sender].lastStakeTime = block.timestamp */\n      dup2\n      swap1\n      sstore\n      pop\n        /* \"contracts/StakePool.sol\":2636:2646  userStakes */\n      0x04\n        /* \"contracts/StakePool.sol\":2636:2658  userStakes[msg.sender] */\n      0x00\n        /* \"contracts/StakePool.sol\":2647:2657  msg.sender */\n      caller\n        /* \"contracts/StakePool.sol\":2636:2658  userStakes[msg.sender] */\n      0xffffffffffffffffffffffffffffffffffffffff\n      and\n      0xffffffffffffffffffffffffffffffffffffffff\n      and\n      dup2\n      mstore\n      0x20\n      add\n      swap1\n      dup2\n      mstore\n      0x20\n      add\n      0x00\n      keccak256\n        /* \"contracts/StakePool.sol\":2636:2670  userStakes[msg.sender].stakeNumber */\n      0x00\n      add\n      sload\n        /* \"contracts/StakePool.sol\":2616:2632  totalStakeNumber */\n      0x00\n      dup1\n        /* \"contracts/StakePool.sol\":2616:2670  totalStakeNumber -= userStakes[msg.sender].stakeNumber */\n      dup3\n      dup3\n      sload\n      tag_71\n      swap2\n      swap1\n      tag_72\n      jump\t// in\n    tag_71:\n      swap3\n      pop\n      pop\n      dup2\n      swap1\n      sstore\n      pop\n        /* \"contracts/StakePool.sol\":2717:2718  0 */\n      0x00\n        /* \"contracts/StakePool.sol\":2680:2690  userStakes */\n      0x04\n        /* \"contracts/StakePool.sol\":2680:2702  userStakes[msg.sender] */\n      0x00\n        /* \"contracts/StakePool.sol\":2691:2701  msg.sender */\n      caller\n        /* \"contracts/StakePool.sol\":2680:2702  userStakes[msg.sender] */\n      0xffffffffffffffffffffffffffffffffffffffff\n      and\n      0xffffffffffffffffffffffffffffffffffffffff\n      and\n      dup2\n      mstore\n      0x20\n      add\n      swap1\n      dup2\n      mstore\n      0x20\n      add\n      0x00\n      keccak256\n        /* \"contracts/StakePool.sol\":2680:2714  userStakes[msg.sender].stakeNumber */\n      0x00\n      add\n        /* \"contracts/StakePool.sol\":2680:2718  userStakes[msg.sender].stakeNumber = 0 */\n      dup2\n      swap1\n      sstore\n      pop\n        /* \"contracts/StakePool.sol\":2769:2770  0 */\n      0x00\n        /* \"contracts/StakePool.sol\":2728:2738  userStakes */\n      0x04\n        /* \"contracts/StakePool.sol\":2728:2750  userStakes[msg.sender] */\n      0x00\n        /* \"contracts/StakePool.sol\":2739:2749  msg.sender */\n      caller\n        /* \"contracts/StakePool.sol\":2728:2750  userStakes[msg.sender] */\n      0xffffffffffffffffffffffffffffffffffffffff\n      and\n      0xffffffffffffffffffffffffffffffffffffffff\n      and\n      dup2\n      mstore\n      0x20\n      add\n      swap1\n      dup2\n      mstore\n      0x20\n      add\n      0x00\n      keccak256\n        /* \"contracts/StakePool.sol\":2728:2766  userStakes[msg.sender].currentInterest */\n      0x01\n      add\n        /* \"contracts/StakePool.sol\":2728:2770  userStakes[msg.sender].currentInterest = 0 */\n      dup2\n      swap1\n      sstore\n      pop\n        /* \"contracts/StakePool.sol\":2220:2777  function unStake() external payable {... */\n      jump\t// out\n        /* \"contracts/StakePool.sol\":2783:3048  function received() external payable {... */\n    tag_25:\n        /* \"contracts/StakePool.sol\":2830:2836  ierc20 */\n      0x05\n      0x00\n      swap1\n      sload\n      swap1\n      0x0100\n      exp\n      swap1\n      div\n      0xffffffffffffffffffffffffffffffffffffffff\n      and\n        /* \"contracts/StakePool.sol\":2830:2845  ierc20.transfer */\n      0xffffffffffffffffffffffffffffffffffffffff\n      and\n      0xa9059cbb\n        /* \"contracts/StakePool.sol\":2846:2856  msg.sender */\n      caller\n        /* \"contracts/StakePool.sol\":2858:2873  getUserInsert() */\n      tag_74\n        /* \"contracts/StakePool.sol\":2858:2871  getUserInsert */\n      tag_63\n        /* \"contracts/StakePool.sol\":2858:2873  getUserInsert() */\n      jump\t// in\n    tag_74:\n        /* \"contracts/StakePool.sol\":2830:2874  ierc20.transfer(msg.sender, getUserInsert()) */\n      mload(0x40)\n      dup4\n      0xffffffff\n      and\n      0xe0\n      shl\n      dup2\n      mstore\n      0x04\n      add\n      tag_75\n      swap3\n      swap2\n      swap1\n      tag_57\n      jump\t// in\n    tag_75:\n      0x20\n      mload(0x40)\n      dup1\n      dup4\n      sub\n      dup2\n      0x00\n      dup8\n      gas\n      call\n      iszero\n      dup1\n      iszero\n      tag_77\n      jumpi\n      returndatasize\n      0x00\n      dup1\n      returndatacopy\n      revert(0x00, returndatasize)\n    tag_77:\n      pop\n      pop\n      pop\n      pop\n      mload(0x40)\n      returndatasize\n      not(0x1f)\n      0x1f\n      dup3\n      add\n      and\n      dup3\n      add\n      dup1\n      0x40\n      mstore\n      pop\n      dup2\n      add\n      swap1\n      tag_78\n      swap2\n      swap1\n      tag_61\n      jump\t// in\n    tag_78:\n      pop\n        /* \"contracts/StakePool.sol\":2897:2907  msg.sender */\n      caller\n        /* \"contracts/StakePool.sol\":2889:2925  Receive(msg.sender, getUserInsert()) */\n      0xffffffffffffffffffffffffffffffffffffffff\n      and\n      0xd6717f327e0cb88b4a97a7f67a453e9258252c34937ccbdd86de7cb840e7def3\n        /* \"contracts/StakePool.sol\":2909:2924  getUserInsert() */\n      tag_79\n        /* \"contracts/StakePool.sol\":2909:2922  getUserInsert */\n      tag_63\n        /* \"contracts/StakePool.sol\":2909:2924  getUserInsert() */\n      jump\t// in\n    tag_79:\n        /* \"contracts/StakePool.sol\":2889:2925  Receive(msg.sender, getUserInsert()) */\n      mload(0x40)\n      tag_80\n      swap2\n      swap1\n      tag_17\n      jump\t// in\n    tag_80:\n      mload(0x40)\n      dup1\n      swap2\n      sub\n      swap1\n      log2\n        /* \"contracts/StakePool.sol\":2974:2989  block.timestamp */\n      timestamp\n        /* \"contracts/StakePool.sol\":2935:2945  userStakes */\n      0x04\n        /* \"contracts/StakePool.sol\":2935:2957  userStakes[msg.sender] */\n      0x00\n        /* \"contracts/StakePool.sol\":2946:2956  msg.sender */\n      caller\n        /* \"contracts/StakePool.sol\":2935:2957  userStakes[msg.sender] */\n      0xffffffffffffffffffffffffffffffffffffffff\n      and\n      0xffffffffffffffffffffffffffffffffffffffff\n      and\n      dup2\n      mstore\n      0x20\n      add\n      swap1\n      dup2\n      mstore\n      0x20\n      add\n      0x00\n      keccak256\n        /* \"contracts/StakePool.sol\":2935:2971  userStakes[msg.sender].lastStakeTime */\n      0x03\n      add\n        /* \"contracts/StakePool.sol\":2935:2989  userStakes[msg.sender].lastStakeTime = block.timestamp */\n      dup2\n      swap1\n      sstore\n      pop\n        /* \"contracts/StakePool.sol\":3040:3041  0 */\n      0x00\n        /* \"contracts/StakePool.sol\":2999:3009  userStakes */\n      0x04\n        /* \"contracts/StakePool.sol\":2999:3021  userStakes[msg.sender] */\n      0x00\n        /* \"contracts/StakePool.sol\":3010:3020  msg.sender */\n      caller\n        /* \"contracts/StakePool.sol\":2999:3021  userStakes[msg.sender] */\n      0xffffffffffffffffffffffffffffffffffffffff\n      and\n      0xffffffffffffffffffffffffffffffffffffffff\n      and\n      dup2\n      mstore\n      0x20\n      add\n      swap1\n      dup2\n      mstore\n      0x20\n      add\n      0x00\n      keccak256\n        /* \"contracts/StakePool.sol\":2999:3037  userStakes[msg.sender].currentInterest */\n      0x01\n      add\n        /* \"contracts/StakePool.sol\":2999:3041  userStakes[msg.sender].currentInterest = 0 */\n      dup2\n      swap1\n      sstore\n      pop\n        /* \"contracts/StakePool.sol\":2783:3048  function received() external payable {... */\n      jump\t// out\n        /* \"contracts/StakePool.sol\":1248:1268  address public owner */\n    tag_28:\n      0x02\n      0x00\n      swap1\n      sload\n      swap1\n      0x0100\n      exp\n      swap1\n      div\n      0xffffffffffffffffffffffffffffffffffffffff\n      and\n      dup2\n      jump\t// out\n        /* \"contracts/StakePool.sol\":1326:1368  mapping(address => User) public userStakes */\n    tag_35:\n      mstore(0x20, 0x04)\n      dup1\n      0x00\n      mstore\n      keccak256(0x00, 0x40)\n      0x00\n      swap2\n      pop\n      swap1\n      pop\n      dup1\n      0x00\n      add\n      sload\n      swap1\n      dup1\n      0x01\n      add\n      sload\n      swap1\n      dup1\n      0x02\n      add\n      sload\n      swap1\n      dup1\n      0x03\n      add\n      sload\n      swap1\n      pop\n      dup5\n      jump\t// out\n        /* \"contracts/StakePool.sol\":1192:1219  address public tokenAddress */\n    tag_40:\n      0x01\n      0x00\n      swap1\n      sload\n      swap1\n      0x0100\n      exp\n      swap1\n      div\n      0xffffffffffffffffffffffffffffffffffffffff\n      and\n      dup2\n      jump\t// out\n        /* \"contracts/StakePool.sol\":1772:2214  function stake(uint256 _stakeNumber) external payable {... */\n    tag_45:\n        /* \"contracts/StakePool.sol\":1836:1842  ierc20 */\n      0x05\n      0x00\n      swap1\n      sload\n      swap1\n      0x0100\n      exp\n      swap1\n      div\n      0xffffffffffffffffffffffffffffffffffffffff\n      and\n        /* \"contracts/StakePool.sol\":1836:1855  ierc20.transferFrom */\n      0xffffffffffffffffffffffffffffffffffffffff\n      and\n      0x23b872dd\n        /* \"contracts/StakePool.sol\":1856:1866  msg.sender */\n      caller\n        /* \"contracts/StakePool.sol\":1876:1880  this */\n      address\n        /* \"contracts/StakePool.sol\":1883:1895  _stakeNumber */\n      dup5\n        /* \"contracts/StakePool.sol\":1836:1896  ierc20.transferFrom(msg.sender, address(this), _stakeNumber) */\n      mload(0x40)\n      dup5\n      0xffffffff\n      and\n      0xe0\n      shl\n      dup2\n      mstore\n      0x04\n      add\n      tag_82\n      swap4\n      swap3\n      swap2\n      swap1\n      tag_83\n      jump\t// in\n    tag_82:\n      0x20\n      mload(0x40)\n      dup1\n      dup4\n      sub\n      dup2\n      0x00\n      dup8\n      gas\n      call\n      iszero\n      dup1\n      iszero\n      tag_85\n      jumpi\n      returndatasize\n      0x00\n      dup1\n      returndatacopy\n      revert(0x00, returndatasize)\n    tag_85:\n      pop\n      pop\n      pop\n      pop\n      mload(0x40)\n      returndatasize\n      not(0x1f)\n      0x1f\n      dup3\n      add\n      and\n      dup3\n      add\n      dup1\n      0x40\n      mstore\n      pop\n      dup2\n      add\n      swap1\n      tag_86\n      swap2\n      swap1\n      tag_61\n      jump\t// in\n    tag_86:\n      pop\n        /* \"contracts/StakePool.sol\":1980:1995  getUserInsert() */\n      tag_87\n        /* \"contracts/StakePool.sol\":1980:1993  getUserInsert */\n      tag_63\n        /* \"contracts/StakePool.sol\":1980:1995  getUserInsert() */\n      jump\t// in\n    tag_87:\n        /* \"contracts/StakePool.sol\":1939:1949  userStakes */\n      0x04\n        /* \"contracts/StakePool.sol\":1939:1961  userStakes[msg.sender] */\n      0x00\n        /* \"contracts/StakePool.sol\":1950:1960  msg.sender */\n      caller\n        /* \"contracts/StakePool.sol\":1939:1961  userStakes[msg.sender] */\n      0xffffffffffffffffffffffffffffffffffffffff\n      and\n      0xffffffffffffffffffffffffffffffffffffffff\n      and\n      dup2\n      mstore\n      0x20\n      add\n      swap1\n      dup2\n      mstore\n      0x20\n      add\n      0x00\n      keccak256\n        /* \"contracts/StakePool.sol\":1939:1977  userStakes[msg.sender].currentInterest */\n      0x01\n      add\n        /* \"contracts/StakePool.sol\":1939:1995  userStakes[msg.sender].currentInterest = getUserInsert() */\n      dup2\n      swap1\n      sstore\n      pop\n        /* \"contracts/StakePool.sol\":2043:2055  _stakeNumber */\n      dup1\n        /* \"contracts/StakePool.sol\":2005:2015  userStakes */\n      0x04\n        /* \"contracts/StakePool.sol\":2005:2027  userStakes[msg.sender] */\n      0x00\n        /* \"contracts/StakePool.sol\":2016:2026  msg.sender */\n      caller\n        /* \"contracts/StakePool.sol\":2005:2027  userStakes[msg.sender] */\n      0xffffffffffffffffffffffffffffffffffffffff\n      and\n      0xffffffffffffffffffffffffffffffffffffffff\n      and\n      dup2\n      mstore\n      0x20\n      add\n      swap1\n      dup2\n      mstore\n      0x20\n      add\n      0x00\n      keccak256\n        /* \"contracts/StakePool.sol\":2005:2039  userStakes[msg.sender].stakeNumber */\n      0x00\n      add\n      0x00\n        /* \"contracts/StakePool.sol\":2005:2055  userStakes[msg.sender].stakeNumber += _stakeNumber */\n      dup3\n      dup3\n      sload\n      tag_88\n      swap2\n      swap1\n      tag_89\n      jump\t// in\n    tag_88:\n      swap3\n      pop\n      pop\n      dup2\n      swap1\n      sstore\n      pop\n        /* \"contracts/StakePool.sol\":2104:2119  block.timestamp */\n      timestamp\n        /* \"contracts/StakePool.sol\":2065:2075  userStakes */\n      0x04\n        /* \"contracts/StakePool.sol\":2065:2087  userStakes[msg.sender] */\n      0x00\n        /* \"contracts/StakePool.sol\":2076:2086  msg.sender */\n      caller\n        /* \"contracts/StakePool.sol\":2065:2087  userStakes[msg.sender] */\n      0xffffffffffffffffffffffffffffffffffffffff\n      and\n      0xffffffffffffffffffffffffffffffffffffffff\n      and\n      dup2\n      mstore\n      0x20\n      add\n      swap1\n      dup2\n      mstore\n      0x20\n      add\n      0x00\n      keccak256\n        /* \"contracts/StakePool.sol\":2065:2101  userStakes[msg.sender].lastStakeTime */\n      0x03\n      add\n        /* \"contracts/StakePool.sol\":2065:2119  userStakes[msg.sender].lastStakeTime = block.timestamp */\n      dup2\n      swap1\n      sstore\n      pop\n        /* \"contracts/StakePool.sol\":2149:2161  _stakeNumber */\n      dup1\n        /* \"contracts/StakePool.sol\":2129:2145  totalStakeNumber */\n      0x00\n      dup1\n        /* \"contracts/StakePool.sol\":2129:2161  totalStakeNumber += _stakeNumber */\n      dup3\n      dup3\n      sload\n      tag_90\n      swap2\n      swap1\n      tag_89\n      jump\t// in\n    tag_90:\n      swap3\n      pop\n      pop\n      dup2\n      swap1\n      sstore\n      pop\n        /* \"contracts/StakePool.sol\":2182:2192  msg.sender */\n      caller\n        /* \"contracts/StakePool.sol\":2176:2207  Stake(msg.sender, _stakeNumber) */\n      0xffffffffffffffffffffffffffffffffffffffff\n      and\n      0xebedb8b3c678666e7f36970bc8f57abf6d8fa2e828c0da91ea5b75bf68ed101a\n        /* \"contracts/StakePool.sol\":2194:2206  _stakeNumber */\n      dup3\n        /* \"contracts/StakePool.sol\":2176:2207  Stake(msg.sender, _stakeNumber) */\n      mload(0x40)\n      tag_91\n      swap2\n      swap1\n      tag_17\n      jump\t// in\n    tag_91:\n      mload(0x40)\n      dup1\n      swap2\n      sub\n      swap1\n      log2\n        /* \"contracts/StakePool.sol\":1772:2214  function stake(uint256 _stakeNumber) external payable {... */\n      pop\n      jump\t// out\n        /* \"contracts/StakePool.sol\":1672:1762  function setRatio(uint _ratio) external onlyOwner {    ... */\n    tag_49:\n        /* \"contracts/StakePool.sol\":1628:1633  owner */\n      0x02\n      0x00\n      swap1\n      sload\n      swap1\n      0x0100\n      exp\n      swap1\n      div\n      0xffffffffffffffffffffffffffffffffffffffff\n      and\n        /* \"contracts/StakePool.sol\":1614:1633  msg.sender == owner */\n      0xffffffffffffffffffffffffffffffffffffffff\n      and\n        /* \"contracts/StakePool.sol\":1614:1624  msg.sender */\n      caller\n        /* \"contracts/StakePool.sol\":1614:1633  msg.sender == owner */\n      0xffffffffffffffffffffffffffffffffffffffff\n      and\n      eq\n        /* \"contracts/StakePool.sol\":1606:1648  require(msg.sender == owner , \"not owner\") */\n      tag_93\n      jumpi\n      mload(0x40)\n      0x08c379a000000000000000000000000000000000000000000000000000000000\n      dup2\n      mstore\n      0x04\n      add\n      tag_94\n      swap1\n      tag_95\n      jump\t// in\n    tag_94:\n      mload(0x40)\n      dup1\n      swap2\n      sub\n      swap1\n      revert\n    tag_93:\n        /* \"contracts/StakePool.sol\":1744:1750  _ratio */\n      dup1\n        /* \"contracts/StakePool.sol\":1736:1741  ratio */\n      0x03\n        /* \"contracts/StakePool.sol\":1736:1750  ratio = _ratio */\n      dup2\n      swap1\n      sstore\n      pop\n        /* \"contracts/StakePool.sol\":1672:1762  function setRatio(uint _ratio) external onlyOwner {    ... */\n      pop\n      jump\t// out\n        /* \"contracts/StakePool.sol\":1374:1394  IERC20 public ierc20 */\n    tag_52:\n      0x05\n      0x00\n      swap1\n      sload\n      swap1\n      0x0100\n      exp\n      swap1\n      div\n      0xffffffffffffffffffffffffffffffffffffffff\n      and\n      dup2\n      jump\t// out\n        /* \"contracts/StakePool.sol\":3055:3322  function getUserInsert() private view returns (uint256 interest) {... */\n    tag_63:\n        /* \"contracts/StakePool.sol\":3102:3118  uint256 interest */\n      0x00\n        /* \"contracts/StakePool.sol\":3306:3314  31536000 */\n      0x01e13380\n        /* \"contracts/StakePool.sol\":3300:3303  100 */\n      0x64\n        /* \"contracts/StakePool.sol\":3292:3297  ratio */\n      sload(0x03)\n        /* \"contracts/StakePool.sol\":3255:3265  userStakes */\n      0x04\n        /* \"contracts/StakePool.sol\":3255:3277  userStakes[msg.sender] */\n      0x00\n        /* \"contracts/StakePool.sol\":3266:3276  msg.sender */\n      caller\n        /* \"contracts/StakePool.sol\":3255:3277  userStakes[msg.sender] */\n      0xffffffffffffffffffffffffffffffffffffffff\n      and\n      0xffffffffffffffffffffffffffffffffffffffff\n      and\n      dup2\n      mstore\n      0x20\n      add\n      swap1\n      dup2\n      mstore\n      0x20\n      add\n      0x00\n      keccak256\n        /* \"contracts/StakePool.sol\":3255:3289  userStakes[msg.sender].stakeNumber */\n      0x00\n      add\n      sload\n        /* \"contracts/StakePool.sol\":3255:3297  userStakes[msg.sender].stakeNumber * ratio */\n      tag_98\n      swap2\n      swap1\n      tag_99\n      jump\t// in\n    tag_98:\n        /* \"contracts/StakePool.sol\":3255:3303  userStakes[msg.sender].stakeNumber * ratio / 100 */\n      tag_100\n      swap2\n      swap1\n      tag_101\n      jump\t// in\n    tag_100:\n        /* \"contracts/StakePool.sol\":3255:3314  userStakes[msg.sender].stakeNumber * ratio / 100 / 31536000 */\n      tag_102\n      swap2\n      swap1\n      tag_101\n      jump\t// in\n    tag_102:\n        /* \"contracts/StakePool.sol\":3214:3224  userStakes */\n      0x04\n        /* \"contracts/StakePool.sol\":3214:3236  userStakes[msg.sender] */\n      0x00\n        /* \"contracts/StakePool.sol\":3225:3235  msg.sender */\n      caller\n        /* \"contracts/StakePool.sol\":3214:3236  userStakes[msg.sender] */\n      0xffffffffffffffffffffffffffffffffffffffff\n      and\n      0xffffffffffffffffffffffffffffffffffffffff\n      and\n      dup2\n      mstore\n      0x20\n      add\n      swap1\n      dup2\n      mstore\n      0x20\n      add\n      0x00\n      keccak256\n        /* \"contracts/StakePool.sol\":3214:3250  userStakes[msg.sender].lastStakeTime */\n      0x03\n      add\n      sload\n        /* \"contracts/StakePool.sol\":3196:3211  block.timestamp */\n      timestamp\n        /* \"contracts/StakePool.sol\":3196:3250  block.timestamp - userStakes[msg.sender].lastStakeTime */\n      tag_103\n      swap2\n      swap1\n      tag_72\n      jump\t// in\n    tag_103:\n        /* \"contracts/StakePool.sol\":3195:3315  (block.timestamp - userStakes[msg.sender].lastStakeTime) * (userStakes[msg.sender].stakeNumber * ratio / 100 / 31536000) */\n      tag_104\n      swap2\n      swap1\n      tag_99\n      jump\t// in\n    tag_104:\n        /* \"contracts/StakePool.sol\":3141:3151  userStakes */\n      0x04\n        /* \"contracts/StakePool.sol\":3141:3163  userStakes[msg.sender] */\n      0x00\n        /* \"contracts/StakePool.sol\":3152:3162  msg.sender */\n      caller\n        /* \"contracts/StakePool.sol\":3141:3163  userStakes[msg.sender] */\n      0xffffffffffffffffffffffffffffffffffffffff\n      and\n      0xffffffffffffffffffffffffffffffffffffffff\n      and\n      dup2\n      mstore\n      0x20\n      add\n      swap1\n      dup2\n      mstore\n      0x20\n      add\n      0x00\n      keccak256\n        /* \"contracts/StakePool.sol\":3141:3179  userStakes[msg.sender].currentInterest */\n      0x01\n      add\n      sload\n        /* \"contracts/StakePool.sol\":3141:3315  userStakes[msg.sender].currentInterest + ... */\n      tag_105\n      swap2\n      swap1\n      tag_89\n      jump\t// in\n    tag_105:\n        /* \"contracts/StakePool.sol\":3130:3315  interest = userStakes[msg.sender].currentInterest + ... */\n      swap1\n      pop\n        /* \"contracts/StakePool.sol\":3055:3322  function getUserInsert() private view returns (uint256 interest) {... */\n      swap1\n      jump\t// out\n        /* \"#utility.yul\":7:84   */\n    tag_106:\n        /* \"#utility.yul\":44:51   */\n      0x00\n        /* \"#utility.yul\":73:78   */\n      dup2\n        /* \"#utility.yul\":62:78   */\n      swap1\n      pop\n        /* \"#utility.yul\":7:84   */\n      swap2\n      swap1\n      pop\n      jump\t// out\n        /* \"#utility.yul\":90:208   */\n    tag_107:\n        /* \"#utility.yul\":177:201   */\n      tag_134\n        /* \"#utility.yul\":195:200   */\n      dup2\n        /* \"#utility.yul\":177:201   */\n      tag_106\n      jump\t// in\n    tag_134:\n        /* \"#utility.yul\":172:175   */\n      dup3\n        /* \"#utility.yul\":165:202   */\n      mstore\n        /* \"#utility.yul\":90:208   */\n      pop\n      pop\n      jump\t// out\n        /* \"#utility.yul\":214:436   */\n    tag_17:\n        /* \"#utility.yul\":307:311   */\n      0x00\n        /* \"#utility.yul\":345:347   */\n      0x20\n        /* \"#utility.yul\":334:343   */\n      dup3\n        /* \"#utility.yul\":330:348   */\n      add\n        /* \"#utility.yul\":322:348   */\n      swap1\n      pop\n        /* \"#utility.yul\":358:429   */\n      tag_136\n        /* \"#utility.yul\":426:427   */\n      0x00\n        /* \"#utility.yul\":415:424   */\n      dup4\n        /* \"#utility.yul\":411:428   */\n      add\n        /* \"#utility.yul\":402:408   */\n      dup5\n        /* \"#utility.yul\":358:429   */\n      tag_107\n      jump\t// in\n    tag_136:\n        /* \"#utility.yul\":214:436   */\n      swap3\n      swap2\n      pop\n      pop\n      jump\t// out\n        /* \"#utility.yul\":442:568   */\n    tag_108:\n        /* \"#utility.yul\":479:486   */\n      0x00\n        /* \"#utility.yul\":519:561   */\n      0xffffffffffffffffffffffffffffffffffffffff\n        /* \"#utility.yul\":512:517   */\n      dup3\n        /* \"#utility.yul\":508:562   */\n      and\n        /* \"#utility.yul\":497:562   */\n      swap1\n      pop\n        /* \"#utility.yul\":442:568   */\n      swap2\n      swap1\n      pop\n      jump\t// out\n        /* \"#utility.yul\":574:670   */\n    tag_109:\n        /* \"#utility.yul\":611:618   */\n      0x00\n        /* \"#utility.yul\":640:664   */\n      tag_139\n        /* \"#utility.yul\":658:663   */\n      dup3\n        /* \"#utility.yul\":640:664   */\n      tag_108\n      jump\t// in\n    tag_139:\n        /* \"#utility.yul\":629:664   */\n      swap1\n      pop\n        /* \"#utility.yul\":574:670   */\n      swap2\n      swap1\n      pop\n      jump\t// out\n        /* \"#utility.yul\":676:794   */\n    tag_110:\n        /* \"#utility.yul\":763:787   */\n      tag_141\n        /* \"#utility.yul\":781:786   */\n      dup2\n        /* \"#utility.yul\":763:787   */\n      tag_109\n      jump\t// in\n    tag_141:\n        /* \"#utility.yul\":758:761   */\n      dup3\n        /* \"#utility.yul\":751:788   */\n      mstore\n        /* \"#utility.yul\":676:794   */\n      pop\n      pop\n      jump\t// out\n        /* \"#utility.yul\":800:1022   */\n    tag_30:\n        /* \"#utility.yul\":893:897   */\n      0x00\n        /* \"#utility.yul\":931:933   */\n      0x20\n        /* \"#utility.yul\":920:929   */\n      dup3\n        /* \"#utility.yul\":916:934   */\n      add\n        /* \"#utility.yul\":908:934   */\n      swap1\n      pop\n        /* \"#utility.yul\":944:1015   */\n      tag_143\n        /* \"#utility.yul\":1012:1013   */\n      0x00\n        /* \"#utility.yul\":1001:1010   */\n      dup4\n        /* \"#utility.yul\":997:1014   */\n      add\n        /* \"#utility.yul\":988:994   */\n      dup5\n        /* \"#utility.yul\":944:1015   */\n      tag_110\n      jump\t// in\n    tag_143:\n        /* \"#utility.yul\":800:1022   */\n      swap3\n      swap2\n      pop\n      pop\n      jump\t// out\n        /* \"#utility.yul\":1109:1226   */\n    tag_112:\n        /* \"#utility.yul\":1218:1219   */\n      0x00\n        /* \"#utility.yul\":1215:1216   */\n      dup1\n        /* \"#utility.yul\":1208:1220   */\n      revert\n        /* \"#utility.yul\":1355:1477   */\n    tag_114:\n        /* \"#utility.yul\":1428:1452   */\n      tag_148\n        /* \"#utility.yul\":1446:1451   */\n      dup2\n        /* \"#utility.yul\":1428:1452   */\n      tag_109\n      jump\t// in\n    tag_148:\n        /* \"#utility.yul\":1421:1426   */\n      dup2\n        /* \"#utility.yul\":1418:1453   */\n      eq\n        /* \"#utility.yul\":1408:1471   */\n      tag_149\n      jumpi\n        /* \"#utility.yul\":1467:1468   */\n      0x00\n        /* \"#utility.yul\":1464:1465   */\n      dup1\n        /* \"#utility.yul\":1457:1469   */\n      revert\n        /* \"#utility.yul\":1408:1471   */\n    tag_149:\n        /* \"#utility.yul\":1355:1477   */\n      pop\n      jump\t// out\n        /* \"#utility.yul\":1483:1622   */\n    tag_115:\n        /* \"#utility.yul\":1529:1534   */\n      0x00\n        /* \"#utility.yul\":1567:1573   */\n      dup2\n        /* \"#utility.yul\":1554:1574   */\n      calldataload\n        /* \"#utility.yul\":1545:1574   */\n      swap1\n      pop\n        /* \"#utility.yul\":1583:1616   */\n      tag_151\n        /* \"#utility.yul\":1610:1615   */\n      dup2\n        /* \"#utility.yul\":1583:1616   */\n      tag_114\n      jump\t// in\n    tag_151:\n        /* \"#utility.yul\":1483:1622   */\n      swap3\n      swap2\n      pop\n      pop\n      jump\t// out\n        /* \"#utility.yul\":1628:1957   */\n    tag_34:\n        /* \"#utility.yul\":1687:1693   */\n      0x00\n        /* \"#utility.yul\":1736:1738   */\n      0x20\n        /* \"#utility.yul\":1724:1733   */\n      dup3\n        /* \"#utility.yul\":1715:1722   */\n      dup5\n        /* \"#utility.yul\":1711:1734   */\n      sub\n        /* \"#utility.yul\":1707:1739   */\n      slt\n        /* \"#utility.yul\":1704:1823   */\n      iszero\n      tag_153\n      jumpi\n        /* \"#utility.yul\":1742:1821   */\n      tag_154\n      tag_112\n      jump\t// in\n    tag_154:\n        /* \"#utility.yul\":1704:1823   */\n    tag_153:\n        /* \"#utility.yul\":1862:1863   */\n      0x00\n        /* \"#utility.yul\":1887:1940   */\n      tag_155\n        /* \"#utility.yul\":1932:1939   */\n      dup5\n        /* \"#utility.yul\":1923:1929   */\n      dup3\n        /* \"#utility.yul\":1912:1921   */\n      dup6\n        /* \"#utility.yul\":1908:1930   */\n      add\n        /* \"#utility.yul\":1887:1940   */\n      tag_115\n      jump\t// in\n    tag_155:\n        /* \"#utility.yul\":1877:1940   */\n      swap2\n      pop\n        /* \"#utility.yul\":1833:1950   */\n      pop\n        /* \"#utility.yul\":1628:1957   */\n      swap3\n      swap2\n      pop\n      pop\n      jump\t// out\n        /* \"#utility.yul\":1963:2516   */\n    tag_37:\n        /* \"#utility.yul\":2140:2144   */\n      0x00\n        /* \"#utility.yul\":2178:2181   */\n      0x80\n        /* \"#utility.yul\":2167:2176   */\n      dup3\n        /* \"#utility.yul\":2163:2182   */\n      add\n        /* \"#utility.yul\":2155:2182   */\n      swap1\n      pop\n        /* \"#utility.yul\":2192:2263   */\n      tag_157\n        /* \"#utility.yul\":2260:2261   */\n      0x00\n        /* \"#utility.yul\":2249:2258   */\n      dup4\n        /* \"#utility.yul\":2245:2262   */\n      add\n        /* \"#utility.yul\":2236:2242   */\n      dup8\n        /* \"#utility.yul\":2192:2263   */\n      tag_107\n      jump\t// in\n    tag_157:\n        /* \"#utility.yul\":2273:2345   */\n      tag_158\n        /* \"#utility.yul\":2341:2343   */\n      0x20\n        /* \"#utility.yul\":2330:2339   */\n      dup4\n        /* \"#utility.yul\":2326:2344   */\n      add\n        /* \"#utility.yul\":2317:2323   */\n      dup7\n        /* \"#utility.yul\":2273:2345   */\n      tag_107\n      jump\t// in\n    tag_158:\n        /* \"#utility.yul\":2355:2427   */\n      tag_159\n        /* \"#utility.yul\":2423:2425   */\n      0x40\n        /* \"#utility.yul\":2412:2421   */\n      dup4\n        /* \"#utility.yul\":2408:2426   */\n      add\n        /* \"#utility.yul\":2399:2405   */\n      dup6\n        /* \"#utility.yul\":2355:2427   */\n      tag_107\n      jump\t// in\n    tag_159:\n        /* \"#utility.yul\":2437:2509   */\n      tag_160\n        /* \"#utility.yul\":2505:2507   */\n      0x60\n        /* \"#utility.yul\":2494:2503   */\n      dup4\n        /* \"#utility.yul\":2490:2508   */\n      add\n        /* \"#utility.yul\":2481:2487   */\n      dup5\n        /* \"#utility.yul\":2437:2509   */\n      tag_107\n      jump\t// in\n    tag_160:\n        /* \"#utility.yul\":1963:2516   */\n      swap6\n      swap5\n      pop\n      pop\n      pop\n      pop\n      pop\n      jump\t// out\n        /* \"#utility.yul\":2522:2644   */\n    tag_116:\n        /* \"#utility.yul\":2595:2619   */\n      tag_162\n        /* \"#utility.yul\":2613:2618   */\n      dup2\n        /* \"#utility.yul\":2595:2619   */\n      tag_106\n      jump\t// in\n    tag_162:\n        /* \"#utility.yul\":2588:2593   */\n      dup2\n        /* \"#utility.yul\":2585:2620   */\n      eq\n        /* \"#utility.yul\":2575:2638   */\n      tag_163\n      jumpi\n        /* \"#utility.yul\":2634:2635   */\n      0x00\n        /* \"#utility.yul\":2631:2632   */\n      dup1\n        /* \"#utility.yul\":2624:2636   */\n      revert\n        /* \"#utility.yul\":2575:2638   */\n    tag_163:\n        /* \"#utility.yul\":2522:2644   */\n      pop\n      jump\t// out\n        /* \"#utility.yul\":2650:2789   */\n    tag_117:\n        /* \"#utility.yul\":2696:2701   */\n      0x00\n        /* \"#utility.yul\":2734:2740   */\n      dup2\n        /* \"#utility.yul\":2721:2741   */\n      calldataload\n        /* \"#utility.yul\":2712:2741   */\n      swap1\n      pop\n        /* \"#utility.yul\":2750:2783   */\n      tag_165\n        /* \"#utility.yul\":2777:2782   */\n      dup2\n        /* \"#utility.yul\":2750:2783   */\n      tag_116\n      jump\t// in\n    tag_165:\n        /* \"#utility.yul\":2650:2789   */\n      swap3\n      swap2\n      pop\n      pop\n      jump\t// out\n        /* \"#utility.yul\":2795:3124   */\n    tag_44:\n        /* \"#utility.yul\":2854:2860   */\n      0x00\n        /* \"#utility.yul\":2903:2905   */\n      0x20\n        /* \"#utility.yul\":2891:2900   */\n      dup3\n        /* \"#utility.yul\":2882:2889   */\n      dup5\n        /* \"#utility.yul\":2878:2901   */\n      sub\n        /* \"#utility.yul\":2874:2906   */\n      slt\n        /* \"#utility.yul\":2871:2990   */\n      iszero\n      tag_167\n      jumpi\n        /* \"#utility.yul\":2909:2988   */\n      tag_168\n      tag_112\n      jump\t// in\n    tag_168:\n        /* \"#utility.yul\":2871:2990   */\n    tag_167:\n        /* \"#utility.yul\":3029:3030   */\n      0x00\n        /* \"#utility.yul\":3054:3107   */\n      tag_169\n        /* \"#utility.yul\":3099:3106   */\n      dup5\n        /* \"#utility.yul\":3090:3096   */\n      dup3\n        /* \"#utility.yul\":3079:3088   */\n      dup6\n        /* \"#utility.yul\":3075:3097   */\n      add\n        /* \"#utility.yul\":3054:3107   */\n      tag_117\n      jump\t// in\n    tag_169:\n        /* \"#utility.yul\":3044:3107   */\n      swap2\n      pop\n        /* \"#utility.yul\":3000:3117   */\n      pop\n        /* \"#utility.yul\":2795:3124   */\n      swap3\n      swap2\n      pop\n      pop\n      jump\t// out\n        /* \"#utility.yul\":3130:3190   */\n    tag_118:\n        /* \"#utility.yul\":3158:3161   */\n      0x00\n        /* \"#utility.yul\":3179:3184   */\n      dup2\n        /* \"#utility.yul\":3172:3184   */\n      swap1\n      pop\n        /* \"#utility.yul\":3130:3190   */\n      swap2\n      swap1\n      pop\n      jump\t// out\n        /* \"#utility.yul\":3196:3338   */\n    tag_119:\n        /* \"#utility.yul\":3246:3255   */\n      0x00\n        /* \"#utility.yul\":3279:3332   */\n      tag_172\n        /* \"#utility.yul\":3297:3331   */\n      tag_173\n        /* \"#utility.yul\":3306:3330   */\n      tag_174\n        /* \"#utility.yul\":3324:3329   */\n      dup5\n        /* \"#utility.yul\":3306:3330   */\n      tag_108\n      jump\t// in\n    tag_174:\n        /* \"#utility.yul\":3297:3331   */\n      tag_118\n      jump\t// in\n    tag_173:\n        /* \"#utility.yul\":3279:3332   */\n      tag_108\n      jump\t// in\n    tag_172:\n        /* \"#utility.yul\":3266:3332   */\n      swap1\n      pop\n        /* \"#utility.yul\":3196:3338   */\n      swap2\n      swap1\n      pop\n      jump\t// out\n        /* \"#utility.yul\":3344:3470   */\n    tag_120:\n        /* \"#utility.yul\":3394:3403   */\n      0x00\n        /* \"#utility.yul\":3427:3464   */\n      tag_176\n        /* \"#utility.yul\":3458:3463   */\n      dup3\n        /* \"#utility.yul\":3427:3464   */\n      tag_119\n      jump\t// in\n    tag_176:\n        /* \"#utility.yul\":3414:3464   */\n      swap1\n      pop\n        /* \"#utility.yul\":3344:3470   */\n      swap2\n      swap1\n      pop\n      jump\t// out\n        /* \"#utility.yul\":3476:3615   */\n    tag_121:\n        /* \"#utility.yul\":3539:3548   */\n      0x00\n        /* \"#utility.yul\":3572:3609   */\n      tag_178\n        /* \"#utility.yul\":3603:3608   */\n      dup3\n        /* \"#utility.yul\":3572:3609   */\n      tag_120\n      jump\t// in\n    tag_178:\n        /* \"#utility.yul\":3559:3609   */\n      swap1\n      pop\n        /* \"#utility.yul\":3476:3615   */\n      swap2\n      swap1\n      pop\n      jump\t// out\n        /* \"#utility.yul\":3621:3778   */\n    tag_122:\n        /* \"#utility.yul\":3721:3771   */\n      tag_180\n        /* \"#utility.yul\":3765:3770   */\n      dup2\n        /* \"#utility.yul\":3721:3771   */\n      tag_121\n      jump\t// in\n    tag_180:\n        /* \"#utility.yul\":3716:3719   */\n      dup3\n        /* \"#utility.yul\":3709:3772   */\n      mstore\n        /* \"#utility.yul\":3621:3778   */\n      pop\n      pop\n      jump\t// out\n        /* \"#utility.yul\":3784:4032   */\n    tag_54:\n        /* \"#utility.yul\":3890:3894   */\n      0x00\n        /* \"#utility.yul\":3928:3930   */\n      0x20\n        /* \"#utility.yul\":3917:3926   */\n      dup3\n        /* \"#utility.yul\":3913:3931   */\n      add\n        /* \"#utility.yul\":3905:3931   */\n      swap1\n      pop\n        /* \"#utility.yul\":3941:4025   */\n      tag_182\n        /* \"#utility.yul\":4022:4023   */\n      0x00\n        /* \"#utility.yul\":4011:4020   */\n      dup4\n        /* \"#utility.yul\":4007:4024   */\n      add\n        /* \"#utility.yul\":3998:4004   */\n      dup5\n        /* \"#utility.yul\":3941:4025   */\n      tag_122\n      jump\t// in\n    tag_182:\n        /* \"#utility.yul\":3784:4032   */\n      swap3\n      swap2\n      pop\n      pop\n      jump\t// out\n        /* \"#utility.yul\":4038:4370   */\n    tag_57:\n        /* \"#utility.yul\":4159:4163   */\n      0x00\n        /* \"#utility.yul\":4197:4199   */\n      0x40\n        /* \"#utility.yul\":4186:4195   */\n      dup3\n        /* \"#utility.yul\":4182:4200   */\n      add\n        /* \"#utility.yul\":4174:4200   */\n      swap1\n      pop\n        /* \"#utility.yul\":4210:4281   */\n      tag_184\n        /* \"#utility.yul\":4278:4279   */\n      0x00\n        /* \"#utility.yul\":4267:4276   */\n      dup4\n        /* \"#utility.yul\":4263:4280   */\n      add\n        /* \"#utility.yul\":4254:4260   */\n      dup6\n        /* \"#utility.yul\":4210:4281   */\n      tag_110\n      jump\t// in\n    tag_184:\n        /* \"#utility.yul\":4291:4363   */\n      tag_185\n        /* \"#utility.yul\":4359:4361   */\n      0x20\n        /* \"#utility.yul\":4348:4357   */\n      dup4\n        /* \"#utility.yul\":4344:4362   */\n      add\n        /* \"#utility.yul\":4335:4341   */\n      dup5\n        /* \"#utility.yul\":4291:4363   */\n      tag_107\n      jump\t// in\n    tag_185:\n        /* \"#utility.yul\":4038:4370   */\n      swap4\n      swap3\n      pop\n      pop\n      pop\n      jump\t// out\n        /* \"#utility.yul\":4376:4466   */\n    tag_123:\n        /* \"#utility.yul\":4410:4417   */\n      0x00\n        /* \"#utility.yul\":4453:4458   */\n      dup2\n        /* \"#utility.yul\":4446:4459   */\n      iszero\n        /* \"#utility.yul\":4439:4460   */\n      iszero\n        /* \"#utility.yul\":4428:4460   */\n      swap1\n      pop\n        /* \"#utility.yul\":4376:4466   */\n      swap2\n      swap1\n      pop\n      jump\t// out\n        /* \"#utility.yul\":4472:4588   */\n    tag_124:\n        /* \"#utility.yul\":4542:4563   */\n      tag_188\n        /* \"#utility.yul\":4557:4562   */\n      dup2\n        /* \"#utility.yul\":4542:4563   */\n      tag_123\n      jump\t// in\n    tag_188:\n        /* \"#utility.yul\":4535:4540   */\n      dup2\n        /* \"#utility.yul\":4532:4564   */\n      eq\n        /* \"#utility.yul\":4522:4582   */\n      tag_189\n      jumpi\n        /* \"#utility.yul\":4578:4579   */\n      0x00\n        /* \"#utility.yul\":4575:4576   */\n      dup1\n        /* \"#utility.yul\":4568:4580   */\n      revert\n        /* \"#utility.yul\":4522:4582   */\n    tag_189:\n        /* \"#utility.yul\":4472:4588   */\n      pop\n      jump\t// out\n        /* \"#utility.yul\":4594:4731   */\n    tag_125:\n        /* \"#utility.yul\":4648:4653   */\n      0x00\n        /* \"#utility.yul\":4679:4685   */\n      dup2\n        /* \"#utility.yul\":4673:4686   */\n      mload\n        /* \"#utility.yul\":4664:4686   */\n      swap1\n      pop\n        /* \"#utility.yul\":4695:4725   */\n      tag_191\n        /* \"#utility.yul\":4719:4724   */\n      dup2\n        /* \"#utility.yul\":4695:4725   */\n      tag_124\n      jump\t// in\n    tag_191:\n        /* \"#utility.yul\":4594:4731   */\n      swap3\n      swap2\n      pop\n      pop\n      jump\t// out\n        /* \"#utility.yul\":4737:5082   */\n    tag_61:\n        /* \"#utility.yul\":4804:4810   */\n      0x00\n        /* \"#utility.yul\":4853:4855   */\n      0x20\n        /* \"#utility.yul\":4841:4850   */\n      dup3\n        /* \"#utility.yul\":4832:4839   */\n      dup5\n        /* \"#utility.yul\":4828:4851   */\n      sub\n        /* \"#utility.yul\":4824:4856   */\n      slt\n        /* \"#utility.yul\":4821:4940   */\n      iszero\n      tag_193\n      jumpi\n        /* \"#utility.yul\":4859:4938   */\n      tag_194\n      tag_112\n      jump\t// in\n    tag_194:\n        /* \"#utility.yul\":4821:4940   */\n    tag_193:\n        /* \"#utility.yul\":4979:4980   */\n      0x00\n        /* \"#utility.yul\":5004:5065   */\n      tag_195\n        /* \"#utility.yul\":5057:5064   */\n      dup5\n        /* \"#utility.yul\":5048:5054   */\n      dup3\n        /* \"#utility.yul\":5037:5046   */\n      dup6\n        /* \"#utility.yul\":5033:5055   */\n      add\n        /* \"#utility.yul\":5004:5065   */\n      tag_125\n      jump\t// in\n    tag_195:\n        /* \"#utility.yul\":4994:5065   */\n      swap2\n      pop\n        /* \"#utility.yul\":4950:5075   */\n      pop\n        /* \"#utility.yul\":4737:5082   */\n      swap3\n      swap2\n      pop\n      pop\n      jump\t// out\n        /* \"#utility.yul\":5088:5268   */\n    tag_126:\n        /* \"#utility.yul\":5136:5213   */\n      0x4e487b7100000000000000000000000000000000000000000000000000000000\n        /* \"#utility.yul\":5133:5134   */\n      0x00\n        /* \"#utility.yul\":5126:5214   */\n      mstore\n        /* \"#utility.yul\":5233:5237   */\n      0x11\n        /* \"#utility.yul\":5230:5231   */\n      0x04\n        /* \"#utility.yul\":5223:5238   */\n      mstore\n        /* \"#utility.yul\":5257:5261   */\n      0x24\n        /* \"#utility.yul\":5254:5255   */\n      0x00\n        /* \"#utility.yul\":5247:5262   */\n      revert\n        /* \"#utility.yul\":5274:5465   */\n    tag_72:\n        /* \"#utility.yul\":5314:5318   */\n      0x00\n        /* \"#utility.yul\":5334:5354   */\n      tag_198\n        /* \"#utility.yul\":5352:5353   */\n      dup3\n        /* \"#utility.yul\":5334:5354   */\n      tag_106\n      jump\t// in\n    tag_198:\n        /* \"#utility.yul\":5329:5354   */\n      swap2\n      pop\n        /* \"#utility.yul\":5368:5388   */\n      tag_199\n        /* \"#utility.yul\":5386:5387   */\n      dup4\n        /* \"#utility.yul\":5368:5388   */\n      tag_106\n      jump\t// in\n    tag_199:\n        /* \"#utility.yul\":5363:5388   */\n      swap3\n      pop\n        /* \"#utility.yul\":5407:5408   */\n      dup3\n        /* \"#utility.yul\":5404:5405   */\n      dup3\n        /* \"#utility.yul\":5401:5409   */\n      lt\n        /* \"#utility.yul\":5398:5432   */\n      iszero\n      tag_200\n      jumpi\n        /* \"#utility.yul\":5412:5430   */\n      tag_201\n      tag_126\n      jump\t// in\n    tag_201:\n        /* \"#utility.yul\":5398:5432   */\n    tag_200:\n        /* \"#utility.yul\":5457:5458   */\n      dup3\n        /* \"#utility.yul\":5454:5455   */\n      dup3\n        /* \"#utility.yul\":5450:5459   */\n      sub\n        /* \"#utility.yul\":5442:5459   */\n      swap1\n      pop\n        /* \"#utility.yul\":5274:5465   */\n      swap3\n      swap2\n      pop\n      pop\n      jump\t// out\n        /* \"#utility.yul\":5471:5913   */\n    tag_83:\n        /* \"#utility.yul\":5620:5624   */\n      0x00\n        /* \"#utility.yul\":5658:5660   */\n      0x60\n        /* \"#utility.yul\":5647:5656   */\n      dup3\n        /* \"#utility.yul\":5643:5661   */\n      add\n        /* \"#utility.yul\":5635:5661   */\n      swap1\n      pop\n        /* \"#utility.yul\":5671:5742   */\n      tag_203\n        /* \"#utility.yul\":5739:5740   */\n      0x00\n        /* \"#utility.yul\":5728:5737   */\n      dup4\n        /* \"#utility.yul\":5724:5741   */\n      add\n        /* \"#utility.yul\":5715:5721   */\n      dup7\n        /* \"#utility.yul\":5671:5742   */\n      tag_110\n      jump\t// in\n    tag_203:\n        /* \"#utility.yul\":5752:5824   */\n      tag_204\n        /* \"#utility.yul\":5820:5822   */\n      0x20\n        /* \"#utility.yul\":5809:5818   */\n      dup4\n        /* \"#utility.yul\":5805:5823   */\n      add\n        /* \"#utility.yul\":5796:5802   */\n      dup6\n        /* \"#utility.yul\":5752:5824   */\n      tag_110\n      jump\t// in\n    tag_204:\n        /* \"#utility.yul\":5834:5906   */\n      tag_205\n        /* \"#utility.yul\":5902:5904   */\n      0x40\n        /* \"#utility.yul\":5891:5900   */\n      dup4\n        /* \"#utility.yul\":5887:5905   */\n      add\n        /* \"#utility.yul\":5878:5884   */\n      dup5\n        /* \"#utility.yul\":5834:5906   */\n      tag_107\n      jump\t// in\n    tag_205:\n        /* \"#utility.yul\":5471:5913   */\n      swap5\n      swap4\n      pop\n      pop\n      pop\n      pop\n      jump\t// out\n        /* \"#utility.yul\":5919:6224   */\n    tag_89:\n        /* \"#utility.yul\":5959:5962   */\n      0x00\n        /* \"#utility.yul\":5978:5998   */\n      tag_207\n        /* \"#utility.yul\":5996:5997   */\n      dup3\n        /* \"#utility.yul\":5978:5998   */\n      tag_106\n      jump\t// in\n    tag_207:\n        /* \"#utility.yul\":5973:5998   */\n      swap2\n      pop\n        /* \"#utility.yul\":6012:6032   */\n      tag_208\n        /* \"#utility.yul\":6030:6031   */\n      dup4\n        /* \"#utility.yul\":6012:6032   */\n      tag_106\n      jump\t// in\n    tag_208:\n        /* \"#utility.yul\":6007:6032   */\n      swap3\n      pop\n        /* \"#utility.yul\":6166:6167   */\n      dup3\n        /* \"#utility.yul\":6098:6164   */\n      0xffffffffffffffffffffffffffffffffffffffffffffffffffffffffffffffff\n        /* \"#utility.yul\":6094:6168   */\n      sub\n        /* \"#utility.yul\":6091:6092   */\n      dup3\n        /* \"#utility.yul\":6088:6169   */\n      gt\n        /* \"#utility.yul\":6085:6192   */\n      iszero\n      tag_209\n      jumpi\n        /* \"#utility.yul\":6172:6190   */\n      tag_210\n      tag_126\n      jump\t// in\n    tag_210:\n        /* \"#utility.yul\":6085:6192   */\n    tag_209:\n        /* \"#utility.yul\":6216:6217   */\n      dup3\n        /* \"#utility.yul\":6213:6214   */\n      dup3\n        /* \"#utility.yul\":6209:6218   */\n      add\n        /* \"#utility.yul\":6202:6218   */\n      swap1\n      pop\n        /* \"#utility.yul\":5919:6224   */\n      swap3\n      swap2\n      pop\n      pop\n      jump\t// out\n        /* \"#utility.yul\":6230:6399   */\n    tag_127:\n        /* \"#utility.yul\":6314:6325   */\n      0x00\n        /* \"#utility.yul\":6348:6354   */\n      dup3\n        /* \"#utility.yul\":6343:6346   */\n      dup3\n        /* \"#utility.yul\":6336:6355   */\n      mstore\n        /* \"#utility.yul\":6388:6392   */\n      0x20\n        /* \"#utility.yul\":6383:6386   */\n      dup3\n        /* \"#utility.yul\":6379:6393   */\n      add\n        /* \"#utility.yul\":6364:6393   */\n      swap1\n      pop\n        /* \"#utility.yul\":6230:6399   */\n      swap3\n      swap2\n      pop\n      pop\n      jump\t// out\n        /* \"#utility.yul\":6405:6564   */\n    tag_128:\n        /* \"#utility.yul\":6545:6556   */\n      0x6e6f74206f776e65720000000000000000000000000000000000000000000000\n        /* \"#utility.yul\":6541:6542   */\n      0x00\n        /* \"#utility.yul\":6533:6539   */\n      dup3\n        /* \"#utility.yul\":6529:6543   */\n      add\n        /* \"#utility.yul\":6522:6557   */\n      mstore\n        /* \"#utility.yul\":6405:6564   */\n      pop\n      jump\t// out\n        /* \"#utility.yul\":6570:6935   */\n    tag_129:\n        /* \"#utility.yul\":6712:6715   */\n      0x00\n        /* \"#utility.yul\":6733:6799   */\n      tag_214\n        /* \"#utility.yul\":6797:6798   */\n      0x09\n        /* \"#utility.yul\":6792:6795   */\n      dup4\n        /* \"#utility.yul\":6733:6799   */\n      tag_127\n      jump\t// in\n    tag_214:\n        /* \"#utility.yul\":6726:6799   */\n      swap2\n      pop\n        /* \"#utility.yul\":6808:6901   */\n      tag_215\n        /* \"#utility.yul\":6897:6900   */\n      dup3\n        /* \"#utility.yul\":6808:6901   */\n      tag_128\n      jump\t// in\n    tag_215:\n        /* \"#utility.yul\":6926:6928   */\n      0x20\n        /* \"#utility.yul\":6921:6924   */\n      dup3\n        /* \"#utility.yul\":6917:6929   */\n      add\n        /* \"#utility.yul\":6910:6929   */\n      swap1\n      pop\n        /* \"#utility.yul\":6570:6935   */\n      swap2\n      swap1\n      pop\n      jump\t// out\n        /* \"#utility.yul\":6941:7360   */\n    tag_95:\n        /* \"#utility.yul\":7107:7111   */\n      0x00\n        /* \"#utility.yul\":7145:7147   */\n      0x20\n        /* \"#utility.yul\":7134:7143   */\n      dup3\n        /* \"#utility.yul\":7130:7148   */\n      add\n        /* \"#utility.yul\":7122:7148   */\n      swap1\n      pop\n        /* \"#utility.yul\":7194:7203   */\n      dup2\n        /* \"#utility.yul\":7188:7192   */\n      dup2\n        /* \"#utility.yul\":7184:7204   */\n      sub\n        /* \"#utility.yul\":7180:7181   */\n      0x00\n        /* \"#utility.yul\":7169:7178   */\n      dup4\n        /* \"#utility.yul\":7165:7182   */\n      add\n        /* \"#utility.yul\":7158:7205   */\n      mstore\n        /* \"#utility.yul\":7222:7353   */\n      tag_217\n        /* \"#utility.yul\":7348:7352   */\n      dup2\n        /* \"#utility.yul\":7222:7353   */\n      tag_129\n      jump\t// in\n    tag_217:\n        /* \"#utility.yul\":7214:7353   */\n      swap1\n      pop\n        /* \"#utility.yul\":6941:7360   */\n      swap2\n      swap1\n      pop\n      jump\t// out\n        /* \"#utility.yul\":7366:7714   */\n    tag_99:\n        /* \"#utility.yul\":7406:7413   */\n      0x00\n        /* \"#utility.yul\":7429:7449   */\n      tag_219\n        /* \"#utility.yul\":7447:7448   */\n      dup3\n        /* \"#utility.yul\":7429:7449   */\n      tag_106\n      jump\t// in\n    tag_219:\n        /* \"#utility.yul\":7424:7449   */\n      swap2\n      pop\n        /* \"#utility.yul\":7463:7483   */\n      tag_220\n        /* \"#utility.yul\":7481:7482   */\n      dup4\n        /* \"#utility.yul\":7463:7483   */\n      tag_106\n      jump\t// in\n    tag_220:\n        /* \"#utility.yul\":7458:7483   */\n      swap3\n      pop\n        /* \"#utility.yul\":7651:7652   */\n      dup2\n        /* \"#utility.yul\":7583:7649   */\n      0xffffffffffffffffffffffffffffffffffffffffffffffffffffffffffffffff\n        /* \"#utility.yul\":7579:7653   */\n      div\n        /* \"#utility.yul\":7576:7577   */\n      dup4\n        /* \"#utility.yul\":7573:7654   */\n      gt\n        /* \"#utility.yul\":7568:7569   */\n      dup3\n        /* \"#utility.yul\":7561:7570   */\n      iszero\n        /* \"#utility.yul\":7554:7571   */\n      iszero\n        /* \"#utility.yul\":7550:7655   */\n      and\n        /* \"#utility.yul\":7547:7678   */\n      iszero\n      tag_221\n      jumpi\n        /* \"#utility.yul\":7658:7676   */\n      tag_222\n      tag_126\n      jump\t// in\n    tag_222:\n        /* \"#utility.yul\":7547:7678   */\n    tag_221:\n        /* \"#utility.yul\":7706:7707   */\n      dup3\n        /* \"#utility.yul\":7703:7704   */\n      dup3\n        /* \"#utility.yul\":7699:7708   */\n      mul\n        /* \"#utility.yul\":7688:7708   */\n      swap1\n      pop\n        /* \"#utility.yul\":7366:7714   */\n      swap3\n      swap2\n      pop\n      pop\n      jump\t// out\n        /* \"#utility.yul\":7720:7900   */\n    tag_130:\n        /* \"#utility.yul\":7768:7845   */\n      0x4e487b7100000000000000000000000000000000000000000000000000000000\n        /* \"#utility.yul\":7765:7766   */\n      0x00\n        /* \"#utility.yul\":7758:7846   */\n      mstore\n        /* \"#utility.yul\":7865:7869   */\n      0x12\n        /* \"#utility.yul\":7862:7863   */\n      0x04\n        /* \"#utility.yul\":7855:7870   */\n      mstore\n        /* \"#utility.yul\":7889:7893   */\n      0x24\n        /* \"#utility.yul\":7886:7887   */\n      0x00\n        /* \"#utility.yul\":7879:7894   */\n      revert\n        /* \"#utility.yul\":7906:8091   */\n    tag_101:\n        /* \"#utility.yul\":7946:7947   */\n      0x00\n        /* \"#utility.yul\":7963:7983   */\n      tag_225\n        /* \"#utility.yul\":7981:7982   */\n      dup3\n        /* \"#utility.yul\":7963:7983   */\n      tag_106\n      jump\t// in\n    tag_225:\n        /* \"#utility.yul\":7958:7983   */\n      swap2\n      pop\n        /* \"#utility.yul\":7997:8017   */\n      tag_226\n        /* \"#utility.yul\":8015:8016   */\n      dup4\n        /* \"#utility.yul\":7997:8017   */\n      tag_106\n      jump\t// in\n    tag_226:\n        /* \"#utility.yul\":7992:8017   */\n      swap3\n      pop\n        /* \"#utility.yul\":8036:8037   */\n      dup3\n        /* \"#utility.yul\":8026:8061   */\n      tag_227\n      jumpi\n        /* \"#utility.yul\":8041:8059   */\n      tag_228\n      tag_130\n      jump\t// in\n    tag_228:\n        /* \"#utility.yul\":8026:8061   */\n    tag_227:\n        /* \"#utility.yul\":8083:8084   */\n      dup3\n        /* \"#utility.yul\":8080:8081   */\n      dup3\n        /* \"#utility.yul\":8076:8085   */\n      div\n        /* \"#utility.yul\":8071:8085   */\n      swap1\n      pop\n        /* \"#utility.yul\":7906:8091   */\n      swap3\n      swap2\n      pop\n      pop\n      jump\t// out\n\n    auxdata: 0xa26469706673582212204da357f162f6288836270907f5fb2bc6e358e662898fb4cee41dd0b9e4cf0c2064736f6c634300080f0033\n}\n",
				"bytecode": {
					"linkReferences": {},
					"object": "608060405260016000553480156200001657600080fd5b506040516200123b3803806200123b83398181016040528101906200003c919062000178565b80600160006101000a81548173ffffffffffffffffffffffffffffffffffffffff021916908373ffffffffffffffffffffffffffffffffffffffff16021790555080600560006101000a81548173ffffffffffffffffffffffffffffffffffffffff021916908373ffffffffffffffffffffffffffffffffffffffff160217905550603260038190555033600260006101000a81548173ffffffffffffffffffffffffffffffffffffffff021916908373ffffffffffffffffffffffffffffffffffffffff16021790555050620001aa565b600080fd5b600073ffffffffffffffffffffffffffffffffffffffff82169050919050565b6000620001408262000113565b9050919050565b620001528162000133565b81146200015e57600080fd5b50565b600081519050620001728162000147565b92915050565b6000602082840312156200019157620001906200010e565b5b6000620001a18482850162000161565b91505092915050565b61108180620001ba6000396000f3fe6080604052600436106100915760003560e01c80638da7ad23116100595780638da7ad231461012b5780639d76ea581461016b578063a694fc3a14610196578063b2237ba3146101b2578063bf0ae63d146101db57610091565b806353b645e51461009657806371ca337d146100c157806373cf575a146100ec57806383a6deb5146100f65780638da5cb5b14610100575b600080fd5b3480156100a257600080fd5b506100ab610206565b6040516100b89190610ba9565b60405180910390f35b3480156100cd57600080fd5b506100d661020c565b6040516100e39190610ba9565b60405180910390f35b6100f4610212565b005b6100fe6105b5565b005b34801561010c57600080fd5b50610115610743565b6040516101229190610c05565b60405180910390f35b34801561013757600080fd5b50610152600480360381019061014d9190610c51565b610769565b6040516101629493929190610c7e565b60405180910390f35b34801561017757600080fd5b50610180610799565b60405161018d9190610c05565b60405180910390f35b6101b060048036038101906101ab9190610cef565b6107bf565b005b3480156101be57600080fd5b506101d960048036038101906101d49190610cef565b6109b9565b005b3480156101e757600080fd5b506101f0610a53565b6040516101fd9190610d7b565b60405180910390f35b60005481565b60035481565b600560009054906101000a900473ffffffffffffffffffffffffffffffffffffffff1673ffffffffffffffffffffffffffffffffffffffff1663a9059cbb33600460003373ffffffffffffffffffffffffffffffffffffffff1673ffffffffffffffffffffffffffffffffffffffff168152602001908152602001600020600001546040518363ffffffff1660e01b81526004016102b1929190610d96565b6020604051808303816000875af11580156102d0573d6000803e3d6000fd5b505050506040513d601f19601f820116820180604052508101906102f49190610df7565b50600560009054906101000a900473ffffffffffffffffffffffffffffffffffffffff1673ffffffffffffffffffffffffffffffffffffffff1663a9059cbb3361033c610a79565b6040518363ffffffff1660e01b8152600401610359929190610d96565b6020604051808303816000875af1158015610378573d6000803e3d6000fd5b505050506040513d601f19601f8201168201806040525081019061039c9190610df7565b503373ffffffffffffffffffffffffffffffffffffffff167fb24546d975e2628748efc9aced80665e0fad66272033e5c0ea25fd3afac99795600460003373ffffffffffffffffffffffffffffffffffffffff1673ffffffffffffffffffffffffffffffffffffffff168152602001908152602001600020600001546040516104259190610ba9565b60405180910390a23373ffffffffffffffffffffffffffffffffffffffff167fd6717f327e0cb88b4a97a7f67a453e9258252c34937ccbdd86de7cb840e7def361046d610a79565b60405161047a9190610ba9565b60405180910390a242600460003373ffffffffffffffffffffffffffffffffffffffff1673ffffffffffffffffffffffffffffffffffffffff16815260200190815260200160002060030181905550600460003373ffffffffffffffffffffffffffffffffffffffff1673ffffffffffffffffffffffffffffffffffffffff1681526020019081526020016000206000015460008082825461051c9190610e53565b925050819055506000600460003373ffffffffffffffffffffffffffffffffffffffff1673ffffffffffffffffffffffffffffffffffffffff168152602001908152602001600020600001819055506000600460003373ffffffffffffffffffffffffffffffffffffffff1673ffffffffffffffffffffffffffffffffffffffff16815260200190815260200160002060010181905550565b600560009054906101000a900473ffffffffffffffffffffffffffffffffffffffff1673ffffffffffffffffffffffffffffffffffffffff1663a9059cbb336105fc610a79565b6040518363ffffffff1660e01b8152600401610619929190610d96565b6020604051808303816000875af1158015610638573d6000803e3d6000fd5b505050506040513d601f19601f8201168201806040525081019061065c9190610df7565b503373ffffffffffffffffffffffffffffffffffffffff167fd6717f327e0cb88b4a97a7f67a453e9258252c34937ccbdd86de7cb840e7def361069d610a79565b6040516106aa9190610ba9565b60405180910390a242600460003373ffffffffffffffffffffffffffffffffffffffff1673ffffffffffffffffffffffffffffffffffffffff168152602001908152602001600020600301819055506000600460003373ffffffffffffffffffffffffffffffffffffffff1673ffffffffffffffffffffffffffffffffffffffff16815260200190815260200160002060010181905550565b600260009054906101000a900473ffffffffffffffffffffffffffffffffffffffff1681565b60046020528060005260406000206000915090508060000154908060010154908060020154908060030154905084565b600160009054906101000a900473ffffffffffffffffffffffffffffffffffffffff1681565b600560009054906101000a900473ffffffffffffffffffffffffffffffffffffffff1673ffffffffffffffffffffffffffffffffffffffff166323b872dd3330846040518463ffffffff1660e01b815260040161081e93929190610e87565b6020604051808303816000875af115801561083d573d6000803e3d6000fd5b505050506040513d601f19601f820116820180604052508101906108619190610df7565b5061086a610a79565b600460003373ffffffffffffffffffffffffffffffffffffffff1673ffffffffffffffffffffffffffffffffffffffff1681526020019081526020016000206001018190555080600460003373ffffffffffffffffffffffffffffffffffffffff1673ffffffffffffffffffffffffffffffffffffffff16815260200190815260200160002060000160008282546109029190610ebe565b9250508190555042600460003373ffffffffffffffffffffffffffffffffffffffff1673ffffffffffffffffffffffffffffffffffffffff16815260200190815260200160002060030181905550806000808282546109619190610ebe565b925050819055503373ffffffffffffffffffffffffffffffffffffffff167febedb8b3c678666e7f36970bc8f57abf6d8fa2e828c0da91ea5b75bf68ed101a826040516109ae9190610ba9565b60405180910390a250565b600260009054906101000a900473ffffffffffffffffffffffffffffffffffffffff1673ffffffffffffffffffffffffffffffffffffffff163373ffffffffffffffffffffffffffffffffffffffff1614610a49576040517f08c379a0000000000000000000000000000000000000000000000000000000008152600401610a4090610f71565b60405180910390fd5b8060038190555050565b600560009054906101000a900473ffffffffffffffffffffffffffffffffffffffff1681565b60006301e133806064600354600460003373ffffffffffffffffffffffffffffffffffffffff1673ffffffffffffffffffffffffffffffffffffffff16815260200190815260200160002060000154610ad29190610f91565b610adc919061101a565b610ae6919061101a565b600460003373ffffffffffffffffffffffffffffffffffffffff1673ffffffffffffffffffffffffffffffffffffffff1681526020019081526020016000206003015442610b349190610e53565b610b3e9190610f91565b600460003373ffffffffffffffffffffffffffffffffffffffff1673ffffffffffffffffffffffffffffffffffffffff16815260200190815260200160002060010154610b8b9190610ebe565b905090565b6000819050919050565b610ba381610b90565b82525050565b6000602082019050610bbe6000830184610b9a565b92915050565b600073ffffffffffffffffffffffffffffffffffffffff82169050919050565b6000610bef82610bc4565b9050919050565b610bff81610be4565b82525050565b6000602082019050610c1a6000830184610bf6565b92915050565b600080fd5b610c2e81610be4565b8114610c3957600080fd5b50565b600081359050610c4b81610c25565b92915050565b600060208284031215610c6757610c66610c20565b5b6000610c7584828501610c3c565b91505092915050565b6000608082019050610c936000830187610b9a565b610ca06020830186610b9a565b610cad6040830185610b9a565b610cba6060830184610b9a565b95945050505050565b610ccc81610b90565b8114610cd757600080fd5b50565b600081359050610ce981610cc3565b92915050565b600060208284031215610d0557610d04610c20565b5b6000610d1384828501610cda565b91505092915050565b6000819050919050565b6000610d41610d3c610d3784610bc4565b610d1c565b610bc4565b9050919050565b6000610d5382610d26565b9050919050565b6000610d6582610d48565b9050919050565b610d7581610d5a565b82525050565b6000602082019050610d906000830184610d6c565b92915050565b6000604082019050610dab6000830185610bf6565b610db86020830184610b9a565b9392505050565b60008115159050919050565b610dd481610dbf565b8114610ddf57600080fd5b50565b600081519050610df181610dcb565b92915050565b600060208284031215610e0d57610e0c610c20565b5b6000610e1b84828501610de2565b91505092915050565b7f4e487b7100000000000000000000000000000000000000000000000000000000600052601160045260246000fd5b6000610e5e82610b90565b9150610e6983610b90565b925082821015610e7c57610e7b610e24565b5b828203905092915050565b6000606082019050610e9c6000830186610bf6565b610ea96020830185610bf6565b610eb66040830184610b9a565b949350505050565b6000610ec982610b90565b9150610ed483610b90565b9250827fffffffffffffffffffffffffffffffffffffffffffffffffffffffffffffffff03821115610f0957610f08610e24565b5b828201905092915050565b600082825260208201905092915050565b7f6e6f74206f776e65720000000000000000000000000000000000000000000000600082015250565b6000610f5b600983610f14565b9150610f6682610f25565b602082019050919050565b60006020820190508181036000830152610f8a81610f4e565b9050919050565b6000610f9c82610b90565b9150610fa783610b90565b9250817fffffffffffffffffffffffffffffffffffffffffffffffffffffffffffffffff0483118215151615610fe057610fdf610e24565b5b828202905092915050565b7f4e487b7100000000000000000000000000000000000000000000000000000000600052601260045260246000fd5b600061102582610b90565b915061103083610b90565b9250826110405761103f610feb565b5b82820490509291505056fea26469706673582212204da357f162f6288836270907f5fb2bc6e358e662898fb4cee41dd0b9e4cf0c2064736f6c634300080f0033",
					"opcodes": "PUSH1 0x80 PUSH1 0x40 MSTORE PUSH1 0x1 PUSH1 0x0 SSTORE CALLVALUE DUP1 ISZERO PUSH3 0x16 JUMPI PUSH1 0x0 DUP1 REVERT JUMPDEST POP PUSH1 0x40 MLOAD PUSH3 0x123B CODESIZE SUB DUP1 PUSH3 0x123B DUP4 CODECOPY DUP2 DUP2 ADD PUSH1 0x40 MSTORE DUP2 ADD SWAP1 PUSH3 0x3C SWAP2 SWAP1 PUSH3 0x178 JUMP JUMPDEST DUP1 PUSH1 0x1 PUSH1 0x0 PUSH2 0x100 EXP DUP2 SLOAD DUP2 PUSH20 0xFFFFFFFFFFFFFFFFFFFFFFFFFFFFFFFFFFFFFFFF MUL NOT AND SWAP1 DUP4 PUSH20 0xFFFFFFFFFFFFFFFFFFFFFFFFFFFFFFFFFFFFFFFF AND MUL OR SWAP1 SSTORE POP DUP1 PUSH1 0x5 PUSH1 0x0 PUSH2 0x100 EXP DUP2 SLOAD DUP2 PUSH20 0xFFFFFFFFFFFFFFFFFFFFFFFFFFFFFFFFFFFFFFFF MUL NOT AND SWAP1 DUP4 PUSH20 0xFFFFFFFFFFFFFFFFFFFFFFFFFFFFFFFFFFFFFFFF AND MUL OR SWAP1 SSTORE POP PUSH1 0x32 PUSH1 0x3 DUP2 SWAP1 SSTORE POP CALLER PUSH1 0x2 PUSH1 0x0 PUSH2 0x100 EXP DUP2 SLOAD DUP2 PUSH20 0xFFFFFFFFFFFFFFFFFFFFFFFFFFFFFFFFFFFFFFFF MUL NOT AND SWAP1 DUP4 PUSH20 0xFFFFFFFFFFFFFFFFFFFFFFFFFFFFFFFFFFFFFFFF AND MUL OR SWAP1 SSTORE POP POP PUSH3 0x1AA JUMP JUMPDEST PUSH1 0x0 DUP1 REVERT JUMPDEST PUSH1 0x0 PUSH20 0xFFFFFFFFFFFFFFFFFFFFFFFFFFFFFFFFFFFFFFFF DUP3 AND SWAP1 POP SWAP2 SWAP1 POP JUMP JUMPDEST PUSH1 0x0 PUSH3 0x140 DUP3 PUSH3 0x113 JUMP JUMPDEST SWAP1 POP SWAP2 SWAP1 POP JUMP JUMPDEST PUSH3 0x152 DUP2 PUSH3 0x133 JUMP JUMPDEST DUP2 EQ PUSH3 0x15E JUMPI PUSH1 0x0 DUP1 REVERT JUMPDEST POP JUMP JUMPDEST PUSH1 0x0 DUP2 MLOAD SWAP1 POP PUSH3 0x172 DUP2 PUSH3 0x147 JUMP JUMPDEST SWAP3 SWAP2 POP POP JUMP JUMPDEST PUSH1 0x0 PUSH1 0x20 DUP3 DUP5 SUB SLT ISZERO PUSH3 0x191 JUMPI PUSH3 0x190 PUSH3 0x10E JUMP JUMPDEST JUMPDEST PUSH1 0x0 PUSH3 0x1A1 DUP5 DUP3 DUP6 ADD PUSH3 0x161 JUMP JUMPDEST SWAP2 POP POP SWAP3 SWAP2 POP POP JUMP JUMPDEST PUSH2 0x1081 DUP1 PUSH3 0x1BA PUSH1 0x0 CODECOPY PUSH1 0x0 RETURN INVALID PUSH1 0x80 PUSH1 0x40 MSTORE PUSH1 0x4 CALLDATASIZE LT PUSH2 0x91 JUMPI PUSH1 0x0 CALLDATALOAD PUSH1 0xE0 SHR DUP1 PUSH4 0x8DA7AD23 GT PUSH2 0x59 JUMPI DUP1 PUSH4 0x8DA7AD23 EQ PUSH2 0x12B JUMPI DUP1 PUSH4 0x9D76EA58 EQ PUSH2 0x16B JUMPI DUP1 PUSH4 0xA694FC3A EQ PUSH2 0x196 JUMPI DUP1 PUSH4 0xB2237BA3 EQ PUSH2 0x1B2 JUMPI DUP1 PUSH4 0xBF0AE63D EQ PUSH2 0x1DB JUMPI PUSH2 0x91 JUMP JUMPDEST DUP1 PUSH4 0x53B645E5 EQ PUSH2 0x96 JUMPI DUP1 PUSH4 0x71CA337D EQ PUSH2 0xC1 JUMPI DUP1 PUSH4 0x73CF575A EQ PUSH2 0xEC JUMPI DUP1 PUSH4 0x83A6DEB5 EQ PUSH2 0xF6 JUMPI DUP1 PUSH4 0x8DA5CB5B EQ PUSH2 0x100 JUMPI JUMPDEST PUSH1 0x0 DUP1 REVERT JUMPDEST CALLVALUE DUP1 ISZERO PUSH2 0xA2 JUMPI PUSH1 0x0 DUP1 REVERT JUMPDEST POP PUSH2 0xAB PUSH2 0x206 JUMP JUMPDEST PUSH1 0x40 MLOAD PUSH2 0xB8 SWAP2 SWAP1 PUSH2 0xBA9 JUMP JUMPDEST PUSH1 0x40 MLOAD DUP1 SWAP2 SUB SWAP1 RETURN JUMPDEST CALLVALUE DUP1 ISZERO PUSH2 0xCD JUMPI PUSH1 0x0 DUP1 REVERT JUMPDEST POP PUSH2 0xD6 PUSH2 0x20C JUMP JUMPDEST PUSH1 0x40 MLOAD PUSH2 0xE3 SWAP2 SWAP1 PUSH2 0xBA9 JUMP JUMPDEST PUSH1 0x40 MLOAD DUP1 SWAP2 SUB SWAP1 RETURN JUMPDEST PUSH2 0xF4 PUSH2 0x212 JUMP JUMPDEST STOP JUMPDEST PUSH2 0xFE PUSH2 0x5B5 JUMP JUMPDEST STOP JUMPDEST CALLVALUE DUP1 ISZERO PUSH2 0x10C JUMPI PUSH1 0x0 DUP1 REVERT JUMPDEST POP PUSH2 0x115 PUSH2 0x743 JUMP JUMPDEST PUSH1 0x40 MLOAD PUSH2 0x122 SWAP2 SWAP1 PUSH2 0xC05 JUMP JUMPDEST PUSH1 0x40 MLOAD DUP1 SWAP2 SUB SWAP1 RETURN JUMPDEST CALLVALUE DUP1 ISZERO PUSH2 0x137 JUMPI PUSH1 0x0 DUP1 REVERT JUMPDEST POP PUSH2 0x152 PUSH1 0x4 DUP1 CALLDATASIZE SUB DUP2 ADD SWAP1 PUSH2 0x14D SWAP2 SWAP1 PUSH2 0xC51 JUMP JUMPDEST PUSH2 0x769 JUMP JUMPDEST PUSH1 0x40 MLOAD PUSH2 0x162 SWAP5 SWAP4 SWAP3 SWAP2 SWAP1 PUSH2 0xC7E JUMP JUMPDEST PUSH1 0x40 MLOAD DUP1 SWAP2 SUB SWAP1 RETURN JUMPDEST CALLVALUE DUP1 ISZERO PUSH2 0x177 JUMPI PUSH1 0x0 DUP1 REVERT JUMPDEST POP PUSH2 0x180 PUSH2 0x799 JUMP JUMPDEST PUSH1 0x40 MLOAD PUSH2 0x18D SWAP2 SWAP1 PUSH2 0xC05 JUMP JUMPDEST PUSH1 0x40 MLOAD DUP1 SWAP2 SUB SWAP1 RETURN JUMPDEST PUSH2 0x1B0 PUSH1 0x4 DUP1 CALLDATASIZE SUB DUP2 ADD SWAP1 PUSH2 0x1AB SWAP2 SWAP1 PUSH2 0xCEF JUMP JUMPDEST PUSH2 0x7BF JUMP JUMPDEST STOP JUMPDEST CALLVALUE DUP1 ISZERO PUSH2 0x1BE JUMPI PUSH1 0x0 DUP1 REVERT JUMPDEST POP PUSH2 0x1D9 PUSH1 0x4 DUP1 CALLDATASIZE SUB DUP2 ADD SWAP1 PUSH2 0x1D4 SWAP2 SWAP1 PUSH2 0xCEF JUMP JUMPDEST PUSH2 0x9B9 JUMP JUMPDEST STOP JUMPDEST CALLVALUE DUP1 ISZERO PUSH2 0x1E7 JUMPI PUSH1 0x0 DUP1 REVERT JUMPDEST POP PUSH2 0x1F0 PUSH2 0xA53 JUMP JUMPDEST PUSH1 0x40 MLOAD PUSH2 0x1FD SWAP2 SWAP1 PUSH2 0xD7B JUMP JUMPDEST PUSH1 0x40 MLOAD DUP1 SWAP2 SUB SWAP1 RETURN JUMPDEST PUSH1 0x0 SLOAD DUP2 JUMP JUMPDEST PUSH1 0x3 SLOAD DUP2 JUMP JUMPDEST PUSH1 0x5 PUSH1 0x0 SWAP1 SLOAD SWAP1 PUSH2 0x100 EXP SWAP1 DIV PUSH20 0xFFFFFFFFFFFFFFFFFFFFFFFFFFFFFFFFFFFFFFFF AND PUSH20 0xFFFFFFFFFFFFFFFFFFFFFFFFFFFFFFFFFFFFFFFF AND PUSH4 0xA9059CBB CALLER PUSH1 0x4 PUSH1 0x0 CALLER PUSH20 0xFFFFFFFFFFFFFFFFFFFFFFFFFFFFFFFFFFFFFFFF AND PUSH20 0xFFFFFFFFFFFFFFFFFFFFFFFFFFFFFFFFFFFFFFFF AND DUP2 MSTORE PUSH1 0x20 ADD SWAP1 DUP2 MSTORE PUSH1 0x20 ADD PUSH1 0x0 KECCAK256 PUSH1 0x0 ADD SLOAD PUSH1 0x40 MLOAD DUP4 PUSH4 0xFFFFFFFF AND PUSH1 0xE0 SHL DUP2 MSTORE PUSH1 0x4 ADD PUSH2 0x2B1 SWAP3 SWAP2 SWAP1 PUSH2 0xD96 JUMP JUMPDEST PUSH1 0x20 PUSH1 0x40 MLOAD DUP1 DUP4 SUB DUP2 PUSH1 0x0 DUP8 GAS CALL ISZERO DUP1 ISZERO PUSH2 0x2D0 JUMPI RETURNDATASIZE PUSH1 0x0 DUP1 RETURNDATACOPY RETURNDATASIZE PUSH1 0x0 REVERT JUMPDEST POP POP POP POP PUSH1 0x40 MLOAD RETURNDATASIZE PUSH1 0x1F NOT PUSH1 0x1F DUP3 ADD AND DUP3 ADD DUP1 PUSH1 0x40 MSTORE POP DUP2 ADD SWAP1 PUSH2 0x2F4 SWAP2 SWAP1 PUSH2 0xDF7 JUMP JUMPDEST POP PUSH1 0x5 PUSH1 0x0 SWAP1 SLOAD SWAP1 PUSH2 0x100 EXP SWAP1 DIV PUSH20 0xFFFFFFFFFFFFFFFFFFFFFFFFFFFFFFFFFFFFFFFF AND PUSH20 0xFFFFFFFFFFFFFFFFFFFFFFFFFFFFFFFFFFFFFFFF AND PUSH4 0xA9059CBB CALLER PUSH2 0x33C PUSH2 0xA79 JUMP JUMPDEST PUSH1 0x40 MLOAD DUP4 PUSH4 0xFFFFFFFF AND PUSH1 0xE0 SHL DUP2 MSTORE PUSH1 0x4 ADD PUSH2 0x359 SWAP3 SWAP2 SWAP1 PUSH2 0xD96 JUMP JUMPDEST PUSH1 0x20 PUSH1 0x40 MLOAD DUP1 DUP4 SUB DUP2 PUSH1 0x0 DUP8 GAS CALL ISZERO DUP1 ISZERO PUSH2 0x378 JUMPI RETURNDATASIZE PUSH1 0x0 DUP1 RETURNDATACOPY RETURNDATASIZE PUSH1 0x0 REVERT JUMPDEST POP POP POP POP PUSH1 0x40 MLOAD RETURNDATASIZE PUSH1 0x1F NOT PUSH1 0x1F DUP3 ADD AND DUP3 ADD DUP1 PUSH1 0x40 MSTORE POP DUP2 ADD SWAP1 PUSH2 0x39C SWAP2 SWAP1 PUSH2 0xDF7 JUMP JUMPDEST POP CALLER PUSH20 0xFFFFFFFFFFFFFFFFFFFFFFFFFFFFFFFFFFFFFFFF AND PUSH32 0xB24546D975E2628748EFC9ACED80665E0FAD66272033E5C0EA25FD3AFAC99795 PUSH1 0x4 PUSH1 0x0 CALLER PUSH20 0xFFFFFFFFFFFFFFFFFFFFFFFFFFFFFFFFFFFFFFFF AND PUSH20 0xFFFFFFFFFFFFFFFFFFFFFFFFFFFFFFFFFFFFFFFF AND DUP2 MSTORE PUSH1 0x20 ADD SWAP1 DUP2 MSTORE PUSH1 0x20 ADD PUSH1 0x0 KECCAK256 PUSH1 0x0 ADD SLOAD PUSH1 0x40 MLOAD PUSH2 0x425 SWAP2 SWAP1 PUSH2 0xBA9 JUMP JUMPDEST PUSH1 0x40 MLOAD DUP1 SWAP2 SUB SWAP1 LOG2 CALLER PUSH20 0xFFFFFFFFFFFFFFFFFFFFFFFFFFFFFFFFFFFFFFFF AND PUSH32 0xD6717F327E0CB88B4A97A7F67A453E9258252C34937CCBDD86DE7CB840E7DEF3 PUSH2 0x46D PUSH2 0xA79 JUMP JUMPDEST PUSH1 0x40 MLOAD PUSH2 0x47A SWAP2 SWAP1 PUSH2 0xBA9 JUMP JUMPDEST PUSH1 0x40 MLOAD DUP1 SWAP2 SUB SWAP1 LOG2 TIMESTAMP PUSH1 0x4 PUSH1 0x0 CALLER PUSH20 0xFFFFFFFFFFFFFFFFFFFFFFFFFFFFFFFFFFFFFFFF AND PUSH20 0xFFFFFFFFFFFFFFFFFFFFFFFFFFFFFFFFFFFFFFFF AND DUP2 MSTORE PUSH1 0x20 ADD SWAP1 DUP2 MSTORE PUSH1 0x20 ADD PUSH1 0x0 KECCAK256 PUSH1 0x3 ADD DUP2 SWAP1 SSTORE POP PUSH1 0x4 PUSH1 0x0 CALLER PUSH20 0xFFFFFFFFFFFFFFFFFFFFFFFFFFFFFFFFFFFFFFFF AND PUSH20 0xFFFFFFFFFFFFFFFFFFFFFFFFFFFFFFFFFFFFFFFF AND DUP2 MSTORE PUSH1 0x20 ADD SWAP1 DUP2 MSTORE PUSH1 0x20 ADD PUSH1 0x0 KECCAK256 PUSH1 0x0 ADD SLOAD PUSH1 0x0 DUP1 DUP3 DUP3 SLOAD PUSH2 0x51C SWAP2 SWAP1 PUSH2 0xE53 JUMP JUMPDEST SWAP3 POP POP DUP2 SWAP1 SSTORE POP PUSH1 0x0 PUSH1 0x4 PUSH1 0x0 CALLER PUSH20 0xFFFFFFFFFFFFFFFFFFFFFFFFFFFFFFFFFFFFFFFF AND PUSH20 0xFFFFFFFFFFFFFFFFFFFFFFFFFFFFFFFFFFFFFFFF AND DUP2 MSTORE PUSH1 0x20 ADD SWAP1 DUP2 MSTORE PUSH1 0x20 ADD PUSH1 0x0 KECCAK256 PUSH1 0x0 ADD DUP2 SWAP1 SSTORE POP PUSH1 0x0 PUSH1 0x4 PUSH1 0x0 CALLER PUSH20 0xFFFFFFFFFFFFFFFFFFFFFFFFFFFFFFFFFFFFFFFF AND PUSH20 0xFFFFFFFFFFFFFFFFFFFFFFFFFFFFFFFFFFFFFFFF AND DUP2 MSTORE PUSH1 0x20 ADD SWAP1 DUP2 MSTORE PUSH1 0x20 ADD PUSH1 0x0 KECCAK256 PUSH1 0x1 ADD DUP2 SWAP1 SSTORE POP JUMP JUMPDEST PUSH1 0x5 PUSH1 0x0 SWAP1 SLOAD SWAP1 PUSH2 0x100 EXP SWAP1 DIV PUSH20 0xFFFFFFFFFFFFFFFFFFFFFFFFFFFFFFFFFFFFFFFF AND PUSH20 0xFFFFFFFFFFFFFFFFFFFFFFFFFFFFFFFFFFFFFFFF AND PUSH4 0xA9059CBB CALLER PUSH2 0x5FC PUSH2 0xA79 JUMP JUMPDEST PUSH1 0x40 MLOAD DUP4 PUSH4 0xFFFFFFFF AND PUSH1 0xE0 SHL DUP2 MSTORE PUSH1 0x4 ADD PUSH2 0x619 SWAP3 SWAP2 SWAP1 PUSH2 0xD96 JUMP JUMPDEST PUSH1 0x20 PUSH1 0x40 MLOAD DUP1 DUP4 SUB DUP2 PUSH1 0x0 DUP8 GAS CALL ISZERO DUP1 ISZERO PUSH2 0x638 JUMPI RETURNDATASIZE PUSH1 0x0 DUP1 RETURNDATACOPY RETURNDATASIZE PUSH1 0x0 REVERT JUMPDEST POP POP POP POP PUSH1 0x40 MLOAD RETURNDATASIZE PUSH1 0x1F NOT PUSH1 0x1F DUP3 ADD AND DUP3 ADD DUP1 PUSH1 0x40 MSTORE POP DUP2 ADD SWAP1 PUSH2 0x65C SWAP2 SWAP1 PUSH2 0xDF7 JUMP JUMPDEST POP CALLER PUSH20 0xFFFFFFFFFFFFFFFFFFFFFFFFFFFFFFFFFFFFFFFF AND PUSH32 0xD6717F327E0CB88B4A97A7F67A453E9258252C34937CCBDD86DE7CB840E7DEF3 PUSH2 0x69D PUSH2 0xA79 JUMP JUMPDEST PUSH1 0x40 MLOAD PUSH2 0x6AA SWAP2 SWAP1 PUSH2 0xBA9 JUMP JUMPDEST PUSH1 0x40 MLOAD DUP1 SWAP2 SUB SWAP1 LOG2 TIMESTAMP PUSH1 0x4 PUSH1 0x0 CALLER PUSH20 0xFFFFFFFFFFFFFFFFFFFFFFFFFFFFFFFFFFFFFFFF AND PUSH20 0xFFFFFFFFFFFFFFFFFFFFFFFFFFFFFFFFFFFFFFFF AND DUP2 MSTORE PUSH1 0x20 ADD SWAP1 DUP2 MSTORE PUSH1 0x20 ADD PUSH1 0x0 KECCAK256 PUSH1 0x3 ADD DUP2 SWAP1 SSTORE POP PUSH1 0x0 PUSH1 0x4 PUSH1 0x0 CALLER PUSH20 0xFFFFFFFFFFFFFFFFFFFFFFFFFFFFFFFFFFFFFFFF AND PUSH20 0xFFFFFFFFFFFFFFFFFFFFFFFFFFFFFFFFFFFFFFFF AND DUP2 MSTORE PUSH1 0x20 ADD SWAP1 DUP2 MSTORE PUSH1 0x20 ADD PUSH1 0x0 KECCAK256 PUSH1 0x1 ADD DUP2 SWAP1 SSTORE POP JUMP JUMPDEST PUSH1 0x2 PUSH1 0x0 SWAP1 SLOAD SWAP1 PUSH2 0x100 EXP SWAP1 DIV PUSH20 0xFFFFFFFFFFFFFFFFFFFFFFFFFFFFFFFFFFFFFFFF AND DUP2 JUMP JUMPDEST PUSH1 0x4 PUSH1 0x20 MSTORE DUP1 PUSH1 0x0 MSTORE PUSH1 0x40 PUSH1 0x0 KECCAK256 PUSH1 0x0 SWAP2 POP SWAP1 POP DUP1 PUSH1 0x0 ADD SLOAD SWAP1 DUP1 PUSH1 0x1 ADD SLOAD SWAP1 DUP1 PUSH1 0x2 ADD SLOAD SWAP1 DUP1 PUSH1 0x3 ADD SLOAD SWAP1 POP DUP5 JUMP JUMPDEST PUSH1 0x1 PUSH1 0x0 SWAP1 SLOAD SWAP1 PUSH2 0x100 EXP SWAP1 DIV PUSH20 0xFFFFFFFFFFFFFFFFFFFFFFFFFFFFFFFFFFFFFFFF AND DUP2 JUMP JUMPDEST PUSH1 0x5 PUSH1 0x0 SWAP1 SLOAD SWAP1 PUSH2 0x100 EXP SWAP1 DIV PUSH20 0xFFFFFFFFFFFFFFFFFFFFFFFFFFFFFFFFFFFFFFFF AND PUSH20 0xFFFFFFFFFFFFFFFFFFFFFFFFFFFFFFFFFFFFFFFF AND PUSH4 0x23B872DD CALLER ADDRESS DUP5 PUSH1 0x40 MLOAD DUP5 PUSH4 0xFFFFFFFF AND PUSH1 0xE0 SHL DUP2 MSTORE PUSH1 0x4 ADD PUSH2 0x81E SWAP4 SWAP3 SWAP2 SWAP1 PUSH2 0xE87 JUMP JUMPDEST PUSH1 0x20 PUSH1 0x40 MLOAD DUP1 DUP4 SUB DUP2 PUSH1 0x0 DUP8 GAS CALL ISZERO DUP1 ISZERO PUSH2 0x83D JUMPI RETURNDATASIZE PUSH1 0x0 DUP1 RETURNDATACOPY RETURNDATASIZE PUSH1 0x0 REVERT JUMPDEST POP POP POP POP PUSH1 0x40 MLOAD RETURNDATASIZE PUSH1 0x1F NOT PUSH1 0x1F DUP3 ADD AND DUP3 ADD DUP1 PUSH1 0x40 MSTORE POP DUP2 ADD SWAP1 PUSH2 0x861 SWAP2 SWAP1 PUSH2 0xDF7 JUMP JUMPDEST POP PUSH2 0x86A PUSH2 0xA79 JUMP JUMPDEST PUSH1 0x4 PUSH1 0x0 CALLER PUSH20 0xFFFFFFFFFFFFFFFFFFFFFFFFFFFFFFFFFFFFFFFF AND PUSH20 0xFFFFFFFFFFFFFFFFFFFFFFFFFFFFFFFFFFFFFFFF AND DUP2 MSTORE PUSH1 0x20 ADD SWAP1 DUP2 MSTORE PUSH1 0x20 ADD PUSH1 0x0 KECCAK256 PUSH1 0x1 ADD DUP2 SWAP1 SSTORE POP DUP1 PUSH1 0x4 PUSH1 0x0 CALLER PUSH20 0xFFFFFFFFFFFFFFFFFFFFFFFFFFFFFFFFFFFFFFFF AND PUSH20 0xFFFFFFFFFFFFFFFFFFFFFFFFFFFFFFFFFFFFFFFF AND DUP2 MSTORE PUSH1 0x20 ADD SWAP1 DUP2 MSTORE PUSH1 0x20 ADD PUSH1 0x0 KECCAK256 PUSH1 0x0 ADD PUSH1 0x0 DUP3 DUP3 SLOAD PUSH2 0x902 SWAP2 SWAP1 PUSH2 0xEBE JUMP JUMPDEST SWAP3 POP POP DUP2 SWAP1 SSTORE POP TIMESTAMP PUSH1 0x4 PUSH1 0x0 CALLER PUSH20 0xFFFFFFFFFFFFFFFFFFFFFFFFFFFFFFFFFFFFFFFF AND PUSH20 0xFFFFFFFFFFFFFFFFFFFFFFFFFFFFFFFFFFFFFFFF AND DUP2 MSTORE PUSH1 0x20 ADD SWAP1 DUP2 MSTORE PUSH1 0x20 ADD PUSH1 0x0 KECCAK256 PUSH1 0x3 ADD DUP2 SWAP1 SSTORE POP DUP1 PUSH1 0x0 DUP1 DUP3 DUP3 SLOAD PUSH2 0x961 SWAP2 SWAP1 PUSH2 0xEBE JUMP JUMPDEST SWAP3 POP POP DUP2 SWAP1 SSTORE POP CALLER PUSH20 0xFFFFFFFFFFFFFFFFFFFFFFFFFFFFFFFFFFFFFFFF AND PUSH32 0xEBEDB8B3C678666E7F36970BC8F57ABF6D8FA2E828C0DA91EA5B75BF68ED101A DUP3 PUSH1 0x40 MLOAD PUSH2 0x9AE SWAP2 SWAP1 PUSH2 0xBA9 JUMP JUMPDEST PUSH1 0x40 MLOAD DUP1 SWAP2 SUB SWAP1 LOG2 POP JUMP JUMPDEST PUSH1 0x2 PUSH1 0x0 SWAP1 SLOAD SWAP1 PUSH2 0x100 EXP SWAP1 DIV PUSH20 0xFFFFFFFFFFFFFFFFFFFFFFFFFFFFFFFFFFFFFFFF AND PUSH20 0xFFFFFFFFFFFFFFFFFFFFFFFFFFFFFFFFFFFFFFFF AND CALLER PUSH20 0xFFFFFFFFFFFFFFFFFFFFFFFFFFFFFFFFFFFFFFFF AND EQ PUSH2 0xA49 JUMPI PUSH1 0x40 MLOAD PUSH32 0x8C379A000000000000000000000000000000000000000000000000000000000 DUP2 MSTORE PUSH1 0x4 ADD PUSH2 0xA40 SWAP1 PUSH2 0xF71 JUMP JUMPDEST PUSH1 0x40 MLOAD DUP1 SWAP2 SUB SWAP1 REVERT JUMPDEST DUP1 PUSH1 0x3 DUP2 SWAP1 SSTORE POP POP JUMP JUMPDEST PUSH1 0x5 PUSH1 0x0 SWAP1 SLOAD SWAP1 PUSH2 0x100 EXP SWAP1 DIV PUSH20 0xFFFFFFFFFFFFFFFFFFFFFFFFFFFFFFFFFFFFFFFF AND DUP2 JUMP JUMPDEST PUSH1 0x0 PUSH4 0x1E13380 PUSH1 0x64 PUSH1 0x3 SLOAD PUSH1 0x4 PUSH1 0x0 CALLER PUSH20 0xFFFFFFFFFFFFFFFFFFFFFFFFFFFFFFFFFFFFFFFF AND PUSH20 0xFFFFFFFFFFFFFFFFFFFFFFFFFFFFFFFFFFFFFFFF AND DUP2 MSTORE PUSH1 0x20 ADD SWAP1 DUP2 MSTORE PUSH1 0x20 ADD PUSH1 0x0 KECCAK256 PUSH1 0x0 ADD SLOAD PUSH2 0xAD2 SWAP2 SWAP1 PUSH2 0xF91 JUMP JUMPDEST PUSH2 0xADC SWAP2 SWAP1 PUSH2 0x101A JUMP JUMPDEST PUSH2 0xAE6 SWAP2 SWAP1 PUSH2 0x101A JUMP JUMPDEST PUSH1 0x4 PUSH1 0x0 CALLER PUSH20 0xFFFFFFFFFFFFFFFFFFFFFFFFFFFFFFFFFFFFFFFF AND PUSH20 0xFFFFFFFFFFFFFFFFFFFFFFFFFFFFFFFFFFFFFFFF AND DUP2 MSTORE PUSH1 0x20 ADD SWAP1 DUP2 MSTORE PUSH1 0x20 ADD PUSH1 0x0 KECCAK256 PUSH1 0x3 ADD SLOAD TIMESTAMP PUSH2 0xB34 SWAP2 SWAP1 PUSH2 0xE53 JUMP JUMPDEST PUSH2 0xB3E SWAP2 SWAP1 PUSH2 0xF91 JUMP JUMPDEST PUSH1 0x4 PUSH1 0x0 CALLER PUSH20 0xFFFFFFFFFFFFFFFFFFFFFFFFFFFFFFFFFFFFFFFF AND PUSH20 0xFFFFFFFFFFFFFFFFFFFFFFFFFFFFFFFFFFFFFFFF AND DUP2 MSTORE PUSH1 0x20 ADD SWAP1 DUP2 MSTORE PUSH1 0x20 ADD PUSH1 0x0 KECCAK256 PUSH1 0x1 ADD SLOAD PUSH2 0xB8B SWAP2 SWAP1 PUSH2 0xEBE JUMP JUMPDEST SWAP1 POP SWAP1 JUMP JUMPDEST PUSH1 0x0 DUP2 SWAP1 POP SWAP2 SWAP1 POP JUMP JUMPDEST PUSH2 0xBA3 DUP2 PUSH2 0xB90 JUMP JUMPDEST DUP3 MSTORE POP POP JUMP JUMPDEST PUSH1 0x0 PUSH1 0x20 DUP3 ADD SWAP1 POP PUSH2 0xBBE PUSH1 0x0 DUP4 ADD DUP5 PUSH2 0xB9A JUMP JUMPDEST SWAP3 SWAP2 POP POP JUMP JUMPDEST PUSH1 0x0 PUSH20 0xFFFFFFFFFFFFFFFFFFFFFFFFFFFFFFFFFFFFFFFF DUP3 AND SWAP1 POP SWAP2 SWAP1 POP JUMP JUMPDEST PUSH1 0x0 PUSH2 0xBEF DUP3 PUSH2 0xBC4 JUMP JUMPDEST SWAP1 POP SWAP2 SWAP1 POP JUMP JUMPDEST PUSH2 0xBFF DUP2 PUSH2 0xBE4 JUMP JUMPDEST DUP3 MSTORE POP POP JUMP JUMPDEST PUSH1 0x0 PUSH1 0x20 DUP3 ADD SWAP1 POP PUSH2 0xC1A PUSH1 0x0 DUP4 ADD DUP5 PUSH2 0xBF6 JUMP JUMPDEST SWAP3 SWAP2 POP POP JUMP JUMPDEST PUSH1 0x0 DUP1 REVERT JUMPDEST PUSH2 0xC2E DUP2 PUSH2 0xBE4 JUMP JUMPDEST DUP2 EQ PUSH2 0xC39 JUMPI PUSH1 0x0 DUP1 REVERT JUMPDEST POP JUMP JUMPDEST PUSH1 0x0 DUP2 CALLDATALOAD SWAP1 POP PUSH2 0xC4B DUP2 PUSH2 0xC25 JUMP JUMPDEST SWAP3 SWAP2 POP POP JUMP JUMPDEST PUSH1 0x0 PUSH1 0x20 DUP3 DUP5 SUB SLT ISZERO PUSH2 0xC67 JUMPI PUSH2 0xC66 PUSH2 0xC20 JUMP JUMPDEST JUMPDEST PUSH1 0x0 PUSH2 0xC75 DUP5 DUP3 DUP6 ADD PUSH2 0xC3C JUMP JUMPDEST SWAP2 POP POP SWAP3 SWAP2 POP POP JUMP JUMPDEST PUSH1 0x0 PUSH1 0x80 DUP3 ADD SWAP1 POP PUSH2 0xC93 PUSH1 0x0 DUP4 ADD DUP8 PUSH2 0xB9A JUMP JUMPDEST PUSH2 0xCA0 PUSH1 0x20 DUP4 ADD DUP7 PUSH2 0xB9A JUMP JUMPDEST PUSH2 0xCAD PUSH1 0x40 DUP4 ADD DUP6 PUSH2 0xB9A JUMP JUMPDEST PUSH2 0xCBA PUSH1 0x60 DUP4 ADD DUP5 PUSH2 0xB9A JUMP JUMPDEST SWAP6 SWAP5 POP POP POP POP POP JUMP JUMPDEST PUSH2 0xCCC DUP2 PUSH2 0xB90 JUMP JUMPDEST DUP2 EQ PUSH2 0xCD7 JUMPI PUSH1 0x0 DUP1 REVERT JUMPDEST POP JUMP JUMPDEST PUSH1 0x0 DUP2 CALLDATALOAD SWAP1 POP PUSH2 0xCE9 DUP2 PUSH2 0xCC3 JUMP JUMPDEST SWAP3 SWAP2 POP POP JUMP JUMPDEST PUSH1 0x0 PUSH1 0x20 DUP3 DUP5 SUB SLT ISZERO PUSH2 0xD05 JUMPI PUSH2 0xD04 PUSH2 0xC20 JUMP JUMPDEST JUMPDEST PUSH1 0x0 PUSH2 0xD13 DUP5 DUP3 DUP6 ADD PUSH2 0xCDA JUMP JUMPDEST SWAP2 POP POP SWAP3 SWAP2 POP POP JUMP JUMPDEST PUSH1 0x0 DUP2 SWAP1 POP SWAP2 SWAP1 POP JUMP JUMPDEST PUSH1 0x0 PUSH2 0xD41 PUSH2 0xD3C PUSH2 0xD37 DUP5 PUSH2 0xBC4 JUMP JUMPDEST PUSH2 0xD1C JUMP JUMPDEST PUSH2 0xBC4 JUMP JUMPDEST SWAP1 POP SWAP2 SWAP1 POP JUMP JUMPDEST PUSH1 0x0 PUSH2 0xD53 DUP3 PUSH2 0xD26 JUMP JUMPDEST SWAP1 POP SWAP2 SWAP1 POP JUMP JUMPDEST PUSH1 0x0 PUSH2 0xD65 DUP3 PUSH2 0xD48 JUMP JUMPDEST SWAP1 POP SWAP2 SWAP1 POP JUMP JUMPDEST PUSH2 0xD75 DUP2 PUSH2 0xD5A JUMP JUMPDEST DUP3 MSTORE POP POP JUMP JUMPDEST PUSH1 0x0 PUSH1 0x20 DUP3 ADD SWAP1 POP PUSH2 0xD90 PUSH1 0x0 DUP4 ADD DUP5 PUSH2 0xD6C JUMP JUMPDEST SWAP3 SWAP2 POP POP JUMP JUMPDEST PUSH1 0x0 PUSH1 0x40 DUP3 ADD SWAP1 POP PUSH2 0xDAB PUSH1 0x0 DUP4 ADD DUP6 PUSH2 0xBF6 JUMP JUMPDEST PUSH2 0xDB8 PUSH1 0x20 DUP4 ADD DUP5 PUSH2 0xB9A JUMP JUMPDEST SWAP4 SWAP3 POP POP POP JUMP JUMPDEST PUSH1 0x0 DUP2 ISZERO ISZERO SWAP1 POP SWAP2 SWAP1 POP JUMP JUMPDEST PUSH2 0xDD4 DUP2 PUSH2 0xDBF JUMP JUMPDEST DUP2 EQ PUSH2 0xDDF JUMPI PUSH1 0x0 DUP1 REVERT JUMPDEST POP JUMP JUMPDEST PUSH1 0x0 DUP2 MLOAD SWAP1 POP PUSH2 0xDF1 DUP2 PUSH2 0xDCB JUMP JUMPDEST SWAP3 SWAP2 POP POP JUMP JUMPDEST PUSH1 0x0 PUSH1 0x20 DUP3 DUP5 SUB SLT ISZERO PUSH2 0xE0D JUMPI PUSH2 0xE0C PUSH2 0xC20 JUMP JUMPDEST JUMPDEST PUSH1 0x0 PUSH2 0xE1B DUP5 DUP3 DUP6 ADD PUSH2 0xDE2 JUMP JUMPDEST SWAP2 POP POP SWAP3 SWAP2 POP POP JUMP JUMPDEST PUSH32 0x4E487B7100000000000000000000000000000000000000000000000000000000 PUSH1 0x0 MSTORE PUSH1 0x11 PUSH1 0x4 MSTORE PUSH1 0x24 PUSH1 0x0 REVERT JUMPDEST PUSH1 0x0 PUSH2 0xE5E DUP3 PUSH2 0xB90 JUMP JUMPDEST SWAP2 POP PUSH2 0xE69 DUP4 PUSH2 0xB90 JUMP JUMPDEST SWAP3 POP DUP3 DUP3 LT ISZERO PUSH2 0xE7C JUMPI PUSH2 0xE7B PUSH2 0xE24 JUMP JUMPDEST JUMPDEST DUP3 DUP3 SUB SWAP1 POP SWAP3 SWAP2 POP POP JUMP JUMPDEST PUSH1 0x0 PUSH1 0x60 DUP3 ADD SWAP1 POP PUSH2 0xE9C PUSH1 0x0 DUP4 ADD DUP7 PUSH2 0xBF6 JUMP JUMPDEST PUSH2 0xEA9 PUSH1 0x20 DUP4 ADD DUP6 PUSH2 0xBF6 JUMP JUMPDEST PUSH2 0xEB6 PUSH1 0x40 DUP4 ADD DUP5 PUSH2 0xB9A JUMP JUMPDEST SWAP5 SWAP4 POP POP POP POP JUMP JUMPDEST PUSH1 0x0 PUSH2 0xEC9 DUP3 PUSH2 0xB90 JUMP JUMPDEST SWAP2 POP PUSH2 0xED4 DUP4 PUSH2 0xB90 JUMP JUMPDEST SWAP3 POP DUP3 PUSH32 0xFFFFFFFFFFFFFFFFFFFFFFFFFFFFFFFFFFFFFFFFFFFFFFFFFFFFFFFFFFFFFFFF SUB DUP3 GT ISZERO PUSH2 0xF09 JUMPI PUSH2 0xF08 PUSH2 0xE24 JUMP JUMPDEST JUMPDEST DUP3 DUP3 ADD SWAP1 POP SWAP3 SWAP2 POP POP JUMP JUMPDEST PUSH1 0x0 DUP3 DUP3 MSTORE PUSH1 0x20 DUP3 ADD SWAP1 POP SWAP3 SWAP2 POP POP JUMP JUMPDEST PUSH32 0x6E6F74206F776E65720000000000000000000000000000000000000000000000 PUSH1 0x0 DUP3 ADD MSTORE POP JUMP JUMPDEST PUSH1 0x0 PUSH2 0xF5B PUSH1 0x9 DUP4 PUSH2 0xF14 JUMP JUMPDEST SWAP2 POP PUSH2 0xF66 DUP3 PUSH2 0xF25 JUMP JUMPDEST PUSH1 0x20 DUP3 ADD SWAP1 POP SWAP2 SWAP1 POP JUMP JUMPDEST PUSH1 0x0 PUSH1 0x20 DUP3 ADD SWAP1 POP DUP2 DUP2 SUB PUSH1 0x0 DUP4 ADD MSTORE PUSH2 0xF8A DUP2 PUSH2 0xF4E JUMP JUMPDEST SWAP1 POP SWAP2 SWAP1 POP JUMP JUMPDEST PUSH1 0x0 PUSH2 0xF9C DUP3 PUSH2 0xB90 JUMP JUMPDEST SWAP2 POP PUSH2 0xFA7 DUP4 PUSH2 0xB90 JUMP JUMPDEST SWAP3 POP DUP2 PUSH32 0xFFFFFFFFFFFFFFFFFFFFFFFFFFFFFFFFFFFFFFFFFFFFFFFFFFFFFFFFFFFFFFFF DIV DUP4 GT DUP3 ISZERO ISZERO AND ISZERO PUSH2 0xFE0 JUMPI PUSH2 0xFDF PUSH2 0xE24 JUMP JUMPDEST JUMPDEST DUP3 DUP3 MUL SWAP1 POP SWAP3 SWAP2 POP POP JUMP JUMPDEST PUSH32 0x4E487B7100000000000000000000000000000000000000000000000000000000 PUSH1 0x0 MSTORE PUSH1 0x12 PUSH1 0x4 MSTORE PUSH1 0x24 PUSH1 0x0 REVERT JUMPDEST PUSH1 0x0 PUSH2 0x1025 DUP3 PUSH2 0xB90 JUMP JUMPDEST SWAP2 POP PUSH2 0x1030 DUP4 PUSH2 0xB90 JUMP JUMPDEST SWAP3 POP DUP3 PUSH2 0x1040 JUMPI PUSH2 0x103F PUSH2 0xFEB JUMP JUMPDEST JUMPDEST DUP3 DUP3 DIV SWAP1 POP SWAP3 SWAP2 POP POP JUMP INVALID LOG2 PUSH5 0x6970667358 0x22 SLT KECCAK256 0x4D LOG3 JUMPI CALL PUSH3 0xF62888 CALLDATASIZE 0x27 MULMOD SMOD CREATE2 0xFB 0x2B 0xC6 0xE3 PC 0xE6 PUSH3 0x898FB4 0xCE 0xE4 SAR 0xD0 0xB9 0xE4 0xCF 0xC KECCAK256 PUSH5 0x736F6C6343 STOP ADDMOD 0xF STOP CALLER "
				},
				"gasEstimates": {
					"creation": {
						"codeDepositCost": "845000",
						"executionCost": "infinite",
						"totalCost": "infinite"
					},
					"external": {
						"ierc20()": "infinite",
						"owner()": "2603",
						"ratio()": "2452",
						"received()": "infinite",
						"setRatio(uint256)": "24756",
						"stake(uint256)": "infinite",
						"tokenAddress()": "2536",
						"totalStakeNumber()": "2430",
						"unStake()": "infinite",
						"userStakes(address)": "infinite"
					},
					"internal": {
						"getUserInsert()": "infinite"
					}
				},
				"methodIdentifiers": {
					"ierc20()": "bf0ae63d",
					"owner()": "8da5cb5b",
					"ratio()": "71ca337d",
					"received()": "83a6deb5",
					"setRatio(uint256)": "b2237ba3",
					"stake(uint256)": "a694fc3a",
					"tokenAddress()": "9d76ea58",
					"totalStakeNumber()": "53b645e5",
					"unStake()": "73cf575a",
					"userStakes(address)": "8da7ad23"
				}
			},
			"storageLayout": {
				"storage": [
					{
						"astId": 102,
						"contract": "contracts/StakePool.sol:StakePool",
						"label": "totalStakeNumber",
						"offset": 0,
						"slot": "0",
						"type": "t_uint256"
					},
					{
						"astId": 104,
						"contract": "contracts/StakePool.sol:StakePool",
						"label": "tokenAddress",
						"offset": 0,
						"slot": "1",
						"type": "t_address"
					},
					{
						"astId": 106,
						"contract": "contracts/StakePool.sol:StakePool",
						"label": "owner",
						"offset": 0,
						"slot": "2",
						"type": "t_address"
					},
					{
						"astId": 108,
						"contract": "contracts/StakePool.sol:StakePool",
						"label": "ratio",
						"offset": 0,
						"slot": "3",
						"type": "t_uint256"
					},
					{
						"astId": 113,
						"contract": "contracts/StakePool.sol:StakePool",
						"label": "userStakes",
						"offset": 0,
						"slot": "4",
						"type": "t_mapping(t_address,t_struct(User)99_storage)"
					},
					{
						"astId": 116,
						"contract": "contracts/StakePool.sol:StakePool",
						"label": "ierc20",
						"offset": 0,
						"slot": "5",
						"type": "t_contract(IERC20)68"
					}
				],
				"types": {
					"t_address": {
						"encoding": "inplace",
						"label": "address",
						"numberOfBytes": "20"
					},
					"t_contract(IERC20)68": {
						"encoding": "inplace",
						"label": "contract IERC20",
						"numberOfBytes": "20"
					},
					"t_mapping(t_address,t_struct(User)99_storage)": {
						"encoding": "mapping",
						"key": "t_address",
						"label": "mapping(address => struct StakePool.User)",
						"numberOfBytes": "32",
						"value": "t_struct(User)99_storage"
					},
					"t_struct(User)99_storage": {
						"encoding": "inplace",
						"label": "struct StakePool.User",
						"members": [
							{
								"astId": 92,
								"contract": "contracts/StakePool.sol:StakePool",
								"label": "stakeNumber",
								"offset": 0,
								"slot": "0",
								"type": "t_uint256"
							},
							{
								"astId": 94,
								"contract": "contracts/StakePool.sol:StakePool",
								"label": "currentInterest",
								"offset": 0,
								"slot": "1",
								"type": "t_uint256"
							},
							{
								"astId": 96,
								"contract": "contracts/StakePool.sol:StakePool",
								"label": "claimedInterest",
								"offset": 0,
								"slot": "2",
								"type": "t_uint256"
							},
							{
								"astId": 98,
								"contract": "contracts/StakePool.sol:StakePool",
								"label": "lastStakeTime",
								"offset": 0,
								"slot": "3",
								"type": "t_uint256"
							}
						],
						"numberOfBytes": "128"
					},
					"t_uint256": {
						"encoding": "inplace",
						"label": "uint256",
						"numberOfBytes": "32"
					}
				}
			},
			"userdoc": {
				"kind": "user",
				"methods": {},
				"version": 1
			}
		}
	}
}