{
	"contracts/21_OtherContract.sol": {
		"CallContract": {
			"abi": [
				{
					"anonymous": false,
					"inputs": [
						{
							"indexed": false,
							"internalType": "bool",
							"name": "success",
							"type": "bool"
						},
						{
							"indexed": false,
							"internalType": "bytes",
							"name": "data",
							"type": "bytes"
						}
					],
					"name": "Response",
					"type": "event"
				},
				{
					"inputs": [
						{
							"internalType": "address payable",
							"name": "_addr",
							"type": "address"
						},
						{
							"internalType": "uint256",
							"name": "x",
							"type": "uint256"
						}
					],
					"name": "callSetX",
					"outputs": [],
					"stateMutability": "payable",
					"type": "function"
				}
			],
			"devdoc": {
				"kind": "dev",
				"methods": {},
				"version": 1
			},
			"evm": {
				"assembly": "    /* \"contracts/21_OtherContract.sol\":751:1103  contract CallContract{... */\n  mstore(0x40, 0x80)\n  callvalue\n  dup1\n  iszero\n  tag_1\n  jumpi\n  0x00\n  dup1\n  revert\ntag_1:\n  pop\n  dataSize(sub_0)\n  dup1\n  dataOffset(sub_0)\n  0x00\n  codecopy\n  0x00\n  return\nstop\n\nsub_0: assembly {\n        /* \"contracts/21_OtherContract.sol\":751:1103  contract CallContract{... */\n      mstore(0x40, 0x80)\n      jumpi(tag_1, lt(calldatasize, 0x04))\n      shr(0xe0, calldataload(0x00))\n      dup1\n      0x3ca065bb\n      eq\n      tag_2\n      jumpi\n    tag_1:\n      0x00\n      dup1\n      revert\n        /* \"contracts/21_OtherContract.sol\":821:1095  function callSetX(address payable _addr, uint256 x) public payable {... */\n    tag_2:\n      tag_3\n      0x04\n      dup1\n      calldatasize\n      sub\n      dup2\n      add\n      swap1\n      tag_4\n      swap2\n      swap1\n      tag_5\n      jump\t// in\n    tag_4:\n      tag_6\n      jump\t// in\n    tag_3:\n      stop\n    tag_6:\n        /* \"contracts/21_OtherContract.sol\":932:944  bool success */\n      0x00\n        /* \"contracts/21_OtherContract.sol\":946:963  bytes memory data */\n      dup1\n        /* \"contracts/21_OtherContract.sol\":967:972  _addr */\n      dup4\n        /* \"contracts/21_OtherContract.sol\":967:977  _addr.call */\n      0xffffffffffffffffffffffffffffffffffffffff\n      and\n        /* \"contracts/21_OtherContract.sol\":985:994  msg.value */\n      callvalue\n        /* \"contracts/21_OtherContract.sol\":1040:1041  x */\n      dup5\n        /* \"contracts/21_OtherContract.sol\":999:1042  abi.encodeWithSignature(\"setX(uint256)\", x) */\n      add(0x24, mload(0x40))\n      tag_8\n      swap2\n      swap1\n      tag_9\n      jump\t// in\n    tag_8:\n      mload(0x40)\n      0x20\n      dup2\n      dup4\n      sub\n      sub\n      dup2\n      mstore\n      swap1\n      0x40\n      mstore\n      and(not(0xffffffffffffffffffffffffffffffffffffffffffffffffffffffff), 0x4018d9aa00000000000000000000000000000000000000000000000000000000)\n      0x20\n      dup3\n      add\n      dup1\n      mload\n      0xffffffffffffffffffffffffffffffffffffffffffffffffffffffff\n      dup4\n      dup2\n      dup4\n      and\n      or\n      dup4\n      mstore\n      pop\n      pop\n      pop\n      pop\n        /* \"contracts/21_OtherContract.sol\":967:1045  _addr.call{value: msg.value}(... */\n      mload(0x40)\n      tag_10\n      swap2\n      swap1\n      tag_11\n      jump\t// in\n    tag_10:\n      0x00\n      mload(0x40)\n      dup1\n      dup4\n      sub\n      dup2\n      dup6\n      dup8\n      gas\n      call\n      swap3\n      pop\n      pop\n      pop\n      returndatasize\n      dup1\n      0x00\n      dup2\n      eq\n      tag_14\n      jumpi\n      mload(0x40)\n      swap2\n      pop\n      and(add(returndatasize, 0x3f), not(0x1f))\n      dup3\n      add\n      0x40\n      mstore\n      returndatasize\n      dup3\n      mstore\n      returndatasize\n      0x00\n      0x20\n      dup5\n      add\n      returndatacopy\n      jump(tag_13)\n    tag_14:\n      0x60\n      swap2\n      pop\n    tag_13:\n      pop\n        /* \"contracts/21_OtherContract.sol\":931:1045  (bool success, bytes memory data) = _addr.call{value: msg.value}(... */\n      swap2\n      pop\n      swap2\n      pop\n        /* \"contracts/21_OtherContract.sol\":1054:1077  Response(success, data) */\n      0x13848c3e38f8886f3f5d2ad9dff80d8092c2bbb8efd5b887a99c2c6cfc09ac2a\n        /* \"contracts/21_OtherContract.sol\":1063:1070  success */\n      dup3\n        /* \"contracts/21_OtherContract.sol\":1072:1076  data */\n      dup3\n        /* \"contracts/21_OtherContract.sol\":1054:1077  Response(success, data) */\n      mload(0x40)\n      tag_15\n      swap3\n      swap2\n      swap1\n      tag_16\n      jump\t// in\n    tag_15:\n      mload(0x40)\n      dup1\n      swap2\n      sub\n      swap1\n      log1\n        /* \"contracts/21_OtherContract.sol\":888:1095  {... */\n      pop\n      pop\n        /* \"contracts/21_OtherContract.sol\":821:1095  function callSetX(address payable _addr, uint256 x) public payable {... */\n      pop\n      pop\n      jump\t// out\n        /* \"#utility.yul\":7:162   */\n    tag_18:\n        /* \"#utility.yul\":61:66   */\n      0x00\n        /* \"#utility.yul\":99:105   */\n      dup2\n        /* \"#utility.yul\":86:106   */\n      calldataload\n        /* \"#utility.yul\":77:106   */\n      swap1\n      pop\n        /* \"#utility.yul\":115:156   */\n      tag_20\n        /* \"#utility.yul\":150:155   */\n      dup2\n        /* \"#utility.yul\":115:156   */\n      tag_21\n      jump\t// in\n    tag_20:\n        /* \"#utility.yul\":7:162   */\n      swap3\n      swap2\n      pop\n      pop\n      jump\t// out\n        /* \"#utility.yul\":168:307   */\n    tag_22:\n        /* \"#utility.yul\":214:219   */\n      0x00\n        /* \"#utility.yul\":252:258   */\n      dup2\n        /* \"#utility.yul\":239:259   */\n      calldataload\n        /* \"#utility.yul\":230:259   */\n      swap1\n      pop\n        /* \"#utility.yul\":268:301   */\n      tag_24\n        /* \"#utility.yul\":295:300   */\n      dup2\n        /* \"#utility.yul\":268:301   */\n      tag_25\n      jump\t// in\n    tag_24:\n        /* \"#utility.yul\":168:307   */\n      swap3\n      swap2\n      pop\n      pop\n      jump\t// out\n        /* \"#utility.yul\":313:803   */\n    tag_5:\n        /* \"#utility.yul\":389:395   */\n      0x00\n        /* \"#utility.yul\":397:403   */\n      dup1\n        /* \"#utility.yul\":446:448   */\n      0x40\n        /* \"#utility.yul\":434:443   */\n      dup4\n        /* \"#utility.yul\":425:432   */\n      dup6\n        /* \"#utility.yul\":421:444   */\n      sub\n        /* \"#utility.yul\":417:449   */\n      slt\n        /* \"#utility.yul\":414:533   */\n      iszero\n      tag_27\n      jumpi\n        /* \"#utility.yul\":452:531   */\n      tag_28\n      tag_29\n      jump\t// in\n    tag_28:\n        /* \"#utility.yul\":414:533   */\n    tag_27:\n        /* \"#utility.yul\":572:573   */\n      0x00\n        /* \"#utility.yul\":597:658   */\n      tag_30\n        /* \"#utility.yul\":650:657   */\n      dup6\n        /* \"#utility.yul\":641:647   */\n      dup3\n        /* \"#utility.yul\":630:639   */\n      dup7\n        /* \"#utility.yul\":626:648   */\n      add\n        /* \"#utility.yul\":597:658   */\n      tag_18\n      jump\t// in\n    tag_30:\n        /* \"#utility.yul\":587:658   */\n      swap3\n      pop\n        /* \"#utility.yul\":543:668   */\n      pop\n        /* \"#utility.yul\":707:709   */\n      0x20\n        /* \"#utility.yul\":733:786   */\n      tag_31\n        /* \"#utility.yul\":778:785   */\n      dup6\n        /* \"#utility.yul\":769:775   */\n      dup3\n        /* \"#utility.yul\":758:767   */\n      dup7\n        /* \"#utility.yul\":754:776   */\n      add\n        /* \"#utility.yul\":733:786   */\n      tag_22\n      jump\t// in\n    tag_31:\n        /* \"#utility.yul\":723:786   */\n      swap2\n      pop\n        /* \"#utility.yul\":678:796   */\n      pop\n        /* \"#utility.yul\":313:803   */\n      swap3\n      pop\n      swap3\n      swap1\n      pop\n      jump\t// out\n        /* \"#utility.yul\":809:918   */\n    tag_32:\n        /* \"#utility.yul\":890:911   */\n      tag_34\n        /* \"#utility.yul\":905:910   */\n      dup2\n        /* \"#utility.yul\":890:911   */\n      tag_35\n      jump\t// in\n    tag_34:\n        /* \"#utility.yul\":885:888   */\n      dup3\n        /* \"#utility.yul\":878:912   */\n      mstore\n        /* \"#utility.yul\":809:918   */\n      pop\n      pop\n      jump\t// out\n        /* \"#utility.yul\":924:1284   */\n    tag_36:\n        /* \"#utility.yul\":1010:1013   */\n      0x00\n        /* \"#utility.yul\":1038:1076   */\n      tag_38\n        /* \"#utility.yul\":1070:1075   */\n      dup3\n        /* \"#utility.yul\":1038:1076   */\n      tag_39\n      jump\t// in\n    tag_38:\n        /* \"#utility.yul\":1092:1162   */\n      tag_40\n        /* \"#utility.yul\":1155:1161   */\n      dup2\n        /* \"#utility.yul\":1150:1153   */\n      dup6\n        /* \"#utility.yul\":1092:1162   */\n      tag_41\n      jump\t// in\n    tag_40:\n        /* \"#utility.yul\":1085:1162   */\n      swap4\n      pop\n        /* \"#utility.yul\":1171:1223   */\n      tag_42\n        /* \"#utility.yul\":1216:1222   */\n      dup2\n        /* \"#utility.yul\":1211:1214   */\n      dup6\n        /* \"#utility.yul\":1204:1208   */\n      0x20\n        /* \"#utility.yul\":1197:1202   */\n      dup7\n        /* \"#utility.yul\":1193:1209   */\n      add\n        /* \"#utility.yul\":1171:1223   */\n      tag_43\n      jump\t// in\n    tag_42:\n        /* \"#utility.yul\":1248:1277   */\n      tag_44\n        /* \"#utility.yul\":1270:1276   */\n      dup2\n        /* \"#utility.yul\":1248:1277   */\n      tag_45\n      jump\t// in\n    tag_44:\n        /* \"#utility.yul\":1243:1246   */\n      dup5\n        /* \"#utility.yul\":1239:1278   */\n      add\n        /* \"#utility.yul\":1232:1278   */\n      swap2\n      pop\n        /* \"#utility.yul\":1014:1284   */\n      pop\n        /* \"#utility.yul\":924:1284   */\n      swap3\n      swap2\n      pop\n      pop\n      jump\t// out\n        /* \"#utility.yul\":1290:1663   */\n    tag_46:\n        /* \"#utility.yul\":1394:1397   */\n      0x00\n        /* \"#utility.yul\":1422:1460   */\n      tag_48\n        /* \"#utility.yul\":1454:1459   */\n      dup3\n        /* \"#utility.yul\":1422:1460   */\n      tag_39\n      jump\t// in\n    tag_48:\n        /* \"#utility.yul\":1476:1564   */\n      tag_49\n        /* \"#utility.yul\":1557:1563   */\n      dup2\n        /* \"#utility.yul\":1552:1555   */\n      dup6\n        /* \"#utility.yul\":1476:1564   */\n      tag_50\n      jump\t// in\n    tag_49:\n        /* \"#utility.yul\":1469:1564   */\n      swap4\n      pop\n        /* \"#utility.yul\":1573:1625   */\n      tag_51\n        /* \"#utility.yul\":1618:1624   */\n      dup2\n        /* \"#utility.yul\":1613:1616   */\n      dup6\n        /* \"#utility.yul\":1606:1610   */\n      0x20\n        /* \"#utility.yul\":1599:1604   */\n      dup7\n        /* \"#utility.yul\":1595:1611   */\n      add\n        /* \"#utility.yul\":1573:1625   */\n      tag_43\n      jump\t// in\n    tag_51:\n        /* \"#utility.yul\":1650:1656   */\n      dup1\n        /* \"#utility.yul\":1645:1648   */\n      dup5\n        /* \"#utility.yul\":1641:1657   */\n      add\n        /* \"#utility.yul\":1634:1657   */\n      swap2\n      pop\n        /* \"#utility.yul\":1398:1663   */\n      pop\n        /* \"#utility.yul\":1290:1663   */\n      swap3\n      swap2\n      pop\n      pop\n      jump\t// out\n        /* \"#utility.yul\":1669:1787   */\n    tag_52:\n        /* \"#utility.yul\":1756:1780   */\n      tag_54\n        /* \"#utility.yul\":1774:1779   */\n      dup2\n        /* \"#utility.yul\":1756:1780   */\n      tag_55\n      jump\t// in\n    tag_54:\n        /* \"#utility.yul\":1751:1754   */\n      dup3\n        /* \"#utility.yul\":1744:1781   */\n      mstore\n        /* \"#utility.yul\":1669:1787   */\n      pop\n      pop\n      jump\t// out\n        /* \"#utility.yul\":1793:2064   */\n    tag_11:\n        /* \"#utility.yul\":1923:1926   */\n      0x00\n        /* \"#utility.yul\":1945:2038   */\n      tag_57\n        /* \"#utility.yul\":2034:2037   */\n      dup3\n        /* \"#utility.yul\":2025:2031   */\n      dup5\n        /* \"#utility.yul\":1945:2038   */\n      tag_46\n      jump\t// in\n    tag_57:\n        /* \"#utility.yul\":1938:2038   */\n      swap2\n      pop\n        /* \"#utility.yul\":2055:2058   */\n      dup2\n        /* \"#utility.yul\":2048:2058   */\n      swap1\n      pop\n        /* \"#utility.yul\":1793:2064   */\n      swap3\n      swap2\n      pop\n      pop\n      jump\t// out\n        /* \"#utility.yul\":2070:2477   */\n    tag_16:\n        /* \"#utility.yul\":2203:2207   */\n      0x00\n        /* \"#utility.yul\":2241:2243   */\n      0x40\n        /* \"#utility.yul\":2230:2239   */\n      dup3\n        /* \"#utility.yul\":2226:2244   */\n      add\n        /* \"#utility.yul\":2218:2244   */\n      swap1\n      pop\n        /* \"#utility.yul\":2254:2319   */\n      tag_59\n        /* \"#utility.yul\":2316:2317   */\n      0x00\n        /* \"#utility.yul\":2305:2314   */\n      dup4\n        /* \"#utility.yul\":2301:2318   */\n      add\n        /* \"#utility.yul\":2292:2298   */\n      dup6\n        /* \"#utility.yul\":2254:2319   */\n      tag_32\n      jump\t// in\n    tag_59:\n        /* \"#utility.yul\":2366:2375   */\n      dup2\n        /* \"#utility.yul\":2360:2364   */\n      dup2\n        /* \"#utility.yul\":2356:2376   */\n      sub\n        /* \"#utility.yul\":2351:2353   */\n      0x20\n        /* \"#utility.yul\":2340:2349   */\n      dup4\n        /* \"#utility.yul\":2336:2354   */\n      add\n        /* \"#utility.yul\":2329:2377   */\n      mstore\n        /* \"#utility.yul\":2394:2470   */\n      tag_60\n        /* \"#utility.yul\":2465:2469   */\n      dup2\n        /* \"#utility.yul\":2456:2462   */\n      dup5\n        /* \"#utility.yul\":2394:2470   */\n      tag_36\n      jump\t// in\n    tag_60:\n        /* \"#utility.yul\":2386:2470   */\n      swap1\n      pop\n        /* \"#utility.yul\":2070:2477   */\n      swap4\n      swap3\n      pop\n      pop\n      pop\n      jump\t// out\n        /* \"#utility.yul\":2483:2705   */\n    tag_9:\n        /* \"#utility.yul\":2576:2580   */\n      0x00\n        /* \"#utility.yul\":2614:2616   */\n      0x20\n        /* \"#utility.yul\":2603:2612   */\n      dup3\n        /* \"#utility.yul\":2599:2617   */\n      add\n        /* \"#utility.yul\":2591:2617   */\n      swap1\n      pop\n        /* \"#utility.yul\":2627:2698   */\n      tag_62\n        /* \"#utility.yul\":2695:2696   */\n      0x00\n        /* \"#utility.yul\":2684:2693   */\n      dup4\n        /* \"#utility.yul\":2680:2697   */\n      add\n        /* \"#utility.yul\":2671:2677   */\n      dup5\n        /* \"#utility.yul\":2627:2698   */\n      tag_52\n      jump\t// in\n    tag_62:\n        /* \"#utility.yul\":2483:2705   */\n      swap3\n      swap2\n      pop\n      pop\n      jump\t// out\n        /* \"#utility.yul\":2792:2890   */\n    tag_39:\n        /* \"#utility.yul\":2843:2849   */\n      0x00\n        /* \"#utility.yul\":2877:2882   */\n      dup2\n        /* \"#utility.yul\":2871:2883   */\n      mload\n        /* \"#utility.yul\":2861:2883   */\n      swap1\n      pop\n        /* \"#utility.yul\":2792:2890   */\n      swap2\n      swap1\n      pop\n      jump\t// out\n        /* \"#utility.yul\":2896:3064   */\n    tag_41:\n        /* \"#utility.yul\":2979:2990   */\n      0x00\n        /* \"#utility.yul\":3013:3019   */\n      dup3\n        /* \"#utility.yul\":3008:3011   */\n      dup3\n        /* \"#utility.yul\":3001:3020   */\n      mstore\n        /* \"#utility.yul\":3053:3057   */\n      0x20\n        /* \"#utility.yul\":3048:3051   */\n      dup3\n        /* \"#utility.yul\":3044:3058   */\n      add\n        /* \"#utility.yul\":3029:3058   */\n      swap1\n      pop\n        /* \"#utility.yul\":2896:3064   */\n      swap3\n      swap2\n      pop\n      pop\n      jump\t// out\n        /* \"#utility.yul\":3070:3217   */\n    tag_50:\n        /* \"#utility.yul\":3171:3182   */\n      0x00\n        /* \"#utility.yul\":3208:3211   */\n      dup2\n        /* \"#utility.yul\":3193:3211   */\n      swap1\n      pop\n        /* \"#utility.yul\":3070:3217   */\n      swap3\n      swap2\n      pop\n      pop\n      jump\t// out\n        /* \"#utility.yul\":3223:3327   */\n    tag_68:\n        /* \"#utility.yul\":3268:3275   */\n      0x00\n        /* \"#utility.yul\":3297:3321   */\n      tag_70\n        /* \"#utility.yul\":3315:3320   */\n      dup3\n        /* \"#utility.yul\":3297:3321   */\n      tag_71\n      jump\t// in\n    tag_70:\n        /* \"#utility.yul\":3286:3321   */\n      swap1\n      pop\n        /* \"#utility.yul\":3223:3327   */\n      swap2\n      swap1\n      pop\n      jump\t// out\n        /* \"#utility.yul\":3333:3423   */\n    tag_35:\n        /* \"#utility.yul\":3367:3374   */\n      0x00\n        /* \"#utility.yul\":3410:3415   */\n      dup2\n        /* \"#utility.yul\":3403:3416   */\n      iszero\n        /* \"#utility.yul\":3396:3417   */\n      iszero\n        /* \"#utility.yul\":3385:3417   */\n      swap1\n      pop\n        /* \"#utility.yul\":3333:3423   */\n      swap2\n      swap1\n      pop\n      jump\t// out\n        /* \"#utility.yul\":3429:3555   */\n    tag_71:\n        /* \"#utility.yul\":3466:3473   */\n      0x00\n        /* \"#utility.yul\":3506:3548   */\n      0xffffffffffffffffffffffffffffffffffffffff\n        /* \"#utility.yul\":3499:3504   */\n      dup3\n        /* \"#utility.yul\":3495:3549   */\n      and\n        /* \"#utility.yul\":3484:3549   */\n      swap1\n      pop\n        /* \"#utility.yul\":3429:3555   */\n      swap2\n      swap1\n      pop\n      jump\t// out\n        /* \"#utility.yul\":3561:3638   */\n    tag_55:\n        /* \"#utility.yul\":3598:3605   */\n      0x00\n        /* \"#utility.yul\":3627:3632   */\n      dup2\n        /* \"#utility.yul\":3616:3632   */\n      swap1\n      pop\n        /* \"#utility.yul\":3561:3638   */\n      swap2\n      swap1\n      pop\n      jump\t// out\n        /* \"#utility.yul\":3644:3951   */\n    tag_43:\n        /* \"#utility.yul\":3712:3713   */\n      0x00\n        /* \"#utility.yul\":3722:3835   */\n    tag_76:\n        /* \"#utility.yul\":3736:3742   */\n      dup4\n        /* \"#utility.yul\":3733:3734   */\n      dup2\n        /* \"#utility.yul\":3730:3743   */\n      lt\n        /* \"#utility.yul\":3722:3835   */\n      iszero\n      tag_78\n      jumpi\n        /* \"#utility.yul\":3821:3822   */\n      dup1\n        /* \"#utility.yul\":3816:3819   */\n      dup3\n        /* \"#utility.yul\":3812:3823   */\n      add\n        /* \"#utility.yul\":3806:3824   */\n      mload\n        /* \"#utility.yul\":3802:3803   */\n      dup2\n        /* \"#utility.yul\":3797:3800   */\n      dup5\n        /* \"#utility.yul\":3793:3804   */\n      add\n        /* \"#utility.yul\":3786:3825   */\n      mstore\n        /* \"#utility.yul\":3758:3760   */\n      0x20\n        /* \"#utility.yul\":3755:3756   */\n      dup2\n        /* \"#utility.yul\":3751:3761   */\n      add\n        /* \"#utility.yul\":3746:3761   */\n      swap1\n      pop\n        /* \"#utility.yul\":3722:3835   */\n      jump(tag_76)\n    tag_78:\n        /* \"#utility.yul\":3853:3859   */\n      dup4\n        /* \"#utility.yul\":3850:3851   */\n      dup2\n        /* \"#utility.yul\":3847:3860   */\n      gt\n        /* \"#utility.yul\":3844:3945   */\n      iszero\n      tag_79\n      jumpi\n        /* \"#utility.yul\":3933:3934   */\n      0x00\n        /* \"#utility.yul\":3924:3930   */\n      dup5\n        /* \"#utility.yul\":3919:3922   */\n      dup5\n        /* \"#utility.yul\":3915:3931   */\n      add\n        /* \"#utility.yul\":3908:3935   */\n      mstore\n        /* \"#utility.yul\":3844:3945   */\n    tag_79:\n        /* \"#utility.yul\":3693:3951   */\n      pop\n        /* \"#utility.yul\":3644:3951   */\n      pop\n      pop\n      pop\n      jump\t// out\n        /* \"#utility.yul\":4080:4197   */\n    tag_29:\n        /* \"#utility.yul\":4189:4190   */\n      0x00\n        /* \"#utility.yul\":4186:4187   */\n      dup1\n        /* \"#utility.yul\":4179:4191   */\n      revert\n        /* \"#utility.yul\":4203:4305   */\n    tag_45:\n        /* \"#utility.yul\":4244:4250   */\n      0x00\n        /* \"#utility.yul\":4295:4297   */\n      0x1f\n        /* \"#utility.yul\":4291:4298   */\n      not\n        /* \"#utility.yul\":4286:4288   */\n      0x1f\n        /* \"#utility.yul\":4279:4284   */\n      dup4\n        /* \"#utility.yul\":4275:4289   */\n      add\n        /* \"#utility.yul\":4271:4299   */\n      and\n        /* \"#utility.yul\":4261:4299   */\n      swap1\n      pop\n        /* \"#utility.yul\":4203:4305   */\n      swap2\n      swap1\n      pop\n      jump\t// out\n        /* \"#utility.yul\":4311:4449   */\n    tag_21:\n        /* \"#utility.yul\":4392:4424   */\n      tag_85\n        /* \"#utility.yul\":4418:4423   */\n      dup2\n        /* \"#utility.yul\":4392:4424   */\n      tag_68\n      jump\t// in\n    tag_85:\n        /* \"#utility.yul\":4385:4390   */\n      dup2\n        /* \"#utility.yul\":4382:4425   */\n      eq\n        /* \"#utility.yul\":4372:4443   */\n      tag_86\n      jumpi\n        /* \"#utility.yul\":4439:4440   */\n      0x00\n        /* \"#utility.yul\":4436:4437   */\n      dup1\n        /* \"#utility.yul\":4429:4441   */\n      revert\n        /* \"#utility.yul\":4372:4443   */\n    tag_86:\n        /* \"#utility.yul\":4311:4449   */\n      pop\n      jump\t// out\n        /* \"#utility.yul\":4455:4577   */\n    tag_25:\n        /* \"#utility.yul\":4528:4552   */\n      tag_88\n        /* \"#utility.yul\":4546:4551   */\n      dup2\n        /* \"#utility.yul\":4528:4552   */\n      tag_55\n      jump\t// in\n    tag_88:\n        /* \"#utility.yul\":4521:4526   */\n      dup2\n        /* \"#utility.yul\":4518:4553   */\n      eq\n        /* \"#utility.yul\":4508:4571   */\n      tag_89\n      jumpi\n        /* \"#utility.yul\":4567:4568   */\n      0x00\n        /* \"#utility.yul\":4564:4565   */\n      dup1\n        /* \"#utility.yul\":4557:4569   */\n      revert\n        /* \"#utility.yul\":4508:4571   */\n    tag_89:\n        /* \"#utility.yul\":4455:4577   */\n      pop\n      jump\t// out\n\n    auxdata: 0xa2646970667358221220298bfe9b4de088843afed17651d4e6c043dd7f2995105227101231672c66ec0f64736f6c63430008070033\n}\n",
				"bytecode": {
					"linkReferences": {},
					"object": "608060405234801561001057600080fd5b506103eb806100206000396000f3fe60806040526004361061001e5760003560e01c80633ca065bb14610023575b600080fd5b61003d600480360381019061003891906101a5565b61003f565b005b6000808373ffffffffffffffffffffffffffffffffffffffff16348460405160240161006b91906102b4565b6040516020818303038152906040527f4018d9aa000000000000000000000000000000000000000000000000000000007bffffffffffffffffffffffffffffffffffffffffffffffffffffffff19166020820180517bffffffffffffffffffffffffffffffffffffffffffffffffffffffff83818316178352505050506040516100f5919061026d565b60006040518083038185875af1925050503d8060008114610132576040519150601f19603f3d011682016040523d82523d6000602084013e610137565b606091505b50915091507f13848c3e38f8886f3f5d2ad9dff80d8092c2bbb8efd5b887a99c2c6cfc09ac2a828260405161016d929190610284565b60405180910390a150505050565b60008135905061018a81610387565b92915050565b60008135905061019f8161039e565b92915050565b600080604083850312156101bc576101bb610371565b5b60006101ca8582860161017b565b92505060206101db85828601610190565b9150509250929050565b6101ee81610308565b82525050565b60006101ff826102cf565b61020981856102da565b935061021981856020860161033e565b61022281610376565b840191505092915050565b6000610238826102cf565b61024281856102eb565b935061025281856020860161033e565b80840191505092915050565b61026781610334565b82525050565b6000610279828461022d565b915081905092915050565b600060408201905061029960008301856101e5565b81810360208301526102ab81846101f4565b90509392505050565b60006020820190506102c9600083018461025e565b92915050565b600081519050919050565b600082825260208201905092915050565b600081905092915050565b600061030182610314565b9050919050565b60008115159050919050565b600073ffffffffffffffffffffffffffffffffffffffff82169050919050565b6000819050919050565b60005b8381101561035c578082015181840152602081019050610341565b8381111561036b576000848401525b50505050565b600080fd5b6000601f19601f8301169050919050565b610390816102f6565b811461039b57600080fd5b50565b6103a781610334565b81146103b257600080fd5b5056fea2646970667358221220298bfe9b4de088843afed17651d4e6c043dd7f2995105227101231672c66ec0f64736f6c63430008070033",
					"opcodes": "PUSH1 0x80 PUSH1 0x40 MSTORE CALLVALUE DUP1 ISZERO PUSH2 0x10 JUMPI PUSH1 0x0 DUP1 REVERT JUMPDEST POP PUSH2 0x3EB DUP1 PUSH2 0x20 PUSH1 0x0 CODECOPY PUSH1 0x0 RETURN INVALID PUSH1 0x80 PUSH1 0x40 MSTORE PUSH1 0x4 CALLDATASIZE LT PUSH2 0x1E JUMPI PUSH1 0x0 CALLDATALOAD PUSH1 0xE0 SHR DUP1 PUSH4 0x3CA065BB EQ PUSH2 0x23 JUMPI JUMPDEST PUSH1 0x0 DUP1 REVERT JUMPDEST PUSH2 0x3D PUSH1 0x4 DUP1 CALLDATASIZE SUB DUP2 ADD SWAP1 PUSH2 0x38 SWAP2 SWAP1 PUSH2 0x1A5 JUMP JUMPDEST PUSH2 0x3F JUMP JUMPDEST STOP JUMPDEST PUSH1 0x0 DUP1 DUP4 PUSH20 0xFFFFFFFFFFFFFFFFFFFFFFFFFFFFFFFFFFFFFFFF AND CALLVALUE DUP5 PUSH1 0x40 MLOAD PUSH1 0x24 ADD PUSH2 0x6B SWAP2 SWAP1 PUSH2 0x2B4 JUMP JUMPDEST PUSH1 0x40 MLOAD PUSH1 0x20 DUP2 DUP4 SUB SUB DUP2 MSTORE SWAP1 PUSH1 0x40 MSTORE PUSH32 0x4018D9AA00000000000000000000000000000000000000000000000000000000 PUSH28 0xFFFFFFFFFFFFFFFFFFFFFFFFFFFFFFFFFFFFFFFFFFFFFFFFFFFFFFFF NOT AND PUSH1 0x20 DUP3 ADD DUP1 MLOAD PUSH28 0xFFFFFFFFFFFFFFFFFFFFFFFFFFFFFFFFFFFFFFFFFFFFFFFFFFFFFFFF DUP4 DUP2 DUP4 AND OR DUP4 MSTORE POP POP POP POP PUSH1 0x40 MLOAD PUSH2 0xF5 SWAP2 SWAP1 PUSH2 0x26D JUMP JUMPDEST PUSH1 0x0 PUSH1 0x40 MLOAD DUP1 DUP4 SUB DUP2 DUP6 DUP8 GAS CALL SWAP3 POP POP POP RETURNDATASIZE DUP1 PUSH1 0x0 DUP2 EQ PUSH2 0x132 JUMPI PUSH1 0x40 MLOAD SWAP2 POP PUSH1 0x1F NOT PUSH1 0x3F RETURNDATASIZE ADD AND DUP3 ADD PUSH1 0x40 MSTORE RETURNDATASIZE DUP3 MSTORE RETURNDATASIZE PUSH1 0x0 PUSH1 0x20 DUP5 ADD RETURNDATACOPY PUSH2 0x137 JUMP JUMPDEST PUSH1 0x60 SWAP2 POP JUMPDEST POP SWAP2 POP SWAP2 POP PUSH32 0x13848C3E38F8886F3F5D2AD9DFF80D8092C2BBB8EFD5B887A99C2C6CFC09AC2A DUP3 DUP3 PUSH1 0x40 MLOAD PUSH2 0x16D SWAP3 SWAP2 SWAP1 PUSH2 0x284 JUMP JUMPDEST PUSH1 0x40 MLOAD DUP1 SWAP2 SUB SWAP1 LOG1 POP POP POP POP JUMP JUMPDEST PUSH1 0x0 DUP2 CALLDATALOAD SWAP1 POP PUSH2 0x18A DUP2 PUSH2 0x387 JUMP JUMPDEST SWAP3 SWAP2 POP POP JUMP JUMPDEST PUSH1 0x0 DUP2 CALLDATALOAD SWAP1 POP PUSH2 0x19F DUP2 PUSH2 0x39E JUMP JUMPDEST SWAP3 SWAP2 POP POP JUMP JUMPDEST PUSH1 0x0 DUP1 PUSH1 0x40 DUP4 DUP6 SUB SLT ISZERO PUSH2 0x1BC JUMPI PUSH2 0x1BB PUSH2 0x371 JUMP JUMPDEST JUMPDEST PUSH1 0x0 PUSH2 0x1CA DUP6 DUP3 DUP7 ADD PUSH2 0x17B JUMP JUMPDEST SWAP3 POP POP PUSH1 0x20 PUSH2 0x1DB DUP6 DUP3 DUP7 ADD PUSH2 0x190 JUMP JUMPDEST SWAP2 POP POP SWAP3 POP SWAP3 SWAP1 POP JUMP JUMPDEST PUSH2 0x1EE DUP2 PUSH2 0x308 JUMP JUMPDEST DUP3 MSTORE POP POP JUMP JUMPDEST PUSH1 0x0 PUSH2 0x1FF DUP3 PUSH2 0x2CF JUMP JUMPDEST PUSH2 0x209 DUP2 DUP6 PUSH2 0x2DA JUMP JUMPDEST SWAP4 POP PUSH2 0x219 DUP2 DUP6 PUSH1 0x20 DUP7 ADD PUSH2 0x33E JUMP JUMPDEST PUSH2 0x222 DUP2 PUSH2 0x376 JUMP JUMPDEST DUP5 ADD SWAP2 POP POP SWAP3 SWAP2 POP POP JUMP JUMPDEST PUSH1 0x0 PUSH2 0x238 DUP3 PUSH2 0x2CF JUMP JUMPDEST PUSH2 0x242 DUP2 DUP6 PUSH2 0x2EB JUMP JUMPDEST SWAP4 POP PUSH2 0x252 DUP2 DUP6 PUSH1 0x20 DUP7 ADD PUSH2 0x33E JUMP JUMPDEST DUP1 DUP5 ADD SWAP2 POP POP SWAP3 SWAP2 POP POP JUMP JUMPDEST PUSH2 0x267 DUP2 PUSH2 0x334 JUMP JUMPDEST DUP3 MSTORE POP POP JUMP JUMPDEST PUSH1 0x0 PUSH2 0x279 DUP3 DUP5 PUSH2 0x22D JUMP JUMPDEST SWAP2 POP DUP2 SWAP1 POP SWAP3 SWAP2 POP POP JUMP JUMPDEST PUSH1 0x0 PUSH1 0x40 DUP3 ADD SWAP1 POP PUSH2 0x299 PUSH1 0x0 DUP4 ADD DUP6 PUSH2 0x1E5 JUMP JUMPDEST DUP2 DUP2 SUB PUSH1 0x20 DUP4 ADD MSTORE PUSH2 0x2AB DUP2 DUP5 PUSH2 0x1F4 JUMP JUMPDEST SWAP1 POP SWAP4 SWAP3 POP POP POP JUMP JUMPDEST PUSH1 0x0 PUSH1 0x20 DUP3 ADD SWAP1 POP PUSH2 0x2C9 PUSH1 0x0 DUP4 ADD DUP5 PUSH2 0x25E JUMP JUMPDEST SWAP3 SWAP2 POP POP JUMP JUMPDEST PUSH1 0x0 DUP2 MLOAD SWAP1 POP SWAP2 SWAP1 POP JUMP JUMPDEST PUSH1 0x0 DUP3 DUP3 MSTORE PUSH1 0x20 DUP3 ADD SWAP1 POP SWAP3 SWAP2 POP POP JUMP JUMPDEST PUSH1 0x0 DUP2 SWAP1 POP SWAP3 SWAP2 POP POP JUMP JUMPDEST PUSH1 0x0 PUSH2 0x301 DUP3 PUSH2 0x314 JUMP JUMPDEST SWAP1 POP SWAP2 SWAP1 POP JUMP JUMPDEST PUSH1 0x0 DUP2 ISZERO ISZERO SWAP1 POP SWAP2 SWAP1 POP JUMP JUMPDEST PUSH1 0x0 PUSH20 0xFFFFFFFFFFFFFFFFFFFFFFFFFFFFFFFFFFFFFFFF DUP3 AND SWAP1 POP SWAP2 SWAP1 POP JUMP JUMPDEST PUSH1 0x0 DUP2 SWAP1 POP SWAP2 SWAP1 POP JUMP JUMPDEST PUSH1 0x0 JUMPDEST DUP4 DUP2 LT ISZERO PUSH2 0x35C JUMPI DUP1 DUP3 ADD MLOAD DUP2 DUP5 ADD MSTORE PUSH1 0x20 DUP2 ADD SWAP1 POP PUSH2 0x341 JUMP JUMPDEST DUP4 DUP2 GT ISZERO PUSH2 0x36B JUMPI PUSH1 0x0 DUP5 DUP5 ADD MSTORE JUMPDEST POP POP POP POP JUMP JUMPDEST PUSH1 0x0 DUP1 REVERT JUMPDEST PUSH1 0x0 PUSH1 0x1F NOT PUSH1 0x1F DUP4 ADD AND SWAP1 POP SWAP2 SWAP1 POP JUMP JUMPDEST PUSH2 0x390 DUP2 PUSH2 0x2F6 JUMP JUMPDEST DUP2 EQ PUSH2 0x39B JUMPI PUSH1 0x0 DUP1 REVERT JUMPDEST POP JUMP JUMPDEST PUSH2 0x3A7 DUP2 PUSH2 0x334 JUMP JUMPDEST DUP2 EQ PUSH2 0x3B2 JUMPI PUSH1 0x0 DUP1 REVERT JUMPDEST POP JUMP INVALID LOG2 PUSH5 0x6970667358 0x22 SLT KECCAK256 0x29 DUP12 INVALID SWAP12 0x4D 0xE0 DUP9 DUP5 GASPRICE INVALID 0xD1 PUSH23 0x51D4E6C043DD7F2995105227101231672C66EC0F64736F PUSH13 0x63430008070033000000000000 "
				},
				"gasEstimates": {
					"creation": {
						"codeDepositCost": "200600",
						"executionCost": "245",
						"totalCost": "200845"
					},
					"external": {
						"callSetX(address,uint256)": "infinite"
					}
				},
				"methodIdentifiers": {
					"callSetX(address,uint256)": "3ca065bb"
				}
			},
			"storageLayout": {
				"storage": [],
				"types": null
			},
			"userdoc": {
				"kind": "user",
				"methods": {},
				"version": 1
			}
		}
	}
}