{
	"contracts/EnglishAuction.sol": {
		"EnglishAuction": {
			"abi": [
				{
					"inputs": [
						{
							"internalType": "address",
							"name": "_nft",
							"type": "address"
						},
						{
							"internalType": "uint256",
							"name": "_nftId",
							"type": "uint256"
						},
						{
							"internalType": "uint256",
							"name": "_startingBid",
							"type": "uint256"
						}
					],
					"stateMutability": "nonpayable",
					"type": "constructor"
				},
				{
					"anonymous": false,
					"inputs": [
						{
							"indexed": true,
							"internalType": "address",
							"name": "sender",
							"type": "address"
						},
						{
							"indexed": false,
							"internalType": "uint256",
							"name": "amount",
							"type": "uint256"
						}
					],
					"name": "Bid",
					"type": "event"
				},
				{
					"anonymous": false,
					"inputs": [
						{
							"indexed": false,
							"internalType": "address",
							"name": "highestBidder",
							"type": "address"
						},
						{
							"indexed": false,
							"internalType": "uint256",
							"name": "amount",
							"type": "uint256"
						}
					],
					"name": "End",
					"type": "event"
				},
				{
					"anonymous": false,
					"inputs": [],
					"name": "Start",
					"type": "event"
				},
				{
					"anonymous": false,
					"inputs": [
						{
							"indexed": true,
							"internalType": "address",
							"name": "bidder",
							"type": "address"
						},
						{
							"indexed": false,
							"internalType": "uint256",
							"name": "amount",
							"type": "uint256"
						}
					],
					"name": "Withdraw",
					"type": "event"
				},
				{
					"inputs": [],
					"name": "bid",
					"outputs": [],
					"stateMutability": "payable",
					"type": "function"
				},
				{
					"inputs": [
						{
							"internalType": "address",
							"name": "",
							"type": "address"
						}
					],
					"name": "bids",
					"outputs": [
						{
							"internalType": "uint256",
							"name": "",
							"type": "uint256"
						}
					],
					"stateMutability": "view",
					"type": "function"
				},
				{
					"inputs": [],
					"name": "end",
					"outputs": [],
					"stateMutability": "nonpayable",
					"type": "function"
				},
				{
					"inputs": [],
					"name": "endAt",
					"outputs": [
						{
							"internalType": "uint32",
							"name": "",
							"type": "uint32"
						}
					],
					"stateMutability": "view",
					"type": "function"
				},
				{
					"inputs": [],
					"name": "ended",
					"outputs": [
						{
							"internalType": "bool",
							"name": "",
							"type": "bool"
						}
					],
					"stateMutability": "view",
					"type": "function"
				},
				{
					"inputs": [],
					"name": "highestBid",
					"outputs": [
						{
							"internalType": "uint256",
							"name": "",
							"type": "uint256"
						}
					],
					"stateMutability": "view",
					"type": "function"
				},
				{
					"inputs": [],
					"name": "highestBidder",
					"outputs": [
						{
							"internalType": "address",
							"name": "",
							"type": "address"
						}
					],
					"stateMutability": "view",
					"type": "function"
				},
				{
					"inputs": [],
					"name": "nft",
					"outputs": [
						{
							"internalType": "contract IERC721",
							"name": "",
							"type": "address"
						}
					],
					"stateMutability": "view",
					"type": "function"
				},
				{
					"inputs": [],
					"name": "nftId",
					"outputs": [
						{
							"internalType": "uint256",
							"name": "",
							"type": "uint256"
						}
					],
					"stateMutability": "view",
					"type": "function"
				},
				{
					"inputs": [],
					"name": "seller",
					"outputs": [
						{
							"internalType": "address payable",
							"name": "",
							"type": "address"
						}
					],
					"stateMutability": "view",
					"type": "function"
				},
				{
					"inputs": [],
					"name": "start",
					"outputs": [],
					"stateMutability": "nonpayable",
					"type": "function"
				},
				{
					"inputs": [],
					"name": "started",
					"outputs": [
						{
							"internalType": "bool",
							"name": "",
							"type": "bool"
						}
					],
					"stateMutability": "view",
					"type": "function"
				},
				{
					"inputs": [],
					"name": "withdraw",
					"outputs": [],
					"stateMutability": "nonpayable",
					"type": "function"
				}
			],
			"devdoc": {
				"kind": "dev",
				"methods": {},
				"version": 1
			},
			"evm": {
				"assembly": "    /* \"contracts/EnglishAuction.sol\":183:2187  contract EnglishAuction { ... */\n  mstore(0x40, 0xe0)\n    /* \"contracts/EnglishAuction.sol\":696:917  constructor(... */\n  callvalue\n  dup1\n  iszero\n  tag_1\n  jumpi\n  0x00\n  dup1\n  revert\ntag_1:\n  pop\n  mload(0x40)\n  sub(codesize, bytecodeSize)\n  dup1\n  bytecodeSize\n  dup4\n  codecopy\n  dup2\n  dup2\n  add\n  0x40\n  mstore\n  dup2\n  add\n  swap1\n  tag_2\n  swap2\n  swap1\n  tag_3\n  jump\t// in\ntag_2:\n    /* \"contracts/EnglishAuction.sol\":808:812  _nft */\n  dup3\n    /* \"contracts/EnglishAuction.sol\":794:813  nft = IERC721(_nft) */\n  0xffffffffffffffffffffffffffffffffffffffff\n  and\n  0x80\n  dup2\n  0xffffffffffffffffffffffffffffffffffffffff\n  and\n  0x60\n  shl\n  dup2\n  mstore\n  pop\n  pop\n    /* \"contracts/EnglishAuction.sol\":831:837  _nftId */\n  dup2\n    /* \"contracts/EnglishAuction.sol\":823:837  nftId = _nftId */\n  0xa0\n  dup2\n  dup2\n  mstore\n  pop\n  pop\n    /* \"contracts/EnglishAuction.sol\":864:874  msg.sender */\n  caller\n    /* \"contracts/EnglishAuction.sol\":847:875  seller = payable(msg.sender) */\n  0xffffffffffffffffffffffffffffffffffffffff\n  and\n  0xc0\n  dup2\n  0xffffffffffffffffffffffffffffffffffffffff\n  and\n  0x60\n  shl\n  dup2\n  mstore\n  pop\n  pop\n    /* \"contracts/EnglishAuction.sol\":898:910  _startingBid */\n  dup1\n    /* \"contracts/EnglishAuction.sol\":885:895  highestBid */\n  0x01\n    /* \"contracts/EnglishAuction.sol\":885:910  highestBid = _startingBid */\n  dup2\n  swap1\n  sstore\n  pop\n    /* \"contracts/EnglishAuction.sol\":696:917  constructor(... */\n  pop\n  pop\n  pop\n    /* \"contracts/EnglishAuction.sol\":183:2187  contract EnglishAuction { ... */\n  jump(tag_6)\n    /* \"#utility.yul\":7:150   */\ntag_8:\n    /* \"#utility.yul\":64:69   */\n  0x00\n    /* \"#utility.yul\":95:101   */\n  dup2\n    /* \"#utility.yul\":89:102   */\n  mload\n    /* \"#utility.yul\":80:102   */\n  swap1\n  pop\n    /* \"#utility.yul\":111:144   */\n  tag_10\n    /* \"#utility.yul\":138:143   */\n  dup2\n    /* \"#utility.yul\":111:144   */\n  tag_11\n  jump\t// in\ntag_10:\n    /* \"#utility.yul\":7:150   */\n  swap3\n  swap2\n  pop\n  pop\n  jump\t// out\n    /* \"#utility.yul\":156:299   */\ntag_12:\n    /* \"#utility.yul\":213:218   */\n  0x00\n    /* \"#utility.yul\":244:250   */\n  dup2\n    /* \"#utility.yul\":238:251   */\n  mload\n    /* \"#utility.yul\":229:251   */\n  swap1\n  pop\n    /* \"#utility.yul\":260:293   */\n  tag_14\n    /* \"#utility.yul\":287:292   */\n  dup2\n    /* \"#utility.yul\":260:293   */\n  tag_15\n  jump\t// in\ntag_14:\n    /* \"#utility.yul\":156:299   */\n  swap3\n  swap2\n  pop\n  pop\n  jump\t// out\n    /* \"#utility.yul\":305:968   */\ntag_3:\n    /* \"#utility.yul\":393:399   */\n  0x00\n    /* \"#utility.yul\":401:407   */\n  dup1\n    /* \"#utility.yul\":409:415   */\n  0x00\n    /* \"#utility.yul\":458:460   */\n  0x60\n    /* \"#utility.yul\":446:455   */\n  dup5\n    /* \"#utility.yul\":437:444   */\n  dup7\n    /* \"#utility.yul\":433:456   */\n  sub\n    /* \"#utility.yul\":429:461   */\n  slt\n    /* \"#utility.yul\":426:545   */\n  iszero\n  tag_17\n  jumpi\n    /* \"#utility.yul\":464:543   */\n  tag_18\n  tag_19\n  jump\t// in\ntag_18:\n    /* \"#utility.yul\":426:545   */\ntag_17:\n    /* \"#utility.yul\":584:585   */\n  0x00\n    /* \"#utility.yul\":609:673   */\n  tag_20\n    /* \"#utility.yul\":665:672   */\n  dup7\n    /* \"#utility.yul\":656:662   */\n  dup3\n    /* \"#utility.yul\":645:654   */\n  dup8\n    /* \"#utility.yul\":641:663   */\n  add\n    /* \"#utility.yul\":609:673   */\n  tag_8\n  jump\t// in\ntag_20:\n    /* \"#utility.yul\":599:673   */\n  swap4\n  pop\n    /* \"#utility.yul\":555:683   */\n  pop\n    /* \"#utility.yul\":722:724   */\n  0x20\n    /* \"#utility.yul\":748:812   */\n  tag_21\n    /* \"#utility.yul\":804:811   */\n  dup7\n    /* \"#utility.yul\":795:801   */\n  dup3\n    /* \"#utility.yul\":784:793   */\n  dup8\n    /* \"#utility.yul\":780:802   */\n  add\n    /* \"#utility.yul\":748:812   */\n  tag_12\n  jump\t// in\ntag_21:\n    /* \"#utility.yul\":738:812   */\n  swap3\n  pop\n    /* \"#utility.yul\":693:822   */\n  pop\n    /* \"#utility.yul\":861:863   */\n  0x40\n    /* \"#utility.yul\":887:951   */\n  tag_22\n    /* \"#utility.yul\":943:950   */\n  dup7\n    /* \"#utility.yul\":934:940   */\n  dup3\n    /* \"#utility.yul\":923:932   */\n  dup8\n    /* \"#utility.yul\":919:941   */\n  add\n    /* \"#utility.yul\":887:951   */\n  tag_12\n  jump\t// in\ntag_22:\n    /* \"#utility.yul\":877:951   */\n  swap2\n  pop\n    /* \"#utility.yul\":832:961   */\n  pop\n    /* \"#utility.yul\":305:968   */\n  swap3\n  pop\n  swap3\n  pop\n  swap3\n  jump\t// out\n    /* \"#utility.yul\":1055:1151   */\ntag_25:\n    /* \"#utility.yul\":1092:1099   */\n  0x00\n    /* \"#utility.yul\":1121:1145   */\n  tag_27\n    /* \"#utility.yul\":1139:1144   */\n  dup3\n    /* \"#utility.yul\":1121:1145   */\n  tag_28\n  jump\t// in\ntag_27:\n    /* \"#utility.yul\":1110:1145   */\n  swap1\n  pop\n    /* \"#utility.yul\":1055:1151   */\n  swap2\n  swap1\n  pop\n  jump\t// out\n    /* \"#utility.yul\":1157:1283   */\ntag_28:\n    /* \"#utility.yul\":1194:1201   */\n  0x00\n    /* \"#utility.yul\":1234:1276   */\n  0xffffffffffffffffffffffffffffffffffffffff\n    /* \"#utility.yul\":1227:1232   */\n  dup3\n    /* \"#utility.yul\":1223:1277   */\n  and\n    /* \"#utility.yul\":1212:1277   */\n  swap1\n  pop\n    /* \"#utility.yul\":1157:1283   */\n  swap2\n  swap1\n  pop\n  jump\t// out\n    /* \"#utility.yul\":1289:1366   */\ntag_30:\n    /* \"#utility.yul\":1326:1333   */\n  0x00\n    /* \"#utility.yul\":1355:1360   */\n  dup2\n    /* \"#utility.yul\":1344:1360   */\n  swap1\n  pop\n    /* \"#utility.yul\":1289:1366   */\n  swap2\n  swap1\n  pop\n  jump\t// out\n    /* \"#utility.yul\":1495:1612   */\ntag_19:\n    /* \"#utility.yul\":1604:1605   */\n  0x00\n    /* \"#utility.yul\":1601:1602   */\n  dup1\n    /* \"#utility.yul\":1594:1606   */\n  revert\n    /* \"#utility.yul\":1618:1740   */\ntag_11:\n    /* \"#utility.yul\":1691:1715   */\n  tag_36\n    /* \"#utility.yul\":1709:1714   */\n  dup2\n    /* \"#utility.yul\":1691:1715   */\n  tag_25\n  jump\t// in\ntag_36:\n    /* \"#utility.yul\":1684:1689   */\n  dup2\n    /* \"#utility.yul\":1681:1716   */\n  eq\n    /* \"#utility.yul\":1671:1734   */\n  tag_37\n  jumpi\n    /* \"#utility.yul\":1730:1731   */\n  0x00\n    /* \"#utility.yul\":1727:1728   */\n  dup1\n    /* \"#utility.yul\":1720:1732   */\n  revert\n    /* \"#utility.yul\":1671:1734   */\ntag_37:\n    /* \"#utility.yul\":1618:1740   */\n  pop\n  jump\t// out\n    /* \"#utility.yul\":1746:1868   */\ntag_15:\n    /* \"#utility.yul\":1819:1843   */\n  tag_39\n    /* \"#utility.yul\":1837:1842   */\n  dup2\n    /* \"#utility.yul\":1819:1843   */\n  tag_30\n  jump\t// in\ntag_39:\n    /* \"#utility.yul\":1812:1817   */\n  dup2\n    /* \"#utility.yul\":1809:1844   */\n  eq\n    /* \"#utility.yul\":1799:1862   */\n  tag_40\n  jumpi\n    /* \"#utility.yul\":1858:1859   */\n  0x00\n    /* \"#utility.yul\":1855:1856   */\n  dup1\n    /* \"#utility.yul\":1848:1860   */\n  revert\n    /* \"#utility.yul\":1799:1862   */\ntag_40:\n    /* \"#utility.yul\":1746:1868   */\n  pop\n  jump\t// out\n    /* \"contracts/EnglishAuction.sol\":183:2187  contract EnglishAuction { ... */\ntag_6:\n  shr(0x60, mload(0x80))\n  mload(0xa0)\n  shr(0x60, mload(0xc0))\n  codecopy(0x00, dataOffset(sub_0), dataSize(sub_0))\n  0x00\n  assignImmutable(\"0xd67d834462ca31eaef1f30157e31659f60355143b7441e6fc7d9eae1fa79f3f8\")\n  0x00\n  assignImmutable(\"0x3b4066bd7b7960752225af105d3beafb5c47a26c5aae7e6798a437b7c0bb33e6\")\n  0x00\n  assignImmutable(\"0x77c32b454bb61eb9df9e3848d0ded3e59753acda90ae58befe564733aec82e4c\")\n  return(0x00, dataSize(sub_0))\nstop\n\nsub_0: assembly {\n        /* \"contracts/EnglishAuction.sol\":183:2187  contract EnglishAuction { ... */\n      mstore(0x40, 0x80)\n      jumpi(tag_1, lt(calldatasize, 0x04))\n      shr(0xe0, calldataload(0x00))\n      dup1\n      0x62ea82db\n      gt\n      tag_15\n      jumpi\n      dup1\n      0xbe9a6555\n      gt\n      tag_16\n      jumpi\n      dup1\n      0xbe9a6555\n      eq\n      tag_11\n      jumpi\n      dup1\n      0xc6bc5182\n      eq\n      tag_12\n      jumpi\n      dup1\n      0xd57bde79\n      eq\n      tag_13\n      jumpi\n      dup1\n      0xefbe1c1c\n      eq\n      tag_14\n      jumpi\n      jump(tag_1)\n    tag_16:\n      dup1\n      0x62ea82db\n      eq\n      tag_8\n      jumpi\n      dup1\n      0x7cc3ae8c\n      eq\n      tag_9\n      jumpi\n      dup1\n      0x91f90157\n      eq\n      tag_10\n      jumpi\n      jump(tag_1)\n    tag_15:\n      dup1\n      0x08551a53\n      eq\n      tag_2\n      jumpi\n      dup1\n      0x12fa6feb\n      eq\n      tag_3\n      jumpi\n      dup1\n      0x1998aeef\n      eq\n      tag_4\n      jumpi\n      dup1\n      0x1f2698ab\n      eq\n      tag_5\n      jumpi\n      dup1\n      0x3ccfd60b\n      eq\n      tag_6\n      jumpi\n      dup1\n      0x47ccca02\n      eq\n      tag_7\n      jumpi\n    tag_1:\n      0x00\n      dup1\n      revert\n        /* \"contracts/EnglishAuction.sol\":467:506  address payable public immutable seller */\n    tag_2:\n      callvalue\n      dup1\n      iszero\n      tag_17\n      jumpi\n      0x00\n      dup1\n      revert\n    tag_17:\n      pop\n      tag_18\n      tag_19\n      jump\t// in\n    tag_18:\n      mload(0x40)\n      tag_20\n      swap2\n      swap1\n      tag_21\n      jump\t// in\n    tag_20:\n      mload(0x40)\n      dup1\n      swap2\n      sub\n      swap1\n      return\n        /* \"contracts/EnglishAuction.sol\":562:579  bool public ended */\n    tag_3:\n      callvalue\n      dup1\n      iszero\n      tag_22\n      jumpi\n      0x00\n      dup1\n      revert\n    tag_22:\n      pop\n      tag_23\n      tag_24\n      jump\t// in\n    tag_23:\n      mload(0x40)\n      tag_25\n      swap2\n      swap1\n      tag_26\n      jump\t// in\n    tag_25:\n      mload(0x40)\n      dup1\n      swap2\n      sub\n      swap1\n      return\n        /* \"contracts/EnglishAuction.sol\":1196:1579  function bid() external payable {... */\n    tag_4:\n      tag_27\n      tag_28\n      jump\t// in\n    tag_27:\n      stop\n        /* \"contracts/EnglishAuction.sol\":537:556  bool public started */\n    tag_5:\n      callvalue\n      dup1\n      iszero\n      tag_29\n      jumpi\n      0x00\n      dup1\n      revert\n    tag_29:\n      pop\n      tag_30\n      tag_31\n      jump\t// in\n    tag_30:\n      mload(0x40)\n      tag_32\n      swap2\n      swap1\n      tag_26\n      jump\t// in\n    tag_32:\n      mload(0x40)\n      dup1\n      swap2\n      sub\n      swap1\n      return\n        /* \"contracts/EnglishAuction.sol\":1585:1771  function withdraw() external {... */\n    tag_6:\n      callvalue\n      dup1\n      iszero\n      tag_33\n      jumpi\n      0x00\n      dup1\n      revert\n    tag_33:\n      pop\n      tag_34\n      tag_35\n      jump\t// in\n    tag_34:\n      stop\n        /* \"contracts/EnglishAuction.sol\":399:427  IERC721 public immutable nft */\n    tag_7:\n      callvalue\n      dup1\n      iszero\n      tag_36\n      jumpi\n      0x00\n      dup1\n      revert\n    tag_36:\n      pop\n      tag_37\n      tag_38\n      jump\t// in\n    tag_37:\n      mload(0x40)\n      tag_39\n      swap2\n      swap1\n      tag_40\n      jump\t// in\n    tag_39:\n      mload(0x40)\n      dup1\n      swap2\n      sub\n      swap1\n      return\n        /* \"contracts/EnglishAuction.sol\":649:685  mapping(address => uint) public bids */\n    tag_8:\n      callvalue\n      dup1\n      iszero\n      tag_41\n      jumpi\n      0x00\n      dup1\n      revert\n    tag_41:\n      pop\n      tag_42\n      0x04\n      dup1\n      calldatasize\n      sub\n      dup2\n      add\n      swap1\n      tag_43\n      swap2\n      swap1\n      tag_44\n      jump\t// in\n    tag_43:\n      tag_45\n      jump\t// in\n    tag_42:\n      mload(0x40)\n      tag_46\n      swap2\n      swap1\n      tag_47\n      jump\t// in\n    tag_46:\n      mload(0x40)\n      dup1\n      swap2\n      sub\n      swap1\n      return\n        /* \"contracts/EnglishAuction.sol\":512:531  uint32 public endAt */\n    tag_9:\n      callvalue\n      dup1\n      iszero\n      tag_48\n      jumpi\n      0x00\n      dup1\n      revert\n    tag_48:\n      pop\n      tag_49\n      tag_50\n      jump\t// in\n    tag_49:\n      mload(0x40)\n      tag_51\n      swap2\n      swap1\n      tag_52\n      jump\t// in\n    tag_51:\n      mload(0x40)\n      dup1\n      swap2\n      sub\n      swap1\n      return\n        /* \"contracts/EnglishAuction.sol\":586:614  address public highestBidder */\n    tag_10:\n      callvalue\n      dup1\n      iszero\n      tag_53\n      jumpi\n      0x00\n      dup1\n      revert\n    tag_53:\n      pop\n      tag_54\n      tag_55\n      jump\t// in\n    tag_54:\n      mload(0x40)\n      tag_56\n      swap2\n      swap1\n      tag_57\n      jump\t// in\n    tag_56:\n      mload(0x40)\n      dup1\n      swap2\n      sub\n      swap1\n      return\n        /* \"contracts/EnglishAuction.sol\":923:1190  function start() external {... */\n    tag_11:\n      callvalue\n      dup1\n      iszero\n      tag_58\n      jumpi\n      0x00\n      dup1\n      revert\n    tag_58:\n      pop\n      tag_59\n      tag_60\n      jump\t// in\n    tag_59:\n      stop\n        /* \"contracts/EnglishAuction.sol\":433:460  uint public immutable nftId */\n    tag_12:\n      callvalue\n      dup1\n      iszero\n      tag_61\n      jumpi\n      0x00\n      dup1\n      revert\n    tag_61:\n      pop\n      tag_62\n      tag_63\n      jump\t// in\n    tag_62:\n      mload(0x40)\n      tag_64\n      swap2\n      swap1\n      tag_47\n      jump\t// in\n    tag_64:\n      mload(0x40)\n      dup1\n      swap2\n      sub\n      swap1\n      return\n        /* \"contracts/EnglishAuction.sol\":620:642  uint public highestBid */\n    tag_13:\n      callvalue\n      dup1\n      iszero\n      tag_65\n      jumpi\n      0x00\n      dup1\n      revert\n    tag_65:\n      pop\n      tag_66\n      tag_67\n      jump\t// in\n    tag_66:\n      mload(0x40)\n      tag_68\n      swap2\n      swap1\n      tag_47\n      jump\t// in\n    tag_68:\n      mload(0x40)\n      dup1\n      swap2\n      sub\n      swap1\n      return\n        /* \"contracts/EnglishAuction.sol\":1777:2184  function end() external {... */\n    tag_14:\n      callvalue\n      dup1\n      iszero\n      tag_69\n      jumpi\n      0x00\n      dup1\n      revert\n    tag_69:\n      pop\n      tag_70\n      tag_71\n      jump\t// in\n    tag_70:\n      stop\n        /* \"contracts/EnglishAuction.sol\":467:506  address payable public immutable seller */\n    tag_19:\n      immutable(\"0xd67d834462ca31eaef1f30157e31659f60355143b7441e6fc7d9eae1fa79f3f8\")\n      dup2\n      jump\t// out\n        /* \"contracts/EnglishAuction.sol\":562:579  bool public ended */\n    tag_24:\n      0x00\n      0x05\n      swap1\n      sload\n      swap1\n      0x0100\n      exp\n      swap1\n      div\n      0xff\n      and\n      dup2\n      jump\t// out\n        /* \"contracts/EnglishAuction.sol\":1196:1579  function bid() external payable {... */\n    tag_28:\n        /* \"contracts/EnglishAuction.sol\":1246:1253  started */\n      0x00\n      0x04\n      swap1\n      sload\n      swap1\n      0x0100\n      exp\n      swap1\n      div\n      0xff\n      and\n        /* \"contracts/EnglishAuction.sol\":1238:1261  require(started, \"not\") */\n      tag_73\n      jumpi\n      mload(0x40)\n      0x08c379a000000000000000000000000000000000000000000000000000000000\n      dup2\n      mstore\n      0x04\n      add\n      tag_74\n      swap1\n      tag_75\n      jump\t// in\n    tag_74:\n      mload(0x40)\n      dup1\n      swap2\n      sub\n      swap1\n      revert\n    tag_73:\n        /* \"contracts/EnglishAuction.sol\":1297:1302  endAt */\n      0x00\n      dup1\n      sload\n      swap1\n      0x0100\n      exp\n      swap1\n      div\n      0xffffffff\n      and\n        /* \"contracts/EnglishAuction.sol\":1279:1302  block.timestamp < endAt */\n      0xffffffff\n      and\n        /* \"contracts/EnglishAuction.sol\":1279:1294  block.timestamp */\n      timestamp\n        /* \"contracts/EnglishAuction.sol\":1279:1302  block.timestamp < endAt */\n      lt\n        /* \"contracts/EnglishAuction.sol\":1271:1312  require(block.timestamp < endAt, \"ended\") */\n      tag_76\n      jumpi\n      mload(0x40)\n      0x08c379a000000000000000000000000000000000000000000000000000000000\n      dup2\n      mstore\n      0x04\n      add\n      tag_77\n      swap1\n      tag_78\n      jump\t// in\n    tag_77:\n      mload(0x40)\n      dup1\n      swap2\n      sub\n      swap1\n      revert\n    tag_76:\n        /* \"contracts/EnglishAuction.sol\":1342:1352  highestBid */\n      sload(0x01)\n        /* \"contracts/EnglishAuction.sol\":1330:1339  msg.value */\n      callvalue\n        /* \"contracts/EnglishAuction.sol\":1330:1352  msg.value > highestBid */\n      gt\n        /* \"contracts/EnglishAuction.sol\":1322:1362  require(msg.value > highestBid, \"value\") */\n      tag_79\n      jumpi\n      mload(0x40)\n      0x08c379a000000000000000000000000000000000000000000000000000000000\n      dup2\n      mstore\n      0x04\n      add\n      tag_80\n      swap1\n      tag_81\n      jump\t// in\n    tag_80:\n      mload(0x40)\n      dup1\n      swap2\n      sub\n      swap1\n      revert\n    tag_79:\n        /* \"contracts/EnglishAuction.sol\":1401:1402  0 */\n      0x00\n        /* \"contracts/EnglishAuction.sol\":1376:1403  highestBidder != address(0) */\n      0xffffffffffffffffffffffffffffffffffffffff\n      and\n        /* \"contracts/EnglishAuction.sol\":1376:1389  highestBidder */\n      0x00\n      0x06\n      swap1\n      sload\n      swap1\n      0x0100\n      exp\n      swap1\n      div\n      0xffffffffffffffffffffffffffffffffffffffff\n      and\n        /* \"contracts/EnglishAuction.sol\":1376:1403  highestBidder != address(0) */\n      0xffffffffffffffffffffffffffffffffffffffff\n      and\n      eq\n        /* \"contracts/EnglishAuction.sol\":1373:1463  if(highestBidder != address(0)) {... */\n      tag_82\n      jumpi\n        /* \"contracts/EnglishAuction.sol\":1442:1452  highestBid */\n      sload(0x01)\n        /* \"contracts/EnglishAuction.sol\":1419:1423  bids */\n      0x02\n        /* \"contracts/EnglishAuction.sol\":1419:1438  bids[highestBidder] */\n      0x00\n        /* \"contracts/EnglishAuction.sol\":1424:1437  highestBidder */\n      dup1\n      0x06\n      swap1\n      sload\n      swap1\n      0x0100\n      exp\n      swap1\n      div\n      0xffffffffffffffffffffffffffffffffffffffff\n      and\n        /* \"contracts/EnglishAuction.sol\":1419:1438  bids[highestBidder] */\n      0xffffffffffffffffffffffffffffffffffffffff\n      and\n      0xffffffffffffffffffffffffffffffffffffffff\n      and\n      dup2\n      mstore\n      0x20\n      add\n      swap1\n      dup2\n      mstore\n      0x20\n      add\n      0x00\n      keccak256\n      0x00\n        /* \"contracts/EnglishAuction.sol\":1419:1452  bids[highestBidder] += highestBid */\n      dup3\n      dup3\n      sload\n      tag_83\n      swap2\n      swap1\n      tag_84\n      jump\t// in\n    tag_83:\n      swap3\n      pop\n      pop\n      dup2\n      swap1\n      sstore\n      pop\n        /* \"contracts/EnglishAuction.sol\":1373:1463  if(highestBidder != address(0)) {... */\n    tag_82:\n        /* \"contracts/EnglishAuction.sol\":1485:1494  msg.value */\n      callvalue\n        /* \"contracts/EnglishAuction.sol\":1472:1482  highestBid */\n      0x01\n        /* \"contracts/EnglishAuction.sol\":1472:1494  highestBid = msg.value */\n      dup2\n      swap1\n      sstore\n      pop\n        /* \"contracts/EnglishAuction.sol\":1520:1530  msg.sender */\n      caller\n        /* \"contracts/EnglishAuction.sol\":1504:1517  highestBidder */\n      0x00\n      0x06\n        /* \"contracts/EnglishAuction.sol\":1504:1530  highestBidder = msg.sender */\n      0x0100\n      exp\n      dup2\n      sload\n      dup2\n      0xffffffffffffffffffffffffffffffffffffffff\n      mul\n      not\n      and\n      swap1\n      dup4\n      0xffffffffffffffffffffffffffffffffffffffff\n      and\n      mul\n      or\n      swap1\n      sstore\n      pop\n        /* \"contracts/EnglishAuction.sol\":1550:1560  msg.sender */\n      caller\n        /* \"contracts/EnglishAuction.sol\":1546:1572  Bid(msg.sender, msg.value) */\n      0xffffffffffffffffffffffffffffffffffffffff\n      and\n      0xe684a55f31b79eca403df938249029212a5925ec6be8012e099b45bc1019e5d2\n        /* \"contracts/EnglishAuction.sol\":1562:1571  msg.value */\n      callvalue\n        /* \"contracts/EnglishAuction.sol\":1546:1572  Bid(msg.sender, msg.value) */\n      mload(0x40)\n      tag_85\n      swap2\n      swap1\n      tag_47\n      jump\t// in\n    tag_85:\n      mload(0x40)\n      dup1\n      swap2\n      sub\n      swap1\n      log2\n        /* \"contracts/EnglishAuction.sol\":1196:1579  function bid() external payable {... */\n      jump\t// out\n        /* \"contracts/EnglishAuction.sol\":537:556  bool public started */\n    tag_31:\n      0x00\n      0x04\n      swap1\n      sload\n      swap1\n      0x0100\n      exp\n      swap1\n      div\n      0xff\n      and\n      dup2\n      jump\t// out\n        /* \"contracts/EnglishAuction.sol\":1585:1771  function withdraw() external {... */\n    tag_35:\n        /* \"contracts/EnglishAuction.sol\":1624:1632  uint bal */\n      0x00\n        /* \"contracts/EnglishAuction.sol\":1635:1639  bids */\n      0x02\n        /* \"contracts/EnglishAuction.sol\":1635:1651  bids[msg.sender] */\n      0x00\n        /* \"contracts/EnglishAuction.sol\":1640:1650  msg.sender */\n      caller\n        /* \"contracts/EnglishAuction.sol\":1635:1651  bids[msg.sender] */\n      0xffffffffffffffffffffffffffffffffffffffff\n      and\n      0xffffffffffffffffffffffffffffffffffffffff\n      and\n      dup2\n      mstore\n      0x20\n      add\n      swap1\n      dup2\n      mstore\n      0x20\n      add\n      0x00\n      keccak256\n      sload\n        /* \"contracts/EnglishAuction.sol\":1624:1651  uint bal = bids[msg.sender] */\n      swap1\n      pop\n        /* \"contracts/EnglishAuction.sol\":1680:1681  0 */\n      0x00\n        /* \"contracts/EnglishAuction.sol\":1661:1665  bids */\n      0x02\n        /* \"contracts/EnglishAuction.sol\":1661:1677  bids[msg.sender] */\n      0x00\n        /* \"contracts/EnglishAuction.sol\":1666:1676  msg.sender */\n      caller\n        /* \"contracts/EnglishAuction.sol\":1661:1677  bids[msg.sender] */\n      0xffffffffffffffffffffffffffffffffffffffff\n      and\n      0xffffffffffffffffffffffffffffffffffffffff\n      and\n      dup2\n      mstore\n      0x20\n      add\n      swap1\n      dup2\n      mstore\n      0x20\n      add\n      0x00\n      keccak256\n        /* \"contracts/EnglishAuction.sol\":1661:1681  bids[msg.sender] = 0 */\n      dup2\n      swap1\n      sstore\n      pop\n        /* \"contracts/EnglishAuction.sol\":1699:1709  msg.sender */\n      caller\n        /* \"contracts/EnglishAuction.sol\":1691:1719  payable(msg.sender).transfer */\n      0xffffffffffffffffffffffffffffffffffffffff\n      and\n        /* \"contracts/EnglishAuction.sol\":1691:1724  payable(msg.sender).transfer(bal) */\n      0x08fc\n        /* \"contracts/EnglishAuction.sol\":1720:1723  bal */\n      dup3\n        /* \"contracts/EnglishAuction.sol\":1691:1724  payable(msg.sender).transfer(bal) */\n      swap1\n      dup2\n      iszero\n      mul\n      swap1\n      mload(0x40)\n      0x00\n      mload(0x40)\n      dup1\n      dup4\n      sub\n      dup2\n      dup6\n      dup9\n      dup9\n      call\n      swap4\n      pop\n      pop\n      pop\n      pop\n      iszero\n      dup1\n      iszero\n      tag_88\n      jumpi\n      returndatasize\n      0x00\n      dup1\n      returndatacopy\n      revert(0x00, returndatasize)\n    tag_88:\n      pop\n        /* \"contracts/EnglishAuction.sol\":1748:1758  msg.sender */\n      caller\n        /* \"contracts/EnglishAuction.sol\":1739:1764  Withdraw(msg.sender, bal) */\n      0xffffffffffffffffffffffffffffffffffffffff\n      and\n      0x884edad9ce6fa2440d8a54cc123490eb96d2768479d49ff9c7366125a9424364\n        /* \"contracts/EnglishAuction.sol\":1760:1763  bal */\n      dup3\n        /* \"contracts/EnglishAuction.sol\":1739:1764  Withdraw(msg.sender, bal) */\n      mload(0x40)\n      tag_89\n      swap2\n      swap1\n      tag_47\n      jump\t// in\n    tag_89:\n      mload(0x40)\n      dup1\n      swap2\n      sub\n      swap1\n      log2\n        /* \"contracts/EnglishAuction.sol\":1614:1771  {... */\n      pop\n        /* \"contracts/EnglishAuction.sol\":1585:1771  function withdraw() external {... */\n      jump\t// out\n        /* \"contracts/EnglishAuction.sol\":399:427  IERC721 public immutable nft */\n    tag_38:\n      immutable(\"0x77c32b454bb61eb9df9e3848d0ded3e59753acda90ae58befe564733aec82e4c\")\n      dup2\n      jump\t// out\n        /* \"contracts/EnglishAuction.sol\":649:685  mapping(address => uint) public bids */\n    tag_45:\n      mstore(0x20, 0x02)\n      dup1\n      0x00\n      mstore\n      keccak256(0x00, 0x40)\n      0x00\n      swap2\n      pop\n      swap1\n      pop\n      sload\n      dup2\n      jump\t// out\n        /* \"contracts/EnglishAuction.sol\":512:531  uint32 public endAt */\n    tag_50:\n      0x00\n      dup1\n      sload\n      swap1\n      0x0100\n      exp\n      swap1\n      div\n      0xffffffff\n      and\n      dup2\n      jump\t// out\n        /* \"contracts/EnglishAuction.sol\":586:614  address public highestBidder */\n    tag_55:\n      0x00\n      0x06\n      swap1\n      sload\n      swap1\n      0x0100\n      exp\n      swap1\n      div\n      0xffffffffffffffffffffffffffffffffffffffff\n      and\n      dup2\n      jump\t// out\n        /* \"contracts/EnglishAuction.sol\":923:1190  function start() external {... */\n    tag_60:\n        /* \"contracts/EnglishAuction.sol\":981:987  seller */\n      immutable(\"0xd67d834462ca31eaef1f30157e31659f60355143b7441e6fc7d9eae1fa79f3f8\")\n        /* \"contracts/EnglishAuction.sol\":967:987  msg.sender == seller */\n      0xffffffffffffffffffffffffffffffffffffffff\n      and\n        /* \"contracts/EnglishAuction.sol\":967:977  msg.sender */\n      caller\n        /* \"contracts/EnglishAuction.sol\":967:987  msg.sender == seller */\n      0xffffffffffffffffffffffffffffffffffffffff\n      and\n      eq\n        /* \"contracts/EnglishAuction.sol\":959:995  require(msg.sender == seller, \"not\") */\n      tag_91\n      jumpi\n      mload(0x40)\n      0x08c379a000000000000000000000000000000000000000000000000000000000\n      dup2\n      mstore\n      0x04\n      add\n      tag_92\n      swap1\n      tag_75\n      jump\t// in\n    tag_92:\n      mload(0x40)\n      dup1\n      swap2\n      sub\n      swap1\n      revert\n    tag_91:\n        /* \"contracts/EnglishAuction.sol\":1014:1021  started */\n      0x00\n      0x04\n      swap1\n      sload\n      swap1\n      0x0100\n      exp\n      swap1\n      div\n      0xff\n      and\n        /* \"contracts/EnglishAuction.sol\":1013:1021  !started */\n      iszero\n        /* \"contracts/EnglishAuction.sol\":1005:1033  require(!started, \"started\") */\n      tag_93\n      jumpi\n      mload(0x40)\n      0x08c379a000000000000000000000000000000000000000000000000000000000\n      dup2\n      mstore\n      0x04\n      add\n      tag_94\n      swap1\n      tag_95\n      jump\t// in\n    tag_94:\n      mload(0x40)\n      dup1\n      swap2\n      sub\n      swap1\n      revert\n    tag_93:\n        /* \"contracts/EnglishAuction.sol\":1054:1058  true */\n      0x01\n        /* \"contracts/EnglishAuction.sol\":1044:1051  started */\n      0x00\n      0x04\n        /* \"contracts/EnglishAuction.sol\":1044:1058  started = true */\n      0x0100\n      exp\n      dup2\n      sload\n      dup2\n      0xff\n      mul\n      not\n      and\n      swap1\n      dup4\n      iszero\n      iszero\n      mul\n      or\n      swap1\n      sstore\n      pop\n        /* \"contracts/EnglishAuction.sol\":1101:1103  60 */\n      0x3c\n        /* \"contracts/EnglishAuction.sol\":1083:1098  block.timestamp */\n      timestamp\n        /* \"contracts/EnglishAuction.sol\":1083:1103  block.timestamp + 60 */\n      tag_96\n      swap2\n      swap1\n      tag_84\n      jump\t// in\n    tag_96:\n        /* \"contracts/EnglishAuction.sol\":1068:1073  endAt */\n      0x00\n      dup1\n        /* \"contracts/EnglishAuction.sol\":1068:1104  endAt = uint32(block.timestamp + 60) */\n      0x0100\n      exp\n      dup2\n      sload\n      dup2\n      0xffffffff\n      mul\n      not\n      and\n      swap1\n      dup4\n      0xffffffff\n      and\n      mul\n      or\n      swap1\n      sstore\n      pop\n        /* \"contracts/EnglishAuction.sol\":1114:1117  nft */\n      immutable(\"0x77c32b454bb61eb9df9e3848d0ded3e59753acda90ae58befe564733aec82e4c\")\n        /* \"contracts/EnglishAuction.sol\":1114:1130  nft.transferFrom */\n      0xffffffffffffffffffffffffffffffffffffffff\n      and\n      0x23b872dd\n        /* \"contracts/EnglishAuction.sol\":1131:1137  seller */\n      immutable(\"0xd67d834462ca31eaef1f30157e31659f60355143b7441e6fc7d9eae1fa79f3f8\")\n        /* \"contracts/EnglishAuction.sol\":1147:1151  this */\n      address\n        /* \"contracts/EnglishAuction.sol\":1154:1159  nftId */\n      immutable(\"0x3b4066bd7b7960752225af105d3beafb5c47a26c5aae7e6798a437b7c0bb33e6\")\n        /* \"contracts/EnglishAuction.sol\":1114:1160  nft.transferFrom(seller, address(this), nftId) */\n      mload(0x40)\n      dup5\n      0xffffffff\n      and\n      0xe0\n      shl\n      dup2\n      mstore\n      0x04\n      add\n      tag_97\n      swap4\n      swap3\n      swap2\n      swap1\n      tag_98\n      jump\t// in\n    tag_97:\n      0x00\n      mload(0x40)\n      dup1\n      dup4\n      sub\n      dup2\n      0x00\n      dup8\n      dup1\n      extcodesize\n      iszero\n      dup1\n      iszero\n      tag_99\n      jumpi\n      0x00\n      dup1\n      revert\n    tag_99:\n      pop\n      gas\n      call\n      iszero\n      dup1\n      iszero\n      tag_101\n      jumpi\n      returndatasize\n      0x00\n      dup1\n      returndatacopy\n      revert(0x00, returndatasize)\n    tag_101:\n      pop\n      pop\n      pop\n      pop\n        /* \"contracts/EnglishAuction.sol\":1176:1183  Start() */\n      0x1b55ba3aa851a46be3b365aee5b5c140edd620d578922f3e8466d2cbd96f954b\n      mload(0x40)\n      mload(0x40)\n      dup1\n      swap2\n      sub\n      swap1\n      log1\n        /* \"contracts/EnglishAuction.sol\":923:1190  function start() external {... */\n      jump\t// out\n        /* \"contracts/EnglishAuction.sol\":433:460  uint public immutable nftId */\n    tag_63:\n      immutable(\"0x3b4066bd7b7960752225af105d3beafb5c47a26c5aae7e6798a437b7c0bb33e6\")\n      dup2\n      jump\t// out\n        /* \"contracts/EnglishAuction.sol\":620:642  uint public highestBid */\n    tag_67:\n      sload(0x01)\n      dup2\n      jump\t// out\n        /* \"contracts/EnglishAuction.sol\":1777:2184  function end() external {... */\n    tag_71:\n        /* \"contracts/EnglishAuction.sol\":1819:1826  started */\n      0x00\n      0x04\n      swap1\n      sload\n      swap1\n      0x0100\n      exp\n      swap1\n      div\n      0xff\n      and\n        /* \"contracts/EnglishAuction.sol\":1811:1834  require(started, \"not\") */\n      tag_103\n      jumpi\n      mload(0x40)\n      0x08c379a000000000000000000000000000000000000000000000000000000000\n      dup2\n      mstore\n      0x04\n      add\n      tag_104\n      swap1\n      tag_75\n      jump\t// in\n    tag_104:\n      mload(0x40)\n      dup1\n      swap2\n      sub\n      swap1\n      revert\n    tag_103:\n        /* \"contracts/EnglishAuction.sol\":1853:1858  ended */\n      0x00\n      0x05\n      swap1\n      sload\n      swap1\n      0x0100\n      exp\n      swap1\n      div\n      0xff\n      and\n        /* \"contracts/EnglishAuction.sol\":1852:1858  !ended */\n      iszero\n        /* \"contracts/EnglishAuction.sol\":1844:1866  require(!ended, \"not\") */\n      tag_105\n      jumpi\n      mload(0x40)\n      0x08c379a000000000000000000000000000000000000000000000000000000000\n      dup2\n      mstore\n      0x04\n      add\n      tag_106\n      swap1\n      tag_75\n      jump\t// in\n    tag_106:\n      mload(0x40)\n      dup1\n      swap2\n      sub\n      swap1\n      revert\n    tag_105:\n        /* \"contracts/EnglishAuction.sol\":1903:1908  endAt */\n      0x00\n      dup1\n      sload\n      swap1\n      0x0100\n      exp\n      swap1\n      div\n      0xffffffff\n      and\n        /* \"contracts/EnglishAuction.sol\":1884:1908  block.timestamp >= endAt */\n      0xffffffff\n      and\n        /* \"contracts/EnglishAuction.sol\":1884:1899  block.timestamp */\n      timestamp\n        /* \"contracts/EnglishAuction.sol\":1884:1908  block.timestamp >= endAt */\n      lt\n      iszero\n        /* \"contracts/EnglishAuction.sol\":1876:1916  require(block.timestamp >= endAt, \"not\") */\n      tag_107\n      jumpi\n      mload(0x40)\n      0x08c379a000000000000000000000000000000000000000000000000000000000\n      dup2\n      mstore\n      0x04\n      add\n      tag_108\n      swap1\n      tag_75\n      jump\t// in\n    tag_108:\n      mload(0x40)\n      dup1\n      swap2\n      sub\n      swap1\n      revert\n    tag_107:\n        /* \"contracts/EnglishAuction.sol\":1935:1939  true */\n      0x01\n        /* \"contracts/EnglishAuction.sol\":1927:1932  ended */\n      0x00\n      0x05\n        /* \"contracts/EnglishAuction.sol\":1927:1939  ended = true */\n      0x0100\n      exp\n      dup2\n      sload\n      dup2\n      0xff\n      mul\n      not\n      and\n      swap1\n      dup4\n      iszero\n      iszero\n      mul\n      or\n      swap1\n      sstore\n      pop\n        /* \"contracts/EnglishAuction.sol\":1978:1979  0 */\n      0x00\n        /* \"contracts/EnglishAuction.sol\":1953:1980  highestBidder != address(0) */\n      0xffffffffffffffffffffffffffffffffffffffff\n      and\n        /* \"contracts/EnglishAuction.sol\":1953:1966  highestBidder */\n      0x00\n      0x06\n      swap1\n      sload\n      swap1\n      0x0100\n      exp\n      swap1\n      div\n      0xffffffffffffffffffffffffffffffffffffffff\n      and\n        /* \"contracts/EnglishAuction.sol\":1953:1980  highestBidder != address(0) */\n      0xffffffffffffffffffffffffffffffffffffffff\n      and\n      eq\n        /* \"contracts/EnglishAuction.sol\":1949:2178  if (highestBidder != address(0)) {... */\n      tag_109\n      jumpi\n        /* \"contracts/EnglishAuction.sol\":1996:1999  nft */\n      immutable(\"0x77c32b454bb61eb9df9e3848d0ded3e59753acda90ae58befe564733aec82e4c\")\n        /* \"contracts/EnglishAuction.sol\":1996:2012  nft.transferFrom */\n      0xffffffffffffffffffffffffffffffffffffffff\n      and\n      0x23b872dd\n        /* \"contracts/EnglishAuction.sol\":2021:2025  this */\n      address\n        /* \"contracts/EnglishAuction.sol\":2028:2041  highestBidder */\n      0x00\n      0x06\n      swap1\n      sload\n      swap1\n      0x0100\n      exp\n      swap1\n      div\n      0xffffffffffffffffffffffffffffffffffffffff\n      and\n        /* \"contracts/EnglishAuction.sol\":2043:2048  nftId */\n      immutable(\"0x3b4066bd7b7960752225af105d3beafb5c47a26c5aae7e6798a437b7c0bb33e6\")\n        /* \"contracts/EnglishAuction.sol\":1996:2049  nft.transferFrom(address(this), highestBidder, nftId) */\n      mload(0x40)\n      dup5\n      0xffffffff\n      and\n      0xe0\n      shl\n      dup2\n      mstore\n      0x04\n      add\n      tag_110\n      swap4\n      swap3\n      swap2\n      swap1\n      tag_111\n      jump\t// in\n    tag_110:\n      0x00\n      mload(0x40)\n      dup1\n      dup4\n      sub\n      dup2\n      0x00\n      dup8\n      dup1\n      extcodesize\n      iszero\n      dup1\n      iszero\n      tag_112\n      jumpi\n      0x00\n      dup1\n      revert\n    tag_112:\n      pop\n      gas\n      call\n      iszero\n      dup1\n      iszero\n      tag_114\n      jumpi\n      returndatasize\n      0x00\n      dup1\n      returndatacopy\n      revert(0x00, returndatasize)\n    tag_114:\n      pop\n      pop\n      pop\n      pop\n        /* \"contracts/EnglishAuction.sol\":2063:2069  seller */\n      immutable(\"0xd67d834462ca31eaef1f30157e31659f60355143b7441e6fc7d9eae1fa79f3f8\")\n        /* \"contracts/EnglishAuction.sol\":2063:2078  seller.transfer */\n      0xffffffffffffffffffffffffffffffffffffffff\n      and\n        /* \"contracts/EnglishAuction.sol\":2063:2090  seller.transfer(highestBid) */\n      0x08fc\n        /* \"contracts/EnglishAuction.sol\":2079:2089  highestBid */\n      sload(0x01)\n        /* \"contracts/EnglishAuction.sol\":2063:2090  seller.transfer(highestBid) */\n      swap1\n      dup2\n      iszero\n      mul\n      swap1\n      mload(0x40)\n      0x00\n      mload(0x40)\n      dup1\n      dup4\n      sub\n      dup2\n      dup6\n      dup9\n      dup9\n      call\n      swap4\n      pop\n      pop\n      pop\n      pop\n      iszero\n      dup1\n      iszero\n      tag_116\n      jumpi\n      returndatasize\n      0x00\n      dup1\n      returndatacopy\n      revert(0x00, returndatasize)\n    tag_116:\n      pop\n        /* \"contracts/EnglishAuction.sol\":1949:2178  if (highestBidder != address(0)) {... */\n      jump(tag_117)\n    tag_109:\n        /* \"contracts/EnglishAuction.sol\":2121:2124  nft */\n      immutable(\"0x77c32b454bb61eb9df9e3848d0ded3e59753acda90ae58befe564733aec82e4c\")\n        /* \"contracts/EnglishAuction.sol\":2121:2137  nft.transferFrom */\n      0xffffffffffffffffffffffffffffffffffffffff\n      and\n      0x23b872dd\n        /* \"contracts/EnglishAuction.sol\":2146:2150  this */\n      address\n        /* \"contracts/EnglishAuction.sol\":2153:2159  seller */\n      immutable(\"0xd67d834462ca31eaef1f30157e31659f60355143b7441e6fc7d9eae1fa79f3f8\")\n        /* \"contracts/EnglishAuction.sol\":2161:2166  nftId */\n      immutable(\"0x3b4066bd7b7960752225af105d3beafb5c47a26c5aae7e6798a437b7c0bb33e6\")\n        /* \"contracts/EnglishAuction.sol\":2121:2167  nft.transferFrom(address(this), seller, nftId) */\n      mload(0x40)\n      dup5\n      0xffffffff\n      and\n      0xe0\n      shl\n      dup2\n      mstore\n      0x04\n      add\n      tag_118\n      swap4\n      swap3\n      swap2\n      swap1\n      tag_119\n      jump\t// in\n    tag_118:\n      0x00\n      mload(0x40)\n      dup1\n      dup4\n      sub\n      dup2\n      0x00\n      dup8\n      dup1\n      extcodesize\n      iszero\n      dup1\n      iszero\n      tag_120\n      jumpi\n      0x00\n      dup1\n      revert\n    tag_120:\n      pop\n      gas\n      call\n      iszero\n      dup1\n      iszero\n      tag_122\n      jumpi\n      returndatasize\n      0x00\n      dup1\n      returndatacopy\n      revert(0x00, returndatasize)\n    tag_122:\n      pop\n      pop\n      pop\n      pop\n        /* \"contracts/EnglishAuction.sol\":1949:2178  if (highestBidder != address(0)) {... */\n    tag_117:\n        /* \"contracts/EnglishAuction.sol\":1777:2184  function end() external {... */\n      jump\t// out\n        /* \"#utility.yul\":7:146   */\n    tag_124:\n        /* \"#utility.yul\":53:58   */\n      0x00\n        /* \"#utility.yul\":91:97   */\n      dup2\n        /* \"#utility.yul\":78:98   */\n      calldataload\n        /* \"#utility.yul\":69:98   */\n      swap1\n      pop\n        /* \"#utility.yul\":107:140   */\n      tag_126\n        /* \"#utility.yul\":134:139   */\n      dup2\n        /* \"#utility.yul\":107:140   */\n      tag_127\n      jump\t// in\n    tag_126:\n        /* \"#utility.yul\":7:146   */\n      swap3\n      swap2\n      pop\n      pop\n      jump\t// out\n        /* \"#utility.yul\":152:481   */\n    tag_44:\n        /* \"#utility.yul\":211:217   */\n      0x00\n        /* \"#utility.yul\":260:262   */\n      0x20\n        /* \"#utility.yul\":248:257   */\n      dup3\n        /* \"#utility.yul\":239:246   */\n      dup5\n        /* \"#utility.yul\":235:258   */\n      sub\n        /* \"#utility.yul\":231:263   */\n      slt\n        /* \"#utility.yul\":228:347   */\n      iszero\n      tag_129\n      jumpi\n        /* \"#utility.yul\":266:345   */\n      tag_130\n      tag_131\n      jump\t// in\n    tag_130:\n        /* \"#utility.yul\":228:347   */\n    tag_129:\n        /* \"#utility.yul\":386:387   */\n      0x00\n        /* \"#utility.yul\":411:464   */\n      tag_132\n        /* \"#utility.yul\":456:463   */\n      dup5\n        /* \"#utility.yul\":447:453   */\n      dup3\n        /* \"#utility.yul\":436:445   */\n      dup6\n        /* \"#utility.yul\":432:454   */\n      add\n        /* \"#utility.yul\":411:464   */\n      tag_124\n      jump\t// in\n    tag_132:\n        /* \"#utility.yul\":401:464   */\n      swap2\n      pop\n        /* \"#utility.yul\":357:474   */\n      pop\n        /* \"#utility.yul\":152:481   */\n      swap3\n      swap2\n      pop\n      pop\n      jump\t// out\n        /* \"#utility.yul\":487:634   */\n    tag_133:\n        /* \"#utility.yul\":582:627   */\n      tag_135\n        /* \"#utility.yul\":621:626   */\n      dup2\n        /* \"#utility.yul\":582:627   */\n      tag_136\n      jump\t// in\n    tag_135:\n        /* \"#utility.yul\":577:580   */\n      dup3\n        /* \"#utility.yul\":570:628   */\n      mstore\n        /* \"#utility.yul\":487:634   */\n      pop\n      pop\n      jump\t// out\n        /* \"#utility.yul\":640:782   */\n    tag_137:\n        /* \"#utility.yul\":743:775   */\n      tag_139\n        /* \"#utility.yul\":769:774   */\n      dup2\n        /* \"#utility.yul\":743:775   */\n      tag_140\n      jump\t// in\n    tag_139:\n        /* \"#utility.yul\":738:741   */\n      dup3\n        /* \"#utility.yul\":731:776   */\n      mstore\n        /* \"#utility.yul\":640:782   */\n      pop\n      pop\n      jump\t// out\n        /* \"#utility.yul\":788:906   */\n    tag_141:\n        /* \"#utility.yul\":875:899   */\n      tag_143\n        /* \"#utility.yul\":893:898   */\n      dup2\n        /* \"#utility.yul\":875:899   */\n      tag_144\n      jump\t// in\n    tag_143:\n        /* \"#utility.yul\":870:873   */\n      dup3\n        /* \"#utility.yul\":863:900   */\n      mstore\n        /* \"#utility.yul\":788:906   */\n      pop\n      pop\n      jump\t// out\n        /* \"#utility.yul\":912:1021   */\n    tag_145:\n        /* \"#utility.yul\":993:1014   */\n      tag_147\n        /* \"#utility.yul\":1008:1013   */\n      dup2\n        /* \"#utility.yul\":993:1014   */\n      tag_148\n      jump\t// in\n    tag_147:\n        /* \"#utility.yul\":988:991   */\n      dup3\n        /* \"#utility.yul\":981:1015   */\n      mstore\n        /* \"#utility.yul\":912:1021   */\n      pop\n      pop\n      jump\t// out\n        /* \"#utility.yul\":1027:1186   */\n    tag_149:\n        /* \"#utility.yul\":1128:1179   */\n      tag_151\n        /* \"#utility.yul\":1173:1178   */\n      dup2\n        /* \"#utility.yul\":1128:1179   */\n      tag_152\n      jump\t// in\n    tag_151:\n        /* \"#utility.yul\":1123:1126   */\n      dup3\n        /* \"#utility.yul\":1116:1180   */\n      mstore\n        /* \"#utility.yul\":1027:1186   */\n      pop\n      pop\n      jump\t// out\n        /* \"#utility.yul\":1192:1557   */\n    tag_153:\n        /* \"#utility.yul\":1334:1337   */\n      0x00\n        /* \"#utility.yul\":1355:1421   */\n      tag_155\n        /* \"#utility.yul\":1419:1420   */\n      0x03\n        /* \"#utility.yul\":1414:1417   */\n      dup4\n        /* \"#utility.yul\":1355:1421   */\n      tag_156\n      jump\t// in\n    tag_155:\n        /* \"#utility.yul\":1348:1421   */\n      swap2\n      pop\n        /* \"#utility.yul\":1430:1523   */\n      tag_157\n        /* \"#utility.yul\":1519:1522   */\n      dup3\n        /* \"#utility.yul\":1430:1523   */\n      tag_158\n      jump\t// in\n    tag_157:\n        /* \"#utility.yul\":1548:1550   */\n      0x20\n        /* \"#utility.yul\":1543:1546   */\n      dup3\n        /* \"#utility.yul\":1539:1551   */\n      add\n        /* \"#utility.yul\":1532:1551   */\n      swap1\n      pop\n        /* \"#utility.yul\":1192:1557   */\n      swap2\n      swap1\n      pop\n      jump\t// out\n        /* \"#utility.yul\":1563:1928   */\n    tag_159:\n        /* \"#utility.yul\":1705:1708   */\n      0x00\n        /* \"#utility.yul\":1726:1792   */\n      tag_161\n        /* \"#utility.yul\":1790:1791   */\n      0x05\n        /* \"#utility.yul\":1785:1788   */\n      dup4\n        /* \"#utility.yul\":1726:1792   */\n      tag_156\n      jump\t// in\n    tag_161:\n        /* \"#utility.yul\":1719:1792   */\n      swap2\n      pop\n        /* \"#utility.yul\":1801:1894   */\n      tag_162\n        /* \"#utility.yul\":1890:1893   */\n      dup3\n        /* \"#utility.yul\":1801:1894   */\n      tag_163\n      jump\t// in\n    tag_162:\n        /* \"#utility.yul\":1919:1921   */\n      0x20\n        /* \"#utility.yul\":1914:1917   */\n      dup3\n        /* \"#utility.yul\":1910:1922   */\n      add\n        /* \"#utility.yul\":1903:1922   */\n      swap1\n      pop\n        /* \"#utility.yul\":1563:1928   */\n      swap2\n      swap1\n      pop\n      jump\t// out\n        /* \"#utility.yul\":1934:2299   */\n    tag_164:\n        /* \"#utility.yul\":2076:2079   */\n      0x00\n        /* \"#utility.yul\":2097:2163   */\n      tag_166\n        /* \"#utility.yul\":2161:2162   */\n      0x07\n        /* \"#utility.yul\":2156:2159   */\n      dup4\n        /* \"#utility.yul\":2097:2163   */\n      tag_156\n      jump\t// in\n    tag_166:\n        /* \"#utility.yul\":2090:2163   */\n      swap2\n      pop\n        /* \"#utility.yul\":2172:2265   */\n      tag_167\n        /* \"#utility.yul\":2261:2264   */\n      dup3\n        /* \"#utility.yul\":2172:2265   */\n      tag_168\n      jump\t// in\n    tag_167:\n        /* \"#utility.yul\":2290:2292   */\n      0x20\n        /* \"#utility.yul\":2285:2288   */\n      dup3\n        /* \"#utility.yul\":2281:2293   */\n      add\n        /* \"#utility.yul\":2274:2293   */\n      swap1\n      pop\n        /* \"#utility.yul\":1934:2299   */\n      swap2\n      swap1\n      pop\n      jump\t// out\n        /* \"#utility.yul\":2305:2670   */\n    tag_169:\n        /* \"#utility.yul\":2447:2450   */\n      0x00\n        /* \"#utility.yul\":2468:2534   */\n      tag_171\n        /* \"#utility.yul\":2532:2533   */\n      0x05\n        /* \"#utility.yul\":2527:2530   */\n      dup4\n        /* \"#utility.yul\":2468:2534   */\n      tag_156\n      jump\t// in\n    tag_171:\n        /* \"#utility.yul\":2461:2534   */\n      swap2\n      pop\n        /* \"#utility.yul\":2543:2636   */\n      tag_172\n        /* \"#utility.yul\":2632:2635   */\n      dup3\n        /* \"#utility.yul\":2543:2636   */\n      tag_173\n      jump\t// in\n    tag_172:\n        /* \"#utility.yul\":2661:2663   */\n      0x20\n        /* \"#utility.yul\":2656:2659   */\n      dup3\n        /* \"#utility.yul\":2652:2664   */\n      add\n        /* \"#utility.yul\":2645:2664   */\n      swap1\n      pop\n        /* \"#utility.yul\":2305:2670   */\n      swap2\n      swap1\n      pop\n      jump\t// out\n        /* \"#utility.yul\":2676:2794   */\n    tag_174:\n        /* \"#utility.yul\":2763:2787   */\n      tag_176\n        /* \"#utility.yul\":2781:2786   */\n      dup2\n        /* \"#utility.yul\":2763:2787   */\n      tag_177\n      jump\t// in\n    tag_176:\n        /* \"#utility.yul\":2758:2761   */\n      dup3\n        /* \"#utility.yul\":2751:2788   */\n      mstore\n        /* \"#utility.yul\":2676:2794   */\n      pop\n      pop\n      jump\t// out\n        /* \"#utility.yul\":2800:2915   */\n    tag_178:\n        /* \"#utility.yul\":2885:2908   */\n      tag_180\n        /* \"#utility.yul\":2902:2907   */\n      dup2\n        /* \"#utility.yul\":2885:2908   */\n      tag_181\n      jump\t// in\n    tag_180:\n        /* \"#utility.yul\":2880:2883   */\n      dup3\n        /* \"#utility.yul\":2873:2909   */\n      mstore\n        /* \"#utility.yul\":2800:2915   */\n      pop\n      pop\n      jump\t// out\n        /* \"#utility.yul\":2921:3143   */\n    tag_57:\n        /* \"#utility.yul\":3014:3018   */\n      0x00\n        /* \"#utility.yul\":3052:3054   */\n      0x20\n        /* \"#utility.yul\":3041:3050   */\n      dup3\n        /* \"#utility.yul\":3037:3055   */\n      add\n        /* \"#utility.yul\":3029:3055   */\n      swap1\n      pop\n        /* \"#utility.yul\":3065:3136   */\n      tag_183\n        /* \"#utility.yul\":3133:3134   */\n      0x00\n        /* \"#utility.yul\":3122:3131   */\n      dup4\n        /* \"#utility.yul\":3118:3135   */\n      add\n        /* \"#utility.yul\":3109:3115   */\n      dup5\n        /* \"#utility.yul\":3065:3136   */\n      tag_141\n      jump\t// in\n    tag_183:\n        /* \"#utility.yul\":2921:3143   */\n      swap3\n      swap2\n      pop\n      pop\n      jump\t// out\n        /* \"#utility.yul\":3149:3403   */\n    tag_21:\n        /* \"#utility.yul\":3258:3262   */\n      0x00\n        /* \"#utility.yul\":3296:3298   */\n      0x20\n        /* \"#utility.yul\":3285:3294   */\n      dup3\n        /* \"#utility.yul\":3281:3299   */\n      add\n        /* \"#utility.yul\":3273:3299   */\n      swap1\n      pop\n        /* \"#utility.yul\":3309:3396   */\n      tag_185\n        /* \"#utility.yul\":3393:3394   */\n      0x00\n        /* \"#utility.yul\":3382:3391   */\n      dup4\n        /* \"#utility.yul\":3378:3395   */\n      add\n        /* \"#utility.yul\":3369:3375   */\n      dup5\n        /* \"#utility.yul\":3309:3396   */\n      tag_137\n      jump\t// in\n    tag_185:\n        /* \"#utility.yul\":3149:3403   */\n      swap3\n      swap2\n      pop\n      pop\n      jump\t// out\n        /* \"#utility.yul\":3409:3867   */\n    tag_98:\n        /* \"#utility.yul\":3566:3570   */\n      0x00\n        /* \"#utility.yul\":3604:3606   */\n      0x60\n        /* \"#utility.yul\":3593:3602   */\n      dup3\n        /* \"#utility.yul\":3589:3607   */\n      add\n        /* \"#utility.yul\":3581:3607   */\n      swap1\n      pop\n        /* \"#utility.yul\":3617:3696   */\n      tag_187\n        /* \"#utility.yul\":3693:3694   */\n      0x00\n        /* \"#utility.yul\":3682:3691   */\n      dup4\n        /* \"#utility.yul\":3678:3695   */\n      add\n        /* \"#utility.yul\":3669:3675   */\n      dup7\n        /* \"#utility.yul\":3617:3696   */\n      tag_133\n      jump\t// in\n    tag_187:\n        /* \"#utility.yul\":3706:3778   */\n      tag_188\n        /* \"#utility.yul\":3774:3776   */\n      0x20\n        /* \"#utility.yul\":3763:3772   */\n      dup4\n        /* \"#utility.yul\":3759:3777   */\n      add\n        /* \"#utility.yul\":3750:3756   */\n      dup6\n        /* \"#utility.yul\":3706:3778   */\n      tag_141\n      jump\t// in\n    tag_188:\n        /* \"#utility.yul\":3788:3860   */\n      tag_189\n        /* \"#utility.yul\":3856:3858   */\n      0x40\n        /* \"#utility.yul\":3845:3854   */\n      dup4\n        /* \"#utility.yul\":3841:3859   */\n      add\n        /* \"#utility.yul\":3832:3838   */\n      dup5\n        /* \"#utility.yul\":3788:3860   */\n      tag_174\n      jump\t// in\n    tag_189:\n        /* \"#utility.yul\":3409:3867   */\n      swap5\n      swap4\n      pop\n      pop\n      pop\n      pop\n      jump\t// out\n        /* \"#utility.yul\":3873:4331   */\n    tag_119:\n        /* \"#utility.yul\":4030:4034   */\n      0x00\n        /* \"#utility.yul\":4068:4070   */\n      0x60\n        /* \"#utility.yul\":4057:4066   */\n      dup3\n        /* \"#utility.yul\":4053:4071   */\n      add\n        /* \"#utility.yul\":4045:4071   */\n      swap1\n      pop\n        /* \"#utility.yul\":4081:4152   */\n      tag_191\n        /* \"#utility.yul\":4149:4150   */\n      0x00\n        /* \"#utility.yul\":4138:4147   */\n      dup4\n        /* \"#utility.yul\":4134:4151   */\n      add\n        /* \"#utility.yul\":4125:4131   */\n      dup7\n        /* \"#utility.yul\":4081:4152   */\n      tag_141\n      jump\t// in\n    tag_191:\n        /* \"#utility.yul\":4162:4242   */\n      tag_192\n        /* \"#utility.yul\":4238:4240   */\n      0x20\n        /* \"#utility.yul\":4227:4236   */\n      dup4\n        /* \"#utility.yul\":4223:4241   */\n      add\n        /* \"#utility.yul\":4214:4220   */\n      dup6\n        /* \"#utility.yul\":4162:4242   */\n      tag_133\n      jump\t// in\n    tag_192:\n        /* \"#utility.yul\":4252:4324   */\n      tag_193\n        /* \"#utility.yul\":4320:4322   */\n      0x40\n        /* \"#utility.yul\":4309:4318   */\n      dup4\n        /* \"#utility.yul\":4305:4323   */\n      add\n        /* \"#utility.yul\":4296:4302   */\n      dup5\n        /* \"#utility.yul\":4252:4324   */\n      tag_174\n      jump\t// in\n    tag_193:\n        /* \"#utility.yul\":3873:4331   */\n      swap5\n      swap4\n      pop\n      pop\n      pop\n      pop\n      jump\t// out\n        /* \"#utility.yul\":4337:4779   */\n    tag_111:\n        /* \"#utility.yul\":4486:4490   */\n      0x00\n        /* \"#utility.yul\":4524:4526   */\n      0x60\n        /* \"#utility.yul\":4513:4522   */\n      dup3\n        /* \"#utility.yul\":4509:4527   */\n      add\n        /* \"#utility.yul\":4501:4527   */\n      swap1\n      pop\n        /* \"#utility.yul\":4537:4608   */\n      tag_195\n        /* \"#utility.yul\":4605:4606   */\n      0x00\n        /* \"#utility.yul\":4594:4603   */\n      dup4\n        /* \"#utility.yul\":4590:4607   */\n      add\n        /* \"#utility.yul\":4581:4587   */\n      dup7\n        /* \"#utility.yul\":4537:4608   */\n      tag_141\n      jump\t// in\n    tag_195:\n        /* \"#utility.yul\":4618:4690   */\n      tag_196\n        /* \"#utility.yul\":4686:4688   */\n      0x20\n        /* \"#utility.yul\":4675:4684   */\n      dup4\n        /* \"#utility.yul\":4671:4689   */\n      add\n        /* \"#utility.yul\":4662:4668   */\n      dup6\n        /* \"#utility.yul\":4618:4690   */\n      tag_141\n      jump\t// in\n    tag_196:\n        /* \"#utility.yul\":4700:4772   */\n      tag_197\n        /* \"#utility.yul\":4768:4770   */\n      0x40\n        /* \"#utility.yul\":4757:4766   */\n      dup4\n        /* \"#utility.yul\":4753:4771   */\n      add\n        /* \"#utility.yul\":4744:4750   */\n      dup5\n        /* \"#utility.yul\":4700:4772   */\n      tag_174\n      jump\t// in\n    tag_197:\n        /* \"#utility.yul\":4337:4779   */\n      swap5\n      swap4\n      pop\n      pop\n      pop\n      pop\n      jump\t// out\n        /* \"#utility.yul\":4785:4995   */\n    tag_26:\n        /* \"#utility.yul\":4872:4876   */\n      0x00\n        /* \"#utility.yul\":4910:4912   */\n      0x20\n        /* \"#utility.yul\":4899:4908   */\n      dup3\n        /* \"#utility.yul\":4895:4913   */\n      add\n        /* \"#utility.yul\":4887:4913   */\n      swap1\n      pop\n        /* \"#utility.yul\":4923:4988   */\n      tag_199\n        /* \"#utility.yul\":4985:4986   */\n      0x00\n        /* \"#utility.yul\":4974:4983   */\n      dup4\n        /* \"#utility.yul\":4970:4987   */\n      add\n        /* \"#utility.yul\":4961:4967   */\n      dup5\n        /* \"#utility.yul\":4923:4988   */\n      tag_145\n      jump\t// in\n    tag_199:\n        /* \"#utility.yul\":4785:4995   */\n      swap3\n      swap2\n      pop\n      pop\n      jump\t// out\n        /* \"#utility.yul\":5001:5251   */\n    tag_40:\n        /* \"#utility.yul\":5108:5112   */\n      0x00\n        /* \"#utility.yul\":5146:5148   */\n      0x20\n        /* \"#utility.yul\":5135:5144   */\n      dup3\n        /* \"#utility.yul\":5131:5149   */\n      add\n        /* \"#utility.yul\":5123:5149   */\n      swap1\n      pop\n        /* \"#utility.yul\":5159:5244   */\n      tag_201\n        /* \"#utility.yul\":5241:5242   */\n      0x00\n        /* \"#utility.yul\":5230:5239   */\n      dup4\n        /* \"#utility.yul\":5226:5243   */\n      add\n        /* \"#utility.yul\":5217:5223   */\n      dup5\n        /* \"#utility.yul\":5159:5244   */\n      tag_149\n      jump\t// in\n    tag_201:\n        /* \"#utility.yul\":5001:5251   */\n      swap3\n      swap2\n      pop\n      pop\n      jump\t// out\n        /* \"#utility.yul\":5257:5676   */\n    tag_75:\n        /* \"#utility.yul\":5423:5427   */\n      0x00\n        /* \"#utility.yul\":5461:5463   */\n      0x20\n        /* \"#utility.yul\":5450:5459   */\n      dup3\n        /* \"#utility.yul\":5446:5464   */\n      add\n        /* \"#utility.yul\":5438:5464   */\n      swap1\n      pop\n        /* \"#utility.yul\":5510:5519   */\n      dup2\n        /* \"#utility.yul\":5504:5508   */\n      dup2\n        /* \"#utility.yul\":5500:5520   */\n      sub\n        /* \"#utility.yul\":5496:5497   */\n      0x00\n        /* \"#utility.yul\":5485:5494   */\n      dup4\n        /* \"#utility.yul\":5481:5498   */\n      add\n        /* \"#utility.yul\":5474:5521   */\n      mstore\n        /* \"#utility.yul\":5538:5669   */\n      tag_203\n        /* \"#utility.yul\":5664:5668   */\n      dup2\n        /* \"#utility.yul\":5538:5669   */\n      tag_153\n      jump\t// in\n    tag_203:\n        /* \"#utility.yul\":5530:5669   */\n      swap1\n      pop\n        /* \"#utility.yul\":5257:5676   */\n      swap2\n      swap1\n      pop\n      jump\t// out\n        /* \"#utility.yul\":5682:6101   */\n    tag_81:\n        /* \"#utility.yul\":5848:5852   */\n      0x00\n        /* \"#utility.yul\":5886:5888   */\n      0x20\n        /* \"#utility.yul\":5875:5884   */\n      dup3\n        /* \"#utility.yul\":5871:5889   */\n      add\n        /* \"#utility.yul\":5863:5889   */\n      swap1\n      pop\n        /* \"#utility.yul\":5935:5944   */\n      dup2\n        /* \"#utility.yul\":5929:5933   */\n      dup2\n        /* \"#utility.yul\":5925:5945   */\n      sub\n        /* \"#utility.yul\":5921:5922   */\n      0x00\n        /* \"#utility.yul\":5910:5919   */\n      dup4\n        /* \"#utility.yul\":5906:5923   */\n      add\n        /* \"#utility.yul\":5899:5946   */\n      mstore\n        /* \"#utility.yul\":5963:6094   */\n      tag_205\n        /* \"#utility.yul\":6089:6093   */\n      dup2\n        /* \"#utility.yul\":5963:6094   */\n      tag_159\n      jump\t// in\n    tag_205:\n        /* \"#utility.yul\":5955:6094   */\n      swap1\n      pop\n        /* \"#utility.yul\":5682:6101   */\n      swap2\n      swap1\n      pop\n      jump\t// out\n        /* \"#utility.yul\":6107:6526   */\n    tag_95:\n        /* \"#utility.yul\":6273:6277   */\n      0x00\n        /* \"#utility.yul\":6311:6313   */\n      0x20\n        /* \"#utility.yul\":6300:6309   */\n      dup3\n        /* \"#utility.yul\":6296:6314   */\n      add\n        /* \"#utility.yul\":6288:6314   */\n      swap1\n      pop\n        /* \"#utility.yul\":6360:6369   */\n      dup2\n        /* \"#utility.yul\":6354:6358   */\n      dup2\n        /* \"#utility.yul\":6350:6370   */\n      sub\n        /* \"#utility.yul\":6346:6347   */\n      0x00\n        /* \"#utility.yul\":6335:6344   */\n      dup4\n        /* \"#utility.yul\":6331:6348   */\n      add\n        /* \"#utility.yul\":6324:6371   */\n      mstore\n        /* \"#utility.yul\":6388:6519   */\n      tag_207\n        /* \"#utility.yul\":6514:6518   */\n      dup2\n        /* \"#utility.yul\":6388:6519   */\n      tag_164\n      jump\t// in\n    tag_207:\n        /* \"#utility.yul\":6380:6519   */\n      swap1\n      pop\n        /* \"#utility.yul\":6107:6526   */\n      swap2\n      swap1\n      pop\n      jump\t// out\n        /* \"#utility.yul\":6532:6951   */\n    tag_78:\n        /* \"#utility.yul\":6698:6702   */\n      0x00\n        /* \"#utility.yul\":6736:6738   */\n      0x20\n        /* \"#utility.yul\":6725:6734   */\n      dup3\n        /* \"#utility.yul\":6721:6739   */\n      add\n        /* \"#utility.yul\":6713:6739   */\n      swap1\n      pop\n        /* \"#utility.yul\":6785:6794   */\n      dup2\n        /* \"#utility.yul\":6779:6783   */\n      dup2\n        /* \"#utility.yul\":6775:6795   */\n      sub\n        /* \"#utility.yul\":6771:6772   */\n      0x00\n        /* \"#utility.yul\":6760:6769   */\n      dup4\n        /* \"#utility.yul\":6756:6773   */\n      add\n        /* \"#utility.yul\":6749:6796   */\n      mstore\n        /* \"#utility.yul\":6813:6944   */\n      tag_209\n        /* \"#utility.yul\":6939:6943   */\n      dup2\n        /* \"#utility.yul\":6813:6944   */\n      tag_169\n      jump\t// in\n    tag_209:\n        /* \"#utility.yul\":6805:6944   */\n      swap1\n      pop\n        /* \"#utility.yul\":6532:6951   */\n      swap2\n      swap1\n      pop\n      jump\t// out\n        /* \"#utility.yul\":6957:7179   */\n    tag_47:\n        /* \"#utility.yul\":7050:7054   */\n      0x00\n        /* \"#utility.yul\":7088:7090   */\n      0x20\n        /* \"#utility.yul\":7077:7086   */\n      dup3\n        /* \"#utility.yul\":7073:7091   */\n      add\n        /* \"#utility.yul\":7065:7091   */\n      swap1\n      pop\n        /* \"#utility.yul\":7101:7172   */\n      tag_211\n        /* \"#utility.yul\":7169:7170   */\n      0x00\n        /* \"#utility.yul\":7158:7167   */\n      dup4\n        /* \"#utility.yul\":7154:7171   */\n      add\n        /* \"#utility.yul\":7145:7151   */\n      dup5\n        /* \"#utility.yul\":7101:7172   */\n      tag_174\n      jump\t// in\n    tag_211:\n        /* \"#utility.yul\":6957:7179   */\n      swap3\n      swap2\n      pop\n      pop\n      jump\t// out\n        /* \"#utility.yul\":7185:7403   */\n    tag_52:\n        /* \"#utility.yul\":7276:7280   */\n      0x00\n        /* \"#utility.yul\":7314:7316   */\n      0x20\n        /* \"#utility.yul\":7303:7312   */\n      dup3\n        /* \"#utility.yul\":7299:7317   */\n      add\n        /* \"#utility.yul\":7291:7317   */\n      swap1\n      pop\n        /* \"#utility.yul\":7327:7396   */\n      tag_213\n        /* \"#utility.yul\":7393:7394   */\n      0x00\n        /* \"#utility.yul\":7382:7391   */\n      dup4\n        /* \"#utility.yul\":7378:7395   */\n      add\n        /* \"#utility.yul\":7369:7375   */\n      dup5\n        /* \"#utility.yul\":7327:7396   */\n      tag_178\n      jump\t// in\n    tag_213:\n        /* \"#utility.yul\":7185:7403   */\n      swap3\n      swap2\n      pop\n      pop\n      jump\t// out\n        /* \"#utility.yul\":7490:7659   */\n    tag_156:\n        /* \"#utility.yul\":7574:7585   */\n      0x00\n        /* \"#utility.yul\":7608:7614   */\n      dup3\n        /* \"#utility.yul\":7603:7606   */\n      dup3\n        /* \"#utility.yul\":7596:7615   */\n      mstore\n        /* \"#utility.yul\":7648:7652   */\n      0x20\n        /* \"#utility.yul\":7643:7646   */\n      dup3\n        /* \"#utility.yul\":7639:7653   */\n      add\n        /* \"#utility.yul\":7624:7653   */\n      swap1\n      pop\n        /* \"#utility.yul\":7490:7659   */\n      swap3\n      swap2\n      pop\n      pop\n      jump\t// out\n        /* \"#utility.yul\":7665:7970   */\n    tag_84:\n        /* \"#utility.yul\":7705:7708   */\n      0x00\n        /* \"#utility.yul\":7724:7744   */\n      tag_218\n        /* \"#utility.yul\":7742:7743   */\n      dup3\n        /* \"#utility.yul\":7724:7744   */\n      tag_177\n      jump\t// in\n    tag_218:\n        /* \"#utility.yul\":7719:7744   */\n      swap2\n      pop\n        /* \"#utility.yul\":7758:7778   */\n      tag_219\n        /* \"#utility.yul\":7776:7777   */\n      dup4\n        /* \"#utility.yul\":7758:7778   */\n      tag_177\n      jump\t// in\n    tag_219:\n        /* \"#utility.yul\":7753:7778   */\n      swap3\n      pop\n        /* \"#utility.yul\":7912:7913   */\n      dup3\n        /* \"#utility.yul\":7844:7910   */\n      0xffffffffffffffffffffffffffffffffffffffffffffffffffffffffffffffff\n        /* \"#utility.yul\":7840:7914   */\n      sub\n        /* \"#utility.yul\":7837:7838   */\n      dup3\n        /* \"#utility.yul\":7834:7915   */\n      gt\n        /* \"#utility.yul\":7831:7938   */\n      iszero\n      tag_220\n      jumpi\n        /* \"#utility.yul\":7918:7936   */\n      tag_221\n      tag_222\n      jump\t// in\n    tag_221:\n        /* \"#utility.yul\":7831:7938   */\n    tag_220:\n        /* \"#utility.yul\":7962:7963   */\n      dup3\n        /* \"#utility.yul\":7959:7960   */\n      dup3\n        /* \"#utility.yul\":7955:7964   */\n      add\n        /* \"#utility.yul\":7948:7964   */\n      swap1\n      pop\n        /* \"#utility.yul\":7665:7970   */\n      swap3\n      swap2\n      pop\n      pop\n      jump\t// out\n        /* \"#utility.yul\":7976:8072   */\n    tag_144:\n        /* \"#utility.yul\":8013:8020   */\n      0x00\n        /* \"#utility.yul\":8042:8066   */\n      tag_224\n        /* \"#utility.yul\":8060:8065   */\n      dup3\n        /* \"#utility.yul\":8042:8066   */\n      tag_225\n      jump\t// in\n    tag_224:\n        /* \"#utility.yul\":8031:8066   */\n      swap1\n      pop\n        /* \"#utility.yul\":7976:8072   */\n      swap2\n      swap1\n      pop\n      jump\t// out\n        /* \"#utility.yul\":8078:8182   */\n    tag_140:\n        /* \"#utility.yul\":8123:8130   */\n      0x00\n        /* \"#utility.yul\":8152:8176   */\n      tag_227\n        /* \"#utility.yul\":8170:8175   */\n      dup3\n        /* \"#utility.yul\":8152:8176   */\n      tag_225\n      jump\t// in\n    tag_227:\n        /* \"#utility.yul\":8141:8176   */\n      swap1\n      pop\n        /* \"#utility.yul\":8078:8182   */\n      swap2\n      swap1\n      pop\n      jump\t// out\n        /* \"#utility.yul\":8188:8278   */\n    tag_148:\n        /* \"#utility.yul\":8222:8229   */\n      0x00\n        /* \"#utility.yul\":8265:8270   */\n      dup2\n        /* \"#utility.yul\":8258:8271   */\n      iszero\n        /* \"#utility.yul\":8251:8272   */\n      iszero\n        /* \"#utility.yul\":8240:8272   */\n      swap1\n      pop\n        /* \"#utility.yul\":8188:8278   */\n      swap2\n      swap1\n      pop\n      jump\t// out\n        /* \"#utility.yul\":8284:8410   */\n    tag_225:\n        /* \"#utility.yul\":8321:8328   */\n      0x00\n        /* \"#utility.yul\":8361:8403   */\n      0xffffffffffffffffffffffffffffffffffffffff\n        /* \"#utility.yul\":8354:8359   */\n      dup3\n        /* \"#utility.yul\":8350:8404   */\n      and\n        /* \"#utility.yul\":8339:8404   */\n      swap1\n      pop\n        /* \"#utility.yul\":8284:8410   */\n      swap2\n      swap1\n      pop\n      jump\t// out\n        /* \"#utility.yul\":8416:8493   */\n    tag_177:\n        /* \"#utility.yul\":8453:8460   */\n      0x00\n        /* \"#utility.yul\":8482:8487   */\n      dup2\n        /* \"#utility.yul\":8471:8487   */\n      swap1\n      pop\n        /* \"#utility.yul\":8416:8493   */\n      swap2\n      swap1\n      pop\n      jump\t// out\n        /* \"#utility.yul\":8499:8592   */\n    tag_181:\n        /* \"#utility.yul\":8535:8542   */\n      0x00\n        /* \"#utility.yul\":8575:8585   */\n      0xffffffff\n        /* \"#utility.yul\":8568:8573   */\n      dup3\n        /* \"#utility.yul\":8564:8586   */\n      and\n        /* \"#utility.yul\":8553:8586   */\n      swap1\n      pop\n        /* \"#utility.yul\":8499:8592   */\n      swap2\n      swap1\n      pop\n      jump\t// out\n        /* \"#utility.yul\":8598:8732   */\n    tag_136:\n        /* \"#utility.yul\":8656:8665   */\n      0x00\n        /* \"#utility.yul\":8689:8726   */\n      tag_233\n        /* \"#utility.yul\":8720:8725   */\n      dup3\n        /* \"#utility.yul\":8689:8726   */\n      tag_234\n      jump\t// in\n    tag_233:\n        /* \"#utility.yul\":8676:8726   */\n      swap1\n      pop\n        /* \"#utility.yul\":8598:8732   */\n      swap2\n      swap1\n      pop\n      jump\t// out\n        /* \"#utility.yul\":8738:8878   */\n    tag_152:\n        /* \"#utility.yul\":8802:8811   */\n      0x00\n        /* \"#utility.yul\":8835:8872   */\n      tag_236\n        /* \"#utility.yul\":8866:8871   */\n      dup3\n        /* \"#utility.yul\":8835:8872   */\n      tag_234\n      jump\t// in\n    tag_236:\n        /* \"#utility.yul\":8822:8872   */\n      swap1\n      pop\n        /* \"#utility.yul\":8738:8878   */\n      swap2\n      swap1\n      pop\n      jump\t// out\n        /* \"#utility.yul\":8884:9010   */\n    tag_234:\n        /* \"#utility.yul\":8934:8943   */\n      0x00\n        /* \"#utility.yul\":8967:9004   */\n      tag_238\n        /* \"#utility.yul\":8998:9003   */\n      dup3\n        /* \"#utility.yul\":8967:9004   */\n      tag_239\n      jump\t// in\n    tag_238:\n        /* \"#utility.yul\":8954:9004   */\n      swap1\n      pop\n        /* \"#utility.yul\":8884:9010   */\n      swap2\n      swap1\n      pop\n      jump\t// out\n        /* \"#utility.yul\":9016:9129   */\n    tag_239:\n        /* \"#utility.yul\":9066:9075   */\n      0x00\n        /* \"#utility.yul\":9099:9123   */\n      tag_241\n        /* \"#utility.yul\":9117:9122   */\n      dup3\n        /* \"#utility.yul\":9099:9123   */\n      tag_225\n      jump\t// in\n    tag_241:\n        /* \"#utility.yul\":9086:9123   */\n      swap1\n      pop\n        /* \"#utility.yul\":9016:9129   */\n      swap2\n      swap1\n      pop\n      jump\t// out\n        /* \"#utility.yul\":9135:9315   */\n    tag_222:\n        /* \"#utility.yul\":9183:9260   */\n      0x4e487b7100000000000000000000000000000000000000000000000000000000\n        /* \"#utility.yul\":9180:9181   */\n      0x00\n        /* \"#utility.yul\":9173:9261   */\n      mstore\n        /* \"#utility.yul\":9280:9284   */\n      0x11\n        /* \"#utility.yul\":9277:9278   */\n      0x04\n        /* \"#utility.yul\":9270:9285   */\n      mstore\n        /* \"#utility.yul\":9304:9308   */\n      0x24\n        /* \"#utility.yul\":9301:9302   */\n      0x00\n        /* \"#utility.yul\":9294:9309   */\n      revert\n        /* \"#utility.yul\":9444:9561   */\n    tag_131:\n        /* \"#utility.yul\":9553:9554   */\n      0x00\n        /* \"#utility.yul\":9550:9551   */\n      dup1\n        /* \"#utility.yul\":9543:9555   */\n      revert\n        /* \"#utility.yul\":9567:9720   */\n    tag_158:\n        /* \"#utility.yul\":9707:9712   */\n      0x6e6f740000000000000000000000000000000000000000000000000000000000\n        /* \"#utility.yul\":9703:9704   */\n      0x00\n        /* \"#utility.yul\":9695:9701   */\n      dup3\n        /* \"#utility.yul\":9691:9705   */\n      add\n        /* \"#utility.yul\":9684:9713   */\n      mstore\n        /* \"#utility.yul\":9567:9720   */\n      pop\n      jump\t// out\n        /* \"#utility.yul\":9726:9881   */\n    tag_163:\n        /* \"#utility.yul\":9866:9873   */\n      0x76616c7565000000000000000000000000000000000000000000000000000000\n        /* \"#utility.yul\":9862:9863   */\n      0x00\n        /* \"#utility.yul\":9854:9860   */\n      dup3\n        /* \"#utility.yul\":9850:9864   */\n      add\n        /* \"#utility.yul\":9843:9874   */\n      mstore\n        /* \"#utility.yul\":9726:9881   */\n      pop\n      jump\t// out\n        /* \"#utility.yul\":9887:10044   */\n    tag_168:\n        /* \"#utility.yul\":10027:10036   */\n      0x7374617274656400000000000000000000000000000000000000000000000000\n        /* \"#utility.yul\":10023:10024   */\n      0x00\n        /* \"#utility.yul\":10015:10021   */\n      dup3\n        /* \"#utility.yul\":10011:10025   */\n      add\n        /* \"#utility.yul\":10004:10037   */\n      mstore\n        /* \"#utility.yul\":9887:10044   */\n      pop\n      jump\t// out\n        /* \"#utility.yul\":10050:10205   */\n    tag_173:\n        /* \"#utility.yul\":10190:10197   */\n      0x656e646564000000000000000000000000000000000000000000000000000000\n        /* \"#utility.yul\":10186:10187   */\n      0x00\n        /* \"#utility.yul\":10178:10184   */\n      dup3\n        /* \"#utility.yul\":10174:10188   */\n      add\n        /* \"#utility.yul\":10167:10198   */\n      mstore\n        /* \"#utility.yul\":10050:10205   */\n      pop\n      jump\t// out\n        /* \"#utility.yul\":10211:10333   */\n    tag_127:\n        /* \"#utility.yul\":10284:10308   */\n      tag_251\n        /* \"#utility.yul\":10302:10307   */\n      dup2\n        /* \"#utility.yul\":10284:10308   */\n      tag_144\n      jump\t// in\n    tag_251:\n        /* \"#utility.yul\":10277:10282   */\n      dup2\n        /* \"#utility.yul\":10274:10309   */\n      eq\n        /* \"#utility.yul\":10264:10327   */\n      tag_252\n      jumpi\n        /* \"#utility.yul\":10323:10324   */\n      0x00\n        /* \"#utility.yul\":10320:10321   */\n      dup1\n        /* \"#utility.yul\":10313:10325   */\n      revert\n        /* \"#utility.yul\":10264:10327   */\n    tag_252:\n        /* \"#utility.yul\":10211:10333   */\n      pop\n      jump\t// out\n\n    auxdata: 0xa2646970667358221220e4828e68bcc1465be2be60529a47c79b3776c1dd136f7d28dd3384cfb833460764736f6c63430008070033\n}\n",
				"bytecode": {
					"linkReferences": {},
					"object": "60e06040523480156200001157600080fd5b506040516200141b3803806200141b8339818101604052810190620000379190620000eb565b8273ffffffffffffffffffffffffffffffffffffffff1660808173ffffffffffffffffffffffffffffffffffffffff1660601b815250508160a081815250503373ffffffffffffffffffffffffffffffffffffffff1660c08173ffffffffffffffffffffffffffffffffffffffff1660601b8152505080600181905550505050620001be565b600081519050620000ce816200018a565b92915050565b600081519050620000e581620001a4565b92915050565b60008060006060848603121562000107576200010662000185565b5b60006200011786828701620000bd565b93505060206200012a86828701620000d4565b92505060406200013d86828701620000d4565b9150509250925092565b600062000154826200015b565b9050919050565b600073ffffffffffffffffffffffffffffffffffffffff82169050919050565b6000819050919050565b600080fd5b620001958162000147565b8114620001a157600080fd5b50565b620001af816200017b565b8114620001bb57600080fd5b50565b60805160601c60a05160c05160601c6111e16200023a600039600081816102ad015281816106e10152818161084201528181610b670152610c120152600081816108640152818161090301528181610af60152610c3301526000818161066b0152818161080601528181610a960152610bd501526111e16000f3fe6080604052600436106100c25760003560e01c806362ea82db1161007f578063be9a655511610059578063be9a655514610227578063c6bc51821461023e578063d57bde7914610269578063efbe1c1c14610294576100c2565b806362ea82db146101945780637cc3ae8c146101d157806391f90157146101fc576100c2565b806308551a53146100c757806312fa6feb146100f25780631998aeef1461011d5780631f2698ab146101275780633ccfd60b1461015257806347ccca0214610169575b600080fd5b3480156100d357600080fd5b506100dc6102ab565b6040516100e99190610df7565b60405180910390f35b3480156100fe57600080fd5b506101076102cf565b6040516101149190610eb7565b60405180910390f35b6101256102e2565b005b34801561013357600080fd5b5061013c610535565b6040516101499190610eb7565b60405180910390f35b34801561015e57600080fd5b50610167610548565b005b34801561017557600080fd5b5061017e610669565b60405161018b9190610ed2565b60405180910390f35b3480156101a057600080fd5b506101bb60048036038101906101b69190610cba565b61068d565b6040516101c89190610f6d565b60405180910390f35b3480156101dd57600080fd5b506101e66106a5565b6040516101f39190610f88565b60405180910390f35b34801561020857600080fd5b506102116106b9565b60405161021e9190610ddc565b60405180910390f35b34801561023357600080fd5b5061023c6106df565b005b34801561024a57600080fd5b50610253610901565b6040516102609190610f6d565b60405180910390f35b34801561027557600080fd5b5061027e610925565b60405161028b9190610f6d565b60405180910390f35b3480156102a057600080fd5b506102a961092b565b005b7f000000000000000000000000000000000000000000000000000000000000000081565b600060059054906101000a900460ff1681565b600060049054906101000a900460ff16610331576040517f08c379a000000000000000000000000000000000000000000000000000000000815260040161032890610eed565b60405180910390fd5b60008054906101000a900463ffffffff1663ffffffff164210610389576040517f08c379a000000000000000000000000000000000000000000000000000000000815260040161038090610f4d565b60405180910390fd5b60015434116103cd576040517f08c379a00000000000000000000000000000000000000000000000000000000081526004016103c490610f0d565b60405180910390fd5b600073ffffffffffffffffffffffffffffffffffffffff16600060069054906101000a900473ffffffffffffffffffffffffffffffffffffffff1673ffffffffffffffffffffffffffffffffffffffff161461049d57600154600260008060069054906101000a900473ffffffffffffffffffffffffffffffffffffffff1673ffffffffffffffffffffffffffffffffffffffff1673ffffffffffffffffffffffffffffffffffffffff16815260200190815260200160002060008282546104959190610fb4565b925050819055505b3460018190555033600060066101000a81548173ffffffffffffffffffffffffffffffffffffffff021916908373ffffffffffffffffffffffffffffffffffffffff1602179055503373ffffffffffffffffffffffffffffffffffffffff167fe684a55f31b79eca403df938249029212a5925ec6be8012e099b45bc1019e5d23460405161052b9190610f6d565b60405180910390a2565b600060049054906101000a900460ff1681565b6000600260003373ffffffffffffffffffffffffffffffffffffffff1673ffffffffffffffffffffffffffffffffffffffff1681526020019081526020016000205490506000600260003373ffffffffffffffffffffffffffffffffffffffff1673ffffffffffffffffffffffffffffffffffffffff168152602001908152602001600020819055503373ffffffffffffffffffffffffffffffffffffffff166108fc829081150290604051600060405180830381858888f19350505050158015610617573d6000803e3d6000fd5b503373ffffffffffffffffffffffffffffffffffffffff167f884edad9ce6fa2440d8a54cc123490eb96d2768479d49ff9c7366125a94243648260405161065e9190610f6d565b60405180910390a250565b7f000000000000000000000000000000000000000000000000000000000000000081565b60026020528060005260406000206000915090505481565b60008054906101000a900463ffffffff1681565b600060069054906101000a900473ffffffffffffffffffffffffffffffffffffffff1681565b7f000000000000000000000000000000000000000000000000000000000000000073ffffffffffffffffffffffffffffffffffffffff163373ffffffffffffffffffffffffffffffffffffffff161461076d576040517f08c379a000000000000000000000000000000000000000000000000000000000815260040161076490610eed565b60405180910390fd5b600060049054906101000a900460ff16156107bd576040517f08c379a00000000000000000000000000000000000000000000000000000000081526004016107b490610f2d565b60405180910390fd5b6001600060046101000a81548160ff021916908315150217905550603c426107e59190610fb4565b6000806101000a81548163ffffffff021916908363ffffffff1602179055507f000000000000000000000000000000000000000000000000000000000000000073ffffffffffffffffffffffffffffffffffffffff166323b872dd7f0000000000000000000000000000000000000000000000000000000000000000307f00000000000000000000000000000000000000000000000000000000000000006040518463ffffffff1660e01b81526004016108a193929190610e12565b600060405180830381600087803b1580156108bb57600080fd5b505af11580156108cf573d6000803e3d6000fd5b505050507f1b55ba3aa851a46be3b365aee5b5c140edd620d578922f3e8466d2cbd96f954b60405160405180910390a1565b7f000000000000000000000000000000000000000000000000000000000000000081565b60015481565b600060049054906101000a900460ff1661097a576040517f08c379a000000000000000000000000000000000000000000000000000000000815260040161097190610eed565b60405180910390fd5b600060059054906101000a900460ff16156109ca576040517f08c379a00000000000000000000000000000000000000000000000000000000081526004016109c190610eed565b60405180910390fd5b60008054906101000a900463ffffffff1663ffffffff16421015610a23576040517f08c379a0000000000000000000000000000000000000000000000000000000008152600401610a1a90610eed565b60405180910390fd5b6001600060056101000a81548160ff021916908315150217905550600073ffffffffffffffffffffffffffffffffffffffff16600060069054906101000a900473ffffffffffffffffffffffffffffffffffffffff1673ffffffffffffffffffffffffffffffffffffffff1614610bd3577f000000000000000000000000000000000000000000000000000000000000000073ffffffffffffffffffffffffffffffffffffffff166323b872dd30600060069054906101000a900473ffffffffffffffffffffffffffffffffffffffff167f00000000000000000000000000000000000000000000000000000000000000006040518463ffffffff1660e01b8152600401610b3393929190610e80565b600060405180830381600087803b158015610b4d57600080fd5b505af1158015610b61573d6000803e3d6000fd5b505050507f000000000000000000000000000000000000000000000000000000000000000073ffffffffffffffffffffffffffffffffffffffff166108fc6001549081150290604051600060405180830381858888f19350505050158015610bcd573d6000803e3d6000fd5b50610ca3565b7f000000000000000000000000000000000000000000000000000000000000000073ffffffffffffffffffffffffffffffffffffffff166323b872dd307f00000000000000000000000000000000000000000000000000000000000000007f00000000000000000000000000000000000000000000000000000000000000006040518463ffffffff1660e01b8152600401610c7093929190610e49565b600060405180830381600087803b158015610c8a57600080fd5b505af1158015610c9e573d6000803e3d6000fd5b505050505b565b600081359050610cb481611194565b92915050565b600060208284031215610cd057610ccf6110eb565b5b6000610cde84828501610ca5565b91505092915050565b610cf081611074565b82525050565b610cff8161101c565b82525050565b610d0e8161100a565b82525050565b610d1d8161102e565b82525050565b610d2c81611086565b82525050565b6000610d3f600383610fa3565b9150610d4a826110f0565b602082019050919050565b6000610d62600583610fa3565b9150610d6d82611119565b602082019050919050565b6000610d85600783610fa3565b9150610d9082611142565b602082019050919050565b6000610da8600583610fa3565b9150610db38261116b565b602082019050919050565b610dc78161105a565b82525050565b610dd681611064565b82525050565b6000602082019050610df16000830184610d05565b92915050565b6000602082019050610e0c6000830184610cf6565b92915050565b6000606082019050610e276000830186610ce7565b610e346020830185610d05565b610e416040830184610dbe565b949350505050565b6000606082019050610e5e6000830186610d05565b610e6b6020830185610ce7565b610e786040830184610dbe565b949350505050565b6000606082019050610e956000830186610d05565b610ea26020830185610d05565b610eaf6040830184610dbe565b949350505050565b6000602082019050610ecc6000830184610d14565b92915050565b6000602082019050610ee76000830184610d23565b92915050565b60006020820190508181036000830152610f0681610d32565b9050919050565b60006020820190508181036000830152610f2681610d55565b9050919050565b60006020820190508181036000830152610f4681610d78565b9050919050565b60006020820190508181036000830152610f6681610d9b565b9050919050565b6000602082019050610f826000830184610dbe565b92915050565b6000602082019050610f9d6000830184610dcd565b92915050565b600082825260208201905092915050565b6000610fbf8261105a565b9150610fca8361105a565b9250827fffffffffffffffffffffffffffffffffffffffffffffffffffffffffffffffff03821115610fff57610ffe6110bc565b5b828201905092915050565b60006110158261103a565b9050919050565b60006110278261103a565b9050919050565b60008115159050919050565b600073ffffffffffffffffffffffffffffffffffffffff82169050919050565b6000819050919050565b600063ffffffff82169050919050565b600061107f82611098565b9050919050565b600061109182611098565b9050919050565b60006110a3826110aa565b9050919050565b60006110b58261103a565b9050919050565b7f4e487b7100000000000000000000000000000000000000000000000000000000600052601160045260246000fd5b600080fd5b7f6e6f740000000000000000000000000000000000000000000000000000000000600082015250565b7f76616c7565000000000000000000000000000000000000000000000000000000600082015250565b7f7374617274656400000000000000000000000000000000000000000000000000600082015250565b7f656e646564000000000000000000000000000000000000000000000000000000600082015250565b61119d8161100a565b81146111a857600080fd5b5056fea2646970667358221220e4828e68bcc1465be2be60529a47c79b3776c1dd136f7d28dd3384cfb833460764736f6c63430008070033",
					"opcodes": "PUSH1 0xE0 PUSH1 0x40 MSTORE CALLVALUE DUP1 ISZERO PUSH3 0x11 JUMPI PUSH1 0x0 DUP1 REVERT JUMPDEST POP PUSH1 0x40 MLOAD PUSH3 0x141B CODESIZE SUB DUP1 PUSH3 0x141B DUP4 CODECOPY DUP2 DUP2 ADD PUSH1 0x40 MSTORE DUP2 ADD SWAP1 PUSH3 0x37 SWAP2 SWAP1 PUSH3 0xEB JUMP JUMPDEST DUP3 PUSH20 0xFFFFFFFFFFFFFFFFFFFFFFFFFFFFFFFFFFFFFFFF AND PUSH1 0x80 DUP2 PUSH20 0xFFFFFFFFFFFFFFFFFFFFFFFFFFFFFFFFFFFFFFFF AND PUSH1 0x60 SHL DUP2 MSTORE POP POP DUP2 PUSH1 0xA0 DUP2 DUP2 MSTORE POP POP CALLER PUSH20 0xFFFFFFFFFFFFFFFFFFFFFFFFFFFFFFFFFFFFFFFF AND PUSH1 0xC0 DUP2 PUSH20 0xFFFFFFFFFFFFFFFFFFFFFFFFFFFFFFFFFFFFFFFF AND PUSH1 0x60 SHL DUP2 MSTORE POP POP DUP1 PUSH1 0x1 DUP2 SWAP1 SSTORE POP POP POP POP PUSH3 0x1BE JUMP JUMPDEST PUSH1 0x0 DUP2 MLOAD SWAP1 POP PUSH3 0xCE DUP2 PUSH3 0x18A JUMP JUMPDEST SWAP3 SWAP2 POP POP JUMP JUMPDEST PUSH1 0x0 DUP2 MLOAD SWAP1 POP PUSH3 0xE5 DUP2 PUSH3 0x1A4 JUMP JUMPDEST SWAP3 SWAP2 POP POP JUMP JUMPDEST PUSH1 0x0 DUP1 PUSH1 0x0 PUSH1 0x60 DUP5 DUP7 SUB SLT ISZERO PUSH3 0x107 JUMPI PUSH3 0x106 PUSH3 0x185 JUMP JUMPDEST JUMPDEST PUSH1 0x0 PUSH3 0x117 DUP7 DUP3 DUP8 ADD PUSH3 0xBD JUMP JUMPDEST SWAP4 POP POP PUSH1 0x20 PUSH3 0x12A DUP7 DUP3 DUP8 ADD PUSH3 0xD4 JUMP JUMPDEST SWAP3 POP POP PUSH1 0x40 PUSH3 0x13D DUP7 DUP3 DUP8 ADD PUSH3 0xD4 JUMP JUMPDEST SWAP2 POP POP SWAP3 POP SWAP3 POP SWAP3 JUMP JUMPDEST PUSH1 0x0 PUSH3 0x154 DUP3 PUSH3 0x15B JUMP JUMPDEST SWAP1 POP SWAP2 SWAP1 POP JUMP JUMPDEST PUSH1 0x0 PUSH20 0xFFFFFFFFFFFFFFFFFFFFFFFFFFFFFFFFFFFFFFFF DUP3 AND SWAP1 POP SWAP2 SWAP1 POP JUMP JUMPDEST PUSH1 0x0 DUP2 SWAP1 POP SWAP2 SWAP1 POP JUMP JUMPDEST PUSH1 0x0 DUP1 REVERT JUMPDEST PUSH3 0x195 DUP2 PUSH3 0x147 JUMP JUMPDEST DUP2 EQ PUSH3 0x1A1 JUMPI PUSH1 0x0 DUP1 REVERT JUMPDEST POP JUMP JUMPDEST PUSH3 0x1AF DUP2 PUSH3 0x17B JUMP JUMPDEST DUP2 EQ PUSH3 0x1BB JUMPI PUSH1 0x0 DUP1 REVERT JUMPDEST POP JUMP JUMPDEST PUSH1 0x80 MLOAD PUSH1 0x60 SHR PUSH1 0xA0 MLOAD PUSH1 0xC0 MLOAD PUSH1 0x60 SHR PUSH2 0x11E1 PUSH3 0x23A PUSH1 0x0 CODECOPY PUSH1 0x0 DUP2 DUP2 PUSH2 0x2AD ADD MSTORE DUP2 DUP2 PUSH2 0x6E1 ADD MSTORE DUP2 DUP2 PUSH2 0x842 ADD MSTORE DUP2 DUP2 PUSH2 0xB67 ADD MSTORE PUSH2 0xC12 ADD MSTORE PUSH1 0x0 DUP2 DUP2 PUSH2 0x864 ADD MSTORE DUP2 DUP2 PUSH2 0x903 ADD MSTORE DUP2 DUP2 PUSH2 0xAF6 ADD MSTORE PUSH2 0xC33 ADD MSTORE PUSH1 0x0 DUP2 DUP2 PUSH2 0x66B ADD MSTORE DUP2 DUP2 PUSH2 0x806 ADD MSTORE DUP2 DUP2 PUSH2 0xA96 ADD MSTORE PUSH2 0xBD5 ADD MSTORE PUSH2 0x11E1 PUSH1 0x0 RETURN INVALID PUSH1 0x80 PUSH1 0x40 MSTORE PUSH1 0x4 CALLDATASIZE LT PUSH2 0xC2 JUMPI PUSH1 0x0 CALLDATALOAD PUSH1 0xE0 SHR DUP1 PUSH4 0x62EA82DB GT PUSH2 0x7F JUMPI DUP1 PUSH4 0xBE9A6555 GT PUSH2 0x59 JUMPI DUP1 PUSH4 0xBE9A6555 EQ PUSH2 0x227 JUMPI DUP1 PUSH4 0xC6BC5182 EQ PUSH2 0x23E JUMPI DUP1 PUSH4 0xD57BDE79 EQ PUSH2 0x269 JUMPI DUP1 PUSH4 0xEFBE1C1C EQ PUSH2 0x294 JUMPI PUSH2 0xC2 JUMP JUMPDEST DUP1 PUSH4 0x62EA82DB EQ PUSH2 0x194 JUMPI DUP1 PUSH4 0x7CC3AE8C EQ PUSH2 0x1D1 JUMPI DUP1 PUSH4 0x91F90157 EQ PUSH2 0x1FC JUMPI PUSH2 0xC2 JUMP JUMPDEST DUP1 PUSH4 0x8551A53 EQ PUSH2 0xC7 JUMPI DUP1 PUSH4 0x12FA6FEB EQ PUSH2 0xF2 JUMPI DUP1 PUSH4 0x1998AEEF EQ PUSH2 0x11D JUMPI DUP1 PUSH4 0x1F2698AB EQ PUSH2 0x127 JUMPI DUP1 PUSH4 0x3CCFD60B EQ PUSH2 0x152 JUMPI DUP1 PUSH4 0x47CCCA02 EQ PUSH2 0x169 JUMPI JUMPDEST PUSH1 0x0 DUP1 REVERT JUMPDEST CALLVALUE DUP1 ISZERO PUSH2 0xD3 JUMPI PUSH1 0x0 DUP1 REVERT JUMPDEST POP PUSH2 0xDC PUSH2 0x2AB JUMP JUMPDEST PUSH1 0x40 MLOAD PUSH2 0xE9 SWAP2 SWAP1 PUSH2 0xDF7 JUMP JUMPDEST PUSH1 0x40 MLOAD DUP1 SWAP2 SUB SWAP1 RETURN JUMPDEST CALLVALUE DUP1 ISZERO PUSH2 0xFE JUMPI PUSH1 0x0 DUP1 REVERT JUMPDEST POP PUSH2 0x107 PUSH2 0x2CF JUMP JUMPDEST PUSH1 0x40 MLOAD PUSH2 0x114 SWAP2 SWAP1 PUSH2 0xEB7 JUMP JUMPDEST PUSH1 0x40 MLOAD DUP1 SWAP2 SUB SWAP1 RETURN JUMPDEST PUSH2 0x125 PUSH2 0x2E2 JUMP JUMPDEST STOP JUMPDEST CALLVALUE DUP1 ISZERO PUSH2 0x133 JUMPI PUSH1 0x0 DUP1 REVERT JUMPDEST POP PUSH2 0x13C PUSH2 0x535 JUMP JUMPDEST PUSH1 0x40 MLOAD PUSH2 0x149 SWAP2 SWAP1 PUSH2 0xEB7 JUMP JUMPDEST PUSH1 0x40 MLOAD DUP1 SWAP2 SUB SWAP1 RETURN JUMPDEST CALLVALUE DUP1 ISZERO PUSH2 0x15E JUMPI PUSH1 0x0 DUP1 REVERT JUMPDEST POP PUSH2 0x167 PUSH2 0x548 JUMP JUMPDEST STOP JUMPDEST CALLVALUE DUP1 ISZERO PUSH2 0x175 JUMPI PUSH1 0x0 DUP1 REVERT JUMPDEST POP PUSH2 0x17E PUSH2 0x669 JUMP JUMPDEST PUSH1 0x40 MLOAD PUSH2 0x18B SWAP2 SWAP1 PUSH2 0xED2 JUMP JUMPDEST PUSH1 0x40 MLOAD DUP1 SWAP2 SUB SWAP1 RETURN JUMPDEST CALLVALUE DUP1 ISZERO PUSH2 0x1A0 JUMPI PUSH1 0x0 DUP1 REVERT JUMPDEST POP PUSH2 0x1BB PUSH1 0x4 DUP1 CALLDATASIZE SUB DUP2 ADD SWAP1 PUSH2 0x1B6 SWAP2 SWAP1 PUSH2 0xCBA JUMP JUMPDEST PUSH2 0x68D JUMP JUMPDEST PUSH1 0x40 MLOAD PUSH2 0x1C8 SWAP2 SWAP1 PUSH2 0xF6D JUMP JUMPDEST PUSH1 0x40 MLOAD DUP1 SWAP2 SUB SWAP1 RETURN JUMPDEST CALLVALUE DUP1 ISZERO PUSH2 0x1DD JUMPI PUSH1 0x0 DUP1 REVERT JUMPDEST POP PUSH2 0x1E6 PUSH2 0x6A5 JUMP JUMPDEST PUSH1 0x40 MLOAD PUSH2 0x1F3 SWAP2 SWAP1 PUSH2 0xF88 JUMP JUMPDEST PUSH1 0x40 MLOAD DUP1 SWAP2 SUB SWAP1 RETURN JUMPDEST CALLVALUE DUP1 ISZERO PUSH2 0x208 JUMPI PUSH1 0x0 DUP1 REVERT JUMPDEST POP PUSH2 0x211 PUSH2 0x6B9 JUMP JUMPDEST PUSH1 0x40 MLOAD PUSH2 0x21E SWAP2 SWAP1 PUSH2 0xDDC JUMP JUMPDEST PUSH1 0x40 MLOAD DUP1 SWAP2 SUB SWAP1 RETURN JUMPDEST CALLVALUE DUP1 ISZERO PUSH2 0x233 JUMPI PUSH1 0x0 DUP1 REVERT JUMPDEST POP PUSH2 0x23C PUSH2 0x6DF JUMP JUMPDEST STOP JUMPDEST CALLVALUE DUP1 ISZERO PUSH2 0x24A JUMPI PUSH1 0x0 DUP1 REVERT JUMPDEST POP PUSH2 0x253 PUSH2 0x901 JUMP JUMPDEST PUSH1 0x40 MLOAD PUSH2 0x260 SWAP2 SWAP1 PUSH2 0xF6D JUMP JUMPDEST PUSH1 0x40 MLOAD DUP1 SWAP2 SUB SWAP1 RETURN JUMPDEST CALLVALUE DUP1 ISZERO PUSH2 0x275 JUMPI PUSH1 0x0 DUP1 REVERT JUMPDEST POP PUSH2 0x27E PUSH2 0x925 JUMP JUMPDEST PUSH1 0x40 MLOAD PUSH2 0x28B SWAP2 SWAP1 PUSH2 0xF6D JUMP JUMPDEST PUSH1 0x40 MLOAD DUP1 SWAP2 SUB SWAP1 RETURN JUMPDEST CALLVALUE DUP1 ISZERO PUSH2 0x2A0 JUMPI PUSH1 0x0 DUP1 REVERT JUMPDEST POP PUSH2 0x2A9 PUSH2 0x92B JUMP JUMPDEST STOP JUMPDEST PUSH32 0x0 DUP2 JUMP JUMPDEST PUSH1 0x0 PUSH1 0x5 SWAP1 SLOAD SWAP1 PUSH2 0x100 EXP SWAP1 DIV PUSH1 0xFF AND DUP2 JUMP JUMPDEST PUSH1 0x0 PUSH1 0x4 SWAP1 SLOAD SWAP1 PUSH2 0x100 EXP SWAP1 DIV PUSH1 0xFF AND PUSH2 0x331 JUMPI PUSH1 0x40 MLOAD PUSH32 0x8C379A000000000000000000000000000000000000000000000000000000000 DUP2 MSTORE PUSH1 0x4 ADD PUSH2 0x328 SWAP1 PUSH2 0xEED JUMP JUMPDEST PUSH1 0x40 MLOAD DUP1 SWAP2 SUB SWAP1 REVERT JUMPDEST PUSH1 0x0 DUP1 SLOAD SWAP1 PUSH2 0x100 EXP SWAP1 DIV PUSH4 0xFFFFFFFF AND PUSH4 0xFFFFFFFF AND TIMESTAMP LT PUSH2 0x389 JUMPI PUSH1 0x40 MLOAD PUSH32 0x8C379A000000000000000000000000000000000000000000000000000000000 DUP2 MSTORE PUSH1 0x4 ADD PUSH2 0x380 SWAP1 PUSH2 0xF4D JUMP JUMPDEST PUSH1 0x40 MLOAD DUP1 SWAP2 SUB SWAP1 REVERT JUMPDEST PUSH1 0x1 SLOAD CALLVALUE GT PUSH2 0x3CD JUMPI PUSH1 0x40 MLOAD PUSH32 0x8C379A000000000000000000000000000000000000000000000000000000000 DUP2 MSTORE PUSH1 0x4 ADD PUSH2 0x3C4 SWAP1 PUSH2 0xF0D JUMP JUMPDEST PUSH1 0x40 MLOAD DUP1 SWAP2 SUB SWAP1 REVERT JUMPDEST PUSH1 0x0 PUSH20 0xFFFFFFFFFFFFFFFFFFFFFFFFFFFFFFFFFFFFFFFF AND PUSH1 0x0 PUSH1 0x6 SWAP1 SLOAD SWAP1 PUSH2 0x100 EXP SWAP1 DIV PUSH20 0xFFFFFFFFFFFFFFFFFFFFFFFFFFFFFFFFFFFFFFFF AND PUSH20 0xFFFFFFFFFFFFFFFFFFFFFFFFFFFFFFFFFFFFFFFF AND EQ PUSH2 0x49D JUMPI PUSH1 0x1 SLOAD PUSH1 0x2 PUSH1 0x0 DUP1 PUSH1 0x6 SWAP1 SLOAD SWAP1 PUSH2 0x100 EXP SWAP1 DIV PUSH20 0xFFFFFFFFFFFFFFFFFFFFFFFFFFFFFFFFFFFFFFFF AND PUSH20 0xFFFFFFFFFFFFFFFFFFFFFFFFFFFFFFFFFFFFFFFF AND PUSH20 0xFFFFFFFFFFFFFFFFFFFFFFFFFFFFFFFFFFFFFFFF AND DUP2 MSTORE PUSH1 0x20 ADD SWAP1 DUP2 MSTORE PUSH1 0x20 ADD PUSH1 0x0 KECCAK256 PUSH1 0x0 DUP3 DUP3 SLOAD PUSH2 0x495 SWAP2 SWAP1 PUSH2 0xFB4 JUMP JUMPDEST SWAP3 POP POP DUP2 SWAP1 SSTORE POP JUMPDEST CALLVALUE PUSH1 0x1 DUP2 SWAP1 SSTORE POP CALLER PUSH1 0x0 PUSH1 0x6 PUSH2 0x100 EXP DUP2 SLOAD DUP2 PUSH20 0xFFFFFFFFFFFFFFFFFFFFFFFFFFFFFFFFFFFFFFFF MUL NOT AND SWAP1 DUP4 PUSH20 0xFFFFFFFFFFFFFFFFFFFFFFFFFFFFFFFFFFFFFFFF AND MUL OR SWAP1 SSTORE POP CALLER PUSH20 0xFFFFFFFFFFFFFFFFFFFFFFFFFFFFFFFFFFFFFFFF AND PUSH32 0xE684A55F31B79ECA403DF938249029212A5925EC6BE8012E099B45BC1019E5D2 CALLVALUE PUSH1 0x40 MLOAD PUSH2 0x52B SWAP2 SWAP1 PUSH2 0xF6D JUMP JUMPDEST PUSH1 0x40 MLOAD DUP1 SWAP2 SUB SWAP1 LOG2 JUMP JUMPDEST PUSH1 0x0 PUSH1 0x4 SWAP1 SLOAD SWAP1 PUSH2 0x100 EXP SWAP1 DIV PUSH1 0xFF AND DUP2 JUMP JUMPDEST PUSH1 0x0 PUSH1 0x2 PUSH1 0x0 CALLER PUSH20 0xFFFFFFFFFFFFFFFFFFFFFFFFFFFFFFFFFFFFFFFF AND PUSH20 0xFFFFFFFFFFFFFFFFFFFFFFFFFFFFFFFFFFFFFFFF AND DUP2 MSTORE PUSH1 0x20 ADD SWAP1 DUP2 MSTORE PUSH1 0x20 ADD PUSH1 0x0 KECCAK256 SLOAD SWAP1 POP PUSH1 0x0 PUSH1 0x2 PUSH1 0x0 CALLER PUSH20 0xFFFFFFFFFFFFFFFFFFFFFFFFFFFFFFFFFFFFFFFF AND PUSH20 0xFFFFFFFFFFFFFFFFFFFFFFFFFFFFFFFFFFFFFFFF AND DUP2 MSTORE PUSH1 0x20 ADD SWAP1 DUP2 MSTORE PUSH1 0x20 ADD PUSH1 0x0 KECCAK256 DUP2 SWAP1 SSTORE POP CALLER PUSH20 0xFFFFFFFFFFFFFFFFFFFFFFFFFFFFFFFFFFFFFFFF AND PUSH2 0x8FC DUP3 SWAP1 DUP2 ISZERO MUL SWAP1 PUSH1 0x40 MLOAD PUSH1 0x0 PUSH1 0x40 MLOAD DUP1 DUP4 SUB DUP2 DUP6 DUP9 DUP9 CALL SWAP4 POP POP POP POP ISZERO DUP1 ISZERO PUSH2 0x617 JUMPI RETURNDATASIZE PUSH1 0x0 DUP1 RETURNDATACOPY RETURNDATASIZE PUSH1 0x0 REVERT JUMPDEST POP CALLER PUSH20 0xFFFFFFFFFFFFFFFFFFFFFFFFFFFFFFFFFFFFFFFF AND PUSH32 0x884EDAD9CE6FA2440D8A54CC123490EB96D2768479D49FF9C7366125A9424364 DUP3 PUSH1 0x40 MLOAD PUSH2 0x65E SWAP2 SWAP1 PUSH2 0xF6D JUMP JUMPDEST PUSH1 0x40 MLOAD DUP1 SWAP2 SUB SWAP1 LOG2 POP JUMP JUMPDEST PUSH32 0x0 DUP2 JUMP JUMPDEST PUSH1 0x2 PUSH1 0x20 MSTORE DUP1 PUSH1 0x0 MSTORE PUSH1 0x40 PUSH1 0x0 KECCAK256 PUSH1 0x0 SWAP2 POP SWAP1 POP SLOAD DUP2 JUMP JUMPDEST PUSH1 0x0 DUP1 SLOAD SWAP1 PUSH2 0x100 EXP SWAP1 DIV PUSH4 0xFFFFFFFF AND DUP2 JUMP JUMPDEST PUSH1 0x0 PUSH1 0x6 SWAP1 SLOAD SWAP1 PUSH2 0x100 EXP SWAP1 DIV PUSH20 0xFFFFFFFFFFFFFFFFFFFFFFFFFFFFFFFFFFFFFFFF AND DUP2 JUMP JUMPDEST PUSH32 0x0 PUSH20 0xFFFFFFFFFFFFFFFFFFFFFFFFFFFFFFFFFFFFFFFF AND CALLER PUSH20 0xFFFFFFFFFFFFFFFFFFFFFFFFFFFFFFFFFFFFFFFF AND EQ PUSH2 0x76D JUMPI PUSH1 0x40 MLOAD PUSH32 0x8C379A000000000000000000000000000000000000000000000000000000000 DUP2 MSTORE PUSH1 0x4 ADD PUSH2 0x764 SWAP1 PUSH2 0xEED JUMP JUMPDEST PUSH1 0x40 MLOAD DUP1 SWAP2 SUB SWAP1 REVERT JUMPDEST PUSH1 0x0 PUSH1 0x4 SWAP1 SLOAD SWAP1 PUSH2 0x100 EXP SWAP1 DIV PUSH1 0xFF AND ISZERO PUSH2 0x7BD JUMPI PUSH1 0x40 MLOAD PUSH32 0x8C379A000000000000000000000000000000000000000000000000000000000 DUP2 MSTORE PUSH1 0x4 ADD PUSH2 0x7B4 SWAP1 PUSH2 0xF2D JUMP JUMPDEST PUSH1 0x40 MLOAD DUP1 SWAP2 SUB SWAP1 REVERT JUMPDEST PUSH1 0x1 PUSH1 0x0 PUSH1 0x4 PUSH2 0x100 EXP DUP2 SLOAD DUP2 PUSH1 0xFF MUL NOT AND SWAP1 DUP4 ISZERO ISZERO MUL OR SWAP1 SSTORE POP PUSH1 0x3C TIMESTAMP PUSH2 0x7E5 SWAP2 SWAP1 PUSH2 0xFB4 JUMP JUMPDEST PUSH1 0x0 DUP1 PUSH2 0x100 EXP DUP2 SLOAD DUP2 PUSH4 0xFFFFFFFF MUL NOT AND SWAP1 DUP4 PUSH4 0xFFFFFFFF AND MUL OR SWAP1 SSTORE POP PUSH32 0x0 PUSH20 0xFFFFFFFFFFFFFFFFFFFFFFFFFFFFFFFFFFFFFFFF AND PUSH4 0x23B872DD PUSH32 0x0 ADDRESS PUSH32 0x0 PUSH1 0x40 MLOAD DUP5 PUSH4 0xFFFFFFFF AND PUSH1 0xE0 SHL DUP2 MSTORE PUSH1 0x4 ADD PUSH2 0x8A1 SWAP4 SWAP3 SWAP2 SWAP1 PUSH2 0xE12 JUMP JUMPDEST PUSH1 0x0 PUSH1 0x40 MLOAD DUP1 DUP4 SUB DUP2 PUSH1 0x0 DUP8 DUP1 EXTCODESIZE ISZERO DUP1 ISZERO PUSH2 0x8BB JUMPI PUSH1 0x0 DUP1 REVERT JUMPDEST POP GAS CALL ISZERO DUP1 ISZERO PUSH2 0x8CF JUMPI RETURNDATASIZE PUSH1 0x0 DUP1 RETURNDATACOPY RETURNDATASIZE PUSH1 0x0 REVERT JUMPDEST POP POP POP POP PUSH32 0x1B55BA3AA851A46BE3B365AEE5B5C140EDD620D578922F3E8466D2CBD96F954B PUSH1 0x40 MLOAD PUSH1 0x40 MLOAD DUP1 SWAP2 SUB SWAP1 LOG1 JUMP JUMPDEST PUSH32 0x0 DUP2 JUMP JUMPDEST PUSH1 0x1 SLOAD DUP2 JUMP JUMPDEST PUSH1 0x0 PUSH1 0x4 SWAP1 SLOAD SWAP1 PUSH2 0x100 EXP SWAP1 DIV PUSH1 0xFF AND PUSH2 0x97A JUMPI PUSH1 0x40 MLOAD PUSH32 0x8C379A000000000000000000000000000000000000000000000000000000000 DUP2 MSTORE PUSH1 0x4 ADD PUSH2 0x971 SWAP1 PUSH2 0xEED JUMP JUMPDEST PUSH1 0x40 MLOAD DUP1 SWAP2 SUB SWAP1 REVERT JUMPDEST PUSH1 0x0 PUSH1 0x5 SWAP1 SLOAD SWAP1 PUSH2 0x100 EXP SWAP1 DIV PUSH1 0xFF AND ISZERO PUSH2 0x9CA JUMPI PUSH1 0x40 MLOAD PUSH32 0x8C379A000000000000000000000000000000000000000000000000000000000 DUP2 MSTORE PUSH1 0x4 ADD PUSH2 0x9C1 SWAP1 PUSH2 0xEED JUMP JUMPDEST PUSH1 0x40 MLOAD DUP1 SWAP2 SUB SWAP1 REVERT JUMPDEST PUSH1 0x0 DUP1 SLOAD SWAP1 PUSH2 0x100 EXP SWAP1 DIV PUSH4 0xFFFFFFFF AND PUSH4 0xFFFFFFFF AND TIMESTAMP LT ISZERO PUSH2 0xA23 JUMPI PUSH1 0x40 MLOAD PUSH32 0x8C379A000000000000000000000000000000000000000000000000000000000 DUP2 MSTORE PUSH1 0x4 ADD PUSH2 0xA1A SWAP1 PUSH2 0xEED JUMP JUMPDEST PUSH1 0x40 MLOAD DUP1 SWAP2 SUB SWAP1 REVERT JUMPDEST PUSH1 0x1 PUSH1 0x0 PUSH1 0x5 PUSH2 0x100 EXP DUP2 SLOAD DUP2 PUSH1 0xFF MUL NOT AND SWAP1 DUP4 ISZERO ISZERO MUL OR SWAP1 SSTORE POP PUSH1 0x0 PUSH20 0xFFFFFFFFFFFFFFFFFFFFFFFFFFFFFFFFFFFFFFFF AND PUSH1 0x0 PUSH1 0x6 SWAP1 SLOAD SWAP1 PUSH2 0x100 EXP SWAP1 DIV PUSH20 0xFFFFFFFFFFFFFFFFFFFFFFFFFFFFFFFFFFFFFFFF AND PUSH20 0xFFFFFFFFFFFFFFFFFFFFFFFFFFFFFFFFFFFFFFFF AND EQ PUSH2 0xBD3 JUMPI PUSH32 0x0 PUSH20 0xFFFFFFFFFFFFFFFFFFFFFFFFFFFFFFFFFFFFFFFF AND PUSH4 0x23B872DD ADDRESS PUSH1 0x0 PUSH1 0x6 SWAP1 SLOAD SWAP1 PUSH2 0x100 EXP SWAP1 DIV PUSH20 0xFFFFFFFFFFFFFFFFFFFFFFFFFFFFFFFFFFFFFFFF AND PUSH32 0x0 PUSH1 0x40 MLOAD DUP5 PUSH4 0xFFFFFFFF AND PUSH1 0xE0 SHL DUP2 MSTORE PUSH1 0x4 ADD PUSH2 0xB33 SWAP4 SWAP3 SWAP2 SWAP1 PUSH2 0xE80 JUMP JUMPDEST PUSH1 0x0 PUSH1 0x40 MLOAD DUP1 DUP4 SUB DUP2 PUSH1 0x0 DUP8 DUP1 EXTCODESIZE ISZERO DUP1 ISZERO PUSH2 0xB4D JUMPI PUSH1 0x0 DUP1 REVERT JUMPDEST POP GAS CALL ISZERO DUP1 ISZERO PUSH2 0xB61 JUMPI RETURNDATASIZE PUSH1 0x0 DUP1 RETURNDATACOPY RETURNDATASIZE PUSH1 0x0 REVERT JUMPDEST POP POP POP POP PUSH32 0x0 PUSH20 0xFFFFFFFFFFFFFFFFFFFFFFFFFFFFFFFFFFFFFFFF AND PUSH2 0x8FC PUSH1 0x1 SLOAD SWAP1 DUP2 ISZERO MUL SWAP1 PUSH1 0x40 MLOAD PUSH1 0x0 PUSH1 0x40 MLOAD DUP1 DUP4 SUB DUP2 DUP6 DUP9 DUP9 CALL SWAP4 POP POP POP POP ISZERO DUP1 ISZERO PUSH2 0xBCD JUMPI RETURNDATASIZE PUSH1 0x0 DUP1 RETURNDATACOPY RETURNDATASIZE PUSH1 0x0 REVERT JUMPDEST POP PUSH2 0xCA3 JUMP JUMPDEST PUSH32 0x0 PUSH20 0xFFFFFFFFFFFFFFFFFFFFFFFFFFFFFFFFFFFFFFFF AND PUSH4 0x23B872DD ADDRESS PUSH32 0x0 PUSH32 0x0 PUSH1 0x40 MLOAD DUP5 PUSH4 0xFFFFFFFF AND PUSH1 0xE0 SHL DUP2 MSTORE PUSH1 0x4 ADD PUSH2 0xC70 SWAP4 SWAP3 SWAP2 SWAP1 PUSH2 0xE49 JUMP JUMPDEST PUSH1 0x0 PUSH1 0x40 MLOAD DUP1 DUP4 SUB DUP2 PUSH1 0x0 DUP8 DUP1 EXTCODESIZE ISZERO DUP1 ISZERO PUSH2 0xC8A JUMPI PUSH1 0x0 DUP1 REVERT JUMPDEST POP GAS CALL ISZERO DUP1 ISZERO PUSH2 0xC9E JUMPI RETURNDATASIZE PUSH1 0x0 DUP1 RETURNDATACOPY RETURNDATASIZE PUSH1 0x0 REVERT JUMPDEST POP POP POP POP JUMPDEST JUMP JUMPDEST PUSH1 0x0 DUP2 CALLDATALOAD SWAP1 POP PUSH2 0xCB4 DUP2 PUSH2 0x1194 JUMP JUMPDEST SWAP3 SWAP2 POP POP JUMP JUMPDEST PUSH1 0x0 PUSH1 0x20 DUP3 DUP5 SUB SLT ISZERO PUSH2 0xCD0 JUMPI PUSH2 0xCCF PUSH2 0x10EB JUMP JUMPDEST JUMPDEST PUSH1 0x0 PUSH2 0xCDE DUP5 DUP3 DUP6 ADD PUSH2 0xCA5 JUMP JUMPDEST SWAP2 POP POP SWAP3 SWAP2 POP POP JUMP JUMPDEST PUSH2 0xCF0 DUP2 PUSH2 0x1074 JUMP JUMPDEST DUP3 MSTORE POP POP JUMP JUMPDEST PUSH2 0xCFF DUP2 PUSH2 0x101C JUMP JUMPDEST DUP3 MSTORE POP POP JUMP JUMPDEST PUSH2 0xD0E DUP2 PUSH2 0x100A JUMP JUMPDEST DUP3 MSTORE POP POP JUMP JUMPDEST PUSH2 0xD1D DUP2 PUSH2 0x102E JUMP JUMPDEST DUP3 MSTORE POP POP JUMP JUMPDEST PUSH2 0xD2C DUP2 PUSH2 0x1086 JUMP JUMPDEST DUP3 MSTORE POP POP JUMP JUMPDEST PUSH1 0x0 PUSH2 0xD3F PUSH1 0x3 DUP4 PUSH2 0xFA3 JUMP JUMPDEST SWAP2 POP PUSH2 0xD4A DUP3 PUSH2 0x10F0 JUMP JUMPDEST PUSH1 0x20 DUP3 ADD SWAP1 POP SWAP2 SWAP1 POP JUMP JUMPDEST PUSH1 0x0 PUSH2 0xD62 PUSH1 0x5 DUP4 PUSH2 0xFA3 JUMP JUMPDEST SWAP2 POP PUSH2 0xD6D DUP3 PUSH2 0x1119 JUMP JUMPDEST PUSH1 0x20 DUP3 ADD SWAP1 POP SWAP2 SWAP1 POP JUMP JUMPDEST PUSH1 0x0 PUSH2 0xD85 PUSH1 0x7 DUP4 PUSH2 0xFA3 JUMP JUMPDEST SWAP2 POP PUSH2 0xD90 DUP3 PUSH2 0x1142 JUMP JUMPDEST PUSH1 0x20 DUP3 ADD SWAP1 POP SWAP2 SWAP1 POP JUMP JUMPDEST PUSH1 0x0 PUSH2 0xDA8 PUSH1 0x5 DUP4 PUSH2 0xFA3 JUMP JUMPDEST SWAP2 POP PUSH2 0xDB3 DUP3 PUSH2 0x116B JUMP JUMPDEST PUSH1 0x20 DUP3 ADD SWAP1 POP SWAP2 SWAP1 POP JUMP JUMPDEST PUSH2 0xDC7 DUP2 PUSH2 0x105A JUMP JUMPDEST DUP3 MSTORE POP POP JUMP JUMPDEST PUSH2 0xDD6 DUP2 PUSH2 0x1064 JUMP JUMPDEST DUP3 MSTORE POP POP JUMP JUMPDEST PUSH1 0x0 PUSH1 0x20 DUP3 ADD SWAP1 POP PUSH2 0xDF1 PUSH1 0x0 DUP4 ADD DUP5 PUSH2 0xD05 JUMP JUMPDEST SWAP3 SWAP2 POP POP JUMP JUMPDEST PUSH1 0x0 PUSH1 0x20 DUP3 ADD SWAP1 POP PUSH2 0xE0C PUSH1 0x0 DUP4 ADD DUP5 PUSH2 0xCF6 JUMP JUMPDEST SWAP3 SWAP2 POP POP JUMP JUMPDEST PUSH1 0x0 PUSH1 0x60 DUP3 ADD SWAP1 POP PUSH2 0xE27 PUSH1 0x0 DUP4 ADD DUP7 PUSH2 0xCE7 JUMP JUMPDEST PUSH2 0xE34 PUSH1 0x20 DUP4 ADD DUP6 PUSH2 0xD05 JUMP JUMPDEST PUSH2 0xE41 PUSH1 0x40 DUP4 ADD DUP5 PUSH2 0xDBE JUMP JUMPDEST SWAP5 SWAP4 POP POP POP POP JUMP JUMPDEST PUSH1 0x0 PUSH1 0x60 DUP3 ADD SWAP1 POP PUSH2 0xE5E PUSH1 0x0 DUP4 ADD DUP7 PUSH2 0xD05 JUMP JUMPDEST PUSH2 0xE6B PUSH1 0x20 DUP4 ADD DUP6 PUSH2 0xCE7 JUMP JUMPDEST PUSH2 0xE78 PUSH1 0x40 DUP4 ADD DUP5 PUSH2 0xDBE JUMP JUMPDEST SWAP5 SWAP4 POP POP POP POP JUMP JUMPDEST PUSH1 0x0 PUSH1 0x60 DUP3 ADD SWAP1 POP PUSH2 0xE95 PUSH1 0x0 DUP4 ADD DUP7 PUSH2 0xD05 JUMP JUMPDEST PUSH2 0xEA2 PUSH1 0x20 DUP4 ADD DUP6 PUSH2 0xD05 JUMP JUMPDEST PUSH2 0xEAF PUSH1 0x40 DUP4 ADD DUP5 PUSH2 0xDBE JUMP JUMPDEST SWAP5 SWAP4 POP POP POP POP JUMP JUMPDEST PUSH1 0x0 PUSH1 0x20 DUP3 ADD SWAP1 POP PUSH2 0xECC PUSH1 0x0 DUP4 ADD DUP5 PUSH2 0xD14 JUMP JUMPDEST SWAP3 SWAP2 POP POP JUMP JUMPDEST PUSH1 0x0 PUSH1 0x20 DUP3 ADD SWAP1 POP PUSH2 0xEE7 PUSH1 0x0 DUP4 ADD DUP5 PUSH2 0xD23 JUMP JUMPDEST SWAP3 SWAP2 POP POP JUMP JUMPDEST PUSH1 0x0 PUSH1 0x20 DUP3 ADD SWAP1 POP DUP2 DUP2 SUB PUSH1 0x0 DUP4 ADD MSTORE PUSH2 0xF06 DUP2 PUSH2 0xD32 JUMP JUMPDEST SWAP1 POP SWAP2 SWAP1 POP JUMP JUMPDEST PUSH1 0x0 PUSH1 0x20 DUP3 ADD SWAP1 POP DUP2 DUP2 SUB PUSH1 0x0 DUP4 ADD MSTORE PUSH2 0xF26 DUP2 PUSH2 0xD55 JUMP JUMPDEST SWAP1 POP SWAP2 SWAP1 POP JUMP JUMPDEST PUSH1 0x0 PUSH1 0x20 DUP3 ADD SWAP1 POP DUP2 DUP2 SUB PUSH1 0x0 DUP4 ADD MSTORE PUSH2 0xF46 DUP2 PUSH2 0xD78 JUMP JUMPDEST SWAP1 POP SWAP2 SWAP1 POP JUMP JUMPDEST PUSH1 0x0 PUSH1 0x20 DUP3 ADD SWAP1 POP DUP2 DUP2 SUB PUSH1 0x0 DUP4 ADD MSTORE PUSH2 0xF66 DUP2 PUSH2 0xD9B JUMP JUMPDEST SWAP1 POP SWAP2 SWAP1 POP JUMP JUMPDEST PUSH1 0x0 PUSH1 0x20 DUP3 ADD SWAP1 POP PUSH2 0xF82 PUSH1 0x0 DUP4 ADD DUP5 PUSH2 0xDBE JUMP JUMPDEST SWAP3 SWAP2 POP POP JUMP JUMPDEST PUSH1 0x0 PUSH1 0x20 DUP3 ADD SWAP1 POP PUSH2 0xF9D PUSH1 0x0 DUP4 ADD DUP5 PUSH2 0xDCD JUMP JUMPDEST SWAP3 SWAP2 POP POP JUMP JUMPDEST PUSH1 0x0 DUP3 DUP3 MSTORE PUSH1 0x20 DUP3 ADD SWAP1 POP SWAP3 SWAP2 POP POP JUMP JUMPDEST PUSH1 0x0 PUSH2 0xFBF DUP3 PUSH2 0x105A JUMP JUMPDEST SWAP2 POP PUSH2 0xFCA DUP4 PUSH2 0x105A JUMP JUMPDEST SWAP3 POP DUP3 PUSH32 0xFFFFFFFFFFFFFFFFFFFFFFFFFFFFFFFFFFFFFFFFFFFFFFFFFFFFFFFFFFFFFFFF SUB DUP3 GT ISZERO PUSH2 0xFFF JUMPI PUSH2 0xFFE PUSH2 0x10BC JUMP JUMPDEST JUMPDEST DUP3 DUP3 ADD SWAP1 POP SWAP3 SWAP2 POP POP JUMP JUMPDEST PUSH1 0x0 PUSH2 0x1015 DUP3 PUSH2 0x103A JUMP JUMPDEST SWAP1 POP SWAP2 SWAP1 POP JUMP JUMPDEST PUSH1 0x0 PUSH2 0x1027 DUP3 PUSH2 0x103A JUMP JUMPDEST SWAP1 POP SWAP2 SWAP1 POP JUMP JUMPDEST PUSH1 0x0 DUP2 ISZERO ISZERO SWAP1 POP SWAP2 SWAP1 POP JUMP JUMPDEST PUSH1 0x0 PUSH20 0xFFFFFFFFFFFFFFFFFFFFFFFFFFFFFFFFFFFFFFFF DUP3 AND SWAP1 POP SWAP2 SWAP1 POP JUMP JUMPDEST PUSH1 0x0 DUP2 SWAP1 POP SWAP2 SWAP1 POP JUMP JUMPDEST PUSH1 0x0 PUSH4 0xFFFFFFFF DUP3 AND SWAP1 POP SWAP2 SWAP1 POP JUMP JUMPDEST PUSH1 0x0 PUSH2 0x107F DUP3 PUSH2 0x1098 JUMP JUMPDEST SWAP1 POP SWAP2 SWAP1 POP JUMP JUMPDEST PUSH1 0x0 PUSH2 0x1091 DUP3 PUSH2 0x1098 JUMP JUMPDEST SWAP1 POP SWAP2 SWAP1 POP JUMP JUMPDEST PUSH1 0x0 PUSH2 0x10A3 DUP3 PUSH2 0x10AA JUMP JUMPDEST SWAP1 POP SWAP2 SWAP1 POP JUMP JUMPDEST PUSH1 0x0 PUSH2 0x10B5 DUP3 PUSH2 0x103A JUMP JUMPDEST SWAP1 POP SWAP2 SWAP1 POP JUMP JUMPDEST PUSH32 0x4E487B7100000000000000000000000000000000000000000000000000000000 PUSH1 0x0 MSTORE PUSH1 0x11 PUSH1 0x4 MSTORE PUSH1 0x24 PUSH1 0x0 REVERT JUMPDEST PUSH1 0x0 DUP1 REVERT JUMPDEST PUSH32 0x6E6F740000000000000000000000000000000000000000000000000000000000 PUSH1 0x0 DUP3 ADD MSTORE POP JUMP JUMPDEST PUSH32 0x76616C7565000000000000000000000000000000000000000000000000000000 PUSH1 0x0 DUP3 ADD MSTORE POP JUMP JUMPDEST PUSH32 0x7374617274656400000000000000000000000000000000000000000000000000 PUSH1 0x0 DUP3 ADD MSTORE POP JUMP JUMPDEST PUSH32 0x656E646564000000000000000000000000000000000000000000000000000000 PUSH1 0x0 DUP3 ADD MSTORE POP JUMP JUMPDEST PUSH2 0x119D DUP2 PUSH2 0x100A JUMP JUMPDEST DUP2 EQ PUSH2 0x11A8 JUMPI PUSH1 0x0 DUP1 REVERT JUMPDEST POP JUMP INVALID LOG2 PUSH5 0x6970667358 0x22 SLT KECCAK256 0xE4 DUP3 DUP15 PUSH9 0xBCC1465BE2BE60529A SELFBALANCE 0xC7 SWAP12 CALLDATACOPY PUSH23 0xC1DD136F7D28DD3384CFB833460764736F6C6343000807 STOP CALLER "
				},
				"gasEstimates": {
					"creation": {
						"codeDepositCost": "915400",
						"executionCost": "infinite",
						"totalCost": "infinite"
					},
					"external": {
						"bid()": "infinite",
						"bids(address)": "2837",
						"end()": "infinite",
						"endAt()": "2513",
						"ended()": "2544",
						"highestBid()": "2495",
						"highestBidder()": "2631",
						"nft()": "infinite",
						"nftId()": "infinite",
						"seller()": "infinite",
						"start()": "infinite",
						"started()": "2588",
						"withdraw()": "infinite"
					}
				},
				"methodIdentifiers": {
					"bid()": "1998aeef",
					"bids(address)": "62ea82db",
					"end()": "efbe1c1c",
					"endAt()": "7cc3ae8c",
					"ended()": "12fa6feb",
					"highestBid()": "d57bde79",
					"highestBidder()": "91f90157",
					"nft()": "47ccca02",
					"nftId()": "c6bc5182",
					"seller()": "08551a53",
					"start()": "be9a6555",
					"started()": "1f2698ab",
					"withdraw()": "3ccfd60b"
				}
			},
			"storageLayout": {
				"storage": [
					{
						"astId": 40,
						"contract": "contracts/EnglishAuction.sol:EnglishAuction",
						"label": "endAt",
						"offset": 0,
						"slot": "0",
						"type": "t_uint32"
					},
					{
						"astId": 42,
						"contract": "contracts/EnglishAuction.sol:EnglishAuction",
						"label": "started",
						"offset": 4,
						"slot": "0",
						"type": "t_bool"
					},
					{
						"astId": 44,
						"contract": "contracts/EnglishAuction.sol:EnglishAuction",
						"label": "ended",
						"offset": 5,
						"slot": "0",
						"type": "t_bool"
					},
					{
						"astId": 46,
						"contract": "contracts/EnglishAuction.sol:EnglishAuction",
						"label": "highestBidder",
						"offset": 6,
						"slot": "0",
						"type": "t_address"
					},
					{
						"astId": 48,
						"contract": "contracts/EnglishAuction.sol:EnglishAuction",
						"label": "highestBid",
						"offset": 0,
						"slot": "1",
						"type": "t_uint256"
					},
					{
						"astId": 52,
						"contract": "contracts/EnglishAuction.sol:EnglishAuction",
						"label": "bids",
						"offset": 0,
						"slot": "2",
						"type": "t_mapping(t_address,t_uint256)"
					}
				],
				"types": {
					"t_address": {
						"encoding": "inplace",
						"label": "address",
						"numberOfBytes": "20"
					},
					"t_bool": {
						"encoding": "inplace",
						"label": "bool",
						"numberOfBytes": "1"
					},
					"t_mapping(t_address,t_uint256)": {
						"encoding": "mapping",
						"key": "t_address",
						"label": "mapping(address => uint256)",
						"numberOfBytes": "32",
						"value": "t_uint256"
					},
					"t_uint256": {
						"encoding": "inplace",
						"label": "uint256",
						"numberOfBytes": "32"
					},
					"t_uint32": {
						"encoding": "inplace",
						"label": "uint32",
						"numberOfBytes": "4"
					}
				}
			},
			"userdoc": {
				"kind": "user",
				"methods": {},
				"version": 1
			}
		}
	}
}