{
	"contracts/SushiPool.sol": {
		"SushiPool": {
			"abi": [
				{
					"inputs": [
						{
							"internalType": "uint256",
							"name": "_output",
							"type": "uint256"
						}
					],
					"stateMutability": "nonpayable",
					"type": "constructor"
				},
				{
					"inputs": [],
					"name": "currentAt",
					"outputs": [
						{
							"internalType": "uint256",
							"name": "",
							"type": "uint256"
						}
					],
					"stateMutability": "view",
					"type": "function"
				},
				{
					"inputs": [],
					"name": "getUserInfo",
					"outputs": [
						{
							"internalType": "uint256",
							"name": "insert",
							"type": "uint256"
						},
						{
							"internalType": "uint256",
							"name": "ru",
							"type": "uint256"
						},
						{
							"internalType": "uint256",
							"name": "stakeNumber",
							"type": "uint256"
						}
					],
					"stateMutability": "view",
					"type": "function"
				},
				{
					"inputs": [],
					"name": "lastStakeTime",
					"outputs": [
						{
							"internalType": "uint256",
							"name": "",
							"type": "uint256"
						}
					],
					"stateMutability": "view",
					"type": "function"
				},
				{
					"inputs": [],
					"name": "output",
					"outputs": [
						{
							"internalType": "uint256",
							"name": "",
							"type": "uint256"
						}
					],
					"stateMutability": "view",
					"type": "function"
				},
				{
					"inputs": [],
					"name": "rn",
					"outputs": [
						{
							"internalType": "uint256",
							"name": "",
							"type": "uint256"
						}
					],
					"stateMutability": "view",
					"type": "function"
				},
				{
					"inputs": [
						{
							"internalType": "uint256",
							"name": "_amount",
							"type": "uint256"
						}
					],
					"name": "stake",
					"outputs": [],
					"stateMutability": "nonpayable",
					"type": "function"
				},
				{
					"inputs": [],
					"name": "stakeTotal",
					"outputs": [
						{
							"internalType": "uint256",
							"name": "",
							"type": "uint256"
						}
					],
					"stateMutability": "view",
					"type": "function"
				},
				{
					"inputs": [],
					"name": "startAt",
					"outputs": [
						{
							"internalType": "uint256",
							"name": "",
							"type": "uint256"
						}
					],
					"stateMutability": "view",
					"type": "function"
				},
				{
					"inputs": [
						{
							"internalType": "address",
							"name": "",
							"type": "address"
						}
					],
					"name": "users",
					"outputs": [
						{
							"internalType": "uint256",
							"name": "stakeNumber",
							"type": "uint256"
						},
						{
							"internalType": "uint256",
							"name": "stakeTime",
							"type": "uint256"
						},
						{
							"internalType": "uint256",
							"name": "insert",
							"type": "uint256"
						},
						{
							"internalType": "uint256",
							"name": "ru",
							"type": "uint256"
						}
					],
					"stateMutability": "view",
					"type": "function"
				}
			],
			"devdoc": {
				"kind": "dev",
				"methods": {},
				"version": 1
			},
			"evm": {
				"assembly": "    /* \"contracts/SushiPool.sol\":56:1514  contract SushiPool {... */\n  mstore(0x40, 0x80)\n    /* \"contracts/SushiPool.sol\":575:637  constructor(uint256 _output) {... */\n  callvalue\n  dup1\n  iszero\n  tag_1\n  jumpi\n  0x00\n  dup1\n  revert\ntag_1:\n  pop\n  mload(0x40)\n  sub(codesize, bytecodeSize)\n  dup1\n  bytecodeSize\n  dup4\n  codecopy\n  dup2\n  dup2\n  add\n  0x40\n  mstore\n  dup2\n  add\n  swap1\n  tag_2\n  swap2\n  swap1\n  tag_3\n  jump\t// in\ntag_2:\n    /* \"contracts/SushiPool.sol\":623:630  _output */\n  dup1\n    /* \"contracts/SushiPool.sol\":614:620  output */\n  0x02\n    /* \"contracts/SushiPool.sol\":614:630  output = _output */\n  dup2\n  swap1\n  sstore\n  pop\n    /* \"contracts/SushiPool.sol\":575:637  constructor(uint256 _output) {... */\n  pop\n    /* \"contracts/SushiPool.sol\":56:1514  contract SushiPool {... */\n  jump(tag_6)\n    /* \"#utility.yul\":88:205   */\ntag_8:\n    /* \"#utility.yul\":197:198   */\n  0x00\n    /* \"#utility.yul\":194:195   */\n  dup1\n    /* \"#utility.yul\":187:199   */\n  revert\n    /* \"#utility.yul\":334:411   */\ntag_10:\n    /* \"#utility.yul\":371:378   */\n  0x00\n    /* \"#utility.yul\":400:405   */\n  dup2\n    /* \"#utility.yul\":389:405   */\n  swap1\n  pop\n    /* \"#utility.yul\":334:411   */\n  swap2\n  swap1\n  pop\n  jump\t// out\n    /* \"#utility.yul\":417:539   */\ntag_11:\n    /* \"#utility.yul\":490:514   */\n  tag_19\n    /* \"#utility.yul\":508:513   */\n  dup2\n    /* \"#utility.yul\":490:514   */\n  tag_10\n  jump\t// in\ntag_19:\n    /* \"#utility.yul\":483:488   */\n  dup2\n    /* \"#utility.yul\":480:515   */\n  eq\n    /* \"#utility.yul\":470:533   */\n  tag_20\n  jumpi\n    /* \"#utility.yul\":529:530   */\n  0x00\n    /* \"#utility.yul\":526:527   */\n  dup1\n    /* \"#utility.yul\":519:531   */\n  revert\n    /* \"#utility.yul\":470:533   */\ntag_20:\n    /* \"#utility.yul\":417:539   */\n  pop\n  jump\t// out\n    /* \"#utility.yul\":545:688   */\ntag_12:\n    /* \"#utility.yul\":602:607   */\n  0x00\n    /* \"#utility.yul\":633:639   */\n  dup2\n    /* \"#utility.yul\":627:640   */\n  mload\n    /* \"#utility.yul\":618:640   */\n  swap1\n  pop\n    /* \"#utility.yul\":649:682   */\n  tag_22\n    /* \"#utility.yul\":676:681   */\n  dup2\n    /* \"#utility.yul\":649:682   */\n  tag_11\n  jump\t// in\ntag_22:\n    /* \"#utility.yul\":545:688   */\n  swap3\n  swap2\n  pop\n  pop\n  jump\t// out\n    /* \"#utility.yul\":694:1045   */\ntag_3:\n    /* \"#utility.yul\":764:770   */\n  0x00\n    /* \"#utility.yul\":813:815   */\n  0x20\n    /* \"#utility.yul\":801:810   */\n  dup3\n    /* \"#utility.yul\":792:799   */\n  dup5\n    /* \"#utility.yul\":788:811   */\n  sub\n    /* \"#utility.yul\":784:816   */\n  slt\n    /* \"#utility.yul\":781:900   */\n  iszero\n  tag_24\n  jumpi\n    /* \"#utility.yul\":819:898   */\n  tag_25\n  tag_8\n  jump\t// in\ntag_25:\n    /* \"#utility.yul\":781:900   */\ntag_24:\n    /* \"#utility.yul\":939:940   */\n  0x00\n    /* \"#utility.yul\":964:1028   */\n  tag_26\n    /* \"#utility.yul\":1020:1027   */\n  dup5\n    /* \"#utility.yul\":1011:1017   */\n  dup3\n    /* \"#utility.yul\":1000:1009   */\n  dup6\n    /* \"#utility.yul\":996:1018   */\n  add\n    /* \"#utility.yul\":964:1028   */\n  tag_12\n  jump\t// in\ntag_26:\n    /* \"#utility.yul\":954:1028   */\n  swap2\n  pop\n    /* \"#utility.yul\":910:1038   */\n  pop\n    /* \"#utility.yul\":694:1045   */\n  swap3\n  swap2\n  pop\n  pop\n  jump\t// out\n    /* \"contracts/SushiPool.sol\":56:1514  contract SushiPool {... */\ntag_6:\n  dataSize(sub_0)\n  dup1\n  dataOffset(sub_0)\n  0x00\n  codecopy\n  0x00\n  return\nstop\n\nsub_0: assembly {\n        /* \"contracts/SushiPool.sol\":56:1514  contract SushiPool {... */\n      mstore(0x40, 0x80)\n      callvalue\n      dup1\n      iszero\n      tag_1\n      jumpi\n      0x00\n      dup1\n      revert\n    tag_1:\n      pop\n      jumpi(tag_2, lt(calldatasize, 0x04))\n      shr(0xe0, calldataload(0x00))\n      dup1\n      0x8d48c9c8\n      gt\n      tag_12\n      jumpi\n      dup1\n      0x8d48c9c8\n      eq\n      tag_7\n      jumpi\n      dup1\n      0xa694fc3a\n      eq\n      tag_8\n      jumpi\n      dup1\n      0xa87430ba\n      eq\n      tag_9\n      jumpi\n      dup1\n      0xc7446565\n      eq\n      tag_10\n      jumpi\n      dup1\n      0xf20eaeb8\n      eq\n      tag_11\n      jumpi\n      jump(tag_2)\n    tag_12:\n      dup1\n      0x4b5c8bdf\n      eq\n      tag_3\n      jumpi\n      dup1\n      0x5d8d1585\n      eq\n      tag_4\n      jumpi\n      dup1\n      0x64d4db10\n      eq\n      tag_5\n      jumpi\n      dup1\n      0x833a3b85\n      eq\n      tag_6\n      jumpi\n    tag_2:\n      0x00\n      dup1\n      revert\n        /* \"contracts/SushiPool.sol\":271:296  uint256 public stakeTotal */\n    tag_3:\n      tag_13\n      tag_14\n      jump\t// in\n    tag_13:\n      mload(0x40)\n      tag_15\n      swap2\n      swap1\n      tag_16\n      jump\t// in\n    tag_15:\n      mload(0x40)\n      dup1\n      swap2\n      sub\n      swap1\n      return\n        /* \"contracts/SushiPool.sol\":1223:1498  function getUserInfo() public view returns (uint256 insert, uint256 ru, uint256 stakeNumber) {... */\n    tag_4:\n      tag_17\n      tag_18\n      jump\t// in\n    tag_17:\n      mload(0x40)\n      tag_19\n      swap4\n      swap3\n      swap2\n      swap1\n      tag_20\n      jump\t// in\n    tag_19:\n      mload(0x40)\n      dup1\n      swap2\n      sub\n      swap1\n      return\n        /* \"contracts/SushiPool.sol\":442:470  uint256 public lastStakeTime */\n    tag_5:\n      tag_21\n      tag_22\n      jump\t// in\n    tag_21:\n      mload(0x40)\n      tag_23\n      swap2\n      swap1\n      tag_16\n      jump\t// in\n    tag_23:\n      mload(0x40)\n      dup1\n      swap2\n      sub\n      swap1\n      return\n        /* \"contracts/SushiPool.sol\":544:568  uint256 public currentAt */\n    tag_6:\n      tag_24\n      tag_25\n      jump\t// in\n    tag_24:\n      mload(0x40)\n      tag_26\n      swap2\n      swap1\n      tag_16\n      jump\t// in\n    tag_26:\n      mload(0x40)\n      dup1\n      swap2\n      sub\n      swap1\n      return\n        /* \"contracts/SushiPool.sol\":387:404  uint256 public rn */\n    tag_7:\n      tag_27\n      tag_28\n      jump\t// in\n    tag_27:\n      mload(0x40)\n      tag_29\n      swap2\n      swap1\n      tag_16\n      jump\t// in\n    tag_29:\n      mload(0x40)\n      dup1\n      swap2\n      sub\n      swap1\n      return\n        /* \"contracts/SushiPool.sol\":707:1217  function stake(uint256 _amount) external {... */\n    tag_8:\n      tag_30\n      0x04\n      dup1\n      calldatasize\n      sub\n      dup2\n      add\n      swap1\n      tag_31\n      swap2\n      swap1\n      tag_32\n      jump\t// in\n    tag_31:\n      tag_33\n      jump\t// in\n    tag_30:\n      stop\n        /* \"contracts/SushiPool.sol\":207:244  mapping(address => User) public users */\n    tag_9:\n      tag_34\n      0x04\n      dup1\n      calldatasize\n      sub\n      dup2\n      add\n      swap1\n      tag_35\n      swap2\n      swap1\n      tag_36\n      jump\t// in\n    tag_35:\n      tag_37\n      jump\t// in\n    tag_34:\n      mload(0x40)\n      tag_38\n      swap5\n      swap4\n      swap3\n      swap2\n      swap1\n      tag_39\n      jump\t// in\n    tag_38:\n      mload(0x40)\n      dup1\n      swap2\n      sub\n      swap1\n      return\n        /* \"contracts/SushiPool.sol\":496:518  uint256 public startAt */\n    tag_10:\n      tag_40\n      tag_41\n      jump\t// in\n    tag_40:\n      mload(0x40)\n      tag_42\n      swap2\n      swap1\n      tag_16\n      jump\t// in\n    tag_42:\n      mload(0x40)\n      dup1\n      swap2\n      sub\n      swap1\n      return\n        /* \"contracts/SushiPool.sol\":322:343  uint256 public output */\n    tag_11:\n      tag_43\n      tag_44\n      jump\t// in\n    tag_43:\n      mload(0x40)\n      tag_45\n      swap2\n      swap1\n      tag_16\n      jump\t// in\n    tag_45:\n      mload(0x40)\n      dup1\n      swap2\n      sub\n      swap1\n      return\n        /* \"contracts/SushiPool.sol\":271:296  uint256 public stakeTotal */\n    tag_14:\n      sload(0x01)\n      dup2\n      jump\t// out\n        /* \"contracts/SushiPool.sol\":1223:1498  function getUserInfo() public view returns (uint256 insert, uint256 ru, uint256 stakeNumber) {... */\n    tag_18:\n        /* \"contracts/SushiPool.sol\":1267:1281  uint256 insert */\n      0x00\n        /* \"contracts/SushiPool.sol\":1283:1293  uint256 ru */\n      dup1\n        /* \"contracts/SushiPool.sol\":1295:1314  uint256 stakeNumber */\n      0x00\n        /* \"contracts/SushiPool.sol\":1326:1343  User storage user */\n      dup1\n        /* \"contracts/SushiPool.sol\":1346:1351  users */\n      0x00\n        /* \"contracts/SushiPool.sol\":1346:1363  users[msg.sender] */\n      dup1\n        /* \"contracts/SushiPool.sol\":1352:1362  msg.sender */\n      caller\n        /* \"contracts/SushiPool.sol\":1346:1363  users[msg.sender] */\n      0xffffffffffffffffffffffffffffffffffffffff\n      and\n      0xffffffffffffffffffffffffffffffffffffffff\n      and\n      dup2\n      mstore\n      0x20\n      add\n      swap1\n      dup2\n      mstore\n      0x20\n      add\n      0x00\n      keccak256\n        /* \"contracts/SushiPool.sol\":1326:1363  User storage user = users[msg.sender] */\n      swap1\n      pop\n        /* \"contracts/SushiPool.sol\":1413:1417  user */\n      dup1\n        /* \"contracts/SushiPool.sol\":1413:1429  user.stakeNumber */\n      0x00\n      add\n      sload\n        /* \"contracts/SushiPool.sol\":1402:1406  user */\n      dup2\n        /* \"contracts/SushiPool.sol\":1402:1409  user.ru */\n      0x03\n      add\n      sload\n        /* \"contracts/SushiPool.sol\":1397:1399  rn */\n      sload(0x03)\n        /* \"contracts/SushiPool.sol\":1397:1409  rn - user.ru */\n      tag_47\n      swap2\n      swap1\n      tag_48\n      jump\t// in\n    tag_47:\n        /* \"contracts/SushiPool.sol\":1396:1429  (rn - user.ru) * user.stakeNumber */\n      tag_49\n      swap2\n      swap1\n      tag_50\n      jump\t// in\n    tag_49:\n        /* \"contracts/SushiPool.sol\":1382:1386  user */\n      dup2\n        /* \"contracts/SushiPool.sol\":1382:1393  user.insert */\n      0x02\n      add\n      sload\n        /* \"contracts/SushiPool.sol\":1382:1429  user.insert + (rn - user.ru) * user.stakeNumber */\n      tag_51\n      swap2\n      swap1\n      tag_52\n      jump\t// in\n    tag_51:\n        /* \"contracts/SushiPool.sol\":1373:1429  insert = user.insert + (rn - user.ru) * user.stakeNumber */\n      swap4\n      pop\n        /* \"contracts/SushiPool.sol\":1444:1448  user */\n      dup1\n        /* \"contracts/SushiPool.sol\":1444:1451  user.ru */\n      0x03\n      add\n      sload\n        /* \"contracts/SushiPool.sol\":1439:1451  ru = user.ru */\n      swap3\n      pop\n        /* \"contracts/SushiPool.sol\":1475:1479  user */\n      dup1\n        /* \"contracts/SushiPool.sol\":1475:1491  user.stakeNumber */\n      0x00\n      add\n      sload\n        /* \"contracts/SushiPool.sol\":1461:1491  stakeNumber = user.stakeNumber */\n      swap2\n      pop\n        /* \"contracts/SushiPool.sol\":1316:1498  {... */\n      pop\n        /* \"contracts/SushiPool.sol\":1223:1498  function getUserInfo() public view returns (uint256 insert, uint256 ru, uint256 stakeNumber) {... */\n      swap1\n      swap2\n      swap3\n      jump\t// out\n        /* \"contracts/SushiPool.sol\":442:470  uint256 public lastStakeTime */\n    tag_22:\n      sload(0x04)\n      dup2\n      jump\t// out\n        /* \"contracts/SushiPool.sol\":544:568  uint256 public currentAt */\n    tag_25:\n      sload(0x06)\n      dup2\n      jump\t// out\n        /* \"contracts/SushiPool.sol\":387:404  uint256 public rn */\n    tag_28:\n      sload(0x03)\n      dup2\n      jump\t// out\n        /* \"contracts/SushiPool.sol\":707:1217  function stake(uint256 _amount) external {... */\n    tag_33:\n        /* \"contracts/SushiPool.sol\":758:775  User storage user */\n      0x00\n        /* \"contracts/SushiPool.sol\":778:783  users */\n      dup1\n        /* \"contracts/SushiPool.sol\":778:795  users[msg.sender] */\n      0x00\n        /* \"contracts/SushiPool.sol\":784:794  msg.sender */\n      caller\n        /* \"contracts/SushiPool.sol\":778:795  users[msg.sender] */\n      0xffffffffffffffffffffffffffffffffffffffff\n      and\n      0xffffffffffffffffffffffffffffffffffffffff\n      and\n      dup2\n      mstore\n      0x20\n      add\n      swap1\n      dup2\n      mstore\n      0x20\n      add\n      0x00\n      keccak256\n        /* \"contracts/SushiPool.sol\":758:795  User storage user = users[msg.sender] */\n      swap1\n      pop\n        /* \"contracts/SushiPool.sol\":805:825  uint256 secondOutPut */\n      0x00\n        /* \"contracts/SushiPool.sol\":853:854  0 */\n      dup1\n        /* \"contracts/SushiPool.sol\":839:849  stakeTotal */\n      sload(0x01)\n        /* \"contracts/SushiPool.sol\":839:854  stakeTotal != 0 */\n      eq\n        /* \"contracts/SushiPool.sol\":835:915  if (stakeTotal != 0) {... */\n      tag_54\n      jumpi\n        /* \"contracts/SushiPool.sol\":894:904  stakeTotal */\n      sload(0x01)\n        /* \"contracts/SushiPool.sol\":885:891  output */\n      sload(0x02)\n        /* \"contracts/SushiPool.sol\":885:904  output / stakeTotal */\n      tag_55\n      swap2\n      swap1\n      tag_56\n      jump\t// in\n    tag_55:\n        /* \"contracts/SushiPool.sol\":870:904  secondOutPut = output / stakeTotal */\n      swap1\n      pop\n        /* \"contracts/SushiPool.sol\":835:915  if (stakeTotal != 0) {... */\n    tag_54:\n        /* \"contracts/SushiPool.sol\":966:978  secondOutPut */\n      dup1\n        /* \"contracts/SushiPool.sol\":949:962  lastStakeTime */\n      sload(0x04)\n        /* \"contracts/SushiPool.sol\":931:946  block.timestamp */\n      timestamp\n        /* \"contracts/SushiPool.sol\":931:962  block.timestamp - lastStakeTime */\n      tag_57\n      swap2\n      swap1\n      tag_48\n      jump\t// in\n    tag_57:\n        /* \"contracts/SushiPool.sol\":930:978  (block.timestamp - lastStakeTime) * secondOutPut */\n      tag_58\n      swap2\n      swap1\n      tag_50\n      jump\t// in\n    tag_58:\n        /* \"contracts/SushiPool.sol\":924:926  rn */\n      0x03\n      0x00\n        /* \"contracts/SushiPool.sol\":924:978  rn += (block.timestamp - lastStakeTime) * secondOutPut */\n      dup3\n      dup3\n      sload\n      tag_59\n      swap2\n      swap1\n      tag_52\n      jump\t// in\n    tag_59:\n      swap3\n      pop\n      pop\n      dup2\n      swap1\n      sstore\n      pop\n        /* \"contracts/SushiPool.sol\":1021:1025  user */\n      dup2\n        /* \"contracts/SushiPool.sol\":1021:1037  user.stakeNumber */\n      0x00\n      add\n      sload\n        /* \"contracts/SushiPool.sol\":1010:1014  user */\n      dup3\n        /* \"contracts/SushiPool.sol\":1010:1017  user.ru */\n      0x03\n      add\n      sload\n        /* \"contracts/SushiPool.sol\":1005:1007  rn */\n      sload(0x03)\n        /* \"contracts/SushiPool.sol\":1005:1017  rn - user.ru */\n      tag_60\n      swap2\n      swap1\n      tag_48\n      jump\t// in\n    tag_60:\n        /* \"contracts/SushiPool.sol\":1004:1037  (rn - user.ru) * user.stakeNumber */\n      tag_61\n      swap2\n      swap1\n      tag_50\n      jump\t// in\n    tag_61:\n        /* \"contracts/SushiPool.sol\":988:992  user */\n      dup3\n        /* \"contracts/SushiPool.sol\":988:999  user.insert */\n      0x02\n      add\n      0x00\n        /* \"contracts/SushiPool.sol\":988:1037  user.insert +=  (rn - user.ru) * user.stakeNumber */\n      dup3\n      dup3\n      sload\n      tag_62\n      swap2\n      swap1\n      tag_52\n      jump\t// in\n    tag_62:\n      swap3\n      pop\n      pop\n      dup2\n      swap1\n      sstore\n      pop\n        /* \"contracts/SushiPool.sol\":1057:1059  rn */\n      sload(0x03)\n        /* \"contracts/SushiPool.sol\":1047:1051  user */\n      dup3\n        /* \"contracts/SushiPool.sol\":1047:1054  user.ru */\n      0x03\n      add\n        /* \"contracts/SushiPool.sol\":1047:1059  user.ru = rn */\n      dup2\n      swap1\n      sstore\n      pop\n        /* \"contracts/SushiPool.sol\":1089:1096  _amount */\n      dup3\n        /* \"contracts/SushiPool.sol\":1069:1073  user */\n      dup3\n        /* \"contracts/SushiPool.sol\":1069:1085  user.stakeNumber */\n      0x00\n      add\n      0x00\n        /* \"contracts/SushiPool.sol\":1069:1096  user.stakeNumber += _amount */\n      dup3\n      dup3\n      sload\n      tag_63\n      swap2\n      swap1\n      tag_52\n      jump\t// in\n    tag_63:\n      swap3\n      pop\n      pop\n      dup2\n      swap1\n      sstore\n      pop\n        /* \"contracts/SushiPool.sol\":1123:1138  block.timestamp */\n      timestamp\n        /* \"contracts/SushiPool.sol\":1106:1110  user */\n      dup3\n        /* \"contracts/SushiPool.sol\":1106:1120  user.stakeTime */\n      0x01\n      add\n        /* \"contracts/SushiPool.sol\":1106:1138  user.stakeTime = block.timestamp */\n      dup2\n      swap1\n      sstore\n      pop\n        /* \"contracts/SushiPool.sol\":1162:1169  _amount */\n      dup3\n        /* \"contracts/SushiPool.sol\":1148:1158  stakeTotal */\n      0x01\n      0x00\n        /* \"contracts/SushiPool.sol\":1148:1169  stakeTotal += _amount */\n      dup3\n      dup3\n      sload\n      tag_64\n      swap2\n      swap1\n      tag_52\n      jump\t// in\n    tag_64:\n      swap3\n      pop\n      pop\n      dup2\n      swap1\n      sstore\n      pop\n        /* \"contracts/SushiPool.sol\":1195:1210  block.timestamp */\n      timestamp\n        /* \"contracts/SushiPool.sol\":1179:1192  lastStakeTime */\n      0x04\n        /* \"contracts/SushiPool.sol\":1179:1210  lastStakeTime = block.timestamp */\n      dup2\n      swap1\n      sstore\n      pop\n        /* \"contracts/SushiPool.sol\":748:1217  {... */\n      pop\n      pop\n        /* \"contracts/SushiPool.sol\":707:1217  function stake(uint256 _amount) external {... */\n      pop\n      jump\t// out\n        /* \"contracts/SushiPool.sol\":207:244  mapping(address => User) public users */\n    tag_37:\n      mstore(0x20, 0x00)\n      dup1\n      0x00\n      mstore\n      keccak256(0x00, 0x40)\n      0x00\n      swap2\n      pop\n      swap1\n      pop\n      dup1\n      0x00\n      add\n      sload\n      swap1\n      dup1\n      0x01\n      add\n      sload\n      swap1\n      dup1\n      0x02\n      add\n      sload\n      swap1\n      dup1\n      0x03\n      add\n      sload\n      swap1\n      pop\n      dup5\n      jump\t// out\n        /* \"contracts/SushiPool.sol\":496:518  uint256 public startAt */\n    tag_41:\n      sload(0x05)\n      dup2\n      jump\t// out\n        /* \"contracts/SushiPool.sol\":322:343  uint256 public output */\n    tag_44:\n      sload(0x02)\n      dup2\n      jump\t// out\n        /* \"#utility.yul\":7:84   */\n    tag_65:\n        /* \"#utility.yul\":44:51   */\n      0x00\n        /* \"#utility.yul\":73:78   */\n      dup2\n        /* \"#utility.yul\":62:78   */\n      swap1\n      pop\n        /* \"#utility.yul\":7:84   */\n      swap2\n      swap1\n      pop\n      jump\t// out\n        /* \"#utility.yul\":90:208   */\n    tag_66:\n        /* \"#utility.yul\":177:201   */\n      tag_81\n        /* \"#utility.yul\":195:200   */\n      dup2\n        /* \"#utility.yul\":177:201   */\n      tag_65\n      jump\t// in\n    tag_81:\n        /* \"#utility.yul\":172:175   */\n      dup3\n        /* \"#utility.yul\":165:202   */\n      mstore\n        /* \"#utility.yul\":90:208   */\n      pop\n      pop\n      jump\t// out\n        /* \"#utility.yul\":214:436   */\n    tag_16:\n        /* \"#utility.yul\":307:311   */\n      0x00\n        /* \"#utility.yul\":345:347   */\n      0x20\n        /* \"#utility.yul\":334:343   */\n      dup3\n        /* \"#utility.yul\":330:348   */\n      add\n        /* \"#utility.yul\":322:348   */\n      swap1\n      pop\n        /* \"#utility.yul\":358:429   */\n      tag_83\n        /* \"#utility.yul\":426:427   */\n      0x00\n        /* \"#utility.yul\":415:424   */\n      dup4\n        /* \"#utility.yul\":411:428   */\n      add\n        /* \"#utility.yul\":402:408   */\n      dup5\n        /* \"#utility.yul\":358:429   */\n      tag_66\n      jump\t// in\n    tag_83:\n        /* \"#utility.yul\":214:436   */\n      swap3\n      swap2\n      pop\n      pop\n      jump\t// out\n        /* \"#utility.yul\":442:884   */\n    tag_20:\n        /* \"#utility.yul\":591:595   */\n      0x00\n        /* \"#utility.yul\":629:631   */\n      0x60\n        /* \"#utility.yul\":618:627   */\n      dup3\n        /* \"#utility.yul\":614:632   */\n      add\n        /* \"#utility.yul\":606:632   */\n      swap1\n      pop\n        /* \"#utility.yul\":642:713   */\n      tag_85\n        /* \"#utility.yul\":710:711   */\n      0x00\n        /* \"#utility.yul\":699:708   */\n      dup4\n        /* \"#utility.yul\":695:712   */\n      add\n        /* \"#utility.yul\":686:692   */\n      dup7\n        /* \"#utility.yul\":642:713   */\n      tag_66\n      jump\t// in\n    tag_85:\n        /* \"#utility.yul\":723:795   */\n      tag_86\n        /* \"#utility.yul\":791:793   */\n      0x20\n        /* \"#utility.yul\":780:789   */\n      dup4\n        /* \"#utility.yul\":776:794   */\n      add\n        /* \"#utility.yul\":767:773   */\n      dup6\n        /* \"#utility.yul\":723:795   */\n      tag_66\n      jump\t// in\n    tag_86:\n        /* \"#utility.yul\":805:877   */\n      tag_87\n        /* \"#utility.yul\":873:875   */\n      0x40\n        /* \"#utility.yul\":862:871   */\n      dup4\n        /* \"#utility.yul\":858:876   */\n      add\n        /* \"#utility.yul\":849:855   */\n      dup5\n        /* \"#utility.yul\":805:877   */\n      tag_66\n      jump\t// in\n    tag_87:\n        /* \"#utility.yul\":442:884   */\n      swap5\n      swap4\n      pop\n      pop\n      pop\n      pop\n      jump\t// out\n        /* \"#utility.yul\":971:1088   */\n    tag_68:\n        /* \"#utility.yul\":1080:1081   */\n      0x00\n        /* \"#utility.yul\":1077:1078   */\n      dup1\n        /* \"#utility.yul\":1070:1082   */\n      revert\n        /* \"#utility.yul\":1217:1339   */\n    tag_70:\n        /* \"#utility.yul\":1290:1314   */\n      tag_92\n        /* \"#utility.yul\":1308:1313   */\n      dup2\n        /* \"#utility.yul\":1290:1314   */\n      tag_65\n      jump\t// in\n    tag_92:\n        /* \"#utility.yul\":1283:1288   */\n      dup2\n        /* \"#utility.yul\":1280:1315   */\n      eq\n        /* \"#utility.yul\":1270:1333   */\n      tag_93\n      jumpi\n        /* \"#utility.yul\":1329:1330   */\n      0x00\n        /* \"#utility.yul\":1326:1327   */\n      dup1\n        /* \"#utility.yul\":1319:1331   */\n      revert\n        /* \"#utility.yul\":1270:1333   */\n    tag_93:\n        /* \"#utility.yul\":1217:1339   */\n      pop\n      jump\t// out\n        /* \"#utility.yul\":1345:1484   */\n    tag_71:\n        /* \"#utility.yul\":1391:1396   */\n      0x00\n        /* \"#utility.yul\":1429:1435   */\n      dup2\n        /* \"#utility.yul\":1416:1436   */\n      calldataload\n        /* \"#utility.yul\":1407:1436   */\n      swap1\n      pop\n        /* \"#utility.yul\":1445:1478   */\n      tag_95\n        /* \"#utility.yul\":1472:1477   */\n      dup2\n        /* \"#utility.yul\":1445:1478   */\n      tag_70\n      jump\t// in\n    tag_95:\n        /* \"#utility.yul\":1345:1484   */\n      swap3\n      swap2\n      pop\n      pop\n      jump\t// out\n        /* \"#utility.yul\":1490:1819   */\n    tag_32:\n        /* \"#utility.yul\":1549:1555   */\n      0x00\n        /* \"#utility.yul\":1598:1600   */\n      0x20\n        /* \"#utility.yul\":1586:1595   */\n      dup3\n        /* \"#utility.yul\":1577:1584   */\n      dup5\n        /* \"#utility.yul\":1573:1596   */\n      sub\n        /* \"#utility.yul\":1569:1601   */\n      slt\n        /* \"#utility.yul\":1566:1685   */\n      iszero\n      tag_97\n      jumpi\n        /* \"#utility.yul\":1604:1683   */\n      tag_98\n      tag_68\n      jump\t// in\n    tag_98:\n        /* \"#utility.yul\":1566:1685   */\n    tag_97:\n        /* \"#utility.yul\":1724:1725   */\n      0x00\n        /* \"#utility.yul\":1749:1802   */\n      tag_99\n        /* \"#utility.yul\":1794:1801   */\n      dup5\n        /* \"#utility.yul\":1785:1791   */\n      dup3\n        /* \"#utility.yul\":1774:1783   */\n      dup6\n        /* \"#utility.yul\":1770:1792   */\n      add\n        /* \"#utility.yul\":1749:1802   */\n      tag_71\n      jump\t// in\n    tag_99:\n        /* \"#utility.yul\":1739:1802   */\n      swap2\n      pop\n        /* \"#utility.yul\":1695:1812   */\n      pop\n        /* \"#utility.yul\":1490:1819   */\n      swap3\n      swap2\n      pop\n      pop\n      jump\t// out\n        /* \"#utility.yul\":1825:1951   */\n    tag_72:\n        /* \"#utility.yul\":1862:1869   */\n      0x00\n        /* \"#utility.yul\":1902:1944   */\n      0xffffffffffffffffffffffffffffffffffffffff\n        /* \"#utility.yul\":1895:1900   */\n      dup3\n        /* \"#utility.yul\":1891:1945   */\n      and\n        /* \"#utility.yul\":1880:1945   */\n      swap1\n      pop\n        /* \"#utility.yul\":1825:1951   */\n      swap2\n      swap1\n      pop\n      jump\t// out\n        /* \"#utility.yul\":1957:2053   */\n    tag_73:\n        /* \"#utility.yul\":1994:2001   */\n      0x00\n        /* \"#utility.yul\":2023:2047   */\n      tag_102\n        /* \"#utility.yul\":2041:2046   */\n      dup3\n        /* \"#utility.yul\":2023:2047   */\n      tag_72\n      jump\t// in\n    tag_102:\n        /* \"#utility.yul\":2012:2047   */\n      swap1\n      pop\n        /* \"#utility.yul\":1957:2053   */\n      swap2\n      swap1\n      pop\n      jump\t// out\n        /* \"#utility.yul\":2059:2181   */\n    tag_74:\n        /* \"#utility.yul\":2132:2156   */\n      tag_104\n        /* \"#utility.yul\":2150:2155   */\n      dup2\n        /* \"#utility.yul\":2132:2156   */\n      tag_73\n      jump\t// in\n    tag_104:\n        /* \"#utility.yul\":2125:2130   */\n      dup2\n        /* \"#utility.yul\":2122:2157   */\n      eq\n        /* \"#utility.yul\":2112:2175   */\n      tag_105\n      jumpi\n        /* \"#utility.yul\":2171:2172   */\n      0x00\n        /* \"#utility.yul\":2168:2169   */\n      dup1\n        /* \"#utility.yul\":2161:2173   */\n      revert\n        /* \"#utility.yul\":2112:2175   */\n    tag_105:\n        /* \"#utility.yul\":2059:2181   */\n      pop\n      jump\t// out\n        /* \"#utility.yul\":2187:2326   */\n    tag_75:\n        /* \"#utility.yul\":2233:2238   */\n      0x00\n        /* \"#utility.yul\":2271:2277   */\n      dup2\n        /* \"#utility.yul\":2258:2278   */\n      calldataload\n        /* \"#utility.yul\":2249:2278   */\n      swap1\n      pop\n        /* \"#utility.yul\":2287:2320   */\n      tag_107\n        /* \"#utility.yul\":2314:2319   */\n      dup2\n        /* \"#utility.yul\":2287:2320   */\n      tag_74\n      jump\t// in\n    tag_107:\n        /* \"#utility.yul\":2187:2326   */\n      swap3\n      swap2\n      pop\n      pop\n      jump\t// out\n        /* \"#utility.yul\":2332:2661   */\n    tag_36:\n        /* \"#utility.yul\":2391:2397   */\n      0x00\n        /* \"#utility.yul\":2440:2442   */\n      0x20\n        /* \"#utility.yul\":2428:2437   */\n      dup3\n        /* \"#utility.yul\":2419:2426   */\n      dup5\n        /* \"#utility.yul\":2415:2438   */\n      sub\n        /* \"#utility.yul\":2411:2443   */\n      slt\n        /* \"#utility.yul\":2408:2527   */\n      iszero\n      tag_109\n      jumpi\n        /* \"#utility.yul\":2446:2525   */\n      tag_110\n      tag_68\n      jump\t// in\n    tag_110:\n        /* \"#utility.yul\":2408:2527   */\n    tag_109:\n        /* \"#utility.yul\":2566:2567   */\n      0x00\n        /* \"#utility.yul\":2591:2644   */\n      tag_111\n        /* \"#utility.yul\":2636:2643   */\n      dup5\n        /* \"#utility.yul\":2627:2633   */\n      dup3\n        /* \"#utility.yul\":2616:2625   */\n      dup6\n        /* \"#utility.yul\":2612:2634   */\n      add\n        /* \"#utility.yul\":2591:2644   */\n      tag_75\n      jump\t// in\n    tag_111:\n        /* \"#utility.yul\":2581:2644   */\n      swap2\n      pop\n        /* \"#utility.yul\":2537:2654   */\n      pop\n        /* \"#utility.yul\":2332:2661   */\n      swap3\n      swap2\n      pop\n      pop\n      jump\t// out\n        /* \"#utility.yul\":2667:3220   */\n    tag_39:\n        /* \"#utility.yul\":2844:2848   */\n      0x00\n        /* \"#utility.yul\":2882:2885   */\n      0x80\n        /* \"#utility.yul\":2871:2880   */\n      dup3\n        /* \"#utility.yul\":2867:2886   */\n      add\n        /* \"#utility.yul\":2859:2886   */\n      swap1\n      pop\n        /* \"#utility.yul\":2896:2967   */\n      tag_113\n        /* \"#utility.yul\":2964:2965   */\n      0x00\n        /* \"#utility.yul\":2953:2962   */\n      dup4\n        /* \"#utility.yul\":2949:2966   */\n      add\n        /* \"#utility.yul\":2940:2946   */\n      dup8\n        /* \"#utility.yul\":2896:2967   */\n      tag_66\n      jump\t// in\n    tag_113:\n        /* \"#utility.yul\":2977:3049   */\n      tag_114\n        /* \"#utility.yul\":3045:3047   */\n      0x20\n        /* \"#utility.yul\":3034:3043   */\n      dup4\n        /* \"#utility.yul\":3030:3048   */\n      add\n        /* \"#utility.yul\":3021:3027   */\n      dup7\n        /* \"#utility.yul\":2977:3049   */\n      tag_66\n      jump\t// in\n    tag_114:\n        /* \"#utility.yul\":3059:3131   */\n      tag_115\n        /* \"#utility.yul\":3127:3129   */\n      0x40\n        /* \"#utility.yul\":3116:3125   */\n      dup4\n        /* \"#utility.yul\":3112:3130   */\n      add\n        /* \"#utility.yul\":3103:3109   */\n      dup6\n        /* \"#utility.yul\":3059:3131   */\n      tag_66\n      jump\t// in\n    tag_115:\n        /* \"#utility.yul\":3141:3213   */\n      tag_116\n        /* \"#utility.yul\":3209:3211   */\n      0x60\n        /* \"#utility.yul\":3198:3207   */\n      dup4\n        /* \"#utility.yul\":3194:3212   */\n      add\n        /* \"#utility.yul\":3185:3191   */\n      dup5\n        /* \"#utility.yul\":3141:3213   */\n      tag_66\n      jump\t// in\n    tag_116:\n        /* \"#utility.yul\":2667:3220   */\n      swap6\n      swap5\n      pop\n      pop\n      pop\n      pop\n      pop\n      jump\t// out\n        /* \"#utility.yul\":3226:3406   */\n    tag_76:\n        /* \"#utility.yul\":3274:3351   */\n      0x4e487b7100000000000000000000000000000000000000000000000000000000\n        /* \"#utility.yul\":3271:3272   */\n      0x00\n        /* \"#utility.yul\":3264:3352   */\n      mstore\n        /* \"#utility.yul\":3371:3375   */\n      0x11\n        /* \"#utility.yul\":3368:3369   */\n      0x04\n        /* \"#utility.yul\":3361:3376   */\n      mstore\n        /* \"#utility.yul\":3395:3399   */\n      0x24\n        /* \"#utility.yul\":3392:3393   */\n      0x00\n        /* \"#utility.yul\":3385:3400   */\n      revert\n        /* \"#utility.yul\":3412:3603   */\n    tag_48:\n        /* \"#utility.yul\":3452:3456   */\n      0x00\n        /* \"#utility.yul\":3472:3492   */\n      tag_119\n        /* \"#utility.yul\":3490:3491   */\n      dup3\n        /* \"#utility.yul\":3472:3492   */\n      tag_65\n      jump\t// in\n    tag_119:\n        /* \"#utility.yul\":3467:3492   */\n      swap2\n      pop\n        /* \"#utility.yul\":3506:3526   */\n      tag_120\n        /* \"#utility.yul\":3524:3525   */\n      dup4\n        /* \"#utility.yul\":3506:3526   */\n      tag_65\n      jump\t// in\n    tag_120:\n        /* \"#utility.yul\":3501:3526   */\n      swap3\n      pop\n        /* \"#utility.yul\":3545:3546   */\n      dup3\n        /* \"#utility.yul\":3542:3543   */\n      dup3\n        /* \"#utility.yul\":3539:3547   */\n      lt\n        /* \"#utility.yul\":3536:3570   */\n      iszero\n      tag_121\n      jumpi\n        /* \"#utility.yul\":3550:3568   */\n      tag_122\n      tag_76\n      jump\t// in\n    tag_122:\n        /* \"#utility.yul\":3536:3570   */\n    tag_121:\n        /* \"#utility.yul\":3595:3596   */\n      dup3\n        /* \"#utility.yul\":3592:3593   */\n      dup3\n        /* \"#utility.yul\":3588:3597   */\n      sub\n        /* \"#utility.yul\":3580:3597   */\n      swap1\n      pop\n        /* \"#utility.yul\":3412:3603   */\n      swap3\n      swap2\n      pop\n      pop\n      jump\t// out\n        /* \"#utility.yul\":3609:3957   */\n    tag_50:\n        /* \"#utility.yul\":3649:3656   */\n      0x00\n        /* \"#utility.yul\":3672:3692   */\n      tag_124\n        /* \"#utility.yul\":3690:3691   */\n      dup3\n        /* \"#utility.yul\":3672:3692   */\n      tag_65\n      jump\t// in\n    tag_124:\n        /* \"#utility.yul\":3667:3692   */\n      swap2\n      pop\n        /* \"#utility.yul\":3706:3726   */\n      tag_125\n        /* \"#utility.yul\":3724:3725   */\n      dup4\n        /* \"#utility.yul\":3706:3726   */\n      tag_65\n      jump\t// in\n    tag_125:\n        /* \"#utility.yul\":3701:3726   */\n      swap3\n      pop\n        /* \"#utility.yul\":3894:3895   */\n      dup2\n        /* \"#utility.yul\":3826:3892   */\n      0xffffffffffffffffffffffffffffffffffffffffffffffffffffffffffffffff\n        /* \"#utility.yul\":3822:3896   */\n      div\n        /* \"#utility.yul\":3819:3820   */\n      dup4\n        /* \"#utility.yul\":3816:3897   */\n      gt\n        /* \"#utility.yul\":3811:3812   */\n      dup3\n        /* \"#utility.yul\":3804:3813   */\n      iszero\n        /* \"#utility.yul\":3797:3814   */\n      iszero\n        /* \"#utility.yul\":3793:3898   */\n      and\n        /* \"#utility.yul\":3790:3921   */\n      iszero\n      tag_126\n      jumpi\n        /* \"#utility.yul\":3901:3919   */\n      tag_127\n      tag_76\n      jump\t// in\n    tag_127:\n        /* \"#utility.yul\":3790:3921   */\n    tag_126:\n        /* \"#utility.yul\":3949:3950   */\n      dup3\n        /* \"#utility.yul\":3946:3947   */\n      dup3\n        /* \"#utility.yul\":3942:3951   */\n      mul\n        /* \"#utility.yul\":3931:3951   */\n      swap1\n      pop\n        /* \"#utility.yul\":3609:3957   */\n      swap3\n      swap2\n      pop\n      pop\n      jump\t// out\n        /* \"#utility.yul\":3963:4268   */\n    tag_52:\n        /* \"#utility.yul\":4003:4006   */\n      0x00\n        /* \"#utility.yul\":4022:4042   */\n      tag_129\n        /* \"#utility.yul\":4040:4041   */\n      dup3\n        /* \"#utility.yul\":4022:4042   */\n      tag_65\n      jump\t// in\n    tag_129:\n        /* \"#utility.yul\":4017:4042   */\n      swap2\n      pop\n        /* \"#utility.yul\":4056:4076   */\n      tag_130\n        /* \"#utility.yul\":4074:4075   */\n      dup4\n        /* \"#utility.yul\":4056:4076   */\n      tag_65\n      jump\t// in\n    tag_130:\n        /* \"#utility.yul\":4051:4076   */\n      swap3\n      pop\n        /* \"#utility.yul\":4210:4211   */\n      dup3\n        /* \"#utility.yul\":4142:4208   */\n      0xffffffffffffffffffffffffffffffffffffffffffffffffffffffffffffffff\n        /* \"#utility.yul\":4138:4212   */\n      sub\n        /* \"#utility.yul\":4135:4136   */\n      dup3\n        /* \"#utility.yul\":4132:4213   */\n      gt\n        /* \"#utility.yul\":4129:4236   */\n      iszero\n      tag_131\n      jumpi\n        /* \"#utility.yul\":4216:4234   */\n      tag_132\n      tag_76\n      jump\t// in\n    tag_132:\n        /* \"#utility.yul\":4129:4236   */\n    tag_131:\n        /* \"#utility.yul\":4260:4261   */\n      dup3\n        /* \"#utility.yul\":4257:4258   */\n      dup3\n        /* \"#utility.yul\":4253:4262   */\n      add\n        /* \"#utility.yul\":4246:4262   */\n      swap1\n      pop\n        /* \"#utility.yul\":3963:4268   */\n      swap3\n      swap2\n      pop\n      pop\n      jump\t// out\n        /* \"#utility.yul\":4274:4454   */\n    tag_77:\n        /* \"#utility.yul\":4322:4399   */\n      0x4e487b7100000000000000000000000000000000000000000000000000000000\n        /* \"#utility.yul\":4319:4320   */\n      0x00\n        /* \"#utility.yul\":4312:4400   */\n      mstore\n        /* \"#utility.yul\":4419:4423   */\n      0x12\n        /* \"#utility.yul\":4416:4417   */\n      0x04\n        /* \"#utility.yul\":4409:4424   */\n      mstore\n        /* \"#utility.yul\":4443:4447   */\n      0x24\n        /* \"#utility.yul\":4440:4441   */\n      0x00\n        /* \"#utility.yul\":4433:4448   */\n      revert\n        /* \"#utility.yul\":4460:4645   */\n    tag_56:\n        /* \"#utility.yul\":4500:4501   */\n      0x00\n        /* \"#utility.yul\":4517:4537   */\n      tag_135\n        /* \"#utility.yul\":4535:4536   */\n      dup3\n        /* \"#utility.yul\":4517:4537   */\n      tag_65\n      jump\t// in\n    tag_135:\n        /* \"#utility.yul\":4512:4537   */\n      swap2\n      pop\n        /* \"#utility.yul\":4551:4571   */\n      tag_136\n        /* \"#utility.yul\":4569:4570   */\n      dup4\n        /* \"#utility.yul\":4551:4571   */\n      tag_65\n      jump\t// in\n    tag_136:\n        /* \"#utility.yul\":4546:4571   */\n      swap3\n      pop\n        /* \"#utility.yul\":4590:4591   */\n      dup3\n        /* \"#utility.yul\":4580:4615   */\n      tag_137\n      jumpi\n        /* \"#utility.yul\":4595:4613   */\n      tag_138\n      tag_77\n      jump\t// in\n    tag_138:\n        /* \"#utility.yul\":4580:4615   */\n    tag_137:\n        /* \"#utility.yul\":4637:4638   */\n      dup3\n        /* \"#utility.yul\":4634:4635   */\n      dup3\n        /* \"#utility.yul\":4630:4639   */\n      div\n        /* \"#utility.yul\":4625:4639   */\n      swap1\n      pop\n        /* \"#utility.yul\":4460:4645   */\n      swap3\n      swap2\n      pop\n      pop\n      jump\t// out\n\n    auxdata: 0xa26469706673582212200f3febf769b013bbd1d88a24ae7fb2aa15d02a7320b0dffc157e5433e36c167d64736f6c634300080f0033\n}\n",
				"bytecode": {
					"linkReferences": {},
					"object": "608060405234801561001057600080fd5b506040516107b33803806107b38339818101604052810190610032919061007a565b80600281905550506100a7565b600080fd5b6000819050919050565b61005781610044565b811461006257600080fd5b50565b6000815190506100748161004e565b92915050565b6000602082840312156100905761008f61003f565b5b600061009e84828501610065565b91505092915050565b6106fd806100b66000396000f3fe608060405234801561001057600080fd5b50600436106100935760003560e01c80638d48c9c8116100665780638d48c9c814610112578063a694fc3a14610130578063a87430ba1461014c578063c74465651461017f578063f20eaeb81461019d57610093565b80634b5c8bdf146100985780635d8d1585146100b657806364d4db10146100d6578063833a3b85146100f4575b600080fd5b6100a06101bb565b6040516100ad91906103d4565b60405180910390f35b6100be6101c1565b6040516100cd939291906103ef565b60405180910390f35b6100de61024d565b6040516100eb91906103d4565b60405180910390f35b6100fc610253565b60405161010991906103d4565b60405180910390f35b61011a610259565b60405161012791906103d4565b60405180910390f35b61014a60048036038101906101459190610457565b61025f565b005b610166600480360381019061016191906104e2565b61037f565b604051610176949392919061050f565b60405180910390f35b6101876103af565b60405161019491906103d4565b60405180910390f35b6101a56103b5565b6040516101b291906103d4565b60405180910390f35b60015481565b6000806000806000803373ffffffffffffffffffffffffffffffffffffffff1673ffffffffffffffffffffffffffffffffffffffff16815260200190815260200160002090508060000154816003015460035461021e9190610583565b61022891906105b7565b81600201546102379190610611565b9350806003015492508060000154915050909192565b60045481565b60065481565b60035481565b60008060003373ffffffffffffffffffffffffffffffffffffffff1673ffffffffffffffffffffffffffffffffffffffff1681526020019081526020016000209050600080600154146102bf576001546002546102bc9190610696565b90505b80600454426102ce9190610583565b6102d891906105b7565b600360008282546102e99190610611565b92505081905550816000015482600301546003546103079190610583565b61031191906105b7565b8260020160008282546103249190610611565b9250508190555060035482600301819055508282600001600082825461034a9190610611565b92505081905550428260010181905550826001600082825461036c9190610611565b9250508190555042600481905550505050565b60006020528060005260406000206000915090508060000154908060010154908060020154908060030154905084565b60055481565b60025481565b6000819050919050565b6103ce816103bb565b82525050565b60006020820190506103e960008301846103c5565b92915050565b600060608201905061040460008301866103c5565b61041160208301856103c5565b61041e60408301846103c5565b949350505050565b600080fd5b610434816103bb565b811461043f57600080fd5b50565b6000813590506104518161042b565b92915050565b60006020828403121561046d5761046c610426565b5b600061047b84828501610442565b91505092915050565b600073ffffffffffffffffffffffffffffffffffffffff82169050919050565b60006104af82610484565b9050919050565b6104bf816104a4565b81146104ca57600080fd5b50565b6000813590506104dc816104b6565b92915050565b6000602082840312156104f8576104f7610426565b5b6000610506848285016104cd565b91505092915050565b600060808201905061052460008301876103c5565b61053160208301866103c5565b61053e60408301856103c5565b61054b60608301846103c5565b95945050505050565b7f4e487b7100000000000000000000000000000000000000000000000000000000600052601160045260246000fd5b600061058e826103bb565b9150610599836103bb565b9250828210156105ac576105ab610554565b5b828203905092915050565b60006105c2826103bb565b91506105cd836103bb565b9250817fffffffffffffffffffffffffffffffffffffffffffffffffffffffffffffffff048311821515161561060657610605610554565b5b828202905092915050565b600061061c826103bb565b9150610627836103bb565b9250827fffffffffffffffffffffffffffffffffffffffffffffffffffffffffffffffff0382111561065c5761065b610554565b5b828201905092915050565b7f4e487b7100000000000000000000000000000000000000000000000000000000600052601260045260246000fd5b60006106a1826103bb565b91506106ac836103bb565b9250826106bc576106bb610667565b5b82820490509291505056fea26469706673582212200f3febf769b013bbd1d88a24ae7fb2aa15d02a7320b0dffc157e5433e36c167d64736f6c634300080f0033",
					"opcodes": "PUSH1 0x80 PUSH1 0x40 MSTORE CALLVALUE DUP1 ISZERO PUSH2 0x10 JUMPI PUSH1 0x0 DUP1 REVERT JUMPDEST POP PUSH1 0x40 MLOAD PUSH2 0x7B3 CODESIZE SUB DUP1 PUSH2 0x7B3 DUP4 CODECOPY DUP2 DUP2 ADD PUSH1 0x40 MSTORE DUP2 ADD SWAP1 PUSH2 0x32 SWAP2 SWAP1 PUSH2 0x7A JUMP JUMPDEST DUP1 PUSH1 0x2 DUP2 SWAP1 SSTORE POP POP PUSH2 0xA7 JUMP JUMPDEST PUSH1 0x0 DUP1 REVERT JUMPDEST PUSH1 0x0 DUP2 SWAP1 POP SWAP2 SWAP1 POP JUMP JUMPDEST PUSH2 0x57 DUP2 PUSH2 0x44 JUMP JUMPDEST DUP2 EQ PUSH2 0x62 JUMPI PUSH1 0x0 DUP1 REVERT JUMPDEST POP JUMP JUMPDEST PUSH1 0x0 DUP2 MLOAD SWAP1 POP PUSH2 0x74 DUP2 PUSH2 0x4E JUMP JUMPDEST SWAP3 SWAP2 POP POP JUMP JUMPDEST PUSH1 0x0 PUSH1 0x20 DUP3 DUP5 SUB SLT ISZERO PUSH2 0x90 JUMPI PUSH2 0x8F PUSH2 0x3F JUMP JUMPDEST JUMPDEST PUSH1 0x0 PUSH2 0x9E DUP5 DUP3 DUP6 ADD PUSH2 0x65 JUMP JUMPDEST SWAP2 POP POP SWAP3 SWAP2 POP POP JUMP JUMPDEST PUSH2 0x6FD DUP1 PUSH2 0xB6 PUSH1 0x0 CODECOPY PUSH1 0x0 RETURN INVALID PUSH1 0x80 PUSH1 0x40 MSTORE CALLVALUE DUP1 ISZERO PUSH2 0x10 JUMPI PUSH1 0x0 DUP1 REVERT JUMPDEST POP PUSH1 0x4 CALLDATASIZE LT PUSH2 0x93 JUMPI PUSH1 0x0 CALLDATALOAD PUSH1 0xE0 SHR DUP1 PUSH4 0x8D48C9C8 GT PUSH2 0x66 JUMPI DUP1 PUSH4 0x8D48C9C8 EQ PUSH2 0x112 JUMPI DUP1 PUSH4 0xA694FC3A EQ PUSH2 0x130 JUMPI DUP1 PUSH4 0xA87430BA EQ PUSH2 0x14C JUMPI DUP1 PUSH4 0xC7446565 EQ PUSH2 0x17F JUMPI DUP1 PUSH4 0xF20EAEB8 EQ PUSH2 0x19D JUMPI PUSH2 0x93 JUMP JUMPDEST DUP1 PUSH4 0x4B5C8BDF EQ PUSH2 0x98 JUMPI DUP1 PUSH4 0x5D8D1585 EQ PUSH2 0xB6 JUMPI DUP1 PUSH4 0x64D4DB10 EQ PUSH2 0xD6 JUMPI DUP1 PUSH4 0x833A3B85 EQ PUSH2 0xF4 JUMPI JUMPDEST PUSH1 0x0 DUP1 REVERT JUMPDEST PUSH2 0xA0 PUSH2 0x1BB JUMP JUMPDEST PUSH1 0x40 MLOAD PUSH2 0xAD SWAP2 SWAP1 PUSH2 0x3D4 JUMP JUMPDEST PUSH1 0x40 MLOAD DUP1 SWAP2 SUB SWAP1 RETURN JUMPDEST PUSH2 0xBE PUSH2 0x1C1 JUMP JUMPDEST PUSH1 0x40 MLOAD PUSH2 0xCD SWAP4 SWAP3 SWAP2 SWAP1 PUSH2 0x3EF JUMP JUMPDEST PUSH1 0x40 MLOAD DUP1 SWAP2 SUB SWAP1 RETURN JUMPDEST PUSH2 0xDE PUSH2 0x24D JUMP JUMPDEST PUSH1 0x40 MLOAD PUSH2 0xEB SWAP2 SWAP1 PUSH2 0x3D4 JUMP JUMPDEST PUSH1 0x40 MLOAD DUP1 SWAP2 SUB SWAP1 RETURN JUMPDEST PUSH2 0xFC PUSH2 0x253 JUMP JUMPDEST PUSH1 0x40 MLOAD PUSH2 0x109 SWAP2 SWAP1 PUSH2 0x3D4 JUMP JUMPDEST PUSH1 0x40 MLOAD DUP1 SWAP2 SUB SWAP1 RETURN JUMPDEST PUSH2 0x11A PUSH2 0x259 JUMP JUMPDEST PUSH1 0x40 MLOAD PUSH2 0x127 SWAP2 SWAP1 PUSH2 0x3D4 JUMP JUMPDEST PUSH1 0x40 MLOAD DUP1 SWAP2 SUB SWAP1 RETURN JUMPDEST PUSH2 0x14A PUSH1 0x4 DUP1 CALLDATASIZE SUB DUP2 ADD SWAP1 PUSH2 0x145 SWAP2 SWAP1 PUSH2 0x457 JUMP JUMPDEST PUSH2 0x25F JUMP JUMPDEST STOP JUMPDEST PUSH2 0x166 PUSH1 0x4 DUP1 CALLDATASIZE SUB DUP2 ADD SWAP1 PUSH2 0x161 SWAP2 SWAP1 PUSH2 0x4E2 JUMP JUMPDEST PUSH2 0x37F JUMP JUMPDEST PUSH1 0x40 MLOAD PUSH2 0x176 SWAP5 SWAP4 SWAP3 SWAP2 SWAP1 PUSH2 0x50F JUMP JUMPDEST PUSH1 0x40 MLOAD DUP1 SWAP2 SUB SWAP1 RETURN JUMPDEST PUSH2 0x187 PUSH2 0x3AF JUMP JUMPDEST PUSH1 0x40 MLOAD PUSH2 0x194 SWAP2 SWAP1 PUSH2 0x3D4 JUMP JUMPDEST PUSH1 0x40 MLOAD DUP1 SWAP2 SUB SWAP1 RETURN JUMPDEST PUSH2 0x1A5 PUSH2 0x3B5 JUMP JUMPDEST PUSH1 0x40 MLOAD PUSH2 0x1B2 SWAP2 SWAP1 PUSH2 0x3D4 JUMP JUMPDEST PUSH1 0x40 MLOAD DUP1 SWAP2 SUB SWAP1 RETURN JUMPDEST PUSH1 0x1 SLOAD DUP2 JUMP JUMPDEST PUSH1 0x0 DUP1 PUSH1 0x0 DUP1 PUSH1 0x0 DUP1 CALLER PUSH20 0xFFFFFFFFFFFFFFFFFFFFFFFFFFFFFFFFFFFFFFFF AND PUSH20 0xFFFFFFFFFFFFFFFFFFFFFFFFFFFFFFFFFFFFFFFF AND DUP2 MSTORE PUSH1 0x20 ADD SWAP1 DUP2 MSTORE PUSH1 0x20 ADD PUSH1 0x0 KECCAK256 SWAP1 POP DUP1 PUSH1 0x0 ADD SLOAD DUP2 PUSH1 0x3 ADD SLOAD PUSH1 0x3 SLOAD PUSH2 0x21E SWAP2 SWAP1 PUSH2 0x583 JUMP JUMPDEST PUSH2 0x228 SWAP2 SWAP1 PUSH2 0x5B7 JUMP JUMPDEST DUP2 PUSH1 0x2 ADD SLOAD PUSH2 0x237 SWAP2 SWAP1 PUSH2 0x611 JUMP JUMPDEST SWAP4 POP DUP1 PUSH1 0x3 ADD SLOAD SWAP3 POP DUP1 PUSH1 0x0 ADD SLOAD SWAP2 POP POP SWAP1 SWAP2 SWAP3 JUMP JUMPDEST PUSH1 0x4 SLOAD DUP2 JUMP JUMPDEST PUSH1 0x6 SLOAD DUP2 JUMP JUMPDEST PUSH1 0x3 SLOAD DUP2 JUMP JUMPDEST PUSH1 0x0 DUP1 PUSH1 0x0 CALLER PUSH20 0xFFFFFFFFFFFFFFFFFFFFFFFFFFFFFFFFFFFFFFFF AND PUSH20 0xFFFFFFFFFFFFFFFFFFFFFFFFFFFFFFFFFFFFFFFF AND DUP2 MSTORE PUSH1 0x20 ADD SWAP1 DUP2 MSTORE PUSH1 0x20 ADD PUSH1 0x0 KECCAK256 SWAP1 POP PUSH1 0x0 DUP1 PUSH1 0x1 SLOAD EQ PUSH2 0x2BF JUMPI PUSH1 0x1 SLOAD PUSH1 0x2 SLOAD PUSH2 0x2BC SWAP2 SWAP1 PUSH2 0x696 JUMP JUMPDEST SWAP1 POP JUMPDEST DUP1 PUSH1 0x4 SLOAD TIMESTAMP PUSH2 0x2CE SWAP2 SWAP1 PUSH2 0x583 JUMP JUMPDEST PUSH2 0x2D8 SWAP2 SWAP1 PUSH2 0x5B7 JUMP JUMPDEST PUSH1 0x3 PUSH1 0x0 DUP3 DUP3 SLOAD PUSH2 0x2E9 SWAP2 SWAP1 PUSH2 0x611 JUMP JUMPDEST SWAP3 POP POP DUP2 SWAP1 SSTORE POP DUP2 PUSH1 0x0 ADD SLOAD DUP3 PUSH1 0x3 ADD SLOAD PUSH1 0x3 SLOAD PUSH2 0x307 SWAP2 SWAP1 PUSH2 0x583 JUMP JUMPDEST PUSH2 0x311 SWAP2 SWAP1 PUSH2 0x5B7 JUMP JUMPDEST DUP3 PUSH1 0x2 ADD PUSH1 0x0 DUP3 DUP3 SLOAD PUSH2 0x324 SWAP2 SWAP1 PUSH2 0x611 JUMP JUMPDEST SWAP3 POP POP DUP2 SWAP1 SSTORE POP PUSH1 0x3 SLOAD DUP3 PUSH1 0x3 ADD DUP2 SWAP1 SSTORE POP DUP3 DUP3 PUSH1 0x0 ADD PUSH1 0x0 DUP3 DUP3 SLOAD PUSH2 0x34A SWAP2 SWAP1 PUSH2 0x611 JUMP JUMPDEST SWAP3 POP POP DUP2 SWAP1 SSTORE POP TIMESTAMP DUP3 PUSH1 0x1 ADD DUP2 SWAP1 SSTORE POP DUP3 PUSH1 0x1 PUSH1 0x0 DUP3 DUP3 SLOAD PUSH2 0x36C SWAP2 SWAP1 PUSH2 0x611 JUMP JUMPDEST SWAP3 POP POP DUP2 SWAP1 SSTORE POP TIMESTAMP PUSH1 0x4 DUP2 SWAP1 SSTORE POP POP POP POP JUMP JUMPDEST PUSH1 0x0 PUSH1 0x20 MSTORE DUP1 PUSH1 0x0 MSTORE PUSH1 0x40 PUSH1 0x0 KECCAK256 PUSH1 0x0 SWAP2 POP SWAP1 POP DUP1 PUSH1 0x0 ADD SLOAD SWAP1 DUP1 PUSH1 0x1 ADD SLOAD SWAP1 DUP1 PUSH1 0x2 ADD SLOAD SWAP1 DUP1 PUSH1 0x3 ADD SLOAD SWAP1 POP DUP5 JUMP JUMPDEST PUSH1 0x5 SLOAD DUP2 JUMP JUMPDEST PUSH1 0x2 SLOAD DUP2 JUMP JUMPDEST PUSH1 0x0 DUP2 SWAP1 POP SWAP2 SWAP1 POP JUMP JUMPDEST PUSH2 0x3CE DUP2 PUSH2 0x3BB JUMP JUMPDEST DUP3 MSTORE POP POP JUMP JUMPDEST PUSH1 0x0 PUSH1 0x20 DUP3 ADD SWAP1 POP PUSH2 0x3E9 PUSH1 0x0 DUP4 ADD DUP5 PUSH2 0x3C5 JUMP JUMPDEST SWAP3 SWAP2 POP POP JUMP JUMPDEST PUSH1 0x0 PUSH1 0x60 DUP3 ADD SWAP1 POP PUSH2 0x404 PUSH1 0x0 DUP4 ADD DUP7 PUSH2 0x3C5 JUMP JUMPDEST PUSH2 0x411 PUSH1 0x20 DUP4 ADD DUP6 PUSH2 0x3C5 JUMP JUMPDEST PUSH2 0x41E PUSH1 0x40 DUP4 ADD DUP5 PUSH2 0x3C5 JUMP JUMPDEST SWAP5 SWAP4 POP POP POP POP JUMP JUMPDEST PUSH1 0x0 DUP1 REVERT JUMPDEST PUSH2 0x434 DUP2 PUSH2 0x3BB JUMP JUMPDEST DUP2 EQ PUSH2 0x43F JUMPI PUSH1 0x0 DUP1 REVERT JUMPDEST POP JUMP JUMPDEST PUSH1 0x0 DUP2 CALLDATALOAD SWAP1 POP PUSH2 0x451 DUP2 PUSH2 0x42B JUMP JUMPDEST SWAP3 SWAP2 POP POP JUMP JUMPDEST PUSH1 0x0 PUSH1 0x20 DUP3 DUP5 SUB SLT ISZERO PUSH2 0x46D JUMPI PUSH2 0x46C PUSH2 0x426 JUMP JUMPDEST JUMPDEST PUSH1 0x0 PUSH2 0x47B DUP5 DUP3 DUP6 ADD PUSH2 0x442 JUMP JUMPDEST SWAP2 POP POP SWAP3 SWAP2 POP POP JUMP JUMPDEST PUSH1 0x0 PUSH20 0xFFFFFFFFFFFFFFFFFFFFFFFFFFFFFFFFFFFFFFFF DUP3 AND SWAP1 POP SWAP2 SWAP1 POP JUMP JUMPDEST PUSH1 0x0 PUSH2 0x4AF DUP3 PUSH2 0x484 JUMP JUMPDEST SWAP1 POP SWAP2 SWAP1 POP JUMP JUMPDEST PUSH2 0x4BF DUP2 PUSH2 0x4A4 JUMP JUMPDEST DUP2 EQ PUSH2 0x4CA JUMPI PUSH1 0x0 DUP1 REVERT JUMPDEST POP JUMP JUMPDEST PUSH1 0x0 DUP2 CALLDATALOAD SWAP1 POP PUSH2 0x4DC DUP2 PUSH2 0x4B6 JUMP JUMPDEST SWAP3 SWAP2 POP POP JUMP JUMPDEST PUSH1 0x0 PUSH1 0x20 DUP3 DUP5 SUB SLT ISZERO PUSH2 0x4F8 JUMPI PUSH2 0x4F7 PUSH2 0x426 JUMP JUMPDEST JUMPDEST PUSH1 0x0 PUSH2 0x506 DUP5 DUP3 DUP6 ADD PUSH2 0x4CD JUMP JUMPDEST SWAP2 POP POP SWAP3 SWAP2 POP POP JUMP JUMPDEST PUSH1 0x0 PUSH1 0x80 DUP3 ADD SWAP1 POP PUSH2 0x524 PUSH1 0x0 DUP4 ADD DUP8 PUSH2 0x3C5 JUMP JUMPDEST PUSH2 0x531 PUSH1 0x20 DUP4 ADD DUP7 PUSH2 0x3C5 JUMP JUMPDEST PUSH2 0x53E PUSH1 0x40 DUP4 ADD DUP6 PUSH2 0x3C5 JUMP JUMPDEST PUSH2 0x54B PUSH1 0x60 DUP4 ADD DUP5 PUSH2 0x3C5 JUMP JUMPDEST SWAP6 SWAP5 POP POP POP POP POP JUMP JUMPDEST PUSH32 0x4E487B7100000000000000000000000000000000000000000000000000000000 PUSH1 0x0 MSTORE PUSH1 0x11 PUSH1 0x4 MSTORE PUSH1 0x24 PUSH1 0x0 REVERT JUMPDEST PUSH1 0x0 PUSH2 0x58E DUP3 PUSH2 0x3BB JUMP JUMPDEST SWAP2 POP PUSH2 0x599 DUP4 PUSH2 0x3BB JUMP JUMPDEST SWAP3 POP DUP3 DUP3 LT ISZERO PUSH2 0x5AC JUMPI PUSH2 0x5AB PUSH2 0x554 JUMP JUMPDEST JUMPDEST DUP3 DUP3 SUB SWAP1 POP SWAP3 SWAP2 POP POP JUMP JUMPDEST PUSH1 0x0 PUSH2 0x5C2 DUP3 PUSH2 0x3BB JUMP JUMPDEST SWAP2 POP PUSH2 0x5CD DUP4 PUSH2 0x3BB JUMP JUMPDEST SWAP3 POP DUP2 PUSH32 0xFFFFFFFFFFFFFFFFFFFFFFFFFFFFFFFFFFFFFFFFFFFFFFFFFFFFFFFFFFFFFFFF DIV DUP4 GT DUP3 ISZERO ISZERO AND ISZERO PUSH2 0x606 JUMPI PUSH2 0x605 PUSH2 0x554 JUMP JUMPDEST JUMPDEST DUP3 DUP3 MUL SWAP1 POP SWAP3 SWAP2 POP POP JUMP JUMPDEST PUSH1 0x0 PUSH2 0x61C DUP3 PUSH2 0x3BB JUMP JUMPDEST SWAP2 POP PUSH2 0x627 DUP4 PUSH2 0x3BB JUMP JUMPDEST SWAP3 POP DUP3 PUSH32 0xFFFFFFFFFFFFFFFFFFFFFFFFFFFFFFFFFFFFFFFFFFFFFFFFFFFFFFFFFFFFFFFF SUB DUP3 GT ISZERO PUSH2 0x65C JUMPI PUSH2 0x65B PUSH2 0x554 JUMP JUMPDEST JUMPDEST DUP3 DUP3 ADD SWAP1 POP SWAP3 SWAP2 POP POP JUMP JUMPDEST PUSH32 0x4E487B7100000000000000000000000000000000000000000000000000000000 PUSH1 0x0 MSTORE PUSH1 0x12 PUSH1 0x4 MSTORE PUSH1 0x24 PUSH1 0x0 REVERT JUMPDEST PUSH1 0x0 PUSH2 0x6A1 DUP3 PUSH2 0x3BB JUMP JUMPDEST SWAP2 POP PUSH2 0x6AC DUP4 PUSH2 0x3BB JUMP JUMPDEST SWAP3 POP DUP3 PUSH2 0x6BC JUMPI PUSH2 0x6BB PUSH2 0x667 JUMP JUMPDEST JUMPDEST DUP3 DUP3 DIV SWAP1 POP SWAP3 SWAP2 POP POP JUMP INVALID LOG2 PUSH5 0x6970667358 0x22 SLT KECCAK256 0xF EXTCODEHASH 0xEB 0xF7 PUSH10 0xB013BBD1D88A24AE7FB2 0xAA ISZERO 0xD0 0x2A PUSH20 0x20B0DFFC157E5433E36C167D64736F6C63430008 0xF STOP CALLER "
				},
				"gasEstimates": {
					"creation": {
						"codeDepositCost": "357800",
						"executionCost": "infinite",
						"totalCost": "infinite"
					},
					"external": {
						"currentAt()": "2496",
						"getUserInfo()": "infinite",
						"lastStakeTime()": "2474",
						"output()": "2517",
						"rn()": "2429",
						"stake(uint256)": "infinite",
						"stakeTotal()": "2430",
						"startAt()": "2495",
						"users(address)": "infinite"
					}
				},
				"methodIdentifiers": {
					"currentAt()": "833a3b85",
					"getUserInfo()": "5d8d1585",
					"lastStakeTime()": "64d4db10",
					"output()": "f20eaeb8",
					"rn()": "8d48c9c8",
					"stake(uint256)": "a694fc3a",
					"stakeTotal()": "4b5c8bdf",
					"startAt()": "c7446565",
					"users(address)": "a87430ba"
				}
			},
			"storageLayout": {
				"storage": [
					{
						"astId": 15,
						"contract": "contracts/SushiPool.sol:SushiPool",
						"label": "users",
						"offset": 0,
						"slot": "0",
						"type": "t_mapping(t_address,t_struct(User)10_storage)"
					},
					{
						"astId": 17,
						"contract": "contracts/SushiPool.sol:SushiPool",
						"label": "stakeTotal",
						"offset": 0,
						"slot": "1",
						"type": "t_uint256"
					},
					{
						"astId": 19,
						"contract": "contracts/SushiPool.sol:SushiPool",
						"label": "output",
						"offset": 0,
						"slot": "2",
						"type": "t_uint256"
					},
					{
						"astId": 21,
						"contract": "contracts/SushiPool.sol:SushiPool",
						"label": "rn",
						"offset": 0,
						"slot": "3",
						"type": "t_uint256"
					},
					{
						"astId": 23,
						"contract": "contracts/SushiPool.sol:SushiPool",
						"label": "lastStakeTime",
						"offset": 0,
						"slot": "4",
						"type": "t_uint256"
					},
					{
						"astId": 25,
						"contract": "contracts/SushiPool.sol:SushiPool",
						"label": "startAt",
						"offset": 0,
						"slot": "5",
						"type": "t_uint256"
					},
					{
						"astId": 27,
						"contract": "contracts/SushiPool.sol:SushiPool",
						"label": "currentAt",
						"offset": 0,
						"slot": "6",
						"type": "t_uint256"
					}
				],
				"types": {
					"t_address": {
						"encoding": "inplace",
						"label": "address",
						"numberOfBytes": "20"
					},
					"t_mapping(t_address,t_struct(User)10_storage)": {
						"encoding": "mapping",
						"key": "t_address",
						"label": "mapping(address => struct SushiPool.User)",
						"numberOfBytes": "32",
						"value": "t_struct(User)10_storage"
					},
					"t_struct(User)10_storage": {
						"encoding": "inplace",
						"label": "struct SushiPool.User",
						"members": [
							{
								"astId": 3,
								"contract": "contracts/SushiPool.sol:SushiPool",
								"label": "stakeNumber",
								"offset": 0,
								"slot": "0",
								"type": "t_uint256"
							},
							{
								"astId": 5,
								"contract": "contracts/SushiPool.sol:SushiPool",
								"label": "stakeTime",
								"offset": 0,
								"slot": "1",
								"type": "t_uint256"
							},
							{
								"astId": 7,
								"contract": "contracts/SushiPool.sol:SushiPool",
								"label": "insert",
								"offset": 0,
								"slot": "2",
								"type": "t_uint256"
							},
							{
								"astId": 9,
								"contract": "contracts/SushiPool.sol:SushiPool",
								"label": "ru",
								"offset": 0,
								"slot": "3",
								"type": "t_uint256"
							}
						],
						"numberOfBytes": "128"
					},
					"t_uint256": {
						"encoding": "inplace",
						"label": "uint256",
						"numberOfBytes": "32"
					}
				}
			},
			"userdoc": {
				"kind": "user",
				"methods": {
					"stake(uint256)": {
						"notice": "用户质押  amount 质押数量"
					}
				},
				"version": 1
			}
		}
	}
}