{
	"utils/Strings.sol": {
		"Strings": {
			"abi": [
				{
					"inputs": [
						{
							"internalType": "uint256",
							"name": "value",
							"type": "uint256"
						},
						{
							"internalType": "uint256",
							"name": "length",
							"type": "uint256"
						}
					],
					"name": "toHexString",
					"outputs": [
						{
							"internalType": "string",
							"name": "",
							"type": "string"
						}
					],
					"stateMutability": "pure",
					"type": "function"
				},
				{
					"inputs": [
						{
							"internalType": "uint256",
							"name": "value",
							"type": "uint256"
						}
					],
					"name": "toHexString",
					"outputs": [
						{
							"internalType": "string",
							"name": "",
							"type": "string"
						}
					],
					"stateMutability": "pure",
					"type": "function"
				},
				{
					"inputs": [
						{
							"internalType": "uint256",
							"name": "value",
							"type": "uint256"
						}
					],
					"name": "toString",
					"outputs": [
						{
							"internalType": "string",
							"name": "",
							"type": "string"
						}
					],
					"stateMutability": "pure",
					"type": "function"
				}
			],
			"devdoc": {
				"kind": "dev",
				"methods": {
					"toHexString(uint256)": {
						"details": "Converts a `uint256` to its ASCII `string` hexadecimal representation."
					},
					"toHexString(uint256,uint256)": {
						"details": "Converts a `uint256` to its ASCII `string` hexadecimal representation with fixed length."
					},
					"toString(uint256)": {
						"details": "Converts a `uint256` to its ASCII `string` decimal representation."
					}
				},
				"version": 1
			},
			"evm": {
				"assembly": "    /* \"utils/Strings.sol\":56:1935  library Strings {... */\n  dataSize(sub_0)\n  dataOffset(sub_0)\n  0x0b\n  dup3\n  dup3\n  dup3\n  codecopy\n  dup1\n  mload\n  0x00\n  byte\n  0x73\n  eq\n  tag_1\n  jumpi\n  mstore(0x00, 0x4e487b7100000000000000000000000000000000000000000000000000000000)\n  mstore(0x04, 0x00)\n  revert(0x00, 0x24)\ntag_1:\n  mstore(0x00, address)\n  0x73\n  dup2\n  mstore8\n  dup3\n  dup2\n  return\nstop\n\nsub_0: assembly {\n        /* \"utils/Strings.sol\":56:1935  library Strings {... */\n      eq(address, deployTimeAddress())\n      mstore(0x40, 0x80)\n      jumpi(tag_1, lt(calldatasize, 0x04))\n      shr(0xe0, calldataload(0x00))\n      dup1\n      0x63e1cbea\n      eq\n      tag_2\n      jumpi\n      dup1\n      0x6900a3ae\n      eq\n      tag_3\n      jumpi\n      dup1\n      0x8fba8d5c\n      eq\n      tag_4\n      jumpi\n    tag_1:\n      0x00\n      dup1\n      revert\n        /* \"utils/Strings.sol\":1494:1933  function toHexString(uint256 value, uint256 length) public pure returns (string memory) {... */\n    tag_2:\n      tag_5\n      0x04\n      dup1\n      calldatasize\n      sub\n      dup2\n      add\n      swap1\n      tag_6\n      swap2\n      swap1\n      tag_7\n      jump\t// in\n    tag_6:\n      tag_8\n      jump\t// in\n    tag_5:\n      mload(0x40)\n      tag_9\n      swap2\n      swap1\n      tag_10\n      jump\t// in\n    tag_9:\n      mload(0x40)\n      dup1\n      swap2\n      sub\n      swap1\n      return\n        /* \"utils/Strings.sol\":238:939  function toString(uint256 value) public pure returns (string memory) {... */\n    tag_3:\n      tag_11\n      0x04\n      dup1\n      calldatasize\n      sub\n      dup2\n      add\n      swap1\n      tag_12\n      swap2\n      swap1\n      tag_13\n      jump\t// in\n    tag_12:\n      tag_14\n      jump\t// in\n    tag_11:\n      mload(0x40)\n      tag_15\n      swap2\n      swap1\n      tag_10\n      jump\t// in\n    tag_15:\n      mload(0x40)\n      dup1\n      swap2\n      sub\n      swap1\n      return\n        /* \"utils/Strings.sol\":1044:1371  function toHexString(uint256 value) public pure returns (string memory) {... */\n    tag_4:\n      tag_16\n      0x04\n      dup1\n      calldatasize\n      sub\n      dup2\n      add\n      swap1\n      tag_17\n      swap2\n      swap1\n      tag_13\n      jump\t// in\n    tag_17:\n      tag_18\n      jump\t// in\n    tag_16:\n      mload(0x40)\n      tag_19\n      swap2\n      swap1\n      tag_10\n      jump\t// in\n    tag_19:\n      mload(0x40)\n      dup1\n      swap2\n      sub\n      swap1\n      return\n        /* \"utils/Strings.sol\":1494:1933  function toHexString(uint256 value, uint256 length) public pure returns (string memory) {... */\n    tag_8:\n        /* \"utils/Strings.sol\":1567:1580  string memory */\n      0x60\n        /* \"utils/Strings.sol\":1592:1611  bytes memory buffer */\n      0x00\n        /* \"utils/Strings.sol\":1637:1638  2 */\n      0x02\n        /* \"utils/Strings.sol\":1628:1634  length */\n      dup4\n        /* \"utils/Strings.sol\":1624:1625  2 */\n      0x02\n        /* \"utils/Strings.sol\":1624:1634  2 * length */\n      tag_21\n      swap2\n      swap1\n      tag_22\n      jump\t// in\n    tag_21:\n        /* \"utils/Strings.sol\":1624:1638  2 * length + 2 */\n      tag_23\n      swap2\n      swap1\n      tag_24\n      jump\t// in\n    tag_23:\n        /* \"utils/Strings.sol\":1614:1639  new bytes(2 * length + 2) */\n      0xffffffffffffffff\n      dup2\n      gt\n      iszero\n      tag_25\n      jumpi\n      tag_26\n      tag_27\n      jump\t// in\n    tag_26:\n    tag_25:\n      mload(0x40)\n      swap1\n      dup1\n      dup3\n      mstore\n      dup1\n      0x1f\n      add\n      not(0x1f)\n      and\n      0x20\n      add\n      dup3\n      add\n      0x40\n      mstore\n      dup1\n      iszero\n      tag_28\n      jumpi\n      dup2\n      0x20\n      add\n      0x01\n      dup3\n      mul\n      dup1\n      calldatasize\n      dup4\n      calldatacopy\n      dup1\n      dup3\n      add\n      swap2\n      pop\n      pop\n      swap1\n      pop\n    tag_28:\n      pop\n        /* \"utils/Strings.sol\":1592:1639  bytes memory buffer = new bytes(2 * length + 2) */\n      swap1\n      pop\n        /* \"utils/Strings.sol\":1649:1664  buffer[0] = \"0\" */\n      0x3000000000000000000000000000000000000000000000000000000000000000\n        /* \"utils/Strings.sol\":1649:1655  buffer */\n      dup2\n        /* \"utils/Strings.sol\":1656:1657  0 */\n      0x00\n        /* \"utils/Strings.sol\":1649:1658  buffer[0] */\n      dup2\n      mload\n      dup2\n      lt\n      tag_29\n      jumpi\n      tag_30\n      tag_31\n      jump\t// in\n    tag_30:\n    tag_29:\n      0x20\n      add\n      add\n        /* \"utils/Strings.sol\":1649:1664  buffer[0] = \"0\" */\n      swap1\n      not(0xffffffffffffffffffffffffffffffffffffffffffffffffffffffffffffff)\n      and\n      swap1\n      dup2\n      0x00\n      byte\n      swap1\n      mstore8\n      pop\n        /* \"utils/Strings.sol\":1674:1689  buffer[1] = \"x\" */\n      0x7800000000000000000000000000000000000000000000000000000000000000\n        /* \"utils/Strings.sol\":1674:1680  buffer */\n      dup2\n        /* \"utils/Strings.sol\":1681:1682  1 */\n      0x01\n        /* \"utils/Strings.sol\":1674:1683  buffer[1] */\n      dup2\n      mload\n      dup2\n      lt\n      tag_32\n      jumpi\n      tag_33\n      tag_31\n      jump\t// in\n    tag_33:\n    tag_32:\n      0x20\n      add\n      add\n        /* \"utils/Strings.sol\":1674:1689  buffer[1] = \"x\" */\n      swap1\n      not(0xffffffffffffffffffffffffffffffffffffffffffffffffffffffffffffff)\n      and\n      swap1\n      dup2\n      0x00\n      byte\n      swap1\n      mstore8\n      pop\n        /* \"utils/Strings.sol\":1704:1713  uint256 i */\n      0x00\n        /* \"utils/Strings.sol\":1729:1730  1 */\n      0x01\n        /* \"utils/Strings.sol\":1720:1726  length */\n      dup5\n        /* \"utils/Strings.sol\":1716:1717  2 */\n      0x02\n        /* \"utils/Strings.sol\":1716:1726  2 * length */\n      tag_37\n      swap2\n      swap1\n      tag_22\n      jump\t// in\n    tag_37:\n        /* \"utils/Strings.sol\":1716:1730  2 * length + 1 */\n      tag_38\n      swap2\n      swap1\n      tag_24\n      jump\t// in\n    tag_38:\n        /* \"utils/Strings.sol\":1704:1730  uint256 i = 2 * length + 1 */\n      swap1\n      pop\n        /* \"utils/Strings.sol\":1699:1831  for (uint256 i = 2 * length + 1; i > 1; --i) {... */\n    tag_34:\n        /* \"utils/Strings.sol\":1736:1737  1 */\n      0x01\n        /* \"utils/Strings.sol\":1732:1733  i */\n      dup2\n        /* \"utils/Strings.sol\":1732:1737  i > 1 */\n      gt\n        /* \"utils/Strings.sol\":1699:1831  for (uint256 i = 2 * length + 1; i > 1; --i) {... */\n      iszero\n      tag_35\n      jumpi\n        /* \"utils/Strings.sol\":1770:1782  _HEX_SYMBOLS */\n      0x3031323334353637383961626364656600000000000000000000000000000000\n        /* \"utils/Strings.sol\":1791:1794  0xf */\n      0x0f\n        /* \"utils/Strings.sol\":1783:1788  value */\n      dup7\n        /* \"utils/Strings.sol\":1783:1794  value & 0xf */\n      and\n        /* \"utils/Strings.sol\":1770:1795  _HEX_SYMBOLS[value & 0xf] */\n      0x10\n      dup2\n      lt\n      tag_39\n      jumpi\n      tag_40\n      tag_31\n      jump\t// in\n    tag_40:\n    tag_39:\n      byte\n      0xf8\n      shl\n        /* \"utils/Strings.sol\":1758:1764  buffer */\n      dup3\n        /* \"utils/Strings.sol\":1765:1766  i */\n      dup3\n        /* \"utils/Strings.sol\":1758:1767  buffer[i] */\n      dup2\n      mload\n      dup2\n      lt\n      tag_41\n      jumpi\n      tag_42\n      tag_31\n      jump\t// in\n    tag_42:\n    tag_41:\n      0x20\n      add\n      add\n        /* \"utils/Strings.sol\":1758:1795  buffer[i] = _HEX_SYMBOLS[value & 0xf] */\n      swap1\n      not(0xffffffffffffffffffffffffffffffffffffffffffffffffffffffffffffff)\n      and\n      swap1\n      dup2\n      0x00\n      byte\n      swap1\n      mstore8\n      pop\n        /* \"utils/Strings.sol\":1819:1820  4 */\n      0x04\n        /* \"utils/Strings.sol\":1809:1820  value >>= 4 */\n      dup6\n      swap1\n      shr\n      swap5\n      pop\n        /* \"utils/Strings.sol\":1739:1742  --i */\n      dup1\n      tag_43\n      swap1\n      tag_44\n      jump\t// in\n    tag_43:\n      swap1\n      pop\n        /* \"utils/Strings.sol\":1699:1831  for (uint256 i = 2 * length + 1; i > 1; --i) {... */\n      jump(tag_34)\n    tag_35:\n      pop\n        /* \"utils/Strings.sol\":1857:1858  0 */\n      0x00\n        /* \"utils/Strings.sol\":1848:1853  value */\n      dup5\n        /* \"utils/Strings.sol\":1848:1858  value == 0 */\n      eq\n        /* \"utils/Strings.sol\":1840:1895  require(value == 0, \"Strings: hex length insufficient\") */\n      tag_45\n      jumpi\n      mload(0x40)\n      0x08c379a000000000000000000000000000000000000000000000000000000000\n      dup2\n      mstore\n      0x04\n      add\n      tag_46\n      swap1\n      tag_47\n      jump\t// in\n    tag_46:\n      mload(0x40)\n      dup1\n      swap2\n      sub\n      swap1\n      revert\n    tag_45:\n        /* \"utils/Strings.sol\":1919:1925  buffer */\n      dup1\n        /* \"utils/Strings.sol\":1905:1926  return string(buffer) */\n      swap2\n      pop\n      pop\n        /* \"utils/Strings.sol\":1494:1933  function toHexString(uint256 value, uint256 length) public pure returns (string memory) {... */\n      swap3\n      swap2\n      pop\n      pop\n      jump\t// out\n        /* \"utils/Strings.sol\":238:939  function toString(uint256 value) public pure returns (string memory) {... */\n    tag_14:\n        /* \"utils/Strings.sol\":292:305  string memory */\n      0x60\n        /* \"utils/Strings.sol\":518:519  0 */\n      0x00\n        /* \"utils/Strings.sol\":509:514  value */\n      dup3\n        /* \"utils/Strings.sol\":509:519  value == 0 */\n      eq\n        /* \"utils/Strings.sol\":505:556  if (value == 0) {... */\n      iszero\n      tag_49\n      jumpi\n        /* \"utils/Strings.sol\":535:545  return \"0\" */\n      mload(0x40)\n      dup1\n      0x40\n      add\n      0x40\n      mstore\n      dup1\n      0x01\n      dup2\n      mstore\n      0x20\n      add\n      0x3000000000000000000000000000000000000000000000000000000000000000\n      dup2\n      mstore\n      pop\n      swap1\n      pop\n      jump(tag_48)\n        /* \"utils/Strings.sol\":505:556  if (value == 0) {... */\n    tag_49:\n        /* \"utils/Strings.sol\":565:577  uint256 temp */\n      0x00\n        /* \"utils/Strings.sol\":580:585  value */\n      dup3\n        /* \"utils/Strings.sol\":565:585  uint256 temp = value */\n      swap1\n      pop\n        /* \"utils/Strings.sol\":595:609  uint256 digits */\n      0x00\n        /* \"utils/Strings.sol\":619:694  while (temp != 0) {... */\n    tag_50:\n        /* \"utils/Strings.sol\":634:635  0 */\n      0x00\n        /* \"utils/Strings.sol\":626:630  temp */\n      dup3\n        /* \"utils/Strings.sol\":626:635  temp != 0 */\n      eq\n        /* \"utils/Strings.sol\":619:694  while (temp != 0) {... */\n      tag_51\n      jumpi\n        /* \"utils/Strings.sol\":651:659  digits++ */\n      dup1\n      dup1\n      tag_52\n      swap1\n      tag_53\n      jump\t// in\n    tag_52:\n      swap2\n      pop\n      pop\n        /* \"utils/Strings.sol\":681:683  10 */\n      0x0a\n        /* \"utils/Strings.sol\":673:683  temp /= 10 */\n      dup3\n      tag_54\n      swap2\n      swap1\n      tag_55\n      jump\t// in\n    tag_54:\n      swap2\n      pop\n        /* \"utils/Strings.sol\":619:694  while (temp != 0) {... */\n      jump(tag_50)\n    tag_51:\n        /* \"utils/Strings.sol\":703:722  bytes memory buffer */\n      0x00\n        /* \"utils/Strings.sol\":735:741  digits */\n      dup2\n        /* \"utils/Strings.sol\":725:742  new bytes(digits) */\n      0xffffffffffffffff\n      dup2\n      gt\n      iszero\n      tag_56\n      jumpi\n      tag_57\n      tag_27\n      jump\t// in\n    tag_57:\n    tag_56:\n      mload(0x40)\n      swap1\n      dup1\n      dup3\n      mstore\n      dup1\n      0x1f\n      add\n      not(0x1f)\n      and\n      0x20\n      add\n      dup3\n      add\n      0x40\n      mstore\n      dup1\n      iszero\n      tag_58\n      jumpi\n      dup2\n      0x20\n      add\n      0x01\n      dup3\n      mul\n      dup1\n      calldatasize\n      dup4\n      calldatacopy\n      dup1\n      dup3\n      add\n      swap2\n      pop\n      pop\n      swap1\n      pop\n    tag_58:\n      pop\n        /* \"utils/Strings.sol\":703:742  bytes memory buffer = new bytes(digits) */\n      swap1\n      pop\n        /* \"utils/Strings.sol\":752:902  while (value != 0) {... */\n    tag_59:\n        /* \"utils/Strings.sol\":768:769  0 */\n      0x00\n        /* \"utils/Strings.sol\":759:764  value */\n      dup6\n        /* \"utils/Strings.sol\":759:769  value != 0 */\n      eq\n        /* \"utils/Strings.sol\":752:902  while (value != 0) {... */\n      tag_60\n      jumpi\n        /* \"utils/Strings.sol\":795:796  1 */\n      0x01\n        /* \"utils/Strings.sol\":785:796  digits -= 1 */\n      dup3\n      tag_61\n      swap2\n      swap1\n      tag_62\n      jump\t// in\n    tag_61:\n      swap2\n      pop\n        /* \"utils/Strings.sol\":861:863  10 */\n      0x0a\n        /* \"utils/Strings.sol\":853:858  value */\n      dup6\n        /* \"utils/Strings.sol\":853:863  value % 10 */\n      tag_63\n      swap2\n      swap1\n      tag_64\n      jump\t// in\n    tag_63:\n        /* \"utils/Strings.sol\":840:842  48 */\n      0x30\n        /* \"utils/Strings.sol\":840:864  48 + uint256(value % 10) */\n      tag_65\n      swap2\n      swap1\n      tag_24\n      jump\t// in\n    tag_65:\n        /* \"utils/Strings.sol\":827:866  bytes1(uint8(48 + uint256(value % 10))) */\n      0xf8\n      shl\n        /* \"utils/Strings.sol\":810:816  buffer */\n      dup2\n        /* \"utils/Strings.sol\":817:823  digits */\n      dup4\n        /* \"utils/Strings.sol\":810:824  buffer[digits] */\n      dup2\n      mload\n      dup2\n      lt\n      tag_66\n      jumpi\n      tag_67\n      tag_31\n      jump\t// in\n    tag_67:\n    tag_66:\n      0x20\n      add\n      add\n        /* \"utils/Strings.sol\":810:866  buffer[digits] = bytes1(uint8(48 + uint256(value % 10))) */\n      swap1\n      not(0xffffffffffffffffffffffffffffffffffffffffffffffffffffffffffffff)\n      and\n      swap1\n      dup2\n      0x00\n      byte\n      swap1\n      mstore8\n      pop\n        /* \"utils/Strings.sol\":889:891  10 */\n      0x0a\n        /* \"utils/Strings.sol\":880:891  value /= 10 */\n      dup6\n      tag_68\n      swap2\n      swap1\n      tag_55\n      jump\t// in\n    tag_68:\n      swap5\n      pop\n        /* \"utils/Strings.sol\":752:902  while (value != 0) {... */\n      jump(tag_59)\n    tag_60:\n        /* \"utils/Strings.sol\":925:931  buffer */\n      dup1\n        /* \"utils/Strings.sol\":911:932  return string(buffer) */\n      swap4\n      pop\n      pop\n      pop\n      pop\n        /* \"utils/Strings.sol\":238:939  function toString(uint256 value) public pure returns (string memory) {... */\n    tag_48:\n      swap2\n      swap1\n      pop\n      jump\t// out\n        /* \"utils/Strings.sol\":1044:1371  function toHexString(uint256 value) public pure returns (string memory) {... */\n    tag_18:\n        /* \"utils/Strings.sol\":1101:1114  string memory */\n      0x60\n        /* \"utils/Strings.sol\":1139:1140  0 */\n      0x00\n        /* \"utils/Strings.sol\":1130:1135  value */\n      dup3\n        /* \"utils/Strings.sol\":1130:1140  value == 0 */\n      eq\n        /* \"utils/Strings.sol\":1126:1180  if (value == 0) {... */\n      iszero\n      tag_70\n      jumpi\n        /* \"utils/Strings.sol\":1156:1169  return \"0x00\" */\n      mload(0x40)\n      dup1\n      0x40\n      add\n      0x40\n      mstore\n      dup1\n      0x04\n      dup2\n      mstore\n      0x20\n      add\n      0x3078303000000000000000000000000000000000000000000000000000000000\n      dup2\n      mstore\n      pop\n      swap1\n      pop\n      jump(tag_69)\n        /* \"utils/Strings.sol\":1126:1180  if (value == 0) {... */\n    tag_70:\n        /* \"utils/Strings.sol\":1189:1201  uint256 temp */\n      0x00\n        /* \"utils/Strings.sol\":1204:1209  value */\n      dup3\n        /* \"utils/Strings.sol\":1189:1209  uint256 temp = value */\n      swap1\n      pop\n        /* \"utils/Strings.sol\":1219:1233  uint256 length */\n      0x00\n        /* \"utils/Strings.sol\":1247:1322  while (temp != 0) {... */\n    tag_71:\n        /* \"utils/Strings.sol\":1262:1263  0 */\n      0x00\n        /* \"utils/Strings.sol\":1254:1258  temp */\n      dup3\n        /* \"utils/Strings.sol\":1254:1263  temp != 0 */\n      eq\n        /* \"utils/Strings.sol\":1247:1322  while (temp != 0) {... */\n      tag_72\n      jumpi\n        /* \"utils/Strings.sol\":1279:1287  length++ */\n      dup1\n      dup1\n      tag_73\n      swap1\n      tag_53\n      jump\t// in\n    tag_73:\n      swap2\n      pop\n      pop\n        /* \"utils/Strings.sol\":1310:1311  8 */\n      0x08\n        /* \"utils/Strings.sol\":1301:1311  temp >>= 8 */\n      dup3\n      swap1\n      shr\n      swap2\n      pop\n        /* \"utils/Strings.sol\":1247:1322  while (temp != 0) {... */\n      jump(tag_71)\n    tag_72:\n        /* \"utils/Strings.sol\":1338:1364  toHexString(value, length) */\n      tag_74\n        /* \"utils/Strings.sol\":1350:1355  value */\n      dup5\n        /* \"utils/Strings.sol\":1357:1363  length */\n      dup3\n        /* \"utils/Strings.sol\":1338:1349  toHexString */\n      tag_8\n        /* \"utils/Strings.sol\":1338:1364  toHexString(value, length) */\n      jump\t// in\n    tag_74:\n        /* \"utils/Strings.sol\":1331:1364  return toHexString(value, length) */\n      swap3\n      pop\n      pop\n      pop\n        /* \"utils/Strings.sol\":1044:1371  function toHexString(uint256 value) public pure returns (string memory) {... */\n    tag_69:\n      swap2\n      swap1\n      pop\n      jump\t// out\n        /* \"#utility.yul\":7:146   */\n    tag_76:\n        /* \"#utility.yul\":53:58   */\n      0x00\n        /* \"#utility.yul\":91:97   */\n      dup2\n        /* \"#utility.yul\":78:98   */\n      calldataload\n        /* \"#utility.yul\":69:98   */\n      swap1\n      pop\n        /* \"#utility.yul\":107:140   */\n      tag_78\n        /* \"#utility.yul\":134:139   */\n      dup2\n        /* \"#utility.yul\":107:140   */\n      tag_79\n      jump\t// in\n    tag_78:\n        /* \"#utility.yul\":7:146   */\n      swap3\n      swap2\n      pop\n      pop\n      jump\t// out\n        /* \"#utility.yul\":152:481   */\n    tag_13:\n        /* \"#utility.yul\":211:217   */\n      0x00\n        /* \"#utility.yul\":260:262   */\n      0x20\n        /* \"#utility.yul\":248:257   */\n      dup3\n        /* \"#utility.yul\":239:246   */\n      dup5\n        /* \"#utility.yul\":235:258   */\n      sub\n        /* \"#utility.yul\":231:263   */\n      slt\n        /* \"#utility.yul\":228:347   */\n      iszero\n      tag_81\n      jumpi\n        /* \"#utility.yul\":266:345   */\n      tag_82\n      tag_83\n      jump\t// in\n    tag_82:\n        /* \"#utility.yul\":228:347   */\n    tag_81:\n        /* \"#utility.yul\":386:387   */\n      0x00\n        /* \"#utility.yul\":411:464   */\n      tag_84\n        /* \"#utility.yul\":456:463   */\n      dup5\n        /* \"#utility.yul\":447:453   */\n      dup3\n        /* \"#utility.yul\":436:445   */\n      dup6\n        /* \"#utility.yul\":432:454   */\n      add\n        /* \"#utility.yul\":411:464   */\n      tag_76\n      jump\t// in\n    tag_84:\n        /* \"#utility.yul\":401:464   */\n      swap2\n      pop\n        /* \"#utility.yul\":357:474   */\n      pop\n        /* \"#utility.yul\":152:481   */\n      swap3\n      swap2\n      pop\n      pop\n      jump\t// out\n        /* \"#utility.yul\":487:961   */\n    tag_7:\n        /* \"#utility.yul\":555:561   */\n      0x00\n        /* \"#utility.yul\":563:569   */\n      dup1\n        /* \"#utility.yul\":612:614   */\n      0x40\n        /* \"#utility.yul\":600:609   */\n      dup4\n        /* \"#utility.yul\":591:598   */\n      dup6\n        /* \"#utility.yul\":587:610   */\n      sub\n        /* \"#utility.yul\":583:615   */\n      slt\n        /* \"#utility.yul\":580:699   */\n      iszero\n      tag_86\n      jumpi\n        /* \"#utility.yul\":618:697   */\n      tag_87\n      tag_83\n      jump\t// in\n    tag_87:\n        /* \"#utility.yul\":580:699   */\n    tag_86:\n        /* \"#utility.yul\":738:739   */\n      0x00\n        /* \"#utility.yul\":763:816   */\n      tag_88\n        /* \"#utility.yul\":808:815   */\n      dup6\n        /* \"#utility.yul\":799:805   */\n      dup3\n        /* \"#utility.yul\":788:797   */\n      dup7\n        /* \"#utility.yul\":784:806   */\n      add\n        /* \"#utility.yul\":763:816   */\n      tag_76\n      jump\t// in\n    tag_88:\n        /* \"#utility.yul\":753:816   */\n      swap3\n      pop\n        /* \"#utility.yul\":709:826   */\n      pop\n        /* \"#utility.yul\":865:867   */\n      0x20\n        /* \"#utility.yul\":891:944   */\n      tag_89\n        /* \"#utility.yul\":936:943   */\n      dup6\n        /* \"#utility.yul\":927:933   */\n      dup3\n        /* \"#utility.yul\":916:925   */\n      dup7\n        /* \"#utility.yul\":912:934   */\n      add\n        /* \"#utility.yul\":891:944   */\n      tag_76\n      jump\t// in\n    tag_89:\n        /* \"#utility.yul\":881:944   */\n      swap2\n      pop\n        /* \"#utility.yul\":836:954   */\n      pop\n        /* \"#utility.yul\":487:961   */\n      swap3\n      pop\n      swap3\n      swap1\n      pop\n      jump\t// out\n        /* \"#utility.yul\":967:1347   */\n    tag_90:\n        /* \"#utility.yul\":1063:1066   */\n      0x00\n        /* \"#utility.yul\":1091:1130   */\n      tag_92\n        /* \"#utility.yul\":1124:1129   */\n      dup3\n        /* \"#utility.yul\":1091:1130   */\n      tag_93\n      jump\t// in\n    tag_92:\n        /* \"#utility.yul\":1146:1225   */\n      tag_94\n        /* \"#utility.yul\":1218:1224   */\n      dup2\n        /* \"#utility.yul\":1213:1216   */\n      dup6\n        /* \"#utility.yul\":1146:1225   */\n      tag_95\n      jump\t// in\n    tag_94:\n        /* \"#utility.yul\":1139:1225   */\n      swap4\n      pop\n        /* \"#utility.yul\":1234:1286   */\n      tag_96\n        /* \"#utility.yul\":1279:1285   */\n      dup2\n        /* \"#utility.yul\":1274:1277   */\n      dup6\n        /* \"#utility.yul\":1267:1271   */\n      0x20\n        /* \"#utility.yul\":1260:1265   */\n      dup7\n        /* \"#utility.yul\":1256:1272   */\n      add\n        /* \"#utility.yul\":1234:1286   */\n      tag_97\n      jump\t// in\n    tag_96:\n        /* \"#utility.yul\":1311:1340   */\n      tag_98\n        /* \"#utility.yul\":1333:1339   */\n      dup2\n        /* \"#utility.yul\":1311:1340   */\n      tag_99\n      jump\t// in\n    tag_98:\n        /* \"#utility.yul\":1306:1309   */\n      dup5\n        /* \"#utility.yul\":1302:1341   */\n      add\n        /* \"#utility.yul\":1295:1341   */\n      swap2\n      pop\n        /* \"#utility.yul\":1067:1347   */\n      pop\n        /* \"#utility.yul\":967:1347   */\n      swap3\n      swap2\n      pop\n      pop\n      jump\t// out\n        /* \"#utility.yul\":1353:1719   */\n    tag_100:\n        /* \"#utility.yul\":1495:1498   */\n      0x00\n        /* \"#utility.yul\":1516:1583   */\n      tag_102\n        /* \"#utility.yul\":1580:1582   */\n      0x20\n        /* \"#utility.yul\":1575:1578   */\n      dup4\n        /* \"#utility.yul\":1516:1583   */\n      tag_103\n      jump\t// in\n    tag_102:\n        /* \"#utility.yul\":1509:1583   */\n      swap2\n      pop\n        /* \"#utility.yul\":1592:1685   */\n      tag_104\n        /* \"#utility.yul\":1681:1684   */\n      dup3\n        /* \"#utility.yul\":1592:1685   */\n      tag_105\n      jump\t// in\n    tag_104:\n        /* \"#utility.yul\":1710:1712   */\n      0x20\n        /* \"#utility.yul\":1705:1708   */\n      dup3\n        /* \"#utility.yul\":1701:1713   */\n      add\n        /* \"#utility.yul\":1694:1713   */\n      swap1\n      pop\n        /* \"#utility.yul\":1353:1719   */\n      swap2\n      swap1\n      pop\n      jump\t// out\n        /* \"#utility.yul\":1725:2054   */\n    tag_10:\n        /* \"#utility.yul\":1846:1850   */\n      0x00\n        /* \"#utility.yul\":1884:1886   */\n      0x20\n        /* \"#utility.yul\":1873:1882   */\n      dup3\n        /* \"#utility.yul\":1869:1887   */\n      add\n        /* \"#utility.yul\":1861:1887   */\n      swap1\n      pop\n        /* \"#utility.yul\":1933:1942   */\n      dup2\n        /* \"#utility.yul\":1927:1931   */\n      dup2\n        /* \"#utility.yul\":1923:1943   */\n      sub\n        /* \"#utility.yul\":1919:1920   */\n      0x00\n        /* \"#utility.yul\":1908:1917   */\n      dup4\n        /* \"#utility.yul\":1904:1921   */\n      add\n        /* \"#utility.yul\":1897:1944   */\n      mstore\n        /* \"#utility.yul\":1961:2047   */\n      tag_107\n        /* \"#utility.yul\":2042:2046   */\n      dup2\n        /* \"#utility.yul\":2033:2039   */\n      dup5\n        /* \"#utility.yul\":1961:2047   */\n      tag_90\n      jump\t// in\n    tag_107:\n        /* \"#utility.yul\":1953:2047   */\n      swap1\n      pop\n        /* \"#utility.yul\":1725:2054   */\n      swap3\n      swap2\n      pop\n      pop\n      jump\t// out\n        /* \"#utility.yul\":2060:2479   */\n    tag_47:\n        /* \"#utility.yul\":2226:2230   */\n      0x00\n        /* \"#utility.yul\":2264:2266   */\n      0x20\n        /* \"#utility.yul\":2253:2262   */\n      dup3\n        /* \"#utility.yul\":2249:2267   */\n      add\n        /* \"#utility.yul\":2241:2267   */\n      swap1\n      pop\n        /* \"#utility.yul\":2313:2322   */\n      dup2\n        /* \"#utility.yul\":2307:2311   */\n      dup2\n        /* \"#utility.yul\":2303:2323   */\n      sub\n        /* \"#utility.yul\":2299:2300   */\n      0x00\n        /* \"#utility.yul\":2288:2297   */\n      dup4\n        /* \"#utility.yul\":2284:2301   */\n      add\n        /* \"#utility.yul\":2277:2324   */\n      mstore\n        /* \"#utility.yul\":2341:2472   */\n      tag_109\n        /* \"#utility.yul\":2467:2471   */\n      dup2\n        /* \"#utility.yul\":2341:2472   */\n      tag_100\n      jump\t// in\n    tag_109:\n        /* \"#utility.yul\":2333:2472   */\n      swap1\n      pop\n        /* \"#utility.yul\":2060:2479   */\n      swap2\n      swap1\n      pop\n      jump\t// out\n        /* \"#utility.yul\":2566:2665   */\n    tag_93:\n        /* \"#utility.yul\":2618:2624   */\n      0x00\n        /* \"#utility.yul\":2652:2657   */\n      dup2\n        /* \"#utility.yul\":2646:2658   */\n      mload\n        /* \"#utility.yul\":2636:2658   */\n      swap1\n      pop\n        /* \"#utility.yul\":2566:2665   */\n      swap2\n      swap1\n      pop\n      jump\t// out\n        /* \"#utility.yul\":2671:2840   */\n    tag_103:\n        /* \"#utility.yul\":2755:2766   */\n      0x00\n        /* \"#utility.yul\":2789:2795   */\n      dup3\n        /* \"#utility.yul\":2784:2787   */\n      dup3\n        /* \"#utility.yul\":2777:2796   */\n      mstore\n        /* \"#utility.yul\":2829:2833   */\n      0x20\n        /* \"#utility.yul\":2824:2827   */\n      dup3\n        /* \"#utility.yul\":2820:2834   */\n      add\n        /* \"#utility.yul\":2805:2834   */\n      swap1\n      pop\n        /* \"#utility.yul\":2671:2840   */\n      swap3\n      swap2\n      pop\n      pop\n      jump\t// out\n        /* \"#utility.yul\":2846:3023   */\n    tag_95:\n        /* \"#utility.yul\":2938:2949   */\n      0x00\n        /* \"#utility.yul\":2972:2978   */\n      dup3\n        /* \"#utility.yul\":2967:2970   */\n      dup3\n        /* \"#utility.yul\":2960:2979   */\n      mstore\n        /* \"#utility.yul\":3012:3016   */\n      0x20\n        /* \"#utility.yul\":3007:3010   */\n      dup3\n        /* \"#utility.yul\":3003:3017   */\n      add\n        /* \"#utility.yul\":2988:3017   */\n      swap1\n      pop\n        /* \"#utility.yul\":2846:3023   */\n      swap3\n      swap2\n      pop\n      pop\n      jump\t// out\n        /* \"#utility.yul\":3029:3334   */\n    tag_24:\n        /* \"#utility.yul\":3069:3072   */\n      0x00\n        /* \"#utility.yul\":3088:3108   */\n      tag_116\n        /* \"#utility.yul\":3106:3107   */\n      dup3\n        /* \"#utility.yul\":3088:3108   */\n      tag_117\n      jump\t// in\n    tag_116:\n        /* \"#utility.yul\":3083:3108   */\n      swap2\n      pop\n        /* \"#utility.yul\":3122:3142   */\n      tag_118\n        /* \"#utility.yul\":3140:3141   */\n      dup4\n        /* \"#utility.yul\":3122:3142   */\n      tag_117\n      jump\t// in\n    tag_118:\n        /* \"#utility.yul\":3117:3142   */\n      swap3\n      pop\n        /* \"#utility.yul\":3276:3277   */\n      dup3\n        /* \"#utility.yul\":3208:3274   */\n      0xffffffffffffffffffffffffffffffffffffffffffffffffffffffffffffffff\n        /* \"#utility.yul\":3204:3278   */\n      sub\n        /* \"#utility.yul\":3201:3202   */\n      dup3\n        /* \"#utility.yul\":3198:3279   */\n      gt\n        /* \"#utility.yul\":3195:3302   */\n      iszero\n      tag_119\n      jumpi\n        /* \"#utility.yul\":3282:3300   */\n      tag_120\n      tag_121\n      jump\t// in\n    tag_120:\n        /* \"#utility.yul\":3195:3302   */\n    tag_119:\n        /* \"#utility.yul\":3326:3327   */\n      dup3\n        /* \"#utility.yul\":3323:3324   */\n      dup3\n        /* \"#utility.yul\":3319:3328   */\n      add\n        /* \"#utility.yul\":3312:3328   */\n      swap1\n      pop\n        /* \"#utility.yul\":3029:3334   */\n      swap3\n      swap2\n      pop\n      pop\n      jump\t// out\n        /* \"#utility.yul\":3340:3525   */\n    tag_55:\n        /* \"#utility.yul\":3380:3381   */\n      0x00\n        /* \"#utility.yul\":3397:3417   */\n      tag_123\n        /* \"#utility.yul\":3415:3416   */\n      dup3\n        /* \"#utility.yul\":3397:3417   */\n      tag_117\n      jump\t// in\n    tag_123:\n        /* \"#utility.yul\":3392:3417   */\n      swap2\n      pop\n        /* \"#utility.yul\":3431:3451   */\n      tag_124\n        /* \"#utility.yul\":3449:3450   */\n      dup4\n        /* \"#utility.yul\":3431:3451   */\n      tag_117\n      jump\t// in\n    tag_124:\n        /* \"#utility.yul\":3426:3451   */\n      swap3\n      pop\n        /* \"#utility.yul\":3470:3471   */\n      dup3\n        /* \"#utility.yul\":3460:3495   */\n      tag_125\n      jumpi\n        /* \"#utility.yul\":3475:3493   */\n      tag_126\n      tag_127\n      jump\t// in\n    tag_126:\n        /* \"#utility.yul\":3460:3495   */\n    tag_125:\n        /* \"#utility.yul\":3517:3518   */\n      dup3\n        /* \"#utility.yul\":3514:3515   */\n      dup3\n        /* \"#utility.yul\":3510:3519   */\n      div\n        /* \"#utility.yul\":3505:3519   */\n      swap1\n      pop\n        /* \"#utility.yul\":3340:3525   */\n      swap3\n      swap2\n      pop\n      pop\n      jump\t// out\n        /* \"#utility.yul\":3531:3879   */\n    tag_22:\n        /* \"#utility.yul\":3571:3578   */\n      0x00\n        /* \"#utility.yul\":3594:3614   */\n      tag_129\n        /* \"#utility.yul\":3612:3613   */\n      dup3\n        /* \"#utility.yul\":3594:3614   */\n      tag_117\n      jump\t// in\n    tag_129:\n        /* \"#utility.yul\":3589:3614   */\n      swap2\n      pop\n        /* \"#utility.yul\":3628:3648   */\n      tag_130\n        /* \"#utility.yul\":3646:3647   */\n      dup4\n        /* \"#utility.yul\":3628:3648   */\n      tag_117\n      jump\t// in\n    tag_130:\n        /* \"#utility.yul\":3623:3648   */\n      swap3\n      pop\n        /* \"#utility.yul\":3816:3817   */\n      dup2\n        /* \"#utility.yul\":3748:3814   */\n      0xffffffffffffffffffffffffffffffffffffffffffffffffffffffffffffffff\n        /* \"#utility.yul\":3744:3818   */\n      div\n        /* \"#utility.yul\":3741:3742   */\n      dup4\n        /* \"#utility.yul\":3738:3819   */\n      gt\n        /* \"#utility.yul\":3733:3734   */\n      dup3\n        /* \"#utility.yul\":3726:3735   */\n      iszero\n        /* \"#utility.yul\":3719:3736   */\n      iszero\n        /* \"#utility.yul\":3715:3820   */\n      and\n        /* \"#utility.yul\":3712:3843   */\n      iszero\n      tag_131\n      jumpi\n        /* \"#utility.yul\":3823:3841   */\n      tag_132\n      tag_121\n      jump\t// in\n    tag_132:\n        /* \"#utility.yul\":3712:3843   */\n    tag_131:\n        /* \"#utility.yul\":3871:3872   */\n      dup3\n        /* \"#utility.yul\":3868:3869   */\n      dup3\n        /* \"#utility.yul\":3864:3873   */\n      mul\n        /* \"#utility.yul\":3853:3873   */\n      swap1\n      pop\n        /* \"#utility.yul\":3531:3879   */\n      swap3\n      swap2\n      pop\n      pop\n      jump\t// out\n        /* \"#utility.yul\":3885:4076   */\n    tag_62:\n        /* \"#utility.yul\":3925:3929   */\n      0x00\n        /* \"#utility.yul\":3945:3965   */\n      tag_134\n        /* \"#utility.yul\":3963:3964   */\n      dup3\n        /* \"#utility.yul\":3945:3965   */\n      tag_117\n      jump\t// in\n    tag_134:\n        /* \"#utility.yul\":3940:3965   */\n      swap2\n      pop\n        /* \"#utility.yul\":3979:3999   */\n      tag_135\n        /* \"#utility.yul\":3997:3998   */\n      dup4\n        /* \"#utility.yul\":3979:3999   */\n      tag_117\n      jump\t// in\n    tag_135:\n        /* \"#utility.yul\":3974:3999   */\n      swap3\n      pop\n        /* \"#utility.yul\":4018:4019   */\n      dup3\n        /* \"#utility.yul\":4015:4016   */\n      dup3\n        /* \"#utility.yul\":4012:4020   */\n      lt\n        /* \"#utility.yul\":4009:4043   */\n      iszero\n      tag_136\n      jumpi\n        /* \"#utility.yul\":4023:4041   */\n      tag_137\n      tag_121\n      jump\t// in\n    tag_137:\n        /* \"#utility.yul\":4009:4043   */\n    tag_136:\n        /* \"#utility.yul\":4068:4069   */\n      dup3\n        /* \"#utility.yul\":4065:4066   */\n      dup3\n        /* \"#utility.yul\":4061:4070   */\n      sub\n        /* \"#utility.yul\":4053:4070   */\n      swap1\n      pop\n        /* \"#utility.yul\":3885:4076   */\n      swap3\n      swap2\n      pop\n      pop\n      jump\t// out\n        /* \"#utility.yul\":4082:4159   */\n    tag_117:\n        /* \"#utility.yul\":4119:4126   */\n      0x00\n        /* \"#utility.yul\":4148:4153   */\n      dup2\n        /* \"#utility.yul\":4137:4153   */\n      swap1\n      pop\n        /* \"#utility.yul\":4082:4159   */\n      swap2\n      swap1\n      pop\n      jump\t// out\n        /* \"#utility.yul\":4165:4472   */\n    tag_97:\n        /* \"#utility.yul\":4233:4234   */\n      0x00\n        /* \"#utility.yul\":4243:4356   */\n    tag_140:\n        /* \"#utility.yul\":4257:4263   */\n      dup4\n        /* \"#utility.yul\":4254:4255   */\n      dup2\n        /* \"#utility.yul\":4251:4264   */\n      lt\n        /* \"#utility.yul\":4243:4356   */\n      iszero\n      tag_142\n      jumpi\n        /* \"#utility.yul\":4342:4343   */\n      dup1\n        /* \"#utility.yul\":4337:4340   */\n      dup3\n        /* \"#utility.yul\":4333:4344   */\n      add\n        /* \"#utility.yul\":4327:4345   */\n      mload\n        /* \"#utility.yul\":4323:4324   */\n      dup2\n        /* \"#utility.yul\":4318:4321   */\n      dup5\n        /* \"#utility.yul\":4314:4325   */\n      add\n        /* \"#utility.yul\":4307:4346   */\n      mstore\n        /* \"#utility.yul\":4279:4281   */\n      0x20\n        /* \"#utility.yul\":4276:4277   */\n      dup2\n        /* \"#utility.yul\":4272:4282   */\n      add\n        /* \"#utility.yul\":4267:4282   */\n      swap1\n      pop\n        /* \"#utility.yul\":4243:4356   */\n      jump(tag_140)\n    tag_142:\n        /* \"#utility.yul\":4374:4380   */\n      dup4\n        /* \"#utility.yul\":4371:4372   */\n      dup2\n        /* \"#utility.yul\":4368:4381   */\n      gt\n        /* \"#utility.yul\":4365:4466   */\n      iszero\n      tag_143\n      jumpi\n        /* \"#utility.yul\":4454:4455   */\n      0x00\n        /* \"#utility.yul\":4445:4451   */\n      dup5\n        /* \"#utility.yul\":4440:4443   */\n      dup5\n        /* \"#utility.yul\":4436:4452   */\n      add\n        /* \"#utility.yul\":4429:4456   */\n      mstore\n        /* \"#utility.yul\":4365:4466   */\n    tag_143:\n        /* \"#utility.yul\":4214:4472   */\n      pop\n        /* \"#utility.yul\":4165:4472   */\n      pop\n      pop\n      pop\n      jump\t// out\n        /* \"#utility.yul\":4478:4649   */\n    tag_44:\n        /* \"#utility.yul\":4517:4520   */\n      0x00\n        /* \"#utility.yul\":4540:4564   */\n      tag_145\n        /* \"#utility.yul\":4558:4563   */\n      dup3\n        /* \"#utility.yul\":4540:4564   */\n      tag_117\n      jump\t// in\n    tag_145:\n        /* \"#utility.yul\":4531:4564   */\n      swap2\n      pop\n        /* \"#utility.yul\":4586:4590   */\n      0x00\n        /* \"#utility.yul\":4579:4584   */\n      dup3\n        /* \"#utility.yul\":4576:4591   */\n      eq\n        /* \"#utility.yul\":4573:4614   */\n      iszero\n      tag_146\n      jumpi\n        /* \"#utility.yul\":4594:4612   */\n      tag_147\n      tag_121\n      jump\t// in\n    tag_147:\n        /* \"#utility.yul\":4573:4614   */\n    tag_146:\n        /* \"#utility.yul\":4641:4642   */\n      0x01\n        /* \"#utility.yul\":4634:4639   */\n      dup3\n        /* \"#utility.yul\":4630:4643   */\n      sub\n        /* \"#utility.yul\":4623:4643   */\n      swap1\n      pop\n        /* \"#utility.yul\":4478:4649   */\n      swap2\n      swap1\n      pop\n      jump\t// out\n        /* \"#utility.yul\":4655:4888   */\n    tag_53:\n        /* \"#utility.yul\":4694:4697   */\n      0x00\n        /* \"#utility.yul\":4717:4741   */\n      tag_149\n        /* \"#utility.yul\":4735:4740   */\n      dup3\n        /* \"#utility.yul\":4717:4741   */\n      tag_117\n      jump\t// in\n    tag_149:\n        /* \"#utility.yul\":4708:4741   */\n      swap2\n      pop\n        /* \"#utility.yul\":4763:4829   */\n      0xffffffffffffffffffffffffffffffffffffffffffffffffffffffffffffffff\n        /* \"#utility.yul\":4756:4761   */\n      dup3\n        /* \"#utility.yul\":4753:4830   */\n      eq\n        /* \"#utility.yul\":4750:4853   */\n      iszero\n      tag_150\n      jumpi\n        /* \"#utility.yul\":4833:4851   */\n      tag_151\n      tag_121\n      jump\t// in\n    tag_151:\n        /* \"#utility.yul\":4750:4853   */\n    tag_150:\n        /* \"#utility.yul\":4880:4881   */\n      0x01\n        /* \"#utility.yul\":4873:4878   */\n      dup3\n        /* \"#utility.yul\":4869:4882   */\n      add\n        /* \"#utility.yul\":4862:4882   */\n      swap1\n      pop\n        /* \"#utility.yul\":4655:4888   */\n      swap2\n      swap1\n      pop\n      jump\t// out\n        /* \"#utility.yul\":4894:5070   */\n    tag_64:\n        /* \"#utility.yul\":4926:4927   */\n      0x00\n        /* \"#utility.yul\":4943:4963   */\n      tag_153\n        /* \"#utility.yul\":4961:4962   */\n      dup3\n        /* \"#utility.yul\":4943:4963   */\n      tag_117\n      jump\t// in\n    tag_153:\n        /* \"#utility.yul\":4938:4963   */\n      swap2\n      pop\n        /* \"#utility.yul\":4977:4997   */\n      tag_154\n        /* \"#utility.yul\":4995:4996   */\n      dup4\n        /* \"#utility.yul\":4977:4997   */\n      tag_117\n      jump\t// in\n    tag_154:\n        /* \"#utility.yul\":4972:4997   */\n      swap3\n      pop\n        /* \"#utility.yul\":5016:5017   */\n      dup3\n        /* \"#utility.yul\":5006:5041   */\n      tag_155\n      jumpi\n        /* \"#utility.yul\":5021:5039   */\n      tag_156\n      tag_127\n      jump\t// in\n    tag_156:\n        /* \"#utility.yul\":5006:5041   */\n    tag_155:\n        /* \"#utility.yul\":5062:5063   */\n      dup3\n        /* \"#utility.yul\":5059:5060   */\n      dup3\n        /* \"#utility.yul\":5055:5064   */\n      mod\n        /* \"#utility.yul\":5050:5064   */\n      swap1\n      pop\n        /* \"#utility.yul\":4894:5070   */\n      swap3\n      swap2\n      pop\n      pop\n      jump\t// out\n        /* \"#utility.yul\":5076:5256   */\n    tag_121:\n        /* \"#utility.yul\":5124:5201   */\n      0x4e487b7100000000000000000000000000000000000000000000000000000000\n        /* \"#utility.yul\":5121:5122   */\n      0x00\n        /* \"#utility.yul\":5114:5202   */\n      mstore\n        /* \"#utility.yul\":5221:5225   */\n      0x11\n        /* \"#utility.yul\":5218:5219   */\n      0x04\n        /* \"#utility.yul\":5211:5226   */\n      mstore\n        /* \"#utility.yul\":5245:5249   */\n      0x24\n        /* \"#utility.yul\":5242:5243   */\n      0x00\n        /* \"#utility.yul\":5235:5250   */\n      revert\n        /* \"#utility.yul\":5262:5442   */\n    tag_127:\n        /* \"#utility.yul\":5310:5387   */\n      0x4e487b7100000000000000000000000000000000000000000000000000000000\n        /* \"#utility.yul\":5307:5308   */\n      0x00\n        /* \"#utility.yul\":5300:5388   */\n      mstore\n        /* \"#utility.yul\":5407:5411   */\n      0x12\n        /* \"#utility.yul\":5404:5405   */\n      0x04\n        /* \"#utility.yul\":5397:5412   */\n      mstore\n        /* \"#utility.yul\":5431:5435   */\n      0x24\n        /* \"#utility.yul\":5428:5429   */\n      0x00\n        /* \"#utility.yul\":5421:5436   */\n      revert\n        /* \"#utility.yul\":5448:5628   */\n    tag_31:\n        /* \"#utility.yul\":5496:5573   */\n      0x4e487b7100000000000000000000000000000000000000000000000000000000\n        /* \"#utility.yul\":5493:5494   */\n      0x00\n        /* \"#utility.yul\":5486:5574   */\n      mstore\n        /* \"#utility.yul\":5593:5597   */\n      0x32\n        /* \"#utility.yul\":5590:5591   */\n      0x04\n        /* \"#utility.yul\":5583:5598   */\n      mstore\n        /* \"#utility.yul\":5617:5621   */\n      0x24\n        /* \"#utility.yul\":5614:5615   */\n      0x00\n        /* \"#utility.yul\":5607:5622   */\n      revert\n        /* \"#utility.yul\":5634:5814   */\n    tag_27:\n        /* \"#utility.yul\":5682:5759   */\n      0x4e487b7100000000000000000000000000000000000000000000000000000000\n        /* \"#utility.yul\":5679:5680   */\n      0x00\n        /* \"#utility.yul\":5672:5760   */\n      mstore\n        /* \"#utility.yul\":5779:5783   */\n      0x41\n        /* \"#utility.yul\":5776:5777   */\n      0x04\n        /* \"#utility.yul\":5769:5784   */\n      mstore\n        /* \"#utility.yul\":5803:5807   */\n      0x24\n        /* \"#utility.yul\":5800:5801   */\n      0x00\n        /* \"#utility.yul\":5793:5808   */\n      revert\n        /* \"#utility.yul\":5943:6060   */\n    tag_83:\n        /* \"#utility.yul\":6052:6053   */\n      0x00\n        /* \"#utility.yul\":6049:6050   */\n      dup1\n        /* \"#utility.yul\":6042:6054   */\n      revert\n        /* \"#utility.yul\":6066:6168   */\n    tag_99:\n        /* \"#utility.yul\":6107:6113   */\n      0x00\n        /* \"#utility.yul\":6158:6160   */\n      0x1f\n        /* \"#utility.yul\":6154:6161   */\n      not\n        /* \"#utility.yul\":6149:6151   */\n      0x1f\n        /* \"#utility.yul\":6142:6147   */\n      dup4\n        /* \"#utility.yul\":6138:6152   */\n      add\n        /* \"#utility.yul\":6134:6162   */\n      and\n        /* \"#utility.yul\":6124:6162   */\n      swap1\n      pop\n        /* \"#utility.yul\":6066:6168   */\n      swap2\n      swap1\n      pop\n      jump\t// out\n        /* \"#utility.yul\":6174:6356   */\n    tag_105:\n        /* \"#utility.yul\":6314:6348   */\n      0x537472696e67733a20686578206c656e67746820696e73756666696369656e74\n        /* \"#utility.yul\":6310:6311   */\n      0x00\n        /* \"#utility.yul\":6302:6308   */\n      dup3\n        /* \"#utility.yul\":6298:6312   */\n      add\n        /* \"#utility.yul\":6291:6349   */\n      mstore\n        /* \"#utility.yul\":6174:6356   */\n      pop\n      jump\t// out\n        /* \"#utility.yul\":6362:6484   */\n    tag_79:\n        /* \"#utility.yul\":6435:6459   */\n      tag_167\n        /* \"#utility.yul\":6453:6458   */\n      dup2\n        /* \"#utility.yul\":6435:6459   */\n      tag_117\n      jump\t// in\n    tag_167:\n        /* \"#utility.yul\":6428:6433   */\n      dup2\n        /* \"#utility.yul\":6425:6460   */\n      eq\n        /* \"#utility.yul\":6415:6478   */\n      tag_168\n      jumpi\n        /* \"#utility.yul\":6474:6475   */\n      0x00\n        /* \"#utility.yul\":6471:6472   */\n      dup1\n        /* \"#utility.yul\":6464:6476   */\n      revert\n        /* \"#utility.yul\":6415:6478   */\n    tag_168:\n        /* \"#utility.yul\":6362:6484   */\n      pop\n      jump\t// out\n\n    auxdata: 0xa2646970667358221220789452f77a3de456ee54a3030fedbf02f76f3631cfe29e9d65ef8c2908287dba64736f6c63430008070033\n}\n",
				"bytecode": {
					"linkReferences": {},
					"object": "61098e610053600b82828239805160001a607314610046577f4e487b7100000000000000000000000000000000000000000000000000000000600052600060045260246000fd5b30600052607381538281f3fe730000000000000000000000000000000000000000301460806040526004361061004b5760003560e01c806363e1cbea146100505780636900a3ae146100805780638fba8d5c146100b0575b600080fd5b61006a60048036038101906100659190610545565b6100e0565b60405161007791906105e1565b60405180910390f35b61009a60048036038101906100959190610518565b61031c565b6040516100a791906105e1565b60405180910390f35b6100ca60048036038101906100c59190610518565b61047d565b6040516100d791906105e1565b60405180910390f35b6060600060028360026100f391906106d7565b6100fd9190610650565b67ffffffffffffffff811115610116576101156108d3565b5b6040519080825280601f01601f1916602001820160405280156101485781602001600182028036833780820191505090505b5090507f3000000000000000000000000000000000000000000000000000000000000000816000815181106101805761017f6108a4565b5b60200101907effffffffffffffffffffffffffffffffffffffffffffffffffffffffffffff1916908160001a9053507f7800000000000000000000000000000000000000000000000000000000000000816001815181106101e4576101e36108a4565b5b60200101907effffffffffffffffffffffffffffffffffffffffffffffffffffffffffffff1916908160001a9053506000600184600261022491906106d7565b61022e9190610650565b90505b60018111156102ce577f3031323334353637383961626364656600000000000000000000000000000000600f8616601081106102705761026f6108a4565b5b1a60f81b828281518110610287576102866108a4565b5b60200101907effffffffffffffffffffffffffffffffffffffffffffffffffffffffffffff1916908160001a905350600485901c9450806102c7906107a2565b9050610231565b5060008414610312576040517f08c379a000000000000000000000000000000000000000000000000000000000815260040161030990610603565b60405180910390fd5b8091505092915050565b60606000821415610364576040518060400160405280600181526020017f30000000000000000000000000000000000000000000000000000000000000008152509050610478565b600082905060005b6000821461039657808061037f906107cc565b915050600a8261038f91906106a6565b915061036c565b60008167ffffffffffffffff8111156103b2576103b16108d3565b5b6040519080825280601f01601f1916602001820160405280156103e45781602001600182028036833780820191505090505b5090505b60008514610471576001826103fd9190610731565b9150600a8561040c9190610815565b60306104189190610650565b60f81b81838151811061042e5761042d6108a4565b5b60200101907effffffffffffffffffffffffffffffffffffffffffffffffffffffffffffff1916908160001a905350600a8561046a91906106a6565b94506103e8565b8093505050505b919050565b606060008214156104c5576040518060400160405280600481526020017f307830300000000000000000000000000000000000000000000000000000000081525090506104fe565b600082905060005b600082146104ef5780806104e0906107cc565b915050600882901c91506104cd565b6104f984826100e0565b925050505b919050565b60008135905061051281610941565b92915050565b60006020828403121561052e5761052d610902565b5b600061053c84828501610503565b91505092915050565b6000806040838503121561055c5761055b610902565b5b600061056a85828601610503565b925050602061057b85828601610503565b9150509250929050565b600061059082610623565b61059a818561063f565b93506105aa81856020860161076f565b6105b381610907565b840191505092915050565b60006105cb60208361062e565b91506105d682610918565b602082019050919050565b600060208201905081810360008301526105fb8184610585565b905092915050565b6000602082019050818103600083015261061c816105be565b9050919050565b600081519050919050565b600082825260208201905092915050565b600082825260208201905092915050565b600061065b82610765565b915061066683610765565b9250827fffffffffffffffffffffffffffffffffffffffffffffffffffffffffffffffff0382111561069b5761069a610846565b5b828201905092915050565b60006106b182610765565b91506106bc83610765565b9250826106cc576106cb610875565b5b828204905092915050565b60006106e282610765565b91506106ed83610765565b9250817fffffffffffffffffffffffffffffffffffffffffffffffffffffffffffffffff048311821515161561072657610725610846565b5b828202905092915050565b600061073c82610765565b915061074783610765565b92508282101561075a57610759610846565b5b828203905092915050565b6000819050919050565b60005b8381101561078d578082015181840152602081019050610772565b8381111561079c576000848401525b50505050565b60006107ad82610765565b915060008214156107c1576107c0610846565b5b600182039050919050565b60006107d782610765565b91507fffffffffffffffffffffffffffffffffffffffffffffffffffffffffffffffff82141561080a57610809610846565b5b600182019050919050565b600061082082610765565b915061082b83610765565b92508261083b5761083a610875565b5b828206905092915050565b7f4e487b7100000000000000000000000000000000000000000000000000000000600052601160045260246000fd5b7f4e487b7100000000000000000000000000000000000000000000000000000000600052601260045260246000fd5b7f4e487b7100000000000000000000000000000000000000000000000000000000600052603260045260246000fd5b7f4e487b7100000000000000000000000000000000000000000000000000000000600052604160045260246000fd5b600080fd5b6000601f19601f8301169050919050565b7f537472696e67733a20686578206c656e67746820696e73756666696369656e74600082015250565b61094a81610765565b811461095557600080fd5b5056fea2646970667358221220789452f77a3de456ee54a3030fedbf02f76f3631cfe29e9d65ef8c2908287dba64736f6c63430008070033",
					"opcodes": "PUSH2 0x98E PUSH2 0x53 PUSH1 0xB DUP3 DUP3 DUP3 CODECOPY DUP1 MLOAD PUSH1 0x0 BYTE PUSH1 0x73 EQ PUSH2 0x46 JUMPI PUSH32 0x4E487B7100000000000000000000000000000000000000000000000000000000 PUSH1 0x0 MSTORE PUSH1 0x0 PUSH1 0x4 MSTORE PUSH1 0x24 PUSH1 0x0 REVERT JUMPDEST ADDRESS PUSH1 0x0 MSTORE PUSH1 0x73 DUP2 MSTORE8 DUP3 DUP2 RETURN INVALID PUSH20 0x0 ADDRESS EQ PUSH1 0x80 PUSH1 0x40 MSTORE PUSH1 0x4 CALLDATASIZE LT PUSH2 0x4B JUMPI PUSH1 0x0 CALLDATALOAD PUSH1 0xE0 SHR DUP1 PUSH4 0x63E1CBEA EQ PUSH2 0x50 JUMPI DUP1 PUSH4 0x6900A3AE EQ PUSH2 0x80 JUMPI DUP1 PUSH4 0x8FBA8D5C EQ PUSH2 0xB0 JUMPI JUMPDEST PUSH1 0x0 DUP1 REVERT JUMPDEST PUSH2 0x6A PUSH1 0x4 DUP1 CALLDATASIZE SUB DUP2 ADD SWAP1 PUSH2 0x65 SWAP2 SWAP1 PUSH2 0x545 JUMP JUMPDEST PUSH2 0xE0 JUMP JUMPDEST PUSH1 0x40 MLOAD PUSH2 0x77 SWAP2 SWAP1 PUSH2 0x5E1 JUMP JUMPDEST PUSH1 0x40 MLOAD DUP1 SWAP2 SUB SWAP1 RETURN JUMPDEST PUSH2 0x9A PUSH1 0x4 DUP1 CALLDATASIZE SUB DUP2 ADD SWAP1 PUSH2 0x95 SWAP2 SWAP1 PUSH2 0x518 JUMP JUMPDEST PUSH2 0x31C JUMP JUMPDEST PUSH1 0x40 MLOAD PUSH2 0xA7 SWAP2 SWAP1 PUSH2 0x5E1 JUMP JUMPDEST PUSH1 0x40 MLOAD DUP1 SWAP2 SUB SWAP1 RETURN JUMPDEST PUSH2 0xCA PUSH1 0x4 DUP1 CALLDATASIZE SUB DUP2 ADD SWAP1 PUSH2 0xC5 SWAP2 SWAP1 PUSH2 0x518 JUMP JUMPDEST PUSH2 0x47D JUMP JUMPDEST PUSH1 0x40 MLOAD PUSH2 0xD7 SWAP2 SWAP1 PUSH2 0x5E1 JUMP JUMPDEST PUSH1 0x40 MLOAD DUP1 SWAP2 SUB SWAP1 RETURN JUMPDEST PUSH1 0x60 PUSH1 0x0 PUSH1 0x2 DUP4 PUSH1 0x2 PUSH2 0xF3 SWAP2 SWAP1 PUSH2 0x6D7 JUMP JUMPDEST PUSH2 0xFD SWAP2 SWAP1 PUSH2 0x650 JUMP JUMPDEST PUSH8 0xFFFFFFFFFFFFFFFF DUP2 GT ISZERO PUSH2 0x116 JUMPI PUSH2 0x115 PUSH2 0x8D3 JUMP JUMPDEST JUMPDEST PUSH1 0x40 MLOAD SWAP1 DUP1 DUP3 MSTORE DUP1 PUSH1 0x1F ADD PUSH1 0x1F NOT AND PUSH1 0x20 ADD DUP3 ADD PUSH1 0x40 MSTORE DUP1 ISZERO PUSH2 0x148 JUMPI DUP2 PUSH1 0x20 ADD PUSH1 0x1 DUP3 MUL DUP1 CALLDATASIZE DUP4 CALLDATACOPY DUP1 DUP3 ADD SWAP2 POP POP SWAP1 POP JUMPDEST POP SWAP1 POP PUSH32 0x3000000000000000000000000000000000000000000000000000000000000000 DUP2 PUSH1 0x0 DUP2 MLOAD DUP2 LT PUSH2 0x180 JUMPI PUSH2 0x17F PUSH2 0x8A4 JUMP JUMPDEST JUMPDEST PUSH1 0x20 ADD ADD SWAP1 PUSH31 0xFFFFFFFFFFFFFFFFFFFFFFFFFFFFFFFFFFFFFFFFFFFFFFFFFFFFFFFFFFFFFF NOT AND SWAP1 DUP2 PUSH1 0x0 BYTE SWAP1 MSTORE8 POP PUSH32 0x7800000000000000000000000000000000000000000000000000000000000000 DUP2 PUSH1 0x1 DUP2 MLOAD DUP2 LT PUSH2 0x1E4 JUMPI PUSH2 0x1E3 PUSH2 0x8A4 JUMP JUMPDEST JUMPDEST PUSH1 0x20 ADD ADD SWAP1 PUSH31 0xFFFFFFFFFFFFFFFFFFFFFFFFFFFFFFFFFFFFFFFFFFFFFFFFFFFFFFFFFFFFFF NOT AND SWAP1 DUP2 PUSH1 0x0 BYTE SWAP1 MSTORE8 POP PUSH1 0x0 PUSH1 0x1 DUP5 PUSH1 0x2 PUSH2 0x224 SWAP2 SWAP1 PUSH2 0x6D7 JUMP JUMPDEST PUSH2 0x22E SWAP2 SWAP1 PUSH2 0x650 JUMP JUMPDEST SWAP1 POP JUMPDEST PUSH1 0x1 DUP2 GT ISZERO PUSH2 0x2CE JUMPI PUSH32 0x3031323334353637383961626364656600000000000000000000000000000000 PUSH1 0xF DUP7 AND PUSH1 0x10 DUP2 LT PUSH2 0x270 JUMPI PUSH2 0x26F PUSH2 0x8A4 JUMP JUMPDEST JUMPDEST BYTE PUSH1 0xF8 SHL DUP3 DUP3 DUP2 MLOAD DUP2 LT PUSH2 0x287 JUMPI PUSH2 0x286 PUSH2 0x8A4 JUMP JUMPDEST JUMPDEST PUSH1 0x20 ADD ADD SWAP1 PUSH31 0xFFFFFFFFFFFFFFFFFFFFFFFFFFFFFFFFFFFFFFFFFFFFFFFFFFFFFFFFFFFFFF NOT AND SWAP1 DUP2 PUSH1 0x0 BYTE SWAP1 MSTORE8 POP PUSH1 0x4 DUP6 SWAP1 SHR SWAP5 POP DUP1 PUSH2 0x2C7 SWAP1 PUSH2 0x7A2 JUMP JUMPDEST SWAP1 POP PUSH2 0x231 JUMP JUMPDEST POP PUSH1 0x0 DUP5 EQ PUSH2 0x312 JUMPI PUSH1 0x40 MLOAD PUSH32 0x8C379A000000000000000000000000000000000000000000000000000000000 DUP2 MSTORE PUSH1 0x4 ADD PUSH2 0x309 SWAP1 PUSH2 0x603 JUMP JUMPDEST PUSH1 0x40 MLOAD DUP1 SWAP2 SUB SWAP1 REVERT JUMPDEST DUP1 SWAP2 POP POP SWAP3 SWAP2 POP POP JUMP JUMPDEST PUSH1 0x60 PUSH1 0x0 DUP3 EQ ISZERO PUSH2 0x364 JUMPI PUSH1 0x40 MLOAD DUP1 PUSH1 0x40 ADD PUSH1 0x40 MSTORE DUP1 PUSH1 0x1 DUP2 MSTORE PUSH1 0x20 ADD PUSH32 0x3000000000000000000000000000000000000000000000000000000000000000 DUP2 MSTORE POP SWAP1 POP PUSH2 0x478 JUMP JUMPDEST PUSH1 0x0 DUP3 SWAP1 POP PUSH1 0x0 JUMPDEST PUSH1 0x0 DUP3 EQ PUSH2 0x396 JUMPI DUP1 DUP1 PUSH2 0x37F SWAP1 PUSH2 0x7CC JUMP JUMPDEST SWAP2 POP POP PUSH1 0xA DUP3 PUSH2 0x38F SWAP2 SWAP1 PUSH2 0x6A6 JUMP JUMPDEST SWAP2 POP PUSH2 0x36C JUMP JUMPDEST PUSH1 0x0 DUP2 PUSH8 0xFFFFFFFFFFFFFFFF DUP2 GT ISZERO PUSH2 0x3B2 JUMPI PUSH2 0x3B1 PUSH2 0x8D3 JUMP JUMPDEST JUMPDEST PUSH1 0x40 MLOAD SWAP1 DUP1 DUP3 MSTORE DUP1 PUSH1 0x1F ADD PUSH1 0x1F NOT AND PUSH1 0x20 ADD DUP3 ADD PUSH1 0x40 MSTORE DUP1 ISZERO PUSH2 0x3E4 JUMPI DUP2 PUSH1 0x20 ADD PUSH1 0x1 DUP3 MUL DUP1 CALLDATASIZE DUP4 CALLDATACOPY DUP1 DUP3 ADD SWAP2 POP POP SWAP1 POP JUMPDEST POP SWAP1 POP JUMPDEST PUSH1 0x0 DUP6 EQ PUSH2 0x471 JUMPI PUSH1 0x1 DUP3 PUSH2 0x3FD SWAP2 SWAP1 PUSH2 0x731 JUMP JUMPDEST SWAP2 POP PUSH1 0xA DUP6 PUSH2 0x40C SWAP2 SWAP1 PUSH2 0x815 JUMP JUMPDEST PUSH1 0x30 PUSH2 0x418 SWAP2 SWAP1 PUSH2 0x650 JUMP JUMPDEST PUSH1 0xF8 SHL DUP2 DUP4 DUP2 MLOAD DUP2 LT PUSH2 0x42E JUMPI PUSH2 0x42D PUSH2 0x8A4 JUMP JUMPDEST JUMPDEST PUSH1 0x20 ADD ADD SWAP1 PUSH31 0xFFFFFFFFFFFFFFFFFFFFFFFFFFFFFFFFFFFFFFFFFFFFFFFFFFFFFFFFFFFFFF NOT AND SWAP1 DUP2 PUSH1 0x0 BYTE SWAP1 MSTORE8 POP PUSH1 0xA DUP6 PUSH2 0x46A SWAP2 SWAP1 PUSH2 0x6A6 JUMP JUMPDEST SWAP5 POP PUSH2 0x3E8 JUMP JUMPDEST DUP1 SWAP4 POP POP POP POP JUMPDEST SWAP2 SWAP1 POP JUMP JUMPDEST PUSH1 0x60 PUSH1 0x0 DUP3 EQ ISZERO PUSH2 0x4C5 JUMPI PUSH1 0x40 MLOAD DUP1 PUSH1 0x40 ADD PUSH1 0x40 MSTORE DUP1 PUSH1 0x4 DUP2 MSTORE PUSH1 0x20 ADD PUSH32 0x3078303000000000000000000000000000000000000000000000000000000000 DUP2 MSTORE POP SWAP1 POP PUSH2 0x4FE JUMP JUMPDEST PUSH1 0x0 DUP3 SWAP1 POP PUSH1 0x0 JUMPDEST PUSH1 0x0 DUP3 EQ PUSH2 0x4EF JUMPI DUP1 DUP1 PUSH2 0x4E0 SWAP1 PUSH2 0x7CC JUMP JUMPDEST SWAP2 POP POP PUSH1 0x8 DUP3 SWAP1 SHR SWAP2 POP PUSH2 0x4CD JUMP JUMPDEST PUSH2 0x4F9 DUP5 DUP3 PUSH2 0xE0 JUMP JUMPDEST SWAP3 POP POP POP JUMPDEST SWAP2 SWAP1 POP JUMP JUMPDEST PUSH1 0x0 DUP2 CALLDATALOAD SWAP1 POP PUSH2 0x512 DUP2 PUSH2 0x941 JUMP JUMPDEST SWAP3 SWAP2 POP POP JUMP JUMPDEST PUSH1 0x0 PUSH1 0x20 DUP3 DUP5 SUB SLT ISZERO PUSH2 0x52E JUMPI PUSH2 0x52D PUSH2 0x902 JUMP JUMPDEST JUMPDEST PUSH1 0x0 PUSH2 0x53C DUP5 DUP3 DUP6 ADD PUSH2 0x503 JUMP JUMPDEST SWAP2 POP POP SWAP3 SWAP2 POP POP JUMP JUMPDEST PUSH1 0x0 DUP1 PUSH1 0x40 DUP4 DUP6 SUB SLT ISZERO PUSH2 0x55C JUMPI PUSH2 0x55B PUSH2 0x902 JUMP JUMPDEST JUMPDEST PUSH1 0x0 PUSH2 0x56A DUP6 DUP3 DUP7 ADD PUSH2 0x503 JUMP JUMPDEST SWAP3 POP POP PUSH1 0x20 PUSH2 0x57B DUP6 DUP3 DUP7 ADD PUSH2 0x503 JUMP JUMPDEST SWAP2 POP POP SWAP3 POP SWAP3 SWAP1 POP JUMP JUMPDEST PUSH1 0x0 PUSH2 0x590 DUP3 PUSH2 0x623 JUMP JUMPDEST PUSH2 0x59A DUP2 DUP6 PUSH2 0x63F JUMP JUMPDEST SWAP4 POP PUSH2 0x5AA DUP2 DUP6 PUSH1 0x20 DUP7 ADD PUSH2 0x76F JUMP JUMPDEST PUSH2 0x5B3 DUP2 PUSH2 0x907 JUMP JUMPDEST DUP5 ADD SWAP2 POP POP SWAP3 SWAP2 POP POP JUMP JUMPDEST PUSH1 0x0 PUSH2 0x5CB PUSH1 0x20 DUP4 PUSH2 0x62E JUMP JUMPDEST SWAP2 POP PUSH2 0x5D6 DUP3 PUSH2 0x918 JUMP JUMPDEST PUSH1 0x20 DUP3 ADD SWAP1 POP SWAP2 SWAP1 POP JUMP JUMPDEST PUSH1 0x0 PUSH1 0x20 DUP3 ADD SWAP1 POP DUP2 DUP2 SUB PUSH1 0x0 DUP4 ADD MSTORE PUSH2 0x5FB DUP2 DUP5 PUSH2 0x585 JUMP JUMPDEST SWAP1 POP SWAP3 SWAP2 POP POP JUMP JUMPDEST PUSH1 0x0 PUSH1 0x20 DUP3 ADD SWAP1 POP DUP2 DUP2 SUB PUSH1 0x0 DUP4 ADD MSTORE PUSH2 0x61C DUP2 PUSH2 0x5BE JUMP JUMPDEST SWAP1 POP SWAP2 SWAP1 POP JUMP JUMPDEST PUSH1 0x0 DUP2 MLOAD SWAP1 POP SWAP2 SWAP1 POP JUMP JUMPDEST PUSH1 0x0 DUP3 DUP3 MSTORE PUSH1 0x20 DUP3 ADD SWAP1 POP SWAP3 SWAP2 POP POP JUMP JUMPDEST PUSH1 0x0 DUP3 DUP3 MSTORE PUSH1 0x20 DUP3 ADD SWAP1 POP SWAP3 SWAP2 POP POP JUMP JUMPDEST PUSH1 0x0 PUSH2 0x65B DUP3 PUSH2 0x765 JUMP JUMPDEST SWAP2 POP PUSH2 0x666 DUP4 PUSH2 0x765 JUMP JUMPDEST SWAP3 POP DUP3 PUSH32 0xFFFFFFFFFFFFFFFFFFFFFFFFFFFFFFFFFFFFFFFFFFFFFFFFFFFFFFFFFFFFFFFF SUB DUP3 GT ISZERO PUSH2 0x69B JUMPI PUSH2 0x69A PUSH2 0x846 JUMP JUMPDEST JUMPDEST DUP3 DUP3 ADD SWAP1 POP SWAP3 SWAP2 POP POP JUMP JUMPDEST PUSH1 0x0 PUSH2 0x6B1 DUP3 PUSH2 0x765 JUMP JUMPDEST SWAP2 POP PUSH2 0x6BC DUP4 PUSH2 0x765 JUMP JUMPDEST SWAP3 POP DUP3 PUSH2 0x6CC JUMPI PUSH2 0x6CB PUSH2 0x875 JUMP JUMPDEST JUMPDEST DUP3 DUP3 DIV SWAP1 POP SWAP3 SWAP2 POP POP JUMP JUMPDEST PUSH1 0x0 PUSH2 0x6E2 DUP3 PUSH2 0x765 JUMP JUMPDEST SWAP2 POP PUSH2 0x6ED DUP4 PUSH2 0x765 JUMP JUMPDEST SWAP3 POP DUP2 PUSH32 0xFFFFFFFFFFFFFFFFFFFFFFFFFFFFFFFFFFFFFFFFFFFFFFFFFFFFFFFFFFFFFFFF DIV DUP4 GT DUP3 ISZERO ISZERO AND ISZERO PUSH2 0x726 JUMPI PUSH2 0x725 PUSH2 0x846 JUMP JUMPDEST JUMPDEST DUP3 DUP3 MUL SWAP1 POP SWAP3 SWAP2 POP POP JUMP JUMPDEST PUSH1 0x0 PUSH2 0x73C DUP3 PUSH2 0x765 JUMP JUMPDEST SWAP2 POP PUSH2 0x747 DUP4 PUSH2 0x765 JUMP JUMPDEST SWAP3 POP DUP3 DUP3 LT ISZERO PUSH2 0x75A JUMPI PUSH2 0x759 PUSH2 0x846 JUMP JUMPDEST JUMPDEST DUP3 DUP3 SUB SWAP1 POP SWAP3 SWAP2 POP POP JUMP JUMPDEST PUSH1 0x0 DUP2 SWAP1 POP SWAP2 SWAP1 POP JUMP JUMPDEST PUSH1 0x0 JUMPDEST DUP4 DUP2 LT ISZERO PUSH2 0x78D JUMPI DUP1 DUP3 ADD MLOAD DUP2 DUP5 ADD MSTORE PUSH1 0x20 DUP2 ADD SWAP1 POP PUSH2 0x772 JUMP JUMPDEST DUP4 DUP2 GT ISZERO PUSH2 0x79C JUMPI PUSH1 0x0 DUP5 DUP5 ADD MSTORE JUMPDEST POP POP POP POP JUMP JUMPDEST PUSH1 0x0 PUSH2 0x7AD DUP3 PUSH2 0x765 JUMP JUMPDEST SWAP2 POP PUSH1 0x0 DUP3 EQ ISZERO PUSH2 0x7C1 JUMPI PUSH2 0x7C0 PUSH2 0x846 JUMP JUMPDEST JUMPDEST PUSH1 0x1 DUP3 SUB SWAP1 POP SWAP2 SWAP1 POP JUMP JUMPDEST PUSH1 0x0 PUSH2 0x7D7 DUP3 PUSH2 0x765 JUMP JUMPDEST SWAP2 POP PUSH32 0xFFFFFFFFFFFFFFFFFFFFFFFFFFFFFFFFFFFFFFFFFFFFFFFFFFFFFFFFFFFFFFFF DUP3 EQ ISZERO PUSH2 0x80A JUMPI PUSH2 0x809 PUSH2 0x846 JUMP JUMPDEST JUMPDEST PUSH1 0x1 DUP3 ADD SWAP1 POP SWAP2 SWAP1 POP JUMP JUMPDEST PUSH1 0x0 PUSH2 0x820 DUP3 PUSH2 0x765 JUMP JUMPDEST SWAP2 POP PUSH2 0x82B DUP4 PUSH2 0x765 JUMP JUMPDEST SWAP3 POP DUP3 PUSH2 0x83B JUMPI PUSH2 0x83A PUSH2 0x875 JUMP JUMPDEST JUMPDEST DUP3 DUP3 MOD SWAP1 POP SWAP3 SWAP2 POP POP JUMP JUMPDEST PUSH32 0x4E487B7100000000000000000000000000000000000000000000000000000000 PUSH1 0x0 MSTORE PUSH1 0x11 PUSH1 0x4 MSTORE PUSH1 0x24 PUSH1 0x0 REVERT JUMPDEST PUSH32 0x4E487B7100000000000000000000000000000000000000000000000000000000 PUSH1 0x0 MSTORE PUSH1 0x12 PUSH1 0x4 MSTORE PUSH1 0x24 PUSH1 0x0 REVERT JUMPDEST PUSH32 0x4E487B7100000000000000000000000000000000000000000000000000000000 PUSH1 0x0 MSTORE PUSH1 0x32 PUSH1 0x4 MSTORE PUSH1 0x24 PUSH1 0x0 REVERT JUMPDEST PUSH32 0x4E487B7100000000000000000000000000000000000000000000000000000000 PUSH1 0x0 MSTORE PUSH1 0x41 PUSH1 0x4 MSTORE PUSH1 0x24 PUSH1 0x0 REVERT JUMPDEST PUSH1 0x0 DUP1 REVERT JUMPDEST PUSH1 0x0 PUSH1 0x1F NOT PUSH1 0x1F DUP4 ADD AND SWAP1 POP SWAP2 SWAP1 POP JUMP JUMPDEST PUSH32 0x537472696E67733A20686578206C656E67746820696E73756666696369656E74 PUSH1 0x0 DUP3 ADD MSTORE POP JUMP JUMPDEST PUSH2 0x94A DUP2 PUSH2 0x765 JUMP JUMPDEST DUP2 EQ PUSH2 0x955 JUMPI PUSH1 0x0 DUP1 REVERT JUMPDEST POP JUMP INVALID LOG2 PUSH5 0x6970667358 0x22 SLT KECCAK256 PUSH25 0x9452F77A3DE456EE54A3030FEDBF02F76F3631CFE29E9D65EF DUP13 0x29 ADDMOD 0x28 PUSH30 0xBA64736F6C63430008070033000000000000000000000000000000000000 "
				},
				"gasEstimates": {
					"creation": {
						"codeDepositCost": "489200",
						"executionCost": "549",
						"totalCost": "489749"
					},
					"external": {
						"toHexString(uint256)": "infinite",
						"toHexString(uint256,uint256)": "infinite",
						"toString(uint256)": "infinite"
					}
				},
				"methodIdentifiers": {
					"toHexString(uint256)": "8fba8d5c",
					"toHexString(uint256,uint256)": "63e1cbea",
					"toString(uint256)": "6900a3ae"
				}
			},
			"storageLayout": {
				"storage": [],
				"types": null
			},
			"userdoc": {
				"kind": "user",
				"methods": {},
				"version": 1
			}
		}
	}
}