{
	"contracts/StakePool.sol": {
		"StakePool": {
			"abi": [
				{
					"inputs": [
						{
							"internalType": "address",
							"name": "_tokenAddress",
							"type": "address"
						}
					],
					"stateMutability": "nonpayable",
					"type": "constructor"
				},
				{
					"anonymous": false,
					"inputs": [
						{
							"indexed": true,
							"internalType": "address",
							"name": "user",
							"type": "address"
						},
						{
							"indexed": false,
							"internalType": "uint256",
							"name": "receiveNumber",
							"type": "uint256"
						}
					],
					"name": "Receive",
					"type": "event"
				},
				{
					"anonymous": false,
					"inputs": [
						{
							"indexed": true,
							"internalType": "address",
							"name": "user",
							"type": "address"
						},
						{
							"indexed": false,
							"internalType": "uint256",
							"name": "stakeNumber",
							"type": "uint256"
						}
					],
					"name": "Stake",
					"type": "event"
				},
				{
					"anonymous": false,
					"inputs": [
						{
							"indexed": true,
							"internalType": "address",
							"name": "user",
							"type": "address"
						},
						{
							"indexed": false,
							"internalType": "uint256",
							"name": "unStakeNumber",
							"type": "uint256"
						}
					],
					"name": "UnStake",
					"type": "event"
				},
				{
					"anonymous": false,
					"inputs": [
						{
							"indexed": false,
							"internalType": "uint8",
							"name": "ratio",
							"type": "uint8"
						}
					],
					"name": "UpdateRatio",
					"type": "event"
				},
				{
					"inputs": [],
					"name": "ierc20",
					"outputs": [
						{
							"internalType": "contract IERC20",
							"name": "",
							"type": "address"
						}
					],
					"stateMutability": "view",
					"type": "function"
				},
				{
					"inputs": [],
					"name": "owner",
					"outputs": [
						{
							"internalType": "address",
							"name": "",
							"type": "address"
						}
					],
					"stateMutability": "view",
					"type": "function"
				},
				{
					"inputs": [],
					"name": "ratio",
					"outputs": [
						{
							"internalType": "uint256",
							"name": "",
							"type": "uint256"
						}
					],
					"stateMutability": "view",
					"type": "function"
				},
				{
					"inputs": [],
					"name": "received",
					"outputs": [],
					"stateMutability": "payable",
					"type": "function"
				},
				{
					"inputs": [
						{
							"internalType": "uint256",
							"name": "_ratio",
							"type": "uint256"
						}
					],
					"name": "setRatio",
					"outputs": [],
					"stateMutability": "nonpayable",
					"type": "function"
				},
				{
					"inputs": [
						{
							"internalType": "uint256",
							"name": "_stakeNumber",
							"type": "uint256"
						}
					],
					"name": "stake",
					"outputs": [],
					"stateMutability": "payable",
					"type": "function"
				},
				{
					"inputs": [],
					"name": "tokenAddress",
					"outputs": [
						{
							"internalType": "address",
							"name": "",
							"type": "address"
						}
					],
					"stateMutability": "view",
					"type": "function"
				},
				{
					"inputs": [],
					"name": "totalStakeNumber",
					"outputs": [
						{
							"internalType": "uint256",
							"name": "",
							"type": "uint256"
						}
					],
					"stateMutability": "view",
					"type": "function"
				},
				{
					"inputs": [],
					"name": "unStake",
					"outputs": [],
					"stateMutability": "payable",
					"type": "function"
				},
				{
					"inputs": [
						{
							"internalType": "address",
							"name": "",
							"type": "address"
						}
					],
					"name": "userStakes",
					"outputs": [
						{
							"internalType": "uint256",
							"name": "stakeNumber",
							"type": "uint256"
						},
						{
							"internalType": "uint256",
							"name": "currentInterest",
							"type": "uint256"
						},
						{
							"internalType": "uint256",
							"name": "claimedInterest",
							"type": "uint256"
						},
						{
							"internalType": "uint256",
							"name": "lastInerest",
							"type": "uint256"
						},
						{
							"internalType": "uint256",
							"name": "lastStakeTime",
							"type": "uint256"
						}
					],
					"stateMutability": "view",
					"type": "function"
				}
			],
			"devdoc": {
				"kind": "dev",
				"methods": {},
				"version": 1
			},
			"evm": {
				"assembly": "    /* \"contracts/StakePool.sol\":702:3581  contract StakePool{... */\n  mstore(0x40, 0x80)\n    /* \"contracts/StakePool.sol\":1194:1195  1 */\n  0x01\n    /* \"contracts/StakePool.sol\":1160:1195  uint256 public totalStakeNumber = 1 */\n  0x00\n  sstore\n    /* \"contracts/StakePool.sol\":1430:1570  constructor(address _tokenAddress) {... */\n  callvalue\n  dup1\n  iszero\n  tag_1\n  jumpi\n  0x00\n  dup1\n  revert\ntag_1:\n  pop\n  mload(0x40)\n  sub(codesize, bytecodeSize)\n  dup1\n  bytecodeSize\n  dup4\n  codecopy\n  dup2\n  dup2\n  add\n  0x40\n  mstore\n  dup2\n  add\n  swap1\n  tag_2\n  swap2\n  swap1\n  tag_3\n  jump\t// in\ntag_2:\n    /* \"contracts/StakePool.sol\":1490:1503  _tokenAddress */\n  dup1\n    /* \"contracts/StakePool.sol\":1475:1487  tokenAddress */\n  0x01\n  0x00\n    /* \"contracts/StakePool.sol\":1475:1503  tokenAddress = _tokenAddress */\n  0x0100\n  exp\n  dup2\n  sload\n  dup2\n  0xffffffffffffffffffffffffffffffffffffffff\n  mul\n  not\n  and\n  swap1\n  dup4\n  0xffffffffffffffffffffffffffffffffffffffff\n  and\n  mul\n  or\n  swap1\n  sstore\n  pop\n    /* \"contracts/StakePool.sol\":1529:1542  _tokenAddress */\n  dup1\n    /* \"contracts/StakePool.sol\":1513:1519  ierc20 */\n  0x05\n  0x00\n    /* \"contracts/StakePool.sol\":1513:1543  ierc20 = IERC20(_tokenAddress) */\n  0x0100\n  exp\n  dup2\n  sload\n  dup2\n  0xffffffffffffffffffffffffffffffffffffffff\n  mul\n  not\n  and\n  swap1\n  dup4\n  0xffffffffffffffffffffffffffffffffffffffff\n  and\n  mul\n  or\n  swap1\n  sstore\n  pop\n    /* \"contracts/StakePool.sol\":1561:1563  50 */\n  0x32\n    /* \"contracts/StakePool.sol\":1553:1558  ratio */\n  0x03\n    /* \"contracts/StakePool.sol\":1553:1563  ratio = 50 */\n  dup2\n  swap1\n  sstore\n  pop\n    /* \"contracts/StakePool.sol\":1430:1570  constructor(address _tokenAddress) {... */\n  pop\n    /* \"contracts/StakePool.sol\":702:3581  contract StakePool{... */\n  jump(tag_6)\n    /* \"#utility.yul\":88:205   */\ntag_8:\n    /* \"#utility.yul\":197:198   */\n  0x00\n    /* \"#utility.yul\":194:195   */\n  dup1\n    /* \"#utility.yul\":187:199   */\n  revert\n    /* \"#utility.yul\":334:460   */\ntag_10:\n    /* \"#utility.yul\":371:378   */\n  0x00\n    /* \"#utility.yul\":411:453   */\n  0xffffffffffffffffffffffffffffffffffffffff\n    /* \"#utility.yul\":404:409   */\n  dup3\n    /* \"#utility.yul\":400:454   */\n  and\n    /* \"#utility.yul\":389:454   */\n  swap1\n  pop\n    /* \"#utility.yul\":334:460   */\n  swap2\n  swap1\n  pop\n  jump\t// out\n    /* \"#utility.yul\":466:562   */\ntag_11:\n    /* \"#utility.yul\":503:510   */\n  0x00\n    /* \"#utility.yul\":532:556   */\n  tag_20\n    /* \"#utility.yul\":550:555   */\n  dup3\n    /* \"#utility.yul\":532:556   */\n  tag_10\n  jump\t// in\ntag_20:\n    /* \"#utility.yul\":521:556   */\n  swap1\n  pop\n    /* \"#utility.yul\":466:562   */\n  swap2\n  swap1\n  pop\n  jump\t// out\n    /* \"#utility.yul\":568:690   */\ntag_12:\n    /* \"#utility.yul\":641:665   */\n  tag_22\n    /* \"#utility.yul\":659:664   */\n  dup2\n    /* \"#utility.yul\":641:665   */\n  tag_11\n  jump\t// in\ntag_22:\n    /* \"#utility.yul\":634:639   */\n  dup2\n    /* \"#utility.yul\":631:666   */\n  eq\n    /* \"#utility.yul\":621:684   */\n  tag_23\n  jumpi\n    /* \"#utility.yul\":680:681   */\n  0x00\n    /* \"#utility.yul\":677:678   */\n  dup1\n    /* \"#utility.yul\":670:682   */\n  revert\n    /* \"#utility.yul\":621:684   */\ntag_23:\n    /* \"#utility.yul\":568:690   */\n  pop\n  jump\t// out\n    /* \"#utility.yul\":696:839   */\ntag_13:\n    /* \"#utility.yul\":753:758   */\n  0x00\n    /* \"#utility.yul\":784:790   */\n  dup2\n    /* \"#utility.yul\":778:791   */\n  mload\n    /* \"#utility.yul\":769:791   */\n  swap1\n  pop\n    /* \"#utility.yul\":800:833   */\n  tag_25\n    /* \"#utility.yul\":827:832   */\n  dup2\n    /* \"#utility.yul\":800:833   */\n  tag_12\n  jump\t// in\ntag_25:\n    /* \"#utility.yul\":696:839   */\n  swap3\n  swap2\n  pop\n  pop\n  jump\t// out\n    /* \"#utility.yul\":845:1196   */\ntag_3:\n    /* \"#utility.yul\":915:921   */\n  0x00\n    /* \"#utility.yul\":964:966   */\n  0x20\n    /* \"#utility.yul\":952:961   */\n  dup3\n    /* \"#utility.yul\":943:950   */\n  dup5\n    /* \"#utility.yul\":939:962   */\n  sub\n    /* \"#utility.yul\":935:967   */\n  slt\n    /* \"#utility.yul\":932:1051   */\n  iszero\n  tag_27\n  jumpi\n    /* \"#utility.yul\":970:1049   */\n  tag_28\n  tag_8\n  jump\t// in\ntag_28:\n    /* \"#utility.yul\":932:1051   */\ntag_27:\n    /* \"#utility.yul\":1090:1091   */\n  0x00\n    /* \"#utility.yul\":1115:1179   */\n  tag_29\n    /* \"#utility.yul\":1171:1178   */\n  dup5\n    /* \"#utility.yul\":1162:1168   */\n  dup3\n    /* \"#utility.yul\":1151:1160   */\n  dup6\n    /* \"#utility.yul\":1147:1169   */\n  add\n    /* \"#utility.yul\":1115:1179   */\n  tag_13\n  jump\t// in\ntag_29:\n    /* \"#utility.yul\":1105:1179   */\n  swap2\n  pop\n    /* \"#utility.yul\":1061:1189   */\n  pop\n    /* \"#utility.yul\":845:1196   */\n  swap3\n  swap2\n  pop\n  pop\n  jump\t// out\n    /* \"contracts/StakePool.sol\":702:3581  contract StakePool{... */\ntag_6:\n  dataSize(sub_0)\n  dup1\n  dataOffset(sub_0)\n  0x00\n  codecopy\n  0x00\n  return\nstop\n\nsub_0: assembly {\n        /* \"contracts/StakePool.sol\":702:3581  contract StakePool{... */\n      mstore(0x40, 0x80)\n      jumpi(tag_1, lt(calldatasize, 0x04))\n      shr(0xe0, calldataload(0x00))\n      dup1\n      0x8da7ad23\n      gt\n      tag_12\n      jumpi\n      dup1\n      0x8da7ad23\n      eq\n      tag_7\n      jumpi\n      dup1\n      0x9d76ea58\n      eq\n      tag_8\n      jumpi\n      dup1\n      0xa694fc3a\n      eq\n      tag_9\n      jumpi\n      dup1\n      0xb2237ba3\n      eq\n      tag_10\n      jumpi\n      dup1\n      0xbf0ae63d\n      eq\n      tag_11\n      jumpi\n      jump(tag_1)\n    tag_12:\n      dup1\n      0x53b645e5\n      eq\n      tag_2\n      jumpi\n      dup1\n      0x71ca337d\n      eq\n      tag_3\n      jumpi\n      dup1\n      0x73cf575a\n      eq\n      tag_4\n      jumpi\n      dup1\n      0x83a6deb5\n      eq\n      tag_5\n      jumpi\n      dup1\n      0x8da5cb5b\n      eq\n      tag_6\n      jumpi\n    tag_1:\n      0x00\n      dup1\n      revert\n        /* \"contracts/StakePool.sol\":1160:1195  uint256 public totalStakeNumber = 1 */\n    tag_2:\n      callvalue\n      dup1\n      iszero\n      tag_13\n      jumpi\n      0x00\n      dup1\n      revert\n    tag_13:\n      pop\n      tag_14\n      tag_15\n      jump\t// in\n    tag_14:\n      mload(0x40)\n      tag_16\n      swap2\n      swap1\n      tag_17\n      jump\t// in\n    tag_16:\n      mload(0x40)\n      dup1\n      swap2\n      sub\n      swap1\n      return\n        /* \"contracts/StakePool.sol\":1303:1323  uint256 public ratio */\n    tag_3:\n      callvalue\n      dup1\n      iszero\n      tag_18\n      jumpi\n      0x00\n      dup1\n      revert\n    tag_18:\n      pop\n      tag_19\n      tag_20\n      jump\t// in\n    tag_19:\n      mload(0x40)\n      tag_21\n      swap2\n      swap1\n      tag_17\n      jump\t// in\n    tag_21:\n      mload(0x40)\n      dup1\n      swap2\n      sub\n      swap1\n      return\n        /* \"contracts/StakePool.sol\":2380:2983  function unStake() external payable {... */\n    tag_4:\n      tag_22\n      tag_23\n      jump\t// in\n    tag_22:\n      stop\n        /* \"contracts/StakePool.sol\":2989:3300  function received() external payable {... */\n    tag_5:\n      tag_24\n      tag_25\n      jump\t// in\n    tag_24:\n      stop\n        /* \"contracts/StakePool.sol\":1277:1297  address public owner */\n    tag_6:\n      callvalue\n      dup1\n      iszero\n      tag_26\n      jumpi\n      0x00\n      dup1\n      revert\n    tag_26:\n      pop\n      tag_27\n      tag_28\n      jump\t// in\n    tag_27:\n      mload(0x40)\n      tag_29\n      swap2\n      swap1\n      tag_30\n      jump\t// in\n    tag_29:\n      mload(0x40)\n      dup1\n      swap2\n      sub\n      swap1\n      return\n        /* \"contracts/StakePool.sol\":1355:1397  mapping(address => User) public userStakes */\n    tag_7:\n      callvalue\n      dup1\n      iszero\n      tag_31\n      jumpi\n      0x00\n      dup1\n      revert\n    tag_31:\n      pop\n      tag_32\n      0x04\n      dup1\n      calldatasize\n      sub\n      dup2\n      add\n      swap1\n      tag_33\n      swap2\n      swap1\n      tag_34\n      jump\t// in\n    tag_33:\n      tag_35\n      jump\t// in\n    tag_32:\n      mload(0x40)\n      tag_36\n      swap6\n      swap5\n      swap4\n      swap3\n      swap2\n      swap1\n      tag_37\n      jump\t// in\n    tag_36:\n      mload(0x40)\n      dup1\n      swap2\n      sub\n      swap1\n      return\n        /* \"contracts/StakePool.sol\":1221:1248  address public tokenAddress */\n    tag_8:\n      callvalue\n      dup1\n      iszero\n      tag_38\n      jumpi\n      0x00\n      dup1\n      revert\n    tag_38:\n      pop\n      tag_39\n      tag_40\n      jump\t// in\n    tag_39:\n      mload(0x40)\n      tag_41\n      swap2\n      swap1\n      tag_30\n      jump\t// in\n    tag_41:\n      mload(0x40)\n      dup1\n      swap2\n      sub\n      swap1\n      return\n        /* \"contracts/StakePool.sol\":1773:2374  function stake(uint256 _stakeNumber) external payable {... */\n    tag_9:\n      tag_42\n      0x04\n      dup1\n      calldatasize\n      sub\n      dup2\n      add\n      swap1\n      tag_43\n      swap2\n      swap1\n      tag_44\n      jump\t// in\n    tag_43:\n      tag_45\n      jump\t// in\n    tag_42:\n      stop\n        /* \"contracts/StakePool.sol\":1673:1763  function setRatio(uint _ratio) external onlyOwner {    ... */\n    tag_10:\n      callvalue\n      dup1\n      iszero\n      tag_46\n      jumpi\n      0x00\n      dup1\n      revert\n    tag_46:\n      pop\n      tag_47\n      0x04\n      dup1\n      calldatasize\n      sub\n      dup2\n      add\n      swap1\n      tag_48\n      swap2\n      swap1\n      tag_44\n      jump\t// in\n    tag_48:\n      tag_49\n      jump\t// in\n    tag_47:\n      stop\n        /* \"contracts/StakePool.sol\":1403:1423  IERC20 public ierc20 */\n    tag_11:\n      callvalue\n      dup1\n      iszero\n      tag_50\n      jumpi\n      0x00\n      dup1\n      revert\n    tag_50:\n      pop\n      tag_51\n      tag_52\n      jump\t// in\n    tag_51:\n      mload(0x40)\n      tag_53\n      swap2\n      swap1\n      tag_54\n      jump\t// in\n    tag_53:\n      mload(0x40)\n      dup1\n      swap2\n      sub\n      swap1\n      return\n        /* \"contracts/StakePool.sol\":1160:1195  uint256 public totalStakeNumber = 1 */\n    tag_15:\n      sload(0x00)\n      dup2\n      jump\t// out\n        /* \"contracts/StakePool.sol\":1303:1323  uint256 public ratio */\n    tag_20:\n      sload(0x03)\n      dup2\n      jump\t// out\n        /* \"contracts/StakePool.sol\":2380:2983  function unStake() external payable {... */\n    tag_23:\n        /* \"contracts/StakePool.sol\":2463:2469  ierc20 */\n      0x05\n      0x00\n      swap1\n      sload\n      swap1\n      0x0100\n      exp\n      swap1\n      div\n      0xffffffffffffffffffffffffffffffffffffffff\n      and\n        /* \"contracts/StakePool.sol\":2463:2478  ierc20.transfer */\n      0xffffffffffffffffffffffffffffffffffffffff\n      and\n      0xa9059cbb\n        /* \"contracts/StakePool.sol\":2479:2489  msg.sender */\n      caller\n        /* \"contracts/StakePool.sol\":2491:2501  userStakes */\n      0x04\n        /* \"contracts/StakePool.sol\":2491:2513  userStakes[msg.sender] */\n      0x00\n        /* \"contracts/StakePool.sol\":2502:2512  msg.sender */\n      caller\n        /* \"contracts/StakePool.sol\":2491:2513  userStakes[msg.sender] */\n      0xffffffffffffffffffffffffffffffffffffffff\n      and\n      0xffffffffffffffffffffffffffffffffffffffff\n      and\n      dup2\n      mstore\n      0x20\n      add\n      swap1\n      dup2\n      mstore\n      0x20\n      add\n      0x00\n      keccak256\n        /* \"contracts/StakePool.sol\":2491:2525  userStakes[msg.sender].stakeNumber */\n      0x00\n      add\n      sload\n        /* \"contracts/StakePool.sol\":2463:2526  ierc20.transfer(msg.sender, userStakes[msg.sender].stakeNumber) */\n      mload(0x40)\n      dup4\n      0xffffffff\n      and\n      0xe0\n      shl\n      dup2\n      mstore\n      0x04\n      add\n      tag_56\n      swap3\n      swap2\n      swap1\n      tag_57\n      jump\t// in\n    tag_56:\n      0x20\n      mload(0x40)\n      dup1\n      dup4\n      sub\n      dup2\n      0x00\n      dup8\n      gas\n      call\n      iszero\n      dup1\n      iszero\n      tag_59\n      jumpi\n      returndatasize\n      0x00\n      dup1\n      returndatacopy\n      revert(0x00, returndatasize)\n    tag_59:\n      pop\n      pop\n      pop\n      pop\n      mload(0x40)\n      returndatasize\n      not(0x1f)\n      0x1f\n      dup3\n      add\n      and\n      dup3\n      add\n      dup1\n      0x40\n      mstore\n      pop\n      dup2\n      add\n      swap1\n      tag_60\n      swap2\n      swap1\n      tag_61\n      jump\t// in\n    tag_60:\n      pop\n        /* \"contracts/StakePool.sol\":2536:2542  ierc20 */\n      0x05\n      0x00\n      swap1\n      sload\n      swap1\n      0x0100\n      exp\n      swap1\n      div\n      0xffffffffffffffffffffffffffffffffffffffff\n      and\n        /* \"contracts/StakePool.sol\":2536:2551  ierc20.transfer */\n      0xffffffffffffffffffffffffffffffffffffffff\n      and\n      0xa9059cbb\n        /* \"contracts/StakePool.sol\":2552:2562  msg.sender */\n      caller\n        /* \"contracts/StakePool.sol\":2564:2574  userStakes */\n      0x04\n        /* \"contracts/StakePool.sol\":2564:2586  userStakes[msg.sender] */\n      0x00\n        /* \"contracts/StakePool.sol\":2575:2585  msg.sender */\n      caller\n        /* \"contracts/StakePool.sol\":2564:2586  userStakes[msg.sender] */\n      0xffffffffffffffffffffffffffffffffffffffff\n      and\n      0xffffffffffffffffffffffffffffffffffffffff\n      and\n      dup2\n      mstore\n      0x20\n      add\n      swap1\n      dup2\n      mstore\n      0x20\n      add\n      0x00\n      keccak256\n        /* \"contracts/StakePool.sol\":2564:2602  userStakes[msg.sender].currentInterest */\n      0x01\n      add\n      sload\n        /* \"contracts/StakePool.sol\":2536:2603  ierc20.transfer(msg.sender, userStakes[msg.sender].currentInterest) */\n      mload(0x40)\n      dup4\n      0xffffffff\n      and\n      0xe0\n      shl\n      dup2\n      mstore\n      0x04\n      add\n      tag_62\n      swap3\n      swap2\n      swap1\n      tag_57\n      jump\t// in\n    tag_62:\n      0x20\n      mload(0x40)\n      dup1\n      dup4\n      sub\n      dup2\n      0x00\n      dup8\n      gas\n      call\n      iszero\n      dup1\n      iszero\n      tag_64\n      jumpi\n      returndatasize\n      0x00\n      dup1\n      returndatacopy\n      revert(0x00, returndatasize)\n    tag_64:\n      pop\n      pop\n      pop\n      pop\n      mload(0x40)\n      returndatasize\n      not(0x1f)\n      0x1f\n      dup3\n      add\n      and\n      dup3\n      add\n      dup1\n      0x40\n      mstore\n      pop\n      dup2\n      add\n      swap1\n      tag_65\n      swap2\n      swap1\n      tag_61\n      jump\t// in\n    tag_65:\n      pop\n        /* \"contracts/StakePool.sol\":2626:2636  msg.sender */\n      caller\n        /* \"contracts/StakePool.sol\":2618:2673  UnStake(msg.sender, userStakes[msg.sender].stakeNumber) */\n      0xffffffffffffffffffffffffffffffffffffffff\n      and\n      0xb24546d975e2628748efc9aced80665e0fad66272033e5c0ea25fd3afac99795\n        /* \"contracts/StakePool.sol\":2638:2648  userStakes */\n      0x04\n        /* \"contracts/StakePool.sol\":2638:2660  userStakes[msg.sender] */\n      0x00\n        /* \"contracts/StakePool.sol\":2649:2659  msg.sender */\n      caller\n        /* \"contracts/StakePool.sol\":2638:2660  userStakes[msg.sender] */\n      0xffffffffffffffffffffffffffffffffffffffff\n      and\n      0xffffffffffffffffffffffffffffffffffffffff\n      and\n      dup2\n      mstore\n      0x20\n      add\n      swap1\n      dup2\n      mstore\n      0x20\n      add\n      0x00\n      keccak256\n        /* \"contracts/StakePool.sol\":2638:2672  userStakes[msg.sender].stakeNumber */\n      0x00\n      add\n      sload\n        /* \"contracts/StakePool.sol\":2618:2673  UnStake(msg.sender, userStakes[msg.sender].stakeNumber) */\n      mload(0x40)\n      tag_66\n      swap2\n      swap1\n      tag_17\n      jump\t// in\n    tag_66:\n      mload(0x40)\n      dup1\n      swap2\n      sub\n      swap1\n      log2\n        /* \"contracts/StakePool.sol\":2696:2706  msg.sender */\n      caller\n        /* \"contracts/StakePool.sol\":2688:2747  Receive(msg.sender, userStakes[msg.sender].currentInterest) */\n      0xffffffffffffffffffffffffffffffffffffffff\n      and\n      0xd6717f327e0cb88b4a97a7f67a453e9258252c34937ccbdd86de7cb840e7def3\n        /* \"contracts/StakePool.sol\":2708:2718  userStakes */\n      0x04\n        /* \"contracts/StakePool.sol\":2708:2730  userStakes[msg.sender] */\n      0x00\n        /* \"contracts/StakePool.sol\":2719:2729  msg.sender */\n      caller\n        /* \"contracts/StakePool.sol\":2708:2730  userStakes[msg.sender] */\n      0xffffffffffffffffffffffffffffffffffffffff\n      and\n      0xffffffffffffffffffffffffffffffffffffffff\n      and\n      dup2\n      mstore\n      0x20\n      add\n      swap1\n      dup2\n      mstore\n      0x20\n      add\n      0x00\n      keccak256\n        /* \"contracts/StakePool.sol\":2708:2746  userStakes[msg.sender].currentInterest */\n      0x01\n      add\n      sload\n        /* \"contracts/StakePool.sol\":2688:2747  Receive(msg.sender, userStakes[msg.sender].currentInterest) */\n      mload(0x40)\n      tag_67\n      swap2\n      swap1\n      tag_17\n      jump\t// in\n    tag_67:\n      mload(0x40)\n      dup1\n      swap2\n      sub\n      swap1\n      log2\n        /* \"contracts/StakePool.sol\":2797:2812  block.timestamp */\n      timestamp\n        /* \"contracts/StakePool.sol\":2758:2768  userStakes */\n      0x04\n        /* \"contracts/StakePool.sol\":2758:2780  userStakes[msg.sender] */\n      0x00\n        /* \"contracts/StakePool.sol\":2769:2779  msg.sender */\n      caller\n        /* \"contracts/StakePool.sol\":2758:2780  userStakes[msg.sender] */\n      0xffffffffffffffffffffffffffffffffffffffff\n      and\n      0xffffffffffffffffffffffffffffffffffffffff\n      and\n      dup2\n      mstore\n      0x20\n      add\n      swap1\n      dup2\n      mstore\n      0x20\n      add\n      0x00\n      keccak256\n        /* \"contracts/StakePool.sol\":2758:2794  userStakes[msg.sender].lastStakeTime */\n      0x04\n      add\n        /* \"contracts/StakePool.sol\":2758:2812  userStakes[msg.sender].lastStakeTime = block.timestamp */\n      dup2\n      swap1\n      sstore\n      pop\n        /* \"contracts/StakePool.sol\":2842:2852  userStakes */\n      0x04\n        /* \"contracts/StakePool.sol\":2842:2864  userStakes[msg.sender] */\n      0x00\n        /* \"contracts/StakePool.sol\":2853:2863  msg.sender */\n      caller\n        /* \"contracts/StakePool.sol\":2842:2864  userStakes[msg.sender] */\n      0xffffffffffffffffffffffffffffffffffffffff\n      and\n      0xffffffffffffffffffffffffffffffffffffffff\n      and\n      dup2\n      mstore\n      0x20\n      add\n      swap1\n      dup2\n      mstore\n      0x20\n      add\n      0x00\n      keccak256\n        /* \"contracts/StakePool.sol\":2842:2876  userStakes[msg.sender].stakeNumber */\n      0x00\n      add\n      sload\n        /* \"contracts/StakePool.sol\":2822:2838  totalStakeNumber */\n      0x00\n      dup1\n        /* \"contracts/StakePool.sol\":2822:2876  totalStakeNumber -= userStakes[msg.sender].stakeNumber */\n      dup3\n      dup3\n      sload\n      tag_68\n      swap2\n      swap1\n      tag_69\n      jump\t// in\n    tag_68:\n      swap3\n      pop\n      pop\n      dup2\n      swap1\n      sstore\n      pop\n        /* \"contracts/StakePool.sol\":2923:2924  0 */\n      0x00\n        /* \"contracts/StakePool.sol\":2886:2896  userStakes */\n      0x04\n        /* \"contracts/StakePool.sol\":2886:2908  userStakes[msg.sender] */\n      0x00\n        /* \"contracts/StakePool.sol\":2897:2907  msg.sender */\n      caller\n        /* \"contracts/StakePool.sol\":2886:2908  userStakes[msg.sender] */\n      0xffffffffffffffffffffffffffffffffffffffff\n      and\n      0xffffffffffffffffffffffffffffffffffffffff\n      and\n      dup2\n      mstore\n      0x20\n      add\n      swap1\n      dup2\n      mstore\n      0x20\n      add\n      0x00\n      keccak256\n        /* \"contracts/StakePool.sol\":2886:2920  userStakes[msg.sender].stakeNumber */\n      0x00\n      add\n        /* \"contracts/StakePool.sol\":2886:2924  userStakes[msg.sender].stakeNumber = 0 */\n      dup2\n      swap1\n      sstore\n      pop\n        /* \"contracts/StakePool.sol\":2975:2976  0 */\n      0x00\n        /* \"contracts/StakePool.sol\":2934:2944  userStakes */\n      0x04\n        /* \"contracts/StakePool.sol\":2934:2956  userStakes[msg.sender] */\n      0x00\n        /* \"contracts/StakePool.sol\":2945:2955  msg.sender */\n      caller\n        /* \"contracts/StakePool.sol\":2934:2956  userStakes[msg.sender] */\n      0xffffffffffffffffffffffffffffffffffffffff\n      and\n      0xffffffffffffffffffffffffffffffffffffffff\n      and\n      dup2\n      mstore\n      0x20\n      add\n      swap1\n      dup2\n      mstore\n      0x20\n      add\n      0x00\n      keccak256\n        /* \"contracts/StakePool.sol\":2934:2972  userStakes[msg.sender].currentInterest */\n      0x01\n      add\n        /* \"contracts/StakePool.sol\":2934:2976  userStakes[msg.sender].currentInterest = 0 */\n      dup2\n      swap1\n      sstore\n      pop\n        /* \"contracts/StakePool.sol\":2380:2983  function unStake() external payable {... */\n      jump\t// out\n        /* \"contracts/StakePool.sol\":2989:3300  function received() external payable {... */\n    tag_25:\n        /* \"contracts/StakePool.sol\":3036:3042  ierc20 */\n      0x05\n      0x00\n      swap1\n      sload\n      swap1\n      0x0100\n      exp\n      swap1\n      div\n      0xffffffffffffffffffffffffffffffffffffffff\n      and\n        /* \"contracts/StakePool.sol\":3036:3051  ierc20.transfer */\n      0xffffffffffffffffffffffffffffffffffffffff\n      and\n      0xa9059cbb\n        /* \"contracts/StakePool.sol\":3052:3062  msg.sender */\n      caller\n        /* \"contracts/StakePool.sol\":3064:3074  userStakes */\n      0x04\n        /* \"contracts/StakePool.sol\":3064:3086  userStakes[msg.sender] */\n      0x00\n        /* \"contracts/StakePool.sol\":3075:3085  msg.sender */\n      caller\n        /* \"contracts/StakePool.sol\":3064:3086  userStakes[msg.sender] */\n      0xffffffffffffffffffffffffffffffffffffffff\n      and\n      0xffffffffffffffffffffffffffffffffffffffff\n      and\n      dup2\n      mstore\n      0x20\n      add\n      swap1\n      dup2\n      mstore\n      0x20\n      add\n      0x00\n      keccak256\n        /* \"contracts/StakePool.sol\":3064:3102  userStakes[msg.sender].currentInterest */\n      0x01\n      add\n      sload\n        /* \"contracts/StakePool.sol\":3036:3103  ierc20.transfer(msg.sender, userStakes[msg.sender].currentInterest) */\n      mload(0x40)\n      dup4\n      0xffffffff\n      and\n      0xe0\n      shl\n      dup2\n      mstore\n      0x04\n      add\n      tag_71\n      swap3\n      swap2\n      swap1\n      tag_57\n      jump\t// in\n    tag_71:\n      0x20\n      mload(0x40)\n      dup1\n      dup4\n      sub\n      dup2\n      0x00\n      dup8\n      gas\n      call\n      iszero\n      dup1\n      iszero\n      tag_73\n      jumpi\n      returndatasize\n      0x00\n      dup1\n      returndatacopy\n      revert(0x00, returndatasize)\n    tag_73:\n      pop\n      pop\n      pop\n      pop\n      mload(0x40)\n      returndatasize\n      not(0x1f)\n      0x1f\n      dup3\n      add\n      and\n      dup3\n      add\n      dup1\n      0x40\n      mstore\n      pop\n      dup2\n      add\n      swap1\n      tag_74\n      swap2\n      swap1\n      tag_61\n      jump\t// in\n    tag_74:\n      pop\n        /* \"contracts/StakePool.sol\":3126:3136  msg.sender */\n      caller\n        /* \"contracts/StakePool.sol\":3118:3177  Receive(msg.sender, userStakes[msg.sender].currentInterest) */\n      0xffffffffffffffffffffffffffffffffffffffff\n      and\n      0xd6717f327e0cb88b4a97a7f67a453e9258252c34937ccbdd86de7cb840e7def3\n        /* \"contracts/StakePool.sol\":3138:3148  userStakes */\n      0x04\n        /* \"contracts/StakePool.sol\":3138:3160  userStakes[msg.sender] */\n      0x00\n        /* \"contracts/StakePool.sol\":3149:3159  msg.sender */\n      caller\n        /* \"contracts/StakePool.sol\":3138:3160  userStakes[msg.sender] */\n      0xffffffffffffffffffffffffffffffffffffffff\n      and\n      0xffffffffffffffffffffffffffffffffffffffff\n      and\n      dup2\n      mstore\n      0x20\n      add\n      swap1\n      dup2\n      mstore\n      0x20\n      add\n      0x00\n      keccak256\n        /* \"contracts/StakePool.sol\":3138:3176  userStakes[msg.sender].currentInterest */\n      0x01\n      add\n      sload\n        /* \"contracts/StakePool.sol\":3118:3177  Receive(msg.sender, userStakes[msg.sender].currentInterest) */\n      mload(0x40)\n      tag_75\n      swap2\n      swap1\n      tag_17\n      jump\t// in\n    tag_75:\n      mload(0x40)\n      dup1\n      swap2\n      sub\n      swap1\n      log2\n        /* \"contracts/StakePool.sol\":3226:3241  block.timestamp */\n      timestamp\n        /* \"contracts/StakePool.sol\":3187:3197  userStakes */\n      0x04\n        /* \"contracts/StakePool.sol\":3187:3209  userStakes[msg.sender] */\n      0x00\n        /* \"contracts/StakePool.sol\":3198:3208  msg.sender */\n      caller\n        /* \"contracts/StakePool.sol\":3187:3209  userStakes[msg.sender] */\n      0xffffffffffffffffffffffffffffffffffffffff\n      and\n      0xffffffffffffffffffffffffffffffffffffffff\n      and\n      dup2\n      mstore\n      0x20\n      add\n      swap1\n      dup2\n      mstore\n      0x20\n      add\n      0x00\n      keccak256\n        /* \"contracts/StakePool.sol\":3187:3223  userStakes[msg.sender].lastStakeTime */\n      0x04\n      add\n        /* \"contracts/StakePool.sol\":3187:3241  userStakes[msg.sender].lastStakeTime = block.timestamp */\n      dup2\n      swap1\n      sstore\n      pop\n        /* \"contracts/StakePool.sol\":3292:3293  0 */\n      0x00\n        /* \"contracts/StakePool.sol\":3251:3261  userStakes */\n      0x04\n        /* \"contracts/StakePool.sol\":3251:3273  userStakes[msg.sender] */\n      0x00\n        /* \"contracts/StakePool.sol\":3262:3272  msg.sender */\n      caller\n        /* \"contracts/StakePool.sol\":3251:3273  userStakes[msg.sender] */\n      0xffffffffffffffffffffffffffffffffffffffff\n      and\n      0xffffffffffffffffffffffffffffffffffffffff\n      and\n      dup2\n      mstore\n      0x20\n      add\n      swap1\n      dup2\n      mstore\n      0x20\n      add\n      0x00\n      keccak256\n        /* \"contracts/StakePool.sol\":3251:3289  userStakes[msg.sender].currentInterest */\n      0x01\n      add\n        /* \"contracts/StakePool.sol\":3251:3293  userStakes[msg.sender].currentInterest = 0 */\n      dup2\n      swap1\n      sstore\n      pop\n        /* \"contracts/StakePool.sol\":2989:3300  function received() external payable {... */\n      jump\t// out\n        /* \"contracts/StakePool.sol\":1277:1297  address public owner */\n    tag_28:\n      0x02\n      0x00\n      swap1\n      sload\n      swap1\n      0x0100\n      exp\n      swap1\n      div\n      0xffffffffffffffffffffffffffffffffffffffff\n      and\n      dup2\n      jump\t// out\n        /* \"contracts/StakePool.sol\":1355:1397  mapping(address => User) public userStakes */\n    tag_35:\n      mstore(0x20, 0x04)\n      dup1\n      0x00\n      mstore\n      keccak256(0x00, 0x40)\n      0x00\n      swap2\n      pop\n      swap1\n      pop\n      dup1\n      0x00\n      add\n      sload\n      swap1\n      dup1\n      0x01\n      add\n      sload\n      swap1\n      dup1\n      0x02\n      add\n      sload\n      swap1\n      dup1\n      0x03\n      add\n      sload\n      swap1\n      dup1\n      0x04\n      add\n      sload\n      swap1\n      pop\n      dup6\n      jump\t// out\n        /* \"contracts/StakePool.sol\":1221:1248  address public tokenAddress */\n    tag_40:\n      0x01\n      0x00\n      swap1\n      sload\n      swap1\n      0x0100\n      exp\n      swap1\n      div\n      0xffffffffffffffffffffffffffffffffffffffff\n      and\n      dup2\n      jump\t// out\n        /* \"contracts/StakePool.sol\":1773:2374  function stake(uint256 _stakeNumber) external payable {... */\n    tag_45:\n        /* \"contracts/StakePool.sol\":1837:1843  ierc20 */\n      0x05\n      0x00\n      swap1\n      sload\n      swap1\n      0x0100\n      exp\n      swap1\n      div\n      0xffffffffffffffffffffffffffffffffffffffff\n      and\n        /* \"contracts/StakePool.sol\":1837:1856  ierc20.transferFrom */\n      0xffffffffffffffffffffffffffffffffffffffff\n      and\n      0x23b872dd\n        /* \"contracts/StakePool.sol\":1857:1867  msg.sender */\n      caller\n        /* \"contracts/StakePool.sol\":1877:1881  this */\n      address\n        /* \"contracts/StakePool.sol\":1884:1896  _stakeNumber */\n      dup5\n        /* \"contracts/StakePool.sol\":1837:1897  ierc20.transferFrom(msg.sender, address(this), _stakeNumber) */\n      mload(0x40)\n      dup5\n      0xffffffff\n      and\n      0xe0\n      shl\n      dup2\n      mstore\n      0x04\n      add\n      tag_77\n      swap4\n      swap3\n      swap2\n      swap1\n      tag_78\n      jump\t// in\n    tag_77:\n      0x20\n      mload(0x40)\n      dup1\n      dup4\n      sub\n      dup2\n      0x00\n      dup8\n      gas\n      call\n      iszero\n      dup1\n      iszero\n      tag_80\n      jumpi\n      returndatasize\n      0x00\n      dup1\n      returndatacopy\n      revert(0x00, returndatasize)\n    tag_80:\n      pop\n      pop\n      pop\n      pop\n      mload(0x40)\n      returndatasize\n      not(0x1f)\n      0x1f\n      dup3\n      add\n      and\n      dup3\n      add\n      dup1\n      0x40\n      mstore\n      pop\n      dup2\n      add\n      swap1\n      tag_81\n      swap2\n      swap1\n      tag_61\n      jump\t// in\n    tag_81:\n      pop\n        /* \"contracts/StakePool.sol\":2146:2154  31536000 */\n      0x01e13380\n        /* \"contracts/StakePool.sol\":2140:2143  100 */\n      0x64\n        /* \"contracts/StakePool.sol\":2132:2137  ratio */\n      sload(0x03)\n        /* \"contracts/StakePool.sol\":2095:2105  userStakes */\n      0x04\n        /* \"contracts/StakePool.sol\":2095:2117  userStakes[msg.sender] */\n      0x00\n        /* \"contracts/StakePool.sol\":2106:2116  msg.sender */\n      caller\n        /* \"contracts/StakePool.sol\":2095:2117  userStakes[msg.sender] */\n      0xffffffffffffffffffffffffffffffffffffffff\n      and\n      0xffffffffffffffffffffffffffffffffffffffff\n      and\n      dup2\n      mstore\n      0x20\n      add\n      swap1\n      dup2\n      mstore\n      0x20\n      add\n      0x00\n      keccak256\n        /* \"contracts/StakePool.sol\":2095:2129  userStakes[msg.sender].stakeNumber */\n      0x00\n      add\n      sload\n        /* \"contracts/StakePool.sol\":2095:2137  userStakes[msg.sender].stakeNumber * ratio */\n      tag_82\n      swap2\n      swap1\n      tag_83\n      jump\t// in\n    tag_82:\n        /* \"contracts/StakePool.sol\":2095:2143  userStakes[msg.sender].stakeNumber * ratio / 100 */\n      tag_84\n      swap2\n      swap1\n      tag_85\n      jump\t// in\n    tag_84:\n        /* \"contracts/StakePool.sol\":2095:2154  userStakes[msg.sender].stakeNumber * ratio / 100 / 31536000 */\n      tag_86\n      swap2\n      swap1\n      tag_85\n      jump\t// in\n    tag_86:\n        /* \"contracts/StakePool.sol\":2054:2064  userStakes */\n      0x04\n        /* \"contracts/StakePool.sol\":2054:2076  userStakes[msg.sender] */\n      0x00\n        /* \"contracts/StakePool.sol\":2065:2075  msg.sender */\n      caller\n        /* \"contracts/StakePool.sol\":2054:2076  userStakes[msg.sender] */\n      0xffffffffffffffffffffffffffffffffffffffff\n      and\n      0xffffffffffffffffffffffffffffffffffffffff\n      and\n      dup2\n      mstore\n      0x20\n      add\n      swap1\n      dup2\n      mstore\n      0x20\n      add\n      0x00\n      keccak256\n        /* \"contracts/StakePool.sol\":2054:2090  userStakes[msg.sender].lastStakeTime */\n      0x04\n      add\n      sload\n        /* \"contracts/StakePool.sol\":2036:2051  block.timestamp */\n      timestamp\n        /* \"contracts/StakePool.sol\":2036:2090  block.timestamp - userStakes[msg.sender].lastStakeTime */\n      tag_87\n      swap2\n      swap1\n      tag_69\n      jump\t// in\n    tag_87:\n        /* \"contracts/StakePool.sol\":2035:2155  (block.timestamp - userStakes[msg.sender].lastStakeTime) * (userStakes[msg.sender].stakeNumber * ratio / 100 / 31536000) */\n      tag_88\n      swap2\n      swap1\n      tag_83\n      jump\t// in\n    tag_88:\n        /* \"contracts/StakePool.sol\":1981:1991  userStakes */\n      0x04\n        /* \"contracts/StakePool.sol\":1981:2003  userStakes[msg.sender] */\n      0x00\n        /* \"contracts/StakePool.sol\":1992:2002  msg.sender */\n      caller\n        /* \"contracts/StakePool.sol\":1981:2003  userStakes[msg.sender] */\n      0xffffffffffffffffffffffffffffffffffffffff\n      and\n      0xffffffffffffffffffffffffffffffffffffffff\n      and\n      dup2\n      mstore\n      0x20\n      add\n      swap1\n      dup2\n      mstore\n      0x20\n      add\n      0x00\n      keccak256\n        /* \"contracts/StakePool.sol\":1981:2019  userStakes[msg.sender].currentInterest */\n      0x01\n      add\n      sload\n        /* \"contracts/StakePool.sol\":1981:2155  userStakes[msg.sender].currentInterest + ... */\n      tag_89\n      swap2\n      swap1\n      tag_90\n      jump\t// in\n    tag_89:\n        /* \"contracts/StakePool.sol\":1940:1950  userStakes */\n      0x04\n        /* \"contracts/StakePool.sol\":1940:1962  userStakes[msg.sender] */\n      0x00\n        /* \"contracts/StakePool.sol\":1951:1961  msg.sender */\n      caller\n        /* \"contracts/StakePool.sol\":1940:1962  userStakes[msg.sender] */\n      0xffffffffffffffffffffffffffffffffffffffff\n      and\n      0xffffffffffffffffffffffffffffffffffffffff\n      and\n      dup2\n      mstore\n      0x20\n      add\n      swap1\n      dup2\n      mstore\n      0x20\n      add\n      0x00\n      keccak256\n        /* \"contracts/StakePool.sol\":1940:1978  userStakes[msg.sender].currentInterest */\n      0x01\n      add\n        /* \"contracts/StakePool.sol\":1940:2155  userStakes[msg.sender].currentInterest = userStakes[msg.sender].currentInterest + ... */\n      dup2\n      swap1\n      sstore\n      pop\n        /* \"contracts/StakePool.sol\":2203:2215  _stakeNumber */\n      dup1\n        /* \"contracts/StakePool.sol\":2165:2175  userStakes */\n      0x04\n        /* \"contracts/StakePool.sol\":2165:2187  userStakes[msg.sender] */\n      0x00\n        /* \"contracts/StakePool.sol\":2176:2186  msg.sender */\n      caller\n        /* \"contracts/StakePool.sol\":2165:2187  userStakes[msg.sender] */\n      0xffffffffffffffffffffffffffffffffffffffff\n      and\n      0xffffffffffffffffffffffffffffffffffffffff\n      and\n      dup2\n      mstore\n      0x20\n      add\n      swap1\n      dup2\n      mstore\n      0x20\n      add\n      0x00\n      keccak256\n        /* \"contracts/StakePool.sol\":2165:2199  userStakes[msg.sender].stakeNumber */\n      0x00\n      add\n      0x00\n        /* \"contracts/StakePool.sol\":2165:2215  userStakes[msg.sender].stakeNumber += _stakeNumber */\n      dup3\n      dup3\n      sload\n      tag_91\n      swap2\n      swap1\n      tag_90\n      jump\t// in\n    tag_91:\n      swap3\n      pop\n      pop\n      dup2\n      swap1\n      sstore\n      pop\n        /* \"contracts/StakePool.sol\":2264:2279  block.timestamp */\n      timestamp\n        /* \"contracts/StakePool.sol\":2225:2235  userStakes */\n      0x04\n        /* \"contracts/StakePool.sol\":2225:2247  userStakes[msg.sender] */\n      0x00\n        /* \"contracts/StakePool.sol\":2236:2246  msg.sender */\n      caller\n        /* \"contracts/StakePool.sol\":2225:2247  userStakes[msg.sender] */\n      0xffffffffffffffffffffffffffffffffffffffff\n      and\n      0xffffffffffffffffffffffffffffffffffffffff\n      and\n      dup2\n      mstore\n      0x20\n      add\n      swap1\n      dup2\n      mstore\n      0x20\n      add\n      0x00\n      keccak256\n        /* \"contracts/StakePool.sol\":2225:2261  userStakes[msg.sender].lastStakeTime */\n      0x04\n      add\n        /* \"contracts/StakePool.sol\":2225:2279  userStakes[msg.sender].lastStakeTime = block.timestamp */\n      dup2\n      swap1\n      sstore\n      pop\n        /* \"contracts/StakePool.sol\":2309:2321  _stakeNumber */\n      dup1\n        /* \"contracts/StakePool.sol\":2289:2305  totalStakeNumber */\n      0x00\n      dup1\n        /* \"contracts/StakePool.sol\":2289:2321  totalStakeNumber += _stakeNumber */\n      dup3\n      dup3\n      sload\n      tag_92\n      swap2\n      swap1\n      tag_90\n      jump\t// in\n    tag_92:\n      swap3\n      pop\n      pop\n      dup2\n      swap1\n      sstore\n      pop\n        /* \"contracts/StakePool.sol\":2342:2352  msg.sender */\n      caller\n        /* \"contracts/StakePool.sol\":2336:2367  Stake(msg.sender, _stakeNumber) */\n      0xffffffffffffffffffffffffffffffffffffffff\n      and\n      0xebedb8b3c678666e7f36970bc8f57abf6d8fa2e828c0da91ea5b75bf68ed101a\n        /* \"contracts/StakePool.sol\":2354:2366  _stakeNumber */\n      dup3\n        /* \"contracts/StakePool.sol\":2336:2367  Stake(msg.sender, _stakeNumber) */\n      mload(0x40)\n      tag_93\n      swap2\n      swap1\n      tag_17\n      jump\t// in\n    tag_93:\n      mload(0x40)\n      dup1\n      swap2\n      sub\n      swap1\n      log2\n        /* \"contracts/StakePool.sol\":1773:2374  function stake(uint256 _stakeNumber) external payable {... */\n      pop\n      jump\t// out\n        /* \"contracts/StakePool.sol\":1673:1763  function setRatio(uint _ratio) external onlyOwner {    ... */\n    tag_49:\n        /* \"contracts/StakePool.sol\":1629:1634  owner */\n      0x02\n      0x00\n      swap1\n      sload\n      swap1\n      0x0100\n      exp\n      swap1\n      div\n      0xffffffffffffffffffffffffffffffffffffffff\n      and\n        /* \"contracts/StakePool.sol\":1615:1634  msg.sender == owner */\n      0xffffffffffffffffffffffffffffffffffffffff\n      and\n        /* \"contracts/StakePool.sol\":1615:1625  msg.sender */\n      caller\n        /* \"contracts/StakePool.sol\":1615:1634  msg.sender == owner */\n      0xffffffffffffffffffffffffffffffffffffffff\n      and\n      eq\n        /* \"contracts/StakePool.sol\":1607:1649  require(msg.sender == owner , \"not owner\") */\n      tag_95\n      jumpi\n      mload(0x40)\n      0x08c379a000000000000000000000000000000000000000000000000000000000\n      dup2\n      mstore\n      0x04\n      add\n      tag_96\n      swap1\n      tag_97\n      jump\t// in\n    tag_96:\n      mload(0x40)\n      dup1\n      swap2\n      sub\n      swap1\n      revert\n    tag_95:\n        /* \"contracts/StakePool.sol\":1745:1751  _ratio */\n      dup1\n        /* \"contracts/StakePool.sol\":1737:1742  ratio */\n      0x03\n        /* \"contracts/StakePool.sol\":1737:1751  ratio = _ratio */\n      dup2\n      swap1\n      sstore\n      pop\n        /* \"contracts/StakePool.sol\":1673:1763  function setRatio(uint _ratio) external onlyOwner {    ... */\n      pop\n      jump\t// out\n        /* \"contracts/StakePool.sol\":1403:1423  IERC20 public ierc20 */\n    tag_52:\n      0x05\n      0x00\n      swap1\n      sload\n      swap1\n      0x0100\n      exp\n      swap1\n      div\n      0xffffffffffffffffffffffffffffffffffffffff\n      and\n      dup2\n      jump\t// out\n        /* \"#utility.yul\":7:84   */\n    tag_99:\n        /* \"#utility.yul\":44:51   */\n      0x00\n        /* \"#utility.yul\":73:78   */\n      dup2\n        /* \"#utility.yul\":62:78   */\n      swap1\n      pop\n        /* \"#utility.yul\":7:84   */\n      swap2\n      swap1\n      pop\n      jump\t// out\n        /* \"#utility.yul\":90:208   */\n    tag_100:\n        /* \"#utility.yul\":177:201   */\n      tag_127\n        /* \"#utility.yul\":195:200   */\n      dup2\n        /* \"#utility.yul\":177:201   */\n      tag_99\n      jump\t// in\n    tag_127:\n        /* \"#utility.yul\":172:175   */\n      dup3\n        /* \"#utility.yul\":165:202   */\n      mstore\n        /* \"#utility.yul\":90:208   */\n      pop\n      pop\n      jump\t// out\n        /* \"#utility.yul\":214:436   */\n    tag_17:\n        /* \"#utility.yul\":307:311   */\n      0x00\n        /* \"#utility.yul\":345:347   */\n      0x20\n        /* \"#utility.yul\":334:343   */\n      dup3\n        /* \"#utility.yul\":330:348   */\n      add\n        /* \"#utility.yul\":322:348   */\n      swap1\n      pop\n        /* \"#utility.yul\":358:429   */\n      tag_129\n        /* \"#utility.yul\":426:427   */\n      0x00\n        /* \"#utility.yul\":415:424   */\n      dup4\n        /* \"#utility.yul\":411:428   */\n      add\n        /* \"#utility.yul\":402:408   */\n      dup5\n        /* \"#utility.yul\":358:429   */\n      tag_100\n      jump\t// in\n    tag_129:\n        /* \"#utility.yul\":214:436   */\n      swap3\n      swap2\n      pop\n      pop\n      jump\t// out\n        /* \"#utility.yul\":442:568   */\n    tag_101:\n        /* \"#utility.yul\":479:486   */\n      0x00\n        /* \"#utility.yul\":519:561   */\n      0xffffffffffffffffffffffffffffffffffffffff\n        /* \"#utility.yul\":512:517   */\n      dup3\n        /* \"#utility.yul\":508:562   */\n      and\n        /* \"#utility.yul\":497:562   */\n      swap1\n      pop\n        /* \"#utility.yul\":442:568   */\n      swap2\n      swap1\n      pop\n      jump\t// out\n        /* \"#utility.yul\":574:670   */\n    tag_102:\n        /* \"#utility.yul\":611:618   */\n      0x00\n        /* \"#utility.yul\":640:664   */\n      tag_132\n        /* \"#utility.yul\":658:663   */\n      dup3\n        /* \"#utility.yul\":640:664   */\n      tag_101\n      jump\t// in\n    tag_132:\n        /* \"#utility.yul\":629:664   */\n      swap1\n      pop\n        /* \"#utility.yul\":574:670   */\n      swap2\n      swap1\n      pop\n      jump\t// out\n        /* \"#utility.yul\":676:794   */\n    tag_103:\n        /* \"#utility.yul\":763:787   */\n      tag_134\n        /* \"#utility.yul\":781:786   */\n      dup2\n        /* \"#utility.yul\":763:787   */\n      tag_102\n      jump\t// in\n    tag_134:\n        /* \"#utility.yul\":758:761   */\n      dup3\n        /* \"#utility.yul\":751:788   */\n      mstore\n        /* \"#utility.yul\":676:794   */\n      pop\n      pop\n      jump\t// out\n        /* \"#utility.yul\":800:1022   */\n    tag_30:\n        /* \"#utility.yul\":893:897   */\n      0x00\n        /* \"#utility.yul\":931:933   */\n      0x20\n        /* \"#utility.yul\":920:929   */\n      dup3\n        /* \"#utility.yul\":916:934   */\n      add\n        /* \"#utility.yul\":908:934   */\n      swap1\n      pop\n        /* \"#utility.yul\":944:1015   */\n      tag_136\n        /* \"#utility.yul\":1012:1013   */\n      0x00\n        /* \"#utility.yul\":1001:1010   */\n      dup4\n        /* \"#utility.yul\":997:1014   */\n      add\n        /* \"#utility.yul\":988:994   */\n      dup5\n        /* \"#utility.yul\":944:1015   */\n      tag_103\n      jump\t// in\n    tag_136:\n        /* \"#utility.yul\":800:1022   */\n      swap3\n      swap2\n      pop\n      pop\n      jump\t// out\n        /* \"#utility.yul\":1109:1226   */\n    tag_105:\n        /* \"#utility.yul\":1218:1219   */\n      0x00\n        /* \"#utility.yul\":1215:1216   */\n      dup1\n        /* \"#utility.yul\":1208:1220   */\n      revert\n        /* \"#utility.yul\":1355:1477   */\n    tag_107:\n        /* \"#utility.yul\":1428:1452   */\n      tag_141\n        /* \"#utility.yul\":1446:1451   */\n      dup2\n        /* \"#utility.yul\":1428:1452   */\n      tag_102\n      jump\t// in\n    tag_141:\n        /* \"#utility.yul\":1421:1426   */\n      dup2\n        /* \"#utility.yul\":1418:1453   */\n      eq\n        /* \"#utility.yul\":1408:1471   */\n      tag_142\n      jumpi\n        /* \"#utility.yul\":1467:1468   */\n      0x00\n        /* \"#utility.yul\":1464:1465   */\n      dup1\n        /* \"#utility.yul\":1457:1469   */\n      revert\n        /* \"#utility.yul\":1408:1471   */\n    tag_142:\n        /* \"#utility.yul\":1355:1477   */\n      pop\n      jump\t// out\n        /* \"#utility.yul\":1483:1622   */\n    tag_108:\n        /* \"#utility.yul\":1529:1534   */\n      0x00\n        /* \"#utility.yul\":1567:1573   */\n      dup2\n        /* \"#utility.yul\":1554:1574   */\n      calldataload\n        /* \"#utility.yul\":1545:1574   */\n      swap1\n      pop\n        /* \"#utility.yul\":1583:1616   */\n      tag_144\n        /* \"#utility.yul\":1610:1615   */\n      dup2\n        /* \"#utility.yul\":1583:1616   */\n      tag_107\n      jump\t// in\n    tag_144:\n        /* \"#utility.yul\":1483:1622   */\n      swap3\n      swap2\n      pop\n      pop\n      jump\t// out\n        /* \"#utility.yul\":1628:1957   */\n    tag_34:\n        /* \"#utility.yul\":1687:1693   */\n      0x00\n        /* \"#utility.yul\":1736:1738   */\n      0x20\n        /* \"#utility.yul\":1724:1733   */\n      dup3\n        /* \"#utility.yul\":1715:1722   */\n      dup5\n        /* \"#utility.yul\":1711:1734   */\n      sub\n        /* \"#utility.yul\":1707:1739   */\n      slt\n        /* \"#utility.yul\":1704:1823   */\n      iszero\n      tag_146\n      jumpi\n        /* \"#utility.yul\":1742:1821   */\n      tag_147\n      tag_105\n      jump\t// in\n    tag_147:\n        /* \"#utility.yul\":1704:1823   */\n    tag_146:\n        /* \"#utility.yul\":1862:1863   */\n      0x00\n        /* \"#utility.yul\":1887:1940   */\n      tag_148\n        /* \"#utility.yul\":1932:1939   */\n      dup5\n        /* \"#utility.yul\":1923:1929   */\n      dup3\n        /* \"#utility.yul\":1912:1921   */\n      dup6\n        /* \"#utility.yul\":1908:1930   */\n      add\n        /* \"#utility.yul\":1887:1940   */\n      tag_108\n      jump\t// in\n    tag_148:\n        /* \"#utility.yul\":1877:1940   */\n      swap2\n      pop\n        /* \"#utility.yul\":1833:1950   */\n      pop\n        /* \"#utility.yul\":1628:1957   */\n      swap3\n      swap2\n      pop\n      pop\n      jump\t// out\n        /* \"#utility.yul\":1963:2627   */\n    tag_37:\n        /* \"#utility.yul\":2168:2172   */\n      0x00\n        /* \"#utility.yul\":2206:2209   */\n      0xa0\n        /* \"#utility.yul\":2195:2204   */\n      dup3\n        /* \"#utility.yul\":2191:2210   */\n      add\n        /* \"#utility.yul\":2183:2210   */\n      swap1\n      pop\n        /* \"#utility.yul\":2220:2291   */\n      tag_150\n        /* \"#utility.yul\":2288:2289   */\n      0x00\n        /* \"#utility.yul\":2277:2286   */\n      dup4\n        /* \"#utility.yul\":2273:2290   */\n      add\n        /* \"#utility.yul\":2264:2270   */\n      dup9\n        /* \"#utility.yul\":2220:2291   */\n      tag_100\n      jump\t// in\n    tag_150:\n        /* \"#utility.yul\":2301:2373   */\n      tag_151\n        /* \"#utility.yul\":2369:2371   */\n      0x20\n        /* \"#utility.yul\":2358:2367   */\n      dup4\n        /* \"#utility.yul\":2354:2372   */\n      add\n        /* \"#utility.yul\":2345:2351   */\n      dup8\n        /* \"#utility.yul\":2301:2373   */\n      tag_100\n      jump\t// in\n    tag_151:\n        /* \"#utility.yul\":2383:2455   */\n      tag_152\n        /* \"#utility.yul\":2451:2453   */\n      0x40\n        /* \"#utility.yul\":2440:2449   */\n      dup4\n        /* \"#utility.yul\":2436:2454   */\n      add\n        /* \"#utility.yul\":2427:2433   */\n      dup7\n        /* \"#utility.yul\":2383:2455   */\n      tag_100\n      jump\t// in\n    tag_152:\n        /* \"#utility.yul\":2465:2537   */\n      tag_153\n        /* \"#utility.yul\":2533:2535   */\n      0x60\n        /* \"#utility.yul\":2522:2531   */\n      dup4\n        /* \"#utility.yul\":2518:2536   */\n      add\n        /* \"#utility.yul\":2509:2515   */\n      dup6\n        /* \"#utility.yul\":2465:2537   */\n      tag_100\n      jump\t// in\n    tag_153:\n        /* \"#utility.yul\":2547:2620   */\n      tag_154\n        /* \"#utility.yul\":2615:2618   */\n      0x80\n        /* \"#utility.yul\":2604:2613   */\n      dup4\n        /* \"#utility.yul\":2600:2619   */\n      add\n        /* \"#utility.yul\":2591:2597   */\n      dup5\n        /* \"#utility.yul\":2547:2620   */\n      tag_100\n      jump\t// in\n    tag_154:\n        /* \"#utility.yul\":1963:2627   */\n      swap7\n      swap6\n      pop\n      pop\n      pop\n      pop\n      pop\n      pop\n      jump\t// out\n        /* \"#utility.yul\":2633:2755   */\n    tag_109:\n        /* \"#utility.yul\":2706:2730   */\n      tag_156\n        /* \"#utility.yul\":2724:2729   */\n      dup2\n        /* \"#utility.yul\":2706:2730   */\n      tag_99\n      jump\t// in\n    tag_156:\n        /* \"#utility.yul\":2699:2704   */\n      dup2\n        /* \"#utility.yul\":2696:2731   */\n      eq\n        /* \"#utility.yul\":2686:2749   */\n      tag_157\n      jumpi\n        /* \"#utility.yul\":2745:2746   */\n      0x00\n        /* \"#utility.yul\":2742:2743   */\n      dup1\n        /* \"#utility.yul\":2735:2747   */\n      revert\n        /* \"#utility.yul\":2686:2749   */\n    tag_157:\n        /* \"#utility.yul\":2633:2755   */\n      pop\n      jump\t// out\n        /* \"#utility.yul\":2761:2900   */\n    tag_110:\n        /* \"#utility.yul\":2807:2812   */\n      0x00\n        /* \"#utility.yul\":2845:2851   */\n      dup2\n        /* \"#utility.yul\":2832:2852   */\n      calldataload\n        /* \"#utility.yul\":2823:2852   */\n      swap1\n      pop\n        /* \"#utility.yul\":2861:2894   */\n      tag_159\n        /* \"#utility.yul\":2888:2893   */\n      dup2\n        /* \"#utility.yul\":2861:2894   */\n      tag_109\n      jump\t// in\n    tag_159:\n        /* \"#utility.yul\":2761:2900   */\n      swap3\n      swap2\n      pop\n      pop\n      jump\t// out\n        /* \"#utility.yul\":2906:3235   */\n    tag_44:\n        /* \"#utility.yul\":2965:2971   */\n      0x00\n        /* \"#utility.yul\":3014:3016   */\n      0x20\n        /* \"#utility.yul\":3002:3011   */\n      dup3\n        /* \"#utility.yul\":2993:3000   */\n      dup5\n        /* \"#utility.yul\":2989:3012   */\n      sub\n        /* \"#utility.yul\":2985:3017   */\n      slt\n        /* \"#utility.yul\":2982:3101   */\n      iszero\n      tag_161\n      jumpi\n        /* \"#utility.yul\":3020:3099   */\n      tag_162\n      tag_105\n      jump\t// in\n    tag_162:\n        /* \"#utility.yul\":2982:3101   */\n    tag_161:\n        /* \"#utility.yul\":3140:3141   */\n      0x00\n        /* \"#utility.yul\":3165:3218   */\n      tag_163\n        /* \"#utility.yul\":3210:3217   */\n      dup5\n        /* \"#utility.yul\":3201:3207   */\n      dup3\n        /* \"#utility.yul\":3190:3199   */\n      dup6\n        /* \"#utility.yul\":3186:3208   */\n      add\n        /* \"#utility.yul\":3165:3218   */\n      tag_110\n      jump\t// in\n    tag_163:\n        /* \"#utility.yul\":3155:3218   */\n      swap2\n      pop\n        /* \"#utility.yul\":3111:3228   */\n      pop\n        /* \"#utility.yul\":2906:3235   */\n      swap3\n      swap2\n      pop\n      pop\n      jump\t// out\n        /* \"#utility.yul\":3241:3301   */\n    tag_111:\n        /* \"#utility.yul\":3269:3272   */\n      0x00\n        /* \"#utility.yul\":3290:3295   */\n      dup2\n        /* \"#utility.yul\":3283:3295   */\n      swap1\n      pop\n        /* \"#utility.yul\":3241:3301   */\n      swap2\n      swap1\n      pop\n      jump\t// out\n        /* \"#utility.yul\":3307:3449   */\n    tag_112:\n        /* \"#utility.yul\":3357:3366   */\n      0x00\n        /* \"#utility.yul\":3390:3443   */\n      tag_166\n        /* \"#utility.yul\":3408:3442   */\n      tag_167\n        /* \"#utility.yul\":3417:3441   */\n      tag_168\n        /* \"#utility.yul\":3435:3440   */\n      dup5\n        /* \"#utility.yul\":3417:3441   */\n      tag_101\n      jump\t// in\n    tag_168:\n        /* \"#utility.yul\":3408:3442   */\n      tag_111\n      jump\t// in\n    tag_167:\n        /* \"#utility.yul\":3390:3443   */\n      tag_101\n      jump\t// in\n    tag_166:\n        /* \"#utility.yul\":3377:3443   */\n      swap1\n      pop\n        /* \"#utility.yul\":3307:3449   */\n      swap2\n      swap1\n      pop\n      jump\t// out\n        /* \"#utility.yul\":3455:3581   */\n    tag_113:\n        /* \"#utility.yul\":3505:3514   */\n      0x00\n        /* \"#utility.yul\":3538:3575   */\n      tag_170\n        /* \"#utility.yul\":3569:3574   */\n      dup3\n        /* \"#utility.yul\":3538:3575   */\n      tag_112\n      jump\t// in\n    tag_170:\n        /* \"#utility.yul\":3525:3575   */\n      swap1\n      pop\n        /* \"#utility.yul\":3455:3581   */\n      swap2\n      swap1\n      pop\n      jump\t// out\n        /* \"#utility.yul\":3587:3726   */\n    tag_114:\n        /* \"#utility.yul\":3650:3659   */\n      0x00\n        /* \"#utility.yul\":3683:3720   */\n      tag_172\n        /* \"#utility.yul\":3714:3719   */\n      dup3\n        /* \"#utility.yul\":3683:3720   */\n      tag_113\n      jump\t// in\n    tag_172:\n        /* \"#utility.yul\":3670:3720   */\n      swap1\n      pop\n        /* \"#utility.yul\":3587:3726   */\n      swap2\n      swap1\n      pop\n      jump\t// out\n        /* \"#utility.yul\":3732:3889   */\n    tag_115:\n        /* \"#utility.yul\":3832:3882   */\n      tag_174\n        /* \"#utility.yul\":3876:3881   */\n      dup2\n        /* \"#utility.yul\":3832:3882   */\n      tag_114\n      jump\t// in\n    tag_174:\n        /* \"#utility.yul\":3827:3830   */\n      dup3\n        /* \"#utility.yul\":3820:3883   */\n      mstore\n        /* \"#utility.yul\":3732:3889   */\n      pop\n      pop\n      jump\t// out\n        /* \"#utility.yul\":3895:4143   */\n    tag_54:\n        /* \"#utility.yul\":4001:4005   */\n      0x00\n        /* \"#utility.yul\":4039:4041   */\n      0x20\n        /* \"#utility.yul\":4028:4037   */\n      dup3\n        /* \"#utility.yul\":4024:4042   */\n      add\n        /* \"#utility.yul\":4016:4042   */\n      swap1\n      pop\n        /* \"#utility.yul\":4052:4136   */\n      tag_176\n        /* \"#utility.yul\":4133:4134   */\n      0x00\n        /* \"#utility.yul\":4122:4131   */\n      dup4\n        /* \"#utility.yul\":4118:4135   */\n      add\n        /* \"#utility.yul\":4109:4115   */\n      dup5\n        /* \"#utility.yul\":4052:4136   */\n      tag_115\n      jump\t// in\n    tag_176:\n        /* \"#utility.yul\":3895:4143   */\n      swap3\n      swap2\n      pop\n      pop\n      jump\t// out\n        /* \"#utility.yul\":4149:4481   */\n    tag_57:\n        /* \"#utility.yul\":4270:4274   */\n      0x00\n        /* \"#utility.yul\":4308:4310   */\n      0x40\n        /* \"#utility.yul\":4297:4306   */\n      dup3\n        /* \"#utility.yul\":4293:4311   */\n      add\n        /* \"#utility.yul\":4285:4311   */\n      swap1\n      pop\n        /* \"#utility.yul\":4321:4392   */\n      tag_178\n        /* \"#utility.yul\":4389:4390   */\n      0x00\n        /* \"#utility.yul\":4378:4387   */\n      dup4\n        /* \"#utility.yul\":4374:4391   */\n      add\n        /* \"#utility.yul\":4365:4371   */\n      dup6\n        /* \"#utility.yul\":4321:4392   */\n      tag_103\n      jump\t// in\n    tag_178:\n        /* \"#utility.yul\":4402:4474   */\n      tag_179\n        /* \"#utility.yul\":4470:4472   */\n      0x20\n        /* \"#utility.yul\":4459:4468   */\n      dup4\n        /* \"#utility.yul\":4455:4473   */\n      add\n        /* \"#utility.yul\":4446:4452   */\n      dup5\n        /* \"#utility.yul\":4402:4474   */\n      tag_100\n      jump\t// in\n    tag_179:\n        /* \"#utility.yul\":4149:4481   */\n      swap4\n      swap3\n      pop\n      pop\n      pop\n      jump\t// out\n        /* \"#utility.yul\":4487:4577   */\n    tag_116:\n        /* \"#utility.yul\":4521:4528   */\n      0x00\n        /* \"#utility.yul\":4564:4569   */\n      dup2\n        /* \"#utility.yul\":4557:4570   */\n      iszero\n        /* \"#utility.yul\":4550:4571   */\n      iszero\n        /* \"#utility.yul\":4539:4571   */\n      swap1\n      pop\n        /* \"#utility.yul\":4487:4577   */\n      swap2\n      swap1\n      pop\n      jump\t// out\n        /* \"#utility.yul\":4583:4699   */\n    tag_117:\n        /* \"#utility.yul\":4653:4674   */\n      tag_182\n        /* \"#utility.yul\":4668:4673   */\n      dup2\n        /* \"#utility.yul\":4653:4674   */\n      tag_116\n      jump\t// in\n    tag_182:\n        /* \"#utility.yul\":4646:4651   */\n      dup2\n        /* \"#utility.yul\":4643:4675   */\n      eq\n        /* \"#utility.yul\":4633:4693   */\n      tag_183\n      jumpi\n        /* \"#utility.yul\":4689:4690   */\n      0x00\n        /* \"#utility.yul\":4686:4687   */\n      dup1\n        /* \"#utility.yul\":4679:4691   */\n      revert\n        /* \"#utility.yul\":4633:4693   */\n    tag_183:\n        /* \"#utility.yul\":4583:4699   */\n      pop\n      jump\t// out\n        /* \"#utility.yul\":4705:4842   */\n    tag_118:\n        /* \"#utility.yul\":4759:4764   */\n      0x00\n        /* \"#utility.yul\":4790:4796   */\n      dup2\n        /* \"#utility.yul\":4784:4797   */\n      mload\n        /* \"#utility.yul\":4775:4797   */\n      swap1\n      pop\n        /* \"#utility.yul\":4806:4836   */\n      tag_185\n        /* \"#utility.yul\":4830:4835   */\n      dup2\n        /* \"#utility.yul\":4806:4836   */\n      tag_117\n      jump\t// in\n    tag_185:\n        /* \"#utility.yul\":4705:4842   */\n      swap3\n      swap2\n      pop\n      pop\n      jump\t// out\n        /* \"#utility.yul\":4848:5193   */\n    tag_61:\n        /* \"#utility.yul\":4915:4921   */\n      0x00\n        /* \"#utility.yul\":4964:4966   */\n      0x20\n        /* \"#utility.yul\":4952:4961   */\n      dup3\n        /* \"#utility.yul\":4943:4950   */\n      dup5\n        /* \"#utility.yul\":4939:4962   */\n      sub\n        /* \"#utility.yul\":4935:4967   */\n      slt\n        /* \"#utility.yul\":4932:5051   */\n      iszero\n      tag_187\n      jumpi\n        /* \"#utility.yul\":4970:5049   */\n      tag_188\n      tag_105\n      jump\t// in\n    tag_188:\n        /* \"#utility.yul\":4932:5051   */\n    tag_187:\n        /* \"#utility.yul\":5090:5091   */\n      0x00\n        /* \"#utility.yul\":5115:5176   */\n      tag_189\n        /* \"#utility.yul\":5168:5175   */\n      dup5\n        /* \"#utility.yul\":5159:5165   */\n      dup3\n        /* \"#utility.yul\":5148:5157   */\n      dup6\n        /* \"#utility.yul\":5144:5166   */\n      add\n        /* \"#utility.yul\":5115:5176   */\n      tag_118\n      jump\t// in\n    tag_189:\n        /* \"#utility.yul\":5105:5176   */\n      swap2\n      pop\n        /* \"#utility.yul\":5061:5186   */\n      pop\n        /* \"#utility.yul\":4848:5193   */\n      swap3\n      swap2\n      pop\n      pop\n      jump\t// out\n        /* \"#utility.yul\":5199:5379   */\n    tag_119:\n        /* \"#utility.yul\":5247:5324   */\n      0x4e487b7100000000000000000000000000000000000000000000000000000000\n        /* \"#utility.yul\":5244:5245   */\n      0x00\n        /* \"#utility.yul\":5237:5325   */\n      mstore\n        /* \"#utility.yul\":5344:5348   */\n      0x11\n        /* \"#utility.yul\":5341:5342   */\n      0x04\n        /* \"#utility.yul\":5334:5349   */\n      mstore\n        /* \"#utility.yul\":5368:5372   */\n      0x24\n        /* \"#utility.yul\":5365:5366   */\n      0x00\n        /* \"#utility.yul\":5358:5373   */\n      revert\n        /* \"#utility.yul\":5385:5576   */\n    tag_69:\n        /* \"#utility.yul\":5425:5429   */\n      0x00\n        /* \"#utility.yul\":5445:5465   */\n      tag_192\n        /* \"#utility.yul\":5463:5464   */\n      dup3\n        /* \"#utility.yul\":5445:5465   */\n      tag_99\n      jump\t// in\n    tag_192:\n        /* \"#utility.yul\":5440:5465   */\n      swap2\n      pop\n        /* \"#utility.yul\":5479:5499   */\n      tag_193\n        /* \"#utility.yul\":5497:5498   */\n      dup4\n        /* \"#utility.yul\":5479:5499   */\n      tag_99\n      jump\t// in\n    tag_193:\n        /* \"#utility.yul\":5474:5499   */\n      swap3\n      pop\n        /* \"#utility.yul\":5518:5519   */\n      dup3\n        /* \"#utility.yul\":5515:5516   */\n      dup3\n        /* \"#utility.yul\":5512:5520   */\n      lt\n        /* \"#utility.yul\":5509:5543   */\n      iszero\n      tag_194\n      jumpi\n        /* \"#utility.yul\":5523:5541   */\n      tag_195\n      tag_119\n      jump\t// in\n    tag_195:\n        /* \"#utility.yul\":5509:5543   */\n    tag_194:\n        /* \"#utility.yul\":5568:5569   */\n      dup3\n        /* \"#utility.yul\":5565:5566   */\n      dup3\n        /* \"#utility.yul\":5561:5570   */\n      sub\n        /* \"#utility.yul\":5553:5570   */\n      swap1\n      pop\n        /* \"#utility.yul\":5385:5576   */\n      swap3\n      swap2\n      pop\n      pop\n      jump\t// out\n        /* \"#utility.yul\":5582:6024   */\n    tag_78:\n        /* \"#utility.yul\":5731:5735   */\n      0x00\n        /* \"#utility.yul\":5769:5771   */\n      0x60\n        /* \"#utility.yul\":5758:5767   */\n      dup3\n        /* \"#utility.yul\":5754:5772   */\n      add\n        /* \"#utility.yul\":5746:5772   */\n      swap1\n      pop\n        /* \"#utility.yul\":5782:5853   */\n      tag_197\n        /* \"#utility.yul\":5850:5851   */\n      0x00\n        /* \"#utility.yul\":5839:5848   */\n      dup4\n        /* \"#utility.yul\":5835:5852   */\n      add\n        /* \"#utility.yul\":5826:5832   */\n      dup7\n        /* \"#utility.yul\":5782:5853   */\n      tag_103\n      jump\t// in\n    tag_197:\n        /* \"#utility.yul\":5863:5935   */\n      tag_198\n        /* \"#utility.yul\":5931:5933   */\n      0x20\n        /* \"#utility.yul\":5920:5929   */\n      dup4\n        /* \"#utility.yul\":5916:5934   */\n      add\n        /* \"#utility.yul\":5907:5913   */\n      dup6\n        /* \"#utility.yul\":5863:5935   */\n      tag_103\n      jump\t// in\n    tag_198:\n        /* \"#utility.yul\":5945:6017   */\n      tag_199\n        /* \"#utility.yul\":6013:6015   */\n      0x40\n        /* \"#utility.yul\":6002:6011   */\n      dup4\n        /* \"#utility.yul\":5998:6016   */\n      add\n        /* \"#utility.yul\":5989:5995   */\n      dup5\n        /* \"#utility.yul\":5945:6017   */\n      tag_100\n      jump\t// in\n    tag_199:\n        /* \"#utility.yul\":5582:6024   */\n      swap5\n      swap4\n      pop\n      pop\n      pop\n      pop\n      jump\t// out\n        /* \"#utility.yul\":6030:6378   */\n    tag_83:\n        /* \"#utility.yul\":6070:6077   */\n      0x00\n        /* \"#utility.yul\":6093:6113   */\n      tag_201\n        /* \"#utility.yul\":6111:6112   */\n      dup3\n        /* \"#utility.yul\":6093:6113   */\n      tag_99\n      jump\t// in\n    tag_201:\n        /* \"#utility.yul\":6088:6113   */\n      swap2\n      pop\n        /* \"#utility.yul\":6127:6147   */\n      tag_202\n        /* \"#utility.yul\":6145:6146   */\n      dup4\n        /* \"#utility.yul\":6127:6147   */\n      tag_99\n      jump\t// in\n    tag_202:\n        /* \"#utility.yul\":6122:6147   */\n      swap3\n      pop\n        /* \"#utility.yul\":6315:6316   */\n      dup2\n        /* \"#utility.yul\":6247:6313   */\n      0xffffffffffffffffffffffffffffffffffffffffffffffffffffffffffffffff\n        /* \"#utility.yul\":6243:6317   */\n      div\n        /* \"#utility.yul\":6240:6241   */\n      dup4\n        /* \"#utility.yul\":6237:6318   */\n      gt\n        /* \"#utility.yul\":6232:6233   */\n      dup3\n        /* \"#utility.yul\":6225:6234   */\n      iszero\n        /* \"#utility.yul\":6218:6235   */\n      iszero\n        /* \"#utility.yul\":6214:6319   */\n      and\n        /* \"#utility.yul\":6211:6342   */\n      iszero\n      tag_203\n      jumpi\n        /* \"#utility.yul\":6322:6340   */\n      tag_204\n      tag_119\n      jump\t// in\n    tag_204:\n        /* \"#utility.yul\":6211:6342   */\n    tag_203:\n        /* \"#utility.yul\":6370:6371   */\n      dup3\n        /* \"#utility.yul\":6367:6368   */\n      dup3\n        /* \"#utility.yul\":6363:6372   */\n      mul\n        /* \"#utility.yul\":6352:6372   */\n      swap1\n      pop\n        /* \"#utility.yul\":6030:6378   */\n      swap3\n      swap2\n      pop\n      pop\n      jump\t// out\n        /* \"#utility.yul\":6384:6564   */\n    tag_120:\n        /* \"#utility.yul\":6432:6509   */\n      0x4e487b7100000000000000000000000000000000000000000000000000000000\n        /* \"#utility.yul\":6429:6430   */\n      0x00\n        /* \"#utility.yul\":6422:6510   */\n      mstore\n        /* \"#utility.yul\":6529:6533   */\n      0x12\n        /* \"#utility.yul\":6526:6527   */\n      0x04\n        /* \"#utility.yul\":6519:6534   */\n      mstore\n        /* \"#utility.yul\":6553:6557   */\n      0x24\n        /* \"#utility.yul\":6550:6551   */\n      0x00\n        /* \"#utility.yul\":6543:6558   */\n      revert\n        /* \"#utility.yul\":6570:6755   */\n    tag_85:\n        /* \"#utility.yul\":6610:6611   */\n      0x00\n        /* \"#utility.yul\":6627:6647   */\n      tag_207\n        /* \"#utility.yul\":6645:6646   */\n      dup3\n        /* \"#utility.yul\":6627:6647   */\n      tag_99\n      jump\t// in\n    tag_207:\n        /* \"#utility.yul\":6622:6647   */\n      swap2\n      pop\n        /* \"#utility.yul\":6661:6681   */\n      tag_208\n        /* \"#utility.yul\":6679:6680   */\n      dup4\n        /* \"#utility.yul\":6661:6681   */\n      tag_99\n      jump\t// in\n    tag_208:\n        /* \"#utility.yul\":6656:6681   */\n      swap3\n      pop\n        /* \"#utility.yul\":6700:6701   */\n      dup3\n        /* \"#utility.yul\":6690:6725   */\n      tag_209\n      jumpi\n        /* \"#utility.yul\":6705:6723   */\n      tag_210\n      tag_120\n      jump\t// in\n    tag_210:\n        /* \"#utility.yul\":6690:6725   */\n    tag_209:\n        /* \"#utility.yul\":6747:6748   */\n      dup3\n        /* \"#utility.yul\":6744:6745   */\n      dup3\n        /* \"#utility.yul\":6740:6749   */\n      div\n        /* \"#utility.yul\":6735:6749   */\n      swap1\n      pop\n        /* \"#utility.yul\":6570:6755   */\n      swap3\n      swap2\n      pop\n      pop\n      jump\t// out\n        /* \"#utility.yul\":6761:7066   */\n    tag_90:\n        /* \"#utility.yul\":6801:6804   */\n      0x00\n        /* \"#utility.yul\":6820:6840   */\n      tag_212\n        /* \"#utility.yul\":6838:6839   */\n      dup3\n        /* \"#utility.yul\":6820:6840   */\n      tag_99\n      jump\t// in\n    tag_212:\n        /* \"#utility.yul\":6815:6840   */\n      swap2\n      pop\n        /* \"#utility.yul\":6854:6874   */\n      tag_213\n        /* \"#utility.yul\":6872:6873   */\n      dup4\n        /* \"#utility.yul\":6854:6874   */\n      tag_99\n      jump\t// in\n    tag_213:\n        /* \"#utility.yul\":6849:6874   */\n      swap3\n      pop\n        /* \"#utility.yul\":7008:7009   */\n      dup3\n        /* \"#utility.yul\":6940:7006   */\n      0xffffffffffffffffffffffffffffffffffffffffffffffffffffffffffffffff\n        /* \"#utility.yul\":6936:7010   */\n      sub\n        /* \"#utility.yul\":6933:6934   */\n      dup3\n        /* \"#utility.yul\":6930:7011   */\n      gt\n        /* \"#utility.yul\":6927:7034   */\n      iszero\n      tag_214\n      jumpi\n        /* \"#utility.yul\":7014:7032   */\n      tag_215\n      tag_119\n      jump\t// in\n    tag_215:\n        /* \"#utility.yul\":6927:7034   */\n    tag_214:\n        /* \"#utility.yul\":7058:7059   */\n      dup3\n        /* \"#utility.yul\":7055:7056   */\n      dup3\n        /* \"#utility.yul\":7051:7060   */\n      add\n        /* \"#utility.yul\":7044:7060   */\n      swap1\n      pop\n        /* \"#utility.yul\":6761:7066   */\n      swap3\n      swap2\n      pop\n      pop\n      jump\t// out\n        /* \"#utility.yul\":7072:7241   */\n    tag_121:\n        /* \"#utility.yul\":7156:7167   */\n      0x00\n        /* \"#utility.yul\":7190:7196   */\n      dup3\n        /* \"#utility.yul\":7185:7188   */\n      dup3\n        /* \"#utility.yul\":7178:7197   */\n      mstore\n        /* \"#utility.yul\":7230:7234   */\n      0x20\n        /* \"#utility.yul\":7225:7228   */\n      dup3\n        /* \"#utility.yul\":7221:7235   */\n      add\n        /* \"#utility.yul\":7206:7235   */\n      swap1\n      pop\n        /* \"#utility.yul\":7072:7241   */\n      swap3\n      swap2\n      pop\n      pop\n      jump\t// out\n        /* \"#utility.yul\":7247:7406   */\n    tag_122:\n        /* \"#utility.yul\":7387:7398   */\n      0x6e6f74206f776e65720000000000000000000000000000000000000000000000\n        /* \"#utility.yul\":7383:7384   */\n      0x00\n        /* \"#utility.yul\":7375:7381   */\n      dup3\n        /* \"#utility.yul\":7371:7385   */\n      add\n        /* \"#utility.yul\":7364:7399   */\n      mstore\n        /* \"#utility.yul\":7247:7406   */\n      pop\n      jump\t// out\n        /* \"#utility.yul\":7412:7777   */\n    tag_123:\n        /* \"#utility.yul\":7554:7557   */\n      0x00\n        /* \"#utility.yul\":7575:7641   */\n      tag_219\n        /* \"#utility.yul\":7639:7640   */\n      0x09\n        /* \"#utility.yul\":7634:7637   */\n      dup4\n        /* \"#utility.yul\":7575:7641   */\n      tag_121\n      jump\t// in\n    tag_219:\n        /* \"#utility.yul\":7568:7641   */\n      swap2\n      pop\n        /* \"#utility.yul\":7650:7743   */\n      tag_220\n        /* \"#utility.yul\":7739:7742   */\n      dup3\n        /* \"#utility.yul\":7650:7743   */\n      tag_122\n      jump\t// in\n    tag_220:\n        /* \"#utility.yul\":7768:7770   */\n      0x20\n        /* \"#utility.yul\":7763:7766   */\n      dup3\n        /* \"#utility.yul\":7759:7771   */\n      add\n        /* \"#utility.yul\":7752:7771   */\n      swap1\n      pop\n        /* \"#utility.yul\":7412:7777   */\n      swap2\n      swap1\n      pop\n      jump\t// out\n        /* \"#utility.yul\":7783:8202   */\n    tag_97:\n        /* \"#utility.yul\":7949:7953   */\n      0x00\n        /* \"#utility.yul\":7987:7989   */\n      0x20\n        /* \"#utility.yul\":7976:7985   */\n      dup3\n        /* \"#utility.yul\":7972:7990   */\n      add\n        /* \"#utility.yul\":7964:7990   */\n      swap1\n      pop\n        /* \"#utility.yul\":8036:8045   */\n      dup2\n        /* \"#utility.yul\":8030:8034   */\n      dup2\n        /* \"#utility.yul\":8026:8046   */\n      sub\n        /* \"#utility.yul\":8022:8023   */\n      0x00\n        /* \"#utility.yul\":8011:8020   */\n      dup4\n        /* \"#utility.yul\":8007:8024   */\n      add\n        /* \"#utility.yul\":8000:8047   */\n      mstore\n        /* \"#utility.yul\":8064:8195   */\n      tag_222\n        /* \"#utility.yul\":8190:8194   */\n      dup2\n        /* \"#utility.yul\":8064:8195   */\n      tag_123\n      jump\t// in\n    tag_222:\n        /* \"#utility.yul\":8056:8195   */\n      swap1\n      pop\n        /* \"#utility.yul\":7783:8202   */\n      swap2\n      swap1\n      pop\n      jump\t// out\n\n    auxdata: 0xa2646970667358221220c010056a9e7d11c557943283b97c4b30be98e8d6327589e0d69610221d8ed15764736f6c634300080f0033\n}\n",
				"bytecode": {
					"linkReferences": {},
					"object": "608060405260016000553480156200001657600080fd5b50604051620012ec380380620012ec83398181016040528101906200003c919062000137565b80600160006101000a81548173ffffffffffffffffffffffffffffffffffffffff021916908373ffffffffffffffffffffffffffffffffffffffff16021790555080600560006101000a81548173ffffffffffffffffffffffffffffffffffffffff021916908373ffffffffffffffffffffffffffffffffffffffff16021790555060326003819055505062000169565b600080fd5b600073ffffffffffffffffffffffffffffffffffffffff82169050919050565b6000620000ff82620000d2565b9050919050565b6200011181620000f2565b81146200011d57600080fd5b50565b600081519050620001318162000106565b92915050565b60006020828403121562000150576200014f620000cd565b5b6000620001608482850162000120565b91505092915050565b61117380620001796000396000f3fe6080604052600436106100915760003560e01c80638da7ad23116100595780638da7ad231461012b5780639d76ea581461016c578063a694fc3a14610197578063b2237ba3146101b3578063bf0ae63d146101dc57610091565b806353b645e51461009657806371ca337d146100c157806373cf575a146100ec57806383a6deb5146100f65780638da5cb5b14610100575b600080fd5b3480156100a257600080fd5b506100ab610207565b6040516100b89190610c8d565b60405180910390f35b3480156100cd57600080fd5b506100d661020d565b6040516100e39190610c8d565b60405180910390f35b6100f4610213565b005b6100fe61062c565b005b34801561010c57600080fd5b50610115610830565b6040516101229190610ce9565b60405180910390f35b34801561013757600080fd5b50610152600480360381019061014d9190610d35565b610856565b604051610163959493929190610d62565b60405180910390f35b34801561017857600080fd5b5061018161088c565b60405161018e9190610ce9565b60405180910390f35b6101b160048036038101906101ac9190610de1565b6108b2565b005b3480156101bf57600080fd5b506101da60048036038101906101d59190610de1565b610bb4565b005b3480156101e857600080fd5b506101f1610c4e565b6040516101fe9190610e6d565b60405180910390f35b60005481565b60035481565b600560009054906101000a900473ffffffffffffffffffffffffffffffffffffffff1673ffffffffffffffffffffffffffffffffffffffff1663a9059cbb33600460003373ffffffffffffffffffffffffffffffffffffffff1673ffffffffffffffffffffffffffffffffffffffff168152602001908152602001600020600001546040518363ffffffff1660e01b81526004016102b2929190610e88565b6020604051808303816000875af11580156102d1573d6000803e3d6000fd5b505050506040513d601f19601f820116820180604052508101906102f59190610ee9565b50600560009054906101000a900473ffffffffffffffffffffffffffffffffffffffff1673ffffffffffffffffffffffffffffffffffffffff1663a9059cbb33600460003373ffffffffffffffffffffffffffffffffffffffff1673ffffffffffffffffffffffffffffffffffffffff168152602001908152602001600020600101546040518363ffffffff1660e01b8152600401610395929190610e88565b6020604051808303816000875af11580156103b4573d6000803e3d6000fd5b505050506040513d601f19601f820116820180604052508101906103d89190610ee9565b503373ffffffffffffffffffffffffffffffffffffffff167fb24546d975e2628748efc9aced80665e0fad66272033e5c0ea25fd3afac99795600460003373ffffffffffffffffffffffffffffffffffffffff1673ffffffffffffffffffffffffffffffffffffffff168152602001908152602001600020600001546040516104619190610c8d565b60405180910390a23373ffffffffffffffffffffffffffffffffffffffff167fd6717f327e0cb88b4a97a7f67a453e9258252c34937ccbdd86de7cb840e7def3600460003373ffffffffffffffffffffffffffffffffffffffff1673ffffffffffffffffffffffffffffffffffffffff168152602001908152602001600020600101546040516104f19190610c8d565b60405180910390a242600460003373ffffffffffffffffffffffffffffffffffffffff1673ffffffffffffffffffffffffffffffffffffffff16815260200190815260200160002060040181905550600460003373ffffffffffffffffffffffffffffffffffffffff1673ffffffffffffffffffffffffffffffffffffffff168152602001908152602001600020600001546000808282546105939190610f45565b925050819055506000600460003373ffffffffffffffffffffffffffffffffffffffff1673ffffffffffffffffffffffffffffffffffffffff168152602001908152602001600020600001819055506000600460003373ffffffffffffffffffffffffffffffffffffffff1673ffffffffffffffffffffffffffffffffffffffff16815260200190815260200160002060010181905550565b600560009054906101000a900473ffffffffffffffffffffffffffffffffffffffff1673ffffffffffffffffffffffffffffffffffffffff1663a9059cbb33600460003373ffffffffffffffffffffffffffffffffffffffff1673ffffffffffffffffffffffffffffffffffffffff168152602001908152602001600020600101546040518363ffffffff1660e01b81526004016106cb929190610e88565b6020604051808303816000875af11580156106ea573d6000803e3d6000fd5b505050506040513d601f19601f8201168201806040525081019061070e9190610ee9565b503373ffffffffffffffffffffffffffffffffffffffff167fd6717f327e0cb88b4a97a7f67a453e9258252c34937ccbdd86de7cb840e7def3600460003373ffffffffffffffffffffffffffffffffffffffff1673ffffffffffffffffffffffffffffffffffffffff168152602001908152602001600020600101546040516107979190610c8d565b60405180910390a242600460003373ffffffffffffffffffffffffffffffffffffffff1673ffffffffffffffffffffffffffffffffffffffff168152602001908152602001600020600401819055506000600460003373ffffffffffffffffffffffffffffffffffffffff1673ffffffffffffffffffffffffffffffffffffffff16815260200190815260200160002060010181905550565b600260009054906101000a900473ffffffffffffffffffffffffffffffffffffffff1681565b60046020528060005260406000206000915090508060000154908060010154908060020154908060030154908060040154905085565b600160009054906101000a900473ffffffffffffffffffffffffffffffffffffffff1681565b600560009054906101000a900473ffffffffffffffffffffffffffffffffffffffff1673ffffffffffffffffffffffffffffffffffffffff166323b872dd3330846040518463ffffffff1660e01b815260040161091193929190610f79565b6020604051808303816000875af1158015610930573d6000803e3d6000fd5b505050506040513d601f19601f820116820180604052508101906109549190610ee9565b506301e133806064600354600460003373ffffffffffffffffffffffffffffffffffffffff1673ffffffffffffffffffffffffffffffffffffffff168152602001908152602001600020600001546109ac9190610fb0565b6109b69190611039565b6109c09190611039565b600460003373ffffffffffffffffffffffffffffffffffffffff1673ffffffffffffffffffffffffffffffffffffffff1681526020019081526020016000206004015442610a0e9190610f45565b610a189190610fb0565b600460003373ffffffffffffffffffffffffffffffffffffffff1673ffffffffffffffffffffffffffffffffffffffff16815260200190815260200160002060010154610a65919061106a565b600460003373ffffffffffffffffffffffffffffffffffffffff1673ffffffffffffffffffffffffffffffffffffffff1681526020019081526020016000206001018190555080600460003373ffffffffffffffffffffffffffffffffffffffff1673ffffffffffffffffffffffffffffffffffffffff1681526020019081526020016000206000016000828254610afd919061106a565b9250508190555042600460003373ffffffffffffffffffffffffffffffffffffffff1673ffffffffffffffffffffffffffffffffffffffff1681526020019081526020016000206004018190555080600080828254610b5c919061106a565b925050819055503373ffffffffffffffffffffffffffffffffffffffff167febedb8b3c678666e7f36970bc8f57abf6d8fa2e828c0da91ea5b75bf68ed101a82604051610ba99190610c8d565b60405180910390a250565b600260009054906101000a900473ffffffffffffffffffffffffffffffffffffffff1673ffffffffffffffffffffffffffffffffffffffff163373ffffffffffffffffffffffffffffffffffffffff1614610c44576040517f08c379a0000000000000000000000000000000000000000000000000000000008152600401610c3b9061111d565b60405180910390fd5b8060038190555050565b600560009054906101000a900473ffffffffffffffffffffffffffffffffffffffff1681565b6000819050919050565b610c8781610c74565b82525050565b6000602082019050610ca26000830184610c7e565b92915050565b600073ffffffffffffffffffffffffffffffffffffffff82169050919050565b6000610cd382610ca8565b9050919050565b610ce381610cc8565b82525050565b6000602082019050610cfe6000830184610cda565b92915050565b600080fd5b610d1281610cc8565b8114610d1d57600080fd5b50565b600081359050610d2f81610d09565b92915050565b600060208284031215610d4b57610d4a610d04565b5b6000610d5984828501610d20565b91505092915050565b600060a082019050610d776000830188610c7e565b610d846020830187610c7e565b610d916040830186610c7e565b610d9e6060830185610c7e565b610dab6080830184610c7e565b9695505050505050565b610dbe81610c74565b8114610dc957600080fd5b50565b600081359050610ddb81610db5565b92915050565b600060208284031215610df757610df6610d04565b5b6000610e0584828501610dcc565b91505092915050565b6000819050919050565b6000610e33610e2e610e2984610ca8565b610e0e565b610ca8565b9050919050565b6000610e4582610e18565b9050919050565b6000610e5782610e3a565b9050919050565b610e6781610e4c565b82525050565b6000602082019050610e826000830184610e5e565b92915050565b6000604082019050610e9d6000830185610cda565b610eaa6020830184610c7e565b9392505050565b60008115159050919050565b610ec681610eb1565b8114610ed157600080fd5b50565b600081519050610ee381610ebd565b92915050565b600060208284031215610eff57610efe610d04565b5b6000610f0d84828501610ed4565b91505092915050565b7f4e487b7100000000000000000000000000000000000000000000000000000000600052601160045260246000fd5b6000610f5082610c74565b9150610f5b83610c74565b925082821015610f6e57610f6d610f16565b5b828203905092915050565b6000606082019050610f8e6000830186610cda565b610f9b6020830185610cda565b610fa86040830184610c7e565b949350505050565b6000610fbb82610c74565b9150610fc683610c74565b9250817fffffffffffffffffffffffffffffffffffffffffffffffffffffffffffffffff0483118215151615610fff57610ffe610f16565b5b828202905092915050565b7f4e487b7100000000000000000000000000000000000000000000000000000000600052601260045260246000fd5b600061104482610c74565b915061104f83610c74565b92508261105f5761105e61100a565b5b828204905092915050565b600061107582610c74565b915061108083610c74565b9250827fffffffffffffffffffffffffffffffffffffffffffffffffffffffffffffffff038211156110b5576110b4610f16565b5b828201905092915050565b600082825260208201905092915050565b7f6e6f74206f776e65720000000000000000000000000000000000000000000000600082015250565b60006111076009836110c0565b9150611112826110d1565b602082019050919050565b60006020820190508181036000830152611136816110fa565b905091905056fea2646970667358221220c010056a9e7d11c557943283b97c4b30be98e8d6327589e0d69610221d8ed15764736f6c634300080f0033",
					"opcodes": "PUSH1 0x80 PUSH1 0x40 MSTORE PUSH1 0x1 PUSH1 0x0 SSTORE CALLVALUE DUP1 ISZERO PUSH3 0x16 JUMPI PUSH1 0x0 DUP1 REVERT JUMPDEST POP PUSH1 0x40 MLOAD PUSH3 0x12EC CODESIZE SUB DUP1 PUSH3 0x12EC DUP4 CODECOPY DUP2 DUP2 ADD PUSH1 0x40 MSTORE DUP2 ADD SWAP1 PUSH3 0x3C SWAP2 SWAP1 PUSH3 0x137 JUMP JUMPDEST DUP1 PUSH1 0x1 PUSH1 0x0 PUSH2 0x100 EXP DUP2 SLOAD DUP2 PUSH20 0xFFFFFFFFFFFFFFFFFFFFFFFFFFFFFFFFFFFFFFFF MUL NOT AND SWAP1 DUP4 PUSH20 0xFFFFFFFFFFFFFFFFFFFFFFFFFFFFFFFFFFFFFFFF AND MUL OR SWAP1 SSTORE POP DUP1 PUSH1 0x5 PUSH1 0x0 PUSH2 0x100 EXP DUP2 SLOAD DUP2 PUSH20 0xFFFFFFFFFFFFFFFFFFFFFFFFFFFFFFFFFFFFFFFF MUL NOT AND SWAP1 DUP4 PUSH20 0xFFFFFFFFFFFFFFFFFFFFFFFFFFFFFFFFFFFFFFFF AND MUL OR SWAP1 SSTORE POP PUSH1 0x32 PUSH1 0x3 DUP2 SWAP1 SSTORE POP POP PUSH3 0x169 JUMP JUMPDEST PUSH1 0x0 DUP1 REVERT JUMPDEST PUSH1 0x0 PUSH20 0xFFFFFFFFFFFFFFFFFFFFFFFFFFFFFFFFFFFFFFFF DUP3 AND SWAP1 POP SWAP2 SWAP1 POP JUMP JUMPDEST PUSH1 0x0 PUSH3 0xFF DUP3 PUSH3 0xD2 JUMP JUMPDEST SWAP1 POP SWAP2 SWAP1 POP JUMP JUMPDEST PUSH3 0x111 DUP2 PUSH3 0xF2 JUMP JUMPDEST DUP2 EQ PUSH3 0x11D JUMPI PUSH1 0x0 DUP1 REVERT JUMPDEST POP JUMP JUMPDEST PUSH1 0x0 DUP2 MLOAD SWAP1 POP PUSH3 0x131 DUP2 PUSH3 0x106 JUMP JUMPDEST SWAP3 SWAP2 POP POP JUMP JUMPDEST PUSH1 0x0 PUSH1 0x20 DUP3 DUP5 SUB SLT ISZERO PUSH3 0x150 JUMPI PUSH3 0x14F PUSH3 0xCD JUMP JUMPDEST JUMPDEST PUSH1 0x0 PUSH3 0x160 DUP5 DUP3 DUP6 ADD PUSH3 0x120 JUMP JUMPDEST SWAP2 POP POP SWAP3 SWAP2 POP POP JUMP JUMPDEST PUSH2 0x1173 DUP1 PUSH3 0x179 PUSH1 0x0 CODECOPY PUSH1 0x0 RETURN INVALID PUSH1 0x80 PUSH1 0x40 MSTORE PUSH1 0x4 CALLDATASIZE LT PUSH2 0x91 JUMPI PUSH1 0x0 CALLDATALOAD PUSH1 0xE0 SHR DUP1 PUSH4 0x8DA7AD23 GT PUSH2 0x59 JUMPI DUP1 PUSH4 0x8DA7AD23 EQ PUSH2 0x12B JUMPI DUP1 PUSH4 0x9D76EA58 EQ PUSH2 0x16C JUMPI DUP1 PUSH4 0xA694FC3A EQ PUSH2 0x197 JUMPI DUP1 PUSH4 0xB2237BA3 EQ PUSH2 0x1B3 JUMPI DUP1 PUSH4 0xBF0AE63D EQ PUSH2 0x1DC JUMPI PUSH2 0x91 JUMP JUMPDEST DUP1 PUSH4 0x53B645E5 EQ PUSH2 0x96 JUMPI DUP1 PUSH4 0x71CA337D EQ PUSH2 0xC1 JUMPI DUP1 PUSH4 0x73CF575A EQ PUSH2 0xEC JUMPI DUP1 PUSH4 0x83A6DEB5 EQ PUSH2 0xF6 JUMPI DUP1 PUSH4 0x8DA5CB5B EQ PUSH2 0x100 JUMPI JUMPDEST PUSH1 0x0 DUP1 REVERT JUMPDEST CALLVALUE DUP1 ISZERO PUSH2 0xA2 JUMPI PUSH1 0x0 DUP1 REVERT JUMPDEST POP PUSH2 0xAB PUSH2 0x207 JUMP JUMPDEST PUSH1 0x40 MLOAD PUSH2 0xB8 SWAP2 SWAP1 PUSH2 0xC8D JUMP JUMPDEST PUSH1 0x40 MLOAD DUP1 SWAP2 SUB SWAP1 RETURN JUMPDEST CALLVALUE DUP1 ISZERO PUSH2 0xCD JUMPI PUSH1 0x0 DUP1 REVERT JUMPDEST POP PUSH2 0xD6 PUSH2 0x20D JUMP JUMPDEST PUSH1 0x40 MLOAD PUSH2 0xE3 SWAP2 SWAP1 PUSH2 0xC8D JUMP JUMPDEST PUSH1 0x40 MLOAD DUP1 SWAP2 SUB SWAP1 RETURN JUMPDEST PUSH2 0xF4 PUSH2 0x213 JUMP JUMPDEST STOP JUMPDEST PUSH2 0xFE PUSH2 0x62C JUMP JUMPDEST STOP JUMPDEST CALLVALUE DUP1 ISZERO PUSH2 0x10C JUMPI PUSH1 0x0 DUP1 REVERT JUMPDEST POP PUSH2 0x115 PUSH2 0x830 JUMP JUMPDEST PUSH1 0x40 MLOAD PUSH2 0x122 SWAP2 SWAP1 PUSH2 0xCE9 JUMP JUMPDEST PUSH1 0x40 MLOAD DUP1 SWAP2 SUB SWAP1 RETURN JUMPDEST CALLVALUE DUP1 ISZERO PUSH2 0x137 JUMPI PUSH1 0x0 DUP1 REVERT JUMPDEST POP PUSH2 0x152 PUSH1 0x4 DUP1 CALLDATASIZE SUB DUP2 ADD SWAP1 PUSH2 0x14D SWAP2 SWAP1 PUSH2 0xD35 JUMP JUMPDEST PUSH2 0x856 JUMP JUMPDEST PUSH1 0x40 MLOAD PUSH2 0x163 SWAP6 SWAP5 SWAP4 SWAP3 SWAP2 SWAP1 PUSH2 0xD62 JUMP JUMPDEST PUSH1 0x40 MLOAD DUP1 SWAP2 SUB SWAP1 RETURN JUMPDEST CALLVALUE DUP1 ISZERO PUSH2 0x178 JUMPI PUSH1 0x0 DUP1 REVERT JUMPDEST POP PUSH2 0x181 PUSH2 0x88C JUMP JUMPDEST PUSH1 0x40 MLOAD PUSH2 0x18E SWAP2 SWAP1 PUSH2 0xCE9 JUMP JUMPDEST PUSH1 0x40 MLOAD DUP1 SWAP2 SUB SWAP1 RETURN JUMPDEST PUSH2 0x1B1 PUSH1 0x4 DUP1 CALLDATASIZE SUB DUP2 ADD SWAP1 PUSH2 0x1AC SWAP2 SWAP1 PUSH2 0xDE1 JUMP JUMPDEST PUSH2 0x8B2 JUMP JUMPDEST STOP JUMPDEST CALLVALUE DUP1 ISZERO PUSH2 0x1BF JUMPI PUSH1 0x0 DUP1 REVERT JUMPDEST POP PUSH2 0x1DA PUSH1 0x4 DUP1 CALLDATASIZE SUB DUP2 ADD SWAP1 PUSH2 0x1D5 SWAP2 SWAP1 PUSH2 0xDE1 JUMP JUMPDEST PUSH2 0xBB4 JUMP JUMPDEST STOP JUMPDEST CALLVALUE DUP1 ISZERO PUSH2 0x1E8 JUMPI PUSH1 0x0 DUP1 REVERT JUMPDEST POP PUSH2 0x1F1 PUSH2 0xC4E JUMP JUMPDEST PUSH1 0x40 MLOAD PUSH2 0x1FE SWAP2 SWAP1 PUSH2 0xE6D JUMP JUMPDEST PUSH1 0x40 MLOAD DUP1 SWAP2 SUB SWAP1 RETURN JUMPDEST PUSH1 0x0 SLOAD DUP2 JUMP JUMPDEST PUSH1 0x3 SLOAD DUP2 JUMP JUMPDEST PUSH1 0x5 PUSH1 0x0 SWAP1 SLOAD SWAP1 PUSH2 0x100 EXP SWAP1 DIV PUSH20 0xFFFFFFFFFFFFFFFFFFFFFFFFFFFFFFFFFFFFFFFF AND PUSH20 0xFFFFFFFFFFFFFFFFFFFFFFFFFFFFFFFFFFFFFFFF AND PUSH4 0xA9059CBB CALLER PUSH1 0x4 PUSH1 0x0 CALLER PUSH20 0xFFFFFFFFFFFFFFFFFFFFFFFFFFFFFFFFFFFFFFFF AND PUSH20 0xFFFFFFFFFFFFFFFFFFFFFFFFFFFFFFFFFFFFFFFF AND DUP2 MSTORE PUSH1 0x20 ADD SWAP1 DUP2 MSTORE PUSH1 0x20 ADD PUSH1 0x0 KECCAK256 PUSH1 0x0 ADD SLOAD PUSH1 0x40 MLOAD DUP4 PUSH4 0xFFFFFFFF AND PUSH1 0xE0 SHL DUP2 MSTORE PUSH1 0x4 ADD PUSH2 0x2B2 SWAP3 SWAP2 SWAP1 PUSH2 0xE88 JUMP JUMPDEST PUSH1 0x20 PUSH1 0x40 MLOAD DUP1 DUP4 SUB DUP2 PUSH1 0x0 DUP8 GAS CALL ISZERO DUP1 ISZERO PUSH2 0x2D1 JUMPI RETURNDATASIZE PUSH1 0x0 DUP1 RETURNDATACOPY RETURNDATASIZE PUSH1 0x0 REVERT JUMPDEST POP POP POP POP PUSH1 0x40 MLOAD RETURNDATASIZE PUSH1 0x1F NOT PUSH1 0x1F DUP3 ADD AND DUP3 ADD DUP1 PUSH1 0x40 MSTORE POP DUP2 ADD SWAP1 PUSH2 0x2F5 SWAP2 SWAP1 PUSH2 0xEE9 JUMP JUMPDEST POP PUSH1 0x5 PUSH1 0x0 SWAP1 SLOAD SWAP1 PUSH2 0x100 EXP SWAP1 DIV PUSH20 0xFFFFFFFFFFFFFFFFFFFFFFFFFFFFFFFFFFFFFFFF AND PUSH20 0xFFFFFFFFFFFFFFFFFFFFFFFFFFFFFFFFFFFFFFFF AND PUSH4 0xA9059CBB CALLER PUSH1 0x4 PUSH1 0x0 CALLER PUSH20 0xFFFFFFFFFFFFFFFFFFFFFFFFFFFFFFFFFFFFFFFF AND PUSH20 0xFFFFFFFFFFFFFFFFFFFFFFFFFFFFFFFFFFFFFFFF AND DUP2 MSTORE PUSH1 0x20 ADD SWAP1 DUP2 MSTORE PUSH1 0x20 ADD PUSH1 0x0 KECCAK256 PUSH1 0x1 ADD SLOAD PUSH1 0x40 MLOAD DUP4 PUSH4 0xFFFFFFFF AND PUSH1 0xE0 SHL DUP2 MSTORE PUSH1 0x4 ADD PUSH2 0x395 SWAP3 SWAP2 SWAP1 PUSH2 0xE88 JUMP JUMPDEST PUSH1 0x20 PUSH1 0x40 MLOAD DUP1 DUP4 SUB DUP2 PUSH1 0x0 DUP8 GAS CALL ISZERO DUP1 ISZERO PUSH2 0x3B4 JUMPI RETURNDATASIZE PUSH1 0x0 DUP1 RETURNDATACOPY RETURNDATASIZE PUSH1 0x0 REVERT JUMPDEST POP POP POP POP PUSH1 0x40 MLOAD RETURNDATASIZE PUSH1 0x1F NOT PUSH1 0x1F DUP3 ADD AND DUP3 ADD DUP1 PUSH1 0x40 MSTORE POP DUP2 ADD SWAP1 PUSH2 0x3D8 SWAP2 SWAP1 PUSH2 0xEE9 JUMP JUMPDEST POP CALLER PUSH20 0xFFFFFFFFFFFFFFFFFFFFFFFFFFFFFFFFFFFFFFFF AND PUSH32 0xB24546D975E2628748EFC9ACED80665E0FAD66272033E5C0EA25FD3AFAC99795 PUSH1 0x4 PUSH1 0x0 CALLER PUSH20 0xFFFFFFFFFFFFFFFFFFFFFFFFFFFFFFFFFFFFFFFF AND PUSH20 0xFFFFFFFFFFFFFFFFFFFFFFFFFFFFFFFFFFFFFFFF AND DUP2 MSTORE PUSH1 0x20 ADD SWAP1 DUP2 MSTORE PUSH1 0x20 ADD PUSH1 0x0 KECCAK256 PUSH1 0x0 ADD SLOAD PUSH1 0x40 MLOAD PUSH2 0x461 SWAP2 SWAP1 PUSH2 0xC8D JUMP JUMPDEST PUSH1 0x40 MLOAD DUP1 SWAP2 SUB SWAP1 LOG2 CALLER PUSH20 0xFFFFFFFFFFFFFFFFFFFFFFFFFFFFFFFFFFFFFFFF AND PUSH32 0xD6717F327E0CB88B4A97A7F67A453E9258252C34937CCBDD86DE7CB840E7DEF3 PUSH1 0x4 PUSH1 0x0 CALLER PUSH20 0xFFFFFFFFFFFFFFFFFFFFFFFFFFFFFFFFFFFFFFFF AND PUSH20 0xFFFFFFFFFFFFFFFFFFFFFFFFFFFFFFFFFFFFFFFF AND DUP2 MSTORE PUSH1 0x20 ADD SWAP1 DUP2 MSTORE PUSH1 0x20 ADD PUSH1 0x0 KECCAK256 PUSH1 0x1 ADD SLOAD PUSH1 0x40 MLOAD PUSH2 0x4F1 SWAP2 SWAP1 PUSH2 0xC8D JUMP JUMPDEST PUSH1 0x40 MLOAD DUP1 SWAP2 SUB SWAP1 LOG2 TIMESTAMP PUSH1 0x4 PUSH1 0x0 CALLER PUSH20 0xFFFFFFFFFFFFFFFFFFFFFFFFFFFFFFFFFFFFFFFF AND PUSH20 0xFFFFFFFFFFFFFFFFFFFFFFFFFFFFFFFFFFFFFFFF AND DUP2 MSTORE PUSH1 0x20 ADD SWAP1 DUP2 MSTORE PUSH1 0x20 ADD PUSH1 0x0 KECCAK256 PUSH1 0x4 ADD DUP2 SWAP1 SSTORE POP PUSH1 0x4 PUSH1 0x0 CALLER PUSH20 0xFFFFFFFFFFFFFFFFFFFFFFFFFFFFFFFFFFFFFFFF AND PUSH20 0xFFFFFFFFFFFFFFFFFFFFFFFFFFFFFFFFFFFFFFFF AND DUP2 MSTORE PUSH1 0x20 ADD SWAP1 DUP2 MSTORE PUSH1 0x20 ADD PUSH1 0x0 KECCAK256 PUSH1 0x0 ADD SLOAD PUSH1 0x0 DUP1 DUP3 DUP3 SLOAD PUSH2 0x593 SWAP2 SWAP1 PUSH2 0xF45 JUMP JUMPDEST SWAP3 POP POP DUP2 SWAP1 SSTORE POP PUSH1 0x0 PUSH1 0x4 PUSH1 0x0 CALLER PUSH20 0xFFFFFFFFFFFFFFFFFFFFFFFFFFFFFFFFFFFFFFFF AND PUSH20 0xFFFFFFFFFFFFFFFFFFFFFFFFFFFFFFFFFFFFFFFF AND DUP2 MSTORE PUSH1 0x20 ADD SWAP1 DUP2 MSTORE PUSH1 0x20 ADD PUSH1 0x0 KECCAK256 PUSH1 0x0 ADD DUP2 SWAP1 SSTORE POP PUSH1 0x0 PUSH1 0x4 PUSH1 0x0 CALLER PUSH20 0xFFFFFFFFFFFFFFFFFFFFFFFFFFFFFFFFFFFFFFFF AND PUSH20 0xFFFFFFFFFFFFFFFFFFFFFFFFFFFFFFFFFFFFFFFF AND DUP2 MSTORE PUSH1 0x20 ADD SWAP1 DUP2 MSTORE PUSH1 0x20 ADD PUSH1 0x0 KECCAK256 PUSH1 0x1 ADD DUP2 SWAP1 SSTORE POP JUMP JUMPDEST PUSH1 0x5 PUSH1 0x0 SWAP1 SLOAD SWAP1 PUSH2 0x100 EXP SWAP1 DIV PUSH20 0xFFFFFFFFFFFFFFFFFFFFFFFFFFFFFFFFFFFFFFFF AND PUSH20 0xFFFFFFFFFFFFFFFFFFFFFFFFFFFFFFFFFFFFFFFF AND PUSH4 0xA9059CBB CALLER PUSH1 0x4 PUSH1 0x0 CALLER PUSH20 0xFFFFFFFFFFFFFFFFFFFFFFFFFFFFFFFFFFFFFFFF AND PUSH20 0xFFFFFFFFFFFFFFFFFFFFFFFFFFFFFFFFFFFFFFFF AND DUP2 MSTORE PUSH1 0x20 ADD SWAP1 DUP2 MSTORE PUSH1 0x20 ADD PUSH1 0x0 KECCAK256 PUSH1 0x1 ADD SLOAD PUSH1 0x40 MLOAD DUP4 PUSH4 0xFFFFFFFF AND PUSH1 0xE0 SHL DUP2 MSTORE PUSH1 0x4 ADD PUSH2 0x6CB SWAP3 SWAP2 SWAP1 PUSH2 0xE88 JUMP JUMPDEST PUSH1 0x20 PUSH1 0x40 MLOAD DUP1 DUP4 SUB DUP2 PUSH1 0x0 DUP8 GAS CALL ISZERO DUP1 ISZERO PUSH2 0x6EA JUMPI RETURNDATASIZE PUSH1 0x0 DUP1 RETURNDATACOPY RETURNDATASIZE PUSH1 0x0 REVERT JUMPDEST POP POP POP POP PUSH1 0x40 MLOAD RETURNDATASIZE PUSH1 0x1F NOT PUSH1 0x1F DUP3 ADD AND DUP3 ADD DUP1 PUSH1 0x40 MSTORE POP DUP2 ADD SWAP1 PUSH2 0x70E SWAP2 SWAP1 PUSH2 0xEE9 JUMP JUMPDEST POP CALLER PUSH20 0xFFFFFFFFFFFFFFFFFFFFFFFFFFFFFFFFFFFFFFFF AND PUSH32 0xD6717F327E0CB88B4A97A7F67A453E9258252C34937CCBDD86DE7CB840E7DEF3 PUSH1 0x4 PUSH1 0x0 CALLER PUSH20 0xFFFFFFFFFFFFFFFFFFFFFFFFFFFFFFFFFFFFFFFF AND PUSH20 0xFFFFFFFFFFFFFFFFFFFFFFFFFFFFFFFFFFFFFFFF AND DUP2 MSTORE PUSH1 0x20 ADD SWAP1 DUP2 MSTORE PUSH1 0x20 ADD PUSH1 0x0 KECCAK256 PUSH1 0x1 ADD SLOAD PUSH1 0x40 MLOAD PUSH2 0x797 SWAP2 SWAP1 PUSH2 0xC8D JUMP JUMPDEST PUSH1 0x40 MLOAD DUP1 SWAP2 SUB SWAP1 LOG2 TIMESTAMP PUSH1 0x4 PUSH1 0x0 CALLER PUSH20 0xFFFFFFFFFFFFFFFFFFFFFFFFFFFFFFFFFFFFFFFF AND PUSH20 0xFFFFFFFFFFFFFFFFFFFFFFFFFFFFFFFFFFFFFFFF AND DUP2 MSTORE PUSH1 0x20 ADD SWAP1 DUP2 MSTORE PUSH1 0x20 ADD PUSH1 0x0 KECCAK256 PUSH1 0x4 ADD DUP2 SWAP1 SSTORE POP PUSH1 0x0 PUSH1 0x4 PUSH1 0x0 CALLER PUSH20 0xFFFFFFFFFFFFFFFFFFFFFFFFFFFFFFFFFFFFFFFF AND PUSH20 0xFFFFFFFFFFFFFFFFFFFFFFFFFFFFFFFFFFFFFFFF AND DUP2 MSTORE PUSH1 0x20 ADD SWAP1 DUP2 MSTORE PUSH1 0x20 ADD PUSH1 0x0 KECCAK256 PUSH1 0x1 ADD DUP2 SWAP1 SSTORE POP JUMP JUMPDEST PUSH1 0x2 PUSH1 0x0 SWAP1 SLOAD SWAP1 PUSH2 0x100 EXP SWAP1 DIV PUSH20 0xFFFFFFFFFFFFFFFFFFFFFFFFFFFFFFFFFFFFFFFF AND DUP2 JUMP JUMPDEST PUSH1 0x4 PUSH1 0x20 MSTORE DUP1 PUSH1 0x0 MSTORE PUSH1 0x40 PUSH1 0x0 KECCAK256 PUSH1 0x0 SWAP2 POP SWAP1 POP DUP1 PUSH1 0x0 ADD SLOAD SWAP1 DUP1 PUSH1 0x1 ADD SLOAD SWAP1 DUP1 PUSH1 0x2 ADD SLOAD SWAP1 DUP1 PUSH1 0x3 ADD SLOAD SWAP1 DUP1 PUSH1 0x4 ADD SLOAD SWAP1 POP DUP6 JUMP JUMPDEST PUSH1 0x1 PUSH1 0x0 SWAP1 SLOAD SWAP1 PUSH2 0x100 EXP SWAP1 DIV PUSH20 0xFFFFFFFFFFFFFFFFFFFFFFFFFFFFFFFFFFFFFFFF AND DUP2 JUMP JUMPDEST PUSH1 0x5 PUSH1 0x0 SWAP1 SLOAD SWAP1 PUSH2 0x100 EXP SWAP1 DIV PUSH20 0xFFFFFFFFFFFFFFFFFFFFFFFFFFFFFFFFFFFFFFFF AND PUSH20 0xFFFFFFFFFFFFFFFFFFFFFFFFFFFFFFFFFFFFFFFF AND PUSH4 0x23B872DD CALLER ADDRESS DUP5 PUSH1 0x40 MLOAD DUP5 PUSH4 0xFFFFFFFF AND PUSH1 0xE0 SHL DUP2 MSTORE PUSH1 0x4 ADD PUSH2 0x911 SWAP4 SWAP3 SWAP2 SWAP1 PUSH2 0xF79 JUMP JUMPDEST PUSH1 0x20 PUSH1 0x40 MLOAD DUP1 DUP4 SUB DUP2 PUSH1 0x0 DUP8 GAS CALL ISZERO DUP1 ISZERO PUSH2 0x930 JUMPI RETURNDATASIZE PUSH1 0x0 DUP1 RETURNDATACOPY RETURNDATASIZE PUSH1 0x0 REVERT JUMPDEST POP POP POP POP PUSH1 0x40 MLOAD RETURNDATASIZE PUSH1 0x1F NOT PUSH1 0x1F DUP3 ADD AND DUP3 ADD DUP1 PUSH1 0x40 MSTORE POP DUP2 ADD SWAP1 PUSH2 0x954 SWAP2 SWAP1 PUSH2 0xEE9 JUMP JUMPDEST POP PUSH4 0x1E13380 PUSH1 0x64 PUSH1 0x3 SLOAD PUSH1 0x4 PUSH1 0x0 CALLER PUSH20 0xFFFFFFFFFFFFFFFFFFFFFFFFFFFFFFFFFFFFFFFF AND PUSH20 0xFFFFFFFFFFFFFFFFFFFFFFFFFFFFFFFFFFFFFFFF AND DUP2 MSTORE PUSH1 0x20 ADD SWAP1 DUP2 MSTORE PUSH1 0x20 ADD PUSH1 0x0 KECCAK256 PUSH1 0x0 ADD SLOAD PUSH2 0x9AC SWAP2 SWAP1 PUSH2 0xFB0 JUMP JUMPDEST PUSH2 0x9B6 SWAP2 SWAP1 PUSH2 0x1039 JUMP JUMPDEST PUSH2 0x9C0 SWAP2 SWAP1 PUSH2 0x1039 JUMP JUMPDEST PUSH1 0x4 PUSH1 0x0 CALLER PUSH20 0xFFFFFFFFFFFFFFFFFFFFFFFFFFFFFFFFFFFFFFFF AND PUSH20 0xFFFFFFFFFFFFFFFFFFFFFFFFFFFFFFFFFFFFFFFF AND DUP2 MSTORE PUSH1 0x20 ADD SWAP1 DUP2 MSTORE PUSH1 0x20 ADD PUSH1 0x0 KECCAK256 PUSH1 0x4 ADD SLOAD TIMESTAMP PUSH2 0xA0E SWAP2 SWAP1 PUSH2 0xF45 JUMP JUMPDEST PUSH2 0xA18 SWAP2 SWAP1 PUSH2 0xFB0 JUMP JUMPDEST PUSH1 0x4 PUSH1 0x0 CALLER PUSH20 0xFFFFFFFFFFFFFFFFFFFFFFFFFFFFFFFFFFFFFFFF AND PUSH20 0xFFFFFFFFFFFFFFFFFFFFFFFFFFFFFFFFFFFFFFFF AND DUP2 MSTORE PUSH1 0x20 ADD SWAP1 DUP2 MSTORE PUSH1 0x20 ADD PUSH1 0x0 KECCAK256 PUSH1 0x1 ADD SLOAD PUSH2 0xA65 SWAP2 SWAP1 PUSH2 0x106A JUMP JUMPDEST PUSH1 0x4 PUSH1 0x0 CALLER PUSH20 0xFFFFFFFFFFFFFFFFFFFFFFFFFFFFFFFFFFFFFFFF AND PUSH20 0xFFFFFFFFFFFFFFFFFFFFFFFFFFFFFFFFFFFFFFFF AND DUP2 MSTORE PUSH1 0x20 ADD SWAP1 DUP2 MSTORE PUSH1 0x20 ADD PUSH1 0x0 KECCAK256 PUSH1 0x1 ADD DUP2 SWAP1 SSTORE POP DUP1 PUSH1 0x4 PUSH1 0x0 CALLER PUSH20 0xFFFFFFFFFFFFFFFFFFFFFFFFFFFFFFFFFFFFFFFF AND PUSH20 0xFFFFFFFFFFFFFFFFFFFFFFFFFFFFFFFFFFFFFFFF AND DUP2 MSTORE PUSH1 0x20 ADD SWAP1 DUP2 MSTORE PUSH1 0x20 ADD PUSH1 0x0 KECCAK256 PUSH1 0x0 ADD PUSH1 0x0 DUP3 DUP3 SLOAD PUSH2 0xAFD SWAP2 SWAP1 PUSH2 0x106A JUMP JUMPDEST SWAP3 POP POP DUP2 SWAP1 SSTORE POP TIMESTAMP PUSH1 0x4 PUSH1 0x0 CALLER PUSH20 0xFFFFFFFFFFFFFFFFFFFFFFFFFFFFFFFFFFFFFFFF AND PUSH20 0xFFFFFFFFFFFFFFFFFFFFFFFFFFFFFFFFFFFFFFFF AND DUP2 MSTORE PUSH1 0x20 ADD SWAP1 DUP2 MSTORE PUSH1 0x20 ADD PUSH1 0x0 KECCAK256 PUSH1 0x4 ADD DUP2 SWAP1 SSTORE POP DUP1 PUSH1 0x0 DUP1 DUP3 DUP3 SLOAD PUSH2 0xB5C SWAP2 SWAP1 PUSH2 0x106A JUMP JUMPDEST SWAP3 POP POP DUP2 SWAP1 SSTORE POP CALLER PUSH20 0xFFFFFFFFFFFFFFFFFFFFFFFFFFFFFFFFFFFFFFFF AND PUSH32 0xEBEDB8B3C678666E7F36970BC8F57ABF6D8FA2E828C0DA91EA5B75BF68ED101A DUP3 PUSH1 0x40 MLOAD PUSH2 0xBA9 SWAP2 SWAP1 PUSH2 0xC8D JUMP JUMPDEST PUSH1 0x40 MLOAD DUP1 SWAP2 SUB SWAP1 LOG2 POP JUMP JUMPDEST PUSH1 0x2 PUSH1 0x0 SWAP1 SLOAD SWAP1 PUSH2 0x100 EXP SWAP1 DIV PUSH20 0xFFFFFFFFFFFFFFFFFFFFFFFFFFFFFFFFFFFFFFFF AND PUSH20 0xFFFFFFFFFFFFFFFFFFFFFFFFFFFFFFFFFFFFFFFF AND CALLER PUSH20 0xFFFFFFFFFFFFFFFFFFFFFFFFFFFFFFFFFFFFFFFF AND EQ PUSH2 0xC44 JUMPI PUSH1 0x40 MLOAD PUSH32 0x8C379A000000000000000000000000000000000000000000000000000000000 DUP2 MSTORE PUSH1 0x4 ADD PUSH2 0xC3B SWAP1 PUSH2 0x111D JUMP JUMPDEST PUSH1 0x40 MLOAD DUP1 SWAP2 SUB SWAP1 REVERT JUMPDEST DUP1 PUSH1 0x3 DUP2 SWAP1 SSTORE POP POP JUMP JUMPDEST PUSH1 0x5 PUSH1 0x0 SWAP1 SLOAD SWAP1 PUSH2 0x100 EXP SWAP1 DIV PUSH20 0xFFFFFFFFFFFFFFFFFFFFFFFFFFFFFFFFFFFFFFFF AND DUP2 JUMP JUMPDEST PUSH1 0x0 DUP2 SWAP1 POP SWAP2 SWAP1 POP JUMP JUMPDEST PUSH2 0xC87 DUP2 PUSH2 0xC74 JUMP JUMPDEST DUP3 MSTORE POP POP JUMP JUMPDEST PUSH1 0x0 PUSH1 0x20 DUP3 ADD SWAP1 POP PUSH2 0xCA2 PUSH1 0x0 DUP4 ADD DUP5 PUSH2 0xC7E JUMP JUMPDEST SWAP3 SWAP2 POP POP JUMP JUMPDEST PUSH1 0x0 PUSH20 0xFFFFFFFFFFFFFFFFFFFFFFFFFFFFFFFFFFFFFFFF DUP3 AND SWAP1 POP SWAP2 SWAP1 POP JUMP JUMPDEST PUSH1 0x0 PUSH2 0xCD3 DUP3 PUSH2 0xCA8 JUMP JUMPDEST SWAP1 POP SWAP2 SWAP1 POP JUMP JUMPDEST PUSH2 0xCE3 DUP2 PUSH2 0xCC8 JUMP JUMPDEST DUP3 MSTORE POP POP JUMP JUMPDEST PUSH1 0x0 PUSH1 0x20 DUP3 ADD SWAP1 POP PUSH2 0xCFE PUSH1 0x0 DUP4 ADD DUP5 PUSH2 0xCDA JUMP JUMPDEST SWAP3 SWAP2 POP POP JUMP JUMPDEST PUSH1 0x0 DUP1 REVERT JUMPDEST PUSH2 0xD12 DUP2 PUSH2 0xCC8 JUMP JUMPDEST DUP2 EQ PUSH2 0xD1D JUMPI PUSH1 0x0 DUP1 REVERT JUMPDEST POP JUMP JUMPDEST PUSH1 0x0 DUP2 CALLDATALOAD SWAP1 POP PUSH2 0xD2F DUP2 PUSH2 0xD09 JUMP JUMPDEST SWAP3 SWAP2 POP POP JUMP JUMPDEST PUSH1 0x0 PUSH1 0x20 DUP3 DUP5 SUB SLT ISZERO PUSH2 0xD4B JUMPI PUSH2 0xD4A PUSH2 0xD04 JUMP JUMPDEST JUMPDEST PUSH1 0x0 PUSH2 0xD59 DUP5 DUP3 DUP6 ADD PUSH2 0xD20 JUMP JUMPDEST SWAP2 POP POP SWAP3 SWAP2 POP POP JUMP JUMPDEST PUSH1 0x0 PUSH1 0xA0 DUP3 ADD SWAP1 POP PUSH2 0xD77 PUSH1 0x0 DUP4 ADD DUP9 PUSH2 0xC7E JUMP JUMPDEST PUSH2 0xD84 PUSH1 0x20 DUP4 ADD DUP8 PUSH2 0xC7E JUMP JUMPDEST PUSH2 0xD91 PUSH1 0x40 DUP4 ADD DUP7 PUSH2 0xC7E JUMP JUMPDEST PUSH2 0xD9E PUSH1 0x60 DUP4 ADD DUP6 PUSH2 0xC7E JUMP JUMPDEST PUSH2 0xDAB PUSH1 0x80 DUP4 ADD DUP5 PUSH2 0xC7E JUMP JUMPDEST SWAP7 SWAP6 POP POP POP POP POP POP JUMP JUMPDEST PUSH2 0xDBE DUP2 PUSH2 0xC74 JUMP JUMPDEST DUP2 EQ PUSH2 0xDC9 JUMPI PUSH1 0x0 DUP1 REVERT JUMPDEST POP JUMP JUMPDEST PUSH1 0x0 DUP2 CALLDATALOAD SWAP1 POP PUSH2 0xDDB DUP2 PUSH2 0xDB5 JUMP JUMPDEST SWAP3 SWAP2 POP POP JUMP JUMPDEST PUSH1 0x0 PUSH1 0x20 DUP3 DUP5 SUB SLT ISZERO PUSH2 0xDF7 JUMPI PUSH2 0xDF6 PUSH2 0xD04 JUMP JUMPDEST JUMPDEST PUSH1 0x0 PUSH2 0xE05 DUP5 DUP3 DUP6 ADD PUSH2 0xDCC JUMP JUMPDEST SWAP2 POP POP SWAP3 SWAP2 POP POP JUMP JUMPDEST PUSH1 0x0 DUP2 SWAP1 POP SWAP2 SWAP1 POP JUMP JUMPDEST PUSH1 0x0 PUSH2 0xE33 PUSH2 0xE2E PUSH2 0xE29 DUP5 PUSH2 0xCA8 JUMP JUMPDEST PUSH2 0xE0E JUMP JUMPDEST PUSH2 0xCA8 JUMP JUMPDEST SWAP1 POP SWAP2 SWAP1 POP JUMP JUMPDEST PUSH1 0x0 PUSH2 0xE45 DUP3 PUSH2 0xE18 JUMP JUMPDEST SWAP1 POP SWAP2 SWAP1 POP JUMP JUMPDEST PUSH1 0x0 PUSH2 0xE57 DUP3 PUSH2 0xE3A JUMP JUMPDEST SWAP1 POP SWAP2 SWAP1 POP JUMP JUMPDEST PUSH2 0xE67 DUP2 PUSH2 0xE4C JUMP JUMPDEST DUP3 MSTORE POP POP JUMP JUMPDEST PUSH1 0x0 PUSH1 0x20 DUP3 ADD SWAP1 POP PUSH2 0xE82 PUSH1 0x0 DUP4 ADD DUP5 PUSH2 0xE5E JUMP JUMPDEST SWAP3 SWAP2 POP POP JUMP JUMPDEST PUSH1 0x0 PUSH1 0x40 DUP3 ADD SWAP1 POP PUSH2 0xE9D PUSH1 0x0 DUP4 ADD DUP6 PUSH2 0xCDA JUMP JUMPDEST PUSH2 0xEAA PUSH1 0x20 DUP4 ADD DUP5 PUSH2 0xC7E JUMP JUMPDEST SWAP4 SWAP3 POP POP POP JUMP JUMPDEST PUSH1 0x0 DUP2 ISZERO ISZERO SWAP1 POP SWAP2 SWAP1 POP JUMP JUMPDEST PUSH2 0xEC6 DUP2 PUSH2 0xEB1 JUMP JUMPDEST DUP2 EQ PUSH2 0xED1 JUMPI PUSH1 0x0 DUP1 REVERT JUMPDEST POP JUMP JUMPDEST PUSH1 0x0 DUP2 MLOAD SWAP1 POP PUSH2 0xEE3 DUP2 PUSH2 0xEBD JUMP JUMPDEST SWAP3 SWAP2 POP POP JUMP JUMPDEST PUSH1 0x0 PUSH1 0x20 DUP3 DUP5 SUB SLT ISZERO PUSH2 0xEFF JUMPI PUSH2 0xEFE PUSH2 0xD04 JUMP JUMPDEST JUMPDEST PUSH1 0x0 PUSH2 0xF0D DUP5 DUP3 DUP6 ADD PUSH2 0xED4 JUMP JUMPDEST SWAP2 POP POP SWAP3 SWAP2 POP POP JUMP JUMPDEST PUSH32 0x4E487B7100000000000000000000000000000000000000000000000000000000 PUSH1 0x0 MSTORE PUSH1 0x11 PUSH1 0x4 MSTORE PUSH1 0x24 PUSH1 0x0 REVERT JUMPDEST PUSH1 0x0 PUSH2 0xF50 DUP3 PUSH2 0xC74 JUMP JUMPDEST SWAP2 POP PUSH2 0xF5B DUP4 PUSH2 0xC74 JUMP JUMPDEST SWAP3 POP DUP3 DUP3 LT ISZERO PUSH2 0xF6E JUMPI PUSH2 0xF6D PUSH2 0xF16 JUMP JUMPDEST JUMPDEST DUP3 DUP3 SUB SWAP1 POP SWAP3 SWAP2 POP POP JUMP JUMPDEST PUSH1 0x0 PUSH1 0x60 DUP3 ADD SWAP1 POP PUSH2 0xF8E PUSH1 0x0 DUP4 ADD DUP7 PUSH2 0xCDA JUMP JUMPDEST PUSH2 0xF9B PUSH1 0x20 DUP4 ADD DUP6 PUSH2 0xCDA JUMP JUMPDEST PUSH2 0xFA8 PUSH1 0x40 DUP4 ADD DUP5 PUSH2 0xC7E JUMP JUMPDEST SWAP5 SWAP4 POP POP POP POP JUMP JUMPDEST PUSH1 0x0 PUSH2 0xFBB DUP3 PUSH2 0xC74 JUMP JUMPDEST SWAP2 POP PUSH2 0xFC6 DUP4 PUSH2 0xC74 JUMP JUMPDEST SWAP3 POP DUP2 PUSH32 0xFFFFFFFFFFFFFFFFFFFFFFFFFFFFFFFFFFFFFFFFFFFFFFFFFFFFFFFFFFFFFFFF DIV DUP4 GT DUP3 ISZERO ISZERO AND ISZERO PUSH2 0xFFF JUMPI PUSH2 0xFFE PUSH2 0xF16 JUMP JUMPDEST JUMPDEST DUP3 DUP3 MUL SWAP1 POP SWAP3 SWAP2 POP POP JUMP JUMPDEST PUSH32 0x4E487B7100000000000000000000000000000000000000000000000000000000 PUSH1 0x0 MSTORE PUSH1 0x12 PUSH1 0x4 MSTORE PUSH1 0x24 PUSH1 0x0 REVERT JUMPDEST PUSH1 0x0 PUSH2 0x1044 DUP3 PUSH2 0xC74 JUMP JUMPDEST SWAP2 POP PUSH2 0x104F DUP4 PUSH2 0xC74 JUMP JUMPDEST SWAP3 POP DUP3 PUSH2 0x105F JUMPI PUSH2 0x105E PUSH2 0x100A JUMP JUMPDEST JUMPDEST DUP3 DUP3 DIV SWAP1 POP SWAP3 SWAP2 POP POP JUMP JUMPDEST PUSH1 0x0 PUSH2 0x1075 DUP3 PUSH2 0xC74 JUMP JUMPDEST SWAP2 POP PUSH2 0x1080 DUP4 PUSH2 0xC74 JUMP JUMPDEST SWAP3 POP DUP3 PUSH32 0xFFFFFFFFFFFFFFFFFFFFFFFFFFFFFFFFFFFFFFFFFFFFFFFFFFFFFFFFFFFFFFFF SUB DUP3 GT ISZERO PUSH2 0x10B5 JUMPI PUSH2 0x10B4 PUSH2 0xF16 JUMP JUMPDEST JUMPDEST DUP3 DUP3 ADD SWAP1 POP SWAP3 SWAP2 POP POP JUMP JUMPDEST PUSH1 0x0 DUP3 DUP3 MSTORE PUSH1 0x20 DUP3 ADD SWAP1 POP SWAP3 SWAP2 POP POP JUMP JUMPDEST PUSH32 0x6E6F74206F776E65720000000000000000000000000000000000000000000000 PUSH1 0x0 DUP3 ADD MSTORE POP JUMP JUMPDEST PUSH1 0x0 PUSH2 0x1107 PUSH1 0x9 DUP4 PUSH2 0x10C0 JUMP JUMPDEST SWAP2 POP PUSH2 0x1112 DUP3 PUSH2 0x10D1 JUMP JUMPDEST PUSH1 0x20 DUP3 ADD SWAP1 POP SWAP2 SWAP1 POP JUMP JUMPDEST PUSH1 0x0 PUSH1 0x20 DUP3 ADD SWAP1 POP DUP2 DUP2 SUB PUSH1 0x0 DUP4 ADD MSTORE PUSH2 0x1136 DUP2 PUSH2 0x10FA JUMP JUMPDEST SWAP1 POP SWAP2 SWAP1 POP JUMP INVALID LOG2 PUSH5 0x6970667358 0x22 SLT KECCAK256 0xC0 LT SDIV PUSH11 0x9E7D11C557943283B97C4B ADDRESS 0xBE SWAP9 0xE8 0xD6 ORIGIN PUSH22 0x89E0D69610221D8ED15764736F6C634300080F003300 "
				},
				"gasEstimates": {
					"creation": {
						"codeDepositCost": "893400",
						"executionCost": "infinite",
						"totalCost": "infinite"
					},
					"external": {
						"ierc20()": "infinite",
						"owner()": "2603",
						"ratio()": "2452",
						"received()": "infinite",
						"setRatio(uint256)": "24756",
						"stake(uint256)": "infinite",
						"tokenAddress()": "2536",
						"totalStakeNumber()": "2430",
						"unStake()": "infinite",
						"userStakes(address)": "infinite"
					},
					"internal": {
						"getUserInsert(address)": "infinite"
					}
				},
				"methodIdentifiers": {
					"ierc20()": "bf0ae63d",
					"owner()": "8da5cb5b",
					"ratio()": "71ca337d",
					"received()": "83a6deb5",
					"setRatio(uint256)": "b2237ba3",
					"stake(uint256)": "a694fc3a",
					"tokenAddress()": "9d76ea58",
					"totalStakeNumber()": "53b645e5",
					"unStake()": "73cf575a",
					"userStakes(address)": "8da7ad23"
				}
			},
			"storageLayout": {
				"storage": [
					{
						"astId": 104,
						"contract": "contracts/StakePool.sol:StakePool",
						"label": "totalStakeNumber",
						"offset": 0,
						"slot": "0",
						"type": "t_uint256"
					},
					{
						"astId": 106,
						"contract": "contracts/StakePool.sol:StakePool",
						"label": "tokenAddress",
						"offset": 0,
						"slot": "1",
						"type": "t_address"
					},
					{
						"astId": 108,
						"contract": "contracts/StakePool.sol:StakePool",
						"label": "owner",
						"offset": 0,
						"slot": "2",
						"type": "t_address"
					},
					{
						"astId": 110,
						"contract": "contracts/StakePool.sol:StakePool",
						"label": "ratio",
						"offset": 0,
						"slot": "3",
						"type": "t_uint256"
					},
					{
						"astId": 115,
						"contract": "contracts/StakePool.sol:StakePool",
						"label": "userStakes",
						"offset": 0,
						"slot": "4",
						"type": "t_mapping(t_address,t_struct(User)101_storage)"
					},
					{
						"astId": 118,
						"contract": "contracts/StakePool.sol:StakePool",
						"label": "ierc20",
						"offset": 0,
						"slot": "5",
						"type": "t_contract(IERC20)68"
					}
				],
				"types": {
					"t_address": {
						"encoding": "inplace",
						"label": "address",
						"numberOfBytes": "20"
					},
					"t_contract(IERC20)68": {
						"encoding": "inplace",
						"label": "contract IERC20",
						"numberOfBytes": "20"
					},
					"t_mapping(t_address,t_struct(User)101_storage)": {
						"encoding": "mapping",
						"key": "t_address",
						"label": "mapping(address => struct StakePool.User)",
						"numberOfBytes": "32",
						"value": "t_struct(User)101_storage"
					},
					"t_struct(User)101_storage": {
						"encoding": "inplace",
						"label": "struct StakePool.User",
						"members": [
							{
								"astId": 92,
								"contract": "contracts/StakePool.sol:StakePool",
								"label": "stakeNumber",
								"offset": 0,
								"slot": "0",
								"type": "t_uint256"
							},
							{
								"astId": 94,
								"contract": "contracts/StakePool.sol:StakePool",
								"label": "currentInterest",
								"offset": 0,
								"slot": "1",
								"type": "t_uint256"
							},
							{
								"astId": 96,
								"contract": "contracts/StakePool.sol:StakePool",
								"label": "claimedInterest",
								"offset": 0,
								"slot": "2",
								"type": "t_uint256"
							},
							{
								"astId": 98,
								"contract": "contracts/StakePool.sol:StakePool",
								"label": "lastInerest",
								"offset": 0,
								"slot": "3",
								"type": "t_uint256"
							},
							{
								"astId": 100,
								"contract": "contracts/StakePool.sol:StakePool",
								"label": "lastStakeTime",
								"offset": 0,
								"slot": "4",
								"type": "t_uint256"
							}
						],
						"numberOfBytes": "160"
					},
					"t_uint256": {
						"encoding": "inplace",
						"label": "uint256",
						"numberOfBytes": "32"
					}
				}
			},
			"userdoc": {
				"kind": "user",
				"methods": {},
				"version": 1
			}
		}
	}
}