{
	"contracts/SushiPool.sol": {
		"SushiPool": {
			"abi": [
				{
					"inputs": [
						{
							"internalType": "uint256",
							"name": "_output",
							"type": "uint256"
						}
					],
					"stateMutability": "nonpayable",
					"type": "constructor"
				},
				{
					"inputs": [
						{
							"internalType": "uint256",
							"name": "time",
							"type": "uint256"
						}
					],
					"name": "addAt",
					"outputs": [],
					"stateMutability": "nonpayable",
					"type": "function"
				},
				{
					"inputs": [],
					"name": "currentAt",
					"outputs": [
						{
							"internalType": "uint256",
							"name": "",
							"type": "uint256"
						}
					],
					"stateMutability": "view",
					"type": "function"
				},
				{
					"inputs": [],
					"name": "getUserInfo",
					"outputs": [
						{
							"internalType": "uint256",
							"name": "insert",
							"type": "uint256"
						},
						{
							"internalType": "uint256",
							"name": "ru",
							"type": "uint256"
						},
						{
							"internalType": "uint256",
							"name": "rn",
							"type": "uint256"
						},
						{
							"internalType": "uint256",
							"name": "stakeNumber",
							"type": "uint256"
						}
					],
					"stateMutability": "view",
					"type": "function"
				},
				{
					"inputs": [],
					"name": "lastStakeTime",
					"outputs": [
						{
							"internalType": "uint256",
							"name": "",
							"type": "uint256"
						}
					],
					"stateMutability": "view",
					"type": "function"
				},
				{
					"inputs": [],
					"name": "output",
					"outputs": [
						{
							"internalType": "uint256",
							"name": "",
							"type": "uint256"
						}
					],
					"stateMutability": "view",
					"type": "function"
				},
				{
					"inputs": [],
					"name": "rn",
					"outputs": [
						{
							"internalType": "uint256",
							"name": "",
							"type": "uint256"
						}
					],
					"stateMutability": "view",
					"type": "function"
				},
				{
					"inputs": [
						{
							"internalType": "uint256",
							"name": "_amount",
							"type": "uint256"
						}
					],
					"name": "stake",
					"outputs": [],
					"stateMutability": "nonpayable",
					"type": "function"
				},
				{
					"inputs": [],
					"name": "stakeTotal",
					"outputs": [
						{
							"internalType": "uint256",
							"name": "",
							"type": "uint256"
						}
					],
					"stateMutability": "view",
					"type": "function"
				},
				{
					"inputs": [],
					"name": "startAt",
					"outputs": [
						{
							"internalType": "uint256",
							"name": "",
							"type": "uint256"
						}
					],
					"stateMutability": "view",
					"type": "function"
				},
				{
					"inputs": [
						{
							"internalType": "address",
							"name": "",
							"type": "address"
						}
					],
					"name": "users",
					"outputs": [
						{
							"internalType": "uint256",
							"name": "stakeNumber",
							"type": "uint256"
						},
						{
							"internalType": "uint256",
							"name": "stakeTime",
							"type": "uint256"
						},
						{
							"internalType": "uint256",
							"name": "insert",
							"type": "uint256"
						},
						{
							"internalType": "uint256",
							"name": "ru",
							"type": "uint256"
						}
					],
					"stateMutability": "view",
					"type": "function"
				}
			],
			"devdoc": {
				"kind": "dev",
				"methods": {},
				"version": 1
			},
			"evm": {
				"assembly": "    /* \"contracts/SushiPool.sol\":56:1777  contract SushiPool {... */\n  mstore(0x40, 0x80)\n    /* \"contracts/SushiPool.sol\":575:637  constructor(uint256 _output) {... */\n  callvalue\n  dup1\n  iszero\n  tag_1\n  jumpi\n  0x00\n  dup1\n  revert\ntag_1:\n  pop\n  mload(0x40)\n  sub(codesize, bytecodeSize)\n  dup1\n  bytecodeSize\n  dup4\n  codecopy\n  dup2\n  dup2\n  add\n  0x40\n  mstore\n  dup2\n  add\n  swap1\n  tag_2\n  swap2\n  swap1\n  tag_3\n  jump\t// in\ntag_2:\n    /* \"contracts/SushiPool.sol\":623:630  _output */\n  dup1\n    /* \"contracts/SushiPool.sol\":614:620  output */\n  0x02\n    /* \"contracts/SushiPool.sol\":614:630  output = _output */\n  dup2\n  swap1\n  sstore\n  pop\n    /* \"contracts/SushiPool.sol\":575:637  constructor(uint256 _output) {... */\n  pop\n    /* \"contracts/SushiPool.sol\":56:1777  contract SushiPool {... */\n  jump(tag_6)\n    /* \"#utility.yul\":88:205   */\ntag_8:\n    /* \"#utility.yul\":197:198   */\n  0x00\n    /* \"#utility.yul\":194:195   */\n  dup1\n    /* \"#utility.yul\":187:199   */\n  revert\n    /* \"#utility.yul\":334:411   */\ntag_10:\n    /* \"#utility.yul\":371:378   */\n  0x00\n    /* \"#utility.yul\":400:405   */\n  dup2\n    /* \"#utility.yul\":389:405   */\n  swap1\n  pop\n    /* \"#utility.yul\":334:411   */\n  swap2\n  swap1\n  pop\n  jump\t// out\n    /* \"#utility.yul\":417:539   */\ntag_11:\n    /* \"#utility.yul\":490:514   */\n  tag_19\n    /* \"#utility.yul\":508:513   */\n  dup2\n    /* \"#utility.yul\":490:514   */\n  tag_10\n  jump\t// in\ntag_19:\n    /* \"#utility.yul\":483:488   */\n  dup2\n    /* \"#utility.yul\":480:515   */\n  eq\n    /* \"#utility.yul\":470:533   */\n  tag_20\n  jumpi\n    /* \"#utility.yul\":529:530   */\n  0x00\n    /* \"#utility.yul\":526:527   */\n  dup1\n    /* \"#utility.yul\":519:531   */\n  revert\n    /* \"#utility.yul\":470:533   */\ntag_20:\n    /* \"#utility.yul\":417:539   */\n  pop\n  jump\t// out\n    /* \"#utility.yul\":545:688   */\ntag_12:\n    /* \"#utility.yul\":602:607   */\n  0x00\n    /* \"#utility.yul\":633:639   */\n  dup2\n    /* \"#utility.yul\":627:640   */\n  mload\n    /* \"#utility.yul\":618:640   */\n  swap1\n  pop\n    /* \"#utility.yul\":649:682   */\n  tag_22\n    /* \"#utility.yul\":676:681   */\n  dup2\n    /* \"#utility.yul\":649:682   */\n  tag_11\n  jump\t// in\ntag_22:\n    /* \"#utility.yul\":545:688   */\n  swap3\n  swap2\n  pop\n  pop\n  jump\t// out\n    /* \"#utility.yul\":694:1045   */\ntag_3:\n    /* \"#utility.yul\":764:770   */\n  0x00\n    /* \"#utility.yul\":813:815   */\n  0x20\n    /* \"#utility.yul\":801:810   */\n  dup3\n    /* \"#utility.yul\":792:799   */\n  dup5\n    /* \"#utility.yul\":788:811   */\n  sub\n    /* \"#utility.yul\":784:816   */\n  slt\n    /* \"#utility.yul\":781:900   */\n  iszero\n  tag_24\n  jumpi\n    /* \"#utility.yul\":819:898   */\n  tag_25\n  tag_8\n  jump\t// in\ntag_25:\n    /* \"#utility.yul\":781:900   */\ntag_24:\n    /* \"#utility.yul\":939:940   */\n  0x00\n    /* \"#utility.yul\":964:1028   */\n  tag_26\n    /* \"#utility.yul\":1020:1027   */\n  dup5\n    /* \"#utility.yul\":1011:1017   */\n  dup3\n    /* \"#utility.yul\":1000:1009   */\n  dup6\n    /* \"#utility.yul\":996:1018   */\n  add\n    /* \"#utility.yul\":964:1028   */\n  tag_12\n  jump\t// in\ntag_26:\n    /* \"#utility.yul\":954:1028   */\n  swap2\n  pop\n    /* \"#utility.yul\":910:1038   */\n  pop\n    /* \"#utility.yul\":694:1045   */\n  swap3\n  swap2\n  pop\n  pop\n  jump\t// out\n    /* \"contracts/SushiPool.sol\":56:1777  contract SushiPool {... */\ntag_6:\n  dataSize(sub_0)\n  dup1\n  dataOffset(sub_0)\n  0x00\n  codecopy\n  0x00\n  return\nstop\n\nsub_0: assembly {\n        /* \"contracts/SushiPool.sol\":56:1777  contract SushiPool {... */\n      mstore(0x40, 0x80)\n      callvalue\n      dup1\n      iszero\n      tag_1\n      jumpi\n      0x00\n      dup1\n      revert\n    tag_1:\n      pop\n      jumpi(tag_2, lt(calldatasize, 0x04))\n      shr(0xe0, calldataload(0x00))\n      dup1\n      0xa694fc3a\n      gt\n      tag_13\n      jumpi\n      dup1\n      0xa694fc3a\n      eq\n      tag_8\n      jumpi\n      dup1\n      0xa87430ba\n      eq\n      tag_9\n      jumpi\n      dup1\n      0xc7446565\n      eq\n      tag_10\n      jumpi\n      dup1\n      0xf20eaeb8\n      eq\n      tag_11\n      jumpi\n      dup1\n      0xf5ad7722\n      eq\n      tag_12\n      jumpi\n      jump(tag_2)\n    tag_13:\n      dup1\n      0x4b5c8bdf\n      eq\n      tag_3\n      jumpi\n      dup1\n      0x5d8d1585\n      eq\n      tag_4\n      jumpi\n      dup1\n      0x64d4db10\n      eq\n      tag_5\n      jumpi\n      dup1\n      0x833a3b85\n      eq\n      tag_6\n      jumpi\n      dup1\n      0x8d48c9c8\n      eq\n      tag_7\n      jumpi\n    tag_2:\n      0x00\n      dup1\n      revert\n        /* \"contracts/SushiPool.sol\":271:296  uint256 public stakeTotal */\n    tag_3:\n      tag_14\n      tag_15\n      jump\t// in\n    tag_14:\n      mload(0x40)\n      tag_16\n      swap2\n      swap1\n      tag_17\n      jump\t// in\n    tag_16:\n      mload(0x40)\n      dup1\n      swap2\n      sub\n      swap1\n      return\n        /* \"contracts/SushiPool.sol\":1205:1683  function getUserInfo() public view returns (uint256 insert, uint256 ru, uint256 rn, uint256 stakeNumber) {... */\n    tag_4:\n      tag_18\n      tag_19\n      jump\t// in\n    tag_18:\n      mload(0x40)\n      tag_20\n      swap5\n      swap4\n      swap3\n      swap2\n      swap1\n      tag_21\n      jump\t// in\n    tag_20:\n      mload(0x40)\n      dup1\n      swap2\n      sub\n      swap1\n      return\n        /* \"contracts/SushiPool.sol\":442:470  uint256 public lastStakeTime */\n    tag_5:\n      tag_22\n      tag_23\n      jump\t// in\n    tag_22:\n      mload(0x40)\n      tag_24\n      swap2\n      swap1\n      tag_17\n      jump\t// in\n    tag_24:\n      mload(0x40)\n      dup1\n      swap2\n      sub\n      swap1\n      return\n        /* \"contracts/SushiPool.sol\":544:568  uint256 public currentAt */\n    tag_6:\n      tag_25\n      tag_26\n      jump\t// in\n    tag_25:\n      mload(0x40)\n      tag_27\n      swap2\n      swap1\n      tag_17\n      jump\t// in\n    tag_27:\n      mload(0x40)\n      dup1\n      swap2\n      sub\n      swap1\n      return\n        /* \"contracts/SushiPool.sol\":387:404  uint256 public rn */\n    tag_7:\n      tag_28\n      tag_29\n      jump\t// in\n    tag_28:\n      mload(0x40)\n      tag_30\n      swap2\n      swap1\n      tag_17\n      jump\t// in\n    tag_30:\n      mload(0x40)\n      dup1\n      swap2\n      sub\n      swap1\n      return\n        /* \"contracts/SushiPool.sol\":707:1199  function stake(uint256 _amount) external {... */\n    tag_8:\n      tag_31\n      0x04\n      dup1\n      calldatasize\n      sub\n      dup2\n      add\n      swap1\n      tag_32\n      swap2\n      swap1\n      tag_33\n      jump\t// in\n    tag_32:\n      tag_34\n      jump\t// in\n    tag_31:\n      stop\n        /* \"contracts/SushiPool.sol\":207:244  mapping(address => User) public users */\n    tag_9:\n      tag_35\n      0x04\n      dup1\n      calldatasize\n      sub\n      dup2\n      add\n      swap1\n      tag_36\n      swap2\n      swap1\n      tag_37\n      jump\t// in\n    tag_36:\n      tag_38\n      jump\t// in\n    tag_35:\n      mload(0x40)\n      tag_39\n      swap5\n      swap4\n      swap3\n      swap2\n      swap1\n      tag_21\n      jump\t// in\n    tag_39:\n      mload(0x40)\n      dup1\n      swap2\n      sub\n      swap1\n      return\n        /* \"contracts/SushiPool.sol\":496:518  uint256 public startAt */\n    tag_10:\n      tag_40\n      tag_41\n      jump\t// in\n    tag_40:\n      mload(0x40)\n      tag_42\n      swap2\n      swap1\n      tag_17\n      jump\t// in\n    tag_42:\n      mload(0x40)\n      dup1\n      swap2\n      sub\n      swap1\n      return\n        /* \"contracts/SushiPool.sol\":322:343  uint256 public output */\n    tag_11:\n      tag_43\n      tag_44\n      jump\t// in\n    tag_43:\n      mload(0x40)\n      tag_45\n      swap2\n      swap1\n      tag_17\n      jump\t// in\n    tag_45:\n      mload(0x40)\n      dup1\n      swap2\n      sub\n      swap1\n      return\n        /* \"contracts/SushiPool.sol\":1689:1761  function addAt(uint256 time) external {... */\n    tag_12:\n      tag_46\n      0x04\n      dup1\n      calldatasize\n      sub\n      dup2\n      add\n      swap1\n      tag_47\n      swap2\n      swap1\n      tag_33\n      jump\t// in\n    tag_47:\n      tag_48\n      jump\t// in\n    tag_46:\n      stop\n        /* \"contracts/SushiPool.sol\":271:296  uint256 public stakeTotal */\n    tag_15:\n      sload(0x01)\n      dup2\n      jump\t// out\n        /* \"contracts/SushiPool.sol\":1205:1683  function getUserInfo() public view returns (uint256 insert, uint256 ru, uint256 rn, uint256 stakeNumber) {... */\n    tag_19:\n        /* \"contracts/SushiPool.sol\":1249:1263  uint256 insert */\n      0x00\n        /* \"contracts/SushiPool.sol\":1265:1275  uint256 ru */\n      dup1\n        /* \"contracts/SushiPool.sol\":1277:1287  uint256 rn */\n      0x00\n        /* \"contracts/SushiPool.sol\":1289:1308  uint256 stakeNumber */\n      dup1\n        /* \"contracts/SushiPool.sol\":1320:1337  User storage user */\n      0x00\n        /* \"contracts/SushiPool.sol\":1340:1345  users */\n      dup1\n        /* \"contracts/SushiPool.sol\":1340:1357  users[msg.sender] */\n      0x00\n        /* \"contracts/SushiPool.sol\":1346:1356  msg.sender */\n      caller\n        /* \"contracts/SushiPool.sol\":1340:1357  users[msg.sender] */\n      0xffffffffffffffffffffffffffffffffffffffff\n      and\n      0xffffffffffffffffffffffffffffffffffffffff\n      and\n      dup2\n      mstore\n      0x20\n      add\n      swap1\n      dup2\n      mstore\n      0x20\n      add\n      0x00\n      keccak256\n        /* \"contracts/SushiPool.sol\":1320:1357  User storage user = users[msg.sender] */\n      swap1\n      pop\n        /* \"contracts/SushiPool.sol\":1367:1387  uint256 secondOutPut */\n      0x00\n        /* \"contracts/SushiPool.sol\":1415:1416  0 */\n      dup1\n        /* \"contracts/SushiPool.sol\":1401:1411  stakeTotal */\n      sload(0x01)\n        /* \"contracts/SushiPool.sol\":1401:1416  stakeTotal != 0 */\n      eq\n        /* \"contracts/SushiPool.sol\":1397:1477  if (stakeTotal != 0) {... */\n      tag_50\n      jumpi\n        /* \"contracts/SushiPool.sol\":1456:1466  stakeTotal */\n      sload(0x01)\n        /* \"contracts/SushiPool.sol\":1447:1453  output */\n      sload(0x02)\n        /* \"contracts/SushiPool.sol\":1447:1466  output / stakeTotal */\n      tag_51\n      swap2\n      swap1\n      tag_52\n      jump\t// in\n    tag_51:\n        /* \"contracts/SushiPool.sol\":1432:1466  secondOutPut = output / stakeTotal */\n      swap1\n      pop\n        /* \"contracts/SushiPool.sol\":1397:1477  if (stakeTotal != 0) {... */\n    tag_50:\n        /* \"contracts/SushiPool.sol\":1486:1497  uint256 _rn */\n      0x00\n        /* \"contracts/SushiPool.sol\":1535:1547  secondOutPut */\n      dup2\n        /* \"contracts/SushiPool.sol\":1518:1531  lastStakeTime */\n      sload(0x04)\n        /* \"contracts/SushiPool.sol\":1506:1515  currentAt */\n      sload(0x06)\n        /* \"contracts/SushiPool.sol\":1506:1531  currentAt - lastStakeTime */\n      tag_53\n      swap2\n      swap1\n      tag_54\n      jump\t// in\n    tag_53:\n        /* \"contracts/SushiPool.sol\":1505:1547  (currentAt - lastStakeTime) * secondOutPut */\n      tag_55\n      swap2\n      swap1\n      tag_56\n      jump\t// in\n    tag_55:\n        /* \"contracts/SushiPool.sol\":1500:1502  rn */\n      dup6\n        /* \"contracts/SushiPool.sol\":1500:1547  rn + (currentAt - lastStakeTime) * secondOutPut */\n      tag_57\n      swap2\n      swap1\n      tag_58\n      jump\t// in\n    tag_57:\n        /* \"contracts/SushiPool.sol\":1486:1547  uint256 _rn = rn + (currentAt - lastStakeTime) * secondOutPut */\n      swap1\n      pop\n        /* \"contracts/SushiPool.sol\":1598:1602  user */\n      dup3\n        /* \"contracts/SushiPool.sol\":1598:1614  user.stakeNumber */\n      0x00\n      add\n      sload\n        /* \"contracts/SushiPool.sol\":1587:1591  user */\n      dup4\n        /* \"contracts/SushiPool.sol\":1587:1594  user.ru */\n      0x03\n      add\n      sload\n        /* \"contracts/SushiPool.sol\":1581:1584  _rn */\n      dup3\n        /* \"contracts/SushiPool.sol\":1581:1594  _rn - user.ru */\n      tag_59\n      swap2\n      swap1\n      tag_54\n      jump\t// in\n    tag_59:\n        /* \"contracts/SushiPool.sol\":1580:1614  (_rn - user.ru) * user.stakeNumber */\n      tag_60\n      swap2\n      swap1\n      tag_56\n      jump\t// in\n    tag_60:\n        /* \"contracts/SushiPool.sol\":1566:1570  user */\n      dup4\n        /* \"contracts/SushiPool.sol\":1566:1577  user.insert */\n      0x02\n      add\n      sload\n        /* \"contracts/SushiPool.sol\":1566:1614  user.insert + (_rn - user.ru) * user.stakeNumber */\n      tag_61\n      swap2\n      swap1\n      tag_58\n      jump\t// in\n    tag_61:\n        /* \"contracts/SushiPool.sol\":1557:1614  insert = user.insert + (_rn - user.ru) * user.stakeNumber */\n      swap7\n      pop\n        /* \"contracts/SushiPool.sol\":1629:1633  user */\n      dup3\n        /* \"contracts/SushiPool.sol\":1629:1636  user.ru */\n      0x03\n      add\n      sload\n        /* \"contracts/SushiPool.sol\":1624:1636  ru = user.ru */\n      swap6\n      pop\n        /* \"contracts/SushiPool.sol\":1660:1664  user */\n      dup3\n        /* \"contracts/SushiPool.sol\":1660:1676  user.stakeNumber */\n      0x00\n      add\n      sload\n        /* \"contracts/SushiPool.sol\":1646:1676  stakeNumber = user.stakeNumber */\n      swap4\n      pop\n        /* \"contracts/SushiPool.sol\":1310:1683  {... */\n      pop\n      pop\n      pop\n        /* \"contracts/SushiPool.sol\":1205:1683  function getUserInfo() public view returns (uint256 insert, uint256 ru, uint256 rn, uint256 stakeNumber) {... */\n      swap1\n      swap2\n      swap3\n      swap4\n      jump\t// out\n        /* \"contracts/SushiPool.sol\":442:470  uint256 public lastStakeTime */\n    tag_23:\n      sload(0x04)\n      dup2\n      jump\t// out\n        /* \"contracts/SushiPool.sol\":544:568  uint256 public currentAt */\n    tag_26:\n      sload(0x06)\n      dup2\n      jump\t// out\n        /* \"contracts/SushiPool.sol\":387:404  uint256 public rn */\n    tag_29:\n      sload(0x03)\n      dup2\n      jump\t// out\n        /* \"contracts/SushiPool.sol\":707:1199  function stake(uint256 _amount) external {... */\n    tag_34:\n        /* \"contracts/SushiPool.sol\":758:775  User storage user */\n      0x00\n        /* \"contracts/SushiPool.sol\":778:783  users */\n      dup1\n        /* \"contracts/SushiPool.sol\":778:795  users[msg.sender] */\n      0x00\n        /* \"contracts/SushiPool.sol\":784:794  msg.sender */\n      caller\n        /* \"contracts/SushiPool.sol\":778:795  users[msg.sender] */\n      0xffffffffffffffffffffffffffffffffffffffff\n      and\n      0xffffffffffffffffffffffffffffffffffffffff\n      and\n      dup2\n      mstore\n      0x20\n      add\n      swap1\n      dup2\n      mstore\n      0x20\n      add\n      0x00\n      keccak256\n        /* \"contracts/SushiPool.sol\":758:795  User storage user = users[msg.sender] */\n      swap1\n      pop\n        /* \"contracts/SushiPool.sol\":805:825  uint256 secondOutPut */\n      0x00\n        /* \"contracts/SushiPool.sol\":853:854  0 */\n      dup1\n        /* \"contracts/SushiPool.sol\":839:849  stakeTotal */\n      sload(0x01)\n        /* \"contracts/SushiPool.sol\":839:854  stakeTotal != 0 */\n      eq\n        /* \"contracts/SushiPool.sol\":835:915  if (stakeTotal != 0) {... */\n      tag_63\n      jumpi\n        /* \"contracts/SushiPool.sol\":894:904  stakeTotal */\n      sload(0x01)\n        /* \"contracts/SushiPool.sol\":885:891  output */\n      sload(0x02)\n        /* \"contracts/SushiPool.sol\":885:904  output / stakeTotal */\n      tag_64\n      swap2\n      swap1\n      tag_52\n      jump\t// in\n    tag_64:\n        /* \"contracts/SushiPool.sol\":870:904  secondOutPut = output / stakeTotal */\n      swap1\n      pop\n        /* \"contracts/SushiPool.sol\":835:915  if (stakeTotal != 0) {... */\n    tag_63:\n        /* \"contracts/SushiPool.sol\":960:972  secondOutPut */\n      dup1\n        /* \"contracts/SushiPool.sol\":943:956  lastStakeTime */\n      sload(0x04)\n        /* \"contracts/SushiPool.sol\":931:940  currentAt */\n      sload(0x06)\n        /* \"contracts/SushiPool.sol\":931:956  currentAt - lastStakeTime */\n      tag_65\n      swap2\n      swap1\n      tag_54\n      jump\t// in\n    tag_65:\n        /* \"contracts/SushiPool.sol\":930:972  (currentAt - lastStakeTime) * secondOutPut */\n      tag_66\n      swap2\n      swap1\n      tag_56\n      jump\t// in\n    tag_66:\n        /* \"contracts/SushiPool.sol\":924:926  rn */\n      0x03\n      0x00\n        /* \"contracts/SushiPool.sol\":924:972  rn += (currentAt - lastStakeTime) * secondOutPut */\n      dup3\n      dup3\n      sload\n      tag_67\n      swap2\n      swap1\n      tag_58\n      jump\t// in\n    tag_67:\n      swap3\n      pop\n      pop\n      dup2\n      swap1\n      sstore\n      pop\n        /* \"contracts/SushiPool.sol\":1015:1019  user */\n      dup2\n        /* \"contracts/SushiPool.sol\":1015:1031  user.stakeNumber */\n      0x00\n      add\n      sload\n        /* \"contracts/SushiPool.sol\":1004:1008  user */\n      dup3\n        /* \"contracts/SushiPool.sol\":1004:1011  user.ru */\n      0x03\n      add\n      sload\n        /* \"contracts/SushiPool.sol\":999:1001  rn */\n      sload(0x03)\n        /* \"contracts/SushiPool.sol\":999:1011  rn - user.ru */\n      tag_68\n      swap2\n      swap1\n      tag_54\n      jump\t// in\n    tag_68:\n        /* \"contracts/SushiPool.sol\":998:1031  (rn - user.ru) * user.stakeNumber */\n      tag_69\n      swap2\n      swap1\n      tag_56\n      jump\t// in\n    tag_69:\n        /* \"contracts/SushiPool.sol\":982:986  user */\n      dup3\n        /* \"contracts/SushiPool.sol\":982:993  user.insert */\n      0x02\n      add\n      0x00\n        /* \"contracts/SushiPool.sol\":982:1031  user.insert +=  (rn - user.ru) * user.stakeNumber */\n      dup3\n      dup3\n      sload\n      tag_70\n      swap2\n      swap1\n      tag_58\n      jump\t// in\n    tag_70:\n      swap3\n      pop\n      pop\n      dup2\n      swap1\n      sstore\n      pop\n        /* \"contracts/SushiPool.sol\":1051:1053  rn */\n      sload(0x03)\n        /* \"contracts/SushiPool.sol\":1041:1045  user */\n      dup3\n        /* \"contracts/SushiPool.sol\":1041:1048  user.ru */\n      0x03\n      add\n        /* \"contracts/SushiPool.sol\":1041:1053  user.ru = rn */\n      dup2\n      swap1\n      sstore\n      pop\n        /* \"contracts/SushiPool.sol\":1083:1090  _amount */\n      dup3\n        /* \"contracts/SushiPool.sol\":1063:1067  user */\n      dup3\n        /* \"contracts/SushiPool.sol\":1063:1079  user.stakeNumber */\n      0x00\n      add\n      0x00\n        /* \"contracts/SushiPool.sol\":1063:1090  user.stakeNumber += _amount */\n      dup3\n      dup3\n      sload\n      tag_71\n      swap2\n      swap1\n      tag_58\n      jump\t// in\n    tag_71:\n      swap3\n      pop\n      pop\n      dup2\n      swap1\n      sstore\n      pop\n        /* \"contracts/SushiPool.sol\":1117:1126  currentAt */\n      sload(0x06)\n        /* \"contracts/SushiPool.sol\":1100:1104  user */\n      dup3\n        /* \"contracts/SushiPool.sol\":1100:1114  user.stakeTime */\n      0x01\n      add\n        /* \"contracts/SushiPool.sol\":1100:1126  user.stakeTime = currentAt */\n      dup2\n      swap1\n      sstore\n      pop\n        /* \"contracts/SushiPool.sol\":1150:1157  _amount */\n      dup3\n        /* \"contracts/SushiPool.sol\":1136:1146  stakeTotal */\n      0x01\n      0x00\n        /* \"contracts/SushiPool.sol\":1136:1157  stakeTotal += _amount */\n      dup3\n      dup3\n      sload\n      tag_72\n      swap2\n      swap1\n      tag_58\n      jump\t// in\n    tag_72:\n      swap3\n      pop\n      pop\n      dup2\n      swap1\n      sstore\n      pop\n        /* \"contracts/SushiPool.sol\":1183:1192  currentAt */\n      sload(0x06)\n        /* \"contracts/SushiPool.sol\":1167:1180  lastStakeTime */\n      0x04\n        /* \"contracts/SushiPool.sol\":1167:1192  lastStakeTime = currentAt */\n      dup2\n      swap1\n      sstore\n      pop\n        /* \"contracts/SushiPool.sol\":748:1199  {... */\n      pop\n      pop\n        /* \"contracts/SushiPool.sol\":707:1199  function stake(uint256 _amount) external {... */\n      pop\n      jump\t// out\n        /* \"contracts/SushiPool.sol\":207:244  mapping(address => User) public users */\n    tag_38:\n      mstore(0x20, 0x00)\n      dup1\n      0x00\n      mstore\n      keccak256(0x00, 0x40)\n      0x00\n      swap2\n      pop\n      swap1\n      pop\n      dup1\n      0x00\n      add\n      sload\n      swap1\n      dup1\n      0x01\n      add\n      sload\n      swap1\n      dup1\n      0x02\n      add\n      sload\n      swap1\n      dup1\n      0x03\n      add\n      sload\n      swap1\n      pop\n      dup5\n      jump\t// out\n        /* \"contracts/SushiPool.sol\":496:518  uint256 public startAt */\n    tag_41:\n      sload(0x05)\n      dup2\n      jump\t// out\n        /* \"contracts/SushiPool.sol\":322:343  uint256 public output */\n    tag_44:\n      sload(0x02)\n      dup2\n      jump\t// out\n        /* \"contracts/SushiPool.sol\":1689:1761  function addAt(uint256 time) external {... */\n    tag_48:\n        /* \"contracts/SushiPool.sol\":1750:1754  time */\n      dup1\n        /* \"contracts/SushiPool.sol\":1737:1746  currentAt */\n      0x06\n      0x00\n        /* \"contracts/SushiPool.sol\":1737:1754  currentAt += time */\n      dup3\n      dup3\n      sload\n      tag_74\n      swap2\n      swap1\n      tag_58\n      jump\t// in\n    tag_74:\n      swap3\n      pop\n      pop\n      dup2\n      swap1\n      sstore\n      pop\n        /* \"contracts/SushiPool.sol\":1689:1761  function addAt(uint256 time) external {... */\n      pop\n      jump\t// out\n        /* \"#utility.yul\":7:84   */\n    tag_75:\n        /* \"#utility.yul\":44:51   */\n      0x00\n        /* \"#utility.yul\":73:78   */\n      dup2\n        /* \"#utility.yul\":62:78   */\n      swap1\n      pop\n        /* \"#utility.yul\":7:84   */\n      swap2\n      swap1\n      pop\n      jump\t// out\n        /* \"#utility.yul\":90:208   */\n    tag_76:\n        /* \"#utility.yul\":177:201   */\n      tag_91\n        /* \"#utility.yul\":195:200   */\n      dup2\n        /* \"#utility.yul\":177:201   */\n      tag_75\n      jump\t// in\n    tag_91:\n        /* \"#utility.yul\":172:175   */\n      dup3\n        /* \"#utility.yul\":165:202   */\n      mstore\n        /* \"#utility.yul\":90:208   */\n      pop\n      pop\n      jump\t// out\n        /* \"#utility.yul\":214:436   */\n    tag_17:\n        /* \"#utility.yul\":307:311   */\n      0x00\n        /* \"#utility.yul\":345:347   */\n      0x20\n        /* \"#utility.yul\":334:343   */\n      dup3\n        /* \"#utility.yul\":330:348   */\n      add\n        /* \"#utility.yul\":322:348   */\n      swap1\n      pop\n        /* \"#utility.yul\":358:429   */\n      tag_93\n        /* \"#utility.yul\":426:427   */\n      0x00\n        /* \"#utility.yul\":415:424   */\n      dup4\n        /* \"#utility.yul\":411:428   */\n      add\n        /* \"#utility.yul\":402:408   */\n      dup5\n        /* \"#utility.yul\":358:429   */\n      tag_76\n      jump\t// in\n    tag_93:\n        /* \"#utility.yul\":214:436   */\n      swap3\n      swap2\n      pop\n      pop\n      jump\t// out\n        /* \"#utility.yul\":442:995   */\n    tag_21:\n        /* \"#utility.yul\":619:623   */\n      0x00\n        /* \"#utility.yul\":657:660   */\n      0x80\n        /* \"#utility.yul\":646:655   */\n      dup3\n        /* \"#utility.yul\":642:661   */\n      add\n        /* \"#utility.yul\":634:661   */\n      swap1\n      pop\n        /* \"#utility.yul\":671:742   */\n      tag_95\n        /* \"#utility.yul\":739:740   */\n      0x00\n        /* \"#utility.yul\":728:737   */\n      dup4\n        /* \"#utility.yul\":724:741   */\n      add\n        /* \"#utility.yul\":715:721   */\n      dup8\n        /* \"#utility.yul\":671:742   */\n      tag_76\n      jump\t// in\n    tag_95:\n        /* \"#utility.yul\":752:824   */\n      tag_96\n        /* \"#utility.yul\":820:822   */\n      0x20\n        /* \"#utility.yul\":809:818   */\n      dup4\n        /* \"#utility.yul\":805:823   */\n      add\n        /* \"#utility.yul\":796:802   */\n      dup7\n        /* \"#utility.yul\":752:824   */\n      tag_76\n      jump\t// in\n    tag_96:\n        /* \"#utility.yul\":834:906   */\n      tag_97\n        /* \"#utility.yul\":902:904   */\n      0x40\n        /* \"#utility.yul\":891:900   */\n      dup4\n        /* \"#utility.yul\":887:905   */\n      add\n        /* \"#utility.yul\":878:884   */\n      dup6\n        /* \"#utility.yul\":834:906   */\n      tag_76\n      jump\t// in\n    tag_97:\n        /* \"#utility.yul\":916:988   */\n      tag_98\n        /* \"#utility.yul\":984:986   */\n      0x60\n        /* \"#utility.yul\":973:982   */\n      dup4\n        /* \"#utility.yul\":969:987   */\n      add\n        /* \"#utility.yul\":960:966   */\n      dup5\n        /* \"#utility.yul\":916:988   */\n      tag_76\n      jump\t// in\n    tag_98:\n        /* \"#utility.yul\":442:995   */\n      swap6\n      swap5\n      pop\n      pop\n      pop\n      pop\n      pop\n      jump\t// out\n        /* \"#utility.yul\":1082:1199   */\n    tag_78:\n        /* \"#utility.yul\":1191:1192   */\n      0x00\n        /* \"#utility.yul\":1188:1189   */\n      dup1\n        /* \"#utility.yul\":1181:1193   */\n      revert\n        /* \"#utility.yul\":1328:1450   */\n    tag_80:\n        /* \"#utility.yul\":1401:1425   */\n      tag_103\n        /* \"#utility.yul\":1419:1424   */\n      dup2\n        /* \"#utility.yul\":1401:1425   */\n      tag_75\n      jump\t// in\n    tag_103:\n        /* \"#utility.yul\":1394:1399   */\n      dup2\n        /* \"#utility.yul\":1391:1426   */\n      eq\n        /* \"#utility.yul\":1381:1444   */\n      tag_104\n      jumpi\n        /* \"#utility.yul\":1440:1441   */\n      0x00\n        /* \"#utility.yul\":1437:1438   */\n      dup1\n        /* \"#utility.yul\":1430:1442   */\n      revert\n        /* \"#utility.yul\":1381:1444   */\n    tag_104:\n        /* \"#utility.yul\":1328:1450   */\n      pop\n      jump\t// out\n        /* \"#utility.yul\":1456:1595   */\n    tag_81:\n        /* \"#utility.yul\":1502:1507   */\n      0x00\n        /* \"#utility.yul\":1540:1546   */\n      dup2\n        /* \"#utility.yul\":1527:1547   */\n      calldataload\n        /* \"#utility.yul\":1518:1547   */\n      swap1\n      pop\n        /* \"#utility.yul\":1556:1589   */\n      tag_106\n        /* \"#utility.yul\":1583:1588   */\n      dup2\n        /* \"#utility.yul\":1556:1589   */\n      tag_80\n      jump\t// in\n    tag_106:\n        /* \"#utility.yul\":1456:1595   */\n      swap3\n      swap2\n      pop\n      pop\n      jump\t// out\n        /* \"#utility.yul\":1601:1930   */\n    tag_33:\n        /* \"#utility.yul\":1660:1666   */\n      0x00\n        /* \"#utility.yul\":1709:1711   */\n      0x20\n        /* \"#utility.yul\":1697:1706   */\n      dup3\n        /* \"#utility.yul\":1688:1695   */\n      dup5\n        /* \"#utility.yul\":1684:1707   */\n      sub\n        /* \"#utility.yul\":1680:1712   */\n      slt\n        /* \"#utility.yul\":1677:1796   */\n      iszero\n      tag_108\n      jumpi\n        /* \"#utility.yul\":1715:1794   */\n      tag_109\n      tag_78\n      jump\t// in\n    tag_109:\n        /* \"#utility.yul\":1677:1796   */\n    tag_108:\n        /* \"#utility.yul\":1835:1836   */\n      0x00\n        /* \"#utility.yul\":1860:1913   */\n      tag_110\n        /* \"#utility.yul\":1905:1912   */\n      dup5\n        /* \"#utility.yul\":1896:1902   */\n      dup3\n        /* \"#utility.yul\":1885:1894   */\n      dup6\n        /* \"#utility.yul\":1881:1903   */\n      add\n        /* \"#utility.yul\":1860:1913   */\n      tag_81\n      jump\t// in\n    tag_110:\n        /* \"#utility.yul\":1850:1913   */\n      swap2\n      pop\n        /* \"#utility.yul\":1806:1923   */\n      pop\n        /* \"#utility.yul\":1601:1930   */\n      swap3\n      swap2\n      pop\n      pop\n      jump\t// out\n        /* \"#utility.yul\":1936:2062   */\n    tag_82:\n        /* \"#utility.yul\":1973:1980   */\n      0x00\n        /* \"#utility.yul\":2013:2055   */\n      0xffffffffffffffffffffffffffffffffffffffff\n        /* \"#utility.yul\":2006:2011   */\n      dup3\n        /* \"#utility.yul\":2002:2056   */\n      and\n        /* \"#utility.yul\":1991:2056   */\n      swap1\n      pop\n        /* \"#utility.yul\":1936:2062   */\n      swap2\n      swap1\n      pop\n      jump\t// out\n        /* \"#utility.yul\":2068:2164   */\n    tag_83:\n        /* \"#utility.yul\":2105:2112   */\n      0x00\n        /* \"#utility.yul\":2134:2158   */\n      tag_113\n        /* \"#utility.yul\":2152:2157   */\n      dup3\n        /* \"#utility.yul\":2134:2158   */\n      tag_82\n      jump\t// in\n    tag_113:\n        /* \"#utility.yul\":2123:2158   */\n      swap1\n      pop\n        /* \"#utility.yul\":2068:2164   */\n      swap2\n      swap1\n      pop\n      jump\t// out\n        /* \"#utility.yul\":2170:2292   */\n    tag_84:\n        /* \"#utility.yul\":2243:2267   */\n      tag_115\n        /* \"#utility.yul\":2261:2266   */\n      dup2\n        /* \"#utility.yul\":2243:2267   */\n      tag_83\n      jump\t// in\n    tag_115:\n        /* \"#utility.yul\":2236:2241   */\n      dup2\n        /* \"#utility.yul\":2233:2268   */\n      eq\n        /* \"#utility.yul\":2223:2286   */\n      tag_116\n      jumpi\n        /* \"#utility.yul\":2282:2283   */\n      0x00\n        /* \"#utility.yul\":2279:2280   */\n      dup1\n        /* \"#utility.yul\":2272:2284   */\n      revert\n        /* \"#utility.yul\":2223:2286   */\n    tag_116:\n        /* \"#utility.yul\":2170:2292   */\n      pop\n      jump\t// out\n        /* \"#utility.yul\":2298:2437   */\n    tag_85:\n        /* \"#utility.yul\":2344:2349   */\n      0x00\n        /* \"#utility.yul\":2382:2388   */\n      dup2\n        /* \"#utility.yul\":2369:2389   */\n      calldataload\n        /* \"#utility.yul\":2360:2389   */\n      swap1\n      pop\n        /* \"#utility.yul\":2398:2431   */\n      tag_118\n        /* \"#utility.yul\":2425:2430   */\n      dup2\n        /* \"#utility.yul\":2398:2431   */\n      tag_84\n      jump\t// in\n    tag_118:\n        /* \"#utility.yul\":2298:2437   */\n      swap3\n      swap2\n      pop\n      pop\n      jump\t// out\n        /* \"#utility.yul\":2443:2772   */\n    tag_37:\n        /* \"#utility.yul\":2502:2508   */\n      0x00\n        /* \"#utility.yul\":2551:2553   */\n      0x20\n        /* \"#utility.yul\":2539:2548   */\n      dup3\n        /* \"#utility.yul\":2530:2537   */\n      dup5\n        /* \"#utility.yul\":2526:2549   */\n      sub\n        /* \"#utility.yul\":2522:2554   */\n      slt\n        /* \"#utility.yul\":2519:2638   */\n      iszero\n      tag_120\n      jumpi\n        /* \"#utility.yul\":2557:2636   */\n      tag_121\n      tag_78\n      jump\t// in\n    tag_121:\n        /* \"#utility.yul\":2519:2638   */\n    tag_120:\n        /* \"#utility.yul\":2677:2678   */\n      0x00\n        /* \"#utility.yul\":2702:2755   */\n      tag_122\n        /* \"#utility.yul\":2747:2754   */\n      dup5\n        /* \"#utility.yul\":2738:2744   */\n      dup3\n        /* \"#utility.yul\":2727:2736   */\n      dup6\n        /* \"#utility.yul\":2723:2745   */\n      add\n        /* \"#utility.yul\":2702:2755   */\n      tag_85\n      jump\t// in\n    tag_122:\n        /* \"#utility.yul\":2692:2755   */\n      swap2\n      pop\n        /* \"#utility.yul\":2648:2765   */\n      pop\n        /* \"#utility.yul\":2443:2772   */\n      swap3\n      swap2\n      pop\n      pop\n      jump\t// out\n        /* \"#utility.yul\":2778:2958   */\n    tag_86:\n        /* \"#utility.yul\":2826:2903   */\n      0x4e487b7100000000000000000000000000000000000000000000000000000000\n        /* \"#utility.yul\":2823:2824   */\n      0x00\n        /* \"#utility.yul\":2816:2904   */\n      mstore\n        /* \"#utility.yul\":2923:2927   */\n      0x12\n        /* \"#utility.yul\":2920:2921   */\n      0x04\n        /* \"#utility.yul\":2913:2928   */\n      mstore\n        /* \"#utility.yul\":2947:2951   */\n      0x24\n        /* \"#utility.yul\":2944:2945   */\n      0x00\n        /* \"#utility.yul\":2937:2952   */\n      revert\n        /* \"#utility.yul\":2964:3144   */\n    tag_87:\n        /* \"#utility.yul\":3012:3089   */\n      0x4e487b7100000000000000000000000000000000000000000000000000000000\n        /* \"#utility.yul\":3009:3010   */\n      0x00\n        /* \"#utility.yul\":3002:3090   */\n      mstore\n        /* \"#utility.yul\":3109:3113   */\n      0x11\n        /* \"#utility.yul\":3106:3107   */\n      0x04\n        /* \"#utility.yul\":3099:3114   */\n      mstore\n        /* \"#utility.yul\":3133:3137   */\n      0x24\n        /* \"#utility.yul\":3130:3131   */\n      0x00\n        /* \"#utility.yul\":3123:3138   */\n      revert\n        /* \"#utility.yul\":3150:3335   */\n    tag_52:\n        /* \"#utility.yul\":3190:3191   */\n      0x00\n        /* \"#utility.yul\":3207:3227   */\n      tag_126\n        /* \"#utility.yul\":3225:3226   */\n      dup3\n        /* \"#utility.yul\":3207:3227   */\n      tag_75\n      jump\t// in\n    tag_126:\n        /* \"#utility.yul\":3202:3227   */\n      swap2\n      pop\n        /* \"#utility.yul\":3241:3261   */\n      tag_127\n        /* \"#utility.yul\":3259:3260   */\n      dup4\n        /* \"#utility.yul\":3241:3261   */\n      tag_75\n      jump\t// in\n    tag_127:\n        /* \"#utility.yul\":3236:3261   */\n      swap3\n      pop\n        /* \"#utility.yul\":3280:3281   */\n      dup3\n        /* \"#utility.yul\":3270:3305   */\n      tag_128\n      jumpi\n        /* \"#utility.yul\":3285:3303   */\n      tag_129\n      tag_86\n      jump\t// in\n    tag_129:\n        /* \"#utility.yul\":3270:3305   */\n    tag_128:\n        /* \"#utility.yul\":3327:3328   */\n      dup3\n        /* \"#utility.yul\":3324:3325   */\n      dup3\n        /* \"#utility.yul\":3320:3329   */\n      div\n        /* \"#utility.yul\":3315:3329   */\n      swap1\n      pop\n        /* \"#utility.yul\":3150:3335   */\n      swap3\n      swap2\n      pop\n      pop\n      jump\t// out\n        /* \"#utility.yul\":3341:3532   */\n    tag_54:\n        /* \"#utility.yul\":3381:3385   */\n      0x00\n        /* \"#utility.yul\":3401:3421   */\n      tag_131\n        /* \"#utility.yul\":3419:3420   */\n      dup3\n        /* \"#utility.yul\":3401:3421   */\n      tag_75\n      jump\t// in\n    tag_131:\n        /* \"#utility.yul\":3396:3421   */\n      swap2\n      pop\n        /* \"#utility.yul\":3435:3455   */\n      tag_132\n        /* \"#utility.yul\":3453:3454   */\n      dup4\n        /* \"#utility.yul\":3435:3455   */\n      tag_75\n      jump\t// in\n    tag_132:\n        /* \"#utility.yul\":3430:3455   */\n      swap3\n      pop\n        /* \"#utility.yul\":3474:3475   */\n      dup3\n        /* \"#utility.yul\":3471:3472   */\n      dup3\n        /* \"#utility.yul\":3468:3476   */\n      lt\n        /* \"#utility.yul\":3465:3499   */\n      iszero\n      tag_133\n      jumpi\n        /* \"#utility.yul\":3479:3497   */\n      tag_134\n      tag_87\n      jump\t// in\n    tag_134:\n        /* \"#utility.yul\":3465:3499   */\n    tag_133:\n        /* \"#utility.yul\":3524:3525   */\n      dup3\n        /* \"#utility.yul\":3521:3522   */\n      dup3\n        /* \"#utility.yul\":3517:3526   */\n      sub\n        /* \"#utility.yul\":3509:3526   */\n      swap1\n      pop\n        /* \"#utility.yul\":3341:3532   */\n      swap3\n      swap2\n      pop\n      pop\n      jump\t// out\n        /* \"#utility.yul\":3538:3886   */\n    tag_56:\n        /* \"#utility.yul\":3578:3585   */\n      0x00\n        /* \"#utility.yul\":3601:3621   */\n      tag_136\n        /* \"#utility.yul\":3619:3620   */\n      dup3\n        /* \"#utility.yul\":3601:3621   */\n      tag_75\n      jump\t// in\n    tag_136:\n        /* \"#utility.yul\":3596:3621   */\n      swap2\n      pop\n        /* \"#utility.yul\":3635:3655   */\n      tag_137\n        /* \"#utility.yul\":3653:3654   */\n      dup4\n        /* \"#utility.yul\":3635:3655   */\n      tag_75\n      jump\t// in\n    tag_137:\n        /* \"#utility.yul\":3630:3655   */\n      swap3\n      pop\n        /* \"#utility.yul\":3823:3824   */\n      dup2\n        /* \"#utility.yul\":3755:3821   */\n      0xffffffffffffffffffffffffffffffffffffffffffffffffffffffffffffffff\n        /* \"#utility.yul\":3751:3825   */\n      div\n        /* \"#utility.yul\":3748:3749   */\n      dup4\n        /* \"#utility.yul\":3745:3826   */\n      gt\n        /* \"#utility.yul\":3740:3741   */\n      dup3\n        /* \"#utility.yul\":3733:3742   */\n      iszero\n        /* \"#utility.yul\":3726:3743   */\n      iszero\n        /* \"#utility.yul\":3722:3827   */\n      and\n        /* \"#utility.yul\":3719:3850   */\n      iszero\n      tag_138\n      jumpi\n        /* \"#utility.yul\":3830:3848   */\n      tag_139\n      tag_87\n      jump\t// in\n    tag_139:\n        /* \"#utility.yul\":3719:3850   */\n    tag_138:\n        /* \"#utility.yul\":3878:3879   */\n      dup3\n        /* \"#utility.yul\":3875:3876   */\n      dup3\n        /* \"#utility.yul\":3871:3880   */\n      mul\n        /* \"#utility.yul\":3860:3880   */\n      swap1\n      pop\n        /* \"#utility.yul\":3538:3886   */\n      swap3\n      swap2\n      pop\n      pop\n      jump\t// out\n        /* \"#utility.yul\":3892:4197   */\n    tag_58:\n        /* \"#utility.yul\":3932:3935   */\n      0x00\n        /* \"#utility.yul\":3951:3971   */\n      tag_141\n        /* \"#utility.yul\":3969:3970   */\n      dup3\n        /* \"#utility.yul\":3951:3971   */\n      tag_75\n      jump\t// in\n    tag_141:\n        /* \"#utility.yul\":3946:3971   */\n      swap2\n      pop\n        /* \"#utility.yul\":3985:4005   */\n      tag_142\n        /* \"#utility.yul\":4003:4004   */\n      dup4\n        /* \"#utility.yul\":3985:4005   */\n      tag_75\n      jump\t// in\n    tag_142:\n        /* \"#utility.yul\":3980:4005   */\n      swap3\n      pop\n        /* \"#utility.yul\":4139:4140   */\n      dup3\n        /* \"#utility.yul\":4071:4137   */\n      0xffffffffffffffffffffffffffffffffffffffffffffffffffffffffffffffff\n        /* \"#utility.yul\":4067:4141   */\n      sub\n        /* \"#utility.yul\":4064:4065   */\n      dup3\n        /* \"#utility.yul\":4061:4142   */\n      gt\n        /* \"#utility.yul\":4058:4165   */\n      iszero\n      tag_143\n      jumpi\n        /* \"#utility.yul\":4145:4163   */\n      tag_144\n      tag_87\n      jump\t// in\n    tag_144:\n        /* \"#utility.yul\":4058:4165   */\n    tag_143:\n        /* \"#utility.yul\":4189:4190   */\n      dup3\n        /* \"#utility.yul\":4186:4187   */\n      dup3\n        /* \"#utility.yul\":4182:4191   */\n      add\n        /* \"#utility.yul\":4175:4191   */\n      swap1\n      pop\n        /* \"#utility.yul\":3892:4197   */\n      swap3\n      swap2\n      pop\n      pop\n      jump\t// out\n\n    auxdata: 0xa26469706673582212205d22eda962dd0c206d52c89d2a9b6b508010b7e2f328f6362135ba63636991f064736f6c634300080f0033\n}\n",
				"bytecode": {
					"linkReferences": {},
					"object": "608060405234801561001057600080fd5b506040516108113803806108118339818101604052810190610032919061007a565b80600281905550506100a7565b600080fd5b6000819050919050565b61005781610044565b811461006257600080fd5b50565b6000815190506100748161004e565b92915050565b6000602082840312156100905761008f61003f565b5b600061009e84828501610065565b91505092915050565b61075b806100b66000396000f3fe608060405234801561001057600080fd5b506004361061009e5760003560e01c8063a694fc3a11610066578063a694fc3a1461013c578063a87430ba14610158578063c74465651461018b578063f20eaeb8146101a9578063f5ad7722146101c75761009e565b80634b5c8bdf146100a35780635d8d1585146100c157806364d4db10146100e2578063833a3b85146101005780638d48c9c81461011e575b600080fd5b6100ab6101e3565b6040516100b89190610469565b60405180910390f35b6100c96101e9565b6040516100d99493929190610484565b60405180910390f35b6100ea6102c0565b6040516100f79190610469565b60405180910390f35b6101086102c6565b6040516101159190610469565b60405180910390f35b6101266102cc565b6040516101339190610469565b60405180910390f35b610156600480360381019061015191906104fa565b6102d2565b005b610172600480360381019061016d9190610585565b6103f8565b6040516101829493929190610484565b60405180910390f35b610193610428565b6040516101a09190610469565b60405180910390f35b6101b161042e565b6040516101be9190610469565b60405180910390f35b6101e160048036038101906101dc91906104fa565b610434565b005b60015481565b60008060008060008060003373ffffffffffffffffffffffffffffffffffffffff1673ffffffffffffffffffffffffffffffffffffffff16815260200190815260200160002090506000806001541461024f5760015460025461024c9190610610565b90505b6000816004546006546102629190610641565b61026c9190610675565b8561027791906106cf565b9050826000015483600301548261028e9190610641565b6102989190610675565b83600201546102a791906106cf565b9650826003015495508260000154935050505090919293565b60045481565b60065481565b60035481565b60008060003373ffffffffffffffffffffffffffffffffffffffff1673ffffffffffffffffffffffffffffffffffffffff1681526020019081526020016000209050600080600154146103325760015460025461032f9190610610565b90505b806004546006546103439190610641565b61034d9190610675565b6003600082825461035e91906106cf565b925050819055508160000154826003015460035461037c9190610641565b6103869190610675565b82600201600082825461039991906106cf565b925050819055506003548260030181905550828260000160008282546103bf91906106cf565b92505081905550600654826001018190555082600160008282546103e391906106cf565b92505081905550600654600481905550505050565b60006020528060005260406000206000915090508060000154908060010154908060020154908060030154905084565b60055481565b60025481565b806006600082825461044691906106cf565b9250508190555050565b6000819050919050565b61046381610450565b82525050565b600060208201905061047e600083018461045a565b92915050565b6000608082019050610499600083018761045a565b6104a6602083018661045a565b6104b3604083018561045a565b6104c0606083018461045a565b95945050505050565b600080fd5b6104d781610450565b81146104e257600080fd5b50565b6000813590506104f4816104ce565b92915050565b6000602082840312156105105761050f6104c9565b5b600061051e848285016104e5565b91505092915050565b600073ffffffffffffffffffffffffffffffffffffffff82169050919050565b600061055282610527565b9050919050565b61056281610547565b811461056d57600080fd5b50565b60008135905061057f81610559565b92915050565b60006020828403121561059b5761059a6104c9565b5b60006105a984828501610570565b91505092915050565b7f4e487b7100000000000000000000000000000000000000000000000000000000600052601260045260246000fd5b7f4e487b7100000000000000000000000000000000000000000000000000000000600052601160045260246000fd5b600061061b82610450565b915061062683610450565b925082610636576106356105b2565b5b828204905092915050565b600061064c82610450565b915061065783610450565b92508282101561066a576106696105e1565b5b828203905092915050565b600061068082610450565b915061068b83610450565b9250817fffffffffffffffffffffffffffffffffffffffffffffffffffffffffffffffff04831182151516156106c4576106c36105e1565b5b828202905092915050565b60006106da82610450565b91506106e583610450565b9250827fffffffffffffffffffffffffffffffffffffffffffffffffffffffffffffffff0382111561071a576107196105e1565b5b82820190509291505056fea26469706673582212205d22eda962dd0c206d52c89d2a9b6b508010b7e2f328f6362135ba63636991f064736f6c634300080f0033",
					"opcodes": "PUSH1 0x80 PUSH1 0x40 MSTORE CALLVALUE DUP1 ISZERO PUSH2 0x10 JUMPI PUSH1 0x0 DUP1 REVERT JUMPDEST POP PUSH1 0x40 MLOAD PUSH2 0x811 CODESIZE SUB DUP1 PUSH2 0x811 DUP4 CODECOPY DUP2 DUP2 ADD PUSH1 0x40 MSTORE DUP2 ADD SWAP1 PUSH2 0x32 SWAP2 SWAP1 PUSH2 0x7A JUMP JUMPDEST DUP1 PUSH1 0x2 DUP2 SWAP1 SSTORE POP POP PUSH2 0xA7 JUMP JUMPDEST PUSH1 0x0 DUP1 REVERT JUMPDEST PUSH1 0x0 DUP2 SWAP1 POP SWAP2 SWAP1 POP JUMP JUMPDEST PUSH2 0x57 DUP2 PUSH2 0x44 JUMP JUMPDEST DUP2 EQ PUSH2 0x62 JUMPI PUSH1 0x0 DUP1 REVERT JUMPDEST POP JUMP JUMPDEST PUSH1 0x0 DUP2 MLOAD SWAP1 POP PUSH2 0x74 DUP2 PUSH2 0x4E JUMP JUMPDEST SWAP3 SWAP2 POP POP JUMP JUMPDEST PUSH1 0x0 PUSH1 0x20 DUP3 DUP5 SUB SLT ISZERO PUSH2 0x90 JUMPI PUSH2 0x8F PUSH2 0x3F JUMP JUMPDEST JUMPDEST PUSH1 0x0 PUSH2 0x9E DUP5 DUP3 DUP6 ADD PUSH2 0x65 JUMP JUMPDEST SWAP2 POP POP SWAP3 SWAP2 POP POP JUMP JUMPDEST PUSH2 0x75B DUP1 PUSH2 0xB6 PUSH1 0x0 CODECOPY PUSH1 0x0 RETURN INVALID PUSH1 0x80 PUSH1 0x40 MSTORE CALLVALUE DUP1 ISZERO PUSH2 0x10 JUMPI PUSH1 0x0 DUP1 REVERT JUMPDEST POP PUSH1 0x4 CALLDATASIZE LT PUSH2 0x9E JUMPI PUSH1 0x0 CALLDATALOAD PUSH1 0xE0 SHR DUP1 PUSH4 0xA694FC3A GT PUSH2 0x66 JUMPI DUP1 PUSH4 0xA694FC3A EQ PUSH2 0x13C JUMPI DUP1 PUSH4 0xA87430BA EQ PUSH2 0x158 JUMPI DUP1 PUSH4 0xC7446565 EQ PUSH2 0x18B JUMPI DUP1 PUSH4 0xF20EAEB8 EQ PUSH2 0x1A9 JUMPI DUP1 PUSH4 0xF5AD7722 EQ PUSH2 0x1C7 JUMPI PUSH2 0x9E JUMP JUMPDEST DUP1 PUSH4 0x4B5C8BDF EQ PUSH2 0xA3 JUMPI DUP1 PUSH4 0x5D8D1585 EQ PUSH2 0xC1 JUMPI DUP1 PUSH4 0x64D4DB10 EQ PUSH2 0xE2 JUMPI DUP1 PUSH4 0x833A3B85 EQ PUSH2 0x100 JUMPI DUP1 PUSH4 0x8D48C9C8 EQ PUSH2 0x11E JUMPI JUMPDEST PUSH1 0x0 DUP1 REVERT JUMPDEST PUSH2 0xAB PUSH2 0x1E3 JUMP JUMPDEST PUSH1 0x40 MLOAD PUSH2 0xB8 SWAP2 SWAP1 PUSH2 0x469 JUMP JUMPDEST PUSH1 0x40 MLOAD DUP1 SWAP2 SUB SWAP1 RETURN JUMPDEST PUSH2 0xC9 PUSH2 0x1E9 JUMP JUMPDEST PUSH1 0x40 MLOAD PUSH2 0xD9 SWAP5 SWAP4 SWAP3 SWAP2 SWAP1 PUSH2 0x484 JUMP JUMPDEST PUSH1 0x40 MLOAD DUP1 SWAP2 SUB SWAP1 RETURN JUMPDEST PUSH2 0xEA PUSH2 0x2C0 JUMP JUMPDEST PUSH1 0x40 MLOAD PUSH2 0xF7 SWAP2 SWAP1 PUSH2 0x469 JUMP JUMPDEST PUSH1 0x40 MLOAD DUP1 SWAP2 SUB SWAP1 RETURN JUMPDEST PUSH2 0x108 PUSH2 0x2C6 JUMP JUMPDEST PUSH1 0x40 MLOAD PUSH2 0x115 SWAP2 SWAP1 PUSH2 0x469 JUMP JUMPDEST PUSH1 0x40 MLOAD DUP1 SWAP2 SUB SWAP1 RETURN JUMPDEST PUSH2 0x126 PUSH2 0x2CC JUMP JUMPDEST PUSH1 0x40 MLOAD PUSH2 0x133 SWAP2 SWAP1 PUSH2 0x469 JUMP JUMPDEST PUSH1 0x40 MLOAD DUP1 SWAP2 SUB SWAP1 RETURN JUMPDEST PUSH2 0x156 PUSH1 0x4 DUP1 CALLDATASIZE SUB DUP2 ADD SWAP1 PUSH2 0x151 SWAP2 SWAP1 PUSH2 0x4FA JUMP JUMPDEST PUSH2 0x2D2 JUMP JUMPDEST STOP JUMPDEST PUSH2 0x172 PUSH1 0x4 DUP1 CALLDATASIZE SUB DUP2 ADD SWAP1 PUSH2 0x16D SWAP2 SWAP1 PUSH2 0x585 JUMP JUMPDEST PUSH2 0x3F8 JUMP JUMPDEST PUSH1 0x40 MLOAD PUSH2 0x182 SWAP5 SWAP4 SWAP3 SWAP2 SWAP1 PUSH2 0x484 JUMP JUMPDEST PUSH1 0x40 MLOAD DUP1 SWAP2 SUB SWAP1 RETURN JUMPDEST PUSH2 0x193 PUSH2 0x428 JUMP JUMPDEST PUSH1 0x40 MLOAD PUSH2 0x1A0 SWAP2 SWAP1 PUSH2 0x469 JUMP JUMPDEST PUSH1 0x40 MLOAD DUP1 SWAP2 SUB SWAP1 RETURN JUMPDEST PUSH2 0x1B1 PUSH2 0x42E JUMP JUMPDEST PUSH1 0x40 MLOAD PUSH2 0x1BE SWAP2 SWAP1 PUSH2 0x469 JUMP JUMPDEST PUSH1 0x40 MLOAD DUP1 SWAP2 SUB SWAP1 RETURN JUMPDEST PUSH2 0x1E1 PUSH1 0x4 DUP1 CALLDATASIZE SUB DUP2 ADD SWAP1 PUSH2 0x1DC SWAP2 SWAP1 PUSH2 0x4FA JUMP JUMPDEST PUSH2 0x434 JUMP JUMPDEST STOP JUMPDEST PUSH1 0x1 SLOAD DUP2 JUMP JUMPDEST PUSH1 0x0 DUP1 PUSH1 0x0 DUP1 PUSH1 0x0 DUP1 PUSH1 0x0 CALLER PUSH20 0xFFFFFFFFFFFFFFFFFFFFFFFFFFFFFFFFFFFFFFFF AND PUSH20 0xFFFFFFFFFFFFFFFFFFFFFFFFFFFFFFFFFFFFFFFF AND DUP2 MSTORE PUSH1 0x20 ADD SWAP1 DUP2 MSTORE PUSH1 0x20 ADD PUSH1 0x0 KECCAK256 SWAP1 POP PUSH1 0x0 DUP1 PUSH1 0x1 SLOAD EQ PUSH2 0x24F JUMPI PUSH1 0x1 SLOAD PUSH1 0x2 SLOAD PUSH2 0x24C SWAP2 SWAP1 PUSH2 0x610 JUMP JUMPDEST SWAP1 POP JUMPDEST PUSH1 0x0 DUP2 PUSH1 0x4 SLOAD PUSH1 0x6 SLOAD PUSH2 0x262 SWAP2 SWAP1 PUSH2 0x641 JUMP JUMPDEST PUSH2 0x26C SWAP2 SWAP1 PUSH2 0x675 JUMP JUMPDEST DUP6 PUSH2 0x277 SWAP2 SWAP1 PUSH2 0x6CF JUMP JUMPDEST SWAP1 POP DUP3 PUSH1 0x0 ADD SLOAD DUP4 PUSH1 0x3 ADD SLOAD DUP3 PUSH2 0x28E SWAP2 SWAP1 PUSH2 0x641 JUMP JUMPDEST PUSH2 0x298 SWAP2 SWAP1 PUSH2 0x675 JUMP JUMPDEST DUP4 PUSH1 0x2 ADD SLOAD PUSH2 0x2A7 SWAP2 SWAP1 PUSH2 0x6CF JUMP JUMPDEST SWAP7 POP DUP3 PUSH1 0x3 ADD SLOAD SWAP6 POP DUP3 PUSH1 0x0 ADD SLOAD SWAP4 POP POP POP POP SWAP1 SWAP2 SWAP3 SWAP4 JUMP JUMPDEST PUSH1 0x4 SLOAD DUP2 JUMP JUMPDEST PUSH1 0x6 SLOAD DUP2 JUMP JUMPDEST PUSH1 0x3 SLOAD DUP2 JUMP JUMPDEST PUSH1 0x0 DUP1 PUSH1 0x0 CALLER PUSH20 0xFFFFFFFFFFFFFFFFFFFFFFFFFFFFFFFFFFFFFFFF AND PUSH20 0xFFFFFFFFFFFFFFFFFFFFFFFFFFFFFFFFFFFFFFFF AND DUP2 MSTORE PUSH1 0x20 ADD SWAP1 DUP2 MSTORE PUSH1 0x20 ADD PUSH1 0x0 KECCAK256 SWAP1 POP PUSH1 0x0 DUP1 PUSH1 0x1 SLOAD EQ PUSH2 0x332 JUMPI PUSH1 0x1 SLOAD PUSH1 0x2 SLOAD PUSH2 0x32F SWAP2 SWAP1 PUSH2 0x610 JUMP JUMPDEST SWAP1 POP JUMPDEST DUP1 PUSH1 0x4 SLOAD PUSH1 0x6 SLOAD PUSH2 0x343 SWAP2 SWAP1 PUSH2 0x641 JUMP JUMPDEST PUSH2 0x34D SWAP2 SWAP1 PUSH2 0x675 JUMP JUMPDEST PUSH1 0x3 PUSH1 0x0 DUP3 DUP3 SLOAD PUSH2 0x35E SWAP2 SWAP1 PUSH2 0x6CF JUMP JUMPDEST SWAP3 POP POP DUP2 SWAP1 SSTORE POP DUP2 PUSH1 0x0 ADD SLOAD DUP3 PUSH1 0x3 ADD SLOAD PUSH1 0x3 SLOAD PUSH2 0x37C SWAP2 SWAP1 PUSH2 0x641 JUMP JUMPDEST PUSH2 0x386 SWAP2 SWAP1 PUSH2 0x675 JUMP JUMPDEST DUP3 PUSH1 0x2 ADD PUSH1 0x0 DUP3 DUP3 SLOAD PUSH2 0x399 SWAP2 SWAP1 PUSH2 0x6CF JUMP JUMPDEST SWAP3 POP POP DUP2 SWAP1 SSTORE POP PUSH1 0x3 SLOAD DUP3 PUSH1 0x3 ADD DUP2 SWAP1 SSTORE POP DUP3 DUP3 PUSH1 0x0 ADD PUSH1 0x0 DUP3 DUP3 SLOAD PUSH2 0x3BF SWAP2 SWAP1 PUSH2 0x6CF JUMP JUMPDEST SWAP3 POP POP DUP2 SWAP1 SSTORE POP PUSH1 0x6 SLOAD DUP3 PUSH1 0x1 ADD DUP2 SWAP1 SSTORE POP DUP3 PUSH1 0x1 PUSH1 0x0 DUP3 DUP3 SLOAD PUSH2 0x3E3 SWAP2 SWAP1 PUSH2 0x6CF JUMP JUMPDEST SWAP3 POP POP DUP2 SWAP1 SSTORE POP PUSH1 0x6 SLOAD PUSH1 0x4 DUP2 SWAP1 SSTORE POP POP POP POP JUMP JUMPDEST PUSH1 0x0 PUSH1 0x20 MSTORE DUP1 PUSH1 0x0 MSTORE PUSH1 0x40 PUSH1 0x0 KECCAK256 PUSH1 0x0 SWAP2 POP SWAP1 POP DUP1 PUSH1 0x0 ADD SLOAD SWAP1 DUP1 PUSH1 0x1 ADD SLOAD SWAP1 DUP1 PUSH1 0x2 ADD SLOAD SWAP1 DUP1 PUSH1 0x3 ADD SLOAD SWAP1 POP DUP5 JUMP JUMPDEST PUSH1 0x5 SLOAD DUP2 JUMP JUMPDEST PUSH1 0x2 SLOAD DUP2 JUMP JUMPDEST DUP1 PUSH1 0x6 PUSH1 0x0 DUP3 DUP3 SLOAD PUSH2 0x446 SWAP2 SWAP1 PUSH2 0x6CF JUMP JUMPDEST SWAP3 POP POP DUP2 SWAP1 SSTORE POP POP JUMP JUMPDEST PUSH1 0x0 DUP2 SWAP1 POP SWAP2 SWAP1 POP JUMP JUMPDEST PUSH2 0x463 DUP2 PUSH2 0x450 JUMP JUMPDEST DUP3 MSTORE POP POP JUMP JUMPDEST PUSH1 0x0 PUSH1 0x20 DUP3 ADD SWAP1 POP PUSH2 0x47E PUSH1 0x0 DUP4 ADD DUP5 PUSH2 0x45A JUMP JUMPDEST SWAP3 SWAP2 POP POP JUMP JUMPDEST PUSH1 0x0 PUSH1 0x80 DUP3 ADD SWAP1 POP PUSH2 0x499 PUSH1 0x0 DUP4 ADD DUP8 PUSH2 0x45A JUMP JUMPDEST PUSH2 0x4A6 PUSH1 0x20 DUP4 ADD DUP7 PUSH2 0x45A JUMP JUMPDEST PUSH2 0x4B3 PUSH1 0x40 DUP4 ADD DUP6 PUSH2 0x45A JUMP JUMPDEST PUSH2 0x4C0 PUSH1 0x60 DUP4 ADD DUP5 PUSH2 0x45A JUMP JUMPDEST SWAP6 SWAP5 POP POP POP POP POP JUMP JUMPDEST PUSH1 0x0 DUP1 REVERT JUMPDEST PUSH2 0x4D7 DUP2 PUSH2 0x450 JUMP JUMPDEST DUP2 EQ PUSH2 0x4E2 JUMPI PUSH1 0x0 DUP1 REVERT JUMPDEST POP JUMP JUMPDEST PUSH1 0x0 DUP2 CALLDATALOAD SWAP1 POP PUSH2 0x4F4 DUP2 PUSH2 0x4CE JUMP JUMPDEST SWAP3 SWAP2 POP POP JUMP JUMPDEST PUSH1 0x0 PUSH1 0x20 DUP3 DUP5 SUB SLT ISZERO PUSH2 0x510 JUMPI PUSH2 0x50F PUSH2 0x4C9 JUMP JUMPDEST JUMPDEST PUSH1 0x0 PUSH2 0x51E DUP5 DUP3 DUP6 ADD PUSH2 0x4E5 JUMP JUMPDEST SWAP2 POP POP SWAP3 SWAP2 POP POP JUMP JUMPDEST PUSH1 0x0 PUSH20 0xFFFFFFFFFFFFFFFFFFFFFFFFFFFFFFFFFFFFFFFF DUP3 AND SWAP1 POP SWAP2 SWAP1 POP JUMP JUMPDEST PUSH1 0x0 PUSH2 0x552 DUP3 PUSH2 0x527 JUMP JUMPDEST SWAP1 POP SWAP2 SWAP1 POP JUMP JUMPDEST PUSH2 0x562 DUP2 PUSH2 0x547 JUMP JUMPDEST DUP2 EQ PUSH2 0x56D JUMPI PUSH1 0x0 DUP1 REVERT JUMPDEST POP JUMP JUMPDEST PUSH1 0x0 DUP2 CALLDATALOAD SWAP1 POP PUSH2 0x57F DUP2 PUSH2 0x559 JUMP JUMPDEST SWAP3 SWAP2 POP POP JUMP JUMPDEST PUSH1 0x0 PUSH1 0x20 DUP3 DUP5 SUB SLT ISZERO PUSH2 0x59B JUMPI PUSH2 0x59A PUSH2 0x4C9 JUMP JUMPDEST JUMPDEST PUSH1 0x0 PUSH2 0x5A9 DUP5 DUP3 DUP6 ADD PUSH2 0x570 JUMP JUMPDEST SWAP2 POP POP SWAP3 SWAP2 POP POP JUMP JUMPDEST PUSH32 0x4E487B7100000000000000000000000000000000000000000000000000000000 PUSH1 0x0 MSTORE PUSH1 0x12 PUSH1 0x4 MSTORE PUSH1 0x24 PUSH1 0x0 REVERT JUMPDEST PUSH32 0x4E487B7100000000000000000000000000000000000000000000000000000000 PUSH1 0x0 MSTORE PUSH1 0x11 PUSH1 0x4 MSTORE PUSH1 0x24 PUSH1 0x0 REVERT JUMPDEST PUSH1 0x0 PUSH2 0x61B DUP3 PUSH2 0x450 JUMP JUMPDEST SWAP2 POP PUSH2 0x626 DUP4 PUSH2 0x450 JUMP JUMPDEST SWAP3 POP DUP3 PUSH2 0x636 JUMPI PUSH2 0x635 PUSH2 0x5B2 JUMP JUMPDEST JUMPDEST DUP3 DUP3 DIV SWAP1 POP SWAP3 SWAP2 POP POP JUMP JUMPDEST PUSH1 0x0 PUSH2 0x64C DUP3 PUSH2 0x450 JUMP JUMPDEST SWAP2 POP PUSH2 0x657 DUP4 PUSH2 0x450 JUMP JUMPDEST SWAP3 POP DUP3 DUP3 LT ISZERO PUSH2 0x66A JUMPI PUSH2 0x669 PUSH2 0x5E1 JUMP JUMPDEST JUMPDEST DUP3 DUP3 SUB SWAP1 POP SWAP3 SWAP2 POP POP JUMP JUMPDEST PUSH1 0x0 PUSH2 0x680 DUP3 PUSH2 0x450 JUMP JUMPDEST SWAP2 POP PUSH2 0x68B DUP4 PUSH2 0x450 JUMP JUMPDEST SWAP3 POP DUP2 PUSH32 0xFFFFFFFFFFFFFFFFFFFFFFFFFFFFFFFFFFFFFFFFFFFFFFFFFFFFFFFFFFFFFFFF DIV DUP4 GT DUP3 ISZERO ISZERO AND ISZERO PUSH2 0x6C4 JUMPI PUSH2 0x6C3 PUSH2 0x5E1 JUMP JUMPDEST JUMPDEST DUP3 DUP3 MUL SWAP1 POP SWAP3 SWAP2 POP POP JUMP JUMPDEST PUSH1 0x0 PUSH2 0x6DA DUP3 PUSH2 0x450 JUMP JUMPDEST SWAP2 POP PUSH2 0x6E5 DUP4 PUSH2 0x450 JUMP JUMPDEST SWAP3 POP DUP3 PUSH32 0xFFFFFFFFFFFFFFFFFFFFFFFFFFFFFFFFFFFFFFFFFFFFFFFFFFFFFFFFFFFFFFFF SUB DUP3 GT ISZERO PUSH2 0x71A JUMPI PUSH2 0x719 PUSH2 0x5E1 JUMP JUMPDEST JUMPDEST DUP3 DUP3 ADD SWAP1 POP SWAP3 SWAP2 POP POP JUMP INVALID LOG2 PUSH5 0x6970667358 0x22 SLT KECCAK256 0x5D 0x22 0xED 0xA9 PUSH3 0xDD0C20 PUSH14 0x52C89D2A9B6B508010B7E2F328F6 CALLDATASIZE 0x21 CALLDATALOAD 0xBA PUSH4 0x636991F0 PUSH5 0x736F6C6343 STOP ADDMOD 0xF STOP CALLER "
				},
				"gasEstimates": {
					"creation": {
						"codeDepositCost": "376600",
						"executionCost": "infinite",
						"totalCost": "infinite"
					},
					"external": {
						"addAt(uint256)": "infinite",
						"currentAt()": "2496",
						"getUserInfo()": "infinite",
						"lastStakeTime()": "2474",
						"output()": "2495",
						"rn()": "2518",
						"stake(uint256)": "infinite",
						"stakeTotal()": "2430",
						"startAt()": "2473",
						"users(address)": "infinite"
					}
				},
				"methodIdentifiers": {
					"addAt(uint256)": "f5ad7722",
					"currentAt()": "833a3b85",
					"getUserInfo()": "5d8d1585",
					"lastStakeTime()": "64d4db10",
					"output()": "f20eaeb8",
					"rn()": "8d48c9c8",
					"stake(uint256)": "a694fc3a",
					"stakeTotal()": "4b5c8bdf",
					"startAt()": "c7446565",
					"users(address)": "a87430ba"
				}
			},
			"storageLayout": {
				"storage": [
					{
						"astId": 15,
						"contract": "contracts/SushiPool.sol:SushiPool",
						"label": "users",
						"offset": 0,
						"slot": "0",
						"type": "t_mapping(t_address,t_struct(User)10_storage)"
					},
					{
						"astId": 17,
						"contract": "contracts/SushiPool.sol:SushiPool",
						"label": "stakeTotal",
						"offset": 0,
						"slot": "1",
						"type": "t_uint256"
					},
					{
						"astId": 19,
						"contract": "contracts/SushiPool.sol:SushiPool",
						"label": "output",
						"offset": 0,
						"slot": "2",
						"type": "t_uint256"
					},
					{
						"astId": 21,
						"contract": "contracts/SushiPool.sol:SushiPool",
						"label": "rn",
						"offset": 0,
						"slot": "3",
						"type": "t_uint256"
					},
					{
						"astId": 23,
						"contract": "contracts/SushiPool.sol:SushiPool",
						"label": "lastStakeTime",
						"offset": 0,
						"slot": "4",
						"type": "t_uint256"
					},
					{
						"astId": 25,
						"contract": "contracts/SushiPool.sol:SushiPool",
						"label": "startAt",
						"offset": 0,
						"slot": "5",
						"type": "t_uint256"
					},
					{
						"astId": 27,
						"contract": "contracts/SushiPool.sol:SushiPool",
						"label": "currentAt",
						"offset": 0,
						"slot": "6",
						"type": "t_uint256"
					}
				],
				"types": {
					"t_address": {
						"encoding": "inplace",
						"label": "address",
						"numberOfBytes": "20"
					},
					"t_mapping(t_address,t_struct(User)10_storage)": {
						"encoding": "mapping",
						"key": "t_address",
						"label": "mapping(address => struct SushiPool.User)",
						"numberOfBytes": "32",
						"value": "t_struct(User)10_storage"
					},
					"t_struct(User)10_storage": {
						"encoding": "inplace",
						"label": "struct SushiPool.User",
						"members": [
							{
								"astId": 3,
								"contract": "contracts/SushiPool.sol:SushiPool",
								"label": "stakeNumber",
								"offset": 0,
								"slot": "0",
								"type": "t_uint256"
							},
							{
								"astId": 5,
								"contract": "contracts/SushiPool.sol:SushiPool",
								"label": "stakeTime",
								"offset": 0,
								"slot": "1",
								"type": "t_uint256"
							},
							{
								"astId": 7,
								"contract": "contracts/SushiPool.sol:SushiPool",
								"label": "insert",
								"offset": 0,
								"slot": "2",
								"type": "t_uint256"
							},
							{
								"astId": 9,
								"contract": "contracts/SushiPool.sol:SushiPool",
								"label": "ru",
								"offset": 0,
								"slot": "3",
								"type": "t_uint256"
							}
						],
						"numberOfBytes": "128"
					},
					"t_uint256": {
						"encoding": "inplace",
						"label": "uint256",
						"numberOfBytes": "32"
					}
				}
			},
			"userdoc": {
				"kind": "user",
				"methods": {
					"stake(uint256)": {
						"notice": "用户质押  amount 质押数量"
					}
				},
				"version": 1
			}
		}
	}
}