{
	"contracts/自己写个矿池,定息矿池.sol": {
		"StakeContract": {
			"abi": [
				{
					"inputs": [
						{
							"internalType": "address",
							"name": "_staketoken",
							"type": "address"
						},
						{
							"internalType": "address",
							"name": "_totoken",
							"type": "address"
						}
					],
					"stateMutability": "nonpayable",
					"type": "constructor"
				},
				{
					"anonymous": false,
					"inputs": [
						{
							"indexed": true,
							"internalType": "address",
							"name": "owner",
							"type": "address"
						},
						{
							"indexed": true,
							"internalType": "address",
							"name": "spender",
							"type": "address"
						},
						{
							"indexed": false,
							"internalType": "uint256",
							"name": "amout",
							"type": "uint256"
						}
					],
					"name": "Approveal",
					"type": "event"
				},
				{
					"anonymous": false,
					"inputs": [
						{
							"indexed": true,
							"internalType": "address",
							"name": "from",
							"type": "address"
						},
						{
							"indexed": true,
							"internalType": "address",
							"name": "to",
							"type": "address"
						},
						{
							"indexed": false,
							"internalType": "uint256",
							"name": "amout",
							"type": "uint256"
						}
					],
					"name": "Trasfer",
					"type": "event"
				},
				{
					"anonymous": false,
					"inputs": [
						{
							"indexed": true,
							"internalType": "address",
							"name": "to",
							"type": "address"
						},
						{
							"indexed": false,
							"internalType": "uint256",
							"name": "amout",
							"type": "uint256"
						}
					],
					"name": "transfer",
					"type": "event"
				},
				{
					"inputs": [
						{
							"internalType": "uint256",
							"name": "_amount",
							"type": "uint256"
						}
					],
					"name": "Stake",
					"outputs": [
						{
							"internalType": "bool",
							"name": "",
							"type": "bool"
						}
					],
					"stateMutability": "nonpayable",
					"type": "function"
				},
				{
					"inputs": [
						{
							"internalType": "address",
							"name": "",
							"type": "address"
						}
					],
					"name": "User_Map",
					"outputs": [
						{
							"internalType": "uint256",
							"name": "stakeNumber",
							"type": "uint256"
						},
						{
							"internalType": "uint256",
							"name": "last_Stake_Time",
							"type": "uint256"
						},
						{
							"internalType": "uint256",
							"name": "last_totoken_ratio",
							"type": "uint256"
						},
						{
							"internalType": "uint256",
							"name": "whole_ratio",
							"type": "uint256"
						},
						{
							"internalType": "uint256",
							"name": "last_totoken_Time",
							"type": "uint256"
						}
					],
					"stateMutability": "view",
					"type": "function"
				},
				{
					"inputs": [],
					"name": "harvest",
					"outputs": [
						{
							"internalType": "bool",
							"name": "",
							"type": "bool"
						}
					],
					"stateMutability": "nonpayable",
					"type": "function"
				},
				{
					"inputs": [],
					"name": "lastTotokenRatio",
					"outputs": [
						{
							"internalType": "uint256",
							"name": "",
							"type": "uint256"
						}
					],
					"stateMutability": "view",
					"type": "function"
				},
				{
					"inputs": [],
					"name": "newTotokenRatio",
					"outputs": [
						{
							"internalType": "uint256",
							"name": "",
							"type": "uint256"
						}
					],
					"stateMutability": "view",
					"type": "function"
				},
				{
					"inputs": [],
					"name": "owner",
					"outputs": [
						{
							"internalType": "address",
							"name": "",
							"type": "address"
						}
					],
					"stateMutability": "view",
					"type": "function"
				},
				{
					"inputs": [],
					"name": "ratio",
					"outputs": [
						{
							"internalType": "uint256",
							"name": "",
							"type": "uint256"
						}
					],
					"stateMutability": "view",
					"type": "function"
				},
				{
					"inputs": [
						{
							"internalType": "uint256",
							"name": "_ratio",
							"type": "uint256"
						}
					],
					"name": "setRatio",
					"outputs": [],
					"stateMutability": "nonpayable",
					"type": "function"
				},
				{
					"inputs": [],
					"name": "stakeSupple",
					"outputs": [
						{
							"internalType": "uint256",
							"name": "",
							"type": "uint256"
						}
					],
					"stateMutability": "view",
					"type": "function"
				},
				{
					"inputs": [],
					"name": "staketoken",
					"outputs": [
						{
							"internalType": "address",
							"name": "",
							"type": "address"
						}
					],
					"stateMutability": "view",
					"type": "function"
				},
				{
					"inputs": [],
					"name": "totoken",
					"outputs": [
						{
							"internalType": "address",
							"name": "",
							"type": "address"
						}
					],
					"stateMutability": "view",
					"type": "function"
				},
				{
					"inputs": [],
					"name": "withDraw",
					"outputs": [
						{
							"internalType": "bool",
							"name": "",
							"type": "bool"
						}
					],
					"stateMutability": "nonpayable",
					"type": "function"
				}
			],
			"devdoc": {
				"kind": "dev",
				"methods": {},
				"version": 1
			},
			"evm": {
				"assembly": "    /* \"contracts/\\xe8\\x87\\xaa\\xe5\\xb7\\xb1\\xe5\\x86\\x99\\xe4\\xb8\\xaa\\xe7\\x9f\\xbf\\xe6\\xb1\\xa0,\\xe5\\xae\\x9a\\xe6\\x81\\xaf\\xe7\\x9f\\xbf\\xe6\\xb1\\xa0.sol\":732:5316  contract StakeContract {... */\n  mstore(0x40, 0x80)\n    /* \"contracts/\\xe8\\x87\\xaa\\xe5\\xb7\\xb1\\xe5\\x86\\x99\\xe4\\xb8\\xaa\\xe7\\x9f\\xbf\\xe6\\xb1\\xa0,\\xe5\\xae\\x9a\\xe6\\x81\\xaf\\xe7\\x9f\\xbf\\xe6\\xb1\\xa0.sol\":1381:1719  constructor (address _staketoken, address _totoken) {... */\n  callvalue\n  dup1\n  iszero\n  tag_1\n  jumpi\n  0x00\n  dup1\n  revert\ntag_1:\n  pop\n  mload(0x40)\n  sub(codesize, bytecodeSize)\n  dup1\n  bytecodeSize\n  dup4\n  codecopy\n  dup2\n  dup2\n  add\n  0x40\n  mstore\n  dup2\n  add\n  swap1\n  tag_2\n  swap2\n  swap1\n  tag_3\n  jump\t// in\ntag_2:\n    /* \"contracts/\\xe8\\x87\\xaa\\xe5\\xb7\\xb1\\xe5\\x86\\x99\\xe4\\xb8\\xaa\\xe7\\x9f\\xbf\\xe6\\xb1\\xa0,\\xe5\\xae\\x9a\\xe6\\x81\\xaf\\xe7\\x9f\\xbf\\xe6\\xb1\\xa0.sol\":1452:1462  msg.sender */\n  caller\n    /* \"contracts/\\xe8\\x87\\xaa\\xe5\\xb7\\xb1\\xe5\\x86\\x99\\xe4\\xb8\\xaa\\xe7\\x9f\\xbf\\xe6\\xb1\\xa0,\\xe5\\xae\\x9a\\xe6\\x81\\xaf\\xe7\\x9f\\xbf\\xe6\\xb1\\xa0.sol\":1444:1449  owner */\n  0x04\n  0x00\n    /* \"contracts/\\xe8\\x87\\xaa\\xe5\\xb7\\xb1\\xe5\\x86\\x99\\xe4\\xb8\\xaa\\xe7\\x9f\\xbf\\xe6\\xb1\\xa0,\\xe5\\xae\\x9a\\xe6\\x81\\xaf\\xe7\\x9f\\xbf\\xe6\\xb1\\xa0.sol\":1444:1462  owner = msg.sender */\n  0x0100\n  exp\n  dup2\n  sload\n  dup2\n  0xffffffffffffffffffffffffffffffffffffffff\n  mul\n  not\n  and\n  swap1\n  dup4\n  0xffffffffffffffffffffffffffffffffffffffff\n  and\n  mul\n  or\n  swap1\n  sstore\n  pop\n    /* \"contracts/\\xe8\\x87\\xaa\\xe5\\xb7\\xb1\\xe5\\x86\\x99\\xe4\\xb8\\xaa\\xe7\\x9f\\xbf\\xe6\\xb1\\xa0,\\xe5\\xae\\x9a\\xe6\\x81\\xaf\\xe7\\x9f\\xbf\\xe6\\xb1\\xa0.sol\":1504:1505  0 */\n  0x00\n    /* \"contracts/\\xe8\\x87\\xaa\\xe5\\xb7\\xb1\\xe5\\x86\\x99\\xe4\\xb8\\xaa\\xe7\\x9f\\xbf\\xe6\\xb1\\xa0,\\xe5\\xae\\x9a\\xe6\\x81\\xaf\\xe7\\x9f\\xbf\\xe6\\xb1\\xa0.sol\":1481:1506  _staketoken != address(0) */\n  0xffffffffffffffffffffffffffffffffffffffff\n  and\n    /* \"contracts/\\xe8\\x87\\xaa\\xe5\\xb7\\xb1\\xe5\\x86\\x99\\xe4\\xb8\\xaa\\xe7\\x9f\\xbf\\xe6\\xb1\\xa0,\\xe5\\xae\\x9a\\xe6\\x81\\xaf\\xe7\\x9f\\xbf\\xe6\\xb1\\xa0.sol\":1481:1492  _staketoken */\n  dup3\n    /* \"contracts/\\xe8\\x87\\xaa\\xe5\\xb7\\xb1\\xe5\\x86\\x99\\xe4\\xb8\\xaa\\xe7\\x9f\\xbf\\xe6\\xb1\\xa0,\\xe5\\xae\\x9a\\xe6\\x81\\xaf\\xe7\\x9f\\xbf\\xe6\\xb1\\xa0.sol\":1481:1506  _staketoken != address(0) */\n  0xffffffffffffffffffffffffffffffffffffffff\n  and\n  sub\n    /* \"contracts/\\xe8\\x87\\xaa\\xe5\\xb7\\xb1\\xe5\\x86\\x99\\xe4\\xb8\\xaa\\xe7\\x9f\\xbf\\xe6\\xb1\\xa0,\\xe5\\xae\\x9a\\xe6\\x81\\xaf\\xe7\\x9f\\xbf\\xe6\\xb1\\xa0.sol\":1473:1526  require(_staketoken != address(0),\"NOT,S 0X ADDRESS\") */\n  tag_6\n  jumpi\n  mload(0x40)\n  0x08c379a000000000000000000000000000000000000000000000000000000000\n  dup2\n  mstore\n  0x04\n  add\n  tag_7\n  swap1\n  tag_8\n  jump\t// in\ntag_7:\n  mload(0x40)\n  dup1\n  swap2\n  sub\n  swap1\n  revert\ntag_6:\n    /* \"contracts/\\xe8\\x87\\xaa\\xe5\\xb7\\xb1\\xe5\\x86\\x99\\xe4\\xb8\\xaa\\xe7\\x9f\\xbf\\xe6\\xb1\\xa0,\\xe5\\xae\\x9a\\xe6\\x81\\xaf\\xe7\\x9f\\xbf\\xe6\\xb1\\xa0.sol\":1565:1566  0 */\n  0x00\n    /* \"contracts/\\xe8\\x87\\xaa\\xe5\\xb7\\xb1\\xe5\\x86\\x99\\xe4\\xb8\\xaa\\xe7\\x9f\\xbf\\xe6\\xb1\\xa0,\\xe5\\xae\\x9a\\xe6\\x81\\xaf\\xe7\\x9f\\xbf\\xe6\\xb1\\xa0.sol\":1545:1567  _totoken != address(0) */\n  0xffffffffffffffffffffffffffffffffffffffff\n  and\n    /* \"contracts/\\xe8\\x87\\xaa\\xe5\\xb7\\xb1\\xe5\\x86\\x99\\xe4\\xb8\\xaa\\xe7\\x9f\\xbf\\xe6\\xb1\\xa0,\\xe5\\xae\\x9a\\xe6\\x81\\xaf\\xe7\\x9f\\xbf\\xe6\\xb1\\xa0.sol\":1545:1553  _totoken */\n  dup2\n    /* \"contracts/\\xe8\\x87\\xaa\\xe5\\xb7\\xb1\\xe5\\x86\\x99\\xe4\\xb8\\xaa\\xe7\\x9f\\xbf\\xe6\\xb1\\xa0,\\xe5\\xae\\x9a\\xe6\\x81\\xaf\\xe7\\x9f\\xbf\\xe6\\xb1\\xa0.sol\":1545:1567  _totoken != address(0) */\n  0xffffffffffffffffffffffffffffffffffffffff\n  and\n  sub\n    /* \"contracts/\\xe8\\x87\\xaa\\xe5\\xb7\\xb1\\xe5\\x86\\x99\\xe4\\xb8\\xaa\\xe7\\x9f\\xbf\\xe6\\xb1\\xa0,\\xe5\\xae\\x9a\\xe6\\x81\\xaf\\xe7\\x9f\\xbf\\xe6\\xb1\\xa0.sol\":1537:1587  require(_totoken != address(0),\"NOT,S 0X ADDRESS\") */\n  tag_9\n  jumpi\n  mload(0x40)\n  0x08c379a000000000000000000000000000000000000000000000000000000000\n  dup2\n  mstore\n  0x04\n  add\n  tag_10\n  swap1\n  tag_8\n  jump\t// in\ntag_10:\n  mload(0x40)\n  dup1\n  swap2\n  sub\n  swap1\n  revert\ntag_9:\n    /* \"contracts/\\xe8\\x87\\xaa\\xe5\\xb7\\xb1\\xe5\\x86\\x99\\xe4\\xb8\\xaa\\xe7\\x9f\\xbf\\xe6\\xb1\\xa0,\\xe5\\xae\\x9a\\xe6\\x81\\xaf\\xe7\\x9f\\xbf\\xe6\\xb1\\xa0.sol\":1621:1629  _totoken */\n  dup1\n    /* \"contracts/\\xe8\\x87\\xaa\\xe5\\xb7\\xb1\\xe5\\x86\\x99\\xe4\\xb8\\xaa\\xe7\\x9f\\xbf\\xe6\\xb1\\xa0,\\xe5\\xae\\x9a\\xe6\\x81\\xaf\\xe7\\x9f\\xbf\\xe6\\xb1\\xa0.sol\":1606:1629  _staketoken == _totoken */\n  0xffffffffffffffffffffffffffffffffffffffff\n  and\n    /* \"contracts/\\xe8\\x87\\xaa\\xe5\\xb7\\xb1\\xe5\\x86\\x99\\xe4\\xb8\\xaa\\xe7\\x9f\\xbf\\xe6\\xb1\\xa0,\\xe5\\xae\\x9a\\xe6\\x81\\xaf\\xe7\\x9f\\xbf\\xe6\\xb1\\xa0.sol\":1606:1617  _staketoken */\n  dup3\n    /* \"contracts/\\xe8\\x87\\xaa\\xe5\\xb7\\xb1\\xe5\\x86\\x99\\xe4\\xb8\\xaa\\xe7\\x9f\\xbf\\xe6\\xb1\\xa0,\\xe5\\xae\\x9a\\xe6\\x81\\xaf\\xe7\\x9f\\xbf\\xe6\\xb1\\xa0.sol\":1606:1629  _staketoken == _totoken */\n  0xffffffffffffffffffffffffffffffffffffffff\n  and\n  eq\n    /* \"contracts/\\xe8\\x87\\xaa\\xe5\\xb7\\xb1\\xe5\\x86\\x99\\xe4\\xb8\\xaa\\xe7\\x9f\\xbf\\xe6\\xb1\\xa0,\\xe5\\xae\\x9a\\xe6\\x81\\xaf\\xe7\\x9f\\xbf\\xe6\\xb1\\xa0.sol\":1598:1647  require(_staketoken == _totoken,\"NEED agreement\") */\n  tag_11\n  jumpi\n  mload(0x40)\n  0x08c379a000000000000000000000000000000000000000000000000000000000\n  dup2\n  mstore\n  0x04\n  add\n  tag_12\n  swap1\n  tag_13\n  jump\t// in\ntag_12:\n  mload(0x40)\n  dup1\n  swap2\n  sub\n  swap1\n  revert\ntag_11:\n    /* \"contracts/\\xe8\\x87\\xaa\\xe5\\xb7\\xb1\\xe5\\x86\\x99\\xe4\\xb8\\xaa\\xe7\\x9f\\xbf\\xe6\\xb1\\xa0,\\xe5\\xae\\x9a\\xe6\\x81\\xaf\\xe7\\x9f\\xbf\\xe6\\xb1\\xa0.sol\":1671:1682  _staketoken */\n  dup2\n    /* \"contracts/\\xe8\\x87\\xaa\\xe5\\xb7\\xb1\\xe5\\x86\\x99\\xe4\\xb8\\xaa\\xe7\\x9f\\xbf\\xe6\\xb1\\xa0,\\xe5\\xae\\x9a\\xe6\\x81\\xaf\\xe7\\x9f\\xbf\\xe6\\xb1\\xa0.sol\":1658:1668  staketoken */\n  0x01\n  0x00\n    /* \"contracts/\\xe8\\x87\\xaa\\xe5\\xb7\\xb1\\xe5\\x86\\x99\\xe4\\xb8\\xaa\\xe7\\x9f\\xbf\\xe6\\xb1\\xa0,\\xe5\\xae\\x9a\\xe6\\x81\\xaf\\xe7\\x9f\\xbf\\xe6\\xb1\\xa0.sol\":1658:1682  staketoken = _staketoken */\n  0x0100\n  exp\n  dup2\n  sload\n  dup2\n  0xffffffffffffffffffffffffffffffffffffffff\n  mul\n  not\n  and\n  swap1\n  dup4\n  0xffffffffffffffffffffffffffffffffffffffff\n  and\n  mul\n  or\n  swap1\n  sstore\n  pop\n    /* \"contracts/\\xe8\\x87\\xaa\\xe5\\xb7\\xb1\\xe5\\x86\\x99\\xe4\\xb8\\xaa\\xe7\\x9f\\xbf\\xe6\\xb1\\xa0,\\xe5\\xae\\x9a\\xe6\\x81\\xaf\\xe7\\x9f\\xbf\\xe6\\xb1\\xa0.sol\":1703:1711  _totoken */\n  dup1\n    /* \"contracts/\\xe8\\x87\\xaa\\xe5\\xb7\\xb1\\xe5\\x86\\x99\\xe4\\xb8\\xaa\\xe7\\x9f\\xbf\\xe6\\xb1\\xa0,\\xe5\\xae\\x9a\\xe6\\x81\\xaf\\xe7\\x9f\\xbf\\xe6\\xb1\\xa0.sol\":1693:1700  totoken */\n  0x02\n  0x00\n    /* \"contracts/\\xe8\\x87\\xaa\\xe5\\xb7\\xb1\\xe5\\x86\\x99\\xe4\\xb8\\xaa\\xe7\\x9f\\xbf\\xe6\\xb1\\xa0,\\xe5\\xae\\x9a\\xe6\\x81\\xaf\\xe7\\x9f\\xbf\\xe6\\xb1\\xa0.sol\":1693:1711  totoken = _totoken */\n  0x0100\n  exp\n  dup2\n  sload\n  dup2\n  0xffffffffffffffffffffffffffffffffffffffff\n  mul\n  not\n  and\n  swap1\n  dup4\n  0xffffffffffffffffffffffffffffffffffffffff\n  and\n  mul\n  or\n  swap1\n  sstore\n  pop\n    /* \"contracts/\\xe8\\x87\\xaa\\xe5\\xb7\\xb1\\xe5\\x86\\x99\\xe4\\xb8\\xaa\\xe7\\x9f\\xbf\\xe6\\xb1\\xa0,\\xe5\\xae\\x9a\\xe6\\x81\\xaf\\xe7\\x9f\\xbf\\xe6\\xb1\\xa0.sol\":1381:1719  constructor (address _staketoken, address _totoken) {... */\n  pop\n  pop\n    /* \"contracts/\\xe8\\x87\\xaa\\xe5\\xb7\\xb1\\xe5\\x86\\x99\\xe4\\xb8\\xaa\\xe7\\x9f\\xbf\\xe6\\xb1\\xa0,\\xe5\\xae\\x9a\\xe6\\x81\\xaf\\xe7\\x9f\\xbf\\xe6\\xb1\\xa0.sol\":732:5316  contract StakeContract {... */\n  jump(tag_14)\n    /* \"#utility.yul\":88:205   */\ntag_16:\n    /* \"#utility.yul\":197:198   */\n  0x00\n    /* \"#utility.yul\":194:195   */\n  dup1\n    /* \"#utility.yul\":187:199   */\n  revert\n    /* \"#utility.yul\":334:460   */\ntag_18:\n    /* \"#utility.yul\":371:378   */\n  0x00\n    /* \"#utility.yul\":411:453   */\n  0xffffffffffffffffffffffffffffffffffffffff\n    /* \"#utility.yul\":404:409   */\n  dup3\n    /* \"#utility.yul\":400:454   */\n  and\n    /* \"#utility.yul\":389:454   */\n  swap1\n  pop\n    /* \"#utility.yul\":334:460   */\n  swap2\n  swap1\n  pop\n  jump\t// out\n    /* \"#utility.yul\":466:562   */\ntag_19:\n    /* \"#utility.yul\":503:510   */\n  0x00\n    /* \"#utility.yul\":532:556   */\n  tag_33\n    /* \"#utility.yul\":550:555   */\n  dup3\n    /* \"#utility.yul\":532:556   */\n  tag_18\n  jump\t// in\ntag_33:\n    /* \"#utility.yul\":521:556   */\n  swap1\n  pop\n    /* \"#utility.yul\":466:562   */\n  swap2\n  swap1\n  pop\n  jump\t// out\n    /* \"#utility.yul\":568:690   */\ntag_20:\n    /* \"#utility.yul\":641:665   */\n  tag_35\n    /* \"#utility.yul\":659:664   */\n  dup2\n    /* \"#utility.yul\":641:665   */\n  tag_19\n  jump\t// in\ntag_35:\n    /* \"#utility.yul\":634:639   */\n  dup2\n    /* \"#utility.yul\":631:666   */\n  eq\n    /* \"#utility.yul\":621:684   */\n  tag_36\n  jumpi\n    /* \"#utility.yul\":680:681   */\n  0x00\n    /* \"#utility.yul\":677:678   */\n  dup1\n    /* \"#utility.yul\":670:682   */\n  revert\n    /* \"#utility.yul\":621:684   */\ntag_36:\n    /* \"#utility.yul\":568:690   */\n  pop\n  jump\t// out\n    /* \"#utility.yul\":696:839   */\ntag_21:\n    /* \"#utility.yul\":753:758   */\n  0x00\n    /* \"#utility.yul\":784:790   */\n  dup2\n    /* \"#utility.yul\":778:791   */\n  mload\n    /* \"#utility.yul\":769:791   */\n  swap1\n  pop\n    /* \"#utility.yul\":800:833   */\n  tag_38\n    /* \"#utility.yul\":827:832   */\n  dup2\n    /* \"#utility.yul\":800:833   */\n  tag_20\n  jump\t// in\ntag_38:\n    /* \"#utility.yul\":696:839   */\n  swap3\n  swap2\n  pop\n  pop\n  jump\t// out\n    /* \"#utility.yul\":845:1352   */\ntag_3:\n    /* \"#utility.yul\":924:930   */\n  0x00\n    /* \"#utility.yul\":932:938   */\n  dup1\n    /* \"#utility.yul\":981:983   */\n  0x40\n    /* \"#utility.yul\":969:978   */\n  dup4\n    /* \"#utility.yul\":960:967   */\n  dup6\n    /* \"#utility.yul\":956:979   */\n  sub\n    /* \"#utility.yul\":952:984   */\n  slt\n    /* \"#utility.yul\":949:1068   */\n  iszero\n  tag_40\n  jumpi\n    /* \"#utility.yul\":987:1066   */\n  tag_41\n  tag_16\n  jump\t// in\ntag_41:\n    /* \"#utility.yul\":949:1068   */\ntag_40:\n    /* \"#utility.yul\":1107:1108   */\n  0x00\n    /* \"#utility.yul\":1132:1196   */\n  tag_42\n    /* \"#utility.yul\":1188:1195   */\n  dup6\n    /* \"#utility.yul\":1179:1185   */\n  dup3\n    /* \"#utility.yul\":1168:1177   */\n  dup7\n    /* \"#utility.yul\":1164:1186   */\n  add\n    /* \"#utility.yul\":1132:1196   */\n  tag_21\n  jump\t// in\ntag_42:\n    /* \"#utility.yul\":1122:1196   */\n  swap3\n  pop\n    /* \"#utility.yul\":1078:1206   */\n  pop\n    /* \"#utility.yul\":1245:1247   */\n  0x20\n    /* \"#utility.yul\":1271:1335   */\n  tag_43\n    /* \"#utility.yul\":1327:1334   */\n  dup6\n    /* \"#utility.yul\":1318:1324   */\n  dup3\n    /* \"#utility.yul\":1307:1316   */\n  dup7\n    /* \"#utility.yul\":1303:1325   */\n  add\n    /* \"#utility.yul\":1271:1335   */\n  tag_21\n  jump\t// in\ntag_43:\n    /* \"#utility.yul\":1261:1335   */\n  swap2\n  pop\n    /* \"#utility.yul\":1216:1345   */\n  pop\n    /* \"#utility.yul\":845:1352   */\n  swap3\n  pop\n  swap3\n  swap1\n  pop\n  jump\t// out\n    /* \"#utility.yul\":1358:1527   */\ntag_22:\n    /* \"#utility.yul\":1442:1453   */\n  0x00\n    /* \"#utility.yul\":1476:1482   */\n  dup3\n    /* \"#utility.yul\":1471:1474   */\n  dup3\n    /* \"#utility.yul\":1464:1483   */\n  mstore\n    /* \"#utility.yul\":1516:1520   */\n  0x20\n    /* \"#utility.yul\":1511:1514   */\n  dup3\n    /* \"#utility.yul\":1507:1521   */\n  add\n    /* \"#utility.yul\":1492:1521   */\n  swap1\n  pop\n    /* \"#utility.yul\":1358:1527   */\n  swap3\n  swap2\n  pop\n  pop\n  jump\t// out\n    /* \"#utility.yul\":1533:1699   */\ntag_23:\n    /* \"#utility.yul\":1673:1691   */\n  0x4e4f542c53203058204144445245535300000000000000000000000000000000\n    /* \"#utility.yul\":1669:1670   */\n  0x00\n    /* \"#utility.yul\":1661:1667   */\n  dup3\n    /* \"#utility.yul\":1657:1671   */\n  add\n    /* \"#utility.yul\":1650:1692   */\n  mstore\n    /* \"#utility.yul\":1533:1699   */\n  pop\n  jump\t// out\n    /* \"#utility.yul\":1705:2071   */\ntag_24:\n    /* \"#utility.yul\":1847:1850   */\n  0x00\n    /* \"#utility.yul\":1868:1935   */\n  tag_47\n    /* \"#utility.yul\":1932:1934   */\n  0x10\n    /* \"#utility.yul\":1927:1930   */\n  dup4\n    /* \"#utility.yul\":1868:1935   */\n  tag_22\n  jump\t// in\ntag_47:\n    /* \"#utility.yul\":1861:1935   */\n  swap2\n  pop\n    /* \"#utility.yul\":1944:2037   */\n  tag_48\n    /* \"#utility.yul\":2033:2036   */\n  dup3\n    /* \"#utility.yul\":1944:2037   */\n  tag_23\n  jump\t// in\ntag_48:\n    /* \"#utility.yul\":2062:2064   */\n  0x20\n    /* \"#utility.yul\":2057:2060   */\n  dup3\n    /* \"#utility.yul\":2053:2065   */\n  add\n    /* \"#utility.yul\":2046:2065   */\n  swap1\n  pop\n    /* \"#utility.yul\":1705:2071   */\n  swap2\n  swap1\n  pop\n  jump\t// out\n    /* \"#utility.yul\":2077:2496   */\ntag_8:\n    /* \"#utility.yul\":2243:2247   */\n  0x00\n    /* \"#utility.yul\":2281:2283   */\n  0x20\n    /* \"#utility.yul\":2270:2279   */\n  dup3\n    /* \"#utility.yul\":2266:2284   */\n  add\n    /* \"#utility.yul\":2258:2284   */\n  swap1\n  pop\n    /* \"#utility.yul\":2330:2339   */\n  dup2\n    /* \"#utility.yul\":2324:2328   */\n  dup2\n    /* \"#utility.yul\":2320:2340   */\n  sub\n    /* \"#utility.yul\":2316:2317   */\n  0x00\n    /* \"#utility.yul\":2305:2314   */\n  dup4\n    /* \"#utility.yul\":2301:2318   */\n  add\n    /* \"#utility.yul\":2294:2341   */\n  mstore\n    /* \"#utility.yul\":2358:2489   */\n  tag_50\n    /* \"#utility.yul\":2484:2488   */\n  dup2\n    /* \"#utility.yul\":2358:2489   */\n  tag_24\n  jump\t// in\ntag_50:\n    /* \"#utility.yul\":2350:2489   */\n  swap1\n  pop\n    /* \"#utility.yul\":2077:2496   */\n  swap2\n  swap1\n  pop\n  jump\t// out\n    /* \"#utility.yul\":2502:2666   */\ntag_25:\n    /* \"#utility.yul\":2642:2658   */\n  0x4e4545442061677265656d656e74000000000000000000000000000000000000\n    /* \"#utility.yul\":2638:2639   */\n  0x00\n    /* \"#utility.yul\":2630:2636   */\n  dup3\n    /* \"#utility.yul\":2626:2640   */\n  add\n    /* \"#utility.yul\":2619:2659   */\n  mstore\n    /* \"#utility.yul\":2502:2666   */\n  pop\n  jump\t// out\n    /* \"#utility.yul\":2672:3038   */\ntag_26:\n    /* \"#utility.yul\":2814:2817   */\n  0x00\n    /* \"#utility.yul\":2835:2902   */\n  tag_53\n    /* \"#utility.yul\":2899:2901   */\n  0x0e\n    /* \"#utility.yul\":2894:2897   */\n  dup4\n    /* \"#utility.yul\":2835:2902   */\n  tag_22\n  jump\t// in\ntag_53:\n    /* \"#utility.yul\":2828:2902   */\n  swap2\n  pop\n    /* \"#utility.yul\":2911:3004   */\n  tag_54\n    /* \"#utility.yul\":3000:3003   */\n  dup3\n    /* \"#utility.yul\":2911:3004   */\n  tag_25\n  jump\t// in\ntag_54:\n    /* \"#utility.yul\":3029:3031   */\n  0x20\n    /* \"#utility.yul\":3024:3027   */\n  dup3\n    /* \"#utility.yul\":3020:3032   */\n  add\n    /* \"#utility.yul\":3013:3032   */\n  swap1\n  pop\n    /* \"#utility.yul\":2672:3038   */\n  swap2\n  swap1\n  pop\n  jump\t// out\n    /* \"#utility.yul\":3044:3463   */\ntag_13:\n    /* \"#utility.yul\":3210:3214   */\n  0x00\n    /* \"#utility.yul\":3248:3250   */\n  0x20\n    /* \"#utility.yul\":3237:3246   */\n  dup3\n    /* \"#utility.yul\":3233:3251   */\n  add\n    /* \"#utility.yul\":3225:3251   */\n  swap1\n  pop\n    /* \"#utility.yul\":3297:3306   */\n  dup2\n    /* \"#utility.yul\":3291:3295   */\n  dup2\n    /* \"#utility.yul\":3287:3307   */\n  sub\n    /* \"#utility.yul\":3283:3284   */\n  0x00\n    /* \"#utility.yul\":3272:3281   */\n  dup4\n    /* \"#utility.yul\":3268:3285   */\n  add\n    /* \"#utility.yul\":3261:3308   */\n  mstore\n    /* \"#utility.yul\":3325:3456   */\n  tag_56\n    /* \"#utility.yul\":3451:3455   */\n  dup2\n    /* \"#utility.yul\":3325:3456   */\n  tag_26\n  jump\t// in\ntag_56:\n    /* \"#utility.yul\":3317:3456   */\n  swap1\n  pop\n    /* \"#utility.yul\":3044:3463   */\n  swap2\n  swap1\n  pop\n  jump\t// out\n    /* \"contracts/\\xe8\\x87\\xaa\\xe5\\xb7\\xb1\\xe5\\x86\\x99\\xe4\\xb8\\xaa\\xe7\\x9f\\xbf\\xe6\\xb1\\xa0,\\xe5\\xae\\x9a\\xe6\\x81\\xaf\\xe7\\x9f\\xbf\\xe6\\xb1\\xa0.sol\":732:5316  contract StakeContract {... */\ntag_14:\n  dataSize(sub_0)\n  dup1\n  dataOffset(sub_0)\n  0x00\n  codecopy\n  0x00\n  return\nstop\n\nsub_0: assembly {\n        /* \"contracts/\\xe8\\x87\\xaa\\xe5\\xb7\\xb1\\xe5\\x86\\x99\\xe4\\xb8\\xaa\\xe7\\x9f\\xbf\\xe6\\xb1\\xa0,\\xe5\\xae\\x9a\\xe6\\x81\\xaf\\xe7\\x9f\\xbf\\xe6\\xb1\\xa0.sol\":732:5316  contract StakeContract {... */\n      mstore(0x40, 0x80)\n      callvalue\n      dup1\n      iszero\n      tag_1\n      jumpi\n      0x00\n      dup1\n      revert\n    tag_1:\n      pop\n      jumpi(tag_2, lt(calldatasize, 0x04))\n      shr(0xe0, calldataload(0x00))\n      dup1\n      0x71ca337d\n      gt\n      tag_15\n      jumpi\n      dup1\n      0x71ca337d\n      eq\n      tag_9\n      jumpi\n      dup1\n      0x8c93ecff\n      eq\n      tag_10\n      jumpi\n      dup1\n      0x8da5cb5b\n      eq\n      tag_11\n      jumpi\n      dup1\n      0xb2237ba3\n      eq\n      tag_12\n      jumpi\n      dup1\n      0xd942727f\n      eq\n      tag_13\n      jumpi\n      dup1\n      0xdab2997b\n      eq\n      tag_14\n      jumpi\n      jump(tag_2)\n    tag_15:\n      dup1\n      0x0fdb1c10\n      eq\n      tag_3\n      jumpi\n      dup1\n      0x227a473b\n      eq\n      tag_4\n      jumpi\n      dup1\n      0x2c46502d\n      eq\n      tag_5\n      jumpi\n      dup1\n      0x4641257d\n      eq\n      tag_6\n      jumpi\n      dup1\n      0x529aca49\n      eq\n      tag_7\n      jumpi\n      dup1\n      0x5e9f4435\n      eq\n      tag_8\n      jumpi\n    tag_2:\n      0x00\n      dup1\n      revert\n        /* \"contracts/\\xe8\\x87\\xaa\\xe5\\xb7\\xb1\\xe5\\x86\\x99\\xe4\\xb8\\xaa\\xe7\\x9f\\xbf\\xe6\\xb1\\xa0,\\xe5\\xae\\x9a\\xe6\\x81\\xaf\\xe7\\x9f\\xbf\\xe6\\xb1\\xa0.sol\":2682:3033  function withDraw () public returns (bool) {... */\n    tag_3:\n      tag_16\n      tag_17\n      jump\t// in\n    tag_16:\n      mload(0x40)\n      tag_18\n      swap2\n      swap1\n      tag_19\n      jump\t// in\n    tag_18:\n      mload(0x40)\n      dup1\n      swap2\n      sub\n      swap1\n      return\n        /* \"contracts/\\xe8\\x87\\xaa\\xe5\\xb7\\xb1\\xe5\\x86\\x99\\xe4\\xb8\\xaa\\xe7\\x9f\\xbf\\xe6\\xb1\\xa0,\\xe5\\xae\\x9a\\xe6\\x81\\xaf\\xe7\\x9f\\xbf\\xe6\\xb1\\xa0.sol\":2032:2674  function Stake(uint _amount) public returns (bool){... */\n    tag_4:\n      tag_20\n      0x04\n      dup1\n      calldatasize\n      sub\n      dup2\n      add\n      swap1\n      tag_21\n      swap2\n      swap1\n      tag_22\n      jump\t// in\n    tag_21:\n      tag_23\n      jump\t// in\n    tag_20:\n      mload(0x40)\n      tag_24\n      swap2\n      swap1\n      tag_19\n      jump\t// in\n    tag_24:\n      mload(0x40)\n      dup1\n      swap2\n      sub\n      swap1\n      return\n        /* \"contracts/\\xe8\\x87\\xaa\\xe5\\xb7\\xb1\\xe5\\x86\\x99\\xe4\\xb8\\xaa\\xe7\\x9f\\xbf\\xe6\\xb1\\xa0,\\xe5\\xae\\x9a\\xe6\\x81\\xaf\\xe7\\x9f\\xbf\\xe6\\xb1\\xa0.sol\":849:871  address public totoken */\n    tag_5:\n      tag_25\n      tag_26\n      jump\t// in\n    tag_25:\n      mload(0x40)\n      tag_27\n      swap2\n      swap1\n      tag_28\n      jump\t// in\n    tag_27:\n      mload(0x40)\n      dup1\n      swap2\n      sub\n      swap1\n      return\n        /* \"contracts/\\xe8\\x87\\xaa\\xe5\\xb7\\xb1\\xe5\\x86\\x99\\xe4\\xb8\\xaa\\xe7\\x9f\\xbf\\xe6\\xb1\\xa0,\\xe5\\xae\\x9a\\xe6\\x81\\xaf\\xe7\\x9f\\xbf\\xe6\\xb1\\xa0.sol\":3041:3643  function harvest() public returns (bool) {... */\n    tag_6:\n      tag_29\n      tag_30\n      jump\t// in\n    tag_29:\n      mload(0x40)\n      tag_31\n      swap2\n      swap1\n      tag_19\n      jump\t// in\n    tag_31:\n      mload(0x40)\n      dup1\n      swap2\n      sub\n      swap1\n      return\n        /* \"contracts/\\xe8\\x87\\xaa\\xe5\\xb7\\xb1\\xe5\\x86\\x99\\xe4\\xb8\\xaa\\xe7\\x9f\\xbf\\xe6\\xb1\\xa0,\\xe5\\xae\\x9a\\xe6\\x81\\xaf\\xe7\\x9f\\xbf\\xe6\\xb1\\xa0.sol\":3992:4279  function newTotokenRatio() public view returns (uint) {... */\n    tag_7:\n      tag_32\n      tag_33\n      jump\t// in\n    tag_32:\n      mload(0x40)\n      tag_34\n      swap2\n      swap1\n      tag_35\n      jump\t// in\n    tag_34:\n      mload(0x40)\n      dup1\n      swap2\n      sub\n      swap1\n      return\n        /* \"contracts/\\xe8\\x87\\xaa\\xe5\\xb7\\xb1\\xe5\\x86\\x99\\xe4\\xb8\\xaa\\xe7\\x9f\\xbf\\xe6\\xb1\\xa0,\\xe5\\xae\\x9a\\xe6\\x81\\xaf\\xe7\\x9f\\xbf\\xe6\\xb1\\xa0.sol\":4287:4458  function lastTotokenRatio()public view returns(uint) {... */\n    tag_8:\n      tag_36\n      tag_37\n      jump\t// in\n    tag_36:\n      mload(0x40)\n      tag_38\n      swap2\n      swap1\n      tag_35\n      jump\t// in\n    tag_38:\n      mload(0x40)\n      dup1\n      swap2\n      sub\n      swap1\n      return\n        /* \"contracts/\\xe8\\x87\\xaa\\xe5\\xb7\\xb1\\xe5\\x86\\x99\\xe4\\xb8\\xaa\\xe7\\x9f\\xbf\\xe6\\xb1\\xa0,\\xe5\\xae\\x9a\\xe6\\x81\\xaf\\xe7\\x9f\\xbf\\xe6\\xb1\\xa0.sol\":793:810  uint public ratio */\n    tag_9:\n      tag_39\n      tag_40\n      jump\t// in\n    tag_39:\n      mload(0x40)\n      tag_41\n      swap2\n      swap1\n      tag_35\n      jump\t// in\n    tag_41:\n      mload(0x40)\n      dup1\n      swap2\n      sub\n      swap1\n      return\n        /* \"contracts/\\xe8\\x87\\xaa\\xe5\\xb7\\xb1\\xe5\\x86\\x99\\xe4\\xb8\\xaa\\xe7\\x9f\\xbf\\xe6\\xb1\\xa0,\\xe5\\xae\\x9a\\xe6\\x81\\xaf\\xe7\\x9f\\xbf\\xe6\\xb1\\xa0.sol\":1332:1372  mapping(address => User) public User_Map */\n    tag_10:\n      tag_42\n      0x04\n      dup1\n      calldatasize\n      sub\n      dup2\n      add\n      swap1\n      tag_43\n      swap2\n      swap1\n      tag_44\n      jump\t// in\n    tag_43:\n      tag_45\n      jump\t// in\n    tag_42:\n      mload(0x40)\n      tag_46\n      swap6\n      swap5\n      swap4\n      swap3\n      swap2\n      swap1\n      tag_47\n      jump\t// in\n    tag_46:\n      mload(0x40)\n      dup1\n      swap2\n      sub\n      swap1\n      return\n        /* \"contracts/\\xe8\\x87\\xaa\\xe5\\xb7\\xb1\\xe5\\x86\\x99\\xe4\\xb8\\xaa\\xe7\\x9f\\xbf\\xe6\\xb1\\xa0,\\xe5\\xae\\x9a\\xe6\\x81\\xaf\\xe7\\x9f\\xbf\\xe6\\xb1\\xa0.sol\":908:928  address public owner */\n    tag_11:\n      tag_48\n      tag_49\n      jump\t// in\n    tag_48:\n      mload(0x40)\n      tag_50\n      swap2\n      swap1\n      tag_28\n      jump\t// in\n    tag_50:\n      mload(0x40)\n      dup1\n      swap2\n      sub\n      swap1\n      return\n        /* \"contracts/\\xe8\\x87\\xaa\\xe5\\xb7\\xb1\\xe5\\x86\\x99\\xe4\\xb8\\xaa\\xe7\\x9f\\xbf\\xe6\\xb1\\xa0,\\xe5\\xae\\x9a\\xe6\\x81\\xaf\\xe7\\x9f\\xbf\\xe6\\xb1\\xa0.sol\":1932:2024  function setRatio(uint _ratio) external onlyOwner {    ... */\n    tag_12:\n      tag_51\n      0x04\n      dup1\n      calldatasize\n      sub\n      dup2\n      add\n      swap1\n      tag_52\n      swap2\n      swap1\n      tag_22\n      jump\t// in\n    tag_52:\n      tag_53\n      jump\t// in\n    tag_51:\n      stop\n        /* \"contracts/\\xe8\\x87\\xaa\\xe5\\xb7\\xb1\\xe5\\x86\\x99\\xe4\\xb8\\xaa\\xe7\\x9f\\xbf\\xe6\\xb1\\xa0,\\xe5\\xae\\x9a\\xe6\\x81\\xaf\\xe7\\x9f\\xbf\\xe6\\xb1\\xa0.sol\":878:901  uint public stakeSupple */\n    tag_13:\n      tag_54\n      tag_55\n      jump\t// in\n    tag_54:\n      mload(0x40)\n      tag_56\n      swap2\n      swap1\n      tag_35\n      jump\t// in\n    tag_56:\n      mload(0x40)\n      dup1\n      swap2\n      sub\n      swap1\n      return\n        /* \"contracts/\\xe8\\x87\\xaa\\xe5\\xb7\\xb1\\xe5\\x86\\x99\\xe4\\xb8\\xaa\\xe7\\x9f\\xbf\\xe6\\xb1\\xa0,\\xe5\\xae\\x9a\\xe6\\x81\\xaf\\xe7\\x9f\\xbf\\xe6\\xb1\\xa0.sol\":817:842  address public staketoken */\n    tag_14:\n      tag_57\n      tag_58\n      jump\t// in\n    tag_57:\n      mload(0x40)\n      tag_59\n      swap2\n      swap1\n      tag_28\n      jump\t// in\n    tag_59:\n      mload(0x40)\n      dup1\n      swap2\n      sub\n      swap1\n      return\n        /* \"contracts/\\xe8\\x87\\xaa\\xe5\\xb7\\xb1\\xe5\\x86\\x99\\xe4\\xb8\\xaa\\xe7\\x9f\\xbf\\xe6\\xb1\\xa0,\\xe5\\xae\\x9a\\xe6\\x81\\xaf\\xe7\\x9f\\xbf\\xe6\\xb1\\xa0.sol\":2682:3033  function withDraw () public returns (bool) {... */\n    tag_17:\n        /* \"contracts/\\xe8\\x87\\xaa\\xe5\\xb7\\xb1\\xe5\\x86\\x99\\xe4\\xb8\\xaa\\xe7\\x9f\\xbf\\xe6\\xb1\\xa0,\\xe5\\xae\\x9a\\xe6\\x81\\xaf\\xe7\\x9f\\xbf\\xe6\\xb1\\xa0.sol\":2719:2723  bool */\n      0x00\n        /* \"contracts/\\xe8\\x87\\xaa\\xe5\\xb7\\xb1\\xe5\\x86\\x99\\xe4\\xb8\\xaa\\xe7\\x9f\\xbf\\xe6\\xb1\\xa0,\\xe5\\xae\\x9a\\xe6\\x81\\xaf\\xe7\\x9f\\xbf\\xe6\\xb1\\xa0.sol\":2743:2753  staketoken */\n      0x01\n      0x00\n      swap1\n      sload\n      swap1\n      0x0100\n      exp\n      swap1\n      div\n      0xffffffffffffffffffffffffffffffffffffffff\n      and\n        /* \"contracts/\\xe8\\x87\\xaa\\xe5\\xb7\\xb1\\xe5\\x86\\x99\\xe4\\xb8\\xaa\\xe7\\x9f\\xbf\\xe6\\xb1\\xa0,\\xe5\\xae\\x9a\\xe6\\x81\\xaf\\xe7\\x9f\\xbf\\xe6\\xb1\\xa0.sol\":2736:2763  IERC20(staketoken).transfer */\n      0xffffffffffffffffffffffffffffffffffffffff\n      and\n      0xa9059cbb\n        /* \"contracts/\\xe8\\x87\\xaa\\xe5\\xb7\\xb1\\xe5\\x86\\x99\\xe4\\xb8\\xaa\\xe7\\x9f\\xbf\\xe6\\xb1\\xa0,\\xe5\\xae\\x9a\\xe6\\x81\\xaf\\xe7\\x9f\\xbf\\xe6\\xb1\\xa0.sol\":2764:2774  msg.sender */\n      caller\n        /* \"contracts/\\xe8\\x87\\xaa\\xe5\\xb7\\xb1\\xe5\\x86\\x99\\xe4\\xb8\\xaa\\xe7\\x9f\\xbf\\xe6\\xb1\\xa0,\\xe5\\xae\\x9a\\xe6\\x81\\xaf\\xe7\\x9f\\xbf\\xe6\\xb1\\xa0.sol\":2776:2784  User_Map */\n      0x05\n        /* \"contracts/\\xe8\\x87\\xaa\\xe5\\xb7\\xb1\\xe5\\x86\\x99\\xe4\\xb8\\xaa\\xe7\\x9f\\xbf\\xe6\\xb1\\xa0,\\xe5\\xae\\x9a\\xe6\\x81\\xaf\\xe7\\x9f\\xbf\\xe6\\xb1\\xa0.sol\":2776:2796  User_Map[msg.sender] */\n      0x00\n        /* \"contracts/\\xe8\\x87\\xaa\\xe5\\xb7\\xb1\\xe5\\x86\\x99\\xe4\\xb8\\xaa\\xe7\\x9f\\xbf\\xe6\\xb1\\xa0,\\xe5\\xae\\x9a\\xe6\\x81\\xaf\\xe7\\x9f\\xbf\\xe6\\xb1\\xa0.sol\":2785:2795  msg.sender */\n      caller\n        /* \"contracts/\\xe8\\x87\\xaa\\xe5\\xb7\\xb1\\xe5\\x86\\x99\\xe4\\xb8\\xaa\\xe7\\x9f\\xbf\\xe6\\xb1\\xa0,\\xe5\\xae\\x9a\\xe6\\x81\\xaf\\xe7\\x9f\\xbf\\xe6\\xb1\\xa0.sol\":2776:2796  User_Map[msg.sender] */\n      0xffffffffffffffffffffffffffffffffffffffff\n      and\n      0xffffffffffffffffffffffffffffffffffffffff\n      and\n      dup2\n      mstore\n      0x20\n      add\n      swap1\n      dup2\n      mstore\n      0x20\n      add\n      0x00\n      keccak256\n        /* \"contracts/\\xe8\\x87\\xaa\\xe5\\xb7\\xb1\\xe5\\x86\\x99\\xe4\\xb8\\xaa\\xe7\\x9f\\xbf\\xe6\\xb1\\xa0,\\xe5\\xae\\x9a\\xe6\\x81\\xaf\\xe7\\x9f\\xbf\\xe6\\xb1\\xa0.sol\":2776:2808  User_Map[msg.sender].stakeNumber */\n      0x00\n      add\n      sload\n        /* \"contracts/\\xe8\\x87\\xaa\\xe5\\xb7\\xb1\\xe5\\x86\\x99\\xe4\\xb8\\xaa\\xe7\\x9f\\xbf\\xe6\\xb1\\xa0,\\xe5\\xae\\x9a\\xe6\\x81\\xaf\\xe7\\x9f\\xbf\\xe6\\xb1\\xa0.sol\":2736:2809  IERC20(staketoken).transfer(msg.sender, User_Map[msg.sender].stakeNumber) */\n      mload(0x40)\n      dup4\n      0xffffffff\n      and\n      0xe0\n      shl\n      dup2\n      mstore\n      0x04\n      add\n      tag_61\n      swap3\n      swap2\n      swap1\n      tag_62\n      jump\t// in\n    tag_61:\n      0x20\n      mload(0x40)\n      dup1\n      dup4\n      sub\n      dup2\n      0x00\n      dup8\n      gas\n      call\n      iszero\n      dup1\n      iszero\n      tag_64\n      jumpi\n      returndatasize\n      0x00\n      dup1\n      returndatacopy\n      revert(0x00, returndatasize)\n    tag_64:\n      pop\n      pop\n      pop\n      pop\n      mload(0x40)\n      returndatasize\n      not(0x1f)\n      0x1f\n      dup3\n      add\n      and\n      dup3\n      add\n      dup1\n      0x40\n      mstore\n      pop\n      dup2\n      add\n      swap1\n      tag_65\n      swap2\n      swap1\n      tag_66\n      jump\t// in\n    tag_65:\n      pop\n        /* \"contracts/\\xe8\\x87\\xaa\\xe5\\xb7\\xb1\\xe5\\x86\\x99\\xe4\\xb8\\xaa\\xe7\\x9f\\xbf\\xe6\\xb1\\xa0,\\xe5\\xae\\x9a\\xe6\\x81\\xaf\\xe7\\x9f\\xbf\\xe6\\xb1\\xa0.sol\":2837:2847  msg.sender */\n      caller\n        /* \"contracts/\\xe8\\x87\\xaa\\xe5\\xb7\\xb1\\xe5\\x86\\x99\\xe4\\xb8\\xaa\\xe7\\x9f\\xbf\\xe6\\xb1\\xa0,\\xe5\\xae\\x9a\\xe6\\x81\\xaf\\xe7\\x9f\\xbf\\xe6\\xb1\\xa0.sol\":2828:2882  transfer(msg.sender, User_Map[msg.sender].stakeNumber) */\n      0xffffffffffffffffffffffffffffffffffffffff\n      and\n      0xa9059cbb2ab09eb219583f4a59a5d0623ade346d962bcd4e46b11da047c9049b\n        /* \"contracts/\\xe8\\x87\\xaa\\xe5\\xb7\\xb1\\xe5\\x86\\x99\\xe4\\xb8\\xaa\\xe7\\x9f\\xbf\\xe6\\xb1\\xa0,\\xe5\\xae\\x9a\\xe6\\x81\\xaf\\xe7\\x9f\\xbf\\xe6\\xb1\\xa0.sol\":2849:2857  User_Map */\n      0x05\n        /* \"contracts/\\xe8\\x87\\xaa\\xe5\\xb7\\xb1\\xe5\\x86\\x99\\xe4\\xb8\\xaa\\xe7\\x9f\\xbf\\xe6\\xb1\\xa0,\\xe5\\xae\\x9a\\xe6\\x81\\xaf\\xe7\\x9f\\xbf\\xe6\\xb1\\xa0.sol\":2849:2869  User_Map[msg.sender] */\n      0x00\n        /* \"contracts/\\xe8\\x87\\xaa\\xe5\\xb7\\xb1\\xe5\\x86\\x99\\xe4\\xb8\\xaa\\xe7\\x9f\\xbf\\xe6\\xb1\\xa0,\\xe5\\xae\\x9a\\xe6\\x81\\xaf\\xe7\\x9f\\xbf\\xe6\\xb1\\xa0.sol\":2858:2868  msg.sender */\n      caller\n        /* \"contracts/\\xe8\\x87\\xaa\\xe5\\xb7\\xb1\\xe5\\x86\\x99\\xe4\\xb8\\xaa\\xe7\\x9f\\xbf\\xe6\\xb1\\xa0,\\xe5\\xae\\x9a\\xe6\\x81\\xaf\\xe7\\x9f\\xbf\\xe6\\xb1\\xa0.sol\":2849:2869  User_Map[msg.sender] */\n      0xffffffffffffffffffffffffffffffffffffffff\n      and\n      0xffffffffffffffffffffffffffffffffffffffff\n      and\n      dup2\n      mstore\n      0x20\n      add\n      swap1\n      dup2\n      mstore\n      0x20\n      add\n      0x00\n      keccak256\n        /* \"contracts/\\xe8\\x87\\xaa\\xe5\\xb7\\xb1\\xe5\\x86\\x99\\xe4\\xb8\\xaa\\xe7\\x9f\\xbf\\xe6\\xb1\\xa0,\\xe5\\xae\\x9a\\xe6\\x81\\xaf\\xe7\\x9f\\xbf\\xe6\\xb1\\xa0.sol\":2849:2881  User_Map[msg.sender].stakeNumber */\n      0x00\n      add\n      sload\n        /* \"contracts/\\xe8\\x87\\xaa\\xe5\\xb7\\xb1\\xe5\\x86\\x99\\xe4\\xb8\\xaa\\xe7\\x9f\\xbf\\xe6\\xb1\\xa0,\\xe5\\xae\\x9a\\xe6\\x81\\xaf\\xe7\\x9f\\xbf\\xe6\\xb1\\xa0.sol\":2828:2882  transfer(msg.sender, User_Map[msg.sender].stakeNumber) */\n      mload(0x40)\n      tag_67\n      swap2\n      swap1\n      tag_35\n      jump\t// in\n    tag_67:\n      mload(0x40)\n      dup1\n      swap2\n      sub\n      swap1\n      log2\n        /* \"contracts/\\xe8\\x87\\xaa\\xe5\\xb7\\xb1\\xe5\\x86\\x99\\xe4\\xb8\\xaa\\xe7\\x9f\\xbf\\xe6\\xb1\\xa0,\\xe5\\xae\\x9a\\xe6\\x81\\xaf\\xe7\\x9f\\xbf\\xe6\\xb1\\xa0.sol\":2922:2930  User_Map */\n      0x05\n        /* \"contracts/\\xe8\\x87\\xaa\\xe5\\xb7\\xb1\\xe5\\x86\\x99\\xe4\\xb8\\xaa\\xe7\\x9f\\xbf\\xe6\\xb1\\xa0,\\xe5\\xae\\x9a\\xe6\\x81\\xaf\\xe7\\x9f\\xbf\\xe6\\xb1\\xa0.sol\":2922:2942  User_Map[msg.sender] */\n      0x00\n        /* \"contracts/\\xe8\\x87\\xaa\\xe5\\xb7\\xb1\\xe5\\x86\\x99\\xe4\\xb8\\xaa\\xe7\\x9f\\xbf\\xe6\\xb1\\xa0,\\xe5\\xae\\x9a\\xe6\\x81\\xaf\\xe7\\x9f\\xbf\\xe6\\xb1\\xa0.sol\":2931:2941  msg.sender */\n      caller\n        /* \"contracts/\\xe8\\x87\\xaa\\xe5\\xb7\\xb1\\xe5\\x86\\x99\\xe4\\xb8\\xaa\\xe7\\x9f\\xbf\\xe6\\xb1\\xa0,\\xe5\\xae\\x9a\\xe6\\x81\\xaf\\xe7\\x9f\\xbf\\xe6\\xb1\\xa0.sol\":2922:2942  User_Map[msg.sender] */\n      0xffffffffffffffffffffffffffffffffffffffff\n      and\n      0xffffffffffffffffffffffffffffffffffffffff\n      and\n      dup2\n      mstore\n      0x20\n      add\n      swap1\n      dup2\n      mstore\n      0x20\n      add\n      0x00\n      keccak256\n        /* \"contracts/\\xe8\\x87\\xaa\\xe5\\xb7\\xb1\\xe5\\x86\\x99\\xe4\\xb8\\xaa\\xe7\\x9f\\xbf\\xe6\\xb1\\xa0,\\xe5\\xae\\x9a\\xe6\\x81\\xaf\\xe7\\x9f\\xbf\\xe6\\xb1\\xa0.sol\":2922:2954  User_Map[msg.sender].stakeNumber */\n      0x00\n      add\n      sload\n        /* \"contracts/\\xe8\\x87\\xaa\\xe5\\xb7\\xb1\\xe5\\x86\\x99\\xe4\\xb8\\xaa\\xe7\\x9f\\xbf\\xe6\\xb1\\xa0,\\xe5\\xae\\x9a\\xe6\\x81\\xaf\\xe7\\x9f\\xbf\\xe6\\xb1\\xa0.sol\":2907:2918  stakeSupple */\n      0x03\n      0x00\n        /* \"contracts/\\xe8\\x87\\xaa\\xe5\\xb7\\xb1\\xe5\\x86\\x99\\xe4\\xb8\\xaa\\xe7\\x9f\\xbf\\xe6\\xb1\\xa0,\\xe5\\xae\\x9a\\xe6\\x81\\xaf\\xe7\\x9f\\xbf\\xe6\\xb1\\xa0.sol\":2907:2954  stakeSupple -= User_Map[msg.sender].stakeNumber */\n      dup3\n      dup3\n      sload\n      tag_68\n      swap2\n      swap1\n      tag_69\n      jump\t// in\n    tag_68:\n      swap3\n      pop\n      pop\n      dup2\n      swap1\n      sstore\n      pop\n        /* \"contracts/\\xe8\\x87\\xaa\\xe5\\xb7\\xb1\\xe5\\x86\\x99\\xe4\\xb8\\xaa\\xe7\\x9f\\xbf\\xe6\\xb1\\xa0,\\xe5\\xae\\x9a\\xe6\\x81\\xaf\\xe7\\x9f\\xbf\\xe6\\xb1\\xa0.sol\":3000:3001  0 */\n      0x00\n        /* \"contracts/\\xe8\\x87\\xaa\\xe5\\xb7\\xb1\\xe5\\x86\\x99\\xe4\\xb8\\xaa\\xe7\\x9f\\xbf\\xe6\\xb1\\xa0,\\xe5\\xae\\x9a\\xe6\\x81\\xaf\\xe7\\x9f\\xbf\\xe6\\xb1\\xa0.sol\":2965:2973  User_Map */\n      0x05\n        /* \"contracts/\\xe8\\x87\\xaa\\xe5\\xb7\\xb1\\xe5\\x86\\x99\\xe4\\xb8\\xaa\\xe7\\x9f\\xbf\\xe6\\xb1\\xa0,\\xe5\\xae\\x9a\\xe6\\x81\\xaf\\xe7\\x9f\\xbf\\xe6\\xb1\\xa0.sol\":2965:2985  User_Map[msg.sender] */\n      0x00\n        /* \"contracts/\\xe8\\x87\\xaa\\xe5\\xb7\\xb1\\xe5\\x86\\x99\\xe4\\xb8\\xaa\\xe7\\x9f\\xbf\\xe6\\xb1\\xa0,\\xe5\\xae\\x9a\\xe6\\x81\\xaf\\xe7\\x9f\\xbf\\xe6\\xb1\\xa0.sol\":2974:2984  msg.sender */\n      caller\n        /* \"contracts/\\xe8\\x87\\xaa\\xe5\\xb7\\xb1\\xe5\\x86\\x99\\xe4\\xb8\\xaa\\xe7\\x9f\\xbf\\xe6\\xb1\\xa0,\\xe5\\xae\\x9a\\xe6\\x81\\xaf\\xe7\\x9f\\xbf\\xe6\\xb1\\xa0.sol\":2965:2985  User_Map[msg.sender] */\n      0xffffffffffffffffffffffffffffffffffffffff\n      and\n      0xffffffffffffffffffffffffffffffffffffffff\n      and\n      dup2\n      mstore\n      0x20\n      add\n      swap1\n      dup2\n      mstore\n      0x20\n      add\n      0x00\n      keccak256\n        /* \"contracts/\\xe8\\x87\\xaa\\xe5\\xb7\\xb1\\xe5\\x86\\x99\\xe4\\xb8\\xaa\\xe7\\x9f\\xbf\\xe6\\xb1\\xa0,\\xe5\\xae\\x9a\\xe6\\x81\\xaf\\xe7\\x9f\\xbf\\xe6\\xb1\\xa0.sol\":2965:2997  User_Map[msg.sender].stakeNumber */\n      0x00\n      add\n        /* \"contracts/\\xe8\\x87\\xaa\\xe5\\xb7\\xb1\\xe5\\x86\\x99\\xe4\\xb8\\xaa\\xe7\\x9f\\xbf\\xe6\\xb1\\xa0,\\xe5\\xae\\x9a\\xe6\\x81\\xaf\\xe7\\x9f\\xbf\\xe6\\xb1\\xa0.sol\":2965:3001  User_Map[msg.sender].stakeNumber = 0 */\n      dup2\n      swap1\n      sstore\n      pop\n        /* \"contracts/\\xe8\\x87\\xaa\\xe5\\xb7\\xb1\\xe5\\x86\\x99\\xe4\\xb8\\xaa\\xe7\\x9f\\xbf\\xe6\\xb1\\xa0,\\xe5\\xae\\x9a\\xe6\\x81\\xaf\\xe7\\x9f\\xbf\\xe6\\xb1\\xa0.sol\":3021:3025  true */\n      0x01\n        /* \"contracts/\\xe8\\x87\\xaa\\xe5\\xb7\\xb1\\xe5\\x86\\x99\\xe4\\xb8\\xaa\\xe7\\x9f\\xbf\\xe6\\xb1\\xa0,\\xe5\\xae\\x9a\\xe6\\x81\\xaf\\xe7\\x9f\\xbf\\xe6\\xb1\\xa0.sol\":3014:3025  return true */\n      swap1\n      pop\n        /* \"contracts/\\xe8\\x87\\xaa\\xe5\\xb7\\xb1\\xe5\\x86\\x99\\xe4\\xb8\\xaa\\xe7\\x9f\\xbf\\xe6\\xb1\\xa0,\\xe5\\xae\\x9a\\xe6\\x81\\xaf\\xe7\\x9f\\xbf\\xe6\\xb1\\xa0.sol\":2682:3033  function withDraw () public returns (bool) {... */\n      swap1\n      jump\t// out\n        /* \"contracts/\\xe8\\x87\\xaa\\xe5\\xb7\\xb1\\xe5\\x86\\x99\\xe4\\xb8\\xaa\\xe7\\x9f\\xbf\\xe6\\xb1\\xa0,\\xe5\\xae\\x9a\\xe6\\x81\\xaf\\xe7\\x9f\\xbf\\xe6\\xb1\\xa0.sol\":2032:2674  function Stake(uint _amount) public returns (bool){... */\n    tag_23:\n        /* \"contracts/\\xe8\\x87\\xaa\\xe5\\xb7\\xb1\\xe5\\x86\\x99\\xe4\\xb8\\xaa\\xe7\\x9f\\xbf\\xe6\\xb1\\xa0,\\xe5\\xae\\x9a\\xe6\\x81\\xaf\\xe7\\x9f\\xbf\\xe6\\xb1\\xa0.sol\":2077:2081  bool */\n      0x00\n        /* \"contracts/\\xe8\\x87\\xaa\\xe5\\xb7\\xb1\\xe5\\x86\\x99\\xe4\\xb8\\xaa\\xe7\\x9f\\xbf\\xe6\\xb1\\xa0,\\xe5\\xae\\x9a\\xe6\\x81\\xaf\\xe7\\x9f\\xbf\\xe6\\xb1\\xa0.sol\":2102:2112  staketoken */\n      0x01\n      0x00\n      swap1\n      sload\n      swap1\n      0x0100\n      exp\n      swap1\n      div\n      0xffffffffffffffffffffffffffffffffffffffff\n      and\n        /* \"contracts/\\xe8\\x87\\xaa\\xe5\\xb7\\xb1\\xe5\\x86\\x99\\xe4\\xb8\\xaa\\xe7\\x9f\\xbf\\xe6\\xb1\\xa0,\\xe5\\xae\\x9a\\xe6\\x81\\xaf\\xe7\\x9f\\xbf\\xe6\\xb1\\xa0.sol\":2095:2126  IERC20(staketoken).transferFrom */\n      0xffffffffffffffffffffffffffffffffffffffff\n      and\n      0x23b872dd\n        /* \"contracts/\\xe8\\x87\\xaa\\xe5\\xb7\\xb1\\xe5\\x86\\x99\\xe4\\xb8\\xaa\\xe7\\x9f\\xbf\\xe6\\xb1\\xa0,\\xe5\\xae\\x9a\\xe6\\x81\\xaf\\xe7\\x9f\\xbf\\xe6\\xb1\\xa0.sol\":2127:2137  msg.sender */\n      caller\n        /* \"contracts/\\xe8\\x87\\xaa\\xe5\\xb7\\xb1\\xe5\\x86\\x99\\xe4\\xb8\\xaa\\xe7\\x9f\\xbf\\xe6\\xb1\\xa0,\\xe5\\xae\\x9a\\xe6\\x81\\xaf\\xe7\\x9f\\xbf\\xe6\\xb1\\xa0.sol\":2147:2151  this */\n      address\n        /* \"contracts/\\xe8\\x87\\xaa\\xe5\\xb7\\xb1\\xe5\\x86\\x99\\xe4\\xb8\\xaa\\xe7\\x9f\\xbf\\xe6\\xb1\\xa0,\\xe5\\xae\\x9a\\xe6\\x81\\xaf\\xe7\\x9f\\xbf\\xe6\\xb1\\xa0.sol\":2154:2161  _amount */\n      dup6\n        /* \"contracts/\\xe8\\x87\\xaa\\xe5\\xb7\\xb1\\xe5\\x86\\x99\\xe4\\xb8\\xaa\\xe7\\x9f\\xbf\\xe6\\xb1\\xa0,\\xe5\\xae\\x9a\\xe6\\x81\\xaf\\xe7\\x9f\\xbf\\xe6\\xb1\\xa0.sol\":2095:2162  IERC20(staketoken).transferFrom(msg.sender, address(this), _amount) */\n      mload(0x40)\n      dup5\n      0xffffffff\n      and\n      0xe0\n      shl\n      dup2\n      mstore\n      0x04\n      add\n      tag_71\n      swap4\n      swap3\n      swap2\n      swap1\n      tag_72\n      jump\t// in\n    tag_71:\n      0x20\n      mload(0x40)\n      dup1\n      dup4\n      sub\n      dup2\n      0x00\n      dup8\n      gas\n      call\n      iszero\n      dup1\n      iszero\n      tag_74\n      jumpi\n      returndatasize\n      0x00\n      dup1\n      returndatacopy\n      revert(0x00, returndatasize)\n    tag_74:\n      pop\n      pop\n      pop\n      pop\n      mload(0x40)\n      returndatasize\n      not(0x1f)\n      0x1f\n      dup3\n      add\n      and\n      dup3\n      add\n      dup1\n      0x40\n      mstore\n      pop\n      dup2\n      add\n      swap1\n      tag_75\n      swap2\n      swap1\n      tag_66\n      jump\t// in\n    tag_75:\n      pop\n        /* \"contracts/\\xe8\\x87\\xaa\\xe5\\xb7\\xb1\\xe5\\x86\\x99\\xe4\\xb8\\xaa\\xe7\\x9f\\xbf\\xe6\\xb1\\xa0,\\xe5\\xae\\x9a\\xe6\\x81\\xaf\\xe7\\x9f\\xbf\\xe6\\xb1\\xa0.sol\":2209:2213  this */\n      address\n        /* \"contracts/\\xe8\\x87\\xaa\\xe5\\xb7\\xb1\\xe5\\x86\\x99\\xe4\\xb8\\xaa\\xe7\\x9f\\xbf\\xe6\\xb1\\xa0,\\xe5\\xae\\x9a\\xe6\\x81\\xaf\\xe7\\x9f\\xbf\\xe6\\xb1\\xa0.sol\":2181:2224  Trasfer(msg.sender, address(this), _amount) */\n      0xffffffffffffffffffffffffffffffffffffffff\n      and\n        /* \"contracts/\\xe8\\x87\\xaa\\xe5\\xb7\\xb1\\xe5\\x86\\x99\\xe4\\xb8\\xaa\\xe7\\x9f\\xbf\\xe6\\xb1\\xa0,\\xe5\\xae\\x9a\\xe6\\x81\\xaf\\xe7\\x9f\\xbf\\xe6\\xb1\\xa0.sol\":2189:2199  msg.sender */\n      caller\n        /* \"contracts/\\xe8\\x87\\xaa\\xe5\\xb7\\xb1\\xe5\\x86\\x99\\xe4\\xb8\\xaa\\xe7\\x9f\\xbf\\xe6\\xb1\\xa0,\\xe5\\xae\\x9a\\xe6\\x81\\xaf\\xe7\\x9f\\xbf\\xe6\\xb1\\xa0.sol\":2181:2224  Trasfer(msg.sender, address(this), _amount) */\n      0xffffffffffffffffffffffffffffffffffffffff\n      and\n      0x1fd6ebb971d137acf3f01670862b8a96758cfc7e39dccb093e68daf461b0262c\n        /* \"contracts/\\xe8\\x87\\xaa\\xe5\\xb7\\xb1\\xe5\\x86\\x99\\xe4\\xb8\\xaa\\xe7\\x9f\\xbf\\xe6\\xb1\\xa0,\\xe5\\xae\\x9a\\xe6\\x81\\xaf\\xe7\\x9f\\xbf\\xe6\\xb1\\xa0.sol\":2216:2223  _amount */\n      dup5\n        /* \"contracts/\\xe8\\x87\\xaa\\xe5\\xb7\\xb1\\xe5\\x86\\x99\\xe4\\xb8\\xaa\\xe7\\x9f\\xbf\\xe6\\xb1\\xa0,\\xe5\\xae\\x9a\\xe6\\x81\\xaf\\xe7\\x9f\\xbf\\xe6\\xb1\\xa0.sol\":2181:2224  Trasfer(msg.sender, address(this), _amount) */\n      mload(0x40)\n      tag_76\n      swap2\n      swap1\n      tag_35\n      jump\t// in\n    tag_76:\n      mload(0x40)\n      dup1\n      swap2\n      sub\n      swap1\n      log3\n        /* \"contracts/\\xe8\\x87\\xaa\\xe5\\xb7\\xb1\\xe5\\x86\\x99\\xe4\\xb8\\xaa\\xe7\\x9f\\xbf\\xe6\\xb1\\xa0,\\xe5\\xae\\x9a\\xe6\\x81\\xaf\\xe7\\x9f\\xbf\\xe6\\xb1\\xa0.sol\":2389:2397  31536000 */\n      0x01e13380\n        /* \"contracts/\\xe8\\x87\\xaa\\xe5\\xb7\\xb1\\xe5\\x86\\x99\\xe4\\xb8\\xaa\\xe7\\x9f\\xbf\\xe6\\xb1\\xa0,\\xe5\\xae\\x9a\\xe6\\x81\\xaf\\xe7\\x9f\\xbf\\xe6\\xb1\\xa0.sol\":2382:2385  100 */\n      0x64\n        /* \"contracts/\\xe8\\x87\\xaa\\xe5\\xb7\\xb1\\xe5\\x86\\x99\\xe4\\xb8\\xaa\\xe7\\x9f\\xbf\\xe6\\xb1\\xa0,\\xe5\\xae\\x9a\\xe6\\x81\\xaf\\xe7\\x9f\\xbf\\xe6\\xb1\\xa0.sol\":2375:2380  ratio */\n      sload(0x00)\n        /* \"contracts/\\xe8\\x87\\xaa\\xe5\\xb7\\xb1\\xe5\\x86\\x99\\xe4\\xb8\\xaa\\xe7\\x9f\\xbf\\xe6\\xb1\\xa0,\\xe5\\xae\\x9a\\xe6\\x81\\xaf\\xe7\\x9f\\xbf\\xe6\\xb1\\xa0.sol\":2340:2348  User_Map */\n      0x05\n        /* \"contracts/\\xe8\\x87\\xaa\\xe5\\xb7\\xb1\\xe5\\x86\\x99\\xe4\\xb8\\xaa\\xe7\\x9f\\xbf\\xe6\\xb1\\xa0,\\xe5\\xae\\x9a\\xe6\\x81\\xaf\\xe7\\x9f\\xbf\\xe6\\xb1\\xa0.sol\":2340:2360  User_Map[msg.sender] */\n      0x00\n        /* \"contracts/\\xe8\\x87\\xaa\\xe5\\xb7\\xb1\\xe5\\x86\\x99\\xe4\\xb8\\xaa\\xe7\\x9f\\xbf\\xe6\\xb1\\xa0,\\xe5\\xae\\x9a\\xe6\\x81\\xaf\\xe7\\x9f\\xbf\\xe6\\xb1\\xa0.sol\":2349:2359  msg.sender */\n      caller\n        /* \"contracts/\\xe8\\x87\\xaa\\xe5\\xb7\\xb1\\xe5\\x86\\x99\\xe4\\xb8\\xaa\\xe7\\x9f\\xbf\\xe6\\xb1\\xa0,\\xe5\\xae\\x9a\\xe6\\x81\\xaf\\xe7\\x9f\\xbf\\xe6\\xb1\\xa0.sol\":2340:2360  User_Map[msg.sender] */\n      0xffffffffffffffffffffffffffffffffffffffff\n      and\n      0xffffffffffffffffffffffffffffffffffffffff\n      and\n      dup2\n      mstore\n      0x20\n      add\n      swap1\n      dup2\n      mstore\n      0x20\n      add\n      0x00\n      keccak256\n        /* \"contracts/\\xe8\\x87\\xaa\\xe5\\xb7\\xb1\\xe5\\x86\\x99\\xe4\\xb8\\xaa\\xe7\\x9f\\xbf\\xe6\\xb1\\xa0,\\xe5\\xae\\x9a\\xe6\\x81\\xaf\\xe7\\x9f\\xbf\\xe6\\xb1\\xa0.sol\":2340:2372  User_Map[msg.sender].stakeNumber */\n      0x00\n      add\n      sload\n        /* \"contracts/\\xe8\\x87\\xaa\\xe5\\xb7\\xb1\\xe5\\x86\\x99\\xe4\\xb8\\xaa\\xe7\\x9f\\xbf\\xe6\\xb1\\xa0,\\xe5\\xae\\x9a\\xe6\\x81\\xaf\\xe7\\x9f\\xbf\\xe6\\xb1\\xa0.sol\":2340:2380  User_Map[msg.sender].stakeNumber * ratio */\n      tag_77\n      swap2\n      swap1\n      tag_78\n      jump\t// in\n    tag_77:\n        /* \"contracts/\\xe8\\x87\\xaa\\xe5\\xb7\\xb1\\xe5\\x86\\x99\\xe4\\xb8\\xaa\\xe7\\x9f\\xbf\\xe6\\xb1\\xa0,\\xe5\\xae\\x9a\\xe6\\x81\\xaf\\xe7\\x9f\\xbf\\xe6\\xb1\\xa0.sol\":2340:2385  User_Map[msg.sender].stakeNumber * ratio /100 */\n      tag_79\n      swap2\n      swap1\n      tag_80\n      jump\t// in\n    tag_79:\n        /* \"contracts/\\xe8\\x87\\xaa\\xe5\\xb7\\xb1\\xe5\\x86\\x99\\xe4\\xb8\\xaa\\xe7\\x9f\\xbf\\xe6\\xb1\\xa0,\\xe5\\xae\\x9a\\xe6\\x81\\xaf\\xe7\\x9f\\xbf\\xe6\\xb1\\xa0.sol\":2339:2397  (User_Map[msg.sender].stakeNumber * ratio /100) / 31536000 */\n      tag_81\n      swap2\n      swap1\n      tag_80\n      jump\t// in\n    tag_81:\n        /* \"contracts/\\xe8\\x87\\xaa\\xe5\\xb7\\xb1\\xe5\\x86\\x99\\xe4\\xb8\\xaa\\xe7\\x9f\\xbf\\xe6\\xb1\\xa0,\\xe5\\xae\\x9a\\xe6\\x81\\xaf\\xe7\\x9f\\xbf\\xe6\\xb1\\xa0.sol\":2298:2306  User_Map */\n      0x05\n        /* \"contracts/\\xe8\\x87\\xaa\\xe5\\xb7\\xb1\\xe5\\x86\\x99\\xe4\\xb8\\xaa\\xe7\\x9f\\xbf\\xe6\\xb1\\xa0,\\xe5\\xae\\x9a\\xe6\\x81\\xaf\\xe7\\x9f\\xbf\\xe6\\xb1\\xa0.sol\":2298:2318  User_Map[msg.sender] */\n      0x00\n        /* \"contracts/\\xe8\\x87\\xaa\\xe5\\xb7\\xb1\\xe5\\x86\\x99\\xe4\\xb8\\xaa\\xe7\\x9f\\xbf\\xe6\\xb1\\xa0,\\xe5\\xae\\x9a\\xe6\\x81\\xaf\\xe7\\x9f\\xbf\\xe6\\xb1\\xa0.sol\":2307:2317  msg.sender */\n      caller\n        /* \"contracts/\\xe8\\x87\\xaa\\xe5\\xb7\\xb1\\xe5\\x86\\x99\\xe4\\xb8\\xaa\\xe7\\x9f\\xbf\\xe6\\xb1\\xa0,\\xe5\\xae\\x9a\\xe6\\x81\\xaf\\xe7\\x9f\\xbf\\xe6\\xb1\\xa0.sol\":2298:2318  User_Map[msg.sender] */\n      0xffffffffffffffffffffffffffffffffffffffff\n      and\n      0xffffffffffffffffffffffffffffffffffffffff\n      and\n      dup2\n      mstore\n      0x20\n      add\n      swap1\n      dup2\n      mstore\n      0x20\n      add\n      0x00\n      keccak256\n        /* \"contracts/\\xe8\\x87\\xaa\\xe5\\xb7\\xb1\\xe5\\x86\\x99\\xe4\\xb8\\xaa\\xe7\\x9f\\xbf\\xe6\\xb1\\xa0,\\xe5\\xae\\x9a\\xe6\\x81\\xaf\\xe7\\x9f\\xbf\\xe6\\xb1\\xa0.sol\":2298:2334  User_Map[msg.sender].last_Stake_Time */\n      0x01\n      add\n      sload\n        /* \"contracts/\\xe8\\x87\\xaa\\xe5\\xb7\\xb1\\xe5\\x86\\x99\\xe4\\xb8\\xaa\\xe7\\x9f\\xbf\\xe6\\xb1\\xa0,\\xe5\\xae\\x9a\\xe6\\x81\\xaf\\xe7\\x9f\\xbf\\xe6\\xb1\\xa0.sol\":2280:2295  block.timestamp */\n      timestamp\n        /* \"contracts/\\xe8\\x87\\xaa\\xe5\\xb7\\xb1\\xe5\\x86\\x99\\xe4\\xb8\\xaa\\xe7\\x9f\\xbf\\xe6\\xb1\\xa0,\\xe5\\xae\\x9a\\xe6\\x81\\xaf\\xe7\\x9f\\xbf\\xe6\\xb1\\xa0.sol\":2280:2334  block.timestamp - User_Map[msg.sender].last_Stake_Time */\n      tag_82\n      swap2\n      swap1\n      tag_69\n      jump\t// in\n    tag_82:\n        /* \"contracts/\\xe8\\x87\\xaa\\xe5\\xb7\\xb1\\xe5\\x86\\x99\\xe4\\xb8\\xaa\\xe7\\x9f\\xbf\\xe6\\xb1\\xa0,\\xe5\\xae\\x9a\\xe6\\x81\\xaf\\xe7\\x9f\\xbf\\xe6\\xb1\\xa0.sol\":2279:2398  (block.timestamp - User_Map[msg.sender].last_Stake_Time) * ((User_Map[msg.sender].stakeNumber * ratio /100) / 31536000) */\n      tag_83\n      swap2\n      swap1\n      tag_78\n      jump\t// in\n    tag_83:\n        /* \"contracts/\\xe8\\x87\\xaa\\xe5\\xb7\\xb1\\xe5\\x86\\x99\\xe4\\xb8\\xaa\\xe7\\x9f\\xbf\\xe6\\xb1\\xa0,\\xe5\\xae\\x9a\\xe6\\x81\\xaf\\xe7\\x9f\\xbf\\xe6\\xb1\\xa0.sol\":2237:2245  User_Map */\n      0x05\n        /* \"contracts/\\xe8\\x87\\xaa\\xe5\\xb7\\xb1\\xe5\\x86\\x99\\xe4\\xb8\\xaa\\xe7\\x9f\\xbf\\xe6\\xb1\\xa0,\\xe5\\xae\\x9a\\xe6\\x81\\xaf\\xe7\\x9f\\xbf\\xe6\\xb1\\xa0.sol\":2237:2257  User_Map[msg.sender] */\n      0x00\n        /* \"contracts/\\xe8\\x87\\xaa\\xe5\\xb7\\xb1\\xe5\\x86\\x99\\xe4\\xb8\\xaa\\xe7\\x9f\\xbf\\xe6\\xb1\\xa0,\\xe5\\xae\\x9a\\xe6\\x81\\xaf\\xe7\\x9f\\xbf\\xe6\\xb1\\xa0.sol\":2246:2256  msg.sender */\n      caller\n        /* \"contracts/\\xe8\\x87\\xaa\\xe5\\xb7\\xb1\\xe5\\x86\\x99\\xe4\\xb8\\xaa\\xe7\\x9f\\xbf\\xe6\\xb1\\xa0,\\xe5\\xae\\x9a\\xe6\\x81\\xaf\\xe7\\x9f\\xbf\\xe6\\xb1\\xa0.sol\":2237:2257  User_Map[msg.sender] */\n      0xffffffffffffffffffffffffffffffffffffffff\n      and\n      0xffffffffffffffffffffffffffffffffffffffff\n      and\n      dup2\n      mstore\n      0x20\n      add\n      swap1\n      dup2\n      mstore\n      0x20\n      add\n      0x00\n      keccak256\n        /* \"contracts/\\xe8\\x87\\xaa\\xe5\\xb7\\xb1\\xe5\\x86\\x99\\xe4\\xb8\\xaa\\xe7\\x9f\\xbf\\xe6\\xb1\\xa0,\\xe5\\xae\\x9a\\xe6\\x81\\xaf\\xe7\\x9f\\xbf\\xe6\\xb1\\xa0.sol\":2237:2276  User_Map[msg.sender].last_totoken_ratio */\n      0x02\n      add\n        /* \"contracts/\\xe8\\x87\\xaa\\xe5\\xb7\\xb1\\xe5\\x86\\x99\\xe4\\xb8\\xaa\\xe7\\x9f\\xbf\\xe6\\xb1\\xa0,\\xe5\\xae\\x9a\\xe6\\x81\\xaf\\xe7\\x9f\\xbf\\xe6\\xb1\\xa0.sol\":2237:2398  User_Map[msg.sender].last_totoken_ratio = (block.timestamp - User_Map[msg.sender].last_Stake_Time) * ((User_Map[msg.sender].stakeNumber * ratio /100) / 31536000) */\n      dup2\n      swap1\n      sstore\n      pop\n        /* \"contracts/\\xe8\\x87\\xaa\\xe5\\xb7\\xb1\\xe5\\x86\\x99\\xe4\\xb8\\xaa\\xe7\\x9f\\xbf\\xe6\\xb1\\xa0,\\xe5\\xae\\x9a\\xe6\\x81\\xaf\\xe7\\x9f\\xbf\\xe6\\xb1\\xa0.sol\":2447:2454  _amount */\n      dup2\n        /* \"contracts/\\xe8\\x87\\xaa\\xe5\\xb7\\xb1\\xe5\\x86\\x99\\xe4\\xb8\\xaa\\xe7\\x9f\\xbf\\xe6\\xb1\\xa0,\\xe5\\xae\\x9a\\xe6\\x81\\xaf\\xe7\\x9f\\xbf\\xe6\\xb1\\xa0.sol\":2411:2419  User_Map */\n      0x05\n        /* \"contracts/\\xe8\\x87\\xaa\\xe5\\xb7\\xb1\\xe5\\x86\\x99\\xe4\\xb8\\xaa\\xe7\\x9f\\xbf\\xe6\\xb1\\xa0,\\xe5\\xae\\x9a\\xe6\\x81\\xaf\\xe7\\x9f\\xbf\\xe6\\xb1\\xa0.sol\":2411:2431  User_Map[msg.sender] */\n      0x00\n        /* \"contracts/\\xe8\\x87\\xaa\\xe5\\xb7\\xb1\\xe5\\x86\\x99\\xe4\\xb8\\xaa\\xe7\\x9f\\xbf\\xe6\\xb1\\xa0,\\xe5\\xae\\x9a\\xe6\\x81\\xaf\\xe7\\x9f\\xbf\\xe6\\xb1\\xa0.sol\":2420:2430  msg.sender */\n      caller\n        /* \"contracts/\\xe8\\x87\\xaa\\xe5\\xb7\\xb1\\xe5\\x86\\x99\\xe4\\xb8\\xaa\\xe7\\x9f\\xbf\\xe6\\xb1\\xa0,\\xe5\\xae\\x9a\\xe6\\x81\\xaf\\xe7\\x9f\\xbf\\xe6\\xb1\\xa0.sol\":2411:2431  User_Map[msg.sender] */\n      0xffffffffffffffffffffffffffffffffffffffff\n      and\n      0xffffffffffffffffffffffffffffffffffffffff\n      and\n      dup2\n      mstore\n      0x20\n      add\n      swap1\n      dup2\n      mstore\n      0x20\n      add\n      0x00\n      keccak256\n        /* \"contracts/\\xe8\\x87\\xaa\\xe5\\xb7\\xb1\\xe5\\x86\\x99\\xe4\\xb8\\xaa\\xe7\\x9f\\xbf\\xe6\\xb1\\xa0,\\xe5\\xae\\x9a\\xe6\\x81\\xaf\\xe7\\x9f\\xbf\\xe6\\xb1\\xa0.sol\":2411:2443  User_Map[msg.sender].stakeNumber */\n      0x00\n      add\n      0x00\n        /* \"contracts/\\xe8\\x87\\xaa\\xe5\\xb7\\xb1\\xe5\\x86\\x99\\xe4\\xb8\\xaa\\xe7\\x9f\\xbf\\xe6\\xb1\\xa0,\\xe5\\xae\\x9a\\xe6\\x81\\xaf\\xe7\\x9f\\xbf\\xe6\\xb1\\xa0.sol\":2411:2454  User_Map[msg.sender].stakeNumber += _amount */\n      dup3\n      dup3\n      sload\n      tag_84\n      swap2\n      swap1\n      tag_85\n      jump\t// in\n    tag_84:\n      swap3\n      pop\n      pop\n      dup2\n      swap1\n      sstore\n      pop\n        /* \"contracts/\\xe8\\x87\\xaa\\xe5\\xb7\\xb1\\xe5\\x86\\x99\\xe4\\xb8\\xaa\\xe7\\x9f\\xbf\\xe6\\xb1\\xa0,\\xe5\\xae\\x9a\\xe6\\x81\\xaf\\xe7\\x9f\\xbf\\xe6\\xb1\\xa0.sol\":2504:2519  block.timestamp */\n      timestamp\n        /* \"contracts/\\xe8\\x87\\xaa\\xe5\\xb7\\xb1\\xe5\\x86\\x99\\xe4\\xb8\\xaa\\xe7\\x9f\\xbf\\xe6\\xb1\\xa0,\\xe5\\xae\\x9a\\xe6\\x81\\xaf\\xe7\\x9f\\xbf\\xe6\\xb1\\xa0.sol\":2465:2473  User_Map */\n      0x05\n        /* \"contracts/\\xe8\\x87\\xaa\\xe5\\xb7\\xb1\\xe5\\x86\\x99\\xe4\\xb8\\xaa\\xe7\\x9f\\xbf\\xe6\\xb1\\xa0,\\xe5\\xae\\x9a\\xe6\\x81\\xaf\\xe7\\x9f\\xbf\\xe6\\xb1\\xa0.sol\":2465:2485  User_Map[msg.sender] */\n      0x00\n        /* \"contracts/\\xe8\\x87\\xaa\\xe5\\xb7\\xb1\\xe5\\x86\\x99\\xe4\\xb8\\xaa\\xe7\\x9f\\xbf\\xe6\\xb1\\xa0,\\xe5\\xae\\x9a\\xe6\\x81\\xaf\\xe7\\x9f\\xbf\\xe6\\xb1\\xa0.sol\":2474:2484  msg.sender */\n      caller\n        /* \"contracts/\\xe8\\x87\\xaa\\xe5\\xb7\\xb1\\xe5\\x86\\x99\\xe4\\xb8\\xaa\\xe7\\x9f\\xbf\\xe6\\xb1\\xa0,\\xe5\\xae\\x9a\\xe6\\x81\\xaf\\xe7\\x9f\\xbf\\xe6\\xb1\\xa0.sol\":2465:2485  User_Map[msg.sender] */\n      0xffffffffffffffffffffffffffffffffffffffff\n      and\n      0xffffffffffffffffffffffffffffffffffffffff\n      and\n      dup2\n      mstore\n      0x20\n      add\n      swap1\n      dup2\n      mstore\n      0x20\n      add\n      0x00\n      keccak256\n        /* \"contracts/\\xe8\\x87\\xaa\\xe5\\xb7\\xb1\\xe5\\x86\\x99\\xe4\\xb8\\xaa\\xe7\\x9f\\xbf\\xe6\\xb1\\xa0,\\xe5\\xae\\x9a\\xe6\\x81\\xaf\\xe7\\x9f\\xbf\\xe6\\xb1\\xa0.sol\":2465:2501  User_Map[msg.sender].last_Stake_Time */\n      0x01\n      add\n        /* \"contracts/\\xe8\\x87\\xaa\\xe5\\xb7\\xb1\\xe5\\x86\\x99\\xe4\\xb8\\xaa\\xe7\\x9f\\xbf\\xe6\\xb1\\xa0,\\xe5\\xae\\x9a\\xe6\\x81\\xaf\\xe7\\x9f\\xbf\\xe6\\xb1\\xa0.sol\":2465:2519  User_Map[msg.sender].last_Stake_Time = block.timestamp */\n      dup2\n      swap1\n      sstore\n      pop\n        /* \"contracts/\\xe8\\x87\\xaa\\xe5\\xb7\\xb1\\xe5\\x86\\x99\\xe4\\xb8\\xaa\\xe7\\x9f\\xbf\\xe6\\xb1\\xa0,\\xe5\\xae\\x9a\\xe6\\x81\\xaf\\xe7\\x9f\\xbf\\xe6\\xb1\\xa0.sol\":2545:2552  _amount */\n      dup2\n        /* \"contracts/\\xe8\\x87\\xaa\\xe5\\xb7\\xb1\\xe5\\x86\\x99\\xe4\\xb8\\xaa\\xe7\\x9f\\xbf\\xe6\\xb1\\xa0,\\xe5\\xae\\x9a\\xe6\\x81\\xaf\\xe7\\x9f\\xbf\\xe6\\xb1\\xa0.sol\":2530:2541  stakeSupple */\n      0x03\n      0x00\n        /* \"contracts/\\xe8\\x87\\xaa\\xe5\\xb7\\xb1\\xe5\\x86\\x99\\xe4\\xb8\\xaa\\xe7\\x9f\\xbf\\xe6\\xb1\\xa0,\\xe5\\xae\\x9a\\xe6\\x81\\xaf\\xe7\\x9f\\xbf\\xe6\\xb1\\xa0.sol\":2530:2552  stakeSupple += _amount */\n      dup3\n      dup3\n      sload\n      tag_86\n      swap2\n      swap1\n      tag_85\n      jump\t// in\n    tag_86:\n      swap3\n      pop\n      pop\n      dup2\n      swap1\n      sstore\n      pop\n        /* \"contracts/\\xe8\\x87\\xaa\\xe5\\xb7\\xb1\\xe5\\x86\\x99\\xe4\\xb8\\xaa\\xe7\\x9f\\xbf\\xe6\\xb1\\xa0,\\xe5\\xae\\x9a\\xe6\\x81\\xaf\\xe7\\x9f\\xbf\\xe6\\xb1\\xa0.sol\":2604:2612  User_Map */\n      0x05\n        /* \"contracts/\\xe8\\x87\\xaa\\xe5\\xb7\\xb1\\xe5\\x86\\x99\\xe4\\xb8\\xaa\\xe7\\x9f\\xbf\\xe6\\xb1\\xa0,\\xe5\\xae\\x9a\\xe6\\x81\\xaf\\xe7\\x9f\\xbf\\xe6\\xb1\\xa0.sol\":2604:2624  User_Map[msg.sender] */\n      0x00\n        /* \"contracts/\\xe8\\x87\\xaa\\xe5\\xb7\\xb1\\xe5\\x86\\x99\\xe4\\xb8\\xaa\\xe7\\x9f\\xbf\\xe6\\xb1\\xa0,\\xe5\\xae\\x9a\\xe6\\x81\\xaf\\xe7\\x9f\\xbf\\xe6\\xb1\\xa0.sol\":2613:2623  msg.sender */\n      caller\n        /* \"contracts/\\xe8\\x87\\xaa\\xe5\\xb7\\xb1\\xe5\\x86\\x99\\xe4\\xb8\\xaa\\xe7\\x9f\\xbf\\xe6\\xb1\\xa0,\\xe5\\xae\\x9a\\xe6\\x81\\xaf\\xe7\\x9f\\xbf\\xe6\\xb1\\xa0.sol\":2604:2624  User_Map[msg.sender] */\n      0xffffffffffffffffffffffffffffffffffffffff\n      and\n      0xffffffffffffffffffffffffffffffffffffffff\n      and\n      dup2\n      mstore\n      0x20\n      add\n      swap1\n      dup2\n      mstore\n      0x20\n      add\n      0x00\n      keccak256\n        /* \"contracts/\\xe8\\x87\\xaa\\xe5\\xb7\\xb1\\xe5\\x86\\x99\\xe4\\xb8\\xaa\\xe7\\x9f\\xbf\\xe6\\xb1\\xa0,\\xe5\\xae\\x9a\\xe6\\x81\\xaf\\xe7\\x9f\\xbf\\xe6\\xb1\\xa0.sol\":2604:2640  User_Map[msg.sender].last_Stake_Time */\n      0x01\n      add\n      sload\n        /* \"contracts/\\xe8\\x87\\xaa\\xe5\\xb7\\xb1\\xe5\\x86\\x99\\xe4\\xb8\\xaa\\xe7\\x9f\\xbf\\xe6\\xb1\\xa0,\\xe5\\xae\\x9a\\xe6\\x81\\xaf\\xe7\\x9f\\xbf\\xe6\\xb1\\xa0.sol\":2563:2571  User_Map */\n      0x05\n        /* \"contracts/\\xe8\\x87\\xaa\\xe5\\xb7\\xb1\\xe5\\x86\\x99\\xe4\\xb8\\xaa\\xe7\\x9f\\xbf\\xe6\\xb1\\xa0,\\xe5\\xae\\x9a\\xe6\\x81\\xaf\\xe7\\x9f\\xbf\\xe6\\xb1\\xa0.sol\":2563:2583  User_Map[msg.sender] */\n      0x00\n        /* \"contracts/\\xe8\\x87\\xaa\\xe5\\xb7\\xb1\\xe5\\x86\\x99\\xe4\\xb8\\xaa\\xe7\\x9f\\xbf\\xe6\\xb1\\xa0,\\xe5\\xae\\x9a\\xe6\\x81\\xaf\\xe7\\x9f\\xbf\\xe6\\xb1\\xa0.sol\":2572:2582  msg.sender */\n      caller\n        /* \"contracts/\\xe8\\x87\\xaa\\xe5\\xb7\\xb1\\xe5\\x86\\x99\\xe4\\xb8\\xaa\\xe7\\x9f\\xbf\\xe6\\xb1\\xa0,\\xe5\\xae\\x9a\\xe6\\x81\\xaf\\xe7\\x9f\\xbf\\xe6\\xb1\\xa0.sol\":2563:2583  User_Map[msg.sender] */\n      0xffffffffffffffffffffffffffffffffffffffff\n      and\n      0xffffffffffffffffffffffffffffffffffffffff\n      and\n      dup2\n      mstore\n      0x20\n      add\n      swap1\n      dup2\n      mstore\n      0x20\n      add\n      0x00\n      keccak256\n        /* \"contracts/\\xe8\\x87\\xaa\\xe5\\xb7\\xb1\\xe5\\x86\\x99\\xe4\\xb8\\xaa\\xe7\\x9f\\xbf\\xe6\\xb1\\xa0,\\xe5\\xae\\x9a\\xe6\\x81\\xaf\\xe7\\x9f\\xbf\\xe6\\xb1\\xa0.sol\":2563:2601  User_Map[msg.sender].last_totoken_Time */\n      0x04\n      add\n        /* \"contracts/\\xe8\\x87\\xaa\\xe5\\xb7\\xb1\\xe5\\x86\\x99\\xe4\\xb8\\xaa\\xe7\\x9f\\xbf\\xe6\\xb1\\xa0,\\xe5\\xae\\x9a\\xe6\\x81\\xaf\\xe7\\x9f\\xbf\\xe6\\xb1\\xa0.sol\":2563:2640  User_Map[msg.sender].last_totoken_Time = User_Map[msg.sender].last_Stake_Time */\n      dup2\n      swap1\n      sstore\n      pop\n        /* \"contracts/\\xe8\\x87\\xaa\\xe5\\xb7\\xb1\\xe5\\x86\\x99\\xe4\\xb8\\xaa\\xe7\\x9f\\xbf\\xe6\\xb1\\xa0,\\xe5\\xae\\x9a\\xe6\\x81\\xaf\\xe7\\x9f\\xbf\\xe6\\xb1\\xa0.sol\":2658:2662  true */\n      0x01\n        /* \"contracts/\\xe8\\x87\\xaa\\xe5\\xb7\\xb1\\xe5\\x86\\x99\\xe4\\xb8\\xaa\\xe7\\x9f\\xbf\\xe6\\xb1\\xa0,\\xe5\\xae\\x9a\\xe6\\x81\\xaf\\xe7\\x9f\\xbf\\xe6\\xb1\\xa0.sol\":2651:2662  return true */\n      swap1\n      pop\n        /* \"contracts/\\xe8\\x87\\xaa\\xe5\\xb7\\xb1\\xe5\\x86\\x99\\xe4\\xb8\\xaa\\xe7\\x9f\\xbf\\xe6\\xb1\\xa0,\\xe5\\xae\\x9a\\xe6\\x81\\xaf\\xe7\\x9f\\xbf\\xe6\\xb1\\xa0.sol\":2032:2674  function Stake(uint _amount) public returns (bool){... */\n      swap2\n      swap1\n      pop\n      jump\t// out\n        /* \"contracts/\\xe8\\x87\\xaa\\xe5\\xb7\\xb1\\xe5\\x86\\x99\\xe4\\xb8\\xaa\\xe7\\x9f\\xbf\\xe6\\xb1\\xa0,\\xe5\\xae\\x9a\\xe6\\x81\\xaf\\xe7\\x9f\\xbf\\xe6\\xb1\\xa0.sol\":849:871  address public totoken */\n    tag_26:\n      0x02\n      0x00\n      swap1\n      sload\n      swap1\n      0x0100\n      exp\n      swap1\n      div\n      0xffffffffffffffffffffffffffffffffffffffff\n      and\n      dup2\n      jump\t// out\n        /* \"contracts/\\xe8\\x87\\xaa\\xe5\\xb7\\xb1\\xe5\\x86\\x99\\xe4\\xb8\\xaa\\xe7\\x9f\\xbf\\xe6\\xb1\\xa0,\\xe5\\xae\\x9a\\xe6\\x81\\xaf\\xe7\\x9f\\xbf\\xe6\\xb1\\xa0.sol\":3041:3643  function harvest() public returns (bool) {... */\n    tag_30:\n        /* \"contracts/\\xe8\\x87\\xaa\\xe5\\xb7\\xb1\\xe5\\x86\\x99\\xe4\\xb8\\xaa\\xe7\\x9f\\xbf\\xe6\\xb1\\xa0,\\xe5\\xae\\x9a\\xe6\\x81\\xaf\\xe7\\x9f\\xbf\\xe6\\xb1\\xa0.sol\":3076:3080  bool */\n      0x00\n        /* \"contracts/\\xe8\\x87\\xaa\\xe5\\xb7\\xb1\\xe5\\x86\\x99\\xe4\\xb8\\xaa\\xe7\\x9f\\xbf\\xe6\\xb1\\xa0,\\xe5\\xae\\x9a\\xe6\\x81\\xaf\\xe7\\x9f\\xbf\\xe6\\xb1\\xa0.sol\":3280:3288  31536000 */\n      0x01e13380\n        /* \"contracts/\\xe8\\x87\\xaa\\xe5\\xb7\\xb1\\xe5\\x86\\x99\\xe4\\xb8\\xaa\\xe7\\x9f\\xbf\\xe6\\xb1\\xa0,\\xe5\\xae\\x9a\\xe6\\x81\\xaf\\xe7\\x9f\\xbf\\xe6\\xb1\\xa0.sol\":3273:3276  100 */\n      0x64\n        /* \"contracts/\\xe8\\x87\\xaa\\xe5\\xb7\\xb1\\xe5\\x86\\x99\\xe4\\xb8\\xaa\\xe7\\x9f\\xbf\\xe6\\xb1\\xa0,\\xe5\\xae\\x9a\\xe6\\x81\\xaf\\xe7\\x9f\\xbf\\xe6\\xb1\\xa0.sol\":3266:3271  ratio */\n      sload(0x00)\n        /* \"contracts/\\xe8\\x87\\xaa\\xe5\\xb7\\xb1\\xe5\\x86\\x99\\xe4\\xb8\\xaa\\xe7\\x9f\\xbf\\xe6\\xb1\\xa0,\\xe5\\xae\\x9a\\xe6\\x81\\xaf\\xe7\\x9f\\xbf\\xe6\\xb1\\xa0.sol\":3231:3239  User_Map */\n      0x05\n        /* \"contracts/\\xe8\\x87\\xaa\\xe5\\xb7\\xb1\\xe5\\x86\\x99\\xe4\\xb8\\xaa\\xe7\\x9f\\xbf\\xe6\\xb1\\xa0,\\xe5\\xae\\x9a\\xe6\\x81\\xaf\\xe7\\x9f\\xbf\\xe6\\xb1\\xa0.sol\":3231:3251  User_Map[msg.sender] */\n      0x00\n        /* \"contracts/\\xe8\\x87\\xaa\\xe5\\xb7\\xb1\\xe5\\x86\\x99\\xe4\\xb8\\xaa\\xe7\\x9f\\xbf\\xe6\\xb1\\xa0,\\xe5\\xae\\x9a\\xe6\\x81\\xaf\\xe7\\x9f\\xbf\\xe6\\xb1\\xa0.sol\":3240:3250  msg.sender */\n      caller\n        /* \"contracts/\\xe8\\x87\\xaa\\xe5\\xb7\\xb1\\xe5\\x86\\x99\\xe4\\xb8\\xaa\\xe7\\x9f\\xbf\\xe6\\xb1\\xa0,\\xe5\\xae\\x9a\\xe6\\x81\\xaf\\xe7\\x9f\\xbf\\xe6\\xb1\\xa0.sol\":3231:3251  User_Map[msg.sender] */\n      0xffffffffffffffffffffffffffffffffffffffff\n      and\n      0xffffffffffffffffffffffffffffffffffffffff\n      and\n      dup2\n      mstore\n      0x20\n      add\n      swap1\n      dup2\n      mstore\n      0x20\n      add\n      0x00\n      keccak256\n        /* \"contracts/\\xe8\\x87\\xaa\\xe5\\xb7\\xb1\\xe5\\x86\\x99\\xe4\\xb8\\xaa\\xe7\\x9f\\xbf\\xe6\\xb1\\xa0,\\xe5\\xae\\x9a\\xe6\\x81\\xaf\\xe7\\x9f\\xbf\\xe6\\xb1\\xa0.sol\":3231:3263  User_Map[msg.sender].stakeNumber */\n      0x00\n      add\n      sload\n        /* \"contracts/\\xe8\\x87\\xaa\\xe5\\xb7\\xb1\\xe5\\x86\\x99\\xe4\\xb8\\xaa\\xe7\\x9f\\xbf\\xe6\\xb1\\xa0,\\xe5\\xae\\x9a\\xe6\\x81\\xaf\\xe7\\x9f\\xbf\\xe6\\xb1\\xa0.sol\":3231:3271  User_Map[msg.sender].stakeNumber * ratio */\n      tag_88\n      swap2\n      swap1\n      tag_78\n      jump\t// in\n    tag_88:\n        /* \"contracts/\\xe8\\x87\\xaa\\xe5\\xb7\\xb1\\xe5\\x86\\x99\\xe4\\xb8\\xaa\\xe7\\x9f\\xbf\\xe6\\xb1\\xa0,\\xe5\\xae\\x9a\\xe6\\x81\\xaf\\xe7\\x9f\\xbf\\xe6\\xb1\\xa0.sol\":3231:3276  User_Map[msg.sender].stakeNumber * ratio /100 */\n      tag_89\n      swap2\n      swap1\n      tag_80\n      jump\t// in\n    tag_89:\n        /* \"contracts/\\xe8\\x87\\xaa\\xe5\\xb7\\xb1\\xe5\\x86\\x99\\xe4\\xb8\\xaa\\xe7\\x9f\\xbf\\xe6\\xb1\\xa0,\\xe5\\xae\\x9a\\xe6\\x81\\xaf\\xe7\\x9f\\xbf\\xe6\\xb1\\xa0.sol\":3230:3288  (User_Map[msg.sender].stakeNumber * ratio /100) / 31536000 */\n      tag_90\n      swap2\n      swap1\n      tag_80\n      jump\t// in\n    tag_90:\n        /* \"contracts/\\xe8\\x87\\xaa\\xe5\\xb7\\xb1\\xe5\\x86\\x99\\xe4\\xb8\\xaa\\xe7\\x9f\\xbf\\xe6\\xb1\\xa0,\\xe5\\xae\\x9a\\xe6\\x81\\xaf\\xe7\\x9f\\xbf\\xe6\\xb1\\xa0.sol\":3189:3197  User_Map */\n      0x05\n        /* \"contracts/\\xe8\\x87\\xaa\\xe5\\xb7\\xb1\\xe5\\x86\\x99\\xe4\\xb8\\xaa\\xe7\\x9f\\xbf\\xe6\\xb1\\xa0,\\xe5\\xae\\x9a\\xe6\\x81\\xaf\\xe7\\x9f\\xbf\\xe6\\xb1\\xa0.sol\":3189:3209  User_Map[msg.sender] */\n      0x00\n        /* \"contracts/\\xe8\\x87\\xaa\\xe5\\xb7\\xb1\\xe5\\x86\\x99\\xe4\\xb8\\xaa\\xe7\\x9f\\xbf\\xe6\\xb1\\xa0,\\xe5\\xae\\x9a\\xe6\\x81\\xaf\\xe7\\x9f\\xbf\\xe6\\xb1\\xa0.sol\":3198:3208  msg.sender */\n      caller\n        /* \"contracts/\\xe8\\x87\\xaa\\xe5\\xb7\\xb1\\xe5\\x86\\x99\\xe4\\xb8\\xaa\\xe7\\x9f\\xbf\\xe6\\xb1\\xa0,\\xe5\\xae\\x9a\\xe6\\x81\\xaf\\xe7\\x9f\\xbf\\xe6\\xb1\\xa0.sol\":3189:3209  User_Map[msg.sender] */\n      0xffffffffffffffffffffffffffffffffffffffff\n      and\n      0xffffffffffffffffffffffffffffffffffffffff\n      and\n      dup2\n      mstore\n      0x20\n      add\n      swap1\n      dup2\n      mstore\n      0x20\n      add\n      0x00\n      keccak256\n        /* \"contracts/\\xe8\\x87\\xaa\\xe5\\xb7\\xb1\\xe5\\x86\\x99\\xe4\\xb8\\xaa\\xe7\\x9f\\xbf\\xe6\\xb1\\xa0,\\xe5\\xae\\x9a\\xe6\\x81\\xaf\\xe7\\x9f\\xbf\\xe6\\xb1\\xa0.sol\":3189:3225  User_Map[msg.sender].last_Stake_Time */\n      0x01\n      add\n      sload\n        /* \"contracts/\\xe8\\x87\\xaa\\xe5\\xb7\\xb1\\xe5\\x86\\x99\\xe4\\xb8\\xaa\\xe7\\x9f\\xbf\\xe6\\xb1\\xa0,\\xe5\\xae\\x9a\\xe6\\x81\\xaf\\xe7\\x9f\\xbf\\xe6\\xb1\\xa0.sol\":3171:3186  block.timestamp */\n      timestamp\n        /* \"contracts/\\xe8\\x87\\xaa\\xe5\\xb7\\xb1\\xe5\\x86\\x99\\xe4\\xb8\\xaa\\xe7\\x9f\\xbf\\xe6\\xb1\\xa0,\\xe5\\xae\\x9a\\xe6\\x81\\xaf\\xe7\\x9f\\xbf\\xe6\\xb1\\xa0.sol\":3171:3225  block.timestamp - User_Map[msg.sender].last_Stake_Time */\n      tag_91\n      swap2\n      swap1\n      tag_69\n      jump\t// in\n    tag_91:\n        /* \"contracts/\\xe8\\x87\\xaa\\xe5\\xb7\\xb1\\xe5\\x86\\x99\\xe4\\xb8\\xaa\\xe7\\x9f\\xbf\\xe6\\xb1\\xa0,\\xe5\\xae\\x9a\\xe6\\x81\\xaf\\xe7\\x9f\\xbf\\xe6\\xb1\\xa0.sol\":3170:3289  (block.timestamp - User_Map[msg.sender].last_Stake_Time) * ((User_Map[msg.sender].stakeNumber * ratio /100) / 31536000) */\n      tag_92\n      swap2\n      swap1\n      tag_78\n      jump\t// in\n    tag_92:\n        /* \"contracts/\\xe8\\x87\\xaa\\xe5\\xb7\\xb1\\xe5\\x86\\x99\\xe4\\xb8\\xaa\\xe7\\x9f\\xbf\\xe6\\xb1\\xa0,\\xe5\\xae\\x9a\\xe6\\x81\\xaf\\xe7\\x9f\\xbf\\xe6\\xb1\\xa0.sol\":3128:3136  User_Map */\n      0x05\n        /* \"contracts/\\xe8\\x87\\xaa\\xe5\\xb7\\xb1\\xe5\\x86\\x99\\xe4\\xb8\\xaa\\xe7\\x9f\\xbf\\xe6\\xb1\\xa0,\\xe5\\xae\\x9a\\xe6\\x81\\xaf\\xe7\\x9f\\xbf\\xe6\\xb1\\xa0.sol\":3128:3148  User_Map[msg.sender] */\n      0x00\n        /* \"contracts/\\xe8\\x87\\xaa\\xe5\\xb7\\xb1\\xe5\\x86\\x99\\xe4\\xb8\\xaa\\xe7\\x9f\\xbf\\xe6\\xb1\\xa0,\\xe5\\xae\\x9a\\xe6\\x81\\xaf\\xe7\\x9f\\xbf\\xe6\\xb1\\xa0.sol\":3137:3147  msg.sender */\n      caller\n        /* \"contracts/\\xe8\\x87\\xaa\\xe5\\xb7\\xb1\\xe5\\x86\\x99\\xe4\\xb8\\xaa\\xe7\\x9f\\xbf\\xe6\\xb1\\xa0,\\xe5\\xae\\x9a\\xe6\\x81\\xaf\\xe7\\x9f\\xbf\\xe6\\xb1\\xa0.sol\":3128:3148  User_Map[msg.sender] */\n      0xffffffffffffffffffffffffffffffffffffffff\n      and\n      0xffffffffffffffffffffffffffffffffffffffff\n      and\n      dup2\n      mstore\n      0x20\n      add\n      swap1\n      dup2\n      mstore\n      0x20\n      add\n      0x00\n      keccak256\n        /* \"contracts/\\xe8\\x87\\xaa\\xe5\\xb7\\xb1\\xe5\\x86\\x99\\xe4\\xb8\\xaa\\xe7\\x9f\\xbf\\xe6\\xb1\\xa0,\\xe5\\xae\\x9a\\xe6\\x81\\xaf\\xe7\\x9f\\xbf\\xe6\\xb1\\xa0.sol\":3128:3167  User_Map[msg.sender].last_totoken_ratio */\n      0x02\n      add\n      sload\n        /* \"contracts/\\xe8\\x87\\xaa\\xe5\\xb7\\xb1\\xe5\\x86\\x99\\xe4\\xb8\\xaa\\xe7\\x9f\\xbf\\xe6\\xb1\\xa0,\\xe5\\xae\\x9a\\xe6\\x81\\xaf\\xe7\\x9f\\xbf\\xe6\\xb1\\xa0.sol\":3128:3289  User_Map[msg.sender].last_totoken_ratio + (block.timestamp - User_Map[msg.sender].last_Stake_Time) * ((User_Map[msg.sender].stakeNumber * ratio /100) / 31536000) */\n      tag_93\n      swap2\n      swap1\n      tag_85\n      jump\t// in\n    tag_93:\n        /* \"contracts/\\xe8\\x87\\xaa\\xe5\\xb7\\xb1\\xe5\\x86\\x99\\xe4\\xb8\\xaa\\xe7\\x9f\\xbf\\xe6\\xb1\\xa0,\\xe5\\xae\\x9a\\xe6\\x81\\xaf\\xe7\\x9f\\xbf\\xe6\\xb1\\xa0.sol\":3093:3101  User_Map */\n      0x05\n        /* \"contracts/\\xe8\\x87\\xaa\\xe5\\xb7\\xb1\\xe5\\x86\\x99\\xe4\\xb8\\xaa\\xe7\\x9f\\xbf\\xe6\\xb1\\xa0,\\xe5\\xae\\x9a\\xe6\\x81\\xaf\\xe7\\x9f\\xbf\\xe6\\xb1\\xa0.sol\":3093:3113  User_Map[msg.sender] */\n      0x00\n        /* \"contracts/\\xe8\\x87\\xaa\\xe5\\xb7\\xb1\\xe5\\x86\\x99\\xe4\\xb8\\xaa\\xe7\\x9f\\xbf\\xe6\\xb1\\xa0,\\xe5\\xae\\x9a\\xe6\\x81\\xaf\\xe7\\x9f\\xbf\\xe6\\xb1\\xa0.sol\":3102:3112  msg.sender */\n      caller\n        /* \"contracts/\\xe8\\x87\\xaa\\xe5\\xb7\\xb1\\xe5\\x86\\x99\\xe4\\xb8\\xaa\\xe7\\x9f\\xbf\\xe6\\xb1\\xa0,\\xe5\\xae\\x9a\\xe6\\x81\\xaf\\xe7\\x9f\\xbf\\xe6\\xb1\\xa0.sol\":3093:3113  User_Map[msg.sender] */\n      0xffffffffffffffffffffffffffffffffffffffff\n      and\n      0xffffffffffffffffffffffffffffffffffffffff\n      and\n      dup2\n      mstore\n      0x20\n      add\n      swap1\n      dup2\n      mstore\n      0x20\n      add\n      0x00\n      keccak256\n        /* \"contracts/\\xe8\\x87\\xaa\\xe5\\xb7\\xb1\\xe5\\x86\\x99\\xe4\\xb8\\xaa\\xe7\\x9f\\xbf\\xe6\\xb1\\xa0,\\xe5\\xae\\x9a\\xe6\\x81\\xaf\\xe7\\x9f\\xbf\\xe6\\xb1\\xa0.sol\":3093:3125  User_Map[msg.sender].whole_ratio */\n      0x03\n      add\n        /* \"contracts/\\xe8\\x87\\xaa\\xe5\\xb7\\xb1\\xe5\\x86\\x99\\xe4\\xb8\\xaa\\xe7\\x9f\\xbf\\xe6\\xb1\\xa0,\\xe5\\xae\\x9a\\xe6\\x81\\xaf\\xe7\\x9f\\xbf\\xe6\\xb1\\xa0.sol\":3093:3289  User_Map[msg.sender].whole_ratio = User_Map[msg.sender].last_totoken_ratio + (block.timestamp - User_Map[msg.sender].last_Stake_Time) * ((User_Map[msg.sender].stakeNumber * ratio /100) / 31536000) */\n      dup2\n      swap1\n      sstore\n      pop\n        /* \"contracts/\\xe8\\x87\\xaa\\xe5\\xb7\\xb1\\xe5\\x86\\x99\\xe4\\xb8\\xaa\\xe7\\x9f\\xbf\\xe6\\xb1\\xa0,\\xe5\\xae\\x9a\\xe6\\x81\\xaf\\xe7\\x9f\\xbf\\xe6\\xb1\\xa0.sol\":3307:3314  totoken */\n      0x02\n      0x00\n      swap1\n      sload\n      swap1\n      0x0100\n      exp\n      swap1\n      div\n      0xffffffffffffffffffffffffffffffffffffffff\n      and\n        /* \"contracts/\\xe8\\x87\\xaa\\xe5\\xb7\\xb1\\xe5\\x86\\x99\\xe4\\xb8\\xaa\\xe7\\x9f\\xbf\\xe6\\xb1\\xa0,\\xe5\\xae\\x9a\\xe6\\x81\\xaf\\xe7\\x9f\\xbf\\xe6\\xb1\\xa0.sol\":3300:3324  IERC20(totoken).transfer */\n      0xffffffffffffffffffffffffffffffffffffffff\n      and\n      0xa9059cbb\n        /* \"contracts/\\xe8\\x87\\xaa\\xe5\\xb7\\xb1\\xe5\\x86\\x99\\xe4\\xb8\\xaa\\xe7\\x9f\\xbf\\xe6\\xb1\\xa0,\\xe5\\xae\\x9a\\xe6\\x81\\xaf\\xe7\\x9f\\xbf\\xe6\\xb1\\xa0.sol\":3325:3335  msg.sender */\n      caller\n        /* \"contracts/\\xe8\\x87\\xaa\\xe5\\xb7\\xb1\\xe5\\x86\\x99\\xe4\\xb8\\xaa\\xe7\\x9f\\xbf\\xe6\\xb1\\xa0,\\xe5\\xae\\x9a\\xe6\\x81\\xaf\\xe7\\x9f\\xbf\\xe6\\xb1\\xa0.sol\":3337:3345  User_Map */\n      0x05\n        /* \"contracts/\\xe8\\x87\\xaa\\xe5\\xb7\\xb1\\xe5\\x86\\x99\\xe4\\xb8\\xaa\\xe7\\x9f\\xbf\\xe6\\xb1\\xa0,\\xe5\\xae\\x9a\\xe6\\x81\\xaf\\xe7\\x9f\\xbf\\xe6\\xb1\\xa0.sol\":3337:3357  User_Map[msg.sender] */\n      0x00\n        /* \"contracts/\\xe8\\x87\\xaa\\xe5\\xb7\\xb1\\xe5\\x86\\x99\\xe4\\xb8\\xaa\\xe7\\x9f\\xbf\\xe6\\xb1\\xa0,\\xe5\\xae\\x9a\\xe6\\x81\\xaf\\xe7\\x9f\\xbf\\xe6\\xb1\\xa0.sol\":3346:3356  msg.sender */\n      caller\n        /* \"contracts/\\xe8\\x87\\xaa\\xe5\\xb7\\xb1\\xe5\\x86\\x99\\xe4\\xb8\\xaa\\xe7\\x9f\\xbf\\xe6\\xb1\\xa0,\\xe5\\xae\\x9a\\xe6\\x81\\xaf\\xe7\\x9f\\xbf\\xe6\\xb1\\xa0.sol\":3337:3357  User_Map[msg.sender] */\n      0xffffffffffffffffffffffffffffffffffffffff\n      and\n      0xffffffffffffffffffffffffffffffffffffffff\n      and\n      dup2\n      mstore\n      0x20\n      add\n      swap1\n      dup2\n      mstore\n      0x20\n      add\n      0x00\n      keccak256\n        /* \"contracts/\\xe8\\x87\\xaa\\xe5\\xb7\\xb1\\xe5\\x86\\x99\\xe4\\xb8\\xaa\\xe7\\x9f\\xbf\\xe6\\xb1\\xa0,\\xe5\\xae\\x9a\\xe6\\x81\\xaf\\xe7\\x9f\\xbf\\xe6\\xb1\\xa0.sol\":3337:3369  User_Map[msg.sender].whole_ratio */\n      0x03\n      add\n      sload\n        /* \"contracts/\\xe8\\x87\\xaa\\xe5\\xb7\\xb1\\xe5\\x86\\x99\\xe4\\xb8\\xaa\\xe7\\x9f\\xbf\\xe6\\xb1\\xa0,\\xe5\\xae\\x9a\\xe6\\x81\\xaf\\xe7\\x9f\\xbf\\xe6\\xb1\\xa0.sol\":3300:3370  IERC20(totoken).transfer(msg.sender, User_Map[msg.sender].whole_ratio) */\n      mload(0x40)\n      dup4\n      0xffffffff\n      and\n      0xe0\n      shl\n      dup2\n      mstore\n      0x04\n      add\n      tag_94\n      swap3\n      swap2\n      swap1\n      tag_62\n      jump\t// in\n    tag_94:\n      0x20\n      mload(0x40)\n      dup1\n      dup4\n      sub\n      dup2\n      0x00\n      dup8\n      gas\n      call\n      iszero\n      dup1\n      iszero\n      tag_96\n      jumpi\n      returndatasize\n      0x00\n      dup1\n      returndatacopy\n      revert(0x00, returndatasize)\n    tag_96:\n      pop\n      pop\n      pop\n      pop\n      mload(0x40)\n      returndatasize\n      not(0x1f)\n      0x1f\n      dup3\n      add\n      and\n      dup3\n      add\n      dup1\n      0x40\n      mstore\n      pop\n      dup2\n      add\n      swap1\n      tag_97\n      swap2\n      swap1\n      tag_66\n      jump\t// in\n    tag_97:\n      pop\n        /* \"contracts/\\xe8\\x87\\xaa\\xe5\\xb7\\xb1\\xe5\\x86\\x99\\xe4\\xb8\\xaa\\xe7\\x9f\\xbf\\xe6\\xb1\\xa0,\\xe5\\xae\\x9a\\xe6\\x81\\xaf\\xe7\\x9f\\xbf\\xe6\\xb1\\xa0.sol\":3398:3408  msg.sender */\n      caller\n        /* \"contracts/\\xe8\\x87\\xaa\\xe5\\xb7\\xb1\\xe5\\x86\\x99\\xe4\\xb8\\xaa\\xe7\\x9f\\xbf\\xe6\\xb1\\xa0,\\xe5\\xae\\x9a\\xe6\\x81\\xaf\\xe7\\x9f\\xbf\\xe6\\xb1\\xa0.sol\":3389:3443  transfer(msg.sender, User_Map[msg.sender].whole_ratio) */\n      0xffffffffffffffffffffffffffffffffffffffff\n      and\n      0xa9059cbb2ab09eb219583f4a59a5d0623ade346d962bcd4e46b11da047c9049b\n        /* \"contracts/\\xe8\\x87\\xaa\\xe5\\xb7\\xb1\\xe5\\x86\\x99\\xe4\\xb8\\xaa\\xe7\\x9f\\xbf\\xe6\\xb1\\xa0,\\xe5\\xae\\x9a\\xe6\\x81\\xaf\\xe7\\x9f\\xbf\\xe6\\xb1\\xa0.sol\":3410:3418  User_Map */\n      0x05\n        /* \"contracts/\\xe8\\x87\\xaa\\xe5\\xb7\\xb1\\xe5\\x86\\x99\\xe4\\xb8\\xaa\\xe7\\x9f\\xbf\\xe6\\xb1\\xa0,\\xe5\\xae\\x9a\\xe6\\x81\\xaf\\xe7\\x9f\\xbf\\xe6\\xb1\\xa0.sol\":3410:3430  User_Map[msg.sender] */\n      0x00\n        /* \"contracts/\\xe8\\x87\\xaa\\xe5\\xb7\\xb1\\xe5\\x86\\x99\\xe4\\xb8\\xaa\\xe7\\x9f\\xbf\\xe6\\xb1\\xa0,\\xe5\\xae\\x9a\\xe6\\x81\\xaf\\xe7\\x9f\\xbf\\xe6\\xb1\\xa0.sol\":3419:3429  msg.sender */\n      caller\n        /* \"contracts/\\xe8\\x87\\xaa\\xe5\\xb7\\xb1\\xe5\\x86\\x99\\xe4\\xb8\\xaa\\xe7\\x9f\\xbf\\xe6\\xb1\\xa0,\\xe5\\xae\\x9a\\xe6\\x81\\xaf\\xe7\\x9f\\xbf\\xe6\\xb1\\xa0.sol\":3410:3430  User_Map[msg.sender] */\n      0xffffffffffffffffffffffffffffffffffffffff\n      and\n      0xffffffffffffffffffffffffffffffffffffffff\n      and\n      dup2\n      mstore\n      0x20\n      add\n      swap1\n      dup2\n      mstore\n      0x20\n      add\n      0x00\n      keccak256\n        /* \"contracts/\\xe8\\x87\\xaa\\xe5\\xb7\\xb1\\xe5\\x86\\x99\\xe4\\xb8\\xaa\\xe7\\x9f\\xbf\\xe6\\xb1\\xa0,\\xe5\\xae\\x9a\\xe6\\x81\\xaf\\xe7\\x9f\\xbf\\xe6\\xb1\\xa0.sol\":3410:3442  User_Map[msg.sender].whole_ratio */\n      0x03\n      add\n      sload\n        /* \"contracts/\\xe8\\x87\\xaa\\xe5\\xb7\\xb1\\xe5\\x86\\x99\\xe4\\xb8\\xaa\\xe7\\x9f\\xbf\\xe6\\xb1\\xa0,\\xe5\\xae\\x9a\\xe6\\x81\\xaf\\xe7\\x9f\\xbf\\xe6\\xb1\\xa0.sol\":3389:3443  transfer(msg.sender, User_Map[msg.sender].whole_ratio) */\n      mload(0x40)\n      tag_98\n      swap2\n      swap1\n      tag_35\n      jump\t// in\n    tag_98:\n      mload(0x40)\n      dup1\n      swap2\n      sub\n      swap1\n      log2\n        /* \"contracts/\\xe8\\x87\\xaa\\xe5\\xb7\\xb1\\xe5\\x86\\x99\\xe4\\xb8\\xaa\\xe7\\x9f\\xbf\\xe6\\xb1\\xa0,\\xe5\\xae\\x9a\\xe6\\x81\\xaf\\xe7\\x9f\\xbf\\xe6\\xb1\\xa0.sol\":3491:3492  0 */\n      0x00\n        /* \"contracts/\\xe8\\x87\\xaa\\xe5\\xb7\\xb1\\xe5\\x86\\x99\\xe4\\xb8\\xaa\\xe7\\x9f\\xbf\\xe6\\xb1\\xa0,\\xe5\\xae\\x9a\\xe6\\x81\\xaf\\xe7\\x9f\\xbf\\xe6\\xb1\\xa0.sol\":3456:3464  User_Map */\n      0x05\n        /* \"contracts/\\xe8\\x87\\xaa\\xe5\\xb7\\xb1\\xe5\\x86\\x99\\xe4\\xb8\\xaa\\xe7\\x9f\\xbf\\xe6\\xb1\\xa0,\\xe5\\xae\\x9a\\xe6\\x81\\xaf\\xe7\\x9f\\xbf\\xe6\\xb1\\xa0.sol\":3456:3476  User_Map[msg.sender] */\n      0x00\n        /* \"contracts/\\xe8\\x87\\xaa\\xe5\\xb7\\xb1\\xe5\\x86\\x99\\xe4\\xb8\\xaa\\xe7\\x9f\\xbf\\xe6\\xb1\\xa0,\\xe5\\xae\\x9a\\xe6\\x81\\xaf\\xe7\\x9f\\xbf\\xe6\\xb1\\xa0.sol\":3465:3475  msg.sender */\n      caller\n        /* \"contracts/\\xe8\\x87\\xaa\\xe5\\xb7\\xb1\\xe5\\x86\\x99\\xe4\\xb8\\xaa\\xe7\\x9f\\xbf\\xe6\\xb1\\xa0,\\xe5\\xae\\x9a\\xe6\\x81\\xaf\\xe7\\x9f\\xbf\\xe6\\xb1\\xa0.sol\":3456:3476  User_Map[msg.sender] */\n      0xffffffffffffffffffffffffffffffffffffffff\n      and\n      0xffffffffffffffffffffffffffffffffffffffff\n      and\n      dup2\n      mstore\n      0x20\n      add\n      swap1\n      dup2\n      mstore\n      0x20\n      add\n      0x00\n      keccak256\n        /* \"contracts/\\xe8\\x87\\xaa\\xe5\\xb7\\xb1\\xe5\\x86\\x99\\xe4\\xb8\\xaa\\xe7\\x9f\\xbf\\xe6\\xb1\\xa0,\\xe5\\xae\\x9a\\xe6\\x81\\xaf\\xe7\\x9f\\xbf\\xe6\\xb1\\xa0.sol\":3456:3488  User_Map[msg.sender].whole_ratio */\n      0x03\n      add\n        /* \"contracts/\\xe8\\x87\\xaa\\xe5\\xb7\\xb1\\xe5\\x86\\x99\\xe4\\xb8\\xaa\\xe7\\x9f\\xbf\\xe6\\xb1\\xa0,\\xe5\\xae\\x9a\\xe6\\x81\\xaf\\xe7\\x9f\\xbf\\xe6\\xb1\\xa0.sol\":3456:3492  User_Map[msg.sender].whole_ratio = 0 */\n      dup2\n      swap1\n      sstore\n      pop\n        /* \"contracts/\\xe8\\x87\\xaa\\xe5\\xb7\\xb1\\xe5\\x86\\x99\\xe4\\xb8\\xaa\\xe7\\x9f\\xbf\\xe6\\xb1\\xa0,\\xe5\\xae\\x9a\\xe6\\x81\\xaf\\xe7\\x9f\\xbf\\xe6\\xb1\\xa0.sol\":3545:3546  0 */\n      0x00\n        /* \"contracts/\\xe8\\x87\\xaa\\xe5\\xb7\\xb1\\xe5\\x86\\x99\\xe4\\xb8\\xaa\\xe7\\x9f\\xbf\\xe6\\xb1\\xa0,\\xe5\\xae\\x9a\\xe6\\x81\\xaf\\xe7\\x9f\\xbf\\xe6\\xb1\\xa0.sol\":3503:3511  User_Map */\n      0x05\n        /* \"contracts/\\xe8\\x87\\xaa\\xe5\\xb7\\xb1\\xe5\\x86\\x99\\xe4\\xb8\\xaa\\xe7\\x9f\\xbf\\xe6\\xb1\\xa0,\\xe5\\xae\\x9a\\xe6\\x81\\xaf\\xe7\\x9f\\xbf\\xe6\\xb1\\xa0.sol\":3503:3523  User_Map[msg.sender] */\n      0x00\n        /* \"contracts/\\xe8\\x87\\xaa\\xe5\\xb7\\xb1\\xe5\\x86\\x99\\xe4\\xb8\\xaa\\xe7\\x9f\\xbf\\xe6\\xb1\\xa0,\\xe5\\xae\\x9a\\xe6\\x81\\xaf\\xe7\\x9f\\xbf\\xe6\\xb1\\xa0.sol\":3512:3522  msg.sender */\n      caller\n        /* \"contracts/\\xe8\\x87\\xaa\\xe5\\xb7\\xb1\\xe5\\x86\\x99\\xe4\\xb8\\xaa\\xe7\\x9f\\xbf\\xe6\\xb1\\xa0,\\xe5\\xae\\x9a\\xe6\\x81\\xaf\\xe7\\x9f\\xbf\\xe6\\xb1\\xa0.sol\":3503:3523  User_Map[msg.sender] */\n      0xffffffffffffffffffffffffffffffffffffffff\n      and\n      0xffffffffffffffffffffffffffffffffffffffff\n      and\n      dup2\n      mstore\n      0x20\n      add\n      swap1\n      dup2\n      mstore\n      0x20\n      add\n      0x00\n      keccak256\n        /* \"contracts/\\xe8\\x87\\xaa\\xe5\\xb7\\xb1\\xe5\\x86\\x99\\xe4\\xb8\\xaa\\xe7\\x9f\\xbf\\xe6\\xb1\\xa0,\\xe5\\xae\\x9a\\xe6\\x81\\xaf\\xe7\\x9f\\xbf\\xe6\\xb1\\xa0.sol\":3503:3542  User_Map[msg.sender].last_totoken_ratio */\n      0x02\n      add\n        /* \"contracts/\\xe8\\x87\\xaa\\xe5\\xb7\\xb1\\xe5\\x86\\x99\\xe4\\xb8\\xaa\\xe7\\x9f\\xbf\\xe6\\xb1\\xa0,\\xe5\\xae\\x9a\\xe6\\x81\\xaf\\xe7\\x9f\\xbf\\xe6\\xb1\\xa0.sol\":3503:3546  User_Map[msg.sender].last_totoken_ratio = 0 */\n      dup2\n      swap1\n      sstore\n      pop\n        /* \"contracts/\\xe8\\x87\\xaa\\xe5\\xb7\\xb1\\xe5\\x86\\x99\\xe4\\xb8\\xaa\\xe7\\x9f\\xbf\\xe6\\xb1\\xa0,\\xe5\\xae\\x9a\\xe6\\x81\\xaf\\xe7\\x9f\\xbf\\xe6\\xb1\\xa0.sol\":3598:3613  block.timestamp */\n      timestamp\n        /* \"contracts/\\xe8\\x87\\xaa\\xe5\\xb7\\xb1\\xe5\\x86\\x99\\xe4\\xb8\\xaa\\xe7\\x9f\\xbf\\xe6\\xb1\\xa0,\\xe5\\xae\\x9a\\xe6\\x81\\xaf\\xe7\\x9f\\xbf\\xe6\\xb1\\xa0.sol\":3557:3565  User_Map */\n      0x05\n        /* \"contracts/\\xe8\\x87\\xaa\\xe5\\xb7\\xb1\\xe5\\x86\\x99\\xe4\\xb8\\xaa\\xe7\\x9f\\xbf\\xe6\\xb1\\xa0,\\xe5\\xae\\x9a\\xe6\\x81\\xaf\\xe7\\x9f\\xbf\\xe6\\xb1\\xa0.sol\":3557:3577  User_Map[msg.sender] */\n      0x00\n        /* \"contracts/\\xe8\\x87\\xaa\\xe5\\xb7\\xb1\\xe5\\x86\\x99\\xe4\\xb8\\xaa\\xe7\\x9f\\xbf\\xe6\\xb1\\xa0,\\xe5\\xae\\x9a\\xe6\\x81\\xaf\\xe7\\x9f\\xbf\\xe6\\xb1\\xa0.sol\":3566:3576  msg.sender */\n      caller\n        /* \"contracts/\\xe8\\x87\\xaa\\xe5\\xb7\\xb1\\xe5\\x86\\x99\\xe4\\xb8\\xaa\\xe7\\x9f\\xbf\\xe6\\xb1\\xa0,\\xe5\\xae\\x9a\\xe6\\x81\\xaf\\xe7\\x9f\\xbf\\xe6\\xb1\\xa0.sol\":3557:3577  User_Map[msg.sender] */\n      0xffffffffffffffffffffffffffffffffffffffff\n      and\n      0xffffffffffffffffffffffffffffffffffffffff\n      and\n      dup2\n      mstore\n      0x20\n      add\n      swap1\n      dup2\n      mstore\n      0x20\n      add\n      0x00\n      keccak256\n        /* \"contracts/\\xe8\\x87\\xaa\\xe5\\xb7\\xb1\\xe5\\x86\\x99\\xe4\\xb8\\xaa\\xe7\\x9f\\xbf\\xe6\\xb1\\xa0,\\xe5\\xae\\x9a\\xe6\\x81\\xaf\\xe7\\x9f\\xbf\\xe6\\xb1\\xa0.sol\":3557:3595  User_Map[msg.sender].last_totoken_Time */\n      0x04\n      add\n        /* \"contracts/\\xe8\\x87\\xaa\\xe5\\xb7\\xb1\\xe5\\x86\\x99\\xe4\\xb8\\xaa\\xe7\\x9f\\xbf\\xe6\\xb1\\xa0,\\xe5\\xae\\x9a\\xe6\\x81\\xaf\\xe7\\x9f\\xbf\\xe6\\xb1\\xa0.sol\":3557:3613  User_Map[msg.sender].last_totoken_Time = block.timestamp */\n      dup2\n      swap1\n      sstore\n      pop\n        /* \"contracts/\\xe8\\x87\\xaa\\xe5\\xb7\\xb1\\xe5\\x86\\x99\\xe4\\xb8\\xaa\\xe7\\x9f\\xbf\\xe6\\xb1\\xa0,\\xe5\\xae\\x9a\\xe6\\x81\\xaf\\xe7\\x9f\\xbf\\xe6\\xb1\\xa0.sol\":3631:3635  true */\n      0x01\n        /* \"contracts/\\xe8\\x87\\xaa\\xe5\\xb7\\xb1\\xe5\\x86\\x99\\xe4\\xb8\\xaa\\xe7\\x9f\\xbf\\xe6\\xb1\\xa0,\\xe5\\xae\\x9a\\xe6\\x81\\xaf\\xe7\\x9f\\xbf\\xe6\\xb1\\xa0.sol\":3624:3635  return true */\n      swap1\n      pop\n        /* \"contracts/\\xe8\\x87\\xaa\\xe5\\xb7\\xb1\\xe5\\x86\\x99\\xe4\\xb8\\xaa\\xe7\\x9f\\xbf\\xe6\\xb1\\xa0,\\xe5\\xae\\x9a\\xe6\\x81\\xaf\\xe7\\x9f\\xbf\\xe6\\xb1\\xa0.sol\":3041:3643  function harvest() public returns (bool) {... */\n      swap1\n      jump\t// out\n        /* \"contracts/\\xe8\\x87\\xaa\\xe5\\xb7\\xb1\\xe5\\x86\\x99\\xe4\\xb8\\xaa\\xe7\\x9f\\xbf\\xe6\\xb1\\xa0,\\xe5\\xae\\x9a\\xe6\\x81\\xaf\\xe7\\x9f\\xbf\\xe6\\xb1\\xa0.sol\":3992:4279  function newTotokenRatio() public view returns (uint) {... */\n    tag_33:\n        /* \"contracts/\\xe8\\x87\\xaa\\xe5\\xb7\\xb1\\xe5\\x86\\x99\\xe4\\xb8\\xaa\\xe7\\x9f\\xbf\\xe6\\xb1\\xa0,\\xe5\\xae\\x9a\\xe6\\x81\\xaf\\xe7\\x9f\\xbf\\xe6\\xb1\\xa0.sol\":4040:4044  uint */\n      0x00\n        /* \"contracts/\\xe8\\x87\\xaa\\xe5\\xb7\\xb1\\xe5\\x86\\x99\\xe4\\xb8\\xaa\\xe7\\x9f\\xbf\\xe6\\xb1\\xa0,\\xe5\\xae\\x9a\\xe6\\x81\\xaf\\xe7\\x9f\\xbf\\xe6\\xb1\\xa0.sol\":4057:4069  uint newtime */\n      dup1\n        /* \"contracts/\\xe8\\x87\\xaa\\xe5\\xb7\\xb1\\xe5\\x86\\x99\\xe4\\xb8\\xaa\\xe7\\x9f\\xbf\\xe6\\xb1\\xa0,\\xe5\\xae\\x9a\\xe6\\x81\\xaf\\xe7\\x9f\\xbf\\xe6\\xb1\\xa0.sol\":4090:4098  User_Map */\n      0x05\n        /* \"contracts/\\xe8\\x87\\xaa\\xe5\\xb7\\xb1\\xe5\\x86\\x99\\xe4\\xb8\\xaa\\xe7\\x9f\\xbf\\xe6\\xb1\\xa0,\\xe5\\xae\\x9a\\xe6\\x81\\xaf\\xe7\\x9f\\xbf\\xe6\\xb1\\xa0.sol\":4090:4110  User_Map[msg.sender] */\n      0x00\n        /* \"contracts/\\xe8\\x87\\xaa\\xe5\\xb7\\xb1\\xe5\\x86\\x99\\xe4\\xb8\\xaa\\xe7\\x9f\\xbf\\xe6\\xb1\\xa0,\\xe5\\xae\\x9a\\xe6\\x81\\xaf\\xe7\\x9f\\xbf\\xe6\\xb1\\xa0.sol\":4099:4109  msg.sender */\n      caller\n        /* \"contracts/\\xe8\\x87\\xaa\\xe5\\xb7\\xb1\\xe5\\x86\\x99\\xe4\\xb8\\xaa\\xe7\\x9f\\xbf\\xe6\\xb1\\xa0,\\xe5\\xae\\x9a\\xe6\\x81\\xaf\\xe7\\x9f\\xbf\\xe6\\xb1\\xa0.sol\":4090:4110  User_Map[msg.sender] */\n      0xffffffffffffffffffffffffffffffffffffffff\n      and\n      0xffffffffffffffffffffffffffffffffffffffff\n      and\n      dup2\n      mstore\n      0x20\n      add\n      swap1\n      dup2\n      mstore\n      0x20\n      add\n      0x00\n      keccak256\n        /* \"contracts/\\xe8\\x87\\xaa\\xe5\\xb7\\xb1\\xe5\\x86\\x99\\xe4\\xb8\\xaa\\xe7\\x9f\\xbf\\xe6\\xb1\\xa0,\\xe5\\xae\\x9a\\xe6\\x81\\xaf\\xe7\\x9f\\xbf\\xe6\\xb1\\xa0.sol\":4090:4128  User_Map[msg.sender].last_totoken_Time */\n      0x04\n      add\n      sload\n        /* \"contracts/\\xe8\\x87\\xaa\\xe5\\xb7\\xb1\\xe5\\x86\\x99\\xe4\\xb8\\xaa\\xe7\\x9f\\xbf\\xe6\\xb1\\xa0,\\xe5\\xae\\x9a\\xe6\\x81\\xaf\\xe7\\x9f\\xbf\\xe6\\xb1\\xa0.sol\":4072:4087  block.timestamp */\n      timestamp\n        /* \"contracts/\\xe8\\x87\\xaa\\xe5\\xb7\\xb1\\xe5\\x86\\x99\\xe4\\xb8\\xaa\\xe7\\x9f\\xbf\\xe6\\xb1\\xa0,\\xe5\\xae\\x9a\\xe6\\x81\\xaf\\xe7\\x9f\\xbf\\xe6\\xb1\\xa0.sol\":4072:4128  block.timestamp - User_Map[msg.sender].last_totoken_Time */\n      tag_100\n      swap2\n      swap1\n      tag_69\n      jump\t// in\n    tag_100:\n        /* \"contracts/\\xe8\\x87\\xaa\\xe5\\xb7\\xb1\\xe5\\x86\\x99\\xe4\\xb8\\xaa\\xe7\\x9f\\xbf\\xe6\\xb1\\xa0,\\xe5\\xae\\x9a\\xe6\\x81\\xaf\\xe7\\x9f\\xbf\\xe6\\xb1\\xa0.sol\":4057:4128  uint newtime = block.timestamp - User_Map[msg.sender].last_totoken_Time */\n      swap1\n      pop\n        /* \"contracts/\\xe8\\x87\\xaa\\xe5\\xb7\\xb1\\xe5\\x86\\x99\\xe4\\xb8\\xaa\\xe7\\x9f\\xbf\\xe6\\xb1\\xa0,\\xe5\\xae\\x9a\\xe6\\x81\\xaf\\xe7\\x9f\\xbf\\xe6\\xb1\\xa0.sol\":4139:4161  uint newTotokenRatione */\n      0x00\n        /* \"contracts/\\xe8\\x87\\xaa\\xe5\\xb7\\xb1\\xe5\\x86\\x99\\xe4\\xb8\\xaa\\xe7\\x9f\\xbf\\xe6\\xb1\\xa0,\\xe5\\xae\\x9a\\xe6\\x81\\xaf\\xe7\\x9f\\xbf\\xe6\\xb1\\xa0.sol\":4225:4233  31536000 */\n      0x01e13380\n        /* \"contracts/\\xe8\\x87\\xaa\\xe5\\xb7\\xb1\\xe5\\x86\\x99\\xe4\\xb8\\xaa\\xe7\\x9f\\xbf\\xe6\\xb1\\xa0,\\xe5\\xae\\x9a\\xe6\\x81\\xaf\\xe7\\x9f\\xbf\\xe6\\xb1\\xa0.sol\":4218:4221  100 */\n      0x64\n        /* \"contracts/\\xe8\\x87\\xaa\\xe5\\xb7\\xb1\\xe5\\x86\\x99\\xe4\\xb8\\xaa\\xe7\\x9f\\xbf\\xe6\\xb1\\xa0,\\xe5\\xae\\x9a\\xe6\\x81\\xaf\\xe7\\x9f\\xbf\\xe6\\xb1\\xa0.sol\":4211:4216  ratio */\n      sload(0x00)\n        /* \"contracts/\\xe8\\x87\\xaa\\xe5\\xb7\\xb1\\xe5\\x86\\x99\\xe4\\xb8\\xaa\\xe7\\x9f\\xbf\\xe6\\xb1\\xa0,\\xe5\\xae\\x9a\\xe6\\x81\\xaf\\xe7\\x9f\\xbf\\xe6\\xb1\\xa0.sol\":4176:4184  User_Map */\n      0x05\n        /* \"contracts/\\xe8\\x87\\xaa\\xe5\\xb7\\xb1\\xe5\\x86\\x99\\xe4\\xb8\\xaa\\xe7\\x9f\\xbf\\xe6\\xb1\\xa0,\\xe5\\xae\\x9a\\xe6\\x81\\xaf\\xe7\\x9f\\xbf\\xe6\\xb1\\xa0.sol\":4176:4196  User_Map[msg.sender] */\n      0x00\n        /* \"contracts/\\xe8\\x87\\xaa\\xe5\\xb7\\xb1\\xe5\\x86\\x99\\xe4\\xb8\\xaa\\xe7\\x9f\\xbf\\xe6\\xb1\\xa0,\\xe5\\xae\\x9a\\xe6\\x81\\xaf\\xe7\\x9f\\xbf\\xe6\\xb1\\xa0.sol\":4185:4195  msg.sender */\n      caller\n        /* \"contracts/\\xe8\\x87\\xaa\\xe5\\xb7\\xb1\\xe5\\x86\\x99\\xe4\\xb8\\xaa\\xe7\\x9f\\xbf\\xe6\\xb1\\xa0,\\xe5\\xae\\x9a\\xe6\\x81\\xaf\\xe7\\x9f\\xbf\\xe6\\xb1\\xa0.sol\":4176:4196  User_Map[msg.sender] */\n      0xffffffffffffffffffffffffffffffffffffffff\n      and\n      0xffffffffffffffffffffffffffffffffffffffff\n      and\n      dup2\n      mstore\n      0x20\n      add\n      swap1\n      dup2\n      mstore\n      0x20\n      add\n      0x00\n      keccak256\n        /* \"contracts/\\xe8\\x87\\xaa\\xe5\\xb7\\xb1\\xe5\\x86\\x99\\xe4\\xb8\\xaa\\xe7\\x9f\\xbf\\xe6\\xb1\\xa0,\\xe5\\xae\\x9a\\xe6\\x81\\xaf\\xe7\\x9f\\xbf\\xe6\\xb1\\xa0.sol\":4176:4208  User_Map[msg.sender].stakeNumber */\n      0x00\n      add\n      sload\n        /* \"contracts/\\xe8\\x87\\xaa\\xe5\\xb7\\xb1\\xe5\\x86\\x99\\xe4\\xb8\\xaa\\xe7\\x9f\\xbf\\xe6\\xb1\\xa0,\\xe5\\xae\\x9a\\xe6\\x81\\xaf\\xe7\\x9f\\xbf\\xe6\\xb1\\xa0.sol\":4176:4216  User_Map[msg.sender].stakeNumber * ratio */\n      tag_101\n      swap2\n      swap1\n      tag_78\n      jump\t// in\n    tag_101:\n        /* \"contracts/\\xe8\\x87\\xaa\\xe5\\xb7\\xb1\\xe5\\x86\\x99\\xe4\\xb8\\xaa\\xe7\\x9f\\xbf\\xe6\\xb1\\xa0,\\xe5\\xae\\x9a\\xe6\\x81\\xaf\\xe7\\x9f\\xbf\\xe6\\xb1\\xa0.sol\":4176:4221  User_Map[msg.sender].stakeNumber * ratio /100 */\n      tag_102\n      swap2\n      swap1\n      tag_80\n      jump\t// in\n    tag_102:\n        /* \"contracts/\\xe8\\x87\\xaa\\xe5\\xb7\\xb1\\xe5\\x86\\x99\\xe4\\xb8\\xaa\\xe7\\x9f\\xbf\\xe6\\xb1\\xa0,\\xe5\\xae\\x9a\\xe6\\x81\\xaf\\xe7\\x9f\\xbf\\xe6\\xb1\\xa0.sol\":4175:4233  (User_Map[msg.sender].stakeNumber * ratio /100) / 31536000 */\n      tag_103\n      swap2\n      swap1\n      tag_80\n      jump\t// in\n    tag_103:\n        /* \"contracts/\\xe8\\x87\\xaa\\xe5\\xb7\\xb1\\xe5\\x86\\x99\\xe4\\xb8\\xaa\\xe7\\x9f\\xbf\\xe6\\xb1\\xa0,\\xe5\\xae\\x9a\\xe6\\x81\\xaf\\xe7\\x9f\\xbf\\xe6\\xb1\\xa0.sol\":4164:4171  newtime */\n      dup3\n        /* \"contracts/\\xe8\\x87\\xaa\\xe5\\xb7\\xb1\\xe5\\x86\\x99\\xe4\\xb8\\xaa\\xe7\\x9f\\xbf\\xe6\\xb1\\xa0,\\xe5\\xae\\x9a\\xe6\\x81\\xaf\\xe7\\x9f\\xbf\\xe6\\xb1\\xa0.sol\":4164:4234  newtime * ((User_Map[msg.sender].stakeNumber * ratio /100) / 31536000) */\n      tag_104\n      swap2\n      swap1\n      tag_78\n      jump\t// in\n    tag_104:\n        /* \"contracts/\\xe8\\x87\\xaa\\xe5\\xb7\\xb1\\xe5\\x86\\x99\\xe4\\xb8\\xaa\\xe7\\x9f\\xbf\\xe6\\xb1\\xa0,\\xe5\\xae\\x9a\\xe6\\x81\\xaf\\xe7\\x9f\\xbf\\xe6\\xb1\\xa0.sol\":4139:4234  uint newTotokenRatione = newtime * ((User_Map[msg.sender].stakeNumber * ratio /100) / 31536000) */\n      swap1\n      pop\n        /* \"contracts/\\xe8\\x87\\xaa\\xe5\\xb7\\xb1\\xe5\\x86\\x99\\xe4\\xb8\\xaa\\xe7\\x9f\\xbf\\xe6\\xb1\\xa0,\\xe5\\xae\\x9a\\xe6\\x81\\xaf\\xe7\\x9f\\xbf\\xe6\\xb1\\xa0.sol\":4252:4269  newTotokenRatione */\n      dup1\n        /* \"contracts/\\xe8\\x87\\xaa\\xe5\\xb7\\xb1\\xe5\\x86\\x99\\xe4\\xb8\\xaa\\xe7\\x9f\\xbf\\xe6\\xb1\\xa0,\\xe5\\xae\\x9a\\xe6\\x81\\xaf\\xe7\\x9f\\xbf\\xe6\\xb1\\xa0.sol\":4245:4269  return newTotokenRatione */\n      swap3\n      pop\n      pop\n      pop\n        /* \"contracts/\\xe8\\x87\\xaa\\xe5\\xb7\\xb1\\xe5\\x86\\x99\\xe4\\xb8\\xaa\\xe7\\x9f\\xbf\\xe6\\xb1\\xa0,\\xe5\\xae\\x9a\\xe6\\x81\\xaf\\xe7\\x9f\\xbf\\xe6\\xb1\\xa0.sol\":3992:4279  function newTotokenRatio() public view returns (uint) {... */\n      swap1\n      jump\t// out\n        /* \"contracts/\\xe8\\x87\\xaa\\xe5\\xb7\\xb1\\xe5\\x86\\x99\\xe4\\xb8\\xaa\\xe7\\x9f\\xbf\\xe6\\xb1\\xa0,\\xe5\\xae\\x9a\\xe6\\x81\\xaf\\xe7\\x9f\\xbf\\xe6\\xb1\\xa0.sol\":4287:4458  function lastTotokenRatio()public view returns(uint) {... */\n    tag_37:\n        /* \"contracts/\\xe8\\x87\\xaa\\xe5\\xb7\\xb1\\xe5\\x86\\x99\\xe4\\xb8\\xaa\\xe7\\x9f\\xbf\\xe6\\xb1\\xa0,\\xe5\\xae\\x9a\\xe6\\x81\\xaf\\xe7\\x9f\\xbf\\xe6\\xb1\\xa0.sol\":4334:4338  uint */\n      0x00\n        /* \"contracts/\\xe8\\x87\\xaa\\xe5\\xb7\\xb1\\xe5\\x86\\x99\\xe4\\xb8\\xaa\\xe7\\x9f\\xbf\\xe6\\xb1\\xa0,\\xe5\\xae\\x9a\\xe6\\x81\\xaf\\xe7\\x9f\\xbf\\xe6\\xb1\\xa0.sol\":4351:4373  uint _lastTotokenRatio */\n      dup1\n        /* \"contracts/\\xe8\\x87\\xaa\\xe5\\xb7\\xb1\\xe5\\x86\\x99\\xe4\\xb8\\xaa\\xe7\\x9f\\xbf\\xe6\\xb1\\xa0,\\xe5\\xae\\x9a\\xe6\\x81\\xaf\\xe7\\x9f\\xbf\\xe6\\xb1\\xa0.sol\":4376:4384  User_Map */\n      0x05\n        /* \"contracts/\\xe8\\x87\\xaa\\xe5\\xb7\\xb1\\xe5\\x86\\x99\\xe4\\xb8\\xaa\\xe7\\x9f\\xbf\\xe6\\xb1\\xa0,\\xe5\\xae\\x9a\\xe6\\x81\\xaf\\xe7\\x9f\\xbf\\xe6\\xb1\\xa0.sol\":4376:4396  User_Map[msg.sender] */\n      0x00\n        /* \"contracts/\\xe8\\x87\\xaa\\xe5\\xb7\\xb1\\xe5\\x86\\x99\\xe4\\xb8\\xaa\\xe7\\x9f\\xbf\\xe6\\xb1\\xa0,\\xe5\\xae\\x9a\\xe6\\x81\\xaf\\xe7\\x9f\\xbf\\xe6\\xb1\\xa0.sol\":4385:4395  msg.sender */\n      caller\n        /* \"contracts/\\xe8\\x87\\xaa\\xe5\\xb7\\xb1\\xe5\\x86\\x99\\xe4\\xb8\\xaa\\xe7\\x9f\\xbf\\xe6\\xb1\\xa0,\\xe5\\xae\\x9a\\xe6\\x81\\xaf\\xe7\\x9f\\xbf\\xe6\\xb1\\xa0.sol\":4376:4396  User_Map[msg.sender] */\n      0xffffffffffffffffffffffffffffffffffffffff\n      and\n      0xffffffffffffffffffffffffffffffffffffffff\n      and\n      dup2\n      mstore\n      0x20\n      add\n      swap1\n      dup2\n      mstore\n      0x20\n      add\n      0x00\n      keccak256\n        /* \"contracts/\\xe8\\x87\\xaa\\xe5\\xb7\\xb1\\xe5\\x86\\x99\\xe4\\xb8\\xaa\\xe7\\x9f\\xbf\\xe6\\xb1\\xa0,\\xe5\\xae\\x9a\\xe6\\x81\\xaf\\xe7\\x9f\\xbf\\xe6\\xb1\\xa0.sol\":4376:4415  User_Map[msg.sender].last_totoken_ratio */\n      0x02\n      add\n      sload\n        /* \"contracts/\\xe8\\x87\\xaa\\xe5\\xb7\\xb1\\xe5\\x86\\x99\\xe4\\xb8\\xaa\\xe7\\x9f\\xbf\\xe6\\xb1\\xa0,\\xe5\\xae\\x9a\\xe6\\x81\\xaf\\xe7\\x9f\\xbf\\xe6\\xb1\\xa0.sol\":4351:4415  uint _lastTotokenRatio = User_Map[msg.sender].last_totoken_ratio */\n      swap1\n      pop\n        /* \"contracts/\\xe8\\x87\\xaa\\xe5\\xb7\\xb1\\xe5\\x86\\x99\\xe4\\xb8\\xaa\\xe7\\x9f\\xbf\\xe6\\xb1\\xa0,\\xe5\\xae\\x9a\\xe6\\x81\\xaf\\xe7\\x9f\\xbf\\xe6\\xb1\\xa0.sol\":4433:4450  _lastTotokenRatio */\n      dup1\n        /* \"contracts/\\xe8\\x87\\xaa\\xe5\\xb7\\xb1\\xe5\\x86\\x99\\xe4\\xb8\\xaa\\xe7\\x9f\\xbf\\xe6\\xb1\\xa0,\\xe5\\xae\\x9a\\xe6\\x81\\xaf\\xe7\\x9f\\xbf\\xe6\\xb1\\xa0.sol\":4426:4450  return _lastTotokenRatio */\n      swap2\n      pop\n      pop\n        /* \"contracts/\\xe8\\x87\\xaa\\xe5\\xb7\\xb1\\xe5\\x86\\x99\\xe4\\xb8\\xaa\\xe7\\x9f\\xbf\\xe6\\xb1\\xa0,\\xe5\\xae\\x9a\\xe6\\x81\\xaf\\xe7\\x9f\\xbf\\xe6\\xb1\\xa0.sol\":4287:4458  function lastTotokenRatio()public view returns(uint) {... */\n      swap1\n      jump\t// out\n        /* \"contracts/\\xe8\\x87\\xaa\\xe5\\xb7\\xb1\\xe5\\x86\\x99\\xe4\\xb8\\xaa\\xe7\\x9f\\xbf\\xe6\\xb1\\xa0,\\xe5\\xae\\x9a\\xe6\\x81\\xaf\\xe7\\x9f\\xbf\\xe6\\xb1\\xa0.sol\":793:810  uint public ratio */\n    tag_40:\n      sload(0x00)\n      dup2\n      jump\t// out\n        /* \"contracts/\\xe8\\x87\\xaa\\xe5\\xb7\\xb1\\xe5\\x86\\x99\\xe4\\xb8\\xaa\\xe7\\x9f\\xbf\\xe6\\xb1\\xa0,\\xe5\\xae\\x9a\\xe6\\x81\\xaf\\xe7\\x9f\\xbf\\xe6\\xb1\\xa0.sol\":1332:1372  mapping(address => User) public User_Map */\n    tag_45:\n      mstore(0x20, 0x05)\n      dup1\n      0x00\n      mstore\n      keccak256(0x00, 0x40)\n      0x00\n      swap2\n      pop\n      swap1\n      pop\n      dup1\n      0x00\n      add\n      sload\n      swap1\n      dup1\n      0x01\n      add\n      sload\n      swap1\n      dup1\n      0x02\n      add\n      sload\n      swap1\n      dup1\n      0x03\n      add\n      sload\n      swap1\n      dup1\n      0x04\n      add\n      sload\n      swap1\n      pop\n      dup6\n      jump\t// out\n        /* \"contracts/\\xe8\\x87\\xaa\\xe5\\xb7\\xb1\\xe5\\x86\\x99\\xe4\\xb8\\xaa\\xe7\\x9f\\xbf\\xe6\\xb1\\xa0,\\xe5\\xae\\x9a\\xe6\\x81\\xaf\\xe7\\x9f\\xbf\\xe6\\xb1\\xa0.sol\":908:928  address public owner */\n    tag_49:\n      0x04\n      0x00\n      swap1\n      sload\n      swap1\n      0x0100\n      exp\n      swap1\n      div\n      0xffffffffffffffffffffffffffffffffffffffff\n      and\n      dup2\n      jump\t// out\n        /* \"contracts/\\xe8\\x87\\xaa\\xe5\\xb7\\xb1\\xe5\\x86\\x99\\xe4\\xb8\\xaa\\xe7\\x9f\\xbf\\xe6\\xb1\\xa0,\\xe5\\xae\\x9a\\xe6\\x81\\xaf\\xe7\\x9f\\xbf\\xe6\\xb1\\xa0.sol\":1932:2024  function setRatio(uint _ratio) external onlyOwner {    ... */\n    tag_53:\n        /* \"contracts/\\xe8\\x87\\xaa\\xe5\\xb7\\xb1\\xe5\\x86\\x99\\xe4\\xb8\\xaa\\xe7\\x9f\\xbf\\xe6\\xb1\\xa0,\\xe5\\xae\\x9a\\xe6\\x81\\xaf\\xe7\\x9f\\xbf\\xe6\\xb1\\xa0.sol\":1781:1786  owner */\n      0x04\n      0x00\n      swap1\n      sload\n      swap1\n      0x0100\n      exp\n      swap1\n      div\n      0xffffffffffffffffffffffffffffffffffffffff\n      and\n        /* \"contracts/\\xe8\\x87\\xaa\\xe5\\xb7\\xb1\\xe5\\x86\\x99\\xe4\\xb8\\xaa\\xe7\\x9f\\xbf\\xe6\\xb1\\xa0,\\xe5\\xae\\x9a\\xe6\\x81\\xaf\\xe7\\x9f\\xbf\\xe6\\xb1\\xa0.sol\":1767:1786  msg.sender == owner */\n      0xffffffffffffffffffffffffffffffffffffffff\n      and\n        /* \"contracts/\\xe8\\x87\\xaa\\xe5\\xb7\\xb1\\xe5\\x86\\x99\\xe4\\xb8\\xaa\\xe7\\x9f\\xbf\\xe6\\xb1\\xa0,\\xe5\\xae\\x9a\\xe6\\x81\\xaf\\xe7\\x9f\\xbf\\xe6\\xb1\\xa0.sol\":1767:1777  msg.sender */\n      caller\n        /* \"contracts/\\xe8\\x87\\xaa\\xe5\\xb7\\xb1\\xe5\\x86\\x99\\xe4\\xb8\\xaa\\xe7\\x9f\\xbf\\xe6\\xb1\\xa0,\\xe5\\xae\\x9a\\xe6\\x81\\xaf\\xe7\\x9f\\xbf\\xe6\\xb1\\xa0.sol\":1767:1786  msg.sender == owner */\n      0xffffffffffffffffffffffffffffffffffffffff\n      and\n      eq\n        /* \"contracts/\\xe8\\x87\\xaa\\xe5\\xb7\\xb1\\xe5\\x86\\x99\\xe4\\xb8\\xaa\\xe7\\x9f\\xbf\\xe6\\xb1\\xa0,\\xe5\\xae\\x9a\\xe6\\x81\\xaf\\xe7\\x9f\\xbf\\xe6\\xb1\\xa0.sol\":1759:1801  require(msg.sender == owner , \"not owner\") */\n      tag_107\n      jumpi\n      mload(0x40)\n      0x08c379a000000000000000000000000000000000000000000000000000000000\n      dup2\n      mstore\n      0x04\n      add\n      tag_108\n      swap1\n      tag_109\n      jump\t// in\n    tag_108:\n      mload(0x40)\n      dup1\n      swap2\n      sub\n      swap1\n      revert\n    tag_107:\n        /* \"contracts/\\xe8\\x87\\xaa\\xe5\\xb7\\xb1\\xe5\\x86\\x99\\xe4\\xb8\\xaa\\xe7\\x9f\\xbf\\xe6\\xb1\\xa0,\\xe5\\xae\\x9a\\xe6\\x81\\xaf\\xe7\\x9f\\xbf\\xe6\\xb1\\xa0.sol\":2005:2011  _ratio */\n      dup1\n        /* \"contracts/\\xe8\\x87\\xaa\\xe5\\xb7\\xb1\\xe5\\x86\\x99\\xe4\\xb8\\xaa\\xe7\\x9f\\xbf\\xe6\\xb1\\xa0,\\xe5\\xae\\x9a\\xe6\\x81\\xaf\\xe7\\x9f\\xbf\\xe6\\xb1\\xa0.sol\":1997:2002  ratio */\n      0x00\n        /* \"contracts/\\xe8\\x87\\xaa\\xe5\\xb7\\xb1\\xe5\\x86\\x99\\xe4\\xb8\\xaa\\xe7\\x9f\\xbf\\xe6\\xb1\\xa0,\\xe5\\xae\\x9a\\xe6\\x81\\xaf\\xe7\\x9f\\xbf\\xe6\\xb1\\xa0.sol\":1997:2011  ratio = _ratio */\n      dup2\n      swap1\n      sstore\n      pop\n        /* \"contracts/\\xe8\\x87\\xaa\\xe5\\xb7\\xb1\\xe5\\x86\\x99\\xe4\\xb8\\xaa\\xe7\\x9f\\xbf\\xe6\\xb1\\xa0,\\xe5\\xae\\x9a\\xe6\\x81\\xaf\\xe7\\x9f\\xbf\\xe6\\xb1\\xa0.sol\":1932:2024  function setRatio(uint _ratio) external onlyOwner {    ... */\n      pop\n      jump\t// out\n        /* \"contracts/\\xe8\\x87\\xaa\\xe5\\xb7\\xb1\\xe5\\x86\\x99\\xe4\\xb8\\xaa\\xe7\\x9f\\xbf\\xe6\\xb1\\xa0,\\xe5\\xae\\x9a\\xe6\\x81\\xaf\\xe7\\x9f\\xbf\\xe6\\xb1\\xa0.sol\":878:901  uint public stakeSupple */\n    tag_55:\n      sload(0x03)\n      dup2\n      jump\t// out\n        /* \"contracts/\\xe8\\x87\\xaa\\xe5\\xb7\\xb1\\xe5\\x86\\x99\\xe4\\xb8\\xaa\\xe7\\x9f\\xbf\\xe6\\xb1\\xa0,\\xe5\\xae\\x9a\\xe6\\x81\\xaf\\xe7\\x9f\\xbf\\xe6\\xb1\\xa0.sol\":817:842  address public staketoken */\n    tag_58:\n      0x01\n      0x00\n      swap1\n      sload\n      swap1\n      0x0100\n      exp\n      swap1\n      div\n      0xffffffffffffffffffffffffffffffffffffffff\n      and\n      dup2\n      jump\t// out\n        /* \"#utility.yul\":7:97   */\n    tag_111:\n        /* \"#utility.yul\":41:48   */\n      0x00\n        /* \"#utility.yul\":84:89   */\n      dup2\n        /* \"#utility.yul\":77:90   */\n      iszero\n        /* \"#utility.yul\":70:91   */\n      iszero\n        /* \"#utility.yul\":59:91   */\n      swap1\n      pop\n        /* \"#utility.yul\":7:97   */\n      swap2\n      swap1\n      pop\n      jump\t// out\n        /* \"#utility.yul\":103:212   */\n    tag_112:\n        /* \"#utility.yul\":184:205   */\n      tag_135\n        /* \"#utility.yul\":199:204   */\n      dup2\n        /* \"#utility.yul\":184:205   */\n      tag_111\n      jump\t// in\n    tag_135:\n        /* \"#utility.yul\":179:182   */\n      dup3\n        /* \"#utility.yul\":172:206   */\n      mstore\n        /* \"#utility.yul\":103:212   */\n      pop\n      pop\n      jump\t// out\n        /* \"#utility.yul\":218:428   */\n    tag_19:\n        /* \"#utility.yul\":305:309   */\n      0x00\n        /* \"#utility.yul\":343:345   */\n      0x20\n        /* \"#utility.yul\":332:341   */\n      dup3\n        /* \"#utility.yul\":328:346   */\n      add\n        /* \"#utility.yul\":320:346   */\n      swap1\n      pop\n        /* \"#utility.yul\":356:421   */\n      tag_137\n        /* \"#utility.yul\":418:419   */\n      0x00\n        /* \"#utility.yul\":407:416   */\n      dup4\n        /* \"#utility.yul\":403:420   */\n      add\n        /* \"#utility.yul\":394:400   */\n      dup5\n        /* \"#utility.yul\":356:421   */\n      tag_112\n      jump\t// in\n    tag_137:\n        /* \"#utility.yul\":218:428   */\n      swap3\n      swap2\n      pop\n      pop\n      jump\t// out\n        /* \"#utility.yul\":515:632   */\n    tag_114:\n        /* \"#utility.yul\":624:625   */\n      0x00\n        /* \"#utility.yul\":621:622   */\n      dup1\n        /* \"#utility.yul\":614:626   */\n      revert\n        /* \"#utility.yul\":761:838   */\n    tag_116:\n        /* \"#utility.yul\":798:805   */\n      0x00\n        /* \"#utility.yul\":827:832   */\n      dup2\n        /* \"#utility.yul\":816:832   */\n      swap1\n      pop\n        /* \"#utility.yul\":761:838   */\n      swap2\n      swap1\n      pop\n      jump\t// out\n        /* \"#utility.yul\":844:966   */\n    tag_117:\n        /* \"#utility.yul\":917:941   */\n      tag_143\n        /* \"#utility.yul\":935:940   */\n      dup2\n        /* \"#utility.yul\":917:941   */\n      tag_116\n      jump\t// in\n    tag_143:\n        /* \"#utility.yul\":910:915   */\n      dup2\n        /* \"#utility.yul\":907:942   */\n      eq\n        /* \"#utility.yul\":897:960   */\n      tag_144\n      jumpi\n        /* \"#utility.yul\":956:957   */\n      0x00\n        /* \"#utility.yul\":953:954   */\n      dup1\n        /* \"#utility.yul\":946:958   */\n      revert\n        /* \"#utility.yul\":897:960   */\n    tag_144:\n        /* \"#utility.yul\":844:966   */\n      pop\n      jump\t// out\n        /* \"#utility.yul\":972:1111   */\n    tag_118:\n        /* \"#utility.yul\":1018:1023   */\n      0x00\n        /* \"#utility.yul\":1056:1062   */\n      dup2\n        /* \"#utility.yul\":1043:1063   */\n      calldataload\n        /* \"#utility.yul\":1034:1063   */\n      swap1\n      pop\n        /* \"#utility.yul\":1072:1105   */\n      tag_146\n        /* \"#utility.yul\":1099:1104   */\n      dup2\n        /* \"#utility.yul\":1072:1105   */\n      tag_117\n      jump\t// in\n    tag_146:\n        /* \"#utility.yul\":972:1111   */\n      swap3\n      swap2\n      pop\n      pop\n      jump\t// out\n        /* \"#utility.yul\":1117:1446   */\n    tag_22:\n        /* \"#utility.yul\":1176:1182   */\n      0x00\n        /* \"#utility.yul\":1225:1227   */\n      0x20\n        /* \"#utility.yul\":1213:1222   */\n      dup3\n        /* \"#utility.yul\":1204:1211   */\n      dup5\n        /* \"#utility.yul\":1200:1223   */\n      sub\n        /* \"#utility.yul\":1196:1228   */\n      slt\n        /* \"#utility.yul\":1193:1312   */\n      iszero\n      tag_148\n      jumpi\n        /* \"#utility.yul\":1231:1310   */\n      tag_149\n      tag_114\n      jump\t// in\n    tag_149:\n        /* \"#utility.yul\":1193:1312   */\n    tag_148:\n        /* \"#utility.yul\":1351:1352   */\n      0x00\n        /* \"#utility.yul\":1376:1429   */\n      tag_150\n        /* \"#utility.yul\":1421:1428   */\n      dup5\n        /* \"#utility.yul\":1412:1418   */\n      dup3\n        /* \"#utility.yul\":1401:1410   */\n      dup6\n        /* \"#utility.yul\":1397:1419   */\n      add\n        /* \"#utility.yul\":1376:1429   */\n      tag_118\n      jump\t// in\n    tag_150:\n        /* \"#utility.yul\":1366:1429   */\n      swap2\n      pop\n        /* \"#utility.yul\":1322:1439   */\n      pop\n        /* \"#utility.yul\":1117:1446   */\n      swap3\n      swap2\n      pop\n      pop\n      jump\t// out\n        /* \"#utility.yul\":1452:1578   */\n    tag_119:\n        /* \"#utility.yul\":1489:1496   */\n      0x00\n        /* \"#utility.yul\":1529:1571   */\n      0xffffffffffffffffffffffffffffffffffffffff\n        /* \"#utility.yul\":1522:1527   */\n      dup3\n        /* \"#utility.yul\":1518:1572   */\n      and\n        /* \"#utility.yul\":1507:1572   */\n      swap1\n      pop\n        /* \"#utility.yul\":1452:1578   */\n      swap2\n      swap1\n      pop\n      jump\t// out\n        /* \"#utility.yul\":1584:1680   */\n    tag_120:\n        /* \"#utility.yul\":1621:1628   */\n      0x00\n        /* \"#utility.yul\":1650:1674   */\n      tag_153\n        /* \"#utility.yul\":1668:1673   */\n      dup3\n        /* \"#utility.yul\":1650:1674   */\n      tag_119\n      jump\t// in\n    tag_153:\n        /* \"#utility.yul\":1639:1674   */\n      swap1\n      pop\n        /* \"#utility.yul\":1584:1680   */\n      swap2\n      swap1\n      pop\n      jump\t// out\n        /* \"#utility.yul\":1686:1804   */\n    tag_121:\n        /* \"#utility.yul\":1773:1797   */\n      tag_155\n        /* \"#utility.yul\":1791:1796   */\n      dup2\n        /* \"#utility.yul\":1773:1797   */\n      tag_120\n      jump\t// in\n    tag_155:\n        /* \"#utility.yul\":1768:1771   */\n      dup3\n        /* \"#utility.yul\":1761:1798   */\n      mstore\n        /* \"#utility.yul\":1686:1804   */\n      pop\n      pop\n      jump\t// out\n        /* \"#utility.yul\":1810:2032   */\n    tag_28:\n        /* \"#utility.yul\":1903:1907   */\n      0x00\n        /* \"#utility.yul\":1941:1943   */\n      0x20\n        /* \"#utility.yul\":1930:1939   */\n      dup3\n        /* \"#utility.yul\":1926:1944   */\n      add\n        /* \"#utility.yul\":1918:1944   */\n      swap1\n      pop\n        /* \"#utility.yul\":1954:2025   */\n      tag_157\n        /* \"#utility.yul\":2022:2023   */\n      0x00\n        /* \"#utility.yul\":2011:2020   */\n      dup4\n        /* \"#utility.yul\":2007:2024   */\n      add\n        /* \"#utility.yul\":1998:2004   */\n      dup5\n        /* \"#utility.yul\":1954:2025   */\n      tag_121\n      jump\t// in\n    tag_157:\n        /* \"#utility.yul\":1810:2032   */\n      swap3\n      swap2\n      pop\n      pop\n      jump\t// out\n        /* \"#utility.yul\":2038:2156   */\n    tag_122:\n        /* \"#utility.yul\":2125:2149   */\n      tag_159\n        /* \"#utility.yul\":2143:2148   */\n      dup2\n        /* \"#utility.yul\":2125:2149   */\n      tag_116\n      jump\t// in\n    tag_159:\n        /* \"#utility.yul\":2120:2123   */\n      dup3\n        /* \"#utility.yul\":2113:2150   */\n      mstore\n        /* \"#utility.yul\":2038:2156   */\n      pop\n      pop\n      jump\t// out\n        /* \"#utility.yul\":2162:2384   */\n    tag_35:\n        /* \"#utility.yul\":2255:2259   */\n      0x00\n        /* \"#utility.yul\":2293:2295   */\n      0x20\n        /* \"#utility.yul\":2282:2291   */\n      dup3\n        /* \"#utility.yul\":2278:2296   */\n      add\n        /* \"#utility.yul\":2270:2296   */\n      swap1\n      pop\n        /* \"#utility.yul\":2306:2377   */\n      tag_161\n        /* \"#utility.yul\":2374:2375   */\n      0x00\n        /* \"#utility.yul\":2363:2372   */\n      dup4\n        /* \"#utility.yul\":2359:2376   */\n      add\n        /* \"#utility.yul\":2350:2356   */\n      dup5\n        /* \"#utility.yul\":2306:2377   */\n      tag_122\n      jump\t// in\n    tag_161:\n        /* \"#utility.yul\":2162:2384   */\n      swap3\n      swap2\n      pop\n      pop\n      jump\t// out\n        /* \"#utility.yul\":2390:2512   */\n    tag_123:\n        /* \"#utility.yul\":2463:2487   */\n      tag_163\n        /* \"#utility.yul\":2481:2486   */\n      dup2\n        /* \"#utility.yul\":2463:2487   */\n      tag_120\n      jump\t// in\n    tag_163:\n        /* \"#utility.yul\":2456:2461   */\n      dup2\n        /* \"#utility.yul\":2453:2488   */\n      eq\n        /* \"#utility.yul\":2443:2506   */\n      tag_164\n      jumpi\n        /* \"#utility.yul\":2502:2503   */\n      0x00\n        /* \"#utility.yul\":2499:2500   */\n      dup1\n        /* \"#utility.yul\":2492:2504   */\n      revert\n        /* \"#utility.yul\":2443:2506   */\n    tag_164:\n        /* \"#utility.yul\":2390:2512   */\n      pop\n      jump\t// out\n        /* \"#utility.yul\":2518:2657   */\n    tag_124:\n        /* \"#utility.yul\":2564:2569   */\n      0x00\n        /* \"#utility.yul\":2602:2608   */\n      dup2\n        /* \"#utility.yul\":2589:2609   */\n      calldataload\n        /* \"#utility.yul\":2580:2609   */\n      swap1\n      pop\n        /* \"#utility.yul\":2618:2651   */\n      tag_166\n        /* \"#utility.yul\":2645:2650   */\n      dup2\n        /* \"#utility.yul\":2618:2651   */\n      tag_123\n      jump\t// in\n    tag_166:\n        /* \"#utility.yul\":2518:2657   */\n      swap3\n      swap2\n      pop\n      pop\n      jump\t// out\n        /* \"#utility.yul\":2663:2992   */\n    tag_44:\n        /* \"#utility.yul\":2722:2728   */\n      0x00\n        /* \"#utility.yul\":2771:2773   */\n      0x20\n        /* \"#utility.yul\":2759:2768   */\n      dup3\n        /* \"#utility.yul\":2750:2757   */\n      dup5\n        /* \"#utility.yul\":2746:2769   */\n      sub\n        /* \"#utility.yul\":2742:2774   */\n      slt\n        /* \"#utility.yul\":2739:2858   */\n      iszero\n      tag_168\n      jumpi\n        /* \"#utility.yul\":2777:2856   */\n      tag_169\n      tag_114\n      jump\t// in\n    tag_169:\n        /* \"#utility.yul\":2739:2858   */\n    tag_168:\n        /* \"#utility.yul\":2897:2898   */\n      0x00\n        /* \"#utility.yul\":2922:2975   */\n      tag_170\n        /* \"#utility.yul\":2967:2974   */\n      dup5\n        /* \"#utility.yul\":2958:2964   */\n      dup3\n        /* \"#utility.yul\":2947:2956   */\n      dup6\n        /* \"#utility.yul\":2943:2965   */\n      add\n        /* \"#utility.yul\":2922:2975   */\n      tag_124\n      jump\t// in\n    tag_170:\n        /* \"#utility.yul\":2912:2975   */\n      swap2\n      pop\n        /* \"#utility.yul\":2868:2985   */\n      pop\n        /* \"#utility.yul\":2663:2992   */\n      swap3\n      swap2\n      pop\n      pop\n      jump\t// out\n        /* \"#utility.yul\":2998:3662   */\n    tag_47:\n        /* \"#utility.yul\":3203:3207   */\n      0x00\n        /* \"#utility.yul\":3241:3244   */\n      0xa0\n        /* \"#utility.yul\":3230:3239   */\n      dup3\n        /* \"#utility.yul\":3226:3245   */\n      add\n        /* \"#utility.yul\":3218:3245   */\n      swap1\n      pop\n        /* \"#utility.yul\":3255:3326   */\n      tag_172\n        /* \"#utility.yul\":3323:3324   */\n      0x00\n        /* \"#utility.yul\":3312:3321   */\n      dup4\n        /* \"#utility.yul\":3308:3325   */\n      add\n        /* \"#utility.yul\":3299:3305   */\n      dup9\n        /* \"#utility.yul\":3255:3326   */\n      tag_122\n      jump\t// in\n    tag_172:\n        /* \"#utility.yul\":3336:3408   */\n      tag_173\n        /* \"#utility.yul\":3404:3406   */\n      0x20\n        /* \"#utility.yul\":3393:3402   */\n      dup4\n        /* \"#utility.yul\":3389:3407   */\n      add\n        /* \"#utility.yul\":3380:3386   */\n      dup8\n        /* \"#utility.yul\":3336:3408   */\n      tag_122\n      jump\t// in\n    tag_173:\n        /* \"#utility.yul\":3418:3490   */\n      tag_174\n        /* \"#utility.yul\":3486:3488   */\n      0x40\n        /* \"#utility.yul\":3475:3484   */\n      dup4\n        /* \"#utility.yul\":3471:3489   */\n      add\n        /* \"#utility.yul\":3462:3468   */\n      dup7\n        /* \"#utility.yul\":3418:3490   */\n      tag_122\n      jump\t// in\n    tag_174:\n        /* \"#utility.yul\":3500:3572   */\n      tag_175\n        /* \"#utility.yul\":3568:3570   */\n      0x60\n        /* \"#utility.yul\":3557:3566   */\n      dup4\n        /* \"#utility.yul\":3553:3571   */\n      add\n        /* \"#utility.yul\":3544:3550   */\n      dup6\n        /* \"#utility.yul\":3500:3572   */\n      tag_122\n      jump\t// in\n    tag_175:\n        /* \"#utility.yul\":3582:3655   */\n      tag_176\n        /* \"#utility.yul\":3650:3653   */\n      0x80\n        /* \"#utility.yul\":3639:3648   */\n      dup4\n        /* \"#utility.yul\":3635:3654   */\n      add\n        /* \"#utility.yul\":3626:3632   */\n      dup5\n        /* \"#utility.yul\":3582:3655   */\n      tag_122\n      jump\t// in\n    tag_176:\n        /* \"#utility.yul\":2998:3662   */\n      swap7\n      swap6\n      pop\n      pop\n      pop\n      pop\n      pop\n      pop\n      jump\t// out\n        /* \"#utility.yul\":3668:4000   */\n    tag_62:\n        /* \"#utility.yul\":3789:3793   */\n      0x00\n        /* \"#utility.yul\":3827:3829   */\n      0x40\n        /* \"#utility.yul\":3816:3825   */\n      dup3\n        /* \"#utility.yul\":3812:3830   */\n      add\n        /* \"#utility.yul\":3804:3830   */\n      swap1\n      pop\n        /* \"#utility.yul\":3840:3911   */\n      tag_178\n        /* \"#utility.yul\":3908:3909   */\n      0x00\n        /* \"#utility.yul\":3897:3906   */\n      dup4\n        /* \"#utility.yul\":3893:3910   */\n      add\n        /* \"#utility.yul\":3884:3890   */\n      dup6\n        /* \"#utility.yul\":3840:3911   */\n      tag_121\n      jump\t// in\n    tag_178:\n        /* \"#utility.yul\":3921:3993   */\n      tag_179\n        /* \"#utility.yul\":3989:3991   */\n      0x20\n        /* \"#utility.yul\":3978:3987   */\n      dup4\n        /* \"#utility.yul\":3974:3992   */\n      add\n        /* \"#utility.yul\":3965:3971   */\n      dup5\n        /* \"#utility.yul\":3921:3993   */\n      tag_122\n      jump\t// in\n    tag_179:\n        /* \"#utility.yul\":3668:4000   */\n      swap4\n      swap3\n      pop\n      pop\n      pop\n      jump\t// out\n        /* \"#utility.yul\":4006:4122   */\n    tag_125:\n        /* \"#utility.yul\":4076:4097   */\n      tag_181\n        /* \"#utility.yul\":4091:4096   */\n      dup2\n        /* \"#utility.yul\":4076:4097   */\n      tag_111\n      jump\t// in\n    tag_181:\n        /* \"#utility.yul\":4069:4074   */\n      dup2\n        /* \"#utility.yul\":4066:4098   */\n      eq\n        /* \"#utility.yul\":4056:4116   */\n      tag_182\n      jumpi\n        /* \"#utility.yul\":4112:4113   */\n      0x00\n        /* \"#utility.yul\":4109:4110   */\n      dup1\n        /* \"#utility.yul\":4102:4114   */\n      revert\n        /* \"#utility.yul\":4056:4116   */\n    tag_182:\n        /* \"#utility.yul\":4006:4122   */\n      pop\n      jump\t// out\n        /* \"#utility.yul\":4128:4265   */\n    tag_126:\n        /* \"#utility.yul\":4182:4187   */\n      0x00\n        /* \"#utility.yul\":4213:4219   */\n      dup2\n        /* \"#utility.yul\":4207:4220   */\n      mload\n        /* \"#utility.yul\":4198:4220   */\n      swap1\n      pop\n        /* \"#utility.yul\":4229:4259   */\n      tag_184\n        /* \"#utility.yul\":4253:4258   */\n      dup2\n        /* \"#utility.yul\":4229:4259   */\n      tag_125\n      jump\t// in\n    tag_184:\n        /* \"#utility.yul\":4128:4265   */\n      swap3\n      swap2\n      pop\n      pop\n      jump\t// out\n        /* \"#utility.yul\":4271:4616   */\n    tag_66:\n        /* \"#utility.yul\":4338:4344   */\n      0x00\n        /* \"#utility.yul\":4387:4389   */\n      0x20\n        /* \"#utility.yul\":4375:4384   */\n      dup3\n        /* \"#utility.yul\":4366:4373   */\n      dup5\n        /* \"#utility.yul\":4362:4385   */\n      sub\n        /* \"#utility.yul\":4358:4390   */\n      slt\n        /* \"#utility.yul\":4355:4474   */\n      iszero\n      tag_186\n      jumpi\n        /* \"#utility.yul\":4393:4472   */\n      tag_187\n      tag_114\n      jump\t// in\n    tag_187:\n        /* \"#utility.yul\":4355:4474   */\n    tag_186:\n        /* \"#utility.yul\":4513:4514   */\n      0x00\n        /* \"#utility.yul\":4538:4599   */\n      tag_188\n        /* \"#utility.yul\":4591:4598   */\n      dup5\n        /* \"#utility.yul\":4582:4588   */\n      dup3\n        /* \"#utility.yul\":4571:4580   */\n      dup6\n        /* \"#utility.yul\":4567:4589   */\n      add\n        /* \"#utility.yul\":4538:4599   */\n      tag_126\n      jump\t// in\n    tag_188:\n        /* \"#utility.yul\":4528:4599   */\n      swap2\n      pop\n        /* \"#utility.yul\":4484:4609   */\n      pop\n        /* \"#utility.yul\":4271:4616   */\n      swap3\n      swap2\n      pop\n      pop\n      jump\t// out\n        /* \"#utility.yul\":4622:4802   */\n    tag_127:\n        /* \"#utility.yul\":4670:4747   */\n      0x4e487b7100000000000000000000000000000000000000000000000000000000\n        /* \"#utility.yul\":4667:4668   */\n      0x00\n        /* \"#utility.yul\":4660:4748   */\n      mstore\n        /* \"#utility.yul\":4767:4771   */\n      0x11\n        /* \"#utility.yul\":4764:4765   */\n      0x04\n        /* \"#utility.yul\":4757:4772   */\n      mstore\n        /* \"#utility.yul\":4791:4795   */\n      0x24\n        /* \"#utility.yul\":4788:4789   */\n      0x00\n        /* \"#utility.yul\":4781:4796   */\n      revert\n        /* \"#utility.yul\":4808:4999   */\n    tag_69:\n        /* \"#utility.yul\":4848:4852   */\n      0x00\n        /* \"#utility.yul\":4868:4888   */\n      tag_191\n        /* \"#utility.yul\":4886:4887   */\n      dup3\n        /* \"#utility.yul\":4868:4888   */\n      tag_116\n      jump\t// in\n    tag_191:\n        /* \"#utility.yul\":4863:4888   */\n      swap2\n      pop\n        /* \"#utility.yul\":4902:4922   */\n      tag_192\n        /* \"#utility.yul\":4920:4921   */\n      dup4\n        /* \"#utility.yul\":4902:4922   */\n      tag_116\n      jump\t// in\n    tag_192:\n        /* \"#utility.yul\":4897:4922   */\n      swap3\n      pop\n        /* \"#utility.yul\":4941:4942   */\n      dup3\n        /* \"#utility.yul\":4938:4939   */\n      dup3\n        /* \"#utility.yul\":4935:4943   */\n      lt\n        /* \"#utility.yul\":4932:4966   */\n      iszero\n      tag_193\n      jumpi\n        /* \"#utility.yul\":4946:4964   */\n      tag_194\n      tag_127\n      jump\t// in\n    tag_194:\n        /* \"#utility.yul\":4932:4966   */\n    tag_193:\n        /* \"#utility.yul\":4991:4992   */\n      dup3\n        /* \"#utility.yul\":4988:4989   */\n      dup3\n        /* \"#utility.yul\":4984:4993   */\n      sub\n        /* \"#utility.yul\":4976:4993   */\n      swap1\n      pop\n        /* \"#utility.yul\":4808:4999   */\n      swap3\n      swap2\n      pop\n      pop\n      jump\t// out\n        /* \"#utility.yul\":5005:5447   */\n    tag_72:\n        /* \"#utility.yul\":5154:5158   */\n      0x00\n        /* \"#utility.yul\":5192:5194   */\n      0x60\n        /* \"#utility.yul\":5181:5190   */\n      dup3\n        /* \"#utility.yul\":5177:5195   */\n      add\n        /* \"#utility.yul\":5169:5195   */\n      swap1\n      pop\n        /* \"#utility.yul\":5205:5276   */\n      tag_196\n        /* \"#utility.yul\":5273:5274   */\n      0x00\n        /* \"#utility.yul\":5262:5271   */\n      dup4\n        /* \"#utility.yul\":5258:5275   */\n      add\n        /* \"#utility.yul\":5249:5255   */\n      dup7\n        /* \"#utility.yul\":5205:5276   */\n      tag_121\n      jump\t// in\n    tag_196:\n        /* \"#utility.yul\":5286:5358   */\n      tag_197\n        /* \"#utility.yul\":5354:5356   */\n      0x20\n        /* \"#utility.yul\":5343:5352   */\n      dup4\n        /* \"#utility.yul\":5339:5357   */\n      add\n        /* \"#utility.yul\":5330:5336   */\n      dup6\n        /* \"#utility.yul\":5286:5358   */\n      tag_121\n      jump\t// in\n    tag_197:\n        /* \"#utility.yul\":5368:5440   */\n      tag_198\n        /* \"#utility.yul\":5436:5438   */\n      0x40\n        /* \"#utility.yul\":5425:5434   */\n      dup4\n        /* \"#utility.yul\":5421:5439   */\n      add\n        /* \"#utility.yul\":5412:5418   */\n      dup5\n        /* \"#utility.yul\":5368:5440   */\n      tag_122\n      jump\t// in\n    tag_198:\n        /* \"#utility.yul\":5005:5447   */\n      swap5\n      swap4\n      pop\n      pop\n      pop\n      pop\n      jump\t// out\n        /* \"#utility.yul\":5453:5801   */\n    tag_78:\n        /* \"#utility.yul\":5493:5500   */\n      0x00\n        /* \"#utility.yul\":5516:5536   */\n      tag_200\n        /* \"#utility.yul\":5534:5535   */\n      dup3\n        /* \"#utility.yul\":5516:5536   */\n      tag_116\n      jump\t// in\n    tag_200:\n        /* \"#utility.yul\":5511:5536   */\n      swap2\n      pop\n        /* \"#utility.yul\":5550:5570   */\n      tag_201\n        /* \"#utility.yul\":5568:5569   */\n      dup4\n        /* \"#utility.yul\":5550:5570   */\n      tag_116\n      jump\t// in\n    tag_201:\n        /* \"#utility.yul\":5545:5570   */\n      swap3\n      pop\n        /* \"#utility.yul\":5738:5739   */\n      dup2\n        /* \"#utility.yul\":5670:5736   */\n      0xffffffffffffffffffffffffffffffffffffffffffffffffffffffffffffffff\n        /* \"#utility.yul\":5666:5740   */\n      div\n        /* \"#utility.yul\":5663:5664   */\n      dup4\n        /* \"#utility.yul\":5660:5741   */\n      gt\n        /* \"#utility.yul\":5655:5656   */\n      dup3\n        /* \"#utility.yul\":5648:5657   */\n      iszero\n        /* \"#utility.yul\":5641:5658   */\n      iszero\n        /* \"#utility.yul\":5637:5742   */\n      and\n        /* \"#utility.yul\":5634:5765   */\n      iszero\n      tag_202\n      jumpi\n        /* \"#utility.yul\":5745:5763   */\n      tag_203\n      tag_127\n      jump\t// in\n    tag_203:\n        /* \"#utility.yul\":5634:5765   */\n    tag_202:\n        /* \"#utility.yul\":5793:5794   */\n      dup3\n        /* \"#utility.yul\":5790:5791   */\n      dup3\n        /* \"#utility.yul\":5786:5795   */\n      mul\n        /* \"#utility.yul\":5775:5795   */\n      swap1\n      pop\n        /* \"#utility.yul\":5453:5801   */\n      swap3\n      swap2\n      pop\n      pop\n      jump\t// out\n        /* \"#utility.yul\":5807:5987   */\n    tag_128:\n        /* \"#utility.yul\":5855:5932   */\n      0x4e487b7100000000000000000000000000000000000000000000000000000000\n        /* \"#utility.yul\":5852:5853   */\n      0x00\n        /* \"#utility.yul\":5845:5933   */\n      mstore\n        /* \"#utility.yul\":5952:5956   */\n      0x12\n        /* \"#utility.yul\":5949:5950   */\n      0x04\n        /* \"#utility.yul\":5942:5957   */\n      mstore\n        /* \"#utility.yul\":5976:5980   */\n      0x24\n        /* \"#utility.yul\":5973:5974   */\n      0x00\n        /* \"#utility.yul\":5966:5981   */\n      revert\n        /* \"#utility.yul\":5993:6178   */\n    tag_80:\n        /* \"#utility.yul\":6033:6034   */\n      0x00\n        /* \"#utility.yul\":6050:6070   */\n      tag_206\n        /* \"#utility.yul\":6068:6069   */\n      dup3\n        /* \"#utility.yul\":6050:6070   */\n      tag_116\n      jump\t// in\n    tag_206:\n        /* \"#utility.yul\":6045:6070   */\n      swap2\n      pop\n        /* \"#utility.yul\":6084:6104   */\n      tag_207\n        /* \"#utility.yul\":6102:6103   */\n      dup4\n        /* \"#utility.yul\":6084:6104   */\n      tag_116\n      jump\t// in\n    tag_207:\n        /* \"#utility.yul\":6079:6104   */\n      swap3\n      pop\n        /* \"#utility.yul\":6123:6124   */\n      dup3\n        /* \"#utility.yul\":6113:6148   */\n      tag_208\n      jumpi\n        /* \"#utility.yul\":6128:6146   */\n      tag_209\n      tag_128\n      jump\t// in\n    tag_209:\n        /* \"#utility.yul\":6113:6148   */\n    tag_208:\n        /* \"#utility.yul\":6170:6171   */\n      dup3\n        /* \"#utility.yul\":6167:6168   */\n      dup3\n        /* \"#utility.yul\":6163:6172   */\n      div\n        /* \"#utility.yul\":6158:6172   */\n      swap1\n      pop\n        /* \"#utility.yul\":5993:6178   */\n      swap3\n      swap2\n      pop\n      pop\n      jump\t// out\n        /* \"#utility.yul\":6184:6489   */\n    tag_85:\n        /* \"#utility.yul\":6224:6227   */\n      0x00\n        /* \"#utility.yul\":6243:6263   */\n      tag_211\n        /* \"#utility.yul\":6261:6262   */\n      dup3\n        /* \"#utility.yul\":6243:6263   */\n      tag_116\n      jump\t// in\n    tag_211:\n        /* \"#utility.yul\":6238:6263   */\n      swap2\n      pop\n        /* \"#utility.yul\":6277:6297   */\n      tag_212\n        /* \"#utility.yul\":6295:6296   */\n      dup4\n        /* \"#utility.yul\":6277:6297   */\n      tag_116\n      jump\t// in\n    tag_212:\n        /* \"#utility.yul\":6272:6297   */\n      swap3\n      pop\n        /* \"#utility.yul\":6431:6432   */\n      dup3\n        /* \"#utility.yul\":6363:6429   */\n      0xffffffffffffffffffffffffffffffffffffffffffffffffffffffffffffffff\n        /* \"#utility.yul\":6359:6433   */\n      sub\n        /* \"#utility.yul\":6356:6357   */\n      dup3\n        /* \"#utility.yul\":6353:6434   */\n      gt\n        /* \"#utility.yul\":6350:6457   */\n      iszero\n      tag_213\n      jumpi\n        /* \"#utility.yul\":6437:6455   */\n      tag_214\n      tag_127\n      jump\t// in\n    tag_214:\n        /* \"#utility.yul\":6350:6457   */\n    tag_213:\n        /* \"#utility.yul\":6481:6482   */\n      dup3\n        /* \"#utility.yul\":6478:6479   */\n      dup3\n        /* \"#utility.yul\":6474:6483   */\n      add\n        /* \"#utility.yul\":6467:6483   */\n      swap1\n      pop\n        /* \"#utility.yul\":6184:6489   */\n      swap3\n      swap2\n      pop\n      pop\n      jump\t// out\n        /* \"#utility.yul\":6495:6664   */\n    tag_129:\n        /* \"#utility.yul\":6579:6590   */\n      0x00\n        /* \"#utility.yul\":6613:6619   */\n      dup3\n        /* \"#utility.yul\":6608:6611   */\n      dup3\n        /* \"#utility.yul\":6601:6620   */\n      mstore\n        /* \"#utility.yul\":6653:6657   */\n      0x20\n        /* \"#utility.yul\":6648:6651   */\n      dup3\n        /* \"#utility.yul\":6644:6658   */\n      add\n        /* \"#utility.yul\":6629:6658   */\n      swap1\n      pop\n        /* \"#utility.yul\":6495:6664   */\n      swap3\n      swap2\n      pop\n      pop\n      jump\t// out\n        /* \"#utility.yul\":6670:6829   */\n    tag_130:\n        /* \"#utility.yul\":6810:6821   */\n      0x6e6f74206f776e65720000000000000000000000000000000000000000000000\n        /* \"#utility.yul\":6806:6807   */\n      0x00\n        /* \"#utility.yul\":6798:6804   */\n      dup3\n        /* \"#utility.yul\":6794:6808   */\n      add\n        /* \"#utility.yul\":6787:6822   */\n      mstore\n        /* \"#utility.yul\":6670:6829   */\n      pop\n      jump\t// out\n        /* \"#utility.yul\":6835:7200   */\n    tag_131:\n        /* \"#utility.yul\":6977:6980   */\n      0x00\n        /* \"#utility.yul\":6998:7064   */\n      tag_218\n        /* \"#utility.yul\":7062:7063   */\n      0x09\n        /* \"#utility.yul\":7057:7060   */\n      dup4\n        /* \"#utility.yul\":6998:7064   */\n      tag_129\n      jump\t// in\n    tag_218:\n        /* \"#utility.yul\":6991:7064   */\n      swap2\n      pop\n        /* \"#utility.yul\":7073:7166   */\n      tag_219\n        /* \"#utility.yul\":7162:7165   */\n      dup3\n        /* \"#utility.yul\":7073:7166   */\n      tag_130\n      jump\t// in\n    tag_219:\n        /* \"#utility.yul\":7191:7193   */\n      0x20\n        /* \"#utility.yul\":7186:7189   */\n      dup3\n        /* \"#utility.yul\":7182:7194   */\n      add\n        /* \"#utility.yul\":7175:7194   */\n      swap1\n      pop\n        /* \"#utility.yul\":6835:7200   */\n      swap2\n      swap1\n      pop\n      jump\t// out\n        /* \"#utility.yul\":7206:7625   */\n    tag_109:\n        /* \"#utility.yul\":7372:7376   */\n      0x00\n        /* \"#utility.yul\":7410:7412   */\n      0x20\n        /* \"#utility.yul\":7399:7408   */\n      dup3\n        /* \"#utility.yul\":7395:7413   */\n      add\n        /* \"#utility.yul\":7387:7413   */\n      swap1\n      pop\n        /* \"#utility.yul\":7459:7468   */\n      dup2\n        /* \"#utility.yul\":7453:7457   */\n      dup2\n        /* \"#utility.yul\":7449:7469   */\n      sub\n        /* \"#utility.yul\":7445:7446   */\n      0x00\n        /* \"#utility.yul\":7434:7443   */\n      dup4\n        /* \"#utility.yul\":7430:7447   */\n      add\n        /* \"#utility.yul\":7423:7470   */\n      mstore\n        /* \"#utility.yul\":7487:7618   */\n      tag_221\n        /* \"#utility.yul\":7613:7617   */\n      dup2\n        /* \"#utility.yul\":7487:7618   */\n      tag_131\n      jump\t// in\n    tag_221:\n        /* \"#utility.yul\":7479:7618   */\n      swap1\n      pop\n        /* \"#utility.yul\":7206:7625   */\n      swap2\n      swap1\n      pop\n      jump\t// out\n\n    auxdata: 0xa2646970667358221220c49ff391cd994c68aa4379a7ef3627362854786d4078c8243d5ca32f6e45a8b364736f6c634300080f0033\n}\n",
				"bytecode": {
					"linkReferences": {},
					"object": "60806040523480156200001157600080fd5b506040516200169b3803806200169b8339818101604052810190620000379190620002c1565b33600460006101000a81548173ffffffffffffffffffffffffffffffffffffffff021916908373ffffffffffffffffffffffffffffffffffffffff160217905550600073ffffffffffffffffffffffffffffffffffffffff168273ffffffffffffffffffffffffffffffffffffffff1603620000ea576040517f08c379a0000000000000000000000000000000000000000000000000000000008152600401620000e19062000369565b60405180910390fd5b600073ffffffffffffffffffffffffffffffffffffffff168173ffffffffffffffffffffffffffffffffffffffff16036200015c576040517f08c379a0000000000000000000000000000000000000000000000000000000008152600401620001539062000369565b60405180910390fd5b8073ffffffffffffffffffffffffffffffffffffffff168273ffffffffffffffffffffffffffffffffffffffff1614620001cd576040517f08c379a0000000000000000000000000000000000000000000000000000000008152600401620001c490620003db565b60405180910390fd5b81600160006101000a81548173ffffffffffffffffffffffffffffffffffffffff021916908373ffffffffffffffffffffffffffffffffffffffff16021790555080600260006101000a81548173ffffffffffffffffffffffffffffffffffffffff021916908373ffffffffffffffffffffffffffffffffffffffff1602179055505050620003fd565b600080fd5b600073ffffffffffffffffffffffffffffffffffffffff82169050919050565b600062000289826200025c565b9050919050565b6200029b816200027c565b8114620002a757600080fd5b50565b600081519050620002bb8162000290565b92915050565b60008060408385031215620002db57620002da62000257565b5b6000620002eb85828601620002aa565b9250506020620002fe85828601620002aa565b9150509250929050565b600082825260208201905092915050565b7f4e4f542c53203058204144445245535300000000000000000000000000000000600082015250565b60006200035160108362000308565b91506200035e8262000319565b602082019050919050565b60006020820190508181036000830152620003848162000342565b9050919050565b7f4e4545442061677265656d656e74000000000000000000000000000000000000600082015250565b6000620003c3600e8362000308565b9150620003d0826200038b565b602082019050919050565b60006020820190508181036000830152620003f681620003b4565b9050919050565b61128e806200040d6000396000f3fe608060405234801561001057600080fd5b50600436106100b45760003560e01c806371ca337d1161007157806371ca337d1461017f5780638c93ecff1461019d5780638da5cb5b146101d1578063b2237ba3146101ef578063d942727f1461020b578063dab2997b14610229576100b4565b80630fdb1c10146100b9578063227a473b146100d75780632c46502d146101075780634641257d14610125578063529aca49146101435780635e9f443514610161575b600080fd5b6100c1610247565b6040516100ce9190610dfa565b60405180910390f35b6100f160048036038101906100ec9190610e50565b610466565b6040516100fe9190610dfa565b60405180910390f35b61010f6107c4565b60405161011c9190610ebe565b60405180910390f35b61012d6107ea565b60405161013a9190610dfa565b60405180910390f35b61014b610b93565b6040516101589190610ee8565b60405180910390f35b610169610c68565b6040516101769190610ee8565b60405180910390f35b610187610cb7565b6040516101949190610ee8565b60405180910390f35b6101b760048036038101906101b29190610f2f565b610cbd565b6040516101c8959493929190610f5c565b60405180910390f35b6101d9610cf3565b6040516101e69190610ebe565b60405180910390f35b61020960048036038101906102049190610e50565b610d19565b005b610213610db3565b6040516102209190610ee8565b60405180910390f35b610231610db9565b60405161023e9190610ebe565b60405180910390f35b6000600160009054906101000a900473ffffffffffffffffffffffffffffffffffffffff1673ffffffffffffffffffffffffffffffffffffffff1663a9059cbb33600560003373ffffffffffffffffffffffffffffffffffffffff1673ffffffffffffffffffffffffffffffffffffffff168152602001908152602001600020600001546040518363ffffffff1660e01b81526004016102e8929190610faf565b6020604051808303816000875af1158015610307573d6000803e3d6000fd5b505050506040513d601f19601f8201168201806040525081019061032b9190611004565b503373ffffffffffffffffffffffffffffffffffffffff167fa9059cbb2ab09eb219583f4a59a5d0623ade346d962bcd4e46b11da047c9049b600560003373ffffffffffffffffffffffffffffffffffffffff1673ffffffffffffffffffffffffffffffffffffffff168152602001908152602001600020600001546040516103b49190610ee8565b60405180910390a2600560003373ffffffffffffffffffffffffffffffffffffffff1673ffffffffffffffffffffffffffffffffffffffff16815260200190815260200160002060000154600360008282546104109190611060565b925050819055506000600560003373ffffffffffffffffffffffffffffffffffffffff1673ffffffffffffffffffffffffffffffffffffffff168152602001908152602001600020600001819055506001905090565b6000600160009054906101000a900473ffffffffffffffffffffffffffffffffffffffff1673ffffffffffffffffffffffffffffffffffffffff166323b872dd3330856040518463ffffffff1660e01b81526004016104c793929190611094565b6020604051808303816000875af11580156104e6573d6000803e3d6000fd5b505050506040513d601f19601f8201168201806040525081019061050a9190611004565b503073ffffffffffffffffffffffffffffffffffffffff163373ffffffffffffffffffffffffffffffffffffffff167f1fd6ebb971d137acf3f01670862b8a96758cfc7e39dccb093e68daf461b0262c846040516105689190610ee8565b60405180910390a36301e133806064600054600560003373ffffffffffffffffffffffffffffffffffffffff1673ffffffffffffffffffffffffffffffffffffffff168152602001908152602001600020600001546105c791906110cb565b6105d19190611154565b6105db9190611154565b600560003373ffffffffffffffffffffffffffffffffffffffff1673ffffffffffffffffffffffffffffffffffffffff16815260200190815260200160002060010154426106299190611060565b61063391906110cb565b600560003373ffffffffffffffffffffffffffffffffffffffff1673ffffffffffffffffffffffffffffffffffffffff1681526020019081526020016000206002018190555081600560003373ffffffffffffffffffffffffffffffffffffffff1673ffffffffffffffffffffffffffffffffffffffff16815260200190815260200160002060000160008282546106cb9190611185565b9250508190555042600560003373ffffffffffffffffffffffffffffffffffffffff1673ffffffffffffffffffffffffffffffffffffffff16815260200190815260200160002060010181905550816003600082825461072b9190611185565b92505081905550600560003373ffffffffffffffffffffffffffffffffffffffff1673ffffffffffffffffffffffffffffffffffffffff16815260200190815260200160002060010154600560003373ffffffffffffffffffffffffffffffffffffffff1673ffffffffffffffffffffffffffffffffffffffff1681526020019081526020016000206004018190555060019050919050565b600260009054906101000a900473ffffffffffffffffffffffffffffffffffffffff1681565b60006301e133806064600054600560003373ffffffffffffffffffffffffffffffffffffffff1673ffffffffffffffffffffffffffffffffffffffff1681526020019081526020016000206000015461084391906110cb565b61084d9190611154565b6108579190611154565b600560003373ffffffffffffffffffffffffffffffffffffffff1673ffffffffffffffffffffffffffffffffffffffff16815260200190815260200160002060010154426108a59190611060565b6108af91906110cb565b600560003373ffffffffffffffffffffffffffffffffffffffff1673ffffffffffffffffffffffffffffffffffffffff168152602001908152602001600020600201546108fc9190611185565b600560003373ffffffffffffffffffffffffffffffffffffffff1673ffffffffffffffffffffffffffffffffffffffff16815260200190815260200160002060030181905550600260009054906101000a900473ffffffffffffffffffffffffffffffffffffffff1673ffffffffffffffffffffffffffffffffffffffff1663a9059cbb33600560003373ffffffffffffffffffffffffffffffffffffffff1673ffffffffffffffffffffffffffffffffffffffff168152602001908152602001600020600301546040518363ffffffff1660e01b81526004016109e1929190610faf565b6020604051808303816000875af1158015610a00573d6000803e3d6000fd5b505050506040513d601f19601f82011682018060405250810190610a249190611004565b503373ffffffffffffffffffffffffffffffffffffffff167fa9059cbb2ab09eb219583f4a59a5d0623ade346d962bcd4e46b11da047c9049b600560003373ffffffffffffffffffffffffffffffffffffffff1673ffffffffffffffffffffffffffffffffffffffff16815260200190815260200160002060030154604051610aad9190610ee8565b60405180910390a26000600560003373ffffffffffffffffffffffffffffffffffffffff1673ffffffffffffffffffffffffffffffffffffffff168152602001908152602001600020600301819055506000600560003373ffffffffffffffffffffffffffffffffffffffff1673ffffffffffffffffffffffffffffffffffffffff1681526020019081526020016000206002018190555042600560003373ffffffffffffffffffffffffffffffffffffffff1673ffffffffffffffffffffffffffffffffffffffff168152602001908152602001600020600401819055506001905090565b600080600560003373ffffffffffffffffffffffffffffffffffffffff1673ffffffffffffffffffffffffffffffffffffffff1681526020019081526020016000206004015442610be49190611060565b905060006301e133806064600054600560003373ffffffffffffffffffffffffffffffffffffffff1673ffffffffffffffffffffffffffffffffffffffff16815260200190815260200160002060000154610c3f91906110cb565b610c499190611154565b610c539190611154565b82610c5e91906110cb565b9050809250505090565b600080600560003373ffffffffffffffffffffffffffffffffffffffff1673ffffffffffffffffffffffffffffffffffffffff1681526020019081526020016000206002015490508091505090565b60005481565b60056020528060005260406000206000915090508060000154908060010154908060020154908060030154908060040154905085565b600460009054906101000a900473ffffffffffffffffffffffffffffffffffffffff1681565b600460009054906101000a900473ffffffffffffffffffffffffffffffffffffffff1673ffffffffffffffffffffffffffffffffffffffff163373ffffffffffffffffffffffffffffffffffffffff1614610da9576040517f08c379a0000000000000000000000000000000000000000000000000000000008152600401610da090611238565b60405180910390fd5b8060008190555050565b60035481565b600160009054906101000a900473ffffffffffffffffffffffffffffffffffffffff1681565b60008115159050919050565b610df481610ddf565b82525050565b6000602082019050610e0f6000830184610deb565b92915050565b600080fd5b6000819050919050565b610e2d81610e1a565b8114610e3857600080fd5b50565b600081359050610e4a81610e24565b92915050565b600060208284031215610e6657610e65610e15565b5b6000610e7484828501610e3b565b91505092915050565b600073ffffffffffffffffffffffffffffffffffffffff82169050919050565b6000610ea882610e7d565b9050919050565b610eb881610e9d565b82525050565b6000602082019050610ed36000830184610eaf565b92915050565b610ee281610e1a565b82525050565b6000602082019050610efd6000830184610ed9565b92915050565b610f0c81610e9d565b8114610f1757600080fd5b50565b600081359050610f2981610f03565b92915050565b600060208284031215610f4557610f44610e15565b5b6000610f5384828501610f1a565b91505092915050565b600060a082019050610f716000830188610ed9565b610f7e6020830187610ed9565b610f8b6040830186610ed9565b610f986060830185610ed9565b610fa56080830184610ed9565b9695505050505050565b6000604082019050610fc46000830185610eaf565b610fd16020830184610ed9565b9392505050565b610fe181610ddf565b8114610fec57600080fd5b50565b600081519050610ffe81610fd8565b92915050565b60006020828403121561101a57611019610e15565b5b600061102884828501610fef565b91505092915050565b7f4e487b7100000000000000000000000000000000000000000000000000000000600052601160045260246000fd5b600061106b82610e1a565b915061107683610e1a565b92508282101561108957611088611031565b5b828203905092915050565b60006060820190506110a96000830186610eaf565b6110b66020830185610eaf565b6110c36040830184610ed9565b949350505050565b60006110d682610e1a565b91506110e183610e1a565b9250817fffffffffffffffffffffffffffffffffffffffffffffffffffffffffffffffff048311821515161561111a57611119611031565b5b828202905092915050565b7f4e487b7100000000000000000000000000000000000000000000000000000000600052601260045260246000fd5b600061115f82610e1a565b915061116a83610e1a565b92508261117a57611179611125565b5b828204905092915050565b600061119082610e1a565b915061119b83610e1a565b9250827fffffffffffffffffffffffffffffffffffffffffffffffffffffffffffffffff038211156111d0576111cf611031565b5b828201905092915050565b600082825260208201905092915050565b7f6e6f74206f776e65720000000000000000000000000000000000000000000000600082015250565b60006112226009836111db565b915061122d826111ec565b602082019050919050565b6000602082019050818103600083015261125181611215565b905091905056fea2646970667358221220c49ff391cd994c68aa4379a7ef3627362854786d4078c8243d5ca32f6e45a8b364736f6c634300080f0033",
					"opcodes": "PUSH1 0x80 PUSH1 0x40 MSTORE CALLVALUE DUP1 ISZERO PUSH3 0x11 JUMPI PUSH1 0x0 DUP1 REVERT JUMPDEST POP PUSH1 0x40 MLOAD PUSH3 0x169B CODESIZE SUB DUP1 PUSH3 0x169B DUP4 CODECOPY DUP2 DUP2 ADD PUSH1 0x40 MSTORE DUP2 ADD SWAP1 PUSH3 0x37 SWAP2 SWAP1 PUSH3 0x2C1 JUMP JUMPDEST CALLER PUSH1 0x4 PUSH1 0x0 PUSH2 0x100 EXP DUP2 SLOAD DUP2 PUSH20 0xFFFFFFFFFFFFFFFFFFFFFFFFFFFFFFFFFFFFFFFF MUL NOT AND SWAP1 DUP4 PUSH20 0xFFFFFFFFFFFFFFFFFFFFFFFFFFFFFFFFFFFFFFFF AND MUL OR SWAP1 SSTORE POP PUSH1 0x0 PUSH20 0xFFFFFFFFFFFFFFFFFFFFFFFFFFFFFFFFFFFFFFFF AND DUP3 PUSH20 0xFFFFFFFFFFFFFFFFFFFFFFFFFFFFFFFFFFFFFFFF AND SUB PUSH3 0xEA JUMPI PUSH1 0x40 MLOAD PUSH32 0x8C379A000000000000000000000000000000000000000000000000000000000 DUP2 MSTORE PUSH1 0x4 ADD PUSH3 0xE1 SWAP1 PUSH3 0x369 JUMP JUMPDEST PUSH1 0x40 MLOAD DUP1 SWAP2 SUB SWAP1 REVERT JUMPDEST PUSH1 0x0 PUSH20 0xFFFFFFFFFFFFFFFFFFFFFFFFFFFFFFFFFFFFFFFF AND DUP2 PUSH20 0xFFFFFFFFFFFFFFFFFFFFFFFFFFFFFFFFFFFFFFFF AND SUB PUSH3 0x15C JUMPI PUSH1 0x40 MLOAD PUSH32 0x8C379A000000000000000000000000000000000000000000000000000000000 DUP2 MSTORE PUSH1 0x4 ADD PUSH3 0x153 SWAP1 PUSH3 0x369 JUMP JUMPDEST PUSH1 0x40 MLOAD DUP1 SWAP2 SUB SWAP1 REVERT JUMPDEST DUP1 PUSH20 0xFFFFFFFFFFFFFFFFFFFFFFFFFFFFFFFFFFFFFFFF AND DUP3 PUSH20 0xFFFFFFFFFFFFFFFFFFFFFFFFFFFFFFFFFFFFFFFF AND EQ PUSH3 0x1CD JUMPI PUSH1 0x40 MLOAD PUSH32 0x8C379A000000000000000000000000000000000000000000000000000000000 DUP2 MSTORE PUSH1 0x4 ADD PUSH3 0x1C4 SWAP1 PUSH3 0x3DB JUMP JUMPDEST PUSH1 0x40 MLOAD DUP1 SWAP2 SUB SWAP1 REVERT JUMPDEST DUP2 PUSH1 0x1 PUSH1 0x0 PUSH2 0x100 EXP DUP2 SLOAD DUP2 PUSH20 0xFFFFFFFFFFFFFFFFFFFFFFFFFFFFFFFFFFFFFFFF MUL NOT AND SWAP1 DUP4 PUSH20 0xFFFFFFFFFFFFFFFFFFFFFFFFFFFFFFFFFFFFFFFF AND MUL OR SWAP1 SSTORE POP DUP1 PUSH1 0x2 PUSH1 0x0 PUSH2 0x100 EXP DUP2 SLOAD DUP2 PUSH20 0xFFFFFFFFFFFFFFFFFFFFFFFFFFFFFFFFFFFFFFFF MUL NOT AND SWAP1 DUP4 PUSH20 0xFFFFFFFFFFFFFFFFFFFFFFFFFFFFFFFFFFFFFFFF AND MUL OR SWAP1 SSTORE POP POP POP PUSH3 0x3FD JUMP JUMPDEST PUSH1 0x0 DUP1 REVERT JUMPDEST PUSH1 0x0 PUSH20 0xFFFFFFFFFFFFFFFFFFFFFFFFFFFFFFFFFFFFFFFF DUP3 AND SWAP1 POP SWAP2 SWAP1 POP JUMP JUMPDEST PUSH1 0x0 PUSH3 0x289 DUP3 PUSH3 0x25C JUMP JUMPDEST SWAP1 POP SWAP2 SWAP1 POP JUMP JUMPDEST PUSH3 0x29B DUP2 PUSH3 0x27C JUMP JUMPDEST DUP2 EQ PUSH3 0x2A7 JUMPI PUSH1 0x0 DUP1 REVERT JUMPDEST POP JUMP JUMPDEST PUSH1 0x0 DUP2 MLOAD SWAP1 POP PUSH3 0x2BB DUP2 PUSH3 0x290 JUMP JUMPDEST SWAP3 SWAP2 POP POP JUMP JUMPDEST PUSH1 0x0 DUP1 PUSH1 0x40 DUP4 DUP6 SUB SLT ISZERO PUSH3 0x2DB JUMPI PUSH3 0x2DA PUSH3 0x257 JUMP JUMPDEST JUMPDEST PUSH1 0x0 PUSH3 0x2EB DUP6 DUP3 DUP7 ADD PUSH3 0x2AA JUMP JUMPDEST SWAP3 POP POP PUSH1 0x20 PUSH3 0x2FE DUP6 DUP3 DUP7 ADD PUSH3 0x2AA JUMP JUMPDEST SWAP2 POP POP SWAP3 POP SWAP3 SWAP1 POP JUMP JUMPDEST PUSH1 0x0 DUP3 DUP3 MSTORE PUSH1 0x20 DUP3 ADD SWAP1 POP SWAP3 SWAP2 POP POP JUMP JUMPDEST PUSH32 0x4E4F542C53203058204144445245535300000000000000000000000000000000 PUSH1 0x0 DUP3 ADD MSTORE POP JUMP JUMPDEST PUSH1 0x0 PUSH3 0x351 PUSH1 0x10 DUP4 PUSH3 0x308 JUMP JUMPDEST SWAP2 POP PUSH3 0x35E DUP3 PUSH3 0x319 JUMP JUMPDEST PUSH1 0x20 DUP3 ADD SWAP1 POP SWAP2 SWAP1 POP JUMP JUMPDEST PUSH1 0x0 PUSH1 0x20 DUP3 ADD SWAP1 POP DUP2 DUP2 SUB PUSH1 0x0 DUP4 ADD MSTORE PUSH3 0x384 DUP2 PUSH3 0x342 JUMP JUMPDEST SWAP1 POP SWAP2 SWAP1 POP JUMP JUMPDEST PUSH32 0x4E4545442061677265656D656E74000000000000000000000000000000000000 PUSH1 0x0 DUP3 ADD MSTORE POP JUMP JUMPDEST PUSH1 0x0 PUSH3 0x3C3 PUSH1 0xE DUP4 PUSH3 0x308 JUMP JUMPDEST SWAP2 POP PUSH3 0x3D0 DUP3 PUSH3 0x38B JUMP JUMPDEST PUSH1 0x20 DUP3 ADD SWAP1 POP SWAP2 SWAP1 POP JUMP JUMPDEST PUSH1 0x0 PUSH1 0x20 DUP3 ADD SWAP1 POP DUP2 DUP2 SUB PUSH1 0x0 DUP4 ADD MSTORE PUSH3 0x3F6 DUP2 PUSH3 0x3B4 JUMP JUMPDEST SWAP1 POP SWAP2 SWAP1 POP JUMP JUMPDEST PUSH2 0x128E DUP1 PUSH3 0x40D PUSH1 0x0 CODECOPY PUSH1 0x0 RETURN INVALID PUSH1 0x80 PUSH1 0x40 MSTORE CALLVALUE DUP1 ISZERO PUSH2 0x10 JUMPI PUSH1 0x0 DUP1 REVERT JUMPDEST POP PUSH1 0x4 CALLDATASIZE LT PUSH2 0xB4 JUMPI PUSH1 0x0 CALLDATALOAD PUSH1 0xE0 SHR DUP1 PUSH4 0x71CA337D GT PUSH2 0x71 JUMPI DUP1 PUSH4 0x71CA337D EQ PUSH2 0x17F JUMPI DUP1 PUSH4 0x8C93ECFF EQ PUSH2 0x19D JUMPI DUP1 PUSH4 0x8DA5CB5B EQ PUSH2 0x1D1 JUMPI DUP1 PUSH4 0xB2237BA3 EQ PUSH2 0x1EF JUMPI DUP1 PUSH4 0xD942727F EQ PUSH2 0x20B JUMPI DUP1 PUSH4 0xDAB2997B EQ PUSH2 0x229 JUMPI PUSH2 0xB4 JUMP JUMPDEST DUP1 PUSH4 0xFDB1C10 EQ PUSH2 0xB9 JUMPI DUP1 PUSH4 0x227A473B EQ PUSH2 0xD7 JUMPI DUP1 PUSH4 0x2C46502D EQ PUSH2 0x107 JUMPI DUP1 PUSH4 0x4641257D EQ PUSH2 0x125 JUMPI DUP1 PUSH4 0x529ACA49 EQ PUSH2 0x143 JUMPI DUP1 PUSH4 0x5E9F4435 EQ PUSH2 0x161 JUMPI JUMPDEST PUSH1 0x0 DUP1 REVERT JUMPDEST PUSH2 0xC1 PUSH2 0x247 JUMP JUMPDEST PUSH1 0x40 MLOAD PUSH2 0xCE SWAP2 SWAP1 PUSH2 0xDFA JUMP JUMPDEST PUSH1 0x40 MLOAD DUP1 SWAP2 SUB SWAP1 RETURN JUMPDEST PUSH2 0xF1 PUSH1 0x4 DUP1 CALLDATASIZE SUB DUP2 ADD SWAP1 PUSH2 0xEC SWAP2 SWAP1 PUSH2 0xE50 JUMP JUMPDEST PUSH2 0x466 JUMP JUMPDEST PUSH1 0x40 MLOAD PUSH2 0xFE SWAP2 SWAP1 PUSH2 0xDFA JUMP JUMPDEST PUSH1 0x40 MLOAD DUP1 SWAP2 SUB SWAP1 RETURN JUMPDEST PUSH2 0x10F PUSH2 0x7C4 JUMP JUMPDEST PUSH1 0x40 MLOAD PUSH2 0x11C SWAP2 SWAP1 PUSH2 0xEBE JUMP JUMPDEST PUSH1 0x40 MLOAD DUP1 SWAP2 SUB SWAP1 RETURN JUMPDEST PUSH2 0x12D PUSH2 0x7EA JUMP JUMPDEST PUSH1 0x40 MLOAD PUSH2 0x13A SWAP2 SWAP1 PUSH2 0xDFA JUMP JUMPDEST PUSH1 0x40 MLOAD DUP1 SWAP2 SUB SWAP1 RETURN JUMPDEST PUSH2 0x14B PUSH2 0xB93 JUMP JUMPDEST PUSH1 0x40 MLOAD PUSH2 0x158 SWAP2 SWAP1 PUSH2 0xEE8 JUMP JUMPDEST PUSH1 0x40 MLOAD DUP1 SWAP2 SUB SWAP1 RETURN JUMPDEST PUSH2 0x169 PUSH2 0xC68 JUMP JUMPDEST PUSH1 0x40 MLOAD PUSH2 0x176 SWAP2 SWAP1 PUSH2 0xEE8 JUMP JUMPDEST PUSH1 0x40 MLOAD DUP1 SWAP2 SUB SWAP1 RETURN JUMPDEST PUSH2 0x187 PUSH2 0xCB7 JUMP JUMPDEST PUSH1 0x40 MLOAD PUSH2 0x194 SWAP2 SWAP1 PUSH2 0xEE8 JUMP JUMPDEST PUSH1 0x40 MLOAD DUP1 SWAP2 SUB SWAP1 RETURN JUMPDEST PUSH2 0x1B7 PUSH1 0x4 DUP1 CALLDATASIZE SUB DUP2 ADD SWAP1 PUSH2 0x1B2 SWAP2 SWAP1 PUSH2 0xF2F JUMP JUMPDEST PUSH2 0xCBD JUMP JUMPDEST PUSH1 0x40 MLOAD PUSH2 0x1C8 SWAP6 SWAP5 SWAP4 SWAP3 SWAP2 SWAP1 PUSH2 0xF5C JUMP JUMPDEST PUSH1 0x40 MLOAD DUP1 SWAP2 SUB SWAP1 RETURN JUMPDEST PUSH2 0x1D9 PUSH2 0xCF3 JUMP JUMPDEST PUSH1 0x40 MLOAD PUSH2 0x1E6 SWAP2 SWAP1 PUSH2 0xEBE JUMP JUMPDEST PUSH1 0x40 MLOAD DUP1 SWAP2 SUB SWAP1 RETURN JUMPDEST PUSH2 0x209 PUSH1 0x4 DUP1 CALLDATASIZE SUB DUP2 ADD SWAP1 PUSH2 0x204 SWAP2 SWAP1 PUSH2 0xE50 JUMP JUMPDEST PUSH2 0xD19 JUMP JUMPDEST STOP JUMPDEST PUSH2 0x213 PUSH2 0xDB3 JUMP JUMPDEST PUSH1 0x40 MLOAD PUSH2 0x220 SWAP2 SWAP1 PUSH2 0xEE8 JUMP JUMPDEST PUSH1 0x40 MLOAD DUP1 SWAP2 SUB SWAP1 RETURN JUMPDEST PUSH2 0x231 PUSH2 0xDB9 JUMP JUMPDEST PUSH1 0x40 MLOAD PUSH2 0x23E SWAP2 SWAP1 PUSH2 0xEBE JUMP JUMPDEST PUSH1 0x40 MLOAD DUP1 SWAP2 SUB SWAP1 RETURN JUMPDEST PUSH1 0x0 PUSH1 0x1 PUSH1 0x0 SWAP1 SLOAD SWAP1 PUSH2 0x100 EXP SWAP1 DIV PUSH20 0xFFFFFFFFFFFFFFFFFFFFFFFFFFFFFFFFFFFFFFFF AND PUSH20 0xFFFFFFFFFFFFFFFFFFFFFFFFFFFFFFFFFFFFFFFF AND PUSH4 0xA9059CBB CALLER PUSH1 0x5 PUSH1 0x0 CALLER PUSH20 0xFFFFFFFFFFFFFFFFFFFFFFFFFFFFFFFFFFFFFFFF AND PUSH20 0xFFFFFFFFFFFFFFFFFFFFFFFFFFFFFFFFFFFFFFFF AND DUP2 MSTORE PUSH1 0x20 ADD SWAP1 DUP2 MSTORE PUSH1 0x20 ADD PUSH1 0x0 KECCAK256 PUSH1 0x0 ADD SLOAD PUSH1 0x40 MLOAD DUP4 PUSH4 0xFFFFFFFF AND PUSH1 0xE0 SHL DUP2 MSTORE PUSH1 0x4 ADD PUSH2 0x2E8 SWAP3 SWAP2 SWAP1 PUSH2 0xFAF JUMP JUMPDEST PUSH1 0x20 PUSH1 0x40 MLOAD DUP1 DUP4 SUB DUP2 PUSH1 0x0 DUP8 GAS CALL ISZERO DUP1 ISZERO PUSH2 0x307 JUMPI RETURNDATASIZE PUSH1 0x0 DUP1 RETURNDATACOPY RETURNDATASIZE PUSH1 0x0 REVERT JUMPDEST POP POP POP POP PUSH1 0x40 MLOAD RETURNDATASIZE PUSH1 0x1F NOT PUSH1 0x1F DUP3 ADD AND DUP3 ADD DUP1 PUSH1 0x40 MSTORE POP DUP2 ADD SWAP1 PUSH2 0x32B SWAP2 SWAP1 PUSH2 0x1004 JUMP JUMPDEST POP CALLER PUSH20 0xFFFFFFFFFFFFFFFFFFFFFFFFFFFFFFFFFFFFFFFF AND PUSH32 0xA9059CBB2AB09EB219583F4A59A5D0623ADE346D962BCD4E46B11DA047C9049B PUSH1 0x5 PUSH1 0x0 CALLER PUSH20 0xFFFFFFFFFFFFFFFFFFFFFFFFFFFFFFFFFFFFFFFF AND PUSH20 0xFFFFFFFFFFFFFFFFFFFFFFFFFFFFFFFFFFFFFFFF AND DUP2 MSTORE PUSH1 0x20 ADD SWAP1 DUP2 MSTORE PUSH1 0x20 ADD PUSH1 0x0 KECCAK256 PUSH1 0x0 ADD SLOAD PUSH1 0x40 MLOAD PUSH2 0x3B4 SWAP2 SWAP1 PUSH2 0xEE8 JUMP JUMPDEST PUSH1 0x40 MLOAD DUP1 SWAP2 SUB SWAP1 LOG2 PUSH1 0x5 PUSH1 0x0 CALLER PUSH20 0xFFFFFFFFFFFFFFFFFFFFFFFFFFFFFFFFFFFFFFFF AND PUSH20 0xFFFFFFFFFFFFFFFFFFFFFFFFFFFFFFFFFFFFFFFF AND DUP2 MSTORE PUSH1 0x20 ADD SWAP1 DUP2 MSTORE PUSH1 0x20 ADD PUSH1 0x0 KECCAK256 PUSH1 0x0 ADD SLOAD PUSH1 0x3 PUSH1 0x0 DUP3 DUP3 SLOAD PUSH2 0x410 SWAP2 SWAP1 PUSH2 0x1060 JUMP JUMPDEST SWAP3 POP POP DUP2 SWAP1 SSTORE POP PUSH1 0x0 PUSH1 0x5 PUSH1 0x0 CALLER PUSH20 0xFFFFFFFFFFFFFFFFFFFFFFFFFFFFFFFFFFFFFFFF AND PUSH20 0xFFFFFFFFFFFFFFFFFFFFFFFFFFFFFFFFFFFFFFFF AND DUP2 MSTORE PUSH1 0x20 ADD SWAP1 DUP2 MSTORE PUSH1 0x20 ADD PUSH1 0x0 KECCAK256 PUSH1 0x0 ADD DUP2 SWAP1 SSTORE POP PUSH1 0x1 SWAP1 POP SWAP1 JUMP JUMPDEST PUSH1 0x0 PUSH1 0x1 PUSH1 0x0 SWAP1 SLOAD SWAP1 PUSH2 0x100 EXP SWAP1 DIV PUSH20 0xFFFFFFFFFFFFFFFFFFFFFFFFFFFFFFFFFFFFFFFF AND PUSH20 0xFFFFFFFFFFFFFFFFFFFFFFFFFFFFFFFFFFFFFFFF AND PUSH4 0x23B872DD CALLER ADDRESS DUP6 PUSH1 0x40 MLOAD DUP5 PUSH4 0xFFFFFFFF AND PUSH1 0xE0 SHL DUP2 MSTORE PUSH1 0x4 ADD PUSH2 0x4C7 SWAP4 SWAP3 SWAP2 SWAP1 PUSH2 0x1094 JUMP JUMPDEST PUSH1 0x20 PUSH1 0x40 MLOAD DUP1 DUP4 SUB DUP2 PUSH1 0x0 DUP8 GAS CALL ISZERO DUP1 ISZERO PUSH2 0x4E6 JUMPI RETURNDATASIZE PUSH1 0x0 DUP1 RETURNDATACOPY RETURNDATASIZE PUSH1 0x0 REVERT JUMPDEST POP POP POP POP PUSH1 0x40 MLOAD RETURNDATASIZE PUSH1 0x1F NOT PUSH1 0x1F DUP3 ADD AND DUP3 ADD DUP1 PUSH1 0x40 MSTORE POP DUP2 ADD SWAP1 PUSH2 0x50A SWAP2 SWAP1 PUSH2 0x1004 JUMP JUMPDEST POP ADDRESS PUSH20 0xFFFFFFFFFFFFFFFFFFFFFFFFFFFFFFFFFFFFFFFF AND CALLER PUSH20 0xFFFFFFFFFFFFFFFFFFFFFFFFFFFFFFFFFFFFFFFF AND PUSH32 0x1FD6EBB971D137ACF3F01670862B8A96758CFC7E39DCCB093E68DAF461B0262C DUP5 PUSH1 0x40 MLOAD PUSH2 0x568 SWAP2 SWAP1 PUSH2 0xEE8 JUMP JUMPDEST PUSH1 0x40 MLOAD DUP1 SWAP2 SUB SWAP1 LOG3 PUSH4 0x1E13380 PUSH1 0x64 PUSH1 0x0 SLOAD PUSH1 0x5 PUSH1 0x0 CALLER PUSH20 0xFFFFFFFFFFFFFFFFFFFFFFFFFFFFFFFFFFFFFFFF AND PUSH20 0xFFFFFFFFFFFFFFFFFFFFFFFFFFFFFFFFFFFFFFFF AND DUP2 MSTORE PUSH1 0x20 ADD SWAP1 DUP2 MSTORE PUSH1 0x20 ADD PUSH1 0x0 KECCAK256 PUSH1 0x0 ADD SLOAD PUSH2 0x5C7 SWAP2 SWAP1 PUSH2 0x10CB JUMP JUMPDEST PUSH2 0x5D1 SWAP2 SWAP1 PUSH2 0x1154 JUMP JUMPDEST PUSH2 0x5DB SWAP2 SWAP1 PUSH2 0x1154 JUMP JUMPDEST PUSH1 0x5 PUSH1 0x0 CALLER PUSH20 0xFFFFFFFFFFFFFFFFFFFFFFFFFFFFFFFFFFFFFFFF AND PUSH20 0xFFFFFFFFFFFFFFFFFFFFFFFFFFFFFFFFFFFFFFFF AND DUP2 MSTORE PUSH1 0x20 ADD SWAP1 DUP2 MSTORE PUSH1 0x20 ADD PUSH1 0x0 KECCAK256 PUSH1 0x1 ADD SLOAD TIMESTAMP PUSH2 0x629 SWAP2 SWAP1 PUSH2 0x1060 JUMP JUMPDEST PUSH2 0x633 SWAP2 SWAP1 PUSH2 0x10CB JUMP JUMPDEST PUSH1 0x5 PUSH1 0x0 CALLER PUSH20 0xFFFFFFFFFFFFFFFFFFFFFFFFFFFFFFFFFFFFFFFF AND PUSH20 0xFFFFFFFFFFFFFFFFFFFFFFFFFFFFFFFFFFFFFFFF AND DUP2 MSTORE PUSH1 0x20 ADD SWAP1 DUP2 MSTORE PUSH1 0x20 ADD PUSH1 0x0 KECCAK256 PUSH1 0x2 ADD DUP2 SWAP1 SSTORE POP DUP2 PUSH1 0x5 PUSH1 0x0 CALLER PUSH20 0xFFFFFFFFFFFFFFFFFFFFFFFFFFFFFFFFFFFFFFFF AND PUSH20 0xFFFFFFFFFFFFFFFFFFFFFFFFFFFFFFFFFFFFFFFF AND DUP2 MSTORE PUSH1 0x20 ADD SWAP1 DUP2 MSTORE PUSH1 0x20 ADD PUSH1 0x0 KECCAK256 PUSH1 0x0 ADD PUSH1 0x0 DUP3 DUP3 SLOAD PUSH2 0x6CB SWAP2 SWAP1 PUSH2 0x1185 JUMP JUMPDEST SWAP3 POP POP DUP2 SWAP1 SSTORE POP TIMESTAMP PUSH1 0x5 PUSH1 0x0 CALLER PUSH20 0xFFFFFFFFFFFFFFFFFFFFFFFFFFFFFFFFFFFFFFFF AND PUSH20 0xFFFFFFFFFFFFFFFFFFFFFFFFFFFFFFFFFFFFFFFF AND DUP2 MSTORE PUSH1 0x20 ADD SWAP1 DUP2 MSTORE PUSH1 0x20 ADD PUSH1 0x0 KECCAK256 PUSH1 0x1 ADD DUP2 SWAP1 SSTORE POP DUP2 PUSH1 0x3 PUSH1 0x0 DUP3 DUP3 SLOAD PUSH2 0x72B SWAP2 SWAP1 PUSH2 0x1185 JUMP JUMPDEST SWAP3 POP POP DUP2 SWAP1 SSTORE POP PUSH1 0x5 PUSH1 0x0 CALLER PUSH20 0xFFFFFFFFFFFFFFFFFFFFFFFFFFFFFFFFFFFFFFFF AND PUSH20 0xFFFFFFFFFFFFFFFFFFFFFFFFFFFFFFFFFFFFFFFF AND DUP2 MSTORE PUSH1 0x20 ADD SWAP1 DUP2 MSTORE PUSH1 0x20 ADD PUSH1 0x0 KECCAK256 PUSH1 0x1 ADD SLOAD PUSH1 0x5 PUSH1 0x0 CALLER PUSH20 0xFFFFFFFFFFFFFFFFFFFFFFFFFFFFFFFFFFFFFFFF AND PUSH20 0xFFFFFFFFFFFFFFFFFFFFFFFFFFFFFFFFFFFFFFFF AND DUP2 MSTORE PUSH1 0x20 ADD SWAP1 DUP2 MSTORE PUSH1 0x20 ADD PUSH1 0x0 KECCAK256 PUSH1 0x4 ADD DUP2 SWAP1 SSTORE POP PUSH1 0x1 SWAP1 POP SWAP2 SWAP1 POP JUMP JUMPDEST PUSH1 0x2 PUSH1 0x0 SWAP1 SLOAD SWAP1 PUSH2 0x100 EXP SWAP1 DIV PUSH20 0xFFFFFFFFFFFFFFFFFFFFFFFFFFFFFFFFFFFFFFFF AND DUP2 JUMP JUMPDEST PUSH1 0x0 PUSH4 0x1E13380 PUSH1 0x64 PUSH1 0x0 SLOAD PUSH1 0x5 PUSH1 0x0 CALLER PUSH20 0xFFFFFFFFFFFFFFFFFFFFFFFFFFFFFFFFFFFFFFFF AND PUSH20 0xFFFFFFFFFFFFFFFFFFFFFFFFFFFFFFFFFFFFFFFF AND DUP2 MSTORE PUSH1 0x20 ADD SWAP1 DUP2 MSTORE PUSH1 0x20 ADD PUSH1 0x0 KECCAK256 PUSH1 0x0 ADD SLOAD PUSH2 0x843 SWAP2 SWAP1 PUSH2 0x10CB JUMP JUMPDEST PUSH2 0x84D SWAP2 SWAP1 PUSH2 0x1154 JUMP JUMPDEST PUSH2 0x857 SWAP2 SWAP1 PUSH2 0x1154 JUMP JUMPDEST PUSH1 0x5 PUSH1 0x0 CALLER PUSH20 0xFFFFFFFFFFFFFFFFFFFFFFFFFFFFFFFFFFFFFFFF AND PUSH20 0xFFFFFFFFFFFFFFFFFFFFFFFFFFFFFFFFFFFFFFFF AND DUP2 MSTORE PUSH1 0x20 ADD SWAP1 DUP2 MSTORE PUSH1 0x20 ADD PUSH1 0x0 KECCAK256 PUSH1 0x1 ADD SLOAD TIMESTAMP PUSH2 0x8A5 SWAP2 SWAP1 PUSH2 0x1060 JUMP JUMPDEST PUSH2 0x8AF SWAP2 SWAP1 PUSH2 0x10CB JUMP JUMPDEST PUSH1 0x5 PUSH1 0x0 CALLER PUSH20 0xFFFFFFFFFFFFFFFFFFFFFFFFFFFFFFFFFFFFFFFF AND PUSH20 0xFFFFFFFFFFFFFFFFFFFFFFFFFFFFFFFFFFFFFFFF AND DUP2 MSTORE PUSH1 0x20 ADD SWAP1 DUP2 MSTORE PUSH1 0x20 ADD PUSH1 0x0 KECCAK256 PUSH1 0x2 ADD SLOAD PUSH2 0x8FC SWAP2 SWAP1 PUSH2 0x1185 JUMP JUMPDEST PUSH1 0x5 PUSH1 0x0 CALLER PUSH20 0xFFFFFFFFFFFFFFFFFFFFFFFFFFFFFFFFFFFFFFFF AND PUSH20 0xFFFFFFFFFFFFFFFFFFFFFFFFFFFFFFFFFFFFFFFF AND DUP2 MSTORE PUSH1 0x20 ADD SWAP1 DUP2 MSTORE PUSH1 0x20 ADD PUSH1 0x0 KECCAK256 PUSH1 0x3 ADD DUP2 SWAP1 SSTORE POP PUSH1 0x2 PUSH1 0x0 SWAP1 SLOAD SWAP1 PUSH2 0x100 EXP SWAP1 DIV PUSH20 0xFFFFFFFFFFFFFFFFFFFFFFFFFFFFFFFFFFFFFFFF AND PUSH20 0xFFFFFFFFFFFFFFFFFFFFFFFFFFFFFFFFFFFFFFFF AND PUSH4 0xA9059CBB CALLER PUSH1 0x5 PUSH1 0x0 CALLER PUSH20 0xFFFFFFFFFFFFFFFFFFFFFFFFFFFFFFFFFFFFFFFF AND PUSH20 0xFFFFFFFFFFFFFFFFFFFFFFFFFFFFFFFFFFFFFFFF AND DUP2 MSTORE PUSH1 0x20 ADD SWAP1 DUP2 MSTORE PUSH1 0x20 ADD PUSH1 0x0 KECCAK256 PUSH1 0x3 ADD SLOAD PUSH1 0x40 MLOAD DUP4 PUSH4 0xFFFFFFFF AND PUSH1 0xE0 SHL DUP2 MSTORE PUSH1 0x4 ADD PUSH2 0x9E1 SWAP3 SWAP2 SWAP1 PUSH2 0xFAF JUMP JUMPDEST PUSH1 0x20 PUSH1 0x40 MLOAD DUP1 DUP4 SUB DUP2 PUSH1 0x0 DUP8 GAS CALL ISZERO DUP1 ISZERO PUSH2 0xA00 JUMPI RETURNDATASIZE PUSH1 0x0 DUP1 RETURNDATACOPY RETURNDATASIZE PUSH1 0x0 REVERT JUMPDEST POP POP POP POP PUSH1 0x40 MLOAD RETURNDATASIZE PUSH1 0x1F NOT PUSH1 0x1F DUP3 ADD AND DUP3 ADD DUP1 PUSH1 0x40 MSTORE POP DUP2 ADD SWAP1 PUSH2 0xA24 SWAP2 SWAP1 PUSH2 0x1004 JUMP JUMPDEST POP CALLER PUSH20 0xFFFFFFFFFFFFFFFFFFFFFFFFFFFFFFFFFFFFFFFF AND PUSH32 0xA9059CBB2AB09EB219583F4A59A5D0623ADE346D962BCD4E46B11DA047C9049B PUSH1 0x5 PUSH1 0x0 CALLER PUSH20 0xFFFFFFFFFFFFFFFFFFFFFFFFFFFFFFFFFFFFFFFF AND PUSH20 0xFFFFFFFFFFFFFFFFFFFFFFFFFFFFFFFFFFFFFFFF AND DUP2 MSTORE PUSH1 0x20 ADD SWAP1 DUP2 MSTORE PUSH1 0x20 ADD PUSH1 0x0 KECCAK256 PUSH1 0x3 ADD SLOAD PUSH1 0x40 MLOAD PUSH2 0xAAD SWAP2 SWAP1 PUSH2 0xEE8 JUMP JUMPDEST PUSH1 0x40 MLOAD DUP1 SWAP2 SUB SWAP1 LOG2 PUSH1 0x0 PUSH1 0x5 PUSH1 0x0 CALLER PUSH20 0xFFFFFFFFFFFFFFFFFFFFFFFFFFFFFFFFFFFFFFFF AND PUSH20 0xFFFFFFFFFFFFFFFFFFFFFFFFFFFFFFFFFFFFFFFF AND DUP2 MSTORE PUSH1 0x20 ADD SWAP1 DUP2 MSTORE PUSH1 0x20 ADD PUSH1 0x0 KECCAK256 PUSH1 0x3 ADD DUP2 SWAP1 SSTORE POP PUSH1 0x0 PUSH1 0x5 PUSH1 0x0 CALLER PUSH20 0xFFFFFFFFFFFFFFFFFFFFFFFFFFFFFFFFFFFFFFFF AND PUSH20 0xFFFFFFFFFFFFFFFFFFFFFFFFFFFFFFFFFFFFFFFF AND DUP2 MSTORE PUSH1 0x20 ADD SWAP1 DUP2 MSTORE PUSH1 0x20 ADD PUSH1 0x0 KECCAK256 PUSH1 0x2 ADD DUP2 SWAP1 SSTORE POP TIMESTAMP PUSH1 0x5 PUSH1 0x0 CALLER PUSH20 0xFFFFFFFFFFFFFFFFFFFFFFFFFFFFFFFFFFFFFFFF AND PUSH20 0xFFFFFFFFFFFFFFFFFFFFFFFFFFFFFFFFFFFFFFFF AND DUP2 MSTORE PUSH1 0x20 ADD SWAP1 DUP2 MSTORE PUSH1 0x20 ADD PUSH1 0x0 KECCAK256 PUSH1 0x4 ADD DUP2 SWAP1 SSTORE POP PUSH1 0x1 SWAP1 POP SWAP1 JUMP JUMPDEST PUSH1 0x0 DUP1 PUSH1 0x5 PUSH1 0x0 CALLER PUSH20 0xFFFFFFFFFFFFFFFFFFFFFFFFFFFFFFFFFFFFFFFF AND PUSH20 0xFFFFFFFFFFFFFFFFFFFFFFFFFFFFFFFFFFFFFFFF AND DUP2 MSTORE PUSH1 0x20 ADD SWAP1 DUP2 MSTORE PUSH1 0x20 ADD PUSH1 0x0 KECCAK256 PUSH1 0x4 ADD SLOAD TIMESTAMP PUSH2 0xBE4 SWAP2 SWAP1 PUSH2 0x1060 JUMP JUMPDEST SWAP1 POP PUSH1 0x0 PUSH4 0x1E13380 PUSH1 0x64 PUSH1 0x0 SLOAD PUSH1 0x5 PUSH1 0x0 CALLER PUSH20 0xFFFFFFFFFFFFFFFFFFFFFFFFFFFFFFFFFFFFFFFF AND PUSH20 0xFFFFFFFFFFFFFFFFFFFFFFFFFFFFFFFFFFFFFFFF AND DUP2 MSTORE PUSH1 0x20 ADD SWAP1 DUP2 MSTORE PUSH1 0x20 ADD PUSH1 0x0 KECCAK256 PUSH1 0x0 ADD SLOAD PUSH2 0xC3F SWAP2 SWAP1 PUSH2 0x10CB JUMP JUMPDEST PUSH2 0xC49 SWAP2 SWAP1 PUSH2 0x1154 JUMP JUMPDEST PUSH2 0xC53 SWAP2 SWAP1 PUSH2 0x1154 JUMP JUMPDEST DUP3 PUSH2 0xC5E SWAP2 SWAP1 PUSH2 0x10CB JUMP JUMPDEST SWAP1 POP DUP1 SWAP3 POP POP POP SWAP1 JUMP JUMPDEST PUSH1 0x0 DUP1 PUSH1 0x5 PUSH1 0x0 CALLER PUSH20 0xFFFFFFFFFFFFFFFFFFFFFFFFFFFFFFFFFFFFFFFF AND PUSH20 0xFFFFFFFFFFFFFFFFFFFFFFFFFFFFFFFFFFFFFFFF AND DUP2 MSTORE PUSH1 0x20 ADD SWAP1 DUP2 MSTORE PUSH1 0x20 ADD PUSH1 0x0 KECCAK256 PUSH1 0x2 ADD SLOAD SWAP1 POP DUP1 SWAP2 POP POP SWAP1 JUMP JUMPDEST PUSH1 0x0 SLOAD DUP2 JUMP JUMPDEST PUSH1 0x5 PUSH1 0x20 MSTORE DUP1 PUSH1 0x0 MSTORE PUSH1 0x40 PUSH1 0x0 KECCAK256 PUSH1 0x0 SWAP2 POP SWAP1 POP DUP1 PUSH1 0x0 ADD SLOAD SWAP1 DUP1 PUSH1 0x1 ADD SLOAD SWAP1 DUP1 PUSH1 0x2 ADD SLOAD SWAP1 DUP1 PUSH1 0x3 ADD SLOAD SWAP1 DUP1 PUSH1 0x4 ADD SLOAD SWAP1 POP DUP6 JUMP JUMPDEST PUSH1 0x4 PUSH1 0x0 SWAP1 SLOAD SWAP1 PUSH2 0x100 EXP SWAP1 DIV PUSH20 0xFFFFFFFFFFFFFFFFFFFFFFFFFFFFFFFFFFFFFFFF AND DUP2 JUMP JUMPDEST PUSH1 0x4 PUSH1 0x0 SWAP1 SLOAD SWAP1 PUSH2 0x100 EXP SWAP1 DIV PUSH20 0xFFFFFFFFFFFFFFFFFFFFFFFFFFFFFFFFFFFFFFFF AND PUSH20 0xFFFFFFFFFFFFFFFFFFFFFFFFFFFFFFFFFFFFFFFF AND CALLER PUSH20 0xFFFFFFFFFFFFFFFFFFFFFFFFFFFFFFFFFFFFFFFF AND EQ PUSH2 0xDA9 JUMPI PUSH1 0x40 MLOAD PUSH32 0x8C379A000000000000000000000000000000000000000000000000000000000 DUP2 MSTORE PUSH1 0x4 ADD PUSH2 0xDA0 SWAP1 PUSH2 0x1238 JUMP JUMPDEST PUSH1 0x40 MLOAD DUP1 SWAP2 SUB SWAP1 REVERT JUMPDEST DUP1 PUSH1 0x0 DUP2 SWAP1 SSTORE POP POP JUMP JUMPDEST PUSH1 0x3 SLOAD DUP2 JUMP JUMPDEST PUSH1 0x1 PUSH1 0x0 SWAP1 SLOAD SWAP1 PUSH2 0x100 EXP SWAP1 DIV PUSH20 0xFFFFFFFFFFFFFFFFFFFFFFFFFFFFFFFFFFFFFFFF AND DUP2 JUMP JUMPDEST PUSH1 0x0 DUP2 ISZERO ISZERO SWAP1 POP SWAP2 SWAP1 POP JUMP JUMPDEST PUSH2 0xDF4 DUP2 PUSH2 0xDDF JUMP JUMPDEST DUP3 MSTORE POP POP JUMP JUMPDEST PUSH1 0x0 PUSH1 0x20 DUP3 ADD SWAP1 POP PUSH2 0xE0F PUSH1 0x0 DUP4 ADD DUP5 PUSH2 0xDEB JUMP JUMPDEST SWAP3 SWAP2 POP POP JUMP JUMPDEST PUSH1 0x0 DUP1 REVERT JUMPDEST PUSH1 0x0 DUP2 SWAP1 POP SWAP2 SWAP1 POP JUMP JUMPDEST PUSH2 0xE2D DUP2 PUSH2 0xE1A JUMP JUMPDEST DUP2 EQ PUSH2 0xE38 JUMPI PUSH1 0x0 DUP1 REVERT JUMPDEST POP JUMP JUMPDEST PUSH1 0x0 DUP2 CALLDATALOAD SWAP1 POP PUSH2 0xE4A DUP2 PUSH2 0xE24 JUMP JUMPDEST SWAP3 SWAP2 POP POP JUMP JUMPDEST PUSH1 0x0 PUSH1 0x20 DUP3 DUP5 SUB SLT ISZERO PUSH2 0xE66 JUMPI PUSH2 0xE65 PUSH2 0xE15 JUMP JUMPDEST JUMPDEST PUSH1 0x0 PUSH2 0xE74 DUP5 DUP3 DUP6 ADD PUSH2 0xE3B JUMP JUMPDEST SWAP2 POP POP SWAP3 SWAP2 POP POP JUMP JUMPDEST PUSH1 0x0 PUSH20 0xFFFFFFFFFFFFFFFFFFFFFFFFFFFFFFFFFFFFFFFF DUP3 AND SWAP1 POP SWAP2 SWAP1 POP JUMP JUMPDEST PUSH1 0x0 PUSH2 0xEA8 DUP3 PUSH2 0xE7D JUMP JUMPDEST SWAP1 POP SWAP2 SWAP1 POP JUMP JUMPDEST PUSH2 0xEB8 DUP2 PUSH2 0xE9D JUMP JUMPDEST DUP3 MSTORE POP POP JUMP JUMPDEST PUSH1 0x0 PUSH1 0x20 DUP3 ADD SWAP1 POP PUSH2 0xED3 PUSH1 0x0 DUP4 ADD DUP5 PUSH2 0xEAF JUMP JUMPDEST SWAP3 SWAP2 POP POP JUMP JUMPDEST PUSH2 0xEE2 DUP2 PUSH2 0xE1A JUMP JUMPDEST DUP3 MSTORE POP POP JUMP JUMPDEST PUSH1 0x0 PUSH1 0x20 DUP3 ADD SWAP1 POP PUSH2 0xEFD PUSH1 0x0 DUP4 ADD DUP5 PUSH2 0xED9 JUMP JUMPDEST SWAP3 SWAP2 POP POP JUMP JUMPDEST PUSH2 0xF0C DUP2 PUSH2 0xE9D JUMP JUMPDEST DUP2 EQ PUSH2 0xF17 JUMPI PUSH1 0x0 DUP1 REVERT JUMPDEST POP JUMP JUMPDEST PUSH1 0x0 DUP2 CALLDATALOAD SWAP1 POP PUSH2 0xF29 DUP2 PUSH2 0xF03 JUMP JUMPDEST SWAP3 SWAP2 POP POP JUMP JUMPDEST PUSH1 0x0 PUSH1 0x20 DUP3 DUP5 SUB SLT ISZERO PUSH2 0xF45 JUMPI PUSH2 0xF44 PUSH2 0xE15 JUMP JUMPDEST JUMPDEST PUSH1 0x0 PUSH2 0xF53 DUP5 DUP3 DUP6 ADD PUSH2 0xF1A JUMP JUMPDEST SWAP2 POP POP SWAP3 SWAP2 POP POP JUMP JUMPDEST PUSH1 0x0 PUSH1 0xA0 DUP3 ADD SWAP1 POP PUSH2 0xF71 PUSH1 0x0 DUP4 ADD DUP9 PUSH2 0xED9 JUMP JUMPDEST PUSH2 0xF7E PUSH1 0x20 DUP4 ADD DUP8 PUSH2 0xED9 JUMP JUMPDEST PUSH2 0xF8B PUSH1 0x40 DUP4 ADD DUP7 PUSH2 0xED9 JUMP JUMPDEST PUSH2 0xF98 PUSH1 0x60 DUP4 ADD DUP6 PUSH2 0xED9 JUMP JUMPDEST PUSH2 0xFA5 PUSH1 0x80 DUP4 ADD DUP5 PUSH2 0xED9 JUMP JUMPDEST SWAP7 SWAP6 POP POP POP POP POP POP JUMP JUMPDEST PUSH1 0x0 PUSH1 0x40 DUP3 ADD SWAP1 POP PUSH2 0xFC4 PUSH1 0x0 DUP4 ADD DUP6 PUSH2 0xEAF JUMP JUMPDEST PUSH2 0xFD1 PUSH1 0x20 DUP4 ADD DUP5 PUSH2 0xED9 JUMP JUMPDEST SWAP4 SWAP3 POP POP POP JUMP JUMPDEST PUSH2 0xFE1 DUP2 PUSH2 0xDDF JUMP JUMPDEST DUP2 EQ PUSH2 0xFEC JUMPI PUSH1 0x0 DUP1 REVERT JUMPDEST POP JUMP JUMPDEST PUSH1 0x0 DUP2 MLOAD SWAP1 POP PUSH2 0xFFE DUP2 PUSH2 0xFD8 JUMP JUMPDEST SWAP3 SWAP2 POP POP JUMP JUMPDEST PUSH1 0x0 PUSH1 0x20 DUP3 DUP5 SUB SLT ISZERO PUSH2 0x101A JUMPI PUSH2 0x1019 PUSH2 0xE15 JUMP JUMPDEST JUMPDEST PUSH1 0x0 PUSH2 0x1028 DUP5 DUP3 DUP6 ADD PUSH2 0xFEF JUMP JUMPDEST SWAP2 POP POP SWAP3 SWAP2 POP POP JUMP JUMPDEST PUSH32 0x4E487B7100000000000000000000000000000000000000000000000000000000 PUSH1 0x0 MSTORE PUSH1 0x11 PUSH1 0x4 MSTORE PUSH1 0x24 PUSH1 0x0 REVERT JUMPDEST PUSH1 0x0 PUSH2 0x106B DUP3 PUSH2 0xE1A JUMP JUMPDEST SWAP2 POP PUSH2 0x1076 DUP4 PUSH2 0xE1A JUMP JUMPDEST SWAP3 POP DUP3 DUP3 LT ISZERO PUSH2 0x1089 JUMPI PUSH2 0x1088 PUSH2 0x1031 JUMP JUMPDEST JUMPDEST DUP3 DUP3 SUB SWAP1 POP SWAP3 SWAP2 POP POP JUMP JUMPDEST PUSH1 0x0 PUSH1 0x60 DUP3 ADD SWAP1 POP PUSH2 0x10A9 PUSH1 0x0 DUP4 ADD DUP7 PUSH2 0xEAF JUMP JUMPDEST PUSH2 0x10B6 PUSH1 0x20 DUP4 ADD DUP6 PUSH2 0xEAF JUMP JUMPDEST PUSH2 0x10C3 PUSH1 0x40 DUP4 ADD DUP5 PUSH2 0xED9 JUMP JUMPDEST SWAP5 SWAP4 POP POP POP POP JUMP JUMPDEST PUSH1 0x0 PUSH2 0x10D6 DUP3 PUSH2 0xE1A JUMP JUMPDEST SWAP2 POP PUSH2 0x10E1 DUP4 PUSH2 0xE1A JUMP JUMPDEST SWAP3 POP DUP2 PUSH32 0xFFFFFFFFFFFFFFFFFFFFFFFFFFFFFFFFFFFFFFFFFFFFFFFFFFFFFFFFFFFFFFFF DIV DUP4 GT DUP3 ISZERO ISZERO AND ISZERO PUSH2 0x111A JUMPI PUSH2 0x1119 PUSH2 0x1031 JUMP JUMPDEST JUMPDEST DUP3 DUP3 MUL SWAP1 POP SWAP3 SWAP2 POP POP JUMP JUMPDEST PUSH32 0x4E487B7100000000000000000000000000000000000000000000000000000000 PUSH1 0x0 MSTORE PUSH1 0x12 PUSH1 0x4 MSTORE PUSH1 0x24 PUSH1 0x0 REVERT JUMPDEST PUSH1 0x0 PUSH2 0x115F DUP3 PUSH2 0xE1A JUMP JUMPDEST SWAP2 POP PUSH2 0x116A DUP4 PUSH2 0xE1A JUMP JUMPDEST SWAP3 POP DUP3 PUSH2 0x117A JUMPI PUSH2 0x1179 PUSH2 0x1125 JUMP JUMPDEST JUMPDEST DUP3 DUP3 DIV SWAP1 POP SWAP3 SWAP2 POP POP JUMP JUMPDEST PUSH1 0x0 PUSH2 0x1190 DUP3 PUSH2 0xE1A JUMP JUMPDEST SWAP2 POP PUSH2 0x119B DUP4 PUSH2 0xE1A JUMP JUMPDEST SWAP3 POP DUP3 PUSH32 0xFFFFFFFFFFFFFFFFFFFFFFFFFFFFFFFFFFFFFFFFFFFFFFFFFFFFFFFFFFFFFFFF SUB DUP3 GT ISZERO PUSH2 0x11D0 JUMPI PUSH2 0x11CF PUSH2 0x1031 JUMP JUMPDEST JUMPDEST DUP3 DUP3 ADD SWAP1 POP SWAP3 SWAP2 POP POP JUMP JUMPDEST PUSH1 0x0 DUP3 DUP3 MSTORE PUSH1 0x20 DUP3 ADD SWAP1 POP SWAP3 SWAP2 POP POP JUMP JUMPDEST PUSH32 0x6E6F74206F776E65720000000000000000000000000000000000000000000000 PUSH1 0x0 DUP3 ADD MSTORE POP JUMP JUMPDEST PUSH1 0x0 PUSH2 0x1222 PUSH1 0x9 DUP4 PUSH2 0x11DB JUMP JUMPDEST SWAP2 POP PUSH2 0x122D DUP3 PUSH2 0x11EC JUMP JUMPDEST PUSH1 0x20 DUP3 ADD SWAP1 POP SWAP2 SWAP1 POP JUMP JUMPDEST PUSH1 0x0 PUSH1 0x20 DUP3 ADD SWAP1 POP DUP2 DUP2 SUB PUSH1 0x0 DUP4 ADD MSTORE PUSH2 0x1251 DUP2 PUSH2 0x1215 JUMP JUMPDEST SWAP1 POP SWAP2 SWAP1 POP JUMP INVALID LOG2 PUSH5 0x6970667358 0x22 SLT KECCAK256 0xC4 SWAP16 RETURN SWAP2 0xCD SWAP10 0x4C PUSH9 0xAA4379A7EF36273628 SLOAD PUSH25 0x6D4078C8243D5CA32F6E45A8B364736F6C634300080F003300 "
				},
				"gasEstimates": {
					"creation": {
						"codeDepositCost": "950000",
						"executionCost": "infinite",
						"totalCost": "infinite"
					},
					"external": {
						"Stake(uint256)": "infinite",
						"User_Map(address)": "infinite",
						"harvest()": "infinite",
						"lastTotokenRatio()": "2656",
						"newTotokenRatio()": "infinite",
						"owner()": "2558",
						"ratio()": "2429",
						"setRatio(uint256)": "24756",
						"stakeSupple()": "2517",
						"staketoken()": "2624",
						"totoken()": "2559",
						"withDraw()": "infinite"
					}
				},
				"methodIdentifiers": {
					"Stake(uint256)": "227a473b",
					"User_Map(address)": "8c93ecff",
					"harvest()": "4641257d",
					"lastTotokenRatio()": "5e9f4435",
					"newTotokenRatio()": "529aca49",
					"owner()": "8da5cb5b",
					"ratio()": "71ca337d",
					"setRatio(uint256)": "b2237ba3",
					"stakeSupple()": "d942727f",
					"staketoken()": "dab2997b",
					"totoken()": "2c46502d",
					"withDraw()": "0fdb1c10"
				}
			},
			"storageLayout": {
				"storage": [
					{
						"astId": 70,
						"contract": "contracts/自己写个矿池,定息矿池.sol:StakeContract",
						"label": "ratio",
						"offset": 0,
						"slot": "0",
						"type": "t_uint256"
					},
					{
						"astId": 72,
						"contract": "contracts/自己写个矿池,定息矿池.sol:StakeContract",
						"label": "staketoken",
						"offset": 0,
						"slot": "1",
						"type": "t_address"
					},
					{
						"astId": 74,
						"contract": "contracts/自己写个矿池,定息矿池.sol:StakeContract",
						"label": "totoken",
						"offset": 0,
						"slot": "2",
						"type": "t_address"
					},
					{
						"astId": 76,
						"contract": "contracts/自己写个矿池,定息矿池.sol:StakeContract",
						"label": "stakeSupple",
						"offset": 0,
						"slot": "3",
						"type": "t_uint256"
					},
					{
						"astId": 78,
						"contract": "contracts/自己写个矿池,定息矿池.sol:StakeContract",
						"label": "owner",
						"offset": 0,
						"slot": "4",
						"type": "t_address"
					},
					{
						"astId": 116,
						"contract": "contracts/自己写个矿池,定息矿池.sol:StakeContract",
						"label": "User_Map",
						"offset": 0,
						"slot": "5",
						"type": "t_mapping(t_address,t_struct(User)111_storage)"
					}
				],
				"types": {
					"t_address": {
						"encoding": "inplace",
						"label": "address",
						"numberOfBytes": "20"
					},
					"t_mapping(t_address,t_struct(User)111_storage)": {
						"encoding": "mapping",
						"key": "t_address",
						"label": "mapping(address => struct StakeContract.User)",
						"numberOfBytes": "32",
						"value": "t_struct(User)111_storage"
					},
					"t_struct(User)111_storage": {
						"encoding": "inplace",
						"label": "struct StakeContract.User",
						"members": [
							{
								"astId": 102,
								"contract": "contracts/自己写个矿池,定息矿池.sol:StakeContract",
								"label": "stakeNumber",
								"offset": 0,
								"slot": "0",
								"type": "t_uint256"
							},
							{
								"astId": 104,
								"contract": "contracts/自己写个矿池,定息矿池.sol:StakeContract",
								"label": "last_Stake_Time",
								"offset": 0,
								"slot": "1",
								"type": "t_uint256"
							},
							{
								"astId": 106,
								"contract": "contracts/自己写个矿池,定息矿池.sol:StakeContract",
								"label": "last_totoken_ratio",
								"offset": 0,
								"slot": "2",
								"type": "t_uint256"
							},
							{
								"astId": 108,
								"contract": "contracts/自己写个矿池,定息矿池.sol:StakeContract",
								"label": "whole_ratio",
								"offset": 0,
								"slot": "3",
								"type": "t_uint256"
							},
							{
								"astId": 110,
								"contract": "contracts/自己写个矿池,定息矿池.sol:StakeContract",
								"label": "last_totoken_Time",
								"offset": 0,
								"slot": "4",
								"type": "t_uint256"
							}
						],
						"numberOfBytes": "160"
					},
					"t_uint256": {
						"encoding": "inplace",
						"label": "uint256",
						"numberOfBytes": "32"
					}
				}
			},
			"userdoc": {
				"kind": "user",
				"methods": {},
				"version": 1
			}
		}
	}
}