{
	"contracts/EnglishAuction.sol": {
		"EnglishAuction": {
			"abi": [
				{
					"inputs": [
						{
							"internalType": "address",
							"name": "_nft",
							"type": "address"
						},
						{
							"internalType": "uint256",
							"name": "_nftId",
							"type": "uint256"
						},
						{
							"internalType": "uint256",
							"name": "_startingBid",
							"type": "uint256"
						}
					],
					"stateMutability": "nonpayable",
					"type": "constructor"
				},
				{
					"anonymous": false,
					"inputs": [],
					"name": "Start",
					"type": "event"
				},
				{
					"inputs": [],
					"name": "bid",
					"outputs": [],
					"stateMutability": "payable",
					"type": "function"
				},
				{
					"inputs": [
						{
							"internalType": "address",
							"name": "",
							"type": "address"
						}
					],
					"name": "bids",
					"outputs": [
						{
							"internalType": "uint256",
							"name": "",
							"type": "uint256"
						}
					],
					"stateMutability": "view",
					"type": "function"
				},
				{
					"inputs": [],
					"name": "endAt",
					"outputs": [
						{
							"internalType": "uint32",
							"name": "",
							"type": "uint32"
						}
					],
					"stateMutability": "view",
					"type": "function"
				},
				{
					"inputs": [],
					"name": "ended",
					"outputs": [
						{
							"internalType": "bool",
							"name": "",
							"type": "bool"
						}
					],
					"stateMutability": "view",
					"type": "function"
				},
				{
					"inputs": [],
					"name": "highestBid",
					"outputs": [
						{
							"internalType": "uint256",
							"name": "",
							"type": "uint256"
						}
					],
					"stateMutability": "view",
					"type": "function"
				},
				{
					"inputs": [],
					"name": "highestBidder",
					"outputs": [
						{
							"internalType": "address",
							"name": "",
							"type": "address"
						}
					],
					"stateMutability": "view",
					"type": "function"
				},
				{
					"inputs": [],
					"name": "nft",
					"outputs": [
						{
							"internalType": "contract IERC721",
							"name": "",
							"type": "address"
						}
					],
					"stateMutability": "view",
					"type": "function"
				},
				{
					"inputs": [],
					"name": "nftId",
					"outputs": [
						{
							"internalType": "uint256",
							"name": "",
							"type": "uint256"
						}
					],
					"stateMutability": "view",
					"type": "function"
				},
				{
					"inputs": [],
					"name": "seller",
					"outputs": [
						{
							"internalType": "address payable",
							"name": "",
							"type": "address"
						}
					],
					"stateMutability": "view",
					"type": "function"
				},
				{
					"inputs": [],
					"name": "start",
					"outputs": [],
					"stateMutability": "nonpayable",
					"type": "function"
				},
				{
					"inputs": [],
					"name": "started",
					"outputs": [
						{
							"internalType": "bool",
							"name": "",
							"type": "bool"
						}
					],
					"stateMutability": "view",
					"type": "function"
				}
			],
			"devdoc": {
				"kind": "dev",
				"methods": {},
				"version": 1
			},
			"evm": {
				"assembly": "    /* \"contracts/EnglishAuction.sol\":183:1165  contract EnglishAuction { ... */\n  mstore(0x40, 0xe0)\n    /* \"contracts/EnglishAuction.sol\":530:751  constructor(... */\n  callvalue\n  dup1\n  iszero\n  tag_1\n  jumpi\n  0x00\n  dup1\n  revert\ntag_1:\n  pop\n  mload(0x40)\n  sub(codesize, bytecodeSize)\n  dup1\n  bytecodeSize\n  dup4\n  codecopy\n  dup2\n  dup2\n  add\n  0x40\n  mstore\n  dup2\n  add\n  swap1\n  tag_2\n  swap2\n  swap1\n  tag_3\n  jump\t// in\ntag_2:\n    /* \"contracts/EnglishAuction.sol\":642:646  _nft */\n  dup3\n    /* \"contracts/EnglishAuction.sol\":628:647  nft = IERC721(_nft) */\n  0xffffffffffffffffffffffffffffffffffffffff\n  and\n  0x80\n  dup2\n  0xffffffffffffffffffffffffffffffffffffffff\n  and\n  0x60\n  shl\n  dup2\n  mstore\n  pop\n  pop\n    /* \"contracts/EnglishAuction.sol\":665:671  _nftId */\n  dup2\n    /* \"contracts/EnglishAuction.sol\":657:671  nftId = _nftId */\n  0xa0\n  dup2\n  dup2\n  mstore\n  pop\n  pop\n    /* \"contracts/EnglishAuction.sol\":698:708  msg.sender */\n  caller\n    /* \"contracts/EnglishAuction.sol\":681:709  seller = payable(msg.sender) */\n  0xffffffffffffffffffffffffffffffffffffffff\n  and\n  0xc0\n  dup2\n  0xffffffffffffffffffffffffffffffffffffffff\n  and\n  0x60\n  shl\n  dup2\n  mstore\n  pop\n  pop\n    /* \"contracts/EnglishAuction.sol\":732:744  _startingBid */\n  dup1\n    /* \"contracts/EnglishAuction.sol\":719:729  highestBid */\n  0x01\n    /* \"contracts/EnglishAuction.sol\":719:744  highestBid = _startingBid */\n  dup2\n  swap1\n  sstore\n  pop\n    /* \"contracts/EnglishAuction.sol\":530:751  constructor(... */\n  pop\n  pop\n  pop\n    /* \"contracts/EnglishAuction.sol\":183:1165  contract EnglishAuction { ... */\n  jump(tag_6)\n    /* \"#utility.yul\":7:150   */\ntag_8:\n    /* \"#utility.yul\":64:69   */\n  0x00\n    /* \"#utility.yul\":95:101   */\n  dup2\n    /* \"#utility.yul\":89:102   */\n  mload\n    /* \"#utility.yul\":80:102   */\n  swap1\n  pop\n    /* \"#utility.yul\":111:144   */\n  tag_10\n    /* \"#utility.yul\":138:143   */\n  dup2\n    /* \"#utility.yul\":111:144   */\n  tag_11\n  jump\t// in\ntag_10:\n    /* \"#utility.yul\":7:150   */\n  swap3\n  swap2\n  pop\n  pop\n  jump\t// out\n    /* \"#utility.yul\":156:299   */\ntag_12:\n    /* \"#utility.yul\":213:218   */\n  0x00\n    /* \"#utility.yul\":244:250   */\n  dup2\n    /* \"#utility.yul\":238:251   */\n  mload\n    /* \"#utility.yul\":229:251   */\n  swap1\n  pop\n    /* \"#utility.yul\":260:293   */\n  tag_14\n    /* \"#utility.yul\":287:292   */\n  dup2\n    /* \"#utility.yul\":260:293   */\n  tag_15\n  jump\t// in\ntag_14:\n    /* \"#utility.yul\":156:299   */\n  swap3\n  swap2\n  pop\n  pop\n  jump\t// out\n    /* \"#utility.yul\":305:968   */\ntag_3:\n    /* \"#utility.yul\":393:399   */\n  0x00\n    /* \"#utility.yul\":401:407   */\n  dup1\n    /* \"#utility.yul\":409:415   */\n  0x00\n    /* \"#utility.yul\":458:460   */\n  0x60\n    /* \"#utility.yul\":446:455   */\n  dup5\n    /* \"#utility.yul\":437:444   */\n  dup7\n    /* \"#utility.yul\":433:456   */\n  sub\n    /* \"#utility.yul\":429:461   */\n  slt\n    /* \"#utility.yul\":426:545   */\n  iszero\n  tag_17\n  jumpi\n    /* \"#utility.yul\":464:543   */\n  tag_18\n  tag_19\n  jump\t// in\ntag_18:\n    /* \"#utility.yul\":426:545   */\ntag_17:\n    /* \"#utility.yul\":584:585   */\n  0x00\n    /* \"#utility.yul\":609:673   */\n  tag_20\n    /* \"#utility.yul\":665:672   */\n  dup7\n    /* \"#utility.yul\":656:662   */\n  dup3\n    /* \"#utility.yul\":645:654   */\n  dup8\n    /* \"#utility.yul\":641:663   */\n  add\n    /* \"#utility.yul\":609:673   */\n  tag_8\n  jump\t// in\ntag_20:\n    /* \"#utility.yul\":599:673   */\n  swap4\n  pop\n    /* \"#utility.yul\":555:683   */\n  pop\n    /* \"#utility.yul\":722:724   */\n  0x20\n    /* \"#utility.yul\":748:812   */\n  tag_21\n    /* \"#utility.yul\":804:811   */\n  dup7\n    /* \"#utility.yul\":795:801   */\n  dup3\n    /* \"#utility.yul\":784:793   */\n  dup8\n    /* \"#utility.yul\":780:802   */\n  add\n    /* \"#utility.yul\":748:812   */\n  tag_12\n  jump\t// in\ntag_21:\n    /* \"#utility.yul\":738:812   */\n  swap3\n  pop\n    /* \"#utility.yul\":693:822   */\n  pop\n    /* \"#utility.yul\":861:863   */\n  0x40\n    /* \"#utility.yul\":887:951   */\n  tag_22\n    /* \"#utility.yul\":943:950   */\n  dup7\n    /* \"#utility.yul\":934:940   */\n  dup3\n    /* \"#utility.yul\":923:932   */\n  dup8\n    /* \"#utility.yul\":919:941   */\n  add\n    /* \"#utility.yul\":887:951   */\n  tag_12\n  jump\t// in\ntag_22:\n    /* \"#utility.yul\":877:951   */\n  swap2\n  pop\n    /* \"#utility.yul\":832:961   */\n  pop\n    /* \"#utility.yul\":305:968   */\n  swap3\n  pop\n  swap3\n  pop\n  swap3\n  jump\t// out\n    /* \"#utility.yul\":1055:1151   */\ntag_25:\n    /* \"#utility.yul\":1092:1099   */\n  0x00\n    /* \"#utility.yul\":1121:1145   */\n  tag_27\n    /* \"#utility.yul\":1139:1144   */\n  dup3\n    /* \"#utility.yul\":1121:1145   */\n  tag_28\n  jump\t// in\ntag_27:\n    /* \"#utility.yul\":1110:1145   */\n  swap1\n  pop\n    /* \"#utility.yul\":1055:1151   */\n  swap2\n  swap1\n  pop\n  jump\t// out\n    /* \"#utility.yul\":1157:1283   */\ntag_28:\n    /* \"#utility.yul\":1194:1201   */\n  0x00\n    /* \"#utility.yul\":1234:1276   */\n  0xffffffffffffffffffffffffffffffffffffffff\n    /* \"#utility.yul\":1227:1232   */\n  dup3\n    /* \"#utility.yul\":1223:1277   */\n  and\n    /* \"#utility.yul\":1212:1277   */\n  swap1\n  pop\n    /* \"#utility.yul\":1157:1283   */\n  swap2\n  swap1\n  pop\n  jump\t// out\n    /* \"#utility.yul\":1289:1366   */\ntag_30:\n    /* \"#utility.yul\":1326:1333   */\n  0x00\n    /* \"#utility.yul\":1355:1360   */\n  dup2\n    /* \"#utility.yul\":1344:1360   */\n  swap1\n  pop\n    /* \"#utility.yul\":1289:1366   */\n  swap2\n  swap1\n  pop\n  jump\t// out\n    /* \"#utility.yul\":1495:1612   */\ntag_19:\n    /* \"#utility.yul\":1604:1605   */\n  0x00\n    /* \"#utility.yul\":1601:1602   */\n  dup1\n    /* \"#utility.yul\":1594:1606   */\n  revert\n    /* \"#utility.yul\":1618:1740   */\ntag_11:\n    /* \"#utility.yul\":1691:1715   */\n  tag_36\n    /* \"#utility.yul\":1709:1714   */\n  dup2\n    /* \"#utility.yul\":1691:1715   */\n  tag_25\n  jump\t// in\ntag_36:\n    /* \"#utility.yul\":1684:1689   */\n  dup2\n    /* \"#utility.yul\":1681:1716   */\n  eq\n    /* \"#utility.yul\":1671:1734   */\n  tag_37\n  jumpi\n    /* \"#utility.yul\":1730:1731   */\n  0x00\n    /* \"#utility.yul\":1727:1728   */\n  dup1\n    /* \"#utility.yul\":1720:1732   */\n  revert\n    /* \"#utility.yul\":1671:1734   */\ntag_37:\n    /* \"#utility.yul\":1618:1740   */\n  pop\n  jump\t// out\n    /* \"#utility.yul\":1746:1868   */\ntag_15:\n    /* \"#utility.yul\":1819:1843   */\n  tag_39\n    /* \"#utility.yul\":1837:1842   */\n  dup2\n    /* \"#utility.yul\":1819:1843   */\n  tag_30\n  jump\t// in\ntag_39:\n    /* \"#utility.yul\":1812:1817   */\n  dup2\n    /* \"#utility.yul\":1809:1844   */\n  eq\n    /* \"#utility.yul\":1799:1862   */\n  tag_40\n  jumpi\n    /* \"#utility.yul\":1858:1859   */\n  0x00\n    /* \"#utility.yul\":1855:1856   */\n  dup1\n    /* \"#utility.yul\":1848:1860   */\n  revert\n    /* \"#utility.yul\":1799:1862   */\ntag_40:\n    /* \"#utility.yul\":1746:1868   */\n  pop\n  jump\t// out\n    /* \"contracts/EnglishAuction.sol\":183:1165  contract EnglishAuction { ... */\ntag_6:\n  shr(0x60, mload(0x80))\n  mload(0xa0)\n  shr(0x60, mload(0xc0))\n  codecopy(0x00, dataOffset(sub_0), dataSize(sub_0))\n  0x00\n  assignImmutable(\"0x731dc163f73d31d8c68f9917ce4ff967753939f70432973c04fd2c2a48148607\")\n  0x00\n  assignImmutable(\"0x8fef2229291b68be841adf029e58b87f39ba144b2d3b0af1760243d0a9bc6a1c\")\n  0x00\n  assignImmutable(\"0x277ab82e5a4641341820a4a2933a62c1de997e42e92548657ae21b3728d580fe\")\n  return(0x00, dataSize(sub_0))\nstop\n\nsub_0: assembly {\n        /* \"contracts/EnglishAuction.sol\":183:1165  contract EnglishAuction { ... */\n      mstore(0x40, 0x80)\n      jumpi(tag_1, lt(calldatasize, 0x04))\n      shr(0xe0, calldataload(0x00))\n      dup1\n      0x62ea82db\n      gt\n      tag_13\n      jumpi\n      dup1\n      0x62ea82db\n      eq\n      tag_7\n      jumpi\n      dup1\n      0x7cc3ae8c\n      eq\n      tag_8\n      jumpi\n      dup1\n      0x91f90157\n      eq\n      tag_9\n      jumpi\n      dup1\n      0xbe9a6555\n      eq\n      tag_10\n      jumpi\n      dup1\n      0xc6bc5182\n      eq\n      tag_11\n      jumpi\n      dup1\n      0xd57bde79\n      eq\n      tag_12\n      jumpi\n      jump(tag_1)\n    tag_13:\n      dup1\n      0x08551a53\n      eq\n      tag_2\n      jumpi\n      dup1\n      0x12fa6feb\n      eq\n      tag_3\n      jumpi\n      dup1\n      0x1998aeef\n      eq\n      tag_4\n      jumpi\n      dup1\n      0x1f2698ab\n      eq\n      tag_5\n      jumpi\n      dup1\n      0x47ccca02\n      eq\n      tag_6\n      jumpi\n    tag_1:\n      0x00\n      dup1\n      revert\n        /* \"contracts/EnglishAuction.sol\":301:340  address payable public immutable seller */\n    tag_2:\n      callvalue\n      dup1\n      iszero\n      tag_14\n      jumpi\n      0x00\n      dup1\n      revert\n    tag_14:\n      pop\n      tag_15\n      tag_16\n      jump\t// in\n    tag_15:\n      mload(0x40)\n      tag_17\n      swap2\n      swap1\n      tag_18\n      jump\t// in\n    tag_17:\n      mload(0x40)\n      dup1\n      swap2\n      sub\n      swap1\n      return\n        /* \"contracts/EnglishAuction.sol\":396:413  bool public ended */\n    tag_3:\n      callvalue\n      dup1\n      iszero\n      tag_19\n      jumpi\n      0x00\n      dup1\n      revert\n    tag_19:\n      pop\n      tag_20\n      tag_21\n      jump\t// in\n    tag_20:\n      mload(0x40)\n      tag_22\n      swap2\n      swap1\n      tag_23\n      jump\t// in\n    tag_22:\n      mload(0x40)\n      dup1\n      swap2\n      sub\n      swap1\n      return\n        /* \"contracts/EnglishAuction.sol\":1030:1162  function bid() external payable {... */\n    tag_4:\n      tag_24\n      tag_25\n      jump\t// in\n    tag_24:\n      stop\n        /* \"contracts/EnglishAuction.sol\":371:390  bool public started */\n    tag_5:\n      callvalue\n      dup1\n      iszero\n      tag_26\n      jumpi\n      0x00\n      dup1\n      revert\n    tag_26:\n      pop\n      tag_27\n      tag_28\n      jump\t// in\n    tag_27:\n      mload(0x40)\n      tag_29\n      swap2\n      swap1\n      tag_23\n      jump\t// in\n    tag_29:\n      mload(0x40)\n      dup1\n      swap2\n      sub\n      swap1\n      return\n        /* \"contracts/EnglishAuction.sol\":233:261  IERC721 public immutable nft */\n    tag_6:\n      callvalue\n      dup1\n      iszero\n      tag_30\n      jumpi\n      0x00\n      dup1\n      revert\n    tag_30:\n      pop\n      tag_31\n      tag_32\n      jump\t// in\n    tag_31:\n      mload(0x40)\n      tag_33\n      swap2\n      swap1\n      tag_34\n      jump\t// in\n    tag_33:\n      mload(0x40)\n      dup1\n      swap2\n      sub\n      swap1\n      return\n        /* \"contracts/EnglishAuction.sol\":483:519  mapping(address => uint) public bids */\n    tag_7:\n      callvalue\n      dup1\n      iszero\n      tag_35\n      jumpi\n      0x00\n      dup1\n      revert\n    tag_35:\n      pop\n      tag_36\n      0x04\n      dup1\n      calldatasize\n      sub\n      dup2\n      add\n      swap1\n      tag_37\n      swap2\n      swap1\n      tag_38\n      jump\t// in\n    tag_37:\n      tag_39\n      jump\t// in\n    tag_36:\n      mload(0x40)\n      tag_40\n      swap2\n      swap1\n      tag_41\n      jump\t// in\n    tag_40:\n      mload(0x40)\n      dup1\n      swap2\n      sub\n      swap1\n      return\n        /* \"contracts/EnglishAuction.sol\":346:365  uint32 public endAt */\n    tag_8:\n      callvalue\n      dup1\n      iszero\n      tag_42\n      jumpi\n      0x00\n      dup1\n      revert\n    tag_42:\n      pop\n      tag_43\n      tag_44\n      jump\t// in\n    tag_43:\n      mload(0x40)\n      tag_45\n      swap2\n      swap1\n      tag_46\n      jump\t// in\n    tag_45:\n      mload(0x40)\n      dup1\n      swap2\n      sub\n      swap1\n      return\n        /* \"contracts/EnglishAuction.sol\":420:448  address public highestBidder */\n    tag_9:\n      callvalue\n      dup1\n      iszero\n      tag_47\n      jumpi\n      0x00\n      dup1\n      revert\n    tag_47:\n      pop\n      tag_48\n      tag_49\n      jump\t// in\n    tag_48:\n      mload(0x40)\n      tag_50\n      swap2\n      swap1\n      tag_51\n      jump\t// in\n    tag_50:\n      mload(0x40)\n      dup1\n      swap2\n      sub\n      swap1\n      return\n        /* \"contracts/EnglishAuction.sol\":757:1024  function start() external {... */\n    tag_10:\n      callvalue\n      dup1\n      iszero\n      tag_52\n      jumpi\n      0x00\n      dup1\n      revert\n    tag_52:\n      pop\n      tag_53\n      tag_54\n      jump\t// in\n    tag_53:\n      stop\n        /* \"contracts/EnglishAuction.sol\":267:294  uint public immutable nftId */\n    tag_11:\n      callvalue\n      dup1\n      iszero\n      tag_55\n      jumpi\n      0x00\n      dup1\n      revert\n    tag_55:\n      pop\n      tag_56\n      tag_57\n      jump\t// in\n    tag_56:\n      mload(0x40)\n      tag_58\n      swap2\n      swap1\n      tag_41\n      jump\t// in\n    tag_58:\n      mload(0x40)\n      dup1\n      swap2\n      sub\n      swap1\n      return\n        /* \"contracts/EnglishAuction.sol\":454:476  uint public highestBid */\n    tag_12:\n      callvalue\n      dup1\n      iszero\n      tag_59\n      jumpi\n      0x00\n      dup1\n      revert\n    tag_59:\n      pop\n      tag_60\n      tag_61\n      jump\t// in\n    tag_60:\n      mload(0x40)\n      tag_62\n      swap2\n      swap1\n      tag_41\n      jump\t// in\n    tag_62:\n      mload(0x40)\n      dup1\n      swap2\n      sub\n      swap1\n      return\n        /* \"contracts/EnglishAuction.sol\":301:340  address payable public immutable seller */\n    tag_16:\n      immutable(\"0x731dc163f73d31d8c68f9917ce4ff967753939f70432973c04fd2c2a48148607\")\n      dup2\n      jump\t// out\n        /* \"contracts/EnglishAuction.sol\":396:413  bool public ended */\n    tag_21:\n      0x00\n      0x05\n      swap1\n      sload\n      swap1\n      0x0100\n      exp\n      swap1\n      div\n      0xff\n      and\n      dup2\n      jump\t// out\n        /* \"contracts/EnglishAuction.sol\":1030:1162  function bid() external payable {... */\n    tag_25:\n        /* \"contracts/EnglishAuction.sol\":1080:1087  started */\n      0x00\n      0x04\n      swap1\n      sload\n      swap1\n      0x0100\n      exp\n      swap1\n      div\n      0xff\n      and\n        /* \"contracts/EnglishAuction.sol\":1072:1095  require(started, \"not\") */\n      tag_64\n      jumpi\n      mload(0x40)\n      0x08c379a000000000000000000000000000000000000000000000000000000000\n      dup2\n      mstore\n      0x04\n      add\n      tag_65\n      swap1\n      tag_66\n      jump\t// in\n    tag_65:\n      mload(0x40)\n      dup1\n      swap2\n      sub\n      swap1\n      revert\n    tag_64:\n        /* \"contracts/EnglishAuction.sol\":1131:1136  endAt */\n      0x00\n      dup1\n      sload\n      swap1\n      0x0100\n      exp\n      swap1\n      div\n      0xffffffff\n      and\n        /* \"contracts/EnglishAuction.sol\":1113:1136  block.timestamp < endAt */\n      0xffffffff\n      and\n        /* \"contracts/EnglishAuction.sol\":1113:1128  block.timestamp */\n      timestamp\n        /* \"contracts/EnglishAuction.sol\":1113:1136  block.timestamp < endAt */\n      lt\n        /* \"contracts/EnglishAuction.sol\":1105:1146  require(block.timestamp < endAt, \"ended\") */\n      tag_67\n      jumpi\n      mload(0x40)\n      0x08c379a000000000000000000000000000000000000000000000000000000000\n      dup2\n      mstore\n      0x04\n      add\n      tag_68\n      swap1\n      tag_69\n      jump\t// in\n    tag_68:\n      mload(0x40)\n      dup1\n      swap2\n      sub\n      swap1\n      revert\n    tag_67:\n        /* \"contracts/EnglishAuction.sol\":1030:1162  function bid() external payable {... */\n      jump\t// out\n        /* \"contracts/EnglishAuction.sol\":371:390  bool public started */\n    tag_28:\n      0x00\n      0x04\n      swap1\n      sload\n      swap1\n      0x0100\n      exp\n      swap1\n      div\n      0xff\n      and\n      dup2\n      jump\t// out\n        /* \"contracts/EnglishAuction.sol\":233:261  IERC721 public immutable nft */\n    tag_32:\n      immutable(\"0x277ab82e5a4641341820a4a2933a62c1de997e42e92548657ae21b3728d580fe\")\n      dup2\n      jump\t// out\n        /* \"contracts/EnglishAuction.sol\":483:519  mapping(address => uint) public bids */\n    tag_39:\n      mstore(0x20, 0x02)\n      dup1\n      0x00\n      mstore\n      keccak256(0x00, 0x40)\n      0x00\n      swap2\n      pop\n      swap1\n      pop\n      sload\n      dup2\n      jump\t// out\n        /* \"contracts/EnglishAuction.sol\":346:365  uint32 public endAt */\n    tag_44:\n      0x00\n      dup1\n      sload\n      swap1\n      0x0100\n      exp\n      swap1\n      div\n      0xffffffff\n      and\n      dup2\n      jump\t// out\n        /* \"contracts/EnglishAuction.sol\":420:448  address public highestBidder */\n    tag_49:\n      0x00\n      0x06\n      swap1\n      sload\n      swap1\n      0x0100\n      exp\n      swap1\n      div\n      0xffffffffffffffffffffffffffffffffffffffff\n      and\n      dup2\n      jump\t// out\n        /* \"contracts/EnglishAuction.sol\":757:1024  function start() external {... */\n    tag_54:\n        /* \"contracts/EnglishAuction.sol\":815:821  seller */\n      immutable(\"0x731dc163f73d31d8c68f9917ce4ff967753939f70432973c04fd2c2a48148607\")\n        /* \"contracts/EnglishAuction.sol\":801:821  msg.sender == seller */\n      0xffffffffffffffffffffffffffffffffffffffff\n      and\n        /* \"contracts/EnglishAuction.sol\":801:811  msg.sender */\n      caller\n        /* \"contracts/EnglishAuction.sol\":801:821  msg.sender == seller */\n      0xffffffffffffffffffffffffffffffffffffffff\n      and\n      eq\n        /* \"contracts/EnglishAuction.sol\":793:829  require(msg.sender == seller, \"not\") */\n      tag_71\n      jumpi\n      mload(0x40)\n      0x08c379a000000000000000000000000000000000000000000000000000000000\n      dup2\n      mstore\n      0x04\n      add\n      tag_72\n      swap1\n      tag_66\n      jump\t// in\n    tag_72:\n      mload(0x40)\n      dup1\n      swap2\n      sub\n      swap1\n      revert\n    tag_71:\n        /* \"contracts/EnglishAuction.sol\":848:855  started */\n      0x00\n      0x04\n      swap1\n      sload\n      swap1\n      0x0100\n      exp\n      swap1\n      div\n      0xff\n      and\n        /* \"contracts/EnglishAuction.sol\":847:855  !started */\n      iszero\n        /* \"contracts/EnglishAuction.sol\":839:867  require(!started, \"started\") */\n      tag_73\n      jumpi\n      mload(0x40)\n      0x08c379a000000000000000000000000000000000000000000000000000000000\n      dup2\n      mstore\n      0x04\n      add\n      tag_74\n      swap1\n      tag_75\n      jump\t// in\n    tag_74:\n      mload(0x40)\n      dup1\n      swap2\n      sub\n      swap1\n      revert\n    tag_73:\n        /* \"contracts/EnglishAuction.sol\":888:892  true */\n      0x01\n        /* \"contracts/EnglishAuction.sol\":878:885  started */\n      0x00\n      0x04\n        /* \"contracts/EnglishAuction.sol\":878:892  started = true */\n      0x0100\n      exp\n      dup2\n      sload\n      dup2\n      0xff\n      mul\n      not\n      and\n      swap1\n      dup4\n      iszero\n      iszero\n      mul\n      or\n      swap1\n      sstore\n      pop\n        /* \"contracts/EnglishAuction.sol\":935:937  60 */\n      0x3c\n        /* \"contracts/EnglishAuction.sol\":917:932  block.timestamp */\n      timestamp\n        /* \"contracts/EnglishAuction.sol\":917:937  block.timestamp + 60 */\n      tag_76\n      swap2\n      swap1\n      tag_77\n      jump\t// in\n    tag_76:\n        /* \"contracts/EnglishAuction.sol\":902:907  endAt */\n      0x00\n      dup1\n        /* \"contracts/EnglishAuction.sol\":902:938  endAt = uint32(block.timestamp + 60) */\n      0x0100\n      exp\n      dup2\n      sload\n      dup2\n      0xffffffff\n      mul\n      not\n      and\n      swap1\n      dup4\n      0xffffffff\n      and\n      mul\n      or\n      swap1\n      sstore\n      pop\n        /* \"contracts/EnglishAuction.sol\":948:951  nft */\n      immutable(\"0x277ab82e5a4641341820a4a2933a62c1de997e42e92548657ae21b3728d580fe\")\n        /* \"contracts/EnglishAuction.sol\":948:964  nft.transferFrom */\n      0xffffffffffffffffffffffffffffffffffffffff\n      and\n      0x23b872dd\n        /* \"contracts/EnglishAuction.sol\":965:971  seller */\n      immutable(\"0x731dc163f73d31d8c68f9917ce4ff967753939f70432973c04fd2c2a48148607\")\n        /* \"contracts/EnglishAuction.sol\":981:985  this */\n      address\n        /* \"contracts/EnglishAuction.sol\":988:993  nftId */\n      immutable(\"0x8fef2229291b68be841adf029e58b87f39ba144b2d3b0af1760243d0a9bc6a1c\")\n        /* \"contracts/EnglishAuction.sol\":948:994  nft.transferFrom(seller, address(this), nftId) */\n      mload(0x40)\n      dup5\n      0xffffffff\n      and\n      0xe0\n      shl\n      dup2\n      mstore\n      0x04\n      add\n      tag_78\n      swap4\n      swap3\n      swap2\n      swap1\n      tag_79\n      jump\t// in\n    tag_78:\n      0x00\n      mload(0x40)\n      dup1\n      dup4\n      sub\n      dup2\n      0x00\n      dup8\n      dup1\n      extcodesize\n      iszero\n      dup1\n      iszero\n      tag_80\n      jumpi\n      0x00\n      dup1\n      revert\n    tag_80:\n      pop\n      gas\n      call\n      iszero\n      dup1\n      iszero\n      tag_82\n      jumpi\n      returndatasize\n      0x00\n      dup1\n      returndatacopy\n      revert(0x00, returndatasize)\n    tag_82:\n      pop\n      pop\n      pop\n      pop\n        /* \"contracts/EnglishAuction.sol\":1010:1017  Start() */\n      0x1b55ba3aa851a46be3b365aee5b5c140edd620d578922f3e8466d2cbd96f954b\n      mload(0x40)\n      mload(0x40)\n      dup1\n      swap2\n      sub\n      swap1\n      log1\n        /* \"contracts/EnglishAuction.sol\":757:1024  function start() external {... */\n      jump\t// out\n        /* \"contracts/EnglishAuction.sol\":267:294  uint public immutable nftId */\n    tag_57:\n      immutable(\"0x8fef2229291b68be841adf029e58b87f39ba144b2d3b0af1760243d0a9bc6a1c\")\n      dup2\n      jump\t// out\n        /* \"contracts/EnglishAuction.sol\":454:476  uint public highestBid */\n    tag_61:\n      sload(0x01)\n      dup2\n      jump\t// out\n        /* \"#utility.yul\":7:146   */\n    tag_84:\n        /* \"#utility.yul\":53:58   */\n      0x00\n        /* \"#utility.yul\":91:97   */\n      dup2\n        /* \"#utility.yul\":78:98   */\n      calldataload\n        /* \"#utility.yul\":69:98   */\n      swap1\n      pop\n        /* \"#utility.yul\":107:140   */\n      tag_86\n        /* \"#utility.yul\":134:139   */\n      dup2\n        /* \"#utility.yul\":107:140   */\n      tag_87\n      jump\t// in\n    tag_86:\n        /* \"#utility.yul\":7:146   */\n      swap3\n      swap2\n      pop\n      pop\n      jump\t// out\n        /* \"#utility.yul\":152:481   */\n    tag_38:\n        /* \"#utility.yul\":211:217   */\n      0x00\n        /* \"#utility.yul\":260:262   */\n      0x20\n        /* \"#utility.yul\":248:257   */\n      dup3\n        /* \"#utility.yul\":239:246   */\n      dup5\n        /* \"#utility.yul\":235:258   */\n      sub\n        /* \"#utility.yul\":231:263   */\n      slt\n        /* \"#utility.yul\":228:347   */\n      iszero\n      tag_89\n      jumpi\n        /* \"#utility.yul\":266:345   */\n      tag_90\n      tag_91\n      jump\t// in\n    tag_90:\n        /* \"#utility.yul\":228:347   */\n    tag_89:\n        /* \"#utility.yul\":386:387   */\n      0x00\n        /* \"#utility.yul\":411:464   */\n      tag_92\n        /* \"#utility.yul\":456:463   */\n      dup5\n        /* \"#utility.yul\":447:453   */\n      dup3\n        /* \"#utility.yul\":436:445   */\n      dup6\n        /* \"#utility.yul\":432:454   */\n      add\n        /* \"#utility.yul\":411:464   */\n      tag_84\n      jump\t// in\n    tag_92:\n        /* \"#utility.yul\":401:464   */\n      swap2\n      pop\n        /* \"#utility.yul\":357:474   */\n      pop\n        /* \"#utility.yul\":152:481   */\n      swap3\n      swap2\n      pop\n      pop\n      jump\t// out\n        /* \"#utility.yul\":487:634   */\n    tag_93:\n        /* \"#utility.yul\":582:627   */\n      tag_95\n        /* \"#utility.yul\":621:626   */\n      dup2\n        /* \"#utility.yul\":582:627   */\n      tag_96\n      jump\t// in\n    tag_95:\n        /* \"#utility.yul\":577:580   */\n      dup3\n        /* \"#utility.yul\":570:628   */\n      mstore\n        /* \"#utility.yul\":487:634   */\n      pop\n      pop\n      jump\t// out\n        /* \"#utility.yul\":640:782   */\n    tag_97:\n        /* \"#utility.yul\":743:775   */\n      tag_99\n        /* \"#utility.yul\":769:774   */\n      dup2\n        /* \"#utility.yul\":743:775   */\n      tag_100\n      jump\t// in\n    tag_99:\n        /* \"#utility.yul\":738:741   */\n      dup3\n        /* \"#utility.yul\":731:776   */\n      mstore\n        /* \"#utility.yul\":640:782   */\n      pop\n      pop\n      jump\t// out\n        /* \"#utility.yul\":788:906   */\n    tag_101:\n        /* \"#utility.yul\":875:899   */\n      tag_103\n        /* \"#utility.yul\":893:898   */\n      dup2\n        /* \"#utility.yul\":875:899   */\n      tag_104\n      jump\t// in\n    tag_103:\n        /* \"#utility.yul\":870:873   */\n      dup3\n        /* \"#utility.yul\":863:900   */\n      mstore\n        /* \"#utility.yul\":788:906   */\n      pop\n      pop\n      jump\t// out\n        /* \"#utility.yul\":912:1021   */\n    tag_105:\n        /* \"#utility.yul\":993:1014   */\n      tag_107\n        /* \"#utility.yul\":1008:1013   */\n      dup2\n        /* \"#utility.yul\":993:1014   */\n      tag_108\n      jump\t// in\n    tag_107:\n        /* \"#utility.yul\":988:991   */\n      dup3\n        /* \"#utility.yul\":981:1015   */\n      mstore\n        /* \"#utility.yul\":912:1021   */\n      pop\n      pop\n      jump\t// out\n        /* \"#utility.yul\":1027:1186   */\n    tag_109:\n        /* \"#utility.yul\":1128:1179   */\n      tag_111\n        /* \"#utility.yul\":1173:1178   */\n      dup2\n        /* \"#utility.yul\":1128:1179   */\n      tag_112\n      jump\t// in\n    tag_111:\n        /* \"#utility.yul\":1123:1126   */\n      dup3\n        /* \"#utility.yul\":1116:1180   */\n      mstore\n        /* \"#utility.yul\":1027:1186   */\n      pop\n      pop\n      jump\t// out\n        /* \"#utility.yul\":1192:1557   */\n    tag_113:\n        /* \"#utility.yul\":1334:1337   */\n      0x00\n        /* \"#utility.yul\":1355:1421   */\n      tag_115\n        /* \"#utility.yul\":1419:1420   */\n      0x03\n        /* \"#utility.yul\":1414:1417   */\n      dup4\n        /* \"#utility.yul\":1355:1421   */\n      tag_116\n      jump\t// in\n    tag_115:\n        /* \"#utility.yul\":1348:1421   */\n      swap2\n      pop\n        /* \"#utility.yul\":1430:1523   */\n      tag_117\n        /* \"#utility.yul\":1519:1522   */\n      dup3\n        /* \"#utility.yul\":1430:1523   */\n      tag_118\n      jump\t// in\n    tag_117:\n        /* \"#utility.yul\":1548:1550   */\n      0x20\n        /* \"#utility.yul\":1543:1546   */\n      dup3\n        /* \"#utility.yul\":1539:1551   */\n      add\n        /* \"#utility.yul\":1532:1551   */\n      swap1\n      pop\n        /* \"#utility.yul\":1192:1557   */\n      swap2\n      swap1\n      pop\n      jump\t// out\n        /* \"#utility.yul\":1563:1928   */\n    tag_119:\n        /* \"#utility.yul\":1705:1708   */\n      0x00\n        /* \"#utility.yul\":1726:1792   */\n      tag_121\n        /* \"#utility.yul\":1790:1791   */\n      0x07\n        /* \"#utility.yul\":1785:1788   */\n      dup4\n        /* \"#utility.yul\":1726:1792   */\n      tag_116\n      jump\t// in\n    tag_121:\n        /* \"#utility.yul\":1719:1792   */\n      swap2\n      pop\n        /* \"#utility.yul\":1801:1894   */\n      tag_122\n        /* \"#utility.yul\":1890:1893   */\n      dup3\n        /* \"#utility.yul\":1801:1894   */\n      tag_123\n      jump\t// in\n    tag_122:\n        /* \"#utility.yul\":1919:1921   */\n      0x20\n        /* \"#utility.yul\":1914:1917   */\n      dup3\n        /* \"#utility.yul\":1910:1922   */\n      add\n        /* \"#utility.yul\":1903:1922   */\n      swap1\n      pop\n        /* \"#utility.yul\":1563:1928   */\n      swap2\n      swap1\n      pop\n      jump\t// out\n        /* \"#utility.yul\":1934:2299   */\n    tag_124:\n        /* \"#utility.yul\":2076:2079   */\n      0x00\n        /* \"#utility.yul\":2097:2163   */\n      tag_126\n        /* \"#utility.yul\":2161:2162   */\n      0x05\n        /* \"#utility.yul\":2156:2159   */\n      dup4\n        /* \"#utility.yul\":2097:2163   */\n      tag_116\n      jump\t// in\n    tag_126:\n        /* \"#utility.yul\":2090:2163   */\n      swap2\n      pop\n        /* \"#utility.yul\":2172:2265   */\n      tag_127\n        /* \"#utility.yul\":2261:2264   */\n      dup3\n        /* \"#utility.yul\":2172:2265   */\n      tag_128\n      jump\t// in\n    tag_127:\n        /* \"#utility.yul\":2290:2292   */\n      0x20\n        /* \"#utility.yul\":2285:2288   */\n      dup3\n        /* \"#utility.yul\":2281:2293   */\n      add\n        /* \"#utility.yul\":2274:2293   */\n      swap1\n      pop\n        /* \"#utility.yul\":1934:2299   */\n      swap2\n      swap1\n      pop\n      jump\t// out\n        /* \"#utility.yul\":2305:2423   */\n    tag_129:\n        /* \"#utility.yul\":2392:2416   */\n      tag_131\n        /* \"#utility.yul\":2410:2415   */\n      dup2\n        /* \"#utility.yul\":2392:2416   */\n      tag_132\n      jump\t// in\n    tag_131:\n        /* \"#utility.yul\":2387:2390   */\n      dup3\n        /* \"#utility.yul\":2380:2417   */\n      mstore\n        /* \"#utility.yul\":2305:2423   */\n      pop\n      pop\n      jump\t// out\n        /* \"#utility.yul\":2429:2544   */\n    tag_133:\n        /* \"#utility.yul\":2514:2537   */\n      tag_135\n        /* \"#utility.yul\":2531:2536   */\n      dup2\n        /* \"#utility.yul\":2514:2537   */\n      tag_136\n      jump\t// in\n    tag_135:\n        /* \"#utility.yul\":2509:2512   */\n      dup3\n        /* \"#utility.yul\":2502:2538   */\n      mstore\n        /* \"#utility.yul\":2429:2544   */\n      pop\n      pop\n      jump\t// out\n        /* \"#utility.yul\":2550:2772   */\n    tag_51:\n        /* \"#utility.yul\":2643:2647   */\n      0x00\n        /* \"#utility.yul\":2681:2683   */\n      0x20\n        /* \"#utility.yul\":2670:2679   */\n      dup3\n        /* \"#utility.yul\":2666:2684   */\n      add\n        /* \"#utility.yul\":2658:2684   */\n      swap1\n      pop\n        /* \"#utility.yul\":2694:2765   */\n      tag_138\n        /* \"#utility.yul\":2762:2763   */\n      0x00\n        /* \"#utility.yul\":2751:2760   */\n      dup4\n        /* \"#utility.yul\":2747:2764   */\n      add\n        /* \"#utility.yul\":2738:2744   */\n      dup5\n        /* \"#utility.yul\":2694:2765   */\n      tag_101\n      jump\t// in\n    tag_138:\n        /* \"#utility.yul\":2550:2772   */\n      swap3\n      swap2\n      pop\n      pop\n      jump\t// out\n        /* \"#utility.yul\":2778:3032   */\n    tag_18:\n        /* \"#utility.yul\":2887:2891   */\n      0x00\n        /* \"#utility.yul\":2925:2927   */\n      0x20\n        /* \"#utility.yul\":2914:2923   */\n      dup3\n        /* \"#utility.yul\":2910:2928   */\n      add\n        /* \"#utility.yul\":2902:2928   */\n      swap1\n      pop\n        /* \"#utility.yul\":2938:3025   */\n      tag_140\n        /* \"#utility.yul\":3022:3023   */\n      0x00\n        /* \"#utility.yul\":3011:3020   */\n      dup4\n        /* \"#utility.yul\":3007:3024   */\n      add\n        /* \"#utility.yul\":2998:3004   */\n      dup5\n        /* \"#utility.yul\":2938:3025   */\n      tag_97\n      jump\t// in\n    tag_140:\n        /* \"#utility.yul\":2778:3032   */\n      swap3\n      swap2\n      pop\n      pop\n      jump\t// out\n        /* \"#utility.yul\":3038:3496   */\n    tag_79:\n        /* \"#utility.yul\":3195:3199   */\n      0x00\n        /* \"#utility.yul\":3233:3235   */\n      0x60\n        /* \"#utility.yul\":3222:3231   */\n      dup3\n        /* \"#utility.yul\":3218:3236   */\n      add\n        /* \"#utility.yul\":3210:3236   */\n      swap1\n      pop\n        /* \"#utility.yul\":3246:3325   */\n      tag_142\n        /* \"#utility.yul\":3322:3323   */\n      0x00\n        /* \"#utility.yul\":3311:3320   */\n      dup4\n        /* \"#utility.yul\":3307:3324   */\n      add\n        /* \"#utility.yul\":3298:3304   */\n      dup7\n        /* \"#utility.yul\":3246:3325   */\n      tag_93\n      jump\t// in\n    tag_142:\n        /* \"#utility.yul\":3335:3407   */\n      tag_143\n        /* \"#utility.yul\":3403:3405   */\n      0x20\n        /* \"#utility.yul\":3392:3401   */\n      dup4\n        /* \"#utility.yul\":3388:3406   */\n      add\n        /* \"#utility.yul\":3379:3385   */\n      dup6\n        /* \"#utility.yul\":3335:3407   */\n      tag_101\n      jump\t// in\n    tag_143:\n        /* \"#utility.yul\":3417:3489   */\n      tag_144\n        /* \"#utility.yul\":3485:3487   */\n      0x40\n        /* \"#utility.yul\":3474:3483   */\n      dup4\n        /* \"#utility.yul\":3470:3488   */\n      add\n        /* \"#utility.yul\":3461:3467   */\n      dup5\n        /* \"#utility.yul\":3417:3489   */\n      tag_129\n      jump\t// in\n    tag_144:\n        /* \"#utility.yul\":3038:3496   */\n      swap5\n      swap4\n      pop\n      pop\n      pop\n      pop\n      jump\t// out\n        /* \"#utility.yul\":3502:3712   */\n    tag_23:\n        /* \"#utility.yul\":3589:3593   */\n      0x00\n        /* \"#utility.yul\":3627:3629   */\n      0x20\n        /* \"#utility.yul\":3616:3625   */\n      dup3\n        /* \"#utility.yul\":3612:3630   */\n      add\n        /* \"#utility.yul\":3604:3630   */\n      swap1\n      pop\n        /* \"#utility.yul\":3640:3705   */\n      tag_146\n        /* \"#utility.yul\":3702:3703   */\n      0x00\n        /* \"#utility.yul\":3691:3700   */\n      dup4\n        /* \"#utility.yul\":3687:3704   */\n      add\n        /* \"#utility.yul\":3678:3684   */\n      dup5\n        /* \"#utility.yul\":3640:3705   */\n      tag_105\n      jump\t// in\n    tag_146:\n        /* \"#utility.yul\":3502:3712   */\n      swap3\n      swap2\n      pop\n      pop\n      jump\t// out\n        /* \"#utility.yul\":3718:3968   */\n    tag_34:\n        /* \"#utility.yul\":3825:3829   */\n      0x00\n        /* \"#utility.yul\":3863:3865   */\n      0x20\n        /* \"#utility.yul\":3852:3861   */\n      dup3\n        /* \"#utility.yul\":3848:3866   */\n      add\n        /* \"#utility.yul\":3840:3866   */\n      swap1\n      pop\n        /* \"#utility.yul\":3876:3961   */\n      tag_148\n        /* \"#utility.yul\":3958:3959   */\n      0x00\n        /* \"#utility.yul\":3947:3956   */\n      dup4\n        /* \"#utility.yul\":3943:3960   */\n      add\n        /* \"#utility.yul\":3934:3940   */\n      dup5\n        /* \"#utility.yul\":3876:3961   */\n      tag_109\n      jump\t// in\n    tag_148:\n        /* \"#utility.yul\":3718:3968   */\n      swap3\n      swap2\n      pop\n      pop\n      jump\t// out\n        /* \"#utility.yul\":3974:4393   */\n    tag_66:\n        /* \"#utility.yul\":4140:4144   */\n      0x00\n        /* \"#utility.yul\":4178:4180   */\n      0x20\n        /* \"#utility.yul\":4167:4176   */\n      dup3\n        /* \"#utility.yul\":4163:4181   */\n      add\n        /* \"#utility.yul\":4155:4181   */\n      swap1\n      pop\n        /* \"#utility.yul\":4227:4236   */\n      dup2\n        /* \"#utility.yul\":4221:4225   */\n      dup2\n        /* \"#utility.yul\":4217:4237   */\n      sub\n        /* \"#utility.yul\":4213:4214   */\n      0x00\n        /* \"#utility.yul\":4202:4211   */\n      dup4\n        /* \"#utility.yul\":4198:4215   */\n      add\n        /* \"#utility.yul\":4191:4238   */\n      mstore\n        /* \"#utility.yul\":4255:4386   */\n      tag_150\n        /* \"#utility.yul\":4381:4385   */\n      dup2\n        /* \"#utility.yul\":4255:4386   */\n      tag_113\n      jump\t// in\n    tag_150:\n        /* \"#utility.yul\":4247:4386   */\n      swap1\n      pop\n        /* \"#utility.yul\":3974:4393   */\n      swap2\n      swap1\n      pop\n      jump\t// out\n        /* \"#utility.yul\":4399:4818   */\n    tag_75:\n        /* \"#utility.yul\":4565:4569   */\n      0x00\n        /* \"#utility.yul\":4603:4605   */\n      0x20\n        /* \"#utility.yul\":4592:4601   */\n      dup3\n        /* \"#utility.yul\":4588:4606   */\n      add\n        /* \"#utility.yul\":4580:4606   */\n      swap1\n      pop\n        /* \"#utility.yul\":4652:4661   */\n      dup2\n        /* \"#utility.yul\":4646:4650   */\n      dup2\n        /* \"#utility.yul\":4642:4662   */\n      sub\n        /* \"#utility.yul\":4638:4639   */\n      0x00\n        /* \"#utility.yul\":4627:4636   */\n      dup4\n        /* \"#utility.yul\":4623:4640   */\n      add\n        /* \"#utility.yul\":4616:4663   */\n      mstore\n        /* \"#utility.yul\":4680:4811   */\n      tag_152\n        /* \"#utility.yul\":4806:4810   */\n      dup2\n        /* \"#utility.yul\":4680:4811   */\n      tag_119\n      jump\t// in\n    tag_152:\n        /* \"#utility.yul\":4672:4811   */\n      swap1\n      pop\n        /* \"#utility.yul\":4399:4818   */\n      swap2\n      swap1\n      pop\n      jump\t// out\n        /* \"#utility.yul\":4824:5243   */\n    tag_69:\n        /* \"#utility.yul\":4990:4994   */\n      0x00\n        /* \"#utility.yul\":5028:5030   */\n      0x20\n        /* \"#utility.yul\":5017:5026   */\n      dup3\n        /* \"#utility.yul\":5013:5031   */\n      add\n        /* \"#utility.yul\":5005:5031   */\n      swap1\n      pop\n        /* \"#utility.yul\":5077:5086   */\n      dup2\n        /* \"#utility.yul\":5071:5075   */\n      dup2\n        /* \"#utility.yul\":5067:5087   */\n      sub\n        /* \"#utility.yul\":5063:5064   */\n      0x00\n        /* \"#utility.yul\":5052:5061   */\n      dup4\n        /* \"#utility.yul\":5048:5065   */\n      add\n        /* \"#utility.yul\":5041:5088   */\n      mstore\n        /* \"#utility.yul\":5105:5236   */\n      tag_154\n        /* \"#utility.yul\":5231:5235   */\n      dup2\n        /* \"#utility.yul\":5105:5236   */\n      tag_124\n      jump\t// in\n    tag_154:\n        /* \"#utility.yul\":5097:5236   */\n      swap1\n      pop\n        /* \"#utility.yul\":4824:5243   */\n      swap2\n      swap1\n      pop\n      jump\t// out\n        /* \"#utility.yul\":5249:5471   */\n    tag_41:\n        /* \"#utility.yul\":5342:5346   */\n      0x00\n        /* \"#utility.yul\":5380:5382   */\n      0x20\n        /* \"#utility.yul\":5369:5378   */\n      dup3\n        /* \"#utility.yul\":5365:5383   */\n      add\n        /* \"#utility.yul\":5357:5383   */\n      swap1\n      pop\n        /* \"#utility.yul\":5393:5464   */\n      tag_156\n        /* \"#utility.yul\":5461:5462   */\n      0x00\n        /* \"#utility.yul\":5450:5459   */\n      dup4\n        /* \"#utility.yul\":5446:5463   */\n      add\n        /* \"#utility.yul\":5437:5443   */\n      dup5\n        /* \"#utility.yul\":5393:5464   */\n      tag_129\n      jump\t// in\n    tag_156:\n        /* \"#utility.yul\":5249:5471   */\n      swap3\n      swap2\n      pop\n      pop\n      jump\t// out\n        /* \"#utility.yul\":5477:5695   */\n    tag_46:\n        /* \"#utility.yul\":5568:5572   */\n      0x00\n        /* \"#utility.yul\":5606:5608   */\n      0x20\n        /* \"#utility.yul\":5595:5604   */\n      dup3\n        /* \"#utility.yul\":5591:5609   */\n      add\n        /* \"#utility.yul\":5583:5609   */\n      swap1\n      pop\n        /* \"#utility.yul\":5619:5688   */\n      tag_158\n        /* \"#utility.yul\":5685:5686   */\n      0x00\n        /* \"#utility.yul\":5674:5683   */\n      dup4\n        /* \"#utility.yul\":5670:5687   */\n      add\n        /* \"#utility.yul\":5661:5667   */\n      dup5\n        /* \"#utility.yul\":5619:5688   */\n      tag_133\n      jump\t// in\n    tag_158:\n        /* \"#utility.yul\":5477:5695   */\n      swap3\n      swap2\n      pop\n      pop\n      jump\t// out\n        /* \"#utility.yul\":5782:5951   */\n    tag_116:\n        /* \"#utility.yul\":5866:5877   */\n      0x00\n        /* \"#utility.yul\":5900:5906   */\n      dup3\n        /* \"#utility.yul\":5895:5898   */\n      dup3\n        /* \"#utility.yul\":5888:5907   */\n      mstore\n        /* \"#utility.yul\":5940:5944   */\n      0x20\n        /* \"#utility.yul\":5935:5938   */\n      dup3\n        /* \"#utility.yul\":5931:5945   */\n      add\n        /* \"#utility.yul\":5916:5945   */\n      swap1\n      pop\n        /* \"#utility.yul\":5782:5951   */\n      swap3\n      swap2\n      pop\n      pop\n      jump\t// out\n        /* \"#utility.yul\":5957:6262   */\n    tag_77:\n        /* \"#utility.yul\":5997:6000   */\n      0x00\n        /* \"#utility.yul\":6016:6036   */\n      tag_163\n        /* \"#utility.yul\":6034:6035   */\n      dup3\n        /* \"#utility.yul\":6016:6036   */\n      tag_132\n      jump\t// in\n    tag_163:\n        /* \"#utility.yul\":6011:6036   */\n      swap2\n      pop\n        /* \"#utility.yul\":6050:6070   */\n      tag_164\n        /* \"#utility.yul\":6068:6069   */\n      dup4\n        /* \"#utility.yul\":6050:6070   */\n      tag_132\n      jump\t// in\n    tag_164:\n        /* \"#utility.yul\":6045:6070   */\n      swap3\n      pop\n        /* \"#utility.yul\":6204:6205   */\n      dup3\n        /* \"#utility.yul\":6136:6202   */\n      0xffffffffffffffffffffffffffffffffffffffffffffffffffffffffffffffff\n        /* \"#utility.yul\":6132:6206   */\n      sub\n        /* \"#utility.yul\":6129:6130   */\n      dup3\n        /* \"#utility.yul\":6126:6207   */\n      gt\n        /* \"#utility.yul\":6123:6230   */\n      iszero\n      tag_165\n      jumpi\n        /* \"#utility.yul\":6210:6228   */\n      tag_166\n      tag_167\n      jump\t// in\n    tag_166:\n        /* \"#utility.yul\":6123:6230   */\n    tag_165:\n        /* \"#utility.yul\":6254:6255   */\n      dup3\n        /* \"#utility.yul\":6251:6252   */\n      dup3\n        /* \"#utility.yul\":6247:6256   */\n      add\n        /* \"#utility.yul\":6240:6256   */\n      swap1\n      pop\n        /* \"#utility.yul\":5957:6262   */\n      swap3\n      swap2\n      pop\n      pop\n      jump\t// out\n        /* \"#utility.yul\":6268:6364   */\n    tag_104:\n        /* \"#utility.yul\":6305:6312   */\n      0x00\n        /* \"#utility.yul\":6334:6358   */\n      tag_169\n        /* \"#utility.yul\":6352:6357   */\n      dup3\n        /* \"#utility.yul\":6334:6358   */\n      tag_170\n      jump\t// in\n    tag_169:\n        /* \"#utility.yul\":6323:6358   */\n      swap1\n      pop\n        /* \"#utility.yul\":6268:6364   */\n      swap2\n      swap1\n      pop\n      jump\t// out\n        /* \"#utility.yul\":6370:6474   */\n    tag_100:\n        /* \"#utility.yul\":6415:6422   */\n      0x00\n        /* \"#utility.yul\":6444:6468   */\n      tag_172\n        /* \"#utility.yul\":6462:6467   */\n      dup3\n        /* \"#utility.yul\":6444:6468   */\n      tag_170\n      jump\t// in\n    tag_172:\n        /* \"#utility.yul\":6433:6468   */\n      swap1\n      pop\n        /* \"#utility.yul\":6370:6474   */\n      swap2\n      swap1\n      pop\n      jump\t// out\n        /* \"#utility.yul\":6480:6570   */\n    tag_108:\n        /* \"#utility.yul\":6514:6521   */\n      0x00\n        /* \"#utility.yul\":6557:6562   */\n      dup2\n        /* \"#utility.yul\":6550:6563   */\n      iszero\n        /* \"#utility.yul\":6543:6564   */\n      iszero\n        /* \"#utility.yul\":6532:6564   */\n      swap1\n      pop\n        /* \"#utility.yul\":6480:6570   */\n      swap2\n      swap1\n      pop\n      jump\t// out\n        /* \"#utility.yul\":6576:6702   */\n    tag_170:\n        /* \"#utility.yul\":6613:6620   */\n      0x00\n        /* \"#utility.yul\":6653:6695   */\n      0xffffffffffffffffffffffffffffffffffffffff\n        /* \"#utility.yul\":6646:6651   */\n      dup3\n        /* \"#utility.yul\":6642:6696   */\n      and\n        /* \"#utility.yul\":6631:6696   */\n      swap1\n      pop\n        /* \"#utility.yul\":6576:6702   */\n      swap2\n      swap1\n      pop\n      jump\t// out\n        /* \"#utility.yul\":6708:6785   */\n    tag_132:\n        /* \"#utility.yul\":6745:6752   */\n      0x00\n        /* \"#utility.yul\":6774:6779   */\n      dup2\n        /* \"#utility.yul\":6763:6779   */\n      swap1\n      pop\n        /* \"#utility.yul\":6708:6785   */\n      swap2\n      swap1\n      pop\n      jump\t// out\n        /* \"#utility.yul\":6791:6884   */\n    tag_136:\n        /* \"#utility.yul\":6827:6834   */\n      0x00\n        /* \"#utility.yul\":6867:6877   */\n      0xffffffff\n        /* \"#utility.yul\":6860:6865   */\n      dup3\n        /* \"#utility.yul\":6856:6878   */\n      and\n        /* \"#utility.yul\":6845:6878   */\n      swap1\n      pop\n        /* \"#utility.yul\":6791:6884   */\n      swap2\n      swap1\n      pop\n      jump\t// out\n        /* \"#utility.yul\":6890:7024   */\n    tag_96:\n        /* \"#utility.yul\":6948:6957   */\n      0x00\n        /* \"#utility.yul\":6981:7018   */\n      tag_178\n        /* \"#utility.yul\":7012:7017   */\n      dup3\n        /* \"#utility.yul\":6981:7018   */\n      tag_179\n      jump\t// in\n    tag_178:\n        /* \"#utility.yul\":6968:7018   */\n      swap1\n      pop\n        /* \"#utility.yul\":6890:7024   */\n      swap2\n      swap1\n      pop\n      jump\t// out\n        /* \"#utility.yul\":7030:7170   */\n    tag_112:\n        /* \"#utility.yul\":7094:7103   */\n      0x00\n        /* \"#utility.yul\":7127:7164   */\n      tag_181\n        /* \"#utility.yul\":7158:7163   */\n      dup3\n        /* \"#utility.yul\":7127:7164   */\n      tag_179\n      jump\t// in\n    tag_181:\n        /* \"#utility.yul\":7114:7164   */\n      swap1\n      pop\n        /* \"#utility.yul\":7030:7170   */\n      swap2\n      swap1\n      pop\n      jump\t// out\n        /* \"#utility.yul\":7176:7302   */\n    tag_179:\n        /* \"#utility.yul\":7226:7235   */\n      0x00\n        /* \"#utility.yul\":7259:7296   */\n      tag_183\n        /* \"#utility.yul\":7290:7295   */\n      dup3\n        /* \"#utility.yul\":7259:7296   */\n      tag_184\n      jump\t// in\n    tag_183:\n        /* \"#utility.yul\":7246:7296   */\n      swap1\n      pop\n        /* \"#utility.yul\":7176:7302   */\n      swap2\n      swap1\n      pop\n      jump\t// out\n        /* \"#utility.yul\":7308:7421   */\n    tag_184:\n        /* \"#utility.yul\":7358:7367   */\n      0x00\n        /* \"#utility.yul\":7391:7415   */\n      tag_186\n        /* \"#utility.yul\":7409:7414   */\n      dup3\n        /* \"#utility.yul\":7391:7415   */\n      tag_170\n      jump\t// in\n    tag_186:\n        /* \"#utility.yul\":7378:7415   */\n      swap1\n      pop\n        /* \"#utility.yul\":7308:7421   */\n      swap2\n      swap1\n      pop\n      jump\t// out\n        /* \"#utility.yul\":7427:7607   */\n    tag_167:\n        /* \"#utility.yul\":7475:7552   */\n      0x4e487b7100000000000000000000000000000000000000000000000000000000\n        /* \"#utility.yul\":7472:7473   */\n      0x00\n        /* \"#utility.yul\":7465:7553   */\n      mstore\n        /* \"#utility.yul\":7572:7576   */\n      0x11\n        /* \"#utility.yul\":7569:7570   */\n      0x04\n        /* \"#utility.yul\":7562:7577   */\n      mstore\n        /* \"#utility.yul\":7596:7600   */\n      0x24\n        /* \"#utility.yul\":7593:7594   */\n      0x00\n        /* \"#utility.yul\":7586:7601   */\n      revert\n        /* \"#utility.yul\":7736:7853   */\n    tag_91:\n        /* \"#utility.yul\":7845:7846   */\n      0x00\n        /* \"#utility.yul\":7842:7843   */\n      dup1\n        /* \"#utility.yul\":7835:7847   */\n      revert\n        /* \"#utility.yul\":7859:8012   */\n    tag_118:\n        /* \"#utility.yul\":7999:8004   */\n      0x6e6f740000000000000000000000000000000000000000000000000000000000\n        /* \"#utility.yul\":7995:7996   */\n      0x00\n        /* \"#utility.yul\":7987:7993   */\n      dup3\n        /* \"#utility.yul\":7983:7997   */\n      add\n        /* \"#utility.yul\":7976:8005   */\n      mstore\n        /* \"#utility.yul\":7859:8012   */\n      pop\n      jump\t// out\n        /* \"#utility.yul\":8018:8175   */\n    tag_123:\n        /* \"#utility.yul\":8158:8167   */\n      0x7374617274656400000000000000000000000000000000000000000000000000\n        /* \"#utility.yul\":8154:8155   */\n      0x00\n        /* \"#utility.yul\":8146:8152   */\n      dup3\n        /* \"#utility.yul\":8142:8156   */\n      add\n        /* \"#utility.yul\":8135:8168   */\n      mstore\n        /* \"#utility.yul\":8018:8175   */\n      pop\n      jump\t// out\n        /* \"#utility.yul\":8181:8336   */\n    tag_128:\n        /* \"#utility.yul\":8321:8328   */\n      0x656e646564000000000000000000000000000000000000000000000000000000\n        /* \"#utility.yul\":8317:8318   */\n      0x00\n        /* \"#utility.yul\":8309:8315   */\n      dup3\n        /* \"#utility.yul\":8305:8319   */\n      add\n        /* \"#utility.yul\":8298:8329   */\n      mstore\n        /* \"#utility.yul\":8181:8336   */\n      pop\n      jump\t// out\n        /* \"#utility.yul\":8342:8464   */\n    tag_87:\n        /* \"#utility.yul\":8415:8439   */\n      tag_195\n        /* \"#utility.yul\":8433:8438   */\n      dup2\n        /* \"#utility.yul\":8415:8439   */\n      tag_104\n      jump\t// in\n    tag_195:\n        /* \"#utility.yul\":8408:8413   */\n      dup2\n        /* \"#utility.yul\":8405:8440   */\n      eq\n        /* \"#utility.yul\":8395:8458   */\n      tag_196\n      jumpi\n        /* \"#utility.yul\":8454:8455   */\n      0x00\n        /* \"#utility.yul\":8451:8452   */\n      dup1\n        /* \"#utility.yul\":8444:8456   */\n      revert\n        /* \"#utility.yul\":8395:8458   */\n    tag_196:\n        /* \"#utility.yul\":8342:8464   */\n      pop\n      jump\t// out\n\n    auxdata: 0xa2646970667358221220b7b2d1109b759d3369d2099cda64c8309ae40694b25d75e46ac6e1fa8fdbd7a564736f6c63430008070033\n}\n",
				"bytecode": {
					"linkReferences": {},
					"object": "60e06040523480156200001157600080fd5b5060405162000c7e38038062000c7e8339818101604052810190620000379190620000eb565b8273ffffffffffffffffffffffffffffffffffffffff1660808173ffffffffffffffffffffffffffffffffffffffff1660601b815250508160a081815250503373ffffffffffffffffffffffffffffffffffffffff1660c08173ffffffffffffffffffffffffffffffffffffffff1660601b8152505080600181905550505050620001be565b600081519050620000ce816200018a565b92915050565b600081519050620000e581620001a4565b92915050565b60008060006060848603121562000107576200010662000185565b5b60006200011786828701620000bd565b93505060206200012a86828701620000d4565b92505060406200013d86828701620000d4565b9150509250925092565b600062000154826200015b565b9050919050565b600073ffffffffffffffffffffffffffffffffffffffff82169050919050565b6000819050919050565b600080fd5b620001958162000147565b8114620001a157600080fd5b50565b620001af816200017b565b8114620001bb57600080fd5b50565b60805160601c60a05160c05160601c610a6e6200021060003960008181610259015281816103c2015261052301526000818161054501526105e401526000818161034c01526104e70152610a6e6000f3fe60806040526004361061009c5760003560e01c806362ea82db1161006457806362ea82db146101575780637cc3ae8c1461019457806391f90157146101bf578063be9a6555146101ea578063c6bc518214610201578063d57bde791461022c5761009c565b806308551a53146100a157806312fa6feb146100cc5780631998aeef146100f75780631f2698ab1461010157806347ccca021461012c575b600080fd5b3480156100ad57600080fd5b506100b6610257565b6040516100c3919061073b565b60405180910390f35b3480156100d857600080fd5b506100e161027b565b6040516100ee919061078d565b60405180910390f35b6100ff61028e565b005b34801561010d57600080fd5b50610116610337565b604051610123919061078d565b60405180910390f35b34801561013857600080fd5b5061014161034a565b60405161014e91906107a8565b60405180910390f35b34801561016357600080fd5b5061017e60048036038101906101799190610621565b61036e565b60405161018b9190610823565b60405180910390f35b3480156101a057600080fd5b506101a9610386565b6040516101b6919061083e565b60405180910390f35b3480156101cb57600080fd5b506101d461039a565b6040516101e19190610720565b60405180910390f35b3480156101f657600080fd5b506101ff6103c0565b005b34801561020d57600080fd5b506102166105e2565b6040516102239190610823565b60405180910390f35b34801561023857600080fd5b50610241610606565b60405161024e9190610823565b60405180910390f35b7f000000000000000000000000000000000000000000000000000000000000000081565b600060059054906101000a900460ff1681565b600060049054906101000a900460ff166102dd576040517f08c379a00000000000000000000000000000000000000000000000000000000081526004016102d4906107c3565b60405180910390fd5b60008054906101000a900463ffffffff1663ffffffff164210610335576040517f08c379a000000000000000000000000000000000000000000000000000000000815260040161032c90610803565b60405180910390fd5b565b600060049054906101000a900460ff1681565b7f000000000000000000000000000000000000000000000000000000000000000081565b60026020528060005260406000206000915090505481565b60008054906101000a900463ffffffff1681565b600060069054906101000a900473ffffffffffffffffffffffffffffffffffffffff1681565b7f000000000000000000000000000000000000000000000000000000000000000073ffffffffffffffffffffffffffffffffffffffff163373ffffffffffffffffffffffffffffffffffffffff161461044e576040517f08c379a0000000000000000000000000000000000000000000000000000000008152600401610445906107c3565b60405180910390fd5b600060049054906101000a900460ff161561049e576040517f08c379a0000000000000000000000000000000000000000000000000000000008152600401610495906107e3565b60405180910390fd5b6001600060046101000a81548160ff021916908315150217905550603c426104c6919061086a565b6000806101000a81548163ffffffff021916908363ffffffff1602179055507f000000000000000000000000000000000000000000000000000000000000000073ffffffffffffffffffffffffffffffffffffffff166323b872dd7f0000000000000000000000000000000000000000000000000000000000000000307f00000000000000000000000000000000000000000000000000000000000000006040518463ffffffff1660e01b815260040161058293929190610756565b600060405180830381600087803b15801561059c57600080fd5b505af11580156105b0573d6000803e3d6000fd5b505050507f1b55ba3aa851a46be3b365aee5b5c140edd620d578922f3e8466d2cbd96f954b60405160405180910390a1565b7f000000000000000000000000000000000000000000000000000000000000000081565b60015481565b60008135905061061b81610a21565b92915050565b600060208284031215610637576106366109a1565b5b60006106458482850161060c565b91505092915050565b6106578161092a565b82525050565b610666816108d2565b82525050565b610675816108c0565b82525050565b610684816108e4565b82525050565b6106938161093c565b82525050565b60006106a6600383610859565b91506106b1826109a6565b602082019050919050565b60006106c9600783610859565b91506106d4826109cf565b602082019050919050565b60006106ec600583610859565b91506106f7826109f8565b602082019050919050565b61070b81610910565b82525050565b61071a8161091a565b82525050565b6000602082019050610735600083018461066c565b92915050565b6000602082019050610750600083018461065d565b92915050565b600060608201905061076b600083018661064e565b610778602083018561066c565b6107856040830184610702565b949350505050565b60006020820190506107a2600083018461067b565b92915050565b60006020820190506107bd600083018461068a565b92915050565b600060208201905081810360008301526107dc81610699565b9050919050565b600060208201905081810360008301526107fc816106bc565b9050919050565b6000602082019050818103600083015261081c816106df565b9050919050565b60006020820190506108386000830184610702565b92915050565b60006020820190506108536000830184610711565b92915050565b600082825260208201905092915050565b600061087582610910565b915061088083610910565b9250827fffffffffffffffffffffffffffffffffffffffffffffffffffffffffffffffff038211156108b5576108b4610972565b5b828201905092915050565b60006108cb826108f0565b9050919050565b60006108dd826108f0565b9050919050565b60008115159050919050565b600073ffffffffffffffffffffffffffffffffffffffff82169050919050565b6000819050919050565b600063ffffffff82169050919050565b60006109358261094e565b9050919050565b60006109478261094e565b9050919050565b600061095982610960565b9050919050565b600061096b826108f0565b9050919050565b7f4e487b7100000000000000000000000000000000000000000000000000000000600052601160045260246000fd5b600080fd5b7f6e6f740000000000000000000000000000000000000000000000000000000000600082015250565b7f7374617274656400000000000000000000000000000000000000000000000000600082015250565b7f656e646564000000000000000000000000000000000000000000000000000000600082015250565b610a2a816108c0565b8114610a3557600080fd5b5056fea2646970667358221220b7b2d1109b759d3369d2099cda64c8309ae40694b25d75e46ac6e1fa8fdbd7a564736f6c63430008070033",
					"opcodes": "PUSH1 0xE0 PUSH1 0x40 MSTORE CALLVALUE DUP1 ISZERO PUSH3 0x11 JUMPI PUSH1 0x0 DUP1 REVERT JUMPDEST POP PUSH1 0x40 MLOAD PUSH3 0xC7E CODESIZE SUB DUP1 PUSH3 0xC7E DUP4 CODECOPY DUP2 DUP2 ADD PUSH1 0x40 MSTORE DUP2 ADD SWAP1 PUSH3 0x37 SWAP2 SWAP1 PUSH3 0xEB JUMP JUMPDEST DUP3 PUSH20 0xFFFFFFFFFFFFFFFFFFFFFFFFFFFFFFFFFFFFFFFF AND PUSH1 0x80 DUP2 PUSH20 0xFFFFFFFFFFFFFFFFFFFFFFFFFFFFFFFFFFFFFFFF AND PUSH1 0x60 SHL DUP2 MSTORE POP POP DUP2 PUSH1 0xA0 DUP2 DUP2 MSTORE POP POP CALLER PUSH20 0xFFFFFFFFFFFFFFFFFFFFFFFFFFFFFFFFFFFFFFFF AND PUSH1 0xC0 DUP2 PUSH20 0xFFFFFFFFFFFFFFFFFFFFFFFFFFFFFFFFFFFFFFFF AND PUSH1 0x60 SHL DUP2 MSTORE POP POP DUP1 PUSH1 0x1 DUP2 SWAP1 SSTORE POP POP POP POP PUSH3 0x1BE JUMP JUMPDEST PUSH1 0x0 DUP2 MLOAD SWAP1 POP PUSH3 0xCE DUP2 PUSH3 0x18A JUMP JUMPDEST SWAP3 SWAP2 POP POP JUMP JUMPDEST PUSH1 0x0 DUP2 MLOAD SWAP1 POP PUSH3 0xE5 DUP2 PUSH3 0x1A4 JUMP JUMPDEST SWAP3 SWAP2 POP POP JUMP JUMPDEST PUSH1 0x0 DUP1 PUSH1 0x0 PUSH1 0x60 DUP5 DUP7 SUB SLT ISZERO PUSH3 0x107 JUMPI PUSH3 0x106 PUSH3 0x185 JUMP JUMPDEST JUMPDEST PUSH1 0x0 PUSH3 0x117 DUP7 DUP3 DUP8 ADD PUSH3 0xBD JUMP JUMPDEST SWAP4 POP POP PUSH1 0x20 PUSH3 0x12A DUP7 DUP3 DUP8 ADD PUSH3 0xD4 JUMP JUMPDEST SWAP3 POP POP PUSH1 0x40 PUSH3 0x13D DUP7 DUP3 DUP8 ADD PUSH3 0xD4 JUMP JUMPDEST SWAP2 POP POP SWAP3 POP SWAP3 POP SWAP3 JUMP JUMPDEST PUSH1 0x0 PUSH3 0x154 DUP3 PUSH3 0x15B JUMP JUMPDEST SWAP1 POP SWAP2 SWAP1 POP JUMP JUMPDEST PUSH1 0x0 PUSH20 0xFFFFFFFFFFFFFFFFFFFFFFFFFFFFFFFFFFFFFFFF DUP3 AND SWAP1 POP SWAP2 SWAP1 POP JUMP JUMPDEST PUSH1 0x0 DUP2 SWAP1 POP SWAP2 SWAP1 POP JUMP JUMPDEST PUSH1 0x0 DUP1 REVERT JUMPDEST PUSH3 0x195 DUP2 PUSH3 0x147 JUMP JUMPDEST DUP2 EQ PUSH3 0x1A1 JUMPI PUSH1 0x0 DUP1 REVERT JUMPDEST POP JUMP JUMPDEST PUSH3 0x1AF DUP2 PUSH3 0x17B JUMP JUMPDEST DUP2 EQ PUSH3 0x1BB JUMPI PUSH1 0x0 DUP1 REVERT JUMPDEST POP JUMP JUMPDEST PUSH1 0x80 MLOAD PUSH1 0x60 SHR PUSH1 0xA0 MLOAD PUSH1 0xC0 MLOAD PUSH1 0x60 SHR PUSH2 0xA6E PUSH3 0x210 PUSH1 0x0 CODECOPY PUSH1 0x0 DUP2 DUP2 PUSH2 0x259 ADD MSTORE DUP2 DUP2 PUSH2 0x3C2 ADD MSTORE PUSH2 0x523 ADD MSTORE PUSH1 0x0 DUP2 DUP2 PUSH2 0x545 ADD MSTORE PUSH2 0x5E4 ADD MSTORE PUSH1 0x0 DUP2 DUP2 PUSH2 0x34C ADD MSTORE PUSH2 0x4E7 ADD MSTORE PUSH2 0xA6E PUSH1 0x0 RETURN INVALID PUSH1 0x80 PUSH1 0x40 MSTORE PUSH1 0x4 CALLDATASIZE LT PUSH2 0x9C JUMPI PUSH1 0x0 CALLDATALOAD PUSH1 0xE0 SHR DUP1 PUSH4 0x62EA82DB GT PUSH2 0x64 JUMPI DUP1 PUSH4 0x62EA82DB EQ PUSH2 0x157 JUMPI DUP1 PUSH4 0x7CC3AE8C EQ PUSH2 0x194 JUMPI DUP1 PUSH4 0x91F90157 EQ PUSH2 0x1BF JUMPI DUP1 PUSH4 0xBE9A6555 EQ PUSH2 0x1EA JUMPI DUP1 PUSH4 0xC6BC5182 EQ PUSH2 0x201 JUMPI DUP1 PUSH4 0xD57BDE79 EQ PUSH2 0x22C JUMPI PUSH2 0x9C JUMP JUMPDEST DUP1 PUSH4 0x8551A53 EQ PUSH2 0xA1 JUMPI DUP1 PUSH4 0x12FA6FEB EQ PUSH2 0xCC JUMPI DUP1 PUSH4 0x1998AEEF EQ PUSH2 0xF7 JUMPI DUP1 PUSH4 0x1F2698AB EQ PUSH2 0x101 JUMPI DUP1 PUSH4 0x47CCCA02 EQ PUSH2 0x12C JUMPI JUMPDEST PUSH1 0x0 DUP1 REVERT JUMPDEST CALLVALUE DUP1 ISZERO PUSH2 0xAD JUMPI PUSH1 0x0 DUP1 REVERT JUMPDEST POP PUSH2 0xB6 PUSH2 0x257 JUMP JUMPDEST PUSH1 0x40 MLOAD PUSH2 0xC3 SWAP2 SWAP1 PUSH2 0x73B JUMP JUMPDEST PUSH1 0x40 MLOAD DUP1 SWAP2 SUB SWAP1 RETURN JUMPDEST CALLVALUE DUP1 ISZERO PUSH2 0xD8 JUMPI PUSH1 0x0 DUP1 REVERT JUMPDEST POP PUSH2 0xE1 PUSH2 0x27B JUMP JUMPDEST PUSH1 0x40 MLOAD PUSH2 0xEE SWAP2 SWAP1 PUSH2 0x78D JUMP JUMPDEST PUSH1 0x40 MLOAD DUP1 SWAP2 SUB SWAP1 RETURN JUMPDEST PUSH2 0xFF PUSH2 0x28E JUMP JUMPDEST STOP JUMPDEST CALLVALUE DUP1 ISZERO PUSH2 0x10D JUMPI PUSH1 0x0 DUP1 REVERT JUMPDEST POP PUSH2 0x116 PUSH2 0x337 JUMP JUMPDEST PUSH1 0x40 MLOAD PUSH2 0x123 SWAP2 SWAP1 PUSH2 0x78D JUMP JUMPDEST PUSH1 0x40 MLOAD DUP1 SWAP2 SUB SWAP1 RETURN JUMPDEST CALLVALUE DUP1 ISZERO PUSH2 0x138 JUMPI PUSH1 0x0 DUP1 REVERT JUMPDEST POP PUSH2 0x141 PUSH2 0x34A JUMP JUMPDEST PUSH1 0x40 MLOAD PUSH2 0x14E SWAP2 SWAP1 PUSH2 0x7A8 JUMP JUMPDEST PUSH1 0x40 MLOAD DUP1 SWAP2 SUB SWAP1 RETURN JUMPDEST CALLVALUE DUP1 ISZERO PUSH2 0x163 JUMPI PUSH1 0x0 DUP1 REVERT JUMPDEST POP PUSH2 0x17E PUSH1 0x4 DUP1 CALLDATASIZE SUB DUP2 ADD SWAP1 PUSH2 0x179 SWAP2 SWAP1 PUSH2 0x621 JUMP JUMPDEST PUSH2 0x36E JUMP JUMPDEST PUSH1 0x40 MLOAD PUSH2 0x18B SWAP2 SWAP1 PUSH2 0x823 JUMP JUMPDEST PUSH1 0x40 MLOAD DUP1 SWAP2 SUB SWAP1 RETURN JUMPDEST CALLVALUE DUP1 ISZERO PUSH2 0x1A0 JUMPI PUSH1 0x0 DUP1 REVERT JUMPDEST POP PUSH2 0x1A9 PUSH2 0x386 JUMP JUMPDEST PUSH1 0x40 MLOAD PUSH2 0x1B6 SWAP2 SWAP1 PUSH2 0x83E JUMP JUMPDEST PUSH1 0x40 MLOAD DUP1 SWAP2 SUB SWAP1 RETURN JUMPDEST CALLVALUE DUP1 ISZERO PUSH2 0x1CB JUMPI PUSH1 0x0 DUP1 REVERT JUMPDEST POP PUSH2 0x1D4 PUSH2 0x39A JUMP JUMPDEST PUSH1 0x40 MLOAD PUSH2 0x1E1 SWAP2 SWAP1 PUSH2 0x720 JUMP JUMPDEST PUSH1 0x40 MLOAD DUP1 SWAP2 SUB SWAP1 RETURN JUMPDEST CALLVALUE DUP1 ISZERO PUSH2 0x1F6 JUMPI PUSH1 0x0 DUP1 REVERT JUMPDEST POP PUSH2 0x1FF PUSH2 0x3C0 JUMP JUMPDEST STOP JUMPDEST CALLVALUE DUP1 ISZERO PUSH2 0x20D JUMPI PUSH1 0x0 DUP1 REVERT JUMPDEST POP PUSH2 0x216 PUSH2 0x5E2 JUMP JUMPDEST PUSH1 0x40 MLOAD PUSH2 0x223 SWAP2 SWAP1 PUSH2 0x823 JUMP JUMPDEST PUSH1 0x40 MLOAD DUP1 SWAP2 SUB SWAP1 RETURN JUMPDEST CALLVALUE DUP1 ISZERO PUSH2 0x238 JUMPI PUSH1 0x0 DUP1 REVERT JUMPDEST POP PUSH2 0x241 PUSH2 0x606 JUMP JUMPDEST PUSH1 0x40 MLOAD PUSH2 0x24E SWAP2 SWAP1 PUSH2 0x823 JUMP JUMPDEST PUSH1 0x40 MLOAD DUP1 SWAP2 SUB SWAP1 RETURN JUMPDEST PUSH32 0x0 DUP2 JUMP JUMPDEST PUSH1 0x0 PUSH1 0x5 SWAP1 SLOAD SWAP1 PUSH2 0x100 EXP SWAP1 DIV PUSH1 0xFF AND DUP2 JUMP JUMPDEST PUSH1 0x0 PUSH1 0x4 SWAP1 SLOAD SWAP1 PUSH2 0x100 EXP SWAP1 DIV PUSH1 0xFF AND PUSH2 0x2DD JUMPI PUSH1 0x40 MLOAD PUSH32 0x8C379A000000000000000000000000000000000000000000000000000000000 DUP2 MSTORE PUSH1 0x4 ADD PUSH2 0x2D4 SWAP1 PUSH2 0x7C3 JUMP JUMPDEST PUSH1 0x40 MLOAD DUP1 SWAP2 SUB SWAP1 REVERT JUMPDEST PUSH1 0x0 DUP1 SLOAD SWAP1 PUSH2 0x100 EXP SWAP1 DIV PUSH4 0xFFFFFFFF AND PUSH4 0xFFFFFFFF AND TIMESTAMP LT PUSH2 0x335 JUMPI PUSH1 0x40 MLOAD PUSH32 0x8C379A000000000000000000000000000000000000000000000000000000000 DUP2 MSTORE PUSH1 0x4 ADD PUSH2 0x32C SWAP1 PUSH2 0x803 JUMP JUMPDEST PUSH1 0x40 MLOAD DUP1 SWAP2 SUB SWAP1 REVERT JUMPDEST JUMP JUMPDEST PUSH1 0x0 PUSH1 0x4 SWAP1 SLOAD SWAP1 PUSH2 0x100 EXP SWAP1 DIV PUSH1 0xFF AND DUP2 JUMP JUMPDEST PUSH32 0x0 DUP2 JUMP JUMPDEST PUSH1 0x2 PUSH1 0x20 MSTORE DUP1 PUSH1 0x0 MSTORE PUSH1 0x40 PUSH1 0x0 KECCAK256 PUSH1 0x0 SWAP2 POP SWAP1 POP SLOAD DUP2 JUMP JUMPDEST PUSH1 0x0 DUP1 SLOAD SWAP1 PUSH2 0x100 EXP SWAP1 DIV PUSH4 0xFFFFFFFF AND DUP2 JUMP JUMPDEST PUSH1 0x0 PUSH1 0x6 SWAP1 SLOAD SWAP1 PUSH2 0x100 EXP SWAP1 DIV PUSH20 0xFFFFFFFFFFFFFFFFFFFFFFFFFFFFFFFFFFFFFFFF AND DUP2 JUMP JUMPDEST PUSH32 0x0 PUSH20 0xFFFFFFFFFFFFFFFFFFFFFFFFFFFFFFFFFFFFFFFF AND CALLER PUSH20 0xFFFFFFFFFFFFFFFFFFFFFFFFFFFFFFFFFFFFFFFF AND EQ PUSH2 0x44E JUMPI PUSH1 0x40 MLOAD PUSH32 0x8C379A000000000000000000000000000000000000000000000000000000000 DUP2 MSTORE PUSH1 0x4 ADD PUSH2 0x445 SWAP1 PUSH2 0x7C3 JUMP JUMPDEST PUSH1 0x40 MLOAD DUP1 SWAP2 SUB SWAP1 REVERT JUMPDEST PUSH1 0x0 PUSH1 0x4 SWAP1 SLOAD SWAP1 PUSH2 0x100 EXP SWAP1 DIV PUSH1 0xFF AND ISZERO PUSH2 0x49E JUMPI PUSH1 0x40 MLOAD PUSH32 0x8C379A000000000000000000000000000000000000000000000000000000000 DUP2 MSTORE PUSH1 0x4 ADD PUSH2 0x495 SWAP1 PUSH2 0x7E3 JUMP JUMPDEST PUSH1 0x40 MLOAD DUP1 SWAP2 SUB SWAP1 REVERT JUMPDEST PUSH1 0x1 PUSH1 0x0 PUSH1 0x4 PUSH2 0x100 EXP DUP2 SLOAD DUP2 PUSH1 0xFF MUL NOT AND SWAP1 DUP4 ISZERO ISZERO MUL OR SWAP1 SSTORE POP PUSH1 0x3C TIMESTAMP PUSH2 0x4C6 SWAP2 SWAP1 PUSH2 0x86A JUMP JUMPDEST PUSH1 0x0 DUP1 PUSH2 0x100 EXP DUP2 SLOAD DUP2 PUSH4 0xFFFFFFFF MUL NOT AND SWAP1 DUP4 PUSH4 0xFFFFFFFF AND MUL OR SWAP1 SSTORE POP PUSH32 0x0 PUSH20 0xFFFFFFFFFFFFFFFFFFFFFFFFFFFFFFFFFFFFFFFF AND PUSH4 0x23B872DD PUSH32 0x0 ADDRESS PUSH32 0x0 PUSH1 0x40 MLOAD DUP5 PUSH4 0xFFFFFFFF AND PUSH1 0xE0 SHL DUP2 MSTORE PUSH1 0x4 ADD PUSH2 0x582 SWAP4 SWAP3 SWAP2 SWAP1 PUSH2 0x756 JUMP JUMPDEST PUSH1 0x0 PUSH1 0x40 MLOAD DUP1 DUP4 SUB DUP2 PUSH1 0x0 DUP8 DUP1 EXTCODESIZE ISZERO DUP1 ISZERO PUSH2 0x59C JUMPI PUSH1 0x0 DUP1 REVERT JUMPDEST POP GAS CALL ISZERO DUP1 ISZERO PUSH2 0x5B0 JUMPI RETURNDATASIZE PUSH1 0x0 DUP1 RETURNDATACOPY RETURNDATASIZE PUSH1 0x0 REVERT JUMPDEST POP POP POP POP PUSH32 0x1B55BA3AA851A46BE3B365AEE5B5C140EDD620D578922F3E8466D2CBD96F954B PUSH1 0x40 MLOAD PUSH1 0x40 MLOAD DUP1 SWAP2 SUB SWAP1 LOG1 JUMP JUMPDEST PUSH32 0x0 DUP2 JUMP JUMPDEST PUSH1 0x1 SLOAD DUP2 JUMP JUMPDEST PUSH1 0x0 DUP2 CALLDATALOAD SWAP1 POP PUSH2 0x61B DUP2 PUSH2 0xA21 JUMP JUMPDEST SWAP3 SWAP2 POP POP JUMP JUMPDEST PUSH1 0x0 PUSH1 0x20 DUP3 DUP5 SUB SLT ISZERO PUSH2 0x637 JUMPI PUSH2 0x636 PUSH2 0x9A1 JUMP JUMPDEST JUMPDEST PUSH1 0x0 PUSH2 0x645 DUP5 DUP3 DUP6 ADD PUSH2 0x60C JUMP JUMPDEST SWAP2 POP POP SWAP3 SWAP2 POP POP JUMP JUMPDEST PUSH2 0x657 DUP2 PUSH2 0x92A JUMP JUMPDEST DUP3 MSTORE POP POP JUMP JUMPDEST PUSH2 0x666 DUP2 PUSH2 0x8D2 JUMP JUMPDEST DUP3 MSTORE POP POP JUMP JUMPDEST PUSH2 0x675 DUP2 PUSH2 0x8C0 JUMP JUMPDEST DUP3 MSTORE POP POP JUMP JUMPDEST PUSH2 0x684 DUP2 PUSH2 0x8E4 JUMP JUMPDEST DUP3 MSTORE POP POP JUMP JUMPDEST PUSH2 0x693 DUP2 PUSH2 0x93C JUMP JUMPDEST DUP3 MSTORE POP POP JUMP JUMPDEST PUSH1 0x0 PUSH2 0x6A6 PUSH1 0x3 DUP4 PUSH2 0x859 JUMP JUMPDEST SWAP2 POP PUSH2 0x6B1 DUP3 PUSH2 0x9A6 JUMP JUMPDEST PUSH1 0x20 DUP3 ADD SWAP1 POP SWAP2 SWAP1 POP JUMP JUMPDEST PUSH1 0x0 PUSH2 0x6C9 PUSH1 0x7 DUP4 PUSH2 0x859 JUMP JUMPDEST SWAP2 POP PUSH2 0x6D4 DUP3 PUSH2 0x9CF JUMP JUMPDEST PUSH1 0x20 DUP3 ADD SWAP1 POP SWAP2 SWAP1 POP JUMP JUMPDEST PUSH1 0x0 PUSH2 0x6EC PUSH1 0x5 DUP4 PUSH2 0x859 JUMP JUMPDEST SWAP2 POP PUSH2 0x6F7 DUP3 PUSH2 0x9F8 JUMP JUMPDEST PUSH1 0x20 DUP3 ADD SWAP1 POP SWAP2 SWAP1 POP JUMP JUMPDEST PUSH2 0x70B DUP2 PUSH2 0x910 JUMP JUMPDEST DUP3 MSTORE POP POP JUMP JUMPDEST PUSH2 0x71A DUP2 PUSH2 0x91A JUMP JUMPDEST DUP3 MSTORE POP POP JUMP JUMPDEST PUSH1 0x0 PUSH1 0x20 DUP3 ADD SWAP1 POP PUSH2 0x735 PUSH1 0x0 DUP4 ADD DUP5 PUSH2 0x66C JUMP JUMPDEST SWAP3 SWAP2 POP POP JUMP JUMPDEST PUSH1 0x0 PUSH1 0x20 DUP3 ADD SWAP1 POP PUSH2 0x750 PUSH1 0x0 DUP4 ADD DUP5 PUSH2 0x65D JUMP JUMPDEST SWAP3 SWAP2 POP POP JUMP JUMPDEST PUSH1 0x0 PUSH1 0x60 DUP3 ADD SWAP1 POP PUSH2 0x76B PUSH1 0x0 DUP4 ADD DUP7 PUSH2 0x64E JUMP JUMPDEST PUSH2 0x778 PUSH1 0x20 DUP4 ADD DUP6 PUSH2 0x66C JUMP JUMPDEST PUSH2 0x785 PUSH1 0x40 DUP4 ADD DUP5 PUSH2 0x702 JUMP JUMPDEST SWAP5 SWAP4 POP POP POP POP JUMP JUMPDEST PUSH1 0x0 PUSH1 0x20 DUP3 ADD SWAP1 POP PUSH2 0x7A2 PUSH1 0x0 DUP4 ADD DUP5 PUSH2 0x67B JUMP JUMPDEST SWAP3 SWAP2 POP POP JUMP JUMPDEST PUSH1 0x0 PUSH1 0x20 DUP3 ADD SWAP1 POP PUSH2 0x7BD PUSH1 0x0 DUP4 ADD DUP5 PUSH2 0x68A JUMP JUMPDEST SWAP3 SWAP2 POP POP JUMP JUMPDEST PUSH1 0x0 PUSH1 0x20 DUP3 ADD SWAP1 POP DUP2 DUP2 SUB PUSH1 0x0 DUP4 ADD MSTORE PUSH2 0x7DC DUP2 PUSH2 0x699 JUMP JUMPDEST SWAP1 POP SWAP2 SWAP1 POP JUMP JUMPDEST PUSH1 0x0 PUSH1 0x20 DUP3 ADD SWAP1 POP DUP2 DUP2 SUB PUSH1 0x0 DUP4 ADD MSTORE PUSH2 0x7FC DUP2 PUSH2 0x6BC JUMP JUMPDEST SWAP1 POP SWAP2 SWAP1 POP JUMP JUMPDEST PUSH1 0x0 PUSH1 0x20 DUP3 ADD SWAP1 POP DUP2 DUP2 SUB PUSH1 0x0 DUP4 ADD MSTORE PUSH2 0x81C DUP2 PUSH2 0x6DF JUMP JUMPDEST SWAP1 POP SWAP2 SWAP1 POP JUMP JUMPDEST PUSH1 0x0 PUSH1 0x20 DUP3 ADD SWAP1 POP PUSH2 0x838 PUSH1 0x0 DUP4 ADD DUP5 PUSH2 0x702 JUMP JUMPDEST SWAP3 SWAP2 POP POP JUMP JUMPDEST PUSH1 0x0 PUSH1 0x20 DUP3 ADD SWAP1 POP PUSH2 0x853 PUSH1 0x0 DUP4 ADD DUP5 PUSH2 0x711 JUMP JUMPDEST SWAP3 SWAP2 POP POP JUMP JUMPDEST PUSH1 0x0 DUP3 DUP3 MSTORE PUSH1 0x20 DUP3 ADD SWAP1 POP SWAP3 SWAP2 POP POP JUMP JUMPDEST PUSH1 0x0 PUSH2 0x875 DUP3 PUSH2 0x910 JUMP JUMPDEST SWAP2 POP PUSH2 0x880 DUP4 PUSH2 0x910 JUMP JUMPDEST SWAP3 POP DUP3 PUSH32 0xFFFFFFFFFFFFFFFFFFFFFFFFFFFFFFFFFFFFFFFFFFFFFFFFFFFFFFFFFFFFFFFF SUB DUP3 GT ISZERO PUSH2 0x8B5 JUMPI PUSH2 0x8B4 PUSH2 0x972 JUMP JUMPDEST JUMPDEST DUP3 DUP3 ADD SWAP1 POP SWAP3 SWAP2 POP POP JUMP JUMPDEST PUSH1 0x0 PUSH2 0x8CB DUP3 PUSH2 0x8F0 JUMP JUMPDEST SWAP1 POP SWAP2 SWAP1 POP JUMP JUMPDEST PUSH1 0x0 PUSH2 0x8DD DUP3 PUSH2 0x8F0 JUMP JUMPDEST SWAP1 POP SWAP2 SWAP1 POP JUMP JUMPDEST PUSH1 0x0 DUP2 ISZERO ISZERO SWAP1 POP SWAP2 SWAP1 POP JUMP JUMPDEST PUSH1 0x0 PUSH20 0xFFFFFFFFFFFFFFFFFFFFFFFFFFFFFFFFFFFFFFFF DUP3 AND SWAP1 POP SWAP2 SWAP1 POP JUMP JUMPDEST PUSH1 0x0 DUP2 SWAP1 POP SWAP2 SWAP1 POP JUMP JUMPDEST PUSH1 0x0 PUSH4 0xFFFFFFFF DUP3 AND SWAP1 POP SWAP2 SWAP1 POP JUMP JUMPDEST PUSH1 0x0 PUSH2 0x935 DUP3 PUSH2 0x94E JUMP JUMPDEST SWAP1 POP SWAP2 SWAP1 POP JUMP JUMPDEST PUSH1 0x0 PUSH2 0x947 DUP3 PUSH2 0x94E JUMP JUMPDEST SWAP1 POP SWAP2 SWAP1 POP JUMP JUMPDEST PUSH1 0x0 PUSH2 0x959 DUP3 PUSH2 0x960 JUMP JUMPDEST SWAP1 POP SWAP2 SWAP1 POP JUMP JUMPDEST PUSH1 0x0 PUSH2 0x96B DUP3 PUSH2 0x8F0 JUMP JUMPDEST SWAP1 POP SWAP2 SWAP1 POP JUMP JUMPDEST PUSH32 0x4E487B7100000000000000000000000000000000000000000000000000000000 PUSH1 0x0 MSTORE PUSH1 0x11 PUSH1 0x4 MSTORE PUSH1 0x24 PUSH1 0x0 REVERT JUMPDEST PUSH1 0x0 DUP1 REVERT JUMPDEST PUSH32 0x6E6F740000000000000000000000000000000000000000000000000000000000 PUSH1 0x0 DUP3 ADD MSTORE POP JUMP JUMPDEST PUSH32 0x7374617274656400000000000000000000000000000000000000000000000000 PUSH1 0x0 DUP3 ADD MSTORE POP JUMP JUMPDEST PUSH32 0x656E646564000000000000000000000000000000000000000000000000000000 PUSH1 0x0 DUP3 ADD MSTORE POP JUMP JUMPDEST PUSH2 0xA2A DUP2 PUSH2 0x8C0 JUMP JUMPDEST DUP2 EQ PUSH2 0xA35 JUMPI PUSH1 0x0 DUP1 REVERT JUMPDEST POP JUMP INVALID LOG2 PUSH5 0x6970667358 0x22 SLT KECCAK256 0xB7 0xB2 0xD1 LT SWAP12 PUSH22 0x9D3369D2099CDA64C8309AE40694B25D75E46AC6E1FA DUP16 0xDB 0xD7 0xA5 PUSH5 0x736F6C6343 STOP ADDMOD SMOD STOP CALLER "
				},
				"gasEstimates": {
					"creation": {
						"codeDepositCost": "534000",
						"executionCost": "infinite",
						"totalCost": "infinite"
					},
					"external": {
						"bid()": "4818",
						"bids(address)": "2814",
						"endAt()": "2490",
						"ended()": "2544",
						"highestBid()": "2539",
						"highestBidder()": "2608",
						"nft()": "infinite",
						"nftId()": "infinite",
						"seller()": "infinite",
						"start()": "infinite",
						"started()": "2588"
					}
				},
				"methodIdentifiers": {
					"bid()": "1998aeef",
					"bids(address)": "62ea82db",
					"endAt()": "7cc3ae8c",
					"ended()": "12fa6feb",
					"highestBid()": "d57bde79",
					"highestBidder()": "91f90157",
					"nft()": "47ccca02",
					"nftId()": "c6bc5182",
					"seller()": "08551a53",
					"start()": "be9a6555",
					"started()": "1f2698ab"
				}
			},
			"storageLayout": {
				"storage": [
					{
						"astId": 22,
						"contract": "contracts/EnglishAuction.sol:EnglishAuction",
						"label": "endAt",
						"offset": 0,
						"slot": "0",
						"type": "t_uint32"
					},
					{
						"astId": 24,
						"contract": "contracts/EnglishAuction.sol:EnglishAuction",
						"label": "started",
						"offset": 4,
						"slot": "0",
						"type": "t_bool"
					},
					{
						"astId": 26,
						"contract": "contracts/EnglishAuction.sol:EnglishAuction",
						"label": "ended",
						"offset": 5,
						"slot": "0",
						"type": "t_bool"
					},
					{
						"astId": 28,
						"contract": "contracts/EnglishAuction.sol:EnglishAuction",
						"label": "highestBidder",
						"offset": 6,
						"slot": "0",
						"type": "t_address"
					},
					{
						"astId": 30,
						"contract": "contracts/EnglishAuction.sol:EnglishAuction",
						"label": "highestBid",
						"offset": 0,
						"slot": "1",
						"type": "t_uint256"
					},
					{
						"astId": 34,
						"contract": "contracts/EnglishAuction.sol:EnglishAuction",
						"label": "bids",
						"offset": 0,
						"slot": "2",
						"type": "t_mapping(t_address,t_uint256)"
					}
				],
				"types": {
					"t_address": {
						"encoding": "inplace",
						"label": "address",
						"numberOfBytes": "20"
					},
					"t_bool": {
						"encoding": "inplace",
						"label": "bool",
						"numberOfBytes": "1"
					},
					"t_mapping(t_address,t_uint256)": {
						"encoding": "mapping",
						"key": "t_address",
						"label": "mapping(address => uint256)",
						"numberOfBytes": "32",
						"value": "t_uint256"
					},
					"t_uint256": {
						"encoding": "inplace",
						"label": "uint256",
						"numberOfBytes": "32"
					},
					"t_uint32": {
						"encoding": "inplace",
						"label": "uint32",
						"numberOfBytes": "4"
					}
				}
			},
			"userdoc": {
				"kind": "user",
				"methods": {},
				"version": 1
			}
		}
	}
}