{
	"contracts/StakePool.sol": {
		"StakePool": {
			"abi": [
				{
					"inputs": [
						{
							"internalType": "address",
							"name": "_tokenAddress",
							"type": "address"
						}
					],
					"stateMutability": "nonpayable",
					"type": "constructor"
				},
				{
					"anonymous": false,
					"inputs": [
						{
							"indexed": true,
							"internalType": "address",
							"name": "user",
							"type": "address"
						},
						{
							"indexed": false,
							"internalType": "uint256",
							"name": "receiveNumber",
							"type": "uint256"
						}
					],
					"name": "Receive",
					"type": "event"
				},
				{
					"anonymous": false,
					"inputs": [
						{
							"indexed": true,
							"internalType": "address",
							"name": "user",
							"type": "address"
						},
						{
							"indexed": false,
							"internalType": "uint256",
							"name": "stakeNumber",
							"type": "uint256"
						}
					],
					"name": "Stake",
					"type": "event"
				},
				{
					"anonymous": false,
					"inputs": [
						{
							"indexed": true,
							"internalType": "address",
							"name": "user",
							"type": "address"
						},
						{
							"indexed": false,
							"internalType": "uint256",
							"name": "unStakeNumber",
							"type": "uint256"
						}
					],
					"name": "UnStake",
					"type": "event"
				},
				{
					"anonymous": false,
					"inputs": [
						{
							"indexed": false,
							"internalType": "uint8",
							"name": "ratio",
							"type": "uint8"
						}
					],
					"name": "UpdateRatio",
					"type": "event"
				},
				{
					"inputs": [
						{
							"internalType": "address",
							"name": "_userAddress",
							"type": "address"
						}
					],
					"name": "getUserInfo",
					"outputs": [
						{
							"internalType": "uint256",
							"name": "stakeNumber",
							"type": "uint256"
						},
						{
							"internalType": "uint256",
							"name": "currentInsert",
							"type": "uint256"
						},
						{
							"internalType": "uint256",
							"name": "insert",
							"type": "uint256"
						}
					],
					"stateMutability": "view",
					"type": "function"
				},
				{
					"inputs": [],
					"name": "ierc20",
					"outputs": [
						{
							"internalType": "contract IERC20",
							"name": "",
							"type": "address"
						}
					],
					"stateMutability": "view",
					"type": "function"
				},
				{
					"inputs": [],
					"name": "owner",
					"outputs": [
						{
							"internalType": "address",
							"name": "",
							"type": "address"
						}
					],
					"stateMutability": "view",
					"type": "function"
				},
				{
					"inputs": [],
					"name": "ratio",
					"outputs": [
						{
							"internalType": "uint8",
							"name": "",
							"type": "uint8"
						}
					],
					"stateMutability": "view",
					"type": "function"
				},
				{
					"inputs": [],
					"name": "received",
					"outputs": [],
					"stateMutability": "nonpayable",
					"type": "function"
				},
				{
					"inputs": [
						{
							"internalType": "uint8",
							"name": "_ratio",
							"type": "uint8"
						}
					],
					"name": "setRatio",
					"outputs": [],
					"stateMutability": "nonpayable",
					"type": "function"
				},
				{
					"inputs": [
						{
							"internalType": "uint256",
							"name": "_stakeNumber",
							"type": "uint256"
						}
					],
					"name": "stake",
					"outputs": [],
					"stateMutability": "nonpayable",
					"type": "function"
				},
				{
					"inputs": [],
					"name": "tokenAddress",
					"outputs": [
						{
							"internalType": "address",
							"name": "",
							"type": "address"
						}
					],
					"stateMutability": "view",
					"type": "function"
				},
				{
					"inputs": [],
					"name": "totalStakeNumber",
					"outputs": [
						{
							"internalType": "uint256",
							"name": "",
							"type": "uint256"
						}
					],
					"stateMutability": "view",
					"type": "function"
				},
				{
					"inputs": [],
					"name": "unStake",
					"outputs": [],
					"stateMutability": "nonpayable",
					"type": "function"
				},
				{
					"inputs": [
						{
							"internalType": "address",
							"name": "",
							"type": "address"
						}
					],
					"name": "userStakes",
					"outputs": [
						{
							"internalType": "uint256",
							"name": "stakeNumber",
							"type": "uint256"
						},
						{
							"internalType": "uint256",
							"name": "currentInterest",
							"type": "uint256"
						},
						{
							"internalType": "uint256",
							"name": "claimedInterest",
							"type": "uint256"
						},
						{
							"internalType": "uint256",
							"name": "lastStakeTime",
							"type": "uint256"
						}
					],
					"stateMutability": "view",
					"type": "function"
				}
			],
			"devdoc": {
				"kind": "dev",
				"methods": {},
				"version": 1
			},
			"evm": {
				"assembly": "    /* \"contracts/StakePool.sol\":702:3731  contract StakePool{... */\n  mstore(0x40, 0x80)\n    /* \"contracts/StakePool.sol\":1165:1166  1 */\n  0x01\n    /* \"contracts/StakePool.sol\":1131:1166  uint256 public totalStakeNumber = 1 */\n  0x00\n  sstore\n    /* \"contracts/StakePool.sol\":1399:1567  constructor(address _tokenAddress) {... */\n  callvalue\n  dup1\n  iszero\n  tag_1\n  jumpi\n  0x00\n  dup1\n  revert\ntag_1:\n  pop\n  mload(0x40)\n  sub(codesize, bytecodeSize)\n  dup1\n  bytecodeSize\n  dup4\n  codecopy\n  dup2\n  dup2\n  add\n  0x40\n  mstore\n  dup2\n  add\n  swap1\n  tag_2\n  swap2\n  swap1\n  tag_3\n  jump\t// in\ntag_2:\n    /* \"contracts/StakePool.sol\":1459:1472  _tokenAddress */\n  dup1\n    /* \"contracts/StakePool.sol\":1444:1456  tokenAddress */\n  0x01\n  0x00\n    /* \"contracts/StakePool.sol\":1444:1472  tokenAddress = _tokenAddress */\n  0x0100\n  exp\n  dup2\n  sload\n  dup2\n  0xffffffffffffffffffffffffffffffffffffffff\n  mul\n  not\n  and\n  swap1\n  dup4\n  0xffffffffffffffffffffffffffffffffffffffff\n  and\n  mul\n  or\n  swap1\n  sstore\n  pop\n    /* \"contracts/StakePool.sol\":1498:1511  _tokenAddress */\n  dup1\n    /* \"contracts/StakePool.sol\":1482:1488  ierc20 */\n  0x04\n  0x00\n    /* \"contracts/StakePool.sol\":1482:1512  ierc20 = IERC20(_tokenAddress) */\n  0x0100\n  exp\n  dup2\n  sload\n  dup2\n  0xffffffffffffffffffffffffffffffffffffffff\n  mul\n  not\n  and\n  swap1\n  dup4\n  0xffffffffffffffffffffffffffffffffffffffff\n  and\n  mul\n  or\n  swap1\n  sstore\n  pop\n    /* \"contracts/StakePool.sol\":1530:1532  50 */\n  0x32\n    /* \"contracts/StakePool.sol\":1522:1527  ratio */\n  0x02\n  0x14\n    /* \"contracts/StakePool.sol\":1522:1532  ratio = 50 */\n  0x0100\n  exp\n  dup2\n  sload\n  dup2\n  0xff\n  mul\n  not\n  and\n  swap1\n  dup4\n  0xff\n  and\n  mul\n  or\n  swap1\n  sstore\n  pop\n    /* \"contracts/StakePool.sol\":1550:1560  msg.sender */\n  caller\n    /* \"contracts/StakePool.sol\":1542:1547  owner */\n  0x02\n  0x00\n    /* \"contracts/StakePool.sol\":1542:1560  owner = msg.sender */\n  0x0100\n  exp\n  dup2\n  sload\n  dup2\n  0xffffffffffffffffffffffffffffffffffffffff\n  mul\n  not\n  and\n  swap1\n  dup4\n  0xffffffffffffffffffffffffffffffffffffffff\n  and\n  mul\n  or\n  swap1\n  sstore\n  pop\n    /* \"contracts/StakePool.sol\":1399:1567  constructor(address _tokenAddress) {... */\n  pop\n    /* \"contracts/StakePool.sol\":702:3731  contract StakePool{... */\n  jump(tag_6)\n    /* \"#utility.yul\":88:205   */\ntag_8:\n    /* \"#utility.yul\":197:198   */\n  0x00\n    /* \"#utility.yul\":194:195   */\n  dup1\n    /* \"#utility.yul\":187:199   */\n  revert\n    /* \"#utility.yul\":334:460   */\ntag_10:\n    /* \"#utility.yul\":371:378   */\n  0x00\n    /* \"#utility.yul\":411:453   */\n  0xffffffffffffffffffffffffffffffffffffffff\n    /* \"#utility.yul\":404:409   */\n  dup3\n    /* \"#utility.yul\":400:454   */\n  and\n    /* \"#utility.yul\":389:454   */\n  swap1\n  pop\n    /* \"#utility.yul\":334:460   */\n  swap2\n  swap1\n  pop\n  jump\t// out\n    /* \"#utility.yul\":466:562   */\ntag_11:\n    /* \"#utility.yul\":503:510   */\n  0x00\n    /* \"#utility.yul\":532:556   */\n  tag_20\n    /* \"#utility.yul\":550:555   */\n  dup3\n    /* \"#utility.yul\":532:556   */\n  tag_10\n  jump\t// in\ntag_20:\n    /* \"#utility.yul\":521:556   */\n  swap1\n  pop\n    /* \"#utility.yul\":466:562   */\n  swap2\n  swap1\n  pop\n  jump\t// out\n    /* \"#utility.yul\":568:690   */\ntag_12:\n    /* \"#utility.yul\":641:665   */\n  tag_22\n    /* \"#utility.yul\":659:664   */\n  dup2\n    /* \"#utility.yul\":641:665   */\n  tag_11\n  jump\t// in\ntag_22:\n    /* \"#utility.yul\":634:639   */\n  dup2\n    /* \"#utility.yul\":631:666   */\n  eq\n    /* \"#utility.yul\":621:684   */\n  tag_23\n  jumpi\n    /* \"#utility.yul\":680:681   */\n  0x00\n    /* \"#utility.yul\":677:678   */\n  dup1\n    /* \"#utility.yul\":670:682   */\n  revert\n    /* \"#utility.yul\":621:684   */\ntag_23:\n    /* \"#utility.yul\":568:690   */\n  pop\n  jump\t// out\n    /* \"#utility.yul\":696:839   */\ntag_13:\n    /* \"#utility.yul\":753:758   */\n  0x00\n    /* \"#utility.yul\":784:790   */\n  dup2\n    /* \"#utility.yul\":778:791   */\n  mload\n    /* \"#utility.yul\":769:791   */\n  swap1\n  pop\n    /* \"#utility.yul\":800:833   */\n  tag_25\n    /* \"#utility.yul\":827:832   */\n  dup2\n    /* \"#utility.yul\":800:833   */\n  tag_12\n  jump\t// in\ntag_25:\n    /* \"#utility.yul\":696:839   */\n  swap3\n  swap2\n  pop\n  pop\n  jump\t// out\n    /* \"#utility.yul\":845:1196   */\ntag_3:\n    /* \"#utility.yul\":915:921   */\n  0x00\n    /* \"#utility.yul\":964:966   */\n  0x20\n    /* \"#utility.yul\":952:961   */\n  dup3\n    /* \"#utility.yul\":943:950   */\n  dup5\n    /* \"#utility.yul\":939:962   */\n  sub\n    /* \"#utility.yul\":935:967   */\n  slt\n    /* \"#utility.yul\":932:1051   */\n  iszero\n  tag_27\n  jumpi\n    /* \"#utility.yul\":970:1049   */\n  tag_28\n  tag_8\n  jump\t// in\ntag_28:\n    /* \"#utility.yul\":932:1051   */\ntag_27:\n    /* \"#utility.yul\":1090:1091   */\n  0x00\n    /* \"#utility.yul\":1115:1179   */\n  tag_29\n    /* \"#utility.yul\":1171:1178   */\n  dup5\n    /* \"#utility.yul\":1162:1168   */\n  dup3\n    /* \"#utility.yul\":1151:1160   */\n  dup6\n    /* \"#utility.yul\":1147:1169   */\n  add\n    /* \"#utility.yul\":1115:1179   */\n  tag_13\n  jump\t// in\ntag_29:\n    /* \"#utility.yul\":1105:1179   */\n  swap2\n  pop\n    /* \"#utility.yul\":1061:1189   */\n  pop\n    /* \"#utility.yul\":845:1196   */\n  swap3\n  swap2\n  pop\n  pop\n  jump\t// out\n    /* \"contracts/StakePool.sol\":702:3731  contract StakePool{... */\ntag_6:\n  dataSize(sub_0)\n  dup1\n  dataOffset(sub_0)\n  0x00\n  codecopy\n  0x00\n  return\nstop\n\nsub_0: assembly {\n        /* \"contracts/StakePool.sol\":702:3731  contract StakePool{... */\n      mstore(0x40, 0x80)\n      callvalue\n      dup1\n      iszero\n      tag_1\n      jumpi\n      0x00\n      dup1\n      revert\n    tag_1:\n      pop\n      jumpi(tag_2, lt(calldatasize, 0x04))\n      shr(0xe0, calldataload(0x00))\n      dup1\n      0x8d994beb\n      gt\n      tag_14\n      jumpi\n      dup1\n      0x8d994beb\n      eq\n      tag_8\n      jumpi\n      dup1\n      0x8da5cb5b\n      eq\n      tag_9\n      jumpi\n      dup1\n      0x8da7ad23\n      eq\n      tag_10\n      jumpi\n      dup1\n      0x9d76ea58\n      eq\n      tag_11\n      jumpi\n      dup1\n      0xa694fc3a\n      eq\n      tag_12\n      jumpi\n      dup1\n      0xbf0ae63d\n      eq\n      tag_13\n      jumpi\n      jump(tag_2)\n    tag_14:\n      dup1\n      0x53b645e5\n      eq\n      tag_3\n      jumpi\n      dup1\n      0x6386c1c7\n      eq\n      tag_4\n      jumpi\n      dup1\n      0x71ca337d\n      eq\n      tag_5\n      jumpi\n      dup1\n      0x73cf575a\n      eq\n      tag_6\n      jumpi\n      dup1\n      0x83a6deb5\n      eq\n      tag_7\n      jumpi\n    tag_2:\n      0x00\n      dup1\n      revert\n        /* \"contracts/StakePool.sol\":1131:1166  uint256 public totalStakeNumber = 1 */\n    tag_3:\n      tag_15\n      tag_16\n      jump\t// in\n    tag_15:\n      mload(0x40)\n      tag_17\n      swap2\n      swap1\n      tag_18\n      jump\t// in\n    tag_17:\n      mload(0x40)\n      dup1\n      swap2\n      sub\n      swap1\n      return\n        /* \"contracts/StakePool.sol\":3420:3727  function getUserInfo(address _userAddress) public view returns (uint256 stakeNumber, uint256 currentInsert, uint256 insert) {... */\n    tag_4:\n      tag_19\n      0x04\n      dup1\n      calldatasize\n      sub\n      dup2\n      add\n      swap1\n      tag_20\n      swap2\n      swap1\n      tag_21\n      jump\t// in\n    tag_20:\n      tag_22\n      jump\t// in\n    tag_19:\n      mload(0x40)\n      tag_23\n      swap4\n      swap3\n      swap2\n      swap1\n      tag_24\n      jump\t// in\n    tag_23:\n      mload(0x40)\n      dup1\n      swap2\n      sub\n      swap1\n      return\n        /* \"contracts/StakePool.sol\":1274:1292  uint8 public ratio */\n    tag_5:\n      tag_25\n      tag_26\n      jump\t// in\n    tag_25:\n      mload(0x40)\n      tag_27\n      swap2\n      swap1\n      tag_28\n      jump\t// in\n    tag_27:\n      mload(0x40)\n      dup1\n      swap2\n      sub\n      swap1\n      return\n        /* \"contracts/StakePool.sol\":2243:2799  function unStake() external {... */\n    tag_6:\n      tag_29\n      tag_30\n      jump\t// in\n    tag_29:\n      stop\n        /* \"contracts/StakePool.sol\":2805:3142  function received() external {... */\n    tag_7:\n      tag_31\n      tag_32\n      jump\t// in\n    tag_31:\n      stop\n        /* \"contracts/StakePool.sol\":1670:1795  function setRatio(uint8 _ratio) external onlyOwner {    ... */\n    tag_8:\n      tag_33\n      0x04\n      dup1\n      calldatasize\n      sub\n      dup2\n      add\n      swap1\n      tag_34\n      swap2\n      swap1\n      tag_35\n      jump\t// in\n    tag_34:\n      tag_36\n      jump\t// in\n    tag_33:\n      stop\n        /* \"contracts/StakePool.sol\":1248:1268  address public owner */\n    tag_9:\n      tag_37\n      tag_38\n      jump\t// in\n    tag_37:\n      mload(0x40)\n      tag_39\n      swap2\n      swap1\n      tag_40\n      jump\t// in\n    tag_39:\n      mload(0x40)\n      dup1\n      swap2\n      sub\n      swap1\n      return\n        /* \"contracts/StakePool.sol\":1324:1366  mapping(address => User) public userStakes */\n    tag_10:\n      tag_41\n      0x04\n      dup1\n      calldatasize\n      sub\n      dup2\n      add\n      swap1\n      tag_42\n      swap2\n      swap1\n      tag_21\n      jump\t// in\n    tag_42:\n      tag_43\n      jump\t// in\n    tag_41:\n      mload(0x40)\n      tag_44\n      swap5\n      swap4\n      swap3\n      swap2\n      swap1\n      tag_45\n      jump\t// in\n    tag_44:\n      mload(0x40)\n      dup1\n      swap2\n      sub\n      swap1\n      return\n        /* \"contracts/StakePool.sol\":1192:1219  address public tokenAddress */\n    tag_11:\n      tag_46\n      tag_47\n      jump\t// in\n    tag_46:\n      mload(0x40)\n      tag_48\n      swap2\n      swap1\n      tag_40\n      jump\t// in\n    tag_48:\n      mload(0x40)\n      dup1\n      swap2\n      sub\n      swap1\n      return\n        /* \"contracts/StakePool.sol\":1805:2237  function stake(uint256 _stakeNumber) external {... */\n    tag_12:\n      tag_49\n      0x04\n      dup1\n      calldatasize\n      sub\n      dup2\n      add\n      swap1\n      tag_50\n      swap2\n      swap1\n      tag_51\n      jump\t// in\n    tag_50:\n      tag_52\n      jump\t// in\n    tag_49:\n      stop\n        /* \"contracts/StakePool.sol\":1372:1392  IERC20 public ierc20 */\n    tag_13:\n      tag_53\n      tag_54\n      jump\t// in\n    tag_53:\n      mload(0x40)\n      tag_55\n      swap2\n      swap1\n      tag_56\n      jump\t// in\n    tag_55:\n      mload(0x40)\n      dup1\n      swap2\n      sub\n      swap1\n      return\n        /* \"contracts/StakePool.sol\":1131:1166  uint256 public totalStakeNumber = 1 */\n    tag_16:\n      sload(0x00)\n      dup2\n      jump\t// out\n        /* \"contracts/StakePool.sol\":3420:3727  function getUserInfo(address _userAddress) public view returns (uint256 stakeNumber, uint256 currentInsert, uint256 insert) {... */\n    tag_22:\n        /* \"contracts/StakePool.sol\":3484:3503  uint256 stakeNumber */\n      0x00\n        /* \"contracts/StakePool.sol\":3505:3526  uint256 currentInsert */\n      dup1\n        /* \"contracts/StakePool.sol\":3528:3542  uint256 insert */\n      0x00\n        /* \"contracts/StakePool.sol\":3568:3578  userStakes */\n      0x03\n        /* \"contracts/StakePool.sol\":3568:3592  userStakes[_userAddress] */\n      0x00\n        /* \"contracts/StakePool.sol\":3579:3591  _userAddress */\n      dup6\n        /* \"contracts/StakePool.sol\":3568:3592  userStakes[_userAddress] */\n      0xffffffffffffffffffffffffffffffffffffffff\n      and\n      0xffffffffffffffffffffffffffffffffffffffff\n      and\n      dup2\n      mstore\n      0x20\n      add\n      swap1\n      dup2\n      mstore\n      0x20\n      add\n      0x00\n      keccak256\n        /* \"contracts/StakePool.sol\":3568:3604  userStakes[_userAddress].stakeNumber */\n      0x00\n      add\n      sload\n        /* \"contracts/StakePool.sol\":3554:3604  stakeNumber = userStakes[_userAddress].stakeNumber */\n      swap3\n      pop\n        /* \"contracts/StakePool.sol\":3630:3645  getUserInsert() */\n      tag_58\n        /* \"contracts/StakePool.sol\":3630:3643  getUserInsert */\n      tag_59\n        /* \"contracts/StakePool.sol\":3630:3645  getUserInsert() */\n      jump\t// in\n    tag_58:\n        /* \"contracts/StakePool.sol\":3614:3645  currentInsert = getUserInsert() */\n      swap2\n      pop\n        /* \"contracts/StakePool.sol\":3707:3720  currentInsert */\n      dup2\n        /* \"contracts/StakePool.sol\":3664:3674  userStakes */\n      0x03\n        /* \"contracts/StakePool.sol\":3664:3688  userStakes[_userAddress] */\n      0x00\n        /* \"contracts/StakePool.sol\":3675:3687  _userAddress */\n      dup7\n        /* \"contracts/StakePool.sol\":3664:3688  userStakes[_userAddress] */\n      0xffffffffffffffffffffffffffffffffffffffff\n      and\n      0xffffffffffffffffffffffffffffffffffffffff\n      and\n      dup2\n      mstore\n      0x20\n      add\n      swap1\n      dup2\n      mstore\n      0x20\n      add\n      0x00\n      keccak256\n        /* \"contracts/StakePool.sol\":3664:3704  userStakes[_userAddress].claimedInterest */\n      0x02\n      add\n      sload\n        /* \"contracts/StakePool.sol\":3664:3720  userStakes[_userAddress].claimedInterest + currentInsert */\n      tag_60\n      swap2\n      swap1\n      tag_61\n      jump\t// in\n    tag_60:\n        /* \"contracts/StakePool.sol\":3655:3720  insert = userStakes[_userAddress].claimedInterest + currentInsert */\n      swap1\n      pop\n        /* \"contracts/StakePool.sol\":3420:3727  function getUserInfo(address _userAddress) public view returns (uint256 stakeNumber, uint256 currentInsert, uint256 insert) {... */\n      swap2\n      swap4\n      swap1\n      swap3\n      pop\n      jump\t// out\n        /* \"contracts/StakePool.sol\":1274:1292  uint8 public ratio */\n    tag_26:\n      0x02\n      0x14\n      swap1\n      sload\n      swap1\n      0x0100\n      exp\n      swap1\n      div\n      0xff\n      and\n      dup2\n      jump\t// out\n        /* \"contracts/StakePool.sol\":2243:2799  function unStake() external {... */\n    tag_30:\n        /* \"contracts/StakePool.sol\":2318:2332  uint256 insert */\n      0x00\n        /* \"contracts/StakePool.sol\":2335:2350  getUserInsert() */\n      tag_63\n        /* \"contracts/StakePool.sol\":2335:2348  getUserInsert */\n      tag_59\n        /* \"contracts/StakePool.sol\":2335:2350  getUserInsert() */\n      jump\t// in\n    tag_63:\n        /* \"contracts/StakePool.sol\":2318:2350  uint256 insert = getUserInsert() */\n      swap1\n      pop\n        /* \"contracts/StakePool.sol\":2360:2377  User storage user */\n      0x00\n        /* \"contracts/StakePool.sol\":2380:2390  userStakes */\n      0x03\n        /* \"contracts/StakePool.sol\":2380:2402  userStakes[msg.sender] */\n      0x00\n        /* \"contracts/StakePool.sol\":2391:2401  msg.sender */\n      caller\n        /* \"contracts/StakePool.sol\":2380:2402  userStakes[msg.sender] */\n      0xffffffffffffffffffffffffffffffffffffffff\n      and\n      0xffffffffffffffffffffffffffffffffffffffff\n      and\n      dup2\n      mstore\n      0x20\n      add\n      swap1\n      dup2\n      mstore\n      0x20\n      add\n      0x00\n      keccak256\n        /* \"contracts/StakePool.sol\":2360:2402  User storage user = userStakes[msg.sender] */\n      swap1\n      pop\n        /* \"contracts/StakePool.sol\":2412:2418  ierc20 */\n      0x04\n      0x00\n      swap1\n      sload\n      swap1\n      0x0100\n      exp\n      swap1\n      div\n      0xffffffffffffffffffffffffffffffffffffffff\n      and\n        /* \"contracts/StakePool.sol\":2412:2427  ierc20.transfer */\n      0xffffffffffffffffffffffffffffffffffffffff\n      and\n      0xa9059cbb\n        /* \"contracts/StakePool.sol\":2428:2438  msg.sender */\n      caller\n        /* \"contracts/StakePool.sol\":2440:2444  user */\n      dup4\n        /* \"contracts/StakePool.sol\":2440:2456  user.stakeNumber */\n      0x00\n      add\n      sload\n        /* \"contracts/StakePool.sol\":2412:2457  ierc20.transfer(msg.sender, user.stakeNumber) */\n      mload(0x40)\n      dup4\n      0xffffffff\n      and\n      0xe0\n      shl\n      dup2\n      mstore\n      0x04\n      add\n      tag_64\n      swap3\n      swap2\n      swap1\n      tag_65\n      jump\t// in\n    tag_64:\n      0x20\n      mload(0x40)\n      dup1\n      dup4\n      sub\n      dup2\n      0x00\n      dup8\n      gas\n      call\n      iszero\n      dup1\n      iszero\n      tag_67\n      jumpi\n      returndatasize\n      0x00\n      dup1\n      returndatacopy\n      revert(0x00, returndatasize)\n    tag_67:\n      pop\n      pop\n      pop\n      pop\n      mload(0x40)\n      returndatasize\n      not(0x1f)\n      0x1f\n      dup3\n      add\n      and\n      dup3\n      add\n      dup1\n      0x40\n      mstore\n      pop\n      dup2\n      add\n      swap1\n      tag_68\n      swap2\n      swap1\n      tag_69\n      jump\t// in\n    tag_68:\n      pop\n        /* \"contracts/StakePool.sol\":2467:2473  ierc20 */\n      0x04\n      0x00\n      swap1\n      sload\n      swap1\n      0x0100\n      exp\n      swap1\n      div\n      0xffffffffffffffffffffffffffffffffffffffff\n      and\n        /* \"contracts/StakePool.sol\":2467:2482  ierc20.transfer */\n      0xffffffffffffffffffffffffffffffffffffffff\n      and\n      0xa9059cbb\n        /* \"contracts/StakePool.sol\":2483:2493  msg.sender */\n      caller\n        /* \"contracts/StakePool.sol\":2495:2501  insert */\n      dup5\n        /* \"contracts/StakePool.sol\":2467:2502  ierc20.transfer(msg.sender, insert) */\n      mload(0x40)\n      dup4\n      0xffffffff\n      and\n      0xe0\n      shl\n      dup2\n      mstore\n      0x04\n      add\n      tag_70\n      swap3\n      swap2\n      swap1\n      tag_65\n      jump\t// in\n    tag_70:\n      0x20\n      mload(0x40)\n      dup1\n      dup4\n      sub\n      dup2\n      0x00\n      dup8\n      gas\n      call\n      iszero\n      dup1\n      iszero\n      tag_72\n      jumpi\n      returndatasize\n      0x00\n      dup1\n      returndatacopy\n      revert(0x00, returndatasize)\n    tag_72:\n      pop\n      pop\n      pop\n      pop\n      mload(0x40)\n      returndatasize\n      not(0x1f)\n      0x1f\n      dup3\n      add\n      and\n      dup3\n      add\n      dup1\n      0x40\n      mstore\n      pop\n      dup2\n      add\n      swap1\n      tag_73\n      swap2\n      swap1\n      tag_69\n      jump\t// in\n    tag_73:\n      pop\n        /* \"contracts/StakePool.sol\":2525:2535  msg.sender */\n      caller\n        /* \"contracts/StakePool.sol\":2517:2554  UnStake(msg.sender, user.stakeNumber) */\n      0xffffffffffffffffffffffffffffffffffffffff\n      and\n      0xb24546d975e2628748efc9aced80665e0fad66272033e5c0ea25fd3afac99795\n        /* \"contracts/StakePool.sol\":2537:2541  user */\n      dup3\n        /* \"contracts/StakePool.sol\":2537:2553  user.stakeNumber */\n      0x00\n      add\n      sload\n        /* \"contracts/StakePool.sol\":2517:2554  UnStake(msg.sender, user.stakeNumber) */\n      mload(0x40)\n      tag_74\n      swap2\n      swap1\n      tag_18\n      jump\t// in\n    tag_74:\n      mload(0x40)\n      dup1\n      swap2\n      sub\n      swap1\n      log2\n        /* \"contracts/StakePool.sol\":2577:2587  msg.sender */\n      caller\n        /* \"contracts/StakePool.sol\":2569:2596  Receive(msg.sender, insert) */\n      0xffffffffffffffffffffffffffffffffffffffff\n      and\n      0xd6717f327e0cb88b4a97a7f67a453e9258252c34937ccbdd86de7cb840e7def3\n        /* \"contracts/StakePool.sol\":2589:2595  insert */\n      dup4\n        /* \"contracts/StakePool.sol\":2569:2596  Receive(msg.sender, insert) */\n      mload(0x40)\n      tag_75\n      swap2\n      swap1\n      tag_18\n      jump\t// in\n    tag_75:\n      mload(0x40)\n      dup1\n      swap2\n      sub\n      swap1\n      log2\n        /* \"contracts/StakePool.sol\":2630:2636  insert */\n      dup2\n        /* \"contracts/StakePool.sol\":2606:2610  user */\n      dup2\n        /* \"contracts/StakePool.sol\":2606:2626  user.claimedInterest */\n      0x02\n      add\n      0x00\n        /* \"contracts/StakePool.sol\":2606:2636  user.claimedInterest += insert */\n      dup3\n      dup3\n      sload\n      tag_76\n      swap2\n      swap1\n      tag_61\n      jump\t// in\n    tag_76:\n      swap3\n      pop\n      pop\n      dup2\n      swap1\n      sstore\n      pop\n        /* \"contracts/StakePool.sol\":2667:2682  block.timestamp */\n      timestamp\n        /* \"contracts/StakePool.sol\":2646:2650  user */\n      dup2\n        /* \"contracts/StakePool.sol\":2646:2664  user.lastStakeTime */\n      0x03\n      add\n        /* \"contracts/StakePool.sol\":2646:2682  user.lastStakeTime = block.timestamp */\n      dup2\n      swap1\n      sstore\n      pop\n        /* \"contracts/StakePool.sol\":2712:2716  user */\n      dup1\n        /* \"contracts/StakePool.sol\":2712:2728  user.stakeNumber */\n      0x00\n      add\n      sload\n        /* \"contracts/StakePool.sol\":2692:2708  totalStakeNumber */\n      0x00\n      dup1\n        /* \"contracts/StakePool.sol\":2692:2728  totalStakeNumber -= user.stakeNumber */\n      dup3\n      dup3\n      sload\n      tag_77\n      swap2\n      swap1\n      tag_78\n      jump\t// in\n    tag_77:\n      swap3\n      pop\n      pop\n      dup2\n      swap1\n      sstore\n      pop\n        /* \"contracts/StakePool.sol\":2757:2758  0 */\n      0x00\n        /* \"contracts/StakePool.sol\":2738:2742  user */\n      dup2\n        /* \"contracts/StakePool.sol\":2738:2754  user.stakeNumber */\n      0x00\n      add\n        /* \"contracts/StakePool.sol\":2738:2758  user.stakeNumber = 0 */\n      dup2\n      swap1\n      sstore\n      pop\n        /* \"contracts/StakePool.sol\":2791:2792  0 */\n      0x00\n        /* \"contracts/StakePool.sol\":2768:2772  user */\n      dup2\n        /* \"contracts/StakePool.sol\":2768:2788  user.currentInterest */\n      0x01\n      add\n        /* \"contracts/StakePool.sol\":2768:2792  user.currentInterest = 0 */\n      dup2\n      swap1\n      sstore\n      pop\n        /* \"contracts/StakePool.sol\":2271:2799  {... */\n      pop\n      pop\n        /* \"contracts/StakePool.sol\":2243:2799  function unStake() external {... */\n      jump\t// out\n        /* \"contracts/StakePool.sol\":2805:3142  function received() external {... */\n    tag_32:\n        /* \"contracts/StakePool.sol\":2844:2861  User storage user */\n      0x00\n        /* \"contracts/StakePool.sol\":2864:2874  userStakes */\n      0x03\n        /* \"contracts/StakePool.sol\":2864:2886  userStakes[msg.sender] */\n      0x00\n        /* \"contracts/StakePool.sol\":2875:2885  msg.sender */\n      caller\n        /* \"contracts/StakePool.sol\":2864:2886  userStakes[msg.sender] */\n      0xffffffffffffffffffffffffffffffffffffffff\n      and\n      0xffffffffffffffffffffffffffffffffffffffff\n      and\n      dup2\n      mstore\n      0x20\n      add\n      swap1\n      dup2\n      mstore\n      0x20\n      add\n      0x00\n      keccak256\n        /* \"contracts/StakePool.sol\":2844:2886  User storage user = userStakes[msg.sender] */\n      swap1\n      pop\n        /* \"contracts/StakePool.sol\":2896:2910  uint256 insert */\n      0x00\n        /* \"contracts/StakePool.sol\":2913:2928  getUserInsert() */\n      tag_80\n        /* \"contracts/StakePool.sol\":2913:2926  getUserInsert */\n      tag_59\n        /* \"contracts/StakePool.sol\":2913:2928  getUserInsert() */\n      jump\t// in\n    tag_80:\n        /* \"contracts/StakePool.sol\":2896:2928  uint256 insert = getUserInsert() */\n      swap1\n      pop\n        /* \"contracts/StakePool.sol\":2938:2944  ierc20 */\n      0x04\n      0x00\n      swap1\n      sload\n      swap1\n      0x0100\n      exp\n      swap1\n      div\n      0xffffffffffffffffffffffffffffffffffffffff\n      and\n        /* \"contracts/StakePool.sol\":2938:2953  ierc20.transfer */\n      0xffffffffffffffffffffffffffffffffffffffff\n      and\n      0xa9059cbb\n        /* \"contracts/StakePool.sol\":2954:2964  msg.sender */\n      caller\n        /* \"contracts/StakePool.sol\":2966:2972  insert */\n      dup4\n        /* \"contracts/StakePool.sol\":2938:2973  ierc20.transfer(msg.sender, insert) */\n      mload(0x40)\n      dup4\n      0xffffffff\n      and\n      0xe0\n      shl\n      dup2\n      mstore\n      0x04\n      add\n      tag_81\n      swap3\n      swap2\n      swap1\n      tag_65\n      jump\t// in\n    tag_81:\n      0x20\n      mload(0x40)\n      dup1\n      dup4\n      sub\n      dup2\n      0x00\n      dup8\n      gas\n      call\n      iszero\n      dup1\n      iszero\n      tag_83\n      jumpi\n      returndatasize\n      0x00\n      dup1\n      returndatacopy\n      revert(0x00, returndatasize)\n    tag_83:\n      pop\n      pop\n      pop\n      pop\n      mload(0x40)\n      returndatasize\n      not(0x1f)\n      0x1f\n      dup3\n      add\n      and\n      dup3\n      add\n      dup1\n      0x40\n      mstore\n      pop\n      dup2\n      add\n      swap1\n      tag_84\n      swap2\n      swap1\n      tag_69\n      jump\t// in\n    tag_84:\n      pop\n        /* \"contracts/StakePool.sol\":2996:3006  msg.sender */\n      caller\n        /* \"contracts/StakePool.sol\":2988:3015  Receive(msg.sender, insert) */\n      0xffffffffffffffffffffffffffffffffffffffff\n      and\n      0xd6717f327e0cb88b4a97a7f67a453e9258252c34937ccbdd86de7cb840e7def3\n        /* \"contracts/StakePool.sol\":3008:3014  insert */\n      dup3\n        /* \"contracts/StakePool.sol\":2988:3015  Receive(msg.sender, insert) */\n      mload(0x40)\n      tag_85\n      swap2\n      swap1\n      tag_18\n      jump\t// in\n    tag_85:\n      mload(0x40)\n      dup1\n      swap2\n      sub\n      swap1\n      log2\n        /* \"contracts/StakePool.sol\":3049:3055  insert */\n      dup1\n        /* \"contracts/StakePool.sol\":3025:3029  user */\n      dup3\n        /* \"contracts/StakePool.sol\":3025:3045  user.claimedInterest */\n      0x02\n      add\n      0x00\n        /* \"contracts/StakePool.sol\":3025:3055  user.claimedInterest += insert */\n      dup3\n      dup3\n      sload\n      tag_86\n      swap2\n      swap1\n      tag_61\n      jump\t// in\n    tag_86:\n      swap3\n      pop\n      pop\n      dup2\n      swap1\n      sstore\n      pop\n        /* \"contracts/StakePool.sol\":3086:3101  block.timestamp */\n      timestamp\n        /* \"contracts/StakePool.sol\":3065:3069  user */\n      dup3\n        /* \"contracts/StakePool.sol\":3065:3083  user.lastStakeTime */\n      0x03\n      add\n        /* \"contracts/StakePool.sol\":3065:3101  user.lastStakeTime = block.timestamp */\n      dup2\n      swap1\n      sstore\n      pop\n        /* \"contracts/StakePool.sol\":3134:3135  0 */\n      0x00\n        /* \"contracts/StakePool.sol\":3111:3115  user */\n      dup3\n        /* \"contracts/StakePool.sol\":3111:3131  user.currentInterest */\n      0x01\n      add\n        /* \"contracts/StakePool.sol\":3111:3135  user.currentInterest = 0 */\n      dup2\n      swap1\n      sstore\n      pop\n        /* \"contracts/StakePool.sol\":2834:3142  {... */\n      pop\n      pop\n        /* \"contracts/StakePool.sol\":2805:3142  function received() external {... */\n      jump\t// out\n        /* \"contracts/StakePool.sol\":1670:1795  function setRatio(uint8 _ratio) external onlyOwner {    ... */\n    tag_36:\n        /* \"contracts/StakePool.sol\":1626:1631  owner */\n      0x02\n      0x00\n      swap1\n      sload\n      swap1\n      0x0100\n      exp\n      swap1\n      div\n      0xffffffffffffffffffffffffffffffffffffffff\n      and\n        /* \"contracts/StakePool.sol\":1612:1631  msg.sender == owner */\n      0xffffffffffffffffffffffffffffffffffffffff\n      and\n        /* \"contracts/StakePool.sol\":1612:1622  msg.sender */\n      caller\n        /* \"contracts/StakePool.sol\":1612:1631  msg.sender == owner */\n      0xffffffffffffffffffffffffffffffffffffffff\n      and\n      eq\n        /* \"contracts/StakePool.sol\":1604:1646  require(msg.sender == owner , \"not owner\") */\n      tag_88\n      jumpi\n      mload(0x40)\n      0x08c379a000000000000000000000000000000000000000000000000000000000\n      dup2\n      mstore\n      0x04\n      add\n      tag_89\n      swap1\n      tag_90\n      jump\t// in\n    tag_89:\n      mload(0x40)\n      dup1\n      swap2\n      sub\n      swap1\n      revert\n    tag_88:\n        /* \"contracts/StakePool.sol\":1743:1749  _ratio */\n      dup1\n        /* \"contracts/StakePool.sol\":1735:1740  ratio */\n      0x02\n      0x14\n        /* \"contracts/StakePool.sol\":1735:1749  ratio = _ratio */\n      0x0100\n      exp\n      dup2\n      sload\n      dup2\n      0xff\n      mul\n      not\n      and\n      swap1\n      dup4\n      0xff\n      and\n      mul\n      or\n      swap1\n      sstore\n      pop\n        /* \"contracts/StakePool.sol\":1769:1788  UpdateRatio(_ratio) */\n      0x86fdfa566b117b03b2ef4d50c64fe89efd432852397764c120c6796cfdd820f8\n        /* \"contracts/StakePool.sol\":1781:1787  _ratio */\n      dup2\n        /* \"contracts/StakePool.sol\":1769:1788  UpdateRatio(_ratio) */\n      mload(0x40)\n      tag_92\n      swap2\n      swap1\n      tag_28\n      jump\t// in\n    tag_92:\n      mload(0x40)\n      dup1\n      swap2\n      sub\n      swap1\n      log1\n        /* \"contracts/StakePool.sol\":1670:1795  function setRatio(uint8 _ratio) external onlyOwner {    ... */\n      pop\n      jump\t// out\n        /* \"contracts/StakePool.sol\":1248:1268  address public owner */\n    tag_38:\n      0x02\n      0x00\n      swap1\n      sload\n      swap1\n      0x0100\n      exp\n      swap1\n      div\n      0xffffffffffffffffffffffffffffffffffffffff\n      and\n      dup2\n      jump\t// out\n        /* \"contracts/StakePool.sol\":1324:1366  mapping(address => User) public userStakes */\n    tag_43:\n      mstore(0x20, 0x03)\n      dup1\n      0x00\n      mstore\n      keccak256(0x00, 0x40)\n      0x00\n      swap2\n      pop\n      swap1\n      pop\n      dup1\n      0x00\n      add\n      sload\n      swap1\n      dup1\n      0x01\n      add\n      sload\n      swap1\n      dup1\n      0x02\n      add\n      sload\n      swap1\n      dup1\n      0x03\n      add\n      sload\n      swap1\n      pop\n      dup5\n      jump\t// out\n        /* \"contracts/StakePool.sol\":1192:1219  address public tokenAddress */\n    tag_47:\n      0x01\n      0x00\n      swap1\n      sload\n      swap1\n      0x0100\n      exp\n      swap1\n      div\n      0xffffffffffffffffffffffffffffffffffffffff\n      and\n      dup2\n      jump\t// out\n        /* \"contracts/StakePool.sol\":1805:2237  function stake(uint256 _stakeNumber) external {... */\n    tag_52:\n        /* \"contracts/StakePool.sol\":1861:1867  ierc20 */\n      0x04\n      0x00\n      swap1\n      sload\n      swap1\n      0x0100\n      exp\n      swap1\n      div\n      0xffffffffffffffffffffffffffffffffffffffff\n      and\n        /* \"contracts/StakePool.sol\":1861:1880  ierc20.transferFrom */\n      0xffffffffffffffffffffffffffffffffffffffff\n      and\n      0x23b872dd\n        /* \"contracts/StakePool.sol\":1881:1891  msg.sender */\n      caller\n        /* \"contracts/StakePool.sol\":1901:1905  this */\n      address\n        /* \"contracts/StakePool.sol\":1908:1920  _stakeNumber */\n      dup5\n        /* \"contracts/StakePool.sol\":1861:1921  ierc20.transferFrom(msg.sender, address(this), _stakeNumber) */\n      mload(0x40)\n      dup5\n      0xffffffff\n      and\n      0xe0\n      shl\n      dup2\n      mstore\n      0x04\n      add\n      tag_94\n      swap4\n      swap3\n      swap2\n      swap1\n      tag_95\n      jump\t// in\n    tag_94:\n      0x20\n      mload(0x40)\n      dup1\n      dup4\n      sub\n      dup2\n      0x00\n      dup8\n      gas\n      call\n      iszero\n      dup1\n      iszero\n      tag_97\n      jumpi\n      returndatasize\n      0x00\n      dup1\n      returndatacopy\n      revert(0x00, returndatasize)\n    tag_97:\n      pop\n      pop\n      pop\n      pop\n      mload(0x40)\n      returndatasize\n      not(0x1f)\n      0x1f\n      dup3\n      add\n      and\n      dup3\n      add\n      dup1\n      0x40\n      mstore\n      pop\n      dup2\n      add\n      swap1\n      tag_98\n      swap2\n      swap1\n      tag_69\n      jump\t// in\n    tag_98:\n      pop\n        /* \"contracts/StakePool.sol\":1931:1948  User storage user */\n      0x00\n        /* \"contracts/StakePool.sol\":1951:1961  userStakes */\n      0x03\n        /* \"contracts/StakePool.sol\":1951:1973  userStakes[msg.sender] */\n      0x00\n        /* \"contracts/StakePool.sol\":1962:1972  msg.sender */\n      caller\n        /* \"contracts/StakePool.sol\":1951:1973  userStakes[msg.sender] */\n      0xffffffffffffffffffffffffffffffffffffffff\n      and\n      0xffffffffffffffffffffffffffffffffffffffff\n      and\n      dup2\n      mstore\n      0x20\n      add\n      swap1\n      dup2\n      mstore\n      0x20\n      add\n      0x00\n      keccak256\n        /* \"contracts/StakePool.sol\":1931:1973  User storage user = userStakes[msg.sender] */\n      swap1\n      pop\n        /* \"contracts/StakePool.sol\":2039:2054  getUserInsert() */\n      tag_99\n        /* \"contracts/StakePool.sol\":2039:2052  getUserInsert */\n      tag_59\n        /* \"contracts/StakePool.sol\":2039:2054  getUserInsert() */\n      jump\t// in\n    tag_99:\n        /* \"contracts/StakePool.sol\":2016:2020  user */\n      dup2\n        /* \"contracts/StakePool.sol\":2016:2036  user.currentInterest */\n      0x01\n      add\n        /* \"contracts/StakePool.sol\":2016:2054  user.currentInterest = getUserInsert() */\n      dup2\n      swap1\n      sstore\n      pop\n        /* \"contracts/StakePool.sol\":2084:2096  _stakeNumber */\n      dup2\n        /* \"contracts/StakePool.sol\":2064:2068  user */\n      dup2\n        /* \"contracts/StakePool.sol\":2064:2080  user.stakeNumber */\n      0x00\n      add\n      0x00\n        /* \"contracts/StakePool.sol\":2064:2096  user.stakeNumber += _stakeNumber */\n      dup3\n      dup3\n      sload\n      tag_100\n      swap2\n      swap1\n      tag_61\n      jump\t// in\n    tag_100:\n      swap3\n      pop\n      pop\n      dup2\n      swap1\n      sstore\n      pop\n        /* \"contracts/StakePool.sol\":2127:2142  block.timestamp */\n      timestamp\n        /* \"contracts/StakePool.sol\":2106:2110  user */\n      dup2\n        /* \"contracts/StakePool.sol\":2106:2124  user.lastStakeTime */\n      0x03\n      add\n        /* \"contracts/StakePool.sol\":2106:2142  user.lastStakeTime = block.timestamp */\n      dup2\n      swap1\n      sstore\n      pop\n        /* \"contracts/StakePool.sol\":2172:2184  _stakeNumber */\n      dup2\n        /* \"contracts/StakePool.sol\":2152:2168  totalStakeNumber */\n      0x00\n      dup1\n        /* \"contracts/StakePool.sol\":2152:2184  totalStakeNumber += _stakeNumber */\n      dup3\n      dup3\n      sload\n      tag_101\n      swap2\n      swap1\n      tag_61\n      jump\t// in\n    tag_101:\n      swap3\n      pop\n      pop\n      dup2\n      swap1\n      sstore\n      pop\n        /* \"contracts/StakePool.sol\":2205:2215  msg.sender */\n      caller\n        /* \"contracts/StakePool.sol\":2199:2230  Stake(msg.sender, _stakeNumber) */\n      0xffffffffffffffffffffffffffffffffffffffff\n      and\n      0xebedb8b3c678666e7f36970bc8f57abf6d8fa2e828c0da91ea5b75bf68ed101a\n        /* \"contracts/StakePool.sol\":2217:2229  _stakeNumber */\n      dup4\n        /* \"contracts/StakePool.sol\":2199:2230  Stake(msg.sender, _stakeNumber) */\n      mload(0x40)\n      tag_102\n      swap2\n      swap1\n      tag_18\n      jump\t// in\n    tag_102:\n      mload(0x40)\n      dup1\n      swap2\n      sub\n      swap1\n      log2\n        /* \"contracts/StakePool.sol\":1851:2237  {... */\n      pop\n        /* \"contracts/StakePool.sol\":1805:2237  function stake(uint256 _stakeNumber) external {... */\n      pop\n      jump\t// out\n        /* \"contracts/StakePool.sol\":1372:1392  IERC20 public ierc20 */\n    tag_54:\n      0x04\n      0x00\n      swap1\n      sload\n      swap1\n      0x0100\n      exp\n      swap1\n      div\n      0xffffffffffffffffffffffffffffffffffffffff\n      and\n      dup2\n      jump\t// out\n        /* \"contracts/StakePool.sol\":3149:3414  function getUserInsert() private view returns (uint256 interest) {... */\n    tag_59:\n        /* \"contracts/StakePool.sol\":3196:3212  uint256 interest */\n      0x00\n        /* \"contracts/StakePool.sol\":3224:3241  User storage user */\n      dup1\n        /* \"contracts/StakePool.sol\":3244:3254  userStakes */\n      0x03\n        /* \"contracts/StakePool.sol\":3244:3266  userStakes[msg.sender] */\n      0x00\n        /* \"contracts/StakePool.sol\":3255:3265  msg.sender */\n      caller\n        /* \"contracts/StakePool.sol\":3244:3266  userStakes[msg.sender] */\n      0xffffffffffffffffffffffffffffffffffffffff\n      and\n      0xffffffffffffffffffffffffffffffffffffffff\n      and\n      dup2\n      mstore\n      0x20\n      add\n      swap1\n      dup2\n      mstore\n      0x20\n      add\n      0x00\n      keccak256\n        /* \"contracts/StakePool.sol\":3224:3266  User storage user = userStakes[msg.sender] */\n      swap1\n      pop\n        /* \"contracts/StakePool.sol\":3398:3406  31536000 */\n      0x01e13380\n        /* \"contracts/StakePool.sol\":3392:3395  100 */\n      0x64\n        /* \"contracts/StakePool.sol\":3384:3389  ratio */\n      0x02\n      0x14\n      swap1\n      sload\n      swap1\n      0x0100\n      exp\n      swap1\n      div\n      0xff\n      and\n        /* \"contracts/StakePool.sol\":3365:3389  user.stakeNumber * ratio */\n      0xff\n      and\n        /* \"contracts/StakePool.sol\":3365:3369  user */\n      dup4\n        /* \"contracts/StakePool.sol\":3365:3381  user.stakeNumber */\n      0x00\n      add\n      sload\n        /* \"contracts/StakePool.sol\":3365:3389  user.stakeNumber * ratio */\n      tag_104\n      swap2\n      swap1\n      tag_105\n      jump\t// in\n    tag_104:\n        /* \"contracts/StakePool.sol\":3365:3395  user.stakeNumber * ratio / 100 */\n      tag_106\n      swap2\n      swap1\n      tag_107\n      jump\t// in\n    tag_106:\n        /* \"contracts/StakePool.sol\":3365:3406  user.stakeNumber * ratio / 100 / 31536000 */\n      tag_108\n      swap2\n      swap1\n      tag_107\n      jump\t// in\n    tag_108:\n        /* \"contracts/StakePool.sol\":3342:3346  user */\n      dup2\n        /* \"contracts/StakePool.sol\":3342:3360  user.lastStakeTime */\n      0x03\n      add\n      sload\n        /* \"contracts/StakePool.sol\":3324:3339  block.timestamp */\n      timestamp\n        /* \"contracts/StakePool.sol\":3324:3360  block.timestamp - user.lastStakeTime */\n      tag_109\n      swap2\n      swap1\n      tag_78\n      jump\t// in\n    tag_109:\n        /* \"contracts/StakePool.sol\":3323:3407  (block.timestamp - user.lastStakeTime) * (user.stakeNumber * ratio / 100 / 31536000) */\n      tag_110\n      swap2\n      swap1\n      tag_105\n      jump\t// in\n    tag_110:\n        /* \"contracts/StakePool.sol\":3287:3291  user */\n      dup2\n        /* \"contracts/StakePool.sol\":3287:3307  user.currentInterest */\n      0x01\n      add\n      sload\n        /* \"contracts/StakePool.sol\":3287:3407  user.currentInterest + ... */\n      tag_111\n      swap2\n      swap1\n      tag_61\n      jump\t// in\n    tag_111:\n        /* \"contracts/StakePool.sol\":3276:3407  interest = user.currentInterest + ... */\n      swap2\n      pop\n        /* \"contracts/StakePool.sol\":3214:3414  {... */\n      pop\n        /* \"contracts/StakePool.sol\":3149:3414  function getUserInsert() private view returns (uint256 interest) {... */\n      swap1\n      jump\t// out\n        /* \"#utility.yul\":7:84   */\n    tag_112:\n        /* \"#utility.yul\":44:51   */\n      0x00\n        /* \"#utility.yul\":73:78   */\n      dup2\n        /* \"#utility.yul\":62:78   */\n      swap1\n      pop\n        /* \"#utility.yul\":7:84   */\n      swap2\n      swap1\n      pop\n      jump\t// out\n        /* \"#utility.yul\":90:208   */\n    tag_113:\n        /* \"#utility.yul\":177:201   */\n      tag_144\n        /* \"#utility.yul\":195:200   */\n      dup2\n        /* \"#utility.yul\":177:201   */\n      tag_112\n      jump\t// in\n    tag_144:\n        /* \"#utility.yul\":172:175   */\n      dup3\n        /* \"#utility.yul\":165:202   */\n      mstore\n        /* \"#utility.yul\":90:208   */\n      pop\n      pop\n      jump\t// out\n        /* \"#utility.yul\":214:436   */\n    tag_18:\n        /* \"#utility.yul\":307:311   */\n      0x00\n        /* \"#utility.yul\":345:347   */\n      0x20\n        /* \"#utility.yul\":334:343   */\n      dup3\n        /* \"#utility.yul\":330:348   */\n      add\n        /* \"#utility.yul\":322:348   */\n      swap1\n      pop\n        /* \"#utility.yul\":358:429   */\n      tag_146\n        /* \"#utility.yul\":426:427   */\n      0x00\n        /* \"#utility.yul\":415:424   */\n      dup4\n        /* \"#utility.yul\":411:428   */\n      add\n        /* \"#utility.yul\":402:408   */\n      dup5\n        /* \"#utility.yul\":358:429   */\n      tag_113\n      jump\t// in\n    tag_146:\n        /* \"#utility.yul\":214:436   */\n      swap3\n      swap2\n      pop\n      pop\n      jump\t// out\n        /* \"#utility.yul\":523:640   */\n    tag_115:\n        /* \"#utility.yul\":632:633   */\n      0x00\n        /* \"#utility.yul\":629:630   */\n      dup1\n        /* \"#utility.yul\":622:634   */\n      revert\n        /* \"#utility.yul\":769:895   */\n    tag_117:\n        /* \"#utility.yul\":806:813   */\n      0x00\n        /* \"#utility.yul\":846:888   */\n      0xffffffffffffffffffffffffffffffffffffffff\n        /* \"#utility.yul\":839:844   */\n      dup3\n        /* \"#utility.yul\":835:889   */\n      and\n        /* \"#utility.yul\":824:889   */\n      swap1\n      pop\n        /* \"#utility.yul\":769:895   */\n      swap2\n      swap1\n      pop\n      jump\t// out\n        /* \"#utility.yul\":901:997   */\n    tag_118:\n        /* \"#utility.yul\":938:945   */\n      0x00\n        /* \"#utility.yul\":967:991   */\n      tag_152\n        /* \"#utility.yul\":985:990   */\n      dup3\n        /* \"#utility.yul\":967:991   */\n      tag_117\n      jump\t// in\n    tag_152:\n        /* \"#utility.yul\":956:991   */\n      swap1\n      pop\n        /* \"#utility.yul\":901:997   */\n      swap2\n      swap1\n      pop\n      jump\t// out\n        /* \"#utility.yul\":1003:1125   */\n    tag_119:\n        /* \"#utility.yul\":1076:1100   */\n      tag_154\n        /* \"#utility.yul\":1094:1099   */\n      dup2\n        /* \"#utility.yul\":1076:1100   */\n      tag_118\n      jump\t// in\n    tag_154:\n        /* \"#utility.yul\":1069:1074   */\n      dup2\n        /* \"#utility.yul\":1066:1101   */\n      eq\n        /* \"#utility.yul\":1056:1119   */\n      tag_155\n      jumpi\n        /* \"#utility.yul\":1115:1116   */\n      0x00\n        /* \"#utility.yul\":1112:1113   */\n      dup1\n        /* \"#utility.yul\":1105:1117   */\n      revert\n        /* \"#utility.yul\":1056:1119   */\n    tag_155:\n        /* \"#utility.yul\":1003:1125   */\n      pop\n      jump\t// out\n        /* \"#utility.yul\":1131:1270   */\n    tag_120:\n        /* \"#utility.yul\":1177:1182   */\n      0x00\n        /* \"#utility.yul\":1215:1221   */\n      dup2\n        /* \"#utility.yul\":1202:1222   */\n      calldataload\n        /* \"#utility.yul\":1193:1222   */\n      swap1\n      pop\n        /* \"#utility.yul\":1231:1264   */\n      tag_157\n        /* \"#utility.yul\":1258:1263   */\n      dup2\n        /* \"#utility.yul\":1231:1264   */\n      tag_119\n      jump\t// in\n    tag_157:\n        /* \"#utility.yul\":1131:1270   */\n      swap3\n      swap2\n      pop\n      pop\n      jump\t// out\n        /* \"#utility.yul\":1276:1605   */\n    tag_21:\n        /* \"#utility.yul\":1335:1341   */\n      0x00\n        /* \"#utility.yul\":1384:1386   */\n      0x20\n        /* \"#utility.yul\":1372:1381   */\n      dup3\n        /* \"#utility.yul\":1363:1370   */\n      dup5\n        /* \"#utility.yul\":1359:1382   */\n      sub\n        /* \"#utility.yul\":1355:1387   */\n      slt\n        /* \"#utility.yul\":1352:1471   */\n      iszero\n      tag_159\n      jumpi\n        /* \"#utility.yul\":1390:1469   */\n      tag_160\n      tag_115\n      jump\t// in\n    tag_160:\n        /* \"#utility.yul\":1352:1471   */\n    tag_159:\n        /* \"#utility.yul\":1510:1511   */\n      0x00\n        /* \"#utility.yul\":1535:1588   */\n      tag_161\n        /* \"#utility.yul\":1580:1587   */\n      dup5\n        /* \"#utility.yul\":1571:1577   */\n      dup3\n        /* \"#utility.yul\":1560:1569   */\n      dup6\n        /* \"#utility.yul\":1556:1578   */\n      add\n        /* \"#utility.yul\":1535:1588   */\n      tag_120\n      jump\t// in\n    tag_161:\n        /* \"#utility.yul\":1525:1588   */\n      swap2\n      pop\n        /* \"#utility.yul\":1481:1598   */\n      pop\n        /* \"#utility.yul\":1276:1605   */\n      swap3\n      swap2\n      pop\n      pop\n      jump\t// out\n        /* \"#utility.yul\":1611:2053   */\n    tag_24:\n        /* \"#utility.yul\":1760:1764   */\n      0x00\n        /* \"#utility.yul\":1798:1800   */\n      0x60\n        /* \"#utility.yul\":1787:1796   */\n      dup3\n        /* \"#utility.yul\":1783:1801   */\n      add\n        /* \"#utility.yul\":1775:1801   */\n      swap1\n      pop\n        /* \"#utility.yul\":1811:1882   */\n      tag_163\n        /* \"#utility.yul\":1879:1880   */\n      0x00\n        /* \"#utility.yul\":1868:1877   */\n      dup4\n        /* \"#utility.yul\":1864:1881   */\n      add\n        /* \"#utility.yul\":1855:1861   */\n      dup7\n        /* \"#utility.yul\":1811:1882   */\n      tag_113\n      jump\t// in\n    tag_163:\n        /* \"#utility.yul\":1892:1964   */\n      tag_164\n        /* \"#utility.yul\":1960:1962   */\n      0x20\n        /* \"#utility.yul\":1949:1958   */\n      dup4\n        /* \"#utility.yul\":1945:1963   */\n      add\n        /* \"#utility.yul\":1936:1942   */\n      dup6\n        /* \"#utility.yul\":1892:1964   */\n      tag_113\n      jump\t// in\n    tag_164:\n        /* \"#utility.yul\":1974:2046   */\n      tag_165\n        /* \"#utility.yul\":2042:2044   */\n      0x40\n        /* \"#utility.yul\":2031:2040   */\n      dup4\n        /* \"#utility.yul\":2027:2045   */\n      add\n        /* \"#utility.yul\":2018:2024   */\n      dup5\n        /* \"#utility.yul\":1974:2046   */\n      tag_113\n      jump\t// in\n    tag_165:\n        /* \"#utility.yul\":1611:2053   */\n      swap5\n      swap4\n      pop\n      pop\n      pop\n      pop\n      jump\t// out\n        /* \"#utility.yul\":2059:2145   */\n    tag_121:\n        /* \"#utility.yul\":2094:2101   */\n      0x00\n        /* \"#utility.yul\":2134:2138   */\n      0xff\n        /* \"#utility.yul\":2127:2132   */\n      dup3\n        /* \"#utility.yul\":2123:2139   */\n      and\n        /* \"#utility.yul\":2112:2139   */\n      swap1\n      pop\n        /* \"#utility.yul\":2059:2145   */\n      swap2\n      swap1\n      pop\n      jump\t// out\n        /* \"#utility.yul\":2151:2263   */\n    tag_122:\n        /* \"#utility.yul\":2234:2256   */\n      tag_168\n        /* \"#utility.yul\":2250:2255   */\n      dup2\n        /* \"#utility.yul\":2234:2256   */\n      tag_121\n      jump\t// in\n    tag_168:\n        /* \"#utility.yul\":2229:2232   */\n      dup3\n        /* \"#utility.yul\":2222:2257   */\n      mstore\n        /* \"#utility.yul\":2151:2263   */\n      pop\n      pop\n      jump\t// out\n        /* \"#utility.yul\":2269:2483   */\n    tag_28:\n        /* \"#utility.yul\":2358:2362   */\n      0x00\n        /* \"#utility.yul\":2396:2398   */\n      0x20\n        /* \"#utility.yul\":2385:2394   */\n      dup3\n        /* \"#utility.yul\":2381:2399   */\n      add\n        /* \"#utility.yul\":2373:2399   */\n      swap1\n      pop\n        /* \"#utility.yul\":2409:2476   */\n      tag_170\n        /* \"#utility.yul\":2473:2474   */\n      0x00\n        /* \"#utility.yul\":2462:2471   */\n      dup4\n        /* \"#utility.yul\":2458:2475   */\n      add\n        /* \"#utility.yul\":2449:2455   */\n      dup5\n        /* \"#utility.yul\":2409:2476   */\n      tag_122\n      jump\t// in\n    tag_170:\n        /* \"#utility.yul\":2269:2483   */\n      swap3\n      swap2\n      pop\n      pop\n      jump\t// out\n        /* \"#utility.yul\":2489:2607   */\n    tag_123:\n        /* \"#utility.yul\":2560:2582   */\n      tag_172\n        /* \"#utility.yul\":2576:2581   */\n      dup2\n        /* \"#utility.yul\":2560:2582   */\n      tag_121\n      jump\t// in\n    tag_172:\n        /* \"#utility.yul\":2553:2558   */\n      dup2\n        /* \"#utility.yul\":2550:2583   */\n      eq\n        /* \"#utility.yul\":2540:2601   */\n      tag_173\n      jumpi\n        /* \"#utility.yul\":2597:2598   */\n      0x00\n        /* \"#utility.yul\":2594:2595   */\n      dup1\n        /* \"#utility.yul\":2587:2599   */\n      revert\n        /* \"#utility.yul\":2540:2601   */\n    tag_173:\n        /* \"#utility.yul\":2489:2607   */\n      pop\n      jump\t// out\n        /* \"#utility.yul\":2613:2748   */\n    tag_124:\n        /* \"#utility.yul\":2657:2662   */\n      0x00\n        /* \"#utility.yul\":2695:2701   */\n      dup2\n        /* \"#utility.yul\":2682:2702   */\n      calldataload\n        /* \"#utility.yul\":2673:2702   */\n      swap1\n      pop\n        /* \"#utility.yul\":2711:2742   */\n      tag_175\n        /* \"#utility.yul\":2736:2741   */\n      dup2\n        /* \"#utility.yul\":2711:2742   */\n      tag_123\n      jump\t// in\n    tag_175:\n        /* \"#utility.yul\":2613:2748   */\n      swap3\n      swap2\n      pop\n      pop\n      jump\t// out\n        /* \"#utility.yul\":2754:3079   */\n    tag_35:\n        /* \"#utility.yul\":2811:2817   */\n      0x00\n        /* \"#utility.yul\":2860:2862   */\n      0x20\n        /* \"#utility.yul\":2848:2857   */\n      dup3\n        /* \"#utility.yul\":2839:2846   */\n      dup5\n        /* \"#utility.yul\":2835:2858   */\n      sub\n        /* \"#utility.yul\":2831:2863   */\n      slt\n        /* \"#utility.yul\":2828:2947   */\n      iszero\n      tag_177\n      jumpi\n        /* \"#utility.yul\":2866:2945   */\n      tag_178\n      tag_115\n      jump\t// in\n    tag_178:\n        /* \"#utility.yul\":2828:2947   */\n    tag_177:\n        /* \"#utility.yul\":2986:2987   */\n      0x00\n        /* \"#utility.yul\":3011:3062   */\n      tag_179\n        /* \"#utility.yul\":3054:3061   */\n      dup5\n        /* \"#utility.yul\":3045:3051   */\n      dup3\n        /* \"#utility.yul\":3034:3043   */\n      dup6\n        /* \"#utility.yul\":3030:3052   */\n      add\n        /* \"#utility.yul\":3011:3062   */\n      tag_124\n      jump\t// in\n    tag_179:\n        /* \"#utility.yul\":3001:3062   */\n      swap2\n      pop\n        /* \"#utility.yul\":2957:3072   */\n      pop\n        /* \"#utility.yul\":2754:3079   */\n      swap3\n      swap2\n      pop\n      pop\n      jump\t// out\n        /* \"#utility.yul\":3085:3203   */\n    tag_125:\n        /* \"#utility.yul\":3172:3196   */\n      tag_181\n        /* \"#utility.yul\":3190:3195   */\n      dup2\n        /* \"#utility.yul\":3172:3196   */\n      tag_118\n      jump\t// in\n    tag_181:\n        /* \"#utility.yul\":3167:3170   */\n      dup3\n        /* \"#utility.yul\":3160:3197   */\n      mstore\n        /* \"#utility.yul\":3085:3203   */\n      pop\n      pop\n      jump\t// out\n        /* \"#utility.yul\":3209:3431   */\n    tag_40:\n        /* \"#utility.yul\":3302:3306   */\n      0x00\n        /* \"#utility.yul\":3340:3342   */\n      0x20\n        /* \"#utility.yul\":3329:3338   */\n      dup3\n        /* \"#utility.yul\":3325:3343   */\n      add\n        /* \"#utility.yul\":3317:3343   */\n      swap1\n      pop\n        /* \"#utility.yul\":3353:3424   */\n      tag_183\n        /* \"#utility.yul\":3421:3422   */\n      0x00\n        /* \"#utility.yul\":3410:3419   */\n      dup4\n        /* \"#utility.yul\":3406:3423   */\n      add\n        /* \"#utility.yul\":3397:3403   */\n      dup5\n        /* \"#utility.yul\":3353:3424   */\n      tag_125\n      jump\t// in\n    tag_183:\n        /* \"#utility.yul\":3209:3431   */\n      swap3\n      swap2\n      pop\n      pop\n      jump\t// out\n        /* \"#utility.yul\":3437:3990   */\n    tag_45:\n        /* \"#utility.yul\":3614:3618   */\n      0x00\n        /* \"#utility.yul\":3652:3655   */\n      0x80\n        /* \"#utility.yul\":3641:3650   */\n      dup3\n        /* \"#utility.yul\":3637:3656   */\n      add\n        /* \"#utility.yul\":3629:3656   */\n      swap1\n      pop\n        /* \"#utility.yul\":3666:3737   */\n      tag_185\n        /* \"#utility.yul\":3734:3735   */\n      0x00\n        /* \"#utility.yul\":3723:3732   */\n      dup4\n        /* \"#utility.yul\":3719:3736   */\n      add\n        /* \"#utility.yul\":3710:3716   */\n      dup8\n        /* \"#utility.yul\":3666:3737   */\n      tag_113\n      jump\t// in\n    tag_185:\n        /* \"#utility.yul\":3747:3819   */\n      tag_186\n        /* \"#utility.yul\":3815:3817   */\n      0x20\n        /* \"#utility.yul\":3804:3813   */\n      dup4\n        /* \"#utility.yul\":3800:3818   */\n      add\n        /* \"#utility.yul\":3791:3797   */\n      dup7\n        /* \"#utility.yul\":3747:3819   */\n      tag_113\n      jump\t// in\n    tag_186:\n        /* \"#utility.yul\":3829:3901   */\n      tag_187\n        /* \"#utility.yul\":3897:3899   */\n      0x40\n        /* \"#utility.yul\":3886:3895   */\n      dup4\n        /* \"#utility.yul\":3882:3900   */\n      add\n        /* \"#utility.yul\":3873:3879   */\n      dup6\n        /* \"#utility.yul\":3829:3901   */\n      tag_113\n      jump\t// in\n    tag_187:\n        /* \"#utility.yul\":3911:3983   */\n      tag_188\n        /* \"#utility.yul\":3979:3981   */\n      0x60\n        /* \"#utility.yul\":3968:3977   */\n      dup4\n        /* \"#utility.yul\":3964:3982   */\n      add\n        /* \"#utility.yul\":3955:3961   */\n      dup5\n        /* \"#utility.yul\":3911:3983   */\n      tag_113\n      jump\t// in\n    tag_188:\n        /* \"#utility.yul\":3437:3990   */\n      swap6\n      swap5\n      pop\n      pop\n      pop\n      pop\n      pop\n      jump\t// out\n        /* \"#utility.yul\":3996:4118   */\n    tag_126:\n        /* \"#utility.yul\":4069:4093   */\n      tag_190\n        /* \"#utility.yul\":4087:4092   */\n      dup2\n        /* \"#utility.yul\":4069:4093   */\n      tag_112\n      jump\t// in\n    tag_190:\n        /* \"#utility.yul\":4062:4067   */\n      dup2\n        /* \"#utility.yul\":4059:4094   */\n      eq\n        /* \"#utility.yul\":4049:4112   */\n      tag_191\n      jumpi\n        /* \"#utility.yul\":4108:4109   */\n      0x00\n        /* \"#utility.yul\":4105:4106   */\n      dup1\n        /* \"#utility.yul\":4098:4110   */\n      revert\n        /* \"#utility.yul\":4049:4112   */\n    tag_191:\n        /* \"#utility.yul\":3996:4118   */\n      pop\n      jump\t// out\n        /* \"#utility.yul\":4124:4263   */\n    tag_127:\n        /* \"#utility.yul\":4170:4175   */\n      0x00\n        /* \"#utility.yul\":4208:4214   */\n      dup2\n        /* \"#utility.yul\":4195:4215   */\n      calldataload\n        /* \"#utility.yul\":4186:4215   */\n      swap1\n      pop\n        /* \"#utility.yul\":4224:4257   */\n      tag_193\n        /* \"#utility.yul\":4251:4256   */\n      dup2\n        /* \"#utility.yul\":4224:4257   */\n      tag_126\n      jump\t// in\n    tag_193:\n        /* \"#utility.yul\":4124:4263   */\n      swap3\n      swap2\n      pop\n      pop\n      jump\t// out\n        /* \"#utility.yul\":4269:4598   */\n    tag_51:\n        /* \"#utility.yul\":4328:4334   */\n      0x00\n        /* \"#utility.yul\":4377:4379   */\n      0x20\n        /* \"#utility.yul\":4365:4374   */\n      dup3\n        /* \"#utility.yul\":4356:4363   */\n      dup5\n        /* \"#utility.yul\":4352:4375   */\n      sub\n        /* \"#utility.yul\":4348:4380   */\n      slt\n        /* \"#utility.yul\":4345:4464   */\n      iszero\n      tag_195\n      jumpi\n        /* \"#utility.yul\":4383:4462   */\n      tag_196\n      tag_115\n      jump\t// in\n    tag_196:\n        /* \"#utility.yul\":4345:4464   */\n    tag_195:\n        /* \"#utility.yul\":4503:4504   */\n      0x00\n        /* \"#utility.yul\":4528:4581   */\n      tag_197\n        /* \"#utility.yul\":4573:4580   */\n      dup5\n        /* \"#utility.yul\":4564:4570   */\n      dup3\n        /* \"#utility.yul\":4553:4562   */\n      dup6\n        /* \"#utility.yul\":4549:4571   */\n      add\n        /* \"#utility.yul\":4528:4581   */\n      tag_127\n      jump\t// in\n    tag_197:\n        /* \"#utility.yul\":4518:4581   */\n      swap2\n      pop\n        /* \"#utility.yul\":4474:4591   */\n      pop\n        /* \"#utility.yul\":4269:4598   */\n      swap3\n      swap2\n      pop\n      pop\n      jump\t// out\n        /* \"#utility.yul\":4604:4664   */\n    tag_128:\n        /* \"#utility.yul\":4632:4635   */\n      0x00\n        /* \"#utility.yul\":4653:4658   */\n      dup2\n        /* \"#utility.yul\":4646:4658   */\n      swap1\n      pop\n        /* \"#utility.yul\":4604:4664   */\n      swap2\n      swap1\n      pop\n      jump\t// out\n        /* \"#utility.yul\":4670:4812   */\n    tag_129:\n        /* \"#utility.yul\":4720:4729   */\n      0x00\n        /* \"#utility.yul\":4753:4806   */\n      tag_200\n        /* \"#utility.yul\":4771:4805   */\n      tag_201\n        /* \"#utility.yul\":4780:4804   */\n      tag_202\n        /* \"#utility.yul\":4798:4803   */\n      dup5\n        /* \"#utility.yul\":4780:4804   */\n      tag_117\n      jump\t// in\n    tag_202:\n        /* \"#utility.yul\":4771:4805   */\n      tag_128\n      jump\t// in\n    tag_201:\n        /* \"#utility.yul\":4753:4806   */\n      tag_117\n      jump\t// in\n    tag_200:\n        /* \"#utility.yul\":4740:4806   */\n      swap1\n      pop\n        /* \"#utility.yul\":4670:4812   */\n      swap2\n      swap1\n      pop\n      jump\t// out\n        /* \"#utility.yul\":4818:4944   */\n    tag_130:\n        /* \"#utility.yul\":4868:4877   */\n      0x00\n        /* \"#utility.yul\":4901:4938   */\n      tag_204\n        /* \"#utility.yul\":4932:4937   */\n      dup3\n        /* \"#utility.yul\":4901:4938   */\n      tag_129\n      jump\t// in\n    tag_204:\n        /* \"#utility.yul\":4888:4938   */\n      swap1\n      pop\n        /* \"#utility.yul\":4818:4944   */\n      swap2\n      swap1\n      pop\n      jump\t// out\n        /* \"#utility.yul\":4950:5089   */\n    tag_131:\n        /* \"#utility.yul\":5013:5022   */\n      0x00\n        /* \"#utility.yul\":5046:5083   */\n      tag_206\n        /* \"#utility.yul\":5077:5082   */\n      dup3\n        /* \"#utility.yul\":5046:5083   */\n      tag_130\n      jump\t// in\n    tag_206:\n        /* \"#utility.yul\":5033:5083   */\n      swap1\n      pop\n        /* \"#utility.yul\":4950:5089   */\n      swap2\n      swap1\n      pop\n      jump\t// out\n        /* \"#utility.yul\":5095:5252   */\n    tag_132:\n        /* \"#utility.yul\":5195:5245   */\n      tag_208\n        /* \"#utility.yul\":5239:5244   */\n      dup2\n        /* \"#utility.yul\":5195:5245   */\n      tag_131\n      jump\t// in\n    tag_208:\n        /* \"#utility.yul\":5190:5193   */\n      dup3\n        /* \"#utility.yul\":5183:5246   */\n      mstore\n        /* \"#utility.yul\":5095:5252   */\n      pop\n      pop\n      jump\t// out\n        /* \"#utility.yul\":5258:5506   */\n    tag_56:\n        /* \"#utility.yul\":5364:5368   */\n      0x00\n        /* \"#utility.yul\":5402:5404   */\n      0x20\n        /* \"#utility.yul\":5391:5400   */\n      dup3\n        /* \"#utility.yul\":5387:5405   */\n      add\n        /* \"#utility.yul\":5379:5405   */\n      swap1\n      pop\n        /* \"#utility.yul\":5415:5499   */\n      tag_210\n        /* \"#utility.yul\":5496:5497   */\n      0x00\n        /* \"#utility.yul\":5485:5494   */\n      dup4\n        /* \"#utility.yul\":5481:5498   */\n      add\n        /* \"#utility.yul\":5472:5478   */\n      dup5\n        /* \"#utility.yul\":5415:5499   */\n      tag_132\n      jump\t// in\n    tag_210:\n        /* \"#utility.yul\":5258:5506   */\n      swap3\n      swap2\n      pop\n      pop\n      jump\t// out\n        /* \"#utility.yul\":5512:5692   */\n    tag_133:\n        /* \"#utility.yul\":5560:5637   */\n      0x4e487b7100000000000000000000000000000000000000000000000000000000\n        /* \"#utility.yul\":5557:5558   */\n      0x00\n        /* \"#utility.yul\":5550:5638   */\n      mstore\n        /* \"#utility.yul\":5657:5661   */\n      0x11\n        /* \"#utility.yul\":5654:5655   */\n      0x04\n        /* \"#utility.yul\":5647:5662   */\n      mstore\n        /* \"#utility.yul\":5681:5685   */\n      0x24\n        /* \"#utility.yul\":5678:5679   */\n      0x00\n        /* \"#utility.yul\":5671:5686   */\n      revert\n        /* \"#utility.yul\":5698:6003   */\n    tag_61:\n        /* \"#utility.yul\":5738:5741   */\n      0x00\n        /* \"#utility.yul\":5757:5777   */\n      tag_213\n        /* \"#utility.yul\":5775:5776   */\n      dup3\n        /* \"#utility.yul\":5757:5777   */\n      tag_112\n      jump\t// in\n    tag_213:\n        /* \"#utility.yul\":5752:5777   */\n      swap2\n      pop\n        /* \"#utility.yul\":5791:5811   */\n      tag_214\n        /* \"#utility.yul\":5809:5810   */\n      dup4\n        /* \"#utility.yul\":5791:5811   */\n      tag_112\n      jump\t// in\n    tag_214:\n        /* \"#utility.yul\":5786:5811   */\n      swap3\n      pop\n        /* \"#utility.yul\":5945:5946   */\n      dup3\n        /* \"#utility.yul\":5877:5943   */\n      0xffffffffffffffffffffffffffffffffffffffffffffffffffffffffffffffff\n        /* \"#utility.yul\":5873:5947   */\n      sub\n        /* \"#utility.yul\":5870:5871   */\n      dup3\n        /* \"#utility.yul\":5867:5948   */\n      gt\n        /* \"#utility.yul\":5864:5971   */\n      iszero\n      tag_215\n      jumpi\n        /* \"#utility.yul\":5951:5969   */\n      tag_216\n      tag_133\n      jump\t// in\n    tag_216:\n        /* \"#utility.yul\":5864:5971   */\n    tag_215:\n        /* \"#utility.yul\":5995:5996   */\n      dup3\n        /* \"#utility.yul\":5992:5993   */\n      dup3\n        /* \"#utility.yul\":5988:5997   */\n      add\n        /* \"#utility.yul\":5981:5997   */\n      swap1\n      pop\n        /* \"#utility.yul\":5698:6003   */\n      swap3\n      swap2\n      pop\n      pop\n      jump\t// out\n        /* \"#utility.yul\":6009:6341   */\n    tag_65:\n        /* \"#utility.yul\":6130:6134   */\n      0x00\n        /* \"#utility.yul\":6168:6170   */\n      0x40\n        /* \"#utility.yul\":6157:6166   */\n      dup3\n        /* \"#utility.yul\":6153:6171   */\n      add\n        /* \"#utility.yul\":6145:6171   */\n      swap1\n      pop\n        /* \"#utility.yul\":6181:6252   */\n      tag_218\n        /* \"#utility.yul\":6249:6250   */\n      0x00\n        /* \"#utility.yul\":6238:6247   */\n      dup4\n        /* \"#utility.yul\":6234:6251   */\n      add\n        /* \"#utility.yul\":6225:6231   */\n      dup6\n        /* \"#utility.yul\":6181:6252   */\n      tag_125\n      jump\t// in\n    tag_218:\n        /* \"#utility.yul\":6262:6334   */\n      tag_219\n        /* \"#utility.yul\":6330:6332   */\n      0x20\n        /* \"#utility.yul\":6319:6328   */\n      dup4\n        /* \"#utility.yul\":6315:6333   */\n      add\n        /* \"#utility.yul\":6306:6312   */\n      dup5\n        /* \"#utility.yul\":6262:6334   */\n      tag_113\n      jump\t// in\n    tag_219:\n        /* \"#utility.yul\":6009:6341   */\n      swap4\n      swap3\n      pop\n      pop\n      pop\n      jump\t// out\n        /* \"#utility.yul\":6347:6437   */\n    tag_134:\n        /* \"#utility.yul\":6381:6388   */\n      0x00\n        /* \"#utility.yul\":6424:6429   */\n      dup2\n        /* \"#utility.yul\":6417:6430   */\n      iszero\n        /* \"#utility.yul\":6410:6431   */\n      iszero\n        /* \"#utility.yul\":6399:6431   */\n      swap1\n      pop\n        /* \"#utility.yul\":6347:6437   */\n      swap2\n      swap1\n      pop\n      jump\t// out\n        /* \"#utility.yul\":6443:6559   */\n    tag_135:\n        /* \"#utility.yul\":6513:6534   */\n      tag_222\n        /* \"#utility.yul\":6528:6533   */\n      dup2\n        /* \"#utility.yul\":6513:6534   */\n      tag_134\n      jump\t// in\n    tag_222:\n        /* \"#utility.yul\":6506:6511   */\n      dup2\n        /* \"#utility.yul\":6503:6535   */\n      eq\n        /* \"#utility.yul\":6493:6553   */\n      tag_223\n      jumpi\n        /* \"#utility.yul\":6549:6550   */\n      0x00\n        /* \"#utility.yul\":6546:6547   */\n      dup1\n        /* \"#utility.yul\":6539:6551   */\n      revert\n        /* \"#utility.yul\":6493:6553   */\n    tag_223:\n        /* \"#utility.yul\":6443:6559   */\n      pop\n      jump\t// out\n        /* \"#utility.yul\":6565:6702   */\n    tag_136:\n        /* \"#utility.yul\":6619:6624   */\n      0x00\n        /* \"#utility.yul\":6650:6656   */\n      dup2\n        /* \"#utility.yul\":6644:6657   */\n      mload\n        /* \"#utility.yul\":6635:6657   */\n      swap1\n      pop\n        /* \"#utility.yul\":6666:6696   */\n      tag_225\n        /* \"#utility.yul\":6690:6695   */\n      dup2\n        /* \"#utility.yul\":6666:6696   */\n      tag_135\n      jump\t// in\n    tag_225:\n        /* \"#utility.yul\":6565:6702   */\n      swap3\n      swap2\n      pop\n      pop\n      jump\t// out\n        /* \"#utility.yul\":6708:7053   */\n    tag_69:\n        /* \"#utility.yul\":6775:6781   */\n      0x00\n        /* \"#utility.yul\":6824:6826   */\n      0x20\n        /* \"#utility.yul\":6812:6821   */\n      dup3\n        /* \"#utility.yul\":6803:6810   */\n      dup5\n        /* \"#utility.yul\":6799:6822   */\n      sub\n        /* \"#utility.yul\":6795:6827   */\n      slt\n        /* \"#utility.yul\":6792:6911   */\n      iszero\n      tag_227\n      jumpi\n        /* \"#utility.yul\":6830:6909   */\n      tag_228\n      tag_115\n      jump\t// in\n    tag_228:\n        /* \"#utility.yul\":6792:6911   */\n    tag_227:\n        /* \"#utility.yul\":6950:6951   */\n      0x00\n        /* \"#utility.yul\":6975:7036   */\n      tag_229\n        /* \"#utility.yul\":7028:7035   */\n      dup5\n        /* \"#utility.yul\":7019:7025   */\n      dup3\n        /* \"#utility.yul\":7008:7017   */\n      dup6\n        /* \"#utility.yul\":7004:7026   */\n      add\n        /* \"#utility.yul\":6975:7036   */\n      tag_136\n      jump\t// in\n    tag_229:\n        /* \"#utility.yul\":6965:7036   */\n      swap2\n      pop\n        /* \"#utility.yul\":6921:7046   */\n      pop\n        /* \"#utility.yul\":6708:7053   */\n      swap3\n      swap2\n      pop\n      pop\n      jump\t// out\n        /* \"#utility.yul\":7059:7250   */\n    tag_78:\n        /* \"#utility.yul\":7099:7103   */\n      0x00\n        /* \"#utility.yul\":7119:7139   */\n      tag_231\n        /* \"#utility.yul\":7137:7138   */\n      dup3\n        /* \"#utility.yul\":7119:7139   */\n      tag_112\n      jump\t// in\n    tag_231:\n        /* \"#utility.yul\":7114:7139   */\n      swap2\n      pop\n        /* \"#utility.yul\":7153:7173   */\n      tag_232\n        /* \"#utility.yul\":7171:7172   */\n      dup4\n        /* \"#utility.yul\":7153:7173   */\n      tag_112\n      jump\t// in\n    tag_232:\n        /* \"#utility.yul\":7148:7173   */\n      swap3\n      pop\n        /* \"#utility.yul\":7192:7193   */\n      dup3\n        /* \"#utility.yul\":7189:7190   */\n      dup3\n        /* \"#utility.yul\":7186:7194   */\n      lt\n        /* \"#utility.yul\":7183:7217   */\n      iszero\n      tag_233\n      jumpi\n        /* \"#utility.yul\":7197:7215   */\n      tag_234\n      tag_133\n      jump\t// in\n    tag_234:\n        /* \"#utility.yul\":7183:7217   */\n    tag_233:\n        /* \"#utility.yul\":7242:7243   */\n      dup3\n        /* \"#utility.yul\":7239:7240   */\n      dup3\n        /* \"#utility.yul\":7235:7244   */\n      sub\n        /* \"#utility.yul\":7227:7244   */\n      swap1\n      pop\n        /* \"#utility.yul\":7059:7250   */\n      swap3\n      swap2\n      pop\n      pop\n      jump\t// out\n        /* \"#utility.yul\":7256:7425   */\n    tag_137:\n        /* \"#utility.yul\":7340:7351   */\n      0x00\n        /* \"#utility.yul\":7374:7380   */\n      dup3\n        /* \"#utility.yul\":7369:7372   */\n      dup3\n        /* \"#utility.yul\":7362:7381   */\n      mstore\n        /* \"#utility.yul\":7414:7418   */\n      0x20\n        /* \"#utility.yul\":7409:7412   */\n      dup3\n        /* \"#utility.yul\":7405:7419   */\n      add\n        /* \"#utility.yul\":7390:7419   */\n      swap1\n      pop\n        /* \"#utility.yul\":7256:7425   */\n      swap3\n      swap2\n      pop\n      pop\n      jump\t// out\n        /* \"#utility.yul\":7431:7590   */\n    tag_138:\n        /* \"#utility.yul\":7571:7582   */\n      0x6e6f74206f776e65720000000000000000000000000000000000000000000000\n        /* \"#utility.yul\":7567:7568   */\n      0x00\n        /* \"#utility.yul\":7559:7565   */\n      dup3\n        /* \"#utility.yul\":7555:7569   */\n      add\n        /* \"#utility.yul\":7548:7583   */\n      mstore\n        /* \"#utility.yul\":7431:7590   */\n      pop\n      jump\t// out\n        /* \"#utility.yul\":7596:7961   */\n    tag_139:\n        /* \"#utility.yul\":7738:7741   */\n      0x00\n        /* \"#utility.yul\":7759:7825   */\n      tag_238\n        /* \"#utility.yul\":7823:7824   */\n      0x09\n        /* \"#utility.yul\":7818:7821   */\n      dup4\n        /* \"#utility.yul\":7759:7825   */\n      tag_137\n      jump\t// in\n    tag_238:\n        /* \"#utility.yul\":7752:7825   */\n      swap2\n      pop\n        /* \"#utility.yul\":7834:7927   */\n      tag_239\n        /* \"#utility.yul\":7923:7926   */\n      dup3\n        /* \"#utility.yul\":7834:7927   */\n      tag_138\n      jump\t// in\n    tag_239:\n        /* \"#utility.yul\":7952:7954   */\n      0x20\n        /* \"#utility.yul\":7947:7950   */\n      dup3\n        /* \"#utility.yul\":7943:7955   */\n      add\n        /* \"#utility.yul\":7936:7955   */\n      swap1\n      pop\n        /* \"#utility.yul\":7596:7961   */\n      swap2\n      swap1\n      pop\n      jump\t// out\n        /* \"#utility.yul\":7967:8386   */\n    tag_90:\n        /* \"#utility.yul\":8133:8137   */\n      0x00\n        /* \"#utility.yul\":8171:8173   */\n      0x20\n        /* \"#utility.yul\":8160:8169   */\n      dup3\n        /* \"#utility.yul\":8156:8174   */\n      add\n        /* \"#utility.yul\":8148:8174   */\n      swap1\n      pop\n        /* \"#utility.yul\":8220:8229   */\n      dup2\n        /* \"#utility.yul\":8214:8218   */\n      dup2\n        /* \"#utility.yul\":8210:8230   */\n      sub\n        /* \"#utility.yul\":8206:8207   */\n      0x00\n        /* \"#utility.yul\":8195:8204   */\n      dup4\n        /* \"#utility.yul\":8191:8208   */\n      add\n        /* \"#utility.yul\":8184:8231   */\n      mstore\n        /* \"#utility.yul\":8248:8379   */\n      tag_241\n        /* \"#utility.yul\":8374:8378   */\n      dup2\n        /* \"#utility.yul\":8248:8379   */\n      tag_139\n      jump\t// in\n    tag_241:\n        /* \"#utility.yul\":8240:8379   */\n      swap1\n      pop\n        /* \"#utility.yul\":7967:8386   */\n      swap2\n      swap1\n      pop\n      jump\t// out\n        /* \"#utility.yul\":8392:8834   */\n    tag_95:\n        /* \"#utility.yul\":8541:8545   */\n      0x00\n        /* \"#utility.yul\":8579:8581   */\n      0x60\n        /* \"#utility.yul\":8568:8577   */\n      dup3\n        /* \"#utility.yul\":8564:8582   */\n      add\n        /* \"#utility.yul\":8556:8582   */\n      swap1\n      pop\n        /* \"#utility.yul\":8592:8663   */\n      tag_243\n        /* \"#utility.yul\":8660:8661   */\n      0x00\n        /* \"#utility.yul\":8649:8658   */\n      dup4\n        /* \"#utility.yul\":8645:8662   */\n      add\n        /* \"#utility.yul\":8636:8642   */\n      dup7\n        /* \"#utility.yul\":8592:8663   */\n      tag_125\n      jump\t// in\n    tag_243:\n        /* \"#utility.yul\":8673:8745   */\n      tag_244\n        /* \"#utility.yul\":8741:8743   */\n      0x20\n        /* \"#utility.yul\":8730:8739   */\n      dup4\n        /* \"#utility.yul\":8726:8744   */\n      add\n        /* \"#utility.yul\":8717:8723   */\n      dup6\n        /* \"#utility.yul\":8673:8745   */\n      tag_125\n      jump\t// in\n    tag_244:\n        /* \"#utility.yul\":8755:8827   */\n      tag_245\n        /* \"#utility.yul\":8823:8825   */\n      0x40\n        /* \"#utility.yul\":8812:8821   */\n      dup4\n        /* \"#utility.yul\":8808:8826   */\n      add\n        /* \"#utility.yul\":8799:8805   */\n      dup5\n        /* \"#utility.yul\":8755:8827   */\n      tag_113\n      jump\t// in\n    tag_245:\n        /* \"#utility.yul\":8392:8834   */\n      swap5\n      swap4\n      pop\n      pop\n      pop\n      pop\n      jump\t// out\n        /* \"#utility.yul\":8840:9188   */\n    tag_105:\n        /* \"#utility.yul\":8880:8887   */\n      0x00\n        /* \"#utility.yul\":8903:8923   */\n      tag_247\n        /* \"#utility.yul\":8921:8922   */\n      dup3\n        /* \"#utility.yul\":8903:8923   */\n      tag_112\n      jump\t// in\n    tag_247:\n        /* \"#utility.yul\":8898:8923   */\n      swap2\n      pop\n        /* \"#utility.yul\":8937:8957   */\n      tag_248\n        /* \"#utility.yul\":8955:8956   */\n      dup4\n        /* \"#utility.yul\":8937:8957   */\n      tag_112\n      jump\t// in\n    tag_248:\n        /* \"#utility.yul\":8932:8957   */\n      swap3\n      pop\n        /* \"#utility.yul\":9125:9126   */\n      dup2\n        /* \"#utility.yul\":9057:9123   */\n      0xffffffffffffffffffffffffffffffffffffffffffffffffffffffffffffffff\n        /* \"#utility.yul\":9053:9127   */\n      div\n        /* \"#utility.yul\":9050:9051   */\n      dup4\n        /* \"#utility.yul\":9047:9128   */\n      gt\n        /* \"#utility.yul\":9042:9043   */\n      dup3\n        /* \"#utility.yul\":9035:9044   */\n      iszero\n        /* \"#utility.yul\":9028:9045   */\n      iszero\n        /* \"#utility.yul\":9024:9129   */\n      and\n        /* \"#utility.yul\":9021:9152   */\n      iszero\n      tag_249\n      jumpi\n        /* \"#utility.yul\":9132:9150   */\n      tag_250\n      tag_133\n      jump\t// in\n    tag_250:\n        /* \"#utility.yul\":9021:9152   */\n    tag_249:\n        /* \"#utility.yul\":9180:9181   */\n      dup3\n        /* \"#utility.yul\":9177:9178   */\n      dup3\n        /* \"#utility.yul\":9173:9182   */\n      mul\n        /* \"#utility.yul\":9162:9182   */\n      swap1\n      pop\n        /* \"#utility.yul\":8840:9188   */\n      swap3\n      swap2\n      pop\n      pop\n      jump\t// out\n        /* \"#utility.yul\":9194:9374   */\n    tag_140:\n        /* \"#utility.yul\":9242:9319   */\n      0x4e487b7100000000000000000000000000000000000000000000000000000000\n        /* \"#utility.yul\":9239:9240   */\n      0x00\n        /* \"#utility.yul\":9232:9320   */\n      mstore\n        /* \"#utility.yul\":9339:9343   */\n      0x12\n        /* \"#utility.yul\":9336:9337   */\n      0x04\n        /* \"#utility.yul\":9329:9344   */\n      mstore\n        /* \"#utility.yul\":9363:9367   */\n      0x24\n        /* \"#utility.yul\":9360:9361   */\n      0x00\n        /* \"#utility.yul\":9353:9368   */\n      revert\n        /* \"#utility.yul\":9380:9565   */\n    tag_107:\n        /* \"#utility.yul\":9420:9421   */\n      0x00\n        /* \"#utility.yul\":9437:9457   */\n      tag_253\n        /* \"#utility.yul\":9455:9456   */\n      dup3\n        /* \"#utility.yul\":9437:9457   */\n      tag_112\n      jump\t// in\n    tag_253:\n        /* \"#utility.yul\":9432:9457   */\n      swap2\n      pop\n        /* \"#utility.yul\":9471:9491   */\n      tag_254\n        /* \"#utility.yul\":9489:9490   */\n      dup4\n        /* \"#utility.yul\":9471:9491   */\n      tag_112\n      jump\t// in\n    tag_254:\n        /* \"#utility.yul\":9466:9491   */\n      swap3\n      pop\n        /* \"#utility.yul\":9510:9511   */\n      dup3\n        /* \"#utility.yul\":9500:9535   */\n      tag_255\n      jumpi\n        /* \"#utility.yul\":9515:9533   */\n      tag_256\n      tag_140\n      jump\t// in\n    tag_256:\n        /* \"#utility.yul\":9500:9535   */\n    tag_255:\n        /* \"#utility.yul\":9557:9558   */\n      dup3\n        /* \"#utility.yul\":9554:9555   */\n      dup3\n        /* \"#utility.yul\":9550:9559   */\n      div\n        /* \"#utility.yul\":9545:9559   */\n      swap1\n      pop\n        /* \"#utility.yul\":9380:9565   */\n      swap3\n      swap2\n      pop\n      pop\n      jump\t// out\n\n    auxdata: 0xa26469706673582212200df067d38b7c950376e26b9602620f584a7b6ea1d15c3c86cc83b594c520671a64736f6c634300080f0033\n}\n",
				"bytecode": {
					"linkReferences": {},
					"object": "608060405260016000553480156200001657600080fd5b50604051620011f7380380620011f783398181016040528101906200003c91906200018c565b80600160006101000a81548173ffffffffffffffffffffffffffffffffffffffff021916908373ffffffffffffffffffffffffffffffffffffffff16021790555080600460006101000a81548173ffffffffffffffffffffffffffffffffffffffff021916908373ffffffffffffffffffffffffffffffffffffffff1602179055506032600260146101000a81548160ff021916908360ff16021790555033600260006101000a81548173ffffffffffffffffffffffffffffffffffffffff021916908373ffffffffffffffffffffffffffffffffffffffff16021790555050620001be565b600080fd5b600073ffffffffffffffffffffffffffffffffffffffff82169050919050565b6000620001548262000127565b9050919050565b620001668162000147565b81146200017257600080fd5b50565b60008151905062000186816200015b565b92915050565b600060208284031215620001a557620001a462000122565b5b6000620001b58482850162000175565b91505092915050565b61102980620001ce6000396000f3fe608060405234801561001057600080fd5b50600436106100a95760003560e01c80638d994beb116100715780638d994beb146101305780638da5cb5b1461014c5780638da7ad231461016a5780639d76ea581461019d578063a694fc3a146101bb578063bf0ae63d146101d7576100a9565b806353b645e5146100ae5780636386c1c7146100cc57806371ca337d146100fe57806373cf575a1461011c57806383a6deb514610126575b600080fd5b6100b66101f5565b6040516100c39190610a8a565b60405180910390f35b6100e660048036038101906100e19190610b08565b6101fb565b6040516100f593929190610b35565b60405180910390f35b6101066102a6565b6040516101139190610b88565b60405180910390f35b6101246102b9565b005b61012e610546565b005b61014a60048036038101906101459190610bcf565b6106b6565b005b61015461079b565b6040516101619190610c0b565b60405180910390f35b610184600480360381019061017f9190610b08565b6107c1565b6040516101949493929190610c26565b60405180910390f35b6101a56107f1565b6040516101b29190610c0b565b60405180910390f35b6101d560048036038101906101d09190610c97565b610817565b005b6101df61099b565b6040516101ec9190610d23565b60405180910390f35b60005481565b6000806000600360008573ffffffffffffffffffffffffffffffffffffffff1673ffffffffffffffffffffffffffffffffffffffff16815260200190815260200160002060000154925061024d6109c1565b915081600360008673ffffffffffffffffffffffffffffffffffffffff1673ffffffffffffffffffffffffffffffffffffffff1681526020019081526020016000206002015461029d9190610d6d565b90509193909250565b600260149054906101000a900460ff1681565b60006102c36109c1565b90506000600360003373ffffffffffffffffffffffffffffffffffffffff1673ffffffffffffffffffffffffffffffffffffffff1681526020019081526020016000209050600460009054906101000a900473ffffffffffffffffffffffffffffffffffffffff1673ffffffffffffffffffffffffffffffffffffffff1663a9059cbb3383600001546040518363ffffffff1660e01b8152600401610369929190610dc3565b6020604051808303816000875af1158015610388573d6000803e3d6000fd5b505050506040513d601f19601f820116820180604052508101906103ac9190610e24565b50600460009054906101000a900473ffffffffffffffffffffffffffffffffffffffff1673ffffffffffffffffffffffffffffffffffffffff1663a9059cbb33846040518363ffffffff1660e01b815260040161040a929190610dc3565b6020604051808303816000875af1158015610429573d6000803e3d6000fd5b505050506040513d601f19601f8201168201806040525081019061044d9190610e24565b503373ffffffffffffffffffffffffffffffffffffffff167fb24546d975e2628748efc9aced80665e0fad66272033e5c0ea25fd3afac9979582600001546040516104989190610a8a565b60405180910390a23373ffffffffffffffffffffffffffffffffffffffff167fd6717f327e0cb88b4a97a7f67a453e9258252c34937ccbdd86de7cb840e7def3836040516104e69190610a8a565b60405180910390a2818160020160008282546105029190610d6d565b9250508190555042816003018190555080600001546000808282546105279190610e51565b9250508190555060008160000181905550600081600101819055505050565b6000600360003373ffffffffffffffffffffffffffffffffffffffff1673ffffffffffffffffffffffffffffffffffffffff168152602001908152602001600020905060006105936109c1565b9050600460009054906101000a900473ffffffffffffffffffffffffffffffffffffffff1673ffffffffffffffffffffffffffffffffffffffff1663a9059cbb33836040518363ffffffff1660e01b81526004016105f2929190610dc3565b6020604051808303816000875af1158015610611573d6000803e3d6000fd5b505050506040513d601f19601f820116820180604052508101906106359190610e24565b503373ffffffffffffffffffffffffffffffffffffffff167fd6717f327e0cb88b4a97a7f67a453e9258252c34937ccbdd86de7cb840e7def38260405161067c9190610a8a565b60405180910390a2808260020160008282546106989190610d6d565b92505081905550428260030181905550600082600101819055505050565b600260009054906101000a900473ffffffffffffffffffffffffffffffffffffffff1673ffffffffffffffffffffffffffffffffffffffff163373ffffffffffffffffffffffffffffffffffffffff1614610746576040517f08c379a000000000000000000000000000000000000000000000000000000000815260040161073d90610ee2565b60405180910390fd5b80600260146101000a81548160ff021916908360ff1602179055507f86fdfa566b117b03b2ef4d50c64fe89efd432852397764c120c6796cfdd820f8816040516107909190610b88565b60405180910390a150565b600260009054906101000a900473ffffffffffffffffffffffffffffffffffffffff1681565b60036020528060005260406000206000915090508060000154908060010154908060020154908060030154905084565b600160009054906101000a900473ffffffffffffffffffffffffffffffffffffffff1681565b600460009054906101000a900473ffffffffffffffffffffffffffffffffffffffff1673ffffffffffffffffffffffffffffffffffffffff166323b872dd3330846040518463ffffffff1660e01b815260040161087693929190610f02565b6020604051808303816000875af1158015610895573d6000803e3d6000fd5b505050506040513d601f19601f820116820180604052508101906108b99190610e24565b506000600360003373ffffffffffffffffffffffffffffffffffffffff1673ffffffffffffffffffffffffffffffffffffffff16815260200190815260200160002090506109056109c1565b8160010181905550818160000160008282546109219190610d6d565b92505081905550428160030181905550816000808282546109429190610d6d565b925050819055503373ffffffffffffffffffffffffffffffffffffffff167febedb8b3c678666e7f36970bc8f57abf6d8fa2e828c0da91ea5b75bf68ed101a8360405161098f9190610a8a565b60405180910390a25050565b600460009054906101000a900473ffffffffffffffffffffffffffffffffffffffff1681565b600080600360003373ffffffffffffffffffffffffffffffffffffffff1673ffffffffffffffffffffffffffffffffffffffff16815260200190815260200160002090506301e133806064600260149054906101000a900460ff1660ff168360000154610a2e9190610f39565b610a389190610fc2565b610a429190610fc2565b816003015442610a529190610e51565b610a5c9190610f39565b8160010154610a6b9190610d6d565b91505090565b6000819050919050565b610a8481610a71565b82525050565b6000602082019050610a9f6000830184610a7b565b92915050565b600080fd5b600073ffffffffffffffffffffffffffffffffffffffff82169050919050565b6000610ad582610aaa565b9050919050565b610ae581610aca565b8114610af057600080fd5b50565b600081359050610b0281610adc565b92915050565b600060208284031215610b1e57610b1d610aa5565b5b6000610b2c84828501610af3565b91505092915050565b6000606082019050610b4a6000830186610a7b565b610b576020830185610a7b565b610b646040830184610a7b565b949350505050565b600060ff82169050919050565b610b8281610b6c565b82525050565b6000602082019050610b9d6000830184610b79565b92915050565b610bac81610b6c565b8114610bb757600080fd5b50565b600081359050610bc981610ba3565b92915050565b600060208284031215610be557610be4610aa5565b5b6000610bf384828501610bba565b91505092915050565b610c0581610aca565b82525050565b6000602082019050610c206000830184610bfc565b92915050565b6000608082019050610c3b6000830187610a7b565b610c486020830186610a7b565b610c556040830185610a7b565b610c626060830184610a7b565b95945050505050565b610c7481610a71565b8114610c7f57600080fd5b50565b600081359050610c9181610c6b565b92915050565b600060208284031215610cad57610cac610aa5565b5b6000610cbb84828501610c82565b91505092915050565b6000819050919050565b6000610ce9610ce4610cdf84610aaa565b610cc4565b610aaa565b9050919050565b6000610cfb82610cce565b9050919050565b6000610d0d82610cf0565b9050919050565b610d1d81610d02565b82525050565b6000602082019050610d386000830184610d14565b92915050565b7f4e487b7100000000000000000000000000000000000000000000000000000000600052601160045260246000fd5b6000610d7882610a71565b9150610d8383610a71565b9250827fffffffffffffffffffffffffffffffffffffffffffffffffffffffffffffffff03821115610db857610db7610d3e565b5b828201905092915050565b6000604082019050610dd86000830185610bfc565b610de56020830184610a7b565b9392505050565b60008115159050919050565b610e0181610dec565b8114610e0c57600080fd5b50565b600081519050610e1e81610df8565b92915050565b600060208284031215610e3a57610e39610aa5565b5b6000610e4884828501610e0f565b91505092915050565b6000610e5c82610a71565b9150610e6783610a71565b925082821015610e7a57610e79610d3e565b5b828203905092915050565b600082825260208201905092915050565b7f6e6f74206f776e65720000000000000000000000000000000000000000000000600082015250565b6000610ecc600983610e85565b9150610ed782610e96565b602082019050919050565b60006020820190508181036000830152610efb81610ebf565b9050919050565b6000606082019050610f176000830186610bfc565b610f246020830185610bfc565b610f316040830184610a7b565b949350505050565b6000610f4482610a71565b9150610f4f83610a71565b9250817fffffffffffffffffffffffffffffffffffffffffffffffffffffffffffffffff0483118215151615610f8857610f87610d3e565b5b828202905092915050565b7f4e487b7100000000000000000000000000000000000000000000000000000000600052601260045260246000fd5b6000610fcd82610a71565b9150610fd883610a71565b925082610fe857610fe7610f93565b5b82820490509291505056fea26469706673582212200df067d38b7c950376e26b9602620f584a7b6ea1d15c3c86cc83b594c520671a64736f6c634300080f0033",
					"opcodes": "PUSH1 0x80 PUSH1 0x40 MSTORE PUSH1 0x1 PUSH1 0x0 SSTORE CALLVALUE DUP1 ISZERO PUSH3 0x16 JUMPI PUSH1 0x0 DUP1 REVERT JUMPDEST POP PUSH1 0x40 MLOAD PUSH3 0x11F7 CODESIZE SUB DUP1 PUSH3 0x11F7 DUP4 CODECOPY DUP2 DUP2 ADD PUSH1 0x40 MSTORE DUP2 ADD SWAP1 PUSH3 0x3C SWAP2 SWAP1 PUSH3 0x18C JUMP JUMPDEST DUP1 PUSH1 0x1 PUSH1 0x0 PUSH2 0x100 EXP DUP2 SLOAD DUP2 PUSH20 0xFFFFFFFFFFFFFFFFFFFFFFFFFFFFFFFFFFFFFFFF MUL NOT AND SWAP1 DUP4 PUSH20 0xFFFFFFFFFFFFFFFFFFFFFFFFFFFFFFFFFFFFFFFF AND MUL OR SWAP1 SSTORE POP DUP1 PUSH1 0x4 PUSH1 0x0 PUSH2 0x100 EXP DUP2 SLOAD DUP2 PUSH20 0xFFFFFFFFFFFFFFFFFFFFFFFFFFFFFFFFFFFFFFFF MUL NOT AND SWAP1 DUP4 PUSH20 0xFFFFFFFFFFFFFFFFFFFFFFFFFFFFFFFFFFFFFFFF AND MUL OR SWAP1 SSTORE POP PUSH1 0x32 PUSH1 0x2 PUSH1 0x14 PUSH2 0x100 EXP DUP2 SLOAD DUP2 PUSH1 0xFF MUL NOT AND SWAP1 DUP4 PUSH1 0xFF AND MUL OR SWAP1 SSTORE POP CALLER PUSH1 0x2 PUSH1 0x0 PUSH2 0x100 EXP DUP2 SLOAD DUP2 PUSH20 0xFFFFFFFFFFFFFFFFFFFFFFFFFFFFFFFFFFFFFFFF MUL NOT AND SWAP1 DUP4 PUSH20 0xFFFFFFFFFFFFFFFFFFFFFFFFFFFFFFFFFFFFFFFF AND MUL OR SWAP1 SSTORE POP POP PUSH3 0x1BE JUMP JUMPDEST PUSH1 0x0 DUP1 REVERT JUMPDEST PUSH1 0x0 PUSH20 0xFFFFFFFFFFFFFFFFFFFFFFFFFFFFFFFFFFFFFFFF DUP3 AND SWAP1 POP SWAP2 SWAP1 POP JUMP JUMPDEST PUSH1 0x0 PUSH3 0x154 DUP3 PUSH3 0x127 JUMP JUMPDEST SWAP1 POP SWAP2 SWAP1 POP JUMP JUMPDEST PUSH3 0x166 DUP2 PUSH3 0x147 JUMP JUMPDEST DUP2 EQ PUSH3 0x172 JUMPI PUSH1 0x0 DUP1 REVERT JUMPDEST POP JUMP JUMPDEST PUSH1 0x0 DUP2 MLOAD SWAP1 POP PUSH3 0x186 DUP2 PUSH3 0x15B JUMP JUMPDEST SWAP3 SWAP2 POP POP JUMP JUMPDEST PUSH1 0x0 PUSH1 0x20 DUP3 DUP5 SUB SLT ISZERO PUSH3 0x1A5 JUMPI PUSH3 0x1A4 PUSH3 0x122 JUMP JUMPDEST JUMPDEST PUSH1 0x0 PUSH3 0x1B5 DUP5 DUP3 DUP6 ADD PUSH3 0x175 JUMP JUMPDEST SWAP2 POP POP SWAP3 SWAP2 POP POP JUMP JUMPDEST PUSH2 0x1029 DUP1 PUSH3 0x1CE PUSH1 0x0 CODECOPY PUSH1 0x0 RETURN INVALID PUSH1 0x80 PUSH1 0x40 MSTORE CALLVALUE DUP1 ISZERO PUSH2 0x10 JUMPI PUSH1 0x0 DUP1 REVERT JUMPDEST POP PUSH1 0x4 CALLDATASIZE LT PUSH2 0xA9 JUMPI PUSH1 0x0 CALLDATALOAD PUSH1 0xE0 SHR DUP1 PUSH4 0x8D994BEB GT PUSH2 0x71 JUMPI DUP1 PUSH4 0x8D994BEB EQ PUSH2 0x130 JUMPI DUP1 PUSH4 0x8DA5CB5B EQ PUSH2 0x14C JUMPI DUP1 PUSH4 0x8DA7AD23 EQ PUSH2 0x16A JUMPI DUP1 PUSH4 0x9D76EA58 EQ PUSH2 0x19D JUMPI DUP1 PUSH4 0xA694FC3A EQ PUSH2 0x1BB JUMPI DUP1 PUSH4 0xBF0AE63D EQ PUSH2 0x1D7 JUMPI PUSH2 0xA9 JUMP JUMPDEST DUP1 PUSH4 0x53B645E5 EQ PUSH2 0xAE JUMPI DUP1 PUSH4 0x6386C1C7 EQ PUSH2 0xCC JUMPI DUP1 PUSH4 0x71CA337D EQ PUSH2 0xFE JUMPI DUP1 PUSH4 0x73CF575A EQ PUSH2 0x11C JUMPI DUP1 PUSH4 0x83A6DEB5 EQ PUSH2 0x126 JUMPI JUMPDEST PUSH1 0x0 DUP1 REVERT JUMPDEST PUSH2 0xB6 PUSH2 0x1F5 JUMP JUMPDEST PUSH1 0x40 MLOAD PUSH2 0xC3 SWAP2 SWAP1 PUSH2 0xA8A JUMP JUMPDEST PUSH1 0x40 MLOAD DUP1 SWAP2 SUB SWAP1 RETURN JUMPDEST PUSH2 0xE6 PUSH1 0x4 DUP1 CALLDATASIZE SUB DUP2 ADD SWAP1 PUSH2 0xE1 SWAP2 SWAP1 PUSH2 0xB08 JUMP JUMPDEST PUSH2 0x1FB JUMP JUMPDEST PUSH1 0x40 MLOAD PUSH2 0xF5 SWAP4 SWAP3 SWAP2 SWAP1 PUSH2 0xB35 JUMP JUMPDEST PUSH1 0x40 MLOAD DUP1 SWAP2 SUB SWAP1 RETURN JUMPDEST PUSH2 0x106 PUSH2 0x2A6 JUMP JUMPDEST PUSH1 0x40 MLOAD PUSH2 0x113 SWAP2 SWAP1 PUSH2 0xB88 JUMP JUMPDEST PUSH1 0x40 MLOAD DUP1 SWAP2 SUB SWAP1 RETURN JUMPDEST PUSH2 0x124 PUSH2 0x2B9 JUMP JUMPDEST STOP JUMPDEST PUSH2 0x12E PUSH2 0x546 JUMP JUMPDEST STOP JUMPDEST PUSH2 0x14A PUSH1 0x4 DUP1 CALLDATASIZE SUB DUP2 ADD SWAP1 PUSH2 0x145 SWAP2 SWAP1 PUSH2 0xBCF JUMP JUMPDEST PUSH2 0x6B6 JUMP JUMPDEST STOP JUMPDEST PUSH2 0x154 PUSH2 0x79B JUMP JUMPDEST PUSH1 0x40 MLOAD PUSH2 0x161 SWAP2 SWAP1 PUSH2 0xC0B JUMP JUMPDEST PUSH1 0x40 MLOAD DUP1 SWAP2 SUB SWAP1 RETURN JUMPDEST PUSH2 0x184 PUSH1 0x4 DUP1 CALLDATASIZE SUB DUP2 ADD SWAP1 PUSH2 0x17F SWAP2 SWAP1 PUSH2 0xB08 JUMP JUMPDEST PUSH2 0x7C1 JUMP JUMPDEST PUSH1 0x40 MLOAD PUSH2 0x194 SWAP5 SWAP4 SWAP3 SWAP2 SWAP1 PUSH2 0xC26 JUMP JUMPDEST PUSH1 0x40 MLOAD DUP1 SWAP2 SUB SWAP1 RETURN JUMPDEST PUSH2 0x1A5 PUSH2 0x7F1 JUMP JUMPDEST PUSH1 0x40 MLOAD PUSH2 0x1B2 SWAP2 SWAP1 PUSH2 0xC0B JUMP JUMPDEST PUSH1 0x40 MLOAD DUP1 SWAP2 SUB SWAP1 RETURN JUMPDEST PUSH2 0x1D5 PUSH1 0x4 DUP1 CALLDATASIZE SUB DUP2 ADD SWAP1 PUSH2 0x1D0 SWAP2 SWAP1 PUSH2 0xC97 JUMP JUMPDEST PUSH2 0x817 JUMP JUMPDEST STOP JUMPDEST PUSH2 0x1DF PUSH2 0x99B JUMP JUMPDEST PUSH1 0x40 MLOAD PUSH2 0x1EC SWAP2 SWAP1 PUSH2 0xD23 JUMP JUMPDEST PUSH1 0x40 MLOAD DUP1 SWAP2 SUB SWAP1 RETURN JUMPDEST PUSH1 0x0 SLOAD DUP2 JUMP JUMPDEST PUSH1 0x0 DUP1 PUSH1 0x0 PUSH1 0x3 PUSH1 0x0 DUP6 PUSH20 0xFFFFFFFFFFFFFFFFFFFFFFFFFFFFFFFFFFFFFFFF AND PUSH20 0xFFFFFFFFFFFFFFFFFFFFFFFFFFFFFFFFFFFFFFFF AND DUP2 MSTORE PUSH1 0x20 ADD SWAP1 DUP2 MSTORE PUSH1 0x20 ADD PUSH1 0x0 KECCAK256 PUSH1 0x0 ADD SLOAD SWAP3 POP PUSH2 0x24D PUSH2 0x9C1 JUMP JUMPDEST SWAP2 POP DUP2 PUSH1 0x3 PUSH1 0x0 DUP7 PUSH20 0xFFFFFFFFFFFFFFFFFFFFFFFFFFFFFFFFFFFFFFFF AND PUSH20 0xFFFFFFFFFFFFFFFFFFFFFFFFFFFFFFFFFFFFFFFF AND DUP2 MSTORE PUSH1 0x20 ADD SWAP1 DUP2 MSTORE PUSH1 0x20 ADD PUSH1 0x0 KECCAK256 PUSH1 0x2 ADD SLOAD PUSH2 0x29D SWAP2 SWAP1 PUSH2 0xD6D JUMP JUMPDEST SWAP1 POP SWAP2 SWAP4 SWAP1 SWAP3 POP JUMP JUMPDEST PUSH1 0x2 PUSH1 0x14 SWAP1 SLOAD SWAP1 PUSH2 0x100 EXP SWAP1 DIV PUSH1 0xFF AND DUP2 JUMP JUMPDEST PUSH1 0x0 PUSH2 0x2C3 PUSH2 0x9C1 JUMP JUMPDEST SWAP1 POP PUSH1 0x0 PUSH1 0x3 PUSH1 0x0 CALLER PUSH20 0xFFFFFFFFFFFFFFFFFFFFFFFFFFFFFFFFFFFFFFFF AND PUSH20 0xFFFFFFFFFFFFFFFFFFFFFFFFFFFFFFFFFFFFFFFF AND DUP2 MSTORE PUSH1 0x20 ADD SWAP1 DUP2 MSTORE PUSH1 0x20 ADD PUSH1 0x0 KECCAK256 SWAP1 POP PUSH1 0x4 PUSH1 0x0 SWAP1 SLOAD SWAP1 PUSH2 0x100 EXP SWAP1 DIV PUSH20 0xFFFFFFFFFFFFFFFFFFFFFFFFFFFFFFFFFFFFFFFF AND PUSH20 0xFFFFFFFFFFFFFFFFFFFFFFFFFFFFFFFFFFFFFFFF AND PUSH4 0xA9059CBB CALLER DUP4 PUSH1 0x0 ADD SLOAD PUSH1 0x40 MLOAD DUP4 PUSH4 0xFFFFFFFF AND PUSH1 0xE0 SHL DUP2 MSTORE PUSH1 0x4 ADD PUSH2 0x369 SWAP3 SWAP2 SWAP1 PUSH2 0xDC3 JUMP JUMPDEST PUSH1 0x20 PUSH1 0x40 MLOAD DUP1 DUP4 SUB DUP2 PUSH1 0x0 DUP8 GAS CALL ISZERO DUP1 ISZERO PUSH2 0x388 JUMPI RETURNDATASIZE PUSH1 0x0 DUP1 RETURNDATACOPY RETURNDATASIZE PUSH1 0x0 REVERT JUMPDEST POP POP POP POP PUSH1 0x40 MLOAD RETURNDATASIZE PUSH1 0x1F NOT PUSH1 0x1F DUP3 ADD AND DUP3 ADD DUP1 PUSH1 0x40 MSTORE POP DUP2 ADD SWAP1 PUSH2 0x3AC SWAP2 SWAP1 PUSH2 0xE24 JUMP JUMPDEST POP PUSH1 0x4 PUSH1 0x0 SWAP1 SLOAD SWAP1 PUSH2 0x100 EXP SWAP1 DIV PUSH20 0xFFFFFFFFFFFFFFFFFFFFFFFFFFFFFFFFFFFFFFFF AND PUSH20 0xFFFFFFFFFFFFFFFFFFFFFFFFFFFFFFFFFFFFFFFF AND PUSH4 0xA9059CBB CALLER DUP5 PUSH1 0x40 MLOAD DUP4 PUSH4 0xFFFFFFFF AND PUSH1 0xE0 SHL DUP2 MSTORE PUSH1 0x4 ADD PUSH2 0x40A SWAP3 SWAP2 SWAP1 PUSH2 0xDC3 JUMP JUMPDEST PUSH1 0x20 PUSH1 0x40 MLOAD DUP1 DUP4 SUB DUP2 PUSH1 0x0 DUP8 GAS CALL ISZERO DUP1 ISZERO PUSH2 0x429 JUMPI RETURNDATASIZE PUSH1 0x0 DUP1 RETURNDATACOPY RETURNDATASIZE PUSH1 0x0 REVERT JUMPDEST POP POP POP POP PUSH1 0x40 MLOAD RETURNDATASIZE PUSH1 0x1F NOT PUSH1 0x1F DUP3 ADD AND DUP3 ADD DUP1 PUSH1 0x40 MSTORE POP DUP2 ADD SWAP1 PUSH2 0x44D SWAP2 SWAP1 PUSH2 0xE24 JUMP JUMPDEST POP CALLER PUSH20 0xFFFFFFFFFFFFFFFFFFFFFFFFFFFFFFFFFFFFFFFF AND PUSH32 0xB24546D975E2628748EFC9ACED80665E0FAD66272033E5C0EA25FD3AFAC99795 DUP3 PUSH1 0x0 ADD SLOAD PUSH1 0x40 MLOAD PUSH2 0x498 SWAP2 SWAP1 PUSH2 0xA8A JUMP JUMPDEST PUSH1 0x40 MLOAD DUP1 SWAP2 SUB SWAP1 LOG2 CALLER PUSH20 0xFFFFFFFFFFFFFFFFFFFFFFFFFFFFFFFFFFFFFFFF AND PUSH32 0xD6717F327E0CB88B4A97A7F67A453E9258252C34937CCBDD86DE7CB840E7DEF3 DUP4 PUSH1 0x40 MLOAD PUSH2 0x4E6 SWAP2 SWAP1 PUSH2 0xA8A JUMP JUMPDEST PUSH1 0x40 MLOAD DUP1 SWAP2 SUB SWAP1 LOG2 DUP2 DUP2 PUSH1 0x2 ADD PUSH1 0x0 DUP3 DUP3 SLOAD PUSH2 0x502 SWAP2 SWAP1 PUSH2 0xD6D JUMP JUMPDEST SWAP3 POP POP DUP2 SWAP1 SSTORE POP TIMESTAMP DUP2 PUSH1 0x3 ADD DUP2 SWAP1 SSTORE POP DUP1 PUSH1 0x0 ADD SLOAD PUSH1 0x0 DUP1 DUP3 DUP3 SLOAD PUSH2 0x527 SWAP2 SWAP1 PUSH2 0xE51 JUMP JUMPDEST SWAP3 POP POP DUP2 SWAP1 SSTORE POP PUSH1 0x0 DUP2 PUSH1 0x0 ADD DUP2 SWAP1 SSTORE POP PUSH1 0x0 DUP2 PUSH1 0x1 ADD DUP2 SWAP1 SSTORE POP POP POP JUMP JUMPDEST PUSH1 0x0 PUSH1 0x3 PUSH1 0x0 CALLER PUSH20 0xFFFFFFFFFFFFFFFFFFFFFFFFFFFFFFFFFFFFFFFF AND PUSH20 0xFFFFFFFFFFFFFFFFFFFFFFFFFFFFFFFFFFFFFFFF AND DUP2 MSTORE PUSH1 0x20 ADD SWAP1 DUP2 MSTORE PUSH1 0x20 ADD PUSH1 0x0 KECCAK256 SWAP1 POP PUSH1 0x0 PUSH2 0x593 PUSH2 0x9C1 JUMP JUMPDEST SWAP1 POP PUSH1 0x4 PUSH1 0x0 SWAP1 SLOAD SWAP1 PUSH2 0x100 EXP SWAP1 DIV PUSH20 0xFFFFFFFFFFFFFFFFFFFFFFFFFFFFFFFFFFFFFFFF AND PUSH20 0xFFFFFFFFFFFFFFFFFFFFFFFFFFFFFFFFFFFFFFFF AND PUSH4 0xA9059CBB CALLER DUP4 PUSH1 0x40 MLOAD DUP4 PUSH4 0xFFFFFFFF AND PUSH1 0xE0 SHL DUP2 MSTORE PUSH1 0x4 ADD PUSH2 0x5F2 SWAP3 SWAP2 SWAP1 PUSH2 0xDC3 JUMP JUMPDEST PUSH1 0x20 PUSH1 0x40 MLOAD DUP1 DUP4 SUB DUP2 PUSH1 0x0 DUP8 GAS CALL ISZERO DUP1 ISZERO PUSH2 0x611 JUMPI RETURNDATASIZE PUSH1 0x0 DUP1 RETURNDATACOPY RETURNDATASIZE PUSH1 0x0 REVERT JUMPDEST POP POP POP POP PUSH1 0x40 MLOAD RETURNDATASIZE PUSH1 0x1F NOT PUSH1 0x1F DUP3 ADD AND DUP3 ADD DUP1 PUSH1 0x40 MSTORE POP DUP2 ADD SWAP1 PUSH2 0x635 SWAP2 SWAP1 PUSH2 0xE24 JUMP JUMPDEST POP CALLER PUSH20 0xFFFFFFFFFFFFFFFFFFFFFFFFFFFFFFFFFFFFFFFF AND PUSH32 0xD6717F327E0CB88B4A97A7F67A453E9258252C34937CCBDD86DE7CB840E7DEF3 DUP3 PUSH1 0x40 MLOAD PUSH2 0x67C SWAP2 SWAP1 PUSH2 0xA8A JUMP JUMPDEST PUSH1 0x40 MLOAD DUP1 SWAP2 SUB SWAP1 LOG2 DUP1 DUP3 PUSH1 0x2 ADD PUSH1 0x0 DUP3 DUP3 SLOAD PUSH2 0x698 SWAP2 SWAP1 PUSH2 0xD6D JUMP JUMPDEST SWAP3 POP POP DUP2 SWAP1 SSTORE POP TIMESTAMP DUP3 PUSH1 0x3 ADD DUP2 SWAP1 SSTORE POP PUSH1 0x0 DUP3 PUSH1 0x1 ADD DUP2 SWAP1 SSTORE POP POP POP JUMP JUMPDEST PUSH1 0x2 PUSH1 0x0 SWAP1 SLOAD SWAP1 PUSH2 0x100 EXP SWAP1 DIV PUSH20 0xFFFFFFFFFFFFFFFFFFFFFFFFFFFFFFFFFFFFFFFF AND PUSH20 0xFFFFFFFFFFFFFFFFFFFFFFFFFFFFFFFFFFFFFFFF AND CALLER PUSH20 0xFFFFFFFFFFFFFFFFFFFFFFFFFFFFFFFFFFFFFFFF AND EQ PUSH2 0x746 JUMPI PUSH1 0x40 MLOAD PUSH32 0x8C379A000000000000000000000000000000000000000000000000000000000 DUP2 MSTORE PUSH1 0x4 ADD PUSH2 0x73D SWAP1 PUSH2 0xEE2 JUMP JUMPDEST PUSH1 0x40 MLOAD DUP1 SWAP2 SUB SWAP1 REVERT JUMPDEST DUP1 PUSH1 0x2 PUSH1 0x14 PUSH2 0x100 EXP DUP2 SLOAD DUP2 PUSH1 0xFF MUL NOT AND SWAP1 DUP4 PUSH1 0xFF AND MUL OR SWAP1 SSTORE POP PUSH32 0x86FDFA566B117B03B2EF4D50C64FE89EFD432852397764C120C6796CFDD820F8 DUP2 PUSH1 0x40 MLOAD PUSH2 0x790 SWAP2 SWAP1 PUSH2 0xB88 JUMP JUMPDEST PUSH1 0x40 MLOAD DUP1 SWAP2 SUB SWAP1 LOG1 POP JUMP JUMPDEST PUSH1 0x2 PUSH1 0x0 SWAP1 SLOAD SWAP1 PUSH2 0x100 EXP SWAP1 DIV PUSH20 0xFFFFFFFFFFFFFFFFFFFFFFFFFFFFFFFFFFFFFFFF AND DUP2 JUMP JUMPDEST PUSH1 0x3 PUSH1 0x20 MSTORE DUP1 PUSH1 0x0 MSTORE PUSH1 0x40 PUSH1 0x0 KECCAK256 PUSH1 0x0 SWAP2 POP SWAP1 POP DUP1 PUSH1 0x0 ADD SLOAD SWAP1 DUP1 PUSH1 0x1 ADD SLOAD SWAP1 DUP1 PUSH1 0x2 ADD SLOAD SWAP1 DUP1 PUSH1 0x3 ADD SLOAD SWAP1 POP DUP5 JUMP JUMPDEST PUSH1 0x1 PUSH1 0x0 SWAP1 SLOAD SWAP1 PUSH2 0x100 EXP SWAP1 DIV PUSH20 0xFFFFFFFFFFFFFFFFFFFFFFFFFFFFFFFFFFFFFFFF AND DUP2 JUMP JUMPDEST PUSH1 0x4 PUSH1 0x0 SWAP1 SLOAD SWAP1 PUSH2 0x100 EXP SWAP1 DIV PUSH20 0xFFFFFFFFFFFFFFFFFFFFFFFFFFFFFFFFFFFFFFFF AND PUSH20 0xFFFFFFFFFFFFFFFFFFFFFFFFFFFFFFFFFFFFFFFF AND PUSH4 0x23B872DD CALLER ADDRESS DUP5 PUSH1 0x40 MLOAD DUP5 PUSH4 0xFFFFFFFF AND PUSH1 0xE0 SHL DUP2 MSTORE PUSH1 0x4 ADD PUSH2 0x876 SWAP4 SWAP3 SWAP2 SWAP1 PUSH2 0xF02 JUMP JUMPDEST PUSH1 0x20 PUSH1 0x40 MLOAD DUP1 DUP4 SUB DUP2 PUSH1 0x0 DUP8 GAS CALL ISZERO DUP1 ISZERO PUSH2 0x895 JUMPI RETURNDATASIZE PUSH1 0x0 DUP1 RETURNDATACOPY RETURNDATASIZE PUSH1 0x0 REVERT JUMPDEST POP POP POP POP PUSH1 0x40 MLOAD RETURNDATASIZE PUSH1 0x1F NOT PUSH1 0x1F DUP3 ADD AND DUP3 ADD DUP1 PUSH1 0x40 MSTORE POP DUP2 ADD SWAP1 PUSH2 0x8B9 SWAP2 SWAP1 PUSH2 0xE24 JUMP JUMPDEST POP PUSH1 0x0 PUSH1 0x3 PUSH1 0x0 CALLER PUSH20 0xFFFFFFFFFFFFFFFFFFFFFFFFFFFFFFFFFFFFFFFF AND PUSH20 0xFFFFFFFFFFFFFFFFFFFFFFFFFFFFFFFFFFFFFFFF AND DUP2 MSTORE PUSH1 0x20 ADD SWAP1 DUP2 MSTORE PUSH1 0x20 ADD PUSH1 0x0 KECCAK256 SWAP1 POP PUSH2 0x905 PUSH2 0x9C1 JUMP JUMPDEST DUP2 PUSH1 0x1 ADD DUP2 SWAP1 SSTORE POP DUP2 DUP2 PUSH1 0x0 ADD PUSH1 0x0 DUP3 DUP3 SLOAD PUSH2 0x921 SWAP2 SWAP1 PUSH2 0xD6D JUMP JUMPDEST SWAP3 POP POP DUP2 SWAP1 SSTORE POP TIMESTAMP DUP2 PUSH1 0x3 ADD DUP2 SWAP1 SSTORE POP DUP2 PUSH1 0x0 DUP1 DUP3 DUP3 SLOAD PUSH2 0x942 SWAP2 SWAP1 PUSH2 0xD6D JUMP JUMPDEST SWAP3 POP POP DUP2 SWAP1 SSTORE POP CALLER PUSH20 0xFFFFFFFFFFFFFFFFFFFFFFFFFFFFFFFFFFFFFFFF AND PUSH32 0xEBEDB8B3C678666E7F36970BC8F57ABF6D8FA2E828C0DA91EA5B75BF68ED101A DUP4 PUSH1 0x40 MLOAD PUSH2 0x98F SWAP2 SWAP1 PUSH2 0xA8A JUMP JUMPDEST PUSH1 0x40 MLOAD DUP1 SWAP2 SUB SWAP1 LOG2 POP POP JUMP JUMPDEST PUSH1 0x4 PUSH1 0x0 SWAP1 SLOAD SWAP1 PUSH2 0x100 EXP SWAP1 DIV PUSH20 0xFFFFFFFFFFFFFFFFFFFFFFFFFFFFFFFFFFFFFFFF AND DUP2 JUMP JUMPDEST PUSH1 0x0 DUP1 PUSH1 0x3 PUSH1 0x0 CALLER PUSH20 0xFFFFFFFFFFFFFFFFFFFFFFFFFFFFFFFFFFFFFFFF AND PUSH20 0xFFFFFFFFFFFFFFFFFFFFFFFFFFFFFFFFFFFFFFFF AND DUP2 MSTORE PUSH1 0x20 ADD SWAP1 DUP2 MSTORE PUSH1 0x20 ADD PUSH1 0x0 KECCAK256 SWAP1 POP PUSH4 0x1E13380 PUSH1 0x64 PUSH1 0x2 PUSH1 0x14 SWAP1 SLOAD SWAP1 PUSH2 0x100 EXP SWAP1 DIV PUSH1 0xFF AND PUSH1 0xFF AND DUP4 PUSH1 0x0 ADD SLOAD PUSH2 0xA2E SWAP2 SWAP1 PUSH2 0xF39 JUMP JUMPDEST PUSH2 0xA38 SWAP2 SWAP1 PUSH2 0xFC2 JUMP JUMPDEST PUSH2 0xA42 SWAP2 SWAP1 PUSH2 0xFC2 JUMP JUMPDEST DUP2 PUSH1 0x3 ADD SLOAD TIMESTAMP PUSH2 0xA52 SWAP2 SWAP1 PUSH2 0xE51 JUMP JUMPDEST PUSH2 0xA5C SWAP2 SWAP1 PUSH2 0xF39 JUMP JUMPDEST DUP2 PUSH1 0x1 ADD SLOAD PUSH2 0xA6B SWAP2 SWAP1 PUSH2 0xD6D JUMP JUMPDEST SWAP2 POP POP SWAP1 JUMP JUMPDEST PUSH1 0x0 DUP2 SWAP1 POP SWAP2 SWAP1 POP JUMP JUMPDEST PUSH2 0xA84 DUP2 PUSH2 0xA71 JUMP JUMPDEST DUP3 MSTORE POP POP JUMP JUMPDEST PUSH1 0x0 PUSH1 0x20 DUP3 ADD SWAP1 POP PUSH2 0xA9F PUSH1 0x0 DUP4 ADD DUP5 PUSH2 0xA7B JUMP JUMPDEST SWAP3 SWAP2 POP POP JUMP JUMPDEST PUSH1 0x0 DUP1 REVERT JUMPDEST PUSH1 0x0 PUSH20 0xFFFFFFFFFFFFFFFFFFFFFFFFFFFFFFFFFFFFFFFF DUP3 AND SWAP1 POP SWAP2 SWAP1 POP JUMP JUMPDEST PUSH1 0x0 PUSH2 0xAD5 DUP3 PUSH2 0xAAA JUMP JUMPDEST SWAP1 POP SWAP2 SWAP1 POP JUMP JUMPDEST PUSH2 0xAE5 DUP2 PUSH2 0xACA JUMP JUMPDEST DUP2 EQ PUSH2 0xAF0 JUMPI PUSH1 0x0 DUP1 REVERT JUMPDEST POP JUMP JUMPDEST PUSH1 0x0 DUP2 CALLDATALOAD SWAP1 POP PUSH2 0xB02 DUP2 PUSH2 0xADC JUMP JUMPDEST SWAP3 SWAP2 POP POP JUMP JUMPDEST PUSH1 0x0 PUSH1 0x20 DUP3 DUP5 SUB SLT ISZERO PUSH2 0xB1E JUMPI PUSH2 0xB1D PUSH2 0xAA5 JUMP JUMPDEST JUMPDEST PUSH1 0x0 PUSH2 0xB2C DUP5 DUP3 DUP6 ADD PUSH2 0xAF3 JUMP JUMPDEST SWAP2 POP POP SWAP3 SWAP2 POP POP JUMP JUMPDEST PUSH1 0x0 PUSH1 0x60 DUP3 ADD SWAP1 POP PUSH2 0xB4A PUSH1 0x0 DUP4 ADD DUP7 PUSH2 0xA7B JUMP JUMPDEST PUSH2 0xB57 PUSH1 0x20 DUP4 ADD DUP6 PUSH2 0xA7B JUMP JUMPDEST PUSH2 0xB64 PUSH1 0x40 DUP4 ADD DUP5 PUSH2 0xA7B JUMP JUMPDEST SWAP5 SWAP4 POP POP POP POP JUMP JUMPDEST PUSH1 0x0 PUSH1 0xFF DUP3 AND SWAP1 POP SWAP2 SWAP1 POP JUMP JUMPDEST PUSH2 0xB82 DUP2 PUSH2 0xB6C JUMP JUMPDEST DUP3 MSTORE POP POP JUMP JUMPDEST PUSH1 0x0 PUSH1 0x20 DUP3 ADD SWAP1 POP PUSH2 0xB9D PUSH1 0x0 DUP4 ADD DUP5 PUSH2 0xB79 JUMP JUMPDEST SWAP3 SWAP2 POP POP JUMP JUMPDEST PUSH2 0xBAC DUP2 PUSH2 0xB6C JUMP JUMPDEST DUP2 EQ PUSH2 0xBB7 JUMPI PUSH1 0x0 DUP1 REVERT JUMPDEST POP JUMP JUMPDEST PUSH1 0x0 DUP2 CALLDATALOAD SWAP1 POP PUSH2 0xBC9 DUP2 PUSH2 0xBA3 JUMP JUMPDEST SWAP3 SWAP2 POP POP JUMP JUMPDEST PUSH1 0x0 PUSH1 0x20 DUP3 DUP5 SUB SLT ISZERO PUSH2 0xBE5 JUMPI PUSH2 0xBE4 PUSH2 0xAA5 JUMP JUMPDEST JUMPDEST PUSH1 0x0 PUSH2 0xBF3 DUP5 DUP3 DUP6 ADD PUSH2 0xBBA JUMP JUMPDEST SWAP2 POP POP SWAP3 SWAP2 POP POP JUMP JUMPDEST PUSH2 0xC05 DUP2 PUSH2 0xACA JUMP JUMPDEST DUP3 MSTORE POP POP JUMP JUMPDEST PUSH1 0x0 PUSH1 0x20 DUP3 ADD SWAP1 POP PUSH2 0xC20 PUSH1 0x0 DUP4 ADD DUP5 PUSH2 0xBFC JUMP JUMPDEST SWAP3 SWAP2 POP POP JUMP JUMPDEST PUSH1 0x0 PUSH1 0x80 DUP3 ADD SWAP1 POP PUSH2 0xC3B PUSH1 0x0 DUP4 ADD DUP8 PUSH2 0xA7B JUMP JUMPDEST PUSH2 0xC48 PUSH1 0x20 DUP4 ADD DUP7 PUSH2 0xA7B JUMP JUMPDEST PUSH2 0xC55 PUSH1 0x40 DUP4 ADD DUP6 PUSH2 0xA7B JUMP JUMPDEST PUSH2 0xC62 PUSH1 0x60 DUP4 ADD DUP5 PUSH2 0xA7B JUMP JUMPDEST SWAP6 SWAP5 POP POP POP POP POP JUMP JUMPDEST PUSH2 0xC74 DUP2 PUSH2 0xA71 JUMP JUMPDEST DUP2 EQ PUSH2 0xC7F JUMPI PUSH1 0x0 DUP1 REVERT JUMPDEST POP JUMP JUMPDEST PUSH1 0x0 DUP2 CALLDATALOAD SWAP1 POP PUSH2 0xC91 DUP2 PUSH2 0xC6B JUMP JUMPDEST SWAP3 SWAP2 POP POP JUMP JUMPDEST PUSH1 0x0 PUSH1 0x20 DUP3 DUP5 SUB SLT ISZERO PUSH2 0xCAD JUMPI PUSH2 0xCAC PUSH2 0xAA5 JUMP JUMPDEST JUMPDEST PUSH1 0x0 PUSH2 0xCBB DUP5 DUP3 DUP6 ADD PUSH2 0xC82 JUMP JUMPDEST SWAP2 POP POP SWAP3 SWAP2 POP POP JUMP JUMPDEST PUSH1 0x0 DUP2 SWAP1 POP SWAP2 SWAP1 POP JUMP JUMPDEST PUSH1 0x0 PUSH2 0xCE9 PUSH2 0xCE4 PUSH2 0xCDF DUP5 PUSH2 0xAAA JUMP JUMPDEST PUSH2 0xCC4 JUMP JUMPDEST PUSH2 0xAAA JUMP JUMPDEST SWAP1 POP SWAP2 SWAP1 POP JUMP JUMPDEST PUSH1 0x0 PUSH2 0xCFB DUP3 PUSH2 0xCCE JUMP JUMPDEST SWAP1 POP SWAP2 SWAP1 POP JUMP JUMPDEST PUSH1 0x0 PUSH2 0xD0D DUP3 PUSH2 0xCF0 JUMP JUMPDEST SWAP1 POP SWAP2 SWAP1 POP JUMP JUMPDEST PUSH2 0xD1D DUP2 PUSH2 0xD02 JUMP JUMPDEST DUP3 MSTORE POP POP JUMP JUMPDEST PUSH1 0x0 PUSH1 0x20 DUP3 ADD SWAP1 POP PUSH2 0xD38 PUSH1 0x0 DUP4 ADD DUP5 PUSH2 0xD14 JUMP JUMPDEST SWAP3 SWAP2 POP POP JUMP JUMPDEST PUSH32 0x4E487B7100000000000000000000000000000000000000000000000000000000 PUSH1 0x0 MSTORE PUSH1 0x11 PUSH1 0x4 MSTORE PUSH1 0x24 PUSH1 0x0 REVERT JUMPDEST PUSH1 0x0 PUSH2 0xD78 DUP3 PUSH2 0xA71 JUMP JUMPDEST SWAP2 POP PUSH2 0xD83 DUP4 PUSH2 0xA71 JUMP JUMPDEST SWAP3 POP DUP3 PUSH32 0xFFFFFFFFFFFFFFFFFFFFFFFFFFFFFFFFFFFFFFFFFFFFFFFFFFFFFFFFFFFFFFFF SUB DUP3 GT ISZERO PUSH2 0xDB8 JUMPI PUSH2 0xDB7 PUSH2 0xD3E JUMP JUMPDEST JUMPDEST DUP3 DUP3 ADD SWAP1 POP SWAP3 SWAP2 POP POP JUMP JUMPDEST PUSH1 0x0 PUSH1 0x40 DUP3 ADD SWAP1 POP PUSH2 0xDD8 PUSH1 0x0 DUP4 ADD DUP6 PUSH2 0xBFC JUMP JUMPDEST PUSH2 0xDE5 PUSH1 0x20 DUP4 ADD DUP5 PUSH2 0xA7B JUMP JUMPDEST SWAP4 SWAP3 POP POP POP JUMP JUMPDEST PUSH1 0x0 DUP2 ISZERO ISZERO SWAP1 POP SWAP2 SWAP1 POP JUMP JUMPDEST PUSH2 0xE01 DUP2 PUSH2 0xDEC JUMP JUMPDEST DUP2 EQ PUSH2 0xE0C JUMPI PUSH1 0x0 DUP1 REVERT JUMPDEST POP JUMP JUMPDEST PUSH1 0x0 DUP2 MLOAD SWAP1 POP PUSH2 0xE1E DUP2 PUSH2 0xDF8 JUMP JUMPDEST SWAP3 SWAP2 POP POP JUMP JUMPDEST PUSH1 0x0 PUSH1 0x20 DUP3 DUP5 SUB SLT ISZERO PUSH2 0xE3A JUMPI PUSH2 0xE39 PUSH2 0xAA5 JUMP JUMPDEST JUMPDEST PUSH1 0x0 PUSH2 0xE48 DUP5 DUP3 DUP6 ADD PUSH2 0xE0F JUMP JUMPDEST SWAP2 POP POP SWAP3 SWAP2 POP POP JUMP JUMPDEST PUSH1 0x0 PUSH2 0xE5C DUP3 PUSH2 0xA71 JUMP JUMPDEST SWAP2 POP PUSH2 0xE67 DUP4 PUSH2 0xA71 JUMP JUMPDEST SWAP3 POP DUP3 DUP3 LT ISZERO PUSH2 0xE7A JUMPI PUSH2 0xE79 PUSH2 0xD3E JUMP JUMPDEST JUMPDEST DUP3 DUP3 SUB SWAP1 POP SWAP3 SWAP2 POP POP JUMP JUMPDEST PUSH1 0x0 DUP3 DUP3 MSTORE PUSH1 0x20 DUP3 ADD SWAP1 POP SWAP3 SWAP2 POP POP JUMP JUMPDEST PUSH32 0x6E6F74206F776E65720000000000000000000000000000000000000000000000 PUSH1 0x0 DUP3 ADD MSTORE POP JUMP JUMPDEST PUSH1 0x0 PUSH2 0xECC PUSH1 0x9 DUP4 PUSH2 0xE85 JUMP JUMPDEST SWAP2 POP PUSH2 0xED7 DUP3 PUSH2 0xE96 JUMP JUMPDEST PUSH1 0x20 DUP3 ADD SWAP1 POP SWAP2 SWAP1 POP JUMP JUMPDEST PUSH1 0x0 PUSH1 0x20 DUP3 ADD SWAP1 POP DUP2 DUP2 SUB PUSH1 0x0 DUP4 ADD MSTORE PUSH2 0xEFB DUP2 PUSH2 0xEBF JUMP JUMPDEST SWAP1 POP SWAP2 SWAP1 POP JUMP JUMPDEST PUSH1 0x0 PUSH1 0x60 DUP3 ADD SWAP1 POP PUSH2 0xF17 PUSH1 0x0 DUP4 ADD DUP7 PUSH2 0xBFC JUMP JUMPDEST PUSH2 0xF24 PUSH1 0x20 DUP4 ADD DUP6 PUSH2 0xBFC JUMP JUMPDEST PUSH2 0xF31 PUSH1 0x40 DUP4 ADD DUP5 PUSH2 0xA7B JUMP JUMPDEST SWAP5 SWAP4 POP POP POP POP JUMP JUMPDEST PUSH1 0x0 PUSH2 0xF44 DUP3 PUSH2 0xA71 JUMP JUMPDEST SWAP2 POP PUSH2 0xF4F DUP4 PUSH2 0xA71 JUMP JUMPDEST SWAP3 POP DUP2 PUSH32 0xFFFFFFFFFFFFFFFFFFFFFFFFFFFFFFFFFFFFFFFFFFFFFFFFFFFFFFFFFFFFFFFF DIV DUP4 GT DUP3 ISZERO ISZERO AND ISZERO PUSH2 0xF88 JUMPI PUSH2 0xF87 PUSH2 0xD3E JUMP JUMPDEST JUMPDEST DUP3 DUP3 MUL SWAP1 POP SWAP3 SWAP2 POP POP JUMP JUMPDEST PUSH32 0x4E487B7100000000000000000000000000000000000000000000000000000000 PUSH1 0x0 MSTORE PUSH1 0x12 PUSH1 0x4 MSTORE PUSH1 0x24 PUSH1 0x0 REVERT JUMPDEST PUSH1 0x0 PUSH2 0xFCD DUP3 PUSH2 0xA71 JUMP JUMPDEST SWAP2 POP PUSH2 0xFD8 DUP4 PUSH2 0xA71 JUMP JUMPDEST SWAP3 POP DUP3 PUSH2 0xFE8 JUMPI PUSH2 0xFE7 PUSH2 0xF93 JUMP JUMPDEST JUMPDEST DUP3 DUP3 DIV SWAP1 POP SWAP3 SWAP2 POP POP JUMP INVALID LOG2 PUSH5 0x6970667358 0x22 SLT KECCAK256 0xD CREATE PUSH8 0xD38B7C950376E26B SWAP7 MUL PUSH3 0xF584A PUSH28 0x6EA1D15C3C86CC83B594C520671A64736F6C634300080F0033000000 "
				},
				"gasEstimates": {
					"creation": {
						"codeDepositCost": "827400",
						"executionCost": "infinite",
						"totalCost": "infinite"
					},
					"external": {
						"getUserInfo(address)": "infinite",
						"ierc20()": "infinite",
						"owner()": "2536",
						"ratio()": "2566",
						"received()": "infinite",
						"setRatio(uint8)": "infinite",
						"stake(uint256)": "infinite",
						"tokenAddress()": "2580",
						"totalStakeNumber()": "2430",
						"unStake()": "infinite",
						"userStakes(address)": "infinite"
					},
					"internal": {
						"getUserInsert()": "infinite"
					}
				},
				"methodIdentifiers": {
					"getUserInfo(address)": "6386c1c7",
					"ierc20()": "bf0ae63d",
					"owner()": "8da5cb5b",
					"ratio()": "71ca337d",
					"received()": "83a6deb5",
					"setRatio(uint8)": "8d994beb",
					"stake(uint256)": "a694fc3a",
					"tokenAddress()": "9d76ea58",
					"totalStakeNumber()": "53b645e5",
					"unStake()": "73cf575a",
					"userStakes(address)": "8da7ad23"
				}
			},
			"storageLayout": {
				"storage": [
					{
						"astId": 102,
						"contract": "contracts/StakePool.sol:StakePool",
						"label": "totalStakeNumber",
						"offset": 0,
						"slot": "0",
						"type": "t_uint256"
					},
					{
						"astId": 104,
						"contract": "contracts/StakePool.sol:StakePool",
						"label": "tokenAddress",
						"offset": 0,
						"slot": "1",
						"type": "t_address"
					},
					{
						"astId": 106,
						"contract": "contracts/StakePool.sol:StakePool",
						"label": "owner",
						"offset": 0,
						"slot": "2",
						"type": "t_address"
					},
					{
						"astId": 108,
						"contract": "contracts/StakePool.sol:StakePool",
						"label": "ratio",
						"offset": 20,
						"slot": "2",
						"type": "t_uint8"
					},
					{
						"astId": 113,
						"contract": "contracts/StakePool.sol:StakePool",
						"label": "userStakes",
						"offset": 0,
						"slot": "3",
						"type": "t_mapping(t_address,t_struct(User)99_storage)"
					},
					{
						"astId": 116,
						"contract": "contracts/StakePool.sol:StakePool",
						"label": "ierc20",
						"offset": 0,
						"slot": "4",
						"type": "t_contract(IERC20)68"
					}
				],
				"types": {
					"t_address": {
						"encoding": "inplace",
						"label": "address",
						"numberOfBytes": "20"
					},
					"t_contract(IERC20)68": {
						"encoding": "inplace",
						"label": "contract IERC20",
						"numberOfBytes": "20"
					},
					"t_mapping(t_address,t_struct(User)99_storage)": {
						"encoding": "mapping",
						"key": "t_address",
						"label": "mapping(address => struct StakePool.User)",
						"numberOfBytes": "32",
						"value": "t_struct(User)99_storage"
					},
					"t_struct(User)99_storage": {
						"encoding": "inplace",
						"label": "struct StakePool.User",
						"members": [
							{
								"astId": 92,
								"contract": "contracts/StakePool.sol:StakePool",
								"label": "stakeNumber",
								"offset": 0,
								"slot": "0",
								"type": "t_uint256"
							},
							{
								"astId": 94,
								"contract": "contracts/StakePool.sol:StakePool",
								"label": "currentInterest",
								"offset": 0,
								"slot": "1",
								"type": "t_uint256"
							},
							{
								"astId": 96,
								"contract": "contracts/StakePool.sol:StakePool",
								"label": "claimedInterest",
								"offset": 0,
								"slot": "2",
								"type": "t_uint256"
							},
							{
								"astId": 98,
								"contract": "contracts/StakePool.sol:StakePool",
								"label": "lastStakeTime",
								"offset": 0,
								"slot": "3",
								"type": "t_uint256"
							}
						],
						"numberOfBytes": "128"
					},
					"t_uint256": {
						"encoding": "inplace",
						"label": "uint256",
						"numberOfBytes": "32"
					},
					"t_uint8": {
						"encoding": "inplace",
						"label": "uint8",
						"numberOfBytes": "1"
					}
				}
			},
			"userdoc": {
				"kind": "user",
				"methods": {},
				"version": 1
			}
		}
	}
}