{
	"contracts/MFI_HECO_PATCH.sol": {
		"MFS_Stacking": {
			"abi": [
				{
					"inputs": [],
					"stateMutability": "nonpayable",
					"type": "constructor"
				},
				{
					"anonymous": false,
					"inputs": [
						{
							"indexed": true,
							"internalType": "address",
							"name": "user",
							"type": "address"
						},
						{
							"indexed": false,
							"internalType": "uint256",
							"name": "period_id",
							"type": "uint256"
						},
						{
							"indexed": false,
							"internalType": "uint256",
							"name": "tokens",
							"type": "uint256"
						}
					],
					"name": "EVENT_RECEIVE",
					"type": "event"
				},
				{
					"anonymous": false,
					"inputs": [
						{
							"indexed": true,
							"internalType": "address",
							"name": "user",
							"type": "address"
						},
						{
							"indexed": false,
							"internalType": "address",
							"name": "referer",
							"type": "address"
						}
					],
					"name": "EVENT_REGISTER",
					"type": "event"
				},
				{
					"anonymous": false,
					"inputs": [
						{
							"indexed": true,
							"internalType": "address",
							"name": "user",
							"type": "address"
						},
						{
							"indexed": false,
							"internalType": "uint256",
							"name": "period_id",
							"type": "uint256"
						},
						{
							"indexed": false,
							"internalType": "uint256",
							"name": "tokens",
							"type": "uint256"
						}
					],
					"name": "EVENT_STACK",
					"type": "event"
				},
				{
					"anonymous": false,
					"inputs": [
						{
							"indexed": true,
							"internalType": "address",
							"name": "user",
							"type": "address"
						},
						{
							"indexed": false,
							"internalType": "uint256",
							"name": "period_id",
							"type": "uint256"
						},
						{
							"indexed": false,
							"internalType": "uint256",
							"name": "tokens",
							"type": "uint256"
						}
					],
					"name": "EVENT_UNSTACK",
					"type": "event"
				},
				{
					"anonymous": false,
					"inputs": [
						{
							"indexed": true,
							"internalType": "address",
							"name": "_from",
							"type": "address"
						},
						{
							"indexed": true,
							"internalType": "address",
							"name": "_to",
							"type": "address"
						}
					],
					"name": "OwnershipTransferred",
					"type": "event"
				},
				{
					"stateMutability": "payable",
					"type": "fallback"
				},
				{
					"inputs": [
						{
							"internalType": "address",
							"name": "addr",
							"type": "address"
						},
						{
							"internalType": "uint256",
							"name": "value",
							"type": "uint256"
						},
						{
							"internalType": "bytes",
							"name": "data",
							"type": "bytes"
						}
					],
					"name": "Call_Function",
					"outputs": [],
					"stateMutability": "nonpayable",
					"type": "function"
				},
				{
					"inputs": [],
					"name": "Do_Game_Update",
					"outputs": [
						{
							"internalType": "bool",
							"name": "",
							"type": "bool"
						}
					],
					"stateMutability": "nonpayable",
					"type": "function"
				},
				{
					"inputs": [
						{
							"internalType": "uint256",
							"name": "period_id",
							"type": "uint256"
						}
					],
					"name": "Do_Receiving",
					"outputs": [
						{
							"internalType": "bool",
							"name": "",
							"type": "bool"
						}
					],
					"stateMutability": "nonpayable",
					"type": "function"
				},
				{
					"inputs": [
						{
							"internalType": "address",
							"name": "referer",
							"type": "address"
						}
					],
					"name": "Do_Registering",
					"outputs": [
						{
							"internalType": "bool",
							"name": "",
							"type": "bool"
						}
					],
					"stateMutability": "nonpayable",
					"type": "function"
				},
				{
					"inputs": [
						{
							"internalType": "address",
							"name": "user",
							"type": "address"
						},
						{
							"internalType": "address",
							"name": "referer",
							"type": "address"
						}
					],
					"name": "Do_Set_Referer",
					"outputs": [],
					"stateMutability": "nonpayable",
					"type": "function"
				},
				{
					"inputs": [
						{
							"internalType": "address[]",
							"name": "user",
							"type": "address[]"
						},
						{
							"internalType": "address[]",
							"name": "referer",
							"type": "address[]"
						}
					],
					"name": "Do_Set_Referers",
					"outputs": [],
					"stateMutability": "nonpayable",
					"type": "function"
				},
				{
					"inputs": [
						{
							"internalType": "uint256",
							"name": "period_id",
							"type": "uint256"
						},
						{
							"internalType": "uint256",
							"name": "stacking_amount",
							"type": "uint256"
						}
					],
					"name": "Do_Stacking",
					"outputs": [
						{
							"internalType": "bool",
							"name": "",
							"type": "bool"
						}
					],
					"stateMutability": "nonpayable",
					"type": "function"
				},
				{
					"inputs": [
						{
							"internalType": "uint256",
							"name": "period_id",
							"type": "uint256"
						},
						{
							"internalType": "uint256",
							"name": "stacking_amount",
							"type": "uint256"
						}
					],
					"name": "Do_Unstacking",
					"outputs": [
						{
							"internalType": "bool",
							"name": "",
							"type": "bool"
						}
					],
					"stateMutability": "nonpayable",
					"type": "function"
				},
				{
					"inputs": [],
					"name": "Do_Update",
					"outputs": [
						{
							"internalType": "bool",
							"name": "",
							"type": "bool"
						}
					],
					"stateMutability": "nonpayable",
					"type": "function"
				},
				{
					"inputs": [
						{
							"internalType": "address",
							"name": "user",
							"type": "address"
						}
					],
					"name": "Do_Update_User",
					"outputs": [
						{
							"internalType": "bool",
							"name": "",
							"type": "bool"
						}
					],
					"stateMutability": "nonpayable",
					"type": "function"
				},
				{
					"inputs": [],
					"name": "Get_Game_Info",
					"outputs": [
						{
							"internalType": "uint256",
							"name": "",
							"type": "uint256"
						},
						{
							"internalType": "uint256",
							"name": "",
							"type": "uint256"
						},
						{
							"internalType": "uint256",
							"name": "",
							"type": "uint256"
						}
					],
					"stateMutability": "view",
					"type": "function"
				},
				{
					"inputs": [
						{
							"internalType": "address",
							"name": "user",
							"type": "address"
						}
					],
					"name": "Get_User_Block_of_Last_Stack",
					"outputs": [
						{
							"internalType": "uint256[8]",
							"name": "",
							"type": "uint256[8]"
						}
					],
					"stateMutability": "view",
					"type": "function"
				},
				{
					"inputs": [
						{
							"internalType": "address",
							"name": "user",
							"type": "address"
						}
					],
					"name": "Get_User_Contributions",
					"outputs": [
						{
							"internalType": "uint256[8]",
							"name": "",
							"type": "uint256[8]"
						}
					],
					"stateMutability": "view",
					"type": "function"
				},
				{
					"inputs": [
						{
							"internalType": "address",
							"name": "user",
							"type": "address"
						}
					],
					"name": "Get_User_Info",
					"outputs": [
						{
							"internalType": "bool",
							"name": "",
							"type": "bool"
						},
						{
							"internalType": "address",
							"name": "",
							"type": "address"
						},
						{
							"internalType": "address",
							"name": "",
							"type": "address"
						},
						{
							"internalType": "uint256",
							"name": "",
							"type": "uint256"
						},
						{
							"internalType": "uint256",
							"name": "",
							"type": "uint256"
						}
					],
					"stateMutability": "view",
					"type": "function"
				},
				{
					"inputs": [
						{
							"internalType": "address",
							"name": "user",
							"type": "address"
						}
					],
					"name": "Get_User_Stackings",
					"outputs": [
						{
							"internalType": "uint256[8]",
							"name": "",
							"type": "uint256[8]"
						}
					],
					"stateMutability": "view",
					"type": "function"
				},
				{
					"inputs": [],
					"name": "Pause",
					"outputs": [],
					"stateMutability": "nonpayable",
					"type": "function"
				},
				{
					"inputs": [],
					"name": "Resume",
					"outputs": [],
					"stateMutability": "nonpayable",
					"type": "function"
				},
				{
					"inputs": [
						{
							"internalType": "uint256",
							"name": "period_id",
							"type": "uint256"
						},
						{
							"internalType": "uint256",
							"name": "block_weight",
							"type": "uint256"
						}
					],
					"name": "Set_Block_Weight",
					"outputs": [],
					"stateMutability": "nonpayable",
					"type": "function"
				},
				{
					"inputs": [
						{
							"internalType": "uint256",
							"name": "period_id",
							"type": "uint256"
						},
						{
							"internalType": "uint256",
							"name": "block_span",
							"type": "uint256"
						}
					],
					"name": "Set_Period_Span",
					"outputs": [],
					"stateMutability": "nonpayable",
					"type": "function"
				},
				{
					"inputs": [
						{
							"internalType": "uint256",
							"name": "span",
							"type": "uint256"
						}
					],
					"name": "Set_Punishment_Span",
					"outputs": [],
					"stateMutability": "nonpayable",
					"type": "function"
				},
				{
					"inputs": [
						{
							"internalType": "address",
							"name": "stacking",
							"type": "address"
						},
						{
							"internalType": "address",
							"name": "token",
							"type": "address"
						}
					],
					"name": "Set_Token_Address",
					"outputs": [],
					"stateMutability": "nonpayable",
					"type": "function"
				},
				{
					"inputs": [
						{
							"internalType": "address",
							"name": "addr",
							"type": "address"
						}
					],
					"name": "Set_Updater_Address",
					"outputs": [],
					"stateMutability": "nonpayable",
					"type": "function"
				},
				{
					"inputs": [
						{
							"internalType": "uint256",
							"name": "block_number",
							"type": "uint256"
						}
					],
					"name": "Start_At",
					"outputs": [],
					"stateMutability": "nonpayable",
					"type": "function"
				},
				{
					"inputs": [
						{
							"internalType": "uint256",
							"name": "block_number",
							"type": "uint256"
						}
					],
					"name": "Stop_At",
					"outputs": [],
					"stateMutability": "nonpayable",
					"type": "function"
				},
				{
					"inputs": [
						{
							"internalType": "address",
							"name": "token_address",
							"type": "address"
						},
						{
							"internalType": "uint256",
							"name": "token_amount",
							"type": "uint256"
						}
					],
					"name": "Take_Token",
					"outputs": [],
					"stateMutability": "nonpayable",
					"type": "function"
				},
				{
					"inputs": [
						{
							"internalType": "address",
							"name": "user",
							"type": "address"
						}
					],
					"name": "ViewReceiving",
					"outputs": [
						{
							"internalType": "uint256[8]",
							"name": "",
							"type": "uint256[8]"
						}
					],
					"stateMutability": "view",
					"type": "function"
				},
				{
					"inputs": [],
					"name": "acceptOwnership",
					"outputs": [],
					"stateMutability": "nonpayable",
					"type": "function"
				},
				{
					"inputs": [],
					"name": "m_BlockNum_Of_Last_Update",
					"outputs": [
						{
							"internalType": "uint256",
							"name": "",
							"type": "uint256"
						}
					],
					"stateMutability": "view",
					"type": "function"
				},
				{
					"inputs": [
						{
							"internalType": "uint256",
							"name": "",
							"type": "uint256"
						}
					],
					"name": "m_Block_Span_of_Stack_Options",
					"outputs": [
						{
							"internalType": "uint256",
							"name": "",
							"type": "uint256"
						}
					],
					"stateMutability": "view",
					"type": "function"
				},
				{
					"inputs": [
						{
							"internalType": "uint256",
							"name": "",
							"type": "uint256"
						}
					],
					"name": "m_Block_weight_of_Stack_Options",
					"outputs": [
						{
							"internalType": "uint256",
							"name": "",
							"type": "uint256"
						}
					],
					"stateMutability": "view",
					"type": "function"
				},
				{
					"inputs": [],
					"name": "m_Block_weight_of_Total_Stack_Option",
					"outputs": [
						{
							"internalType": "uint256",
							"name": "",
							"type": "uint256"
						}
					],
					"stateMutability": "view",
					"type": "function"
				},
				{
					"inputs": [],
					"name": "m_FIX_POINT",
					"outputs": [
						{
							"internalType": "uint256",
							"name": "",
							"type": "uint256"
						}
					],
					"stateMutability": "view",
					"type": "function"
				},
				{
					"inputs": [],
					"name": "m_Stacking_Address",
					"outputs": [
						{
							"internalType": "address",
							"name": "",
							"type": "address"
						}
					],
					"stateMutability": "view",
					"type": "function"
				},
				{
					"inputs": [],
					"name": "m_Stacking_Block_Number_Start",
					"outputs": [
						{
							"internalType": "uint256",
							"name": "",
							"type": "uint256"
						}
					],
					"stateMutability": "view",
					"type": "function"
				},
				{
					"inputs": [],
					"name": "m_Stacking_Block_Number_Stop",
					"outputs": [
						{
							"internalType": "uint256",
							"name": "",
							"type": "uint256"
						}
					],
					"stateMutability": "view",
					"type": "function"
				},
				{
					"inputs": [
						{
							"internalType": "uint256",
							"name": "",
							"type": "uint256"
						}
					],
					"name": "m_Sum_Of_Weighted_Stacking_Reciprocal_e128",
					"outputs": [
						{
							"internalType": "uint256",
							"name": "",
							"type": "uint256"
						}
					],
					"stateMutability": "view",
					"type": "function"
				},
				{
					"inputs": [],
					"name": "m_Token_Address",
					"outputs": [
						{
							"internalType": "address",
							"name": "",
							"type": "address"
						}
					],
					"stateMutability": "view",
					"type": "function"
				},
				{
					"inputs": [],
					"name": "m_Total_Stacking",
					"outputs": [
						{
							"internalType": "uint256",
							"name": "",
							"type": "uint256"
						}
					],
					"stateMutability": "view",
					"type": "function"
				},
				{
					"inputs": [],
					"name": "m_Updater_Address",
					"outputs": [
						{
							"internalType": "address",
							"name": "",
							"type": "address"
						}
					],
					"stateMutability": "view",
					"type": "function"
				},
				{
					"inputs": [],
					"name": "m_User_Count",
					"outputs": [
						{
							"internalType": "uint256",
							"name": "",
							"type": "uint256"
						}
					],
					"stateMutability": "view",
					"type": "function"
				},
				{
					"inputs": [
						{
							"internalType": "address",
							"name": "",
							"type": "address"
						}
					],
					"name": "m_User_Map",
					"outputs": [
						{
							"internalType": "bool",
							"name": "Registered",
							"type": "bool"
						},
						{
							"internalType": "address",
							"name": "User_Address",
							"type": "address"
						},
						{
							"internalType": "address",
							"name": "Referer_Address",
							"type": "address"
						},
						{
							"internalType": "uint256",
							"name": "Stacking_Amount",
							"type": "uint256"
						},
						{
							"internalType": "uint256",
							"name": "Stacking_Block_Number_Start",
							"type": "uint256"
						},
						{
							"internalType": "uint256",
							"name": "Stacking_Operation_Block_Stamp",
							"type": "uint256"
						}
					],
					"stateMutability": "view",
					"type": "function"
				},
				{
					"inputs": [],
					"name": "newOwner",
					"outputs": [
						{
							"internalType": "address",
							"name": "",
							"type": "address"
						}
					],
					"stateMutability": "view",
					"type": "function"
				},
				{
					"inputs": [],
					"name": "owner",
					"outputs": [
						{
							"internalType": "address",
							"name": "",
							"type": "address"
						}
					],
					"stateMutability": "view",
					"type": "function"
				},
				{
					"inputs": [
						{
							"internalType": "address",
							"name": "_newOwner",
							"type": "address"
						}
					],
					"name": "transferOwnership",
					"outputs": [],
					"stateMutability": "nonpayable",
					"type": "function"
				},
				{
					"stateMutability": "payable",
					"type": "receive"
				}
			],
			"devdoc": {
				"kind": "dev",
				"methods": {},
				"version": 1
			},
			"evm": {
				"assembly": "    /* \"contracts/MFI_HECO_PATCH.sol\":2962:24858  contract MFS_Stacking is  Owned {\r... */\n  mstore(0x40, 0x80)\n    /* \"contracts/MFI_HECO_PATCH.sol\":4605:4606  0 */\n  0x00\n    /* \"contracts/MFI_HECO_PATCH.sol\":4564:4606  uint256 public m_BlockNum_Of_Last_Update=0 */\n  0x1a\n  sstore\n    /* \"contracts/MFI_HECO_PATCH.sol\":4786:4794  1*2**128 */\n  0x0100000000000000000000000000000000\n    /* \"contracts/MFI_HECO_PATCH.sol\":4757:4795  uint256 public m_FIX_POINT=( 1*2**128) */\n  0x23\n  sstore\n    /* \"contracts/MFI_HECO_PATCH.sol\":5382:5862  constructor() public {\r... */\n  callvalue\n  dup1\n  iszero\n  tag_1\n  jumpi\n  0x00\n  dup1\n  revert\ntag_1:\n  pop\n    /* \"contracts/MFI_HECO_PATCH.sol\":2539:2549  msg.sender */\n  caller\n    /* \"contracts/MFI_HECO_PATCH.sol\":2531:2536  owner */\n  0x00\n  dup1\n    /* \"contracts/MFI_HECO_PATCH.sol\":2531:2549  owner = msg.sender */\n  0x0100\n  exp\n  dup2\n  sload\n  dup2\n  0xffffffffffffffffffffffffffffffffffffffff\n  mul\n  not\n  and\n  swap1\n  dup4\n  0xffffffffffffffffffffffffffffffffffffffff\n  and\n  mul\n  or\n  swap1\n  sstore\n  pop\n    /* \"contracts/MFI_HECO_PATCH.sol\":5431:5435  1e18 */\n  0x0de0b6b3a7640000\n    /* \"contracts/MFI_HECO_PATCH.sol\":5414:5430  m_Total_Stacking */\n  0x18\n    /* \"contracts/MFI_HECO_PATCH.sol\":5414:5435  m_Total_Stacking=1e18 */\n  dup2\n  swap1\n  sstore\n  pop\n    /* \"contracts/MFI_HECO_PATCH.sol\":5459:5464  false */\n  0x00\n    /* \"contracts/MFI_HECO_PATCH.sol\":5446:5458  m_Game_Pause */\n  0x24\n  0x00\n    /* \"contracts/MFI_HECO_PATCH.sol\":5446:5464  m_Game_Pause=false */\n  0x0100\n  exp\n  dup2\n  sload\n  dup2\n  0xff\n  mul\n  not\n  and\n  swap1\n  dup4\n  iszero\n  iszero\n  mul\n  or\n  swap1\n  sstore\n  pop\n    /* \"contracts/MFI_HECO_PATCH.sol\":5488:5489  1 */\n  0x01\n    /* \"contracts/MFI_HECO_PATCH.sol\":5475:5487  m_User_Count */\n  0x19\n    /* \"contracts/MFI_HECO_PATCH.sol\":5475:5489  m_User_Count=1 */\n  dup2\n  swap1\n  sstore\n  pop\n    /* \"contracts/MFI_HECO_PATCH.sol\":5518:5519  1 */\n  0x01\n    /* \"contracts/MFI_HECO_PATCH.sol\":5500:5517  m_Punishment_Span */\n  0x25\n    /* \"contracts/MFI_HECO_PATCH.sol\":5500:5519  m_Punishment_Span=1 */\n  dup2\n  swap1\n  sstore\n  pop\n    /* \"contracts/MFI_HECO_PATCH.sol\":5556:5568  block.number */\n  number\n    /* \"contracts/MFI_HECO_PATCH.sol\":5530:5555  m_BlockNum_Of_Last_Update */\n  0x1a\n    /* \"contracts/MFI_HECO_PATCH.sol\":5530:5568  m_BlockNum_Of_Last_Update=block.number */\n  dup2\n  swap1\n  sstore\n  pop\n    /* \"contracts/MFI_HECO_PATCH.sol\":5609:5621  block.number */\n  number\n    /* \"contracts/MFI_HECO_PATCH.sol\":5579:5608  m_Stacking_Block_Number_Start */\n  0x16\n    /* \"contracts/MFI_HECO_PATCH.sol\":5579:5621  m_Stacking_Block_Number_Start=block.number */\n  dup2\n  swap1\n  sstore\n  pop\n    /* \"contracts/MFI_HECO_PATCH.sol\":5661:5727  0xFFFFFFFFFFFFFFFFFFFFFFFFFFFFFFFFFFFFFFFFFFFFFFFFFFFFFFFFFFFFFFFF */\n  0xffffffffffffffffffffffffffffffffffffffffffffffffffffffffffffffff\n    /* \"contracts/MFI_HECO_PATCH.sol\":5632:5660  m_Stacking_Block_Number_Stop */\n  0x17\n    /* \"contracts/MFI_HECO_PATCH.sol\":5632:5727  m_Stacking_Block_Number_Stop=0xFFFFFFFFFFFFFFFFFFFFFFFFFFFFFFFFFFFFFFFFFFFFFFFFFFFFFFFFFFFFFFFF */\n  dup2\n  swap1\n  sstore\n  pop\n    /* \"contracts/MFI_HECO_PATCH.sol\":5752:5758  uint i */\n  0x00\n    /* \"contracts/MFI_HECO_PATCH.sol\":5748:5855  for(uint i=0;i<8;i++)\r... */\ntag_6:\n    /* \"contracts/MFI_HECO_PATCH.sol\":5763:5764  8 */\n  0x08\n    /* \"contracts/MFI_HECO_PATCH.sol\":5761:5762  i */\n  dup2\n    /* \"contracts/MFI_HECO_PATCH.sol\":5761:5764  i<8 */\n  lt\n    /* \"contracts/MFI_HECO_PATCH.sol\":5748:5855  for(uint i=0;i<8;i++)\r... */\n  iszero\n  tag_7\n  jumpi\n    /* \"contracts/MFI_HECO_PATCH.sol\":5765:5768  i++ */\n  dup1\n  dup1\n  0x01\n  add\n  swap2\n  pop\n  pop\n    /* \"contracts/MFI_HECO_PATCH.sol\":5748:5855  for(uint i=0;i<8;i++)\r... */\n  jump(tag_6)\ntag_7:\n  pop\n    /* \"contracts/MFI_HECO_PATCH.sol\":2962:24858  contract MFS_Stacking is  Owned {\r... */\n  dataSize(sub_0)\n  dup1\n  dataOffset(sub_0)\n  0x00\n  codecopy\n  0x00\n  return\nstop\n\nsub_0: assembly {\n        /* \"contracts/MFI_HECO_PATCH.sol\":2962:24858  contract MFS_Stacking is  Owned {\r... */\n      mstore(0x40, 0x80)\n      jumpi(tag_1, lt(calldatasize, 0x04))\n      shr(0xe0, calldataload(0x00))\n      dup1\n      0x8231eb97\n      gt\n      tag_47\n      jumpi\n      dup1\n      0xada21d81\n      gt\n      tag_48\n      jumpi\n      dup1\n      0xe20a270e\n      gt\n      tag_49\n      jumpi\n      dup1\n      0xe20a270e\n      eq\n      tag_41\n      jumpi\n      dup1\n      0xed896820\n      eq\n      tag_42\n      jumpi\n      dup1\n      0xf2a060b1\n      eq\n      tag_43\n      jumpi\n      dup1\n      0xf2fde38b\n      eq\n      tag_44\n      jumpi\n      dup1\n      0xfa25d72f\n      eq\n      tag_45\n      jumpi\n      dup1\n      0xfc352743\n      eq\n      tag_46\n      jumpi\n      jump(tag_2)\n    tag_49:\n      dup1\n      0xada21d81\n      eq\n      tag_36\n      jumpi\n      dup1\n      0xcbf48666\n      eq\n      tag_37\n      jumpi\n      dup1\n      0xcc4c9ba4\n      eq\n      tag_38\n      jumpi\n      dup1\n      0xd4ee1d90\n      eq\n      tag_39\n      jumpi\n      dup1\n      0xda906fed\n      eq\n      tag_40\n      jumpi\n      jump(tag_2)\n    tag_48:\n      dup1\n      0x924b9f59\n      gt\n      tag_50\n      jumpi\n      dup1\n      0x924b9f59\n      eq\n      tag_30\n      jumpi\n      dup1\n      0x98e34524\n      eq\n      tag_31\n      jumpi\n      dup1\n      0x9a64d5cb\n      eq\n      tag_32\n      jumpi\n      dup1\n      0x9bfa7d64\n      eq\n      tag_33\n      jumpi\n      dup1\n      0x9f48af97\n      eq\n      tag_34\n      jumpi\n      dup1\n      0xa7d16f30\n      eq\n      tag_35\n      jumpi\n      jump(tag_2)\n    tag_50:\n      dup1\n      0x8231eb97\n      eq\n      tag_25\n      jumpi\n      dup1\n      0x836912ce\n      eq\n      tag_26\n      jumpi\n      dup1\n      0x867e5023\n      eq\n      tag_27\n      jumpi\n      dup1\n      0x8ce1842a\n      eq\n      tag_28\n      jumpi\n      dup1\n      0x8da5cb5b\n      eq\n      tag_29\n      jumpi\n      jump(tag_2)\n    tag_47:\n      dup1\n      0x4f57e1e3\n      gt\n      tag_51\n      jumpi\n      dup1\n      0x5d857051\n      gt\n      tag_52\n      jumpi\n      dup1\n      0x5d857051\n      eq\n      tag_19\n      jumpi\n      dup1\n      0x60b1da5b\n      eq\n      tag_20\n      jumpi\n      dup1\n      0x6985a022\n      eq\n      tag_21\n      jumpi\n      dup1\n      0x69bd1cf4\n      eq\n      tag_22\n      jumpi\n      dup1\n      0x79ba5097\n      eq\n      tag_23\n      jumpi\n      dup1\n      0x7d6e1f43\n      eq\n      tag_24\n      jumpi\n      jump(tag_2)\n    tag_52:\n      dup1\n      0x4f57e1e3\n      eq\n      tag_14\n      jumpi\n      dup1\n      0x4f9a6815\n      eq\n      tag_15\n      jumpi\n      dup1\n      0x4fd6159a\n      eq\n      tag_16\n      jumpi\n      dup1\n      0x52f779e8\n      eq\n      tag_17\n      jumpi\n      dup1\n      0x54fd7a2c\n      eq\n      tag_18\n      jumpi\n      jump(tag_2)\n    tag_51:\n      dup1\n      0x1c41499b\n      gt\n      tag_53\n      jumpi\n      dup1\n      0x1c41499b\n      eq\n      tag_8\n      jumpi\n      dup1\n      0x1d1225bb\n      eq\n      tag_9\n      jumpi\n      dup1\n      0x1d14e244\n      eq\n      tag_10\n      jumpi\n      dup1\n      0x229efe2a\n      eq\n      tag_11\n      jumpi\n      dup1\n      0x490d6d11\n      eq\n      tag_12\n      jumpi\n      dup1\n      0x4f3dab0e\n      eq\n      tag_13\n      jumpi\n      jump(tag_2)\n    tag_53:\n      dup1\n      0x3146fe\n      eq\n      tag_3\n      jumpi\n      dup1\n      0x062d93cc\n      eq\n      tag_4\n      jumpi\n      dup1\n      0x0815141c\n      eq\n      tag_5\n      jumpi\n      dup1\n      0x0ff8b333\n      eq\n      tag_6\n      jumpi\n      dup1\n      0x10258de0\n      eq\n      tag_7\n      jumpi\n      jump(tag_2)\n    tag_1:\n      jumpi(tag_2, calldatasize)\n      stop\n    tag_2:\n      stop\n        /* \"contracts/MFI_HECO_PATCH.sol\":21645:24077  function ViewReceiving(address user) public view  returns (uint256[8]memory) {\r... */\n    tag_3:\n      callvalue\n      dup1\n      iszero\n      tag_58\n      jumpi\n      0x00\n      dup1\n      revert\n    tag_58:\n      pop\n      tag_59\n      0x04\n      dup1\n      calldatasize\n      sub\n      0x20\n      dup2\n      lt\n      iszero\n      tag_60\n      jumpi\n      0x00\n      dup1\n      revert\n    tag_60:\n      dup2\n      add\n      swap1\n      dup1\n      dup1\n      calldataload\n      0xffffffffffffffffffffffffffffffffffffffff\n      and\n      swap1\n      0x20\n      add\n      swap1\n      swap3\n      swap2\n      swap1\n      pop\n      pop\n      pop\n      tag_61\n      jump\t// in\n    tag_59:\n      mload(0x40)\n      dup1\n      dup3\n      mul(0x20, 0x08)\n      dup1\n      dup4\n      dup4\n      0x00\n    tag_62:\n      dup4\n      dup2\n      lt\n      iszero\n      tag_64\n      jumpi\n      dup1\n      dup3\n      add\n      mload\n      dup2\n      dup5\n      add\n      mstore\n      0x20\n      dup2\n      add\n      swap1\n      pop\n      jump(tag_62)\n    tag_64:\n      pop\n      pop\n      pop\n      pop\n      swap1\n      pop\n      add\n      swap2\n      pop\n      pop\n      mload(0x40)\n      dup1\n      swap2\n      sub\n      swap1\n      return\n        /* \"contracts/MFI_HECO_PATCH.sol\":4263:4293  address public m_Token_Address */\n    tag_4:\n      callvalue\n      dup1\n      iszero\n      tag_65\n      jumpi\n      0x00\n      dup1\n      revert\n    tag_65:\n      pop\n      tag_66\n      tag_67\n      jump\t// in\n    tag_66:\n      mload(0x40)\n      dup1\n      dup3\n      0xffffffffffffffffffffffffffffffffffffffff\n      and\n      dup2\n      mstore\n      0x20\n      add\n      swap2\n      pop\n      pop\n      mload(0x40)\n      dup1\n      swap2\n      sub\n      swap1\n      return\n        /* \"contracts/MFI_HECO_PATCH.sol\":24480:24633  function Set_Period_Span(uint period_id, uint256 block_span)public onlyOwner\r... */\n    tag_5:\n      callvalue\n      dup1\n      iszero\n      tag_68\n      jumpi\n      0x00\n      dup1\n      revert\n    tag_68:\n      pop\n      tag_69\n      0x04\n      dup1\n      calldatasize\n      sub\n      0x40\n      dup2\n      lt\n      iszero\n      tag_70\n      jumpi\n      0x00\n      dup1\n      revert\n    tag_70:\n      dup2\n      add\n      swap1\n      dup1\n      dup1\n      calldataload\n      swap1\n      0x20\n      add\n      swap1\n      swap3\n      swap2\n      swap1\n      dup1\n      calldataload\n      swap1\n      0x20\n      add\n      swap1\n      swap3\n      swap2\n      swap1\n      pop\n      pop\n      pop\n      tag_71\n      jump\t// in\n    tag_69:\n      stop\n        /* \"contracts/MFI_HECO_PATCH.sol\":5870:6024  function Set_Token_Address( address stacking,address token) public onlyOwner{\r... */\n    tag_6:\n      callvalue\n      dup1\n      iszero\n      tag_72\n      jumpi\n      0x00\n      dup1\n      revert\n    tag_72:\n      pop\n      tag_73\n      0x04\n      dup1\n      calldatasize\n      sub\n      0x40\n      dup2\n      lt\n      iszero\n      tag_74\n      jumpi\n      0x00\n      dup1\n      revert\n    tag_74:\n      dup2\n      add\n      swap1\n      dup1\n      dup1\n      calldataload\n      0xffffffffffffffffffffffffffffffffffffffff\n      and\n      swap1\n      0x20\n      add\n      swap1\n      swap3\n      swap2\n      swap1\n      dup1\n      calldataload\n      0xffffffffffffffffffffffffffffffffffffffff\n      and\n      swap1\n      0x20\n      add\n      swap1\n      swap3\n      swap2\n      swap1\n      pop\n      pop\n      pop\n      tag_75\n      jump\t// in\n    tag_73:\n      stop\n        /* \"contracts/MFI_HECO_PATCH.sol\":18582:18748  function Do_Update() public  OnlyRegistered  NotGamePause returns(bool){\r... */\n    tag_7:\n      callvalue\n      dup1\n      iszero\n      tag_76\n      jumpi\n      0x00\n      dup1\n      revert\n    tag_76:\n      pop\n      tag_77\n      tag_78\n      jump\t// in\n    tag_77:\n      mload(0x40)\n      dup1\n      dup3\n      iszero\n      iszero\n      dup2\n      mstore\n      0x20\n      add\n      swap2\n      pop\n      pop\n      mload(0x40)\n      dup1\n      swap2\n      sub\n      swap1\n      return\n        /* \"contracts/MFI_HECO_PATCH.sol\":4192:4225  address public m_Stacking_Address */\n    tag_8:\n      callvalue\n      dup1\n      iszero\n      tag_79\n      jumpi\n      0x00\n      dup1\n      revert\n    tag_79:\n      pop\n      tag_80\n      tag_81\n      jump\t// in\n    tag_80:\n      mload(0x40)\n      dup1\n      dup3\n      0xffffffffffffffffffffffffffffffffffffffff\n      and\n      dup2\n      mstore\n      0x20\n      add\n      swap2\n      pop\n      pop\n      mload(0x40)\n      dup1\n      swap2\n      sub\n      swap1\n      return\n        /* \"contracts/MFI_HECO_PATCH.sol\":4757:4795  uint256 public m_FIX_POINT=( 1*2**128) */\n    tag_9:\n      callvalue\n      dup1\n      iszero\n      tag_82\n      jumpi\n      0x00\n      dup1\n      revert\n    tag_82:\n      pop\n      tag_83\n      tag_84\n      jump\t// in\n    tag_83:\n      mload(0x40)\n      dup1\n      dup3\n      dup2\n      mstore\n      0x20\n      add\n      swap2\n      pop\n      pop\n      mload(0x40)\n      dup1\n      swap2\n      sub\n      swap1\n      return\n        /* \"contracts/MFI_HECO_PATCH.sol\":8662:9000  function Do_Set_Referers(address[] memory user,address[] memory referer) public {\r... */\n    tag_10:\n      callvalue\n      dup1\n      iszero\n      tag_85\n      jumpi\n      0x00\n      dup1\n      revert\n    tag_85:\n      pop\n      tag_86\n      0x04\n      dup1\n      calldatasize\n      sub\n      0x40\n      dup2\n      lt\n      iszero\n      tag_87\n      jumpi\n      0x00\n      dup1\n      revert\n    tag_87:\n      dup2\n      add\n      swap1\n      dup1\n      dup1\n      calldataload\n      swap1\n      0x20\n      add\n      swap1\n      0x0100000000\n      dup2\n      gt\n      iszero\n      tag_88\n      jumpi\n      0x00\n      dup1\n      revert\n    tag_88:\n      dup3\n      add\n      dup4\n      0x20\n      dup3\n      add\n      gt\n      iszero\n      tag_89\n      jumpi\n      0x00\n      dup1\n      revert\n    tag_89:\n      dup1\n      calldataload\n      swap1\n      0x20\n      add\n      swap2\n      dup5\n      0x20\n      dup4\n      mul\n      dup5\n      add\n      gt\n      0x0100000000\n      dup4\n      gt\n      or\n      iszero\n      tag_90\n      jumpi\n      0x00\n      dup1\n      revert\n    tag_90:\n      swap2\n      swap1\n      dup1\n      dup1\n      0x20\n      mul\n      0x20\n      add\n      mload(0x40)\n      swap1\n      dup2\n      add\n      0x40\n      mstore\n      dup1\n      swap4\n      swap3\n      swap2\n      swap1\n      dup2\n      dup2\n      mstore\n      0x20\n      add\n      dup4\n      dup4\n      0x20\n      mul\n      dup1\n      dup3\n      dup5\n      calldatacopy\n      0x00\n      dup2\n      dup5\n      add\n      mstore\n      not(0x1f)\n      0x1f\n      dup3\n      add\n      and\n      swap1\n      pop\n      dup1\n      dup4\n      add\n      swap3\n      pop\n      pop\n      pop\n      pop\n      pop\n      pop\n      pop\n      swap2\n      swap3\n      swap2\n      swap3\n      swap1\n      dup1\n      calldataload\n      swap1\n      0x20\n      add\n      swap1\n      0x0100000000\n      dup2\n      gt\n      iszero\n      tag_91\n      jumpi\n      0x00\n      dup1\n      revert\n    tag_91:\n      dup3\n      add\n      dup4\n      0x20\n      dup3\n      add\n      gt\n      iszero\n      tag_92\n      jumpi\n      0x00\n      dup1\n      revert\n    tag_92:\n      dup1\n      calldataload\n      swap1\n      0x20\n      add\n      swap2\n      dup5\n      0x20\n      dup4\n      mul\n      dup5\n      add\n      gt\n      0x0100000000\n      dup4\n      gt\n      or\n      iszero\n      tag_93\n      jumpi\n      0x00\n      dup1\n      revert\n    tag_93:\n      swap2\n      swap1\n      dup1\n      dup1\n      0x20\n      mul\n      0x20\n      add\n      mload(0x40)\n      swap1\n      dup2\n      add\n      0x40\n      mstore\n      dup1\n      swap4\n      swap3\n      swap2\n      swap1\n      dup2\n      dup2\n      mstore\n      0x20\n      add\n      dup4\n      dup4\n      0x20\n      mul\n      dup1\n      dup3\n      dup5\n      calldatacopy\n      0x00\n      dup2\n      dup5\n      add\n      mstore\n      not(0x1f)\n      0x1f\n      dup3\n      add\n      and\n      swap1\n      pop\n      dup1\n      dup4\n      add\n      swap3\n      pop\n      pop\n      pop\n      pop\n      pop\n      pop\n      pop\n      swap2\n      swap3\n      swap2\n      swap3\n      swap1\n      pop\n      pop\n      pop\n      tag_94\n      jump\t// in\n    tag_86:\n      stop\n        /* \"contracts/MFI_HECO_PATCH.sol\":7689:7873  function Get_User_Stackings(address user ) public view returns(  uint[8] memory)\r... */\n    tag_11:\n      callvalue\n      dup1\n      iszero\n      tag_95\n      jumpi\n      0x00\n      dup1\n      revert\n    tag_95:\n      pop\n      tag_96\n      0x04\n      dup1\n      calldatasize\n      sub\n      0x20\n      dup2\n      lt\n      iszero\n      tag_97\n      jumpi\n      0x00\n      dup1\n      revert\n    tag_97:\n      dup2\n      add\n      swap1\n      dup1\n      dup1\n      calldataload\n      0xffffffffffffffffffffffffffffffffffffffff\n      and\n      swap1\n      0x20\n      add\n      swap1\n      swap3\n      swap2\n      swap1\n      pop\n      pop\n      pop\n      tag_98\n      jump\t// in\n    tag_96:\n      mload(0x40)\n      dup1\n      dup3\n      mul(0x20, 0x08)\n      dup1\n      dup4\n      dup4\n      0x00\n    tag_99:\n      dup4\n      dup2\n      lt\n      iszero\n      tag_101\n      jumpi\n      dup1\n      dup3\n      add\n      mload\n      dup2\n      dup5\n      add\n      mstore\n      0x20\n      dup2\n      add\n      swap1\n      pop\n      jump(tag_99)\n    tag_101:\n      pop\n      pop\n      pop\n      pop\n      swap1\n      pop\n      add\n      swap2\n      pop\n      pop\n      mload(0x40)\n      dup1\n      swap2\n      sub\n      swap1\n      return\n        /* \"contracts/MFI_HECO_PATCH.sol\":6374:6550  function Resume( ) public onlyOwner{\r... */\n    tag_12:\n      callvalue\n      dup1\n      iszero\n      tag_102\n      jumpi\n      0x00\n      dup1\n      revert\n    tag_102:\n      pop\n      tag_103\n      tag_104\n      jump\t// in\n    tag_103:\n      stop\n        /* \"contracts/MFI_HECO_PATCH.sol\":21281:21443  function Take_Token(address token_address,uint token_amount) public onlyOwner{\r... */\n    tag_13:\n      callvalue\n      dup1\n      iszero\n      tag_105\n      jumpi\n      0x00\n      dup1\n      revert\n    tag_105:\n      pop\n      tag_106\n      0x04\n      dup1\n      calldatasize\n      sub\n      0x40\n      dup2\n      lt\n      iszero\n      tag_107\n      jumpi\n      0x00\n      dup1\n      revert\n    tag_107:\n      dup2\n      add\n      swap1\n      dup1\n      dup1\n      calldataload\n      0xffffffffffffffffffffffffffffffffffffffff\n      and\n      swap1\n      0x20\n      add\n      swap1\n      swap3\n      swap2\n      swap1\n      dup1\n      calldataload\n      swap1\n      0x20\n      add\n      swap1\n      swap3\n      swap2\n      swap1\n      pop\n      pop\n      pop\n      tag_108\n      jump\t// in\n    tag_106:\n      stop\n        /* \"contracts/MFI_HECO_PATCH.sol\":3806:3856  uint256 [8] public m_Block_weight_of_Stack_Options */\n    tag_14:\n      callvalue\n      dup1\n      iszero\n      tag_109\n      jumpi\n      0x00\n      dup1\n      revert\n    tag_109:\n      pop\n      tag_110\n      0x04\n      dup1\n      calldatasize\n      sub\n      0x20\n      dup2\n      lt\n      iszero\n      tag_111\n      jumpi\n      0x00\n      dup1\n      revert\n    tag_111:\n      dup2\n      add\n      swap1\n      dup1\n      dup1\n      calldataload\n      swap1\n      0x20\n      add\n      swap1\n      swap3\n      swap2\n      swap1\n      pop\n      pop\n      pop\n      tag_112\n      jump\t// in\n    tag_110:\n      mload(0x40)\n      dup1\n      dup3\n      dup2\n      mstore\n      0x20\n      add\n      swap2\n      pop\n      pop\n      mload(0x40)\n      dup1\n      swap2\n      sub\n      swap1\n      return\n        /* \"contracts/MFI_HECO_PATCH.sol\":3921:3969  uint256 [8] public m_Block_Span_of_Stack_Options */\n    tag_15:\n      callvalue\n      dup1\n      iszero\n      tag_113\n      jumpi\n      0x00\n      dup1\n      revert\n    tag_113:\n      pop\n      tag_114\n      0x04\n      dup1\n      calldatasize\n      sub\n      0x20\n      dup2\n      lt\n      iszero\n      tag_115\n      jumpi\n      0x00\n      dup1\n      revert\n    tag_115:\n      dup2\n      add\n      swap1\n      dup1\n      dup1\n      calldataload\n      swap1\n      0x20\n      add\n      swap1\n      swap3\n      swap2\n      swap1\n      pop\n      pop\n      pop\n      tag_116\n      jump\t// in\n    tag_114:\n      mload(0x40)\n      dup1\n      dup3\n      dup2\n      mstore\n      0x20\n      add\n      swap2\n      pop\n      pop\n      mload(0x40)\n      dup1\n      swap2\n      sub\n      swap1\n      return\n        /* \"contracts/MFI_HECO_PATCH.sol\":8291:8465  function Get_Game_Info() public view returns(uint256,uint256,uint256 )\r... */\n    tag_16:\n      callvalue\n      dup1\n      iszero\n      tag_117\n      jumpi\n      0x00\n      dup1\n      revert\n    tag_117:\n      pop\n      tag_118\n      tag_119\n      jump\t// in\n    tag_118:\n      mload(0x40)\n      dup1\n      dup5\n      dup2\n      mstore\n      0x20\n      add\n      dup4\n      dup2\n      mstore\n      0x20\n      add\n      dup3\n      dup2\n      mstore\n      0x20\n      add\n      swap4\n      pop\n      pop\n      pop\n      pop\n      mload(0x40)\n      dup1\n      swap2\n      sub\n      swap1\n      return\n        /* \"contracts/MFI_HECO_PATCH.sol\":4375:4415  uint public m_Stacking_Block_Number_Stop */\n    tag_17:\n      callvalue\n      dup1\n      iszero\n      tag_120\n      jumpi\n      0x00\n      dup1\n      revert\n    tag_120:\n      pop\n      tag_121\n      tag_122\n      jump\t// in\n    tag_121:\n      mload(0x40)\n      dup1\n      dup3\n      dup2\n      mstore\n      0x20\n      add\n      swap2\n      pop\n      pop\n      mload(0x40)\n      dup1\n      swap2\n      sub\n      swap1\n      return\n        /* \"contracts/MFI_HECO_PATCH.sol\":5332:5375  mapping(address => User) public  m_User_Map */\n    tag_18:\n      callvalue\n      dup1\n      iszero\n      tag_123\n      jumpi\n      0x00\n      dup1\n      revert\n    tag_123:\n      pop\n      tag_124\n      0x04\n      dup1\n      calldatasize\n      sub\n      0x20\n      dup2\n      lt\n      iszero\n      tag_125\n      jumpi\n      0x00\n      dup1\n      revert\n    tag_125:\n      dup2\n      add\n      swap1\n      dup1\n      dup1\n      calldataload\n      0xffffffffffffffffffffffffffffffffffffffff\n      and\n      swap1\n      0x20\n      add\n      swap1\n      swap3\n      swap2\n      swap1\n      pop\n      pop\n      pop\n      tag_126\n      jump\t// in\n    tag_124:\n      mload(0x40)\n      dup1\n      dup8\n      iszero\n      iszero\n      dup2\n      mstore\n      0x20\n      add\n      dup7\n      0xffffffffffffffffffffffffffffffffffffffff\n      and\n      dup2\n      mstore\n      0x20\n      add\n      dup6\n      0xffffffffffffffffffffffffffffffffffffffff\n      and\n      dup2\n      mstore\n      0x20\n      add\n      dup5\n      dup2\n      mstore\n      0x20\n      add\n      dup4\n      dup2\n      mstore\n      0x20\n      add\n      dup3\n      dup2\n      mstore\n      0x20\n      add\n      swap7\n      pop\n      pop\n      pop\n      pop\n      pop\n      pop\n      pop\n      mload(0x40)\n      dup1\n      swap2\n      sub\n      swap1\n      return\n        /* \"contracts/MFI_HECO_PATCH.sol\":4041:4073  address public m_Updater_Address */\n    tag_19:\n      callvalue\n      dup1\n      iszero\n      tag_127\n      jumpi\n      0x00\n      dup1\n      revert\n    tag_127:\n      pop\n      tag_128\n      tag_129\n      jump\t// in\n    tag_128:\n      mload(0x40)\n      dup1\n      dup3\n      0xffffffffffffffffffffffffffffffffffffffff\n      and\n      dup2\n      mstore\n      0x20\n      add\n      swap2\n      pop\n      pop\n      mload(0x40)\n      dup1\n      swap2\n      sub\n      swap1\n      return\n        /* \"contracts/MFI_HECO_PATCH.sol\":6883:7169  function Stop_At(uint block_number) public onlyOwner{\r... */\n    tag_20:\n      callvalue\n      dup1\n      iszero\n      tag_130\n      jumpi\n      0x00\n      dup1\n      revert\n    tag_130:\n      pop\n      tag_131\n      0x04\n      dup1\n      calldatasize\n      sub\n      0x20\n      dup2\n      lt\n      iszero\n      tag_132\n      jumpi\n      0x00\n      dup1\n      revert\n    tag_132:\n      dup2\n      add\n      swap1\n      dup1\n      dup1\n      calldataload\n      swap1\n      0x20\n      add\n      swap1\n      swap3\n      swap2\n      swap1\n      pop\n      pop\n      pop\n      tag_133\n      jump\t// in\n    tag_131:\n      stop\n        /* \"contracts/MFI_HECO_PATCH.sol\":6248:6368  function Pause( ) public onlyOwner{\r... */\n    tag_21:\n      callvalue\n      dup1\n      iszero\n      tag_134\n      jumpi\n      0x00\n      dup1\n      revert\n    tag_134:\n      pop\n      tag_135\n      tag_136\n      jump\t// in\n    tag_135:\n      stop\n        /* \"contracts/MFI_HECO_PATCH.sol\":13833:17001  function Do_Unstacking(uint period_id ,uint stacking_amount) public  OnlyRegistered   returns(bool)  {\r... */\n    tag_22:\n      callvalue\n      dup1\n      iszero\n      tag_137\n      jumpi\n      0x00\n      dup1\n      revert\n    tag_137:\n      pop\n      tag_138\n      0x04\n      dup1\n      calldatasize\n      sub\n      0x40\n      dup2\n      lt\n      iszero\n      tag_139\n      jumpi\n      0x00\n      dup1\n      revert\n    tag_139:\n      dup2\n      add\n      swap1\n      dup1\n      dup1\n      calldataload\n      swap1\n      0x20\n      add\n      swap1\n      swap3\n      swap2\n      swap1\n      dup1\n      calldataload\n      swap1\n      0x20\n      add\n      swap1\n      swap3\n      swap2\n      swap1\n      pop\n      pop\n      pop\n      tag_140\n      jump\t// in\n    tag_138:\n      mload(0x40)\n      dup1\n      dup3\n      iszero\n      iszero\n      dup2\n      mstore\n      0x20\n      add\n      swap2\n      pop\n      pop\n      mload(0x40)\n      dup1\n      swap2\n      sub\n      swap1\n      return\n        /* \"contracts/MFI_HECO_PATCH.sol\":2759:2955  function acceptOwnership() public {\r... */\n    tag_23:\n      callvalue\n      dup1\n      iszero\n      tag_141\n      jumpi\n      0x00\n      dup1\n      revert\n    tag_141:\n      pop\n      tag_142\n      tag_143\n      jump\t// in\n    tag_142:\n      stop\n        /* \"contracts/MFI_HECO_PATCH.sol\":6558:6877  function Start_At(uint block_number) public onlyOwner{\r... */\n    tag_24:\n      callvalue\n      dup1\n      iszero\n      tag_144\n      jumpi\n      0x00\n      dup1\n      revert\n    tag_144:\n      pop\n      tag_145\n      0x04\n      dup1\n      calldatasize\n      sub\n      0x20\n      dup2\n      lt\n      iszero\n      tag_146\n      jumpi\n      0x00\n      dup1\n      revert\n    tag_146:\n      dup2\n      add\n      swap1\n      dup1\n      dup1\n      calldataload\n      swap1\n      0x20\n      add\n      swap1\n      swap3\n      swap2\n      swap1\n      pop\n      pop\n      pop\n      tag_147\n      jump\t// in\n    tag_145:\n      stop\n        /* \"contracts/MFI_HECO_PATCH.sol\":4461:4492  uint256 public m_Total_Stacking */\n    tag_25:\n      callvalue\n      dup1\n      iszero\n      tag_148\n      jumpi\n      0x00\n      dup1\n      revert\n    tag_148:\n      pop\n      tag_149\n      tag_150\n      jump\t// in\n    tag_149:\n      mload(0x40)\n      dup1\n      dup3\n      dup2\n      mstore\n      0x20\n      add\n      swap2\n      pop\n      pop\n      mload(0x40)\n      dup1\n      swap2\n      sub\n      swap1\n      return\n        /* \"contracts/MFI_HECO_PATCH.sol\":7879:8068  function Get_User_Contributions(address user ) public view returns(  uint[8] memory)\r... */\n    tag_26:\n      callvalue\n      dup1\n      iszero\n      tag_151\n      jumpi\n      0x00\n      dup1\n      revert\n    tag_151:\n      pop\n      tag_152\n      0x04\n      dup1\n      calldatasize\n      sub\n      0x20\n      dup2\n      lt\n      iszero\n      tag_153\n      jumpi\n      0x00\n      dup1\n      revert\n    tag_153:\n      dup2\n      add\n      swap1\n      dup1\n      dup1\n      calldataload\n      0xffffffffffffffffffffffffffffffffffffffff\n      and\n      swap1\n      0x20\n      add\n      swap1\n      swap3\n      swap2\n      swap1\n      pop\n      pop\n      pop\n      tag_154\n      jump\t// in\n    tag_152:\n      mload(0x40)\n      dup1\n      dup3\n      mul(0x20, 0x08)\n      dup1\n      dup4\n      dup4\n      0x00\n    tag_155:\n      dup4\n      dup2\n      lt\n      iszero\n      tag_157\n      jumpi\n      dup1\n      dup3\n      add\n      mload\n      dup2\n      dup5\n      add\n      mstore\n      0x20\n      dup2\n      add\n      swap1\n      pop\n      jump(tag_155)\n    tag_157:\n      pop\n      pop\n      pop\n      pop\n      swap1\n      pop\n      add\n      swap2\n      pop\n      pop\n      mload(0x40)\n      dup1\n      swap2\n      sub\n      swap1\n      return\n        /* \"contracts/MFI_HECO_PATCH.sol\":17223:17490  function Do_Update_User(address user) public    returns(bool){\r... */\n    tag_27:\n      callvalue\n      dup1\n      iszero\n      tag_158\n      jumpi\n      0x00\n      dup1\n      revert\n    tag_158:\n      pop\n      tag_159\n      0x04\n      dup1\n      calldatasize\n      sub\n      0x20\n      dup2\n      lt\n      iszero\n      tag_160\n      jumpi\n      0x00\n      dup1\n      revert\n    tag_160:\n      dup2\n      add\n      swap1\n      dup1\n      dup1\n      calldataload\n      0xffffffffffffffffffffffffffffffffffffffff\n      and\n      swap1\n      0x20\n      add\n      swap1\n      swap3\n      swap2\n      swap1\n      pop\n      pop\n      pop\n      tag_161\n      jump\t// in\n    tag_159:\n      mload(0x40)\n      dup1\n      dup3\n      iszero\n      iszero\n      dup2\n      mstore\n      0x20\n      add\n      swap2\n      pop\n      pop\n      mload(0x40)\n      dup1\n      swap2\n      sub\n      swap1\n      return\n        /* \"contracts/MFI_HECO_PATCH.sol\":7311:7682  function Get_User_Info(address user ) public view returns(bool ,address, address, uint,uint)\r... */\n    tag_28:\n      callvalue\n      dup1\n      iszero\n      tag_162\n      jumpi\n      0x00\n      dup1\n      revert\n    tag_162:\n      pop\n      tag_163\n      0x04\n      dup1\n      calldatasize\n      sub\n      0x20\n      dup2\n      lt\n      iszero\n      tag_164\n      jumpi\n      0x00\n      dup1\n      revert\n    tag_164:\n      dup2\n      add\n      swap1\n      dup1\n      dup1\n      calldataload\n      0xffffffffffffffffffffffffffffffffffffffff\n      and\n      swap1\n      0x20\n      add\n      swap1\n      swap3\n      swap2\n      swap1\n      pop\n      pop\n      pop\n      tag_165\n      jump\t// in\n    tag_163:\n      mload(0x40)\n      dup1\n      dup7\n      iszero\n      iszero\n      dup2\n      mstore\n      0x20\n      add\n      dup6\n      0xffffffffffffffffffffffffffffffffffffffff\n      and\n      dup2\n      mstore\n      0x20\n      add\n      dup5\n      0xffffffffffffffffffffffffffffffffffffffff\n      and\n      dup2\n      mstore\n      0x20\n      add\n      dup4\n      dup2\n      mstore\n      0x20\n      add\n      dup3\n      dup2\n      mstore\n      0x20\n      add\n      swap6\n      pop\n      pop\n      pop\n      pop\n      pop\n      pop\n      mload(0x40)\n      dup1\n      swap2\n      sub\n      swap1\n      return\n        /* \"contracts/MFI_HECO_PATCH.sol\":2361:2381  address public owner */\n    tag_29:\n      callvalue\n      dup1\n      iszero\n      tag_166\n      jumpi\n      0x00\n      dup1\n      revert\n    tag_166:\n      pop\n      tag_167\n      tag_168\n      jump\t// in\n    tag_167:\n      mload(0x40)\n      dup1\n      dup3\n      0xffffffffffffffffffffffffffffffffffffffff\n      and\n      dup2\n      mstore\n      0x20\n      add\n      swap2\n      pop\n      pop\n      mload(0x40)\n      dup1\n      swap2\n      sub\n      swap1\n      return\n        /* \"contracts/MFI_HECO_PATCH.sol\":9006:10121  function Do_Registering(address referer) public  NotGamePause returns(bool){\r... */\n    tag_30:\n      callvalue\n      dup1\n      iszero\n      tag_169\n      jumpi\n      0x00\n      dup1\n      revert\n    tag_169:\n      pop\n      tag_170\n      0x04\n      dup1\n      calldatasize\n      sub\n      0x20\n      dup2\n      lt\n      iszero\n      tag_171\n      jumpi\n      0x00\n      dup1\n      revert\n    tag_171:\n      dup2\n      add\n      swap1\n      dup1\n      dup1\n      calldataload\n      0xffffffffffffffffffffffffffffffffffffffff\n      and\n      swap1\n      0x20\n      add\n      swap1\n      swap3\n      swap2\n      swap1\n      pop\n      pop\n      pop\n      tag_172\n      jump\t// in\n    tag_170:\n      mload(0x40)\n      dup1\n      dup3\n      iszero\n      iszero\n      dup2\n      mstore\n      0x20\n      add\n      swap2\n      pop\n      pop\n      mload(0x40)\n      dup1\n      swap2\n      sub\n      swap1\n      return\n        /* \"contracts/MFI_HECO_PATCH.sol\":8081:8278  function Get_User_Block_of_Last_Stack(address user ) public view returns(  uint[8] memory)\r... */\n    tag_31:\n      callvalue\n      dup1\n      iszero\n      tag_173\n      jumpi\n      0x00\n      dup1\n      revert\n    tag_173:\n      pop\n      tag_174\n      0x04\n      dup1\n      calldatasize\n      sub\n      0x20\n      dup2\n      lt\n      iszero\n      tag_175\n      jumpi\n      0x00\n      dup1\n      revert\n    tag_175:\n      dup2\n      add\n      swap1\n      dup1\n      dup1\n      calldataload\n      0xffffffffffffffffffffffffffffffffffffffff\n      and\n      swap1\n      0x20\n      add\n      swap1\n      swap3\n      swap2\n      swap1\n      pop\n      pop\n      pop\n      tag_176\n      jump\t// in\n    tag_174:\n      mload(0x40)\n      dup1\n      dup3\n      mul(0x20, 0x08)\n      dup1\n      dup4\n      dup4\n      0x00\n    tag_177:\n      dup4\n      dup2\n      lt\n      iszero\n      tag_179\n      jumpi\n      dup1\n      dup3\n      add\n      mload\n      dup2\n      dup5\n      add\n      mstore\n      0x20\n      dup2\n      add\n      swap1\n      pop\n      jump(tag_177)\n    tag_179:\n      pop\n      pop\n      pop\n      pop\n      swap1\n      pop\n      add\n      swap2\n      pop\n      pop\n      mload(0x40)\n      dup1\n      swap2\n      sub\n      swap1\n      return\n        /* \"contracts/MFI_HECO_PATCH.sol\":4690:4750  uint256 [8]public m_Sum_Of_Weighted_Stacking_Reciprocal_e128 */\n    tag_32:\n      callvalue\n      dup1\n      iszero\n      tag_180\n      jumpi\n      0x00\n      dup1\n      revert\n    tag_180:\n      pop\n      tag_181\n      0x04\n      dup1\n      calldatasize\n      sub\n      0x20\n      dup2\n      lt\n      iszero\n      tag_182\n      jumpi\n      0x00\n      dup1\n      revert\n    tag_182:\n      dup2\n      add\n      swap1\n      dup1\n      dup1\n      calldataload\n      swap1\n      0x20\n      add\n      swap1\n      swap3\n      swap2\n      swap1\n      pop\n      pop\n      pop\n      tag_183\n      jump\t// in\n    tag_181:\n      mload(0x40)\n      dup1\n      dup3\n      dup2\n      mstore\n      0x20\n      add\n      swap2\n      pop\n      pop\n      mload(0x40)\n      dup1\n      swap2\n      sub\n      swap1\n      return\n        /* \"contracts/MFI_HECO_PATCH.sol\":3863:3914  uint256 public m_Block_weight_of_Total_Stack_Option */\n    tag_33:\n      callvalue\n      dup1\n      iszero\n      tag_184\n      jumpi\n      0x00\n      dup1\n      revert\n    tag_184:\n      pop\n      tag_185\n      tag_186\n      jump\t// in\n    tag_185:\n      mload(0x40)\n      dup1\n      dup3\n      dup2\n      mstore\n      0x20\n      add\n      swap2\n      pop\n      pop\n      mload(0x40)\n      dup1\n      swap2\n      sub\n      swap1\n      return\n        /* \"contracts/MFI_HECO_PATCH.sol\":10127:13233  function Do_Stacking(uint period_id,uint stacking_amount) public OnlyRegistered  NotGamePause returns(bool){\r... */\n    tag_34:\n      callvalue\n      dup1\n      iszero\n      tag_187\n      jumpi\n      0x00\n      dup1\n      revert\n    tag_187:\n      pop\n      tag_188\n      0x04\n      dup1\n      calldatasize\n      sub\n      0x40\n      dup2\n      lt\n      iszero\n      tag_189\n      jumpi\n      0x00\n      dup1\n      revert\n    tag_189:\n      dup2\n      add\n      swap1\n      dup1\n      dup1\n      calldataload\n      swap1\n      0x20\n      add\n      swap1\n      swap3\n      swap2\n      swap1\n      dup1\n      calldataload\n      swap1\n      0x20\n      add\n      swap1\n      swap3\n      swap2\n      swap1\n      pop\n      pop\n      pop\n      tag_190\n      jump\t// in\n    tag_188:\n      mload(0x40)\n      dup1\n      dup3\n      iszero\n      iszero\n      dup2\n      mstore\n      0x20\n      add\n      swap2\n      pop\n      pop\n      mload(0x40)\n      dup1\n      swap2\n      sub\n      swap1\n      return\n        /* \"contracts/MFI_HECO_PATCH.sol\":24722:24855  function Call_Function(address addr,uint256 value ,bytes memory data) public  onlyOwner {\r... */\n    tag_35:\n      callvalue\n      dup1\n      iszero\n      tag_191\n      jumpi\n      0x00\n      dup1\n      revert\n    tag_191:\n      pop\n      tag_192\n      0x04\n      dup1\n      calldatasize\n      sub\n      0x60\n      dup2\n      lt\n      iszero\n      tag_193\n      jumpi\n      0x00\n      dup1\n      revert\n    tag_193:\n      dup2\n      add\n      swap1\n      dup1\n      dup1\n      calldataload\n      0xffffffffffffffffffffffffffffffffffffffff\n      and\n      swap1\n      0x20\n      add\n      swap1\n      swap3\n      swap2\n      swap1\n      dup1\n      calldataload\n      swap1\n      0x20\n      add\n      swap1\n      swap3\n      swap2\n      swap1\n      dup1\n      calldataload\n      swap1\n      0x20\n      add\n      swap1\n      0x0100000000\n      dup2\n      gt\n      iszero\n      tag_194\n      jumpi\n      0x00\n      dup1\n      revert\n    tag_194:\n      dup3\n      add\n      dup4\n      0x20\n      dup3\n      add\n      gt\n      iszero\n      tag_195\n      jumpi\n      0x00\n      dup1\n      revert\n    tag_195:\n      dup1\n      calldataload\n      swap1\n      0x20\n      add\n      swap2\n      dup5\n      0x01\n      dup4\n      mul\n      dup5\n      add\n      gt\n      0x0100000000\n      dup4\n      gt\n      or\n      iszero\n      tag_196\n      jumpi\n      0x00\n      dup1\n      revert\n    tag_196:\n      swap2\n      swap1\n      dup1\n      dup1\n      0x1f\n      add\n      0x20\n      dup1\n      swap2\n      div\n      mul\n      0x20\n      add\n      mload(0x40)\n      swap1\n      dup2\n      add\n      0x40\n      mstore\n      dup1\n      swap4\n      swap3\n      swap2\n      swap1\n      dup2\n      dup2\n      mstore\n      0x20\n      add\n      dup4\n      dup4\n      dup1\n      dup3\n      dup5\n      calldatacopy\n      0x00\n      dup2\n      dup5\n      add\n      mstore\n      not(0x1f)\n      0x1f\n      dup3\n      add\n      and\n      swap1\n      pop\n      dup1\n      dup4\n      add\n      swap3\n      pop\n      pop\n      pop\n      pop\n      pop\n      pop\n      pop\n      swap2\n      swap3\n      swap2\n      swap3\n      swap1\n      pop\n      pop\n      pop\n      tag_197\n      jump\t// in\n    tag_192:\n      stop\n        /* \"contracts/MFI_HECO_PATCH.sol\":4327:4368  uint public m_Stacking_Block_Number_Start */\n    tag_36:\n      callvalue\n      dup1\n      iszero\n      tag_198\n      jumpi\n      0x00\n      dup1\n      revert\n    tag_198:\n      pop\n      tag_199\n      tag_200\n      jump\t// in\n    tag_199:\n      mload(0x40)\n      dup1\n      dup3\n      dup2\n      mstore\n      0x20\n      add\n      swap2\n      pop\n      pop\n      mload(0x40)\n      dup1\n      swap2\n      sub\n      swap1\n      return\n        /* \"contracts/MFI_HECO_PATCH.sol\":24093:24472  function Set_Block_Weight(uint period_id, uint256 block_weight)public onlyOwner\r... */\n    tag_37:\n      callvalue\n      dup1\n      iszero\n      tag_201\n      jumpi\n      0x00\n      dup1\n      revert\n    tag_201:\n      pop\n      tag_202\n      0x04\n      dup1\n      calldatasize\n      sub\n      0x40\n      dup2\n      lt\n      iszero\n      tag_203\n      jumpi\n      0x00\n      dup1\n      revert\n    tag_203:\n      dup2\n      add\n      swap1\n      dup1\n      dup1\n      calldataload\n      swap1\n      0x20\n      add\n      swap1\n      swap3\n      swap2\n      swap1\n      dup1\n      calldataload\n      swap1\n      0x20\n      add\n      swap1\n      swap3\n      swap2\n      swap1\n      pop\n      pop\n      pop\n      tag_204\n      jump\t// in\n    tag_202:\n      stop\n        /* \"contracts/MFI_HECO_PATCH.sol\":17006:17217  function Do_Game_Update() public    returns(bool){\r... */\n    tag_38:\n      callvalue\n      dup1\n      iszero\n      tag_205\n      jumpi\n      0x00\n      dup1\n      revert\n    tag_205:\n      pop\n      tag_206\n      tag_207\n      jump\t// in\n    tag_206:\n      mload(0x40)\n      dup1\n      dup3\n      iszero\n      iszero\n      dup2\n      mstore\n      0x20\n      add\n      swap2\n      pop\n      pop\n      mload(0x40)\n      dup1\n      swap2\n      sub\n      swap1\n      return\n        /* \"contracts/MFI_HECO_PATCH.sol\":2388:2411  address public newOwner */\n    tag_39:\n      callvalue\n      dup1\n      iszero\n      tag_208\n      jumpi\n      0x00\n      dup1\n      revert\n    tag_208:\n      pop\n      tag_209\n      tag_210\n      jump\t// in\n    tag_209:\n      mload(0x40)\n      dup1\n      dup3\n      0xffffffffffffffffffffffffffffffffffffffff\n      and\n      dup2\n      mstore\n      0x20\n      add\n      swap2\n      pop\n      pop\n      mload(0x40)\n      dup1\n      swap2\n      sub\n      swap1\n      return\n        /* \"contracts/MFI_HECO_PATCH.sol\":6035:6136  function Set_Updater_Address( address addr) public onlyOwner{\r... */\n    tag_40:\n      callvalue\n      dup1\n      iszero\n      tag_211\n      jumpi\n      0x00\n      dup1\n      revert\n    tag_211:\n      pop\n      tag_212\n      0x04\n      dup1\n      calldatasize\n      sub\n      0x20\n      dup2\n      lt\n      iszero\n      tag_213\n      jumpi\n      0x00\n      dup1\n      revert\n    tag_213:\n      dup2\n      add\n      swap1\n      dup1\n      dup1\n      calldataload\n      0xffffffffffffffffffffffffffffffffffffffff\n      and\n      swap1\n      0x20\n      add\n      swap1\n      swap3\n      swap2\n      swap1\n      pop\n      pop\n      pop\n      tag_214\n      jump\t// in\n    tag_212:\n      stop\n        /* \"contracts/MFI_HECO_PATCH.sol\":6144:6242  function Set_Punishment_Span( uint span) public onlyOwner{\r... */\n    tag_41:\n      callvalue\n      dup1\n      iszero\n      tag_215\n      jumpi\n      0x00\n      dup1\n      revert\n    tag_215:\n      pop\n      tag_216\n      0x04\n      dup1\n      calldatasize\n      sub\n      0x20\n      dup2\n      lt\n      iszero\n      tag_217\n      jumpi\n      0x00\n      dup1\n      revert\n    tag_217:\n      dup2\n      add\n      swap1\n      dup1\n      dup1\n      calldataload\n      swap1\n      0x20\n      add\n      swap1\n      swap3\n      swap2\n      swap1\n      pop\n      pop\n      pop\n      tag_218\n      jump\t// in\n    tag_216:\n      stop\n        /* \"contracts/MFI_HECO_PATCH.sol\":4526:4553  uint256 public m_User_Count */\n    tag_42:\n      callvalue\n      dup1\n      iszero\n      tag_219\n      jumpi\n      0x00\n      dup1\n      revert\n    tag_219:\n      pop\n      tag_220\n      tag_221\n      jump\t// in\n    tag_220:\n      mload(0x40)\n      dup1\n      dup3\n      dup2\n      mstore\n      0x20\n      add\n      swap2\n      pop\n      pop\n      mload(0x40)\n      dup1\n      swap2\n      sub\n      swap1\n      return\n        /* \"contracts/MFI_HECO_PATCH.sol\":8471:8656  function Do_Set_Referer(address user,address referer) public {\r... */\n    tag_43:\n      callvalue\n      dup1\n      iszero\n      tag_222\n      jumpi\n      0x00\n      dup1\n      revert\n    tag_222:\n      pop\n      tag_223\n      0x04\n      dup1\n      calldatasize\n      sub\n      0x40\n      dup2\n      lt\n      iszero\n      tag_224\n      jumpi\n      0x00\n      dup1\n      revert\n    tag_224:\n      dup2\n      add\n      swap1\n      dup1\n      dup1\n      calldataload\n      0xffffffffffffffffffffffffffffffffffffffff\n      and\n      swap1\n      0x20\n      add\n      swap1\n      swap3\n      swap2\n      swap1\n      dup1\n      calldataload\n      0xffffffffffffffffffffffffffffffffffffffff\n      and\n      swap1\n      0x20\n      add\n      swap1\n      swap3\n      swap2\n      swap1\n      pop\n      pop\n      pop\n      tag_225\n      jump\t// in\n    tag_223:\n      stop\n        /* \"contracts/MFI_HECO_PATCH.sol\":2651:2753  function transferOwnership(address _newOwner) public onlyOwner {\r... */\n    tag_44:\n      callvalue\n      dup1\n      iszero\n      tag_226\n      jumpi\n      0x00\n      dup1\n      revert\n    tag_226:\n      pop\n      tag_227\n      0x04\n      dup1\n      calldatasize\n      sub\n      0x20\n      dup2\n      lt\n      iszero\n      tag_228\n      jumpi\n      0x00\n      dup1\n      revert\n    tag_228:\n      dup2\n      add\n      swap1\n      dup1\n      dup1\n      calldataload\n      0xffffffffffffffffffffffffffffffffffffffff\n      and\n      swap1\n      0x20\n      add\n      swap1\n      swap3\n      swap2\n      swap1\n      pop\n      pop\n      pop\n      tag_229\n      jump\t// in\n    tag_227:\n      stop\n        /* \"contracts/MFI_HECO_PATCH.sol\":13239:13825  function Do_Receiving(uint period_id) public  OnlyRegistered  NotGamePause returns(bool) {\r... */\n    tag_45:\n      callvalue\n      dup1\n      iszero\n      tag_230\n      jumpi\n      0x00\n      dup1\n      revert\n    tag_230:\n      pop\n      tag_231\n      0x04\n      dup1\n      calldatasize\n      sub\n      0x20\n      dup2\n      lt\n      iszero\n      tag_232\n      jumpi\n      0x00\n      dup1\n      revert\n    tag_232:\n      dup2\n      add\n      swap1\n      dup1\n      dup1\n      calldataload\n      swap1\n      0x20\n      add\n      swap1\n      swap3\n      swap2\n      swap1\n      pop\n      pop\n      pop\n      tag_233\n      jump\t// in\n    tag_231:\n      mload(0x40)\n      dup1\n      dup3\n      iszero\n      iszero\n      dup2\n      mstore\n      0x20\n      add\n      swap2\n      pop\n      pop\n      mload(0x40)\n      dup1\n      swap2\n      sub\n      swap1\n      return\n        /* \"contracts/MFI_HECO_PATCH.sol\":4564:4606  uint256 public m_BlockNum_Of_Last_Update=0 */\n    tag_46:\n      callvalue\n      dup1\n      iszero\n      tag_234\n      jumpi\n      0x00\n      dup1\n      revert\n    tag_234:\n      pop\n      tag_235\n      tag_236\n      jump\t// in\n    tag_235:\n      mload(0x40)\n      dup1\n      dup3\n      dup2\n      mstore\n      0x20\n      add\n      swap2\n      pop\n      pop\n      mload(0x40)\n      dup1\n      swap2\n      sub\n      swap1\n      return\n        /* \"contracts/MFI_HECO_PATCH.sol\":21645:24077  function ViewReceiving(address user) public view  returns (uint256[8]memory) {\r... */\n    tag_61:\n        /* \"contracts/MFI_HECO_PATCH.sol\":21704:21720  uint256[8]memory */\n      tag_237\n      tag_238\n      jump\t// in\n    tag_237:\n        /* \"contracts/MFI_HECO_PATCH.sol\":21809:21829  uint block_num_clamp */\n      0x00\n        /* \"contracts/MFI_HECO_PATCH.sol\":21830:21842  block.number */\n      number\n        /* \"contracts/MFI_HECO_PATCH.sol\":21809:21842  uint block_num_clamp=block.number */\n      swap1\n      pop\n        /* \"contracts/MFI_HECO_PATCH.sol\":21872:21900  m_Stacking_Block_Number_Stop */\n      sload(0x17)\n        /* \"contracts/MFI_HECO_PATCH.sol\":21856:21871  block_num_clamp */\n      dup2\n        /* \"contracts/MFI_HECO_PATCH.sol\":21856:21900  block_num_clamp>m_Stacking_Block_Number_Stop */\n      gt\n        /* \"contracts/MFI_HECO_PATCH.sol\":21853:21982  if(block_num_clamp>m_Stacking_Block_Number_Stop)\r... */\n      iszero\n      tag_240\n      jumpi\n        /* \"contracts/MFI_HECO_PATCH.sol\":21942:21970  m_Stacking_Block_Number_Stop */\n      sload(0x17)\n        /* \"contracts/MFI_HECO_PATCH.sol\":21926:21970  block_num_clamp=m_Stacking_Block_Number_Stop */\n      swap1\n      pop\n        /* \"contracts/MFI_HECO_PATCH.sol\":21853:21982  if(block_num_clamp>m_Stacking_Block_Number_Stop)\r... */\n    tag_240:\n        /* \"contracts/MFI_HECO_PATCH.sol\":22011:22040  m_Stacking_Block_Number_Start */\n      sload(0x16)\n        /* \"contracts/MFI_HECO_PATCH.sol\":21995:22010  block_num_clamp */\n      dup2\n        /* \"contracts/MFI_HECO_PATCH.sol\":21995:22040  block_num_clamp<m_Stacking_Block_Number_Start */\n      lt\n        /* \"contracts/MFI_HECO_PATCH.sol\":21992:22123  if(block_num_clamp<m_Stacking_Block_Number_Start)\r... */\n      iszero\n      tag_241\n      jumpi\n        /* \"contracts/MFI_HECO_PATCH.sol\":22082:22111  m_Stacking_Block_Number_Start */\n      sload(0x16)\n        /* \"contracts/MFI_HECO_PATCH.sol\":22066:22111  block_num_clamp=m_Stacking_Block_Number_Start */\n      swap1\n      pop\n        /* \"contracts/MFI_HECO_PATCH.sol\":21992:22123  if(block_num_clamp<m_Stacking_Block_Number_Start)\r... */\n    tag_241:\n        /* \"contracts/MFI_HECO_PATCH.sol\":22135:22153  uint256 block_span */\n      0x00\n        /* \"contracts/MFI_HECO_PATCH.sol\":22170:22195  m_BlockNum_Of_Last_Update */\n      sload(0x1a)\n        /* \"contracts/MFI_HECO_PATCH.sol\":22154:22169  block_num_clamp */\n      dup3\n        /* \"contracts/MFI_HECO_PATCH.sol\":22154:22195  block_num_clamp-m_BlockNum_Of_Last_Update */\n      sub\n        /* \"contracts/MFI_HECO_PATCH.sol\":22135:22195  uint256 block_span=block_num_clamp-m_BlockNum_Of_Last_Update */\n      swap1\n      pop\n        /* \"contracts/MFI_HECO_PATCH.sol\":22206:22268  uint256 [8] memory t_Sum_of_Weighted_Stacking_of_Stack_Options */\n      tag_242\n      tag_238\n      jump\t// in\n    tag_242:\n        /* \"contracts/MFI_HECO_PATCH.sol\":22269:22311  m_Sum_Of_Weighted_Stacking_Reciprocal_e128 */\n      0x1b\n        /* \"contracts/MFI_HECO_PATCH.sol\":22206:22311  uint256 [8] memory t_Sum_of_Weighted_Stacking_of_Stack_Options=m_Sum_Of_Weighted_Stacking_Reciprocal_e128 */\n      0x08\n      dup1\n      0x20\n      mul\n      mload(0x40)\n      swap1\n      dup2\n      add\n      0x40\n      mstore\n      dup1\n      swap3\n      swap2\n      swap1\n      dup3\n      0x08\n      dup1\n      iszero\n      tag_243\n      jumpi\n      0x20\n      mul\n      dup3\n      add\n      swap2\n    tag_244:\n      dup2\n      sload\n      dup2\n      mstore\n      0x20\n      add\n      swap1\n      0x01\n      add\n      swap1\n      dup1\n      dup4\n      gt\n      tag_244\n      jumpi\n    tag_243:\n      pop\n      pop\n      pop\n      pop\n      pop\n      swap1\n      pop\n        /* \"contracts/MFI_HECO_PATCH.sol\":22337:22338  0 */\n      0x00\n        /* \"contracts/MFI_HECO_PATCH.sol\":22325:22335  block_span */\n      dup3\n        /* \"contracts/MFI_HECO_PATCH.sol\":22325:22338  block_span==0 */\n      eq\n        /* \"contracts/MFI_HECO_PATCH.sol\":22322:22924  if(block_span==0)\r... */\n      iszero\n      tag_245\n      jumpi\n      jump(tag_246)\n    tag_245:\n        /* \"contracts/MFI_HECO_PATCH.sol\":22473:22479  uint i */\n      0x00\n        /* \"contracts/MFI_HECO_PATCH.sol\":22468:22899  for (uint i =0;i<8;i++)\r... */\n    tag_247:\n        /* \"contracts/MFI_HECO_PATCH.sol\":22485:22486  8 */\n      0x08\n        /* \"contracts/MFI_HECO_PATCH.sol\":22483:22484  i */\n      dup2\n        /* \"contracts/MFI_HECO_PATCH.sol\":22483:22486  i<8 */\n      lt\n        /* \"contracts/MFI_HECO_PATCH.sol\":22468:22899  for (uint i =0;i<8;i++)\r... */\n      iszero\n      tag_248\n      jumpi\n        /* \"contracts/MFI_HECO_PATCH.sol\":22539:22552  uint256 delta */\n      0x00\n        /* \"contracts/MFI_HECO_PATCH.sol\":22555:22566  m_FIX_POINT */\n      sload(0x23)\n        /* \"contracts/MFI_HECO_PATCH.sol\":22539:22566  uint256 delta=  m_FIX_POINT */\n      swap1\n      pop\n        /* \"contracts/MFI_HECO_PATCH.sol\":22581:22605  uint256 t_total_stacking */\n      0x00\n        /* \"contracts/MFI_HECO_PATCH.sol\":22606:22622  m_Total_Stacking */\n      sload(0x18)\n        /* \"contracts/MFI_HECO_PATCH.sol\":22581:22622  uint256 t_total_stacking=m_Total_Stacking */\n      swap1\n      pop\n        /* \"contracts/MFI_HECO_PATCH.sol\":22649:22665  t_total_stacking */\n      dup1\n        /* \"contracts/MFI_HECO_PATCH.sol\":22643:22648  delta */\n      dup3\n        /* \"contracts/MFI_HECO_PATCH.sol\":22643:22665  delta/t_total_stacking */\n      dup2\n      tag_250\n      jumpi\n      invalid\n    tag_250:\n      div\n        /* \"contracts/MFI_HECO_PATCH.sol\":22637:22665  delta=delta/t_total_stacking */\n      swap2\n      pop\n        /* \"contracts/MFI_HECO_PATCH.sol\":22703:22734  m_Block_weight_of_Stack_Options */\n      0x02\n        /* \"contracts/MFI_HECO_PATCH.sol\":22735:22736  i */\n      dup4\n        /* \"contracts/MFI_HECO_PATCH.sol\":22703:22737  m_Block_weight_of_Stack_Options[i] */\n      0x08\n      dup2\n      lt\n      tag_251\n      jumpi\n      invalid\n    tag_251:\n      add\n      sload\n        /* \"contracts/MFI_HECO_PATCH.sol\":22692:22702  block_span */\n      dup6\n        /* \"contracts/MFI_HECO_PATCH.sol\":22686:22691  delta */\n      dup4\n        /* \"contracts/MFI_HECO_PATCH.sol\":22686:22702  delta*block_span */\n      mul\n        /* \"contracts/MFI_HECO_PATCH.sol\":22686:22737  delta*block_span*m_Block_weight_of_Stack_Options[i] */\n      mul\n        /* \"contracts/MFI_HECO_PATCH.sol\":22680:22737  delta=delta*block_span*m_Block_weight_of_Stack_Options[i] */\n      swap2\n      pop\n        /* \"contracts/MFI_HECO_PATCH.sol\":22846:22851  delta */\n      dup2\n        /* \"contracts/MFI_HECO_PATCH.sol\":22800:22842  m_Sum_Of_Weighted_Stacking_Reciprocal_e128 */\n      0x1b\n        /* \"contracts/MFI_HECO_PATCH.sol\":22843:22844  i */\n      dup5\n        /* \"contracts/MFI_HECO_PATCH.sol\":22800:22845  m_Sum_Of_Weighted_Stacking_Reciprocal_e128[i] */\n      0x08\n      dup2\n      lt\n      tag_253\n      jumpi\n      invalid\n    tag_253:\n      add\n      sload\n        /* \"contracts/MFI_HECO_PATCH.sol\":22800:22851  m_Sum_Of_Weighted_Stacking_Reciprocal_e128[i]+delta */\n      add\n        /* \"contracts/MFI_HECO_PATCH.sol\":22753:22796  t_Sum_of_Weighted_Stacking_of_Stack_Options */\n      dup5\n        /* \"contracts/MFI_HECO_PATCH.sol\":22797:22798  i */\n      dup5\n        /* \"contracts/MFI_HECO_PATCH.sol\":22753:22799  t_Sum_of_Weighted_Stacking_of_Stack_Options[i] */\n      0x08\n      dup2\n      lt\n      tag_255\n      jumpi\n      invalid\n    tag_255:\n      0x20\n      mul\n      add\n        /* \"contracts/MFI_HECO_PATCH.sol\":22753:22851  t_Sum_of_Weighted_Stacking_of_Stack_Options[i]=m_Sum_Of_Weighted_Stacking_Reciprocal_e128[i]+delta */\n      dup2\n      dup2\n      mstore\n      pop\n      pop\n        /* \"contracts/MFI_HECO_PATCH.sol\":22468:22899  for (uint i =0;i<8;i++)\r... */\n      pop\n      pop\n        /* \"contracts/MFI_HECO_PATCH.sol\":22487:22490  i++ */\n      dup1\n      dup1\n      0x01\n      add\n      swap2\n      pop\n      pop\n        /* \"contracts/MFI_HECO_PATCH.sol\":22468:22899  for (uint i =0;i<8;i++)\r... */\n      jump(tag_247)\n    tag_248:\n      pop\n        /* \"contracts/MFI_HECO_PATCH.sol\":22322:22924  if(block_span==0)\r... */\n    tag_246:\n        /* \"contracts/MFI_HECO_PATCH.sol\":23027:23060  uint256[8] memory t_Token_Amounts */\n      tag_256\n      tag_238\n      jump\t// in\n    tag_256:\n        /* \"contracts/MFI_HECO_PATCH.sol\":23061:23071  m_User_Map */\n      0x26\n        /* \"contracts/MFI_HECO_PATCH.sol\":23061:23077  m_User_Map[user] */\n      0x00\n        /* \"contracts/MFI_HECO_PATCH.sol\":23072:23076  user */\n      dup8\n        /* \"contracts/MFI_HECO_PATCH.sol\":23061:23077  m_User_Map[user] */\n      0xffffffffffffffffffffffffffffffffffffffff\n      and\n      0xffffffffffffffffffffffffffffffffffffffff\n      and\n      dup2\n      mstore\n      0x20\n      add\n      swap1\n      dup2\n      mstore\n      0x20\n      add\n      0x00\n      keccak256\n        /* \"contracts/MFI_HECO_PATCH.sol\":23061:23091  m_User_Map[user].Token_Amounts */\n      0x03\n      add\n        /* \"contracts/MFI_HECO_PATCH.sol\":23027:23091  uint256[8] memory t_Token_Amounts=m_User_Map[user].Token_Amounts */\n      0x08\n      dup1\n      0x20\n      mul\n      mload(0x40)\n      swap1\n      dup2\n      add\n      0x40\n      mstore\n      dup1\n      swap3\n      swap2\n      swap1\n      dup3\n      0x08\n      dup1\n      iszero\n      tag_257\n      jumpi\n      0x20\n      mul\n      dup3\n      add\n      swap2\n    tag_258:\n      dup2\n      sload\n      dup2\n      mstore\n      0x20\n      add\n      swap1\n      0x01\n      add\n      swap1\n      dup1\n      dup4\n      gt\n      tag_258\n      jumpi\n    tag_257:\n      pop\n      pop\n      pop\n      pop\n      pop\n      swap1\n      pop\n        /* \"contracts/MFI_HECO_PATCH.sol\":23102:23125  uint256 sum_of_quantity */\n      0x00\n        /* \"contracts/MFI_HECO_PATCH.sol\":23143:23149  uint i */\n      dup1\n        /* \"contracts/MFI_HECO_PATCH.sol\":23138:23948  for (uint i =0;i<8;i++)\r... */\n    tag_259:\n        /* \"contracts/MFI_HECO_PATCH.sol\":23155:23156  8 */\n      0x08\n        /* \"contracts/MFI_HECO_PATCH.sol\":23153:23154  i */\n      dup2\n        /* \"contracts/MFI_HECO_PATCH.sol\":23153:23156  i<8 */\n      lt\n        /* \"contracts/MFI_HECO_PATCH.sol\":23138:23948  for (uint i =0;i<8;i++)\r... */\n      iszero\n      tag_260\n      jumpi\n        /* \"contracts/MFI_HECO_PATCH.sol\":23201:23219  uint t_fixed_point */\n      0x00\n        /* \"contracts/MFI_HECO_PATCH.sol\":23221:23225  2**1 */\n      0x02\n        /* \"contracts/MFI_HECO_PATCH.sol\":23201:23226  uint t_fixed_point=(2**1) */\n      swap1\n      pop\n        /* \"contracts/MFI_HECO_PATCH.sol\":23241:23254  uint quantity */\n      0x00\n        /* \"contracts/MFI_HECO_PATCH.sol\":23255:23381  t_Sum_of_Weighted_Stacking_of_Stack_Options[i].sub( m_User_Map[user].Last_Updated_Sum_Of_Weighted_Stacking_Reciprocal_e128[i]) */\n      tag_262\n        /* \"contracts/MFI_HECO_PATCH.sol\":23307:23317  m_User_Map */\n      0x26\n        /* \"contracts/MFI_HECO_PATCH.sol\":23307:23323  m_User_Map[user] */\n      0x00\n        /* \"contracts/MFI_HECO_PATCH.sol\":23318:23322  user */\n      dup13\n        /* \"contracts/MFI_HECO_PATCH.sol\":23307:23323  m_User_Map[user] */\n      0xffffffffffffffffffffffffffffffffffffffff\n      and\n      0xffffffffffffffffffffffffffffffffffffffff\n      and\n      dup2\n      mstore\n      0x20\n      add\n      swap1\n      dup2\n      mstore\n      0x20\n      add\n      0x00\n      keccak256\n        /* \"contracts/MFI_HECO_PATCH.sol\":23307:23377  m_User_Map[user].Last_Updated_Sum_Of_Weighted_Stacking_Reciprocal_e128 */\n      0x0d\n      add\n        /* \"contracts/MFI_HECO_PATCH.sol\":23378:23379  i */\n      dup5\n        /* \"contracts/MFI_HECO_PATCH.sol\":23307:23380  m_User_Map[user].Last_Updated_Sum_Of_Weighted_Stacking_Reciprocal_e128[i] */\n      0x08\n      dup2\n      lt\n      tag_263\n      jumpi\n      invalid\n    tag_263:\n      add\n      sload\n        /* \"contracts/MFI_HECO_PATCH.sol\":23255:23298  t_Sum_of_Weighted_Stacking_of_Stack_Options */\n      dup8\n        /* \"contracts/MFI_HECO_PATCH.sol\":23299:23300  i */\n      dup6\n        /* \"contracts/MFI_HECO_PATCH.sol\":23255:23301  t_Sum_of_Weighted_Stacking_of_Stack_Options[i] */\n      0x08\n      dup2\n      lt\n      tag_265\n      jumpi\n      invalid\n    tag_265:\n      0x20\n      mul\n      add\n      mload\n        /* \"contracts/MFI_HECO_PATCH.sol\":23255:23305  t_Sum_of_Weighted_Stacking_of_Stack_Options[i].sub */\n      tag_266\n      swap1\n        /* \"contracts/MFI_HECO_PATCH.sol\":23255:23381  t_Sum_of_Weighted_Stacking_of_Stack_Options[i].sub( m_User_Map[user].Last_Updated_Sum_Of_Weighted_Stacking_Reciprocal_e128[i]) */\n      swap2\n      swap1\n      0xffffffff\n      and\n      jump\t// in\n    tag_262:\n        /* \"contracts/MFI_HECO_PATCH.sol\":23241:23381  uint quantity=t_Sum_of_Weighted_Stacking_of_Stack_Options[i].sub( m_User_Map[user].Last_Updated_Sum_Of_Weighted_Stacking_Reciprocal_e128[i]) */\n      swap1\n      pop\n        /* \"contracts/MFI_HECO_PATCH.sol\":23414:23427  t_fixed_point */\n      dup2\n        /* \"contracts/MFI_HECO_PATCH.sol\":23405:23413  quantity */\n      dup2\n        /* \"contracts/MFI_HECO_PATCH.sol\":23405:23427  quantity/t_fixed_point */\n      dup2\n      tag_267\n      jumpi\n      invalid\n    tag_267:\n      div\n        /* \"contracts/MFI_HECO_PATCH.sol\":23396:23427  quantity=quantity/t_fixed_point */\n      swap1\n      pop\n        /* \"contracts/MFI_HECO_PATCH.sol\":23530:23538  quantity */\n      dup1\n        /* \"contracts/MFI_HECO_PATCH.sol\":23489:23499  m_User_Map */\n      0x26\n        /* \"contracts/MFI_HECO_PATCH.sol\":23489:23505  m_User_Map[user] */\n      0x00\n        /* \"contracts/MFI_HECO_PATCH.sol\":23500:23504  user */\n      dup13\n        /* \"contracts/MFI_HECO_PATCH.sol\":23489:23505  m_User_Map[user] */\n      0xffffffffffffffffffffffffffffffffffffffff\n      and\n      0xffffffffffffffffffffffffffffffffffffffff\n      and\n      dup2\n      mstore\n      0x20\n      add\n      swap1\n      dup2\n      mstore\n      0x20\n      add\n      0x00\n      keccak256\n        /* \"contracts/MFI_HECO_PATCH.sol\":23489:23525  m_User_Map[user].Contributed_Amounts */\n      0x15\n      add\n        /* \"contracts/MFI_HECO_PATCH.sol\":23526:23527  i */\n      dup5\n        /* \"contracts/MFI_HECO_PATCH.sol\":23489:23528  m_User_Map[user].Contributed_Amounts[i] */\n      0x08\n      dup2\n      lt\n      tag_268\n      jumpi\n      invalid\n    tag_268:\n      add\n      sload\n        /* \"contracts/MFI_HECO_PATCH.sol\":23452:23462  m_User_Map */\n      0x26\n        /* \"contracts/MFI_HECO_PATCH.sol\":23452:23468  m_User_Map[user] */\n      0x00\n        /* \"contracts/MFI_HECO_PATCH.sol\":23463:23467  user */\n      dup14\n        /* \"contracts/MFI_HECO_PATCH.sol\":23452:23468  m_User_Map[user] */\n      0xffffffffffffffffffffffffffffffffffffffff\n      and\n      0xffffffffffffffffffffffffffffffffffffffff\n      and\n      dup2\n      mstore\n      0x20\n      add\n      swap1\n      dup2\n      mstore\n      0x20\n      add\n      0x00\n      keccak256\n        /* \"contracts/MFI_HECO_PATCH.sol\":23452:23485  m_User_Map[user].Stacking_Amounts */\n      0x1d\n      add\n        /* \"contracts/MFI_HECO_PATCH.sol\":23486:23487  i */\n      dup6\n        /* \"contracts/MFI_HECO_PATCH.sol\":23452:23488  m_User_Map[user].Stacking_Amounts[i] */\n      0x08\n      dup2\n      lt\n      tag_270\n      jumpi\n      invalid\n    tag_270:\n      add\n      sload\n        /* \"contracts/MFI_HECO_PATCH.sol\":23452:23528  m_User_Map[user].Stacking_Amounts[i]+m_User_Map[user].Contributed_Amounts[i] */\n      add\n        /* \"contracts/MFI_HECO_PATCH.sol\":23451:23538  (m_User_Map[user].Stacking_Amounts[i]+m_User_Map[user].Contributed_Amounts[i])*quantity */\n      mul\n        /* \"contracts/MFI_HECO_PATCH.sol\":23442:23538  quantity=(m_User_Map[user].Stacking_Amounts[i]+m_User_Map[user].Contributed_Amounts[i])*quantity */\n      swap1\n      pop\n        /* \"contracts/MFI_HECO_PATCH.sol\":23654:23655  1 */\n      0x01\n        /* \"contracts/MFI_HECO_PATCH.sol\":23645:23653  quantity */\n      dup2\n        /* \"contracts/MFI_HECO_PATCH.sol\":23645:23655  quantity/1 */\n      dup2\n      tag_272\n      jumpi\n      invalid\n    tag_272:\n      div\n        /* \"contracts/MFI_HECO_PATCH.sol\":23636:23655  quantity=quantity/1 */\n      swap1\n      pop\n        /* \"contracts/MFI_HECO_PATCH.sol\":23743:23754  m_FIX_POINT */\n      sload(0x23)\n        /* \"contracts/MFI_HECO_PATCH.sol\":23732:23740  quantity */\n      dup2\n        /* \"contracts/MFI_HECO_PATCH.sol\":23732:23755  quantity/( m_FIX_POINT) */\n      dup2\n      tag_273\n      jumpi\n      invalid\n    tag_273:\n      div\n        /* \"contracts/MFI_HECO_PATCH.sol\":23723:23755  quantity=quantity/( m_FIX_POINT) */\n      swap1\n      pop\n        /* \"contracts/MFI_HECO_PATCH.sol\":23788:23801  t_fixed_point */\n      dup2\n        /* \"contracts/MFI_HECO_PATCH.sol\":23779:23787  quantity */\n      dup2\n        /* \"contracts/MFI_HECO_PATCH.sol\":23779:23801  quantity*t_fixed_point */\n      mul\n        /* \"contracts/MFI_HECO_PATCH.sol\":23770:23801  quantity=quantity*t_fixed_point */\n      swap1\n      pop\n        /* \"contracts/MFI_HECO_PATCH.sol\":23849:23881  t_Token_Amounts[i].add(quantity) */\n      tag_274\n        /* \"contracts/MFI_HECO_PATCH.sol\":23872:23880  quantity */\n      dup2\n        /* \"contracts/MFI_HECO_PATCH.sol\":23849:23864  t_Token_Amounts */\n      dup7\n        /* \"contracts/MFI_HECO_PATCH.sol\":23865:23866  i */\n      dup6\n        /* \"contracts/MFI_HECO_PATCH.sol\":23849:23867  t_Token_Amounts[i] */\n      0x08\n      dup2\n      lt\n      tag_275\n      jumpi\n      invalid\n    tag_275:\n      0x20\n      mul\n      add\n      mload\n        /* \"contracts/MFI_HECO_PATCH.sol\":23849:23871  t_Token_Amounts[i].add */\n      tag_276\n      swap1\n        /* \"contracts/MFI_HECO_PATCH.sol\":23849:23881  t_Token_Amounts[i].add(quantity) */\n      swap2\n      swap1\n      0xffffffff\n      and\n      jump\t// in\n    tag_274:\n        /* \"contracts/MFI_HECO_PATCH.sol\":23830:23845  t_Token_Amounts */\n      dup6\n        /* \"contracts/MFI_HECO_PATCH.sol\":23846:23847  i */\n      dup5\n        /* \"contracts/MFI_HECO_PATCH.sol\":23830:23848  t_Token_Amounts[i] */\n      0x08\n      dup2\n      lt\n      tag_277\n      jumpi\n      invalid\n    tag_277:\n      0x20\n      mul\n      add\n        /* \"contracts/MFI_HECO_PATCH.sol\":23830:23881  t_Token_Amounts[i]=t_Token_Amounts[i].add(quantity) */\n      dup2\n      dup2\n      mstore\n      pop\n      pop\n        /* \"contracts/MFI_HECO_PATCH.sol\":23928:23936  quantity */\n      dup1\n        /* \"contracts/MFI_HECO_PATCH.sol\":23912:23927  sum_of_quantity */\n      dup5\n        /* \"contracts/MFI_HECO_PATCH.sol\":23912:23936  sum_of_quantity+quantity */\n      add\n        /* \"contracts/MFI_HECO_PATCH.sol\":23896:23936  sum_of_quantity=sum_of_quantity+quantity */\n      swap4\n      pop\n        /* \"contracts/MFI_HECO_PATCH.sol\":23138:23948  for (uint i =0;i<8;i++)\r... */\n      pop\n      pop\n        /* \"contracts/MFI_HECO_PATCH.sol\":23157:23160  i++ */\n      dup1\n      dup1\n      0x01\n      add\n      swap2\n      pop\n      pop\n        /* \"contracts/MFI_HECO_PATCH.sol\":23138:23948  for (uint i =0;i<8;i++)\r... */\n      jump(tag_259)\n    tag_260:\n      pop\n        /* \"contracts/MFI_HECO_PATCH.sol\":24054:24069  t_Token_Amounts */\n      dup2\n        /* \"contracts/MFI_HECO_PATCH.sol\":24047:24069  return t_Token_Amounts */\n      swap6\n      pop\n      pop\n      pop\n      pop\n      pop\n      pop\n        /* \"contracts/MFI_HECO_PATCH.sol\":21645:24077  function ViewReceiving(address user) public view  returns (uint256[8]memory) {\r... */\n      swap2\n      swap1\n      pop\n      jump\t// out\n        /* \"contracts/MFI_HECO_PATCH.sol\":4263:4293  address public m_Token_Address */\n    tag_67:\n      0x15\n      0x00\n      swap1\n      sload\n      swap1\n      0x0100\n      exp\n      swap1\n      div\n      0xffffffffffffffffffffffffffffffffffffffff\n      and\n      dup2\n      jump\t// out\n        /* \"contracts/MFI_HECO_PATCH.sol\":24480:24633  function Set_Period_Span(uint period_id, uint256 block_span)public onlyOwner\r... */\n    tag_71:\n        /* \"contracts/MFI_HECO_PATCH.sol\":2617:2622  owner */\n      0x00\n      dup1\n      sload\n      swap1\n      0x0100\n      exp\n      swap1\n      div\n      0xffffffffffffffffffffffffffffffffffffffff\n      and\n        /* \"contracts/MFI_HECO_PATCH.sol\":2603:2622  msg.sender == owner */\n      0xffffffffffffffffffffffffffffffffffffffff\n      and\n        /* \"contracts/MFI_HECO_PATCH.sol\":2603:2613  msg.sender */\n      caller\n        /* \"contracts/MFI_HECO_PATCH.sol\":2603:2622  msg.sender == owner */\n      0xffffffffffffffffffffffffffffffffffffffff\n      and\n      eq\n        /* \"contracts/MFI_HECO_PATCH.sol\":2595:2623  require(msg.sender == owner) */\n      tag_279\n      jumpi\n      0x00\n      dup1\n      revert\n    tag_279:\n        /* \"contracts/MFI_HECO_PATCH.sol\":24615:24625  block_span */\n      dup1\n        /* \"contracts/MFI_HECO_PATCH.sol\":24573:24602  m_Block_Span_of_Stack_Options */\n      0x0b\n        /* \"contracts/MFI_HECO_PATCH.sol\":24604:24613  period_id */\n      dup4\n        /* \"contracts/MFI_HECO_PATCH.sol\":24573:24614  m_Block_Span_of_Stack_Options [period_id] */\n      0x08\n      dup2\n      lt\n      tag_281\n      jumpi\n      invalid\n    tag_281:\n      add\n        /* \"contracts/MFI_HECO_PATCH.sol\":24573:24625  m_Block_Span_of_Stack_Options [period_id]=block_span */\n      dup2\n      swap1\n      sstore\n      pop\n        /* \"contracts/MFI_HECO_PATCH.sol\":24480:24633  function Set_Period_Span(uint period_id, uint256 block_span)public onlyOwner\r... */\n      pop\n      pop\n      jump\t// out\n        /* \"contracts/MFI_HECO_PATCH.sol\":5870:6024  function Set_Token_Address( address stacking,address token) public onlyOwner{\r... */\n    tag_75:\n        /* \"contracts/MFI_HECO_PATCH.sol\":2617:2622  owner */\n      0x00\n      dup1\n      sload\n      swap1\n      0x0100\n      exp\n      swap1\n      div\n      0xffffffffffffffffffffffffffffffffffffffff\n      and\n        /* \"contracts/MFI_HECO_PATCH.sol\":2603:2622  msg.sender == owner */\n      0xffffffffffffffffffffffffffffffffffffffff\n      and\n        /* \"contracts/MFI_HECO_PATCH.sol\":2603:2613  msg.sender */\n      caller\n        /* \"contracts/MFI_HECO_PATCH.sol\":2603:2622  msg.sender == owner */\n      0xffffffffffffffffffffffffffffffffffffffff\n      and\n      eq\n        /* \"contracts/MFI_HECO_PATCH.sol\":2595:2623  require(msg.sender == owner) */\n      tag_284\n      jumpi\n      0x00\n      dup1\n      revert\n    tag_284:\n        /* \"contracts/MFI_HECO_PATCH.sol\":5976:5984  stacking */\n      dup2\n        /* \"contracts/MFI_HECO_PATCH.sol\":5957:5975  m_Stacking_Address */\n      0x14\n      0x00\n        /* \"contracts/MFI_HECO_PATCH.sol\":5957:5984  m_Stacking_Address=stacking */\n      0x0100\n      exp\n      dup2\n      sload\n      dup2\n      0xffffffffffffffffffffffffffffffffffffffff\n      mul\n      not\n      and\n      swap1\n      dup4\n      0xffffffffffffffffffffffffffffffffffffffff\n      and\n      mul\n      or\n      swap1\n      sstore\n      pop\n        /* \"contracts/MFI_HECO_PATCH.sol\":6011:6016  token */\n      dup1\n        /* \"contracts/MFI_HECO_PATCH.sol\":5995:6010  m_Token_Address */\n      0x15\n      0x00\n        /* \"contracts/MFI_HECO_PATCH.sol\":5995:6016  m_Token_Address=token */\n      0x0100\n      exp\n      dup2\n      sload\n      dup2\n      0xffffffffffffffffffffffffffffffffffffffff\n      mul\n      not\n      and\n      swap1\n      dup4\n      0xffffffffffffffffffffffffffffffffffffffff\n      and\n      mul\n      or\n      swap1\n      sstore\n      pop\n        /* \"contracts/MFI_HECO_PATCH.sol\":5870:6024  function Set_Token_Address( address stacking,address token) public onlyOwner{\r... */\n      pop\n      pop\n      jump\t// out\n        /* \"contracts/MFI_HECO_PATCH.sol\":18582:18748  function Do_Update() public  OnlyRegistered  NotGamePause returns(bool){\r... */\n    tag_78:\n        /* \"contracts/MFI_HECO_PATCH.sol\":18648:18652  bool */\n      0x00\n        /* \"contracts/MFI_HECO_PATCH.sol\":5301:5305  true */\n      0x01\n        /* \"contracts/MFI_HECO_PATCH.sol\":5266:5305  m_User_Map[msg.sender].Registered==true */\n      iszero\n      iszero\n        /* \"contracts/MFI_HECO_PATCH.sol\":5266:5276  m_User_Map */\n      0x26\n        /* \"contracts/MFI_HECO_PATCH.sol\":5266:5288  m_User_Map[msg.sender] */\n      0x00\n        /* \"contracts/MFI_HECO_PATCH.sol\":5277:5287  msg.sender */\n      caller\n        /* \"contracts/MFI_HECO_PATCH.sol\":5266:5288  m_User_Map[msg.sender] */\n      0xffffffffffffffffffffffffffffffffffffffff\n      and\n      0xffffffffffffffffffffffffffffffffffffffff\n      and\n      dup2\n      mstore\n      0x20\n      add\n      swap1\n      dup2\n      mstore\n      0x20\n      add\n      0x00\n      keccak256\n        /* \"contracts/MFI_HECO_PATCH.sol\":5266:5299  m_User_Map[msg.sender].Registered */\n      0x00\n      add\n      0x00\n      swap1\n      sload\n      swap1\n      0x0100\n      exp\n      swap1\n      div\n      0xff\n      and\n        /* \"contracts/MFI_HECO_PATCH.sol\":5266:5305  m_User_Map[msg.sender].Registered==true */\n      iszero\n      iszero\n      eq\n        /* \"contracts/MFI_HECO_PATCH.sol\":5258:5306  require(m_User_Map[msg.sender].Registered==true) */\n      tag_287\n      jumpi\n      0x00\n      dup1\n      revert\n    tag_287:\n        /* \"contracts/MFI_HECO_PATCH.sol\":5185:5189  true */\n      0x01\n        /* \"contracts/MFI_HECO_PATCH.sol\":5171:5189  m_Game_Pause!=true */\n      iszero\n      iszero\n        /* \"contracts/MFI_HECO_PATCH.sol\":5171:5183  m_Game_Pause */\n      0x24\n      0x00\n      swap1\n      sload\n      swap1\n      0x0100\n      exp\n      swap1\n      div\n      0xff\n      and\n        /* \"contracts/MFI_HECO_PATCH.sol\":5171:5189  m_Game_Pause!=true */\n      iszero\n      iszero\n      eq\n      iszero\n        /* \"contracts/MFI_HECO_PATCH.sol\":5163:5190  require(m_Game_Pause!=true) */\n      tag_289\n      jumpi\n      0x00\n      dup1\n      revert\n    tag_289:\n        /* \"contracts/MFI_HECO_PATCH.sol\":18664:18684  Update_Global_Data() */\n      tag_291\n        /* \"contracts/MFI_HECO_PATCH.sol\":18664:18682  Update_Global_Data */\n      tag_292\n        /* \"contracts/MFI_HECO_PATCH.sol\":18664:18684  Update_Global_Data() */\n      jump\t// in\n    tag_291:\n        /* \"contracts/MFI_HECO_PATCH.sol\":18695:18718  Update_User(msg.sender) */\n      tag_293\n        /* \"contracts/MFI_HECO_PATCH.sol\":18707:18717  msg.sender */\n      caller\n        /* \"contracts/MFI_HECO_PATCH.sol\":18695:18706  Update_User */\n      tag_294\n        /* \"contracts/MFI_HECO_PATCH.sol\":18695:18718  Update_User(msg.sender) */\n      jump\t// in\n    tag_293:\n        /* \"contracts/MFI_HECO_PATCH.sol\":18736:18740  true */\n      0x01\n        /* \"contracts/MFI_HECO_PATCH.sol\":18729:18740  return true */\n      swap1\n      pop\n        /* \"contracts/MFI_HECO_PATCH.sol\":18582:18748  function Do_Update() public  OnlyRegistered  NotGamePause returns(bool){\r... */\n      swap1\n      jump\t// out\n        /* \"contracts/MFI_HECO_PATCH.sol\":4192:4225  address public m_Stacking_Address */\n    tag_81:\n      0x14\n      0x00\n      swap1\n      sload\n      swap1\n      0x0100\n      exp\n      swap1\n      div\n      0xffffffffffffffffffffffffffffffffffffffff\n      and\n      dup2\n      jump\t// out\n        /* \"contracts/MFI_HECO_PATCH.sol\":4757:4795  uint256 public m_FIX_POINT=( 1*2**128) */\n    tag_84:\n      sload(0x23)\n      dup2\n      jump\t// out\n        /* \"contracts/MFI_HECO_PATCH.sol\":8662:9000  function Do_Set_Referers(address[] memory user,address[] memory referer) public {\r... */\n    tag_94:\n        /* \"contracts/MFI_HECO_PATCH.sol\":8773:8790  m_Updater_Address */\n      0x13\n      0x00\n      swap1\n      sload\n      swap1\n      0x0100\n      exp\n      swap1\n      div\n      0xffffffffffffffffffffffffffffffffffffffff\n      and\n        /* \"contracts/MFI_HECO_PATCH.sol\":8761:8790  msg.sender==m_Updater_Address */\n      0xffffffffffffffffffffffffffffffffffffffff\n      and\n        /* \"contracts/MFI_HECO_PATCH.sol\":8761:8771  msg.sender */\n      caller\n        /* \"contracts/MFI_HECO_PATCH.sol\":8761:8790  msg.sender==m_Updater_Address */\n      0xffffffffffffffffffffffffffffffffffffffff\n      and\n      eq\n        /* \"contracts/MFI_HECO_PATCH.sol\":8753:8806  require(msg.sender==m_Updater_Address,\"DISQUALIFIED\") */\n      tag_296\n      jumpi\n      mload(0x40)\n      0x08c379a000000000000000000000000000000000000000000000000000000000\n      dup2\n      mstore\n      0x04\n      add\n      dup1\n      dup1\n      0x20\n      add\n      dup3\n      dup2\n      sub\n      dup3\n      mstore\n      0x0c\n      dup2\n      mstore\n      0x20\n      add\n      dup1\n      0x4449535155414c49464945440000000000000000000000000000000000000000\n      dup2\n      mstore\n      pop\n      0x20\n      add\n      swap2\n      pop\n      pop\n      mload(0x40)\n      dup1\n      swap2\n      sub\n      swap1\n      revert\n    tag_296:\n        /* \"contracts/MFI_HECO_PATCH.sol\":8838:8845  referer */\n      dup1\n        /* \"contracts/MFI_HECO_PATCH.sol\":8838:8852  referer.length */\n      mload\n        /* \"contracts/MFI_HECO_PATCH.sol\":8825:8829  user */\n      dup3\n        /* \"contracts/MFI_HECO_PATCH.sol\":8825:8836  user.length */\n      mload\n        /* \"contracts/MFI_HECO_PATCH.sol\":8825:8852  user.length==referer.length */\n      eq\n        /* \"contracts/MFI_HECO_PATCH.sol\":8817:8868  require(user.length==referer.length,\"INVALID DATA\") */\n      tag_297\n      jumpi\n      mload(0x40)\n      0x08c379a000000000000000000000000000000000000000000000000000000000\n      dup2\n      mstore\n      0x04\n      add\n      dup1\n      dup1\n      0x20\n      add\n      dup3\n      dup2\n      sub\n      dup3\n      mstore\n      0x0c\n      dup2\n      mstore\n      0x20\n      add\n      dup1\n      0x494e56414c494420444154410000000000000000000000000000000000000000\n      dup2\n      mstore\n      pop\n      0x20\n      add\n      swap2\n      pop\n      pop\n      mload(0x40)\n      dup1\n      swap2\n      sub\n      swap1\n      revert\n    tag_297:\n        /* \"contracts/MFI_HECO_PATCH.sol\":8883:8889  uint i */\n      0x00\n        /* \"contracts/MFI_HECO_PATCH.sol\":8879:8993  for(uint i =0 ;i< user.length;i++)\r... */\n    tag_298:\n        /* \"contracts/MFI_HECO_PATCH.sol\":8897:8901  user */\n      dup3\n        /* \"contracts/MFI_HECO_PATCH.sol\":8897:8908  user.length */\n      mload\n        /* \"contracts/MFI_HECO_PATCH.sol\":8894:8895  i */\n      dup2\n        /* \"contracts/MFI_HECO_PATCH.sol\":8894:8908  i< user.length */\n      lt\n        /* \"contracts/MFI_HECO_PATCH.sol\":8879:8993  for(uint i =0 ;i< user.length;i++)\r... */\n      iszero\n      tag_299\n      jumpi\n        /* \"contracts/MFI_HECO_PATCH.sol\":8970:8977  referer */\n      dup2\n        /* \"contracts/MFI_HECO_PATCH.sol\":8978:8979  i */\n      dup2\n        /* \"contracts/MFI_HECO_PATCH.sol\":8970:8980  referer[i] */\n      dup2\n      mload\n      dup2\n      lt\n      tag_301\n      jumpi\n      invalid\n    tag_301:\n      0x20\n      mul\n      0x20\n      add\n      add\n      mload\n        /* \"contracts/MFI_HECO_PATCH.sol\":8934:8944  m_User_Map */\n      0x26\n        /* \"contracts/MFI_HECO_PATCH.sol\":8934:8953  m_User_Map[user[i]] */\n      0x00\n        /* \"contracts/MFI_HECO_PATCH.sol\":8945:8949  user */\n      dup6\n        /* \"contracts/MFI_HECO_PATCH.sol\":8950:8951  i */\n      dup5\n        /* \"contracts/MFI_HECO_PATCH.sol\":8945:8952  user[i] */\n      dup2\n      mload\n      dup2\n      lt\n      tag_302\n      jumpi\n      invalid\n    tag_302:\n      0x20\n      mul\n      0x20\n      add\n      add\n      mload\n        /* \"contracts/MFI_HECO_PATCH.sol\":8934:8953  m_User_Map[user[i]] */\n      0xffffffffffffffffffffffffffffffffffffffff\n      and\n      0xffffffffffffffffffffffffffffffffffffffff\n      and\n      dup2\n      mstore\n      0x20\n      add\n      swap1\n      dup2\n      mstore\n      0x20\n      add\n      0x00\n      keccak256\n        /* \"contracts/MFI_HECO_PATCH.sol\":8934:8969  m_User_Map[user[i]].Referer_Address */\n      0x01\n      add\n      0x00\n        /* \"contracts/MFI_HECO_PATCH.sol\":8934:8980  m_User_Map[user[i]].Referer_Address=referer[i] */\n      0x0100\n      exp\n      dup2\n      sload\n      dup2\n      0xffffffffffffffffffffffffffffffffffffffff\n      mul\n      not\n      and\n      swap1\n      dup4\n      0xffffffffffffffffffffffffffffffffffffffff\n      and\n      mul\n      or\n      swap1\n      sstore\n      pop\n        /* \"contracts/MFI_HECO_PATCH.sol\":8909:8912  i++ */\n      dup1\n      dup1\n      0x01\n      add\n      swap2\n      pop\n      pop\n        /* \"contracts/MFI_HECO_PATCH.sol\":8879:8993  for(uint i =0 ;i< user.length;i++)\r... */\n      jump(tag_298)\n    tag_299:\n      pop\n        /* \"contracts/MFI_HECO_PATCH.sol\":8662:9000  function Do_Set_Referers(address[] memory user,address[] memory referer) public {\r... */\n      pop\n      pop\n      jump\t// out\n        /* \"contracts/MFI_HECO_PATCH.sol\":7689:7873  function Get_User_Stackings(address user ) public view returns(  uint[8] memory)\r... */\n    tag_98:\n        /* \"contracts/MFI_HECO_PATCH.sol\":7754:7768  uint[8] memory */\n      tag_303\n      tag_238\n      jump\t// in\n    tag_303:\n        /* \"contracts/MFI_HECO_PATCH.sol\":7818:7828  m_User_Map */\n      0x26\n        /* \"contracts/MFI_HECO_PATCH.sol\":7818:7834  m_User_Map[user] */\n      0x00\n        /* \"contracts/MFI_HECO_PATCH.sol\":7829:7833  user */\n      dup4\n        /* \"contracts/MFI_HECO_PATCH.sol\":7818:7834  m_User_Map[user] */\n      0xffffffffffffffffffffffffffffffffffffffff\n      and\n      0xffffffffffffffffffffffffffffffffffffffff\n      and\n      dup2\n      mstore\n      0x20\n      add\n      swap1\n      dup2\n      mstore\n      0x20\n      add\n      0x00\n      keccak256\n        /* \"contracts/MFI_HECO_PATCH.sol\":7818:7852  m_User_Map[user]. Stacking_Amounts */\n      0x1d\n      add\n        /* \"contracts/MFI_HECO_PATCH.sol\":7789:7864  return\r... */\n      0x08\n      dup1\n      0x20\n      mul\n      mload(0x40)\n      swap1\n      dup2\n      add\n      0x40\n      mstore\n      dup1\n      swap3\n      swap2\n      swap1\n      dup3\n      0x08\n      dup1\n      iszero\n      tag_305\n      jumpi\n      0x20\n      mul\n      dup3\n      add\n      swap2\n    tag_306:\n      dup2\n      sload\n      dup2\n      mstore\n      0x20\n      add\n      swap1\n      0x01\n      add\n      swap1\n      dup1\n      dup4\n      gt\n      tag_306\n      jumpi\n    tag_305:\n      pop\n      pop\n      pop\n      pop\n      pop\n      swap1\n      pop\n        /* \"contracts/MFI_HECO_PATCH.sol\":7689:7873  function Get_User_Stackings(address user ) public view returns(  uint[8] memory)\r... */\n      swap2\n      swap1\n      pop\n      jump\t// out\n        /* \"contracts/MFI_HECO_PATCH.sol\":6374:6550  function Resume( ) public onlyOwner{\r... */\n    tag_104:\n        /* \"contracts/MFI_HECO_PATCH.sol\":2617:2622  owner */\n      0x00\n      dup1\n      sload\n      swap1\n      0x0100\n      exp\n      swap1\n      div\n      0xffffffffffffffffffffffffffffffffffffffff\n      and\n        /* \"contracts/MFI_HECO_PATCH.sol\":2603:2622  msg.sender == owner */\n      0xffffffffffffffffffffffffffffffffffffffff\n      and\n        /* \"contracts/MFI_HECO_PATCH.sol\":2603:2613  msg.sender */\n      caller\n        /* \"contracts/MFI_HECO_PATCH.sol\":2603:2622  msg.sender == owner */\n      0xffffffffffffffffffffffffffffffffffffffff\n      and\n      eq\n        /* \"contracts/MFI_HECO_PATCH.sol\":2595:2623  require(msg.sender == owner) */\n      tag_308\n      jumpi\n      0x00\n      dup1\n      revert\n    tag_308:\n        /* \"contracts/MFI_HECO_PATCH.sol\":6432:6437  false */\n      0x00\n        /* \"contracts/MFI_HECO_PATCH.sol\":6419:6431  m_Game_Pause */\n      0x24\n      0x00\n        /* \"contracts/MFI_HECO_PATCH.sol\":6419:6437  m_Game_Pause=false */\n      0x0100\n      exp\n      dup2\n      sload\n      dup2\n      0xff\n      mul\n      not\n      and\n      swap1\n      dup4\n      iszero\n      iszero\n      mul\n      or\n      swap1\n      sstore\n      pop\n        /* \"contracts/MFI_HECO_PATCH.sol\":6476:6542  0xFFFFFFFFFFFFFFFFFFFFFFFFFFFFFFFFFFFFFFFFFFFFFFFFFFFFFFFFFFFFFFFF */\n      0xffffffffffffffffffffffffffffffffffffffffffffffffffffffffffffffff\n        /* \"contracts/MFI_HECO_PATCH.sol\":6447:6475  m_Stacking_Block_Number_Stop */\n      0x17\n        /* \"contracts/MFI_HECO_PATCH.sol\":6447:6542  m_Stacking_Block_Number_Stop=0xFFFFFFFFFFFFFFFFFFFFFFFFFFFFFFFFFFFFFFFFFFFFFFFFFFFFFFFFFFFFFFFF */\n      dup2\n      swap1\n      sstore\n      pop\n        /* \"contracts/MFI_HECO_PATCH.sol\":6374:6550  function Resume( ) public onlyOwner{\r... */\n      jump\t// out\n        /* \"contracts/MFI_HECO_PATCH.sol\":21281:21443  function Take_Token(address token_address,uint token_amount) public onlyOwner{\r... */\n    tag_108:\n        /* \"contracts/MFI_HECO_PATCH.sol\":2617:2622  owner */\n      0x00\n      dup1\n      sload\n      swap1\n      0x0100\n      exp\n      swap1\n      div\n      0xffffffffffffffffffffffffffffffffffffffff\n      and\n        /* \"contracts/MFI_HECO_PATCH.sol\":2603:2622  msg.sender == owner */\n      0xffffffffffffffffffffffffffffffffffffffff\n      and\n        /* \"contracts/MFI_HECO_PATCH.sol\":2603:2613  msg.sender */\n      caller\n        /* \"contracts/MFI_HECO_PATCH.sol\":2603:2622  msg.sender == owner */\n      0xffffffffffffffffffffffffffffffffffffffff\n      and\n      eq\n        /* \"contracts/MFI_HECO_PATCH.sol\":2595:2623  require(msg.sender == owner) */\n      tag_311\n      jumpi\n      0x00\n      dup1\n      revert\n    tag_311:\n        /* \"contracts/MFI_HECO_PATCH.sol\":21387:21400  token_address */\n      dup2\n        /* \"contracts/MFI_HECO_PATCH.sol\":21372:21410  ERC20Interface(token_address).transfer */\n      0xffffffffffffffffffffffffffffffffffffffff\n      and\n      0xa9059cbb\n        /* \"contracts/MFI_HECO_PATCH.sol\":21411:21421  msg.sender */\n      caller\n        /* \"contracts/MFI_HECO_PATCH.sol\":21422:21434  token_amount */\n      dup4\n        /* \"contracts/MFI_HECO_PATCH.sol\":21372:21435  ERC20Interface(token_address).transfer(msg.sender,token_amount) */\n      mload(0x40)\n      dup4\n      0xffffffff\n      and\n      0xe0\n      shl\n      dup2\n      mstore\n      0x04\n      add\n      dup1\n      dup4\n      0xffffffffffffffffffffffffffffffffffffffff\n      and\n      dup2\n      mstore\n      0x20\n      add\n      dup3\n      dup2\n      mstore\n      0x20\n      add\n      swap3\n      pop\n      pop\n      pop\n      0x20\n      mload(0x40)\n      dup1\n      dup4\n      sub\n      dup2\n      0x00\n      dup8\n      dup1\n      extcodesize\n      iszero\n      dup1\n      iszero\n      tag_313\n      jumpi\n      0x00\n      dup1\n      revert\n    tag_313:\n      pop\n      gas\n      call\n      iszero\n      dup1\n      iszero\n      tag_315\n      jumpi\n      returndatasize\n      0x00\n      dup1\n      returndatacopy\n      revert(0x00, returndatasize)\n    tag_315:\n      pop\n      pop\n      pop\n      pop\n      mload(0x40)\n      returndatasize\n      0x20\n      dup2\n      lt\n      iszero\n      tag_316\n      jumpi\n      0x00\n      dup1\n      revert\n    tag_316:\n      dup2\n      add\n      swap1\n      dup1\n      dup1\n      mload\n      swap1\n      0x20\n      add\n      swap1\n      swap3\n      swap2\n      swap1\n      pop\n      pop\n      pop\n      pop\n        /* \"contracts/MFI_HECO_PATCH.sol\":21281:21443  function Take_Token(address token_address,uint token_amount) public onlyOwner{\r... */\n      pop\n      pop\n      jump\t// out\n        /* \"contracts/MFI_HECO_PATCH.sol\":3806:3856  uint256 [8] public m_Block_weight_of_Stack_Options */\n    tag_112:\n      0x02\n      dup2\n      0x08\n      dup2\n      lt\n      tag_317\n      jumpi\n      invalid\n    tag_317:\n      add\n      0x00\n      swap2\n      pop\n      swap1\n      pop\n      sload\n      dup2\n      jump\t// out\n        /* \"contracts/MFI_HECO_PATCH.sol\":3921:3969  uint256 [8] public m_Block_Span_of_Stack_Options */\n    tag_116:\n      0x0b\n      dup2\n      0x08\n      dup2\n      lt\n      tag_319\n      jumpi\n      invalid\n    tag_319:\n      add\n      0x00\n      swap2\n      pop\n      swap1\n      pop\n      sload\n      dup2\n      jump\t// out\n        /* \"contracts/MFI_HECO_PATCH.sol\":8291:8465  function Get_Game_Info() public view returns(uint256,uint256,uint256 )\r... */\n    tag_119:\n        /* \"contracts/MFI_HECO_PATCH.sol\":8336:8343  uint256 */\n      0x00\n        /* \"contracts/MFI_HECO_PATCH.sol\":8344:8351  uint256 */\n      dup1\n        /* \"contracts/MFI_HECO_PATCH.sol\":8352:8359  uint256 */\n      0x00\n        /* \"contracts/MFI_HECO_PATCH.sol\":8399:8415  m_Total_Stacking */\n      sload(0x18)\n        /* \"contracts/MFI_HECO_PATCH.sol\":8416:8428  m_User_Count */\n      sload(0x19)\n        /* \"contracts/MFI_HECO_PATCH.sol\":8429:8446  m_Punishment_Span */\n      sload(0x25)\n        /* \"contracts/MFI_HECO_PATCH.sol\":8378:8457  return(\r... */\n      swap3\n      pop\n      swap3\n      pop\n      swap3\n      pop\n        /* \"contracts/MFI_HECO_PATCH.sol\":8291:8465  function Get_Game_Info() public view returns(uint256,uint256,uint256 )\r... */\n      swap1\n      swap2\n      swap3\n      jump\t// out\n        /* \"contracts/MFI_HECO_PATCH.sol\":4375:4415  uint public m_Stacking_Block_Number_Stop */\n    tag_122:\n      sload(0x17)\n      dup2\n      jump\t// out\n        /* \"contracts/MFI_HECO_PATCH.sol\":5332:5375  mapping(address => User) public  m_User_Map */\n    tag_126:\n      mstore(0x20, 0x26)\n      dup1\n      0x00\n      mstore\n      keccak256(0x00, 0x40)\n      0x00\n      swap2\n      pop\n      swap1\n      pop\n      dup1\n      0x00\n      add\n      0x00\n      swap1\n      sload\n      swap1\n      0x0100\n      exp\n      swap1\n      div\n      0xff\n      and\n      swap1\n      dup1\n      0x00\n      add\n      0x01\n      swap1\n      sload\n      swap1\n      0x0100\n      exp\n      swap1\n      div\n      0xffffffffffffffffffffffffffffffffffffffff\n      and\n      swap1\n      dup1\n      0x01\n      add\n      0x00\n      swap1\n      sload\n      swap1\n      0x0100\n      exp\n      swap1\n      div\n      0xffffffffffffffffffffffffffffffffffffffff\n      and\n      swap1\n      dup1\n      0x02\n      add\n      sload\n      swap1\n      dup1\n      0x0b\n      add\n      sload\n      swap1\n      dup1\n      0x0c\n      add\n      sload\n      swap1\n      pop\n      dup7\n      jump\t// out\n        /* \"contracts/MFI_HECO_PATCH.sol\":4041:4073  address public m_Updater_Address */\n    tag_129:\n      0x13\n      0x00\n      swap1\n      sload\n      swap1\n      0x0100\n      exp\n      swap1\n      div\n      0xffffffffffffffffffffffffffffffffffffffff\n      and\n      dup2\n      jump\t// out\n        /* \"contracts/MFI_HECO_PATCH.sol\":6883:7169  function Stop_At(uint block_number) public onlyOwner{\r... */\n    tag_133:\n        /* \"contracts/MFI_HECO_PATCH.sol\":2617:2622  owner */\n      0x00\n      dup1\n      sload\n      swap1\n      0x0100\n      exp\n      swap1\n      div\n      0xffffffffffffffffffffffffffffffffffffffff\n      and\n        /* \"contracts/MFI_HECO_PATCH.sol\":2603:2622  msg.sender == owner */\n      0xffffffffffffffffffffffffffffffffffffffff\n      and\n        /* \"contracts/MFI_HECO_PATCH.sol\":2603:2613  msg.sender */\n      caller\n        /* \"contracts/MFI_HECO_PATCH.sol\":2603:2622  msg.sender == owner */\n      0xffffffffffffffffffffffffffffffffffffffff\n      and\n      eq\n        /* \"contracts/MFI_HECO_PATCH.sol\":2595:2623  require(msg.sender == owner) */\n      tag_323\n      jumpi\n      0x00\n      dup1\n      revert\n    tag_323:\n        /* \"contracts/MFI_HECO_PATCH.sol\":6963:6964  0 */\n      0x00\n        /* \"contracts/MFI_HECO_PATCH.sol\":6949:6961  block_number */\n      dup2\n        /* \"contracts/MFI_HECO_PATCH.sol\":6949:6964  block_number==0 */\n      eq\n        /* \"contracts/MFI_HECO_PATCH.sol\":6946:7162  if(block_number==0)\r... */\n      iszero\n      tag_325\n      jumpi\n        /* \"contracts/MFI_HECO_PATCH.sol\":6990:7001  uint number */\n      0x00\n        /* \"contracts/MFI_HECO_PATCH.sol\":7004:7016  block.number */\n      number\n        /* \"contracts/MFI_HECO_PATCH.sol\":6990:7016  uint number = block.number */\n      swap1\n      pop\n        /* \"contracts/MFI_HECO_PATCH.sol\":7061:7067  number */\n      dup1\n        /* \"contracts/MFI_HECO_PATCH.sol\":7032:7060  m_Stacking_Block_Number_Stop */\n      0x17\n        /* \"contracts/MFI_HECO_PATCH.sol\":7032:7067  m_Stacking_Block_Number_Stop=number */\n      dup2\n      swap1\n      sstore\n      pop\n        /* \"contracts/MFI_HECO_PATCH.sol\":6946:7162  if(block_number==0)\r... */\n      pop\n      jump(tag_326)\n    tag_325:\n        /* \"contracts/MFI_HECO_PATCH.sol\":7138:7150  block_number */\n      dup1\n        /* \"contracts/MFI_HECO_PATCH.sol\":7109:7137  m_Stacking_Block_Number_Stop */\n      0x17\n        /* \"contracts/MFI_HECO_PATCH.sol\":7109:7150  m_Stacking_Block_Number_Stop=block_number */\n      dup2\n      swap1\n      sstore\n      pop\n        /* \"contracts/MFI_HECO_PATCH.sol\":6946:7162  if(block_number==0)\r... */\n    tag_326:\n        /* \"contracts/MFI_HECO_PATCH.sol\":6883:7169  function Stop_At(uint block_number) public onlyOwner{\r... */\n      pop\n      jump\t// out\n        /* \"contracts/MFI_HECO_PATCH.sol\":6248:6368  function Pause( ) public onlyOwner{\r... */\n    tag_136:\n        /* \"contracts/MFI_HECO_PATCH.sol\":2617:2622  owner */\n      0x00\n      dup1\n      sload\n      swap1\n      0x0100\n      exp\n      swap1\n      div\n      0xffffffffffffffffffffffffffffffffffffffff\n      and\n        /* \"contracts/MFI_HECO_PATCH.sol\":2603:2622  msg.sender == owner */\n      0xffffffffffffffffffffffffffffffffffffffff\n      and\n        /* \"contracts/MFI_HECO_PATCH.sol\":2603:2613  msg.sender */\n      caller\n        /* \"contracts/MFI_HECO_PATCH.sol\":2603:2622  msg.sender == owner */\n      0xffffffffffffffffffffffffffffffffffffffff\n      and\n      eq\n        /* \"contracts/MFI_HECO_PATCH.sol\":2595:2623  require(msg.sender == owner) */\n      tag_328\n      jumpi\n      0x00\n      dup1\n      revert\n    tag_328:\n        /* \"contracts/MFI_HECO_PATCH.sol\":6305:6309  true */\n      0x01\n        /* \"contracts/MFI_HECO_PATCH.sol\":6292:6304  m_Game_Pause */\n      0x24\n      0x00\n        /* \"contracts/MFI_HECO_PATCH.sol\":6292:6309  m_Game_Pause=true */\n      0x0100\n      exp\n      dup2\n      sload\n      dup2\n      0xff\n      mul\n      not\n      and\n      swap1\n      dup4\n      iszero\n      iszero\n      mul\n      or\n      swap1\n      sstore\n      pop\n        /* \"contracts/MFI_HECO_PATCH.sol\":6348:6360  block.number */\n      number\n        /* \"contracts/MFI_HECO_PATCH.sol\":6319:6347  m_Stacking_Block_Number_Stop */\n      0x17\n        /* \"contracts/MFI_HECO_PATCH.sol\":6319:6360  m_Stacking_Block_Number_Stop=block.number */\n      dup2\n      swap1\n      sstore\n      pop\n        /* \"contracts/MFI_HECO_PATCH.sol\":6248:6368  function Pause( ) public onlyOwner{\r... */\n      jump\t// out\n        /* \"contracts/MFI_HECO_PATCH.sol\":13833:17001  function Do_Unstacking(uint period_id ,uint stacking_amount) public  OnlyRegistered   returns(bool)  {\r... */\n    tag_140:\n        /* \"contracts/MFI_HECO_PATCH.sol\":13927:13931  bool */\n      0x00\n        /* \"contracts/MFI_HECO_PATCH.sol\":5301:5305  true */\n      0x01\n        /* \"contracts/MFI_HECO_PATCH.sol\":5266:5305  m_User_Map[msg.sender].Registered==true */\n      iszero\n      iszero\n        /* \"contracts/MFI_HECO_PATCH.sol\":5266:5276  m_User_Map */\n      0x26\n        /* \"contracts/MFI_HECO_PATCH.sol\":5266:5288  m_User_Map[msg.sender] */\n      0x00\n        /* \"contracts/MFI_HECO_PATCH.sol\":5277:5287  msg.sender */\n      caller\n        /* \"contracts/MFI_HECO_PATCH.sol\":5266:5288  m_User_Map[msg.sender] */\n      0xffffffffffffffffffffffffffffffffffffffff\n      and\n      0xffffffffffffffffffffffffffffffffffffffff\n      and\n      dup2\n      mstore\n      0x20\n      add\n      swap1\n      dup2\n      mstore\n      0x20\n      add\n      0x00\n      keccak256\n        /* \"contracts/MFI_HECO_PATCH.sol\":5266:5299  m_User_Map[msg.sender].Registered */\n      0x00\n      add\n      0x00\n      swap1\n      sload\n      swap1\n      0x0100\n      exp\n      swap1\n      div\n      0xff\n      and\n        /* \"contracts/MFI_HECO_PATCH.sol\":5266:5305  m_User_Map[msg.sender].Registered==true */\n      iszero\n      iszero\n      eq\n        /* \"contracts/MFI_HECO_PATCH.sol\":5258:5306  require(m_User_Map[msg.sender].Registered==true) */\n      tag_331\n      jumpi\n      0x00\n      dup1\n      revert\n    tag_331:\n        /* \"contracts/MFI_HECO_PATCH.sol\":13963:13970  uint bn */\n      0x00\n        /* \"contracts/MFI_HECO_PATCH.sol\":13971:13983  block.number */\n      number\n        /* \"contracts/MFI_HECO_PATCH.sol\":13963:13983  uint bn=block.number */\n      swap1\n      pop\n        /* \"contracts/MFI_HECO_PATCH.sol\":13998:14016  uint256 block_span */\n      0x00\n        /* \"contracts/MFI_HECO_PATCH.sol\":14017:14078  bn.sub(m_User_Map[msg.sender].Block_of_Last_Stack[period_id]) */\n      tag_333\n        /* \"contracts/MFI_HECO_PATCH.sol\":14024:14034  m_User_Map */\n      0x26\n        /* \"contracts/MFI_HECO_PATCH.sol\":14024:14046  m_User_Map[msg.sender] */\n      0x00\n        /* \"contracts/MFI_HECO_PATCH.sol\":14035:14045  msg.sender */\n      caller\n        /* \"contracts/MFI_HECO_PATCH.sol\":14024:14046  m_User_Map[msg.sender] */\n      0xffffffffffffffffffffffffffffffffffffffff\n      and\n      0xffffffffffffffffffffffffffffffffffffffff\n      and\n      dup2\n      mstore\n      0x20\n      add\n      swap1\n      dup2\n      mstore\n      0x20\n      add\n      0x00\n      keccak256\n        /* \"contracts/MFI_HECO_PATCH.sol\":14024:14066  m_User_Map[msg.sender].Block_of_Last_Stack */\n      0x25\n      add\n        /* \"contracts/MFI_HECO_PATCH.sol\":14067:14076  period_id */\n      dup7\n        /* \"contracts/MFI_HECO_PATCH.sol\":14024:14077  m_User_Map[msg.sender].Block_of_Last_Stack[period_id] */\n      0x08\n      dup2\n      lt\n      tag_334\n      jumpi\n      invalid\n    tag_334:\n      add\n      sload\n        /* \"contracts/MFI_HECO_PATCH.sol\":14017:14019  bn */\n      dup4\n        /* \"contracts/MFI_HECO_PATCH.sol\":14017:14023  bn.sub */\n      tag_266\n      swap1\n        /* \"contracts/MFI_HECO_PATCH.sol\":14017:14078  bn.sub(m_User_Map[msg.sender].Block_of_Last_Stack[period_id]) */\n      swap2\n      swap1\n      0xffffffff\n      and\n      jump\t// in\n    tag_333:\n        /* \"contracts/MFI_HECO_PATCH.sol\":13998:14078  uint256 block_span=bn.sub(m_User_Map[msg.sender].Block_of_Last_Stack[period_id]) */\n      swap1\n      pop\n        /* \"contracts/MFI_HECO_PATCH.sol\":14114:14143  m_Block_Span_of_Stack_Options */\n      0x0b\n        /* \"contracts/MFI_HECO_PATCH.sol\":14144:14153  period_id */\n      dup6\n        /* \"contracts/MFI_HECO_PATCH.sol\":14114:14154  m_Block_Span_of_Stack_Options[period_id] */\n      0x08\n      dup2\n      lt\n      tag_336\n      jumpi\n      invalid\n    tag_336:\n      add\n      sload\n        /* \"contracts/MFI_HECO_PATCH.sol\":14101:14111  block_span */\n      dup2\n        /* \"contracts/MFI_HECO_PATCH.sol\":14101:14154  block_span>= m_Block_Span_of_Stack_Options[period_id] */\n      lt\n      iszero\n        /* \"contracts/MFI_HECO_PATCH.sol\":14093:14155  require(block_span>= m_Block_Span_of_Stack_Options[period_id]) */\n      tag_338\n      jumpi\n      0x00\n      dup1\n      revert\n    tag_338:\n        /* \"contracts/MFI_HECO_PATCH.sol\":14260:14275  stacking_amount */\n      dup4\n        /* \"contracts/MFI_HECO_PATCH.sol\":14208:14218  m_User_Map */\n      0x26\n        /* \"contracts/MFI_HECO_PATCH.sol\":14208:14230  m_User_Map[msg.sender] */\n      0x00\n        /* \"contracts/MFI_HECO_PATCH.sol\":14219:14229  msg.sender */\n      caller\n        /* \"contracts/MFI_HECO_PATCH.sol\":14208:14230  m_User_Map[msg.sender] */\n      0xffffffffffffffffffffffffffffffffffffffff\n      and\n      0xffffffffffffffffffffffffffffffffffffffff\n      and\n      dup2\n      mstore\n      0x20\n      add\n      swap1\n      dup2\n      mstore\n      0x20\n      add\n      0x00\n      keccak256\n        /* \"contracts/MFI_HECO_PATCH.sol\":14208:14247  m_User_Map[msg.sender].Stacking_Amounts */\n      0x1d\n      add\n        /* \"contracts/MFI_HECO_PATCH.sol\":14248:14257  period_id */\n      dup7\n        /* \"contracts/MFI_HECO_PATCH.sol\":14208:14258  m_User_Map[msg.sender].Stacking_Amounts[period_id] */\n      0x08\n      dup2\n      lt\n      tag_339\n      jumpi\n      invalid\n    tag_339:\n      add\n      sload\n        /* \"contracts/MFI_HECO_PATCH.sol\":14208:14275  m_User_Map[msg.sender].Stacking_Amounts[period_id]>=stacking_amount */\n      lt\n      iszero\n        /* \"contracts/MFI_HECO_PATCH.sol\":14199:14276  require( m_User_Map[msg.sender].Stacking_Amounts[period_id]>=stacking_amount) */\n      tag_341\n      jumpi\n      0x00\n      dup1\n      revert\n    tag_341:\n        /* \"contracts/MFI_HECO_PATCH.sol\":14305:14325  Update_Global_Data() */\n      tag_342\n        /* \"contracts/MFI_HECO_PATCH.sol\":14305:14323  Update_Global_Data */\n      tag_292\n        /* \"contracts/MFI_HECO_PATCH.sol\":14305:14325  Update_Global_Data() */\n      jump\t// in\n    tag_342:\n        /* \"contracts/MFI_HECO_PATCH.sol\":14340:14363  Update_User(msg.sender) */\n      tag_343\n        /* \"contracts/MFI_HECO_PATCH.sol\":14352:14362  msg.sender */\n      caller\n        /* \"contracts/MFI_HECO_PATCH.sol\":14340:14351  Update_User */\n      tag_294\n        /* \"contracts/MFI_HECO_PATCH.sol\":14340:14363  Update_User(msg.sender) */\n      jump\t// in\n    tag_343:\n        /* \"contracts/MFI_HECO_PATCH.sol\":14378:14405  uint256 old_stacking_amount */\n      0x00\n        /* \"contracts/MFI_HECO_PATCH.sol\":14406:14416  m_User_Map */\n      0x26\n        /* \"contracts/MFI_HECO_PATCH.sol\":14406:14428  m_User_Map[msg.sender] */\n      0x00\n        /* \"contracts/MFI_HECO_PATCH.sol\":14417:14427  msg.sender */\n      caller\n        /* \"contracts/MFI_HECO_PATCH.sol\":14406:14428  m_User_Map[msg.sender] */\n      0xffffffffffffffffffffffffffffffffffffffff\n      and\n      0xffffffffffffffffffffffffffffffffffffffff\n      and\n      dup2\n      mstore\n      0x20\n      add\n      swap1\n      dup2\n      mstore\n      0x20\n      add\n      0x00\n      keccak256\n        /* \"contracts/MFI_HECO_PATCH.sol\":14406:14444  m_User_Map[msg.sender].Stacking_Amount */\n      0x02\n      add\n      sload\n        /* \"contracts/MFI_HECO_PATCH.sol\":14378:14444  uint256 old_stacking_amount=m_User_Map[msg.sender].Stacking_Amount */\n      swap1\n      pop\n        /* \"contracts/MFI_HECO_PATCH.sol\":14459:14467  bool res */\n      0x00\n        /* \"contracts/MFI_HECO_PATCH.sol\":14507:14525  m_Stacking_Address */\n      0x14\n      0x00\n      swap1\n      sload\n      swap1\n      0x0100\n      exp\n      swap1\n      div\n      0xffffffffffffffffffffffffffffffffffffffff\n      and\n        /* \"contracts/MFI_HECO_PATCH.sol\":14492:14535  ERC20Interface(m_Stacking_Address).transfer */\n      0xffffffffffffffffffffffffffffffffffffffff\n      and\n      0xa9059cbb\n        /* \"contracts/MFI_HECO_PATCH.sol\":14536:14546  msg.sender */\n      caller\n        /* \"contracts/MFI_HECO_PATCH.sol\":14547:14562  stacking_amount */\n      dup9\n        /* \"contracts/MFI_HECO_PATCH.sol\":14492:14563  ERC20Interface(m_Stacking_Address).transfer(msg.sender,stacking_amount) */\n      mload(0x40)\n      dup4\n      0xffffffff\n      and\n      0xe0\n      shl\n      dup2\n      mstore\n      0x04\n      add\n      dup1\n      dup4\n      0xffffffffffffffffffffffffffffffffffffffff\n      and\n      dup2\n      mstore\n      0x20\n      add\n      dup3\n      dup2\n      mstore\n      0x20\n      add\n      swap3\n      pop\n      pop\n      pop\n      0x20\n      mload(0x40)\n      dup1\n      dup4\n      sub\n      dup2\n      0x00\n      dup8\n      dup1\n      extcodesize\n      iszero\n      dup1\n      iszero\n      tag_344\n      jumpi\n      0x00\n      dup1\n      revert\n    tag_344:\n      pop\n      gas\n      call\n      iszero\n      dup1\n      iszero\n      tag_346\n      jumpi\n      returndatasize\n      0x00\n      dup1\n      returndatacopy\n      revert(0x00, returndatasize)\n    tag_346:\n      pop\n      pop\n      pop\n      pop\n      mload(0x40)\n      returndatasize\n      0x20\n      dup2\n      lt\n      iszero\n      tag_347\n      jumpi\n      0x00\n      dup1\n      revert\n    tag_347:\n      dup2\n      add\n      swap1\n      dup1\n      dup1\n      mload\n      swap1\n      0x20\n      add\n      swap1\n      swap3\n      swap2\n      swap1\n      pop\n      pop\n      pop\n        /* \"contracts/MFI_HECO_PATCH.sol\":14488:14563  res=ERC20Interface(m_Stacking_Address).transfer(msg.sender,stacking_amount) */\n      swap1\n      pop\n        /* \"contracts/MFI_HECO_PATCH.sol\":14587:14592  false */\n      0x00\n        /* \"contracts/MFI_HECO_PATCH.sol\":14581:14592  res ==false */\n      iszero\n      iszero\n        /* \"contracts/MFI_HECO_PATCH.sol\":14581:14584  res */\n      dup2\n        /* \"contracts/MFI_HECO_PATCH.sol\":14581:14592  res ==false */\n      iszero\n      iszero\n      eq\n        /* \"contracts/MFI_HECO_PATCH.sol\":14578:14651  if(res ==false)\r... */\n      iszero\n      tag_348\n      jumpi\n        /* \"contracts/MFI_HECO_PATCH.sol\":14627:14635  revert() */\n      0x00\n      dup1\n      revert\n        /* \"contracts/MFI_HECO_PATCH.sol\":14578:14651  if(res ==false)\r... */\n    tag_348:\n        /* \"contracts/MFI_HECO_PATCH.sol\":14716:14787  m_User_Map[msg.sender].Stacking_Amounts[period_id].sub(stacking_amount) */\n      tag_349\n        /* \"contracts/MFI_HECO_PATCH.sol\":14771:14786  stacking_amount */\n      dup7\n        /* \"contracts/MFI_HECO_PATCH.sol\":14716:14726  m_User_Map */\n      0x26\n        /* \"contracts/MFI_HECO_PATCH.sol\":14716:14738  m_User_Map[msg.sender] */\n      0x00\n        /* \"contracts/MFI_HECO_PATCH.sol\":14727:14737  msg.sender */\n      caller\n        /* \"contracts/MFI_HECO_PATCH.sol\":14716:14738  m_User_Map[msg.sender] */\n      0xffffffffffffffffffffffffffffffffffffffff\n      and\n      0xffffffffffffffffffffffffffffffffffffffff\n      and\n      dup2\n      mstore\n      0x20\n      add\n      swap1\n      dup2\n      mstore\n      0x20\n      add\n      0x00\n      keccak256\n        /* \"contracts/MFI_HECO_PATCH.sol\":14716:14755  m_User_Map[msg.sender].Stacking_Amounts */\n      0x1d\n      add\n        /* \"contracts/MFI_HECO_PATCH.sol\":14756:14765  period_id */\n      dup10\n        /* \"contracts/MFI_HECO_PATCH.sol\":14716:14766  m_User_Map[msg.sender].Stacking_Amounts[period_id] */\n      0x08\n      dup2\n      lt\n      tag_350\n      jumpi\n      invalid\n    tag_350:\n      add\n      sload\n        /* \"contracts/MFI_HECO_PATCH.sol\":14716:14770  m_User_Map[msg.sender].Stacking_Amounts[period_id].sub */\n      tag_266\n      swap1\n        /* \"contracts/MFI_HECO_PATCH.sol\":14716:14787  m_User_Map[msg.sender].Stacking_Amounts[period_id].sub(stacking_amount) */\n      swap2\n      swap1\n      0xffffffff\n      and\n      jump\t// in\n    tag_349:\n        /* \"contracts/MFI_HECO_PATCH.sol\":14665:14675  m_User_Map */\n      0x26\n        /* \"contracts/MFI_HECO_PATCH.sol\":14665:14687  m_User_Map[msg.sender] */\n      0x00\n        /* \"contracts/MFI_HECO_PATCH.sol\":14676:14686  msg.sender */\n      caller\n        /* \"contracts/MFI_HECO_PATCH.sol\":14665:14687  m_User_Map[msg.sender] */\n      0xffffffffffffffffffffffffffffffffffffffff\n      and\n      0xffffffffffffffffffffffffffffffffffffffff\n      and\n      dup2\n      mstore\n      0x20\n      add\n      swap1\n      dup2\n      mstore\n      0x20\n      add\n      0x00\n      keccak256\n        /* \"contracts/MFI_HECO_PATCH.sol\":14665:14704  m_User_Map[msg.sender].Stacking_Amounts */\n      0x1d\n      add\n        /* \"contracts/MFI_HECO_PATCH.sol\":14705:14714  period_id */\n      dup9\n        /* \"contracts/MFI_HECO_PATCH.sol\":14665:14715  m_User_Map[msg.sender].Stacking_Amounts[period_id] */\n      0x08\n      dup2\n      lt\n      tag_352\n      jumpi\n      invalid\n    tag_352:\n      add\n        /* \"contracts/MFI_HECO_PATCH.sol\":14665:14787  m_User_Map[msg.sender].Stacking_Amounts[period_id]=m_User_Map[msg.sender].Stacking_Amounts[period_id].sub(stacking_amount) */\n      dup2\n      swap1\n      sstore\n      pop\n        /* \"contracts/MFI_HECO_PATCH.sol\":14819:14856  m_Total_Stacking.sub(stacking_amount) */\n      tag_354\n        /* \"contracts/MFI_HECO_PATCH.sol\":14840:14855  stacking_amount */\n      dup7\n        /* \"contracts/MFI_HECO_PATCH.sol\":14819:14835  m_Total_Stacking */\n      sload(0x18)\n        /* \"contracts/MFI_HECO_PATCH.sol\":14819:14839  m_Total_Stacking.sub */\n      tag_266\n      swap1\n        /* \"contracts/MFI_HECO_PATCH.sol\":14819:14856  m_Total_Stacking.sub(stacking_amount) */\n      swap2\n      swap1\n      0xffffffff\n      and\n      jump\t// in\n    tag_354:\n        /* \"contracts/MFI_HECO_PATCH.sol\":14802:14818  m_Total_Stacking */\n      0x18\n        /* \"contracts/MFI_HECO_PATCH.sol\":14802:14856  m_Total_Stacking=m_Total_Stacking.sub(stacking_amount) */\n      dup2\n      swap1\n      sstore\n      pop\n        /* \"contracts/MFI_HECO_PATCH.sol\":15068:15091  address referer_address */\n      0x00\n        /* \"contracts/MFI_HECO_PATCH.sol\":15092:15121  GetRefererAddress(msg.sender) */\n      tag_355\n        /* \"contracts/MFI_HECO_PATCH.sol\":15110:15120  msg.sender */\n      caller\n        /* \"contracts/MFI_HECO_PATCH.sol\":15092:15109  GetRefererAddress */\n      tag_356\n        /* \"contracts/MFI_HECO_PATCH.sol\":15092:15121  GetRefererAddress(msg.sender) */\n      jump\t// in\n    tag_355:\n        /* \"contracts/MFI_HECO_PATCH.sol\":15068:15121  address referer_address=GetRefererAddress(msg.sender) */\n      swap1\n      pop\n        /* \"contracts/MFI_HECO_PATCH.sol\":15165:15166  0 */\n      0x00\n        /* \"contracts/MFI_HECO_PATCH.sol\":15140:15167  referer_address!=address(0) */\n      0xffffffffffffffffffffffffffffffffffffffff\n      and\n        /* \"contracts/MFI_HECO_PATCH.sol\":15140:15155  referer_address */\n      dup2\n        /* \"contracts/MFI_HECO_PATCH.sol\":15140:15167  referer_address!=address(0) */\n      0xffffffffffffffffffffffffffffffffffffffff\n      and\n      eq\n      iszero\n        /* \"contracts/MFI_HECO_PATCH.sol\":15140:15215  referer_address!=address(0) && m_User_Map[referer_address].Registered==true */\n      dup1\n      iszero\n      tag_357\n      jumpi\n      pop\n        /* \"contracts/MFI_HECO_PATCH.sol\":15211:15215  true */\n      0x01\n        /* \"contracts/MFI_HECO_PATCH.sol\":15171:15215  m_User_Map[referer_address].Registered==true */\n      iszero\n      iszero\n        /* \"contracts/MFI_HECO_PATCH.sol\":15171:15181  m_User_Map */\n      0x26\n        /* \"contracts/MFI_HECO_PATCH.sol\":15171:15198  m_User_Map[referer_address] */\n      0x00\n        /* \"contracts/MFI_HECO_PATCH.sol\":15182:15197  referer_address */\n      dup4\n        /* \"contracts/MFI_HECO_PATCH.sol\":15171:15198  m_User_Map[referer_address] */\n      0xffffffffffffffffffffffffffffffffffffffff\n      and\n      0xffffffffffffffffffffffffffffffffffffffff\n      and\n      dup2\n      mstore\n      0x20\n      add\n      swap1\n      dup2\n      mstore\n      0x20\n      add\n      0x00\n      keccak256\n        /* \"contracts/MFI_HECO_PATCH.sol\":15171:15209  m_User_Map[referer_address].Registered */\n      0x00\n      add\n      0x00\n      swap1\n      sload\n      swap1\n      0x0100\n      exp\n      swap1\n      div\n      0xff\n      and\n        /* \"contracts/MFI_HECO_PATCH.sol\":15171:15215  m_User_Map[referer_address].Registered==true */\n      iszero\n      iszero\n      eq\n        /* \"contracts/MFI_HECO_PATCH.sol\":15140:15215  referer_address!=address(0) && m_User_Map[referer_address].Registered==true */\n    tag_357:\n        /* \"contracts/MFI_HECO_PATCH.sol\":15137:15293  if(referer_address!=address(0) && m_User_Map[referer_address].Registered==true)\r... */\n      iszero\n      tag_358\n      jumpi\n        /* \"contracts/MFI_HECO_PATCH.sol\":15249:15277  Update_User(referer_address) */\n      tag_359\n        /* \"contracts/MFI_HECO_PATCH.sol\":15261:15276  referer_address */\n      dup2\n        /* \"contracts/MFI_HECO_PATCH.sol\":15249:15260  Update_User */\n      tag_294\n        /* \"contracts/MFI_HECO_PATCH.sol\":15249:15277  Update_User(referer_address) */\n      jump\t// in\n    tag_359:\n        /* \"contracts/MFI_HECO_PATCH.sol\":15137:15293  if(referer_address!=address(0) && m_User_Map[referer_address].Registered==true)\r... */\n    tag_358:\n        /* \"contracts/MFI_HECO_PATCH.sol\":15335:15336  0 */\n      0x00\n        /* \"contracts/MFI_HECO_PATCH.sol\":15310:15337  referer_address!=address(0) */\n      0xffffffffffffffffffffffffffffffffffffffff\n      and\n        /* \"contracts/MFI_HECO_PATCH.sol\":15310:15325  referer_address */\n      dup2\n        /* \"contracts/MFI_HECO_PATCH.sol\":15310:15337  referer_address!=address(0) */\n      0xffffffffffffffffffffffffffffffffffffffff\n      and\n      eq\n        /* \"contracts/MFI_HECO_PATCH.sol\":15307:15792  if(referer_address!=address(0))\r... */\n      tag_360\n      jumpi\n        /* \"contracts/MFI_HECO_PATCH.sol\":15451:15452  5 */\n      0x05\n        /* \"contracts/MFI_HECO_PATCH.sol\":15435:15450  stacking_amount */\n      dup8\n        /* \"contracts/MFI_HECO_PATCH.sol\":15435:15452  stacking_amount/5 */\n      dup2\n      tag_361\n      jumpi\n      invalid\n    tag_361:\n      div\n        /* \"contracts/MFI_HECO_PATCH.sol\":15374:15384  m_User_Map */\n      0x26\n        /* \"contracts/MFI_HECO_PATCH.sol\":15374:15401  m_User_Map[referer_address] */\n      0x00\n        /* \"contracts/MFI_HECO_PATCH.sol\":15385:15400  referer_address */\n      dup4\n        /* \"contracts/MFI_HECO_PATCH.sol\":15374:15401  m_User_Map[referer_address] */\n      0xffffffffffffffffffffffffffffffffffffffff\n      and\n      0xffffffffffffffffffffffffffffffffffffffff\n      and\n      dup2\n      mstore\n      0x20\n      add\n      swap1\n      dup2\n      mstore\n      0x20\n      add\n      0x00\n      keccak256\n        /* \"contracts/MFI_HECO_PATCH.sol\":15374:15421  m_User_Map[referer_address].Contributed_Amounts */\n      0x15\n      add\n        /* \"contracts/MFI_HECO_PATCH.sol\":15422:15431  period_id */\n      dup10\n        /* \"contracts/MFI_HECO_PATCH.sol\":15374:15432  m_User_Map[referer_address].Contributed_Amounts[period_id] */\n      0x08\n      dup2\n      lt\n      tag_362\n      jumpi\n      invalid\n    tag_362:\n      add\n      sload\n        /* \"contracts/MFI_HECO_PATCH.sol\":15374:15453  m_User_Map[referer_address].Contributed_Amounts[period_id]>=(stacking_amount/5) */\n      lt\n        /* \"contracts/MFI_HECO_PATCH.sol\":15371:15777  if(m_User_Map[referer_address].Contributed_Amounts[period_id]>=(stacking_amount/5))\r... */\n      tag_364\n      jumpi\n        /* \"contracts/MFI_HECO_PATCH.sol\":15630:15631  5 */\n      0x05\n        /* \"contracts/MFI_HECO_PATCH.sol\":15614:15629  stacking_amount */\n      dup8\n        /* \"contracts/MFI_HECO_PATCH.sol\":15614:15631  stacking_amount/5 */\n      dup2\n      tag_365\n      jumpi\n      invalid\n    tag_365:\n      div\n        /* \"contracts/MFI_HECO_PATCH.sol\":15554:15564  m_User_Map */\n      0x26\n        /* \"contracts/MFI_HECO_PATCH.sol\":15554:15581  m_User_Map[referer_address] */\n      0x00\n        /* \"contracts/MFI_HECO_PATCH.sol\":15565:15580  referer_address */\n      dup4\n        /* \"contracts/MFI_HECO_PATCH.sol\":15554:15581  m_User_Map[referer_address] */\n      0xffffffffffffffffffffffffffffffffffffffff\n      and\n      0xffffffffffffffffffffffffffffffffffffffff\n      and\n      dup2\n      mstore\n      0x20\n      add\n      swap1\n      dup2\n      mstore\n      0x20\n      add\n      0x00\n      keccak256\n        /* \"contracts/MFI_HECO_PATCH.sol\":15554:15601  m_User_Map[referer_address].Contributed_Amounts */\n      0x15\n      add\n        /* \"contracts/MFI_HECO_PATCH.sol\":15602:15611  period_id */\n      dup10\n        /* \"contracts/MFI_HECO_PATCH.sol\":15554:15612  m_User_Map[referer_address].Contributed_Amounts[period_id] */\n      0x08\n      dup2\n      lt\n      tag_366\n      jumpi\n      invalid\n    tag_366:\n      add\n      sload\n        /* \"contracts/MFI_HECO_PATCH.sol\":15554:15632  m_User_Map[referer_address].Contributed_Amounts[period_id]-(stacking_amount/5) */\n      sub\n        /* \"contracts/MFI_HECO_PATCH.sol\":15495:15505  m_User_Map */\n      0x26\n        /* \"contracts/MFI_HECO_PATCH.sol\":15495:15522  m_User_Map[referer_address] */\n      0x00\n        /* \"contracts/MFI_HECO_PATCH.sol\":15506:15521  referer_address */\n      dup4\n        /* \"contracts/MFI_HECO_PATCH.sol\":15495:15522  m_User_Map[referer_address] */\n      0xffffffffffffffffffffffffffffffffffffffff\n      and\n      0xffffffffffffffffffffffffffffffffffffffff\n      and\n      dup2\n      mstore\n      0x20\n      add\n      swap1\n      dup2\n      mstore\n      0x20\n      add\n      0x00\n      keccak256\n        /* \"contracts/MFI_HECO_PATCH.sol\":15495:15542  m_User_Map[referer_address].Contributed_Amounts */\n      0x15\n      add\n        /* \"contracts/MFI_HECO_PATCH.sol\":15543:15552  period_id */\n      dup10\n        /* \"contracts/MFI_HECO_PATCH.sol\":15495:15553  m_User_Map[referer_address].Contributed_Amounts[period_id] */\n      0x08\n      dup2\n      lt\n      tag_368\n      jumpi\n      invalid\n    tag_368:\n      add\n        /* \"contracts/MFI_HECO_PATCH.sol\":15495:15632  m_User_Map[referer_address].Contributed_Amounts[period_id]=m_User_Map[referer_address].Contributed_Amounts[period_id]-(stacking_amount/5) */\n      dup2\n      swap1\n      sstore\n      pop\n        /* \"contracts/MFI_HECO_PATCH.sol\":15371:15777  if(m_User_Map[referer_address].Contributed_Amounts[period_id]>=(stacking_amount/5))\r... */\n      jump(tag_370)\n    tag_364:\n        /* \"contracts/MFI_HECO_PATCH.sol\":15756:15757  0 */\n      0x00\n        /* \"contracts/MFI_HECO_PATCH.sol\":15697:15707  m_User_Map */\n      0x26\n        /* \"contracts/MFI_HECO_PATCH.sol\":15697:15724  m_User_Map[referer_address] */\n      0x00\n        /* \"contracts/MFI_HECO_PATCH.sol\":15708:15723  referer_address */\n      dup4\n        /* \"contracts/MFI_HECO_PATCH.sol\":15697:15724  m_User_Map[referer_address] */\n      0xffffffffffffffffffffffffffffffffffffffff\n      and\n      0xffffffffffffffffffffffffffffffffffffffff\n      and\n      dup2\n      mstore\n      0x20\n      add\n      swap1\n      dup2\n      mstore\n      0x20\n      add\n      0x00\n      keccak256\n        /* \"contracts/MFI_HECO_PATCH.sol\":15697:15744  m_User_Map[referer_address].Contributed_Amounts */\n      0x15\n      add\n        /* \"contracts/MFI_HECO_PATCH.sol\":15745:15754  period_id */\n      dup10\n        /* \"contracts/MFI_HECO_PATCH.sol\":15697:15755  m_User_Map[referer_address].Contributed_Amounts[period_id] */\n      0x08\n      dup2\n      lt\n      tag_371\n      jumpi\n      invalid\n    tag_371:\n      add\n        /* \"contracts/MFI_HECO_PATCH.sol\":15697:15757  m_User_Map[referer_address].Contributed_Amounts[period_id]=0 */\n      dup2\n      swap1\n      sstore\n      pop\n        /* \"contracts/MFI_HECO_PATCH.sol\":15371:15777  if(m_User_Map[referer_address].Contributed_Amounts[period_id]>=(stacking_amount/5))\r... */\n    tag_370:\n        /* \"contracts/MFI_HECO_PATCH.sol\":15307:15792  if(referer_address!=address(0))\r... */\n    tag_360:\n        /* \"contracts/MFI_HECO_PATCH.sol\":16006:16040  GetRefererAddress(referer_address) */\n      tag_373\n        /* \"contracts/MFI_HECO_PATCH.sol\":16024:16039  referer_address */\n      dup2\n        /* \"contracts/MFI_HECO_PATCH.sol\":16006:16023  GetRefererAddress */\n      tag_356\n        /* \"contracts/MFI_HECO_PATCH.sol\":16006:16040  GetRefererAddress(referer_address) */\n      jump\t// in\n    tag_373:\n        /* \"contracts/MFI_HECO_PATCH.sol\":15990:16040  referer_address=GetRefererAddress(referer_address) */\n      swap1\n      pop\n        /* \"contracts/MFI_HECO_PATCH.sol\":16084:16085  0 */\n      0x00\n        /* \"contracts/MFI_HECO_PATCH.sol\":16059:16086  referer_address!=address(0) */\n      0xffffffffffffffffffffffffffffffffffffffff\n      and\n        /* \"contracts/MFI_HECO_PATCH.sol\":16059:16074  referer_address */\n      dup2\n        /* \"contracts/MFI_HECO_PATCH.sol\":16059:16086  referer_address!=address(0) */\n      0xffffffffffffffffffffffffffffffffffffffff\n      and\n      eq\n      iszero\n        /* \"contracts/MFI_HECO_PATCH.sol\":16059:16134  referer_address!=address(0) && m_User_Map[referer_address].Registered==true */\n      dup1\n      iszero\n      tag_374\n      jumpi\n      pop\n        /* \"contracts/MFI_HECO_PATCH.sol\":16130:16134  true */\n      0x01\n        /* \"contracts/MFI_HECO_PATCH.sol\":16090:16134  m_User_Map[referer_address].Registered==true */\n      iszero\n      iszero\n        /* \"contracts/MFI_HECO_PATCH.sol\":16090:16100  m_User_Map */\n      0x26\n        /* \"contracts/MFI_HECO_PATCH.sol\":16090:16117  m_User_Map[referer_address] */\n      0x00\n        /* \"contracts/MFI_HECO_PATCH.sol\":16101:16116  referer_address */\n      dup4\n        /* \"contracts/MFI_HECO_PATCH.sol\":16090:16117  m_User_Map[referer_address] */\n      0xffffffffffffffffffffffffffffffffffffffff\n      and\n      0xffffffffffffffffffffffffffffffffffffffff\n      and\n      dup2\n      mstore\n      0x20\n      add\n      swap1\n      dup2\n      mstore\n      0x20\n      add\n      0x00\n      keccak256\n        /* \"contracts/MFI_HECO_PATCH.sol\":16090:16128  m_User_Map[referer_address].Registered */\n      0x00\n      add\n      0x00\n      swap1\n      sload\n      swap1\n      0x0100\n      exp\n      swap1\n      div\n      0xff\n      and\n        /* \"contracts/MFI_HECO_PATCH.sol\":16090:16134  m_User_Map[referer_address].Registered==true */\n      iszero\n      iszero\n      eq\n        /* \"contracts/MFI_HECO_PATCH.sol\":16059:16134  referer_address!=address(0) && m_User_Map[referer_address].Registered==true */\n    tag_374:\n        /* \"contracts/MFI_HECO_PATCH.sol\":16056:16212  if(referer_address!=address(0) && m_User_Map[referer_address].Registered==true)\r... */\n      iszero\n      tag_375\n      jumpi\n        /* \"contracts/MFI_HECO_PATCH.sol\":16168:16196  Update_User(referer_address) */\n      tag_376\n        /* \"contracts/MFI_HECO_PATCH.sol\":16180:16195  referer_address */\n      dup2\n        /* \"contracts/MFI_HECO_PATCH.sol\":16168:16179  Update_User */\n      tag_294\n        /* \"contracts/MFI_HECO_PATCH.sol\":16168:16196  Update_User(referer_address) */\n      jump\t// in\n    tag_376:\n        /* \"contracts/MFI_HECO_PATCH.sol\":16056:16212  if(referer_address!=address(0) && m_User_Map[referer_address].Registered==true)\r... */\n    tag_375:\n        /* \"contracts/MFI_HECO_PATCH.sol\":16254:16255  0 */\n      0x00\n        /* \"contracts/MFI_HECO_PATCH.sol\":16229:16256  referer_address!=address(0) */\n      0xffffffffffffffffffffffffffffffffffffffff\n      and\n        /* \"contracts/MFI_HECO_PATCH.sol\":16229:16244  referer_address */\n      dup2\n        /* \"contracts/MFI_HECO_PATCH.sol\":16229:16256  referer_address!=address(0) */\n      0xffffffffffffffffffffffffffffffffffffffff\n      and\n      eq\n        /* \"contracts/MFI_HECO_PATCH.sol\":16226:16713  if(referer_address!=address(0))\r... */\n      tag_377\n      jumpi\n        /* \"contracts/MFI_HECO_PATCH.sol\":16370:16372  10 */\n      0x0a\n        /* \"contracts/MFI_HECO_PATCH.sol\":16354:16369  stacking_amount */\n      dup8\n        /* \"contracts/MFI_HECO_PATCH.sol\":16354:16372  stacking_amount/10 */\n      dup2\n      tag_378\n      jumpi\n      invalid\n    tag_378:\n      div\n        /* \"contracts/MFI_HECO_PATCH.sol\":16293:16303  m_User_Map */\n      0x26\n        /* \"contracts/MFI_HECO_PATCH.sol\":16293:16320  m_User_Map[referer_address] */\n      0x00\n        /* \"contracts/MFI_HECO_PATCH.sol\":16304:16319  referer_address */\n      dup4\n        /* \"contracts/MFI_HECO_PATCH.sol\":16293:16320  m_User_Map[referer_address] */\n      0xffffffffffffffffffffffffffffffffffffffff\n      and\n      0xffffffffffffffffffffffffffffffffffffffff\n      and\n      dup2\n      mstore\n      0x20\n      add\n      swap1\n      dup2\n      mstore\n      0x20\n      add\n      0x00\n      keccak256\n        /* \"contracts/MFI_HECO_PATCH.sol\":16293:16340  m_User_Map[referer_address].Contributed_Amounts */\n      0x15\n      add\n        /* \"contracts/MFI_HECO_PATCH.sol\":16341:16350  period_id */\n      dup10\n        /* \"contracts/MFI_HECO_PATCH.sol\":16293:16351  m_User_Map[referer_address].Contributed_Amounts[period_id] */\n      0x08\n      dup2\n      lt\n      tag_379\n      jumpi\n      invalid\n    tag_379:\n      add\n      sload\n        /* \"contracts/MFI_HECO_PATCH.sol\":16293:16373  m_User_Map[referer_address].Contributed_Amounts[period_id]>=(stacking_amount/10) */\n      lt\n        /* \"contracts/MFI_HECO_PATCH.sol\":16290:16698  if(m_User_Map[referer_address].Contributed_Amounts[period_id]>=(stacking_amount/10))\r... */\n      tag_381\n      jumpi\n        /* \"contracts/MFI_HECO_PATCH.sol\":16550:16552  10 */\n      0x0a\n        /* \"contracts/MFI_HECO_PATCH.sol\":16534:16549  stacking_amount */\n      dup8\n        /* \"contracts/MFI_HECO_PATCH.sol\":16534:16552  stacking_amount/10 */\n      dup2\n      tag_382\n      jumpi\n      invalid\n    tag_382:\n      div\n        /* \"contracts/MFI_HECO_PATCH.sol\":16474:16484  m_User_Map */\n      0x26\n        /* \"contracts/MFI_HECO_PATCH.sol\":16474:16501  m_User_Map[referer_address] */\n      0x00\n        /* \"contracts/MFI_HECO_PATCH.sol\":16485:16500  referer_address */\n      dup4\n        /* \"contracts/MFI_HECO_PATCH.sol\":16474:16501  m_User_Map[referer_address] */\n      0xffffffffffffffffffffffffffffffffffffffff\n      and\n      0xffffffffffffffffffffffffffffffffffffffff\n      and\n      dup2\n      mstore\n      0x20\n      add\n      swap1\n      dup2\n      mstore\n      0x20\n      add\n      0x00\n      keccak256\n        /* \"contracts/MFI_HECO_PATCH.sol\":16474:16521  m_User_Map[referer_address].Contributed_Amounts */\n      0x15\n      add\n        /* \"contracts/MFI_HECO_PATCH.sol\":16522:16531  period_id */\n      dup10\n        /* \"contracts/MFI_HECO_PATCH.sol\":16474:16532  m_User_Map[referer_address].Contributed_Amounts[period_id] */\n      0x08\n      dup2\n      lt\n      tag_383\n      jumpi\n      invalid\n    tag_383:\n      add\n      sload\n        /* \"contracts/MFI_HECO_PATCH.sol\":16474:16553  m_User_Map[referer_address].Contributed_Amounts[period_id]-(stacking_amount/10) */\n      sub\n        /* \"contracts/MFI_HECO_PATCH.sol\":16415:16425  m_User_Map */\n      0x26\n        /* \"contracts/MFI_HECO_PATCH.sol\":16415:16442  m_User_Map[referer_address] */\n      0x00\n        /* \"contracts/MFI_HECO_PATCH.sol\":16426:16441  referer_address */\n      dup4\n        /* \"contracts/MFI_HECO_PATCH.sol\":16415:16442  m_User_Map[referer_address] */\n      0xffffffffffffffffffffffffffffffffffffffff\n      and\n      0xffffffffffffffffffffffffffffffffffffffff\n      and\n      dup2\n      mstore\n      0x20\n      add\n      swap1\n      dup2\n      mstore\n      0x20\n      add\n      0x00\n      keccak256\n        /* \"contracts/MFI_HECO_PATCH.sol\":16415:16462  m_User_Map[referer_address].Contributed_Amounts */\n      0x15\n      add\n        /* \"contracts/MFI_HECO_PATCH.sol\":16463:16472  period_id */\n      dup10\n        /* \"contracts/MFI_HECO_PATCH.sol\":16415:16473  m_User_Map[referer_address].Contributed_Amounts[period_id] */\n      0x08\n      dup2\n      lt\n      tag_385\n      jumpi\n      invalid\n    tag_385:\n      add\n        /* \"contracts/MFI_HECO_PATCH.sol\":16415:16553  m_User_Map[referer_address].Contributed_Amounts[period_id]=m_User_Map[referer_address].Contributed_Amounts[period_id]-(stacking_amount/10) */\n      dup2\n      swap1\n      sstore\n      pop\n        /* \"contracts/MFI_HECO_PATCH.sol\":16290:16698  if(m_User_Map[referer_address].Contributed_Amounts[period_id]>=(stacking_amount/10))\r... */\n      jump(tag_387)\n    tag_381:\n        /* \"contracts/MFI_HECO_PATCH.sol\":16677:16678  0 */\n      0x00\n        /* \"contracts/MFI_HECO_PATCH.sol\":16618:16628  m_User_Map */\n      0x26\n        /* \"contracts/MFI_HECO_PATCH.sol\":16618:16645  m_User_Map[referer_address] */\n      0x00\n        /* \"contracts/MFI_HECO_PATCH.sol\":16629:16644  referer_address */\n      dup4\n        /* \"contracts/MFI_HECO_PATCH.sol\":16618:16645  m_User_Map[referer_address] */\n      0xffffffffffffffffffffffffffffffffffffffff\n      and\n      0xffffffffffffffffffffffffffffffffffffffff\n      and\n      dup2\n      mstore\n      0x20\n      add\n      swap1\n      dup2\n      mstore\n      0x20\n      add\n      0x00\n      keccak256\n        /* \"contracts/MFI_HECO_PATCH.sol\":16618:16665  m_User_Map[referer_address].Contributed_Amounts */\n      0x15\n      add\n        /* \"contracts/MFI_HECO_PATCH.sol\":16666:16675  period_id */\n      dup10\n        /* \"contracts/MFI_HECO_PATCH.sol\":16618:16676  m_User_Map[referer_address].Contributed_Amounts[period_id] */\n      0x08\n      dup2\n      lt\n      tag_388\n      jumpi\n      invalid\n    tag_388:\n      add\n        /* \"contracts/MFI_HECO_PATCH.sol\":16618:16678  m_User_Map[referer_address].Contributed_Amounts[period_id]=0 */\n      dup2\n      swap1\n      sstore\n      pop\n        /* \"contracts/MFI_HECO_PATCH.sol\":16290:16698  if(m_User_Map[referer_address].Contributed_Amounts[period_id]>=(stacking_amount/10))\r... */\n    tag_387:\n        /* \"contracts/MFI_HECO_PATCH.sol\":16226:16713  if(referer_address!=address(0))\r... */\n    tag_377:\n        /* \"contracts/MFI_HECO_PATCH.sol\":16765:16770  15e16 */\n      0x0214e8348c4f0000\n        /* \"contracts/MFI_HECO_PATCH.sol\":16744:16763  old_stacking_amount */\n      dup4\n        /* \"contracts/MFI_HECO_PATCH.sol\":16744:16770  old_stacking_amount>=15e16 */\n      lt\n      iszero\n        /* \"contracts/MFI_HECO_PATCH.sol\":16744:16818  old_stacking_amount>=15e16 && m_User_Map[msg.sender].Stacking_Amount<15e16 */\n      dup1\n      iszero\n      tag_390\n      jumpi\n      pop\n        /* \"contracts/MFI_HECO_PATCH.sol\":16813:16818  15e16 */\n      0x0214e8348c4f0000\n        /* \"contracts/MFI_HECO_PATCH.sol\":16774:16784  m_User_Map */\n      0x26\n        /* \"contracts/MFI_HECO_PATCH.sol\":16774:16796  m_User_Map[msg.sender] */\n      0x00\n        /* \"contracts/MFI_HECO_PATCH.sol\":16785:16795  msg.sender */\n      caller\n        /* \"contracts/MFI_HECO_PATCH.sol\":16774:16796  m_User_Map[msg.sender] */\n      0xffffffffffffffffffffffffffffffffffffffff\n      and\n      0xffffffffffffffffffffffffffffffffffffffff\n      and\n      dup2\n      mstore\n      0x20\n      add\n      swap1\n      dup2\n      mstore\n      0x20\n      add\n      0x00\n      keccak256\n        /* \"contracts/MFI_HECO_PATCH.sol\":16774:16812  m_User_Map[msg.sender].Stacking_Amount */\n      0x02\n      add\n      sload\n        /* \"contracts/MFI_HECO_PATCH.sol\":16774:16818  m_User_Map[msg.sender].Stacking_Amount<15e16 */\n      lt\n        /* \"contracts/MFI_HECO_PATCH.sol\":16744:16818  old_stacking_amount>=15e16 && m_User_Map[msg.sender].Stacking_Amount<15e16 */\n    tag_390:\n        /* \"contracts/MFI_HECO_PATCH.sol\":16741:16896  if(old_stacking_amount>=15e16 && m_User_Map[msg.sender].Stacking_Amount<15e16 )\r... */\n      iszero\n      tag_391\n      jumpi\n        /* \"contracts/MFI_HECO_PATCH.sol\":16879:16880  1 */\n      0x01\n        /* \"contracts/MFI_HECO_PATCH.sol\":16866:16878  m_User_Count */\n      sload(0x19)\n        /* \"contracts/MFI_HECO_PATCH.sol\":16866:16880  m_User_Count-1 */\n      sub\n        /* \"contracts/MFI_HECO_PATCH.sol\":16853:16865  m_User_Count */\n      0x19\n        /* \"contracts/MFI_HECO_PATCH.sol\":16853:16880  m_User_Count=m_User_Count-1 */\n      dup2\n      swap1\n      sstore\n      pop\n        /* \"contracts/MFI_HECO_PATCH.sol\":16741:16896  if(old_stacking_amount>=15e16 && m_User_Map[msg.sender].Stacking_Amount<15e16 )\r... */\n    tag_391:\n        /* \"contracts/MFI_HECO_PATCH.sol\":16929:16939  msg.sender */\n      caller\n        /* \"contracts/MFI_HECO_PATCH.sol\":16915:16967  EVENT_UNSTACK(msg.sender,period_id, stacking_amount) */\n      0xffffffffffffffffffffffffffffffffffffffff\n      and\n      0x34a6b087beadf3148f41320260aebfe87d8e60c97c502169a944b67cae515049\n        /* \"contracts/MFI_HECO_PATCH.sol\":16940:16949  period_id */\n      dup10\n        /* \"contracts/MFI_HECO_PATCH.sol\":16951:16966  stacking_amount */\n      dup10\n        /* \"contracts/MFI_HECO_PATCH.sol\":16915:16967  EVENT_UNSTACK(msg.sender,period_id, stacking_amount) */\n      mload(0x40)\n      dup1\n      dup4\n      dup2\n      mstore\n      0x20\n      add\n      dup3\n      dup2\n      mstore\n      0x20\n      add\n      swap3\n      pop\n      pop\n      pop\n      mload(0x40)\n      dup1\n      swap2\n      sub\n      swap1\n      log2\n        /* \"contracts/MFI_HECO_PATCH.sol\":16989:16993  true */\n      0x01\n        /* \"contracts/MFI_HECO_PATCH.sol\":16982:16993  return true */\n      swap6\n      pop\n      pop\n      pop\n      pop\n      pop\n      pop\n        /* \"contracts/MFI_HECO_PATCH.sol\":13833:17001  function Do_Unstacking(uint period_id ,uint stacking_amount) public  OnlyRegistered   returns(bool)  {\r... */\n      swap3\n      swap2\n      pop\n      pop\n      jump\t// out\n        /* \"contracts/MFI_HECO_PATCH.sol\":2759:2955  function acceptOwnership() public {\r... */\n    tag_143:\n        /* \"contracts/MFI_HECO_PATCH.sol\":2826:2834  newOwner */\n      0x01\n      0x00\n      swap1\n      sload\n      swap1\n      0x0100\n      exp\n      swap1\n      div\n      0xffffffffffffffffffffffffffffffffffffffff\n      and\n        /* \"contracts/MFI_HECO_PATCH.sol\":2812:2834  msg.sender == newOwner */\n      0xffffffffffffffffffffffffffffffffffffffff\n      and\n        /* \"contracts/MFI_HECO_PATCH.sol\":2812:2822  msg.sender */\n      caller\n        /* \"contracts/MFI_HECO_PATCH.sol\":2812:2834  msg.sender == newOwner */\n      0xffffffffffffffffffffffffffffffffffffffff\n      and\n      eq\n        /* \"contracts/MFI_HECO_PATCH.sol\":2804:2835  require(msg.sender == newOwner) */\n      tag_393\n      jumpi\n      0x00\n      dup1\n      revert\n    tag_393:\n        /* \"contracts/MFI_HECO_PATCH.sol\":2879:2887  newOwner */\n      0x01\n      0x00\n      swap1\n      sload\n      swap1\n      0x0100\n      exp\n      swap1\n      div\n      0xffffffffffffffffffffffffffffffffffffffff\n      and\n        /* \"contracts/MFI_HECO_PATCH.sol\":2851:2888  OwnershipTransferred(owner, newOwner) */\n      0xffffffffffffffffffffffffffffffffffffffff\n      and\n        /* \"contracts/MFI_HECO_PATCH.sol\":2872:2877  owner */\n      0x00\n      dup1\n      sload\n      swap1\n      0x0100\n      exp\n      swap1\n      div\n      0xffffffffffffffffffffffffffffffffffffffff\n      and\n        /* \"contracts/MFI_HECO_PATCH.sol\":2851:2888  OwnershipTransferred(owner, newOwner) */\n      0xffffffffffffffffffffffffffffffffffffffff\n      and\n      0x8be0079c531659141344cd1fd0a4f28419497f9722a3daafe3b4186f6b6457e0\n      mload(0x40)\n      mload(0x40)\n      dup1\n      swap2\n      sub\n      swap1\n      log3\n        /* \"contracts/MFI_HECO_PATCH.sol\":2907:2915  newOwner */\n      0x01\n      0x00\n      swap1\n      sload\n      swap1\n      0x0100\n      exp\n      swap1\n      div\n      0xffffffffffffffffffffffffffffffffffffffff\n      and\n        /* \"contracts/MFI_HECO_PATCH.sol\":2899:2904  owner */\n      0x00\n      dup1\n        /* \"contracts/MFI_HECO_PATCH.sol\":2899:2915  owner = newOwner */\n      0x0100\n      exp\n      dup2\n      sload\n      dup2\n      0xffffffffffffffffffffffffffffffffffffffff\n      mul\n      not\n      and\n      swap1\n      dup4\n      0xffffffffffffffffffffffffffffffffffffffff\n      and\n      mul\n      or\n      swap1\n      sstore\n      pop\n        /* \"contracts/MFI_HECO_PATCH.sol\":2945:2946  0 */\n      0x00\n        /* \"contracts/MFI_HECO_PATCH.sol\":2926:2934  newOwner */\n      0x01\n      0x00\n        /* \"contracts/MFI_HECO_PATCH.sol\":2926:2947  newOwner = address(0) */\n      0x0100\n      exp\n      dup2\n      sload\n      dup2\n      0xffffffffffffffffffffffffffffffffffffffff\n      mul\n      not\n      and\n      swap1\n      dup4\n      0xffffffffffffffffffffffffffffffffffffffff\n      and\n      mul\n      or\n      swap1\n      sstore\n      pop\n        /* \"contracts/MFI_HECO_PATCH.sol\":2759:2955  function acceptOwnership() public {\r... */\n      jump\t// out\n        /* \"contracts/MFI_HECO_PATCH.sol\":6558:6877  function Start_At(uint block_number) public onlyOwner{\r... */\n    tag_147:\n        /* \"contracts/MFI_HECO_PATCH.sol\":2617:2622  owner */\n      0x00\n      dup1\n      sload\n      swap1\n      0x0100\n      exp\n      swap1\n      div\n      0xffffffffffffffffffffffffffffffffffffffff\n      and\n        /* \"contracts/MFI_HECO_PATCH.sol\":2603:2622  msg.sender == owner */\n      0xffffffffffffffffffffffffffffffffffffffff\n      and\n        /* \"contracts/MFI_HECO_PATCH.sol\":2603:2613  msg.sender */\n      caller\n        /* \"contracts/MFI_HECO_PATCH.sol\":2603:2622  msg.sender == owner */\n      0xffffffffffffffffffffffffffffffffffffffff\n      and\n      eq\n        /* \"contracts/MFI_HECO_PATCH.sol\":2595:2623  require(msg.sender == owner) */\n      tag_395\n      jumpi\n      0x00\n      dup1\n      revert\n    tag_395:\n        /* \"contracts/MFI_HECO_PATCH.sol\":6643:6644  0 */\n      0x00\n        /* \"contracts/MFI_HECO_PATCH.sol\":6629:6641  block_number */\n      dup2\n        /* \"contracts/MFI_HECO_PATCH.sol\":6629:6644  block_number==0 */\n      eq\n        /* \"contracts/MFI_HECO_PATCH.sol\":6626:6870  if(block_number==0)\r... */\n      iszero\n      tag_397\n      jumpi\n        /* \"contracts/MFI_HECO_PATCH.sol\":6678:6689  uint number */\n      0x00\n        /* \"contracts/MFI_HECO_PATCH.sol\":6692:6704  block.number */\n      number\n        /* \"contracts/MFI_HECO_PATCH.sol\":6678:6704  uint number = block.number */\n      swap1\n      pop\n        /* \"contracts/MFI_HECO_PATCH.sol\":6753:6759  number */\n      dup1\n        /* \"contracts/MFI_HECO_PATCH.sol\":6723:6752  m_Stacking_Block_Number_Start */\n      0x16\n        /* \"contracts/MFI_HECO_PATCH.sol\":6723:6759  m_Stacking_Block_Number_Start=number */\n      dup2\n      swap1\n      sstore\n      pop\n        /* \"contracts/MFI_HECO_PATCH.sol\":6626:6870  if(block_number==0)\r... */\n      pop\n      jump(tag_398)\n    tag_397:\n        /* \"contracts/MFI_HECO_PATCH.sol\":6842:6854  block_number */\n      dup1\n        /* \"contracts/MFI_HECO_PATCH.sol\":6812:6841  m_Stacking_Block_Number_Start */\n      0x16\n        /* \"contracts/MFI_HECO_PATCH.sol\":6812:6854  m_Stacking_Block_Number_Start=block_number */\n      dup2\n      swap1\n      sstore\n      pop\n        /* \"contracts/MFI_HECO_PATCH.sol\":6626:6870  if(block_number==0)\r... */\n    tag_398:\n        /* \"contracts/MFI_HECO_PATCH.sol\":6558:6877  function Start_At(uint block_number) public onlyOwner{\r... */\n      pop\n      jump\t// out\n        /* \"contracts/MFI_HECO_PATCH.sol\":4461:4492  uint256 public m_Total_Stacking */\n    tag_150:\n      sload(0x18)\n      dup2\n      jump\t// out\n        /* \"contracts/MFI_HECO_PATCH.sol\":7879:8068  function Get_User_Contributions(address user ) public view returns(  uint[8] memory)\r... */\n    tag_154:\n        /* \"contracts/MFI_HECO_PATCH.sol\":7948:7962  uint[8] memory */\n      tag_399\n      tag_238\n      jump\t// in\n    tag_399:\n        /* \"contracts/MFI_HECO_PATCH.sol\":8012:8022  m_User_Map */\n      0x26\n        /* \"contracts/MFI_HECO_PATCH.sol\":8012:8028  m_User_Map[user] */\n      0x00\n        /* \"contracts/MFI_HECO_PATCH.sol\":8023:8027  user */\n      dup4\n        /* \"contracts/MFI_HECO_PATCH.sol\":8012:8028  m_User_Map[user] */\n      0xffffffffffffffffffffffffffffffffffffffff\n      and\n      0xffffffffffffffffffffffffffffffffffffffff\n      and\n      dup2\n      mstore\n      0x20\n      add\n      swap1\n      dup2\n      mstore\n      0x20\n      add\n      0x00\n      keccak256\n        /* \"contracts/MFI_HECO_PATCH.sol\":8012:8048  m_User_Map[user].Contributed_Amounts */\n      0x15\n      add\n        /* \"contracts/MFI_HECO_PATCH.sol\":7983:8059  return\r... */\n      0x08\n      dup1\n      0x20\n      mul\n      mload(0x40)\n      swap1\n      dup2\n      add\n      0x40\n      mstore\n      dup1\n      swap3\n      swap2\n      swap1\n      dup3\n      0x08\n      dup1\n      iszero\n      tag_401\n      jumpi\n      0x20\n      mul\n      dup3\n      add\n      swap2\n    tag_402:\n      dup2\n      sload\n      dup2\n      mstore\n      0x20\n      add\n      swap1\n      0x01\n      add\n      swap1\n      dup1\n      dup4\n      gt\n      tag_402\n      jumpi\n    tag_401:\n      pop\n      pop\n      pop\n      pop\n      pop\n      swap1\n      pop\n        /* \"contracts/MFI_HECO_PATCH.sol\":7879:8068  function Get_User_Contributions(address user ) public view returns(  uint[8] memory)\r... */\n      swap2\n      swap1\n      pop\n      jump\t// out\n        /* \"contracts/MFI_HECO_PATCH.sol\":17223:17490  function Do_Update_User(address user) public    returns(bool){\r... */\n    tag_161:\n        /* \"contracts/MFI_HECO_PATCH.sol\":17279:17283  bool */\n      0x00\n        /* \"contracts/MFI_HECO_PATCH.sol\":17315:17332  m_Updater_Address */\n      0x13\n      0x00\n      swap1\n      sload\n      swap1\n      0x0100\n      exp\n      swap1\n      div\n      0xffffffffffffffffffffffffffffffffffffffff\n      and\n        /* \"contracts/MFI_HECO_PATCH.sol\":17303:17332  msg.sender==m_Updater_Address */\n      0xffffffffffffffffffffffffffffffffffffffff\n      and\n        /* \"contracts/MFI_HECO_PATCH.sol\":17303:17313  msg.sender */\n      caller\n        /* \"contracts/MFI_HECO_PATCH.sol\":17303:17332  msg.sender==m_Updater_Address */\n      0xffffffffffffffffffffffffffffffffffffffff\n      and\n      eq\n        /* \"contracts/MFI_HECO_PATCH.sol\":17295:17348  require(msg.sender==m_Updater_Address,\"DISQUALIFIED\") */\n      tag_404\n      jumpi\n      mload(0x40)\n      0x08c379a000000000000000000000000000000000000000000000000000000000\n      dup2\n      mstore\n      0x04\n      add\n      dup1\n      dup1\n      0x20\n      add\n      dup3\n      dup2\n      sub\n      dup3\n      mstore\n      0x0c\n      dup2\n      mstore\n      0x20\n      add\n      dup1\n      0x4449535155414c49464945440000000000000000000000000000000000000000\n      dup2\n      mstore\n      pop\n      0x20\n      add\n      swap2\n      pop\n      pop\n      mload(0x40)\n      dup1\n      swap2\n      sub\n      swap1\n      revert\n    tag_404:\n        /* \"contracts/MFI_HECO_PATCH.sol\":17359:17379  Update_Global_Data() */\n      tag_405\n        /* \"contracts/MFI_HECO_PATCH.sol\":17359:17377  Update_Global_Data */\n      tag_292\n        /* \"contracts/MFI_HECO_PATCH.sol\":17359:17379  Update_Global_Data() */\n      jump\t// in\n    tag_405:\n        /* \"contracts/MFI_HECO_PATCH.sol\":17427:17431  true */\n      0x01\n        /* \"contracts/MFI_HECO_PATCH.sol\":17398:17431  m_User_Map[user].Registered==true */\n      iszero\n      iszero\n        /* \"contracts/MFI_HECO_PATCH.sol\":17398:17408  m_User_Map */\n      0x26\n        /* \"contracts/MFI_HECO_PATCH.sol\":17398:17414  m_User_Map[user] */\n      0x00\n        /* \"contracts/MFI_HECO_PATCH.sol\":17409:17413  user */\n      dup5\n        /* \"contracts/MFI_HECO_PATCH.sol\":17398:17414  m_User_Map[user] */\n      0xffffffffffffffffffffffffffffffffffffffff\n      and\n      0xffffffffffffffffffffffffffffffffffffffff\n      and\n      dup2\n      mstore\n      0x20\n      add\n      swap1\n      dup2\n      mstore\n      0x20\n      add\n      0x00\n      keccak256\n        /* \"contracts/MFI_HECO_PATCH.sol\":17398:17425  m_User_Map[user].Registered */\n      0x00\n      add\n      0x00\n      swap1\n      sload\n      swap1\n      0x0100\n      exp\n      swap1\n      div\n      0xff\n      and\n        /* \"contracts/MFI_HECO_PATCH.sol\":17398:17431  m_User_Map[user].Registered==true */\n      iszero\n      iszero\n      eq\n        /* \"contracts/MFI_HECO_PATCH.sol\":17390:17432  require(m_User_Map[user].Registered==true) */\n      tag_406\n      jumpi\n      0x00\n      dup1\n      revert\n    tag_406:\n        /* \"contracts/MFI_HECO_PATCH.sol\":17443:17460  Update_User(user) */\n      tag_407\n        /* \"contracts/MFI_HECO_PATCH.sol\":17455:17459  user */\n      dup3\n        /* \"contracts/MFI_HECO_PATCH.sol\":17443:17454  Update_User */\n      tag_294\n        /* \"contracts/MFI_HECO_PATCH.sol\":17443:17460  Update_User(user) */\n      jump\t// in\n    tag_407:\n        /* \"contracts/MFI_HECO_PATCH.sol\":17478:17482  true */\n      0x01\n        /* \"contracts/MFI_HECO_PATCH.sol\":17471:17482  return true */\n      swap1\n      pop\n        /* \"contracts/MFI_HECO_PATCH.sol\":17223:17490  function Do_Update_User(address user) public    returns(bool){\r... */\n      swap2\n      swap1\n      pop\n      jump\t// out\n        /* \"contracts/MFI_HECO_PATCH.sol\":7311:7682  function Get_User_Info(address user ) public view returns(bool ,address, address, uint,uint)\r... */\n    tag_165:\n        /* \"contracts/MFI_HECO_PATCH.sol\":7369:7373  bool */\n      0x00\n        /* \"contracts/MFI_HECO_PATCH.sol\":7375:7382  address */\n      dup1\n        /* \"contracts/MFI_HECO_PATCH.sol\":7384:7391  address */\n      0x00\n        /* \"contracts/MFI_HECO_PATCH.sol\":7393:7397  uint */\n      dup1\n        /* \"contracts/MFI_HECO_PATCH.sol\":7398:7402  uint */\n      0x00\n        /* \"contracts/MFI_HECO_PATCH.sol\":7447:7457  m_User_Map */\n      0x26\n        /* \"contracts/MFI_HECO_PATCH.sol\":7447:7463  m_User_Map[user] */\n      0x00\n        /* \"contracts/MFI_HECO_PATCH.sol\":7458:7462  user */\n      dup8\n        /* \"contracts/MFI_HECO_PATCH.sol\":7447:7463  m_User_Map[user] */\n      0xffffffffffffffffffffffffffffffffffffffff\n      and\n      0xffffffffffffffffffffffffffffffffffffffff\n      and\n      dup2\n      mstore\n      0x20\n      add\n      swap1\n      dup2\n      mstore\n      0x20\n      add\n      0x00\n      keccak256\n        /* \"contracts/MFI_HECO_PATCH.sol\":7447:7475  m_User_Map[user]. Registered */\n      0x00\n      add\n      0x00\n      swap1\n      sload\n      swap1\n      0x0100\n      exp\n      swap1\n      div\n      0xff\n      and\n        /* \"contracts/MFI_HECO_PATCH.sol\":7486:7496  m_User_Map */\n      0x26\n        /* \"contracts/MFI_HECO_PATCH.sol\":7486:7502  m_User_Map[user] */\n      0x00\n        /* \"contracts/MFI_HECO_PATCH.sol\":7497:7501  user */\n      dup9\n        /* \"contracts/MFI_HECO_PATCH.sol\":7486:7502  m_User_Map[user] */\n      0xffffffffffffffffffffffffffffffffffffffff\n      and\n      0xffffffffffffffffffffffffffffffffffffffff\n      and\n      dup2\n      mstore\n      0x20\n      add\n      swap1\n      dup2\n      mstore\n      0x20\n      add\n      0x00\n      keccak256\n        /* \"contracts/MFI_HECO_PATCH.sol\":7486:7516  m_User_Map[user]. User_Address */\n      0x00\n      add\n      0x01\n      swap1\n      sload\n      swap1\n      0x0100\n      exp\n      swap1\n      div\n      0xffffffffffffffffffffffffffffffffffffffff\n      and\n        /* \"contracts/MFI_HECO_PATCH.sol\":7527:7537  m_User_Map */\n      0x26\n        /* \"contracts/MFI_HECO_PATCH.sol\":7527:7543  m_User_Map[user] */\n      0x00\n        /* \"contracts/MFI_HECO_PATCH.sol\":7538:7542  user */\n      dup10\n        /* \"contracts/MFI_HECO_PATCH.sol\":7527:7543  m_User_Map[user] */\n      0xffffffffffffffffffffffffffffffffffffffff\n      and\n      0xffffffffffffffffffffffffffffffffffffffff\n      and\n      dup2\n      mstore\n      0x20\n      add\n      swap1\n      dup2\n      mstore\n      0x20\n      add\n      0x00\n      keccak256\n        /* \"contracts/MFI_HECO_PATCH.sol\":7527:7560  m_User_Map[user]. Referer_Address */\n      0x01\n      add\n      0x00\n      swap1\n      sload\n      swap1\n      0x0100\n      exp\n      swap1\n      div\n      0xffffffffffffffffffffffffffffffffffffffff\n      and\n        /* \"contracts/MFI_HECO_PATCH.sol\":7571:7581  m_User_Map */\n      0x26\n        /* \"contracts/MFI_HECO_PATCH.sol\":7571:7587  m_User_Map[user] */\n      0x00\n        /* \"contracts/MFI_HECO_PATCH.sol\":7582:7586  user */\n      dup11\n        /* \"contracts/MFI_HECO_PATCH.sol\":7571:7587  m_User_Map[user] */\n      0xffffffffffffffffffffffffffffffffffffffff\n      and\n      0xffffffffffffffffffffffffffffffffffffffff\n      and\n      dup2\n      mstore\n      0x20\n      add\n      swap1\n      dup2\n      mstore\n      0x20\n      add\n      0x00\n      keccak256\n        /* \"contracts/MFI_HECO_PATCH.sol\":7571:7604  m_User_Map[user]. Stacking_Amount */\n      0x02\n      add\n      sload\n        /* \"contracts/MFI_HECO_PATCH.sol\":7615:7625  m_User_Map */\n      0x26\n        /* \"contracts/MFI_HECO_PATCH.sol\":7615:7631  m_User_Map[user] */\n      0x00\n        /* \"contracts/MFI_HECO_PATCH.sol\":7626:7630  user */\n      dup12\n        /* \"contracts/MFI_HECO_PATCH.sol\":7615:7631  m_User_Map[user] */\n      0xffffffffffffffffffffffffffffffffffffffff\n      and\n      0xffffffffffffffffffffffffffffffffffffffff\n      and\n      dup2\n      mstore\n      0x20\n      add\n      swap1\n      dup2\n      mstore\n      0x20\n      add\n      0x00\n      keccak256\n        /* \"contracts/MFI_HECO_PATCH.sol\":7615:7663  m_User_Map[user]. Stacking_Operation_Block_Stamp */\n      0x0c\n      add\n      sload\n        /* \"contracts/MFI_HECO_PATCH.sol\":7420:7674  return\r... */\n      swap5\n      pop\n      swap5\n      pop\n      swap5\n      pop\n      swap5\n      pop\n      swap5\n      pop\n        /* \"contracts/MFI_HECO_PATCH.sol\":7311:7682  function Get_User_Info(address user ) public view returns(bool ,address, address, uint,uint)\r... */\n      swap2\n      swap4\n      swap6\n      swap1\n      swap3\n      swap5\n      pop\n      jump\t// out\n        /* \"contracts/MFI_HECO_PATCH.sol\":2361:2381  address public owner */\n    tag_168:\n      0x00\n      dup1\n      sload\n      swap1\n      0x0100\n      exp\n      swap1\n      div\n      0xffffffffffffffffffffffffffffffffffffffff\n      and\n      dup2\n      jump\t// out\n        /* \"contracts/MFI_HECO_PATCH.sol\":9006:10121  function Do_Registering(address referer) public  NotGamePause returns(bool){\r... */\n    tag_172:\n        /* \"contracts/MFI_HECO_PATCH.sol\":9076:9080  bool */\n      0x00\n        /* \"contracts/MFI_HECO_PATCH.sol\":5185:5189  true */\n      0x01\n        /* \"contracts/MFI_HECO_PATCH.sol\":5171:5189  m_Game_Pause!=true */\n      iszero\n      iszero\n        /* \"contracts/MFI_HECO_PATCH.sol\":5171:5183  m_Game_Pause */\n      0x24\n      0x00\n      swap1\n      sload\n      swap1\n      0x0100\n      exp\n      swap1\n      div\n      0xff\n      and\n        /* \"contracts/MFI_HECO_PATCH.sol\":5171:5189  m_Game_Pause!=true */\n      iszero\n      iszero\n      eq\n      iszero\n        /* \"contracts/MFI_HECO_PATCH.sol\":5163:5190  require(m_Game_Pause!=true) */\n      tag_410\n      jumpi\n      0x00\n      dup1\n      revert\n    tag_410:\n        /* \"contracts/MFI_HECO_PATCH.sol\":9125:9145  Update_Global_Data() */\n      tag_412\n        /* \"contracts/MFI_HECO_PATCH.sol\":9125:9143  Update_Global_Data */\n      tag_292\n        /* \"contracts/MFI_HECO_PATCH.sol\":9125:9145  Update_Global_Data() */\n      jump\t// in\n    tag_412:\n        /* \"contracts/MFI_HECO_PATCH.sol\":9202:9203  0 */\n      0x00\n        /* \"contracts/MFI_HECO_PATCH.sol\":9183:9204  referer != address(0) */\n      0xffffffffffffffffffffffffffffffffffffffff\n      and\n        /* \"contracts/MFI_HECO_PATCH.sol\":9183:9190  referer */\n      dup3\n        /* \"contracts/MFI_HECO_PATCH.sol\":9183:9204  referer != address(0) */\n      0xffffffffffffffffffffffffffffffffffffffff\n      and\n      eq\n      iszero\n        /* \"contracts/MFI_HECO_PATCH.sol\":9174:9221  require( referer != address(0),\"REFERER ERROR\") */\n      tag_413\n      jumpi\n      mload(0x40)\n      0x08c379a000000000000000000000000000000000000000000000000000000000\n      dup2\n      mstore\n      0x04\n      add\n      dup1\n      dup1\n      0x20\n      add\n      dup3\n      dup2\n      sub\n      dup3\n      mstore\n      0x0d\n      dup2\n      mstore\n      0x20\n      add\n      dup1\n      0x52454645524552204552524f5200000000000000000000000000000000000000\n      dup2\n      mstore\n      pop\n      0x20\n      add\n      swap2\n      pop\n      pop\n      mload(0x40)\n      dup1\n      swap2\n      sub\n      swap1\n      revert\n    tag_413:\n        /* \"contracts/MFI_HECO_PATCH.sol\":9276:9281  false */\n      0x00\n        /* \"contracts/MFI_HECO_PATCH.sol\":9241:9281  m_User_Map[msg.sender].Registered==false */\n      iszero\n      iszero\n        /* \"contracts/MFI_HECO_PATCH.sol\":9241:9251  m_User_Map */\n      0x26\n        /* \"contracts/MFI_HECO_PATCH.sol\":9241:9263  m_User_Map[msg.sender] */\n      0x00\n        /* \"contracts/MFI_HECO_PATCH.sol\":9252:9262  msg.sender */\n      caller\n        /* \"contracts/MFI_HECO_PATCH.sol\":9241:9263  m_User_Map[msg.sender] */\n      0xffffffffffffffffffffffffffffffffffffffff\n      and\n      0xffffffffffffffffffffffffffffffffffffffff\n      and\n      dup2\n      mstore\n      0x20\n      add\n      swap1\n      dup2\n      mstore\n      0x20\n      add\n      0x00\n      keccak256\n        /* \"contracts/MFI_HECO_PATCH.sol\":9241:9274  m_User_Map[msg.sender].Registered */\n      0x00\n      add\n      0x00\n      swap1\n      sload\n      swap1\n      0x0100\n      exp\n      swap1\n      div\n      0xff\n      and\n        /* \"contracts/MFI_HECO_PATCH.sol\":9241:9281  m_User_Map[msg.sender].Registered==false */\n      iszero\n      iszero\n      eq\n        /* \"contracts/MFI_HECO_PATCH.sol\":9232:9295  require( m_User_Map[msg.sender].Registered==false,\"USER EXIST\") */\n      tag_414\n      jumpi\n      mload(0x40)\n      0x08c379a000000000000000000000000000000000000000000000000000000000\n      dup2\n      mstore\n      0x04\n      add\n      dup1\n      dup1\n      0x20\n      add\n      dup3\n      dup2\n      sub\n      dup3\n      mstore\n      0x0a\n      dup2\n      mstore\n      0x20\n      add\n      dup1\n      0x5553455220455849535400000000000000000000000000000000000000000000\n      dup2\n      mstore\n      pop\n      0x20\n      add\n      swap2\n      pop\n      pop\n      mload(0x40)\n      dup1\n      swap2\n      sub\n      swap1\n      revert\n    tag_414:\n        /* \"contracts/MFI_HECO_PATCH.sol\":9429:9433  true */\n      0x01\n        /* \"contracts/MFI_HECO_PATCH.sol\":9395:9405  m_User_Map */\n      0x26\n        /* \"contracts/MFI_HECO_PATCH.sol\":9395:9417  m_User_Map[msg.sender] */\n      0x00\n        /* \"contracts/MFI_HECO_PATCH.sol\":9406:9416  msg.sender */\n      caller\n        /* \"contracts/MFI_HECO_PATCH.sol\":9395:9417  m_User_Map[msg.sender] */\n      0xffffffffffffffffffffffffffffffffffffffff\n      and\n      0xffffffffffffffffffffffffffffffffffffffff\n      and\n      dup2\n      mstore\n      0x20\n      add\n      swap1\n      dup2\n      mstore\n      0x20\n      add\n      0x00\n      keccak256\n        /* \"contracts/MFI_HECO_PATCH.sol\":9395:9428  m_User_Map[msg.sender].Registered */\n      0x00\n      add\n      0x00\n        /* \"contracts/MFI_HECO_PATCH.sol\":9395:9433  m_User_Map[msg.sender].Registered=true */\n      0x0100\n      exp\n      dup2\n      sload\n      dup2\n      0xff\n      mul\n      not\n      and\n      swap1\n      dup4\n      iszero\n      iszero\n      mul\n      or\n      swap1\n      sstore\n      pop\n        /* \"contracts/MFI_HECO_PATCH.sol\":9480:9490  msg.sender */\n      caller\n        /* \"contracts/MFI_HECO_PATCH.sol\":9444:9454  m_User_Map */\n      0x26\n        /* \"contracts/MFI_HECO_PATCH.sol\":9444:9466  m_User_Map[msg.sender] */\n      0x00\n        /* \"contracts/MFI_HECO_PATCH.sol\":9455:9465  msg.sender */\n      caller\n        /* \"contracts/MFI_HECO_PATCH.sol\":9444:9466  m_User_Map[msg.sender] */\n      0xffffffffffffffffffffffffffffffffffffffff\n      and\n      0xffffffffffffffffffffffffffffffffffffffff\n      and\n      dup2\n      mstore\n      0x20\n      add\n      swap1\n      dup2\n      mstore\n      0x20\n      add\n      0x00\n      keccak256\n        /* \"contracts/MFI_HECO_PATCH.sol\":9444:9479  m_User_Map[msg.sender].User_Address */\n      0x00\n      add\n      0x01\n        /* \"contracts/MFI_HECO_PATCH.sol\":9444:9490  m_User_Map[msg.sender].User_Address=msg.sender */\n      0x0100\n      exp\n      dup2\n      sload\n      dup2\n      0xffffffffffffffffffffffffffffffffffffffff\n      mul\n      not\n      and\n      swap1\n      dup4\n      0xffffffffffffffffffffffffffffffffffffffff\n      and\n      mul\n      or\n      swap1\n      sstore\n      pop\n        /* \"contracts/MFI_HECO_PATCH.sol\":9553:9554  0 */\n      0x00\n        /* \"contracts/MFI_HECO_PATCH.sol\":9504:9555  m_User_Map[msg.sender].Referer_Address== address(0) */\n      0xffffffffffffffffffffffffffffffffffffffff\n      and\n        /* \"contracts/MFI_HECO_PATCH.sol\":9504:9514  m_User_Map */\n      0x26\n        /* \"contracts/MFI_HECO_PATCH.sol\":9504:9526  m_User_Map[msg.sender] */\n      0x00\n        /* \"contracts/MFI_HECO_PATCH.sol\":9515:9525  msg.sender */\n      caller\n        /* \"contracts/MFI_HECO_PATCH.sol\":9504:9526  m_User_Map[msg.sender] */\n      0xffffffffffffffffffffffffffffffffffffffff\n      and\n      0xffffffffffffffffffffffffffffffffffffffff\n      and\n      dup2\n      mstore\n      0x20\n      add\n      swap1\n      dup2\n      mstore\n      0x20\n      add\n      0x00\n      keccak256\n        /* \"contracts/MFI_HECO_PATCH.sol\":9504:9542  m_User_Map[msg.sender].Referer_Address */\n      0x01\n      add\n      0x00\n      swap1\n      sload\n      swap1\n      0x0100\n      exp\n      swap1\n      div\n      0xffffffffffffffffffffffffffffffffffffffff\n      and\n        /* \"contracts/MFI_HECO_PATCH.sol\":9504:9555  m_User_Map[msg.sender].Referer_Address== address(0) */\n      0xffffffffffffffffffffffffffffffffffffffff\n      and\n      eq\n        /* \"contracts/MFI_HECO_PATCH.sol\":9501:9640  if(m_User_Map[msg.sender].Referer_Address== address(0))\r... */\n      iszero\n      tag_415\n      jumpi\n        /* \"contracts/MFI_HECO_PATCH.sol\":9620:9627  referer */\n      dup2\n        /* \"contracts/MFI_HECO_PATCH.sol\":9581:9591  m_User_Map */\n      0x26\n        /* \"contracts/MFI_HECO_PATCH.sol\":9581:9603  m_User_Map[msg.sender] */\n      0x00\n        /* \"contracts/MFI_HECO_PATCH.sol\":9592:9602  msg.sender */\n      caller\n        /* \"contracts/MFI_HECO_PATCH.sol\":9581:9603  m_User_Map[msg.sender] */\n      0xffffffffffffffffffffffffffffffffffffffff\n      and\n      0xffffffffffffffffffffffffffffffffffffffff\n      and\n      dup2\n      mstore\n      0x20\n      add\n      swap1\n      dup2\n      mstore\n      0x20\n      add\n      0x00\n      keccak256\n        /* \"contracts/MFI_HECO_PATCH.sol\":9581:9619  m_User_Map[msg.sender].Referer_Address */\n      0x01\n      add\n      0x00\n        /* \"contracts/MFI_HECO_PATCH.sol\":9581:9627  m_User_Map[msg.sender].Referer_Address=referer */\n      0x0100\n      exp\n      dup2\n      sload\n      dup2\n      0xffffffffffffffffffffffffffffffffffffffff\n      mul\n      not\n      and\n      swap1\n      dup4\n      0xffffffffffffffffffffffffffffffffffffffff\n      and\n      mul\n      or\n      swap1\n      sstore\n      pop\n        /* \"contracts/MFI_HECO_PATCH.sol\":9501:9640  if(m_User_Map[msg.sender].Referer_Address== address(0))\r... */\n    tag_415:\n        /* \"contracts/MFI_HECO_PATCH.sol\":9702:9714  block.number */\n      number\n        /* \"contracts/MFI_HECO_PATCH.sol\":9650:9660  m_User_Map */\n      0x26\n        /* \"contracts/MFI_HECO_PATCH.sol\":9650:9672  m_User_Map[msg.sender] */\n      0x00\n        /* \"contracts/MFI_HECO_PATCH.sol\":9661:9671  msg.sender */\n      caller\n        /* \"contracts/MFI_HECO_PATCH.sol\":9650:9672  m_User_Map[msg.sender] */\n      0xffffffffffffffffffffffffffffffffffffffff\n      and\n      0xffffffffffffffffffffffffffffffffffffffff\n      and\n      dup2\n      mstore\n      0x20\n      add\n      swap1\n      dup2\n      mstore\n      0x20\n      add\n      0x00\n      keccak256\n        /* \"contracts/MFI_HECO_PATCH.sol\":9650:9700  m_User_Map[msg.sender].Stacking_Block_Number_Start */\n      0x0b\n      add\n        /* \"contracts/MFI_HECO_PATCH.sol\":9650:9714  m_User_Map[msg.sender].Stacking_Block_Number_Start= block.number */\n      dup2\n      swap1\n      sstore\n      pop\n        /* \"contracts/MFI_HECO_PATCH.sol\":9802:9844  m_Sum_Of_Weighted_Stacking_Reciprocal_e128 */\n      0x1b\n        /* \"contracts/MFI_HECO_PATCH.sol\":9725:9735  m_User_Map */\n      0x26\n        /* \"contracts/MFI_HECO_PATCH.sol\":9725:9747  m_User_Map[msg.sender] */\n      0x00\n        /* \"contracts/MFI_HECO_PATCH.sol\":9736:9746  msg.sender */\n      caller\n        /* \"contracts/MFI_HECO_PATCH.sol\":9725:9747  m_User_Map[msg.sender] */\n      0xffffffffffffffffffffffffffffffffffffffff\n      and\n      0xffffffffffffffffffffffffffffffffffffffff\n      and\n      dup2\n      mstore\n      0x20\n      add\n      swap1\n      dup2\n      mstore\n      0x20\n      add\n      0x00\n      keccak256\n        /* \"contracts/MFI_HECO_PATCH.sol\":9725:9801  m_User_Map[msg.sender].Last_Updated_Sum_Of_Weighted_Stacking_Reciprocal_e128 */\n      0x0d\n      add\n        /* \"contracts/MFI_HECO_PATCH.sol\":9725:9844  m_User_Map[msg.sender].Last_Updated_Sum_Of_Weighted_Stacking_Reciprocal_e128=m_Sum_Of_Weighted_Stacking_Reciprocal_e128 */\n      swap1\n      0x08\n      tag_416\n      swap3\n      swap2\n      swap1\n      tag_417\n      jump\t// in\n    tag_416:\n      pop\n        /* \"contracts/MFI_HECO_PATCH.sol\":9903:9909  uint i */\n      0x00\n        /* \"contracts/MFI_HECO_PATCH.sol\":9899:10011  for(uint i=0;i<8;i++)\r... */\n    tag_418:\n        /* \"contracts/MFI_HECO_PATCH.sol\":9914:9915  8 */\n      0x08\n        /* \"contracts/MFI_HECO_PATCH.sol\":9912:9913  i */\n      dup2\n        /* \"contracts/MFI_HECO_PATCH.sol\":9912:9915  i<8 */\n      lt\n        /* \"contracts/MFI_HECO_PATCH.sol\":9899:10011  for(uint i=0;i<8;i++)\r... */\n      iszero\n      tag_419\n      jumpi\n        /* \"contracts/MFI_HECO_PATCH.sol\":9987:9999  block.number */\n      number\n        /* \"contracts/MFI_HECO_PATCH.sol\":9941:9951  m_User_Map */\n      0x26\n        /* \"contracts/MFI_HECO_PATCH.sol\":9941:9963  m_User_Map[msg.sender] */\n      0x00\n        /* \"contracts/MFI_HECO_PATCH.sol\":9952:9962  msg.sender */\n      caller\n        /* \"contracts/MFI_HECO_PATCH.sol\":9941:9963  m_User_Map[msg.sender] */\n      0xffffffffffffffffffffffffffffffffffffffff\n      and\n      0xffffffffffffffffffffffffffffffffffffffff\n      and\n      dup2\n      mstore\n      0x20\n      add\n      swap1\n      dup2\n      mstore\n      0x20\n      add\n      0x00\n      keccak256\n        /* \"contracts/MFI_HECO_PATCH.sol\":9941:9983  m_User_Map[msg.sender].Block_of_Last_Stack */\n      0x25\n      add\n        /* \"contracts/MFI_HECO_PATCH.sol\":9984:9985  i */\n      dup3\n        /* \"contracts/MFI_HECO_PATCH.sol\":9941:9986  m_User_Map[msg.sender].Block_of_Last_Stack[i] */\n      0x08\n      dup2\n      lt\n      tag_421\n      jumpi\n      invalid\n    tag_421:\n      add\n        /* \"contracts/MFI_HECO_PATCH.sol\":9941:9999  m_User_Map[msg.sender].Block_of_Last_Stack[i]=block.number */\n      dup2\n      swap1\n      sstore\n      pop\n        /* \"contracts/MFI_HECO_PATCH.sol\":9916:9919  i++ */\n      dup1\n      dup1\n      0x01\n      add\n      swap2\n      pop\n      pop\n        /* \"contracts/MFI_HECO_PATCH.sol\":9899:10011  for(uint i=0;i<8;i++)\r... */\n      jump(tag_418)\n    tag_419:\n      pop\n        /* \"contracts/MFI_HECO_PATCH.sol\":10041:10051  msg.sender */\n      caller\n        /* \"contracts/MFI_HECO_PATCH.sol\":10026:10091  EVENT_REGISTER(msg.sender,m_User_Map[msg.sender].Referer_Address) */\n      0xffffffffffffffffffffffffffffffffffffffff\n      and\n      0x66f024455ac5126246bc81854fb46d7bd5ee45cb55639a6a42f5bc4a9cd3a5f8\n        /* \"contracts/MFI_HECO_PATCH.sol\":10052:10062  m_User_Map */\n      0x26\n        /* \"contracts/MFI_HECO_PATCH.sol\":10052:10074  m_User_Map[msg.sender] */\n      0x00\n        /* \"contracts/MFI_HECO_PATCH.sol\":10063:10073  msg.sender */\n      caller\n        /* \"contracts/MFI_HECO_PATCH.sol\":10052:10074  m_User_Map[msg.sender] */\n      0xffffffffffffffffffffffffffffffffffffffff\n      and\n      0xffffffffffffffffffffffffffffffffffffffff\n      and\n      dup2\n      mstore\n      0x20\n      add\n      swap1\n      dup2\n      mstore\n      0x20\n      add\n      0x00\n      keccak256\n        /* \"contracts/MFI_HECO_PATCH.sol\":10052:10090  m_User_Map[msg.sender].Referer_Address */\n      0x01\n      add\n      0x00\n      swap1\n      sload\n      swap1\n      0x0100\n      exp\n      swap1\n      div\n      0xffffffffffffffffffffffffffffffffffffffff\n      and\n        /* \"contracts/MFI_HECO_PATCH.sol\":10026:10091  EVENT_REGISTER(msg.sender,m_User_Map[msg.sender].Referer_Address) */\n      mload(0x40)\n      dup1\n      dup3\n      0xffffffffffffffffffffffffffffffffffffffff\n      and\n      dup2\n      mstore\n      0x20\n      add\n      swap2\n      pop\n      pop\n      mload(0x40)\n      dup1\n      swap2\n      sub\n      swap1\n      log2\n        /* \"contracts/MFI_HECO_PATCH.sol\":10109:10113  true */\n      0x01\n        /* \"contracts/MFI_HECO_PATCH.sol\":10102:10113  return true */\n      swap1\n      pop\n        /* \"contracts/MFI_HECO_PATCH.sol\":9006:10121  function Do_Registering(address referer) public  NotGamePause returns(bool){\r... */\n      swap2\n      swap1\n      pop\n      jump\t// out\n        /* \"contracts/MFI_HECO_PATCH.sol\":8081:8278  function Get_User_Block_of_Last_Stack(address user ) public view returns(  uint[8] memory)\r... */\n    tag_176:\n        /* \"contracts/MFI_HECO_PATCH.sol\":8156:8170  uint[8] memory */\n      tag_423\n      tag_238\n      jump\t// in\n    tag_423:\n        /* \"contracts/MFI_HECO_PATCH.sol\":8220:8230  m_User_Map */\n      0x26\n        /* \"contracts/MFI_HECO_PATCH.sol\":8220:8236  m_User_Map[user] */\n      0x00\n        /* \"contracts/MFI_HECO_PATCH.sol\":8231:8235  user */\n      dup4\n        /* \"contracts/MFI_HECO_PATCH.sol\":8220:8236  m_User_Map[user] */\n      0xffffffffffffffffffffffffffffffffffffffff\n      and\n      0xffffffffffffffffffffffffffffffffffffffff\n      and\n      dup2\n      mstore\n      0x20\n      add\n      swap1\n      dup2\n      mstore\n      0x20\n      add\n      0x00\n      keccak256\n        /* \"contracts/MFI_HECO_PATCH.sol\":8220:8257  m_User_Map[user]. Block_of_Last_Stack */\n      0x25\n      add\n        /* \"contracts/MFI_HECO_PATCH.sol\":8191:8269  return\r... */\n      0x08\n      dup1\n      0x20\n      mul\n      mload(0x40)\n      swap1\n      dup2\n      add\n      0x40\n      mstore\n      dup1\n      swap3\n      swap2\n      swap1\n      dup3\n      0x08\n      dup1\n      iszero\n      tag_425\n      jumpi\n      0x20\n      mul\n      dup3\n      add\n      swap2\n    tag_426:\n      dup2\n      sload\n      dup2\n      mstore\n      0x20\n      add\n      swap1\n      0x01\n      add\n      swap1\n      dup1\n      dup4\n      gt\n      tag_426\n      jumpi\n    tag_425:\n      pop\n      pop\n      pop\n      pop\n      pop\n      swap1\n      pop\n        /* \"contracts/MFI_HECO_PATCH.sol\":8081:8278  function Get_User_Block_of_Last_Stack(address user ) public view returns(  uint[8] memory)\r... */\n      swap2\n      swap1\n      pop\n      jump\t// out\n        /* \"contracts/MFI_HECO_PATCH.sol\":4690:4750  uint256 [8]public m_Sum_Of_Weighted_Stacking_Reciprocal_e128 */\n    tag_183:\n      0x1b\n      dup2\n      0x08\n      dup2\n      lt\n      tag_427\n      jumpi\n      invalid\n    tag_427:\n      add\n      0x00\n      swap2\n      pop\n      swap1\n      pop\n      sload\n      dup2\n      jump\t// out\n        /* \"contracts/MFI_HECO_PATCH.sol\":3863:3914  uint256 public m_Block_weight_of_Total_Stack_Option */\n    tag_186:\n      sload(0x0a)\n      dup2\n      jump\t// out\n        /* \"contracts/MFI_HECO_PATCH.sol\":10127:13233  function Do_Stacking(uint period_id,uint stacking_amount) public OnlyRegistered  NotGamePause returns(bool){\r... */\n    tag_190:\n        /* \"contracts/MFI_HECO_PATCH.sol\":10229:10233  bool */\n      0x00\n        /* \"contracts/MFI_HECO_PATCH.sol\":5301:5305  true */\n      0x01\n        /* \"contracts/MFI_HECO_PATCH.sol\":5266:5305  m_User_Map[msg.sender].Registered==true */\n      iszero\n      iszero\n        /* \"contracts/MFI_HECO_PATCH.sol\":5266:5276  m_User_Map */\n      0x26\n        /* \"contracts/MFI_HECO_PATCH.sol\":5266:5288  m_User_Map[msg.sender] */\n      0x00\n        /* \"contracts/MFI_HECO_PATCH.sol\":5277:5287  msg.sender */\n      caller\n        /* \"contracts/MFI_HECO_PATCH.sol\":5266:5288  m_User_Map[msg.sender] */\n      0xffffffffffffffffffffffffffffffffffffffff\n      and\n      0xffffffffffffffffffffffffffffffffffffffff\n      and\n      dup2\n      mstore\n      0x20\n      add\n      swap1\n      dup2\n      mstore\n      0x20\n      add\n      0x00\n      keccak256\n        /* \"contracts/MFI_HECO_PATCH.sol\":5266:5299  m_User_Map[msg.sender].Registered */\n      0x00\n      add\n      0x00\n      swap1\n      sload\n      swap1\n      0x0100\n      exp\n      swap1\n      div\n      0xff\n      and\n        /* \"contracts/MFI_HECO_PATCH.sol\":5266:5305  m_User_Map[msg.sender].Registered==true */\n      iszero\n      iszero\n      eq\n        /* \"contracts/MFI_HECO_PATCH.sol\":5258:5306  require(m_User_Map[msg.sender].Registered==true) */\n      tag_430\n      jumpi\n      0x00\n      dup1\n      revert\n    tag_430:\n        /* \"contracts/MFI_HECO_PATCH.sol\":5185:5189  true */\n      0x01\n        /* \"contracts/MFI_HECO_PATCH.sol\":5171:5189  m_Game_Pause!=true */\n      iszero\n      iszero\n        /* \"contracts/MFI_HECO_PATCH.sol\":5171:5183  m_Game_Pause */\n      0x24\n      0x00\n      swap1\n      sload\n      swap1\n      0x0100\n      exp\n      swap1\n      div\n      0xff\n      and\n        /* \"contracts/MFI_HECO_PATCH.sol\":5171:5189  m_Game_Pause!=true */\n      iszero\n      iszero\n      eq\n      iszero\n        /* \"contracts/MFI_HECO_PATCH.sol\":5163:5190  require(m_Game_Pause!=true) */\n      tag_432\n      jumpi\n      0x00\n      dup1\n      revert\n    tag_432:\n        /* \"contracts/MFI_HECO_PATCH.sol\":10248:10266  uint256 exa_amount */\n      0x00\n        /* \"contracts/MFI_HECO_PATCH.sol\":10282:10301  uint256 old_balance */\n      dup1\n        /* \"contracts/MFI_HECO_PATCH.sol\":10318:10336  m_Stacking_Address */\n      0x14\n      0x00\n      swap1\n      sload\n      swap1\n      0x0100\n      exp\n      swap1\n      div\n      0xffffffffffffffffffffffffffffffffffffffff\n      and\n        /* \"contracts/MFI_HECO_PATCH.sol\":10303:10347  ERC20Interface(m_Stacking_Address).balanceOf */\n      0xffffffffffffffffffffffffffffffffffffffff\n      and\n      0x70a08231\n        /* \"contracts/MFI_HECO_PATCH.sol\":10356:10360  this */\n      address\n        /* \"contracts/MFI_HECO_PATCH.sol\":10303:10362  ERC20Interface(m_Stacking_Address).balanceOf(address(this)) */\n      mload(0x40)\n      dup3\n      0xffffffff\n      and\n      0xe0\n      shl\n      dup2\n      mstore\n      0x04\n      add\n      dup1\n      dup3\n      0xffffffffffffffffffffffffffffffffffffffff\n      and\n      dup2\n      mstore\n      0x20\n      add\n      swap2\n      pop\n      pop\n      0x20\n      mload(0x40)\n      dup1\n      dup4\n      sub\n      dup2\n      dup7\n      dup1\n      extcodesize\n      iszero\n      dup1\n      iszero\n      tag_434\n      jumpi\n      0x00\n      dup1\n      revert\n    tag_434:\n      pop\n      gas\n      staticcall\n      iszero\n      dup1\n      iszero\n      tag_436\n      jumpi\n      returndatasize\n      0x00\n      dup1\n      returndatacopy\n      revert(0x00, returndatasize)\n    tag_436:\n      pop\n      pop\n      pop\n      pop\n      mload(0x40)\n      returndatasize\n      0x20\n      dup2\n      lt\n      iszero\n      tag_437\n      jumpi\n      0x00\n      dup1\n      revert\n    tag_437:\n      dup2\n      add\n      swap1\n      dup1\n      dup1\n      mload\n      swap1\n      0x20\n      add\n      swap1\n      swap3\n      swap2\n      swap1\n      pop\n      pop\n      pop\n        /* \"contracts/MFI_HECO_PATCH.sol\":10282:10362  uint256 old_balance= ERC20Interface(m_Stacking_Address).balanceOf(address(this)) */\n      swap1\n      pop\n        /* \"contracts/MFI_HECO_PATCH.sol\":10423:10431  bool res */\n      0x00\n        /* \"contracts/MFI_HECO_PATCH.sol\":10471:10489  m_Stacking_Address */\n      0x14\n      0x00\n      swap1\n      sload\n      swap1\n      0x0100\n      exp\n      swap1\n      div\n      0xffffffffffffffffffffffffffffffffffffffff\n      and\n        /* \"contracts/MFI_HECO_PATCH.sol\":10456:10503  ERC20Interface(m_Stacking_Address).transferFrom */\n      0xffffffffffffffffffffffffffffffffffffffff\n      and\n      0x23b872dd\n        /* \"contracts/MFI_HECO_PATCH.sol\":10504:10514  msg.sender */\n      caller\n        /* \"contracts/MFI_HECO_PATCH.sol\":10524:10528  this */\n      address\n        /* \"contracts/MFI_HECO_PATCH.sol\":10530:10545  stacking_amount */\n      dup9\n        /* \"contracts/MFI_HECO_PATCH.sol\":10456:10546  ERC20Interface(m_Stacking_Address).transferFrom(msg.sender, address(this),stacking_amount) */\n      mload(0x40)\n      dup5\n      0xffffffff\n      and\n      0xe0\n      shl\n      dup2\n      mstore\n      0x04\n      add\n      dup1\n      dup5\n      0xffffffffffffffffffffffffffffffffffffffff\n      and\n      dup2\n      mstore\n      0x20\n      add\n      dup4\n      0xffffffffffffffffffffffffffffffffffffffff\n      and\n      dup2\n      mstore\n      0x20\n      add\n      dup3\n      dup2\n      mstore\n      0x20\n      add\n      swap4\n      pop\n      pop\n      pop\n      pop\n      0x20\n      mload(0x40)\n      dup1\n      dup4\n      sub\n      dup2\n      0x00\n      dup8\n      dup1\n      extcodesize\n      iszero\n      dup1\n      iszero\n      tag_438\n      jumpi\n      0x00\n      dup1\n      revert\n    tag_438:\n      pop\n      gas\n      call\n      iszero\n      dup1\n      iszero\n      tag_440\n      jumpi\n      returndatasize\n      0x00\n      dup1\n      returndatacopy\n      revert(0x00, returndatasize)\n    tag_440:\n      pop\n      pop\n      pop\n      pop\n      mload(0x40)\n      returndatasize\n      0x20\n      dup2\n      lt\n      iszero\n      tag_441\n      jumpi\n      0x00\n      dup1\n      revert\n    tag_441:\n      dup2\n      add\n      swap1\n      dup1\n      dup1\n      mload\n      swap1\n      0x20\n      add\n      swap1\n      swap3\n      swap2\n      swap1\n      pop\n      pop\n      pop\n        /* \"contracts/MFI_HECO_PATCH.sol\":10452:10546  res=ERC20Interface(m_Stacking_Address).transferFrom(msg.sender, address(this),stacking_amount) */\n      swap1\n      pop\n        /* \"contracts/MFI_HECO_PATCH.sol\":10570:10575  false */\n      0x00\n        /* \"contracts/MFI_HECO_PATCH.sol\":10564:10575  res ==false */\n      iszero\n      iszero\n        /* \"contracts/MFI_HECO_PATCH.sol\":10564:10567  res */\n      dup2\n        /* \"contracts/MFI_HECO_PATCH.sol\":10564:10575  res ==false */\n      iszero\n      iszero\n      eq\n        /* \"contracts/MFI_HECO_PATCH.sol\":10561:10683  if(res ==false)\r... */\n      iszero\n      tag_442\n      jumpi\n        /* \"contracts/MFI_HECO_PATCH.sol\":10659:10667  revert() */\n      0x00\n      dup1\n      revert\n        /* \"contracts/MFI_HECO_PATCH.sol\":10561:10683  if(res ==false)\r... */\n    tag_442:\n        /* \"contracts/MFI_HECO_PATCH.sol\":10697:10716  uint256 new_balance */\n      0x00\n        /* \"contracts/MFI_HECO_PATCH.sol\":10733:10751  m_Stacking_Address */\n      0x14\n      0x00\n      swap1\n      sload\n      swap1\n      0x0100\n      exp\n      swap1\n      div\n      0xffffffffffffffffffffffffffffffffffffffff\n      and\n        /* \"contracts/MFI_HECO_PATCH.sol\":10718:10762  ERC20Interface(m_Stacking_Address).balanceOf */\n      0xffffffffffffffffffffffffffffffffffffffff\n      and\n      0x70a08231\n        /* \"contracts/MFI_HECO_PATCH.sol\":10771:10775  this */\n      address\n        /* \"contracts/MFI_HECO_PATCH.sol\":10718:10777  ERC20Interface(m_Stacking_Address).balanceOf(address(this)) */\n      mload(0x40)\n      dup3\n      0xffffffff\n      and\n      0xe0\n      shl\n      dup2\n      mstore\n      0x04\n      add\n      dup1\n      dup3\n      0xffffffffffffffffffffffffffffffffffffffff\n      and\n      dup2\n      mstore\n      0x20\n      add\n      swap2\n      pop\n      pop\n      0x20\n      mload(0x40)\n      dup1\n      dup4\n      sub\n      dup2\n      dup7\n      dup1\n      extcodesize\n      iszero\n      dup1\n      iszero\n      tag_443\n      jumpi\n      0x00\n      dup1\n      revert\n    tag_443:\n      pop\n      gas\n      staticcall\n      iszero\n      dup1\n      iszero\n      tag_445\n      jumpi\n      returndatasize\n      0x00\n      dup1\n      returndatacopy\n      revert(0x00, returndatasize)\n    tag_445:\n      pop\n      pop\n      pop\n      pop\n      mload(0x40)\n      returndatasize\n      0x20\n      dup2\n      lt\n      iszero\n      tag_446\n      jumpi\n      0x00\n      dup1\n      revert\n    tag_446:\n      dup2\n      add\n      swap1\n      dup1\n      dup1\n      mload\n      swap1\n      0x20\n      add\n      swap1\n      swap3\n      swap2\n      swap1\n      pop\n      pop\n      pop\n        /* \"contracts/MFI_HECO_PATCH.sol\":10697:10777  uint256 new_balance= ERC20Interface(m_Stacking_Address).balanceOf(address(this)) */\n      swap1\n      pop\n        /* \"contracts/MFI_HECO_PATCH.sol\":10803:10831  new_balance.sub(old_balance) */\n      tag_447\n        /* \"contracts/MFI_HECO_PATCH.sol\":10819:10830  old_balance */\n      dup4\n        /* \"contracts/MFI_HECO_PATCH.sol\":10803:10814  new_balance */\n      dup3\n        /* \"contracts/MFI_HECO_PATCH.sol\":10803:10818  new_balance.sub */\n      tag_266\n      swap1\n        /* \"contracts/MFI_HECO_PATCH.sol\":10803:10831  new_balance.sub(old_balance) */\n      swap2\n      swap1\n      0xffffffff\n      and\n      jump\t// in\n    tag_447:\n        /* \"contracts/MFI_HECO_PATCH.sol\":10792:10831  exa_amount=new_balance.sub(old_balance) */\n      swap4\n      pop\n        /* \"contracts/MFI_HECO_PATCH.sol\":10860:10887  uint256 old_stacking_amount */\n      0x00\n        /* \"contracts/MFI_HECO_PATCH.sol\":10888:10898  m_User_Map */\n      0x26\n        /* \"contracts/MFI_HECO_PATCH.sol\":10888:10910  m_User_Map[msg.sender] */\n      0x00\n        /* \"contracts/MFI_HECO_PATCH.sol\":10899:10909  msg.sender */\n      caller\n        /* \"contracts/MFI_HECO_PATCH.sol\":10888:10910  m_User_Map[msg.sender] */\n      0xffffffffffffffffffffffffffffffffffffffff\n      and\n      0xffffffffffffffffffffffffffffffffffffffff\n      and\n      dup2\n      mstore\n      0x20\n      add\n      swap1\n      dup2\n      mstore\n      0x20\n      add\n      0x00\n      keccak256\n        /* \"contracts/MFI_HECO_PATCH.sol\":10888:10926  m_User_Map[msg.sender].Stacking_Amount */\n      0x02\n      add\n      sload\n        /* \"contracts/MFI_HECO_PATCH.sol\":10860:10926  uint256 old_stacking_amount=m_User_Map[msg.sender].Stacking_Amount */\n      swap1\n      pop\n        /* \"contracts/MFI_HECO_PATCH.sol\":10987:11007  Update_Global_Data() */\n      tag_448\n        /* \"contracts/MFI_HECO_PATCH.sol\":10987:11005  Update_Global_Data */\n      tag_292\n        /* \"contracts/MFI_HECO_PATCH.sol\":10987:11007  Update_Global_Data() */\n      jump\t// in\n    tag_448:\n        /* \"contracts/MFI_HECO_PATCH.sol\":11022:11045  Update_User(msg.sender) */\n      tag_449\n        /* \"contracts/MFI_HECO_PATCH.sol\":11034:11044  msg.sender */\n      caller\n        /* \"contracts/MFI_HECO_PATCH.sol\":11022:11033  Update_User */\n      tag_294\n        /* \"contracts/MFI_HECO_PATCH.sol\":11022:11045  Update_User(msg.sender) */\n      jump\t// in\n    tag_449:\n        /* \"contracts/MFI_HECO_PATCH.sol\":11114:11126  block.number */\n      number\n        /* \"contracts/MFI_HECO_PATCH.sol\":11060:11070  m_User_Map */\n      0x26\n        /* \"contracts/MFI_HECO_PATCH.sol\":11060:11082  m_User_Map[msg.sender] */\n      0x00\n        /* \"contracts/MFI_HECO_PATCH.sol\":11071:11081  msg.sender */\n      caller\n        /* \"contracts/MFI_HECO_PATCH.sol\":11060:11082  m_User_Map[msg.sender] */\n      0xffffffffffffffffffffffffffffffffffffffff\n      and\n      0xffffffffffffffffffffffffffffffffffffffff\n      and\n      dup2\n      mstore\n      0x20\n      add\n      swap1\n      dup2\n      mstore\n      0x20\n      add\n      0x00\n      keccak256\n        /* \"contracts/MFI_HECO_PATCH.sol\":11060:11113  m_User_Map[msg.sender].Stacking_Operation_Block_Stamp */\n      0x0c\n      add\n        /* \"contracts/MFI_HECO_PATCH.sol\":11060:11126  m_User_Map[msg.sender].Stacking_Operation_Block_Stamp=block.number */\n      dup2\n      swap1\n      sstore\n      pop\n        /* \"contracts/MFI_HECO_PATCH.sol\":11195:11207  block.number */\n      number\n        /* \"contracts/MFI_HECO_PATCH.sol\":11141:11151  m_User_Map */\n      0x26\n        /* \"contracts/MFI_HECO_PATCH.sol\":11141:11163  m_User_Map[msg.sender] */\n      0x00\n        /* \"contracts/MFI_HECO_PATCH.sol\":11152:11162  msg.sender */\n      caller\n        /* \"contracts/MFI_HECO_PATCH.sol\":11141:11163  m_User_Map[msg.sender] */\n      0xffffffffffffffffffffffffffffffffffffffff\n      and\n      0xffffffffffffffffffffffffffffffffffffffff\n      and\n      dup2\n      mstore\n      0x20\n      add\n      swap1\n      dup2\n      mstore\n      0x20\n      add\n      0x00\n      keccak256\n        /* \"contracts/MFI_HECO_PATCH.sol\":11141:11183  m_User_Map[msg.sender].Block_of_Last_Stack */\n      0x25\n      add\n        /* \"contracts/MFI_HECO_PATCH.sol\":11184:11193  period_id */\n      dup10\n        /* \"contracts/MFI_HECO_PATCH.sol\":11141:11194  m_User_Map[msg.sender].Block_of_Last_Stack[period_id] */\n      0x08\n      dup2\n      lt\n      tag_450\n      jumpi\n      invalid\n    tag_450:\n      add\n        /* \"contracts/MFI_HECO_PATCH.sol\":11141:11207  m_User_Map[msg.sender].Block_of_Last_Stack[period_id]=block.number */\n      dup2\n      swap1\n      sstore\n      pop\n        /* \"contracts/MFI_HECO_PATCH.sol\":11313:11345  m_Total_Stacking.add(exa_amount) */\n      tag_452\n        /* \"contracts/MFI_HECO_PATCH.sol\":11334:11344  exa_amount */\n      dup6\n        /* \"contracts/MFI_HECO_PATCH.sol\":11313:11329  m_Total_Stacking */\n      sload(0x18)\n        /* \"contracts/MFI_HECO_PATCH.sol\":11313:11333  m_Total_Stacking.add */\n      tag_276\n      swap1\n        /* \"contracts/MFI_HECO_PATCH.sol\":11313:11345  m_Total_Stacking.add(exa_amount) */\n      swap2\n      swap1\n      0xffffffff\n      and\n      jump\t// in\n    tag_452:\n        /* \"contracts/MFI_HECO_PATCH.sol\":11296:11312  m_Total_Stacking */\n      0x18\n        /* \"contracts/MFI_HECO_PATCH.sol\":11296:11345  m_Total_Stacking=m_Total_Stacking.add(exa_amount) */\n      dup2\n      swap1\n      sstore\n      pop\n        /* \"contracts/MFI_HECO_PATCH.sol\":11439:11449  exa_amount */\n      dup5\n        /* \"contracts/MFI_HECO_PATCH.sol\":11400:11410  m_User_Map */\n      0x26\n        /* \"contracts/MFI_HECO_PATCH.sol\":11400:11422  m_User_Map[msg.sender] */\n      0x00\n        /* \"contracts/MFI_HECO_PATCH.sol\":11411:11421  msg.sender */\n      caller\n        /* \"contracts/MFI_HECO_PATCH.sol\":11400:11422  m_User_Map[msg.sender] */\n      0xffffffffffffffffffffffffffffffffffffffff\n      and\n      0xffffffffffffffffffffffffffffffffffffffff\n      and\n      dup2\n      mstore\n      0x20\n      add\n      swap1\n      dup2\n      mstore\n      0x20\n      add\n      0x00\n      keccak256\n        /* \"contracts/MFI_HECO_PATCH.sol\":11400:11438  m_User_Map[msg.sender].Stacking_Amount */\n      0x02\n      add\n      sload\n        /* \"contracts/MFI_HECO_PATCH.sol\":11400:11449  m_User_Map[msg.sender].Stacking_Amount+exa_amount */\n      add\n        /* \"contracts/MFI_HECO_PATCH.sol\":11360:11370  m_User_Map */\n      0x26\n        /* \"contracts/MFI_HECO_PATCH.sol\":11360:11382  m_User_Map[msg.sender] */\n      0x00\n        /* \"contracts/MFI_HECO_PATCH.sol\":11371:11381  msg.sender */\n      caller\n        /* \"contracts/MFI_HECO_PATCH.sol\":11360:11382  m_User_Map[msg.sender] */\n      0xffffffffffffffffffffffffffffffffffffffff\n      and\n      0xffffffffffffffffffffffffffffffffffffffff\n      and\n      dup2\n      mstore\n      0x20\n      add\n      swap1\n      dup2\n      mstore\n      0x20\n      add\n      0x00\n      keccak256\n        /* \"contracts/MFI_HECO_PATCH.sol\":11360:11398  m_User_Map[msg.sender].Stacking_Amount */\n      0x02\n      add\n        /* \"contracts/MFI_HECO_PATCH.sol\":11360:11449  m_User_Map[msg.sender].Stacking_Amount= m_User_Map[msg.sender].Stacking_Amount+exa_amount */\n      dup2\n      swap1\n      sstore\n      pop\n        /* \"contracts/MFI_HECO_PATCH.sol\":11575:11585  exa_amount */\n      dup5\n        /* \"contracts/MFI_HECO_PATCH.sol\":11524:11534  m_User_Map */\n      0x26\n        /* \"contracts/MFI_HECO_PATCH.sol\":11524:11546  m_User_Map[msg.sender] */\n      0x00\n        /* \"contracts/MFI_HECO_PATCH.sol\":11535:11545  msg.sender */\n      caller\n        /* \"contracts/MFI_HECO_PATCH.sol\":11524:11546  m_User_Map[msg.sender] */\n      0xffffffffffffffffffffffffffffffffffffffff\n      and\n      0xffffffffffffffffffffffffffffffffffffffff\n      and\n      dup2\n      mstore\n      0x20\n      add\n      swap1\n      dup2\n      mstore\n      0x20\n      add\n      0x00\n      keccak256\n        /* \"contracts/MFI_HECO_PATCH.sol\":11524:11563  m_User_Map[msg.sender].Stacking_Amounts */\n      0x1d\n      add\n        /* \"contracts/MFI_HECO_PATCH.sol\":11564:11573  period_id */\n      dup10\n        /* \"contracts/MFI_HECO_PATCH.sol\":11524:11574  m_User_Map[msg.sender].Stacking_Amounts[period_id] */\n      0x08\n      dup2\n      lt\n      tag_453\n      jumpi\n      invalid\n    tag_453:\n      add\n      sload\n        /* \"contracts/MFI_HECO_PATCH.sol\":11524:11585  m_User_Map[msg.sender].Stacking_Amounts[period_id]+exa_amount */\n      add\n        /* \"contracts/MFI_HECO_PATCH.sol\":11472:11482  m_User_Map */\n      0x26\n        /* \"contracts/MFI_HECO_PATCH.sol\":11472:11494  m_User_Map[msg.sender] */\n      0x00\n        /* \"contracts/MFI_HECO_PATCH.sol\":11483:11493  msg.sender */\n      caller\n        /* \"contracts/MFI_HECO_PATCH.sol\":11472:11494  m_User_Map[msg.sender] */\n      0xffffffffffffffffffffffffffffffffffffffff\n      and\n      0xffffffffffffffffffffffffffffffffffffffff\n      and\n      dup2\n      mstore\n      0x20\n      add\n      swap1\n      dup2\n      mstore\n      0x20\n      add\n      0x00\n      keccak256\n        /* \"contracts/MFI_HECO_PATCH.sol\":11472:11511  m_User_Map[msg.sender].Stacking_Amounts */\n      0x1d\n      add\n        /* \"contracts/MFI_HECO_PATCH.sol\":11512:11521  period_id */\n      dup10\n        /* \"contracts/MFI_HECO_PATCH.sol\":11472:11522  m_User_Map[msg.sender].Stacking_Amounts[period_id] */\n      0x08\n      dup2\n      lt\n      tag_455\n      jumpi\n      invalid\n    tag_455:\n      add\n        /* \"contracts/MFI_HECO_PATCH.sol\":11472:11585  m_User_Map[msg.sender].Stacking_Amounts[period_id]= m_User_Map[msg.sender].Stacking_Amounts[period_id]+exa_amount */\n      dup2\n      swap1\n      sstore\n      pop\n        /* \"contracts/MFI_HECO_PATCH.sol\":11808:11831  address referer_address */\n      0x00\n        /* \"contracts/MFI_HECO_PATCH.sol\":11832:11861  GetRefererAddress(msg.sender) */\n      tag_457\n        /* \"contracts/MFI_HECO_PATCH.sol\":11850:11860  msg.sender */\n      caller\n        /* \"contracts/MFI_HECO_PATCH.sol\":11832:11849  GetRefererAddress */\n      tag_356\n        /* \"contracts/MFI_HECO_PATCH.sol\":11832:11861  GetRefererAddress(msg.sender) */\n      jump\t// in\n    tag_457:\n        /* \"contracts/MFI_HECO_PATCH.sol\":11808:11861  address referer_address=GetRefererAddress(msg.sender) */\n      swap1\n      pop\n        /* \"contracts/MFI_HECO_PATCH.sol\":11905:11906  0 */\n      0x00\n        /* \"contracts/MFI_HECO_PATCH.sol\":11880:11907  referer_address!=address(0) */\n      0xffffffffffffffffffffffffffffffffffffffff\n      and\n        /* \"contracts/MFI_HECO_PATCH.sol\":11880:11895  referer_address */\n      dup2\n        /* \"contracts/MFI_HECO_PATCH.sol\":11880:11907  referer_address!=address(0) */\n      0xffffffffffffffffffffffffffffffffffffffff\n      and\n      eq\n      iszero\n        /* \"contracts/MFI_HECO_PATCH.sol\":11880:11955  referer_address!=address(0) && m_User_Map[referer_address].Registered==true */\n      dup1\n      iszero\n      tag_458\n      jumpi\n      pop\n        /* \"contracts/MFI_HECO_PATCH.sol\":11951:11955  true */\n      0x01\n        /* \"contracts/MFI_HECO_PATCH.sol\":11911:11955  m_User_Map[referer_address].Registered==true */\n      iszero\n      iszero\n        /* \"contracts/MFI_HECO_PATCH.sol\":11911:11921  m_User_Map */\n      0x26\n        /* \"contracts/MFI_HECO_PATCH.sol\":11911:11938  m_User_Map[referer_address] */\n      0x00\n        /* \"contracts/MFI_HECO_PATCH.sol\":11922:11937  referer_address */\n      dup4\n        /* \"contracts/MFI_HECO_PATCH.sol\":11911:11938  m_User_Map[referer_address] */\n      0xffffffffffffffffffffffffffffffffffffffff\n      and\n      0xffffffffffffffffffffffffffffffffffffffff\n      and\n      dup2\n      mstore\n      0x20\n      add\n      swap1\n      dup2\n      mstore\n      0x20\n      add\n      0x00\n      keccak256\n        /* \"contracts/MFI_HECO_PATCH.sol\":11911:11949  m_User_Map[referer_address].Registered */\n      0x00\n      add\n      0x00\n      swap1\n      sload\n      swap1\n      0x0100\n      exp\n      swap1\n      div\n      0xff\n      and\n        /* \"contracts/MFI_HECO_PATCH.sol\":11911:11955  m_User_Map[referer_address].Registered==true */\n      iszero\n      iszero\n      eq\n        /* \"contracts/MFI_HECO_PATCH.sol\":11880:11955  referer_address!=address(0) && m_User_Map[referer_address].Registered==true */\n    tag_458:\n        /* \"contracts/MFI_HECO_PATCH.sol\":11877:12044  if(referer_address!=address(0) && m_User_Map[referer_address].Registered==true )\r... */\n      iszero\n      tag_459\n      jumpi\n        /* \"contracts/MFI_HECO_PATCH.sol\":11990:12018  Update_User(referer_address) */\n      tag_460\n        /* \"contracts/MFI_HECO_PATCH.sol\":12002:12017  referer_address */\n      dup2\n        /* \"contracts/MFI_HECO_PATCH.sol\":11990:12001  Update_User */\n      tag_294\n        /* \"contracts/MFI_HECO_PATCH.sol\":11990:12018  Update_User(referer_address) */\n      jump\t// in\n    tag_460:\n        /* \"contracts/MFI_HECO_PATCH.sol\":11877:12044  if(referer_address!=address(0) && m_User_Map[referer_address].Registered==true )\r... */\n    tag_459:\n        /* \"contracts/MFI_HECO_PATCH.sol\":12086:12087  0 */\n      0x00\n        /* \"contracts/MFI_HECO_PATCH.sol\":12061:12088  referer_address!=address(0) */\n      0xffffffffffffffffffffffffffffffffffffffff\n      and\n        /* \"contracts/MFI_HECO_PATCH.sol\":12061:12076  referer_address */\n      dup2\n        /* \"contracts/MFI_HECO_PATCH.sol\":12061:12088  referer_address!=address(0) */\n      0xffffffffffffffffffffffffffffffffffffffff\n      and\n      eq\n        /* \"contracts/MFI_HECO_PATCH.sol\":12058:12273  if(referer_address!=address(0))\r... */\n      tag_461\n      jumpi\n        /* \"contracts/MFI_HECO_PATCH.sol\":12181:12257  m_User_Map[referer_address].Contributed_Amounts[period_id].add(exa_amount/5) */\n      tag_462\n        /* \"contracts/MFI_HECO_PATCH.sol\":12255:12256  5 */\n      0x05\n        /* \"contracts/MFI_HECO_PATCH.sol\":12244:12254  exa_amount */\n      dup8\n        /* \"contracts/MFI_HECO_PATCH.sol\":12244:12256  exa_amount/5 */\n      dup2\n      tag_463\n      jumpi\n      invalid\n    tag_463:\n      div\n        /* \"contracts/MFI_HECO_PATCH.sol\":12181:12191  m_User_Map */\n      0x26\n        /* \"contracts/MFI_HECO_PATCH.sol\":12181:12208  m_User_Map[referer_address] */\n      0x00\n        /* \"contracts/MFI_HECO_PATCH.sol\":12192:12207  referer_address */\n      dup5\n        /* \"contracts/MFI_HECO_PATCH.sol\":12181:12208  m_User_Map[referer_address] */\n      0xffffffffffffffffffffffffffffffffffffffff\n      and\n      0xffffffffffffffffffffffffffffffffffffffff\n      and\n      dup2\n      mstore\n      0x20\n      add\n      swap1\n      dup2\n      mstore\n      0x20\n      add\n      0x00\n      keccak256\n        /* \"contracts/MFI_HECO_PATCH.sol\":12181:12228  m_User_Map[referer_address].Contributed_Amounts */\n      0x15\n      add\n        /* \"contracts/MFI_HECO_PATCH.sol\":12229:12238  period_id */\n      dup12\n        /* \"contracts/MFI_HECO_PATCH.sol\":12181:12239  m_User_Map[referer_address].Contributed_Amounts[period_id] */\n      0x08\n      dup2\n      lt\n      tag_464\n      jumpi\n      invalid\n    tag_464:\n      add\n      sload\n        /* \"contracts/MFI_HECO_PATCH.sol\":12181:12243  m_User_Map[referer_address].Contributed_Amounts[period_id].add */\n      tag_276\n      swap1\n        /* \"contracts/MFI_HECO_PATCH.sol\":12181:12257  m_User_Map[referer_address].Contributed_Amounts[period_id].add(exa_amount/5) */\n      swap2\n      swap1\n      0xffffffff\n      and\n      jump\t// in\n    tag_462:\n        /* \"contracts/MFI_HECO_PATCH.sol\":12122:12132  m_User_Map */\n      0x26\n        /* \"contracts/MFI_HECO_PATCH.sol\":12122:12149  m_User_Map[referer_address] */\n      0x00\n        /* \"contracts/MFI_HECO_PATCH.sol\":12133:12148  referer_address */\n      dup4\n        /* \"contracts/MFI_HECO_PATCH.sol\":12122:12149  m_User_Map[referer_address] */\n      0xffffffffffffffffffffffffffffffffffffffff\n      and\n      0xffffffffffffffffffffffffffffffffffffffff\n      and\n      dup2\n      mstore\n      0x20\n      add\n      swap1\n      dup2\n      mstore\n      0x20\n      add\n      0x00\n      keccak256\n        /* \"contracts/MFI_HECO_PATCH.sol\":12122:12169  m_User_Map[referer_address].Contributed_Amounts */\n      0x15\n      add\n        /* \"contracts/MFI_HECO_PATCH.sol\":12170:12179  period_id */\n      dup11\n        /* \"contracts/MFI_HECO_PATCH.sol\":12122:12180  m_User_Map[referer_address].Contributed_Amounts[period_id] */\n      0x08\n      dup2\n      lt\n      tag_466\n      jumpi\n      invalid\n    tag_466:\n      add\n        /* \"contracts/MFI_HECO_PATCH.sol\":12122:12257  m_User_Map[referer_address].Contributed_Amounts[period_id]=m_User_Map[referer_address].Contributed_Amounts[period_id].add(exa_amount/5) */\n      dup2\n      swap1\n      sstore\n      pop\n        /* \"contracts/MFI_HECO_PATCH.sol\":12058:12273  if(referer_address!=address(0))\r... */\n    tag_461:\n        /* \"contracts/MFI_HECO_PATCH.sol\":12489:12523  GetRefererAddress(referer_address) */\n      tag_468\n        /* \"contracts/MFI_HECO_PATCH.sol\":12507:12522  referer_address */\n      dup2\n        /* \"contracts/MFI_HECO_PATCH.sol\":12489:12506  GetRefererAddress */\n      tag_356\n        /* \"contracts/MFI_HECO_PATCH.sol\":12489:12523  GetRefererAddress(referer_address) */\n      jump\t// in\n    tag_468:\n        /* \"contracts/MFI_HECO_PATCH.sol\":12473:12523  referer_address=GetRefererAddress(referer_address) */\n      swap1\n      pop\n        /* \"contracts/MFI_HECO_PATCH.sol\":12567:12568  0 */\n      0x00\n        /* \"contracts/MFI_HECO_PATCH.sol\":12542:12569  referer_address!=address(0) */\n      0xffffffffffffffffffffffffffffffffffffffff\n      and\n        /* \"contracts/MFI_HECO_PATCH.sol\":12542:12557  referer_address */\n      dup2\n        /* \"contracts/MFI_HECO_PATCH.sol\":12542:12569  referer_address!=address(0) */\n      0xffffffffffffffffffffffffffffffffffffffff\n      and\n      eq\n      iszero\n        /* \"contracts/MFI_HECO_PATCH.sol\":12542:12617  referer_address!=address(0) && m_User_Map[referer_address].Registered==true */\n      dup1\n      iszero\n      tag_469\n      jumpi\n      pop\n        /* \"contracts/MFI_HECO_PATCH.sol\":12613:12617  true */\n      0x01\n        /* \"contracts/MFI_HECO_PATCH.sol\":12573:12617  m_User_Map[referer_address].Registered==true */\n      iszero\n      iszero\n        /* \"contracts/MFI_HECO_PATCH.sol\":12573:12583  m_User_Map */\n      0x26\n        /* \"contracts/MFI_HECO_PATCH.sol\":12573:12600  m_User_Map[referer_address] */\n      0x00\n        /* \"contracts/MFI_HECO_PATCH.sol\":12584:12599  referer_address */\n      dup4\n        /* \"contracts/MFI_HECO_PATCH.sol\":12573:12600  m_User_Map[referer_address] */\n      0xffffffffffffffffffffffffffffffffffffffff\n      and\n      0xffffffffffffffffffffffffffffffffffffffff\n      and\n      dup2\n      mstore\n      0x20\n      add\n      swap1\n      dup2\n      mstore\n      0x20\n      add\n      0x00\n      keccak256\n        /* \"contracts/MFI_HECO_PATCH.sol\":12573:12611  m_User_Map[referer_address].Registered */\n      0x00\n      add\n      0x00\n      swap1\n      sload\n      swap1\n      0x0100\n      exp\n      swap1\n      div\n      0xff\n      and\n        /* \"contracts/MFI_HECO_PATCH.sol\":12573:12617  m_User_Map[referer_address].Registered==true */\n      iszero\n      iszero\n      eq\n        /* \"contracts/MFI_HECO_PATCH.sol\":12542:12617  referer_address!=address(0) && m_User_Map[referer_address].Registered==true */\n    tag_469:\n        /* \"contracts/MFI_HECO_PATCH.sol\":12539:12706  if(referer_address!=address(0) && m_User_Map[referer_address].Registered==true)\r... */\n      iszero\n      tag_470\n      jumpi\n        /* \"contracts/MFI_HECO_PATCH.sol\":12651:12679  Update_User(referer_address) */\n      tag_471\n        /* \"contracts/MFI_HECO_PATCH.sol\":12663:12678  referer_address */\n      dup2\n        /* \"contracts/MFI_HECO_PATCH.sol\":12651:12662  Update_User */\n      tag_294\n        /* \"contracts/MFI_HECO_PATCH.sol\":12651:12679  Update_User(referer_address) */\n      jump\t// in\n    tag_471:\n        /* \"contracts/MFI_HECO_PATCH.sol\":12539:12706  if(referer_address!=address(0) && m_User_Map[referer_address].Registered==true)\r... */\n    tag_470:\n        /* \"contracts/MFI_HECO_PATCH.sol\":12748:12749  0 */\n      0x00\n        /* \"contracts/MFI_HECO_PATCH.sol\":12723:12750  referer_address!=address(0) */\n      0xffffffffffffffffffffffffffffffffffffffff\n      and\n        /* \"contracts/MFI_HECO_PATCH.sol\":12723:12738  referer_address */\n      dup2\n        /* \"contracts/MFI_HECO_PATCH.sol\":12723:12750  referer_address!=address(0) */\n      0xffffffffffffffffffffffffffffffffffffffff\n      and\n      eq\n        /* \"contracts/MFI_HECO_PATCH.sol\":12720:12937  if(referer_address!=address(0))\r... */\n      tag_472\n      jumpi\n        /* \"contracts/MFI_HECO_PATCH.sol\":12844:12921  m_User_Map[referer_address].Contributed_Amounts[period_id].add(exa_amount/10) */\n      tag_473\n        /* \"contracts/MFI_HECO_PATCH.sol\":12918:12920  10 */\n      0x0a\n        /* \"contracts/MFI_HECO_PATCH.sol\":12907:12917  exa_amount */\n      dup8\n        /* \"contracts/MFI_HECO_PATCH.sol\":12907:12920  exa_amount/10 */\n      dup2\n      tag_474\n      jumpi\n      invalid\n    tag_474:\n      div\n        /* \"contracts/MFI_HECO_PATCH.sol\":12844:12854  m_User_Map */\n      0x26\n        /* \"contracts/MFI_HECO_PATCH.sol\":12844:12871  m_User_Map[referer_address] */\n      0x00\n        /* \"contracts/MFI_HECO_PATCH.sol\":12855:12870  referer_address */\n      dup5\n        /* \"contracts/MFI_HECO_PATCH.sol\":12844:12871  m_User_Map[referer_address] */\n      0xffffffffffffffffffffffffffffffffffffffff\n      and\n      0xffffffffffffffffffffffffffffffffffffffff\n      and\n      dup2\n      mstore\n      0x20\n      add\n      swap1\n      dup2\n      mstore\n      0x20\n      add\n      0x00\n      keccak256\n        /* \"contracts/MFI_HECO_PATCH.sol\":12844:12891  m_User_Map[referer_address].Contributed_Amounts */\n      0x15\n      add\n        /* \"contracts/MFI_HECO_PATCH.sol\":12892:12901  period_id */\n      dup12\n        /* \"contracts/MFI_HECO_PATCH.sol\":12844:12902  m_User_Map[referer_address].Contributed_Amounts[period_id] */\n      0x08\n      dup2\n      lt\n      tag_475\n      jumpi\n      invalid\n    tag_475:\n      add\n      sload\n        /* \"contracts/MFI_HECO_PATCH.sol\":12844:12906  m_User_Map[referer_address].Contributed_Amounts[period_id].add */\n      tag_276\n      swap1\n        /* \"contracts/MFI_HECO_PATCH.sol\":12844:12921  m_User_Map[referer_address].Contributed_Amounts[period_id].add(exa_amount/10) */\n      swap2\n      swap1\n      0xffffffff\n      and\n      jump\t// in\n    tag_473:\n        /* \"contracts/MFI_HECO_PATCH.sol\":12785:12795  m_User_Map */\n      0x26\n        /* \"contracts/MFI_HECO_PATCH.sol\":12785:12812  m_User_Map[referer_address] */\n      0x00\n        /* \"contracts/MFI_HECO_PATCH.sol\":12796:12811  referer_address */\n      dup4\n        /* \"contracts/MFI_HECO_PATCH.sol\":12785:12812  m_User_Map[referer_address] */\n      0xffffffffffffffffffffffffffffffffffffffff\n      and\n      0xffffffffffffffffffffffffffffffffffffffff\n      and\n      dup2\n      mstore\n      0x20\n      add\n      swap1\n      dup2\n      mstore\n      0x20\n      add\n      0x00\n      keccak256\n        /* \"contracts/MFI_HECO_PATCH.sol\":12785:12832  m_User_Map[referer_address].Contributed_Amounts */\n      0x15\n      add\n        /* \"contracts/MFI_HECO_PATCH.sol\":12833:12842  period_id */\n      dup11\n        /* \"contracts/MFI_HECO_PATCH.sol\":12785:12843  m_User_Map[referer_address].Contributed_Amounts[period_id] */\n      0x08\n      dup2\n      lt\n      tag_477\n      jumpi\n      invalid\n    tag_477:\n      add\n        /* \"contracts/MFI_HECO_PATCH.sol\":12785:12921  m_User_Map[referer_address].Contributed_Amounts[period_id]=m_User_Map[referer_address].Contributed_Amounts[period_id].add(exa_amount/10) */\n      dup2\n      swap1\n      sstore\n      pop\n        /* \"contracts/MFI_HECO_PATCH.sol\":12720:12937  if(referer_address!=address(0))\r... */\n    tag_472:\n        /* \"contracts/MFI_HECO_PATCH.sol\":13000:13005  15e16 */\n      0x0214e8348c4f0000\n        /* \"contracts/MFI_HECO_PATCH.sol\":12980:12999  old_stacking_amount */\n      dup3\n        /* \"contracts/MFI_HECO_PATCH.sol\":12980:13005  old_stacking_amount<15e16 */\n      lt\n        /* \"contracts/MFI_HECO_PATCH.sol\":12980:13054  old_stacking_amount<15e16 && m_User_Map[msg.sender].Stacking_Amount>=15e16 */\n      dup1\n      iszero\n      tag_479\n      jumpi\n      pop\n        /* \"contracts/MFI_HECO_PATCH.sol\":13049:13054  15e16 */\n      0x0214e8348c4f0000\n        /* \"contracts/MFI_HECO_PATCH.sol\":13009:13019  m_User_Map */\n      0x26\n        /* \"contracts/MFI_HECO_PATCH.sol\":13009:13031  m_User_Map[msg.sender] */\n      0x00\n        /* \"contracts/MFI_HECO_PATCH.sol\":13020:13030  msg.sender */\n      caller\n        /* \"contracts/MFI_HECO_PATCH.sol\":13009:13031  m_User_Map[msg.sender] */\n      0xffffffffffffffffffffffffffffffffffffffff\n      and\n      0xffffffffffffffffffffffffffffffffffffffff\n      and\n      dup2\n      mstore\n      0x20\n      add\n      swap1\n      dup2\n      mstore\n      0x20\n      add\n      0x00\n      keccak256\n        /* \"contracts/MFI_HECO_PATCH.sol\":13009:13047  m_User_Map[msg.sender].Stacking_Amount */\n      0x02\n      add\n      sload\n        /* \"contracts/MFI_HECO_PATCH.sol\":13009:13054  m_User_Map[msg.sender].Stacking_Amount>=15e16 */\n      lt\n      iszero\n        /* \"contracts/MFI_HECO_PATCH.sol\":12980:13054  old_stacking_amount<15e16 && m_User_Map[msg.sender].Stacking_Amount>=15e16 */\n    tag_479:\n        /* \"contracts/MFI_HECO_PATCH.sol\":12977:13133  if(old_stacking_amount<15e16 && m_User_Map[msg.sender].Stacking_Amount>=15e16  )\r... */\n      iszero\n      tag_480\n      jumpi\n        /* \"contracts/MFI_HECO_PATCH.sol\":13116:13117  1 */\n      0x01\n        /* \"contracts/MFI_HECO_PATCH.sol\":13103:13115  m_User_Count */\n      sload(0x19)\n        /* \"contracts/MFI_HECO_PATCH.sol\":13103:13117  m_User_Count+1 */\n      add\n        /* \"contracts/MFI_HECO_PATCH.sol\":13090:13102  m_User_Count */\n      0x19\n        /* \"contracts/MFI_HECO_PATCH.sol\":13090:13117  m_User_Count=m_User_Count+1 */\n      dup2\n      swap1\n      sstore\n      pop\n        /* \"contracts/MFI_HECO_PATCH.sol\":12977:13133  if(old_stacking_amount<15e16 && m_User_Map[msg.sender].Stacking_Amount>=15e16  )\r... */\n    tag_480:\n        /* \"contracts/MFI_HECO_PATCH.sol\":13166:13176  msg.sender */\n      caller\n        /* \"contracts/MFI_HECO_PATCH.sol\":13154:13199  EVENT_STACK(msg.sender,period_id, exa_amount) */\n      0xffffffffffffffffffffffffffffffffffffffff\n      and\n      0x73f90e9312b44db9f93152878d03ae28d85dc9a356b29380fab709cbb4076b52\n        /* \"contracts/MFI_HECO_PATCH.sol\":13177:13186  period_id */\n      dup11\n        /* \"contracts/MFI_HECO_PATCH.sol\":13188:13198  exa_amount */\n      dup9\n        /* \"contracts/MFI_HECO_PATCH.sol\":13154:13199  EVENT_STACK(msg.sender,period_id, exa_amount) */\n      mload(0x40)\n      dup1\n      dup4\n      dup2\n      mstore\n      0x20\n      add\n      dup3\n      dup2\n      mstore\n      0x20\n      add\n      swap3\n      pop\n      pop\n      pop\n      mload(0x40)\n      dup1\n      swap2\n      sub\n      swap1\n      log2\n        /* \"contracts/MFI_HECO_PATCH.sol\":13221:13225  true */\n      0x01\n        /* \"contracts/MFI_HECO_PATCH.sol\":13214:13225  return true */\n      swap7\n      pop\n      pop\n      pop\n      pop\n      pop\n      pop\n      pop\n        /* \"contracts/MFI_HECO_PATCH.sol\":10127:13233  function Do_Stacking(uint period_id,uint stacking_amount) public OnlyRegistered  NotGamePause returns(bool){\r... */\n      swap3\n      swap2\n      pop\n      pop\n      jump\t// out\n        /* \"contracts/MFI_HECO_PATCH.sol\":24722:24855  function Call_Function(address addr,uint256 value ,bytes memory data) public  onlyOwner {\r... */\n    tag_197:\n        /* \"contracts/MFI_HECO_PATCH.sol\":2617:2622  owner */\n      0x00\n      dup1\n      sload\n      swap1\n      0x0100\n      exp\n      swap1\n      div\n      0xffffffffffffffffffffffffffffffffffffffff\n      and\n        /* \"contracts/MFI_HECO_PATCH.sol\":2603:2622  msg.sender == owner */\n      0xffffffffffffffffffffffffffffffffffffffff\n      and\n        /* \"contracts/MFI_HECO_PATCH.sol\":2603:2613  msg.sender */\n      caller\n        /* \"contracts/MFI_HECO_PATCH.sol\":2603:2622  msg.sender == owner */\n      0xffffffffffffffffffffffffffffffffffffffff\n      and\n      eq\n        /* \"contracts/MFI_HECO_PATCH.sol\":2595:2623  require(msg.sender == owner) */\n      tag_482\n      jumpi\n      0x00\n      dup1\n      revert\n    tag_482:\n        /* \"contracts/MFI_HECO_PATCH.sol\":24819:24823  addr */\n      dup3\n        /* \"contracts/MFI_HECO_PATCH.sol\":24819:24828  addr.call */\n      0xffffffffffffffffffffffffffffffffffffffff\n      and\n        /* \"contracts/MFI_HECO_PATCH.sol\":24835:24840  value */\n      dup3\n        /* \"contracts/MFI_HECO_PATCH.sol\":24842:24846  data */\n      dup3\n        /* \"contracts/MFI_HECO_PATCH.sol\":24819:24847  addr.call.value(value)(data) */\n      mload(0x40)\n      dup1\n      dup3\n      dup1\n      mload\n      swap1\n      0x20\n      add\n      swap1\n      dup1\n      dup4\n      dup4\n    tag_484:\n      0x20\n      dup4\n      lt\n      tag_486\n      jumpi\n      dup1\n      mload\n      dup3\n      mstore\n      0x20\n      dup3\n      add\n      swap2\n      pop\n      0x20\n      dup2\n      add\n      swap1\n      pop\n      0x20\n      dup4\n      sub\n      swap3\n      pop\n      jump(tag_484)\n    tag_486:\n      0x01\n      dup4\n      0x20\n      sub\n      0x0100\n      exp\n      sub\n      dup1\n      not\n      dup3\n      mload\n      and\n      dup2\n      dup5\n      mload\n      and\n      dup1\n      dup3\n      or\n      dup6\n      mstore\n      pop\n      pop\n      pop\n      pop\n      pop\n      pop\n      swap1\n      pop\n      add\n      swap2\n      pop\n      pop\n      0x00\n      mload(0x40)\n      dup1\n      dup4\n      sub\n      dup2\n      dup6\n      dup8\n      gas\n      call\n      swap3\n      pop\n      pop\n      pop\n      returndatasize\n      dup1\n      0x00\n      dup2\n      eq\n      tag_489\n      jumpi\n      mload(0x40)\n      swap2\n      pop\n      and(add(returndatasize, 0x3f), not(0x1f))\n      dup3\n      add\n      0x40\n      mstore\n      returndatasize\n      dup3\n      mstore\n      returndatasize\n      0x00\n      0x20\n      dup5\n      add\n      returndatacopy\n      jump(tag_488)\n    tag_489:\n      0x60\n      swap2\n      pop\n    tag_488:\n      pop\n      pop\n      pop\n        /* \"contracts/MFI_HECO_PATCH.sol\":24722:24855  function Call_Function(address addr,uint256 value ,bytes memory data) public  onlyOwner {\r... */\n      pop\n      pop\n      pop\n      jump\t// out\n        /* \"contracts/MFI_HECO_PATCH.sol\":4327:4368  uint public m_Stacking_Block_Number_Start */\n    tag_200:\n      sload(0x16)\n      dup2\n      jump\t// out\n        /* \"contracts/MFI_HECO_PATCH.sol\":24093:24472  function Set_Block_Weight(uint period_id, uint256 block_weight)public onlyOwner\r... */\n    tag_204:\n        /* \"contracts/MFI_HECO_PATCH.sol\":2617:2622  owner */\n      0x00\n      dup1\n      sload\n      swap1\n      0x0100\n      exp\n      swap1\n      div\n      0xffffffffffffffffffffffffffffffffffffffff\n      and\n        /* \"contracts/MFI_HECO_PATCH.sol\":2603:2622  msg.sender == owner */\n      0xffffffffffffffffffffffffffffffffffffffff\n      and\n        /* \"contracts/MFI_HECO_PATCH.sol\":2603:2613  msg.sender */\n      caller\n        /* \"contracts/MFI_HECO_PATCH.sol\":2603:2622  msg.sender == owner */\n      0xffffffffffffffffffffffffffffffffffffffff\n      and\n      eq\n        /* \"contracts/MFI_HECO_PATCH.sol\":2595:2623  require(msg.sender == owner) */\n      tag_491\n      jumpi\n      0x00\n      dup1\n      revert\n    tag_491:\n        /* \"contracts/MFI_HECO_PATCH.sol\":24189:24209  Update_Global_Data() */\n      tag_493\n        /* \"contracts/MFI_HECO_PATCH.sol\":24189:24207  Update_Global_Data */\n      tag_292\n        /* \"contracts/MFI_HECO_PATCH.sol\":24189:24209  Update_Global_Data() */\n      jump\t// in\n    tag_493:\n        /* \"contracts/MFI_HECO_PATCH.sol\":24263:24275  block_weight */\n      dup1\n        /* \"contracts/MFI_HECO_PATCH.sol\":24220:24251  m_Block_weight_of_Stack_Options */\n      0x02\n        /* \"contracts/MFI_HECO_PATCH.sol\":24252:24261  period_id */\n      dup4\n        /* \"contracts/MFI_HECO_PATCH.sol\":24220:24262  m_Block_weight_of_Stack_Options[period_id] */\n      0x08\n      dup2\n      lt\n      tag_494\n      jumpi\n      invalid\n    tag_494:\n      add\n        /* \"contracts/MFI_HECO_PATCH.sol\":24220:24275  m_Block_weight_of_Stack_Options[period_id]=block_weight */\n      dup2\n      swap1\n      sstore\n      pop\n        /* \"contracts/MFI_HECO_PATCH.sol\":24323:24324  0 */\n      0x00\n        /* \"contracts/MFI_HECO_PATCH.sol\":24286:24322  m_Block_weight_of_Total_Stack_Option */\n      0x0a\n        /* \"contracts/MFI_HECO_PATCH.sol\":24286:24324  m_Block_weight_of_Total_Stack_Option=0 */\n      dup2\n      swap1\n      sstore\n      pop\n        /* \"contracts/MFI_HECO_PATCH.sol\":24339:24345  uint i */\n      0x00\n        /* \"contracts/MFI_HECO_PATCH.sol\":24335:24465  for(uint i=0;i<8;i++)\r... */\n    tag_496:\n        /* \"contracts/MFI_HECO_PATCH.sol\":24350:24351  8 */\n      0x08\n        /* \"contracts/MFI_HECO_PATCH.sol\":24348:24349  i */\n      dup2\n        /* \"contracts/MFI_HECO_PATCH.sol\":24348:24351  i<8 */\n      lt\n        /* \"contracts/MFI_HECO_PATCH.sol\":24335:24465  for(uint i=0;i<8;i++)\r... */\n      iszero\n      tag_497\n      jumpi\n        /* \"contracts/MFI_HECO_PATCH.sol\":24419:24450  m_Block_weight_of_Stack_Options */\n      0x02\n        /* \"contracts/MFI_HECO_PATCH.sol\":24451:24452  i */\n      dup2\n        /* \"contracts/MFI_HECO_PATCH.sol\":24419:24453  m_Block_weight_of_Stack_Options[i] */\n      0x08\n      dup2\n      lt\n      tag_499\n      jumpi\n      invalid\n    tag_499:\n      add\n      sload\n        /* \"contracts/MFI_HECO_PATCH.sol\":24381:24417  m_Block_weight_of_Total_Stack_Option */\n      0x0a\n      0x00\n        /* \"contracts/MFI_HECO_PATCH.sol\":24381:24453  m_Block_weight_of_Total_Stack_Option+=m_Block_weight_of_Stack_Options[i] */\n      dup3\n      dup3\n      sload\n      add\n      swap3\n      pop\n      pop\n      dup2\n      swap1\n      sstore\n      pop\n        /* \"contracts/MFI_HECO_PATCH.sol\":24352:24355  i++ */\n      dup1\n      dup1\n      0x01\n      add\n      swap2\n      pop\n      pop\n        /* \"contracts/MFI_HECO_PATCH.sol\":24335:24465  for(uint i=0;i<8;i++)\r... */\n      jump(tag_496)\n    tag_497:\n      pop\n        /* \"contracts/MFI_HECO_PATCH.sol\":24093:24472  function Set_Block_Weight(uint period_id, uint256 block_weight)public onlyOwner\r... */\n      pop\n      pop\n      jump\t// out\n        /* \"contracts/MFI_HECO_PATCH.sol\":17006:17217  function Do_Game_Update() public    returns(bool){\r... */\n    tag_207:\n        /* \"contracts/MFI_HECO_PATCH.sol\":17050:17054  bool */\n      0x00\n        /* \"contracts/MFI_HECO_PATCH.sol\":17086:17103  m_Updater_Address */\n      0x13\n      0x00\n      swap1\n      sload\n      swap1\n      0x0100\n      exp\n      swap1\n      div\n      0xffffffffffffffffffffffffffffffffffffffff\n      and\n        /* \"contracts/MFI_HECO_PATCH.sol\":17074:17103  msg.sender==m_Updater_Address */\n      0xffffffffffffffffffffffffffffffffffffffff\n      and\n        /* \"contracts/MFI_HECO_PATCH.sol\":17074:17084  msg.sender */\n      caller\n        /* \"contracts/MFI_HECO_PATCH.sol\":17074:17103  msg.sender==m_Updater_Address */\n      0xffffffffffffffffffffffffffffffffffffffff\n      and\n      eq\n        /* \"contracts/MFI_HECO_PATCH.sol\":17066:17119  require(msg.sender==m_Updater_Address,\"DISQUALIFIED\") */\n      tag_502\n      jumpi\n      mload(0x40)\n      0x08c379a000000000000000000000000000000000000000000000000000000000\n      dup2\n      mstore\n      0x04\n      add\n      dup1\n      dup1\n      0x20\n      add\n      dup3\n      dup2\n      sub\n      dup3\n      mstore\n      0x0c\n      dup2\n      mstore\n      0x20\n      add\n      dup1\n      0x4449535155414c49464945440000000000000000000000000000000000000000\n      dup2\n      mstore\n      pop\n      0x20\n      add\n      swap2\n      pop\n      pop\n      mload(0x40)\n      dup1\n      swap2\n      sub\n      swap1\n      revert\n    tag_502:\n        /* \"contracts/MFI_HECO_PATCH.sol\":17130:17150  Update_Global_Data() */\n      tag_503\n        /* \"contracts/MFI_HECO_PATCH.sol\":17130:17148  Update_Global_Data */\n      tag_292\n        /* \"contracts/MFI_HECO_PATCH.sol\":17130:17150  Update_Global_Data() */\n      jump\t// in\n    tag_503:\n        /* \"contracts/MFI_HECO_PATCH.sol\":17205:17209  true */\n      0x01\n        /* \"contracts/MFI_HECO_PATCH.sol\":17198:17209  return true */\n      swap1\n      pop\n        /* \"contracts/MFI_HECO_PATCH.sol\":17006:17217  function Do_Game_Update() public    returns(bool){\r... */\n      swap1\n      jump\t// out\n        /* \"contracts/MFI_HECO_PATCH.sol\":2388:2411  address public newOwner */\n    tag_210:\n      0x01\n      0x00\n      swap1\n      sload\n      swap1\n      0x0100\n      exp\n      swap1\n      div\n      0xffffffffffffffffffffffffffffffffffffffff\n      and\n      dup2\n      jump\t// out\n        /* \"contracts/MFI_HECO_PATCH.sol\":6035:6136  function Set_Updater_Address( address addr) public onlyOwner{\r... */\n    tag_214:\n        /* \"contracts/MFI_HECO_PATCH.sol\":2617:2622  owner */\n      0x00\n      dup1\n      sload\n      swap1\n      0x0100\n      exp\n      swap1\n      div\n      0xffffffffffffffffffffffffffffffffffffffff\n      and\n        /* \"contracts/MFI_HECO_PATCH.sol\":2603:2622  msg.sender == owner */\n      0xffffffffffffffffffffffffffffffffffffffff\n      and\n        /* \"contracts/MFI_HECO_PATCH.sol\":2603:2613  msg.sender */\n      caller\n        /* \"contracts/MFI_HECO_PATCH.sol\":2603:2622  msg.sender == owner */\n      0xffffffffffffffffffffffffffffffffffffffff\n      and\n      eq\n        /* \"contracts/MFI_HECO_PATCH.sol\":2595:2623  require(msg.sender == owner) */\n      tag_505\n      jumpi\n      0x00\n      dup1\n      revert\n    tag_505:\n        /* \"contracts/MFI_HECO_PATCH.sol\":6124:6128  addr */\n      dup1\n        /* \"contracts/MFI_HECO_PATCH.sol\":6106:6123  m_Updater_Address */\n      0x13\n      0x00\n        /* \"contracts/MFI_HECO_PATCH.sol\":6106:6128  m_Updater_Address=addr */\n      0x0100\n      exp\n      dup2\n      sload\n      dup2\n      0xffffffffffffffffffffffffffffffffffffffff\n      mul\n      not\n      and\n      swap1\n      dup4\n      0xffffffffffffffffffffffffffffffffffffffff\n      and\n      mul\n      or\n      swap1\n      sstore\n      pop\n        /* \"contracts/MFI_HECO_PATCH.sol\":6035:6136  function Set_Updater_Address( address addr) public onlyOwner{\r... */\n      pop\n      jump\t// out\n        /* \"contracts/MFI_HECO_PATCH.sol\":6144:6242  function Set_Punishment_Span( uint span) public onlyOwner{\r... */\n    tag_218:\n        /* \"contracts/MFI_HECO_PATCH.sol\":2617:2622  owner */\n      0x00\n      dup1\n      sload\n      swap1\n      0x0100\n      exp\n      swap1\n      div\n      0xffffffffffffffffffffffffffffffffffffffff\n      and\n        /* \"contracts/MFI_HECO_PATCH.sol\":2603:2622  msg.sender == owner */\n      0xffffffffffffffffffffffffffffffffffffffff\n      and\n        /* \"contracts/MFI_HECO_PATCH.sol\":2603:2613  msg.sender */\n      caller\n        /* \"contracts/MFI_HECO_PATCH.sol\":2603:2622  msg.sender == owner */\n      0xffffffffffffffffffffffffffffffffffffffff\n      and\n      eq\n        /* \"contracts/MFI_HECO_PATCH.sol\":2595:2623  require(msg.sender == owner) */\n      tag_508\n      jumpi\n      0x00\n      dup1\n      revert\n    tag_508:\n        /* \"contracts/MFI_HECO_PATCH.sol\":6230:6234  span */\n      dup1\n        /* \"contracts/MFI_HECO_PATCH.sol\":6212:6229  m_Punishment_Span */\n      0x25\n        /* \"contracts/MFI_HECO_PATCH.sol\":6212:6234  m_Punishment_Span=span */\n      dup2\n      swap1\n      sstore\n      pop\n        /* \"contracts/MFI_HECO_PATCH.sol\":6144:6242  function Set_Punishment_Span( uint span) public onlyOwner{\r... */\n      pop\n      jump\t// out\n        /* \"contracts/MFI_HECO_PATCH.sol\":4526:4553  uint256 public m_User_Count */\n    tag_221:\n      sload(0x19)\n      dup2\n      jump\t// out\n        /* \"contracts/MFI_HECO_PATCH.sol\":8471:8656  function Do_Set_Referer(address user,address referer) public {\r... */\n    tag_225:\n        /* \"contracts/MFI_HECO_PATCH.sol\":8563:8580  m_Updater_Address */\n      0x13\n      0x00\n      swap1\n      sload\n      swap1\n      0x0100\n      exp\n      swap1\n      div\n      0xffffffffffffffffffffffffffffffffffffffff\n      and\n        /* \"contracts/MFI_HECO_PATCH.sol\":8551:8580  msg.sender==m_Updater_Address */\n      0xffffffffffffffffffffffffffffffffffffffff\n      and\n        /* \"contracts/MFI_HECO_PATCH.sol\":8551:8561  msg.sender */\n      caller\n        /* \"contracts/MFI_HECO_PATCH.sol\":8551:8580  msg.sender==m_Updater_Address */\n      0xffffffffffffffffffffffffffffffffffffffff\n      and\n      eq\n        /* \"contracts/MFI_HECO_PATCH.sol\":8543:8596  require(msg.sender==m_Updater_Address,\"DISQUALIFIED\") */\n      tag_511\n      jumpi\n      mload(0x40)\n      0x08c379a000000000000000000000000000000000000000000000000000000000\n      dup2\n      mstore\n      0x04\n      add\n      dup1\n      dup1\n      0x20\n      add\n      dup3\n      dup2\n      sub\n      dup3\n      mstore\n      0x0c\n      dup2\n      mstore\n      0x20\n      add\n      dup1\n      0x4449535155414c49464945440000000000000000000000000000000000000000\n      dup2\n      mstore\n      pop\n      0x20\n      add\n      swap2\n      pop\n      pop\n      mload(0x40)\n      dup1\n      swap2\n      sub\n      swap1\n      revert\n    tag_511:\n        /* \"contracts/MFI_HECO_PATCH.sol\":8640:8647  referer */\n      dup1\n        /* \"contracts/MFI_HECO_PATCH.sol\":8607:8617  m_User_Map */\n      0x26\n        /* \"contracts/MFI_HECO_PATCH.sol\":8607:8623  m_User_Map[user] */\n      0x00\n        /* \"contracts/MFI_HECO_PATCH.sol\":8618:8622  user */\n      dup5\n        /* \"contracts/MFI_HECO_PATCH.sol\":8607:8623  m_User_Map[user] */\n      0xffffffffffffffffffffffffffffffffffffffff\n      and\n      0xffffffffffffffffffffffffffffffffffffffff\n      and\n      dup2\n      mstore\n      0x20\n      add\n      swap1\n      dup2\n      mstore\n      0x20\n      add\n      0x00\n      keccak256\n        /* \"contracts/MFI_HECO_PATCH.sol\":8607:8639  m_User_Map[user].Referer_Address */\n      0x01\n      add\n      0x00\n        /* \"contracts/MFI_HECO_PATCH.sol\":8607:8647  m_User_Map[user].Referer_Address=referer */\n      0x0100\n      exp\n      dup2\n      sload\n      dup2\n      0xffffffffffffffffffffffffffffffffffffffff\n      mul\n      not\n      and\n      swap1\n      dup4\n      0xffffffffffffffffffffffffffffffffffffffff\n      and\n      mul\n      or\n      swap1\n      sstore\n      pop\n        /* \"contracts/MFI_HECO_PATCH.sol\":8471:8656  function Do_Set_Referer(address user,address referer) public {\r... */\n      pop\n      pop\n      jump\t// out\n        /* \"contracts/MFI_HECO_PATCH.sol\":2651:2753  function transferOwnership(address _newOwner) public onlyOwner {\r... */\n    tag_229:\n        /* \"contracts/MFI_HECO_PATCH.sol\":2617:2622  owner */\n      0x00\n      dup1\n      sload\n      swap1\n      0x0100\n      exp\n      swap1\n      div\n      0xffffffffffffffffffffffffffffffffffffffff\n      and\n        /* \"contracts/MFI_HECO_PATCH.sol\":2603:2622  msg.sender == owner */\n      0xffffffffffffffffffffffffffffffffffffffff\n      and\n        /* \"contracts/MFI_HECO_PATCH.sol\":2603:2613  msg.sender */\n      caller\n        /* \"contracts/MFI_HECO_PATCH.sol\":2603:2622  msg.sender == owner */\n      0xffffffffffffffffffffffffffffffffffffffff\n      and\n      eq\n        /* \"contracts/MFI_HECO_PATCH.sol\":2595:2623  require(msg.sender == owner) */\n      tag_513\n      jumpi\n      0x00\n      dup1\n      revert\n    tag_513:\n        /* \"contracts/MFI_HECO_PATCH.sol\":2736:2745  _newOwner */\n      dup1\n        /* \"contracts/MFI_HECO_PATCH.sol\":2725:2733  newOwner */\n      0x01\n      0x00\n        /* \"contracts/MFI_HECO_PATCH.sol\":2725:2745  newOwner = _newOwner */\n      0x0100\n      exp\n      dup2\n      sload\n      dup2\n      0xffffffffffffffffffffffffffffffffffffffff\n      mul\n      not\n      and\n      swap1\n      dup4\n      0xffffffffffffffffffffffffffffffffffffffff\n      and\n      mul\n      or\n      swap1\n      sstore\n      pop\n        /* \"contracts/MFI_HECO_PATCH.sol\":2651:2753  function transferOwnership(address _newOwner) public onlyOwner {\r... */\n      pop\n      jump\t// out\n        /* \"contracts/MFI_HECO_PATCH.sol\":13239:13825  function Do_Receiving(uint period_id) public  OnlyRegistered  NotGamePause returns(bool) {\r... */\n    tag_233:\n        /* \"contracts/MFI_HECO_PATCH.sol\":13322:13326  bool */\n      0x00\n        /* \"contracts/MFI_HECO_PATCH.sol\":5301:5305  true */\n      0x01\n        /* \"contracts/MFI_HECO_PATCH.sol\":5266:5305  m_User_Map[msg.sender].Registered==true */\n      iszero\n      iszero\n        /* \"contracts/MFI_HECO_PATCH.sol\":5266:5276  m_User_Map */\n      0x26\n        /* \"contracts/MFI_HECO_PATCH.sol\":5266:5288  m_User_Map[msg.sender] */\n      0x00\n        /* \"contracts/MFI_HECO_PATCH.sol\":5277:5287  msg.sender */\n      caller\n        /* \"contracts/MFI_HECO_PATCH.sol\":5266:5288  m_User_Map[msg.sender] */\n      0xffffffffffffffffffffffffffffffffffffffff\n      and\n      0xffffffffffffffffffffffffffffffffffffffff\n      and\n      dup2\n      mstore\n      0x20\n      add\n      swap1\n      dup2\n      mstore\n      0x20\n      add\n      0x00\n      keccak256\n        /* \"contracts/MFI_HECO_PATCH.sol\":5266:5299  m_User_Map[msg.sender].Registered */\n      0x00\n      add\n      0x00\n      swap1\n      sload\n      swap1\n      0x0100\n      exp\n      swap1\n      div\n      0xff\n      and\n        /* \"contracts/MFI_HECO_PATCH.sol\":5266:5305  m_User_Map[msg.sender].Registered==true */\n      iszero\n      iszero\n      eq\n        /* \"contracts/MFI_HECO_PATCH.sol\":5258:5306  require(m_User_Map[msg.sender].Registered==true) */\n      tag_516\n      jumpi\n      0x00\n      dup1\n      revert\n    tag_516:\n        /* \"contracts/MFI_HECO_PATCH.sol\":5185:5189  true */\n      0x01\n        /* \"contracts/MFI_HECO_PATCH.sol\":5171:5189  m_Game_Pause!=true */\n      iszero\n      iszero\n        /* \"contracts/MFI_HECO_PATCH.sol\":5171:5183  m_Game_Pause */\n      0x24\n      0x00\n      swap1\n      sload\n      swap1\n      0x0100\n      exp\n      swap1\n      div\n      0xff\n      and\n        /* \"contracts/MFI_HECO_PATCH.sol\":5171:5189  m_Game_Pause!=true */\n      iszero\n      iszero\n      eq\n      iszero\n        /* \"contracts/MFI_HECO_PATCH.sol\":5163:5190  require(m_Game_Pause!=true) */\n      tag_518\n      jumpi\n      0x00\n      dup1\n      revert\n    tag_518:\n        /* \"contracts/MFI_HECO_PATCH.sol\":13341:13361  Update_Global_Data() */\n      tag_520\n        /* \"contracts/MFI_HECO_PATCH.sol\":13341:13359  Update_Global_Data */\n      tag_292\n        /* \"contracts/MFI_HECO_PATCH.sol\":13341:13361  Update_Global_Data() */\n      jump\t// in\n    tag_520:\n        /* \"contracts/MFI_HECO_PATCH.sol\":13372:13395  Update_User(msg.sender) */\n      tag_521\n        /* \"contracts/MFI_HECO_PATCH.sol\":13384:13394  msg.sender */\n      caller\n        /* \"contracts/MFI_HECO_PATCH.sol\":13372:13383  Update_User */\n      tag_294\n        /* \"contracts/MFI_HECO_PATCH.sol\":13372:13395  Update_User(msg.sender) */\n      jump\t// in\n    tag_521:\n        /* \"contracts/MFI_HECO_PATCH.sol\":13406:13414  bool res */\n      0x00\n        /* \"contracts/MFI_HECO_PATCH.sol\":13452:13467  m_Token_Address */\n      0x15\n      0x00\n      swap1\n      sload\n      swap1\n      0x0100\n      exp\n      swap1\n      div\n      0xffffffffffffffffffffffffffffffffffffffff\n      and\n        /* \"contracts/MFI_HECO_PATCH.sol\":13437:13477  ERC20Interface(m_Token_Address).transfer */\n      0xffffffffffffffffffffffffffffffffffffffff\n      and\n      0xa9059cbb\n        /* \"contracts/MFI_HECO_PATCH.sol\":13478:13488  msg.sender */\n      caller\n        /* \"contracts/MFI_HECO_PATCH.sol\":13489:13499  m_User_Map */\n      0x26\n        /* \"contracts/MFI_HECO_PATCH.sol\":13489:13511  m_User_Map[msg.sender] */\n      0x00\n        /* \"contracts/MFI_HECO_PATCH.sol\":13500:13510  msg.sender */\n      caller\n        /* \"contracts/MFI_HECO_PATCH.sol\":13489:13511  m_User_Map[msg.sender] */\n      0xffffffffffffffffffffffffffffffffffffffff\n      and\n      0xffffffffffffffffffffffffffffffffffffffff\n      and\n      dup2\n      mstore\n      0x20\n      add\n      swap1\n      dup2\n      mstore\n      0x20\n      add\n      0x00\n      keccak256\n        /* \"contracts/MFI_HECO_PATCH.sol\":13489:13525  m_User_Map[msg.sender].Token_Amounts */\n      0x03\n      add\n        /* \"contracts/MFI_HECO_PATCH.sol\":13526:13535  period_id */\n      dup7\n        /* \"contracts/MFI_HECO_PATCH.sol\":13489:13536  m_User_Map[msg.sender].Token_Amounts[period_id] */\n      0x08\n      dup2\n      lt\n      tag_522\n      jumpi\n      invalid\n    tag_522:\n      add\n      sload\n        /* \"contracts/MFI_HECO_PATCH.sol\":13437:13537  ERC20Interface(m_Token_Address).transfer(msg.sender,m_User_Map[msg.sender].Token_Amounts[period_id]) */\n      mload(0x40)\n      dup4\n      0xffffffff\n      and\n      0xe0\n      shl\n      dup2\n      mstore\n      0x04\n      add\n      dup1\n      dup4\n      0xffffffffffffffffffffffffffffffffffffffff\n      and\n      dup2\n      mstore\n      0x20\n      add\n      dup3\n      dup2\n      mstore\n      0x20\n      add\n      swap3\n      pop\n      pop\n      pop\n      0x20\n      mload(0x40)\n      dup1\n      dup4\n      sub\n      dup2\n      0x00\n      dup8\n      dup1\n      extcodesize\n      iszero\n      dup1\n      iszero\n      tag_524\n      jumpi\n      0x00\n      dup1\n      revert\n    tag_524:\n      pop\n      gas\n      call\n      iszero\n      dup1\n      iszero\n      tag_526\n      jumpi\n      returndatasize\n      0x00\n      dup1\n      returndatacopy\n      revert(0x00, returndatasize)\n    tag_526:\n      pop\n      pop\n      pop\n      pop\n      mload(0x40)\n      returndatasize\n      0x20\n      dup2\n      lt\n      iszero\n      tag_527\n      jumpi\n      0x00\n      dup1\n      revert\n    tag_527:\n      dup2\n      add\n      swap1\n      dup1\n      dup1\n      mload\n      swap1\n      0x20\n      add\n      swap1\n      swap3\n      swap2\n      swap1\n      pop\n      pop\n      pop\n        /* \"contracts/MFI_HECO_PATCH.sol\":13433:13537  res=ERC20Interface(m_Token_Address).transfer(msg.sender,m_User_Map[msg.sender].Token_Amounts[period_id]) */\n      swap1\n      pop\n        /* \"contracts/MFI_HECO_PATCH.sol\":13567:13572  false */\n      0x00\n        /* \"contracts/MFI_HECO_PATCH.sol\":13561:13572  res ==false */\n      iszero\n      iszero\n        /* \"contracts/MFI_HECO_PATCH.sol\":13561:13564  res */\n      dup2\n        /* \"contracts/MFI_HECO_PATCH.sol\":13561:13572  res ==false */\n      iszero\n      iszero\n      eq\n        /* \"contracts/MFI_HECO_PATCH.sol\":13558:13618  if(res ==false)\r... */\n      iszero\n      tag_528\n      jumpi\n        /* \"contracts/MFI_HECO_PATCH.sol\":13598:13606  revert() */\n      0x00\n      dup1\n      revert\n        /* \"contracts/MFI_HECO_PATCH.sol\":13558:13618  if(res ==false)\r... */\n    tag_528:\n        /* \"contracts/MFI_HECO_PATCH.sol\":13655:13665  msg.sender */\n      caller\n        /* \"contracts/MFI_HECO_PATCH.sol\":13641:13725  EVENT_RECEIVE(msg.sender,period_id, m_User_Map[msg.sender].Token_Amounts[period_id]) */\n      0xffffffffffffffffffffffffffffffffffffffff\n      and\n      0x15afccb1ad771a1825d2b2746f7cc02a82c7d0b3fab4be68b06a256b34a38645\n        /* \"contracts/MFI_HECO_PATCH.sol\":13666:13675  period_id */\n      dup5\n        /* \"contracts/MFI_HECO_PATCH.sol\":13677:13687  m_User_Map */\n      0x26\n        /* \"contracts/MFI_HECO_PATCH.sol\":13677:13699  m_User_Map[msg.sender] */\n      0x00\n        /* \"contracts/MFI_HECO_PATCH.sol\":13688:13698  msg.sender */\n      caller\n        /* \"contracts/MFI_HECO_PATCH.sol\":13677:13699  m_User_Map[msg.sender] */\n      0xffffffffffffffffffffffffffffffffffffffff\n      and\n      0xffffffffffffffffffffffffffffffffffffffff\n      and\n      dup2\n      mstore\n      0x20\n      add\n      swap1\n      dup2\n      mstore\n      0x20\n      add\n      0x00\n      keccak256\n        /* \"contracts/MFI_HECO_PATCH.sol\":13677:13713  m_User_Map[msg.sender].Token_Amounts */\n      0x03\n      add\n        /* \"contracts/MFI_HECO_PATCH.sol\":13714:13723  period_id */\n      dup7\n        /* \"contracts/MFI_HECO_PATCH.sol\":13677:13724  m_User_Map[msg.sender].Token_Amounts[period_id] */\n      0x08\n      dup2\n      lt\n      tag_529\n      jumpi\n      invalid\n    tag_529:\n      add\n      sload\n        /* \"contracts/MFI_HECO_PATCH.sol\":13641:13725  EVENT_RECEIVE(msg.sender,period_id, m_User_Map[msg.sender].Token_Amounts[period_id]) */\n      mload(0x40)\n      dup1\n      dup4\n      dup2\n      mstore\n      0x20\n      add\n      dup3\n      dup2\n      mstore\n      0x20\n      add\n      swap3\n      pop\n      pop\n      pop\n      mload(0x40)\n      dup1\n      swap2\n      sub\n      swap1\n      log2\n        /* \"contracts/MFI_HECO_PATCH.sol\":13794:13795  0 */\n      0x00\n        /* \"contracts/MFI_HECO_PATCH.sol\":13746:13756  m_User_Map */\n      0x26\n        /* \"contracts/MFI_HECO_PATCH.sol\":13746:13768  m_User_Map[msg.sender] */\n      0x00\n        /* \"contracts/MFI_HECO_PATCH.sol\":13757:13767  msg.sender */\n      caller\n        /* \"contracts/MFI_HECO_PATCH.sol\":13746:13768  m_User_Map[msg.sender] */\n      0xffffffffffffffffffffffffffffffffffffffff\n      and\n      0xffffffffffffffffffffffffffffffffffffffff\n      and\n      dup2\n      mstore\n      0x20\n      add\n      swap1\n      dup2\n      mstore\n      0x20\n      add\n      0x00\n      keccak256\n        /* \"contracts/MFI_HECO_PATCH.sol\":13746:13782  m_User_Map[msg.sender].Token_Amounts */\n      0x03\n      add\n        /* \"contracts/MFI_HECO_PATCH.sol\":13783:13792  period_id */\n      dup5\n        /* \"contracts/MFI_HECO_PATCH.sol\":13746:13793  m_User_Map[msg.sender].Token_Amounts[period_id] */\n      0x08\n      dup2\n      lt\n      tag_531\n      jumpi\n      invalid\n    tag_531:\n      add\n        /* \"contracts/MFI_HECO_PATCH.sol\":13746:13795  m_User_Map[msg.sender].Token_Amounts[period_id]=0 */\n      dup2\n      swap1\n      sstore\n      pop\n        /* \"contracts/MFI_HECO_PATCH.sol\":13813:13817  true */\n      0x01\n        /* \"contracts/MFI_HECO_PATCH.sol\":13806:13817  return true */\n      swap2\n      pop\n      pop\n        /* \"contracts/MFI_HECO_PATCH.sol\":13239:13825  function Do_Receiving(uint period_id) public  OnlyRegistered  NotGamePause returns(bool) {\r... */\n      swap2\n      swap1\n      pop\n      jump\t// out\n        /* \"contracts/MFI_HECO_PATCH.sol\":4564:4606  uint256 public m_BlockNum_Of_Last_Update=0 */\n    tag_236:\n      sload(0x1a)\n      dup2\n      jump\t// out\n        /* \"contracts/MFI_HECO_PATCH.sol\":173:287  function sub(uint a, uint b) internal pure returns (uint c) {\r... */\n    tag_266:\n        /* \"contracts/MFI_HECO_PATCH.sol\":225:231  uint c */\n      0x00\n        /* \"contracts/MFI_HECO_PATCH.sol\":257:258  a */\n      dup3\n        /* \"contracts/MFI_HECO_PATCH.sol\":252:253  b */\n      dup3\n        /* \"contracts/MFI_HECO_PATCH.sol\":252:258  b <= a */\n      gt\n      iszero\n        /* \"contracts/MFI_HECO_PATCH.sol\":244:259  require(b <= a) */\n      tag_534\n      jumpi\n      0x00\n      dup1\n      revert\n    tag_534:\n        /* \"contracts/MFI_HECO_PATCH.sol\":278:279  b */\n      dup2\n        /* \"contracts/MFI_HECO_PATCH.sol\":274:275  a */\n      dup4\n        /* \"contracts/MFI_HECO_PATCH.sol\":274:279  a - b */\n      sub\n        /* \"contracts/MFI_HECO_PATCH.sol\":270:279  c = a - b */\n      swap1\n      pop\n        /* \"contracts/MFI_HECO_PATCH.sol\":173:287  function sub(uint a, uint b) internal pure returns (uint c) {\r... */\n      swap3\n      swap2\n      pop\n      pop\n      jump\t// out\n        /* \"contracts/MFI_HECO_PATCH.sol\":53:167  function add(uint a, uint b) internal pure returns (uint c) {\r... */\n    tag_276:\n        /* \"contracts/MFI_HECO_PATCH.sol\":105:111  uint c */\n      0x00\n        /* \"contracts/MFI_HECO_PATCH.sol\":132:133  b */\n      dup2\n        /* \"contracts/MFI_HECO_PATCH.sol\":128:129  a */\n      dup4\n        /* \"contracts/MFI_HECO_PATCH.sol\":128:133  a + b */\n      add\n        /* \"contracts/MFI_HECO_PATCH.sol\":124:133  c = a + b */\n      swap1\n      pop\n        /* \"contracts/MFI_HECO_PATCH.sol\":157:158  a */\n      dup3\n        /* \"contracts/MFI_HECO_PATCH.sol\":152:153  c */\n      dup2\n        /* \"contracts/MFI_HECO_PATCH.sol\":152:158  c >= a */\n      lt\n      iszero\n        /* \"contracts/MFI_HECO_PATCH.sol\":144:159  require(c >= a) */\n      tag_536\n      jumpi\n      0x00\n      dup1\n      revert\n    tag_536:\n        /* \"contracts/MFI_HECO_PATCH.sol\":53:167  function add(uint a, uint b) internal pure returns (uint c) {\r... */\n      swap3\n      swap2\n      pop\n      pop\n      jump\t// out\n        /* \"contracts/MFI_HECO_PATCH.sol\":17496:18576  function Update_Global_Data() private\r... */\n    tag_292:\n        /* \"contracts/MFI_HECO_PATCH.sol\":17551:17571  uint block_num_clamp */\n      0x00\n        /* \"contracts/MFI_HECO_PATCH.sol\":17572:17584  block.number */\n      number\n        /* \"contracts/MFI_HECO_PATCH.sol\":17551:17584  uint block_num_clamp=block.number */\n      swap1\n      pop\n        /* \"contracts/MFI_HECO_PATCH.sol\":17614:17642  m_Stacking_Block_Number_Stop */\n      sload(0x17)\n        /* \"contracts/MFI_HECO_PATCH.sol\":17598:17613  block_num_clamp */\n      dup2\n        /* \"contracts/MFI_HECO_PATCH.sol\":17598:17642  block_num_clamp>m_Stacking_Block_Number_Stop */\n      gt\n        /* \"contracts/MFI_HECO_PATCH.sol\":17595:17724  if(block_num_clamp>m_Stacking_Block_Number_Stop)\r... */\n      iszero\n      tag_538\n      jumpi\n        /* \"contracts/MFI_HECO_PATCH.sol\":17684:17712  m_Stacking_Block_Number_Stop */\n      sload(0x17)\n        /* \"contracts/MFI_HECO_PATCH.sol\":17668:17712  block_num_clamp=m_Stacking_Block_Number_Stop */\n      swap1\n      pop\n        /* \"contracts/MFI_HECO_PATCH.sol\":17595:17724  if(block_num_clamp>m_Stacking_Block_Number_Stop)\r... */\n    tag_538:\n        /* \"contracts/MFI_HECO_PATCH.sol\":17753:17782  m_Stacking_Block_Number_Start */\n      sload(0x16)\n        /* \"contracts/MFI_HECO_PATCH.sol\":17737:17752  block_num_clamp */\n      dup2\n        /* \"contracts/MFI_HECO_PATCH.sol\":17737:17782  block_num_clamp<m_Stacking_Block_Number_Start */\n      lt\n        /* \"contracts/MFI_HECO_PATCH.sol\":17734:17865  if(block_num_clamp<m_Stacking_Block_Number_Start)\r... */\n      iszero\n      tag_539\n      jumpi\n        /* \"contracts/MFI_HECO_PATCH.sol\":17824:17853  m_Stacking_Block_Number_Start */\n      sload(0x16)\n        /* \"contracts/MFI_HECO_PATCH.sol\":17808:17853  block_num_clamp=m_Stacking_Block_Number_Start */\n      swap1\n      pop\n        /* \"contracts/MFI_HECO_PATCH.sol\":17734:17865  if(block_num_clamp<m_Stacking_Block_Number_Start)\r... */\n    tag_539:\n        /* \"contracts/MFI_HECO_PATCH.sol\":17877:17895  uint256 block_span */\n      0x00\n        /* \"contracts/MFI_HECO_PATCH.sol\":17912:17937  m_BlockNum_Of_Last_Update */\n      sload(0x1a)\n        /* \"contracts/MFI_HECO_PATCH.sol\":17896:17911  block_num_clamp */\n      dup3\n        /* \"contracts/MFI_HECO_PATCH.sol\":17896:17937  block_num_clamp-m_BlockNum_Of_Last_Update */\n      sub\n        /* \"contracts/MFI_HECO_PATCH.sol\":17877:17937  uint256 block_span=block_num_clamp-m_BlockNum_Of_Last_Update */\n      swap1\n      pop\n        /* \"contracts/MFI_HECO_PATCH.sol\":17963:17964  0 */\n      0x00\n        /* \"contracts/MFI_HECO_PATCH.sol\":17951:17961  block_span */\n      dup2\n        /* \"contracts/MFI_HECO_PATCH.sol\":17951:17964  block_span==0 */\n      eq\n        /* \"contracts/MFI_HECO_PATCH.sol\":17948:18517  if(block_span==0)\r... */\n      iszero\n      tag_540\n      jumpi\n      jump(tag_541)\n    tag_540:\n        /* \"contracts/MFI_HECO_PATCH.sol\":18113:18119  uint i */\n      0x00\n        /* \"contracts/MFI_HECO_PATCH.sol\":18108:18506  for (uint i =0;i<8;i++)\r... */\n    tag_542:\n        /* \"contracts/MFI_HECO_PATCH.sol\":18125:18126  8 */\n      0x08\n        /* \"contracts/MFI_HECO_PATCH.sol\":18123:18124  i */\n      dup2\n        /* \"contracts/MFI_HECO_PATCH.sol\":18123:18126  i<8 */\n      lt\n        /* \"contracts/MFI_HECO_PATCH.sol\":18108:18506  for (uint i =0;i<8;i++)\r... */\n      iszero\n      tag_543\n      jumpi\n        /* \"contracts/MFI_HECO_PATCH.sol\":18178:18191  uint256 delta */\n      0x00\n        /* \"contracts/MFI_HECO_PATCH.sol\":18194:18205  m_FIX_POINT */\n      sload(0x23)\n        /* \"contracts/MFI_HECO_PATCH.sol\":18178:18205  uint256 delta=  m_FIX_POINT */\n      swap1\n      pop\n        /* \"contracts/MFI_HECO_PATCH.sol\":18220:18244  uint256 t_total_stacking */\n      0x00\n        /* \"contracts/MFI_HECO_PATCH.sol\":18245:18261  m_Total_Stacking */\n      sload(0x18)\n        /* \"contracts/MFI_HECO_PATCH.sol\":18220:18261  uint256 t_total_stacking=m_Total_Stacking */\n      swap1\n      pop\n        /* \"contracts/MFI_HECO_PATCH.sol\":18288:18304  t_total_stacking */\n      dup1\n        /* \"contracts/MFI_HECO_PATCH.sol\":18282:18287  delta */\n      dup3\n        /* \"contracts/MFI_HECO_PATCH.sol\":18282:18304  delta/t_total_stacking */\n      dup2\n      tag_545\n      jumpi\n      invalid\n    tag_545:\n      div\n        /* \"contracts/MFI_HECO_PATCH.sol\":18276:18304  delta=delta/t_total_stacking */\n      swap2\n      pop\n        /* \"contracts/MFI_HECO_PATCH.sol\":18343:18374  m_Block_weight_of_Stack_Options */\n      0x02\n        /* \"contracts/MFI_HECO_PATCH.sol\":18375:18376  i */\n      dup4\n        /* \"contracts/MFI_HECO_PATCH.sol\":18343:18377  m_Block_weight_of_Stack_Options[i] */\n      0x08\n      dup2\n      lt\n      tag_546\n      jumpi\n      invalid\n    tag_546:\n      add\n      sload\n        /* \"contracts/MFI_HECO_PATCH.sol\":18331:18341  block_span */\n      dup5\n        /* \"contracts/MFI_HECO_PATCH.sol\":18325:18330  delta */\n      dup4\n        /* \"contracts/MFI_HECO_PATCH.sol\":18325:18341  delta*block_span */\n      mul\n        /* \"contracts/MFI_HECO_PATCH.sol\":18325:18377  delta*block_span* m_Block_weight_of_Stack_Options[i] */\n      mul\n        /* \"contracts/MFI_HECO_PATCH.sol\":18319:18377  delta=delta*block_span* m_Block_weight_of_Stack_Options[i] */\n      swap2\n      pop\n        /* \"contracts/MFI_HECO_PATCH.sol\":18485:18490  delta */\n      dup2\n        /* \"contracts/MFI_HECO_PATCH.sol\":18439:18481  m_Sum_Of_Weighted_Stacking_Reciprocal_e128 */\n      0x1b\n        /* \"contracts/MFI_HECO_PATCH.sol\":18482:18483  i */\n      dup5\n        /* \"contracts/MFI_HECO_PATCH.sol\":18439:18484  m_Sum_Of_Weighted_Stacking_Reciprocal_e128[i] */\n      0x08\n      dup2\n      lt\n      tag_548\n      jumpi\n      invalid\n    tag_548:\n      add\n      sload\n        /* \"contracts/MFI_HECO_PATCH.sol\":18439:18490  m_Sum_Of_Weighted_Stacking_Reciprocal_e128[i]+delta */\n      add\n        /* \"contracts/MFI_HECO_PATCH.sol\":18393:18435  m_Sum_Of_Weighted_Stacking_Reciprocal_e128 */\n      0x1b\n        /* \"contracts/MFI_HECO_PATCH.sol\":18436:18437  i */\n      dup5\n        /* \"contracts/MFI_HECO_PATCH.sol\":18393:18438  m_Sum_Of_Weighted_Stacking_Reciprocal_e128[i] */\n      0x08\n      dup2\n      lt\n      tag_550\n      jumpi\n      invalid\n    tag_550:\n      add\n        /* \"contracts/MFI_HECO_PATCH.sol\":18393:18490  m_Sum_Of_Weighted_Stacking_Reciprocal_e128[i]=m_Sum_Of_Weighted_Stacking_Reciprocal_e128[i]+delta */\n      dup2\n      swap1\n      sstore\n      pop\n        /* \"contracts/MFI_HECO_PATCH.sol\":18108:18506  for (uint i =0;i<8;i++)\r... */\n      pop\n      pop\n        /* \"contracts/MFI_HECO_PATCH.sol\":18127:18130  i++ */\n      dup1\n      dup1\n      0x01\n      add\n      swap2\n      pop\n      pop\n        /* \"contracts/MFI_HECO_PATCH.sol\":18108:18506  for (uint i =0;i<8;i++)\r... */\n      jump(tag_542)\n    tag_543:\n      pop\n        /* \"contracts/MFI_HECO_PATCH.sol\":17948:18517  if(block_span==0)\r... */\n    tag_541:\n        /* \"contracts/MFI_HECO_PATCH.sol\":18553:18568  block_num_clamp */\n      dup2\n        /* \"contracts/MFI_HECO_PATCH.sol\":18527:18552  m_BlockNum_Of_Last_Update */\n      0x1a\n        /* \"contracts/MFI_HECO_PATCH.sol\":18527:18568  m_BlockNum_Of_Last_Update=block_num_clamp */\n      dup2\n      swap1\n      sstore\n      pop\n        /* \"contracts/MFI_HECO_PATCH.sol\":17496:18576  function Update_Global_Data() private\r... */\n      pop\n      pop\n      jump\t// out\n        /* \"contracts/MFI_HECO_PATCH.sol\":18754:21265  function Update_User(address user) private\r... */\n    tag_294:\n        /* \"contracts/MFI_HECO_PATCH.sol\":18848:18853  false */\n      0x00\n        /* \"contracts/MFI_HECO_PATCH.sol\":18819:18853  m_User_Map[user].Registered==false */\n      iszero\n      iszero\n        /* \"contracts/MFI_HECO_PATCH.sol\":18819:18829  m_User_Map */\n      0x26\n        /* \"contracts/MFI_HECO_PATCH.sol\":18819:18835  m_User_Map[user] */\n      0x00\n        /* \"contracts/MFI_HECO_PATCH.sol\":18830:18834  user */\n      dup4\n        /* \"contracts/MFI_HECO_PATCH.sol\":18819:18835  m_User_Map[user] */\n      0xffffffffffffffffffffffffffffffffffffffff\n      and\n      0xffffffffffffffffffffffffffffffffffffffff\n      and\n      dup2\n      mstore\n      0x20\n      add\n      swap1\n      dup2\n      mstore\n      0x20\n      add\n      0x00\n      keccak256\n        /* \"contracts/MFI_HECO_PATCH.sol\":18819:18846  m_User_Map[user].Registered */\n      0x00\n      add\n      0x00\n      swap1\n      sload\n      swap1\n      0x0100\n      exp\n      swap1\n      div\n      0xff\n      and\n        /* \"contracts/MFI_HECO_PATCH.sol\":18819:18853  m_User_Map[user].Registered==false */\n      iszero\n      iszero\n      eq\n        /* \"contracts/MFI_HECO_PATCH.sol\":18816:18897  if(m_User_Map[user].Registered==false)\r... */\n      iszero\n      tag_553\n      jumpi\n        /* \"contracts/MFI_HECO_PATCH.sol\":18879:18886  return; */\n      jump(tag_552)\n        /* \"contracts/MFI_HECO_PATCH.sol\":18816:18897  if(m_User_Map[user].Registered==false)\r... */\n    tag_553:\n        /* \"contracts/MFI_HECO_PATCH.sol\":18907:18927  uint block_num_clamp */\n      0x00\n        /* \"contracts/MFI_HECO_PATCH.sol\":18928:18940  block.number */\n      number\n        /* \"contracts/MFI_HECO_PATCH.sol\":18907:18940  uint block_num_clamp=block.number */\n      swap1\n      pop\n        /* \"contracts/MFI_HECO_PATCH.sol\":18970:18998  m_Stacking_Block_Number_Stop */\n      sload(0x17)\n        /* \"contracts/MFI_HECO_PATCH.sol\":18954:18969  block_num_clamp */\n      dup2\n        /* \"contracts/MFI_HECO_PATCH.sol\":18954:18998  block_num_clamp>m_Stacking_Block_Number_Stop */\n      gt\n        /* \"contracts/MFI_HECO_PATCH.sol\":18951:19080  if(block_num_clamp>m_Stacking_Block_Number_Stop)\r... */\n      iszero\n      tag_554\n      jumpi\n        /* \"contracts/MFI_HECO_PATCH.sol\":19040:19068  m_Stacking_Block_Number_Stop */\n      sload(0x17)\n        /* \"contracts/MFI_HECO_PATCH.sol\":19024:19068  block_num_clamp=m_Stacking_Block_Number_Stop */\n      swap1\n      pop\n        /* \"contracts/MFI_HECO_PATCH.sol\":18951:19080  if(block_num_clamp>m_Stacking_Block_Number_Stop)\r... */\n    tag_554:\n        /* \"contracts/MFI_HECO_PATCH.sol\":19124:19128  user */\n      dup2\n        /* \"contracts/MFI_HECO_PATCH.sol\":19094:19104  m_User_Map */\n      0x26\n        /* \"contracts/MFI_HECO_PATCH.sol\":19094:19110  m_User_Map[user] */\n      0x00\n        /* \"contracts/MFI_HECO_PATCH.sol\":19105:19109  user */\n      dup5\n        /* \"contracts/MFI_HECO_PATCH.sol\":19094:19110  m_User_Map[user] */\n      0xffffffffffffffffffffffffffffffffffffffff\n      and\n      0xffffffffffffffffffffffffffffffffffffffff\n      and\n      dup2\n      mstore\n      0x20\n      add\n      swap1\n      dup2\n      mstore\n      0x20\n      add\n      0x00\n      keccak256\n        /* \"contracts/MFI_HECO_PATCH.sol\":19094:19123  m_User_Map[user].User_Address */\n      0x00\n      add\n      0x01\n        /* \"contracts/MFI_HECO_PATCH.sol\":19094:19128  m_User_Map[user].User_Address=user */\n      0x0100\n      exp\n      dup2\n      sload\n      dup2\n      0xffffffffffffffffffffffffffffffffffffffff\n      mul\n      not\n      and\n      swap1\n      dup4\n      0xffffffffffffffffffffffffffffffffffffffff\n      and\n      mul\n      or\n      swap1\n      sstore\n      pop\n        /* \"contracts/MFI_HECO_PATCH.sol\":19299:19328  m_Stacking_Block_Number_Start */\n      sload(0x16)\n        /* \"contracts/MFI_HECO_PATCH.sol\":19253:19263  m_User_Map */\n      0x26\n        /* \"contracts/MFI_HECO_PATCH.sol\":19253:19269  m_User_Map[user] */\n      0x00\n        /* \"contracts/MFI_HECO_PATCH.sol\":19264:19268  user */\n      dup5\n        /* \"contracts/MFI_HECO_PATCH.sol\":19253:19269  m_User_Map[user] */\n      0xffffffffffffffffffffffffffffffffffffffff\n      and\n      0xffffffffffffffffffffffffffffffffffffffff\n      and\n      dup2\n      mstore\n      0x20\n      add\n      swap1\n      dup2\n      mstore\n      0x20\n      add\n      0x00\n      keccak256\n        /* \"contracts/MFI_HECO_PATCH.sol\":19253:19297  m_User_Map[user].Stacking_Block_Number_Start */\n      0x0b\n      add\n      sload\n        /* \"contracts/MFI_HECO_PATCH.sol\":19253:19328  m_User_Map[user].Stacking_Block_Number_Start<=m_Stacking_Block_Number_Start */\n      gt\n        /* \"contracts/MFI_HECO_PATCH.sol\":19250:19439  if(m_User_Map[user].Stacking_Block_Number_Start<=m_Stacking_Block_Number_Start)\r... */\n      tag_555\n      jumpi\n        /* \"contracts/MFI_HECO_PATCH.sol\":19408:19423  block_num_clamp */\n      dup1\n        /* \"contracts/MFI_HECO_PATCH.sol\":19362:19372  m_User_Map */\n      0x26\n        /* \"contracts/MFI_HECO_PATCH.sol\":19362:19378  m_User_Map[user] */\n      0x00\n        /* \"contracts/MFI_HECO_PATCH.sol\":19373:19377  user */\n      dup5\n        /* \"contracts/MFI_HECO_PATCH.sol\":19362:19378  m_User_Map[user] */\n      0xffffffffffffffffffffffffffffffffffffffff\n      and\n      0xffffffffffffffffffffffffffffffffffffffff\n      and\n      dup2\n      mstore\n      0x20\n      add\n      swap1\n      dup2\n      mstore\n      0x20\n      add\n      0x00\n      keccak256\n        /* \"contracts/MFI_HECO_PATCH.sol\":19362:19406  m_User_Map[user].Stacking_Block_Number_Start */\n      0x0b\n      add\n        /* \"contracts/MFI_HECO_PATCH.sol\":19362:19423  m_User_Map[user].Stacking_Block_Number_Start= block_num_clamp */\n      dup2\n      swap1\n      sstore\n      pop\n        /* \"contracts/MFI_HECO_PATCH.sol\":19250:19439  if(m_User_Map[user].Stacking_Block_Number_Start<=m_Stacking_Block_Number_Start)\r... */\n    tag_555:\n        /* \"contracts/MFI_HECO_PATCH.sol\":19502:19517  block_num_clamp */\n      dup1\n        /* \"contracts/MFI_HECO_PATCH.sol\":19456:19466  m_User_Map */\n      0x26\n        /* \"contracts/MFI_HECO_PATCH.sol\":19456:19472  m_User_Map[user] */\n      0x00\n        /* \"contracts/MFI_HECO_PATCH.sol\":19467:19471  user */\n      dup5\n        /* \"contracts/MFI_HECO_PATCH.sol\":19456:19472  m_User_Map[user] */\n      0xffffffffffffffffffffffffffffffffffffffff\n      and\n      0xffffffffffffffffffffffffffffffffffffffff\n      and\n      dup2\n      mstore\n      0x20\n      add\n      swap1\n      dup2\n      mstore\n      0x20\n      add\n      0x00\n      keccak256\n        /* \"contracts/MFI_HECO_PATCH.sol\":19456:19500  m_User_Map[user].Stacking_Block_Number_Start */\n      0x0b\n      add\n      sload\n        /* \"contracts/MFI_HECO_PATCH.sol\":19456:19517  m_User_Map[user].Stacking_Block_Number_Start> block_num_clamp */\n      gt\n        /* \"contracts/MFI_HECO_PATCH.sol\":19453:19628  if(m_User_Map[user].Stacking_Block_Number_Start> block_num_clamp)\r... */\n      iszero\n      tag_556\n      jumpi\n        /* \"contracts/MFI_HECO_PATCH.sol\":19597:19612  block_num_clamp */\n      dup1\n        /* \"contracts/MFI_HECO_PATCH.sol\":19551:19561  m_User_Map */\n      0x26\n        /* \"contracts/MFI_HECO_PATCH.sol\":19551:19567  m_User_Map[user] */\n      0x00\n        /* \"contracts/MFI_HECO_PATCH.sol\":19562:19566  user */\n      dup5\n        /* \"contracts/MFI_HECO_PATCH.sol\":19551:19567  m_User_Map[user] */\n      0xffffffffffffffffffffffffffffffffffffffff\n      and\n      0xffffffffffffffffffffffffffffffffffffffff\n      and\n      dup2\n      mstore\n      0x20\n      add\n      swap1\n      dup2\n      mstore\n      0x20\n      add\n      0x00\n      keccak256\n        /* \"contracts/MFI_HECO_PATCH.sol\":19551:19595  m_User_Map[user].Stacking_Block_Number_Start */\n      0x0b\n      add\n        /* \"contracts/MFI_HECO_PATCH.sol\":19551:19612  m_User_Map[user].Stacking_Block_Number_Start= block_num_clamp */\n      dup2\n      swap1\n      sstore\n      pop\n        /* \"contracts/MFI_HECO_PATCH.sol\":19453:19628  if(m_User_Map[user].Stacking_Block_Number_Start> block_num_clamp)\r... */\n    tag_556:\n        /* \"contracts/MFI_HECO_PATCH.sol\":19692:19720  m_Stacking_Block_Number_Stop */\n      sload(0x17)\n        /* \"contracts/MFI_HECO_PATCH.sol\":19645:19655  m_User_Map */\n      0x26\n        /* \"contracts/MFI_HECO_PATCH.sol\":19645:19661  m_User_Map[user] */\n      0x00\n        /* \"contracts/MFI_HECO_PATCH.sol\":19656:19660  user */\n      dup5\n        /* \"contracts/MFI_HECO_PATCH.sol\":19645:19661  m_User_Map[user] */\n      0xffffffffffffffffffffffffffffffffffffffff\n      and\n      0xffffffffffffffffffffffffffffffffffffffff\n      and\n      dup2\n      mstore\n      0x20\n      add\n      swap1\n      dup2\n      mstore\n      0x20\n      add\n      0x00\n      keccak256\n        /* \"contracts/MFI_HECO_PATCH.sol\":19645:19689  m_User_Map[user].Stacking_Block_Number_Start */\n      0x0b\n      add\n      sload\n        /* \"contracts/MFI_HECO_PATCH.sol\":19645:19720  m_User_Map[user].Stacking_Block_Number_Start>= m_Stacking_Block_Number_Stop */\n      lt\n        /* \"contracts/MFI_HECO_PATCH.sol\":19642:19844  if(m_User_Map[user].Stacking_Block_Number_Start>= m_Stacking_Block_Number_Stop )\r... */\n      tag_557\n      jumpi\n        /* \"contracts/MFI_HECO_PATCH.sol\":19800:19828  m_Stacking_Block_Number_Stop */\n      sload(0x17)\n        /* \"contracts/MFI_HECO_PATCH.sol\":19755:19765  m_User_Map */\n      0x26\n        /* \"contracts/MFI_HECO_PATCH.sol\":19755:19771  m_User_Map[user] */\n      0x00\n        /* \"contracts/MFI_HECO_PATCH.sol\":19766:19770  user */\n      dup5\n        /* \"contracts/MFI_HECO_PATCH.sol\":19755:19771  m_User_Map[user] */\n      0xffffffffffffffffffffffffffffffffffffffff\n      and\n      0xffffffffffffffffffffffffffffffffffffffff\n      and\n      dup2\n      mstore\n      0x20\n      add\n      swap1\n      dup2\n      mstore\n      0x20\n      add\n      0x00\n      keccak256\n        /* \"contracts/MFI_HECO_PATCH.sol\":19755:19799  m_User_Map[user].Stacking_Block_Number_Start */\n      0x0b\n      add\n        /* \"contracts/MFI_HECO_PATCH.sol\":19755:19828  m_User_Map[user].Stacking_Block_Number_Start=m_Stacking_Block_Number_Stop */\n      dup2\n      swap1\n      sstore\n      pop\n        /* \"contracts/MFI_HECO_PATCH.sol\":19642:19844  if(m_User_Map[user].Stacking_Block_Number_Start>= m_Stacking_Block_Number_Stop )\r... */\n    tag_557:\n        /* \"contracts/MFI_HECO_PATCH.sol\":19939:19959  uint sum_of_quantity */\n      0x00\n        /* \"contracts/MFI_HECO_PATCH.sol\":19977:19983  uint i */\n      dup1\n        /* \"contracts/MFI_HECO_PATCH.sol\":19972:20811  for (uint i =0;i<8;i++)\r... */\n    tag_558:\n        /* \"contracts/MFI_HECO_PATCH.sol\":19989:19990  8 */\n      0x08\n        /* \"contracts/MFI_HECO_PATCH.sol\":19987:19988  i */\n      dup2\n        /* \"contracts/MFI_HECO_PATCH.sol\":19987:19990  i<8 */\n      lt\n        /* \"contracts/MFI_HECO_PATCH.sol\":19972:20811  for (uint i =0;i<8;i++)\r... */\n      iszero\n      tag_559\n      jumpi\n        /* \"contracts/MFI_HECO_PATCH.sol\":20034:20052  uint t_fixed_point */\n      0x00\n        /* \"contracts/MFI_HECO_PATCH.sol\":20054:20058  2**2 */\n      0x04\n        /* \"contracts/MFI_HECO_PATCH.sol\":20034:20059  uint t_fixed_point=(2**2) */\n      swap1\n      pop\n        /* \"contracts/MFI_HECO_PATCH.sol\":20074:20087  uint quantity */\n      0x00\n        /* \"contracts/MFI_HECO_PATCH.sol\":20088:20213  m_Sum_Of_Weighted_Stacking_Reciprocal_e128[i].sub( m_User_Map[user].Last_Updated_Sum_Of_Weighted_Stacking_Reciprocal_e128[i]) */\n      tag_561\n        /* \"contracts/MFI_HECO_PATCH.sol\":20139:20149  m_User_Map */\n      0x26\n        /* \"contracts/MFI_HECO_PATCH.sol\":20139:20155  m_User_Map[user] */\n      0x00\n        /* \"contracts/MFI_HECO_PATCH.sol\":20150:20154  user */\n      dup9\n        /* \"contracts/MFI_HECO_PATCH.sol\":20139:20155  m_User_Map[user] */\n      0xffffffffffffffffffffffffffffffffffffffff\n      and\n      0xffffffffffffffffffffffffffffffffffffffff\n      and\n      dup2\n      mstore\n      0x20\n      add\n      swap1\n      dup2\n      mstore\n      0x20\n      add\n      0x00\n      keccak256\n        /* \"contracts/MFI_HECO_PATCH.sol\":20139:20209  m_User_Map[user].Last_Updated_Sum_Of_Weighted_Stacking_Reciprocal_e128 */\n      0x0d\n      add\n        /* \"contracts/MFI_HECO_PATCH.sol\":20210:20211  i */\n      dup5\n        /* \"contracts/MFI_HECO_PATCH.sol\":20139:20212  m_User_Map[user].Last_Updated_Sum_Of_Weighted_Stacking_Reciprocal_e128[i] */\n      0x08\n      dup2\n      lt\n      tag_562\n      jumpi\n      invalid\n    tag_562:\n      add\n      sload\n        /* \"contracts/MFI_HECO_PATCH.sol\":20088:20130  m_Sum_Of_Weighted_Stacking_Reciprocal_e128 */\n      0x1b\n        /* \"contracts/MFI_HECO_PATCH.sol\":20131:20132  i */\n      dup6\n        /* \"contracts/MFI_HECO_PATCH.sol\":20088:20133  m_Sum_Of_Weighted_Stacking_Reciprocal_e128[i] */\n      0x08\n      dup2\n      lt\n      tag_564\n      jumpi\n      invalid\n    tag_564:\n      add\n      sload\n        /* \"contracts/MFI_HECO_PATCH.sol\":20088:20137  m_Sum_Of_Weighted_Stacking_Reciprocal_e128[i].sub */\n      tag_266\n      swap1\n        /* \"contracts/MFI_HECO_PATCH.sol\":20088:20213  m_Sum_Of_Weighted_Stacking_Reciprocal_e128[i].sub( m_User_Map[user].Last_Updated_Sum_Of_Weighted_Stacking_Reciprocal_e128[i]) */\n      swap2\n      swap1\n      0xffffffff\n      and\n      jump\t// in\n    tag_561:\n        /* \"contracts/MFI_HECO_PATCH.sol\":20074:20213  uint quantity=m_Sum_Of_Weighted_Stacking_Reciprocal_e128[i].sub( m_User_Map[user].Last_Updated_Sum_Of_Weighted_Stacking_Reciprocal_e128[i]) */\n      swap1\n      pop\n        /* \"contracts/MFI_HECO_PATCH.sol\":20246:20259  t_fixed_point */\n      dup2\n        /* \"contracts/MFI_HECO_PATCH.sol\":20237:20245  quantity */\n      dup2\n        /* \"contracts/MFI_HECO_PATCH.sol\":20237:20259  quantity/t_fixed_point */\n      dup2\n      tag_566\n      jumpi\n      invalid\n    tag_566:\n      div\n        /* \"contracts/MFI_HECO_PATCH.sol\":20228:20259  quantity=quantity/t_fixed_point */\n      swap1\n      pop\n        /* \"contracts/MFI_HECO_PATCH.sol\":20362:20370  quantity */\n      dup1\n        /* \"contracts/MFI_HECO_PATCH.sol\":20321:20331  m_User_Map */\n      0x26\n        /* \"contracts/MFI_HECO_PATCH.sol\":20321:20337  m_User_Map[user] */\n      0x00\n        /* \"contracts/MFI_HECO_PATCH.sol\":20332:20336  user */\n      dup9\n        /* \"contracts/MFI_HECO_PATCH.sol\":20321:20337  m_User_Map[user] */\n      0xffffffffffffffffffffffffffffffffffffffff\n      and\n      0xffffffffffffffffffffffffffffffffffffffff\n      and\n      dup2\n      mstore\n      0x20\n      add\n      swap1\n      dup2\n      mstore\n      0x20\n      add\n      0x00\n      keccak256\n        /* \"contracts/MFI_HECO_PATCH.sol\":20321:20357  m_User_Map[user].Contributed_Amounts */\n      0x15\n      add\n        /* \"contracts/MFI_HECO_PATCH.sol\":20358:20359  i */\n      dup5\n        /* \"contracts/MFI_HECO_PATCH.sol\":20321:20360  m_User_Map[user].Contributed_Amounts[i] */\n      0x08\n      dup2\n      lt\n      tag_567\n      jumpi\n      invalid\n    tag_567:\n      add\n      sload\n        /* \"contracts/MFI_HECO_PATCH.sol\":20284:20294  m_User_Map */\n      0x26\n        /* \"contracts/MFI_HECO_PATCH.sol\":20284:20300  m_User_Map[user] */\n      0x00\n        /* \"contracts/MFI_HECO_PATCH.sol\":20295:20299  user */\n      dup10\n        /* \"contracts/MFI_HECO_PATCH.sol\":20284:20300  m_User_Map[user] */\n      0xffffffffffffffffffffffffffffffffffffffff\n      and\n      0xffffffffffffffffffffffffffffffffffffffff\n      and\n      dup2\n      mstore\n      0x20\n      add\n      swap1\n      dup2\n      mstore\n      0x20\n      add\n      0x00\n      keccak256\n        /* \"contracts/MFI_HECO_PATCH.sol\":20284:20317  m_User_Map[user].Stacking_Amounts */\n      0x1d\n      add\n        /* \"contracts/MFI_HECO_PATCH.sol\":20318:20319  i */\n      dup6\n        /* \"contracts/MFI_HECO_PATCH.sol\":20284:20320  m_User_Map[user].Stacking_Amounts[i] */\n      0x08\n      dup2\n      lt\n      tag_569\n      jumpi\n      invalid\n    tag_569:\n      add\n      sload\n        /* \"contracts/MFI_HECO_PATCH.sol\":20284:20360  m_User_Map[user].Stacking_Amounts[i]+m_User_Map[user].Contributed_Amounts[i] */\n      add\n        /* \"contracts/MFI_HECO_PATCH.sol\":20283:20370  (m_User_Map[user].Stacking_Amounts[i]+m_User_Map[user].Contributed_Amounts[i])*quantity */\n      mul\n        /* \"contracts/MFI_HECO_PATCH.sol\":20274:20370  quantity=(m_User_Map[user].Stacking_Amounts[i]+m_User_Map[user].Contributed_Amounts[i])*quantity */\n      swap1\n      pop\n        /* \"contracts/MFI_HECO_PATCH.sol\":20486:20487  1 */\n      0x01\n        /* \"contracts/MFI_HECO_PATCH.sol\":20477:20485  quantity */\n      dup2\n        /* \"contracts/MFI_HECO_PATCH.sol\":20477:20487  quantity/1 */\n      dup2\n      tag_571\n      jumpi\n      invalid\n    tag_571:\n      div\n        /* \"contracts/MFI_HECO_PATCH.sol\":20468:20487  quantity=quantity/1 */\n      swap1\n      pop\n        /* \"contracts/MFI_HECO_PATCH.sol\":20575:20586  m_FIX_POINT */\n      sload(0x23)\n        /* \"contracts/MFI_HECO_PATCH.sol\":20564:20572  quantity */\n      dup2\n        /* \"contracts/MFI_HECO_PATCH.sol\":20564:20587  quantity/( m_FIX_POINT) */\n      dup2\n      tag_572\n      jumpi\n      invalid\n    tag_572:\n      div\n        /* \"contracts/MFI_HECO_PATCH.sol\":20555:20587  quantity=quantity/( m_FIX_POINT) */\n      swap1\n      pop\n        /* \"contracts/MFI_HECO_PATCH.sol\":20620:20633  t_fixed_point */\n      dup2\n        /* \"contracts/MFI_HECO_PATCH.sol\":20611:20619  quantity */\n      dup2\n        /* \"contracts/MFI_HECO_PATCH.sol\":20611:20633  quantity*t_fixed_point */\n      mul\n        /* \"contracts/MFI_HECO_PATCH.sol\":20602:20633  quantity=quantity*t_fixed_point */\n      swap1\n      pop\n        /* \"contracts/MFI_HECO_PATCH.sol\":20697:20744  m_User_Map[user].Token_Amounts[i].add(quantity) */\n      tag_573\n        /* \"contracts/MFI_HECO_PATCH.sol\":20735:20743  quantity */\n      dup2\n        /* \"contracts/MFI_HECO_PATCH.sol\":20697:20707  m_User_Map */\n      0x26\n        /* \"contracts/MFI_HECO_PATCH.sol\":20697:20713  m_User_Map[user] */\n      0x00\n        /* \"contracts/MFI_HECO_PATCH.sol\":20708:20712  user */\n      dup10\n        /* \"contracts/MFI_HECO_PATCH.sol\":20697:20713  m_User_Map[user] */\n      0xffffffffffffffffffffffffffffffffffffffff\n      and\n      0xffffffffffffffffffffffffffffffffffffffff\n      and\n      dup2\n      mstore\n      0x20\n      add\n      swap1\n      dup2\n      mstore\n      0x20\n      add\n      0x00\n      keccak256\n        /* \"contracts/MFI_HECO_PATCH.sol\":20697:20727  m_User_Map[user].Token_Amounts */\n      0x03\n      add\n        /* \"contracts/MFI_HECO_PATCH.sol\":20728:20729  i */\n      dup6\n        /* \"contracts/MFI_HECO_PATCH.sol\":20697:20730  m_User_Map[user].Token_Amounts[i] */\n      0x08\n      dup2\n      lt\n      tag_574\n      jumpi\n      invalid\n    tag_574:\n      add\n      sload\n        /* \"contracts/MFI_HECO_PATCH.sol\":20697:20734  m_User_Map[user].Token_Amounts[i].add */\n      tag_276\n      swap1\n        /* \"contracts/MFI_HECO_PATCH.sol\":20697:20744  m_User_Map[user].Token_Amounts[i].add(quantity) */\n      swap2\n      swap1\n      0xffffffff\n      and\n      jump\t// in\n    tag_573:\n        /* \"contracts/MFI_HECO_PATCH.sol\":20662:20672  m_User_Map */\n      0x26\n        /* \"contracts/MFI_HECO_PATCH.sol\":20662:20678  m_User_Map[user] */\n      0x00\n        /* \"contracts/MFI_HECO_PATCH.sol\":20673:20677  user */\n      dup9\n        /* \"contracts/MFI_HECO_PATCH.sol\":20662:20678  m_User_Map[user] */\n      0xffffffffffffffffffffffffffffffffffffffff\n      and\n      0xffffffffffffffffffffffffffffffffffffffff\n      and\n      dup2\n      mstore\n      0x20\n      add\n      swap1\n      dup2\n      mstore\n      0x20\n      add\n      0x00\n      keccak256\n        /* \"contracts/MFI_HECO_PATCH.sol\":20662:20692  m_User_Map[user].Token_Amounts */\n      0x03\n      add\n        /* \"contracts/MFI_HECO_PATCH.sol\":20693:20694  i */\n      dup5\n        /* \"contracts/MFI_HECO_PATCH.sol\":20662:20695  m_User_Map[user].Token_Amounts[i] */\n      0x08\n      dup2\n      lt\n      tag_576\n      jumpi\n      invalid\n    tag_576:\n      add\n        /* \"contracts/MFI_HECO_PATCH.sol\":20662:20744  m_User_Map[user].Token_Amounts[i]= m_User_Map[user].Token_Amounts[i].add(quantity) */\n      dup2\n      swap1\n      sstore\n      pop\n        /* \"contracts/MFI_HECO_PATCH.sol\":20791:20799  quantity */\n      dup1\n        /* \"contracts/MFI_HECO_PATCH.sol\":20775:20790  sum_of_quantity */\n      dup5\n        /* \"contracts/MFI_HECO_PATCH.sol\":20775:20799  sum_of_quantity+quantity */\n      add\n        /* \"contracts/MFI_HECO_PATCH.sol\":20759:20799  sum_of_quantity=sum_of_quantity+quantity */\n      swap4\n      pop\n        /* \"contracts/MFI_HECO_PATCH.sol\":19972:20811  for (uint i =0;i<8;i++)\r... */\n      pop\n      pop\n        /* \"contracts/MFI_HECO_PATCH.sol\":19991:19994  i++ */\n      dup1\n      dup1\n      0x01\n      add\n      swap2\n      pop\n      pop\n        /* \"contracts/MFI_HECO_PATCH.sol\":19972:20811  for (uint i =0;i<8;i++)\r... */\n      jump(tag_558)\n    tag_559:\n      pop\n        /* \"contracts/MFI_HECO_PATCH.sol\":20972:20987  block_num_clamp */\n      dup2\n        /* \"contracts/MFI_HECO_PATCH.sol\":20926:20936  m_User_Map */\n      0x26\n        /* \"contracts/MFI_HECO_PATCH.sol\":20926:20942  m_User_Map[user] */\n      0x00\n        /* \"contracts/MFI_HECO_PATCH.sol\":20937:20941  user */\n      dup6\n        /* \"contracts/MFI_HECO_PATCH.sol\":20926:20942  m_User_Map[user] */\n      0xffffffffffffffffffffffffffffffffffffffff\n      and\n      0xffffffffffffffffffffffffffffffffffffffff\n      and\n      dup2\n      mstore\n      0x20\n      add\n      swap1\n      dup2\n      mstore\n      0x20\n      add\n      0x00\n      keccak256\n        /* \"contracts/MFI_HECO_PATCH.sol\":20926:20970  m_User_Map[user].Stacking_Block_Number_Start */\n      0x0b\n      add\n        /* \"contracts/MFI_HECO_PATCH.sol\":20926:20987  m_User_Map[user].Stacking_Block_Number_Start= block_num_clamp */\n      dup2\n      swap1\n      sstore\n      pop\n        /* \"contracts/MFI_HECO_PATCH.sol\":21203:21245  m_Sum_Of_Weighted_Stacking_Reciprocal_e128 */\n      0x1b\n        /* \"contracts/MFI_HECO_PATCH.sol\":21131:21141  m_User_Map */\n      0x26\n        /* \"contracts/MFI_HECO_PATCH.sol\":21131:21147  m_User_Map[user] */\n      0x00\n        /* \"contracts/MFI_HECO_PATCH.sol\":21142:21146  user */\n      dup6\n        /* \"contracts/MFI_HECO_PATCH.sol\":21131:21147  m_User_Map[user] */\n      0xffffffffffffffffffffffffffffffffffffffff\n      and\n      0xffffffffffffffffffffffffffffffffffffffff\n      and\n      dup2\n      mstore\n      0x20\n      add\n      swap1\n      dup2\n      mstore\n      0x20\n      add\n      0x00\n      keccak256\n        /* \"contracts/MFI_HECO_PATCH.sol\":21131:21201  m_User_Map[user].Last_Updated_Sum_Of_Weighted_Stacking_Reciprocal_e128 */\n      0x0d\n      add\n        /* \"contracts/MFI_HECO_PATCH.sol\":21131:21245  m_User_Map[user].Last_Updated_Sum_Of_Weighted_Stacking_Reciprocal_e128= m_Sum_Of_Weighted_Stacking_Reciprocal_e128 */\n      swap1\n      0x08\n      tag_578\n      swap3\n      swap2\n      swap1\n      tag_417\n      jump\t// in\n    tag_578:\n      pop\n        /* \"contracts/MFI_HECO_PATCH.sol\":18754:21265  function Update_User(address user) private\r... */\n      pop\n      pop\n    tag_552:\n      pop\n      jump\t// out\n        /* \"contracts/MFI_HECO_PATCH.sol\":7175:7305  function GetRefererAddress(address user )private returns(address)\r... */\n    tag_356:\n        /* \"contracts/MFI_HECO_PATCH.sol\":7232:7239  address */\n      0x00\n        /* \"contracts/MFI_HECO_PATCH.sol\":7264:7274  m_User_Map */\n      0x26\n        /* \"contracts/MFI_HECO_PATCH.sol\":7264:7280  m_User_Map[user] */\n      0x00\n        /* \"contracts/MFI_HECO_PATCH.sol\":7275:7279  user */\n      dup4\n        /* \"contracts/MFI_HECO_PATCH.sol\":7264:7280  m_User_Map[user] */\n      0xffffffffffffffffffffffffffffffffffffffff\n      and\n      0xffffffffffffffffffffffffffffffffffffffff\n      and\n      dup2\n      mstore\n      0x20\n      add\n      swap1\n      dup2\n      mstore\n      0x20\n      add\n      0x00\n      keccak256\n        /* \"contracts/MFI_HECO_PATCH.sol\":7264:7296  m_User_Map[user].Referer_Address */\n      0x01\n      add\n      0x00\n      swap1\n      sload\n      swap1\n      0x0100\n      exp\n      swap1\n      div\n      0xffffffffffffffffffffffffffffffffffffffff\n      and\n        /* \"contracts/MFI_HECO_PATCH.sol\":7257:7297  return(m_User_Map[user].Referer_Address) */\n      swap1\n      pop\n        /* \"contracts/MFI_HECO_PATCH.sol\":7175:7305  function GetRefererAddress(address user )private returns(address)\r... */\n      swap2\n      swap1\n      pop\n      jump\t// out\n    tag_238:\n      mload(0x40)\n      dup1\n      0x0100\n      add\n      0x40\n      mstore\n      dup1\n      0x08\n      swap1\n      0x20\n      dup3\n      mul\n      dup1\n      calldatasize\n      dup4\n      calldatacopy\n      dup1\n      dup3\n      add\n      swap2\n      pop\n      pop\n      swap1\n      pop\n      pop\n      swap1\n      jump\t// out\n    tag_417:\n      dup3\n      0x08\n      dup2\n      add\n      swap3\n      dup3\n      iszero\n      tag_580\n      jumpi\n      swap2\n      dup3\n      add\n    tag_581:\n      dup3\n      dup2\n      gt\n      iszero\n      tag_582\n      jumpi\n      dup3\n      sload\n      dup3\n      sstore\n      swap2\n      0x01\n      add\n      swap2\n      swap1\n      0x01\n      add\n      swap1\n      jump(tag_581)\n    tag_582:\n    tag_580:\n      pop\n      swap1\n      pop\n      tag_583\n      swap2\n      swap1\n      tag_584\n      jump\t// in\n    tag_583:\n      pop\n      swap1\n      jump\t// out\n    tag_584:\n    tag_585:\n      dup1\n      dup3\n      gt\n      iszero\n      tag_586\n      jumpi\n      0x00\n      dup2\n      0x00\n      swap1\n      sstore\n      pop\n      0x01\n      add\n      jump(tag_585)\n    tag_586:\n      pop\n      swap1\n      jump\t// out\n\n    auxdata: 0xa264697066735822122005bb4727ce63f7d03d4a0bf1223248831fe6d5702ecaa6e093992c1573ec818064736f6c634300060c0033\n}\n",
				"bytecode": {
					"linkReferences": {},
					"object": "60806040526000601a557001000000000000000000000000000000006023553480156200002b57600080fd5b50336000806101000a81548173ffffffffffffffffffffffffffffffffffffffff021916908373ffffffffffffffffffffffffffffffffffffffff160217905550670de0b6b3a76400006018819055506000602460006101000a81548160ff0219169083151502179055506001601981905550600160258190555043601a81905550436016819055507fffffffffffffffffffffffffffffffffffffffffffffffffffffffffffffffff60178190555060005b6008811015620000f6578080600101915050620000de565b50614b0b80620001076000396000f3fe60806040526004361061026a5760003560e01c80638231eb9711610144578063ada21d81116100b6578063e20a270e1161007a578063e20a270e14610fd9578063ed89682014611014578063f2a060b11461103f578063f2fde38b146110b0578063fa25d72f14611101578063fc3527431461115257610271565b8063ada21d8114610eaa578063cbf4866614610ed5578063cc4c9ba414610f1a578063d4ee1d9014610f47578063da906fed14610f8857610271565b8063924b9f5911610108578063924b9f5914610bef57806398e3452414610c565780639a64d5cb14610ce35780639bfa7d6414610d325780639f48af9714610d5d578063a7d16f3014610db857610271565b80638231eb97146109e0578063836912ce14610a0b578063867e502314610a985780638ce1842a14610aff5780638da5cb5b14610bae57610271565b80634f57e1e3116101dd5780635d857051116101a15780635d857051146108a057806360b1da5b146108e15780636985a0221461091c57806369bd1cf41461093357806379ba50971461098e5780637d6e1f43146109a557610271565b80634f57e1e3146106e85780634f9a6815146107375780634fd6159a1461078657806352f779e8146107bf57806354fd7a2c146107ea57610271565b80631c41499b1161022f5780631c41499b146104245780631d1225bb146104655780631d14e24414610490578063229efe2a146105e9578063490d6d11146106765780634f3dab0e1461068d57610271565b80623146fe14610273578063062d93cc146103005780630815141c146103415780630ff8b3331461038657806310258de0146103f757610271565b3661027157005b005b34801561027f57600080fd5b506102c26004803603602081101561029657600080fd5b81019080803573ffffffffffffffffffffffffffffffffffffffff16906020019092919050505061117d565b6040518082600860200280838360005b838110156102ed5780820151818401526020810190506102d2565b5050505090500191505060405180910390f35b34801561030c57600080fd5b506103156114b4565b604051808273ffffffffffffffffffffffffffffffffffffffff16815260200191505060405180910390f35b34801561034d57600080fd5b506103846004803603604081101561036457600080fd5b8101908080359060200190929190803590602001909291905050506114da565b005b34801561039257600080fd5b506103f5600480360360408110156103a957600080fd5b81019080803573ffffffffffffffffffffffffffffffffffffffff169060200190929190803573ffffffffffffffffffffffffffffffffffffffff169060200190929190505050611549565b005b34801561040357600080fd5b5061040c611627565b60405180821515815260200191505060405180910390f35b34801561043057600080fd5b506104396116c2565b604051808273ffffffffffffffffffffffffffffffffffffffff16815260200191505060405180910390f35b34801561047157600080fd5b5061047a6116e8565b6040518082815260200191505060405180910390f35b34801561049c57600080fd5b506105e7600480360360408110156104b357600080fd5b81019080803590602001906401000000008111156104d057600080fd5b8201836020820111156104e257600080fd5b8035906020019184602083028401116401000000008311171561050457600080fd5b919080806020026020016040519081016040528093929190818152602001838360200280828437600081840152601f19601f8201169050808301925050505050505091929192908035906020019064010000000081111561056457600080fd5b82018360208201111561057657600080fd5b8035906020019184602083028401116401000000008311171561059857600080fd5b919080806020026020016040519081016040528093929190818152602001838360200280828437600081840152601f19601f8201169050808301925050505050505091929192905050506116ee565b005b3480156105f557600080fd5b506106386004803603602081101561060c57600080fd5b81019080803573ffffffffffffffffffffffffffffffffffffffff1690602001909291905050506118ed565b6040518082600860200280838360005b83811015610663578082015181840152602081019050610648565b5050505090500191505060405180910390f35b34801561068257600080fd5b5061068b61197a565b005b34801561069957600080fd5b506106e6600480360360408110156106b057600080fd5b81019080803573ffffffffffffffffffffffffffffffffffffffff16906020019092919080359060200190929190505050611a16565b005b3480156106f457600080fd5b506107216004803603602081101561070b57600080fd5b8101908080359060200190929190505050611b1f565b6040518082815260200191505060405180910390f35b34801561074357600080fd5b506107706004803603602081101561075a57600080fd5b8101908080359060200190929190505050611b37565b6040518082815260200191505060405180910390f35b34801561079257600080fd5b5061079b611b4f565b60405180848152602001838152602001828152602001935050505060405180910390f35b3480156107cb57600080fd5b506107d4611b68565b6040518082815260200191505060405180910390f35b3480156107f657600080fd5b506108396004803603602081101561080d57600080fd5b81019080803573ffffffffffffffffffffffffffffffffffffffff169060200190929190505050611b6e565b6040518087151581526020018673ffffffffffffffffffffffffffffffffffffffff1681526020018573ffffffffffffffffffffffffffffffffffffffff168152602001848152602001838152602001828152602001965050505050505060405180910390f35b3480156108ac57600080fd5b506108b5611bf7565b604051808273ffffffffffffffffffffffffffffffffffffffff16815260200191505060405180910390f35b3480156108ed57600080fd5b5061091a6004803603602081101561090457600080fd5b8101908080359060200190929190505050611c1d565b005b34801561092857600080fd5b50610931611c9b565b005b34801561093f57600080fd5b506109766004803603604081101561095657600080fd5b810190808035906020019092919080359060200190929190505050611d17565b60405180821515815260200191505060405180910390f35b34801561099a57600080fd5b506109a36125c7565b005b3480156109b157600080fd5b506109de600480360360208110156109c857600080fd5b8101908080359060200190929190505050612763565b005b3480156109ec57600080fd5b506109f56127e1565b6040518082815260200191505060405180910390f35b348015610a1757600080fd5b50610a5a60048036036020811015610a2e57600080fd5b81019080803573ffffffffffffffffffffffffffffffffffffffff1690602001909291905050506127e7565b6040518082600860200280838360005b83811015610a85578082015181840152602081019050610a6a565b5050505090500191505060405180910390f35b348015610aa457600080fd5b50610ae760048036036020811015610abb57600080fd5b81019080803573ffffffffffffffffffffffffffffffffffffffff169060200190929190505050612874565b60405180821515815260200191505060405180910390f35b348015610b0b57600080fd5b50610b4e60048036036020811015610b2257600080fd5b81019080803573ffffffffffffffffffffffffffffffffffffffff1690602001909291905050506129b3565b6040518086151581526020018573ffffffffffffffffffffffffffffffffffffffff1681526020018473ffffffffffffffffffffffffffffffffffffffff1681526020018381526020018281526020019550505050505060405180910390f35b348015610bba57600080fd5b50610bc3612b6a565b604051808273ffffffffffffffffffffffffffffffffffffffff16815260200191505060405180910390f35b348015610bfb57600080fd5b50610c3e60048036036020811015610c1257600080fd5b81019080803573ffffffffffffffffffffffffffffffffffffffff169060200190929190505050612b8e565b60405180821515815260200191505060405180910390f35b348015610c6257600080fd5b50610ca560048036036020811015610c7957600080fd5b81019080803573ffffffffffffffffffffffffffffffffffffffff1690602001909291905050506130f0565b6040518082600860200280838360005b83811015610cd0578082015181840152602081019050610cb5565b5050505090500191505060405180910390f35b348015610cef57600080fd5b50610d1c60048036036020811015610d0657600080fd5b810190808035906020019092919050505061317d565b6040518082815260200191505060405180910390f35b348015610d3e57600080fd5b50610d47613195565b6040518082815260200191505060405180910390f35b348015610d6957600080fd5b50610da060048036036040811015610d8057600080fd5b81019080803590602001909291908035906020019092919050505061319b565b60405180821515815260200191505060405180910390f35b348015610dc457600080fd5b50610ea860048036036060811015610ddb57600080fd5b81019080803573ffffffffffffffffffffffffffffffffffffffff1690602001909291908035906020019092919080359060200190640100000000811115610e2257600080fd5b820183602082011115610e3457600080fd5b80359060200191846001830284011164010000000083111715610e5657600080fd5b91908080601f016020809104026020016040519081016040528093929190818152602001838380828437600081840152601f19601f820116905080830192505050505050509192919290505050613b14565b005b348015610eb657600080fd5b50610ebf613c27565b6040518082815260200191505060405180910390f35b348015610ee157600080fd5b50610f1860048036036040811015610ef857600080fd5b810190808035906020019092919080359060200190929190505050613c2d565b005b348015610f2657600080fd5b50610f2f613ce4565b60405180821515815260200191505060405180910390f35b348015610f5357600080fd5b50610f5c613db8565b604051808273ffffffffffffffffffffffffffffffffffffffff16815260200191505060405180910390f35b348015610f9457600080fd5b50610fd760048036036020811015610fab57600080fd5b81019080803573ffffffffffffffffffffffffffffffffffffffff169060200190929190505050613dde565b005b348015610fe557600080fd5b5061101260048036036020811015610ffc57600080fd5b8101908080359060200190929190505050613e7a565b005b34801561102057600080fd5b50611029613edc565b6040518082815260200191505060405180910390f35b34801561104b57600080fd5b506110ae6004803603604081101561106257600080fd5b81019080803573ffffffffffffffffffffffffffffffffffffffff169060200190929190803573ffffffffffffffffffffffffffffffffffffffff169060200190929190505050613ee2565b005b3480156110bc57600080fd5b506110ff600480360360208110156110d357600080fd5b81019080803573ffffffffffffffffffffffffffffffffffffffff16906020019092919050505061402a565b005b34801561110d57600080fd5b5061113a6004803603602081101561112457600080fd5b81019080803590602001909291905050506140c6565b60405180821515815260200191505060405180910390f35b34801561115e57600080fd5b5061116761438e565b6040518082815260200191505060405180910390f35b611185614a58565b600043905060175481111561119a5760175490505b6016548110156111aa5760165490505b6000601a54820390506111bb614a58565b601b6008806020026040519081016040528092919082600880156111f4576020028201915b8154815260200190600101908083116111e0575b5050505050905060008214156112095761127b565b60005b600881101561127957600060235490506000601854905080828161122c57fe5b0491506002836008811061123c57fe5b015485830202915081601b846008811061125257fe5b01540184846008811061126157fe5b6020020181815250505050808060010191505061120c565b505b611283614a58565b602660008773ffffffffffffffffffffffffffffffffffffffff1673ffffffffffffffffffffffffffffffffffffffff1681526020019081526020016000206003016008806020026040519081016040528092919082600880156112fc576020028201915b8154815260200190600101908083116112e8575b505050505090506000805b60088110156114a6576000600290506000611389602660008c73ffffffffffffffffffffffffffffffffffffffff1673ffffffffffffffffffffffffffffffffffffffff168152602001908152602001600020600d01846008811061136857fe5b015487856008811061137657fe5b602002015161439490919063ffffffff16565b905081818161139457fe5b04905080602660008c73ffffffffffffffffffffffffffffffffffffffff1673ffffffffffffffffffffffffffffffffffffffff16815260200190815260200160002060150184600881106113e557fe5b0154602660008d73ffffffffffffffffffffffffffffffffffffffff1673ffffffffffffffffffffffffffffffffffffffff168152602001908152602001600020601d01856008811061143457fe5b0154010290506001818161144457fe5b049050602354818161145257fe5b049050818102905061147d8186856008811061146a57fe5b60200201516143ae90919063ffffffff16565b85846008811061148957fe5b602002018181525050808401935050508080600101915050611307565b508195505050505050919050565b601560009054906101000a900473ffffffffffffffffffffffffffffffffffffffff1681565b60008054906101000a900473ffffffffffffffffffffffffffffffffffffffff1673ffffffffffffffffffffffffffffffffffffffff163373ffffffffffffffffffffffffffffffffffffffff161461153257600080fd5b80600b836008811061154057fe5b01819055505050565b60008054906101000a900473ffffffffffffffffffffffffffffffffffffffff1673ffffffffffffffffffffffffffffffffffffffff163373ffffffffffffffffffffffffffffffffffffffff16146115a157600080fd5b81601460006101000a81548173ffffffffffffffffffffffffffffffffffffffff021916908373ffffffffffffffffffffffffffffffffffffffff16021790555080601560006101000a81548173ffffffffffffffffffffffffffffffffffffffff021916908373ffffffffffffffffffffffffffffffffffffffff1602179055505050565b600060011515602660003373ffffffffffffffffffffffffffffffffffffffff1673ffffffffffffffffffffffffffffffffffffffff16815260200190815260200160002060000160009054906101000a900460ff1615151461168957600080fd5b60011515602460009054906101000a900460ff16151514156116aa57600080fd5b6116b26143c8565b6116bb3361447e565b6001905090565b601460009054906101000a900473ffffffffffffffffffffffffffffffffffffffff1681565b60235481565b601360009054906101000a900473ffffffffffffffffffffffffffffffffffffffff1673ffffffffffffffffffffffffffffffffffffffff163373ffffffffffffffffffffffffffffffffffffffff16146117b1576040517f08c379a000000000000000000000000000000000000000000000000000000000815260040180806020018281038252600c8152602001807f4449535155414c4946494544000000000000000000000000000000000000000081525060200191505060405180910390fd5b8051825114611828576040517f08c379a000000000000000000000000000000000000000000000000000000000815260040180806020018281038252600c8152602001807f494e56414c49442044415441000000000000000000000000000000000000000081525060200191505060405180910390fd5b60005b82518110156118e85781818151811061184057fe5b60200260200101516026600085848151811061185857fe5b602002602001015173ffffffffffffffffffffffffffffffffffffffff1673ffffffffffffffffffffffffffffffffffffffff16815260200190815260200160002060010160006101000a81548173ffffffffffffffffffffffffffffffffffffffff021916908373ffffffffffffffffffffffffffffffffffffffff160217905550808060010191505061182b565b505050565b6118f5614a58565b602660008373ffffffffffffffffffffffffffffffffffffffff1673ffffffffffffffffffffffffffffffffffffffff168152602001908152602001600020601d0160088060200260405190810160405280929190826008801561196e576020028201915b81548152602001906001019080831161195a575b50505050509050919050565b60008054906101000a900473ffffffffffffffffffffffffffffffffffffffff1673ffffffffffffffffffffffffffffffffffffffff163373ffffffffffffffffffffffffffffffffffffffff16146119d257600080fd5b6000602460006101000a81548160ff0219169083151502179055507fffffffffffffffffffffffffffffffffffffffffffffffffffffffffffffffff601781905550565b60008054906101000a900473ffffffffffffffffffffffffffffffffffffffff1673ffffffffffffffffffffffffffffffffffffffff163373ffffffffffffffffffffffffffffffffffffffff1614611a6e57600080fd5b8173ffffffffffffffffffffffffffffffffffffffff1663a9059cbb33836040518363ffffffff1660e01b8152600401808373ffffffffffffffffffffffffffffffffffffffff16815260200182815260200192505050602060405180830381600087803b158015611adf57600080fd5b505af1158015611af3573d6000803e3d6000fd5b505050506040513d6020811015611b0957600080fd5b8101908080519060200190929190505050505050565b60028160088110611b2c57fe5b016000915090505481565b600b8160088110611b4457fe5b016000915090505481565b6000806000601854601954602554925092509250909192565b60175481565b60266020528060005260406000206000915090508060000160009054906101000a900460ff16908060000160019054906101000a900473ffffffffffffffffffffffffffffffffffffffff16908060010160009054906101000a900473ffffffffffffffffffffffffffffffffffffffff169080600201549080600b01549080600c0154905086565b601360009054906101000a900473ffffffffffffffffffffffffffffffffffffffff1681565b60008054906101000a900473ffffffffffffffffffffffffffffffffffffffff1673ffffffffffffffffffffffffffffffffffffffff163373ffffffffffffffffffffffffffffffffffffffff1614611c7557600080fd5b6000811415611c905760004390508060178190555050611c98565b806017819055505b50565b60008054906101000a900473ffffffffffffffffffffffffffffffffffffffff1673ffffffffffffffffffffffffffffffffffffffff163373ffffffffffffffffffffffffffffffffffffffff1614611cf357600080fd5b6001602460006101000a81548160ff02191690831515021790555043601781905550565b600060011515602660003373ffffffffffffffffffffffffffffffffffffffff1673ffffffffffffffffffffffffffffffffffffffff16815260200190815260200160002060000160009054906101000a900460ff16151514611d7957600080fd5b60004390506000611de1602660003373ffffffffffffffffffffffffffffffffffffffff1673ffffffffffffffffffffffffffffffffffffffff1681526020019081526020016000206025018660088110611dd057fe5b01548361439490919063ffffffff16565b9050600b8560088110611df057fe5b0154811015611dfe57600080fd5b83602660003373ffffffffffffffffffffffffffffffffffffffff1673ffffffffffffffffffffffffffffffffffffffff168152602001908152602001600020601d018660088110611e4c57fe5b01541015611e5957600080fd5b611e616143c8565b611e6a3361447e565b6000602660003373ffffffffffffffffffffffffffffffffffffffff1673ffffffffffffffffffffffffffffffffffffffff1681526020019081526020016000206002015490506000601460009054906101000a900473ffffffffffffffffffffffffffffffffffffffff1673ffffffffffffffffffffffffffffffffffffffff1663a9059cbb33886040518363ffffffff1660e01b8152600401808373ffffffffffffffffffffffffffffffffffffffff16815260200182815260200192505050602060405180830381600087803b158015611f4657600080fd5b505af1158015611f5a573d6000803e3d6000fd5b505050506040513d6020811015611f7057600080fd5b81019080805190602001909291905050509050600015158115151415611f9557600080fd5b611ff686602660003373ffffffffffffffffffffffffffffffffffffffff1673ffffffffffffffffffffffffffffffffffffffff168152602001908152602001600020601d018960088110611fe657fe5b015461439490919063ffffffff16565b602660003373ffffffffffffffffffffffffffffffffffffffff1673ffffffffffffffffffffffffffffffffffffffff168152602001908152602001600020601d01886008811061204357fe5b018190555061205d8660185461439490919063ffffffff16565b601881905550600061206e336149ec565b9050600073ffffffffffffffffffffffffffffffffffffffff168173ffffffffffffffffffffffffffffffffffffffff1614158015612100575060011515602660008373ffffffffffffffffffffffffffffffffffffffff1673ffffffffffffffffffffffffffffffffffffffff16815260200190815260200160002060000160009054906101000a900460ff161515145b1561210f5761210e8161447e565b5b600073ffffffffffffffffffffffffffffffffffffffff168173ffffffffffffffffffffffffffffffffffffffff16146122aa576005878161214d57fe5b04602660008373ffffffffffffffffffffffffffffffffffffffff1673ffffffffffffffffffffffffffffffffffffffff168152602001908152602001600020601501896008811061219b57fe5b01541061225457600587816121ac57fe5b04602660008373ffffffffffffffffffffffffffffffffffffffff1673ffffffffffffffffffffffffffffffffffffffff16815260200190815260200160002060150189600881106121fa57fe5b015403602660008373ffffffffffffffffffffffffffffffffffffffff1673ffffffffffffffffffffffffffffffffffffffff168152602001908152602001600020601501896008811061224a57fe5b01819055506122a9565b6000602660008373ffffffffffffffffffffffffffffffffffffffff1673ffffffffffffffffffffffffffffffffffffffff16815260200190815260200160002060150189600881106122a357fe5b01819055505b5b6122b3816149ec565b9050600073ffffffffffffffffffffffffffffffffffffffff168173ffffffffffffffffffffffffffffffffffffffff1614158015612345575060011515602660008373ffffffffffffffffffffffffffffffffffffffff1673ffffffffffffffffffffffffffffffffffffffff16815260200190815260200160002060000160009054906101000a900460ff161515145b15612354576123538161447e565b5b600073ffffffffffffffffffffffffffffffffffffffff168173ffffffffffffffffffffffffffffffffffffffff16146124ef57600a878161239257fe5b04602660008373ffffffffffffffffffffffffffffffffffffffff1673ffffffffffffffffffffffffffffffffffffffff16815260200190815260200160002060150189600881106123e057fe5b01541061249957600a87816123f157fe5b04602660008373ffffffffffffffffffffffffffffffffffffffff1673ffffffffffffffffffffffffffffffffffffffff168152602001908152602001600020601501896008811061243f57fe5b015403602660008373ffffffffffffffffffffffffffffffffffffffff1673ffffffffffffffffffffffffffffffffffffffff168152602001908152602001600020601501896008811061248f57fe5b01819055506124ee565b6000602660008373ffffffffffffffffffffffffffffffffffffffff1673ffffffffffffffffffffffffffffffffffffffff16815260200190815260200160002060150189600881106124e857fe5b01819055505b5b670214e8348c4f000083101580156125505750670214e8348c4f0000602660003373ffffffffffffffffffffffffffffffffffffffff1673ffffffffffffffffffffffffffffffffffffffff16815260200190815260200160002060020154105b15612562576001601954036019819055505b3373ffffffffffffffffffffffffffffffffffffffff167f34a6b087beadf3148f41320260aebfe87d8e60c97c502169a944b67cae5150498989604051808381526020018281526020019250505060405180910390a260019550505050505092915050565b600160009054906101000a900473ffffffffffffffffffffffffffffffffffffffff1673ffffffffffffffffffffffffffffffffffffffff163373ffffffffffffffffffffffffffffffffffffffff161461262157600080fd5b600160009054906101000a900473ffffffffffffffffffffffffffffffffffffffff1673ffffffffffffffffffffffffffffffffffffffff1660008054906101000a900473ffffffffffffffffffffffffffffffffffffffff1673ffffffffffffffffffffffffffffffffffffffff167f8be0079c531659141344cd1fd0a4f28419497f9722a3daafe3b4186f6b6457e060405160405180910390a3600160009054906101000a900473ffffffffffffffffffffffffffffffffffffffff166000806101000a81548173ffffffffffffffffffffffffffffffffffffffff021916908373ffffffffffffffffffffffffffffffffffffffff1602179055506000600160006101000a81548173ffffffffffffffffffffffffffffffffffffffff021916908373ffffffffffffffffffffffffffffffffffffffff160217905550565b60008054906101000a900473ffffffffffffffffffffffffffffffffffffffff1673ffffffffffffffffffffffffffffffffffffffff163373ffffffffffffffffffffffffffffffffffffffff16146127bb57600080fd5b60008114156127d657600043905080601681905550506127de565b806016819055505b50565b60185481565b6127ef614a58565b602660008373ffffffffffffffffffffffffffffffffffffffff1673ffffffffffffffffffffffffffffffffffffffff168152602001908152602001600020601501600880602002604051908101604052809291908260088015612868576020028201915b815481526020019060010190808311612854575b50505050509050919050565b6000601360009054906101000a900473ffffffffffffffffffffffffffffffffffffffff1673ffffffffffffffffffffffffffffffffffffffff163373ffffffffffffffffffffffffffffffffffffffff1614612939576040517f08c379a000000000000000000000000000000000000000000000000000000000815260040180806020018281038252600c8152602001807f4449535155414c4946494544000000000000000000000000000000000000000081525060200191505060405180910390fd5b6129416143c8565b60011515602660008473ffffffffffffffffffffffffffffffffffffffff1673ffffffffffffffffffffffffffffffffffffffff16815260200190815260200160002060000160009054906101000a900460ff161515146129a157600080fd5b6129aa8261447e565b60019050919050565b6000806000806000602660008773ffffffffffffffffffffffffffffffffffffffff1673ffffffffffffffffffffffffffffffffffffffff16815260200190815260200160002060000160009054906101000a900460ff16602660008873ffffffffffffffffffffffffffffffffffffffff1673ffffffffffffffffffffffffffffffffffffffff16815260200190815260200160002060000160019054906101000a900473ffffffffffffffffffffffffffffffffffffffff16602660008973ffffffffffffffffffffffffffffffffffffffff1673ffffffffffffffffffffffffffffffffffffffff16815260200190815260200160002060010160009054906101000a900473ffffffffffffffffffffffffffffffffffffffff16602660008a73ffffffffffffffffffffffffffffffffffffffff1673ffffffffffffffffffffffffffffffffffffffff16815260200190815260200160002060020154602660008b73ffffffffffffffffffffffffffffffffffffffff1673ffffffffffffffffffffffffffffffffffffffff168152602001908152602001600020600c01549450945094509450945091939590929450565b60008054906101000a900473ffffffffffffffffffffffffffffffffffffffff1681565b600060011515602460009054906101000a900460ff1615151415612bb157600080fd5b612bb96143c8565b600073ffffffffffffffffffffffffffffffffffffffff168273ffffffffffffffffffffffffffffffffffffffff161415612c5c576040517f08c379a000000000000000000000000000000000000000000000000000000000815260040180806020018281038252600d8152602001807f52454645524552204552524f520000000000000000000000000000000000000081525060200191505060405180910390fd5b60001515602660003373ffffffffffffffffffffffffffffffffffffffff1673ffffffffffffffffffffffffffffffffffffffff16815260200190815260200160002060000160009054906101000a900460ff16151514612d25576040517f08c379a000000000000000000000000000000000000000000000000000000000815260040180806020018281038252600a8152602001807f555345522045584953540000000000000000000000000000000000000000000081525060200191505060405180910390fd5b6001602660003373ffffffffffffffffffffffffffffffffffffffff1673ffffffffffffffffffffffffffffffffffffffff16815260200190815260200160002060000160006101000a81548160ff02191690831515021790555033602660003373ffffffffffffffffffffffffffffffffffffffff1673ffffffffffffffffffffffffffffffffffffffff16815260200190815260200160002060000160016101000a81548173ffffffffffffffffffffffffffffffffffffffff021916908373ffffffffffffffffffffffffffffffffffffffff160217905550600073ffffffffffffffffffffffffffffffffffffffff16602660003373ffffffffffffffffffffffffffffffffffffffff1673ffffffffffffffffffffffffffffffffffffffff16815260200190815260200160002060010160009054906101000a900473ffffffffffffffffffffffffffffffffffffffff1673ffffffffffffffffffffffffffffffffffffffff161415612f1a5781602660003373ffffffffffffffffffffffffffffffffffffffff1673ffffffffffffffffffffffffffffffffffffffff16815260200190815260200160002060010160006101000a81548173ffffffffffffffffffffffffffffffffffffffff021916908373ffffffffffffffffffffffffffffffffffffffff1602179055505b43602660003373ffffffffffffffffffffffffffffffffffffffff1673ffffffffffffffffffffffffffffffffffffffff168152602001908152602001600020600b0181905550601b602660003373ffffffffffffffffffffffffffffffffffffffff1673ffffffffffffffffffffffffffffffffffffffff168152602001908152602001600020600d01906008612fb3929190614a7b565b5060005b60088110156130205743602660003373ffffffffffffffffffffffffffffffffffffffff1673ffffffffffffffffffffffffffffffffffffffff168152602001908152602001600020602501826008811061300e57fe5b01819055508080600101915050612fb7565b503373ffffffffffffffffffffffffffffffffffffffff167f66f024455ac5126246bc81854fb46d7bd5ee45cb55639a6a42f5bc4a9cd3a5f8602660003373ffffffffffffffffffffffffffffffffffffffff1673ffffffffffffffffffffffffffffffffffffffff16815260200190815260200160002060010160009054906101000a900473ffffffffffffffffffffffffffffffffffffffff16604051808273ffffffffffffffffffffffffffffffffffffffff16815260200191505060405180910390a260019050919050565b6130f8614a58565b602660008373ffffffffffffffffffffffffffffffffffffffff1673ffffffffffffffffffffffffffffffffffffffff168152602001908152602001600020602501600880602002604051908101604052809291908260088015613171576020028201915b81548152602001906001019080831161315d575b50505050509050919050565b601b816008811061318a57fe5b016000915090505481565b600a5481565b600060011515602660003373ffffffffffffffffffffffffffffffffffffffff1673ffffffffffffffffffffffffffffffffffffffff16815260200190815260200160002060000160009054906101000a900460ff161515146131fd57600080fd5b60011515602460009054906101000a900460ff161515141561321e57600080fd5b600080601460009054906101000a900473ffffffffffffffffffffffffffffffffffffffff1673ffffffffffffffffffffffffffffffffffffffff166370a08231306040518263ffffffff1660e01b8152600401808273ffffffffffffffffffffffffffffffffffffffff16815260200191505060206040518083038186803b1580156132aa57600080fd5b505afa1580156132be573d6000803e3d6000fd5b505050506040513d60208110156132d457600080fd5b810190808051906020019092919050505090506000601460009054906101000a900473ffffffffffffffffffffffffffffffffffffffff1673ffffffffffffffffffffffffffffffffffffffff166323b872dd3330886040518463ffffffff1660e01b8152600401808473ffffffffffffffffffffffffffffffffffffffff1681526020018373ffffffffffffffffffffffffffffffffffffffff1681526020018281526020019350505050602060405180830381600087803b15801561339a57600080fd5b505af11580156133ae573d6000803e3d6000fd5b505050506040513d60208110156133c457600080fd5b810190808051906020019092919050505090506000151581151514156133e957600080fd5b6000601460009054906101000a900473ffffffffffffffffffffffffffffffffffffffff1673ffffffffffffffffffffffffffffffffffffffff166370a08231306040518263ffffffff1660e01b8152600401808273ffffffffffffffffffffffffffffffffffffffff16815260200191505060206040518083038186803b15801561347457600080fd5b505afa158015613488573d6000803e3d6000fd5b505050506040513d602081101561349e57600080fd5b810190808051906020019092919050505090506134c4838261439490919063ffffffff16565b93506000602660003373ffffffffffffffffffffffffffffffffffffffff1673ffffffffffffffffffffffffffffffffffffffff1681526020019081526020016000206002015490506135156143c8565b61351e3361447e565b43602660003373ffffffffffffffffffffffffffffffffffffffff1673ffffffffffffffffffffffffffffffffffffffff168152602001908152602001600020600c018190555043602660003373ffffffffffffffffffffffffffffffffffffffff1673ffffffffffffffffffffffffffffffffffffffff16815260200190815260200160002060250189600881106135b357fe5b01819055506135cd856018546143ae90919063ffffffff16565b60188190555084602660003373ffffffffffffffffffffffffffffffffffffffff1673ffffffffffffffffffffffffffffffffffffffff1681526020019081526020016000206002015401602660003373ffffffffffffffffffffffffffffffffffffffff1673ffffffffffffffffffffffffffffffffffffffff1681526020019081526020016000206002018190555084602660003373ffffffffffffffffffffffffffffffffffffffff1673ffffffffffffffffffffffffffffffffffffffff168152602001908152602001600020601d0189600881106136ac57fe5b015401602660003373ffffffffffffffffffffffffffffffffffffffff1673ffffffffffffffffffffffffffffffffffffffff168152602001908152602001600020601d0189600881106136fc57fe5b0181905550600061370c336149ec565b9050600073ffffffffffffffffffffffffffffffffffffffff168173ffffffffffffffffffffffffffffffffffffffff161415801561379e575060011515602660008373ffffffffffffffffffffffffffffffffffffffff1673ffffffffffffffffffffffffffffffffffffffff16815260200190815260200160002060000160009054906101000a900460ff161515145b156137ad576137ac8161447e565b5b600073ffffffffffffffffffffffffffffffffffffffff168173ffffffffffffffffffffffffffffffffffffffff161461389f5761384c600587816137ee57fe5b04602660008473ffffffffffffffffffffffffffffffffffffffff1673ffffffffffffffffffffffffffffffffffffffff1681526020019081526020016000206015018b6008811061383c57fe5b01546143ae90919063ffffffff16565b602660008373ffffffffffffffffffffffffffffffffffffffff1673ffffffffffffffffffffffffffffffffffffffff1681526020019081526020016000206015018a6008811061389957fe5b01819055505b6138a8816149ec565b9050600073ffffffffffffffffffffffffffffffffffffffff168173ffffffffffffffffffffffffffffffffffffffff161415801561393a575060011515602660008373ffffffffffffffffffffffffffffffffffffffff1673ffffffffffffffffffffffffffffffffffffffff16815260200190815260200160002060000160009054906101000a900460ff161515145b15613949576139488161447e565b5b600073ffffffffffffffffffffffffffffffffffffffff168173ffffffffffffffffffffffffffffffffffffffff1614613a3b576139e8600a878161398a57fe5b04602660008473ffffffffffffffffffffffffffffffffffffffff1673ffffffffffffffffffffffffffffffffffffffff1681526020019081526020016000206015018b600881106139d857fe5b01546143ae90919063ffffffff16565b602660008373ffffffffffffffffffffffffffffffffffffffff1673ffffffffffffffffffffffffffffffffffffffff1681526020019081526020016000206015018a60088110613a3557fe5b01819055505b670214e8348c4f000082108015613a9c5750670214e8348c4f0000602660003373ffffffffffffffffffffffffffffffffffffffff1673ffffffffffffffffffffffffffffffffffffffff1681526020019081526020016000206002015410155b15613aae576001601954016019819055505b3373ffffffffffffffffffffffffffffffffffffffff167f73f90e9312b44db9f93152878d03ae28d85dc9a356b29380fab709cbb4076b528a88604051808381526020018281526020019250505060405180910390a26001965050505050505092915050565b60008054906101000a900473ffffffffffffffffffffffffffffffffffffffff1673ffffffffffffffffffffffffffffffffffffffff163373ffffffffffffffffffffffffffffffffffffffff1614613b6c57600080fd5b8273ffffffffffffffffffffffffffffffffffffffff1682826040518082805190602001908083835b60208310613bb85780518252602082019150602081019050602083039250613b95565b6001836020036101000a03801982511681845116808217855250505050505090500191505060006040518083038185875af1925050503d8060008114613c1a576040519150601f19603f3d011682016040523d82523d6000602084013e613c1f565b606091505b505050505050565b60165481565b60008054906101000a900473ffffffffffffffffffffffffffffffffffffffff1673ffffffffffffffffffffffffffffffffffffffff163373ffffffffffffffffffffffffffffffffffffffff1614613c8557600080fd5b613c8d6143c8565b8060028360088110613c9b57fe5b01819055506000600a8190555060005b6008811015613cdf5760028160088110613cc157fe5b0154600a600082825401925050819055508080600101915050613cab565b505050565b6000601360009054906101000a900473ffffffffffffffffffffffffffffffffffffffff1673ffffffffffffffffffffffffffffffffffffffff163373ffffffffffffffffffffffffffffffffffffffff1614613da9576040517f08c379a000000000000000000000000000000000000000000000000000000000815260040180806020018281038252600c8152602001807f4449535155414c4946494544000000000000000000000000000000000000000081525060200191505060405180910390fd5b613db16143c8565b6001905090565b600160009054906101000a900473ffffffffffffffffffffffffffffffffffffffff1681565b60008054906101000a900473ffffffffffffffffffffffffffffffffffffffff1673ffffffffffffffffffffffffffffffffffffffff163373ffffffffffffffffffffffffffffffffffffffff1614613e3657600080fd5b80601360006101000a81548173ffffffffffffffffffffffffffffffffffffffff021916908373ffffffffffffffffffffffffffffffffffffffff16021790555050565b60008054906101000a900473ffffffffffffffffffffffffffffffffffffffff1673ffffffffffffffffffffffffffffffffffffffff163373ffffffffffffffffffffffffffffffffffffffff1614613ed257600080fd5b8060258190555050565b60195481565b601360009054906101000a900473ffffffffffffffffffffffffffffffffffffffff1673ffffffffffffffffffffffffffffffffffffffff163373ffffffffffffffffffffffffffffffffffffffff1614613fa5576040517f08c379a000000000000000000000000000000000000000000000000000000000815260040180806020018281038252600c8152602001807f4449535155414c4946494544000000000000000000000000000000000000000081525060200191505060405180910390fd5b80602660008473ffffffffffffffffffffffffffffffffffffffff1673ffffffffffffffffffffffffffffffffffffffff16815260200190815260200160002060010160006101000a81548173ffffffffffffffffffffffffffffffffffffffff021916908373ffffffffffffffffffffffffffffffffffffffff1602179055505050565b60008054906101000a900473ffffffffffffffffffffffffffffffffffffffff1673ffffffffffffffffffffffffffffffffffffffff163373ffffffffffffffffffffffffffffffffffffffff161461408257600080fd5b80600160006101000a81548173ffffffffffffffffffffffffffffffffffffffff021916908373ffffffffffffffffffffffffffffffffffffffff16021790555050565b600060011515602660003373ffffffffffffffffffffffffffffffffffffffff1673ffffffffffffffffffffffffffffffffffffffff16815260200190815260200160002060000160009054906101000a900460ff1615151461412857600080fd5b60011515602460009054906101000a900460ff161515141561414957600080fd5b6141516143c8565b61415a3361447e565b6000601560009054906101000a900473ffffffffffffffffffffffffffffffffffffffff1673ffffffffffffffffffffffffffffffffffffffff1663a9059cbb33602660003373ffffffffffffffffffffffffffffffffffffffff1673ffffffffffffffffffffffffffffffffffffffff16815260200190815260200160002060030186600881106141e857fe5b01546040518363ffffffff1660e01b8152600401808373ffffffffffffffffffffffffffffffffffffffff16815260200182815260200192505050602060405180830381600087803b15801561423d57600080fd5b505af1158015614251573d6000803e3d6000fd5b505050506040513d602081101561426757600080fd5b8101908080519060200190929190505050905060001515811515141561428c57600080fd5b3373ffffffffffffffffffffffffffffffffffffffff167f15afccb1ad771a1825d2b2746f7cc02a82c7d0b3fab4be68b06a256b34a3864584602660003373ffffffffffffffffffffffffffffffffffffffff1673ffffffffffffffffffffffffffffffffffffffff168152602001908152602001600020600301866008811061431257fe5b0154604051808381526020018281526020019250505060405180910390a26000602660003373ffffffffffffffffffffffffffffffffffffffff1673ffffffffffffffffffffffffffffffffffffffff168152602001908152602001600020600301846008811061437f57fe5b01819055506001915050919050565b601a5481565b6000828211156143a357600080fd5b818303905092915050565b60008183019050828110156143c257600080fd5b92915050565b60004390506017548111156143dd5760175490505b6016548110156143ed5760165490505b6000601a5482039050600081141561440457614473565b60005b600881101561447157600060235490506000601854905080828161442757fe5b0491506002836008811061443757fe5b015484830202915081601b846008811061444d57fe5b015401601b846008811061445d57fe5b018190555050508080600101915050614407565b505b81601a819055505050565b60001515602660008373ffffffffffffffffffffffffffffffffffffffff1673ffffffffffffffffffffffffffffffffffffffff16815260200190815260200160002060000160009054906101000a900460ff16151514156144df576149e9565b60004390506017548111156144f45760175490505b81602660008473ffffffffffffffffffffffffffffffffffffffff1673ffffffffffffffffffffffffffffffffffffffff16815260200190815260200160002060000160016101000a81548173ffffffffffffffffffffffffffffffffffffffff021916908373ffffffffffffffffffffffffffffffffffffffff160217905550601654602660008473ffffffffffffffffffffffffffffffffffffffff1673ffffffffffffffffffffffffffffffffffffffff168152602001908152602001600020600b0154116146085780602660008473ffffffffffffffffffffffffffffffffffffffff1673ffffffffffffffffffffffffffffffffffffffff168152602001908152602001600020600b01819055505b80602660008473ffffffffffffffffffffffffffffffffffffffff1673ffffffffffffffffffffffffffffffffffffffff168152602001908152602001600020600b0154111561469a5780602660008473ffffffffffffffffffffffffffffffffffffffff1673ffffffffffffffffffffffffffffffffffffffff168152602001908152602001600020600b01819055505b601754602660008473ffffffffffffffffffffffffffffffffffffffff1673ffffffffffffffffffffffffffffffffffffffff168152602001908152602001600020600b01541061472f57601754602660008473ffffffffffffffffffffffffffffffffffffffff1673ffffffffffffffffffffffffffffffffffffffff168152602001908152602001600020600b01819055505b6000805b600881101561494b5760006004905060006147b3602660008873ffffffffffffffffffffffffffffffffffffffff1673ffffffffffffffffffffffffffffffffffffffff168152602001908152602001600020600d01846008811061479457fe5b0154601b85600881106147a357fe5b015461439490919063ffffffff16565b90508181816147be57fe5b04905080602660008873ffffffffffffffffffffffffffffffffffffffff1673ffffffffffffffffffffffffffffffffffffffff168152602001908152602001600020601501846008811061480f57fe5b0154602660008973ffffffffffffffffffffffffffffffffffffffff1673ffffffffffffffffffffffffffffffffffffffff168152602001908152602001600020601d01856008811061485e57fe5b0154010290506001818161486e57fe5b049050602354818161487c57fe5b04905081810290506148e581602660008973ffffffffffffffffffffffffffffffffffffffff1673ffffffffffffffffffffffffffffffffffffffff16815260200190815260200160002060030185600881106148d557fe5b01546143ae90919063ffffffff16565b602660008873ffffffffffffffffffffffffffffffffffffffff1673ffffffffffffffffffffffffffffffffffffffff168152602001908152602001600020600301846008811061493257fe5b0181905550808401935050508080600101915050614733565b5081602660008573ffffffffffffffffffffffffffffffffffffffff1673ffffffffffffffffffffffffffffffffffffffff168152602001908152602001600020600b0181905550601b602660008573ffffffffffffffffffffffffffffffffffffffff1673ffffffffffffffffffffffffffffffffffffffff168152602001908152602001600020600d019060086149e5929190614a7b565b5050505b50565b6000602660008373ffffffffffffffffffffffffffffffffffffffff1673ffffffffffffffffffffffffffffffffffffffff16815260200190815260200160002060010160009054906101000a900473ffffffffffffffffffffffffffffffffffffffff169050919050565b604051806101000160405280600890602082028036833780820191505090505090565b8260088101928215614aa7579182015b82811115614aa6578254825591600101919060010190614a8b565b5b509050614ab49190614ab8565b5090565b5b80821115614ad1576000816000905550600101614ab9565b509056fea264697066735822122005bb4727ce63f7d03d4a0bf1223248831fe6d5702ecaa6e093992c1573ec818064736f6c634300060c0033",
					"opcodes": "PUSH1 0x80 PUSH1 0x40 MSTORE PUSH1 0x0 PUSH1 0x1A SSTORE PUSH17 0x100000000000000000000000000000000 PUSH1 0x23 SSTORE CALLVALUE DUP1 ISZERO PUSH3 0x2B JUMPI PUSH1 0x0 DUP1 REVERT JUMPDEST POP CALLER PUSH1 0x0 DUP1 PUSH2 0x100 EXP DUP2 SLOAD DUP2 PUSH20 0xFFFFFFFFFFFFFFFFFFFFFFFFFFFFFFFFFFFFFFFF MUL NOT AND SWAP1 DUP4 PUSH20 0xFFFFFFFFFFFFFFFFFFFFFFFFFFFFFFFFFFFFFFFF AND MUL OR SWAP1 SSTORE POP PUSH8 0xDE0B6B3A7640000 PUSH1 0x18 DUP2 SWAP1 SSTORE POP PUSH1 0x0 PUSH1 0x24 PUSH1 0x0 PUSH2 0x100 EXP DUP2 SLOAD DUP2 PUSH1 0xFF MUL NOT AND SWAP1 DUP4 ISZERO ISZERO MUL OR SWAP1 SSTORE POP PUSH1 0x1 PUSH1 0x19 DUP2 SWAP1 SSTORE POP PUSH1 0x1 PUSH1 0x25 DUP2 SWAP1 SSTORE POP NUMBER PUSH1 0x1A DUP2 SWAP1 SSTORE POP NUMBER PUSH1 0x16 DUP2 SWAP1 SSTORE POP PUSH32 0xFFFFFFFFFFFFFFFFFFFFFFFFFFFFFFFFFFFFFFFFFFFFFFFFFFFFFFFFFFFFFFFF PUSH1 0x17 DUP2 SWAP1 SSTORE POP PUSH1 0x0 JUMPDEST PUSH1 0x8 DUP2 LT ISZERO PUSH3 0xF6 JUMPI DUP1 DUP1 PUSH1 0x1 ADD SWAP2 POP POP PUSH3 0xDE JUMP JUMPDEST POP PUSH2 0x4B0B DUP1 PUSH3 0x107 PUSH1 0x0 CODECOPY PUSH1 0x0 RETURN INVALID PUSH1 0x80 PUSH1 0x40 MSTORE PUSH1 0x4 CALLDATASIZE LT PUSH2 0x26A JUMPI PUSH1 0x0 CALLDATALOAD PUSH1 0xE0 SHR DUP1 PUSH4 0x8231EB97 GT PUSH2 0x144 JUMPI DUP1 PUSH4 0xADA21D81 GT PUSH2 0xB6 JUMPI DUP1 PUSH4 0xE20A270E GT PUSH2 0x7A JUMPI DUP1 PUSH4 0xE20A270E EQ PUSH2 0xFD9 JUMPI DUP1 PUSH4 0xED896820 EQ PUSH2 0x1014 JUMPI DUP1 PUSH4 0xF2A060B1 EQ PUSH2 0x103F JUMPI DUP1 PUSH4 0xF2FDE38B EQ PUSH2 0x10B0 JUMPI DUP1 PUSH4 0xFA25D72F EQ PUSH2 0x1101 JUMPI DUP1 PUSH4 0xFC352743 EQ PUSH2 0x1152 JUMPI PUSH2 0x271 JUMP JUMPDEST DUP1 PUSH4 0xADA21D81 EQ PUSH2 0xEAA JUMPI DUP1 PUSH4 0xCBF48666 EQ PUSH2 0xED5 JUMPI DUP1 PUSH4 0xCC4C9BA4 EQ PUSH2 0xF1A JUMPI DUP1 PUSH4 0xD4EE1D90 EQ PUSH2 0xF47 JUMPI DUP1 PUSH4 0xDA906FED EQ PUSH2 0xF88 JUMPI PUSH2 0x271 JUMP JUMPDEST DUP1 PUSH4 0x924B9F59 GT PUSH2 0x108 JUMPI DUP1 PUSH4 0x924B9F59 EQ PUSH2 0xBEF JUMPI DUP1 PUSH4 0x98E34524 EQ PUSH2 0xC56 JUMPI DUP1 PUSH4 0x9A64D5CB EQ PUSH2 0xCE3 JUMPI DUP1 PUSH4 0x9BFA7D64 EQ PUSH2 0xD32 JUMPI DUP1 PUSH4 0x9F48AF97 EQ PUSH2 0xD5D JUMPI DUP1 PUSH4 0xA7D16F30 EQ PUSH2 0xDB8 JUMPI PUSH2 0x271 JUMP JUMPDEST DUP1 PUSH4 0x8231EB97 EQ PUSH2 0x9E0 JUMPI DUP1 PUSH4 0x836912CE EQ PUSH2 0xA0B JUMPI DUP1 PUSH4 0x867E5023 EQ PUSH2 0xA98 JUMPI DUP1 PUSH4 0x8CE1842A EQ PUSH2 0xAFF JUMPI DUP1 PUSH4 0x8DA5CB5B EQ PUSH2 0xBAE JUMPI PUSH2 0x271 JUMP JUMPDEST DUP1 PUSH4 0x4F57E1E3 GT PUSH2 0x1DD JUMPI DUP1 PUSH4 0x5D857051 GT PUSH2 0x1A1 JUMPI DUP1 PUSH4 0x5D857051 EQ PUSH2 0x8A0 JUMPI DUP1 PUSH4 0x60B1DA5B EQ PUSH2 0x8E1 JUMPI DUP1 PUSH4 0x6985A022 EQ PUSH2 0x91C JUMPI DUP1 PUSH4 0x69BD1CF4 EQ PUSH2 0x933 JUMPI DUP1 PUSH4 0x79BA5097 EQ PUSH2 0x98E JUMPI DUP1 PUSH4 0x7D6E1F43 EQ PUSH2 0x9A5 JUMPI PUSH2 0x271 JUMP JUMPDEST DUP1 PUSH4 0x4F57E1E3 EQ PUSH2 0x6E8 JUMPI DUP1 PUSH4 0x4F9A6815 EQ PUSH2 0x737 JUMPI DUP1 PUSH4 0x4FD6159A EQ PUSH2 0x786 JUMPI DUP1 PUSH4 0x52F779E8 EQ PUSH2 0x7BF JUMPI DUP1 PUSH4 0x54FD7A2C EQ PUSH2 0x7EA JUMPI PUSH2 0x271 JUMP JUMPDEST DUP1 PUSH4 0x1C41499B GT PUSH2 0x22F JUMPI DUP1 PUSH4 0x1C41499B EQ PUSH2 0x424 JUMPI DUP1 PUSH4 0x1D1225BB EQ PUSH2 0x465 JUMPI DUP1 PUSH4 0x1D14E244 EQ PUSH2 0x490 JUMPI DUP1 PUSH4 0x229EFE2A EQ PUSH2 0x5E9 JUMPI DUP1 PUSH4 0x490D6D11 EQ PUSH2 0x676 JUMPI DUP1 PUSH4 0x4F3DAB0E EQ PUSH2 0x68D JUMPI PUSH2 0x271 JUMP JUMPDEST DUP1 PUSH3 0x3146FE EQ PUSH2 0x273 JUMPI DUP1 PUSH4 0x62D93CC EQ PUSH2 0x300 JUMPI DUP1 PUSH4 0x815141C EQ PUSH2 0x341 JUMPI DUP1 PUSH4 0xFF8B333 EQ PUSH2 0x386 JUMPI DUP1 PUSH4 0x10258DE0 EQ PUSH2 0x3F7 JUMPI PUSH2 0x271 JUMP JUMPDEST CALLDATASIZE PUSH2 0x271 JUMPI STOP JUMPDEST STOP JUMPDEST CALLVALUE DUP1 ISZERO PUSH2 0x27F JUMPI PUSH1 0x0 DUP1 REVERT JUMPDEST POP PUSH2 0x2C2 PUSH1 0x4 DUP1 CALLDATASIZE SUB PUSH1 0x20 DUP2 LT ISZERO PUSH2 0x296 JUMPI PUSH1 0x0 DUP1 REVERT JUMPDEST DUP2 ADD SWAP1 DUP1 DUP1 CALLDATALOAD PUSH20 0xFFFFFFFFFFFFFFFFFFFFFFFFFFFFFFFFFFFFFFFF AND SWAP1 PUSH1 0x20 ADD SWAP1 SWAP3 SWAP2 SWAP1 POP POP POP PUSH2 0x117D JUMP JUMPDEST PUSH1 0x40 MLOAD DUP1 DUP3 PUSH1 0x8 PUSH1 0x20 MUL DUP1 DUP4 DUP4 PUSH1 0x0 JUMPDEST DUP4 DUP2 LT ISZERO PUSH2 0x2ED JUMPI DUP1 DUP3 ADD MLOAD DUP2 DUP5 ADD MSTORE PUSH1 0x20 DUP2 ADD SWAP1 POP PUSH2 0x2D2 JUMP JUMPDEST POP POP POP POP SWAP1 POP ADD SWAP2 POP POP PUSH1 0x40 MLOAD DUP1 SWAP2 SUB SWAP1 RETURN JUMPDEST CALLVALUE DUP1 ISZERO PUSH2 0x30C JUMPI PUSH1 0x0 DUP1 REVERT JUMPDEST POP PUSH2 0x315 PUSH2 0x14B4 JUMP JUMPDEST PUSH1 0x40 MLOAD DUP1 DUP3 PUSH20 0xFFFFFFFFFFFFFFFFFFFFFFFFFFFFFFFFFFFFFFFF AND DUP2 MSTORE PUSH1 0x20 ADD SWAP2 POP POP PUSH1 0x40 MLOAD DUP1 SWAP2 SUB SWAP1 RETURN JUMPDEST CALLVALUE DUP1 ISZERO PUSH2 0x34D JUMPI PUSH1 0x0 DUP1 REVERT JUMPDEST POP PUSH2 0x384 PUSH1 0x4 DUP1 CALLDATASIZE SUB PUSH1 0x40 DUP2 LT ISZERO PUSH2 0x364 JUMPI PUSH1 0x0 DUP1 REVERT JUMPDEST DUP2 ADD SWAP1 DUP1 DUP1 CALLDATALOAD SWAP1 PUSH1 0x20 ADD SWAP1 SWAP3 SWAP2 SWAP1 DUP1 CALLDATALOAD SWAP1 PUSH1 0x20 ADD SWAP1 SWAP3 SWAP2 SWAP1 POP POP POP PUSH2 0x14DA JUMP JUMPDEST STOP JUMPDEST CALLVALUE DUP1 ISZERO PUSH2 0x392 JUMPI PUSH1 0x0 DUP1 REVERT JUMPDEST POP PUSH2 0x3F5 PUSH1 0x4 DUP1 CALLDATASIZE SUB PUSH1 0x40 DUP2 LT ISZERO PUSH2 0x3A9 JUMPI PUSH1 0x0 DUP1 REVERT JUMPDEST DUP2 ADD SWAP1 DUP1 DUP1 CALLDATALOAD PUSH20 0xFFFFFFFFFFFFFFFFFFFFFFFFFFFFFFFFFFFFFFFF AND SWAP1 PUSH1 0x20 ADD SWAP1 SWAP3 SWAP2 SWAP1 DUP1 CALLDATALOAD PUSH20 0xFFFFFFFFFFFFFFFFFFFFFFFFFFFFFFFFFFFFFFFF AND SWAP1 PUSH1 0x20 ADD SWAP1 SWAP3 SWAP2 SWAP1 POP POP POP PUSH2 0x1549 JUMP JUMPDEST STOP JUMPDEST CALLVALUE DUP1 ISZERO PUSH2 0x403 JUMPI PUSH1 0x0 DUP1 REVERT JUMPDEST POP PUSH2 0x40C PUSH2 0x1627 JUMP JUMPDEST PUSH1 0x40 MLOAD DUP1 DUP3 ISZERO ISZERO DUP2 MSTORE PUSH1 0x20 ADD SWAP2 POP POP PUSH1 0x40 MLOAD DUP1 SWAP2 SUB SWAP1 RETURN JUMPDEST CALLVALUE DUP1 ISZERO PUSH2 0x430 JUMPI PUSH1 0x0 DUP1 REVERT JUMPDEST POP PUSH2 0x439 PUSH2 0x16C2 JUMP JUMPDEST PUSH1 0x40 MLOAD DUP1 DUP3 PUSH20 0xFFFFFFFFFFFFFFFFFFFFFFFFFFFFFFFFFFFFFFFF AND DUP2 MSTORE PUSH1 0x20 ADD SWAP2 POP POP PUSH1 0x40 MLOAD DUP1 SWAP2 SUB SWAP1 RETURN JUMPDEST CALLVALUE DUP1 ISZERO PUSH2 0x471 JUMPI PUSH1 0x0 DUP1 REVERT JUMPDEST POP PUSH2 0x47A PUSH2 0x16E8 JUMP JUMPDEST PUSH1 0x40 MLOAD DUP1 DUP3 DUP2 MSTORE PUSH1 0x20 ADD SWAP2 POP POP PUSH1 0x40 MLOAD DUP1 SWAP2 SUB SWAP1 RETURN JUMPDEST CALLVALUE DUP1 ISZERO PUSH2 0x49C JUMPI PUSH1 0x0 DUP1 REVERT JUMPDEST POP PUSH2 0x5E7 PUSH1 0x4 DUP1 CALLDATASIZE SUB PUSH1 0x40 DUP2 LT ISZERO PUSH2 0x4B3 JUMPI PUSH1 0x0 DUP1 REVERT JUMPDEST DUP2 ADD SWAP1 DUP1 DUP1 CALLDATALOAD SWAP1 PUSH1 0x20 ADD SWAP1 PUSH5 0x100000000 DUP2 GT ISZERO PUSH2 0x4D0 JUMPI PUSH1 0x0 DUP1 REVERT JUMPDEST DUP3 ADD DUP4 PUSH1 0x20 DUP3 ADD GT ISZERO PUSH2 0x4E2 JUMPI PUSH1 0x0 DUP1 REVERT JUMPDEST DUP1 CALLDATALOAD SWAP1 PUSH1 0x20 ADD SWAP2 DUP5 PUSH1 0x20 DUP4 MUL DUP5 ADD GT PUSH5 0x100000000 DUP4 GT OR ISZERO PUSH2 0x504 JUMPI PUSH1 0x0 DUP1 REVERT JUMPDEST SWAP2 SWAP1 DUP1 DUP1 PUSH1 0x20 MUL PUSH1 0x20 ADD PUSH1 0x40 MLOAD SWAP1 DUP2 ADD PUSH1 0x40 MSTORE DUP1 SWAP4 SWAP3 SWAP2 SWAP1 DUP2 DUP2 MSTORE PUSH1 0x20 ADD DUP4 DUP4 PUSH1 0x20 MUL DUP1 DUP3 DUP5 CALLDATACOPY PUSH1 0x0 DUP2 DUP5 ADD MSTORE PUSH1 0x1F NOT PUSH1 0x1F DUP3 ADD AND SWAP1 POP DUP1 DUP4 ADD SWAP3 POP POP POP POP POP POP POP SWAP2 SWAP3 SWAP2 SWAP3 SWAP1 DUP1 CALLDATALOAD SWAP1 PUSH1 0x20 ADD SWAP1 PUSH5 0x100000000 DUP2 GT ISZERO PUSH2 0x564 JUMPI PUSH1 0x0 DUP1 REVERT JUMPDEST DUP3 ADD DUP4 PUSH1 0x20 DUP3 ADD GT ISZERO PUSH2 0x576 JUMPI PUSH1 0x0 DUP1 REVERT JUMPDEST DUP1 CALLDATALOAD SWAP1 PUSH1 0x20 ADD SWAP2 DUP5 PUSH1 0x20 DUP4 MUL DUP5 ADD GT PUSH5 0x100000000 DUP4 GT OR ISZERO PUSH2 0x598 JUMPI PUSH1 0x0 DUP1 REVERT JUMPDEST SWAP2 SWAP1 DUP1 DUP1 PUSH1 0x20 MUL PUSH1 0x20 ADD PUSH1 0x40 MLOAD SWAP1 DUP2 ADD PUSH1 0x40 MSTORE DUP1 SWAP4 SWAP3 SWAP2 SWAP1 DUP2 DUP2 MSTORE PUSH1 0x20 ADD DUP4 DUP4 PUSH1 0x20 MUL DUP1 DUP3 DUP5 CALLDATACOPY PUSH1 0x0 DUP2 DUP5 ADD MSTORE PUSH1 0x1F NOT PUSH1 0x1F DUP3 ADD AND SWAP1 POP DUP1 DUP4 ADD SWAP3 POP POP POP POP POP POP POP SWAP2 SWAP3 SWAP2 SWAP3 SWAP1 POP POP POP PUSH2 0x16EE JUMP JUMPDEST STOP JUMPDEST CALLVALUE DUP1 ISZERO PUSH2 0x5F5 JUMPI PUSH1 0x0 DUP1 REVERT JUMPDEST POP PUSH2 0x638 PUSH1 0x4 DUP1 CALLDATASIZE SUB PUSH1 0x20 DUP2 LT ISZERO PUSH2 0x60C JUMPI PUSH1 0x0 DUP1 REVERT JUMPDEST DUP2 ADD SWAP1 DUP1 DUP1 CALLDATALOAD PUSH20 0xFFFFFFFFFFFFFFFFFFFFFFFFFFFFFFFFFFFFFFFF AND SWAP1 PUSH1 0x20 ADD SWAP1 SWAP3 SWAP2 SWAP1 POP POP POP PUSH2 0x18ED JUMP JUMPDEST PUSH1 0x40 MLOAD DUP1 DUP3 PUSH1 0x8 PUSH1 0x20 MUL DUP1 DUP4 DUP4 PUSH1 0x0 JUMPDEST DUP4 DUP2 LT ISZERO PUSH2 0x663 JUMPI DUP1 DUP3 ADD MLOAD DUP2 DUP5 ADD MSTORE PUSH1 0x20 DUP2 ADD SWAP1 POP PUSH2 0x648 JUMP JUMPDEST POP POP POP POP SWAP1 POP ADD SWAP2 POP POP PUSH1 0x40 MLOAD DUP1 SWAP2 SUB SWAP1 RETURN JUMPDEST CALLVALUE DUP1 ISZERO PUSH2 0x682 JUMPI PUSH1 0x0 DUP1 REVERT JUMPDEST POP PUSH2 0x68B PUSH2 0x197A JUMP JUMPDEST STOP JUMPDEST CALLVALUE DUP1 ISZERO PUSH2 0x699 JUMPI PUSH1 0x0 DUP1 REVERT JUMPDEST POP PUSH2 0x6E6 PUSH1 0x4 DUP1 CALLDATASIZE SUB PUSH1 0x40 DUP2 LT ISZERO PUSH2 0x6B0 JUMPI PUSH1 0x0 DUP1 REVERT JUMPDEST DUP2 ADD SWAP1 DUP1 DUP1 CALLDATALOAD PUSH20 0xFFFFFFFFFFFFFFFFFFFFFFFFFFFFFFFFFFFFFFFF AND SWAP1 PUSH1 0x20 ADD SWAP1 SWAP3 SWAP2 SWAP1 DUP1 CALLDATALOAD SWAP1 PUSH1 0x20 ADD SWAP1 SWAP3 SWAP2 SWAP1 POP POP POP PUSH2 0x1A16 JUMP JUMPDEST STOP JUMPDEST CALLVALUE DUP1 ISZERO PUSH2 0x6F4 JUMPI PUSH1 0x0 DUP1 REVERT JUMPDEST POP PUSH2 0x721 PUSH1 0x4 DUP1 CALLDATASIZE SUB PUSH1 0x20 DUP2 LT ISZERO PUSH2 0x70B JUMPI PUSH1 0x0 DUP1 REVERT JUMPDEST DUP2 ADD SWAP1 DUP1 DUP1 CALLDATALOAD SWAP1 PUSH1 0x20 ADD SWAP1 SWAP3 SWAP2 SWAP1 POP POP POP PUSH2 0x1B1F JUMP JUMPDEST PUSH1 0x40 MLOAD DUP1 DUP3 DUP2 MSTORE PUSH1 0x20 ADD SWAP2 POP POP PUSH1 0x40 MLOAD DUP1 SWAP2 SUB SWAP1 RETURN JUMPDEST CALLVALUE DUP1 ISZERO PUSH2 0x743 JUMPI PUSH1 0x0 DUP1 REVERT JUMPDEST POP PUSH2 0x770 PUSH1 0x4 DUP1 CALLDATASIZE SUB PUSH1 0x20 DUP2 LT ISZERO PUSH2 0x75A JUMPI PUSH1 0x0 DUP1 REVERT JUMPDEST DUP2 ADD SWAP1 DUP1 DUP1 CALLDATALOAD SWAP1 PUSH1 0x20 ADD SWAP1 SWAP3 SWAP2 SWAP1 POP POP POP PUSH2 0x1B37 JUMP JUMPDEST PUSH1 0x40 MLOAD DUP1 DUP3 DUP2 MSTORE PUSH1 0x20 ADD SWAP2 POP POP PUSH1 0x40 MLOAD DUP1 SWAP2 SUB SWAP1 RETURN JUMPDEST CALLVALUE DUP1 ISZERO PUSH2 0x792 JUMPI PUSH1 0x0 DUP1 REVERT JUMPDEST POP PUSH2 0x79B PUSH2 0x1B4F JUMP JUMPDEST PUSH1 0x40 MLOAD DUP1 DUP5 DUP2 MSTORE PUSH1 0x20 ADD DUP4 DUP2 MSTORE PUSH1 0x20 ADD DUP3 DUP2 MSTORE PUSH1 0x20 ADD SWAP4 POP POP POP POP PUSH1 0x40 MLOAD DUP1 SWAP2 SUB SWAP1 RETURN JUMPDEST CALLVALUE DUP1 ISZERO PUSH2 0x7CB JUMPI PUSH1 0x0 DUP1 REVERT JUMPDEST POP PUSH2 0x7D4 PUSH2 0x1B68 JUMP JUMPDEST PUSH1 0x40 MLOAD DUP1 DUP3 DUP2 MSTORE PUSH1 0x20 ADD SWAP2 POP POP PUSH1 0x40 MLOAD DUP1 SWAP2 SUB SWAP1 RETURN JUMPDEST CALLVALUE DUP1 ISZERO PUSH2 0x7F6 JUMPI PUSH1 0x0 DUP1 REVERT JUMPDEST POP PUSH2 0x839 PUSH1 0x4 DUP1 CALLDATASIZE SUB PUSH1 0x20 DUP2 LT ISZERO PUSH2 0x80D JUMPI PUSH1 0x0 DUP1 REVERT JUMPDEST DUP2 ADD SWAP1 DUP1 DUP1 CALLDATALOAD PUSH20 0xFFFFFFFFFFFFFFFFFFFFFFFFFFFFFFFFFFFFFFFF AND SWAP1 PUSH1 0x20 ADD SWAP1 SWAP3 SWAP2 SWAP1 POP POP POP PUSH2 0x1B6E JUMP JUMPDEST PUSH1 0x40 MLOAD DUP1 DUP8 ISZERO ISZERO DUP2 MSTORE PUSH1 0x20 ADD DUP7 PUSH20 0xFFFFFFFFFFFFFFFFFFFFFFFFFFFFFFFFFFFFFFFF AND DUP2 MSTORE PUSH1 0x20 ADD DUP6 PUSH20 0xFFFFFFFFFFFFFFFFFFFFFFFFFFFFFFFFFFFFFFFF AND DUP2 MSTORE PUSH1 0x20 ADD DUP5 DUP2 MSTORE PUSH1 0x20 ADD DUP4 DUP2 MSTORE PUSH1 0x20 ADD DUP3 DUP2 MSTORE PUSH1 0x20 ADD SWAP7 POP POP POP POP POP POP POP PUSH1 0x40 MLOAD DUP1 SWAP2 SUB SWAP1 RETURN JUMPDEST CALLVALUE DUP1 ISZERO PUSH2 0x8AC JUMPI PUSH1 0x0 DUP1 REVERT JUMPDEST POP PUSH2 0x8B5 PUSH2 0x1BF7 JUMP JUMPDEST PUSH1 0x40 MLOAD DUP1 DUP3 PUSH20 0xFFFFFFFFFFFFFFFFFFFFFFFFFFFFFFFFFFFFFFFF AND DUP2 MSTORE PUSH1 0x20 ADD SWAP2 POP POP PUSH1 0x40 MLOAD DUP1 SWAP2 SUB SWAP1 RETURN JUMPDEST CALLVALUE DUP1 ISZERO PUSH2 0x8ED JUMPI PUSH1 0x0 DUP1 REVERT JUMPDEST POP PUSH2 0x91A PUSH1 0x4 DUP1 CALLDATASIZE SUB PUSH1 0x20 DUP2 LT ISZERO PUSH2 0x904 JUMPI PUSH1 0x0 DUP1 REVERT JUMPDEST DUP2 ADD SWAP1 DUP1 DUP1 CALLDATALOAD SWAP1 PUSH1 0x20 ADD SWAP1 SWAP3 SWAP2 SWAP1 POP POP POP PUSH2 0x1C1D JUMP JUMPDEST STOP JUMPDEST CALLVALUE DUP1 ISZERO PUSH2 0x928 JUMPI PUSH1 0x0 DUP1 REVERT JUMPDEST POP PUSH2 0x931 PUSH2 0x1C9B JUMP JUMPDEST STOP JUMPDEST CALLVALUE DUP1 ISZERO PUSH2 0x93F JUMPI PUSH1 0x0 DUP1 REVERT JUMPDEST POP PUSH2 0x976 PUSH1 0x4 DUP1 CALLDATASIZE SUB PUSH1 0x40 DUP2 LT ISZERO PUSH2 0x956 JUMPI PUSH1 0x0 DUP1 REVERT JUMPDEST DUP2 ADD SWAP1 DUP1 DUP1 CALLDATALOAD SWAP1 PUSH1 0x20 ADD SWAP1 SWAP3 SWAP2 SWAP1 DUP1 CALLDATALOAD SWAP1 PUSH1 0x20 ADD SWAP1 SWAP3 SWAP2 SWAP1 POP POP POP PUSH2 0x1D17 JUMP JUMPDEST PUSH1 0x40 MLOAD DUP1 DUP3 ISZERO ISZERO DUP2 MSTORE PUSH1 0x20 ADD SWAP2 POP POP PUSH1 0x40 MLOAD DUP1 SWAP2 SUB SWAP1 RETURN JUMPDEST CALLVALUE DUP1 ISZERO PUSH2 0x99A JUMPI PUSH1 0x0 DUP1 REVERT JUMPDEST POP PUSH2 0x9A3 PUSH2 0x25C7 JUMP JUMPDEST STOP JUMPDEST CALLVALUE DUP1 ISZERO PUSH2 0x9B1 JUMPI PUSH1 0x0 DUP1 REVERT JUMPDEST POP PUSH2 0x9DE PUSH1 0x4 DUP1 CALLDATASIZE SUB PUSH1 0x20 DUP2 LT ISZERO PUSH2 0x9C8 JUMPI PUSH1 0x0 DUP1 REVERT JUMPDEST DUP2 ADD SWAP1 DUP1 DUP1 CALLDATALOAD SWAP1 PUSH1 0x20 ADD SWAP1 SWAP3 SWAP2 SWAP1 POP POP POP PUSH2 0x2763 JUMP JUMPDEST STOP JUMPDEST CALLVALUE DUP1 ISZERO PUSH2 0x9EC JUMPI PUSH1 0x0 DUP1 REVERT JUMPDEST POP PUSH2 0x9F5 PUSH2 0x27E1 JUMP JUMPDEST PUSH1 0x40 MLOAD DUP1 DUP3 DUP2 MSTORE PUSH1 0x20 ADD SWAP2 POP POP PUSH1 0x40 MLOAD DUP1 SWAP2 SUB SWAP1 RETURN JUMPDEST CALLVALUE DUP1 ISZERO PUSH2 0xA17 JUMPI PUSH1 0x0 DUP1 REVERT JUMPDEST POP PUSH2 0xA5A PUSH1 0x4 DUP1 CALLDATASIZE SUB PUSH1 0x20 DUP2 LT ISZERO PUSH2 0xA2E JUMPI PUSH1 0x0 DUP1 REVERT JUMPDEST DUP2 ADD SWAP1 DUP1 DUP1 CALLDATALOAD PUSH20 0xFFFFFFFFFFFFFFFFFFFFFFFFFFFFFFFFFFFFFFFF AND SWAP1 PUSH1 0x20 ADD SWAP1 SWAP3 SWAP2 SWAP1 POP POP POP PUSH2 0x27E7 JUMP JUMPDEST PUSH1 0x40 MLOAD DUP1 DUP3 PUSH1 0x8 PUSH1 0x20 MUL DUP1 DUP4 DUP4 PUSH1 0x0 JUMPDEST DUP4 DUP2 LT ISZERO PUSH2 0xA85 JUMPI DUP1 DUP3 ADD MLOAD DUP2 DUP5 ADD MSTORE PUSH1 0x20 DUP2 ADD SWAP1 POP PUSH2 0xA6A JUMP JUMPDEST POP POP POP POP SWAP1 POP ADD SWAP2 POP POP PUSH1 0x40 MLOAD DUP1 SWAP2 SUB SWAP1 RETURN JUMPDEST CALLVALUE DUP1 ISZERO PUSH2 0xAA4 JUMPI PUSH1 0x0 DUP1 REVERT JUMPDEST POP PUSH2 0xAE7 PUSH1 0x4 DUP1 CALLDATASIZE SUB PUSH1 0x20 DUP2 LT ISZERO PUSH2 0xABB JUMPI PUSH1 0x0 DUP1 REVERT JUMPDEST DUP2 ADD SWAP1 DUP1 DUP1 CALLDATALOAD PUSH20 0xFFFFFFFFFFFFFFFFFFFFFFFFFFFFFFFFFFFFFFFF AND SWAP1 PUSH1 0x20 ADD SWAP1 SWAP3 SWAP2 SWAP1 POP POP POP PUSH2 0x2874 JUMP JUMPDEST PUSH1 0x40 MLOAD DUP1 DUP3 ISZERO ISZERO DUP2 MSTORE PUSH1 0x20 ADD SWAP2 POP POP PUSH1 0x40 MLOAD DUP1 SWAP2 SUB SWAP1 RETURN JUMPDEST CALLVALUE DUP1 ISZERO PUSH2 0xB0B JUMPI PUSH1 0x0 DUP1 REVERT JUMPDEST POP PUSH2 0xB4E PUSH1 0x4 DUP1 CALLDATASIZE SUB PUSH1 0x20 DUP2 LT ISZERO PUSH2 0xB22 JUMPI PUSH1 0x0 DUP1 REVERT JUMPDEST DUP2 ADD SWAP1 DUP1 DUP1 CALLDATALOAD PUSH20 0xFFFFFFFFFFFFFFFFFFFFFFFFFFFFFFFFFFFFFFFF AND SWAP1 PUSH1 0x20 ADD SWAP1 SWAP3 SWAP2 SWAP1 POP POP POP PUSH2 0x29B3 JUMP JUMPDEST PUSH1 0x40 MLOAD DUP1 DUP7 ISZERO ISZERO DUP2 MSTORE PUSH1 0x20 ADD DUP6 PUSH20 0xFFFFFFFFFFFFFFFFFFFFFFFFFFFFFFFFFFFFFFFF AND DUP2 MSTORE PUSH1 0x20 ADD DUP5 PUSH20 0xFFFFFFFFFFFFFFFFFFFFFFFFFFFFFFFFFFFFFFFF AND DUP2 MSTORE PUSH1 0x20 ADD DUP4 DUP2 MSTORE PUSH1 0x20 ADD DUP3 DUP2 MSTORE PUSH1 0x20 ADD SWAP6 POP POP POP POP POP POP PUSH1 0x40 MLOAD DUP1 SWAP2 SUB SWAP1 RETURN JUMPDEST CALLVALUE DUP1 ISZERO PUSH2 0xBBA JUMPI PUSH1 0x0 DUP1 REVERT JUMPDEST POP PUSH2 0xBC3 PUSH2 0x2B6A JUMP JUMPDEST PUSH1 0x40 MLOAD DUP1 DUP3 PUSH20 0xFFFFFFFFFFFFFFFFFFFFFFFFFFFFFFFFFFFFFFFF AND DUP2 MSTORE PUSH1 0x20 ADD SWAP2 POP POP PUSH1 0x40 MLOAD DUP1 SWAP2 SUB SWAP1 RETURN JUMPDEST CALLVALUE DUP1 ISZERO PUSH2 0xBFB JUMPI PUSH1 0x0 DUP1 REVERT JUMPDEST POP PUSH2 0xC3E PUSH1 0x4 DUP1 CALLDATASIZE SUB PUSH1 0x20 DUP2 LT ISZERO PUSH2 0xC12 JUMPI PUSH1 0x0 DUP1 REVERT JUMPDEST DUP2 ADD SWAP1 DUP1 DUP1 CALLDATALOAD PUSH20 0xFFFFFFFFFFFFFFFFFFFFFFFFFFFFFFFFFFFFFFFF AND SWAP1 PUSH1 0x20 ADD SWAP1 SWAP3 SWAP2 SWAP1 POP POP POP PUSH2 0x2B8E JUMP JUMPDEST PUSH1 0x40 MLOAD DUP1 DUP3 ISZERO ISZERO DUP2 MSTORE PUSH1 0x20 ADD SWAP2 POP POP PUSH1 0x40 MLOAD DUP1 SWAP2 SUB SWAP1 RETURN JUMPDEST CALLVALUE DUP1 ISZERO PUSH2 0xC62 JUMPI PUSH1 0x0 DUP1 REVERT JUMPDEST POP PUSH2 0xCA5 PUSH1 0x4 DUP1 CALLDATASIZE SUB PUSH1 0x20 DUP2 LT ISZERO PUSH2 0xC79 JUMPI PUSH1 0x0 DUP1 REVERT JUMPDEST DUP2 ADD SWAP1 DUP1 DUP1 CALLDATALOAD PUSH20 0xFFFFFFFFFFFFFFFFFFFFFFFFFFFFFFFFFFFFFFFF AND SWAP1 PUSH1 0x20 ADD SWAP1 SWAP3 SWAP2 SWAP1 POP POP POP PUSH2 0x30F0 JUMP JUMPDEST PUSH1 0x40 MLOAD DUP1 DUP3 PUSH1 0x8 PUSH1 0x20 MUL DUP1 DUP4 DUP4 PUSH1 0x0 JUMPDEST DUP4 DUP2 LT ISZERO PUSH2 0xCD0 JUMPI DUP1 DUP3 ADD MLOAD DUP2 DUP5 ADD MSTORE PUSH1 0x20 DUP2 ADD SWAP1 POP PUSH2 0xCB5 JUMP JUMPDEST POP POP POP POP SWAP1 POP ADD SWAP2 POP POP PUSH1 0x40 MLOAD DUP1 SWAP2 SUB SWAP1 RETURN JUMPDEST CALLVALUE DUP1 ISZERO PUSH2 0xCEF JUMPI PUSH1 0x0 DUP1 REVERT JUMPDEST POP PUSH2 0xD1C PUSH1 0x4 DUP1 CALLDATASIZE SUB PUSH1 0x20 DUP2 LT ISZERO PUSH2 0xD06 JUMPI PUSH1 0x0 DUP1 REVERT JUMPDEST DUP2 ADD SWAP1 DUP1 DUP1 CALLDATALOAD SWAP1 PUSH1 0x20 ADD SWAP1 SWAP3 SWAP2 SWAP1 POP POP POP PUSH2 0x317D JUMP JUMPDEST PUSH1 0x40 MLOAD DUP1 DUP3 DUP2 MSTORE PUSH1 0x20 ADD SWAP2 POP POP PUSH1 0x40 MLOAD DUP1 SWAP2 SUB SWAP1 RETURN JUMPDEST CALLVALUE DUP1 ISZERO PUSH2 0xD3E JUMPI PUSH1 0x0 DUP1 REVERT JUMPDEST POP PUSH2 0xD47 PUSH2 0x3195 JUMP JUMPDEST PUSH1 0x40 MLOAD DUP1 DUP3 DUP2 MSTORE PUSH1 0x20 ADD SWAP2 POP POP PUSH1 0x40 MLOAD DUP1 SWAP2 SUB SWAP1 RETURN JUMPDEST CALLVALUE DUP1 ISZERO PUSH2 0xD69 JUMPI PUSH1 0x0 DUP1 REVERT JUMPDEST POP PUSH2 0xDA0 PUSH1 0x4 DUP1 CALLDATASIZE SUB PUSH1 0x40 DUP2 LT ISZERO PUSH2 0xD80 JUMPI PUSH1 0x0 DUP1 REVERT JUMPDEST DUP2 ADD SWAP1 DUP1 DUP1 CALLDATALOAD SWAP1 PUSH1 0x20 ADD SWAP1 SWAP3 SWAP2 SWAP1 DUP1 CALLDATALOAD SWAP1 PUSH1 0x20 ADD SWAP1 SWAP3 SWAP2 SWAP1 POP POP POP PUSH2 0x319B JUMP JUMPDEST PUSH1 0x40 MLOAD DUP1 DUP3 ISZERO ISZERO DUP2 MSTORE PUSH1 0x20 ADD SWAP2 POP POP PUSH1 0x40 MLOAD DUP1 SWAP2 SUB SWAP1 RETURN JUMPDEST CALLVALUE DUP1 ISZERO PUSH2 0xDC4 JUMPI PUSH1 0x0 DUP1 REVERT JUMPDEST POP PUSH2 0xEA8 PUSH1 0x4 DUP1 CALLDATASIZE SUB PUSH1 0x60 DUP2 LT ISZERO PUSH2 0xDDB JUMPI PUSH1 0x0 DUP1 REVERT JUMPDEST DUP2 ADD SWAP1 DUP1 DUP1 CALLDATALOAD PUSH20 0xFFFFFFFFFFFFFFFFFFFFFFFFFFFFFFFFFFFFFFFF AND SWAP1 PUSH1 0x20 ADD SWAP1 SWAP3 SWAP2 SWAP1 DUP1 CALLDATALOAD SWAP1 PUSH1 0x20 ADD SWAP1 SWAP3 SWAP2 SWAP1 DUP1 CALLDATALOAD SWAP1 PUSH1 0x20 ADD SWAP1 PUSH5 0x100000000 DUP2 GT ISZERO PUSH2 0xE22 JUMPI PUSH1 0x0 DUP1 REVERT JUMPDEST DUP3 ADD DUP4 PUSH1 0x20 DUP3 ADD GT ISZERO PUSH2 0xE34 JUMPI PUSH1 0x0 DUP1 REVERT JUMPDEST DUP1 CALLDATALOAD SWAP1 PUSH1 0x20 ADD SWAP2 DUP5 PUSH1 0x1 DUP4 MUL DUP5 ADD GT PUSH5 0x100000000 DUP4 GT OR ISZERO PUSH2 0xE56 JUMPI PUSH1 0x0 DUP1 REVERT JUMPDEST SWAP2 SWAP1 DUP1 DUP1 PUSH1 0x1F ADD PUSH1 0x20 DUP1 SWAP2 DIV MUL PUSH1 0x20 ADD PUSH1 0x40 MLOAD SWAP1 DUP2 ADD PUSH1 0x40 MSTORE DUP1 SWAP4 SWAP3 SWAP2 SWAP1 DUP2 DUP2 MSTORE PUSH1 0x20 ADD DUP4 DUP4 DUP1 DUP3 DUP5 CALLDATACOPY PUSH1 0x0 DUP2 DUP5 ADD MSTORE PUSH1 0x1F NOT PUSH1 0x1F DUP3 ADD AND SWAP1 POP DUP1 DUP4 ADD SWAP3 POP POP POP POP POP POP POP SWAP2 SWAP3 SWAP2 SWAP3 SWAP1 POP POP POP PUSH2 0x3B14 JUMP JUMPDEST STOP JUMPDEST CALLVALUE DUP1 ISZERO PUSH2 0xEB6 JUMPI PUSH1 0x0 DUP1 REVERT JUMPDEST POP PUSH2 0xEBF PUSH2 0x3C27 JUMP JUMPDEST PUSH1 0x40 MLOAD DUP1 DUP3 DUP2 MSTORE PUSH1 0x20 ADD SWAP2 POP POP PUSH1 0x40 MLOAD DUP1 SWAP2 SUB SWAP1 RETURN JUMPDEST CALLVALUE DUP1 ISZERO PUSH2 0xEE1 JUMPI PUSH1 0x0 DUP1 REVERT JUMPDEST POP PUSH2 0xF18 PUSH1 0x4 DUP1 CALLDATASIZE SUB PUSH1 0x40 DUP2 LT ISZERO PUSH2 0xEF8 JUMPI PUSH1 0x0 DUP1 REVERT JUMPDEST DUP2 ADD SWAP1 DUP1 DUP1 CALLDATALOAD SWAP1 PUSH1 0x20 ADD SWAP1 SWAP3 SWAP2 SWAP1 DUP1 CALLDATALOAD SWAP1 PUSH1 0x20 ADD SWAP1 SWAP3 SWAP2 SWAP1 POP POP POP PUSH2 0x3C2D JUMP JUMPDEST STOP JUMPDEST CALLVALUE DUP1 ISZERO PUSH2 0xF26 JUMPI PUSH1 0x0 DUP1 REVERT JUMPDEST POP PUSH2 0xF2F PUSH2 0x3CE4 JUMP JUMPDEST PUSH1 0x40 MLOAD DUP1 DUP3 ISZERO ISZERO DUP2 MSTORE PUSH1 0x20 ADD SWAP2 POP POP PUSH1 0x40 MLOAD DUP1 SWAP2 SUB SWAP1 RETURN JUMPDEST CALLVALUE DUP1 ISZERO PUSH2 0xF53 JUMPI PUSH1 0x0 DUP1 REVERT JUMPDEST POP PUSH2 0xF5C PUSH2 0x3DB8 JUMP JUMPDEST PUSH1 0x40 MLOAD DUP1 DUP3 PUSH20 0xFFFFFFFFFFFFFFFFFFFFFFFFFFFFFFFFFFFFFFFF AND DUP2 MSTORE PUSH1 0x20 ADD SWAP2 POP POP PUSH1 0x40 MLOAD DUP1 SWAP2 SUB SWAP1 RETURN JUMPDEST CALLVALUE DUP1 ISZERO PUSH2 0xF94 JUMPI PUSH1 0x0 DUP1 REVERT JUMPDEST POP PUSH2 0xFD7 PUSH1 0x4 DUP1 CALLDATASIZE SUB PUSH1 0x20 DUP2 LT ISZERO PUSH2 0xFAB JUMPI PUSH1 0x0 DUP1 REVERT JUMPDEST DUP2 ADD SWAP1 DUP1 DUP1 CALLDATALOAD PUSH20 0xFFFFFFFFFFFFFFFFFFFFFFFFFFFFFFFFFFFFFFFF AND SWAP1 PUSH1 0x20 ADD SWAP1 SWAP3 SWAP2 SWAP1 POP POP POP PUSH2 0x3DDE JUMP JUMPDEST STOP JUMPDEST CALLVALUE DUP1 ISZERO PUSH2 0xFE5 JUMPI PUSH1 0x0 DUP1 REVERT JUMPDEST POP PUSH2 0x1012 PUSH1 0x4 DUP1 CALLDATASIZE SUB PUSH1 0x20 DUP2 LT ISZERO PUSH2 0xFFC JUMPI PUSH1 0x0 DUP1 REVERT JUMPDEST DUP2 ADD SWAP1 DUP1 DUP1 CALLDATALOAD SWAP1 PUSH1 0x20 ADD SWAP1 SWAP3 SWAP2 SWAP1 POP POP POP PUSH2 0x3E7A JUMP JUMPDEST STOP JUMPDEST CALLVALUE DUP1 ISZERO PUSH2 0x1020 JUMPI PUSH1 0x0 DUP1 REVERT JUMPDEST POP PUSH2 0x1029 PUSH2 0x3EDC JUMP JUMPDEST PUSH1 0x40 MLOAD DUP1 DUP3 DUP2 MSTORE PUSH1 0x20 ADD SWAP2 POP POP PUSH1 0x40 MLOAD DUP1 SWAP2 SUB SWAP1 RETURN JUMPDEST CALLVALUE DUP1 ISZERO PUSH2 0x104B JUMPI PUSH1 0x0 DUP1 REVERT JUMPDEST POP PUSH2 0x10AE PUSH1 0x4 DUP1 CALLDATASIZE SUB PUSH1 0x40 DUP2 LT ISZERO PUSH2 0x1062 JUMPI PUSH1 0x0 DUP1 REVERT JUMPDEST DUP2 ADD SWAP1 DUP1 DUP1 CALLDATALOAD PUSH20 0xFFFFFFFFFFFFFFFFFFFFFFFFFFFFFFFFFFFFFFFF AND SWAP1 PUSH1 0x20 ADD SWAP1 SWAP3 SWAP2 SWAP1 DUP1 CALLDATALOAD PUSH20 0xFFFFFFFFFFFFFFFFFFFFFFFFFFFFFFFFFFFFFFFF AND SWAP1 PUSH1 0x20 ADD SWAP1 SWAP3 SWAP2 SWAP1 POP POP POP PUSH2 0x3EE2 JUMP JUMPDEST STOP JUMPDEST CALLVALUE DUP1 ISZERO PUSH2 0x10BC JUMPI PUSH1 0x0 DUP1 REVERT JUMPDEST POP PUSH2 0x10FF PUSH1 0x4 DUP1 CALLDATASIZE SUB PUSH1 0x20 DUP2 LT ISZERO PUSH2 0x10D3 JUMPI PUSH1 0x0 DUP1 REVERT JUMPDEST DUP2 ADD SWAP1 DUP1 DUP1 CALLDATALOAD PUSH20 0xFFFFFFFFFFFFFFFFFFFFFFFFFFFFFFFFFFFFFFFF AND SWAP1 PUSH1 0x20 ADD SWAP1 SWAP3 SWAP2 SWAP1 POP POP POP PUSH2 0x402A JUMP JUMPDEST STOP JUMPDEST CALLVALUE DUP1 ISZERO PUSH2 0x110D JUMPI PUSH1 0x0 DUP1 REVERT JUMPDEST POP PUSH2 0x113A PUSH1 0x4 DUP1 CALLDATASIZE SUB PUSH1 0x20 DUP2 LT ISZERO PUSH2 0x1124 JUMPI PUSH1 0x0 DUP1 REVERT JUMPDEST DUP2 ADD SWAP1 DUP1 DUP1 CALLDATALOAD SWAP1 PUSH1 0x20 ADD SWAP1 SWAP3 SWAP2 SWAP1 POP POP POP PUSH2 0x40C6 JUMP JUMPDEST PUSH1 0x40 MLOAD DUP1 DUP3 ISZERO ISZERO DUP2 MSTORE PUSH1 0x20 ADD SWAP2 POP POP PUSH1 0x40 MLOAD DUP1 SWAP2 SUB SWAP1 RETURN JUMPDEST CALLVALUE DUP1 ISZERO PUSH2 0x115E JUMPI PUSH1 0x0 DUP1 REVERT JUMPDEST POP PUSH2 0x1167 PUSH2 0x438E JUMP JUMPDEST PUSH1 0x40 MLOAD DUP1 DUP3 DUP2 MSTORE PUSH1 0x20 ADD SWAP2 POP POP PUSH1 0x40 MLOAD DUP1 SWAP2 SUB SWAP1 RETURN JUMPDEST PUSH2 0x1185 PUSH2 0x4A58 JUMP JUMPDEST PUSH1 0x0 NUMBER SWAP1 POP PUSH1 0x17 SLOAD DUP2 GT ISZERO PUSH2 0x119A JUMPI PUSH1 0x17 SLOAD SWAP1 POP JUMPDEST PUSH1 0x16 SLOAD DUP2 LT ISZERO PUSH2 0x11AA JUMPI PUSH1 0x16 SLOAD SWAP1 POP JUMPDEST PUSH1 0x0 PUSH1 0x1A SLOAD DUP3 SUB SWAP1 POP PUSH2 0x11BB PUSH2 0x4A58 JUMP JUMPDEST PUSH1 0x1B PUSH1 0x8 DUP1 PUSH1 0x20 MUL PUSH1 0x40 MLOAD SWAP1 DUP2 ADD PUSH1 0x40 MSTORE DUP1 SWAP3 SWAP2 SWAP1 DUP3 PUSH1 0x8 DUP1 ISZERO PUSH2 0x11F4 JUMPI PUSH1 0x20 MUL DUP3 ADD SWAP2 JUMPDEST DUP2 SLOAD DUP2 MSTORE PUSH1 0x20 ADD SWAP1 PUSH1 0x1 ADD SWAP1 DUP1 DUP4 GT PUSH2 0x11E0 JUMPI JUMPDEST POP POP POP POP POP SWAP1 POP PUSH1 0x0 DUP3 EQ ISZERO PUSH2 0x1209 JUMPI PUSH2 0x127B JUMP JUMPDEST PUSH1 0x0 JUMPDEST PUSH1 0x8 DUP2 LT ISZERO PUSH2 0x1279 JUMPI PUSH1 0x0 PUSH1 0x23 SLOAD SWAP1 POP PUSH1 0x0 PUSH1 0x18 SLOAD SWAP1 POP DUP1 DUP3 DUP2 PUSH2 0x122C JUMPI INVALID JUMPDEST DIV SWAP2 POP PUSH1 0x2 DUP4 PUSH1 0x8 DUP2 LT PUSH2 0x123C JUMPI INVALID JUMPDEST ADD SLOAD DUP6 DUP4 MUL MUL SWAP2 POP DUP2 PUSH1 0x1B DUP5 PUSH1 0x8 DUP2 LT PUSH2 0x1252 JUMPI INVALID JUMPDEST ADD SLOAD ADD DUP5 DUP5 PUSH1 0x8 DUP2 LT PUSH2 0x1261 JUMPI INVALID JUMPDEST PUSH1 0x20 MUL ADD DUP2 DUP2 MSTORE POP POP POP POP DUP1 DUP1 PUSH1 0x1 ADD SWAP2 POP POP PUSH2 0x120C JUMP JUMPDEST POP JUMPDEST PUSH2 0x1283 PUSH2 0x4A58 JUMP JUMPDEST PUSH1 0x26 PUSH1 0x0 DUP8 PUSH20 0xFFFFFFFFFFFFFFFFFFFFFFFFFFFFFFFFFFFFFFFF AND PUSH20 0xFFFFFFFFFFFFFFFFFFFFFFFFFFFFFFFFFFFFFFFF AND DUP2 MSTORE PUSH1 0x20 ADD SWAP1 DUP2 MSTORE PUSH1 0x20 ADD PUSH1 0x0 KECCAK256 PUSH1 0x3 ADD PUSH1 0x8 DUP1 PUSH1 0x20 MUL PUSH1 0x40 MLOAD SWAP1 DUP2 ADD PUSH1 0x40 MSTORE DUP1 SWAP3 SWAP2 SWAP1 DUP3 PUSH1 0x8 DUP1 ISZERO PUSH2 0x12FC JUMPI PUSH1 0x20 MUL DUP3 ADD SWAP2 JUMPDEST DUP2 SLOAD DUP2 MSTORE PUSH1 0x20 ADD SWAP1 PUSH1 0x1 ADD SWAP1 DUP1 DUP4 GT PUSH2 0x12E8 JUMPI JUMPDEST POP POP POP POP POP SWAP1 POP PUSH1 0x0 DUP1 JUMPDEST PUSH1 0x8 DUP2 LT ISZERO PUSH2 0x14A6 JUMPI PUSH1 0x0 PUSH1 0x2 SWAP1 POP PUSH1 0x0 PUSH2 0x1389 PUSH1 0x26 PUSH1 0x0 DUP13 PUSH20 0xFFFFFFFFFFFFFFFFFFFFFFFFFFFFFFFFFFFFFFFF AND PUSH20 0xFFFFFFFFFFFFFFFFFFFFFFFFFFFFFFFFFFFFFFFF AND DUP2 MSTORE PUSH1 0x20 ADD SWAP1 DUP2 MSTORE PUSH1 0x20 ADD PUSH1 0x0 KECCAK256 PUSH1 0xD ADD DUP5 PUSH1 0x8 DUP2 LT PUSH2 0x1368 JUMPI INVALID JUMPDEST ADD SLOAD DUP8 DUP6 PUSH1 0x8 DUP2 LT PUSH2 0x1376 JUMPI INVALID JUMPDEST PUSH1 0x20 MUL ADD MLOAD PUSH2 0x4394 SWAP1 SWAP2 SWAP1 PUSH4 0xFFFFFFFF AND JUMP JUMPDEST SWAP1 POP DUP2 DUP2 DUP2 PUSH2 0x1394 JUMPI INVALID JUMPDEST DIV SWAP1 POP DUP1 PUSH1 0x26 PUSH1 0x0 DUP13 PUSH20 0xFFFFFFFFFFFFFFFFFFFFFFFFFFFFFFFFFFFFFFFF AND PUSH20 0xFFFFFFFFFFFFFFFFFFFFFFFFFFFFFFFFFFFFFFFF AND DUP2 MSTORE PUSH1 0x20 ADD SWAP1 DUP2 MSTORE PUSH1 0x20 ADD PUSH1 0x0 KECCAK256 PUSH1 0x15 ADD DUP5 PUSH1 0x8 DUP2 LT PUSH2 0x13E5 JUMPI INVALID JUMPDEST ADD SLOAD PUSH1 0x26 PUSH1 0x0 DUP14 PUSH20 0xFFFFFFFFFFFFFFFFFFFFFFFFFFFFFFFFFFFFFFFF AND PUSH20 0xFFFFFFFFFFFFFFFFFFFFFFFFFFFFFFFFFFFFFFFF AND DUP2 MSTORE PUSH1 0x20 ADD SWAP1 DUP2 MSTORE PUSH1 0x20 ADD PUSH1 0x0 KECCAK256 PUSH1 0x1D ADD DUP6 PUSH1 0x8 DUP2 LT PUSH2 0x1434 JUMPI INVALID JUMPDEST ADD SLOAD ADD MUL SWAP1 POP PUSH1 0x1 DUP2 DUP2 PUSH2 0x1444 JUMPI INVALID JUMPDEST DIV SWAP1 POP PUSH1 0x23 SLOAD DUP2 DUP2 PUSH2 0x1452 JUMPI INVALID JUMPDEST DIV SWAP1 POP DUP2 DUP2 MUL SWAP1 POP PUSH2 0x147D DUP2 DUP7 DUP6 PUSH1 0x8 DUP2 LT PUSH2 0x146A JUMPI INVALID JUMPDEST PUSH1 0x20 MUL ADD MLOAD PUSH2 0x43AE SWAP1 SWAP2 SWAP1 PUSH4 0xFFFFFFFF AND JUMP JUMPDEST DUP6 DUP5 PUSH1 0x8 DUP2 LT PUSH2 0x1489 JUMPI INVALID JUMPDEST PUSH1 0x20 MUL ADD DUP2 DUP2 MSTORE POP POP DUP1 DUP5 ADD SWAP4 POP POP POP DUP1 DUP1 PUSH1 0x1 ADD SWAP2 POP POP PUSH2 0x1307 JUMP JUMPDEST POP DUP2 SWAP6 POP POP POP POP POP POP SWAP2 SWAP1 POP JUMP JUMPDEST PUSH1 0x15 PUSH1 0x0 SWAP1 SLOAD SWAP1 PUSH2 0x100 EXP SWAP1 DIV PUSH20 0xFFFFFFFFFFFFFFFFFFFFFFFFFFFFFFFFFFFFFFFF AND DUP2 JUMP JUMPDEST PUSH1 0x0 DUP1 SLOAD SWAP1 PUSH2 0x100 EXP SWAP1 DIV PUSH20 0xFFFFFFFFFFFFFFFFFFFFFFFFFFFFFFFFFFFFFFFF AND PUSH20 0xFFFFFFFFFFFFFFFFFFFFFFFFFFFFFFFFFFFFFFFF AND CALLER PUSH20 0xFFFFFFFFFFFFFFFFFFFFFFFFFFFFFFFFFFFFFFFF AND EQ PUSH2 0x1532 JUMPI PUSH1 0x0 DUP1 REVERT JUMPDEST DUP1 PUSH1 0xB DUP4 PUSH1 0x8 DUP2 LT PUSH2 0x1540 JUMPI INVALID JUMPDEST ADD DUP2 SWAP1 SSTORE POP POP POP JUMP JUMPDEST PUSH1 0x0 DUP1 SLOAD SWAP1 PUSH2 0x100 EXP SWAP1 DIV PUSH20 0xFFFFFFFFFFFFFFFFFFFFFFFFFFFFFFFFFFFFFFFF AND PUSH20 0xFFFFFFFFFFFFFFFFFFFFFFFFFFFFFFFFFFFFFFFF AND CALLER PUSH20 0xFFFFFFFFFFFFFFFFFFFFFFFFFFFFFFFFFFFFFFFF AND EQ PUSH2 0x15A1 JUMPI PUSH1 0x0 DUP1 REVERT JUMPDEST DUP2 PUSH1 0x14 PUSH1 0x0 PUSH2 0x100 EXP DUP2 SLOAD DUP2 PUSH20 0xFFFFFFFFFFFFFFFFFFFFFFFFFFFFFFFFFFFFFFFF MUL NOT AND SWAP1 DUP4 PUSH20 0xFFFFFFFFFFFFFFFFFFFFFFFFFFFFFFFFFFFFFFFF AND MUL OR SWAP1 SSTORE POP DUP1 PUSH1 0x15 PUSH1 0x0 PUSH2 0x100 EXP DUP2 SLOAD DUP2 PUSH20 0xFFFFFFFFFFFFFFFFFFFFFFFFFFFFFFFFFFFFFFFF MUL NOT AND SWAP1 DUP4 PUSH20 0xFFFFFFFFFFFFFFFFFFFFFFFFFFFFFFFFFFFFFFFF AND MUL OR SWAP1 SSTORE POP POP POP JUMP JUMPDEST PUSH1 0x0 PUSH1 0x1 ISZERO ISZERO PUSH1 0x26 PUSH1 0x0 CALLER PUSH20 0xFFFFFFFFFFFFFFFFFFFFFFFFFFFFFFFFFFFFFFFF AND PUSH20 0xFFFFFFFFFFFFFFFFFFFFFFFFFFFFFFFFFFFFFFFF AND DUP2 MSTORE PUSH1 0x20 ADD SWAP1 DUP2 MSTORE PUSH1 0x20 ADD PUSH1 0x0 KECCAK256 PUSH1 0x0 ADD PUSH1 0x0 SWAP1 SLOAD SWAP1 PUSH2 0x100 EXP SWAP1 DIV PUSH1 0xFF AND ISZERO ISZERO EQ PUSH2 0x1689 JUMPI PUSH1 0x0 DUP1 REVERT JUMPDEST PUSH1 0x1 ISZERO ISZERO PUSH1 0x24 PUSH1 0x0 SWAP1 SLOAD SWAP1 PUSH2 0x100 EXP SWAP1 DIV PUSH1 0xFF AND ISZERO ISZERO EQ ISZERO PUSH2 0x16AA JUMPI PUSH1 0x0 DUP1 REVERT JUMPDEST PUSH2 0x16B2 PUSH2 0x43C8 JUMP JUMPDEST PUSH2 0x16BB CALLER PUSH2 0x447E JUMP JUMPDEST PUSH1 0x1 SWAP1 POP SWAP1 JUMP JUMPDEST PUSH1 0x14 PUSH1 0x0 SWAP1 SLOAD SWAP1 PUSH2 0x100 EXP SWAP1 DIV PUSH20 0xFFFFFFFFFFFFFFFFFFFFFFFFFFFFFFFFFFFFFFFF AND DUP2 JUMP JUMPDEST PUSH1 0x23 SLOAD DUP2 JUMP JUMPDEST PUSH1 0x13 PUSH1 0x0 SWAP1 SLOAD SWAP1 PUSH2 0x100 EXP SWAP1 DIV PUSH20 0xFFFFFFFFFFFFFFFFFFFFFFFFFFFFFFFFFFFFFFFF AND PUSH20 0xFFFFFFFFFFFFFFFFFFFFFFFFFFFFFFFFFFFFFFFF AND CALLER PUSH20 0xFFFFFFFFFFFFFFFFFFFFFFFFFFFFFFFFFFFFFFFF AND EQ PUSH2 0x17B1 JUMPI PUSH1 0x40 MLOAD PUSH32 0x8C379A000000000000000000000000000000000000000000000000000000000 DUP2 MSTORE PUSH1 0x4 ADD DUP1 DUP1 PUSH1 0x20 ADD DUP3 DUP2 SUB DUP3 MSTORE PUSH1 0xC DUP2 MSTORE PUSH1 0x20 ADD DUP1 PUSH32 0x4449535155414C49464945440000000000000000000000000000000000000000 DUP2 MSTORE POP PUSH1 0x20 ADD SWAP2 POP POP PUSH1 0x40 MLOAD DUP1 SWAP2 SUB SWAP1 REVERT JUMPDEST DUP1 MLOAD DUP3 MLOAD EQ PUSH2 0x1828 JUMPI PUSH1 0x40 MLOAD PUSH32 0x8C379A000000000000000000000000000000000000000000000000000000000 DUP2 MSTORE PUSH1 0x4 ADD DUP1 DUP1 PUSH1 0x20 ADD DUP3 DUP2 SUB DUP3 MSTORE PUSH1 0xC DUP2 MSTORE PUSH1 0x20 ADD DUP1 PUSH32 0x494E56414C494420444154410000000000000000000000000000000000000000 DUP2 MSTORE POP PUSH1 0x20 ADD SWAP2 POP POP PUSH1 0x40 MLOAD DUP1 SWAP2 SUB SWAP1 REVERT JUMPDEST PUSH1 0x0 JUMPDEST DUP3 MLOAD DUP2 LT ISZERO PUSH2 0x18E8 JUMPI DUP2 DUP2 DUP2 MLOAD DUP2 LT PUSH2 0x1840 JUMPI INVALID JUMPDEST PUSH1 0x20 MUL PUSH1 0x20 ADD ADD MLOAD PUSH1 0x26 PUSH1 0x0 DUP6 DUP5 DUP2 MLOAD DUP2 LT PUSH2 0x1858 JUMPI INVALID JUMPDEST PUSH1 0x20 MUL PUSH1 0x20 ADD ADD MLOAD PUSH20 0xFFFFFFFFFFFFFFFFFFFFFFFFFFFFFFFFFFFFFFFF AND PUSH20 0xFFFFFFFFFFFFFFFFFFFFFFFFFFFFFFFFFFFFFFFF AND DUP2 MSTORE PUSH1 0x20 ADD SWAP1 DUP2 MSTORE PUSH1 0x20 ADD PUSH1 0x0 KECCAK256 PUSH1 0x1 ADD PUSH1 0x0 PUSH2 0x100 EXP DUP2 SLOAD DUP2 PUSH20 0xFFFFFFFFFFFFFFFFFFFFFFFFFFFFFFFFFFFFFFFF MUL NOT AND SWAP1 DUP4 PUSH20 0xFFFFFFFFFFFFFFFFFFFFFFFFFFFFFFFFFFFFFFFF AND MUL OR SWAP1 SSTORE POP DUP1 DUP1 PUSH1 0x1 ADD SWAP2 POP POP PUSH2 0x182B JUMP JUMPDEST POP POP POP JUMP JUMPDEST PUSH2 0x18F5 PUSH2 0x4A58 JUMP JUMPDEST PUSH1 0x26 PUSH1 0x0 DUP4 PUSH20 0xFFFFFFFFFFFFFFFFFFFFFFFFFFFFFFFFFFFFFFFF AND PUSH20 0xFFFFFFFFFFFFFFFFFFFFFFFFFFFFFFFFFFFFFFFF AND DUP2 MSTORE PUSH1 0x20 ADD SWAP1 DUP2 MSTORE PUSH1 0x20 ADD PUSH1 0x0 KECCAK256 PUSH1 0x1D ADD PUSH1 0x8 DUP1 PUSH1 0x20 MUL PUSH1 0x40 MLOAD SWAP1 DUP2 ADD PUSH1 0x40 MSTORE DUP1 SWAP3 SWAP2 SWAP1 DUP3 PUSH1 0x8 DUP1 ISZERO PUSH2 0x196E JUMPI PUSH1 0x20 MUL DUP3 ADD SWAP2 JUMPDEST DUP2 SLOAD DUP2 MSTORE PUSH1 0x20 ADD SWAP1 PUSH1 0x1 ADD SWAP1 DUP1 DUP4 GT PUSH2 0x195A JUMPI JUMPDEST POP POP POP POP POP SWAP1 POP SWAP2 SWAP1 POP JUMP JUMPDEST PUSH1 0x0 DUP1 SLOAD SWAP1 PUSH2 0x100 EXP SWAP1 DIV PUSH20 0xFFFFFFFFFFFFFFFFFFFFFFFFFFFFFFFFFFFFFFFF AND PUSH20 0xFFFFFFFFFFFFFFFFFFFFFFFFFFFFFFFFFFFFFFFF AND CALLER PUSH20 0xFFFFFFFFFFFFFFFFFFFFFFFFFFFFFFFFFFFFFFFF AND EQ PUSH2 0x19D2 JUMPI PUSH1 0x0 DUP1 REVERT JUMPDEST PUSH1 0x0 PUSH1 0x24 PUSH1 0x0 PUSH2 0x100 EXP DUP2 SLOAD DUP2 PUSH1 0xFF MUL NOT AND SWAP1 DUP4 ISZERO ISZERO MUL OR SWAP1 SSTORE POP PUSH32 0xFFFFFFFFFFFFFFFFFFFFFFFFFFFFFFFFFFFFFFFFFFFFFFFFFFFFFFFFFFFFFFFF PUSH1 0x17 DUP2 SWAP1 SSTORE POP JUMP JUMPDEST PUSH1 0x0 DUP1 SLOAD SWAP1 PUSH2 0x100 EXP SWAP1 DIV PUSH20 0xFFFFFFFFFFFFFFFFFFFFFFFFFFFFFFFFFFFFFFFF AND PUSH20 0xFFFFFFFFFFFFFFFFFFFFFFFFFFFFFFFFFFFFFFFF AND CALLER PUSH20 0xFFFFFFFFFFFFFFFFFFFFFFFFFFFFFFFFFFFFFFFF AND EQ PUSH2 0x1A6E JUMPI PUSH1 0x0 DUP1 REVERT JUMPDEST DUP2 PUSH20 0xFFFFFFFFFFFFFFFFFFFFFFFFFFFFFFFFFFFFFFFF AND PUSH4 0xA9059CBB CALLER DUP4 PUSH1 0x40 MLOAD DUP4 PUSH4 0xFFFFFFFF AND PUSH1 0xE0 SHL DUP2 MSTORE PUSH1 0x4 ADD DUP1 DUP4 PUSH20 0xFFFFFFFFFFFFFFFFFFFFFFFFFFFFFFFFFFFFFFFF AND DUP2 MSTORE PUSH1 0x20 ADD DUP3 DUP2 MSTORE PUSH1 0x20 ADD SWAP3 POP POP POP PUSH1 0x20 PUSH1 0x40 MLOAD DUP1 DUP4 SUB DUP2 PUSH1 0x0 DUP8 DUP1 EXTCODESIZE ISZERO DUP1 ISZERO PUSH2 0x1ADF JUMPI PUSH1 0x0 DUP1 REVERT JUMPDEST POP GAS CALL ISZERO DUP1 ISZERO PUSH2 0x1AF3 JUMPI RETURNDATASIZE PUSH1 0x0 DUP1 RETURNDATACOPY RETURNDATASIZE PUSH1 0x0 REVERT JUMPDEST POP POP POP POP PUSH1 0x40 MLOAD RETURNDATASIZE PUSH1 0x20 DUP2 LT ISZERO PUSH2 0x1B09 JUMPI PUSH1 0x0 DUP1 REVERT JUMPDEST DUP2 ADD SWAP1 DUP1 DUP1 MLOAD SWAP1 PUSH1 0x20 ADD SWAP1 SWAP3 SWAP2 SWAP1 POP POP POP POP POP POP JUMP JUMPDEST PUSH1 0x2 DUP2 PUSH1 0x8 DUP2 LT PUSH2 0x1B2C JUMPI INVALID JUMPDEST ADD PUSH1 0x0 SWAP2 POP SWAP1 POP SLOAD DUP2 JUMP JUMPDEST PUSH1 0xB DUP2 PUSH1 0x8 DUP2 LT PUSH2 0x1B44 JUMPI INVALID JUMPDEST ADD PUSH1 0x0 SWAP2 POP SWAP1 POP SLOAD DUP2 JUMP JUMPDEST PUSH1 0x0 DUP1 PUSH1 0x0 PUSH1 0x18 SLOAD PUSH1 0x19 SLOAD PUSH1 0x25 SLOAD SWAP3 POP SWAP3 POP SWAP3 POP SWAP1 SWAP2 SWAP3 JUMP JUMPDEST PUSH1 0x17 SLOAD DUP2 JUMP JUMPDEST PUSH1 0x26 PUSH1 0x20 MSTORE DUP1 PUSH1 0x0 MSTORE PUSH1 0x40 PUSH1 0x0 KECCAK256 PUSH1 0x0 SWAP2 POP SWAP1 POP DUP1 PUSH1 0x0 ADD PUSH1 0x0 SWAP1 SLOAD SWAP1 PUSH2 0x100 EXP SWAP1 DIV PUSH1 0xFF AND SWAP1 DUP1 PUSH1 0x0 ADD PUSH1 0x1 SWAP1 SLOAD SWAP1 PUSH2 0x100 EXP SWAP1 DIV PUSH20 0xFFFFFFFFFFFFFFFFFFFFFFFFFFFFFFFFFFFFFFFF AND SWAP1 DUP1 PUSH1 0x1 ADD PUSH1 0x0 SWAP1 SLOAD SWAP1 PUSH2 0x100 EXP SWAP1 DIV PUSH20 0xFFFFFFFFFFFFFFFFFFFFFFFFFFFFFFFFFFFFFFFF AND SWAP1 DUP1 PUSH1 0x2 ADD SLOAD SWAP1 DUP1 PUSH1 0xB ADD SLOAD SWAP1 DUP1 PUSH1 0xC ADD SLOAD SWAP1 POP DUP7 JUMP JUMPDEST PUSH1 0x13 PUSH1 0x0 SWAP1 SLOAD SWAP1 PUSH2 0x100 EXP SWAP1 DIV PUSH20 0xFFFFFFFFFFFFFFFFFFFFFFFFFFFFFFFFFFFFFFFF AND DUP2 JUMP JUMPDEST PUSH1 0x0 DUP1 SLOAD SWAP1 PUSH2 0x100 EXP SWAP1 DIV PUSH20 0xFFFFFFFFFFFFFFFFFFFFFFFFFFFFFFFFFFFFFFFF AND PUSH20 0xFFFFFFFFFFFFFFFFFFFFFFFFFFFFFFFFFFFFFFFF AND CALLER PUSH20 0xFFFFFFFFFFFFFFFFFFFFFFFFFFFFFFFFFFFFFFFF AND EQ PUSH2 0x1C75 JUMPI PUSH1 0x0 DUP1 REVERT JUMPDEST PUSH1 0x0 DUP2 EQ ISZERO PUSH2 0x1C90 JUMPI PUSH1 0x0 NUMBER SWAP1 POP DUP1 PUSH1 0x17 DUP2 SWAP1 SSTORE POP POP PUSH2 0x1C98 JUMP JUMPDEST DUP1 PUSH1 0x17 DUP2 SWAP1 SSTORE POP JUMPDEST POP JUMP JUMPDEST PUSH1 0x0 DUP1 SLOAD SWAP1 PUSH2 0x100 EXP SWAP1 DIV PUSH20 0xFFFFFFFFFFFFFFFFFFFFFFFFFFFFFFFFFFFFFFFF AND PUSH20 0xFFFFFFFFFFFFFFFFFFFFFFFFFFFFFFFFFFFFFFFF AND CALLER PUSH20 0xFFFFFFFFFFFFFFFFFFFFFFFFFFFFFFFFFFFFFFFF AND EQ PUSH2 0x1CF3 JUMPI PUSH1 0x0 DUP1 REVERT JUMPDEST PUSH1 0x1 PUSH1 0x24 PUSH1 0x0 PUSH2 0x100 EXP DUP2 SLOAD DUP2 PUSH1 0xFF MUL NOT AND SWAP1 DUP4 ISZERO ISZERO MUL OR SWAP1 SSTORE POP NUMBER PUSH1 0x17 DUP2 SWAP1 SSTORE POP JUMP JUMPDEST PUSH1 0x0 PUSH1 0x1 ISZERO ISZERO PUSH1 0x26 PUSH1 0x0 CALLER PUSH20 0xFFFFFFFFFFFFFFFFFFFFFFFFFFFFFFFFFFFFFFFF AND PUSH20 0xFFFFFFFFFFFFFFFFFFFFFFFFFFFFFFFFFFFFFFFF AND DUP2 MSTORE PUSH1 0x20 ADD SWAP1 DUP2 MSTORE PUSH1 0x20 ADD PUSH1 0x0 KECCAK256 PUSH1 0x0 ADD PUSH1 0x0 SWAP1 SLOAD SWAP1 PUSH2 0x100 EXP SWAP1 DIV PUSH1 0xFF AND ISZERO ISZERO EQ PUSH2 0x1D79 JUMPI PUSH1 0x0 DUP1 REVERT JUMPDEST PUSH1 0x0 NUMBER SWAP1 POP PUSH1 0x0 PUSH2 0x1DE1 PUSH1 0x26 PUSH1 0x0 CALLER PUSH20 0xFFFFFFFFFFFFFFFFFFFFFFFFFFFFFFFFFFFFFFFF AND PUSH20 0xFFFFFFFFFFFFFFFFFFFFFFFFFFFFFFFFFFFFFFFF AND DUP2 MSTORE PUSH1 0x20 ADD SWAP1 DUP2 MSTORE PUSH1 0x20 ADD PUSH1 0x0 KECCAK256 PUSH1 0x25 ADD DUP7 PUSH1 0x8 DUP2 LT PUSH2 0x1DD0 JUMPI INVALID JUMPDEST ADD SLOAD DUP4 PUSH2 0x4394 SWAP1 SWAP2 SWAP1 PUSH4 0xFFFFFFFF AND JUMP JUMPDEST SWAP1 POP PUSH1 0xB DUP6 PUSH1 0x8 DUP2 LT PUSH2 0x1DF0 JUMPI INVALID JUMPDEST ADD SLOAD DUP2 LT ISZERO PUSH2 0x1DFE JUMPI PUSH1 0x0 DUP1 REVERT JUMPDEST DUP4 PUSH1 0x26 PUSH1 0x0 CALLER PUSH20 0xFFFFFFFFFFFFFFFFFFFFFFFFFFFFFFFFFFFFFFFF AND PUSH20 0xFFFFFFFFFFFFFFFFFFFFFFFFFFFFFFFFFFFFFFFF AND DUP2 MSTORE PUSH1 0x20 ADD SWAP1 DUP2 MSTORE PUSH1 0x20 ADD PUSH1 0x0 KECCAK256 PUSH1 0x1D ADD DUP7 PUSH1 0x8 DUP2 LT PUSH2 0x1E4C JUMPI INVALID JUMPDEST ADD SLOAD LT ISZERO PUSH2 0x1E59 JUMPI PUSH1 0x0 DUP1 REVERT JUMPDEST PUSH2 0x1E61 PUSH2 0x43C8 JUMP JUMPDEST PUSH2 0x1E6A CALLER PUSH2 0x447E JUMP JUMPDEST PUSH1 0x0 PUSH1 0x26 PUSH1 0x0 CALLER PUSH20 0xFFFFFFFFFFFFFFFFFFFFFFFFFFFFFFFFFFFFFFFF AND PUSH20 0xFFFFFFFFFFFFFFFFFFFFFFFFFFFFFFFFFFFFFFFF AND DUP2 MSTORE PUSH1 0x20 ADD SWAP1 DUP2 MSTORE PUSH1 0x20 ADD PUSH1 0x0 KECCAK256 PUSH1 0x2 ADD SLOAD SWAP1 POP PUSH1 0x0 PUSH1 0x14 PUSH1 0x0 SWAP1 SLOAD SWAP1 PUSH2 0x100 EXP SWAP1 DIV PUSH20 0xFFFFFFFFFFFFFFFFFFFFFFFFFFFFFFFFFFFFFFFF AND PUSH20 0xFFFFFFFFFFFFFFFFFFFFFFFFFFFFFFFFFFFFFFFF AND PUSH4 0xA9059CBB CALLER DUP9 PUSH1 0x40 MLOAD DUP4 PUSH4 0xFFFFFFFF AND PUSH1 0xE0 SHL DUP2 MSTORE PUSH1 0x4 ADD DUP1 DUP4 PUSH20 0xFFFFFFFFFFFFFFFFFFFFFFFFFFFFFFFFFFFFFFFF AND DUP2 MSTORE PUSH1 0x20 ADD DUP3 DUP2 MSTORE PUSH1 0x20 ADD SWAP3 POP POP POP PUSH1 0x20 PUSH1 0x40 MLOAD DUP1 DUP4 SUB DUP2 PUSH1 0x0 DUP8 DUP1 EXTCODESIZE ISZERO DUP1 ISZERO PUSH2 0x1F46 JUMPI PUSH1 0x0 DUP1 REVERT JUMPDEST POP GAS CALL ISZERO DUP1 ISZERO PUSH2 0x1F5A JUMPI RETURNDATASIZE PUSH1 0x0 DUP1 RETURNDATACOPY RETURNDATASIZE PUSH1 0x0 REVERT JUMPDEST POP POP POP POP PUSH1 0x40 MLOAD RETURNDATASIZE PUSH1 0x20 DUP2 LT ISZERO PUSH2 0x1F70 JUMPI PUSH1 0x0 DUP1 REVERT JUMPDEST DUP2 ADD SWAP1 DUP1 DUP1 MLOAD SWAP1 PUSH1 0x20 ADD SWAP1 SWAP3 SWAP2 SWAP1 POP POP POP SWAP1 POP PUSH1 0x0 ISZERO ISZERO DUP2 ISZERO ISZERO EQ ISZERO PUSH2 0x1F95 JUMPI PUSH1 0x0 DUP1 REVERT JUMPDEST PUSH2 0x1FF6 DUP7 PUSH1 0x26 PUSH1 0x0 CALLER PUSH20 0xFFFFFFFFFFFFFFFFFFFFFFFFFFFFFFFFFFFFFFFF AND PUSH20 0xFFFFFFFFFFFFFFFFFFFFFFFFFFFFFFFFFFFFFFFF AND DUP2 MSTORE PUSH1 0x20 ADD SWAP1 DUP2 MSTORE PUSH1 0x20 ADD PUSH1 0x0 KECCAK256 PUSH1 0x1D ADD DUP10 PUSH1 0x8 DUP2 LT PUSH2 0x1FE6 JUMPI INVALID JUMPDEST ADD SLOAD PUSH2 0x4394 SWAP1 SWAP2 SWAP1 PUSH4 0xFFFFFFFF AND JUMP JUMPDEST PUSH1 0x26 PUSH1 0x0 CALLER PUSH20 0xFFFFFFFFFFFFFFFFFFFFFFFFFFFFFFFFFFFFFFFF AND PUSH20 0xFFFFFFFFFFFFFFFFFFFFFFFFFFFFFFFFFFFFFFFF AND DUP2 MSTORE PUSH1 0x20 ADD SWAP1 DUP2 MSTORE PUSH1 0x20 ADD PUSH1 0x0 KECCAK256 PUSH1 0x1D ADD DUP9 PUSH1 0x8 DUP2 LT PUSH2 0x2043 JUMPI INVALID JUMPDEST ADD DUP2 SWAP1 SSTORE POP PUSH2 0x205D DUP7 PUSH1 0x18 SLOAD PUSH2 0x4394 SWAP1 SWAP2 SWAP1 PUSH4 0xFFFFFFFF AND JUMP JUMPDEST PUSH1 0x18 DUP2 SWAP1 SSTORE POP PUSH1 0x0 PUSH2 0x206E CALLER PUSH2 0x49EC JUMP JUMPDEST SWAP1 POP PUSH1 0x0 PUSH20 0xFFFFFFFFFFFFFFFFFFFFFFFFFFFFFFFFFFFFFFFF AND DUP2 PUSH20 0xFFFFFFFFFFFFFFFFFFFFFFFFFFFFFFFFFFFFFFFF AND EQ ISZERO DUP1 ISZERO PUSH2 0x2100 JUMPI POP PUSH1 0x1 ISZERO ISZERO PUSH1 0x26 PUSH1 0x0 DUP4 PUSH20 0xFFFFFFFFFFFFFFFFFFFFFFFFFFFFFFFFFFFFFFFF AND PUSH20 0xFFFFFFFFFFFFFFFFFFFFFFFFFFFFFFFFFFFFFFFF AND DUP2 MSTORE PUSH1 0x20 ADD SWAP1 DUP2 MSTORE PUSH1 0x20 ADD PUSH1 0x0 KECCAK256 PUSH1 0x0 ADD PUSH1 0x0 SWAP1 SLOAD SWAP1 PUSH2 0x100 EXP SWAP1 DIV PUSH1 0xFF AND ISZERO ISZERO EQ JUMPDEST ISZERO PUSH2 0x210F JUMPI PUSH2 0x210E DUP2 PUSH2 0x447E JUMP JUMPDEST JUMPDEST PUSH1 0x0 PUSH20 0xFFFFFFFFFFFFFFFFFFFFFFFFFFFFFFFFFFFFFFFF AND DUP2 PUSH20 0xFFFFFFFFFFFFFFFFFFFFFFFFFFFFFFFFFFFFFFFF AND EQ PUSH2 0x22AA JUMPI PUSH1 0x5 DUP8 DUP2 PUSH2 0x214D JUMPI INVALID JUMPDEST DIV PUSH1 0x26 PUSH1 0x0 DUP4 PUSH20 0xFFFFFFFFFFFFFFFFFFFFFFFFFFFFFFFFFFFFFFFF AND PUSH20 0xFFFFFFFFFFFFFFFFFFFFFFFFFFFFFFFFFFFFFFFF AND DUP2 MSTORE PUSH1 0x20 ADD SWAP1 DUP2 MSTORE PUSH1 0x20 ADD PUSH1 0x0 KECCAK256 PUSH1 0x15 ADD DUP10 PUSH1 0x8 DUP2 LT PUSH2 0x219B JUMPI INVALID JUMPDEST ADD SLOAD LT PUSH2 0x2254 JUMPI PUSH1 0x5 DUP8 DUP2 PUSH2 0x21AC JUMPI INVALID JUMPDEST DIV PUSH1 0x26 PUSH1 0x0 DUP4 PUSH20 0xFFFFFFFFFFFFFFFFFFFFFFFFFFFFFFFFFFFFFFFF AND PUSH20 0xFFFFFFFFFFFFFFFFFFFFFFFFFFFFFFFFFFFFFFFF AND DUP2 MSTORE PUSH1 0x20 ADD SWAP1 DUP2 MSTORE PUSH1 0x20 ADD PUSH1 0x0 KECCAK256 PUSH1 0x15 ADD DUP10 PUSH1 0x8 DUP2 LT PUSH2 0x21FA JUMPI INVALID JUMPDEST ADD SLOAD SUB PUSH1 0x26 PUSH1 0x0 DUP4 PUSH20 0xFFFFFFFFFFFFFFFFFFFFFFFFFFFFFFFFFFFFFFFF AND PUSH20 0xFFFFFFFFFFFFFFFFFFFFFFFFFFFFFFFFFFFFFFFF AND DUP2 MSTORE PUSH1 0x20 ADD SWAP1 DUP2 MSTORE PUSH1 0x20 ADD PUSH1 0x0 KECCAK256 PUSH1 0x15 ADD DUP10 PUSH1 0x8 DUP2 LT PUSH2 0x224A JUMPI INVALID JUMPDEST ADD DUP2 SWAP1 SSTORE POP PUSH2 0x22A9 JUMP JUMPDEST PUSH1 0x0 PUSH1 0x26 PUSH1 0x0 DUP4 PUSH20 0xFFFFFFFFFFFFFFFFFFFFFFFFFFFFFFFFFFFFFFFF AND PUSH20 0xFFFFFFFFFFFFFFFFFFFFFFFFFFFFFFFFFFFFFFFF AND DUP2 MSTORE PUSH1 0x20 ADD SWAP1 DUP2 MSTORE PUSH1 0x20 ADD PUSH1 0x0 KECCAK256 PUSH1 0x15 ADD DUP10 PUSH1 0x8 DUP2 LT PUSH2 0x22A3 JUMPI INVALID JUMPDEST ADD DUP2 SWAP1 SSTORE POP JUMPDEST JUMPDEST PUSH2 0x22B3 DUP2 PUSH2 0x49EC JUMP JUMPDEST SWAP1 POP PUSH1 0x0 PUSH20 0xFFFFFFFFFFFFFFFFFFFFFFFFFFFFFFFFFFFFFFFF AND DUP2 PUSH20 0xFFFFFFFFFFFFFFFFFFFFFFFFFFFFFFFFFFFFFFFF AND EQ ISZERO DUP1 ISZERO PUSH2 0x2345 JUMPI POP PUSH1 0x1 ISZERO ISZERO PUSH1 0x26 PUSH1 0x0 DUP4 PUSH20 0xFFFFFFFFFFFFFFFFFFFFFFFFFFFFFFFFFFFFFFFF AND PUSH20 0xFFFFFFFFFFFFFFFFFFFFFFFFFFFFFFFFFFFFFFFF AND DUP2 MSTORE PUSH1 0x20 ADD SWAP1 DUP2 MSTORE PUSH1 0x20 ADD PUSH1 0x0 KECCAK256 PUSH1 0x0 ADD PUSH1 0x0 SWAP1 SLOAD SWAP1 PUSH2 0x100 EXP SWAP1 DIV PUSH1 0xFF AND ISZERO ISZERO EQ JUMPDEST ISZERO PUSH2 0x2354 JUMPI PUSH2 0x2353 DUP2 PUSH2 0x447E JUMP JUMPDEST JUMPDEST PUSH1 0x0 PUSH20 0xFFFFFFFFFFFFFFFFFFFFFFFFFFFFFFFFFFFFFFFF AND DUP2 PUSH20 0xFFFFFFFFFFFFFFFFFFFFFFFFFFFFFFFFFFFFFFFF AND EQ PUSH2 0x24EF JUMPI PUSH1 0xA DUP8 DUP2 PUSH2 0x2392 JUMPI INVALID JUMPDEST DIV PUSH1 0x26 PUSH1 0x0 DUP4 PUSH20 0xFFFFFFFFFFFFFFFFFFFFFFFFFFFFFFFFFFFFFFFF AND PUSH20 0xFFFFFFFFFFFFFFFFFFFFFFFFFFFFFFFFFFFFFFFF AND DUP2 MSTORE PUSH1 0x20 ADD SWAP1 DUP2 MSTORE PUSH1 0x20 ADD PUSH1 0x0 KECCAK256 PUSH1 0x15 ADD DUP10 PUSH1 0x8 DUP2 LT PUSH2 0x23E0 JUMPI INVALID JUMPDEST ADD SLOAD LT PUSH2 0x2499 JUMPI PUSH1 0xA DUP8 DUP2 PUSH2 0x23F1 JUMPI INVALID JUMPDEST DIV PUSH1 0x26 PUSH1 0x0 DUP4 PUSH20 0xFFFFFFFFFFFFFFFFFFFFFFFFFFFFFFFFFFFFFFFF AND PUSH20 0xFFFFFFFFFFFFFFFFFFFFFFFFFFFFFFFFFFFFFFFF AND DUP2 MSTORE PUSH1 0x20 ADD SWAP1 DUP2 MSTORE PUSH1 0x20 ADD PUSH1 0x0 KECCAK256 PUSH1 0x15 ADD DUP10 PUSH1 0x8 DUP2 LT PUSH2 0x243F JUMPI INVALID JUMPDEST ADD SLOAD SUB PUSH1 0x26 PUSH1 0x0 DUP4 PUSH20 0xFFFFFFFFFFFFFFFFFFFFFFFFFFFFFFFFFFFFFFFF AND PUSH20 0xFFFFFFFFFFFFFFFFFFFFFFFFFFFFFFFFFFFFFFFF AND DUP2 MSTORE PUSH1 0x20 ADD SWAP1 DUP2 MSTORE PUSH1 0x20 ADD PUSH1 0x0 KECCAK256 PUSH1 0x15 ADD DUP10 PUSH1 0x8 DUP2 LT PUSH2 0x248F JUMPI INVALID JUMPDEST ADD DUP2 SWAP1 SSTORE POP PUSH2 0x24EE JUMP JUMPDEST PUSH1 0x0 PUSH1 0x26 PUSH1 0x0 DUP4 PUSH20 0xFFFFFFFFFFFFFFFFFFFFFFFFFFFFFFFFFFFFFFFF AND PUSH20 0xFFFFFFFFFFFFFFFFFFFFFFFFFFFFFFFFFFFFFFFF AND DUP2 MSTORE PUSH1 0x20 ADD SWAP1 DUP2 MSTORE PUSH1 0x20 ADD PUSH1 0x0 KECCAK256 PUSH1 0x15 ADD DUP10 PUSH1 0x8 DUP2 LT PUSH2 0x24E8 JUMPI INVALID JUMPDEST ADD DUP2 SWAP1 SSTORE POP JUMPDEST JUMPDEST PUSH8 0x214E8348C4F0000 DUP4 LT ISZERO DUP1 ISZERO PUSH2 0x2550 JUMPI POP PUSH8 0x214E8348C4F0000 PUSH1 0x26 PUSH1 0x0 CALLER PUSH20 0xFFFFFFFFFFFFFFFFFFFFFFFFFFFFFFFFFFFFFFFF AND PUSH20 0xFFFFFFFFFFFFFFFFFFFFFFFFFFFFFFFFFFFFFFFF AND DUP2 MSTORE PUSH1 0x20 ADD SWAP1 DUP2 MSTORE PUSH1 0x20 ADD PUSH1 0x0 KECCAK256 PUSH1 0x2 ADD SLOAD LT JUMPDEST ISZERO PUSH2 0x2562 JUMPI PUSH1 0x1 PUSH1 0x19 SLOAD SUB PUSH1 0x19 DUP2 SWAP1 SSTORE POP JUMPDEST CALLER PUSH20 0xFFFFFFFFFFFFFFFFFFFFFFFFFFFFFFFFFFFFFFFF AND PUSH32 0x34A6B087BEADF3148F41320260AEBFE87D8E60C97C502169A944B67CAE515049 DUP10 DUP10 PUSH1 0x40 MLOAD DUP1 DUP4 DUP2 MSTORE PUSH1 0x20 ADD DUP3 DUP2 MSTORE PUSH1 0x20 ADD SWAP3 POP POP POP PUSH1 0x40 MLOAD DUP1 SWAP2 SUB SWAP1 LOG2 PUSH1 0x1 SWAP6 POP POP POP POP POP POP SWAP3 SWAP2 POP POP JUMP JUMPDEST PUSH1 0x1 PUSH1 0x0 SWAP1 SLOAD SWAP1 PUSH2 0x100 EXP SWAP1 DIV PUSH20 0xFFFFFFFFFFFFFFFFFFFFFFFFFFFFFFFFFFFFFFFF AND PUSH20 0xFFFFFFFFFFFFFFFFFFFFFFFFFFFFFFFFFFFFFFFF AND CALLER PUSH20 0xFFFFFFFFFFFFFFFFFFFFFFFFFFFFFFFFFFFFFFFF AND EQ PUSH2 0x2621 JUMPI PUSH1 0x0 DUP1 REVERT JUMPDEST PUSH1 0x1 PUSH1 0x0 SWAP1 SLOAD SWAP1 PUSH2 0x100 EXP SWAP1 DIV PUSH20 0xFFFFFFFFFFFFFFFFFFFFFFFFFFFFFFFFFFFFFFFF AND PUSH20 0xFFFFFFFFFFFFFFFFFFFFFFFFFFFFFFFFFFFFFFFF AND PUSH1 0x0 DUP1 SLOAD SWAP1 PUSH2 0x100 EXP SWAP1 DIV PUSH20 0xFFFFFFFFFFFFFFFFFFFFFFFFFFFFFFFFFFFFFFFF AND PUSH20 0xFFFFFFFFFFFFFFFFFFFFFFFFFFFFFFFFFFFFFFFF AND PUSH32 0x8BE0079C531659141344CD1FD0A4F28419497F9722A3DAAFE3B4186F6B6457E0 PUSH1 0x40 MLOAD PUSH1 0x40 MLOAD DUP1 SWAP2 SUB SWAP1 LOG3 PUSH1 0x1 PUSH1 0x0 SWAP1 SLOAD SWAP1 PUSH2 0x100 EXP SWAP1 DIV PUSH20 0xFFFFFFFFFFFFFFFFFFFFFFFFFFFFFFFFFFFFFFFF AND PUSH1 0x0 DUP1 PUSH2 0x100 EXP DUP2 SLOAD DUP2 PUSH20 0xFFFFFFFFFFFFFFFFFFFFFFFFFFFFFFFFFFFFFFFF MUL NOT AND SWAP1 DUP4 PUSH20 0xFFFFFFFFFFFFFFFFFFFFFFFFFFFFFFFFFFFFFFFF AND MUL OR SWAP1 SSTORE POP PUSH1 0x0 PUSH1 0x1 PUSH1 0x0 PUSH2 0x100 EXP DUP2 SLOAD DUP2 PUSH20 0xFFFFFFFFFFFFFFFFFFFFFFFFFFFFFFFFFFFFFFFF MUL NOT AND SWAP1 DUP4 PUSH20 0xFFFFFFFFFFFFFFFFFFFFFFFFFFFFFFFFFFFFFFFF AND MUL OR SWAP1 SSTORE POP JUMP JUMPDEST PUSH1 0x0 DUP1 SLOAD SWAP1 PUSH2 0x100 EXP SWAP1 DIV PUSH20 0xFFFFFFFFFFFFFFFFFFFFFFFFFFFFFFFFFFFFFFFF AND PUSH20 0xFFFFFFFFFFFFFFFFFFFFFFFFFFFFFFFFFFFFFFFF AND CALLER PUSH20 0xFFFFFFFFFFFFFFFFFFFFFFFFFFFFFFFFFFFFFFFF AND EQ PUSH2 0x27BB JUMPI PUSH1 0x0 DUP1 REVERT JUMPDEST PUSH1 0x0 DUP2 EQ ISZERO PUSH2 0x27D6 JUMPI PUSH1 0x0 NUMBER SWAP1 POP DUP1 PUSH1 0x16 DUP2 SWAP1 SSTORE POP POP PUSH2 0x27DE JUMP JUMPDEST DUP1 PUSH1 0x16 DUP2 SWAP1 SSTORE POP JUMPDEST POP JUMP JUMPDEST PUSH1 0x18 SLOAD DUP2 JUMP JUMPDEST PUSH2 0x27EF PUSH2 0x4A58 JUMP JUMPDEST PUSH1 0x26 PUSH1 0x0 DUP4 PUSH20 0xFFFFFFFFFFFFFFFFFFFFFFFFFFFFFFFFFFFFFFFF AND PUSH20 0xFFFFFFFFFFFFFFFFFFFFFFFFFFFFFFFFFFFFFFFF AND DUP2 MSTORE PUSH1 0x20 ADD SWAP1 DUP2 MSTORE PUSH1 0x20 ADD PUSH1 0x0 KECCAK256 PUSH1 0x15 ADD PUSH1 0x8 DUP1 PUSH1 0x20 MUL PUSH1 0x40 MLOAD SWAP1 DUP2 ADD PUSH1 0x40 MSTORE DUP1 SWAP3 SWAP2 SWAP1 DUP3 PUSH1 0x8 DUP1 ISZERO PUSH2 0x2868 JUMPI PUSH1 0x20 MUL DUP3 ADD SWAP2 JUMPDEST DUP2 SLOAD DUP2 MSTORE PUSH1 0x20 ADD SWAP1 PUSH1 0x1 ADD SWAP1 DUP1 DUP4 GT PUSH2 0x2854 JUMPI JUMPDEST POP POP POP POP POP SWAP1 POP SWAP2 SWAP1 POP JUMP JUMPDEST PUSH1 0x0 PUSH1 0x13 PUSH1 0x0 SWAP1 SLOAD SWAP1 PUSH2 0x100 EXP SWAP1 DIV PUSH20 0xFFFFFFFFFFFFFFFFFFFFFFFFFFFFFFFFFFFFFFFF AND PUSH20 0xFFFFFFFFFFFFFFFFFFFFFFFFFFFFFFFFFFFFFFFF AND CALLER PUSH20 0xFFFFFFFFFFFFFFFFFFFFFFFFFFFFFFFFFFFFFFFF AND EQ PUSH2 0x2939 JUMPI PUSH1 0x40 MLOAD PUSH32 0x8C379A000000000000000000000000000000000000000000000000000000000 DUP2 MSTORE PUSH1 0x4 ADD DUP1 DUP1 PUSH1 0x20 ADD DUP3 DUP2 SUB DUP3 MSTORE PUSH1 0xC DUP2 MSTORE PUSH1 0x20 ADD DUP1 PUSH32 0x4449535155414C49464945440000000000000000000000000000000000000000 DUP2 MSTORE POP PUSH1 0x20 ADD SWAP2 POP POP PUSH1 0x40 MLOAD DUP1 SWAP2 SUB SWAP1 REVERT JUMPDEST PUSH2 0x2941 PUSH2 0x43C8 JUMP JUMPDEST PUSH1 0x1 ISZERO ISZERO PUSH1 0x26 PUSH1 0x0 DUP5 PUSH20 0xFFFFFFFFFFFFFFFFFFFFFFFFFFFFFFFFFFFFFFFF AND PUSH20 0xFFFFFFFFFFFFFFFFFFFFFFFFFFFFFFFFFFFFFFFF AND DUP2 MSTORE PUSH1 0x20 ADD SWAP1 DUP2 MSTORE PUSH1 0x20 ADD PUSH1 0x0 KECCAK256 PUSH1 0x0 ADD PUSH1 0x0 SWAP1 SLOAD SWAP1 PUSH2 0x100 EXP SWAP1 DIV PUSH1 0xFF AND ISZERO ISZERO EQ PUSH2 0x29A1 JUMPI PUSH1 0x0 DUP1 REVERT JUMPDEST PUSH2 0x29AA DUP3 PUSH2 0x447E JUMP JUMPDEST PUSH1 0x1 SWAP1 POP SWAP2 SWAP1 POP JUMP JUMPDEST PUSH1 0x0 DUP1 PUSH1 0x0 DUP1 PUSH1 0x0 PUSH1 0x26 PUSH1 0x0 DUP8 PUSH20 0xFFFFFFFFFFFFFFFFFFFFFFFFFFFFFFFFFFFFFFFF AND PUSH20 0xFFFFFFFFFFFFFFFFFFFFFFFFFFFFFFFFFFFFFFFF AND DUP2 MSTORE PUSH1 0x20 ADD SWAP1 DUP2 MSTORE PUSH1 0x20 ADD PUSH1 0x0 KECCAK256 PUSH1 0x0 ADD PUSH1 0x0 SWAP1 SLOAD SWAP1 PUSH2 0x100 EXP SWAP1 DIV PUSH1 0xFF AND PUSH1 0x26 PUSH1 0x0 DUP9 PUSH20 0xFFFFFFFFFFFFFFFFFFFFFFFFFFFFFFFFFFFFFFFF AND PUSH20 0xFFFFFFFFFFFFFFFFFFFFFFFFFFFFFFFFFFFFFFFF AND DUP2 MSTORE PUSH1 0x20 ADD SWAP1 DUP2 MSTORE PUSH1 0x20 ADD PUSH1 0x0 KECCAK256 PUSH1 0x0 ADD PUSH1 0x1 SWAP1 SLOAD SWAP1 PUSH2 0x100 EXP SWAP1 DIV PUSH20 0xFFFFFFFFFFFFFFFFFFFFFFFFFFFFFFFFFFFFFFFF AND PUSH1 0x26 PUSH1 0x0 DUP10 PUSH20 0xFFFFFFFFFFFFFFFFFFFFFFFFFFFFFFFFFFFFFFFF AND PUSH20 0xFFFFFFFFFFFFFFFFFFFFFFFFFFFFFFFFFFFFFFFF AND DUP2 MSTORE PUSH1 0x20 ADD SWAP1 DUP2 MSTORE PUSH1 0x20 ADD PUSH1 0x0 KECCAK256 PUSH1 0x1 ADD PUSH1 0x0 SWAP1 SLOAD SWAP1 PUSH2 0x100 EXP SWAP1 DIV PUSH20 0xFFFFFFFFFFFFFFFFFFFFFFFFFFFFFFFFFFFFFFFF AND PUSH1 0x26 PUSH1 0x0 DUP11 PUSH20 0xFFFFFFFFFFFFFFFFFFFFFFFFFFFFFFFFFFFFFFFF AND PUSH20 0xFFFFFFFFFFFFFFFFFFFFFFFFFFFFFFFFFFFFFFFF AND DUP2 MSTORE PUSH1 0x20 ADD SWAP1 DUP2 MSTORE PUSH1 0x20 ADD PUSH1 0x0 KECCAK256 PUSH1 0x2 ADD SLOAD PUSH1 0x26 PUSH1 0x0 DUP12 PUSH20 0xFFFFFFFFFFFFFFFFFFFFFFFFFFFFFFFFFFFFFFFF AND PUSH20 0xFFFFFFFFFFFFFFFFFFFFFFFFFFFFFFFFFFFFFFFF AND DUP2 MSTORE PUSH1 0x20 ADD SWAP1 DUP2 MSTORE PUSH1 0x20 ADD PUSH1 0x0 KECCAK256 PUSH1 0xC ADD SLOAD SWAP5 POP SWAP5 POP SWAP5 POP SWAP5 POP SWAP5 POP SWAP2 SWAP4 SWAP6 SWAP1 SWAP3 SWAP5 POP JUMP JUMPDEST PUSH1 0x0 DUP1 SLOAD SWAP1 PUSH2 0x100 EXP SWAP1 DIV PUSH20 0xFFFFFFFFFFFFFFFFFFFFFFFFFFFFFFFFFFFFFFFF AND DUP2 JUMP JUMPDEST PUSH1 0x0 PUSH1 0x1 ISZERO ISZERO PUSH1 0x24 PUSH1 0x0 SWAP1 SLOAD SWAP1 PUSH2 0x100 EXP SWAP1 DIV PUSH1 0xFF AND ISZERO ISZERO EQ ISZERO PUSH2 0x2BB1 JUMPI PUSH1 0x0 DUP1 REVERT JUMPDEST PUSH2 0x2BB9 PUSH2 0x43C8 JUMP JUMPDEST PUSH1 0x0 PUSH20 0xFFFFFFFFFFFFFFFFFFFFFFFFFFFFFFFFFFFFFFFF AND DUP3 PUSH20 0xFFFFFFFFFFFFFFFFFFFFFFFFFFFFFFFFFFFFFFFF AND EQ ISZERO PUSH2 0x2C5C JUMPI PUSH1 0x40 MLOAD PUSH32 0x8C379A000000000000000000000000000000000000000000000000000000000 DUP2 MSTORE PUSH1 0x4 ADD DUP1 DUP1 PUSH1 0x20 ADD DUP3 DUP2 SUB DUP3 MSTORE PUSH1 0xD DUP2 MSTORE PUSH1 0x20 ADD DUP1 PUSH32 0x52454645524552204552524F5200000000000000000000000000000000000000 DUP2 MSTORE POP PUSH1 0x20 ADD SWAP2 POP POP PUSH1 0x40 MLOAD DUP1 SWAP2 SUB SWAP1 REVERT JUMPDEST PUSH1 0x0 ISZERO ISZERO PUSH1 0x26 PUSH1 0x0 CALLER PUSH20 0xFFFFFFFFFFFFFFFFFFFFFFFFFFFFFFFFFFFFFFFF AND PUSH20 0xFFFFFFFFFFFFFFFFFFFFFFFFFFFFFFFFFFFFFFFF AND DUP2 MSTORE PUSH1 0x20 ADD SWAP1 DUP2 MSTORE PUSH1 0x20 ADD PUSH1 0x0 KECCAK256 PUSH1 0x0 ADD PUSH1 0x0 SWAP1 SLOAD SWAP1 PUSH2 0x100 EXP SWAP1 DIV PUSH1 0xFF AND ISZERO ISZERO EQ PUSH2 0x2D25 JUMPI PUSH1 0x40 MLOAD PUSH32 0x8C379A000000000000000000000000000000000000000000000000000000000 DUP2 MSTORE PUSH1 0x4 ADD DUP1 DUP1 PUSH1 0x20 ADD DUP3 DUP2 SUB DUP3 MSTORE PUSH1 0xA DUP2 MSTORE PUSH1 0x20 ADD DUP1 PUSH32 0x5553455220455849535400000000000000000000000000000000000000000000 DUP2 MSTORE POP PUSH1 0x20 ADD SWAP2 POP POP PUSH1 0x40 MLOAD DUP1 SWAP2 SUB SWAP1 REVERT JUMPDEST PUSH1 0x1 PUSH1 0x26 PUSH1 0x0 CALLER PUSH20 0xFFFFFFFFFFFFFFFFFFFFFFFFFFFFFFFFFFFFFFFF AND PUSH20 0xFFFFFFFFFFFFFFFFFFFFFFFFFFFFFFFFFFFFFFFF AND DUP2 MSTORE PUSH1 0x20 ADD SWAP1 DUP2 MSTORE PUSH1 0x20 ADD PUSH1 0x0 KECCAK256 PUSH1 0x0 ADD PUSH1 0x0 PUSH2 0x100 EXP DUP2 SLOAD DUP2 PUSH1 0xFF MUL NOT AND SWAP1 DUP4 ISZERO ISZERO MUL OR SWAP1 SSTORE POP CALLER PUSH1 0x26 PUSH1 0x0 CALLER PUSH20 0xFFFFFFFFFFFFFFFFFFFFFFFFFFFFFFFFFFFFFFFF AND PUSH20 0xFFFFFFFFFFFFFFFFFFFFFFFFFFFFFFFFFFFFFFFF AND DUP2 MSTORE PUSH1 0x20 ADD SWAP1 DUP2 MSTORE PUSH1 0x20 ADD PUSH1 0x0 KECCAK256 PUSH1 0x0 ADD PUSH1 0x1 PUSH2 0x100 EXP DUP2 SLOAD DUP2 PUSH20 0xFFFFFFFFFFFFFFFFFFFFFFFFFFFFFFFFFFFFFFFF MUL NOT AND SWAP1 DUP4 PUSH20 0xFFFFFFFFFFFFFFFFFFFFFFFFFFFFFFFFFFFFFFFF AND MUL OR SWAP1 SSTORE POP PUSH1 0x0 PUSH20 0xFFFFFFFFFFFFFFFFFFFFFFFFFFFFFFFFFFFFFFFF AND PUSH1 0x26 PUSH1 0x0 CALLER PUSH20 0xFFFFFFFFFFFFFFFFFFFFFFFFFFFFFFFFFFFFFFFF AND PUSH20 0xFFFFFFFFFFFFFFFFFFFFFFFFFFFFFFFFFFFFFFFF AND DUP2 MSTORE PUSH1 0x20 ADD SWAP1 DUP2 MSTORE PUSH1 0x20 ADD PUSH1 0x0 KECCAK256 PUSH1 0x1 ADD PUSH1 0x0 SWAP1 SLOAD SWAP1 PUSH2 0x100 EXP SWAP1 DIV PUSH20 0xFFFFFFFFFFFFFFFFFFFFFFFFFFFFFFFFFFFFFFFF AND PUSH20 0xFFFFFFFFFFFFFFFFFFFFFFFFFFFFFFFFFFFFFFFF AND EQ ISZERO PUSH2 0x2F1A JUMPI DUP2 PUSH1 0x26 PUSH1 0x0 CALLER PUSH20 0xFFFFFFFFFFFFFFFFFFFFFFFFFFFFFFFFFFFFFFFF AND PUSH20 0xFFFFFFFFFFFFFFFFFFFFFFFFFFFFFFFFFFFFFFFF AND DUP2 MSTORE PUSH1 0x20 ADD SWAP1 DUP2 MSTORE PUSH1 0x20 ADD PUSH1 0x0 KECCAK256 PUSH1 0x1 ADD PUSH1 0x0 PUSH2 0x100 EXP DUP2 SLOAD DUP2 PUSH20 0xFFFFFFFFFFFFFFFFFFFFFFFFFFFFFFFFFFFFFFFF MUL NOT AND SWAP1 DUP4 PUSH20 0xFFFFFFFFFFFFFFFFFFFFFFFFFFFFFFFFFFFFFFFF AND MUL OR SWAP1 SSTORE POP JUMPDEST NUMBER PUSH1 0x26 PUSH1 0x0 CALLER PUSH20 0xFFFFFFFFFFFFFFFFFFFFFFFFFFFFFFFFFFFFFFFF AND PUSH20 0xFFFFFFFFFFFFFFFFFFFFFFFFFFFFFFFFFFFFFFFF AND DUP2 MSTORE PUSH1 0x20 ADD SWAP1 DUP2 MSTORE PUSH1 0x20 ADD PUSH1 0x0 KECCAK256 PUSH1 0xB ADD DUP2 SWAP1 SSTORE POP PUSH1 0x1B PUSH1 0x26 PUSH1 0x0 CALLER PUSH20 0xFFFFFFFFFFFFFFFFFFFFFFFFFFFFFFFFFFFFFFFF AND PUSH20 0xFFFFFFFFFFFFFFFFFFFFFFFFFFFFFFFFFFFFFFFF AND DUP2 MSTORE PUSH1 0x20 ADD SWAP1 DUP2 MSTORE PUSH1 0x20 ADD PUSH1 0x0 KECCAK256 PUSH1 0xD ADD SWAP1 PUSH1 0x8 PUSH2 0x2FB3 SWAP3 SWAP2 SWAP1 PUSH2 0x4A7B JUMP JUMPDEST POP PUSH1 0x0 JUMPDEST PUSH1 0x8 DUP2 LT ISZERO PUSH2 0x3020 JUMPI NUMBER PUSH1 0x26 PUSH1 0x0 CALLER PUSH20 0xFFFFFFFFFFFFFFFFFFFFFFFFFFFFFFFFFFFFFFFF AND PUSH20 0xFFFFFFFFFFFFFFFFFFFFFFFFFFFFFFFFFFFFFFFF AND DUP2 MSTORE PUSH1 0x20 ADD SWAP1 DUP2 MSTORE PUSH1 0x20 ADD PUSH1 0x0 KECCAK256 PUSH1 0x25 ADD DUP3 PUSH1 0x8 DUP2 LT PUSH2 0x300E JUMPI INVALID JUMPDEST ADD DUP2 SWAP1 SSTORE POP DUP1 DUP1 PUSH1 0x1 ADD SWAP2 POP POP PUSH2 0x2FB7 JUMP JUMPDEST POP CALLER PUSH20 0xFFFFFFFFFFFFFFFFFFFFFFFFFFFFFFFFFFFFFFFF AND PUSH32 0x66F024455AC5126246BC81854FB46D7BD5EE45CB55639A6A42F5BC4A9CD3A5F8 PUSH1 0x26 PUSH1 0x0 CALLER PUSH20 0xFFFFFFFFFFFFFFFFFFFFFFFFFFFFFFFFFFFFFFFF AND PUSH20 0xFFFFFFFFFFFFFFFFFFFFFFFFFFFFFFFFFFFFFFFF AND DUP2 MSTORE PUSH1 0x20 ADD SWAP1 DUP2 MSTORE PUSH1 0x20 ADD PUSH1 0x0 KECCAK256 PUSH1 0x1 ADD PUSH1 0x0 SWAP1 SLOAD SWAP1 PUSH2 0x100 EXP SWAP1 DIV PUSH20 0xFFFFFFFFFFFFFFFFFFFFFFFFFFFFFFFFFFFFFFFF AND PUSH1 0x40 MLOAD DUP1 DUP3 PUSH20 0xFFFFFFFFFFFFFFFFFFFFFFFFFFFFFFFFFFFFFFFF AND DUP2 MSTORE PUSH1 0x20 ADD SWAP2 POP POP PUSH1 0x40 MLOAD DUP1 SWAP2 SUB SWAP1 LOG2 PUSH1 0x1 SWAP1 POP SWAP2 SWAP1 POP JUMP JUMPDEST PUSH2 0x30F8 PUSH2 0x4A58 JUMP JUMPDEST PUSH1 0x26 PUSH1 0x0 DUP4 PUSH20 0xFFFFFFFFFFFFFFFFFFFFFFFFFFFFFFFFFFFFFFFF AND PUSH20 0xFFFFFFFFFFFFFFFFFFFFFFFFFFFFFFFFFFFFFFFF AND DUP2 MSTORE PUSH1 0x20 ADD SWAP1 DUP2 MSTORE PUSH1 0x20 ADD PUSH1 0x0 KECCAK256 PUSH1 0x25 ADD PUSH1 0x8 DUP1 PUSH1 0x20 MUL PUSH1 0x40 MLOAD SWAP1 DUP2 ADD PUSH1 0x40 MSTORE DUP1 SWAP3 SWAP2 SWAP1 DUP3 PUSH1 0x8 DUP1 ISZERO PUSH2 0x3171 JUMPI PUSH1 0x20 MUL DUP3 ADD SWAP2 JUMPDEST DUP2 SLOAD DUP2 MSTORE PUSH1 0x20 ADD SWAP1 PUSH1 0x1 ADD SWAP1 DUP1 DUP4 GT PUSH2 0x315D JUMPI JUMPDEST POP POP POP POP POP SWAP1 POP SWAP2 SWAP1 POP JUMP JUMPDEST PUSH1 0x1B DUP2 PUSH1 0x8 DUP2 LT PUSH2 0x318A JUMPI INVALID JUMPDEST ADD PUSH1 0x0 SWAP2 POP SWAP1 POP SLOAD DUP2 JUMP JUMPDEST PUSH1 0xA SLOAD DUP2 JUMP JUMPDEST PUSH1 0x0 PUSH1 0x1 ISZERO ISZERO PUSH1 0x26 PUSH1 0x0 CALLER PUSH20 0xFFFFFFFFFFFFFFFFFFFFFFFFFFFFFFFFFFFFFFFF AND PUSH20 0xFFFFFFFFFFFFFFFFFFFFFFFFFFFFFFFFFFFFFFFF AND DUP2 MSTORE PUSH1 0x20 ADD SWAP1 DUP2 MSTORE PUSH1 0x20 ADD PUSH1 0x0 KECCAK256 PUSH1 0x0 ADD PUSH1 0x0 SWAP1 SLOAD SWAP1 PUSH2 0x100 EXP SWAP1 DIV PUSH1 0xFF AND ISZERO ISZERO EQ PUSH2 0x31FD JUMPI PUSH1 0x0 DUP1 REVERT JUMPDEST PUSH1 0x1 ISZERO ISZERO PUSH1 0x24 PUSH1 0x0 SWAP1 SLOAD SWAP1 PUSH2 0x100 EXP SWAP1 DIV PUSH1 0xFF AND ISZERO ISZERO EQ ISZERO PUSH2 0x321E JUMPI PUSH1 0x0 DUP1 REVERT JUMPDEST PUSH1 0x0 DUP1 PUSH1 0x14 PUSH1 0x0 SWAP1 SLOAD SWAP1 PUSH2 0x100 EXP SWAP1 DIV PUSH20 0xFFFFFFFFFFFFFFFFFFFFFFFFFFFFFFFFFFFFFFFF AND PUSH20 0xFFFFFFFFFFFFFFFFFFFFFFFFFFFFFFFFFFFFFFFF AND PUSH4 0x70A08231 ADDRESS PUSH1 0x40 MLOAD DUP3 PUSH4 0xFFFFFFFF AND PUSH1 0xE0 SHL DUP2 MSTORE PUSH1 0x4 ADD DUP1 DUP3 PUSH20 0xFFFFFFFFFFFFFFFFFFFFFFFFFFFFFFFFFFFFFFFF AND DUP2 MSTORE PUSH1 0x20 ADD SWAP2 POP POP PUSH1 0x20 PUSH1 0x40 MLOAD DUP1 DUP4 SUB DUP2 DUP7 DUP1 EXTCODESIZE ISZERO DUP1 ISZERO PUSH2 0x32AA JUMPI PUSH1 0x0 DUP1 REVERT JUMPDEST POP GAS STATICCALL ISZERO DUP1 ISZERO PUSH2 0x32BE JUMPI RETURNDATASIZE PUSH1 0x0 DUP1 RETURNDATACOPY RETURNDATASIZE PUSH1 0x0 REVERT JUMPDEST POP POP POP POP PUSH1 0x40 MLOAD RETURNDATASIZE PUSH1 0x20 DUP2 LT ISZERO PUSH2 0x32D4 JUMPI PUSH1 0x0 DUP1 REVERT JUMPDEST DUP2 ADD SWAP1 DUP1 DUP1 MLOAD SWAP1 PUSH1 0x20 ADD SWAP1 SWAP3 SWAP2 SWAP1 POP POP POP SWAP1 POP PUSH1 0x0 PUSH1 0x14 PUSH1 0x0 SWAP1 SLOAD SWAP1 PUSH2 0x100 EXP SWAP1 DIV PUSH20 0xFFFFFFFFFFFFFFFFFFFFFFFFFFFFFFFFFFFFFFFF AND PUSH20 0xFFFFFFFFFFFFFFFFFFFFFFFFFFFFFFFFFFFFFFFF AND PUSH4 0x23B872DD CALLER ADDRESS DUP9 PUSH1 0x40 MLOAD DUP5 PUSH4 0xFFFFFFFF AND PUSH1 0xE0 SHL DUP2 MSTORE PUSH1 0x4 ADD DUP1 DUP5 PUSH20 0xFFFFFFFFFFFFFFFFFFFFFFFFFFFFFFFFFFFFFFFF AND DUP2 MSTORE PUSH1 0x20 ADD DUP4 PUSH20 0xFFFFFFFFFFFFFFFFFFFFFFFFFFFFFFFFFFFFFFFF AND DUP2 MSTORE PUSH1 0x20 ADD DUP3 DUP2 MSTORE PUSH1 0x20 ADD SWAP4 POP POP POP POP PUSH1 0x20 PUSH1 0x40 MLOAD DUP1 DUP4 SUB DUP2 PUSH1 0x0 DUP8 DUP1 EXTCODESIZE ISZERO DUP1 ISZERO PUSH2 0x339A JUMPI PUSH1 0x0 DUP1 REVERT JUMPDEST POP GAS CALL ISZERO DUP1 ISZERO PUSH2 0x33AE JUMPI RETURNDATASIZE PUSH1 0x0 DUP1 RETURNDATACOPY RETURNDATASIZE PUSH1 0x0 REVERT JUMPDEST POP POP POP POP PUSH1 0x40 MLOAD RETURNDATASIZE PUSH1 0x20 DUP2 LT ISZERO PUSH2 0x33C4 JUMPI PUSH1 0x0 DUP1 REVERT JUMPDEST DUP2 ADD SWAP1 DUP1 DUP1 MLOAD SWAP1 PUSH1 0x20 ADD SWAP1 SWAP3 SWAP2 SWAP1 POP POP POP SWAP1 POP PUSH1 0x0 ISZERO ISZERO DUP2 ISZERO ISZERO EQ ISZERO PUSH2 0x33E9 JUMPI PUSH1 0x0 DUP1 REVERT JUMPDEST PUSH1 0x0 PUSH1 0x14 PUSH1 0x0 SWAP1 SLOAD SWAP1 PUSH2 0x100 EXP SWAP1 DIV PUSH20 0xFFFFFFFFFFFFFFFFFFFFFFFFFFFFFFFFFFFFFFFF AND PUSH20 0xFFFFFFFFFFFFFFFFFFFFFFFFFFFFFFFFFFFFFFFF AND PUSH4 0x70A08231 ADDRESS PUSH1 0x40 MLOAD DUP3 PUSH4 0xFFFFFFFF AND PUSH1 0xE0 SHL DUP2 MSTORE PUSH1 0x4 ADD DUP1 DUP3 PUSH20 0xFFFFFFFFFFFFFFFFFFFFFFFFFFFFFFFFFFFFFFFF AND DUP2 MSTORE PUSH1 0x20 ADD SWAP2 POP POP PUSH1 0x20 PUSH1 0x40 MLOAD DUP1 DUP4 SUB DUP2 DUP7 DUP1 EXTCODESIZE ISZERO DUP1 ISZERO PUSH2 0x3474 JUMPI PUSH1 0x0 DUP1 REVERT JUMPDEST POP GAS STATICCALL ISZERO DUP1 ISZERO PUSH2 0x3488 JUMPI RETURNDATASIZE PUSH1 0x0 DUP1 RETURNDATACOPY RETURNDATASIZE PUSH1 0x0 REVERT JUMPDEST POP POP POP POP PUSH1 0x40 MLOAD RETURNDATASIZE PUSH1 0x20 DUP2 LT ISZERO PUSH2 0x349E JUMPI PUSH1 0x0 DUP1 REVERT JUMPDEST DUP2 ADD SWAP1 DUP1 DUP1 MLOAD SWAP1 PUSH1 0x20 ADD SWAP1 SWAP3 SWAP2 SWAP1 POP POP POP SWAP1 POP PUSH2 0x34C4 DUP4 DUP3 PUSH2 0x4394 SWAP1 SWAP2 SWAP1 PUSH4 0xFFFFFFFF AND JUMP JUMPDEST SWAP4 POP PUSH1 0x0 PUSH1 0x26 PUSH1 0x0 CALLER PUSH20 0xFFFFFFFFFFFFFFFFFFFFFFFFFFFFFFFFFFFFFFFF AND PUSH20 0xFFFFFFFFFFFFFFFFFFFFFFFFFFFFFFFFFFFFFFFF AND DUP2 MSTORE PUSH1 0x20 ADD SWAP1 DUP2 MSTORE PUSH1 0x20 ADD PUSH1 0x0 KECCAK256 PUSH1 0x2 ADD SLOAD SWAP1 POP PUSH2 0x3515 PUSH2 0x43C8 JUMP JUMPDEST PUSH2 0x351E CALLER PUSH2 0x447E JUMP JUMPDEST NUMBER PUSH1 0x26 PUSH1 0x0 CALLER PUSH20 0xFFFFFFFFFFFFFFFFFFFFFFFFFFFFFFFFFFFFFFFF AND PUSH20 0xFFFFFFFFFFFFFFFFFFFFFFFFFFFFFFFFFFFFFFFF AND DUP2 MSTORE PUSH1 0x20 ADD SWAP1 DUP2 MSTORE PUSH1 0x20 ADD PUSH1 0x0 KECCAK256 PUSH1 0xC ADD DUP2 SWAP1 SSTORE POP NUMBER PUSH1 0x26 PUSH1 0x0 CALLER PUSH20 0xFFFFFFFFFFFFFFFFFFFFFFFFFFFFFFFFFFFFFFFF AND PUSH20 0xFFFFFFFFFFFFFFFFFFFFFFFFFFFFFFFFFFFFFFFF AND DUP2 MSTORE PUSH1 0x20 ADD SWAP1 DUP2 MSTORE PUSH1 0x20 ADD PUSH1 0x0 KECCAK256 PUSH1 0x25 ADD DUP10 PUSH1 0x8 DUP2 LT PUSH2 0x35B3 JUMPI INVALID JUMPDEST ADD DUP2 SWAP1 SSTORE POP PUSH2 0x35CD DUP6 PUSH1 0x18 SLOAD PUSH2 0x43AE SWAP1 SWAP2 SWAP1 PUSH4 0xFFFFFFFF AND JUMP JUMPDEST PUSH1 0x18 DUP2 SWAP1 SSTORE POP DUP5 PUSH1 0x26 PUSH1 0x0 CALLER PUSH20 0xFFFFFFFFFFFFFFFFFFFFFFFFFFFFFFFFFFFFFFFF AND PUSH20 0xFFFFFFFFFFFFFFFFFFFFFFFFFFFFFFFFFFFFFFFF AND DUP2 MSTORE PUSH1 0x20 ADD SWAP1 DUP2 MSTORE PUSH1 0x20 ADD PUSH1 0x0 KECCAK256 PUSH1 0x2 ADD SLOAD ADD PUSH1 0x26 PUSH1 0x0 CALLER PUSH20 0xFFFFFFFFFFFFFFFFFFFFFFFFFFFFFFFFFFFFFFFF AND PUSH20 0xFFFFFFFFFFFFFFFFFFFFFFFFFFFFFFFFFFFFFFFF AND DUP2 MSTORE PUSH1 0x20 ADD SWAP1 DUP2 MSTORE PUSH1 0x20 ADD PUSH1 0x0 KECCAK256 PUSH1 0x2 ADD DUP2 SWAP1 SSTORE POP DUP5 PUSH1 0x26 PUSH1 0x0 CALLER PUSH20 0xFFFFFFFFFFFFFFFFFFFFFFFFFFFFFFFFFFFFFFFF AND PUSH20 0xFFFFFFFFFFFFFFFFFFFFFFFFFFFFFFFFFFFFFFFF AND DUP2 MSTORE PUSH1 0x20 ADD SWAP1 DUP2 MSTORE PUSH1 0x20 ADD PUSH1 0x0 KECCAK256 PUSH1 0x1D ADD DUP10 PUSH1 0x8 DUP2 LT PUSH2 0x36AC JUMPI INVALID JUMPDEST ADD SLOAD ADD PUSH1 0x26 PUSH1 0x0 CALLER PUSH20 0xFFFFFFFFFFFFFFFFFFFFFFFFFFFFFFFFFFFFFFFF AND PUSH20 0xFFFFFFFFFFFFFFFFFFFFFFFFFFFFFFFFFFFFFFFF AND DUP2 MSTORE PUSH1 0x20 ADD SWAP1 DUP2 MSTORE PUSH1 0x20 ADD PUSH1 0x0 KECCAK256 PUSH1 0x1D ADD DUP10 PUSH1 0x8 DUP2 LT PUSH2 0x36FC JUMPI INVALID JUMPDEST ADD DUP2 SWAP1 SSTORE POP PUSH1 0x0 PUSH2 0x370C CALLER PUSH2 0x49EC JUMP JUMPDEST SWAP1 POP PUSH1 0x0 PUSH20 0xFFFFFFFFFFFFFFFFFFFFFFFFFFFFFFFFFFFFFFFF AND DUP2 PUSH20 0xFFFFFFFFFFFFFFFFFFFFFFFFFFFFFFFFFFFFFFFF AND EQ ISZERO DUP1 ISZERO PUSH2 0x379E JUMPI POP PUSH1 0x1 ISZERO ISZERO PUSH1 0x26 PUSH1 0x0 DUP4 PUSH20 0xFFFFFFFFFFFFFFFFFFFFFFFFFFFFFFFFFFFFFFFF AND PUSH20 0xFFFFFFFFFFFFFFFFFFFFFFFFFFFFFFFFFFFFFFFF AND DUP2 MSTORE PUSH1 0x20 ADD SWAP1 DUP2 MSTORE PUSH1 0x20 ADD PUSH1 0x0 KECCAK256 PUSH1 0x0 ADD PUSH1 0x0 SWAP1 SLOAD SWAP1 PUSH2 0x100 EXP SWAP1 DIV PUSH1 0xFF AND ISZERO ISZERO EQ JUMPDEST ISZERO PUSH2 0x37AD JUMPI PUSH2 0x37AC DUP2 PUSH2 0x447E JUMP JUMPDEST JUMPDEST PUSH1 0x0 PUSH20 0xFFFFFFFFFFFFFFFFFFFFFFFFFFFFFFFFFFFFFFFF AND DUP2 PUSH20 0xFFFFFFFFFFFFFFFFFFFFFFFFFFFFFFFFFFFFFFFF AND EQ PUSH2 0x389F JUMPI PUSH2 0x384C PUSH1 0x5 DUP8 DUP2 PUSH2 0x37EE JUMPI INVALID JUMPDEST DIV PUSH1 0x26 PUSH1 0x0 DUP5 PUSH20 0xFFFFFFFFFFFFFFFFFFFFFFFFFFFFFFFFFFFFFFFF AND PUSH20 0xFFFFFFFFFFFFFFFFFFFFFFFFFFFFFFFFFFFFFFFF AND DUP2 MSTORE PUSH1 0x20 ADD SWAP1 DUP2 MSTORE PUSH1 0x20 ADD PUSH1 0x0 KECCAK256 PUSH1 0x15 ADD DUP12 PUSH1 0x8 DUP2 LT PUSH2 0x383C JUMPI INVALID JUMPDEST ADD SLOAD PUSH2 0x43AE SWAP1 SWAP2 SWAP1 PUSH4 0xFFFFFFFF AND JUMP JUMPDEST PUSH1 0x26 PUSH1 0x0 DUP4 PUSH20 0xFFFFFFFFFFFFFFFFFFFFFFFFFFFFFFFFFFFFFFFF AND PUSH20 0xFFFFFFFFFFFFFFFFFFFFFFFFFFFFFFFFFFFFFFFF AND DUP2 MSTORE PUSH1 0x20 ADD SWAP1 DUP2 MSTORE PUSH1 0x20 ADD PUSH1 0x0 KECCAK256 PUSH1 0x15 ADD DUP11 PUSH1 0x8 DUP2 LT PUSH2 0x3899 JUMPI INVALID JUMPDEST ADD DUP2 SWAP1 SSTORE POP JUMPDEST PUSH2 0x38A8 DUP2 PUSH2 0x49EC JUMP JUMPDEST SWAP1 POP PUSH1 0x0 PUSH20 0xFFFFFFFFFFFFFFFFFFFFFFFFFFFFFFFFFFFFFFFF AND DUP2 PUSH20 0xFFFFFFFFFFFFFFFFFFFFFFFFFFFFFFFFFFFFFFFF AND EQ ISZERO DUP1 ISZERO PUSH2 0x393A JUMPI POP PUSH1 0x1 ISZERO ISZERO PUSH1 0x26 PUSH1 0x0 DUP4 PUSH20 0xFFFFFFFFFFFFFFFFFFFFFFFFFFFFFFFFFFFFFFFF AND PUSH20 0xFFFFFFFFFFFFFFFFFFFFFFFFFFFFFFFFFFFFFFFF AND DUP2 MSTORE PUSH1 0x20 ADD SWAP1 DUP2 MSTORE PUSH1 0x20 ADD PUSH1 0x0 KECCAK256 PUSH1 0x0 ADD PUSH1 0x0 SWAP1 SLOAD SWAP1 PUSH2 0x100 EXP SWAP1 DIV PUSH1 0xFF AND ISZERO ISZERO EQ JUMPDEST ISZERO PUSH2 0x3949 JUMPI PUSH2 0x3948 DUP2 PUSH2 0x447E JUMP JUMPDEST JUMPDEST PUSH1 0x0 PUSH20 0xFFFFFFFFFFFFFFFFFFFFFFFFFFFFFFFFFFFFFFFF AND DUP2 PUSH20 0xFFFFFFFFFFFFFFFFFFFFFFFFFFFFFFFFFFFFFFFF AND EQ PUSH2 0x3A3B JUMPI PUSH2 0x39E8 PUSH1 0xA DUP8 DUP2 PUSH2 0x398A JUMPI INVALID JUMPDEST DIV PUSH1 0x26 PUSH1 0x0 DUP5 PUSH20 0xFFFFFFFFFFFFFFFFFFFFFFFFFFFFFFFFFFFFFFFF AND PUSH20 0xFFFFFFFFFFFFFFFFFFFFFFFFFFFFFFFFFFFFFFFF AND DUP2 MSTORE PUSH1 0x20 ADD SWAP1 DUP2 MSTORE PUSH1 0x20 ADD PUSH1 0x0 KECCAK256 PUSH1 0x15 ADD DUP12 PUSH1 0x8 DUP2 LT PUSH2 0x39D8 JUMPI INVALID JUMPDEST ADD SLOAD PUSH2 0x43AE SWAP1 SWAP2 SWAP1 PUSH4 0xFFFFFFFF AND JUMP JUMPDEST PUSH1 0x26 PUSH1 0x0 DUP4 PUSH20 0xFFFFFFFFFFFFFFFFFFFFFFFFFFFFFFFFFFFFFFFF AND PUSH20 0xFFFFFFFFFFFFFFFFFFFFFFFFFFFFFFFFFFFFFFFF AND DUP2 MSTORE PUSH1 0x20 ADD SWAP1 DUP2 MSTORE PUSH1 0x20 ADD PUSH1 0x0 KECCAK256 PUSH1 0x15 ADD DUP11 PUSH1 0x8 DUP2 LT PUSH2 0x3A35 JUMPI INVALID JUMPDEST ADD DUP2 SWAP1 SSTORE POP JUMPDEST PUSH8 0x214E8348C4F0000 DUP3 LT DUP1 ISZERO PUSH2 0x3A9C JUMPI POP PUSH8 0x214E8348C4F0000 PUSH1 0x26 PUSH1 0x0 CALLER PUSH20 0xFFFFFFFFFFFFFFFFFFFFFFFFFFFFFFFFFFFFFFFF AND PUSH20 0xFFFFFFFFFFFFFFFFFFFFFFFFFFFFFFFFFFFFFFFF AND DUP2 MSTORE PUSH1 0x20 ADD SWAP1 DUP2 MSTORE PUSH1 0x20 ADD PUSH1 0x0 KECCAK256 PUSH1 0x2 ADD SLOAD LT ISZERO JUMPDEST ISZERO PUSH2 0x3AAE JUMPI PUSH1 0x1 PUSH1 0x19 SLOAD ADD PUSH1 0x19 DUP2 SWAP1 SSTORE POP JUMPDEST CALLER PUSH20 0xFFFFFFFFFFFFFFFFFFFFFFFFFFFFFFFFFFFFFFFF AND PUSH32 0x73F90E9312B44DB9F93152878D03AE28D85DC9A356B29380FAB709CBB4076B52 DUP11 DUP9 PUSH1 0x40 MLOAD DUP1 DUP4 DUP2 MSTORE PUSH1 0x20 ADD DUP3 DUP2 MSTORE PUSH1 0x20 ADD SWAP3 POP POP POP PUSH1 0x40 MLOAD DUP1 SWAP2 SUB SWAP1 LOG2 PUSH1 0x1 SWAP7 POP POP POP POP POP POP POP SWAP3 SWAP2 POP POP JUMP JUMPDEST PUSH1 0x0 DUP1 SLOAD SWAP1 PUSH2 0x100 EXP SWAP1 DIV PUSH20 0xFFFFFFFFFFFFFFFFFFFFFFFFFFFFFFFFFFFFFFFF AND PUSH20 0xFFFFFFFFFFFFFFFFFFFFFFFFFFFFFFFFFFFFFFFF AND CALLER PUSH20 0xFFFFFFFFFFFFFFFFFFFFFFFFFFFFFFFFFFFFFFFF AND EQ PUSH2 0x3B6C JUMPI PUSH1 0x0 DUP1 REVERT JUMPDEST DUP3 PUSH20 0xFFFFFFFFFFFFFFFFFFFFFFFFFFFFFFFFFFFFFFFF AND DUP3 DUP3 PUSH1 0x40 MLOAD DUP1 DUP3 DUP1 MLOAD SWAP1 PUSH1 0x20 ADD SWAP1 DUP1 DUP4 DUP4 JUMPDEST PUSH1 0x20 DUP4 LT PUSH2 0x3BB8 JUMPI DUP1 MLOAD DUP3 MSTORE PUSH1 0x20 DUP3 ADD SWAP2 POP PUSH1 0x20 DUP2 ADD SWAP1 POP PUSH1 0x20 DUP4 SUB SWAP3 POP PUSH2 0x3B95 JUMP JUMPDEST PUSH1 0x1 DUP4 PUSH1 0x20 SUB PUSH2 0x100 EXP SUB DUP1 NOT DUP3 MLOAD AND DUP2 DUP5 MLOAD AND DUP1 DUP3 OR DUP6 MSTORE POP POP POP POP POP POP SWAP1 POP ADD SWAP2 POP POP PUSH1 0x0 PUSH1 0x40 MLOAD DUP1 DUP4 SUB DUP2 DUP6 DUP8 GAS CALL SWAP3 POP POP POP RETURNDATASIZE DUP1 PUSH1 0x0 DUP2 EQ PUSH2 0x3C1A JUMPI PUSH1 0x40 MLOAD SWAP2 POP PUSH1 0x1F NOT PUSH1 0x3F RETURNDATASIZE ADD AND DUP3 ADD PUSH1 0x40 MSTORE RETURNDATASIZE DUP3 MSTORE RETURNDATASIZE PUSH1 0x0 PUSH1 0x20 DUP5 ADD RETURNDATACOPY PUSH2 0x3C1F JUMP JUMPDEST PUSH1 0x60 SWAP2 POP JUMPDEST POP POP POP POP POP POP JUMP JUMPDEST PUSH1 0x16 SLOAD DUP2 JUMP JUMPDEST PUSH1 0x0 DUP1 SLOAD SWAP1 PUSH2 0x100 EXP SWAP1 DIV PUSH20 0xFFFFFFFFFFFFFFFFFFFFFFFFFFFFFFFFFFFFFFFF AND PUSH20 0xFFFFFFFFFFFFFFFFFFFFFFFFFFFFFFFFFFFFFFFF AND CALLER PUSH20 0xFFFFFFFFFFFFFFFFFFFFFFFFFFFFFFFFFFFFFFFF AND EQ PUSH2 0x3C85 JUMPI PUSH1 0x0 DUP1 REVERT JUMPDEST PUSH2 0x3C8D PUSH2 0x43C8 JUMP JUMPDEST DUP1 PUSH1 0x2 DUP4 PUSH1 0x8 DUP2 LT PUSH2 0x3C9B JUMPI INVALID JUMPDEST ADD DUP2 SWAP1 SSTORE POP PUSH1 0x0 PUSH1 0xA DUP2 SWAP1 SSTORE POP PUSH1 0x0 JUMPDEST PUSH1 0x8 DUP2 LT ISZERO PUSH2 0x3CDF JUMPI PUSH1 0x2 DUP2 PUSH1 0x8 DUP2 LT PUSH2 0x3CC1 JUMPI INVALID JUMPDEST ADD SLOAD PUSH1 0xA PUSH1 0x0 DUP3 DUP3 SLOAD ADD SWAP3 POP POP DUP2 SWAP1 SSTORE POP DUP1 DUP1 PUSH1 0x1 ADD SWAP2 POP POP PUSH2 0x3CAB JUMP JUMPDEST POP POP POP JUMP JUMPDEST PUSH1 0x0 PUSH1 0x13 PUSH1 0x0 SWAP1 SLOAD SWAP1 PUSH2 0x100 EXP SWAP1 DIV PUSH20 0xFFFFFFFFFFFFFFFFFFFFFFFFFFFFFFFFFFFFFFFF AND PUSH20 0xFFFFFFFFFFFFFFFFFFFFFFFFFFFFFFFFFFFFFFFF AND CALLER PUSH20 0xFFFFFFFFFFFFFFFFFFFFFFFFFFFFFFFFFFFFFFFF AND EQ PUSH2 0x3DA9 JUMPI PUSH1 0x40 MLOAD PUSH32 0x8C379A000000000000000000000000000000000000000000000000000000000 DUP2 MSTORE PUSH1 0x4 ADD DUP1 DUP1 PUSH1 0x20 ADD DUP3 DUP2 SUB DUP3 MSTORE PUSH1 0xC DUP2 MSTORE PUSH1 0x20 ADD DUP1 PUSH32 0x4449535155414C49464945440000000000000000000000000000000000000000 DUP2 MSTORE POP PUSH1 0x20 ADD SWAP2 POP POP PUSH1 0x40 MLOAD DUP1 SWAP2 SUB SWAP1 REVERT JUMPDEST PUSH2 0x3DB1 PUSH2 0x43C8 JUMP JUMPDEST PUSH1 0x1 SWAP1 POP SWAP1 JUMP JUMPDEST PUSH1 0x1 PUSH1 0x0 SWAP1 SLOAD SWAP1 PUSH2 0x100 EXP SWAP1 DIV PUSH20 0xFFFFFFFFFFFFFFFFFFFFFFFFFFFFFFFFFFFFFFFF AND DUP2 JUMP JUMPDEST PUSH1 0x0 DUP1 SLOAD SWAP1 PUSH2 0x100 EXP SWAP1 DIV PUSH20 0xFFFFFFFFFFFFFFFFFFFFFFFFFFFFFFFFFFFFFFFF AND PUSH20 0xFFFFFFFFFFFFFFFFFFFFFFFFFFFFFFFFFFFFFFFF AND CALLER PUSH20 0xFFFFFFFFFFFFFFFFFFFFFFFFFFFFFFFFFFFFFFFF AND EQ PUSH2 0x3E36 JUMPI PUSH1 0x0 DUP1 REVERT JUMPDEST DUP1 PUSH1 0x13 PUSH1 0x0 PUSH2 0x100 EXP DUP2 SLOAD DUP2 PUSH20 0xFFFFFFFFFFFFFFFFFFFFFFFFFFFFFFFFFFFFFFFF MUL NOT AND SWAP1 DUP4 PUSH20 0xFFFFFFFFFFFFFFFFFFFFFFFFFFFFFFFFFFFFFFFF AND MUL OR SWAP1 SSTORE POP POP JUMP JUMPDEST PUSH1 0x0 DUP1 SLOAD SWAP1 PUSH2 0x100 EXP SWAP1 DIV PUSH20 0xFFFFFFFFFFFFFFFFFFFFFFFFFFFFFFFFFFFFFFFF AND PUSH20 0xFFFFFFFFFFFFFFFFFFFFFFFFFFFFFFFFFFFFFFFF AND CALLER PUSH20 0xFFFFFFFFFFFFFFFFFFFFFFFFFFFFFFFFFFFFFFFF AND EQ PUSH2 0x3ED2 JUMPI PUSH1 0x0 DUP1 REVERT JUMPDEST DUP1 PUSH1 0x25 DUP2 SWAP1 SSTORE POP POP JUMP JUMPDEST PUSH1 0x19 SLOAD DUP2 JUMP JUMPDEST PUSH1 0x13 PUSH1 0x0 SWAP1 SLOAD SWAP1 PUSH2 0x100 EXP SWAP1 DIV PUSH20 0xFFFFFFFFFFFFFFFFFFFFFFFFFFFFFFFFFFFFFFFF AND PUSH20 0xFFFFFFFFFFFFFFFFFFFFFFFFFFFFFFFFFFFFFFFF AND CALLER PUSH20 0xFFFFFFFFFFFFFFFFFFFFFFFFFFFFFFFFFFFFFFFF AND EQ PUSH2 0x3FA5 JUMPI PUSH1 0x40 MLOAD PUSH32 0x8C379A000000000000000000000000000000000000000000000000000000000 DUP2 MSTORE PUSH1 0x4 ADD DUP1 DUP1 PUSH1 0x20 ADD DUP3 DUP2 SUB DUP3 MSTORE PUSH1 0xC DUP2 MSTORE PUSH1 0x20 ADD DUP1 PUSH32 0x4449535155414C49464945440000000000000000000000000000000000000000 DUP2 MSTORE POP PUSH1 0x20 ADD SWAP2 POP POP PUSH1 0x40 MLOAD DUP1 SWAP2 SUB SWAP1 REVERT JUMPDEST DUP1 PUSH1 0x26 PUSH1 0x0 DUP5 PUSH20 0xFFFFFFFFFFFFFFFFFFFFFFFFFFFFFFFFFFFFFFFF AND PUSH20 0xFFFFFFFFFFFFFFFFFFFFFFFFFFFFFFFFFFFFFFFF AND DUP2 MSTORE PUSH1 0x20 ADD SWAP1 DUP2 MSTORE PUSH1 0x20 ADD PUSH1 0x0 KECCAK256 PUSH1 0x1 ADD PUSH1 0x0 PUSH2 0x100 EXP DUP2 SLOAD DUP2 PUSH20 0xFFFFFFFFFFFFFFFFFFFFFFFFFFFFFFFFFFFFFFFF MUL NOT AND SWAP1 DUP4 PUSH20 0xFFFFFFFFFFFFFFFFFFFFFFFFFFFFFFFFFFFFFFFF AND MUL OR SWAP1 SSTORE POP POP POP JUMP JUMPDEST PUSH1 0x0 DUP1 SLOAD SWAP1 PUSH2 0x100 EXP SWAP1 DIV PUSH20 0xFFFFFFFFFFFFFFFFFFFFFFFFFFFFFFFFFFFFFFFF AND PUSH20 0xFFFFFFFFFFFFFFFFFFFFFFFFFFFFFFFFFFFFFFFF AND CALLER PUSH20 0xFFFFFFFFFFFFFFFFFFFFFFFFFFFFFFFFFFFFFFFF AND EQ PUSH2 0x4082 JUMPI PUSH1 0x0 DUP1 REVERT JUMPDEST DUP1 PUSH1 0x1 PUSH1 0x0 PUSH2 0x100 EXP DUP2 SLOAD DUP2 PUSH20 0xFFFFFFFFFFFFFFFFFFFFFFFFFFFFFFFFFFFFFFFF MUL NOT AND SWAP1 DUP4 PUSH20 0xFFFFFFFFFFFFFFFFFFFFFFFFFFFFFFFFFFFFFFFF AND MUL OR SWAP1 SSTORE POP POP JUMP JUMPDEST PUSH1 0x0 PUSH1 0x1 ISZERO ISZERO PUSH1 0x26 PUSH1 0x0 CALLER PUSH20 0xFFFFFFFFFFFFFFFFFFFFFFFFFFFFFFFFFFFFFFFF AND PUSH20 0xFFFFFFFFFFFFFFFFFFFFFFFFFFFFFFFFFFFFFFFF AND DUP2 MSTORE PUSH1 0x20 ADD SWAP1 DUP2 MSTORE PUSH1 0x20 ADD PUSH1 0x0 KECCAK256 PUSH1 0x0 ADD PUSH1 0x0 SWAP1 SLOAD SWAP1 PUSH2 0x100 EXP SWAP1 DIV PUSH1 0xFF AND ISZERO ISZERO EQ PUSH2 0x4128 JUMPI PUSH1 0x0 DUP1 REVERT JUMPDEST PUSH1 0x1 ISZERO ISZERO PUSH1 0x24 PUSH1 0x0 SWAP1 SLOAD SWAP1 PUSH2 0x100 EXP SWAP1 DIV PUSH1 0xFF AND ISZERO ISZERO EQ ISZERO PUSH2 0x4149 JUMPI PUSH1 0x0 DUP1 REVERT JUMPDEST PUSH2 0x4151 PUSH2 0x43C8 JUMP JUMPDEST PUSH2 0x415A CALLER PUSH2 0x447E JUMP JUMPDEST PUSH1 0x0 PUSH1 0x15 PUSH1 0x0 SWAP1 SLOAD SWAP1 PUSH2 0x100 EXP SWAP1 DIV PUSH20 0xFFFFFFFFFFFFFFFFFFFFFFFFFFFFFFFFFFFFFFFF AND PUSH20 0xFFFFFFFFFFFFFFFFFFFFFFFFFFFFFFFFFFFFFFFF AND PUSH4 0xA9059CBB CALLER PUSH1 0x26 PUSH1 0x0 CALLER PUSH20 0xFFFFFFFFFFFFFFFFFFFFFFFFFFFFFFFFFFFFFFFF AND PUSH20 0xFFFFFFFFFFFFFFFFFFFFFFFFFFFFFFFFFFFFFFFF AND DUP2 MSTORE PUSH1 0x20 ADD SWAP1 DUP2 MSTORE PUSH1 0x20 ADD PUSH1 0x0 KECCAK256 PUSH1 0x3 ADD DUP7 PUSH1 0x8 DUP2 LT PUSH2 0x41E8 JUMPI INVALID JUMPDEST ADD SLOAD PUSH1 0x40 MLOAD DUP4 PUSH4 0xFFFFFFFF AND PUSH1 0xE0 SHL DUP2 MSTORE PUSH1 0x4 ADD DUP1 DUP4 PUSH20 0xFFFFFFFFFFFFFFFFFFFFFFFFFFFFFFFFFFFFFFFF AND DUP2 MSTORE PUSH1 0x20 ADD DUP3 DUP2 MSTORE PUSH1 0x20 ADD SWAP3 POP POP POP PUSH1 0x20 PUSH1 0x40 MLOAD DUP1 DUP4 SUB DUP2 PUSH1 0x0 DUP8 DUP1 EXTCODESIZE ISZERO DUP1 ISZERO PUSH2 0x423D JUMPI PUSH1 0x0 DUP1 REVERT JUMPDEST POP GAS CALL ISZERO DUP1 ISZERO PUSH2 0x4251 JUMPI RETURNDATASIZE PUSH1 0x0 DUP1 RETURNDATACOPY RETURNDATASIZE PUSH1 0x0 REVERT JUMPDEST POP POP POP POP PUSH1 0x40 MLOAD RETURNDATASIZE PUSH1 0x20 DUP2 LT ISZERO PUSH2 0x4267 JUMPI PUSH1 0x0 DUP1 REVERT JUMPDEST DUP2 ADD SWAP1 DUP1 DUP1 MLOAD SWAP1 PUSH1 0x20 ADD SWAP1 SWAP3 SWAP2 SWAP1 POP POP POP SWAP1 POP PUSH1 0x0 ISZERO ISZERO DUP2 ISZERO ISZERO EQ ISZERO PUSH2 0x428C JUMPI PUSH1 0x0 DUP1 REVERT JUMPDEST CALLER PUSH20 0xFFFFFFFFFFFFFFFFFFFFFFFFFFFFFFFFFFFFFFFF AND PUSH32 0x15AFCCB1AD771A1825D2B2746F7CC02A82C7D0B3FAB4BE68B06A256B34A38645 DUP5 PUSH1 0x26 PUSH1 0x0 CALLER PUSH20 0xFFFFFFFFFFFFFFFFFFFFFFFFFFFFFFFFFFFFFFFF AND PUSH20 0xFFFFFFFFFFFFFFFFFFFFFFFFFFFFFFFFFFFFFFFF AND DUP2 MSTORE PUSH1 0x20 ADD SWAP1 DUP2 MSTORE PUSH1 0x20 ADD PUSH1 0x0 KECCAK256 PUSH1 0x3 ADD DUP7 PUSH1 0x8 DUP2 LT PUSH2 0x4312 JUMPI INVALID JUMPDEST ADD SLOAD PUSH1 0x40 MLOAD DUP1 DUP4 DUP2 MSTORE PUSH1 0x20 ADD DUP3 DUP2 MSTORE PUSH1 0x20 ADD SWAP3 POP POP POP PUSH1 0x40 MLOAD DUP1 SWAP2 SUB SWAP1 LOG2 PUSH1 0x0 PUSH1 0x26 PUSH1 0x0 CALLER PUSH20 0xFFFFFFFFFFFFFFFFFFFFFFFFFFFFFFFFFFFFFFFF AND PUSH20 0xFFFFFFFFFFFFFFFFFFFFFFFFFFFFFFFFFFFFFFFF AND DUP2 MSTORE PUSH1 0x20 ADD SWAP1 DUP2 MSTORE PUSH1 0x20 ADD PUSH1 0x0 KECCAK256 PUSH1 0x3 ADD DUP5 PUSH1 0x8 DUP2 LT PUSH2 0x437F JUMPI INVALID JUMPDEST ADD DUP2 SWAP1 SSTORE POP PUSH1 0x1 SWAP2 POP POP SWAP2 SWAP1 POP JUMP JUMPDEST PUSH1 0x1A SLOAD DUP2 JUMP JUMPDEST PUSH1 0x0 DUP3 DUP3 GT ISZERO PUSH2 0x43A3 JUMPI PUSH1 0x0 DUP1 REVERT JUMPDEST DUP2 DUP4 SUB SWAP1 POP SWAP3 SWAP2 POP POP JUMP JUMPDEST PUSH1 0x0 DUP2 DUP4 ADD SWAP1 POP DUP3 DUP2 LT ISZERO PUSH2 0x43C2 JUMPI PUSH1 0x0 DUP1 REVERT JUMPDEST SWAP3 SWAP2 POP POP JUMP JUMPDEST PUSH1 0x0 NUMBER SWAP1 POP PUSH1 0x17 SLOAD DUP2 GT ISZERO PUSH2 0x43DD JUMPI PUSH1 0x17 SLOAD SWAP1 POP JUMPDEST PUSH1 0x16 SLOAD DUP2 LT ISZERO PUSH2 0x43ED JUMPI PUSH1 0x16 SLOAD SWAP1 POP JUMPDEST PUSH1 0x0 PUSH1 0x1A SLOAD DUP3 SUB SWAP1 POP PUSH1 0x0 DUP2 EQ ISZERO PUSH2 0x4404 JUMPI PUSH2 0x4473 JUMP JUMPDEST PUSH1 0x0 JUMPDEST PUSH1 0x8 DUP2 LT ISZERO PUSH2 0x4471 JUMPI PUSH1 0x0 PUSH1 0x23 SLOAD SWAP1 POP PUSH1 0x0 PUSH1 0x18 SLOAD SWAP1 POP DUP1 DUP3 DUP2 PUSH2 0x4427 JUMPI INVALID JUMPDEST DIV SWAP2 POP PUSH1 0x2 DUP4 PUSH1 0x8 DUP2 LT PUSH2 0x4437 JUMPI INVALID JUMPDEST ADD SLOAD DUP5 DUP4 MUL MUL SWAP2 POP DUP2 PUSH1 0x1B DUP5 PUSH1 0x8 DUP2 LT PUSH2 0x444D JUMPI INVALID JUMPDEST ADD SLOAD ADD PUSH1 0x1B DUP5 PUSH1 0x8 DUP2 LT PUSH2 0x445D JUMPI INVALID JUMPDEST ADD DUP2 SWAP1 SSTORE POP POP POP DUP1 DUP1 PUSH1 0x1 ADD SWAP2 POP POP PUSH2 0x4407 JUMP JUMPDEST POP JUMPDEST DUP2 PUSH1 0x1A DUP2 SWAP1 SSTORE POP POP POP JUMP JUMPDEST PUSH1 0x0 ISZERO ISZERO PUSH1 0x26 PUSH1 0x0 DUP4 PUSH20 0xFFFFFFFFFFFFFFFFFFFFFFFFFFFFFFFFFFFFFFFF AND PUSH20 0xFFFFFFFFFFFFFFFFFFFFFFFFFFFFFFFFFFFFFFFF AND DUP2 MSTORE PUSH1 0x20 ADD SWAP1 DUP2 MSTORE PUSH1 0x20 ADD PUSH1 0x0 KECCAK256 PUSH1 0x0 ADD PUSH1 0x0 SWAP1 SLOAD SWAP1 PUSH2 0x100 EXP SWAP1 DIV PUSH1 0xFF AND ISZERO ISZERO EQ ISZERO PUSH2 0x44DF JUMPI PUSH2 0x49E9 JUMP JUMPDEST PUSH1 0x0 NUMBER SWAP1 POP PUSH1 0x17 SLOAD DUP2 GT ISZERO PUSH2 0x44F4 JUMPI PUSH1 0x17 SLOAD SWAP1 POP JUMPDEST DUP2 PUSH1 0x26 PUSH1 0x0 DUP5 PUSH20 0xFFFFFFFFFFFFFFFFFFFFFFFFFFFFFFFFFFFFFFFF AND PUSH20 0xFFFFFFFFFFFFFFFFFFFFFFFFFFFFFFFFFFFFFFFF AND DUP2 MSTORE PUSH1 0x20 ADD SWAP1 DUP2 MSTORE PUSH1 0x20 ADD PUSH1 0x0 KECCAK256 PUSH1 0x0 ADD PUSH1 0x1 PUSH2 0x100 EXP DUP2 SLOAD DUP2 PUSH20 0xFFFFFFFFFFFFFFFFFFFFFFFFFFFFFFFFFFFFFFFF MUL NOT AND SWAP1 DUP4 PUSH20 0xFFFFFFFFFFFFFFFFFFFFFFFFFFFFFFFFFFFFFFFF AND MUL OR SWAP1 SSTORE POP PUSH1 0x16 SLOAD PUSH1 0x26 PUSH1 0x0 DUP5 PUSH20 0xFFFFFFFFFFFFFFFFFFFFFFFFFFFFFFFFFFFFFFFF AND PUSH20 0xFFFFFFFFFFFFFFFFFFFFFFFFFFFFFFFFFFFFFFFF AND DUP2 MSTORE PUSH1 0x20 ADD SWAP1 DUP2 MSTORE PUSH1 0x20 ADD PUSH1 0x0 KECCAK256 PUSH1 0xB ADD SLOAD GT PUSH2 0x4608 JUMPI DUP1 PUSH1 0x26 PUSH1 0x0 DUP5 PUSH20 0xFFFFFFFFFFFFFFFFFFFFFFFFFFFFFFFFFFFFFFFF AND PUSH20 0xFFFFFFFFFFFFFFFFFFFFFFFFFFFFFFFFFFFFFFFF AND DUP2 MSTORE PUSH1 0x20 ADD SWAP1 DUP2 MSTORE PUSH1 0x20 ADD PUSH1 0x0 KECCAK256 PUSH1 0xB ADD DUP2 SWAP1 SSTORE POP JUMPDEST DUP1 PUSH1 0x26 PUSH1 0x0 DUP5 PUSH20 0xFFFFFFFFFFFFFFFFFFFFFFFFFFFFFFFFFFFFFFFF AND PUSH20 0xFFFFFFFFFFFFFFFFFFFFFFFFFFFFFFFFFFFFFFFF AND DUP2 MSTORE PUSH1 0x20 ADD SWAP1 DUP2 MSTORE PUSH1 0x20 ADD PUSH1 0x0 KECCAK256 PUSH1 0xB ADD SLOAD GT ISZERO PUSH2 0x469A JUMPI DUP1 PUSH1 0x26 PUSH1 0x0 DUP5 PUSH20 0xFFFFFFFFFFFFFFFFFFFFFFFFFFFFFFFFFFFFFFFF AND PUSH20 0xFFFFFFFFFFFFFFFFFFFFFFFFFFFFFFFFFFFFFFFF AND DUP2 MSTORE PUSH1 0x20 ADD SWAP1 DUP2 MSTORE PUSH1 0x20 ADD PUSH1 0x0 KECCAK256 PUSH1 0xB ADD DUP2 SWAP1 SSTORE POP JUMPDEST PUSH1 0x17 SLOAD PUSH1 0x26 PUSH1 0x0 DUP5 PUSH20 0xFFFFFFFFFFFFFFFFFFFFFFFFFFFFFFFFFFFFFFFF AND PUSH20 0xFFFFFFFFFFFFFFFFFFFFFFFFFFFFFFFFFFFFFFFF AND DUP2 MSTORE PUSH1 0x20 ADD SWAP1 DUP2 MSTORE PUSH1 0x20 ADD PUSH1 0x0 KECCAK256 PUSH1 0xB ADD SLOAD LT PUSH2 0x472F JUMPI PUSH1 0x17 SLOAD PUSH1 0x26 PUSH1 0x0 DUP5 PUSH20 0xFFFFFFFFFFFFFFFFFFFFFFFFFFFFFFFFFFFFFFFF AND PUSH20 0xFFFFFFFFFFFFFFFFFFFFFFFFFFFFFFFFFFFFFFFF AND DUP2 MSTORE PUSH1 0x20 ADD SWAP1 DUP2 MSTORE PUSH1 0x20 ADD PUSH1 0x0 KECCAK256 PUSH1 0xB ADD DUP2 SWAP1 SSTORE POP JUMPDEST PUSH1 0x0 DUP1 JUMPDEST PUSH1 0x8 DUP2 LT ISZERO PUSH2 0x494B JUMPI PUSH1 0x0 PUSH1 0x4 SWAP1 POP PUSH1 0x0 PUSH2 0x47B3 PUSH1 0x26 PUSH1 0x0 DUP9 PUSH20 0xFFFFFFFFFFFFFFFFFFFFFFFFFFFFFFFFFFFFFFFF AND PUSH20 0xFFFFFFFFFFFFFFFFFFFFFFFFFFFFFFFFFFFFFFFF AND DUP2 MSTORE PUSH1 0x20 ADD SWAP1 DUP2 MSTORE PUSH1 0x20 ADD PUSH1 0x0 KECCAK256 PUSH1 0xD ADD DUP5 PUSH1 0x8 DUP2 LT PUSH2 0x4794 JUMPI INVALID JUMPDEST ADD SLOAD PUSH1 0x1B DUP6 PUSH1 0x8 DUP2 LT PUSH2 0x47A3 JUMPI INVALID JUMPDEST ADD SLOAD PUSH2 0x4394 SWAP1 SWAP2 SWAP1 PUSH4 0xFFFFFFFF AND JUMP JUMPDEST SWAP1 POP DUP2 DUP2 DUP2 PUSH2 0x47BE JUMPI INVALID JUMPDEST DIV SWAP1 POP DUP1 PUSH1 0x26 PUSH1 0x0 DUP9 PUSH20 0xFFFFFFFFFFFFFFFFFFFFFFFFFFFFFFFFFFFFFFFF AND PUSH20 0xFFFFFFFFFFFFFFFFFFFFFFFFFFFFFFFFFFFFFFFF AND DUP2 MSTORE PUSH1 0x20 ADD SWAP1 DUP2 MSTORE PUSH1 0x20 ADD PUSH1 0x0 KECCAK256 PUSH1 0x15 ADD DUP5 PUSH1 0x8 DUP2 LT PUSH2 0x480F JUMPI INVALID JUMPDEST ADD SLOAD PUSH1 0x26 PUSH1 0x0 DUP10 PUSH20 0xFFFFFFFFFFFFFFFFFFFFFFFFFFFFFFFFFFFFFFFF AND PUSH20 0xFFFFFFFFFFFFFFFFFFFFFFFFFFFFFFFFFFFFFFFF AND DUP2 MSTORE PUSH1 0x20 ADD SWAP1 DUP2 MSTORE PUSH1 0x20 ADD PUSH1 0x0 KECCAK256 PUSH1 0x1D ADD DUP6 PUSH1 0x8 DUP2 LT PUSH2 0x485E JUMPI INVALID JUMPDEST ADD SLOAD ADD MUL SWAP1 POP PUSH1 0x1 DUP2 DUP2 PUSH2 0x486E JUMPI INVALID JUMPDEST DIV SWAP1 POP PUSH1 0x23 SLOAD DUP2 DUP2 PUSH2 0x487C JUMPI INVALID JUMPDEST DIV SWAP1 POP DUP2 DUP2 MUL SWAP1 POP PUSH2 0x48E5 DUP2 PUSH1 0x26 PUSH1 0x0 DUP10 PUSH20 0xFFFFFFFFFFFFFFFFFFFFFFFFFFFFFFFFFFFFFFFF AND PUSH20 0xFFFFFFFFFFFFFFFFFFFFFFFFFFFFFFFFFFFFFFFF AND DUP2 MSTORE PUSH1 0x20 ADD SWAP1 DUP2 MSTORE PUSH1 0x20 ADD PUSH1 0x0 KECCAK256 PUSH1 0x3 ADD DUP6 PUSH1 0x8 DUP2 LT PUSH2 0x48D5 JUMPI INVALID JUMPDEST ADD SLOAD PUSH2 0x43AE SWAP1 SWAP2 SWAP1 PUSH4 0xFFFFFFFF AND JUMP JUMPDEST PUSH1 0x26 PUSH1 0x0 DUP9 PUSH20 0xFFFFFFFFFFFFFFFFFFFFFFFFFFFFFFFFFFFFFFFF AND PUSH20 0xFFFFFFFFFFFFFFFFFFFFFFFFFFFFFFFFFFFFFFFF AND DUP2 MSTORE PUSH1 0x20 ADD SWAP1 DUP2 MSTORE PUSH1 0x20 ADD PUSH1 0x0 KECCAK256 PUSH1 0x3 ADD DUP5 PUSH1 0x8 DUP2 LT PUSH2 0x4932 JUMPI INVALID JUMPDEST ADD DUP2 SWAP1 SSTORE POP DUP1 DUP5 ADD SWAP4 POP POP POP DUP1 DUP1 PUSH1 0x1 ADD SWAP2 POP POP PUSH2 0x4733 JUMP JUMPDEST POP DUP2 PUSH1 0x26 PUSH1 0x0 DUP6 PUSH20 0xFFFFFFFFFFFFFFFFFFFFFFFFFFFFFFFFFFFFFFFF AND PUSH20 0xFFFFFFFFFFFFFFFFFFFFFFFFFFFFFFFFFFFFFFFF AND DUP2 MSTORE PUSH1 0x20 ADD SWAP1 DUP2 MSTORE PUSH1 0x20 ADD PUSH1 0x0 KECCAK256 PUSH1 0xB ADD DUP2 SWAP1 SSTORE POP PUSH1 0x1B PUSH1 0x26 PUSH1 0x0 DUP6 PUSH20 0xFFFFFFFFFFFFFFFFFFFFFFFFFFFFFFFFFFFFFFFF AND PUSH20 0xFFFFFFFFFFFFFFFFFFFFFFFFFFFFFFFFFFFFFFFF AND DUP2 MSTORE PUSH1 0x20 ADD SWAP1 DUP2 MSTORE PUSH1 0x20 ADD PUSH1 0x0 KECCAK256 PUSH1 0xD ADD SWAP1 PUSH1 0x8 PUSH2 0x49E5 SWAP3 SWAP2 SWAP1 PUSH2 0x4A7B JUMP JUMPDEST POP POP POP JUMPDEST POP JUMP JUMPDEST PUSH1 0x0 PUSH1 0x26 PUSH1 0x0 DUP4 PUSH20 0xFFFFFFFFFFFFFFFFFFFFFFFFFFFFFFFFFFFFFFFF AND PUSH20 0xFFFFFFFFFFFFFFFFFFFFFFFFFFFFFFFFFFFFFFFF AND DUP2 MSTORE PUSH1 0x20 ADD SWAP1 DUP2 MSTORE PUSH1 0x20 ADD PUSH1 0x0 KECCAK256 PUSH1 0x1 ADD PUSH1 0x0 SWAP1 SLOAD SWAP1 PUSH2 0x100 EXP SWAP1 DIV PUSH20 0xFFFFFFFFFFFFFFFFFFFFFFFFFFFFFFFFFFFFFFFF AND SWAP1 POP SWAP2 SWAP1 POP JUMP JUMPDEST PUSH1 0x40 MLOAD DUP1 PUSH2 0x100 ADD PUSH1 0x40 MSTORE DUP1 PUSH1 0x8 SWAP1 PUSH1 0x20 DUP3 MUL DUP1 CALLDATASIZE DUP4 CALLDATACOPY DUP1 DUP3 ADD SWAP2 POP POP SWAP1 POP POP SWAP1 JUMP JUMPDEST DUP3 PUSH1 0x8 DUP2 ADD SWAP3 DUP3 ISZERO PUSH2 0x4AA7 JUMPI SWAP2 DUP3 ADD JUMPDEST DUP3 DUP2 GT ISZERO PUSH2 0x4AA6 JUMPI DUP3 SLOAD DUP3 SSTORE SWAP2 PUSH1 0x1 ADD SWAP2 SWAP1 PUSH1 0x1 ADD SWAP1 PUSH2 0x4A8B JUMP JUMPDEST JUMPDEST POP SWAP1 POP PUSH2 0x4AB4 SWAP2 SWAP1 PUSH2 0x4AB8 JUMP JUMPDEST POP SWAP1 JUMP JUMPDEST JUMPDEST DUP1 DUP3 GT ISZERO PUSH2 0x4AD1 JUMPI PUSH1 0x0 DUP2 PUSH1 0x0 SWAP1 SSTORE POP PUSH1 0x1 ADD PUSH2 0x4AB9 JUMP JUMPDEST POP SWAP1 JUMP INVALID LOG2 PUSH5 0x6970667358 0x22 SLT KECCAK256 SDIV 0xBB SELFBALANCE 0x27 0xCE PUSH4 0xF7D03D4A SIGNEXTEND CALL 0x22 ORIGIN 0x48 DUP4 0x1F 0xE6 0xD5 PUSH17 0x2ECAA6E093992C1573EC818064736F6C63 NUMBER STOP MOD 0xC STOP CALLER "
				},
				"gasEstimates": {
					"creation": {
						"codeDepositCost": "3842200",
						"executionCost": "infinite",
						"totalCost": "infinite"
					},
					"external": {
						"": "242",
						"Call_Function(address,uint256,bytes)": "infinite",
						"Do_Game_Update()": "infinite",
						"Do_Receiving(uint256)": "infinite",
						"Do_Registering(address)": "infinite",
						"Do_Set_Referer(address,address)": "22190",
						"Do_Set_Referers(address[],address[])": "infinite",
						"Do_Stacking(uint256,uint256)": "infinite",
						"Do_Unstacking(uint256,uint256)": "infinite",
						"Do_Update()": "infinite",
						"Do_Update_User(address)": "infinite",
						"Get_Game_Info()": "2771",
						"Get_User_Block_of_Last_Stack(address)": "infinite",
						"Get_User_Contributions(address)": "infinite",
						"Get_User_Info(address)": "5210",
						"Get_User_Stackings(address)": "infinite",
						"Pause()": "41980",
						"Resume()": "42026",
						"Set_Block_Weight(uint256,uint256)": "infinite",
						"Set_Period_Span(uint256,uint256)": "21258",
						"Set_Punishment_Span(uint256)": "21153",
						"Set_Token_Address(address,address)": "42983",
						"Set_Updater_Address(address)": "22101",
						"Start_At(uint256)": "21313",
						"Stop_At(uint256)": "21225",
						"Take_Token(address,uint256)": "infinite",
						"ViewReceiving(address)": "infinite",
						"acceptOwnership()": "46931",
						"m_BlockNum_Of_Last_Update()": "1159",
						"m_Block_Span_of_Stack_Options(uint256)": "1197",
						"m_Block_weight_of_Stack_Options(uint256)": "1175",
						"m_Block_weight_of_Total_Stack_Option()": "1116",
						"m_FIX_POINT()": "1073",
						"m_Stacking_Address()": "1093",
						"m_Stacking_Block_Number_Start()": "1050",
						"m_Stacking_Block_Number_Stop()": "1117",
						"m_Sum_Of_Weighted_Stacking_Reciprocal_e128(uint256)": "1218",
						"m_Token_Address()": "1116",
						"m_Total_Stacking()": "1051",
						"m_Updater_Address()": "1092",
						"m_User_Count()": "1071",
						"m_User_Map(address)": "5653",
						"newOwner()": "1158",
						"owner()": "1178",
						"transferOwnership(address)": "22078"
					},
					"internal": {
						"GetRefererAddress(address)": "966",
						"TakeFee10(uint256)": "infinite",
						"Update_Global_Data()": "infinite",
						"Update_User(address)": "infinite"
					}
				},
				"methodIdentifiers": {
					"Call_Function(address,uint256,bytes)": "a7d16f30",
					"Do_Game_Update()": "cc4c9ba4",
					"Do_Receiving(uint256)": "fa25d72f",
					"Do_Registering(address)": "924b9f59",
					"Do_Set_Referer(address,address)": "f2a060b1",
					"Do_Set_Referers(address[],address[])": "1d14e244",
					"Do_Stacking(uint256,uint256)": "9f48af97",
					"Do_Unstacking(uint256,uint256)": "69bd1cf4",
					"Do_Update()": "10258de0",
					"Do_Update_User(address)": "867e5023",
					"Get_Game_Info()": "4fd6159a",
					"Get_User_Block_of_Last_Stack(address)": "98e34524",
					"Get_User_Contributions(address)": "836912ce",
					"Get_User_Info(address)": "8ce1842a",
					"Get_User_Stackings(address)": "229efe2a",
					"Pause()": "6985a022",
					"Resume()": "490d6d11",
					"Set_Block_Weight(uint256,uint256)": "cbf48666",
					"Set_Period_Span(uint256,uint256)": "0815141c",
					"Set_Punishment_Span(uint256)": "e20a270e",
					"Set_Token_Address(address,address)": "0ff8b333",
					"Set_Updater_Address(address)": "da906fed",
					"Start_At(uint256)": "7d6e1f43",
					"Stop_At(uint256)": "60b1da5b",
					"Take_Token(address,uint256)": "4f3dab0e",
					"ViewReceiving(address)": "003146fe",
					"acceptOwnership()": "79ba5097",
					"m_BlockNum_Of_Last_Update()": "fc352743",
					"m_Block_Span_of_Stack_Options(uint256)": "4f9a6815",
					"m_Block_weight_of_Stack_Options(uint256)": "4f57e1e3",
					"m_Block_weight_of_Total_Stack_Option()": "9bfa7d64",
					"m_FIX_POINT()": "1d1225bb",
					"m_Stacking_Address()": "1c41499b",
					"m_Stacking_Block_Number_Start()": "ada21d81",
					"m_Stacking_Block_Number_Stop()": "52f779e8",
					"m_Sum_Of_Weighted_Stacking_Reciprocal_e128(uint256)": "9a64d5cb",
					"m_Token_Address()": "062d93cc",
					"m_Total_Stacking()": "8231eb97",
					"m_Updater_Address()": "5d857051",
					"m_User_Count()": "ed896820",
					"m_User_Map(address)": "54fd7a2c",
					"newOwner()": "d4ee1d90",
					"owner()": "8da5cb5b",
					"transferOwnership(address)": "f2fde38b"
				}
			},
			"storageLayout": {
				"storage": [
					{
						"astId": 197,
						"contract": "contracts/MFI_HECO_PATCH.sol:MFS_Stacking",
						"label": "owner",
						"offset": 0,
						"slot": "0",
						"type": "t_address"
					},
					{
						"astId": 199,
						"contract": "contracts/MFI_HECO_PATCH.sol:MFS_Stacking",
						"label": "newOwner",
						"offset": 0,
						"slot": "1",
						"type": "t_address"
					},
					{
						"astId": 334,
						"contract": "contracts/MFI_HECO_PATCH.sol:MFS_Stacking",
						"label": "m_Block_weight_of_Stack_Options",
						"offset": 0,
						"slot": "2",
						"type": "t_array(t_uint256)8_storage"
					},
					{
						"astId": 336,
						"contract": "contracts/MFI_HECO_PATCH.sol:MFS_Stacking",
						"label": "m_Block_weight_of_Total_Stack_Option",
						"offset": 0,
						"slot": "10",
						"type": "t_uint256"
					},
					{
						"astId": 340,
						"contract": "contracts/MFI_HECO_PATCH.sol:MFS_Stacking",
						"label": "m_Block_Span_of_Stack_Options",
						"offset": 0,
						"slot": "11",
						"type": "t_array(t_uint256)8_storage"
					},
					{
						"astId": 345,
						"contract": "contracts/MFI_HECO_PATCH.sol:MFS_Stacking",
						"label": "m_Updater_Address",
						"offset": 0,
						"slot": "19",
						"type": "t_address"
					},
					{
						"astId": 347,
						"contract": "contracts/MFI_HECO_PATCH.sol:MFS_Stacking",
						"label": "m_Stacking_Address",
						"offset": 0,
						"slot": "20",
						"type": "t_address"
					},
					{
						"astId": 349,
						"contract": "contracts/MFI_HECO_PATCH.sol:MFS_Stacking",
						"label": "m_Token_Address",
						"offset": 0,
						"slot": "21",
						"type": "t_address"
					},
					{
						"astId": 351,
						"contract": "contracts/MFI_HECO_PATCH.sol:MFS_Stacking",
						"label": "m_Stacking_Block_Number_Start",
						"offset": 0,
						"slot": "22",
						"type": "t_uint256"
					},
					{
						"astId": 353,
						"contract": "contracts/MFI_HECO_PATCH.sol:MFS_Stacking",
						"label": "m_Stacking_Block_Number_Stop",
						"offset": 0,
						"slot": "23",
						"type": "t_uint256"
					},
					{
						"astId": 355,
						"contract": "contracts/MFI_HECO_PATCH.sol:MFS_Stacking",
						"label": "m_Total_Stacking",
						"offset": 0,
						"slot": "24",
						"type": "t_uint256"
					},
					{
						"astId": 357,
						"contract": "contracts/MFI_HECO_PATCH.sol:MFS_Stacking",
						"label": "m_User_Count",
						"offset": 0,
						"slot": "25",
						"type": "t_uint256"
					},
					{
						"astId": 360,
						"contract": "contracts/MFI_HECO_PATCH.sol:MFS_Stacking",
						"label": "m_BlockNum_Of_Last_Update",
						"offset": 0,
						"slot": "26",
						"type": "t_uint256"
					},
					{
						"astId": 364,
						"contract": "contracts/MFI_HECO_PATCH.sol:MFS_Stacking",
						"label": "m_Sum_Of_Weighted_Stacking_Reciprocal_e128",
						"offset": 0,
						"slot": "27",
						"type": "t_array(t_uint256)8_storage"
					},
					{
						"astId": 372,
						"contract": "contracts/MFI_HECO_PATCH.sol:MFS_Stacking",
						"label": "m_FIX_POINT",
						"offset": 0,
						"slot": "35",
						"type": "t_uint256"
					},
					{
						"astId": 374,
						"contract": "contracts/MFI_HECO_PATCH.sol:MFS_Stacking",
						"label": "m_Game_Pause",
						"offset": 0,
						"slot": "36",
						"type": "t_bool"
					},
					{
						"astId": 376,
						"contract": "contracts/MFI_HECO_PATCH.sol:MFS_Stacking",
						"label": "m_Punishment_Span",
						"offset": 0,
						"slot": "37",
						"type": "t_uint256"
					},
					{
						"astId": 422,
						"contract": "contracts/MFI_HECO_PATCH.sol:MFS_Stacking",
						"label": "m_User_Map",
						"offset": 0,
						"slot": "38",
						"type": "t_mapping(t_address,t_struct(User)330_storage)"
					}
				],
				"types": {
					"t_address": {
						"encoding": "inplace",
						"label": "address",
						"numberOfBytes": "20"
					},
					"t_array(t_uint256)8_storage": {
						"base": "t_uint256",
						"encoding": "inplace",
						"label": "uint256[8]",
						"numberOfBytes": "256"
					},
					"t_bool": {
						"encoding": "inplace",
						"label": "bool",
						"numberOfBytes": "1"
					},
					"t_mapping(t_address,t_struct(User)330_storage)": {
						"encoding": "mapping",
						"key": "t_address",
						"label": "mapping(address => struct MFS_Stacking.User)",
						"numberOfBytes": "32",
						"value": "t_struct(User)330_storage"
					},
					"t_struct(User)330_storage": {
						"encoding": "inplace",
						"label": "struct MFS_Stacking.User",
						"members": [
							{
								"astId": 299,
								"contract": "contracts/MFI_HECO_PATCH.sol:MFS_Stacking",
								"label": "Registered",
								"offset": 0,
								"slot": "0",
								"type": "t_bool"
							},
							{
								"astId": 301,
								"contract": "contracts/MFI_HECO_PATCH.sol:MFS_Stacking",
								"label": "User_Address",
								"offset": 1,
								"slot": "0",
								"type": "t_address"
							},
							{
								"astId": 303,
								"contract": "contracts/MFI_HECO_PATCH.sol:MFS_Stacking",
								"label": "Referer_Address",
								"offset": 0,
								"slot": "1",
								"type": "t_address"
							},
							{
								"astId": 305,
								"contract": "contracts/MFI_HECO_PATCH.sol:MFS_Stacking",
								"label": "Stacking_Amount",
								"offset": 0,
								"slot": "2",
								"type": "t_uint256"
							},
							{
								"astId": 309,
								"contract": "contracts/MFI_HECO_PATCH.sol:MFS_Stacking",
								"label": "Token_Amounts",
								"offset": 0,
								"slot": "3",
								"type": "t_array(t_uint256)8_storage"
							},
							{
								"astId": 311,
								"contract": "contracts/MFI_HECO_PATCH.sol:MFS_Stacking",
								"label": "Stacking_Block_Number_Start",
								"offset": 0,
								"slot": "11",
								"type": "t_uint256"
							},
							{
								"astId": 313,
								"contract": "contracts/MFI_HECO_PATCH.sol:MFS_Stacking",
								"label": "Stacking_Operation_Block_Stamp",
								"offset": 0,
								"slot": "12",
								"type": "t_uint256"
							},
							{
								"astId": 317,
								"contract": "contracts/MFI_HECO_PATCH.sol:MFS_Stacking",
								"label": "Last_Updated_Sum_Of_Weighted_Stacking_Reciprocal_e128",
								"offset": 0,
								"slot": "13",
								"type": "t_array(t_uint256)8_storage"
							},
							{
								"astId": 321,
								"contract": "contracts/MFI_HECO_PATCH.sol:MFS_Stacking",
								"label": "Contributed_Amounts",
								"offset": 0,
								"slot": "21",
								"type": "t_array(t_uint256)8_storage"
							},
							{
								"astId": 325,
								"contract": "contracts/MFI_HECO_PATCH.sol:MFS_Stacking",
								"label": "Stacking_Amounts",
								"offset": 0,
								"slot": "29",
								"type": "t_array(t_uint256)8_storage"
							},
							{
								"astId": 329,
								"contract": "contracts/MFI_HECO_PATCH.sol:MFS_Stacking",
								"label": "Block_of_Last_Stack",
								"offset": 0,
								"slot": "37",
								"type": "t_array(t_uint256)8_storage"
							}
						],
						"numberOfBytes": "1440"
					},
					"t_uint256": {
						"encoding": "inplace",
						"label": "uint256",
						"numberOfBytes": "32"
					}
				}
			},
			"userdoc": {
				"kind": "user",
				"methods": {},
				"version": 1
			}
		}
	}
}