{
	"contracts/16_Overloading.sol": {
		"HelloWeb3": {
			"abi": [
				{
					"inputs": [
						{
							"internalType": "uint256",
							"name": "",
							"type": "uint256"
						}
					],
					"name": "array4",
					"outputs": [
						{
							"internalType": "uint256",
							"name": "",
							"type": "uint256"
						}
					],
					"stateMutability": "view",
					"type": "function"
				},
				{
					"inputs": [],
					"name": "arrayPush",
					"outputs": [
						{
							"internalType": "uint256[3]",
							"name": "",
							"type": "uint256[3]"
						}
					],
					"stateMutability": "nonpayable",
					"type": "function"
				}
			],
			"devdoc": {
				"kind": "dev",
				"methods": {},
				"version": 1
			},
			"evm": {
				"assembly": "    /* \"contracts/16_Overloading.sol\":56:306  contract HelloWeb3 {... */\n  mstore(0x40, 0x80)\n    /* \"contracts/16_Overloading.sol\":120:121  3 */\n  0x03\n    /* \"contracts/16_Overloading.sol\":109:122  new uint[](3) */\n  0xffffffffffffffff\n  dup2\n  gt\n  iszero\n  tag_1\n  jumpi\n  tag_2\n  tag_3\n  jump\t// in\ntag_2:\ntag_1:\n  mload(0x40)\n  swap1\n  dup1\n  dup3\n  mstore\n  dup1\n  0x20\n  mul\n  0x20\n  add\n  dup3\n  add\n  0x40\n  mstore\n  dup1\n  iszero\n  tag_4\n  jumpi\n  dup2\n  0x20\n  add\n  0x20\n  dup3\n  mul\n  dup1\n  calldatasize\n  dup4\n  calldatacopy\n  dup1\n  dup3\n  add\n  swap2\n  pop\n  pop\n  swap1\n  pop\ntag_4:\n  pop\n    /* \"contracts/16_Overloading.sol\":86:122  uint[] public array4 = new uint[](3) */\n  0x00\n  swap1\n  dup1\n  mload\n  swap1\n  0x20\n  add\n  swap1\n  tag_5\n  swap3\n  swap2\n  swap1\n  tag_6\n  jump\t// in\ntag_5:\n  pop\n    /* \"contracts/16_Overloading.sol\":56:306  contract HelloWeb3 {... */\n  callvalue\n  dup1\n  iszero\n  tag_7\n  jumpi\n  0x00\n  dup1\n  revert\ntag_7:\n  pop\n  jump(tag_8)\ntag_6:\n  dup3\n  dup1\n  sload\n  dup3\n  dup3\n  sstore\n  swap1\n  0x00\n  mstore\n  keccak256(0x00, 0x20)\n  swap1\n  dup2\n  add\n  swap3\n  dup3\n  iszero\n  tag_9\n  jumpi\n  swap2\n  0x20\n  mul\n  dup3\n  add\ntag_10:\n  dup3\n  dup2\n  gt\n  iszero\n  tag_11\n  jumpi\n  dup3\n  mload\n  dup3\n  sstore\n  swap2\n  0x20\n  add\n  swap2\n  swap1\n  0x01\n  add\n  swap1\n  jump(tag_10)\ntag_11:\ntag_9:\n  pop\n  swap1\n  pop\n  tag_12\n  swap2\n  swap1\n  tag_13\n  jump\t// in\ntag_12:\n  pop\n  swap1\n  jump\t// out\ntag_13:\ntag_14:\n  dup1\n  dup3\n  gt\n  iszero\n  tag_15\n  jumpi\n  0x00\n  dup2\n  0x00\n  swap1\n  sstore\n  pop\n  0x01\n  add\n  jump(tag_14)\ntag_15:\n  pop\n  swap1\n  jump\t// out\n    /* \"#utility.yul\":7:187   */\ntag_3:\n    /* \"#utility.yul\":55:132   */\n  0x4e487b7100000000000000000000000000000000000000000000000000000000\n    /* \"#utility.yul\":52:53   */\n  0x00\n    /* \"#utility.yul\":45:133   */\n  mstore\n    /* \"#utility.yul\":152:156   */\n  0x41\n    /* \"#utility.yul\":149:150   */\n  0x04\n    /* \"#utility.yul\":142:157   */\n  mstore\n    /* \"#utility.yul\":176:180   */\n  0x24\n    /* \"#utility.yul\":173:174   */\n  0x00\n    /* \"#utility.yul\":166:181   */\n  revert\n    /* \"contracts/16_Overloading.sol\":56:306  contract HelloWeb3 {... */\ntag_8:\n  dataSize(sub_0)\n  dup1\n  dataOffset(sub_0)\n  0x00\n  codecopy\n  0x00\n  return\nstop\n\nsub_0: assembly {\n        /* \"contracts/16_Overloading.sol\":56:306  contract HelloWeb3 {... */\n      mstore(0x40, 0x80)\n      callvalue\n      dup1\n      iszero\n      tag_1\n      jumpi\n      0x00\n      dup1\n      revert\n    tag_1:\n      pop\n      jumpi(tag_2, lt(calldatasize, 0x04))\n      shr(0xe0, calldataload(0x00))\n      dup1\n      0x47f6ac11\n      eq\n      tag_3\n      jumpi\n      dup1\n      0xcbdef3f9\n      eq\n      tag_4\n      jumpi\n    tag_2:\n      0x00\n      dup1\n      revert\n        /* \"contracts/16_Overloading.sol\":128:304  function arrayPush() public returns (uint[3] memory) {... */\n    tag_3:\n      tag_5\n      tag_6\n      jump\t// in\n    tag_5:\n      mload(0x40)\n      tag_7\n      swap2\n      swap1\n      tag_8\n      jump\t// in\n    tag_7:\n      mload(0x40)\n      dup1\n      swap2\n      sub\n      swap1\n      return\n        /* \"contracts/16_Overloading.sol\":86:122  uint[] public array4 = new uint[](3) */\n    tag_4:\n      tag_9\n      0x04\n      dup1\n      calldatasize\n      sub\n      dup2\n      add\n      swap1\n      tag_10\n      swap2\n      swap1\n      tag_11\n      jump\t// in\n    tag_10:\n      tag_12\n      jump\t// in\n    tag_9:\n      mload(0x40)\n      tag_13\n      swap2\n      swap1\n      tag_14\n      jump\t// in\n    tag_13:\n      mload(0x40)\n      dup1\n      swap2\n      sub\n      swap1\n      return\n        /* \"contracts/16_Overloading.sol\":128:304  function arrayPush() public returns (uint[3] memory) {... */\n    tag_6:\n        /* \"contracts/16_Overloading.sol\":165:179  uint[3] memory */\n      tag_15\n      tag_16\n      jump\t// in\n    tag_15:\n        /* \"contracts/16_Overloading.sol\":191:207  uint[2] memory a */\n      0x00\n        /* \"contracts/16_Overloading.sol\":191:222  uint[2] memory a = [uint(1), 2] */\n      mload(0x40)\n      dup1\n      0x40\n      add\n      0x40\n      mstore\n      dup1\n        /* \"contracts/16_Overloading.sol\":216:217  1 */\n      0x01\n        /* \"contracts/16_Overloading.sol\":191:222  uint[2] memory a = [uint(1), 2] */\n      dup2\n      mstore\n      0x20\n      add\n        /* \"contracts/16_Overloading.sol\":220:221  2 */\n      0x02\n        /* \"contracts/16_Overloading.sol\":191:222  uint[2] memory a = [uint(1), 2] */\n      dup2\n      mstore\n      pop\n      swap1\n      pop\n        /* \"contracts/16_Overloading.sol\":243:244  a */\n      dup1\n        /* \"contracts/16_Overloading.sol\":234:240  array4 */\n      0x00\n        /* \"contracts/16_Overloading.sol\":234:244  array4 = a */\n      swap1\n      0x02\n      tag_18\n      swap3\n      swap2\n      swap1\n      tag_19\n      jump\t// in\n    tag_18:\n      pop\n        /* \"contracts/16_Overloading.sol\":181:304  {... */\n      pop\n        /* \"contracts/16_Overloading.sol\":128:304  function arrayPush() public returns (uint[3] memory) {... */\n      swap1\n      jump\t// out\n        /* \"contracts/16_Overloading.sol\":86:122  uint[] public array4 = new uint[](3) */\n    tag_12:\n      0x00\n      dup2\n      dup2\n      sload\n      dup2\n      lt\n      tag_20\n      jumpi\n      0x00\n      dup1\n      revert\n    tag_20:\n      swap1\n      0x00\n      mstore\n      keccak256(0x00, 0x20)\n      add\n      0x00\n      swap2\n      pop\n      swap1\n      pop\n      sload\n      dup2\n      jump\t// out\n    tag_16:\n      mload(0x40)\n      dup1\n      0x60\n      add\n      0x40\n      mstore\n      dup1\n      0x03\n      swap1\n      0x20\n      dup3\n      mul\n      dup1\n      calldatasize\n      dup4\n      calldatacopy\n      dup1\n      dup3\n      add\n      swap2\n      pop\n      pop\n      swap1\n      pop\n      pop\n      swap1\n      jump\t// out\n    tag_19:\n      dup3\n      dup1\n      sload\n      dup3\n      dup3\n      sstore\n      swap1\n      0x00\n      mstore\n      keccak256(0x00, 0x20)\n      swap1\n      dup2\n      add\n      swap3\n      dup3\n      iszero\n      tag_22\n      jumpi\n      swap2\n      0x20\n      mul\n      dup3\n      add\n    tag_23:\n      dup3\n      dup2\n      gt\n      iszero\n      tag_24\n      jumpi\n      dup3\n      mload\n      dup3\n      sstore\n      swap2\n      0x20\n      add\n      swap2\n      swap1\n      0x01\n      add\n      swap1\n      jump(tag_23)\n    tag_24:\n    tag_22:\n      pop\n      swap1\n      pop\n      tag_25\n      swap2\n      swap1\n      tag_26\n      jump\t// in\n    tag_25:\n      pop\n      swap1\n      jump\t// out\n    tag_26:\n    tag_27:\n      dup1\n      dup3\n      gt\n      iszero\n      tag_28\n      jumpi\n      0x00\n      dup2\n      0x00\n      swap1\n      sstore\n      pop\n      0x01\n      add\n      jump(tag_27)\n    tag_28:\n      pop\n      swap1\n      jump\t// out\n        /* \"#utility.yul\":7:146   */\n    tag_30:\n        /* \"#utility.yul\":53:58   */\n      0x00\n        /* \"#utility.yul\":91:97   */\n      dup2\n        /* \"#utility.yul\":78:98   */\n      calldataload\n        /* \"#utility.yul\":69:98   */\n      swap1\n      pop\n        /* \"#utility.yul\":107:140   */\n      tag_32\n        /* \"#utility.yul\":134:139   */\n      dup2\n        /* \"#utility.yul\":107:140   */\n      tag_33\n      jump\t// in\n    tag_32:\n        /* \"#utility.yul\":7:146   */\n      swap3\n      swap2\n      pop\n      pop\n      jump\t// out\n        /* \"#utility.yul\":152:481   */\n    tag_11:\n        /* \"#utility.yul\":211:217   */\n      0x00\n        /* \"#utility.yul\":260:262   */\n      0x20\n        /* \"#utility.yul\":248:257   */\n      dup3\n        /* \"#utility.yul\":239:246   */\n      dup5\n        /* \"#utility.yul\":235:258   */\n      sub\n        /* \"#utility.yul\":231:263   */\n      slt\n        /* \"#utility.yul\":228:347   */\n      iszero\n      tag_35\n      jumpi\n        /* \"#utility.yul\":266:345   */\n      tag_36\n      tag_37\n      jump\t// in\n    tag_36:\n        /* \"#utility.yul\":228:347   */\n    tag_35:\n        /* \"#utility.yul\":386:387   */\n      0x00\n        /* \"#utility.yul\":411:464   */\n      tag_38\n        /* \"#utility.yul\":456:463   */\n      dup5\n        /* \"#utility.yul\":447:453   */\n      dup3\n        /* \"#utility.yul\":436:445   */\n      dup6\n        /* \"#utility.yul\":432:454   */\n      add\n        /* \"#utility.yul\":411:464   */\n      tag_30\n      jump\t// in\n    tag_38:\n        /* \"#utility.yul\":401:464   */\n      swap2\n      pop\n        /* \"#utility.yul\":357:474   */\n      pop\n        /* \"#utility.yul\":152:481   */\n      swap3\n      swap2\n      pop\n      pop\n      jump\t// out\n        /* \"#utility.yul\":487:666   */\n    tag_39:\n        /* \"#utility.yul\":556:566   */\n      0x00\n        /* \"#utility.yul\":577:623   */\n      tag_41\n        /* \"#utility.yul\":619:622   */\n      dup4\n        /* \"#utility.yul\":611:617   */\n      dup4\n        /* \"#utility.yul\":577:623   */\n      tag_42\n      jump\t// in\n    tag_41:\n        /* \"#utility.yul\":655:659   */\n      0x20\n        /* \"#utility.yul\":650:653   */\n      dup4\n        /* \"#utility.yul\":646:660   */\n      add\n        /* \"#utility.yul\":632:660   */\n      swap1\n      pop\n        /* \"#utility.yul\":487:666   */\n      swap3\n      swap2\n      pop\n      pop\n      jump\t// out\n        /* \"#utility.yul\":704:1398   */\n    tag_43:\n        /* \"#utility.yul\":840:892   */\n      tag_45\n        /* \"#utility.yul\":886:891   */\n      dup2\n        /* \"#utility.yul\":840:892   */\n      tag_46\n      jump\t// in\n    tag_45:\n        /* \"#utility.yul\":908:992   */\n      tag_47\n        /* \"#utility.yul\":985:991   */\n      dup2\n        /* \"#utility.yul\":980:983   */\n      dup5\n        /* \"#utility.yul\":908:992   */\n      tag_48\n      jump\t// in\n    tag_47:\n        /* \"#utility.yul\":901:992   */\n      swap3\n      pop\n        /* \"#utility.yul\":1016:1070   */\n      tag_49\n        /* \"#utility.yul\":1064:1069   */\n      dup3\n        /* \"#utility.yul\":1016:1070   */\n      tag_50\n      jump\t// in\n    tag_49:\n        /* \"#utility.yul\":1093:1100   */\n      dup1\n        /* \"#utility.yul\":1124:1125   */\n      0x00\n        /* \"#utility.yul\":1109:1391   */\n    tag_51:\n        /* \"#utility.yul\":1134:1140   */\n      dup4\n        /* \"#utility.yul\":1131:1132   */\n      dup2\n        /* \"#utility.yul\":1128:1141   */\n      lt\n        /* \"#utility.yul\":1109:1391   */\n      iszero\n      tag_53\n      jumpi\n        /* \"#utility.yul\":1210:1216   */\n      dup2\n        /* \"#utility.yul\":1204:1217   */\n      mload\n        /* \"#utility.yul\":1237:1300   */\n      tag_54\n        /* \"#utility.yul\":1296:1299   */\n      dup8\n        /* \"#utility.yul\":1281:1294   */\n      dup3\n        /* \"#utility.yul\":1237:1300   */\n      tag_39\n      jump\t// in\n    tag_54:\n        /* \"#utility.yul\":1230:1300   */\n      swap7\n      pop\n        /* \"#utility.yul\":1323:1381   */\n      tag_55\n        /* \"#utility.yul\":1374:1380   */\n      dup4\n        /* \"#utility.yul\":1323:1381   */\n      tag_56\n      jump\t// in\n    tag_55:\n        /* \"#utility.yul\":1313:1381   */\n      swap3\n      pop\n        /* \"#utility.yul\":1169:1391   */\n      pop\n        /* \"#utility.yul\":1156:1157   */\n      0x01\n        /* \"#utility.yul\":1153:1154   */\n      dup2\n        /* \"#utility.yul\":1149:1158   */\n      add\n        /* \"#utility.yul\":1144:1158   */\n      swap1\n      pop\n        /* \"#utility.yul\":1109:1391   */\n      jump(tag_51)\n    tag_53:\n        /* \"#utility.yul\":1113:1127   */\n      pop\n        /* \"#utility.yul\":816:1398   */\n      pop\n      pop\n      pop\n        /* \"#utility.yul\":704:1398   */\n      pop\n      pop\n      jump\t// out\n        /* \"#utility.yul\":1404:1512   */\n    tag_42:\n        /* \"#utility.yul\":1481:1505   */\n      tag_58\n        /* \"#utility.yul\":1499:1504   */\n      dup2\n        /* \"#utility.yul\":1481:1505   */\n      tag_59\n      jump\t// in\n    tag_58:\n        /* \"#utility.yul\":1476:1479   */\n      dup3\n        /* \"#utility.yul\":1469:1506   */\n      mstore\n        /* \"#utility.yul\":1404:1512   */\n      pop\n      pop\n      jump\t// out\n        /* \"#utility.yul\":1518:1636   */\n    tag_60:\n        /* \"#utility.yul\":1605:1629   */\n      tag_62\n        /* \"#utility.yul\":1623:1628   */\n      dup2\n        /* \"#utility.yul\":1605:1629   */\n      tag_59\n      jump\t// in\n    tag_62:\n        /* \"#utility.yul\":1600:1603   */\n      dup3\n        /* \"#utility.yul\":1593:1630   */\n      mstore\n        /* \"#utility.yul\":1518:1636   */\n      pop\n      pop\n      jump\t// out\n        /* \"#utility.yul\":1642:1956   */\n    tag_8:\n        /* \"#utility.yul\":1781:1785   */\n      0x00\n        /* \"#utility.yul\":1819:1821   */\n      0x60\n        /* \"#utility.yul\":1808:1817   */\n      dup3\n        /* \"#utility.yul\":1804:1822   */\n      add\n        /* \"#utility.yul\":1796:1822   */\n      swap1\n      pop\n        /* \"#utility.yul\":1832:1949   */\n      tag_64\n        /* \"#utility.yul\":1946:1947   */\n      0x00\n        /* \"#utility.yul\":1935:1944   */\n      dup4\n        /* \"#utility.yul\":1931:1948   */\n      add\n        /* \"#utility.yul\":1922:1928   */\n      dup5\n        /* \"#utility.yul\":1832:1949   */\n      tag_43\n      jump\t// in\n    tag_64:\n        /* \"#utility.yul\":1642:1956   */\n      swap3\n      swap2\n      pop\n      pop\n      jump\t// out\n        /* \"#utility.yul\":1962:2184   */\n    tag_14:\n        /* \"#utility.yul\":2055:2059   */\n      0x00\n        /* \"#utility.yul\":2093:2095   */\n      0x20\n        /* \"#utility.yul\":2082:2091   */\n      dup3\n        /* \"#utility.yul\":2078:2096   */\n      add\n        /* \"#utility.yul\":2070:2096   */\n      swap1\n      pop\n        /* \"#utility.yul\":2106:2177   */\n      tag_66\n        /* \"#utility.yul\":2174:2175   */\n      0x00\n        /* \"#utility.yul\":2163:2172   */\n      dup4\n        /* \"#utility.yul\":2159:2176   */\n      add\n        /* \"#utility.yul\":2150:2156   */\n      dup5\n        /* \"#utility.yul\":2106:2177   */\n      tag_60\n      jump\t// in\n    tag_66:\n        /* \"#utility.yul\":1962:2184   */\n      swap3\n      swap2\n      pop\n      pop\n      jump\t// out\n        /* \"#utility.yul\":2271:2369   */\n    tag_50:\n        /* \"#utility.yul\":2336:2340   */\n      0x00\n        /* \"#utility.yul\":2359:2362   */\n      dup2\n        /* \"#utility.yul\":2351:2362   */\n      swap1\n      pop\n        /* \"#utility.yul\":2271:2369   */\n      swap2\n      swap1\n      pop\n      jump\t// out\n        /* \"#utility.yul\":2375:2479   */\n    tag_46:\n        /* \"#utility.yul\":2440:2446   */\n      0x00\n        /* \"#utility.yul\":2468:2472   */\n      0x03\n        /* \"#utility.yul\":2458:2472   */\n      swap1\n      pop\n        /* \"#utility.yul\":2375:2479   */\n      swap2\n      swap1\n      pop\n      jump\t// out\n        /* \"#utility.yul\":2485:2596   */\n    tag_56:\n        /* \"#utility.yul\":2553:2557   */\n      0x00\n        /* \"#utility.yul\":2585:2589   */\n      0x20\n        /* \"#utility.yul\":2580:2583   */\n      dup3\n        /* \"#utility.yul\":2576:2590   */\n      add\n        /* \"#utility.yul\":2568:2590   */\n      swap1\n      pop\n        /* \"#utility.yul\":2485:2596   */\n      swap2\n      swap1\n      pop\n      jump\t// out\n        /* \"#utility.yul\":2602:2745   */\n    tag_48:\n        /* \"#utility.yul\":2699:2710   */\n      0x00\n        /* \"#utility.yul\":2736:2739   */\n      dup2\n        /* \"#utility.yul\":2721:2739   */\n      swap1\n      pop\n        /* \"#utility.yul\":2602:2745   */\n      swap3\n      swap2\n      pop\n      pop\n      jump\t// out\n        /* \"#utility.yul\":2751:2828   */\n    tag_59:\n        /* \"#utility.yul\":2788:2795   */\n      0x00\n        /* \"#utility.yul\":2817:2822   */\n      dup2\n        /* \"#utility.yul\":2806:2822   */\n      swap1\n      pop\n        /* \"#utility.yul\":2751:2828   */\n      swap2\n      swap1\n      pop\n      jump\t// out\n        /* \"#utility.yul\":2957:3074   */\n    tag_37:\n        /* \"#utility.yul\":3066:3067   */\n      0x00\n        /* \"#utility.yul\":3063:3064   */\n      dup1\n        /* \"#utility.yul\":3056:3068   */\n      revert\n        /* \"#utility.yul\":3080:3202   */\n    tag_33:\n        /* \"#utility.yul\":3153:3177   */\n      tag_78\n        /* \"#utility.yul\":3171:3176   */\n      dup2\n        /* \"#utility.yul\":3153:3177   */\n      tag_59\n      jump\t// in\n    tag_78:\n        /* \"#utility.yul\":3146:3151   */\n      dup2\n        /* \"#utility.yul\":3143:3178   */\n      eq\n        /* \"#utility.yul\":3133:3196   */\n      tag_79\n      jumpi\n        /* \"#utility.yul\":3192:3193   */\n      0x00\n        /* \"#utility.yul\":3189:3190   */\n      dup1\n        /* \"#utility.yul\":3182:3194   */\n      revert\n        /* \"#utility.yul\":3133:3196   */\n    tag_79:\n        /* \"#utility.yul\":3080:3202   */\n      pop\n      jump\t// out\n\n    auxdata: 0xa26469706673582212200aabed3345001db2f8250ef1d89e4150677e489217156f6500e980a73ff434cb64736f6c63430008070033\n}\n",
				"bytecode": {
					"linkReferences": {},
					"object": "6080604052600367ffffffffffffffff81111561001f5761001e6100e0565b5b60405190808252806020026020018201604052801561004d5781602001602082028036833780820191505090505b5060009080519060200190610063929190610076565b5034801561007057600080fd5b5061010f565b8280548282559060005260206000209081019282156100b2579160200282015b828111156100b1578251825591602001919060010190610096565b5b5090506100bf91906100c3565b5090565b5b808211156100dc5760008160009055506001016100c4565b5090565b7f4e487b7100000000000000000000000000000000000000000000000000000000600052604160045260246000fd5b6103008061011e6000396000f3fe608060405234801561001057600080fd5b50600436106100365760003560e01c806347f6ac111461003b578063cbdef3f914610059575b600080fd5b610043610089565b6040516100509190610241565b60405180910390f35b610073600480360381019061006e9190610187565b6100c2565b604051610080919061025c565b60405180910390f35b6100916100e6565b6000604051806040016040528060018152602001600281525090508060009060026100bd929190610108565b505090565b600081815481106100d257600080fd5b906000526020600020016000915090505481565b6040518060600160405280600390602082028036833780820191505090505090565b828054828255906000526020600020908101928215610144579160200282015b82811115610143578251825591602001919060010190610128565b5b5090506101519190610155565b5090565b5b8082111561016e576000816000905550600101610156565b5090565b600081359050610181816102b3565b92915050565b60006020828403121561019d5761019c6102ae565b5b60006101ab84828501610172565b91505092915050565b60006101c08383610223565b60208301905092915050565b6101d581610281565b6101df8184610299565b92506101ea82610277565b8060005b8381101561021b57815161020287826101b4565b965061020d8361028c565b9250506001810190506101ee565b505050505050565b61022c816102a4565b82525050565b61023b816102a4565b82525050565b600060608201905061025660008301846101cc565b92915050565b60006020820190506102716000830184610232565b92915050565b6000819050919050565b600060039050919050565b6000602082019050919050565b600081905092915050565b6000819050919050565b600080fd5b6102bc816102a4565b81146102c757600080fd5b5056fea26469706673582212200aabed3345001db2f8250ef1d89e4150677e489217156f6500e980a73ff434cb64736f6c63430008070033",
					"opcodes": "PUSH1 0x80 PUSH1 0x40 MSTORE PUSH1 0x3 PUSH8 0xFFFFFFFFFFFFFFFF DUP2 GT ISZERO PUSH2 0x1F JUMPI PUSH2 0x1E PUSH2 0xE0 JUMP JUMPDEST JUMPDEST PUSH1 0x40 MLOAD SWAP1 DUP1 DUP3 MSTORE DUP1 PUSH1 0x20 MUL PUSH1 0x20 ADD DUP3 ADD PUSH1 0x40 MSTORE DUP1 ISZERO PUSH2 0x4D JUMPI DUP2 PUSH1 0x20 ADD PUSH1 0x20 DUP3 MUL DUP1 CALLDATASIZE DUP4 CALLDATACOPY DUP1 DUP3 ADD SWAP2 POP POP SWAP1 POP JUMPDEST POP PUSH1 0x0 SWAP1 DUP1 MLOAD SWAP1 PUSH1 0x20 ADD SWAP1 PUSH2 0x63 SWAP3 SWAP2 SWAP1 PUSH2 0x76 JUMP JUMPDEST POP CALLVALUE DUP1 ISZERO PUSH2 0x70 JUMPI PUSH1 0x0 DUP1 REVERT JUMPDEST POP PUSH2 0x10F JUMP JUMPDEST DUP3 DUP1 SLOAD DUP3 DUP3 SSTORE SWAP1 PUSH1 0x0 MSTORE PUSH1 0x20 PUSH1 0x0 KECCAK256 SWAP1 DUP2 ADD SWAP3 DUP3 ISZERO PUSH2 0xB2 JUMPI SWAP2 PUSH1 0x20 MUL DUP3 ADD JUMPDEST DUP3 DUP2 GT ISZERO PUSH2 0xB1 JUMPI DUP3 MLOAD DUP3 SSTORE SWAP2 PUSH1 0x20 ADD SWAP2 SWAP1 PUSH1 0x1 ADD SWAP1 PUSH2 0x96 JUMP JUMPDEST JUMPDEST POP SWAP1 POP PUSH2 0xBF SWAP2 SWAP1 PUSH2 0xC3 JUMP JUMPDEST POP SWAP1 JUMP JUMPDEST JUMPDEST DUP1 DUP3 GT ISZERO PUSH2 0xDC JUMPI PUSH1 0x0 DUP2 PUSH1 0x0 SWAP1 SSTORE POP PUSH1 0x1 ADD PUSH2 0xC4 JUMP JUMPDEST POP SWAP1 JUMP JUMPDEST PUSH32 0x4E487B7100000000000000000000000000000000000000000000000000000000 PUSH1 0x0 MSTORE PUSH1 0x41 PUSH1 0x4 MSTORE PUSH1 0x24 PUSH1 0x0 REVERT JUMPDEST PUSH2 0x300 DUP1 PUSH2 0x11E PUSH1 0x0 CODECOPY PUSH1 0x0 RETURN INVALID PUSH1 0x80 PUSH1 0x40 MSTORE CALLVALUE DUP1 ISZERO PUSH2 0x10 JUMPI PUSH1 0x0 DUP1 REVERT JUMPDEST POP PUSH1 0x4 CALLDATASIZE LT PUSH2 0x36 JUMPI PUSH1 0x0 CALLDATALOAD PUSH1 0xE0 SHR DUP1 PUSH4 0x47F6AC11 EQ PUSH2 0x3B JUMPI DUP1 PUSH4 0xCBDEF3F9 EQ PUSH2 0x59 JUMPI JUMPDEST PUSH1 0x0 DUP1 REVERT JUMPDEST PUSH2 0x43 PUSH2 0x89 JUMP JUMPDEST PUSH1 0x40 MLOAD PUSH2 0x50 SWAP2 SWAP1 PUSH2 0x241 JUMP JUMPDEST PUSH1 0x40 MLOAD DUP1 SWAP2 SUB SWAP1 RETURN JUMPDEST PUSH2 0x73 PUSH1 0x4 DUP1 CALLDATASIZE SUB DUP2 ADD SWAP1 PUSH2 0x6E SWAP2 SWAP1 PUSH2 0x187 JUMP JUMPDEST PUSH2 0xC2 JUMP JUMPDEST PUSH1 0x40 MLOAD PUSH2 0x80 SWAP2 SWAP1 PUSH2 0x25C JUMP JUMPDEST PUSH1 0x40 MLOAD DUP1 SWAP2 SUB SWAP1 RETURN JUMPDEST PUSH2 0x91 PUSH2 0xE6 JUMP JUMPDEST PUSH1 0x0 PUSH1 0x40 MLOAD DUP1 PUSH1 0x40 ADD PUSH1 0x40 MSTORE DUP1 PUSH1 0x1 DUP2 MSTORE PUSH1 0x20 ADD PUSH1 0x2 DUP2 MSTORE POP SWAP1 POP DUP1 PUSH1 0x0 SWAP1 PUSH1 0x2 PUSH2 0xBD SWAP3 SWAP2 SWAP1 PUSH2 0x108 JUMP JUMPDEST POP POP SWAP1 JUMP JUMPDEST PUSH1 0x0 DUP2 DUP2 SLOAD DUP2 LT PUSH2 0xD2 JUMPI PUSH1 0x0 DUP1 REVERT JUMPDEST SWAP1 PUSH1 0x0 MSTORE PUSH1 0x20 PUSH1 0x0 KECCAK256 ADD PUSH1 0x0 SWAP2 POP SWAP1 POP SLOAD DUP2 JUMP JUMPDEST PUSH1 0x40 MLOAD DUP1 PUSH1 0x60 ADD PUSH1 0x40 MSTORE DUP1 PUSH1 0x3 SWAP1 PUSH1 0x20 DUP3 MUL DUP1 CALLDATASIZE DUP4 CALLDATACOPY DUP1 DUP3 ADD SWAP2 POP POP SWAP1 POP POP SWAP1 JUMP JUMPDEST DUP3 DUP1 SLOAD DUP3 DUP3 SSTORE SWAP1 PUSH1 0x0 MSTORE PUSH1 0x20 PUSH1 0x0 KECCAK256 SWAP1 DUP2 ADD SWAP3 DUP3 ISZERO PUSH2 0x144 JUMPI SWAP2 PUSH1 0x20 MUL DUP3 ADD JUMPDEST DUP3 DUP2 GT ISZERO PUSH2 0x143 JUMPI DUP3 MLOAD DUP3 SSTORE SWAP2 PUSH1 0x20 ADD SWAP2 SWAP1 PUSH1 0x1 ADD SWAP1 PUSH2 0x128 JUMP JUMPDEST JUMPDEST POP SWAP1 POP PUSH2 0x151 SWAP2 SWAP1 PUSH2 0x155 JUMP JUMPDEST POP SWAP1 JUMP JUMPDEST JUMPDEST DUP1 DUP3 GT ISZERO PUSH2 0x16E JUMPI PUSH1 0x0 DUP2 PUSH1 0x0 SWAP1 SSTORE POP PUSH1 0x1 ADD PUSH2 0x156 JUMP JUMPDEST POP SWAP1 JUMP JUMPDEST PUSH1 0x0 DUP2 CALLDATALOAD SWAP1 POP PUSH2 0x181 DUP2 PUSH2 0x2B3 JUMP JUMPDEST SWAP3 SWAP2 POP POP JUMP JUMPDEST PUSH1 0x0 PUSH1 0x20 DUP3 DUP5 SUB SLT ISZERO PUSH2 0x19D JUMPI PUSH2 0x19C PUSH2 0x2AE JUMP JUMPDEST JUMPDEST PUSH1 0x0 PUSH2 0x1AB DUP5 DUP3 DUP6 ADD PUSH2 0x172 JUMP JUMPDEST SWAP2 POP POP SWAP3 SWAP2 POP POP JUMP JUMPDEST PUSH1 0x0 PUSH2 0x1C0 DUP4 DUP4 PUSH2 0x223 JUMP JUMPDEST PUSH1 0x20 DUP4 ADD SWAP1 POP SWAP3 SWAP2 POP POP JUMP JUMPDEST PUSH2 0x1D5 DUP2 PUSH2 0x281 JUMP JUMPDEST PUSH2 0x1DF DUP2 DUP5 PUSH2 0x299 JUMP JUMPDEST SWAP3 POP PUSH2 0x1EA DUP3 PUSH2 0x277 JUMP JUMPDEST DUP1 PUSH1 0x0 JUMPDEST DUP4 DUP2 LT ISZERO PUSH2 0x21B JUMPI DUP2 MLOAD PUSH2 0x202 DUP8 DUP3 PUSH2 0x1B4 JUMP JUMPDEST SWAP7 POP PUSH2 0x20D DUP4 PUSH2 0x28C JUMP JUMPDEST SWAP3 POP POP PUSH1 0x1 DUP2 ADD SWAP1 POP PUSH2 0x1EE JUMP JUMPDEST POP POP POP POP POP POP JUMP JUMPDEST PUSH2 0x22C DUP2 PUSH2 0x2A4 JUMP JUMPDEST DUP3 MSTORE POP POP JUMP JUMPDEST PUSH2 0x23B DUP2 PUSH2 0x2A4 JUMP JUMPDEST DUP3 MSTORE POP POP JUMP JUMPDEST PUSH1 0x0 PUSH1 0x60 DUP3 ADD SWAP1 POP PUSH2 0x256 PUSH1 0x0 DUP4 ADD DUP5 PUSH2 0x1CC JUMP JUMPDEST SWAP3 SWAP2 POP POP JUMP JUMPDEST PUSH1 0x0 PUSH1 0x20 DUP3 ADD SWAP1 POP PUSH2 0x271 PUSH1 0x0 DUP4 ADD DUP5 PUSH2 0x232 JUMP JUMPDEST SWAP3 SWAP2 POP POP JUMP JUMPDEST PUSH1 0x0 DUP2 SWAP1 POP SWAP2 SWAP1 POP JUMP JUMPDEST PUSH1 0x0 PUSH1 0x3 SWAP1 POP SWAP2 SWAP1 POP JUMP JUMPDEST PUSH1 0x0 PUSH1 0x20 DUP3 ADD SWAP1 POP SWAP2 SWAP1 POP JUMP JUMPDEST PUSH1 0x0 DUP2 SWAP1 POP SWAP3 SWAP2 POP POP JUMP JUMPDEST PUSH1 0x0 DUP2 SWAP1 POP SWAP2 SWAP1 POP JUMP JUMPDEST PUSH1 0x0 DUP1 REVERT JUMPDEST PUSH2 0x2BC DUP2 PUSH2 0x2A4 JUMP JUMPDEST DUP2 EQ PUSH2 0x2C7 JUMPI PUSH1 0x0 DUP1 REVERT JUMPDEST POP JUMP INVALID LOG2 PUSH5 0x6970667358 0x22 SLT KECCAK256 EXP 0xAB 0xED CALLER GASLIMIT STOP SAR 0xB2 0xF8 0x25 0xE CALL 0xD8 SWAP15 COINBASE POP PUSH8 0x7E489217156F6500 0xE9 DUP1 0xA7 EXTCODEHASH DELEGATECALL CALLVALUE 0xCB PUSH5 0x736F6C6343 STOP ADDMOD SMOD STOP CALLER "
				},
				"gasEstimates": {
					"creation": {
						"codeDepositCost": "153600",
						"executionCost": "infinite",
						"totalCost": "infinite"
					},
					"external": {
						"array4(uint256)": "infinite",
						"arrayPush()": "infinite"
					}
				},
				"methodIdentifiers": {
					"array4(uint256)": "cbdef3f9",
					"arrayPush()": "47f6ac11"
				}
			},
			"storageLayout": {
				"storage": [
					{
						"astId": 9,
						"contract": "contracts/16_Overloading.sol:HelloWeb3",
						"label": "array4",
						"offset": 0,
						"slot": "0",
						"type": "t_array(t_uint256)dyn_storage"
					}
				],
				"types": {
					"t_array(t_uint256)dyn_storage": {
						"base": "t_uint256",
						"encoding": "dynamic_array",
						"label": "uint256[]",
						"numberOfBytes": "32"
					},
					"t_uint256": {
						"encoding": "inplace",
						"label": "uint256",
						"numberOfBytes": "32"
					}
				}
			},
			"userdoc": {
				"kind": "user",
				"methods": {},
				"version": 1
			}
		}
	}
}