{
	"utils/Strings.sol": {
		"Strings": {
			"abi": [
				{
					"inputs": [
						{
							"internalType": "uint256",
							"name": "value",
							"type": "uint256"
						},
						{
							"internalType": "uint256",
							"name": "length",
							"type": "uint256"
						}
					],
					"name": "toHexString",
					"outputs": [
						{
							"internalType": "string",
							"name": "",
							"type": "string"
						}
					],
					"stateMutability": "pure",
					"type": "function"
				},
				{
					"inputs": [
						{
							"internalType": "uint256",
							"name": "value",
							"type": "uint256"
						}
					],
					"name": "toHexString",
					"outputs": [
						{
							"internalType": "string",
							"name": "",
							"type": "string"
						}
					],
					"stateMutability": "pure",
					"type": "function"
				},
				{
					"inputs": [
						{
							"internalType": "uint256",
							"name": "value",
							"type": "uint256"
						}
					],
					"name": "toString",
					"outputs": [
						{
							"internalType": "string",
							"name": "",
							"type": "string"
						}
					],
					"stateMutability": "pure",
					"type": "function"
				}
			],
			"devdoc": {
				"kind": "dev",
				"methods": {
					"toHexString(uint256)": {
						"details": "Converts a `uint256` to its ASCII `string` hexadecimal representation."
					},
					"toHexString(uint256,uint256)": {
						"details": "Converts a `uint256` to its ASCII `string` hexadecimal representation with fixed length."
					},
					"toString(uint256)": {
						"details": "Converts a `uint256` to its ASCII `string` decimal representation."
					}
				},
				"version": 1
			},
			"evm": {
				"assembly": "    /* \"utils/Strings.sol\":56:1935  library Strings {... */\n  dataSize(sub_0)\n  dataOffset(sub_0)\n  0x0b\n  dup3\n  dup3\n  dup3\n  codecopy\n  dup1\n  mload\n  0x00\n  byte\n  0x73\n  eq\n  tag_1\n  jumpi\n  mstore(0x00, 0x4e487b7100000000000000000000000000000000000000000000000000000000)\n  mstore(0x04, 0x00)\n  revert(0x00, 0x24)\ntag_1:\n  mstore(0x00, address)\n  0x73\n  dup2\n  mstore8\n  dup3\n  dup2\n  return\nstop\n\nsub_0: assembly {\n        /* \"utils/Strings.sol\":56:1935  library Strings {... */\n      eq(address, deployTimeAddress())\n      mstore(0x40, 0x80)\n      jumpi(tag_1, lt(calldatasize, 0x04))\n      shr(0xe0, calldataload(0x00))\n      dup1\n      0x63e1cbea\n      eq\n      tag_2\n      jumpi\n      dup1\n      0x6900a3ae\n      eq\n      tag_3\n      jumpi\n      dup1\n      0x8fba8d5c\n      eq\n      tag_4\n      jumpi\n    tag_1:\n      0x00\n      dup1\n      revert\n        /* \"utils/Strings.sol\":1494:1933  function toHexString(uint256 value, uint256 length) public pure returns (string memory) {... */\n    tag_2:\n      tag_5\n      0x04\n      dup1\n      calldatasize\n      sub\n      dup2\n      add\n      swap1\n      tag_6\n      swap2\n      swap1\n      tag_7\n      jump\t// in\n    tag_6:\n      tag_8\n      jump\t// in\n    tag_5:\n      mload(0x40)\n      tag_9\n      swap2\n      swap1\n      tag_10\n      jump\t// in\n    tag_9:\n      mload(0x40)\n      dup1\n      swap2\n      sub\n      swap1\n      return\n        /* \"utils/Strings.sol\":238:939  function toString(uint256 value) public pure returns (string memory) {... */\n    tag_3:\n      tag_11\n      0x04\n      dup1\n      calldatasize\n      sub\n      dup2\n      add\n      swap1\n      tag_12\n      swap2\n      swap1\n      tag_13\n      jump\t// in\n    tag_12:\n      tag_14\n      jump\t// in\n    tag_11:\n      mload(0x40)\n      tag_15\n      swap2\n      swap1\n      tag_10\n      jump\t// in\n    tag_15:\n      mload(0x40)\n      dup1\n      swap2\n      sub\n      swap1\n      return\n        /* \"utils/Strings.sol\":1044:1371  function toHexString(uint256 value) public pure returns (string memory) {... */\n    tag_4:\n      tag_16\n      0x04\n      dup1\n      calldatasize\n      sub\n      dup2\n      add\n      swap1\n      tag_17\n      swap2\n      swap1\n      tag_13\n      jump\t// in\n    tag_17:\n      tag_18\n      jump\t// in\n    tag_16:\n      mload(0x40)\n      tag_19\n      swap2\n      swap1\n      tag_10\n      jump\t// in\n    tag_19:\n      mload(0x40)\n      dup1\n      swap2\n      sub\n      swap1\n      return\n        /* \"utils/Strings.sol\":1494:1933  function toHexString(uint256 value, uint256 length) public pure returns (string memory) {... */\n    tag_8:\n        /* \"utils/Strings.sol\":1567:1580  string memory */\n      0x60\n        /* \"utils/Strings.sol\":1592:1611  bytes memory buffer */\n      0x00\n        /* \"utils/Strings.sol\":1637:1638  2 */\n      0x02\n        /* \"utils/Strings.sol\":1628:1634  length */\n      dup4\n        /* \"utils/Strings.sol\":1624:1625  2 */\n      0x02\n        /* \"utils/Strings.sol\":1624:1634  2 * length */\n      tag_21\n      swap2\n      swap1\n      tag_22\n      jump\t// in\n    tag_21:\n        /* \"utils/Strings.sol\":1624:1638  2 * length + 2 */\n      tag_23\n      swap2\n      swap1\n      tag_24\n      jump\t// in\n    tag_23:\n        /* \"utils/Strings.sol\":1614:1639  new bytes(2 * length + 2) */\n      0xffffffffffffffff\n      dup2\n      gt\n      iszero\n      tag_25\n      jumpi\n      tag_26\n      tag_27\n      jump\t// in\n    tag_26:\n    tag_25:\n      mload(0x40)\n      swap1\n      dup1\n      dup3\n      mstore\n      dup1\n      0x1f\n      add\n      not(0x1f)\n      and\n      0x20\n      add\n      dup3\n      add\n      0x40\n      mstore\n      dup1\n      iszero\n      tag_28\n      jumpi\n      dup2\n      0x20\n      add\n      0x01\n      dup3\n      mul\n      dup1\n      calldatasize\n      dup4\n      calldatacopy\n      dup1\n      dup3\n      add\n      swap2\n      pop\n      pop\n      swap1\n      pop\n    tag_28:\n      pop\n        /* \"utils/Strings.sol\":1592:1639  bytes memory buffer = new bytes(2 * length + 2) */\n      swap1\n      pop\n        /* \"utils/Strings.sol\":1649:1664  buffer[0] = \"0\" */\n      0x3000000000000000000000000000000000000000000000000000000000000000\n        /* \"utils/Strings.sol\":1649:1655  buffer */\n      dup2\n        /* \"utils/Strings.sol\":1656:1657  0 */\n      0x00\n        /* \"utils/Strings.sol\":1649:1658  buffer[0] */\n      dup2\n      mload\n      dup2\n      lt\n      tag_29\n      jumpi\n      tag_30\n      tag_31\n      jump\t// in\n    tag_30:\n    tag_29:\n      0x20\n      add\n      add\n        /* \"utils/Strings.sol\":1649:1664  buffer[0] = \"0\" */\n      swap1\n      not(0xffffffffffffffffffffffffffffffffffffffffffffffffffffffffffffff)\n      and\n      swap1\n      dup2\n      0x00\n      byte\n      swap1\n      mstore8\n      pop\n        /* \"utils/Strings.sol\":1674:1689  buffer[1] = \"x\" */\n      0x7800000000000000000000000000000000000000000000000000000000000000\n        /* \"utils/Strings.sol\":1674:1680  buffer */\n      dup2\n        /* \"utils/Strings.sol\":1681:1682  1 */\n      0x01\n        /* \"utils/Strings.sol\":1674:1683  buffer[1] */\n      dup2\n      mload\n      dup2\n      lt\n      tag_32\n      jumpi\n      tag_33\n      tag_31\n      jump\t// in\n    tag_33:\n    tag_32:\n      0x20\n      add\n      add\n        /* \"utils/Strings.sol\":1674:1689  buffer[1] = \"x\" */\n      swap1\n      not(0xffffffffffffffffffffffffffffffffffffffffffffffffffffffffffffff)\n      and\n      swap1\n      dup2\n      0x00\n      byte\n      swap1\n      mstore8\n      pop\n        /* \"utils/Strings.sol\":1704:1713  uint256 i */\n      0x00\n        /* \"utils/Strings.sol\":1729:1730  1 */\n      0x01\n        /* \"utils/Strings.sol\":1720:1726  length */\n      dup5\n        /* \"utils/Strings.sol\":1716:1717  2 */\n      0x02\n        /* \"utils/Strings.sol\":1716:1726  2 * length */\n      tag_37\n      swap2\n      swap1\n      tag_22\n      jump\t// in\n    tag_37:\n        /* \"utils/Strings.sol\":1716:1730  2 * length + 1 */\n      tag_38\n      swap2\n      swap1\n      tag_24\n      jump\t// in\n    tag_38:\n        /* \"utils/Strings.sol\":1704:1730  uint256 i = 2 * length + 1 */\n      swap1\n      pop\n        /* \"utils/Strings.sol\":1699:1831  for (uint256 i = 2 * length + 1; i > 1; --i) {... */\n    tag_34:\n        /* \"utils/Strings.sol\":1736:1737  1 */\n      0x01\n        /* \"utils/Strings.sol\":1732:1733  i */\n      dup2\n        /* \"utils/Strings.sol\":1732:1737  i > 1 */\n      gt\n        /* \"utils/Strings.sol\":1699:1831  for (uint256 i = 2 * length + 1; i > 1; --i) {... */\n      iszero\n      tag_35\n      jumpi\n        /* \"utils/Strings.sol\":1770:1782  _HEX_SYMBOLS */\n      0x3031323334353637383961626364656600000000000000000000000000000000\n        /* \"utils/Strings.sol\":1791:1794  0xf */\n      0x0f\n        /* \"utils/Strings.sol\":1783:1788  value */\n      dup7\n        /* \"utils/Strings.sol\":1783:1794  value & 0xf */\n      and\n        /* \"utils/Strings.sol\":1770:1795  _HEX_SYMBOLS[value & 0xf] */\n      0x10\n      dup2\n      lt\n      tag_39\n      jumpi\n      tag_40\n      tag_31\n      jump\t// in\n    tag_40:\n    tag_39:\n      byte\n      0xf8\n      shl\n        /* \"utils/Strings.sol\":1758:1764  buffer */\n      dup3\n        /* \"utils/Strings.sol\":1765:1766  i */\n      dup3\n        /* \"utils/Strings.sol\":1758:1767  buffer[i] */\n      dup2\n      mload\n      dup2\n      lt\n      tag_41\n      jumpi\n      tag_42\n      tag_31\n      jump\t// in\n    tag_42:\n    tag_41:\n      0x20\n      add\n      add\n        /* \"utils/Strings.sol\":1758:1795  buffer[i] = _HEX_SYMBOLS[value & 0xf] */\n      swap1\n      not(0xffffffffffffffffffffffffffffffffffffffffffffffffffffffffffffff)\n      and\n      swap1\n      dup2\n      0x00\n      byte\n      swap1\n      mstore8\n      pop\n        /* \"utils/Strings.sol\":1819:1820  4 */\n      0x04\n        /* \"utils/Strings.sol\":1809:1820  value >>= 4 */\n      dup6\n      swap1\n      shr\n      swap5\n      pop\n        /* \"utils/Strings.sol\":1739:1742  --i */\n      dup1\n      tag_43\n      swap1\n      tag_44\n      jump\t// in\n    tag_43:\n      swap1\n      pop\n        /* \"utils/Strings.sol\":1699:1831  for (uint256 i = 2 * length + 1; i > 1; --i) {... */\n      jump(tag_34)\n    tag_35:\n      pop\n        /* \"utils/Strings.sol\":1857:1858  0 */\n      0x00\n        /* \"utils/Strings.sol\":1848:1853  value */\n      dup5\n        /* \"utils/Strings.sol\":1848:1858  value == 0 */\n      eq\n        /* \"utils/Strings.sol\":1840:1895  require(value == 0, \"Strings: hex length insufficient\") */\n      tag_45\n      jumpi\n      mload(0x40)\n      0x08c379a000000000000000000000000000000000000000000000000000000000\n      dup2\n      mstore\n      0x04\n      add\n      tag_46\n      swap1\n      tag_47\n      jump\t// in\n    tag_46:\n      mload(0x40)\n      dup1\n      swap2\n      sub\n      swap1\n      revert\n    tag_45:\n        /* \"utils/Strings.sol\":1919:1925  buffer */\n      dup1\n        /* \"utils/Strings.sol\":1905:1926  return string(buffer) */\n      swap2\n      pop\n      pop\n        /* \"utils/Strings.sol\":1494:1933  function toHexString(uint256 value, uint256 length) public pure returns (string memory) {... */\n      swap3\n      swap2\n      pop\n      pop\n      jump\t// out\n        /* \"utils/Strings.sol\":238:939  function toString(uint256 value) public pure returns (string memory) {... */\n    tag_14:\n        /* \"utils/Strings.sol\":292:305  string memory */\n      0x60\n        /* \"utils/Strings.sol\":518:519  0 */\n      0x00\n        /* \"utils/Strings.sol\":509:514  value */\n      dup3\n        /* \"utils/Strings.sol\":509:519  value == 0 */\n      sub\n        /* \"utils/Strings.sol\":505:556  if (value == 0) {... */\n      tag_49\n      jumpi\n        /* \"utils/Strings.sol\":535:545  return \"0\" */\n      mload(0x40)\n      dup1\n      0x40\n      add\n      0x40\n      mstore\n      dup1\n      0x01\n      dup2\n      mstore\n      0x20\n      add\n      0x3000000000000000000000000000000000000000000000000000000000000000\n      dup2\n      mstore\n      pop\n      swap1\n      pop\n      jump(tag_48)\n        /* \"utils/Strings.sol\":505:556  if (value == 0) {... */\n    tag_49:\n        /* \"utils/Strings.sol\":565:577  uint256 temp */\n      0x00\n        /* \"utils/Strings.sol\":580:585  value */\n      dup3\n        /* \"utils/Strings.sol\":565:585  uint256 temp = value */\n      swap1\n      pop\n        /* \"utils/Strings.sol\":595:609  uint256 digits */\n      0x00\n        /* \"utils/Strings.sol\":619:694  while (temp != 0) {... */\n    tag_50:\n        /* \"utils/Strings.sol\":634:635  0 */\n      0x00\n        /* \"utils/Strings.sol\":626:630  temp */\n      dup3\n        /* \"utils/Strings.sol\":626:635  temp != 0 */\n      eq\n        /* \"utils/Strings.sol\":619:694  while (temp != 0) {... */\n      tag_51\n      jumpi\n        /* \"utils/Strings.sol\":651:659  digits++ */\n      dup1\n      dup1\n      tag_52\n      swap1\n      tag_53\n      jump\t// in\n    tag_52:\n      swap2\n      pop\n      pop\n        /* \"utils/Strings.sol\":681:683  10 */\n      0x0a\n        /* \"utils/Strings.sol\":673:683  temp /= 10 */\n      dup3\n      tag_54\n      swap2\n      swap1\n      tag_55\n      jump\t// in\n    tag_54:\n      swap2\n      pop\n        /* \"utils/Strings.sol\":619:694  while (temp != 0) {... */\n      jump(tag_50)\n    tag_51:\n        /* \"utils/Strings.sol\":703:722  bytes memory buffer */\n      0x00\n        /* \"utils/Strings.sol\":735:741  digits */\n      dup2\n        /* \"utils/Strings.sol\":725:742  new bytes(digits) */\n      0xffffffffffffffff\n      dup2\n      gt\n      iszero\n      tag_56\n      jumpi\n      tag_57\n      tag_27\n      jump\t// in\n    tag_57:\n    tag_56:\n      mload(0x40)\n      swap1\n      dup1\n      dup3\n      mstore\n      dup1\n      0x1f\n      add\n      not(0x1f)\n      and\n      0x20\n      add\n      dup3\n      add\n      0x40\n      mstore\n      dup1\n      iszero\n      tag_58\n      jumpi\n      dup2\n      0x20\n      add\n      0x01\n      dup3\n      mul\n      dup1\n      calldatasize\n      dup4\n      calldatacopy\n      dup1\n      dup3\n      add\n      swap2\n      pop\n      pop\n      swap1\n      pop\n    tag_58:\n      pop\n        /* \"utils/Strings.sol\":703:742  bytes memory buffer = new bytes(digits) */\n      swap1\n      pop\n        /* \"utils/Strings.sol\":752:902  while (value != 0) {... */\n    tag_59:\n        /* \"utils/Strings.sol\":768:769  0 */\n      0x00\n        /* \"utils/Strings.sol\":759:764  value */\n      dup6\n        /* \"utils/Strings.sol\":759:769  value != 0 */\n      eq\n        /* \"utils/Strings.sol\":752:902  while (value != 0) {... */\n      tag_60\n      jumpi\n        /* \"utils/Strings.sol\":795:796  1 */\n      0x01\n        /* \"utils/Strings.sol\":785:796  digits -= 1 */\n      dup3\n      tag_61\n      swap2\n      swap1\n      tag_62\n      jump\t// in\n    tag_61:\n      swap2\n      pop\n        /* \"utils/Strings.sol\":861:863  10 */\n      0x0a\n        /* \"utils/Strings.sol\":853:858  value */\n      dup6\n        /* \"utils/Strings.sol\":853:863  value % 10 */\n      tag_63\n      swap2\n      swap1\n      tag_64\n      jump\t// in\n    tag_63:\n        /* \"utils/Strings.sol\":840:842  48 */\n      0x30\n        /* \"utils/Strings.sol\":840:864  48 + uint256(value % 10) */\n      tag_65\n      swap2\n      swap1\n      tag_24\n      jump\t// in\n    tag_65:\n        /* \"utils/Strings.sol\":827:866  bytes1(uint8(48 + uint256(value % 10))) */\n      0xf8\n      shl\n        /* \"utils/Strings.sol\":810:816  buffer */\n      dup2\n        /* \"utils/Strings.sol\":817:823  digits */\n      dup4\n        /* \"utils/Strings.sol\":810:824  buffer[digits] */\n      dup2\n      mload\n      dup2\n      lt\n      tag_66\n      jumpi\n      tag_67\n      tag_31\n      jump\t// in\n    tag_67:\n    tag_66:\n      0x20\n      add\n      add\n        /* \"utils/Strings.sol\":810:866  buffer[digits] = bytes1(uint8(48 + uint256(value % 10))) */\n      swap1\n      not(0xffffffffffffffffffffffffffffffffffffffffffffffffffffffffffffff)\n      and\n      swap1\n      dup2\n      0x00\n      byte\n      swap1\n      mstore8\n      pop\n        /* \"utils/Strings.sol\":889:891  10 */\n      0x0a\n        /* \"utils/Strings.sol\":880:891  value /= 10 */\n      dup6\n      tag_68\n      swap2\n      swap1\n      tag_55\n      jump\t// in\n    tag_68:\n      swap5\n      pop\n        /* \"utils/Strings.sol\":752:902  while (value != 0) {... */\n      jump(tag_59)\n    tag_60:\n        /* \"utils/Strings.sol\":925:931  buffer */\n      dup1\n        /* \"utils/Strings.sol\":911:932  return string(buffer) */\n      swap4\n      pop\n      pop\n      pop\n      pop\n        /* \"utils/Strings.sol\":238:939  function toString(uint256 value) public pure returns (string memory) {... */\n    tag_48:\n      swap2\n      swap1\n      pop\n      jump\t// out\n        /* \"utils/Strings.sol\":1044:1371  function toHexString(uint256 value) public pure returns (string memory) {... */\n    tag_18:\n        /* \"utils/Strings.sol\":1101:1114  string memory */\n      0x60\n        /* \"utils/Strings.sol\":1139:1140  0 */\n      0x00\n        /* \"utils/Strings.sol\":1130:1135  value */\n      dup3\n        /* \"utils/Strings.sol\":1130:1140  value == 0 */\n      sub\n        /* \"utils/Strings.sol\":1126:1180  if (value == 0) {... */\n      tag_70\n      jumpi\n        /* \"utils/Strings.sol\":1156:1169  return \"0x00\" */\n      mload(0x40)\n      dup1\n      0x40\n      add\n      0x40\n      mstore\n      dup1\n      0x04\n      dup2\n      mstore\n      0x20\n      add\n      0x3078303000000000000000000000000000000000000000000000000000000000\n      dup2\n      mstore\n      pop\n      swap1\n      pop\n      jump(tag_69)\n        /* \"utils/Strings.sol\":1126:1180  if (value == 0) {... */\n    tag_70:\n        /* \"utils/Strings.sol\":1189:1201  uint256 temp */\n      0x00\n        /* \"utils/Strings.sol\":1204:1209  value */\n      dup3\n        /* \"utils/Strings.sol\":1189:1209  uint256 temp = value */\n      swap1\n      pop\n        /* \"utils/Strings.sol\":1219:1233  uint256 length */\n      0x00\n        /* \"utils/Strings.sol\":1247:1322  while (temp != 0) {... */\n    tag_71:\n        /* \"utils/Strings.sol\":1262:1263  0 */\n      0x00\n        /* \"utils/Strings.sol\":1254:1258  temp */\n      dup3\n        /* \"utils/Strings.sol\":1254:1263  temp != 0 */\n      eq\n        /* \"utils/Strings.sol\":1247:1322  while (temp != 0) {... */\n      tag_72\n      jumpi\n        /* \"utils/Strings.sol\":1279:1287  length++ */\n      dup1\n      dup1\n      tag_73\n      swap1\n      tag_53\n      jump\t// in\n    tag_73:\n      swap2\n      pop\n      pop\n        /* \"utils/Strings.sol\":1310:1311  8 */\n      0x08\n        /* \"utils/Strings.sol\":1301:1311  temp >>= 8 */\n      dup3\n      swap1\n      shr\n      swap2\n      pop\n        /* \"utils/Strings.sol\":1247:1322  while (temp != 0) {... */\n      jump(tag_71)\n    tag_72:\n        /* \"utils/Strings.sol\":1338:1364  toHexString(value, length) */\n      tag_74\n        /* \"utils/Strings.sol\":1350:1355  value */\n      dup5\n        /* \"utils/Strings.sol\":1357:1363  length */\n      dup3\n        /* \"utils/Strings.sol\":1338:1349  toHexString */\n      tag_8\n        /* \"utils/Strings.sol\":1338:1364  toHexString(value, length) */\n      jump\t// in\n    tag_74:\n        /* \"utils/Strings.sol\":1331:1364  return toHexString(value, length) */\n      swap3\n      pop\n      pop\n      pop\n        /* \"utils/Strings.sol\":1044:1371  function toHexString(uint256 value) public pure returns (string memory) {... */\n    tag_69:\n      swap2\n      swap1\n      pop\n      jump\t// out\n        /* \"#utility.yul\":88:205   */\n    tag_76:\n        /* \"#utility.yul\":197:198   */\n      0x00\n        /* \"#utility.yul\":194:195   */\n      dup1\n        /* \"#utility.yul\":187:199   */\n      revert\n        /* \"#utility.yul\":334:411   */\n    tag_78:\n        /* \"#utility.yul\":371:378   */\n      0x00\n        /* \"#utility.yul\":400:405   */\n      dup2\n        /* \"#utility.yul\":389:405   */\n      swap1\n      pop\n        /* \"#utility.yul\":334:411   */\n      swap2\n      swap1\n      pop\n      jump\t// out\n        /* \"#utility.yul\":417:539   */\n    tag_79:\n        /* \"#utility.yul\":490:514   */\n      tag_97\n        /* \"#utility.yul\":508:513   */\n      dup2\n        /* \"#utility.yul\":490:514   */\n      tag_78\n      jump\t// in\n    tag_97:\n        /* \"#utility.yul\":483:488   */\n      dup2\n        /* \"#utility.yul\":480:515   */\n      eq\n        /* \"#utility.yul\":470:533   */\n      tag_98\n      jumpi\n        /* \"#utility.yul\":529:530   */\n      0x00\n        /* \"#utility.yul\":526:527   */\n      dup1\n        /* \"#utility.yul\":519:531   */\n      revert\n        /* \"#utility.yul\":470:533   */\n    tag_98:\n        /* \"#utility.yul\":417:539   */\n      pop\n      jump\t// out\n        /* \"#utility.yul\":545:684   */\n    tag_80:\n        /* \"#utility.yul\":591:596   */\n      0x00\n        /* \"#utility.yul\":629:635   */\n      dup2\n        /* \"#utility.yul\":616:636   */\n      calldataload\n        /* \"#utility.yul\":607:636   */\n      swap1\n      pop\n        /* \"#utility.yul\":645:678   */\n      tag_100\n        /* \"#utility.yul\":672:677   */\n      dup2\n        /* \"#utility.yul\":645:678   */\n      tag_79\n      jump\t// in\n    tag_100:\n        /* \"#utility.yul\":545:684   */\n      swap3\n      swap2\n      pop\n      pop\n      jump\t// out\n        /* \"#utility.yul\":690:1164   */\n    tag_7:\n        /* \"#utility.yul\":758:764   */\n      0x00\n        /* \"#utility.yul\":766:772   */\n      dup1\n        /* \"#utility.yul\":815:817   */\n      0x40\n        /* \"#utility.yul\":803:812   */\n      dup4\n        /* \"#utility.yul\":794:801   */\n      dup6\n        /* \"#utility.yul\":790:813   */\n      sub\n        /* \"#utility.yul\":786:818   */\n      slt\n        /* \"#utility.yul\":783:902   */\n      iszero\n      tag_102\n      jumpi\n        /* \"#utility.yul\":821:900   */\n      tag_103\n      tag_76\n      jump\t// in\n    tag_103:\n        /* \"#utility.yul\":783:902   */\n    tag_102:\n        /* \"#utility.yul\":941:942   */\n      0x00\n        /* \"#utility.yul\":966:1019   */\n      tag_104\n        /* \"#utility.yul\":1011:1018   */\n      dup6\n        /* \"#utility.yul\":1002:1008   */\n      dup3\n        /* \"#utility.yul\":991:1000   */\n      dup7\n        /* \"#utility.yul\":987:1009   */\n      add\n        /* \"#utility.yul\":966:1019   */\n      tag_80\n      jump\t// in\n    tag_104:\n        /* \"#utility.yul\":956:1019   */\n      swap3\n      pop\n        /* \"#utility.yul\":912:1029   */\n      pop\n        /* \"#utility.yul\":1068:1070   */\n      0x20\n        /* \"#utility.yul\":1094:1147   */\n      tag_105\n        /* \"#utility.yul\":1139:1146   */\n      dup6\n        /* \"#utility.yul\":1130:1136   */\n      dup3\n        /* \"#utility.yul\":1119:1128   */\n      dup7\n        /* \"#utility.yul\":1115:1137   */\n      add\n        /* \"#utility.yul\":1094:1147   */\n      tag_80\n      jump\t// in\n    tag_105:\n        /* \"#utility.yul\":1084:1147   */\n      swap2\n      pop\n        /* \"#utility.yul\":1039:1157   */\n      pop\n        /* \"#utility.yul\":690:1164   */\n      swap3\n      pop\n      swap3\n      swap1\n      pop\n      jump\t// out\n        /* \"#utility.yul\":1170:1269   */\n    tag_81:\n        /* \"#utility.yul\":1222:1228   */\n      0x00\n        /* \"#utility.yul\":1256:1261   */\n      dup2\n        /* \"#utility.yul\":1250:1262   */\n      mload\n        /* \"#utility.yul\":1240:1262   */\n      swap1\n      pop\n        /* \"#utility.yul\":1170:1269   */\n      swap2\n      swap1\n      pop\n      jump\t// out\n        /* \"#utility.yul\":1275:1452   */\n    tag_82:\n        /* \"#utility.yul\":1367:1378   */\n      0x00\n        /* \"#utility.yul\":1401:1407   */\n      dup3\n        /* \"#utility.yul\":1396:1399   */\n      dup3\n        /* \"#utility.yul\":1389:1408   */\n      mstore\n        /* \"#utility.yul\":1441:1445   */\n      0x20\n        /* \"#utility.yul\":1436:1439   */\n      dup3\n        /* \"#utility.yul\":1432:1446   */\n      add\n        /* \"#utility.yul\":1417:1446   */\n      swap1\n      pop\n        /* \"#utility.yul\":1275:1452   */\n      swap3\n      swap2\n      pop\n      pop\n      jump\t// out\n        /* \"#utility.yul\":1458:1765   */\n    tag_83:\n        /* \"#utility.yul\":1526:1527   */\n      0x00\n        /* \"#utility.yul\":1536:1649   */\n    tag_109:\n        /* \"#utility.yul\":1550:1556   */\n      dup4\n        /* \"#utility.yul\":1547:1548   */\n      dup2\n        /* \"#utility.yul\":1544:1557   */\n      lt\n        /* \"#utility.yul\":1536:1649   */\n      iszero\n      tag_111\n      jumpi\n        /* \"#utility.yul\":1635:1636   */\n      dup1\n        /* \"#utility.yul\":1630:1633   */\n      dup3\n        /* \"#utility.yul\":1626:1637   */\n      add\n        /* \"#utility.yul\":1620:1638   */\n      mload\n        /* \"#utility.yul\":1616:1617   */\n      dup2\n        /* \"#utility.yul\":1611:1614   */\n      dup5\n        /* \"#utility.yul\":1607:1618   */\n      add\n        /* \"#utility.yul\":1600:1639   */\n      mstore\n        /* \"#utility.yul\":1572:1574   */\n      0x20\n        /* \"#utility.yul\":1569:1570   */\n      dup2\n        /* \"#utility.yul\":1565:1575   */\n      add\n        /* \"#utility.yul\":1560:1575   */\n      swap1\n      pop\n        /* \"#utility.yul\":1536:1649   */\n      jump(tag_109)\n    tag_111:\n        /* \"#utility.yul\":1667:1673   */\n      dup4\n        /* \"#utility.yul\":1664:1665   */\n      dup2\n        /* \"#utility.yul\":1661:1674   */\n      gt\n        /* \"#utility.yul\":1658:1759   */\n      iszero\n      tag_112\n      jumpi\n        /* \"#utility.yul\":1747:1748   */\n      0x00\n        /* \"#utility.yul\":1738:1744   */\n      dup5\n        /* \"#utility.yul\":1733:1736   */\n      dup5\n        /* \"#utility.yul\":1729:1745   */\n      add\n        /* \"#utility.yul\":1722:1749   */\n      mstore\n        /* \"#utility.yul\":1658:1759   */\n    tag_112:\n        /* \"#utility.yul\":1507:1765   */\n      pop\n        /* \"#utility.yul\":1458:1765   */\n      pop\n      pop\n      pop\n      jump\t// out\n        /* \"#utility.yul\":1771:1873   */\n    tag_84:\n        /* \"#utility.yul\":1812:1818   */\n      0x00\n        /* \"#utility.yul\":1863:1865   */\n      0x1f\n        /* \"#utility.yul\":1859:1866   */\n      not\n        /* \"#utility.yul\":1854:1856   */\n      0x1f\n        /* \"#utility.yul\":1847:1852   */\n      dup4\n        /* \"#utility.yul\":1843:1857   */\n      add\n        /* \"#utility.yul\":1839:1867   */\n      and\n        /* \"#utility.yul\":1829:1867   */\n      swap1\n      pop\n        /* \"#utility.yul\":1771:1873   */\n      swap2\n      swap1\n      pop\n      jump\t// out\n        /* \"#utility.yul\":1879:2259   */\n    tag_85:\n        /* \"#utility.yul\":1975:1978   */\n      0x00\n        /* \"#utility.yul\":2003:2042   */\n      tag_115\n        /* \"#utility.yul\":2036:2041   */\n      dup3\n        /* \"#utility.yul\":2003:2042   */\n      tag_81\n      jump\t// in\n    tag_115:\n        /* \"#utility.yul\":2058:2137   */\n      tag_116\n        /* \"#utility.yul\":2130:2136   */\n      dup2\n        /* \"#utility.yul\":2125:2128   */\n      dup6\n        /* \"#utility.yul\":2058:2137   */\n      tag_82\n      jump\t// in\n    tag_116:\n        /* \"#utility.yul\":2051:2137   */\n      swap4\n      pop\n        /* \"#utility.yul\":2146:2198   */\n      tag_117\n        /* \"#utility.yul\":2191:2197   */\n      dup2\n        /* \"#utility.yul\":2186:2189   */\n      dup6\n        /* \"#utility.yul\":2179:2183   */\n      0x20\n        /* \"#utility.yul\":2172:2177   */\n      dup7\n        /* \"#utility.yul\":2168:2184   */\n      add\n        /* \"#utility.yul\":2146:2198   */\n      tag_83\n      jump\t// in\n    tag_117:\n        /* \"#utility.yul\":2223:2252   */\n      tag_118\n        /* \"#utility.yul\":2245:2251   */\n      dup2\n        /* \"#utility.yul\":2223:2252   */\n      tag_84\n      jump\t// in\n    tag_118:\n        /* \"#utility.yul\":2218:2221   */\n      dup5\n        /* \"#utility.yul\":2214:2253   */\n      add\n        /* \"#utility.yul\":2207:2253   */\n      swap2\n      pop\n        /* \"#utility.yul\":1979:2259   */\n      pop\n        /* \"#utility.yul\":1879:2259   */\n      swap3\n      swap2\n      pop\n      pop\n      jump\t// out\n        /* \"#utility.yul\":2265:2594   */\n    tag_10:\n        /* \"#utility.yul\":2386:2390   */\n      0x00\n        /* \"#utility.yul\":2424:2426   */\n      0x20\n        /* \"#utility.yul\":2413:2422   */\n      dup3\n        /* \"#utility.yul\":2409:2427   */\n      add\n        /* \"#utility.yul\":2401:2427   */\n      swap1\n      pop\n        /* \"#utility.yul\":2473:2482   */\n      dup2\n        /* \"#utility.yul\":2467:2471   */\n      dup2\n        /* \"#utility.yul\":2463:2483   */\n      sub\n        /* \"#utility.yul\":2459:2460   */\n      0x00\n        /* \"#utility.yul\":2448:2457   */\n      dup4\n        /* \"#utility.yul\":2444:2461   */\n      add\n        /* \"#utility.yul\":2437:2484   */\n      mstore\n        /* \"#utility.yul\":2501:2587   */\n      tag_120\n        /* \"#utility.yul\":2582:2586   */\n      dup2\n        /* \"#utility.yul\":2573:2579   */\n      dup5\n        /* \"#utility.yul\":2501:2587   */\n      tag_85\n      jump\t// in\n    tag_120:\n        /* \"#utility.yul\":2493:2587   */\n      swap1\n      pop\n        /* \"#utility.yul\":2265:2594   */\n      swap3\n      swap2\n      pop\n      pop\n      jump\t// out\n        /* \"#utility.yul\":2600:2929   */\n    tag_13:\n        /* \"#utility.yul\":2659:2665   */\n      0x00\n        /* \"#utility.yul\":2708:2710   */\n      0x20\n        /* \"#utility.yul\":2696:2705   */\n      dup3\n        /* \"#utility.yul\":2687:2694   */\n      dup5\n        /* \"#utility.yul\":2683:2706   */\n      sub\n        /* \"#utility.yul\":2679:2711   */\n      slt\n        /* \"#utility.yul\":2676:2795   */\n      iszero\n      tag_122\n      jumpi\n        /* \"#utility.yul\":2714:2793   */\n      tag_123\n      tag_76\n      jump\t// in\n    tag_123:\n        /* \"#utility.yul\":2676:2795   */\n    tag_122:\n        /* \"#utility.yul\":2834:2835   */\n      0x00\n        /* \"#utility.yul\":2859:2912   */\n      tag_124\n        /* \"#utility.yul\":2904:2911   */\n      dup5\n        /* \"#utility.yul\":2895:2901   */\n      dup3\n        /* \"#utility.yul\":2884:2893   */\n      dup6\n        /* \"#utility.yul\":2880:2902   */\n      add\n        /* \"#utility.yul\":2859:2912   */\n      tag_80\n      jump\t// in\n    tag_124:\n        /* \"#utility.yul\":2849:2912   */\n      swap2\n      pop\n        /* \"#utility.yul\":2805:2922   */\n      pop\n        /* \"#utility.yul\":2600:2929   */\n      swap3\n      swap2\n      pop\n      pop\n      jump\t// out\n        /* \"#utility.yul\":2935:3115   */\n    tag_86:\n        /* \"#utility.yul\":2983:3060   */\n      0x4e487b7100000000000000000000000000000000000000000000000000000000\n        /* \"#utility.yul\":2980:2981   */\n      0x00\n        /* \"#utility.yul\":2973:3061   */\n      mstore\n        /* \"#utility.yul\":3080:3084   */\n      0x11\n        /* \"#utility.yul\":3077:3078   */\n      0x04\n        /* \"#utility.yul\":3070:3085   */\n      mstore\n        /* \"#utility.yul\":3104:3108   */\n      0x24\n        /* \"#utility.yul\":3101:3102   */\n      0x00\n        /* \"#utility.yul\":3094:3109   */\n      revert\n        /* \"#utility.yul\":3121:3469   */\n    tag_22:\n        /* \"#utility.yul\":3161:3168   */\n      0x00\n        /* \"#utility.yul\":3184:3204   */\n      tag_127\n        /* \"#utility.yul\":3202:3203   */\n      dup3\n        /* \"#utility.yul\":3184:3204   */\n      tag_78\n      jump\t// in\n    tag_127:\n        /* \"#utility.yul\":3179:3204   */\n      swap2\n      pop\n        /* \"#utility.yul\":3218:3238   */\n      tag_128\n        /* \"#utility.yul\":3236:3237   */\n      dup4\n        /* \"#utility.yul\":3218:3238   */\n      tag_78\n      jump\t// in\n    tag_128:\n        /* \"#utility.yul\":3213:3238   */\n      swap3\n      pop\n        /* \"#utility.yul\":3406:3407   */\n      dup2\n        /* \"#utility.yul\":3338:3404   */\n      0xffffffffffffffffffffffffffffffffffffffffffffffffffffffffffffffff\n        /* \"#utility.yul\":3334:3408   */\n      div\n        /* \"#utility.yul\":3331:3332   */\n      dup4\n        /* \"#utility.yul\":3328:3409   */\n      gt\n        /* \"#utility.yul\":3323:3324   */\n      dup3\n        /* \"#utility.yul\":3316:3325   */\n      iszero\n        /* \"#utility.yul\":3309:3326   */\n      iszero\n        /* \"#utility.yul\":3305:3410   */\n      and\n        /* \"#utility.yul\":3302:3433   */\n      iszero\n      tag_129\n      jumpi\n        /* \"#utility.yul\":3413:3431   */\n      tag_130\n      tag_86\n      jump\t// in\n    tag_130:\n        /* \"#utility.yul\":3302:3433   */\n    tag_129:\n        /* \"#utility.yul\":3461:3462   */\n      dup3\n        /* \"#utility.yul\":3458:3459   */\n      dup3\n        /* \"#utility.yul\":3454:3463   */\n      mul\n        /* \"#utility.yul\":3443:3463   */\n      swap1\n      pop\n        /* \"#utility.yul\":3121:3469   */\n      swap3\n      swap2\n      pop\n      pop\n      jump\t// out\n        /* \"#utility.yul\":3475:3780   */\n    tag_24:\n        /* \"#utility.yul\":3515:3518   */\n      0x00\n        /* \"#utility.yul\":3534:3554   */\n      tag_132\n        /* \"#utility.yul\":3552:3553   */\n      dup3\n        /* \"#utility.yul\":3534:3554   */\n      tag_78\n      jump\t// in\n    tag_132:\n        /* \"#utility.yul\":3529:3554   */\n      swap2\n      pop\n        /* \"#utility.yul\":3568:3588   */\n      tag_133\n        /* \"#utility.yul\":3586:3587   */\n      dup4\n        /* \"#utility.yul\":3568:3588   */\n      tag_78\n      jump\t// in\n    tag_133:\n        /* \"#utility.yul\":3563:3588   */\n      swap3\n      pop\n        /* \"#utility.yul\":3722:3723   */\n      dup3\n        /* \"#utility.yul\":3654:3720   */\n      0xffffffffffffffffffffffffffffffffffffffffffffffffffffffffffffffff\n        /* \"#utility.yul\":3650:3724   */\n      sub\n        /* \"#utility.yul\":3647:3648   */\n      dup3\n        /* \"#utility.yul\":3644:3725   */\n      gt\n        /* \"#utility.yul\":3641:3748   */\n      iszero\n      tag_134\n      jumpi\n        /* \"#utility.yul\":3728:3746   */\n      tag_135\n      tag_86\n      jump\t// in\n    tag_135:\n        /* \"#utility.yul\":3641:3748   */\n    tag_134:\n        /* \"#utility.yul\":3772:3773   */\n      dup3\n        /* \"#utility.yul\":3769:3770   */\n      dup3\n        /* \"#utility.yul\":3765:3774   */\n      add\n        /* \"#utility.yul\":3758:3774   */\n      swap1\n      pop\n        /* \"#utility.yul\":3475:3780   */\n      swap3\n      swap2\n      pop\n      pop\n      jump\t// out\n        /* \"#utility.yul\":3786:3966   */\n    tag_27:\n        /* \"#utility.yul\":3834:3911   */\n      0x4e487b7100000000000000000000000000000000000000000000000000000000\n        /* \"#utility.yul\":3831:3832   */\n      0x00\n        /* \"#utility.yul\":3824:3912   */\n      mstore\n        /* \"#utility.yul\":3931:3935   */\n      0x41\n        /* \"#utility.yul\":3928:3929   */\n      0x04\n        /* \"#utility.yul\":3921:3936   */\n      mstore\n        /* \"#utility.yul\":3955:3959   */\n      0x24\n        /* \"#utility.yul\":3952:3953   */\n      0x00\n        /* \"#utility.yul\":3945:3960   */\n      revert\n        /* \"#utility.yul\":3972:4152   */\n    tag_31:\n        /* \"#utility.yul\":4020:4097   */\n      0x4e487b7100000000000000000000000000000000000000000000000000000000\n        /* \"#utility.yul\":4017:4018   */\n      0x00\n        /* \"#utility.yul\":4010:4098   */\n      mstore\n        /* \"#utility.yul\":4117:4121   */\n      0x32\n        /* \"#utility.yul\":4114:4115   */\n      0x04\n        /* \"#utility.yul\":4107:4122   */\n      mstore\n        /* \"#utility.yul\":4141:4145   */\n      0x24\n        /* \"#utility.yul\":4138:4139   */\n      0x00\n        /* \"#utility.yul\":4131:4146   */\n      revert\n        /* \"#utility.yul\":4158:4329   */\n    tag_44:\n        /* \"#utility.yul\":4197:4200   */\n      0x00\n        /* \"#utility.yul\":4220:4244   */\n      tag_139\n        /* \"#utility.yul\":4238:4243   */\n      dup3\n        /* \"#utility.yul\":4220:4244   */\n      tag_78\n      jump\t// in\n    tag_139:\n        /* \"#utility.yul\":4211:4244   */\n      swap2\n      pop\n        /* \"#utility.yul\":4266:4270   */\n      0x00\n        /* \"#utility.yul\":4259:4264   */\n      dup3\n        /* \"#utility.yul\":4256:4271   */\n      sub\n        /* \"#utility.yul\":4253:4294   */\n      tag_140\n      jumpi\n        /* \"#utility.yul\":4274:4292   */\n      tag_141\n      tag_86\n      jump\t// in\n    tag_141:\n        /* \"#utility.yul\":4253:4294   */\n    tag_140:\n        /* \"#utility.yul\":4321:4322   */\n      0x01\n        /* \"#utility.yul\":4314:4319   */\n      dup3\n        /* \"#utility.yul\":4310:4323   */\n      sub\n        /* \"#utility.yul\":4303:4323   */\n      swap1\n      pop\n        /* \"#utility.yul\":4158:4329   */\n      swap2\n      swap1\n      pop\n      jump\t// out\n        /* \"#utility.yul\":4335:4504   */\n    tag_87:\n        /* \"#utility.yul\":4419:4430   */\n      0x00\n        /* \"#utility.yul\":4453:4459   */\n      dup3\n        /* \"#utility.yul\":4448:4451   */\n      dup3\n        /* \"#utility.yul\":4441:4460   */\n      mstore\n        /* \"#utility.yul\":4493:4497   */\n      0x20\n        /* \"#utility.yul\":4488:4491   */\n      dup3\n        /* \"#utility.yul\":4484:4498   */\n      add\n        /* \"#utility.yul\":4469:4498   */\n      swap1\n      pop\n        /* \"#utility.yul\":4335:4504   */\n      swap3\n      swap2\n      pop\n      pop\n      jump\t// out\n        /* \"#utility.yul\":4510:4692   */\n    tag_88:\n        /* \"#utility.yul\":4650:4684   */\n      0x537472696e67733a20686578206c656e67746820696e73756666696369656e74\n        /* \"#utility.yul\":4646:4647   */\n      0x00\n        /* \"#utility.yul\":4638:4644   */\n      dup3\n        /* \"#utility.yul\":4634:4648   */\n      add\n        /* \"#utility.yul\":4627:4685   */\n      mstore\n        /* \"#utility.yul\":4510:4692   */\n      pop\n      jump\t// out\n        /* \"#utility.yul\":4698:5064   */\n    tag_89:\n        /* \"#utility.yul\":4840:4843   */\n      0x00\n        /* \"#utility.yul\":4861:4928   */\n      tag_145\n        /* \"#utility.yul\":4925:4927   */\n      0x20\n        /* \"#utility.yul\":4920:4923   */\n      dup4\n        /* \"#utility.yul\":4861:4928   */\n      tag_87\n      jump\t// in\n    tag_145:\n        /* \"#utility.yul\":4854:4928   */\n      swap2\n      pop\n        /* \"#utility.yul\":4937:5030   */\n      tag_146\n        /* \"#utility.yul\":5026:5029   */\n      dup3\n        /* \"#utility.yul\":4937:5030   */\n      tag_88\n      jump\t// in\n    tag_146:\n        /* \"#utility.yul\":5055:5057   */\n      0x20\n        /* \"#utility.yul\":5050:5053   */\n      dup3\n        /* \"#utility.yul\":5046:5058   */\n      add\n        /* \"#utility.yul\":5039:5058   */\n      swap1\n      pop\n        /* \"#utility.yul\":4698:5064   */\n      swap2\n      swap1\n      pop\n      jump\t// out\n        /* \"#utility.yul\":5070:5489   */\n    tag_47:\n        /* \"#utility.yul\":5236:5240   */\n      0x00\n        /* \"#utility.yul\":5274:5276   */\n      0x20\n        /* \"#utility.yul\":5263:5272   */\n      dup3\n        /* \"#utility.yul\":5259:5277   */\n      add\n        /* \"#utility.yul\":5251:5277   */\n      swap1\n      pop\n        /* \"#utility.yul\":5323:5332   */\n      dup2\n        /* \"#utility.yul\":5317:5321   */\n      dup2\n        /* \"#utility.yul\":5313:5333   */\n      sub\n        /* \"#utility.yul\":5309:5310   */\n      0x00\n        /* \"#utility.yul\":5298:5307   */\n      dup4\n        /* \"#utility.yul\":5294:5311   */\n      add\n        /* \"#utility.yul\":5287:5334   */\n      mstore\n        /* \"#utility.yul\":5351:5482   */\n      tag_148\n        /* \"#utility.yul\":5477:5481   */\n      dup2\n        /* \"#utility.yul\":5351:5482   */\n      tag_89\n      jump\t// in\n    tag_148:\n        /* \"#utility.yul\":5343:5482   */\n      swap1\n      pop\n        /* \"#utility.yul\":5070:5489   */\n      swap2\n      swap1\n      pop\n      jump\t// out\n        /* \"#utility.yul\":5495:5728   */\n    tag_53:\n        /* \"#utility.yul\":5534:5537   */\n      0x00\n        /* \"#utility.yul\":5557:5581   */\n      tag_150\n        /* \"#utility.yul\":5575:5580   */\n      dup3\n        /* \"#utility.yul\":5557:5581   */\n      tag_78\n      jump\t// in\n    tag_150:\n        /* \"#utility.yul\":5548:5581   */\n      swap2\n      pop\n        /* \"#utility.yul\":5603:5669   */\n      0xffffffffffffffffffffffffffffffffffffffffffffffffffffffffffffffff\n        /* \"#utility.yul\":5596:5601   */\n      dup3\n        /* \"#utility.yul\":5593:5670   */\n      sub\n        /* \"#utility.yul\":5590:5693   */\n      tag_151\n      jumpi\n        /* \"#utility.yul\":5673:5691   */\n      tag_152\n      tag_86\n      jump\t// in\n    tag_152:\n        /* \"#utility.yul\":5590:5693   */\n    tag_151:\n        /* \"#utility.yul\":5720:5721   */\n      0x01\n        /* \"#utility.yul\":5713:5718   */\n      dup3\n        /* \"#utility.yul\":5709:5722   */\n      add\n        /* \"#utility.yul\":5702:5722   */\n      swap1\n      pop\n        /* \"#utility.yul\":5495:5728   */\n      swap2\n      swap1\n      pop\n      jump\t// out\n        /* \"#utility.yul\":5734:5914   */\n    tag_90:\n        /* \"#utility.yul\":5782:5859   */\n      0x4e487b7100000000000000000000000000000000000000000000000000000000\n        /* \"#utility.yul\":5779:5780   */\n      0x00\n        /* \"#utility.yul\":5772:5860   */\n      mstore\n        /* \"#utility.yul\":5879:5883   */\n      0x12\n        /* \"#utility.yul\":5876:5877   */\n      0x04\n        /* \"#utility.yul\":5869:5884   */\n      mstore\n        /* \"#utility.yul\":5903:5907   */\n      0x24\n        /* \"#utility.yul\":5900:5901   */\n      0x00\n        /* \"#utility.yul\":5893:5908   */\n      revert\n        /* \"#utility.yul\":5920:6105   */\n    tag_55:\n        /* \"#utility.yul\":5960:5961   */\n      0x00\n        /* \"#utility.yul\":5977:5997   */\n      tag_155\n        /* \"#utility.yul\":5995:5996   */\n      dup3\n        /* \"#utility.yul\":5977:5997   */\n      tag_78\n      jump\t// in\n    tag_155:\n        /* \"#utility.yul\":5972:5997   */\n      swap2\n      pop\n        /* \"#utility.yul\":6011:6031   */\n      tag_156\n        /* \"#utility.yul\":6029:6030   */\n      dup4\n        /* \"#utility.yul\":6011:6031   */\n      tag_78\n      jump\t// in\n    tag_156:\n        /* \"#utility.yul\":6006:6031   */\n      swap3\n      pop\n        /* \"#utility.yul\":6050:6051   */\n      dup3\n        /* \"#utility.yul\":6040:6075   */\n      tag_157\n      jumpi\n        /* \"#utility.yul\":6055:6073   */\n      tag_158\n      tag_90\n      jump\t// in\n    tag_158:\n        /* \"#utility.yul\":6040:6075   */\n    tag_157:\n        /* \"#utility.yul\":6097:6098   */\n      dup3\n        /* \"#utility.yul\":6094:6095   */\n      dup3\n        /* \"#utility.yul\":6090:6099   */\n      div\n        /* \"#utility.yul\":6085:6099   */\n      swap1\n      pop\n        /* \"#utility.yul\":5920:6105   */\n      swap3\n      swap2\n      pop\n      pop\n      jump\t// out\n        /* \"#utility.yul\":6111:6302   */\n    tag_62:\n        /* \"#utility.yul\":6151:6155   */\n      0x00\n        /* \"#utility.yul\":6171:6191   */\n      tag_160\n        /* \"#utility.yul\":6189:6190   */\n      dup3\n        /* \"#utility.yul\":6171:6191   */\n      tag_78\n      jump\t// in\n    tag_160:\n        /* \"#utility.yul\":6166:6191   */\n      swap2\n      pop\n        /* \"#utility.yul\":6205:6225   */\n      tag_161\n        /* \"#utility.yul\":6223:6224   */\n      dup4\n        /* \"#utility.yul\":6205:6225   */\n      tag_78\n      jump\t// in\n    tag_161:\n        /* \"#utility.yul\":6200:6225   */\n      swap3\n      pop\n        /* \"#utility.yul\":6244:6245   */\n      dup3\n        /* \"#utility.yul\":6241:6242   */\n      dup3\n        /* \"#utility.yul\":6238:6246   */\n      lt\n        /* \"#utility.yul\":6235:6269   */\n      iszero\n      tag_162\n      jumpi\n        /* \"#utility.yul\":6249:6267   */\n      tag_163\n      tag_86\n      jump\t// in\n    tag_163:\n        /* \"#utility.yul\":6235:6269   */\n    tag_162:\n        /* \"#utility.yul\":6294:6295   */\n      dup3\n        /* \"#utility.yul\":6291:6292   */\n      dup3\n        /* \"#utility.yul\":6287:6296   */\n      sub\n        /* \"#utility.yul\":6279:6296   */\n      swap1\n      pop\n        /* \"#utility.yul\":6111:6302   */\n      swap3\n      swap2\n      pop\n      pop\n      jump\t// out\n        /* \"#utility.yul\":6308:6484   */\n    tag_64:\n        /* \"#utility.yul\":6340:6341   */\n      0x00\n        /* \"#utility.yul\":6357:6377   */\n      tag_165\n        /* \"#utility.yul\":6375:6376   */\n      dup3\n        /* \"#utility.yul\":6357:6377   */\n      tag_78\n      jump\t// in\n    tag_165:\n        /* \"#utility.yul\":6352:6377   */\n      swap2\n      pop\n        /* \"#utility.yul\":6391:6411   */\n      tag_166\n        /* \"#utility.yul\":6409:6410   */\n      dup4\n        /* \"#utility.yul\":6391:6411   */\n      tag_78\n      jump\t// in\n    tag_166:\n        /* \"#utility.yul\":6386:6411   */\n      swap3\n      pop\n        /* \"#utility.yul\":6430:6431   */\n      dup3\n        /* \"#utility.yul\":6420:6455   */\n      tag_167\n      jumpi\n        /* \"#utility.yul\":6435:6453   */\n      tag_168\n      tag_90\n      jump\t// in\n    tag_168:\n        /* \"#utility.yul\":6420:6455   */\n    tag_167:\n        /* \"#utility.yul\":6476:6477   */\n      dup3\n        /* \"#utility.yul\":6473:6474   */\n      dup3\n        /* \"#utility.yul\":6469:6478   */\n      mod\n        /* \"#utility.yul\":6464:6478   */\n      swap1\n      pop\n        /* \"#utility.yul\":6308:6484   */\n      swap3\n      swap2\n      pop\n      pop\n      jump\t// out\n\n    auxdata: 0xa2646970667358221220a7f235b0964f17905d25c7af97615bbcb0c14d06b574487770ac34c52b8cea9564736f6c634300080f0033\n}\n",
				"bytecode": {
					"linkReferences": {},
					"object": "61098a610053600b82828239805160001a607314610046577f4e487b7100000000000000000000000000000000000000000000000000000000600052600060045260246000fd5b30600052607381538281f3fe730000000000000000000000000000000000000000301460806040526004361061004b5760003560e01c806363e1cbea146100505780636900a3ae146100805780638fba8d5c146100b0575b600080fd5b61006a6004803603810190610065919061053c565b6100e0565b6040516100779190610615565b60405180910390f35b61009a60048036038101906100959190610637565b61031c565b6040516100a79190610615565b60405180910390f35b6100ca60048036038101906100c59190610637565b61047c565b6040516100d79190610615565b60405180910390f35b6060600060028360026100f39190610693565b6100fd91906106ed565b67ffffffffffffffff81111561011657610115610743565b5b6040519080825280601f01601f1916602001820160405280156101485781602001600182028036833780820191505090505b5090507f3000000000000000000000000000000000000000000000000000000000000000816000815181106101805761017f610772565b5b60200101907effffffffffffffffffffffffffffffffffffffffffffffffffffffffffffff1916908160001a9053507f7800000000000000000000000000000000000000000000000000000000000000816001815181106101e4576101e3610772565b5b60200101907effffffffffffffffffffffffffffffffffffffffffffffffffffffffffffff1916908160001a905350600060018460026102249190610693565b61022e91906106ed565b90505b60018111156102ce577f3031323334353637383961626364656600000000000000000000000000000000600f8616601081106102705761026f610772565b5b1a60f81b82828151811061028757610286610772565b5b60200101907effffffffffffffffffffffffffffffffffffffffffffffffffffffffffffff1916908160001a905350600485901c9450806102c7906107a1565b9050610231565b5060008414610312576040517f08c379a000000000000000000000000000000000000000000000000000000000815260040161030990610827565b60405180910390fd5b8091505092915050565b606060008203610363576040518060400160405280600181526020017f30000000000000000000000000000000000000000000000000000000000000008152509050610477565b600082905060005b6000821461039557808061037e90610847565b915050600a8261038e91906108be565b915061036b565b60008167ffffffffffffffff8111156103b1576103b0610743565b5b6040519080825280601f01601f1916602001820160405280156103e35781602001600182028036833780820191505090505b5090505b60008514610470576001826103fc91906108ef565b9150600a8561040b9190610923565b603061041791906106ed565b60f81b81838151811061042d5761042c610772565b5b60200101907effffffffffffffffffffffffffffffffffffffffffffffffffffffffffffff1916908160001a905350600a8561046991906108be565b94506103e7565b8093505050505b919050565b6060600082036104c3576040518060400160405280600481526020017f307830300000000000000000000000000000000000000000000000000000000081525090506104fc565b600082905060005b600082146104ed5780806104de90610847565b915050600882901c91506104cb565b6104f784826100e0565b925050505b919050565b600080fd5b6000819050919050565b61051981610506565b811461052457600080fd5b50565b60008135905061053681610510565b92915050565b6000806040838503121561055357610552610501565b5b600061056185828601610527565b925050602061057285828601610527565b9150509250929050565b600081519050919050565b600082825260208201905092915050565b60005b838110156105b657808201518184015260208101905061059b565b838111156105c5576000848401525b50505050565b6000601f19601f8301169050919050565b60006105e78261057c565b6105f18185610587565b9350610601818560208601610598565b61060a816105cb565b840191505092915050565b6000602082019050818103600083015261062f81846105dc565b905092915050565b60006020828403121561064d5761064c610501565b5b600061065b84828501610527565b91505092915050565b7f4e487b7100000000000000000000000000000000000000000000000000000000600052601160045260246000fd5b600061069e82610506565b91506106a983610506565b9250817fffffffffffffffffffffffffffffffffffffffffffffffffffffffffffffffff04831182151516156106e2576106e1610664565b5b828202905092915050565b60006106f882610506565b915061070383610506565b9250827fffffffffffffffffffffffffffffffffffffffffffffffffffffffffffffffff0382111561073857610737610664565b5b828201905092915050565b7f4e487b7100000000000000000000000000000000000000000000000000000000600052604160045260246000fd5b7f4e487b7100000000000000000000000000000000000000000000000000000000600052603260045260246000fd5b60006107ac82610506565b9150600082036107bf576107be610664565b5b600182039050919050565b600082825260208201905092915050565b7f537472696e67733a20686578206c656e67746820696e73756666696369656e74600082015250565b60006108116020836107ca565b915061081c826107db565b602082019050919050565b6000602082019050818103600083015261084081610804565b9050919050565b600061085282610506565b91507fffffffffffffffffffffffffffffffffffffffffffffffffffffffffffffffff820361088457610883610664565b5b600182019050919050565b7f4e487b7100000000000000000000000000000000000000000000000000000000600052601260045260246000fd5b60006108c982610506565b91506108d483610506565b9250826108e4576108e361088f565b5b828204905092915050565b60006108fa82610506565b915061090583610506565b92508282101561091857610917610664565b5b828203905092915050565b600061092e82610506565b915061093983610506565b9250826109495761094861088f565b5b82820690509291505056fea2646970667358221220a7f235b0964f17905d25c7af97615bbcb0c14d06b574487770ac34c52b8cea9564736f6c634300080f0033",
					"opcodes": "PUSH2 0x98A PUSH2 0x53 PUSH1 0xB DUP3 DUP3 DUP3 CODECOPY DUP1 MLOAD PUSH1 0x0 BYTE PUSH1 0x73 EQ PUSH2 0x46 JUMPI PUSH32 0x4E487B7100000000000000000000000000000000000000000000000000000000 PUSH1 0x0 MSTORE PUSH1 0x0 PUSH1 0x4 MSTORE PUSH1 0x24 PUSH1 0x0 REVERT JUMPDEST ADDRESS PUSH1 0x0 MSTORE PUSH1 0x73 DUP2 MSTORE8 DUP3 DUP2 RETURN INVALID PUSH20 0x0 ADDRESS EQ PUSH1 0x80 PUSH1 0x40 MSTORE PUSH1 0x4 CALLDATASIZE LT PUSH2 0x4B JUMPI PUSH1 0x0 CALLDATALOAD PUSH1 0xE0 SHR DUP1 PUSH4 0x63E1CBEA EQ PUSH2 0x50 JUMPI DUP1 PUSH4 0x6900A3AE EQ PUSH2 0x80 JUMPI DUP1 PUSH4 0x8FBA8D5C EQ PUSH2 0xB0 JUMPI JUMPDEST PUSH1 0x0 DUP1 REVERT JUMPDEST PUSH2 0x6A PUSH1 0x4 DUP1 CALLDATASIZE SUB DUP2 ADD SWAP1 PUSH2 0x65 SWAP2 SWAP1 PUSH2 0x53C JUMP JUMPDEST PUSH2 0xE0 JUMP JUMPDEST PUSH1 0x40 MLOAD PUSH2 0x77 SWAP2 SWAP1 PUSH2 0x615 JUMP JUMPDEST PUSH1 0x40 MLOAD DUP1 SWAP2 SUB SWAP1 RETURN JUMPDEST PUSH2 0x9A PUSH1 0x4 DUP1 CALLDATASIZE SUB DUP2 ADD SWAP1 PUSH2 0x95 SWAP2 SWAP1 PUSH2 0x637 JUMP JUMPDEST PUSH2 0x31C JUMP JUMPDEST PUSH1 0x40 MLOAD PUSH2 0xA7 SWAP2 SWAP1 PUSH2 0x615 JUMP JUMPDEST PUSH1 0x40 MLOAD DUP1 SWAP2 SUB SWAP1 RETURN JUMPDEST PUSH2 0xCA PUSH1 0x4 DUP1 CALLDATASIZE SUB DUP2 ADD SWAP1 PUSH2 0xC5 SWAP2 SWAP1 PUSH2 0x637 JUMP JUMPDEST PUSH2 0x47C JUMP JUMPDEST PUSH1 0x40 MLOAD PUSH2 0xD7 SWAP2 SWAP1 PUSH2 0x615 JUMP JUMPDEST PUSH1 0x40 MLOAD DUP1 SWAP2 SUB SWAP1 RETURN JUMPDEST PUSH1 0x60 PUSH1 0x0 PUSH1 0x2 DUP4 PUSH1 0x2 PUSH2 0xF3 SWAP2 SWAP1 PUSH2 0x693 JUMP JUMPDEST PUSH2 0xFD SWAP2 SWAP1 PUSH2 0x6ED JUMP JUMPDEST PUSH8 0xFFFFFFFFFFFFFFFF DUP2 GT ISZERO PUSH2 0x116 JUMPI PUSH2 0x115 PUSH2 0x743 JUMP JUMPDEST JUMPDEST PUSH1 0x40 MLOAD SWAP1 DUP1 DUP3 MSTORE DUP1 PUSH1 0x1F ADD PUSH1 0x1F NOT AND PUSH1 0x20 ADD DUP3 ADD PUSH1 0x40 MSTORE DUP1 ISZERO PUSH2 0x148 JUMPI DUP2 PUSH1 0x20 ADD PUSH1 0x1 DUP3 MUL DUP1 CALLDATASIZE DUP4 CALLDATACOPY DUP1 DUP3 ADD SWAP2 POP POP SWAP1 POP JUMPDEST POP SWAP1 POP PUSH32 0x3000000000000000000000000000000000000000000000000000000000000000 DUP2 PUSH1 0x0 DUP2 MLOAD DUP2 LT PUSH2 0x180 JUMPI PUSH2 0x17F PUSH2 0x772 JUMP JUMPDEST JUMPDEST PUSH1 0x20 ADD ADD SWAP1 PUSH31 0xFFFFFFFFFFFFFFFFFFFFFFFFFFFFFFFFFFFFFFFFFFFFFFFFFFFFFFFFFFFFFF NOT AND SWAP1 DUP2 PUSH1 0x0 BYTE SWAP1 MSTORE8 POP PUSH32 0x7800000000000000000000000000000000000000000000000000000000000000 DUP2 PUSH1 0x1 DUP2 MLOAD DUP2 LT PUSH2 0x1E4 JUMPI PUSH2 0x1E3 PUSH2 0x772 JUMP JUMPDEST JUMPDEST PUSH1 0x20 ADD ADD SWAP1 PUSH31 0xFFFFFFFFFFFFFFFFFFFFFFFFFFFFFFFFFFFFFFFFFFFFFFFFFFFFFFFFFFFFFF NOT AND SWAP1 DUP2 PUSH1 0x0 BYTE SWAP1 MSTORE8 POP PUSH1 0x0 PUSH1 0x1 DUP5 PUSH1 0x2 PUSH2 0x224 SWAP2 SWAP1 PUSH2 0x693 JUMP JUMPDEST PUSH2 0x22E SWAP2 SWAP1 PUSH2 0x6ED JUMP JUMPDEST SWAP1 POP JUMPDEST PUSH1 0x1 DUP2 GT ISZERO PUSH2 0x2CE JUMPI PUSH32 0x3031323334353637383961626364656600000000000000000000000000000000 PUSH1 0xF DUP7 AND PUSH1 0x10 DUP2 LT PUSH2 0x270 JUMPI PUSH2 0x26F PUSH2 0x772 JUMP JUMPDEST JUMPDEST BYTE PUSH1 0xF8 SHL DUP3 DUP3 DUP2 MLOAD DUP2 LT PUSH2 0x287 JUMPI PUSH2 0x286 PUSH2 0x772 JUMP JUMPDEST JUMPDEST PUSH1 0x20 ADD ADD SWAP1 PUSH31 0xFFFFFFFFFFFFFFFFFFFFFFFFFFFFFFFFFFFFFFFFFFFFFFFFFFFFFFFFFFFFFF NOT AND SWAP1 DUP2 PUSH1 0x0 BYTE SWAP1 MSTORE8 POP PUSH1 0x4 DUP6 SWAP1 SHR SWAP5 POP DUP1 PUSH2 0x2C7 SWAP1 PUSH2 0x7A1 JUMP JUMPDEST SWAP1 POP PUSH2 0x231 JUMP JUMPDEST POP PUSH1 0x0 DUP5 EQ PUSH2 0x312 JUMPI PUSH1 0x40 MLOAD PUSH32 0x8C379A000000000000000000000000000000000000000000000000000000000 DUP2 MSTORE PUSH1 0x4 ADD PUSH2 0x309 SWAP1 PUSH2 0x827 JUMP JUMPDEST PUSH1 0x40 MLOAD DUP1 SWAP2 SUB SWAP1 REVERT JUMPDEST DUP1 SWAP2 POP POP SWAP3 SWAP2 POP POP JUMP JUMPDEST PUSH1 0x60 PUSH1 0x0 DUP3 SUB PUSH2 0x363 JUMPI PUSH1 0x40 MLOAD DUP1 PUSH1 0x40 ADD PUSH1 0x40 MSTORE DUP1 PUSH1 0x1 DUP2 MSTORE PUSH1 0x20 ADD PUSH32 0x3000000000000000000000000000000000000000000000000000000000000000 DUP2 MSTORE POP SWAP1 POP PUSH2 0x477 JUMP JUMPDEST PUSH1 0x0 DUP3 SWAP1 POP PUSH1 0x0 JUMPDEST PUSH1 0x0 DUP3 EQ PUSH2 0x395 JUMPI DUP1 DUP1 PUSH2 0x37E SWAP1 PUSH2 0x847 JUMP JUMPDEST SWAP2 POP POP PUSH1 0xA DUP3 PUSH2 0x38E SWAP2 SWAP1 PUSH2 0x8BE JUMP JUMPDEST SWAP2 POP PUSH2 0x36B JUMP JUMPDEST PUSH1 0x0 DUP2 PUSH8 0xFFFFFFFFFFFFFFFF DUP2 GT ISZERO PUSH2 0x3B1 JUMPI PUSH2 0x3B0 PUSH2 0x743 JUMP JUMPDEST JUMPDEST PUSH1 0x40 MLOAD SWAP1 DUP1 DUP3 MSTORE DUP1 PUSH1 0x1F ADD PUSH1 0x1F NOT AND PUSH1 0x20 ADD DUP3 ADD PUSH1 0x40 MSTORE DUP1 ISZERO PUSH2 0x3E3 JUMPI DUP2 PUSH1 0x20 ADD PUSH1 0x1 DUP3 MUL DUP1 CALLDATASIZE DUP4 CALLDATACOPY DUP1 DUP3 ADD SWAP2 POP POP SWAP1 POP JUMPDEST POP SWAP1 POP JUMPDEST PUSH1 0x0 DUP6 EQ PUSH2 0x470 JUMPI PUSH1 0x1 DUP3 PUSH2 0x3FC SWAP2 SWAP1 PUSH2 0x8EF JUMP JUMPDEST SWAP2 POP PUSH1 0xA DUP6 PUSH2 0x40B SWAP2 SWAP1 PUSH2 0x923 JUMP JUMPDEST PUSH1 0x30 PUSH2 0x417 SWAP2 SWAP1 PUSH2 0x6ED JUMP JUMPDEST PUSH1 0xF8 SHL DUP2 DUP4 DUP2 MLOAD DUP2 LT PUSH2 0x42D JUMPI PUSH2 0x42C PUSH2 0x772 JUMP JUMPDEST JUMPDEST PUSH1 0x20 ADD ADD SWAP1 PUSH31 0xFFFFFFFFFFFFFFFFFFFFFFFFFFFFFFFFFFFFFFFFFFFFFFFFFFFFFFFFFFFFFF NOT AND SWAP1 DUP2 PUSH1 0x0 BYTE SWAP1 MSTORE8 POP PUSH1 0xA DUP6 PUSH2 0x469 SWAP2 SWAP1 PUSH2 0x8BE JUMP JUMPDEST SWAP5 POP PUSH2 0x3E7 JUMP JUMPDEST DUP1 SWAP4 POP POP POP POP JUMPDEST SWAP2 SWAP1 POP JUMP JUMPDEST PUSH1 0x60 PUSH1 0x0 DUP3 SUB PUSH2 0x4C3 JUMPI PUSH1 0x40 MLOAD DUP1 PUSH1 0x40 ADD PUSH1 0x40 MSTORE DUP1 PUSH1 0x4 DUP2 MSTORE PUSH1 0x20 ADD PUSH32 0x3078303000000000000000000000000000000000000000000000000000000000 DUP2 MSTORE POP SWAP1 POP PUSH2 0x4FC JUMP JUMPDEST PUSH1 0x0 DUP3 SWAP1 POP PUSH1 0x0 JUMPDEST PUSH1 0x0 DUP3 EQ PUSH2 0x4ED JUMPI DUP1 DUP1 PUSH2 0x4DE SWAP1 PUSH2 0x847 JUMP JUMPDEST SWAP2 POP POP PUSH1 0x8 DUP3 SWAP1 SHR SWAP2 POP PUSH2 0x4CB JUMP JUMPDEST PUSH2 0x4F7 DUP5 DUP3 PUSH2 0xE0 JUMP JUMPDEST SWAP3 POP POP POP JUMPDEST SWAP2 SWAP1 POP JUMP JUMPDEST PUSH1 0x0 DUP1 REVERT JUMPDEST PUSH1 0x0 DUP2 SWAP1 POP SWAP2 SWAP1 POP JUMP JUMPDEST PUSH2 0x519 DUP2 PUSH2 0x506 JUMP JUMPDEST DUP2 EQ PUSH2 0x524 JUMPI PUSH1 0x0 DUP1 REVERT JUMPDEST POP JUMP JUMPDEST PUSH1 0x0 DUP2 CALLDATALOAD SWAP1 POP PUSH2 0x536 DUP2 PUSH2 0x510 JUMP JUMPDEST SWAP3 SWAP2 POP POP JUMP JUMPDEST PUSH1 0x0 DUP1 PUSH1 0x40 DUP4 DUP6 SUB SLT ISZERO PUSH2 0x553 JUMPI PUSH2 0x552 PUSH2 0x501 JUMP JUMPDEST JUMPDEST PUSH1 0x0 PUSH2 0x561 DUP6 DUP3 DUP7 ADD PUSH2 0x527 JUMP JUMPDEST SWAP3 POP POP PUSH1 0x20 PUSH2 0x572 DUP6 DUP3 DUP7 ADD PUSH2 0x527 JUMP JUMPDEST SWAP2 POP POP SWAP3 POP SWAP3 SWAP1 POP JUMP JUMPDEST PUSH1 0x0 DUP2 MLOAD SWAP1 POP SWAP2 SWAP1 POP JUMP JUMPDEST PUSH1 0x0 DUP3 DUP3 MSTORE PUSH1 0x20 DUP3 ADD SWAP1 POP SWAP3 SWAP2 POP POP JUMP JUMPDEST PUSH1 0x0 JUMPDEST DUP4 DUP2 LT ISZERO PUSH2 0x5B6 JUMPI DUP1 DUP3 ADD MLOAD DUP2 DUP5 ADD MSTORE PUSH1 0x20 DUP2 ADD SWAP1 POP PUSH2 0x59B JUMP JUMPDEST DUP4 DUP2 GT ISZERO PUSH2 0x5C5 JUMPI PUSH1 0x0 DUP5 DUP5 ADD MSTORE JUMPDEST POP POP POP POP JUMP JUMPDEST PUSH1 0x0 PUSH1 0x1F NOT PUSH1 0x1F DUP4 ADD AND SWAP1 POP SWAP2 SWAP1 POP JUMP JUMPDEST PUSH1 0x0 PUSH2 0x5E7 DUP3 PUSH2 0x57C JUMP JUMPDEST PUSH2 0x5F1 DUP2 DUP6 PUSH2 0x587 JUMP JUMPDEST SWAP4 POP PUSH2 0x601 DUP2 DUP6 PUSH1 0x20 DUP7 ADD PUSH2 0x598 JUMP JUMPDEST PUSH2 0x60A DUP2 PUSH2 0x5CB JUMP JUMPDEST DUP5 ADD SWAP2 POP POP SWAP3 SWAP2 POP POP JUMP JUMPDEST PUSH1 0x0 PUSH1 0x20 DUP3 ADD SWAP1 POP DUP2 DUP2 SUB PUSH1 0x0 DUP4 ADD MSTORE PUSH2 0x62F DUP2 DUP5 PUSH2 0x5DC JUMP JUMPDEST SWAP1 POP SWAP3 SWAP2 POP POP JUMP JUMPDEST PUSH1 0x0 PUSH1 0x20 DUP3 DUP5 SUB SLT ISZERO PUSH2 0x64D JUMPI PUSH2 0x64C PUSH2 0x501 JUMP JUMPDEST JUMPDEST PUSH1 0x0 PUSH2 0x65B DUP5 DUP3 DUP6 ADD PUSH2 0x527 JUMP JUMPDEST SWAP2 POP POP SWAP3 SWAP2 POP POP JUMP JUMPDEST PUSH32 0x4E487B7100000000000000000000000000000000000000000000000000000000 PUSH1 0x0 MSTORE PUSH1 0x11 PUSH1 0x4 MSTORE PUSH1 0x24 PUSH1 0x0 REVERT JUMPDEST PUSH1 0x0 PUSH2 0x69E DUP3 PUSH2 0x506 JUMP JUMPDEST SWAP2 POP PUSH2 0x6A9 DUP4 PUSH2 0x506 JUMP JUMPDEST SWAP3 POP DUP2 PUSH32 0xFFFFFFFFFFFFFFFFFFFFFFFFFFFFFFFFFFFFFFFFFFFFFFFFFFFFFFFFFFFFFFFF DIV DUP4 GT DUP3 ISZERO ISZERO AND ISZERO PUSH2 0x6E2 JUMPI PUSH2 0x6E1 PUSH2 0x664 JUMP JUMPDEST JUMPDEST DUP3 DUP3 MUL SWAP1 POP SWAP3 SWAP2 POP POP JUMP JUMPDEST PUSH1 0x0 PUSH2 0x6F8 DUP3 PUSH2 0x506 JUMP JUMPDEST SWAP2 POP PUSH2 0x703 DUP4 PUSH2 0x506 JUMP JUMPDEST SWAP3 POP DUP3 PUSH32 0xFFFFFFFFFFFFFFFFFFFFFFFFFFFFFFFFFFFFFFFFFFFFFFFFFFFFFFFFFFFFFFFF SUB DUP3 GT ISZERO PUSH2 0x738 JUMPI PUSH2 0x737 PUSH2 0x664 JUMP JUMPDEST JUMPDEST DUP3 DUP3 ADD SWAP1 POP SWAP3 SWAP2 POP POP JUMP JUMPDEST PUSH32 0x4E487B7100000000000000000000000000000000000000000000000000000000 PUSH1 0x0 MSTORE PUSH1 0x41 PUSH1 0x4 MSTORE PUSH1 0x24 PUSH1 0x0 REVERT JUMPDEST PUSH32 0x4E487B7100000000000000000000000000000000000000000000000000000000 PUSH1 0x0 MSTORE PUSH1 0x32 PUSH1 0x4 MSTORE PUSH1 0x24 PUSH1 0x0 REVERT JUMPDEST PUSH1 0x0 PUSH2 0x7AC DUP3 PUSH2 0x506 JUMP JUMPDEST SWAP2 POP PUSH1 0x0 DUP3 SUB PUSH2 0x7BF JUMPI PUSH2 0x7BE PUSH2 0x664 JUMP JUMPDEST JUMPDEST PUSH1 0x1 DUP3 SUB SWAP1 POP SWAP2 SWAP1 POP JUMP JUMPDEST PUSH1 0x0 DUP3 DUP3 MSTORE PUSH1 0x20 DUP3 ADD SWAP1 POP SWAP3 SWAP2 POP POP JUMP JUMPDEST PUSH32 0x537472696E67733A20686578206C656E67746820696E73756666696369656E74 PUSH1 0x0 DUP3 ADD MSTORE POP JUMP JUMPDEST PUSH1 0x0 PUSH2 0x811 PUSH1 0x20 DUP4 PUSH2 0x7CA JUMP JUMPDEST SWAP2 POP PUSH2 0x81C DUP3 PUSH2 0x7DB JUMP JUMPDEST PUSH1 0x20 DUP3 ADD SWAP1 POP SWAP2 SWAP1 POP JUMP JUMPDEST PUSH1 0x0 PUSH1 0x20 DUP3 ADD SWAP1 POP DUP2 DUP2 SUB PUSH1 0x0 DUP4 ADD MSTORE PUSH2 0x840 DUP2 PUSH2 0x804 JUMP JUMPDEST SWAP1 POP SWAP2 SWAP1 POP JUMP JUMPDEST PUSH1 0x0 PUSH2 0x852 DUP3 PUSH2 0x506 JUMP JUMPDEST SWAP2 POP PUSH32 0xFFFFFFFFFFFFFFFFFFFFFFFFFFFFFFFFFFFFFFFFFFFFFFFFFFFFFFFFFFFFFFFF DUP3 SUB PUSH2 0x884 JUMPI PUSH2 0x883 PUSH2 0x664 JUMP JUMPDEST JUMPDEST PUSH1 0x1 DUP3 ADD SWAP1 POP SWAP2 SWAP1 POP JUMP JUMPDEST PUSH32 0x4E487B7100000000000000000000000000000000000000000000000000000000 PUSH1 0x0 MSTORE PUSH1 0x12 PUSH1 0x4 MSTORE PUSH1 0x24 PUSH1 0x0 REVERT JUMPDEST PUSH1 0x0 PUSH2 0x8C9 DUP3 PUSH2 0x506 JUMP JUMPDEST SWAP2 POP PUSH2 0x8D4 DUP4 PUSH2 0x506 JUMP JUMPDEST SWAP3 POP DUP3 PUSH2 0x8E4 JUMPI PUSH2 0x8E3 PUSH2 0x88F JUMP JUMPDEST JUMPDEST DUP3 DUP3 DIV SWAP1 POP SWAP3 SWAP2 POP POP JUMP JUMPDEST PUSH1 0x0 PUSH2 0x8FA DUP3 PUSH2 0x506 JUMP JUMPDEST SWAP2 POP PUSH2 0x905 DUP4 PUSH2 0x506 JUMP JUMPDEST SWAP3 POP DUP3 DUP3 LT ISZERO PUSH2 0x918 JUMPI PUSH2 0x917 PUSH2 0x664 JUMP JUMPDEST JUMPDEST DUP3 DUP3 SUB SWAP1 POP SWAP3 SWAP2 POP POP JUMP JUMPDEST PUSH1 0x0 PUSH2 0x92E DUP3 PUSH2 0x506 JUMP JUMPDEST SWAP2 POP PUSH2 0x939 DUP4 PUSH2 0x506 JUMP JUMPDEST SWAP3 POP DUP3 PUSH2 0x949 JUMPI PUSH2 0x948 PUSH2 0x88F JUMP JUMPDEST JUMPDEST DUP3 DUP3 MOD SWAP1 POP SWAP3 SWAP2 POP POP JUMP INVALID LOG2 PUSH5 0x6970667358 0x22 SLT KECCAK256 0xA7 CALLCODE CALLDATALOAD 0xB0 SWAP7 0x4F OR SWAP1 0x5D 0x25 0xC7 0xAF SWAP8 PUSH2 0x5BBC 0xB0 0xC1 0x4D MOD 0xB5 PUSH21 0x487770AC34C52B8CEA9564736F6C634300080F0033 "
				},
				"gasEstimates": {
					"creation": {
						"codeDepositCost": "488400",
						"executionCost": "549",
						"totalCost": "488949"
					},
					"external": {
						"toHexString(uint256)": "infinite",
						"toHexString(uint256,uint256)": "infinite",
						"toString(uint256)": "infinite"
					}
				},
				"methodIdentifiers": {
					"toHexString(uint256)": "8fba8d5c",
					"toHexString(uint256,uint256)": "63e1cbea",
					"toString(uint256)": "6900a3ae"
				}
			},
			"storageLayout": {
				"storage": [],
				"types": null
			},
			"userdoc": {
				"kind": "user",
				"methods": {},
				"version": 1
			}
		}
	}
}