{
	"data": {
		"bytecode": {
			"linkReferences": {},
			"object": "60806040526000805534801561001457600080fd5b506101fc806100246000396000f3fe6080604052600436106100385760003560e01c806312065fe01461003b5780634018d9aa146100665780635197c7aa1461008257610039565b5b005b34801561004757600080fd5b506100506100ad565b60405161005d919061015c565b60405180910390f35b610080600480360381019061007b9190610120565b6100b5565b005b34801561008e57600080fd5b50610097610102565b6040516100a4919061015c565b60405180910390f35b600047905090565b8060008190555060003411156100ff577fbd0faddf87043dd749c1b9d4dca8a12589b8cb5e2106832111ce23f219b14367345a6040516100f6929190610177565b60405180910390a15b50565b60008054905090565b60008135905061011a816101af565b92915050565b600060208284031215610136576101356101aa565b5b60006101448482850161010b565b91505092915050565b610156816101a0565b82525050565b6000602082019050610171600083018461014d565b92915050565b600060408201905061018c600083018561014d565b610199602083018461014d565b9392505050565b6000819050919050565b600080fd5b6101b8816101a0565b81146101c357600080fd5b5056fea26469706673582212209519703506e8c8fc077e519a32c6d2b21a50e8d104a094cdd7b02585604b8ff364736f6c63430008070033",
			"opcodes": "PUSH1 0x80 PUSH1 0x40 MSTORE PUSH1 0x0 DUP1 SSTORE CALLVALUE DUP1 ISZERO PUSH2 0x14 JUMPI PUSH1 0x0 DUP1 REVERT JUMPDEST POP PUSH2 0x1FC DUP1 PUSH2 0x24 PUSH1 0x0 CODECOPY PUSH1 0x0 RETURN INVALID PUSH1 0x80 PUSH1 0x40 MSTORE PUSH1 0x4 CALLDATASIZE LT PUSH2 0x38 JUMPI PUSH1 0x0 CALLDATALOAD PUSH1 0xE0 SHR DUP1 PUSH4 0x12065FE0 EQ PUSH2 0x3B JUMPI DUP1 PUSH4 0x4018D9AA EQ PUSH2 0x66 JUMPI DUP1 PUSH4 0x5197C7AA EQ PUSH2 0x82 JUMPI PUSH2 0x39 JUMP JUMPDEST JUMPDEST STOP JUMPDEST CALLVALUE DUP1 ISZERO PUSH2 0x47 JUMPI PUSH1 0x0 DUP1 REVERT JUMPDEST POP PUSH2 0x50 PUSH2 0xAD JUMP JUMPDEST PUSH1 0x40 MLOAD PUSH2 0x5D SWAP2 SWAP1 PUSH2 0x15C JUMP JUMPDEST PUSH1 0x40 MLOAD DUP1 SWAP2 SUB SWAP1 RETURN JUMPDEST PUSH2 0x80 PUSH1 0x4 DUP1 CALLDATASIZE SUB DUP2 ADD SWAP1 PUSH2 0x7B SWAP2 SWAP1 PUSH2 0x120 JUMP JUMPDEST PUSH2 0xB5 JUMP JUMPDEST STOP JUMPDEST CALLVALUE DUP1 ISZERO PUSH2 0x8E JUMPI PUSH1 0x0 DUP1 REVERT JUMPDEST POP PUSH2 0x97 PUSH2 0x102 JUMP JUMPDEST PUSH1 0x40 MLOAD PUSH2 0xA4 SWAP2 SWAP1 PUSH2 0x15C JUMP JUMPDEST PUSH1 0x40 MLOAD DUP1 SWAP2 SUB SWAP1 RETURN JUMPDEST PUSH1 0x0 SELFBALANCE SWAP1 POP SWAP1 JUMP JUMPDEST DUP1 PUSH1 0x0 DUP2 SWAP1 SSTORE POP PUSH1 0x0 CALLVALUE GT ISZERO PUSH2 0xFF JUMPI PUSH32 0xBD0FADDF87043DD749C1B9D4DCA8A12589B8CB5E2106832111CE23F219B14367 CALLVALUE GAS PUSH1 0x40 MLOAD PUSH2 0xF6 SWAP3 SWAP2 SWAP1 PUSH2 0x177 JUMP JUMPDEST PUSH1 0x40 MLOAD DUP1 SWAP2 SUB SWAP1 LOG1 JUMPDEST POP JUMP JUMPDEST PUSH1 0x0 DUP1 SLOAD SWAP1 POP SWAP1 JUMP JUMPDEST PUSH1 0x0 DUP2 CALLDATALOAD SWAP1 POP PUSH2 0x11A DUP2 PUSH2 0x1AF JUMP JUMPDEST SWAP3 SWAP2 POP POP JUMP JUMPDEST PUSH1 0x0 PUSH1 0x20 DUP3 DUP5 SUB SLT ISZERO PUSH2 0x136 JUMPI PUSH2 0x135 PUSH2 0x1AA JUMP JUMPDEST JUMPDEST PUSH1 0x0 PUSH2 0x144 DUP5 DUP3 DUP6 ADD PUSH2 0x10B JUMP JUMPDEST SWAP2 POP POP SWAP3 SWAP2 POP POP JUMP JUMPDEST PUSH2 0x156 DUP2 PUSH2 0x1A0 JUMP JUMPDEST DUP3 MSTORE POP POP JUMP JUMPDEST PUSH1 0x0 PUSH1 0x20 DUP3 ADD SWAP1 POP PUSH2 0x171 PUSH1 0x0 DUP4 ADD DUP5 PUSH2 0x14D JUMP JUMPDEST SWAP3 SWAP2 POP POP JUMP JUMPDEST PUSH1 0x0 PUSH1 0x40 DUP3 ADD SWAP1 POP PUSH2 0x18C PUSH1 0x0 DUP4 ADD DUP6 PUSH2 0x14D JUMP JUMPDEST PUSH2 0x199 PUSH1 0x20 DUP4 ADD DUP5 PUSH2 0x14D JUMP JUMPDEST SWAP4 SWAP3 POP POP POP JUMP JUMPDEST PUSH1 0x0 DUP2 SWAP1 POP SWAP2 SWAP1 POP JUMP JUMPDEST PUSH1 0x0 DUP1 REVERT JUMPDEST PUSH2 0x1B8 DUP2 PUSH2 0x1A0 JUMP JUMPDEST DUP2 EQ PUSH2 0x1C3 JUMPI PUSH1 0x0 DUP1 REVERT JUMPDEST POP JUMP INVALID LOG2 PUSH5 0x6970667358 0x22 SLT KECCAK256 SWAP6 NOT PUSH17 0x3506E8C8FC077E519A32C6D2B21A50E8D1 DIV LOG0 SWAP5 0xCD 0xD7 0xB0 0x25 DUP6 PUSH1 0x4B DUP16 RETURN PUSH5 0x736F6C6343 STOP ADDMOD SMOD STOP CALLER "
		},
		"gasEstimates": {
			"creation": {
				"codeDepositCost": "101600",
				"executionCost": "5153",
				"totalCost": "106753"
			},
			"external": {
				"": "129",
				"getBalance()": "317",
				"getX()": "2459",
				"setX(uint256)": "infinite"
			}
		},
		"methodIdentifiers": {
			"getBalance()": "12065fe0",
			"getX()": "5197c7aa",
			"setX(uint256)": "4018d9aa"
		}
	},
	"abi": [
		{
			"anonymous": false,
			"inputs": [
				{
					"indexed": false,
					"internalType": "uint256",
					"name": "amount",
					"type": "uint256"
				},
				{
					"indexed": false,
					"internalType": "uint256",
					"name": "gas",
					"type": "uint256"
				}
			],
			"name": "Log",
			"type": "event"
		},
		{
			"stateMutability": "payable",
			"type": "fallback"
		},
		{
			"inputs": [],
			"name": "getBalance",
			"outputs": [
				{
					"internalType": "uint256",
					"name": "",
					"type": "uint256"
				}
			],
			"stateMutability": "view",
			"type": "function"
		},
		{
			"inputs": [],
			"name": "getX",
			"outputs": [
				{
					"internalType": "uint256",
					"name": "x",
					"type": "uint256"
				}
			],
			"stateMutability": "view",
			"type": "function"
		},
		{
			"inputs": [
				{
					"internalType": "uint256",
					"name": "x",
					"type": "uint256"
				}
			],
			"name": "setX",
			"outputs": [],
			"stateMutability": "payable",
			"type": "function"
		}
	]
}