{
	"data": {
		"bytecode": {
			"linkReferences": {},
			"object": "608060405234801561001057600080fd5b5061002d61002261003260201b60201c565b61003a60201b60201c565b6100fe565b600033905090565b60008060009054906101000a900473ffffffffffffffffffffffffffffffffffffffff169050816000806101000a81548173ffffffffffffffffffffffffffffffffffffffff021916908373ffffffffffffffffffffffffffffffffffffffff1602179055508173ffffffffffffffffffffffffffffffffffffffff168173ffffffffffffffffffffffffffffffffffffffff167f8be0079c531659141344cd1fd0a4f28419497f9722a3daafe3b4186f6b6457e060405160405180910390a35050565b614ec78061010d6000396000f3fe60806040523480156200001157600080fd5b5060043610620000525760003560e01c8063715018a614620000575780638da5cb5b1462000063578063f2fde38b1462000085578063f8d98c8a14620000a5575b600080fd5b62000061620000c5565b005b6200006d62000156565b6040516200007c919062000719565b60405180910390f35b620000a360048036038101906200009d91906200076c565b6200017f565b005b620000c36004803603810190620000bd91906200085b565b62000282565b005b620000cf620005fa565b73ffffffffffffffffffffffffffffffffffffffff16620000ef62000156565b73ffffffffffffffffffffffffffffffffffffffff161462000148576040517f08c379a00000000000000000000000000000000000000000000000000000000081526004016200013f90620009c9565b60405180910390fd5b62000154600062000602565b565b60008060009054906101000a900473ffffffffffffffffffffffffffffffffffffffff16905090565b62000189620005fa565b73ffffffffffffffffffffffffffffffffffffffff16620001a962000156565b73ffffffffffffffffffffffffffffffffffffffff161462000202576040517f08c379a0000000000000000000000000000000000000000000000000000000008152600401620001f990620009c9565b60405180910390fd5b600073ffffffffffffffffffffffffffffffffffffffff168173ffffffffffffffffffffffffffffffffffffffff160362000274576040517f08c379a00000000000000000000000000000000000000000000000000000000081526004016200026b9062000a61565b60405180910390fd5b6200027f8162000602565b50565b6200028c620005fa565b73ffffffffffffffffffffffffffffffffffffffff16620002ac62000156565b73ffffffffffffffffffffffffffffffffffffffff161462000305576040517f08c379a0000000000000000000000000000000000000000000000000000000008152600401620002fc90620009c9565b60405180910390fd5b60008b73ffffffffffffffffffffffffffffffffffffffff166318160ddd6040518163ffffffff1660e01b8152600401602060405180830381865afa15801562000353573d6000803e3d6000fd5b505050506040513d601f19601f8201168201806040525081019062000379919062000a9a565b10156200038557600080fd5b60008a73ffffffffffffffffffffffffffffffffffffffff166318160ddd6040518163ffffffff1660e01b8152600401602060405180830381865afa158015620003d3573d6000803e3d6000fd5b505050506040513d601f19601f82011682018060405250810190620003f9919062000a9a565b10156200040557600080fd5b8973ffffffffffffffffffffffffffffffffffffffff168b73ffffffffffffffffffffffffffffffffffffffff160362000476576040517f08c379a00000000000000000000000000000000000000000000000000000000081526004016200046d9062000b1c565b60405180910390fd5b6000604051806020016200048a90620006c6565b6020820181038252601f19601f82011660405250905080858585604051602001620004b89392919062000b60565b604051602081830303815290604052604051602001620004da92919062000c20565b604051602081830303815290604052905060008c8c8b604051602001620005049392919062000d17565b6040516020818303038152906040528051906020012090506000818351602085016000f590508073ffffffffffffffffffffffffffffffffffffffff16632aa2c3818f8f8f8f8f8f8f8c6040518963ffffffff1660e01b81526004016200057398979695949392919062000d6b565b600060405180830381600087803b1580156200058e57600080fd5b505af1158015620005a3573d6000803e3d6000fd5b505050508073ffffffffffffffffffffffffffffffffffffffff167fe0d103a92c6ff6c4aceb49d436f4028e0deb4884fdbcb9f32b03045eabb44a6c60405160405180910390a25050505050505050505050505050565b600033905090565b60008060009054906101000a900473ffffffffffffffffffffffffffffffffffffffff169050816000806101000a81548173ffffffffffffffffffffffffffffffffffffffff021916908373ffffffffffffffffffffffffffffffffffffffff1602179055508173ffffffffffffffffffffffffffffffffffffffff168173ffffffffffffffffffffffffffffffffffffffff167f8be0079c531659141344cd1fd0a4f28419497f9722a3daafe3b4186f6b6457e060405160405180910390a35050565b6140988062000dfa83390190565b600073ffffffffffffffffffffffffffffffffffffffff82169050919050565b60006200070182620006d4565b9050919050565b6200071381620006f4565b82525050565b600060208201905062000730600083018462000708565b92915050565b600080fd5b6200074681620006f4565b81146200075257600080fd5b50565b60008135905062000766816200073b565b92915050565b60006020828403121562000785576200078462000736565b5b6000620007958482850162000755565b91505092915050565b6000620007ab82620006f4565b9050919050565b620007bd816200079e565b8114620007c957600080fd5b50565b600081359050620007dd81620007b2565b92915050565b6000819050919050565b620007f881620007e3565b81146200080457600080fd5b50565b6000813590506200081881620007ed565b92915050565b60008115159050919050565b62000835816200081e565b81146200084157600080fd5b50565b60008135905062000855816200082a565b92915050565b60008060008060008060008060008060006101608c8e03121562000884576200088362000736565b5b6000620008948e828f01620007cc565b9b50506020620008a78e828f01620007cc565b9a50506040620008ba8e828f0162000807565b9950506060620008cd8e828f0162000807565b9850506080620008e08e828f0162000807565b97505060a0620008f38e828f0162000807565b96505060c0620009068e828f0162000807565b95505060e0620009198e828f0162000755565b9450506101006200092d8e828f0162000844565b935050610120620009418e828f0162000807565b925050610140620009558e828f0162000755565b9150509295989b509295989b9093969950565b600082825260208201905092915050565b7f4f776e61626c653a2063616c6c6572206973206e6f7420746865206f776e6572600082015250565b6000620009b160208362000968565b9150620009be8262000979565b602082019050919050565b60006020820190508181036000830152620009e481620009a2565b9050919050565b7f4f776e61626c653a206e6577206f776e657220697320746865207a65726f206160008201527f6464726573730000000000000000000000000000000000000000000000000000602082015250565b600062000a4960268362000968565b915062000a5682620009eb565b604082019050919050565b6000602082019050818103600083015262000a7c8162000a3a565b9050919050565b60008151905062000a9481620007ed565b92915050565b60006020828403121562000ab35762000ab262000736565b5b600062000ac38482850162000a83565b91505092915050565b7f546f6b656e73206d75737420626520626520646966666572656e740000000000600082015250565b600062000b04601b8362000968565b915062000b118262000acc565b602082019050919050565b6000602082019050818103600083015262000b378162000af5565b9050919050565b62000b49816200081e565b82525050565b62000b5a81620007e3565b82525050565b600060608201905062000b77600083018662000708565b62000b86602083018562000b3e565b62000b95604083018462000b4f565b949350505050565b600081519050919050565b600081905092915050565b60005b8381101562000bd357808201518184015260208101905062000bb6565b8381111562000be3576000848401525b50505050565b600062000bf68262000b9d565b62000c02818562000ba8565b935062000c1481856020860162000bb3565b80840191505092915050565b600062000c2e828562000be9565b915062000c3c828462000be9565b91508190509392505050565b6000819050919050565b600062000c7362000c6d62000c6784620006d4565b62000c48565b620006d4565b9050919050565b600062000c878262000c52565b9050919050565b600062000c9b8262000c7a565b9050919050565b60008160601b9050919050565b600062000cbc8262000ca2565b9050919050565b600062000cd08262000caf565b9050919050565b62000cec62000ce68262000c8e565b62000cc3565b82525050565b6000819050919050565b62000d1162000d0b82620007e3565b62000cf2565b82525050565b600062000d25828662000cd7565b60148201915062000d37828562000cd7565b60148201915062000d49828462000cfc565b602082019150819050949350505050565b62000d658162000c8e565b82525050565b60006101008201905062000d83600083018b62000d5a565b62000d92602083018a62000d5a565b62000da1604083018962000b4f565b62000db0606083018862000b4f565b62000dbf608083018762000b4f565b62000dce60a083018662000b4f565b62000ddd60c083018562000b4f565b62000dec60e083018462000708565b999850505050505050505056fe60c06040523480156200001157600080fd5b506040516200409838038062004098833981810160405281019062000037919062000337565b620000576200004b6200017a60201b60201c565b6200018260201b60201c565b600180819055503373ffffffffffffffffffffffffffffffffffffffff1660808173ffffffffffffffffffffffffffffffffffffffff16815250508273ffffffffffffffffffffffffffffffffffffffff1663aee2f47f60016040518263ffffffff1660e01b8152600401620000ce9190620003e0565b600060405180830381865afa158015620000ec573d6000803e3d6000fd5b505050506040513d6000823e3d601f19601f8201168201806040525081019062000117919062000586565b50505050508273ffffffffffffffffffffffffffffffffffffffff1660a08173ffffffffffffffffffffffffffffffffffffffff168152505081600960006101000a81548160ff02191690831515021790555080600a819055505050506200064c565b600033905090565b60008060009054906101000a900473ffffffffffffffffffffffffffffffffffffffff169050816000806101000a81548173ffffffffffffffffffffffffffffffffffffffff021916908373ffffffffffffffffffffffffffffffffffffffff1602179055508173ffffffffffffffffffffffffffffffffffffffff168173ffffffffffffffffffffffffffffffffffffffff167f8be0079c531659141344cd1fd0a4f28419497f9722a3daafe3b4186f6b6457e060405160405180910390a35050565b6000604051905090565b600080fd5b600080fd5b600073ffffffffffffffffffffffffffffffffffffffff82169050919050565b600062000287826200025a565b9050919050565b62000299816200027a565b8114620002a557600080fd5b50565b600081519050620002b9816200028e565b92915050565b60008115159050919050565b620002d681620002bf565b8114620002e257600080fd5b50565b600081519050620002f681620002cb565b92915050565b6000819050919050565b6200031181620002fc565b81146200031d57600080fd5b50565b600081519050620003318162000306565b92915050565b60008060006060848603121562000353576200035262000250565b5b60006200036386828701620002a8565b93505060206200037686828701620002e5565b9250506040620003898682870162000320565b9150509250925092565b6000819050919050565b6000819050919050565b6000620003c8620003c2620003bc8462000393565b6200039d565b620002fc565b9050919050565b620003da81620003a7565b82525050565b6000602082019050620003f76000830184620003cf565b92915050565b600080fd5b600080fd5b6000601f19601f8301169050919050565b7f4e487b7100000000000000000000000000000000000000000000000000000000600052604160045260246000fd5b620004528262000407565b810181811067ffffffffffffffff8211171562000474576200047362000418565b5b80604052505050565b60006200048962000246565b905062000497828262000447565b919050565b600067ffffffffffffffff821115620004ba57620004b962000418565b5b620004c58262000407565b9050602081019050919050565b60005b83811015620004f2578082015181840152602081019050620004d5565b8381111562000502576000848401525b50505050565b60006200051f62000519846200049c565b6200047d565b9050828152602081018484840111156200053e576200053d62000402565b5b6200054b848285620004d2565b509392505050565b600082601f8301126200056b576200056a620003fd565b5b81516200057d84826020860162000508565b91505092915050565b600080600080600060a08688031215620005a557620005a462000250565b5b600086015167ffffffffffffffff811115620005c657620005c562000255565b5b620005d48882890162000553565b955050602086015167ffffffffffffffff811115620005f857620005f762000255565b5b620006068882890162000553565b9450506040620006198882890162000320565b93505060606200062c8882890162000320565b92505060806200063f88828901620002e5565b9150509295509295909350565b60805160a051613a116200068760003960008181611680015281816117660152611aaa0152600081816107360152611a860152613a116000f3fe608060405234801561001057600080fd5b50600436106101fb5760003560e01c80638ae39cac1161011a578063b6b55f25116100ad578063ccd34cd51161007c578063ccd34cd514610521578063db2e21bc1461053f578063f2fde38b14610549578063f40f0f5214610565578063f7c618c114610595576101fb565b8063b6b55f25146104ab578063bd617191146104c7578063c7d936ec146104e5578063cc7a262e14610503576101fb565b80639513997f116100e95780639513997f146104395780639be65a6014610455578063a0b4090514610471578063a9f8d1811461048d576101fb565b80638ae39cac146103c15780638da5cb5b146103df5780638f662915146103fd57806392e8990e1461041b576101fb565b806348cd4cb11161019257806368109631116101615780636810963114610373578063715018a61461038f57806380dc0672146103995780638ad1071b146103a3576101fb565b806348cd4cb1146102fb5780634a7c01ec146103195780635a0b5f341461033757806366fe9f8a14610355576101fb565b80632aa2c381116101ce5780632aa2c381146102895780632e1a7d4d146102a55780633279beab146102c1578063392e53cd146102dd576101fb565b806301f8a976146102005780630ace62471461021c5780631959a0021461023a5780631aed65531461026b575b600080fd5b61021a60048036038101906102159190612511565b6105b3565b005b6102246106b4565b604051610231919061254d565b60405180910390f35b610254600480360381019061024f91906125c6565b6106ba565b6040516102629291906125f3565b60405180910390f35b6102736106de565b604051610280919061254d565b60405180910390f35b6102a3600480360381019061029e919061265a565b6106e4565b005b6102bf60048036038101906102ba9190612511565b6109be565b005b6102db60048036038101906102d69190612511565b610c16565b005b6102e5610ce2565b6040516102f2919061272b565b60405180910390f35b610303610cf5565b604051610310919061254d565b60405180910390f35b610321610cfb565b60405161032e919061272b565b60405180910390f35b61033f610d0e565b60405161034c919061272b565b60405180910390f35b61035d610d21565b60405161036a919061254d565b60405180910390f35b61038d60048036038101906103889190612772565b610d27565b005b610397610e45565b005b6103a1610ecd565b005b6103ab610f52565b6040516103b8919061254d565b60405180910390f35b6103c9610f58565b6040516103d6919061254d565b60405180910390f35b6103e7610f5e565b6040516103f491906127c1565b60405180910390f35b610405610f87565b604051610412919061254d565b60405180910390f35b610423610f8d565b604051610430919061272b565b60405180910390f35b610453600480360381019061044e91906127dc565b610fd0565b005b61046f600480360381019061046a91906125c6565b611168565b005b61048b60048036038101906104869190612772565b611442565b005b6104956115c3565b6040516104a2919061254d565b60405180910390f35b6104c560048036038101906104c09190612511565b6115c9565b005b6104cf611a84565b6040516104dc91906127c1565b60405180910390f35b6104ed611aa8565b6040516104fa919061287b565b60405180910390f35b61050b611acc565b60405161051891906128b7565b60405180910390f35b610529611af2565b604051610536919061254d565b60405180910390f35b610547611af8565b005b610563600480360381019061055e91906125c6565b611c59565b005b61057f600480360381019061057a91906125c6565b611d50565b60405161058c919061254d565b60405180910390f35b61059d611f07565b6040516105aa91906128b7565b60405180910390f35b6105bb611f2d565b73ffffffffffffffffffffffffffffffffffffffff166105d9610f5e565b73ffffffffffffffffffffffffffffffffffffffff161461062f576040517f08c379a00000000000000000000000000000000000000000000000000000000081526004016106269061292f565b60405180910390fd5b6005544310610673576040517f08c379a000000000000000000000000000000000000000000000000000000000815260040161066a9061299b565b60405180910390fd5b80600b819055507f0c4d677eef92893ac7ec52faf8140fc6c851ab4736302b4f3a89dfb20696a0df816040516106a9919061254d565b60405180910390a150565b600a5481565b600f6020528060005260406000206000915090508060000154908060010154905082565b60045481565b600260019054906101000a900460ff1615610734576040517f08c379a000000000000000000000000000000000000000000000000000000000815260040161072b90612a07565b60405180910390fd5b7f000000000000000000000000000000000000000000000000000000000000000073ffffffffffffffffffffffffffffffffffffffff163373ffffffffffffffffffffffffffffffffffffffff16146107c2576040517f08c379a00000000000000000000000000000000000000000000000000000000081526004016107b990612a73565b60405180910390fd5b6001600260016101000a81548160ff02191690831515021790555087600e60006101000a81548173ffffffffffffffffffffffffffffffffffffffff021916908373ffffffffffffffffffffffffffffffffffffffff16021790555086600d60006101000a81548173ffffffffffffffffffffffffffffffffffffffff021916908373ffffffffffffffffffffffffffffffffffffffff16021790555085600b81905550846005819055508360048190555060008311156108a7576001600260006101000a81548160ff02191690831515021790555082600781905550816008819055505b6000600d60009054906101000a900473ffffffffffffffffffffffffffffffffffffffff1673ffffffffffffffffffffffffffffffffffffffff1663313ce5676040518163ffffffff1660e01b8152600401602060405180830381865afa158015610916573d6000803e3d6000fd5b505050506040513d601f19601f8201168201806040525081019061093a9190612acc565b60ff169050601e8110610982576040517f08c379a000000000000000000000000000000000000000000000000000000000815260040161097990612b45565b60405180910390fd5b80601e61098f9190612b94565b600a61099b9190612cfb565b600c819055506005546006819055506109b382611c59565b505050505050505050565b600260015403610a03576040517f08c379a00000000000000000000000000000000000000000000000000000000081526004016109fa90612d92565b60405180910390fd5b60026001819055506000600f60003373ffffffffffffffffffffffffffffffffffffffff1673ffffffffffffffffffffffffffffffffffffffff16815260200190815260200160002090508181600001541015610a95576040517f08c379a0000000000000000000000000000000000000000000000000000000008152600401610a8c90612dfe565b60405180910390fd5b610a9d611f35565b60008160010154600c546003548460000154610ab99190612e1e565b610ac39190612ea7565b610acd9190612b94565b90506000831115610b3e57828260000154610ae89190612b94565b8260000181905550610b3d3384600e60009054906101000a900473ffffffffffffffffffffffffffffffffffffffff1673ffffffffffffffffffffffffffffffffffffffff1661204f9092919063ffffffff16565b5b6000811115610b9557610b943382600d60009054906101000a900473ffffffffffffffffffffffffffffffffffffffff1673ffffffffffffffffffffffffffffffffffffffff1661204f9092919063ffffffff16565b5b600c546003548360000154610baa9190612e1e565b610bb49190612ea7565b82600101819055503373ffffffffffffffffffffffffffffffffffffffff167f884edad9ce6fa2440d8a54cc123490eb96d2768479d49ff9c7366125a942436484604051610c02919061254d565b60405180910390a250506001808190555050565b610c1e611f2d565b73ffffffffffffffffffffffffffffffffffffffff16610c3c610f5e565b73ffffffffffffffffffffffffffffffffffffffff1614610c92576040517f08c379a0000000000000000000000000000000000000000000000000000000008152600401610c899061292f565b60405180910390fd5b610cdf3382600d60009054906101000a900473ffffffffffffffffffffffffffffffffffffffff1673ffffffffffffffffffffffffffffffffffffffff1661204f9092919063ffffffff16565b50565b600260019054906101000a900460ff1681565b60055481565b600260009054906101000a900460ff1681565b600960009054906101000a900460ff1681565b60075481565b610d2f611f2d565b73ffffffffffffffffffffffffffffffffffffffff16610d4d610f5e565b73ffffffffffffffffffffffffffffffffffffffff1614610da3576040517f08c379a0000000000000000000000000000000000000000000000000000000008152600401610d9a9061292f565b60405180910390fd5b6000811015610de7576040517f08c379a0000000000000000000000000000000000000000000000000000000008152600401610dde90612f4a565b60405180910390fd5b81600960006101000a81548160ff02191690831515021790555080600a819055507f915d08e0e89c58e352d7c1d66c942cb15dac8a7294d2ca80ddf46f1998f0512b8282604051610e39929190612f6a565b60405180910390a15050565b610e4d611f2d565b73ffffffffffffffffffffffffffffffffffffffff16610e6b610f5e565b73ffffffffffffffffffffffffffffffffffffffff1614610ec1576040517f08c379a0000000000000000000000000000000000000000000000000000000008152600401610eb89061292f565b60405180910390fd5b610ecb60006120d5565b565b610ed5611f2d565b73ffffffffffffffffffffffffffffffffffffffff16610ef3610f5e565b73ffffffffffffffffffffffffffffffffffffffff1614610f49576040517f08c379a0000000000000000000000000000000000000000000000000000000008152600401610f409061292f565b60405180910390fd5b43600481905550565b60085481565b600b5481565b60008060009054906101000a900473ffffffffffffffffffffffffffffffffffffffff16905090565b60035481565b6000600260009054906101000a900460ff161580610fba5750600854600554610fb69190612f93565b4310155b15610fc85760009050610fcd565b600190505b90565b610fd8611f2d565b73ffffffffffffffffffffffffffffffffffffffff16610ff6610f5e565b73ffffffffffffffffffffffffffffffffffffffff161461104c576040517f08c379a00000000000000000000000000000000000000000000000000000000081526004016110439061292f565b60405180910390fd5b6005544310611090576040517f08c379a00000000000000000000000000000000000000000000000000000000081526004016110879061299b565b60405180910390fd5b8082106110d2576040517f08c379a00000000000000000000000000000000000000000000000000000000081526004016110c99061305b565b60405180910390fd5b814310611114576040517f08c379a000000000000000000000000000000000000000000000000000000000815260040161110b906130ed565b60405180910390fd5b81600581905550806004819055506005546006819055507f7cd0ab87d19036f3dfadadb232c78aa4879dda3f0c994a9d637532410ee2ce06828260405161115c9291906125f3565b60405180910390a15050565b611170611f2d565b73ffffffffffffffffffffffffffffffffffffffff1661118e610f5e565b73ffffffffffffffffffffffffffffffffffffffff16146111e4576040517f08c379a00000000000000000000000000000000000000000000000000000000081526004016111db9061292f565b60405180910390fd5b600e60009054906101000a900473ffffffffffffffffffffffffffffffffffffffff1673ffffffffffffffffffffffffffffffffffffffff168173ffffffffffffffffffffffffffffffffffffffff1603611274576040517f08c379a000000000000000000000000000000000000000000000000000000000815260040161126b9061317f565b60405180910390fd5b600d60009054906101000a900473ffffffffffffffffffffffffffffffffffffffff1673ffffffffffffffffffffffffffffffffffffffff168173ffffffffffffffffffffffffffffffffffffffff1603611304576040517f08c379a00000000000000000000000000000000000000000000000000000000081526004016112fb90613211565b60405180910390fd5b60008173ffffffffffffffffffffffffffffffffffffffff166370a08231306040518263ffffffff1660e01b815260040161133f91906127c1565b602060405180830381865afa15801561135c573d6000803e3d6000fd5b505050506040513d601f19601f820116820180604052508101906113809190613246565b9050600081036113c5576040517f08c379a00000000000000000000000000000000000000000000000000000000081526004016113bc906132e5565b60405180910390fd5b6113f033828473ffffffffffffffffffffffffffffffffffffffff1661204f9092919063ffffffff16565b8173ffffffffffffffffffffffffffffffffffffffff167f14f11966a996e0629572e51064726d2057a80fbd34efc066682c06a71dbb6e9882604051611436919061254d565b60405180910390a25050565b61144a611f2d565b73ffffffffffffffffffffffffffffffffffffffff16611468610f5e565b73ffffffffffffffffffffffffffffffffffffffff16146114be576040517f08c379a00000000000000000000000000000000000000000000000000000000081526004016114b59061292f565b60405180910390fd5b600260009054906101000a900460ff1661150d576040517f08c379a000000000000000000000000000000000000000000000000000000000815260040161150490613351565b60405180910390fd5b8115611563576007548111611557576040517f08c379a000000000000000000000000000000000000000000000000000000000815260040161154e906133bd565b60405180910390fd5b80600781905550611586565b81600260006101000a81548160ff02191690831515021790555060006007819055505b7f241f67ee5f41b7a5cabf911367329be7215900f602ebfc47f89dce2a6bcd847c6007546040516115b7919061254d565b60405180910390a15050565b60065481565b60026001540361160e576040517f08c379a000000000000000000000000000000000000000000000000000000000815260040161160590612d92565b60405180910390fd5b60026001819055506000600f60003373ffffffffffffffffffffffffffffffffffffffff1673ffffffffffffffffffffffffffffffffffffffff1681526020019081526020016000209050600960009054906101000a900460ff1615801561167857506000600a54145b8061171957507f000000000000000000000000000000000000000000000000000000000000000073ffffffffffffffffffffffffffffffffffffffff1663ea0d5dcd336040518263ffffffff1660e01b81526004016116d791906127c1565b602060405180830381865afa1580156116f4573d6000803e3d6000fd5b505050506040513d601f19601f8201168201806040525081019061171891906133f2565b5b611758576040517f08c379a000000000000000000000000000000000000000000000000000000000815260040161174f90613491565b60405180910390fd5b600080600a541115611813577f000000000000000000000000000000000000000000000000000000000000000073ffffffffffffffffffffffffffffffffffffffff1663987ee156336040518263ffffffff1660e01b81526004016117bd91906127c1565b60c060405180830381865afa1580156117da573d6000803e3d6000fd5b505050506040513d601f19601f820116820180604052508101906117fe91906134c6565b90919293945090919250909150905050809150505b6000600a5414806118265750600a548110155b611865576040517f08c379a000000000000000000000000000000000000000000000000000000000815260040161185c906135c5565b60405180910390fd5b61186d610f8d565b600260006101000a81548160ff021916908315150217905550600260009054906101000a900460ff1615806118b357506007548260000154846118b09190612f93565b11155b6118f2576040517f08c379a00000000000000000000000000000000000000000000000000000000081526004016118e990613631565b60405180910390fd5b6118fa611f35565b6000826000015411156119925760008260010154600c5460035485600001546119239190612e1e565b61192d9190612ea7565b6119379190612b94565b905060008111156119905761198f3382600d60009054906101000a900473ffffffffffffffffffffffffffffffffffffffff1673ffffffffffffffffffffffffffffffffffffffff1661204f9092919063ffffffff16565b5b505b6000831115611a03578282600001546119ab9190612f93565b8260000181905550611a02333085600e60009054906101000a900473ffffffffffffffffffffffffffffffffffffffff1673ffffffffffffffffffffffffffffffffffffffff16612199909392919063ffffffff16565b5b600c546003548360000154611a189190612e1e565b611a229190612ea7565b82600101819055503373ffffffffffffffffffffffffffffffffffffffff167fe1fffcc4923d04b559f4d29a8bfc6cda04eb5b0d3c460751c2402c5c5cc9109c84604051611a70919061254d565b60405180910390a250506001808190555050565b7f000000000000000000000000000000000000000000000000000000000000000081565b7f000000000000000000000000000000000000000000000000000000000000000081565b600e60009054906101000a900473ffffffffffffffffffffffffffffffffffffffff1681565b600c5481565b600260015403611b3d576040517f08c379a0000000000000000000000000000000000000000000000000000000008152600401611b3490612d92565b60405180910390fd5b60026001819055506000600f60003373ffffffffffffffffffffffffffffffffffffffff1673ffffffffffffffffffffffffffffffffffffffff168152602001908152602001600020905060008160000154905060008260000181905550600082600101819055506000811115611bfc57611bfb3382600e60009054906101000a900473ffffffffffffffffffffffffffffffffffffffff1673ffffffffffffffffffffffffffffffffffffffff1661204f9092919063ffffffff16565b5b3373ffffffffffffffffffffffffffffffffffffffff167f5fafa99d0643513820be26656b45130b01e1c03062e1266bf36f88cbd3bd96958360000154604051611c46919061254d565b60405180910390a2505060018081905550565b611c61611f2d565b73ffffffffffffffffffffffffffffffffffffffff16611c7f610f5e565b73ffffffffffffffffffffffffffffffffffffffff1614611cd5576040517f08c379a0000000000000000000000000000000000000000000000000000000008152600401611ccc9061292f565b60405180910390fd5b600073ffffffffffffffffffffffffffffffffffffffff168173ffffffffffffffffffffffffffffffffffffffff1603611d44576040517f08c379a0000000000000000000000000000000000000000000000000000000008152600401611d3b906136c3565b60405180910390fd5b611d4d816120d5565b50565b600080600f60008473ffffffffffffffffffffffffffffffffffffffff1673ffffffffffffffffffffffffffffffffffffffff16815260200190815260200160002090506000600e60009054906101000a900473ffffffffffffffffffffffffffffffffffffffff1673ffffffffffffffffffffffffffffffffffffffff166370a08231306040518263ffffffff1660e01b8152600401611df191906127c1565b602060405180830381865afa158015611e0e573d6000803e3d6000fd5b505050506040513d601f19601f82011682018060405250810190611e329190613246565b905060065443118015611e46575060008114155b15611ecf576000611e5960065443612222565b90506000600b5482611e6b9190612e1e565b9050600083600c5483611e7e9190612e1e565b611e889190612ea7565b600354611e959190612f93565b90508460010154600c54828760000154611eaf9190612e1e565b611eb99190612ea7565b611ec39190612b94565b95505050505050611f02565b8160010154600c546003548460000154611ee99190612e1e565b611ef39190612ea7565b611efd9190612b94565b925050505b919050565b600d60009054906101000a900473ffffffffffffffffffffffffffffffffffffffff1681565b600033905090565b60065443111561204d576000600e60009054906101000a900473ffffffffffffffffffffffffffffffffffffffff1673ffffffffffffffffffffffffffffffffffffffff166370a08231306040518263ffffffff1660e01b8152600401611f9c91906127c1565b602060405180830381865afa158015611fb9573d6000803e3d6000fd5b505050506040513d601f19601f82011682018060405250810190611fdd9190613246565b905060008103611ff457436006819055505061204d565b600061200260065443612222565b90506000600b54826120149190612e1e565b905082600c54826120259190612e1e565b61202f9190612ea7565b60035461203c9190612f93565b600381905550436006819055505050505b565b6120d08363a9059cbb60e01b848460405160240161206e9291906136e3565b604051602081830303815290604052907bffffffffffffffffffffffffffffffffffffffffffffffffffffffff19166020820180517bffffffffffffffffffffffffffffffffffffffffffffffffffffffff8381831617835250505050612269565b505050565b60008060009054906101000a900473ffffffffffffffffffffffffffffffffffffffff169050816000806101000a81548173ffffffffffffffffffffffffffffffffffffffff021916908373ffffffffffffffffffffffffffffffffffffffff1602179055508173ffffffffffffffffffffffffffffffffffffffff168173ffffffffffffffffffffffffffffffffffffffff167f8be0079c531659141344cd1fd0a4f28419497f9722a3daafe3b4186f6b6457e060405160405180910390a35050565b61221c846323b872dd60e01b8585856040516024016121ba9392919061370c565b604051602081830303815290604052907bffffffffffffffffffffffffffffffffffffffffffffffffffffffff19166020820180517bffffffffffffffffffffffffffffffffffffffffffffffffffffffff8381831617835250505050612269565b50505050565b600060045482116122405782826122399190612b94565b9050612263565b60045483106122525760009050612263565b826004546122609190612b94565b90505b92915050565b60006122cb826040518060400160405280602081526020017f5361666545524332303a206c6f772d6c6576656c2063616c6c206661696c65648152508573ffffffffffffffffffffffffffffffffffffffff166123309092919063ffffffff16565b905060008151111561232b57808060200190518101906122eb91906133f2565b61232a576040517f08c379a0000000000000000000000000000000000000000000000000000000008152600401612321906137b5565b60405180910390fd5b5b505050565b606061233f8484600085612348565b90509392505050565b60608247101561238d576040517f08c379a000000000000000000000000000000000000000000000000000000000815260040161238490613847565b60405180910390fd5b6123968561245c565b6123d5576040517f08c379a00000000000000000000000000000000000000000000000000000000081526004016123cc906138b3565b60405180910390fd5b6000808673ffffffffffffffffffffffffffffffffffffffff1685876040516123fe919061394d565b60006040518083038185875af1925050503d806000811461243b576040519150601f19603f3d011682016040523d82523d6000602084013e612440565b606091505b509150915061245082828661246f565b92505050949350505050565b600080823b905060008111915050919050565b6060831561247f578290506124cf565b6000835111156124925782518084602001fd5b816040517f08c379a00000000000000000000000000000000000000000000000000000000081526004016124c691906139b9565b60405180910390fd5b9392505050565b600080fd5b6000819050919050565b6124ee816124db565b81146124f957600080fd5b50565b60008135905061250b816124e5565b92915050565b600060208284031215612527576125266124d6565b5b6000612535848285016124fc565b91505092915050565b612547816124db565b82525050565b6000602082019050612562600083018461253e565b92915050565b600073ffffffffffffffffffffffffffffffffffffffff82169050919050565b600061259382612568565b9050919050565b6125a381612588565b81146125ae57600080fd5b50565b6000813590506125c08161259a565b92915050565b6000602082840312156125dc576125db6124d6565b5b60006125ea848285016125b1565b91505092915050565b6000604082019050612608600083018561253e565b612615602083018461253e565b9392505050565b600061262782612588565b9050919050565b6126378161261c565b811461264257600080fd5b50565b6000813590506126548161262e565b92915050565b600080600080600080600080610100898b03121561267b5761267a6124d6565b5b60006126898b828c01612645565b985050602061269a8b828c01612645565b97505060406126ab8b828c016124fc565b96505060606126bc8b828c016124fc565b95505060806126cd8b828c016124fc565b94505060a06126de8b828c016124fc565b93505060c06126ef8b828c016124fc565b92505060e06127008b828c016125b1565b9150509295985092959890939650565b60008115159050919050565b61272581612710565b82525050565b6000602082019050612740600083018461271c565b92915050565b61274f81612710565b811461275a57600080fd5b50565b60008135905061276c81612746565b92915050565b60008060408385031215612789576127886124d6565b5b60006127978582860161275d565b92505060206127a8858286016124fc565b9150509250929050565b6127bb81612588565b82525050565b60006020820190506127d660008301846127b2565b92915050565b600080604083850312156127f3576127f26124d6565b5b6000612801858286016124fc565b9250506020612812858286016124fc565b9150509250929050565b6000819050919050565b600061284161283c61283784612568565b61281c565b612568565b9050919050565b600061285382612826565b9050919050565b600061286582612848565b9050919050565b6128758161285a565b82525050565b6000602082019050612890600083018461286c565b92915050565b60006128a182612848565b9050919050565b6128b181612896565b82525050565b60006020820190506128cc60008301846128a8565b92915050565b600082825260208201905092915050565b7f4f776e61626c653a2063616c6c6572206973206e6f7420746865206f776e6572600082015250565b60006129196020836128d2565b9150612924826128e3565b602082019050919050565b600060208201905081810360008301526129488161290c565b9050919050565b7f506f6f6c20686173207374617274656400000000000000000000000000000000600082015250565b60006129856010836128d2565b91506129908261294f565b602082019050919050565b600060208201905081810360008301526129b481612978565b9050919050565b7f416c726561647920696e697469616c697a656400000000000000000000000000600082015250565b60006129f16013836128d2565b91506129fc826129bb565b602082019050919050565b60006020820190508181036000830152612a20816129e4565b9050919050565b7f4e6f7420666163746f7279000000000000000000000000000000000000000000600082015250565b6000612a5d600b836128d2565b9150612a6882612a27565b602082019050919050565b60006020820190508181036000830152612a8c81612a50565b9050919050565b600060ff82169050919050565b612aa981612a93565b8114612ab457600080fd5b50565b600081519050612ac681612aa0565b92915050565b600060208284031215612ae257612ae16124d6565b5b6000612af084828501612ab7565b91505092915050565b7f4d757374206265206c657373207468616e203330000000000000000000000000600082015250565b6000612b2f6014836128d2565b9150612b3a82612af9565b602082019050919050565b60006020820190508181036000830152612b5e81612b22565b9050919050565b7f4e487b7100000000000000000000000000000000000000000000000000000000600052601160045260246000fd5b6000612b9f826124db565b9150612baa836124db565b925082821015612bbd57612bbc612b65565b5b828203905092915050565b60008160011c9050919050565b6000808291508390505b6001851115612c1f57808604811115612bfb57612bfa612b65565b5b6001851615612c0a5780820291505b8081029050612c1885612bc8565b9450612bdf565b94509492505050565b600082612c385760019050612cf4565b81612c465760009050612cf4565b8160018114612c5c5760028114612c6657612c95565b6001915050612cf4565b60ff841115612c7857612c77612b65565b5b8360020a915084821115612c8f57612c8e612b65565b5b50612cf4565b5060208310610133831016604e8410600b8410161715612cca5782820a905083811115612cc557612cc4612b65565b5b612cf4565b612cd78484846001612bd5565b92509050818404811115612cee57612ced612b65565b5b81810290505b9392505050565b6000612d06826124db565b9150612d11836124db565b9250612d3e7fffffffffffffffffffffffffffffffffffffffffffffffffffffffffffffffff8484612c28565b905092915050565b7f5265656e7472616e637947756172643a207265656e7472616e742063616c6c00600082015250565b6000612d7c601f836128d2565b9150612d8782612d46565b602082019050919050565b60006020820190508181036000830152612dab81612d6f565b9050919050565b7f416d6f756e7420746f20776974686472617720746f6f20686967680000000000600082015250565b6000612de8601b836128d2565b9150612df382612db2565b602082019050919050565b60006020820190508181036000830152612e1781612ddb565b9050919050565b6000612e29826124db565b9150612e34836124db565b9250817fffffffffffffffffffffffffffffffffffffffffffffffffffffffffffffffff0483118215151615612e6d57612e6c612b65565b5b828202905092915050565b7f4e487b7100000000000000000000000000000000000000000000000000000000600052601260045260246000fd5b6000612eb2826124db565b9150612ebd836124db565b925082612ecd57612ecc612e78565b5b828204905092915050565b7f5468726573686f6c6420706f696e7473206e65656420746f206578636565642060008201527f3000000000000000000000000000000000000000000000000000000000000000602082015250565b6000612f346021836128d2565b9150612f3f82612ed8565b604082019050919050565b60006020820190508181036000830152612f6381612f27565b9050919050565b6000604082019050612f7f600083018561271c565b612f8c602083018461253e565b9392505050565b6000612f9e826124db565b9150612fa9836124db565b9250827fffffffffffffffffffffffffffffffffffffffffffffffffffffffffffffffff03821115612fde57612fdd612b65565b5b828201905092915050565b7f4e6577207374617274426c6f636b206d757374206265206c6f7765722074686160008201527f6e206e657720656e64426c6f636b000000000000000000000000000000000000602082015250565b6000613045602e836128d2565b915061305082612fe9565b604082019050919050565b6000602082019050818103600083015261307481613038565b9050919050565b7f4e6577207374617274426c6f636b206d7573742062652068696768657220746860008201527f616e2063757272656e7420626c6f636b00000000000000000000000000000000602082015250565b60006130d76030836128d2565b91506130e28261307b565b604082019050919050565b60006020820190508181036000830152613106816130ca565b9050919050565b7f4f7065726174696f6e733a2043616e6e6f74207265636f766572207374616b6560008201527f6420746f6b656e00000000000000000000000000000000000000000000000000602082015250565b60006131696027836128d2565b91506131748261310d565b604082019050919050565b600060208201905081810360008301526131988161315c565b9050919050565b7f4f7065726174696f6e733a2043616e6e6f74207265636f76657220726577617260008201527f6420746f6b656e00000000000000000000000000000000000000000000000000602082015250565b60006131fb6027836128d2565b91506132068261319f565b604082019050919050565b6000602082019050818103600083015261322a816131ee565b9050919050565b600081519050613240816124e5565b92915050565b60006020828403121561325c5761325b6124d6565b5b600061326a84828501613231565b91505092915050565b7f4f7065726174696f6e733a2043616e6e6f74207265636f766572207a65726f2060008201527f62616c616e636500000000000000000000000000000000000000000000000000602082015250565b60006132cf6027836128d2565b91506132da82613273565b604082019050919050565b600060208201905081810360008301526132fe816132c2565b9050919050565b7f4d75737420626520736574000000000000000000000000000000000000000000600082015250565b600061333b600b836128d2565b915061334682613305565b602082019050919050565b6000602082019050818103600083015261336a8161332e565b9050919050565b7f4e6577206c696d6974206d757374206265206869676865720000000000000000600082015250565b60006133a76018836128d2565b91506133b282613371565b602082019050919050565b600060208201905081810360008301526133d68161339a565b9050919050565b6000815190506133ec81612746565b92915050565b600060208284031215613408576134076124d6565b5b6000613416848285016133dd565b91505092915050565b7f4465706f7369743a204d757374206861766520616e206163746976652070726f60008201527f66696c6500000000000000000000000000000000000000000000000000000000602082015250565b600061347b6024836128d2565b91506134868261341f565b604082019050919050565b600060208201905081810360008301526134aa8161346e565b9050919050565b6000815190506134c08161259a565b92915050565b60008060008060008060c087890312156134e3576134e26124d6565b5b60006134f189828a01613231565b965050602061350289828a01613231565b955050604061351389828a01613231565b945050606061352489828a016134b1565b935050608061353589828a01613231565b92505060a061354689828a016133dd565b9150509295509295509295565b7f4465706f7369743a205573657220686173206e6f7420656e6f75676820706f6960008201527f6e74730000000000000000000000000000000000000000000000000000000000602082015250565b60006135af6023836128d2565b91506135ba82613553565b604082019050919050565b600060208201905081810360008301526135de816135a2565b9050919050565b7f4465706f7369743a20416d6f756e742061626f7665206c696d69740000000000600082015250565b600061361b601b836128d2565b9150613626826135e5565b602082019050919050565b6000602082019050818103600083015261364a8161360e565b9050919050565b7f4f776e61626c653a206e6577206f776e657220697320746865207a65726f206160008201527f6464726573730000000000000000000000000000000000000000000000000000602082015250565b60006136ad6026836128d2565b91506136b882613651565b604082019050919050565b600060208201905081810360008301526136dc816136a0565b9050919050565b60006040820190506136f860008301856127b2565b613705602083018461253e565b9392505050565b600060608201905061372160008301866127b2565b61372e60208301856127b2565b61373b604083018461253e565b949350505050565b7f5361666545524332303a204552433230206f7065726174696f6e20646964206e60008201527f6f74207375636365656400000000000000000000000000000000000000000000602082015250565b600061379f602a836128d2565b91506137aa82613743565b604082019050919050565b600060208201905081810360008301526137ce81613792565b9050919050565b7f416464726573733a20696e73756666696369656e742062616c616e636520666f60008201527f722063616c6c0000000000000000000000000000000000000000000000000000602082015250565b60006138316026836128d2565b915061383c826137d5565b604082019050919050565b6000602082019050818103600083015261386081613824565b9050919050565b7f416464726573733a2063616c6c20746f206e6f6e2d636f6e7472616374000000600082015250565b600061389d601d836128d2565b91506138a882613867565b602082019050919050565b600060208201905081810360008301526138cc81613890565b9050919050565b600081519050919050565b600081905092915050565b60005b838110156139075780820151818401526020810190506138ec565b83811115613916576000848401525b50505050565b6000613927826138d3565b61393181856138de565b93506139418185602086016138e9565b80840191505092915050565b6000613959828461391c565b915081905092915050565b600081519050919050565b6000601f19601f8301169050919050565b600061398b82613964565b61399581856128d2565b93506139a58185602086016138e9565b6139ae8161396f565b840191505092915050565b600060208201905081810360008301526139d38184613980565b90509291505056fea264697066735822122003e2079ff05f2dd5a48e7b9ceb80a760c8d40840ebca714c1417c5bb6c20955064736f6c634300080f0033a2646970667358221220db459ee3b57f6ab5f9338d9eb6f7248b1909429531772f821e8d8b1e0f175e7264736f6c634300080f0033",
			"opcodes": "PUSH1 0x80 PUSH1 0x40 MSTORE CALLVALUE DUP1 ISZERO PUSH2 0x10 JUMPI PUSH1 0x0 DUP1 REVERT JUMPDEST POP PUSH2 0x2D PUSH2 0x22 PUSH2 0x32 PUSH1 0x20 SHL PUSH1 0x20 SHR JUMP JUMPDEST PUSH2 0x3A PUSH1 0x20 SHL PUSH1 0x20 SHR JUMP JUMPDEST PUSH2 0xFE JUMP JUMPDEST PUSH1 0x0 CALLER SWAP1 POP SWAP1 JUMP JUMPDEST PUSH1 0x0 DUP1 PUSH1 0x0 SWAP1 SLOAD SWAP1 PUSH2 0x100 EXP SWAP1 DIV PUSH20 0xFFFFFFFFFFFFFFFFFFFFFFFFFFFFFFFFFFFFFFFF AND SWAP1 POP DUP2 PUSH1 0x0 DUP1 PUSH2 0x100 EXP DUP2 SLOAD DUP2 PUSH20 0xFFFFFFFFFFFFFFFFFFFFFFFFFFFFFFFFFFFFFFFF MUL NOT AND SWAP1 DUP4 PUSH20 0xFFFFFFFFFFFFFFFFFFFFFFFFFFFFFFFFFFFFFFFF AND MUL OR SWAP1 SSTORE POP DUP2 PUSH20 0xFFFFFFFFFFFFFFFFFFFFFFFFFFFFFFFFFFFFFFFF AND DUP2 PUSH20 0xFFFFFFFFFFFFFFFFFFFFFFFFFFFFFFFFFFFFFFFF AND PUSH32 0x8BE0079C531659141344CD1FD0A4F28419497F9722A3DAAFE3B4186F6B6457E0 PUSH1 0x40 MLOAD PUSH1 0x40 MLOAD DUP1 SWAP2 SUB SWAP1 LOG3 POP POP JUMP JUMPDEST PUSH2 0x4EC7 DUP1 PUSH2 0x10D PUSH1 0x0 CODECOPY PUSH1 0x0 RETURN INVALID PUSH1 0x80 PUSH1 0x40 MSTORE CALLVALUE DUP1 ISZERO PUSH3 0x11 JUMPI PUSH1 0x0 DUP1 REVERT JUMPDEST POP PUSH1 0x4 CALLDATASIZE LT PUSH3 0x52 JUMPI PUSH1 0x0 CALLDATALOAD PUSH1 0xE0 SHR DUP1 PUSH4 0x715018A6 EQ PUSH3 0x57 JUMPI DUP1 PUSH4 0x8DA5CB5B EQ PUSH3 0x63 JUMPI DUP1 PUSH4 0xF2FDE38B EQ PUSH3 0x85 JUMPI DUP1 PUSH4 0xF8D98C8A EQ PUSH3 0xA5 JUMPI JUMPDEST PUSH1 0x0 DUP1 REVERT JUMPDEST PUSH3 0x61 PUSH3 0xC5 JUMP JUMPDEST STOP JUMPDEST PUSH3 0x6D PUSH3 0x156 JUMP JUMPDEST PUSH1 0x40 MLOAD PUSH3 0x7C SWAP2 SWAP1 PUSH3 0x719 JUMP JUMPDEST PUSH1 0x40 MLOAD DUP1 SWAP2 SUB SWAP1 RETURN JUMPDEST PUSH3 0xA3 PUSH1 0x4 DUP1 CALLDATASIZE SUB DUP2 ADD SWAP1 PUSH3 0x9D SWAP2 SWAP1 PUSH3 0x76C JUMP JUMPDEST PUSH3 0x17F JUMP JUMPDEST STOP JUMPDEST PUSH3 0xC3 PUSH1 0x4 DUP1 CALLDATASIZE SUB DUP2 ADD SWAP1 PUSH3 0xBD SWAP2 SWAP1 PUSH3 0x85B JUMP JUMPDEST PUSH3 0x282 JUMP JUMPDEST STOP JUMPDEST PUSH3 0xCF PUSH3 0x5FA JUMP JUMPDEST PUSH20 0xFFFFFFFFFFFFFFFFFFFFFFFFFFFFFFFFFFFFFFFF AND PUSH3 0xEF PUSH3 0x156 JUMP JUMPDEST PUSH20 0xFFFFFFFFFFFFFFFFFFFFFFFFFFFFFFFFFFFFFFFF AND EQ PUSH3 0x148 JUMPI PUSH1 0x40 MLOAD PUSH32 0x8C379A000000000000000000000000000000000000000000000000000000000 DUP2 MSTORE PUSH1 0x4 ADD PUSH3 0x13F SWAP1 PUSH3 0x9C9 JUMP JUMPDEST PUSH1 0x40 MLOAD DUP1 SWAP2 SUB SWAP1 REVERT JUMPDEST PUSH3 0x154 PUSH1 0x0 PUSH3 0x602 JUMP JUMPDEST JUMP JUMPDEST PUSH1 0x0 DUP1 PUSH1 0x0 SWAP1 SLOAD SWAP1 PUSH2 0x100 EXP SWAP1 DIV PUSH20 0xFFFFFFFFFFFFFFFFFFFFFFFFFFFFFFFFFFFFFFFF AND SWAP1 POP SWAP1 JUMP JUMPDEST PUSH3 0x189 PUSH3 0x5FA JUMP JUMPDEST PUSH20 0xFFFFFFFFFFFFFFFFFFFFFFFFFFFFFFFFFFFFFFFF AND PUSH3 0x1A9 PUSH3 0x156 JUMP JUMPDEST PUSH20 0xFFFFFFFFFFFFFFFFFFFFFFFFFFFFFFFFFFFFFFFF AND EQ PUSH3 0x202 JUMPI PUSH1 0x40 MLOAD PUSH32 0x8C379A000000000000000000000000000000000000000000000000000000000 DUP2 MSTORE PUSH1 0x4 ADD PUSH3 0x1F9 SWAP1 PUSH3 0x9C9 JUMP JUMPDEST PUSH1 0x40 MLOAD DUP1 SWAP2 SUB SWAP1 REVERT JUMPDEST PUSH1 0x0 PUSH20 0xFFFFFFFFFFFFFFFFFFFFFFFFFFFFFFFFFFFFFFFF AND DUP2 PUSH20 0xFFFFFFFFFFFFFFFFFFFFFFFFFFFFFFFFFFFFFFFF AND SUB PUSH3 0x274 JUMPI PUSH1 0x40 MLOAD PUSH32 0x8C379A000000000000000000000000000000000000000000000000000000000 DUP2 MSTORE PUSH1 0x4 ADD PUSH3 0x26B SWAP1 PUSH3 0xA61 JUMP JUMPDEST PUSH1 0x40 MLOAD DUP1 SWAP2 SUB SWAP1 REVERT JUMPDEST PUSH3 0x27F DUP2 PUSH3 0x602 JUMP JUMPDEST POP JUMP JUMPDEST PUSH3 0x28C PUSH3 0x5FA JUMP JUMPDEST PUSH20 0xFFFFFFFFFFFFFFFFFFFFFFFFFFFFFFFFFFFFFFFF AND PUSH3 0x2AC PUSH3 0x156 JUMP JUMPDEST PUSH20 0xFFFFFFFFFFFFFFFFFFFFFFFFFFFFFFFFFFFFFFFF AND EQ PUSH3 0x305 JUMPI PUSH1 0x40 MLOAD PUSH32 0x8C379A000000000000000000000000000000000000000000000000000000000 DUP2 MSTORE PUSH1 0x4 ADD PUSH3 0x2FC SWAP1 PUSH3 0x9C9 JUMP JUMPDEST PUSH1 0x40 MLOAD DUP1 SWAP2 SUB SWAP1 REVERT JUMPDEST PUSH1 0x0 DUP12 PUSH20 0xFFFFFFFFFFFFFFFFFFFFFFFFFFFFFFFFFFFFFFFF AND PUSH4 0x18160DDD PUSH1 0x40 MLOAD DUP2 PUSH4 0xFFFFFFFF AND PUSH1 0xE0 SHL DUP2 MSTORE PUSH1 0x4 ADD PUSH1 0x20 PUSH1 0x40 MLOAD DUP1 DUP4 SUB DUP2 DUP7 GAS STATICCALL ISZERO DUP1 ISZERO PUSH3 0x353 JUMPI RETURNDATASIZE PUSH1 0x0 DUP1 RETURNDATACOPY RETURNDATASIZE PUSH1 0x0 REVERT JUMPDEST POP POP POP POP PUSH1 0x40 MLOAD RETURNDATASIZE PUSH1 0x1F NOT PUSH1 0x1F DUP3 ADD AND DUP3 ADD DUP1 PUSH1 0x40 MSTORE POP DUP2 ADD SWAP1 PUSH3 0x379 SWAP2 SWAP1 PUSH3 0xA9A JUMP JUMPDEST LT ISZERO PUSH3 0x385 JUMPI PUSH1 0x0 DUP1 REVERT JUMPDEST PUSH1 0x0 DUP11 PUSH20 0xFFFFFFFFFFFFFFFFFFFFFFFFFFFFFFFFFFFFFFFF AND PUSH4 0x18160DDD PUSH1 0x40 MLOAD DUP2 PUSH4 0xFFFFFFFF AND PUSH1 0xE0 SHL DUP2 MSTORE PUSH1 0x4 ADD PUSH1 0x20 PUSH1 0x40 MLOAD DUP1 DUP4 SUB DUP2 DUP7 GAS STATICCALL ISZERO DUP1 ISZERO PUSH3 0x3D3 JUMPI RETURNDATASIZE PUSH1 0x0 DUP1 RETURNDATACOPY RETURNDATASIZE PUSH1 0x0 REVERT JUMPDEST POP POP POP POP PUSH1 0x40 MLOAD RETURNDATASIZE PUSH1 0x1F NOT PUSH1 0x1F DUP3 ADD AND DUP3 ADD DUP1 PUSH1 0x40 MSTORE POP DUP2 ADD SWAP1 PUSH3 0x3F9 SWAP2 SWAP1 PUSH3 0xA9A JUMP JUMPDEST LT ISZERO PUSH3 0x405 JUMPI PUSH1 0x0 DUP1 REVERT JUMPDEST DUP10 PUSH20 0xFFFFFFFFFFFFFFFFFFFFFFFFFFFFFFFFFFFFFFFF AND DUP12 PUSH20 0xFFFFFFFFFFFFFFFFFFFFFFFFFFFFFFFFFFFFFFFF AND SUB PUSH3 0x476 JUMPI PUSH1 0x40 MLOAD PUSH32 0x8C379A000000000000000000000000000000000000000000000000000000000 DUP2 MSTORE PUSH1 0x4 ADD PUSH3 0x46D SWAP1 PUSH3 0xB1C JUMP JUMPDEST PUSH1 0x40 MLOAD DUP1 SWAP2 SUB SWAP1 REVERT JUMPDEST PUSH1 0x0 PUSH1 0x40 MLOAD DUP1 PUSH1 0x20 ADD PUSH3 0x48A SWAP1 PUSH3 0x6C6 JUMP JUMPDEST PUSH1 0x20 DUP3 ADD DUP2 SUB DUP3 MSTORE PUSH1 0x1F NOT PUSH1 0x1F DUP3 ADD AND PUSH1 0x40 MSTORE POP SWAP1 POP DUP1 DUP6 DUP6 DUP6 PUSH1 0x40 MLOAD PUSH1 0x20 ADD PUSH3 0x4B8 SWAP4 SWAP3 SWAP2 SWAP1 PUSH3 0xB60 JUMP JUMPDEST PUSH1 0x40 MLOAD PUSH1 0x20 DUP2 DUP4 SUB SUB DUP2 MSTORE SWAP1 PUSH1 0x40 MSTORE PUSH1 0x40 MLOAD PUSH1 0x20 ADD PUSH3 0x4DA SWAP3 SWAP2 SWAP1 PUSH3 0xC20 JUMP JUMPDEST PUSH1 0x40 MLOAD PUSH1 0x20 DUP2 DUP4 SUB SUB DUP2 MSTORE SWAP1 PUSH1 0x40 MSTORE SWAP1 POP PUSH1 0x0 DUP13 DUP13 DUP12 PUSH1 0x40 MLOAD PUSH1 0x20 ADD PUSH3 0x504 SWAP4 SWAP3 SWAP2 SWAP1 PUSH3 0xD17 JUMP JUMPDEST PUSH1 0x40 MLOAD PUSH1 0x20 DUP2 DUP4 SUB SUB DUP2 MSTORE SWAP1 PUSH1 0x40 MSTORE DUP1 MLOAD SWAP1 PUSH1 0x20 ADD KECCAK256 SWAP1 POP PUSH1 0x0 DUP2 DUP4 MLOAD PUSH1 0x20 DUP6 ADD PUSH1 0x0 CREATE2 SWAP1 POP DUP1 PUSH20 0xFFFFFFFFFFFFFFFFFFFFFFFFFFFFFFFFFFFFFFFF AND PUSH4 0x2AA2C381 DUP16 DUP16 DUP16 DUP16 DUP16 DUP16 DUP16 DUP13 PUSH1 0x40 MLOAD DUP10 PUSH4 0xFFFFFFFF AND PUSH1 0xE0 SHL DUP2 MSTORE PUSH1 0x4 ADD PUSH3 0x573 SWAP9 SWAP8 SWAP7 SWAP6 SWAP5 SWAP4 SWAP3 SWAP2 SWAP1 PUSH3 0xD6B JUMP JUMPDEST PUSH1 0x0 PUSH1 0x40 MLOAD DUP1 DUP4 SUB DUP2 PUSH1 0x0 DUP8 DUP1 EXTCODESIZE ISZERO DUP1 ISZERO PUSH3 0x58E JUMPI PUSH1 0x0 DUP1 REVERT JUMPDEST POP GAS CALL ISZERO DUP1 ISZERO PUSH3 0x5A3 JUMPI RETURNDATASIZE PUSH1 0x0 DUP1 RETURNDATACOPY RETURNDATASIZE PUSH1 0x0 REVERT JUMPDEST POP POP POP POP DUP1 PUSH20 0xFFFFFFFFFFFFFFFFFFFFFFFFFFFFFFFFFFFFFFFF AND PUSH32 0xE0D103A92C6FF6C4ACEB49D436F4028E0DEB4884FDBCB9F32B03045EABB44A6C PUSH1 0x40 MLOAD PUSH1 0x40 MLOAD DUP1 SWAP2 SUB SWAP1 LOG2 POP POP POP POP POP POP POP POP POP POP POP POP POP POP JUMP JUMPDEST PUSH1 0x0 CALLER SWAP1 POP SWAP1 JUMP JUMPDEST PUSH1 0x0 DUP1 PUSH1 0x0 SWAP1 SLOAD SWAP1 PUSH2 0x100 EXP SWAP1 DIV PUSH20 0xFFFFFFFFFFFFFFFFFFFFFFFFFFFFFFFFFFFFFFFF AND SWAP1 POP DUP2 PUSH1 0x0 DUP1 PUSH2 0x100 EXP DUP2 SLOAD DUP2 PUSH20 0xFFFFFFFFFFFFFFFFFFFFFFFFFFFFFFFFFFFFFFFF MUL NOT AND SWAP1 DUP4 PUSH20 0xFFFFFFFFFFFFFFFFFFFFFFFFFFFFFFFFFFFFFFFF AND MUL OR SWAP1 SSTORE POP DUP2 PUSH20 0xFFFFFFFFFFFFFFFFFFFFFFFFFFFFFFFFFFFFFFFF AND DUP2 PUSH20 0xFFFFFFFFFFFFFFFFFFFFFFFFFFFFFFFFFFFFFFFF AND PUSH32 0x8BE0079C531659141344CD1FD0A4F28419497F9722A3DAAFE3B4186F6B6457E0 PUSH1 0x40 MLOAD PUSH1 0x40 MLOAD DUP1 SWAP2 SUB SWAP1 LOG3 POP POP JUMP JUMPDEST PUSH2 0x4098 DUP1 PUSH3 0xDFA DUP4 CODECOPY ADD SWAP1 JUMP JUMPDEST PUSH1 0x0 PUSH20 0xFFFFFFFFFFFFFFFFFFFFFFFFFFFFFFFFFFFFFFFF DUP3 AND SWAP1 POP SWAP2 SWAP1 POP JUMP JUMPDEST PUSH1 0x0 PUSH3 0x701 DUP3 PUSH3 0x6D4 JUMP JUMPDEST SWAP1 POP SWAP2 SWAP1 POP JUMP JUMPDEST PUSH3 0x713 DUP2 PUSH3 0x6F4 JUMP JUMPDEST DUP3 MSTORE POP POP JUMP JUMPDEST PUSH1 0x0 PUSH1 0x20 DUP3 ADD SWAP1 POP PUSH3 0x730 PUSH1 0x0 DUP4 ADD DUP5 PUSH3 0x708 JUMP JUMPDEST SWAP3 SWAP2 POP POP JUMP JUMPDEST PUSH1 0x0 DUP1 REVERT JUMPDEST PUSH3 0x746 DUP2 PUSH3 0x6F4 JUMP JUMPDEST DUP2 EQ PUSH3 0x752 JUMPI PUSH1 0x0 DUP1 REVERT JUMPDEST POP JUMP JUMPDEST PUSH1 0x0 DUP2 CALLDATALOAD SWAP1 POP PUSH3 0x766 DUP2 PUSH3 0x73B JUMP JUMPDEST SWAP3 SWAP2 POP POP JUMP JUMPDEST PUSH1 0x0 PUSH1 0x20 DUP3 DUP5 SUB SLT ISZERO PUSH3 0x785 JUMPI PUSH3 0x784 PUSH3 0x736 JUMP JUMPDEST JUMPDEST PUSH1 0x0 PUSH3 0x795 DUP5 DUP3 DUP6 ADD PUSH3 0x755 JUMP JUMPDEST SWAP2 POP POP SWAP3 SWAP2 POP POP JUMP JUMPDEST PUSH1 0x0 PUSH3 0x7AB DUP3 PUSH3 0x6F4 JUMP JUMPDEST SWAP1 POP SWAP2 SWAP1 POP JUMP JUMPDEST PUSH3 0x7BD DUP2 PUSH3 0x79E JUMP JUMPDEST DUP2 EQ PUSH3 0x7C9 JUMPI PUSH1 0x0 DUP1 REVERT JUMPDEST POP JUMP JUMPDEST PUSH1 0x0 DUP2 CALLDATALOAD SWAP1 POP PUSH3 0x7DD DUP2 PUSH3 0x7B2 JUMP JUMPDEST SWAP3 SWAP2 POP POP JUMP JUMPDEST PUSH1 0x0 DUP2 SWAP1 POP SWAP2 SWAP1 POP JUMP JUMPDEST PUSH3 0x7F8 DUP2 PUSH3 0x7E3 JUMP JUMPDEST DUP2 EQ PUSH3 0x804 JUMPI PUSH1 0x0 DUP1 REVERT JUMPDEST POP JUMP JUMPDEST PUSH1 0x0 DUP2 CALLDATALOAD SWAP1 POP PUSH3 0x818 DUP2 PUSH3 0x7ED JUMP JUMPDEST SWAP3 SWAP2 POP POP JUMP JUMPDEST PUSH1 0x0 DUP2 ISZERO ISZERO SWAP1 POP SWAP2 SWAP1 POP JUMP JUMPDEST PUSH3 0x835 DUP2 PUSH3 0x81E JUMP JUMPDEST DUP2 EQ PUSH3 0x841 JUMPI PUSH1 0x0 DUP1 REVERT JUMPDEST POP JUMP JUMPDEST PUSH1 0x0 DUP2 CALLDATALOAD SWAP1 POP PUSH3 0x855 DUP2 PUSH3 0x82A JUMP JUMPDEST SWAP3 SWAP2 POP POP JUMP JUMPDEST PUSH1 0x0 DUP1 PUSH1 0x0 DUP1 PUSH1 0x0 DUP1 PUSH1 0x0 DUP1 PUSH1 0x0 DUP1 PUSH1 0x0 PUSH2 0x160 DUP13 DUP15 SUB SLT ISZERO PUSH3 0x884 JUMPI PUSH3 0x883 PUSH3 0x736 JUMP JUMPDEST JUMPDEST PUSH1 0x0 PUSH3 0x894 DUP15 DUP3 DUP16 ADD PUSH3 0x7CC JUMP JUMPDEST SWAP12 POP POP PUSH1 0x20 PUSH3 0x8A7 DUP15 DUP3 DUP16 ADD PUSH3 0x7CC JUMP JUMPDEST SWAP11 POP POP PUSH1 0x40 PUSH3 0x8BA DUP15 DUP3 DUP16 ADD PUSH3 0x807 JUMP JUMPDEST SWAP10 POP POP PUSH1 0x60 PUSH3 0x8CD DUP15 DUP3 DUP16 ADD PUSH3 0x807 JUMP JUMPDEST SWAP9 POP POP PUSH1 0x80 PUSH3 0x8E0 DUP15 DUP3 DUP16 ADD PUSH3 0x807 JUMP JUMPDEST SWAP8 POP POP PUSH1 0xA0 PUSH3 0x8F3 DUP15 DUP3 DUP16 ADD PUSH3 0x807 JUMP JUMPDEST SWAP7 POP POP PUSH1 0xC0 PUSH3 0x906 DUP15 DUP3 DUP16 ADD PUSH3 0x807 JUMP JUMPDEST SWAP6 POP POP PUSH1 0xE0 PUSH3 0x919 DUP15 DUP3 DUP16 ADD PUSH3 0x755 JUMP JUMPDEST SWAP5 POP POP PUSH2 0x100 PUSH3 0x92D DUP15 DUP3 DUP16 ADD PUSH3 0x844 JUMP JUMPDEST SWAP4 POP POP PUSH2 0x120 PUSH3 0x941 DUP15 DUP3 DUP16 ADD PUSH3 0x807 JUMP JUMPDEST SWAP3 POP POP PUSH2 0x140 PUSH3 0x955 DUP15 DUP3 DUP16 ADD PUSH3 0x755 JUMP JUMPDEST SWAP2 POP POP SWAP3 SWAP6 SWAP9 SWAP12 POP SWAP3 SWAP6 SWAP9 SWAP12 SWAP1 SWAP4 SWAP7 SWAP10 POP JUMP JUMPDEST PUSH1 0x0 DUP3 DUP3 MSTORE PUSH1 0x20 DUP3 ADD SWAP1 POP SWAP3 SWAP2 POP POP JUMP JUMPDEST PUSH32 0x4F776E61626C653A2063616C6C6572206973206E6F7420746865206F776E6572 PUSH1 0x0 DUP3 ADD MSTORE POP JUMP JUMPDEST PUSH1 0x0 PUSH3 0x9B1 PUSH1 0x20 DUP4 PUSH3 0x968 JUMP JUMPDEST SWAP2 POP PUSH3 0x9BE DUP3 PUSH3 0x979 JUMP JUMPDEST PUSH1 0x20 DUP3 ADD SWAP1 POP SWAP2 SWAP1 POP JUMP JUMPDEST PUSH1 0x0 PUSH1 0x20 DUP3 ADD SWAP1 POP DUP2 DUP2 SUB PUSH1 0x0 DUP4 ADD MSTORE PUSH3 0x9E4 DUP2 PUSH3 0x9A2 JUMP JUMPDEST SWAP1 POP SWAP2 SWAP1 POP JUMP JUMPDEST PUSH32 0x4F776E61626C653A206E6577206F776E657220697320746865207A65726F2061 PUSH1 0x0 DUP3 ADD MSTORE PUSH32 0x6464726573730000000000000000000000000000000000000000000000000000 PUSH1 0x20 DUP3 ADD MSTORE POP JUMP JUMPDEST PUSH1 0x0 PUSH3 0xA49 PUSH1 0x26 DUP4 PUSH3 0x968 JUMP JUMPDEST SWAP2 POP PUSH3 0xA56 DUP3 PUSH3 0x9EB JUMP JUMPDEST PUSH1 0x40 DUP3 ADD SWAP1 POP SWAP2 SWAP1 POP JUMP JUMPDEST PUSH1 0x0 PUSH1 0x20 DUP3 ADD SWAP1 POP DUP2 DUP2 SUB PUSH1 0x0 DUP4 ADD MSTORE PUSH3 0xA7C DUP2 PUSH3 0xA3A JUMP JUMPDEST SWAP1 POP SWAP2 SWAP1 POP JUMP JUMPDEST PUSH1 0x0 DUP2 MLOAD SWAP1 POP PUSH3 0xA94 DUP2 PUSH3 0x7ED JUMP JUMPDEST SWAP3 SWAP2 POP POP JUMP JUMPDEST PUSH1 0x0 PUSH1 0x20 DUP3 DUP5 SUB SLT ISZERO PUSH3 0xAB3 JUMPI PUSH3 0xAB2 PUSH3 0x736 JUMP JUMPDEST JUMPDEST PUSH1 0x0 PUSH3 0xAC3 DUP5 DUP3 DUP6 ADD PUSH3 0xA83 JUMP JUMPDEST SWAP2 POP POP SWAP3 SWAP2 POP POP JUMP JUMPDEST PUSH32 0x546F6B656E73206D75737420626520626520646966666572656E740000000000 PUSH1 0x0 DUP3 ADD MSTORE POP JUMP JUMPDEST PUSH1 0x0 PUSH3 0xB04 PUSH1 0x1B DUP4 PUSH3 0x968 JUMP JUMPDEST SWAP2 POP PUSH3 0xB11 DUP3 PUSH3 0xACC JUMP JUMPDEST PUSH1 0x20 DUP3 ADD SWAP1 POP SWAP2 SWAP1 POP JUMP JUMPDEST PUSH1 0x0 PUSH1 0x20 DUP3 ADD SWAP1 POP DUP2 DUP2 SUB PUSH1 0x0 DUP4 ADD MSTORE PUSH3 0xB37 DUP2 PUSH3 0xAF5 JUMP JUMPDEST SWAP1 POP SWAP2 SWAP1 POP JUMP JUMPDEST PUSH3 0xB49 DUP2 PUSH3 0x81E JUMP JUMPDEST DUP3 MSTORE POP POP JUMP JUMPDEST PUSH3 0xB5A DUP2 PUSH3 0x7E3 JUMP JUMPDEST DUP3 MSTORE POP POP JUMP JUMPDEST PUSH1 0x0 PUSH1 0x60 DUP3 ADD SWAP1 POP PUSH3 0xB77 PUSH1 0x0 DUP4 ADD DUP7 PUSH3 0x708 JUMP JUMPDEST PUSH3 0xB86 PUSH1 0x20 DUP4 ADD DUP6 PUSH3 0xB3E JUMP JUMPDEST PUSH3 0xB95 PUSH1 0x40 DUP4 ADD DUP5 PUSH3 0xB4F JUMP JUMPDEST SWAP5 SWAP4 POP POP POP POP JUMP JUMPDEST PUSH1 0x0 DUP2 MLOAD SWAP1 POP SWAP2 SWAP1 POP JUMP JUMPDEST PUSH1 0x0 DUP2 SWAP1 POP SWAP3 SWAP2 POP POP JUMP JUMPDEST PUSH1 0x0 JUMPDEST DUP4 DUP2 LT ISZERO PUSH3 0xBD3 JUMPI DUP1 DUP3 ADD MLOAD DUP2 DUP5 ADD MSTORE PUSH1 0x20 DUP2 ADD SWAP1 POP PUSH3 0xBB6 JUMP JUMPDEST DUP4 DUP2 GT ISZERO PUSH3 0xBE3 JUMPI PUSH1 0x0 DUP5 DUP5 ADD MSTORE JUMPDEST POP POP POP POP JUMP JUMPDEST PUSH1 0x0 PUSH3 0xBF6 DUP3 PUSH3 0xB9D JUMP JUMPDEST PUSH3 0xC02 DUP2 DUP6 PUSH3 0xBA8 JUMP JUMPDEST SWAP4 POP PUSH3 0xC14 DUP2 DUP6 PUSH1 0x20 DUP7 ADD PUSH3 0xBB3 JUMP JUMPDEST DUP1 DUP5 ADD SWAP2 POP POP SWAP3 SWAP2 POP POP JUMP JUMPDEST PUSH1 0x0 PUSH3 0xC2E DUP3 DUP6 PUSH3 0xBE9 JUMP JUMPDEST SWAP2 POP PUSH3 0xC3C DUP3 DUP5 PUSH3 0xBE9 JUMP JUMPDEST SWAP2 POP DUP2 SWAP1 POP SWAP4 SWAP3 POP POP POP JUMP JUMPDEST PUSH1 0x0 DUP2 SWAP1 POP SWAP2 SWAP1 POP JUMP JUMPDEST PUSH1 0x0 PUSH3 0xC73 PUSH3 0xC6D PUSH3 0xC67 DUP5 PUSH3 0x6D4 JUMP JUMPDEST PUSH3 0xC48 JUMP JUMPDEST PUSH3 0x6D4 JUMP JUMPDEST SWAP1 POP SWAP2 SWAP1 POP JUMP JUMPDEST PUSH1 0x0 PUSH3 0xC87 DUP3 PUSH3 0xC52 JUMP JUMPDEST SWAP1 POP SWAP2 SWAP1 POP JUMP JUMPDEST PUSH1 0x0 PUSH3 0xC9B DUP3 PUSH3 0xC7A JUMP JUMPDEST SWAP1 POP SWAP2 SWAP1 POP JUMP JUMPDEST PUSH1 0x0 DUP2 PUSH1 0x60 SHL SWAP1 POP SWAP2 SWAP1 POP JUMP JUMPDEST PUSH1 0x0 PUSH3 0xCBC DUP3 PUSH3 0xCA2 JUMP JUMPDEST SWAP1 POP SWAP2 SWAP1 POP JUMP JUMPDEST PUSH1 0x0 PUSH3 0xCD0 DUP3 PUSH3 0xCAF JUMP JUMPDEST SWAP1 POP SWAP2 SWAP1 POP JUMP JUMPDEST PUSH3 0xCEC PUSH3 0xCE6 DUP3 PUSH3 0xC8E JUMP JUMPDEST PUSH3 0xCC3 JUMP JUMPDEST DUP3 MSTORE POP POP JUMP JUMPDEST PUSH1 0x0 DUP2 SWAP1 POP SWAP2 SWAP1 POP JUMP JUMPDEST PUSH3 0xD11 PUSH3 0xD0B DUP3 PUSH3 0x7E3 JUMP JUMPDEST PUSH3 0xCF2 JUMP JUMPDEST DUP3 MSTORE POP POP JUMP JUMPDEST PUSH1 0x0 PUSH3 0xD25 DUP3 DUP7 PUSH3 0xCD7 JUMP JUMPDEST PUSH1 0x14 DUP3 ADD SWAP2 POP PUSH3 0xD37 DUP3 DUP6 PUSH3 0xCD7 JUMP JUMPDEST PUSH1 0x14 DUP3 ADD SWAP2 POP PUSH3 0xD49 DUP3 DUP5 PUSH3 0xCFC JUMP JUMPDEST PUSH1 0x20 DUP3 ADD SWAP2 POP DUP2 SWAP1 POP SWAP5 SWAP4 POP POP POP POP JUMP JUMPDEST PUSH3 0xD65 DUP2 PUSH3 0xC8E JUMP JUMPDEST DUP3 MSTORE POP POP JUMP JUMPDEST PUSH1 0x0 PUSH2 0x100 DUP3 ADD SWAP1 POP PUSH3 0xD83 PUSH1 0x0 DUP4 ADD DUP12 PUSH3 0xD5A JUMP JUMPDEST PUSH3 0xD92 PUSH1 0x20 DUP4 ADD DUP11 PUSH3 0xD5A JUMP JUMPDEST PUSH3 0xDA1 PUSH1 0x40 DUP4 ADD DUP10 PUSH3 0xB4F JUMP JUMPDEST PUSH3 0xDB0 PUSH1 0x60 DUP4 ADD DUP9 PUSH3 0xB4F JUMP JUMPDEST PUSH3 0xDBF PUSH1 0x80 DUP4 ADD DUP8 PUSH3 0xB4F JUMP JUMPDEST PUSH3 0xDCE PUSH1 0xA0 DUP4 ADD DUP7 PUSH3 0xB4F JUMP JUMPDEST PUSH3 0xDDD PUSH1 0xC0 DUP4 ADD DUP6 PUSH3 0xB4F JUMP JUMPDEST PUSH3 0xDEC PUSH1 0xE0 DUP4 ADD DUP5 PUSH3 0x708 JUMP JUMPDEST SWAP10 SWAP9 POP POP POP POP POP POP POP POP POP JUMP INVALID PUSH1 0xC0 PUSH1 0x40 MSTORE CALLVALUE DUP1 ISZERO PUSH3 0x11 JUMPI PUSH1 0x0 DUP1 REVERT JUMPDEST POP PUSH1 0x40 MLOAD PUSH3 0x4098 CODESIZE SUB DUP1 PUSH3 0x4098 DUP4 CODECOPY DUP2 DUP2 ADD PUSH1 0x40 MSTORE DUP2 ADD SWAP1 PUSH3 0x37 SWAP2 SWAP1 PUSH3 0x337 JUMP JUMPDEST PUSH3 0x57 PUSH3 0x4B PUSH3 0x17A PUSH1 0x20 SHL PUSH1 0x20 SHR JUMP JUMPDEST PUSH3 0x182 PUSH1 0x20 SHL PUSH1 0x20 SHR JUMP JUMPDEST PUSH1 0x1 DUP1 DUP2 SWAP1 SSTORE POP CALLER PUSH20 0xFFFFFFFFFFFFFFFFFFFFFFFFFFFFFFFFFFFFFFFF AND PUSH1 0x80 DUP2 PUSH20 0xFFFFFFFFFFFFFFFFFFFFFFFFFFFFFFFFFFFFFFFF AND DUP2 MSTORE POP POP DUP3 PUSH20 0xFFFFFFFFFFFFFFFFFFFFFFFFFFFFFFFFFFFFFFFF AND PUSH4 0xAEE2F47F PUSH1 0x1 PUSH1 0x40 MLOAD DUP3 PUSH4 0xFFFFFFFF AND PUSH1 0xE0 SHL DUP2 MSTORE PUSH1 0x4 ADD PUSH3 0xCE SWAP2 SWAP1 PUSH3 0x3E0 JUMP JUMPDEST PUSH1 0x0 PUSH1 0x40 MLOAD DUP1 DUP4 SUB DUP2 DUP7 GAS STATICCALL ISZERO DUP1 ISZERO PUSH3 0xEC JUMPI RETURNDATASIZE PUSH1 0x0 DUP1 RETURNDATACOPY RETURNDATASIZE PUSH1 0x0 REVERT JUMPDEST POP POP POP POP PUSH1 0x40 MLOAD RETURNDATASIZE PUSH1 0x0 DUP3 RETURNDATACOPY RETURNDATASIZE PUSH1 0x1F NOT PUSH1 0x1F DUP3 ADD AND DUP3 ADD DUP1 PUSH1 0x40 MSTORE POP DUP2 ADD SWAP1 PUSH3 0x117 SWAP2 SWAP1 PUSH3 0x586 JUMP JUMPDEST POP POP POP POP POP DUP3 PUSH20 0xFFFFFFFFFFFFFFFFFFFFFFFFFFFFFFFFFFFFFFFF AND PUSH1 0xA0 DUP2 PUSH20 0xFFFFFFFFFFFFFFFFFFFFFFFFFFFFFFFFFFFFFFFF AND DUP2 MSTORE POP POP DUP2 PUSH1 0x9 PUSH1 0x0 PUSH2 0x100 EXP DUP2 SLOAD DUP2 PUSH1 0xFF MUL NOT AND SWAP1 DUP4 ISZERO ISZERO MUL OR SWAP1 SSTORE POP DUP1 PUSH1 0xA DUP2 SWAP1 SSTORE POP POP POP POP PUSH3 0x64C JUMP JUMPDEST PUSH1 0x0 CALLER SWAP1 POP SWAP1 JUMP JUMPDEST PUSH1 0x0 DUP1 PUSH1 0x0 SWAP1 SLOAD SWAP1 PUSH2 0x100 EXP SWAP1 DIV PUSH20 0xFFFFFFFFFFFFFFFFFFFFFFFFFFFFFFFFFFFFFFFF AND SWAP1 POP DUP2 PUSH1 0x0 DUP1 PUSH2 0x100 EXP DUP2 SLOAD DUP2 PUSH20 0xFFFFFFFFFFFFFFFFFFFFFFFFFFFFFFFFFFFFFFFF MUL NOT AND SWAP1 DUP4 PUSH20 0xFFFFFFFFFFFFFFFFFFFFFFFFFFFFFFFFFFFFFFFF AND MUL OR SWAP1 SSTORE POP DUP2 PUSH20 0xFFFFFFFFFFFFFFFFFFFFFFFFFFFFFFFFFFFFFFFF AND DUP2 PUSH20 0xFFFFFFFFFFFFFFFFFFFFFFFFFFFFFFFFFFFFFFFF AND PUSH32 0x8BE0079C531659141344CD1FD0A4F28419497F9722A3DAAFE3B4186F6B6457E0 PUSH1 0x40 MLOAD PUSH1 0x40 MLOAD DUP1 SWAP2 SUB SWAP1 LOG3 POP POP JUMP JUMPDEST PUSH1 0x0 PUSH1 0x40 MLOAD SWAP1 POP SWAP1 JUMP JUMPDEST PUSH1 0x0 DUP1 REVERT JUMPDEST PUSH1 0x0 DUP1 REVERT JUMPDEST PUSH1 0x0 PUSH20 0xFFFFFFFFFFFFFFFFFFFFFFFFFFFFFFFFFFFFFFFF DUP3 AND SWAP1 POP SWAP2 SWAP1 POP JUMP JUMPDEST PUSH1 0x0 PUSH3 0x287 DUP3 PUSH3 0x25A JUMP JUMPDEST SWAP1 POP SWAP2 SWAP1 POP JUMP JUMPDEST PUSH3 0x299 DUP2 PUSH3 0x27A JUMP JUMPDEST DUP2 EQ PUSH3 0x2A5 JUMPI PUSH1 0x0 DUP1 REVERT JUMPDEST POP JUMP JUMPDEST PUSH1 0x0 DUP2 MLOAD SWAP1 POP PUSH3 0x2B9 DUP2 PUSH3 0x28E JUMP JUMPDEST SWAP3 SWAP2 POP POP JUMP JUMPDEST PUSH1 0x0 DUP2 ISZERO ISZERO SWAP1 POP SWAP2 SWAP1 POP JUMP JUMPDEST PUSH3 0x2D6 DUP2 PUSH3 0x2BF JUMP JUMPDEST DUP2 EQ PUSH3 0x2E2 JUMPI PUSH1 0x0 DUP1 REVERT JUMPDEST POP JUMP JUMPDEST PUSH1 0x0 DUP2 MLOAD SWAP1 POP PUSH3 0x2F6 DUP2 PUSH3 0x2CB JUMP JUMPDEST SWAP3 SWAP2 POP POP JUMP JUMPDEST PUSH1 0x0 DUP2 SWAP1 POP SWAP2 SWAP1 POP JUMP JUMPDEST PUSH3 0x311 DUP2 PUSH3 0x2FC JUMP JUMPDEST DUP2 EQ PUSH3 0x31D JUMPI PUSH1 0x0 DUP1 REVERT JUMPDEST POP JUMP JUMPDEST PUSH1 0x0 DUP2 MLOAD SWAP1 POP PUSH3 0x331 DUP2 PUSH3 0x306 JUMP JUMPDEST SWAP3 SWAP2 POP POP JUMP JUMPDEST PUSH1 0x0 DUP1 PUSH1 0x0 PUSH1 0x60 DUP5 DUP7 SUB SLT ISZERO PUSH3 0x353 JUMPI PUSH3 0x352 PUSH3 0x250 JUMP JUMPDEST JUMPDEST PUSH1 0x0 PUSH3 0x363 DUP7 DUP3 DUP8 ADD PUSH3 0x2A8 JUMP JUMPDEST SWAP4 POP POP PUSH1 0x20 PUSH3 0x376 DUP7 DUP3 DUP8 ADD PUSH3 0x2E5 JUMP JUMPDEST SWAP3 POP POP PUSH1 0x40 PUSH3 0x389 DUP7 DUP3 DUP8 ADD PUSH3 0x320 JUMP JUMPDEST SWAP2 POP POP SWAP3 POP SWAP3 POP SWAP3 JUMP JUMPDEST PUSH1 0x0 DUP2 SWAP1 POP SWAP2 SWAP1 POP JUMP JUMPDEST PUSH1 0x0 DUP2 SWAP1 POP SWAP2 SWAP1 POP JUMP JUMPDEST PUSH1 0x0 PUSH3 0x3C8 PUSH3 0x3C2 PUSH3 0x3BC DUP5 PUSH3 0x393 JUMP JUMPDEST PUSH3 0x39D JUMP JUMPDEST PUSH3 0x2FC JUMP JUMPDEST SWAP1 POP SWAP2 SWAP1 POP JUMP JUMPDEST PUSH3 0x3DA DUP2 PUSH3 0x3A7 JUMP JUMPDEST DUP3 MSTORE POP POP JUMP JUMPDEST PUSH1 0x0 PUSH1 0x20 DUP3 ADD SWAP1 POP PUSH3 0x3F7 PUSH1 0x0 DUP4 ADD DUP5 PUSH3 0x3CF JUMP JUMPDEST SWAP3 SWAP2 POP POP JUMP JUMPDEST PUSH1 0x0 DUP1 REVERT JUMPDEST PUSH1 0x0 DUP1 REVERT JUMPDEST PUSH1 0x0 PUSH1 0x1F NOT PUSH1 0x1F DUP4 ADD AND SWAP1 POP SWAP2 SWAP1 POP JUMP JUMPDEST PUSH32 0x4E487B7100000000000000000000000000000000000000000000000000000000 PUSH1 0x0 MSTORE PUSH1 0x41 PUSH1 0x4 MSTORE PUSH1 0x24 PUSH1 0x0 REVERT JUMPDEST PUSH3 0x452 DUP3 PUSH3 0x407 JUMP JUMPDEST DUP2 ADD DUP2 DUP2 LT PUSH8 0xFFFFFFFFFFFFFFFF DUP3 GT OR ISZERO PUSH3 0x474 JUMPI PUSH3 0x473 PUSH3 0x418 JUMP JUMPDEST JUMPDEST DUP1 PUSH1 0x40 MSTORE POP POP POP JUMP JUMPDEST PUSH1 0x0 PUSH3 0x489 PUSH3 0x246 JUMP JUMPDEST SWAP1 POP PUSH3 0x497 DUP3 DUP3 PUSH3 0x447 JUMP JUMPDEST SWAP2 SWAP1 POP JUMP JUMPDEST PUSH1 0x0 PUSH8 0xFFFFFFFFFFFFFFFF DUP3 GT ISZERO PUSH3 0x4BA JUMPI PUSH3 0x4B9 PUSH3 0x418 JUMP JUMPDEST JUMPDEST PUSH3 0x4C5 DUP3 PUSH3 0x407 JUMP JUMPDEST SWAP1 POP PUSH1 0x20 DUP2 ADD SWAP1 POP SWAP2 SWAP1 POP JUMP JUMPDEST PUSH1 0x0 JUMPDEST DUP4 DUP2 LT ISZERO PUSH3 0x4F2 JUMPI DUP1 DUP3 ADD MLOAD DUP2 DUP5 ADD MSTORE PUSH1 0x20 DUP2 ADD SWAP1 POP PUSH3 0x4D5 JUMP JUMPDEST DUP4 DUP2 GT ISZERO PUSH3 0x502 JUMPI PUSH1 0x0 DUP5 DUP5 ADD MSTORE JUMPDEST POP POP POP POP JUMP JUMPDEST PUSH1 0x0 PUSH3 0x51F PUSH3 0x519 DUP5 PUSH3 0x49C JUMP JUMPDEST PUSH3 0x47D JUMP JUMPDEST SWAP1 POP DUP3 DUP2 MSTORE PUSH1 0x20 DUP2 ADD DUP5 DUP5 DUP5 ADD GT ISZERO PUSH3 0x53E JUMPI PUSH3 0x53D PUSH3 0x402 JUMP JUMPDEST JUMPDEST PUSH3 0x54B DUP5 DUP3 DUP6 PUSH3 0x4D2 JUMP JUMPDEST POP SWAP4 SWAP3 POP POP POP JUMP JUMPDEST PUSH1 0x0 DUP3 PUSH1 0x1F DUP4 ADD SLT PUSH3 0x56B JUMPI PUSH3 0x56A PUSH3 0x3FD JUMP JUMPDEST JUMPDEST DUP2 MLOAD PUSH3 0x57D DUP5 DUP3 PUSH1 0x20 DUP7 ADD PUSH3 0x508 JUMP JUMPDEST SWAP2 POP POP SWAP3 SWAP2 POP POP JUMP JUMPDEST PUSH1 0x0 DUP1 PUSH1 0x0 DUP1 PUSH1 0x0 PUSH1 0xA0 DUP7 DUP9 SUB SLT ISZERO PUSH3 0x5A5 JUMPI PUSH3 0x5A4 PUSH3 0x250 JUMP JUMPDEST JUMPDEST PUSH1 0x0 DUP7 ADD MLOAD PUSH8 0xFFFFFFFFFFFFFFFF DUP2 GT ISZERO PUSH3 0x5C6 JUMPI PUSH3 0x5C5 PUSH3 0x255 JUMP JUMPDEST JUMPDEST PUSH3 0x5D4 DUP9 DUP3 DUP10 ADD PUSH3 0x553 JUMP JUMPDEST SWAP6 POP POP PUSH1 0x20 DUP7 ADD MLOAD PUSH8 0xFFFFFFFFFFFFFFFF DUP2 GT ISZERO PUSH3 0x5F8 JUMPI PUSH3 0x5F7 PUSH3 0x255 JUMP JUMPDEST JUMPDEST PUSH3 0x606 DUP9 DUP3 DUP10 ADD PUSH3 0x553 JUMP JUMPDEST SWAP5 POP POP PUSH1 0x40 PUSH3 0x619 DUP9 DUP3 DUP10 ADD PUSH3 0x320 JUMP JUMPDEST SWAP4 POP POP PUSH1 0x60 PUSH3 0x62C DUP9 DUP3 DUP10 ADD PUSH3 0x320 JUMP JUMPDEST SWAP3 POP POP PUSH1 0x80 PUSH3 0x63F DUP9 DUP3 DUP10 ADD PUSH3 0x2E5 JUMP JUMPDEST SWAP2 POP POP SWAP3 SWAP6 POP SWAP3 SWAP6 SWAP1 SWAP4 POP JUMP JUMPDEST PUSH1 0x80 MLOAD PUSH1 0xA0 MLOAD PUSH2 0x3A11 PUSH3 0x687 PUSH1 0x0 CODECOPY PUSH1 0x0 DUP2 DUP2 PUSH2 0x1680 ADD MSTORE DUP2 DUP2 PUSH2 0x1766 ADD MSTORE PUSH2 0x1AAA ADD MSTORE PUSH1 0x0 DUP2 DUP2 PUSH2 0x736 ADD MSTORE PUSH2 0x1A86 ADD MSTORE PUSH2 0x3A11 PUSH1 0x0 RETURN INVALID PUSH1 0x80 PUSH1 0x40 MSTORE CALLVALUE DUP1 ISZERO PUSH2 0x10 JUMPI PUSH1 0x0 DUP1 REVERT JUMPDEST POP PUSH1 0x4 CALLDATASIZE LT PUSH2 0x1FB JUMPI PUSH1 0x0 CALLDATALOAD PUSH1 0xE0 SHR DUP1 PUSH4 0x8AE39CAC GT PUSH2 0x11A JUMPI DUP1 PUSH4 0xB6B55F25 GT PUSH2 0xAD JUMPI DUP1 PUSH4 0xCCD34CD5 GT PUSH2 0x7C JUMPI DUP1 PUSH4 0xCCD34CD5 EQ PUSH2 0x521 JUMPI DUP1 PUSH4 0xDB2E21BC EQ PUSH2 0x53F JUMPI DUP1 PUSH4 0xF2FDE38B EQ PUSH2 0x549 JUMPI DUP1 PUSH4 0xF40F0F52 EQ PUSH2 0x565 JUMPI DUP1 PUSH4 0xF7C618C1 EQ PUSH2 0x595 JUMPI PUSH2 0x1FB JUMP JUMPDEST DUP1 PUSH4 0xB6B55F25 EQ PUSH2 0x4AB JUMPI DUP1 PUSH4 0xBD617191 EQ PUSH2 0x4C7 JUMPI DUP1 PUSH4 0xC7D936EC EQ PUSH2 0x4E5 JUMPI DUP1 PUSH4 0xCC7A262E EQ PUSH2 0x503 JUMPI PUSH2 0x1FB JUMP JUMPDEST DUP1 PUSH4 0x9513997F GT PUSH2 0xE9 JUMPI DUP1 PUSH4 0x9513997F EQ PUSH2 0x439 JUMPI DUP1 PUSH4 0x9BE65A60 EQ PUSH2 0x455 JUMPI DUP1 PUSH4 0xA0B40905 EQ PUSH2 0x471 JUMPI DUP1 PUSH4 0xA9F8D181 EQ PUSH2 0x48D JUMPI PUSH2 0x1FB JUMP JUMPDEST DUP1 PUSH4 0x8AE39CAC EQ PUSH2 0x3C1 JUMPI DUP1 PUSH4 0x8DA5CB5B EQ PUSH2 0x3DF JUMPI DUP1 PUSH4 0x8F662915 EQ PUSH2 0x3FD JUMPI DUP1 PUSH4 0x92E8990E EQ PUSH2 0x41B JUMPI PUSH2 0x1FB JUMP JUMPDEST DUP1 PUSH4 0x48CD4CB1 GT PUSH2 0x192 JUMPI DUP1 PUSH4 0x68109631 GT PUSH2 0x161 JUMPI DUP1 PUSH4 0x68109631 EQ PUSH2 0x373 JUMPI DUP1 PUSH4 0x715018A6 EQ PUSH2 0x38F JUMPI DUP1 PUSH4 0x80DC0672 EQ PUSH2 0x399 JUMPI DUP1 PUSH4 0x8AD1071B EQ PUSH2 0x3A3 JUMPI PUSH2 0x1FB JUMP JUMPDEST DUP1 PUSH4 0x48CD4CB1 EQ PUSH2 0x2FB JUMPI DUP1 PUSH4 0x4A7C01EC EQ PUSH2 0x319 JUMPI DUP1 PUSH4 0x5A0B5F34 EQ PUSH2 0x337 JUMPI DUP1 PUSH4 0x66FE9F8A EQ PUSH2 0x355 JUMPI PUSH2 0x1FB JUMP JUMPDEST DUP1 PUSH4 0x2AA2C381 GT PUSH2 0x1CE JUMPI DUP1 PUSH4 0x2AA2C381 EQ PUSH2 0x289 JUMPI DUP1 PUSH4 0x2E1A7D4D EQ PUSH2 0x2A5 JUMPI DUP1 PUSH4 0x3279BEAB EQ PUSH2 0x2C1 JUMPI DUP1 PUSH4 0x392E53CD EQ PUSH2 0x2DD JUMPI PUSH2 0x1FB JUMP JUMPDEST DUP1 PUSH4 0x1F8A976 EQ PUSH2 0x200 JUMPI DUP1 PUSH4 0xACE6247 EQ PUSH2 0x21C JUMPI DUP1 PUSH4 0x1959A002 EQ PUSH2 0x23A JUMPI DUP1 PUSH4 0x1AED6553 EQ PUSH2 0x26B JUMPI JUMPDEST PUSH1 0x0 DUP1 REVERT JUMPDEST PUSH2 0x21A PUSH1 0x4 DUP1 CALLDATASIZE SUB DUP2 ADD SWAP1 PUSH2 0x215 SWAP2 SWAP1 PUSH2 0x2511 JUMP JUMPDEST PUSH2 0x5B3 JUMP JUMPDEST STOP JUMPDEST PUSH2 0x224 PUSH2 0x6B4 JUMP JUMPDEST PUSH1 0x40 MLOAD PUSH2 0x231 SWAP2 SWAP1 PUSH2 0x254D JUMP JUMPDEST PUSH1 0x40 MLOAD DUP1 SWAP2 SUB SWAP1 RETURN JUMPDEST PUSH2 0x254 PUSH1 0x4 DUP1 CALLDATASIZE SUB DUP2 ADD SWAP1 PUSH2 0x24F SWAP2 SWAP1 PUSH2 0x25C6 JUMP JUMPDEST PUSH2 0x6BA JUMP JUMPDEST PUSH1 0x40 MLOAD PUSH2 0x262 SWAP3 SWAP2 SWAP1 PUSH2 0x25F3 JUMP JUMPDEST PUSH1 0x40 MLOAD DUP1 SWAP2 SUB SWAP1 RETURN JUMPDEST PUSH2 0x273 PUSH2 0x6DE JUMP JUMPDEST PUSH1 0x40 MLOAD PUSH2 0x280 SWAP2 SWAP1 PUSH2 0x254D JUMP JUMPDEST PUSH1 0x40 MLOAD DUP1 SWAP2 SUB SWAP1 RETURN JUMPDEST PUSH2 0x2A3 PUSH1 0x4 DUP1 CALLDATASIZE SUB DUP2 ADD SWAP1 PUSH2 0x29E SWAP2 SWAP1 PUSH2 0x265A JUMP JUMPDEST PUSH2 0x6E4 JUMP JUMPDEST STOP JUMPDEST PUSH2 0x2BF PUSH1 0x4 DUP1 CALLDATASIZE SUB DUP2 ADD SWAP1 PUSH2 0x2BA SWAP2 SWAP1 PUSH2 0x2511 JUMP JUMPDEST PUSH2 0x9BE JUMP JUMPDEST STOP JUMPDEST PUSH2 0x2DB PUSH1 0x4 DUP1 CALLDATASIZE SUB DUP2 ADD SWAP1 PUSH2 0x2D6 SWAP2 SWAP1 PUSH2 0x2511 JUMP JUMPDEST PUSH2 0xC16 JUMP JUMPDEST STOP JUMPDEST PUSH2 0x2E5 PUSH2 0xCE2 JUMP JUMPDEST PUSH1 0x40 MLOAD PUSH2 0x2F2 SWAP2 SWAP1 PUSH2 0x272B JUMP JUMPDEST PUSH1 0x40 MLOAD DUP1 SWAP2 SUB SWAP1 RETURN JUMPDEST PUSH2 0x303 PUSH2 0xCF5 JUMP JUMPDEST PUSH1 0x40 MLOAD PUSH2 0x310 SWAP2 SWAP1 PUSH2 0x254D JUMP JUMPDEST PUSH1 0x40 MLOAD DUP1 SWAP2 SUB SWAP1 RETURN JUMPDEST PUSH2 0x321 PUSH2 0xCFB JUMP JUMPDEST PUSH1 0x40 MLOAD PUSH2 0x32E SWAP2 SWAP1 PUSH2 0x272B JUMP JUMPDEST PUSH1 0x40 MLOAD DUP1 SWAP2 SUB SWAP1 RETURN JUMPDEST PUSH2 0x33F PUSH2 0xD0E JUMP JUMPDEST PUSH1 0x40 MLOAD PUSH2 0x34C SWAP2 SWAP1 PUSH2 0x272B JUMP JUMPDEST PUSH1 0x40 MLOAD DUP1 SWAP2 SUB SWAP1 RETURN JUMPDEST PUSH2 0x35D PUSH2 0xD21 JUMP JUMPDEST PUSH1 0x40 MLOAD PUSH2 0x36A SWAP2 SWAP1 PUSH2 0x254D JUMP JUMPDEST PUSH1 0x40 MLOAD DUP1 SWAP2 SUB SWAP1 RETURN JUMPDEST PUSH2 0x38D PUSH1 0x4 DUP1 CALLDATASIZE SUB DUP2 ADD SWAP1 PUSH2 0x388 SWAP2 SWAP1 PUSH2 0x2772 JUMP JUMPDEST PUSH2 0xD27 JUMP JUMPDEST STOP JUMPDEST PUSH2 0x397 PUSH2 0xE45 JUMP JUMPDEST STOP JUMPDEST PUSH2 0x3A1 PUSH2 0xECD JUMP JUMPDEST STOP JUMPDEST PUSH2 0x3AB PUSH2 0xF52 JUMP JUMPDEST PUSH1 0x40 MLOAD PUSH2 0x3B8 SWAP2 SWAP1 PUSH2 0x254D JUMP JUMPDEST PUSH1 0x40 MLOAD DUP1 SWAP2 SUB SWAP1 RETURN JUMPDEST PUSH2 0x3C9 PUSH2 0xF58 JUMP JUMPDEST PUSH1 0x40 MLOAD PUSH2 0x3D6 SWAP2 SWAP1 PUSH2 0x254D JUMP JUMPDEST PUSH1 0x40 MLOAD DUP1 SWAP2 SUB SWAP1 RETURN JUMPDEST PUSH2 0x3E7 PUSH2 0xF5E JUMP JUMPDEST PUSH1 0x40 MLOAD PUSH2 0x3F4 SWAP2 SWAP1 PUSH2 0x27C1 JUMP JUMPDEST PUSH1 0x40 MLOAD DUP1 SWAP2 SUB SWAP1 RETURN JUMPDEST PUSH2 0x405 PUSH2 0xF87 JUMP JUMPDEST PUSH1 0x40 MLOAD PUSH2 0x412 SWAP2 SWAP1 PUSH2 0x254D JUMP JUMPDEST PUSH1 0x40 MLOAD DUP1 SWAP2 SUB SWAP1 RETURN JUMPDEST PUSH2 0x423 PUSH2 0xF8D JUMP JUMPDEST PUSH1 0x40 MLOAD PUSH2 0x430 SWAP2 SWAP1 PUSH2 0x272B JUMP JUMPDEST PUSH1 0x40 MLOAD DUP1 SWAP2 SUB SWAP1 RETURN JUMPDEST PUSH2 0x453 PUSH1 0x4 DUP1 CALLDATASIZE SUB DUP2 ADD SWAP1 PUSH2 0x44E SWAP2 SWAP1 PUSH2 0x27DC JUMP JUMPDEST PUSH2 0xFD0 JUMP JUMPDEST STOP JUMPDEST PUSH2 0x46F PUSH1 0x4 DUP1 CALLDATASIZE SUB DUP2 ADD SWAP1 PUSH2 0x46A SWAP2 SWAP1 PUSH2 0x25C6 JUMP JUMPDEST PUSH2 0x1168 JUMP JUMPDEST STOP JUMPDEST PUSH2 0x48B PUSH1 0x4 DUP1 CALLDATASIZE SUB DUP2 ADD SWAP1 PUSH2 0x486 SWAP2 SWAP1 PUSH2 0x2772 JUMP JUMPDEST PUSH2 0x1442 JUMP JUMPDEST STOP JUMPDEST PUSH2 0x495 PUSH2 0x15C3 JUMP JUMPDEST PUSH1 0x40 MLOAD PUSH2 0x4A2 SWAP2 SWAP1 PUSH2 0x254D JUMP JUMPDEST PUSH1 0x40 MLOAD DUP1 SWAP2 SUB SWAP1 RETURN JUMPDEST PUSH2 0x4C5 PUSH1 0x4 DUP1 CALLDATASIZE SUB DUP2 ADD SWAP1 PUSH2 0x4C0 SWAP2 SWAP1 PUSH2 0x2511 JUMP JUMPDEST PUSH2 0x15C9 JUMP JUMPDEST STOP JUMPDEST PUSH2 0x4CF PUSH2 0x1A84 JUMP JUMPDEST PUSH1 0x40 MLOAD PUSH2 0x4DC SWAP2 SWAP1 PUSH2 0x27C1 JUMP JUMPDEST PUSH1 0x40 MLOAD DUP1 SWAP2 SUB SWAP1 RETURN JUMPDEST PUSH2 0x4ED PUSH2 0x1AA8 JUMP JUMPDEST PUSH1 0x40 MLOAD PUSH2 0x4FA SWAP2 SWAP1 PUSH2 0x287B JUMP JUMPDEST PUSH1 0x40 MLOAD DUP1 SWAP2 SUB SWAP1 RETURN JUMPDEST PUSH2 0x50B PUSH2 0x1ACC JUMP JUMPDEST PUSH1 0x40 MLOAD PUSH2 0x518 SWAP2 SWAP1 PUSH2 0x28B7 JUMP JUMPDEST PUSH1 0x40 MLOAD DUP1 SWAP2 SUB SWAP1 RETURN JUMPDEST PUSH2 0x529 PUSH2 0x1AF2 JUMP JUMPDEST PUSH1 0x40 MLOAD PUSH2 0x536 SWAP2 SWAP1 PUSH2 0x254D JUMP JUMPDEST PUSH1 0x40 MLOAD DUP1 SWAP2 SUB SWAP1 RETURN JUMPDEST PUSH2 0x547 PUSH2 0x1AF8 JUMP JUMPDEST STOP JUMPDEST PUSH2 0x563 PUSH1 0x4 DUP1 CALLDATASIZE SUB DUP2 ADD SWAP1 PUSH2 0x55E SWAP2 SWAP1 PUSH2 0x25C6 JUMP JUMPDEST PUSH2 0x1C59 JUMP JUMPDEST STOP JUMPDEST PUSH2 0x57F PUSH1 0x4 DUP1 CALLDATASIZE SUB DUP2 ADD SWAP1 PUSH2 0x57A SWAP2 SWAP1 PUSH2 0x25C6 JUMP JUMPDEST PUSH2 0x1D50 JUMP JUMPDEST PUSH1 0x40 MLOAD PUSH2 0x58C SWAP2 SWAP1 PUSH2 0x254D JUMP JUMPDEST PUSH1 0x40 MLOAD DUP1 SWAP2 SUB SWAP1 RETURN JUMPDEST PUSH2 0x59D PUSH2 0x1F07 JUMP JUMPDEST PUSH1 0x40 MLOAD PUSH2 0x5AA SWAP2 SWAP1 PUSH2 0x28B7 JUMP JUMPDEST PUSH1 0x40 MLOAD DUP1 SWAP2 SUB SWAP1 RETURN JUMPDEST PUSH2 0x5BB PUSH2 0x1F2D JUMP JUMPDEST PUSH20 0xFFFFFFFFFFFFFFFFFFFFFFFFFFFFFFFFFFFFFFFF AND PUSH2 0x5D9 PUSH2 0xF5E JUMP JUMPDEST PUSH20 0xFFFFFFFFFFFFFFFFFFFFFFFFFFFFFFFFFFFFFFFF AND EQ PUSH2 0x62F JUMPI PUSH1 0x40 MLOAD PUSH32 0x8C379A000000000000000000000000000000000000000000000000000000000 DUP2 MSTORE PUSH1 0x4 ADD PUSH2 0x626 SWAP1 PUSH2 0x292F JUMP JUMPDEST PUSH1 0x40 MLOAD DUP1 SWAP2 SUB SWAP1 REVERT JUMPDEST PUSH1 0x5 SLOAD NUMBER LT PUSH2 0x673 JUMPI PUSH1 0x40 MLOAD PUSH32 0x8C379A000000000000000000000000000000000000000000000000000000000 DUP2 MSTORE PUSH1 0x4 ADD PUSH2 0x66A SWAP1 PUSH2 0x299B JUMP JUMPDEST PUSH1 0x40 MLOAD DUP1 SWAP2 SUB SWAP1 REVERT JUMPDEST DUP1 PUSH1 0xB DUP2 SWAP1 SSTORE POP PUSH32 0xC4D677EEF92893AC7EC52FAF8140FC6C851AB4736302B4F3A89DFB20696A0DF DUP2 PUSH1 0x40 MLOAD PUSH2 0x6A9 SWAP2 SWAP1 PUSH2 0x254D JUMP JUMPDEST PUSH1 0x40 MLOAD DUP1 SWAP2 SUB SWAP1 LOG1 POP JUMP JUMPDEST PUSH1 0xA SLOAD DUP2 JUMP JUMPDEST PUSH1 0xF PUSH1 0x20 MSTORE DUP1 PUSH1 0x0 MSTORE PUSH1 0x40 PUSH1 0x0 KECCAK256 PUSH1 0x0 SWAP2 POP SWAP1 POP DUP1 PUSH1 0x0 ADD SLOAD SWAP1 DUP1 PUSH1 0x1 ADD SLOAD SWAP1 POP DUP3 JUMP JUMPDEST PUSH1 0x4 SLOAD DUP2 JUMP JUMPDEST PUSH1 0x2 PUSH1 0x1 SWAP1 SLOAD SWAP1 PUSH2 0x100 EXP SWAP1 DIV PUSH1 0xFF AND ISZERO PUSH2 0x734 JUMPI PUSH1 0x40 MLOAD PUSH32 0x8C379A000000000000000000000000000000000000000000000000000000000 DUP2 MSTORE PUSH1 0x4 ADD PUSH2 0x72B SWAP1 PUSH2 0x2A07 JUMP JUMPDEST PUSH1 0x40 MLOAD DUP1 SWAP2 SUB SWAP1 REVERT JUMPDEST PUSH32 0x0 PUSH20 0xFFFFFFFFFFFFFFFFFFFFFFFFFFFFFFFFFFFFFFFF AND CALLER PUSH20 0xFFFFFFFFFFFFFFFFFFFFFFFFFFFFFFFFFFFFFFFF AND EQ PUSH2 0x7C2 JUMPI PUSH1 0x40 MLOAD PUSH32 0x8C379A000000000000000000000000000000000000000000000000000000000 DUP2 MSTORE PUSH1 0x4 ADD PUSH2 0x7B9 SWAP1 PUSH2 0x2A73 JUMP JUMPDEST PUSH1 0x40 MLOAD DUP1 SWAP2 SUB SWAP1 REVERT JUMPDEST PUSH1 0x1 PUSH1 0x2 PUSH1 0x1 PUSH2 0x100 EXP DUP2 SLOAD DUP2 PUSH1 0xFF MUL NOT AND SWAP1 DUP4 ISZERO ISZERO MUL OR SWAP1 SSTORE POP DUP8 PUSH1 0xE PUSH1 0x0 PUSH2 0x100 EXP DUP2 SLOAD DUP2 PUSH20 0xFFFFFFFFFFFFFFFFFFFFFFFFFFFFFFFFFFFFFFFF MUL NOT AND SWAP1 DUP4 PUSH20 0xFFFFFFFFFFFFFFFFFFFFFFFFFFFFFFFFFFFFFFFF AND MUL OR SWAP1 SSTORE POP DUP7 PUSH1 0xD PUSH1 0x0 PUSH2 0x100 EXP DUP2 SLOAD DUP2 PUSH20 0xFFFFFFFFFFFFFFFFFFFFFFFFFFFFFFFFFFFFFFFF MUL NOT AND SWAP1 DUP4 PUSH20 0xFFFFFFFFFFFFFFFFFFFFFFFFFFFFFFFFFFFFFFFF AND MUL OR SWAP1 SSTORE POP DUP6 PUSH1 0xB DUP2 SWAP1 SSTORE POP DUP5 PUSH1 0x5 DUP2 SWAP1 SSTORE POP DUP4 PUSH1 0x4 DUP2 SWAP1 SSTORE POP PUSH1 0x0 DUP4 GT ISZERO PUSH2 0x8A7 JUMPI PUSH1 0x1 PUSH1 0x2 PUSH1 0x0 PUSH2 0x100 EXP DUP2 SLOAD DUP2 PUSH1 0xFF MUL NOT AND SWAP1 DUP4 ISZERO ISZERO MUL OR SWAP1 SSTORE POP DUP3 PUSH1 0x7 DUP2 SWAP1 SSTORE POP DUP2 PUSH1 0x8 DUP2 SWAP1 SSTORE POP JUMPDEST PUSH1 0x0 PUSH1 0xD PUSH1 0x0 SWAP1 SLOAD SWAP1 PUSH2 0x100 EXP SWAP1 DIV PUSH20 0xFFFFFFFFFFFFFFFFFFFFFFFFFFFFFFFFFFFFFFFF AND PUSH20 0xFFFFFFFFFFFFFFFFFFFFFFFFFFFFFFFFFFFFFFFF AND PUSH4 0x313CE567 PUSH1 0x40 MLOAD DUP2 PUSH4 0xFFFFFFFF AND PUSH1 0xE0 SHL DUP2 MSTORE PUSH1 0x4 ADD PUSH1 0x20 PUSH1 0x40 MLOAD DUP1 DUP4 SUB DUP2 DUP7 GAS STATICCALL ISZERO DUP1 ISZERO PUSH2 0x916 JUMPI RETURNDATASIZE PUSH1 0x0 DUP1 RETURNDATACOPY RETURNDATASIZE PUSH1 0x0 REVERT JUMPDEST POP POP POP POP PUSH1 0x40 MLOAD RETURNDATASIZE PUSH1 0x1F NOT PUSH1 0x1F DUP3 ADD AND DUP3 ADD DUP1 PUSH1 0x40 MSTORE POP DUP2 ADD SWAP1 PUSH2 0x93A SWAP2 SWAP1 PUSH2 0x2ACC JUMP JUMPDEST PUSH1 0xFF AND SWAP1 POP PUSH1 0x1E DUP2 LT PUSH2 0x982 JUMPI PUSH1 0x40 MLOAD PUSH32 0x8C379A000000000000000000000000000000000000000000000000000000000 DUP2 MSTORE PUSH1 0x4 ADD PUSH2 0x979 SWAP1 PUSH2 0x2B45 JUMP JUMPDEST PUSH1 0x40 MLOAD DUP1 SWAP2 SUB SWAP1 REVERT JUMPDEST DUP1 PUSH1 0x1E PUSH2 0x98F SWAP2 SWAP1 PUSH2 0x2B94 JUMP JUMPDEST PUSH1 0xA PUSH2 0x99B SWAP2 SWAP1 PUSH2 0x2CFB JUMP JUMPDEST PUSH1 0xC DUP2 SWAP1 SSTORE POP PUSH1 0x5 SLOAD PUSH1 0x6 DUP2 SWAP1 SSTORE POP PUSH2 0x9B3 DUP3 PUSH2 0x1C59 JUMP JUMPDEST POP POP POP POP POP POP POP POP POP JUMP JUMPDEST PUSH1 0x2 PUSH1 0x1 SLOAD SUB PUSH2 0xA03 JUMPI PUSH1 0x40 MLOAD PUSH32 0x8C379A000000000000000000000000000000000000000000000000000000000 DUP2 MSTORE PUSH1 0x4 ADD PUSH2 0x9FA SWAP1 PUSH2 0x2D92 JUMP JUMPDEST PUSH1 0x40 MLOAD DUP1 SWAP2 SUB SWAP1 REVERT JUMPDEST PUSH1 0x2 PUSH1 0x1 DUP2 SWAP1 SSTORE POP PUSH1 0x0 PUSH1 0xF PUSH1 0x0 CALLER PUSH20 0xFFFFFFFFFFFFFFFFFFFFFFFFFFFFFFFFFFFFFFFF AND PUSH20 0xFFFFFFFFFFFFFFFFFFFFFFFFFFFFFFFFFFFFFFFF AND DUP2 MSTORE PUSH1 0x20 ADD SWAP1 DUP2 MSTORE PUSH1 0x20 ADD PUSH1 0x0 KECCAK256 SWAP1 POP DUP2 DUP2 PUSH1 0x0 ADD SLOAD LT ISZERO PUSH2 0xA95 JUMPI PUSH1 0x40 MLOAD PUSH32 0x8C379A000000000000000000000000000000000000000000000000000000000 DUP2 MSTORE PUSH1 0x4 ADD PUSH2 0xA8C SWAP1 PUSH2 0x2DFE JUMP JUMPDEST PUSH1 0x40 MLOAD DUP1 SWAP2 SUB SWAP1 REVERT JUMPDEST PUSH2 0xA9D PUSH2 0x1F35 JUMP JUMPDEST PUSH1 0x0 DUP2 PUSH1 0x1 ADD SLOAD PUSH1 0xC SLOAD PUSH1 0x3 SLOAD DUP5 PUSH1 0x0 ADD SLOAD PUSH2 0xAB9 SWAP2 SWAP1 PUSH2 0x2E1E JUMP JUMPDEST PUSH2 0xAC3 SWAP2 SWAP1 PUSH2 0x2EA7 JUMP JUMPDEST PUSH2 0xACD SWAP2 SWAP1 PUSH2 0x2B94 JUMP JUMPDEST SWAP1 POP PUSH1 0x0 DUP4 GT ISZERO PUSH2 0xB3E JUMPI DUP3 DUP3 PUSH1 0x0 ADD SLOAD PUSH2 0xAE8 SWAP2 SWAP1 PUSH2 0x2B94 JUMP JUMPDEST DUP3 PUSH1 0x0 ADD DUP2 SWAP1 SSTORE POP PUSH2 0xB3D CALLER DUP5 PUSH1 0xE PUSH1 0x0 SWAP1 SLOAD SWAP1 PUSH2 0x100 EXP SWAP1 DIV PUSH20 0xFFFFFFFFFFFFFFFFFFFFFFFFFFFFFFFFFFFFFFFF AND PUSH20 0xFFFFFFFFFFFFFFFFFFFFFFFFFFFFFFFFFFFFFFFF AND PUSH2 0x204F SWAP1 SWAP3 SWAP2 SWAP1 PUSH4 0xFFFFFFFF AND JUMP JUMPDEST JUMPDEST PUSH1 0x0 DUP2 GT ISZERO PUSH2 0xB95 JUMPI PUSH2 0xB94 CALLER DUP3 PUSH1 0xD PUSH1 0x0 SWAP1 SLOAD SWAP1 PUSH2 0x100 EXP SWAP1 DIV PUSH20 0xFFFFFFFFFFFFFFFFFFFFFFFFFFFFFFFFFFFFFFFF AND PUSH20 0xFFFFFFFFFFFFFFFFFFFFFFFFFFFFFFFFFFFFFFFF AND PUSH2 0x204F SWAP1 SWAP3 SWAP2 SWAP1 PUSH4 0xFFFFFFFF AND JUMP JUMPDEST JUMPDEST PUSH1 0xC SLOAD PUSH1 0x3 SLOAD DUP4 PUSH1 0x0 ADD SLOAD PUSH2 0xBAA SWAP2 SWAP1 PUSH2 0x2E1E JUMP JUMPDEST PUSH2 0xBB4 SWAP2 SWAP1 PUSH2 0x2EA7 JUMP JUMPDEST DUP3 PUSH1 0x1 ADD DUP2 SWAP1 SSTORE POP CALLER PUSH20 0xFFFFFFFFFFFFFFFFFFFFFFFFFFFFFFFFFFFFFFFF AND PUSH32 0x884EDAD9CE6FA2440D8A54CC123490EB96D2768479D49FF9C7366125A9424364 DUP5 PUSH1 0x40 MLOAD PUSH2 0xC02 SWAP2 SWAP1 PUSH2 0x254D JUMP JUMPDEST PUSH1 0x40 MLOAD DUP1 SWAP2 SUB SWAP1 LOG2 POP POP PUSH1 0x1 DUP1 DUP2 SWAP1 SSTORE POP POP JUMP JUMPDEST PUSH2 0xC1E PUSH2 0x1F2D JUMP JUMPDEST PUSH20 0xFFFFFFFFFFFFFFFFFFFFFFFFFFFFFFFFFFFFFFFF AND PUSH2 0xC3C PUSH2 0xF5E JUMP JUMPDEST PUSH20 0xFFFFFFFFFFFFFFFFFFFFFFFFFFFFFFFFFFFFFFFF AND EQ PUSH2 0xC92 JUMPI PUSH1 0x40 MLOAD PUSH32 0x8C379A000000000000000000000000000000000000000000000000000000000 DUP2 MSTORE PUSH1 0x4 ADD PUSH2 0xC89 SWAP1 PUSH2 0x292F JUMP JUMPDEST PUSH1 0x40 MLOAD DUP1 SWAP2 SUB SWAP1 REVERT JUMPDEST PUSH2 0xCDF CALLER DUP3 PUSH1 0xD PUSH1 0x0 SWAP1 SLOAD SWAP1 PUSH2 0x100 EXP SWAP1 DIV PUSH20 0xFFFFFFFFFFFFFFFFFFFFFFFFFFFFFFFFFFFFFFFF AND PUSH20 0xFFFFFFFFFFFFFFFFFFFFFFFFFFFFFFFFFFFFFFFF AND PUSH2 0x204F SWAP1 SWAP3 SWAP2 SWAP1 PUSH4 0xFFFFFFFF AND JUMP JUMPDEST POP JUMP JUMPDEST PUSH1 0x2 PUSH1 0x1 SWAP1 SLOAD SWAP1 PUSH2 0x100 EXP SWAP1 DIV PUSH1 0xFF AND DUP2 JUMP JUMPDEST PUSH1 0x5 SLOAD DUP2 JUMP JUMPDEST PUSH1 0x2 PUSH1 0x0 SWAP1 SLOAD SWAP1 PUSH2 0x100 EXP SWAP1 DIV PUSH1 0xFF AND DUP2 JUMP JUMPDEST PUSH1 0x9 PUSH1 0x0 SWAP1 SLOAD SWAP1 PUSH2 0x100 EXP SWAP1 DIV PUSH1 0xFF AND DUP2 JUMP JUMPDEST PUSH1 0x7 SLOAD DUP2 JUMP JUMPDEST PUSH2 0xD2F PUSH2 0x1F2D JUMP JUMPDEST PUSH20 0xFFFFFFFFFFFFFFFFFFFFFFFFFFFFFFFFFFFFFFFF AND PUSH2 0xD4D PUSH2 0xF5E JUMP JUMPDEST PUSH20 0xFFFFFFFFFFFFFFFFFFFFFFFFFFFFFFFFFFFFFFFF AND EQ PUSH2 0xDA3 JUMPI PUSH1 0x40 MLOAD PUSH32 0x8C379A000000000000000000000000000000000000000000000000000000000 DUP2 MSTORE PUSH1 0x4 ADD PUSH2 0xD9A SWAP1 PUSH2 0x292F JUMP JUMPDEST PUSH1 0x40 MLOAD DUP1 SWAP2 SUB SWAP1 REVERT JUMPDEST PUSH1 0x0 DUP2 LT ISZERO PUSH2 0xDE7 JUMPI PUSH1 0x40 MLOAD PUSH32 0x8C379A000000000000000000000000000000000000000000000000000000000 DUP2 MSTORE PUSH1 0x4 ADD PUSH2 0xDDE SWAP1 PUSH2 0x2F4A JUMP JUMPDEST PUSH1 0x40 MLOAD DUP1 SWAP2 SUB SWAP1 REVERT JUMPDEST DUP2 PUSH1 0x9 PUSH1 0x0 PUSH2 0x100 EXP DUP2 SLOAD DUP2 PUSH1 0xFF MUL NOT AND SWAP1 DUP4 ISZERO ISZERO MUL OR SWAP1 SSTORE POP DUP1 PUSH1 0xA DUP2 SWAP1 SSTORE POP PUSH32 0x915D08E0E89C58E352D7C1D66C942CB15DAC8A7294D2CA80DDF46F1998F0512B DUP3 DUP3 PUSH1 0x40 MLOAD PUSH2 0xE39 SWAP3 SWAP2 SWAP1 PUSH2 0x2F6A JUMP JUMPDEST PUSH1 0x40 MLOAD DUP1 SWAP2 SUB SWAP1 LOG1 POP POP JUMP JUMPDEST PUSH2 0xE4D PUSH2 0x1F2D JUMP JUMPDEST PUSH20 0xFFFFFFFFFFFFFFFFFFFFFFFFFFFFFFFFFFFFFFFF AND PUSH2 0xE6B PUSH2 0xF5E JUMP JUMPDEST PUSH20 0xFFFFFFFFFFFFFFFFFFFFFFFFFFFFFFFFFFFFFFFF AND EQ PUSH2 0xEC1 JUMPI PUSH1 0x40 MLOAD PUSH32 0x8C379A000000000000000000000000000000000000000000000000000000000 DUP2 MSTORE PUSH1 0x4 ADD PUSH2 0xEB8 SWAP1 PUSH2 0x292F JUMP JUMPDEST PUSH1 0x40 MLOAD DUP1 SWAP2 SUB SWAP1 REVERT JUMPDEST PUSH2 0xECB PUSH1 0x0 PUSH2 0x20D5 JUMP JUMPDEST JUMP JUMPDEST PUSH2 0xED5 PUSH2 0x1F2D JUMP JUMPDEST PUSH20 0xFFFFFFFFFFFFFFFFFFFFFFFFFFFFFFFFFFFFFFFF AND PUSH2 0xEF3 PUSH2 0xF5E JUMP JUMPDEST PUSH20 0xFFFFFFFFFFFFFFFFFFFFFFFFFFFFFFFFFFFFFFFF AND EQ PUSH2 0xF49 JUMPI PUSH1 0x40 MLOAD PUSH32 0x8C379A000000000000000000000000000000000000000000000000000000000 DUP2 MSTORE PUSH1 0x4 ADD PUSH2 0xF40 SWAP1 PUSH2 0x292F JUMP JUMPDEST PUSH1 0x40 MLOAD DUP1 SWAP2 SUB SWAP1 REVERT JUMPDEST NUMBER PUSH1 0x4 DUP2 SWAP1 SSTORE POP JUMP JUMPDEST PUSH1 0x8 SLOAD DUP2 JUMP JUMPDEST PUSH1 0xB SLOAD DUP2 JUMP JUMPDEST PUSH1 0x0 DUP1 PUSH1 0x0 SWAP1 SLOAD SWAP1 PUSH2 0x100 EXP SWAP1 DIV PUSH20 0xFFFFFFFFFFFFFFFFFFFFFFFFFFFFFFFFFFFFFFFF AND SWAP1 POP SWAP1 JUMP JUMPDEST PUSH1 0x3 SLOAD DUP2 JUMP JUMPDEST PUSH1 0x0 PUSH1 0x2 PUSH1 0x0 SWAP1 SLOAD SWAP1 PUSH2 0x100 EXP SWAP1 DIV PUSH1 0xFF AND ISZERO DUP1 PUSH2 0xFBA JUMPI POP PUSH1 0x8 SLOAD PUSH1 0x5 SLOAD PUSH2 0xFB6 SWAP2 SWAP1 PUSH2 0x2F93 JUMP JUMPDEST NUMBER LT ISZERO JUMPDEST ISZERO PUSH2 0xFC8 JUMPI PUSH1 0x0 SWAP1 POP PUSH2 0xFCD JUMP JUMPDEST PUSH1 0x1 SWAP1 POP JUMPDEST SWAP1 JUMP JUMPDEST PUSH2 0xFD8 PUSH2 0x1F2D JUMP JUMPDEST PUSH20 0xFFFFFFFFFFFFFFFFFFFFFFFFFFFFFFFFFFFFFFFF AND PUSH2 0xFF6 PUSH2 0xF5E JUMP JUMPDEST PUSH20 0xFFFFFFFFFFFFFFFFFFFFFFFFFFFFFFFFFFFFFFFF AND EQ PUSH2 0x104C JUMPI PUSH1 0x40 MLOAD PUSH32 0x8C379A000000000000000000000000000000000000000000000000000000000 DUP2 MSTORE PUSH1 0x4 ADD PUSH2 0x1043 SWAP1 PUSH2 0x292F JUMP JUMPDEST PUSH1 0x40 MLOAD DUP1 SWAP2 SUB SWAP1 REVERT JUMPDEST PUSH1 0x5 SLOAD NUMBER LT PUSH2 0x1090 JUMPI PUSH1 0x40 MLOAD PUSH32 0x8C379A000000000000000000000000000000000000000000000000000000000 DUP2 MSTORE PUSH1 0x4 ADD PUSH2 0x1087 SWAP1 PUSH2 0x299B JUMP JUMPDEST PUSH1 0x40 MLOAD DUP1 SWAP2 SUB SWAP1 REVERT JUMPDEST DUP1 DUP3 LT PUSH2 0x10D2 JUMPI PUSH1 0x40 MLOAD PUSH32 0x8C379A000000000000000000000000000000000000000000000000000000000 DUP2 MSTORE PUSH1 0x4 ADD PUSH2 0x10C9 SWAP1 PUSH2 0x305B JUMP JUMPDEST PUSH1 0x40 MLOAD DUP1 SWAP2 SUB SWAP1 REVERT JUMPDEST DUP2 NUMBER LT PUSH2 0x1114 JUMPI PUSH1 0x40 MLOAD PUSH32 0x8C379A000000000000000000000000000000000000000000000000000000000 DUP2 MSTORE PUSH1 0x4 ADD PUSH2 0x110B SWAP1 PUSH2 0x30ED JUMP JUMPDEST PUSH1 0x40 MLOAD DUP1 SWAP2 SUB SWAP1 REVERT JUMPDEST DUP2 PUSH1 0x5 DUP2 SWAP1 SSTORE POP DUP1 PUSH1 0x4 DUP2 SWAP1 SSTORE POP PUSH1 0x5 SLOAD PUSH1 0x6 DUP2 SWAP1 SSTORE POP PUSH32 0x7CD0AB87D19036F3DFADADB232C78AA4879DDA3F0C994A9D637532410EE2CE06 DUP3 DUP3 PUSH1 0x40 MLOAD PUSH2 0x115C SWAP3 SWAP2 SWAP1 PUSH2 0x25F3 JUMP JUMPDEST PUSH1 0x40 MLOAD DUP1 SWAP2 SUB SWAP1 LOG1 POP POP JUMP JUMPDEST PUSH2 0x1170 PUSH2 0x1F2D JUMP JUMPDEST PUSH20 0xFFFFFFFFFFFFFFFFFFFFFFFFFFFFFFFFFFFFFFFF AND PUSH2 0x118E PUSH2 0xF5E JUMP JUMPDEST PUSH20 0xFFFFFFFFFFFFFFFFFFFFFFFFFFFFFFFFFFFFFFFF AND EQ PUSH2 0x11E4 JUMPI PUSH1 0x40 MLOAD PUSH32 0x8C379A000000000000000000000000000000000000000000000000000000000 DUP2 MSTORE PUSH1 0x4 ADD PUSH2 0x11DB SWAP1 PUSH2 0x292F JUMP JUMPDEST PUSH1 0x40 MLOAD DUP1 SWAP2 SUB SWAP1 REVERT JUMPDEST PUSH1 0xE PUSH1 0x0 SWAP1 SLOAD SWAP1 PUSH2 0x100 EXP SWAP1 DIV PUSH20 0xFFFFFFFFFFFFFFFFFFFFFFFFFFFFFFFFFFFFFFFF AND PUSH20 0xFFFFFFFFFFFFFFFFFFFFFFFFFFFFFFFFFFFFFFFF AND DUP2 PUSH20 0xFFFFFFFFFFFFFFFFFFFFFFFFFFFFFFFFFFFFFFFF AND SUB PUSH2 0x1274 JUMPI PUSH1 0x40 MLOAD PUSH32 0x8C379A000000000000000000000000000000000000000000000000000000000 DUP2 MSTORE PUSH1 0x4 ADD PUSH2 0x126B SWAP1 PUSH2 0x317F JUMP JUMPDEST PUSH1 0x40 MLOAD DUP1 SWAP2 SUB SWAP1 REVERT JUMPDEST PUSH1 0xD PUSH1 0x0 SWAP1 SLOAD SWAP1 PUSH2 0x100 EXP SWAP1 DIV PUSH20 0xFFFFFFFFFFFFFFFFFFFFFFFFFFFFFFFFFFFFFFFF AND PUSH20 0xFFFFFFFFFFFFFFFFFFFFFFFFFFFFFFFFFFFFFFFF AND DUP2 PUSH20 0xFFFFFFFFFFFFFFFFFFFFFFFFFFFFFFFFFFFFFFFF AND SUB PUSH2 0x1304 JUMPI PUSH1 0x40 MLOAD PUSH32 0x8C379A000000000000000000000000000000000000000000000000000000000 DUP2 MSTORE PUSH1 0x4 ADD PUSH2 0x12FB SWAP1 PUSH2 0x3211 JUMP JUMPDEST PUSH1 0x40 MLOAD DUP1 SWAP2 SUB SWAP1 REVERT JUMPDEST PUSH1 0x0 DUP2 PUSH20 0xFFFFFFFFFFFFFFFFFFFFFFFFFFFFFFFFFFFFFFFF AND PUSH4 0x70A08231 ADDRESS PUSH1 0x40 MLOAD DUP3 PUSH4 0xFFFFFFFF AND PUSH1 0xE0 SHL DUP2 MSTORE PUSH1 0x4 ADD PUSH2 0x133F SWAP2 SWAP1 PUSH2 0x27C1 JUMP JUMPDEST PUSH1 0x20 PUSH1 0x40 MLOAD DUP1 DUP4 SUB DUP2 DUP7 GAS STATICCALL ISZERO DUP1 ISZERO PUSH2 0x135C JUMPI RETURNDATASIZE PUSH1 0x0 DUP1 RETURNDATACOPY RETURNDATASIZE PUSH1 0x0 REVERT JUMPDEST POP POP POP POP PUSH1 0x40 MLOAD RETURNDATASIZE PUSH1 0x1F NOT PUSH1 0x1F DUP3 ADD AND DUP3 ADD DUP1 PUSH1 0x40 MSTORE POP DUP2 ADD SWAP1 PUSH2 0x1380 SWAP2 SWAP1 PUSH2 0x3246 JUMP JUMPDEST SWAP1 POP PUSH1 0x0 DUP2 SUB PUSH2 0x13C5 JUMPI PUSH1 0x40 MLOAD PUSH32 0x8C379A000000000000000000000000000000000000000000000000000000000 DUP2 MSTORE PUSH1 0x4 ADD PUSH2 0x13BC SWAP1 PUSH2 0x32E5 JUMP JUMPDEST PUSH1 0x40 MLOAD DUP1 SWAP2 SUB SWAP1 REVERT JUMPDEST PUSH2 0x13F0 CALLER DUP3 DUP5 PUSH20 0xFFFFFFFFFFFFFFFFFFFFFFFFFFFFFFFFFFFFFFFF AND PUSH2 0x204F SWAP1 SWAP3 SWAP2 SWAP1 PUSH4 0xFFFFFFFF AND JUMP JUMPDEST DUP2 PUSH20 0xFFFFFFFFFFFFFFFFFFFFFFFFFFFFFFFFFFFFFFFF AND PUSH32 0x14F11966A996E0629572E51064726D2057A80FBD34EFC066682C06A71DBB6E98 DUP3 PUSH1 0x40 MLOAD PUSH2 0x1436 SWAP2 SWAP1 PUSH2 0x254D JUMP JUMPDEST PUSH1 0x40 MLOAD DUP1 SWAP2 SUB SWAP1 LOG2 POP POP JUMP JUMPDEST PUSH2 0x144A PUSH2 0x1F2D JUMP JUMPDEST PUSH20 0xFFFFFFFFFFFFFFFFFFFFFFFFFFFFFFFFFFFFFFFF AND PUSH2 0x1468 PUSH2 0xF5E JUMP JUMPDEST PUSH20 0xFFFFFFFFFFFFFFFFFFFFFFFFFFFFFFFFFFFFFFFF AND EQ PUSH2 0x14BE JUMPI PUSH1 0x40 MLOAD PUSH32 0x8C379A000000000000000000000000000000000000000000000000000000000 DUP2 MSTORE PUSH1 0x4 ADD PUSH2 0x14B5 SWAP1 PUSH2 0x292F JUMP JUMPDEST PUSH1 0x40 MLOAD DUP1 SWAP2 SUB SWAP1 REVERT JUMPDEST PUSH1 0x2 PUSH1 0x0 SWAP1 SLOAD SWAP1 PUSH2 0x100 EXP SWAP1 DIV PUSH1 0xFF AND PUSH2 0x150D JUMPI PUSH1 0x40 MLOAD PUSH32 0x8C379A000000000000000000000000000000000000000000000000000000000 DUP2 MSTORE PUSH1 0x4 ADD PUSH2 0x1504 SWAP1 PUSH2 0x3351 JUMP JUMPDEST PUSH1 0x40 MLOAD DUP1 SWAP2 SUB SWAP1 REVERT JUMPDEST DUP2 ISZERO PUSH2 0x1563 JUMPI PUSH1 0x7 SLOAD DUP2 GT PUSH2 0x1557 JUMPI PUSH1 0x40 MLOAD PUSH32 0x8C379A000000000000000000000000000000000000000000000000000000000 DUP2 MSTORE PUSH1 0x4 ADD PUSH2 0x154E SWAP1 PUSH2 0x33BD JUMP JUMPDEST PUSH1 0x40 MLOAD DUP1 SWAP2 SUB SWAP1 REVERT JUMPDEST DUP1 PUSH1 0x7 DUP2 SWAP1 SSTORE POP PUSH2 0x1586 JUMP JUMPDEST DUP2 PUSH1 0x2 PUSH1 0x0 PUSH2 0x100 EXP DUP2 SLOAD DUP2 PUSH1 0xFF MUL NOT AND SWAP1 DUP4 ISZERO ISZERO MUL OR SWAP1 SSTORE POP PUSH1 0x0 PUSH1 0x7 DUP2 SWAP1 SSTORE POP JUMPDEST PUSH32 0x241F67EE5F41B7A5CABF911367329BE7215900F602EBFC47F89DCE2A6BCD847C PUSH1 0x7 SLOAD PUSH1 0x40 MLOAD PUSH2 0x15B7 SWAP2 SWAP1 PUSH2 0x254D JUMP JUMPDEST PUSH1 0x40 MLOAD DUP1 SWAP2 SUB SWAP1 LOG1 POP POP JUMP JUMPDEST PUSH1 0x6 SLOAD DUP2 JUMP JUMPDEST PUSH1 0x2 PUSH1 0x1 SLOAD SUB PUSH2 0x160E JUMPI PUSH1 0x40 MLOAD PUSH32 0x8C379A000000000000000000000000000000000000000000000000000000000 DUP2 MSTORE PUSH1 0x4 ADD PUSH2 0x1605 SWAP1 PUSH2 0x2D92 JUMP JUMPDEST PUSH1 0x40 MLOAD DUP1 SWAP2 SUB SWAP1 REVERT JUMPDEST PUSH1 0x2 PUSH1 0x1 DUP2 SWAP1 SSTORE POP PUSH1 0x0 PUSH1 0xF PUSH1 0x0 CALLER PUSH20 0xFFFFFFFFFFFFFFFFFFFFFFFFFFFFFFFFFFFFFFFF AND PUSH20 0xFFFFFFFFFFFFFFFFFFFFFFFFFFFFFFFFFFFFFFFF AND DUP2 MSTORE PUSH1 0x20 ADD SWAP1 DUP2 MSTORE PUSH1 0x20 ADD PUSH1 0x0 KECCAK256 SWAP1 POP PUSH1 0x9 PUSH1 0x0 SWAP1 SLOAD SWAP1 PUSH2 0x100 EXP SWAP1 DIV PUSH1 0xFF AND ISZERO DUP1 ISZERO PUSH2 0x1678 JUMPI POP PUSH1 0x0 PUSH1 0xA SLOAD EQ JUMPDEST DUP1 PUSH2 0x1719 JUMPI POP PUSH32 0x0 PUSH20 0xFFFFFFFFFFFFFFFFFFFFFFFFFFFFFFFFFFFFFFFF AND PUSH4 0xEA0D5DCD CALLER PUSH1 0x40 MLOAD DUP3 PUSH4 0xFFFFFFFF AND PUSH1 0xE0 SHL DUP2 MSTORE PUSH1 0x4 ADD PUSH2 0x16D7 SWAP2 SWAP1 PUSH2 0x27C1 JUMP JUMPDEST PUSH1 0x20 PUSH1 0x40 MLOAD DUP1 DUP4 SUB DUP2 DUP7 GAS STATICCALL ISZERO DUP1 ISZERO PUSH2 0x16F4 JUMPI RETURNDATASIZE PUSH1 0x0 DUP1 RETURNDATACOPY RETURNDATASIZE PUSH1 0x0 REVERT JUMPDEST POP POP POP POP PUSH1 0x40 MLOAD RETURNDATASIZE PUSH1 0x1F NOT PUSH1 0x1F DUP3 ADD AND DUP3 ADD DUP1 PUSH1 0x40 MSTORE POP DUP2 ADD SWAP1 PUSH2 0x1718 SWAP2 SWAP1 PUSH2 0x33F2 JUMP JUMPDEST JUMPDEST PUSH2 0x1758 JUMPI PUSH1 0x40 MLOAD PUSH32 0x8C379A000000000000000000000000000000000000000000000000000000000 DUP2 MSTORE PUSH1 0x4 ADD PUSH2 0x174F SWAP1 PUSH2 0x3491 JUMP JUMPDEST PUSH1 0x40 MLOAD DUP1 SWAP2 SUB SWAP1 REVERT JUMPDEST PUSH1 0x0 DUP1 PUSH1 0xA SLOAD GT ISZERO PUSH2 0x1813 JUMPI PUSH32 0x0 PUSH20 0xFFFFFFFFFFFFFFFFFFFFFFFFFFFFFFFFFFFFFFFF AND PUSH4 0x987EE156 CALLER PUSH1 0x40 MLOAD DUP3 PUSH4 0xFFFFFFFF AND PUSH1 0xE0 SHL DUP2 MSTORE PUSH1 0x4 ADD PUSH2 0x17BD SWAP2 SWAP1 PUSH2 0x27C1 JUMP JUMPDEST PUSH1 0xC0 PUSH1 0x40 MLOAD DUP1 DUP4 SUB DUP2 DUP7 GAS STATICCALL ISZERO DUP1 ISZERO PUSH2 0x17DA JUMPI RETURNDATASIZE PUSH1 0x0 DUP1 RETURNDATACOPY RETURNDATASIZE PUSH1 0x0 REVERT JUMPDEST POP POP POP POP PUSH1 0x40 MLOAD RETURNDATASIZE PUSH1 0x1F NOT PUSH1 0x1F DUP3 ADD AND DUP3 ADD DUP1 PUSH1 0x40 MSTORE POP DUP2 ADD SWAP1 PUSH2 0x17FE SWAP2 SWAP1 PUSH2 0x34C6 JUMP JUMPDEST SWAP1 SWAP2 SWAP3 SWAP4 SWAP5 POP SWAP1 SWAP2 SWAP3 POP SWAP1 SWAP2 POP SWAP1 POP POP DUP1 SWAP2 POP POP JUMPDEST PUSH1 0x0 PUSH1 0xA SLOAD EQ DUP1 PUSH2 0x1826 JUMPI POP PUSH1 0xA SLOAD DUP2 LT ISZERO JUMPDEST PUSH2 0x1865 JUMPI PUSH1 0x40 MLOAD PUSH32 0x8C379A000000000000000000000000000000000000000000000000000000000 DUP2 MSTORE PUSH1 0x4 ADD PUSH2 0x185C SWAP1 PUSH2 0x35C5 JUMP JUMPDEST PUSH1 0x40 MLOAD DUP1 SWAP2 SUB SWAP1 REVERT JUMPDEST PUSH2 0x186D PUSH2 0xF8D JUMP JUMPDEST PUSH1 0x2 PUSH1 0x0 PUSH2 0x100 EXP DUP2 SLOAD DUP2 PUSH1 0xFF MUL NOT AND SWAP1 DUP4 ISZERO ISZERO MUL OR SWAP1 SSTORE POP PUSH1 0x2 PUSH1 0x0 SWAP1 SLOAD SWAP1 PUSH2 0x100 EXP SWAP1 DIV PUSH1 0xFF AND ISZERO DUP1 PUSH2 0x18B3 JUMPI POP PUSH1 0x7 SLOAD DUP3 PUSH1 0x0 ADD SLOAD DUP5 PUSH2 0x18B0 SWAP2 SWAP1 PUSH2 0x2F93 JUMP JUMPDEST GT ISZERO JUMPDEST PUSH2 0x18F2 JUMPI PUSH1 0x40 MLOAD PUSH32 0x8C379A000000000000000000000000000000000000000000000000000000000 DUP2 MSTORE PUSH1 0x4 ADD PUSH2 0x18E9 SWAP1 PUSH2 0x3631 JUMP JUMPDEST PUSH1 0x40 MLOAD DUP1 SWAP2 SUB SWAP1 REVERT JUMPDEST PUSH2 0x18FA PUSH2 0x1F35 JUMP JUMPDEST PUSH1 0x0 DUP3 PUSH1 0x0 ADD SLOAD GT ISZERO PUSH2 0x1992 JUMPI PUSH1 0x0 DUP3 PUSH1 0x1 ADD SLOAD PUSH1 0xC SLOAD PUSH1 0x3 SLOAD DUP6 PUSH1 0x0 ADD SLOAD PUSH2 0x1923 SWAP2 SWAP1 PUSH2 0x2E1E JUMP JUMPDEST PUSH2 0x192D SWAP2 SWAP1 PUSH2 0x2EA7 JUMP JUMPDEST PUSH2 0x1937 SWAP2 SWAP1 PUSH2 0x2B94 JUMP JUMPDEST SWAP1 POP PUSH1 0x0 DUP2 GT ISZERO PUSH2 0x1990 JUMPI PUSH2 0x198F CALLER DUP3 PUSH1 0xD PUSH1 0x0 SWAP1 SLOAD SWAP1 PUSH2 0x100 EXP SWAP1 DIV PUSH20 0xFFFFFFFFFFFFFFFFFFFFFFFFFFFFFFFFFFFFFFFF AND PUSH20 0xFFFFFFFFFFFFFFFFFFFFFFFFFFFFFFFFFFFFFFFF AND PUSH2 0x204F SWAP1 SWAP3 SWAP2 SWAP1 PUSH4 0xFFFFFFFF AND JUMP JUMPDEST JUMPDEST POP JUMPDEST PUSH1 0x0 DUP4 GT ISZERO PUSH2 0x1A03 JUMPI DUP3 DUP3 PUSH1 0x0 ADD SLOAD PUSH2 0x19AB SWAP2 SWAP1 PUSH2 0x2F93 JUMP JUMPDEST DUP3 PUSH1 0x0 ADD DUP2 SWAP1 SSTORE POP PUSH2 0x1A02 CALLER ADDRESS DUP6 PUSH1 0xE PUSH1 0x0 SWAP1 SLOAD SWAP1 PUSH2 0x100 EXP SWAP1 DIV PUSH20 0xFFFFFFFFFFFFFFFFFFFFFFFFFFFFFFFFFFFFFFFF AND PUSH20 0xFFFFFFFFFFFFFFFFFFFFFFFFFFFFFFFFFFFFFFFF AND PUSH2 0x2199 SWAP1 SWAP4 SWAP3 SWAP2 SWAP1 PUSH4 0xFFFFFFFF AND JUMP JUMPDEST JUMPDEST PUSH1 0xC SLOAD PUSH1 0x3 SLOAD DUP4 PUSH1 0x0 ADD SLOAD PUSH2 0x1A18 SWAP2 SWAP1 PUSH2 0x2E1E JUMP JUMPDEST PUSH2 0x1A22 SWAP2 SWAP1 PUSH2 0x2EA7 JUMP JUMPDEST DUP3 PUSH1 0x1 ADD DUP2 SWAP1 SSTORE POP CALLER PUSH20 0xFFFFFFFFFFFFFFFFFFFFFFFFFFFFFFFFFFFFFFFF AND PUSH32 0xE1FFFCC4923D04B559F4D29A8BFC6CDA04EB5B0D3C460751C2402C5C5CC9109C DUP5 PUSH1 0x40 MLOAD PUSH2 0x1A70 SWAP2 SWAP1 PUSH2 0x254D JUMP JUMPDEST PUSH1 0x40 MLOAD DUP1 SWAP2 SUB SWAP1 LOG2 POP POP PUSH1 0x1 DUP1 DUP2 SWAP1 SSTORE POP POP JUMP JUMPDEST PUSH32 0x0 DUP2 JUMP JUMPDEST PUSH32 0x0 DUP2 JUMP JUMPDEST PUSH1 0xE PUSH1 0x0 SWAP1 SLOAD SWAP1 PUSH2 0x100 EXP SWAP1 DIV PUSH20 0xFFFFFFFFFFFFFFFFFFFFFFFFFFFFFFFFFFFFFFFF AND DUP2 JUMP JUMPDEST PUSH1 0xC SLOAD DUP2 JUMP JUMPDEST PUSH1 0x2 PUSH1 0x1 SLOAD SUB PUSH2 0x1B3D JUMPI PUSH1 0x40 MLOAD PUSH32 0x8C379A000000000000000000000000000000000000000000000000000000000 DUP2 MSTORE PUSH1 0x4 ADD PUSH2 0x1B34 SWAP1 PUSH2 0x2D92 JUMP JUMPDEST PUSH1 0x40 MLOAD DUP1 SWAP2 SUB SWAP1 REVERT JUMPDEST PUSH1 0x2 PUSH1 0x1 DUP2 SWAP1 SSTORE POP PUSH1 0x0 PUSH1 0xF PUSH1 0x0 CALLER PUSH20 0xFFFFFFFFFFFFFFFFFFFFFFFFFFFFFFFFFFFFFFFF AND PUSH20 0xFFFFFFFFFFFFFFFFFFFFFFFFFFFFFFFFFFFFFFFF AND DUP2 MSTORE PUSH1 0x20 ADD SWAP1 DUP2 MSTORE PUSH1 0x20 ADD PUSH1 0x0 KECCAK256 SWAP1 POP PUSH1 0x0 DUP2 PUSH1 0x0 ADD SLOAD SWAP1 POP PUSH1 0x0 DUP3 PUSH1 0x0 ADD DUP2 SWAP1 SSTORE POP PUSH1 0x0 DUP3 PUSH1 0x1 ADD DUP2 SWAP1 SSTORE POP PUSH1 0x0 DUP2 GT ISZERO PUSH2 0x1BFC JUMPI PUSH2 0x1BFB CALLER DUP3 PUSH1 0xE PUSH1 0x0 SWAP1 SLOAD SWAP1 PUSH2 0x100 EXP SWAP1 DIV PUSH20 0xFFFFFFFFFFFFFFFFFFFFFFFFFFFFFFFFFFFFFFFF AND PUSH20 0xFFFFFFFFFFFFFFFFFFFFFFFFFFFFFFFFFFFFFFFF AND PUSH2 0x204F SWAP1 SWAP3 SWAP2 SWAP1 PUSH4 0xFFFFFFFF AND JUMP JUMPDEST JUMPDEST CALLER PUSH20 0xFFFFFFFFFFFFFFFFFFFFFFFFFFFFFFFFFFFFFFFF AND PUSH32 0x5FAFA99D0643513820BE26656B45130B01E1C03062E1266BF36F88CBD3BD9695 DUP4 PUSH1 0x0 ADD SLOAD PUSH1 0x40 MLOAD PUSH2 0x1C46 SWAP2 SWAP1 PUSH2 0x254D JUMP JUMPDEST PUSH1 0x40 MLOAD DUP1 SWAP2 SUB SWAP1 LOG2 POP POP PUSH1 0x1 DUP1 DUP2 SWAP1 SSTORE POP JUMP JUMPDEST PUSH2 0x1C61 PUSH2 0x1F2D JUMP JUMPDEST PUSH20 0xFFFFFFFFFFFFFFFFFFFFFFFFFFFFFFFFFFFFFFFF AND PUSH2 0x1C7F PUSH2 0xF5E JUMP JUMPDEST PUSH20 0xFFFFFFFFFFFFFFFFFFFFFFFFFFFFFFFFFFFFFFFF AND EQ PUSH2 0x1CD5 JUMPI PUSH1 0x40 MLOAD PUSH32 0x8C379A000000000000000000000000000000000000000000000000000000000 DUP2 MSTORE PUSH1 0x4 ADD PUSH2 0x1CCC SWAP1 PUSH2 0x292F JUMP JUMPDEST PUSH1 0x40 MLOAD DUP1 SWAP2 SUB SWAP1 REVERT JUMPDEST PUSH1 0x0 PUSH20 0xFFFFFFFFFFFFFFFFFFFFFFFFFFFFFFFFFFFFFFFF AND DUP2 PUSH20 0xFFFFFFFFFFFFFFFFFFFFFFFFFFFFFFFFFFFFFFFF AND SUB PUSH2 0x1D44 JUMPI PUSH1 0x40 MLOAD PUSH32 0x8C379A000000000000000000000000000000000000000000000000000000000 DUP2 MSTORE PUSH1 0x4 ADD PUSH2 0x1D3B SWAP1 PUSH2 0x36C3 JUMP JUMPDEST PUSH1 0x40 MLOAD DUP1 SWAP2 SUB SWAP1 REVERT JUMPDEST PUSH2 0x1D4D DUP2 PUSH2 0x20D5 JUMP JUMPDEST POP JUMP JUMPDEST PUSH1 0x0 DUP1 PUSH1 0xF PUSH1 0x0 DUP5 PUSH20 0xFFFFFFFFFFFFFFFFFFFFFFFFFFFFFFFFFFFFFFFF AND PUSH20 0xFFFFFFFFFFFFFFFFFFFFFFFFFFFFFFFFFFFFFFFF AND DUP2 MSTORE PUSH1 0x20 ADD SWAP1 DUP2 MSTORE PUSH1 0x20 ADD PUSH1 0x0 KECCAK256 SWAP1 POP PUSH1 0x0 PUSH1 0xE PUSH1 0x0 SWAP1 SLOAD SWAP1 PUSH2 0x100 EXP SWAP1 DIV PUSH20 0xFFFFFFFFFFFFFFFFFFFFFFFFFFFFFFFFFFFFFFFF AND PUSH20 0xFFFFFFFFFFFFFFFFFFFFFFFFFFFFFFFFFFFFFFFF AND PUSH4 0x70A08231 ADDRESS PUSH1 0x40 MLOAD DUP3 PUSH4 0xFFFFFFFF AND PUSH1 0xE0 SHL DUP2 MSTORE PUSH1 0x4 ADD PUSH2 0x1DF1 SWAP2 SWAP1 PUSH2 0x27C1 JUMP JUMPDEST PUSH1 0x20 PUSH1 0x40 MLOAD DUP1 DUP4 SUB DUP2 DUP7 GAS STATICCALL ISZERO DUP1 ISZERO PUSH2 0x1E0E JUMPI RETURNDATASIZE PUSH1 0x0 DUP1 RETURNDATACOPY RETURNDATASIZE PUSH1 0x0 REVERT JUMPDEST POP POP POP POP PUSH1 0x40 MLOAD RETURNDATASIZE PUSH1 0x1F NOT PUSH1 0x1F DUP3 ADD AND DUP3 ADD DUP1 PUSH1 0x40 MSTORE POP DUP2 ADD SWAP1 PUSH2 0x1E32 SWAP2 SWAP1 PUSH2 0x3246 JUMP JUMPDEST SWAP1 POP PUSH1 0x6 SLOAD NUMBER GT DUP1 ISZERO PUSH2 0x1E46 JUMPI POP PUSH1 0x0 DUP2 EQ ISZERO JUMPDEST ISZERO PUSH2 0x1ECF JUMPI PUSH1 0x0 PUSH2 0x1E59 PUSH1 0x6 SLOAD NUMBER PUSH2 0x2222 JUMP JUMPDEST SWAP1 POP PUSH1 0x0 PUSH1 0xB SLOAD DUP3 PUSH2 0x1E6B SWAP2 SWAP1 PUSH2 0x2E1E JUMP JUMPDEST SWAP1 POP PUSH1 0x0 DUP4 PUSH1 0xC SLOAD DUP4 PUSH2 0x1E7E SWAP2 SWAP1 PUSH2 0x2E1E JUMP JUMPDEST PUSH2 0x1E88 SWAP2 SWAP1 PUSH2 0x2EA7 JUMP JUMPDEST PUSH1 0x3 SLOAD PUSH2 0x1E95 SWAP2 SWAP1 PUSH2 0x2F93 JUMP JUMPDEST SWAP1 POP DUP5 PUSH1 0x1 ADD SLOAD PUSH1 0xC SLOAD DUP3 DUP8 PUSH1 0x0 ADD SLOAD PUSH2 0x1EAF SWAP2 SWAP1 PUSH2 0x2E1E JUMP JUMPDEST PUSH2 0x1EB9 SWAP2 SWAP1 PUSH2 0x2EA7 JUMP JUMPDEST PUSH2 0x1EC3 SWAP2 SWAP1 PUSH2 0x2B94 JUMP JUMPDEST SWAP6 POP POP POP POP POP POP PUSH2 0x1F02 JUMP JUMPDEST DUP2 PUSH1 0x1 ADD SLOAD PUSH1 0xC SLOAD PUSH1 0x3 SLOAD DUP5 PUSH1 0x0 ADD SLOAD PUSH2 0x1EE9 SWAP2 SWAP1 PUSH2 0x2E1E JUMP JUMPDEST PUSH2 0x1EF3 SWAP2 SWAP1 PUSH2 0x2EA7 JUMP JUMPDEST PUSH2 0x1EFD SWAP2 SWAP1 PUSH2 0x2B94 JUMP JUMPDEST SWAP3 POP POP POP JUMPDEST SWAP2 SWAP1 POP JUMP JUMPDEST PUSH1 0xD PUSH1 0x0 SWAP1 SLOAD SWAP1 PUSH2 0x100 EXP SWAP1 DIV PUSH20 0xFFFFFFFFFFFFFFFFFFFFFFFFFFFFFFFFFFFFFFFF AND DUP2 JUMP JUMPDEST PUSH1 0x0 CALLER SWAP1 POP SWAP1 JUMP JUMPDEST PUSH1 0x6 SLOAD NUMBER GT ISZERO PUSH2 0x204D JUMPI PUSH1 0x0 PUSH1 0xE PUSH1 0x0 SWAP1 SLOAD SWAP1 PUSH2 0x100 EXP SWAP1 DIV PUSH20 0xFFFFFFFFFFFFFFFFFFFFFFFFFFFFFFFFFFFFFFFF AND PUSH20 0xFFFFFFFFFFFFFFFFFFFFFFFFFFFFFFFFFFFFFFFF AND PUSH4 0x70A08231 ADDRESS PUSH1 0x40 MLOAD DUP3 PUSH4 0xFFFFFFFF AND PUSH1 0xE0 SHL DUP2 MSTORE PUSH1 0x4 ADD PUSH2 0x1F9C SWAP2 SWAP1 PUSH2 0x27C1 JUMP JUMPDEST PUSH1 0x20 PUSH1 0x40 MLOAD DUP1 DUP4 SUB DUP2 DUP7 GAS STATICCALL ISZERO DUP1 ISZERO PUSH2 0x1FB9 JUMPI RETURNDATASIZE PUSH1 0x0 DUP1 RETURNDATACOPY RETURNDATASIZE PUSH1 0x0 REVERT JUMPDEST POP POP POP POP PUSH1 0x40 MLOAD RETURNDATASIZE PUSH1 0x1F NOT PUSH1 0x1F DUP3 ADD AND DUP3 ADD DUP1 PUSH1 0x40 MSTORE POP DUP2 ADD SWAP1 PUSH2 0x1FDD SWAP2 SWAP1 PUSH2 0x3246 JUMP JUMPDEST SWAP1 POP PUSH1 0x0 DUP2 SUB PUSH2 0x1FF4 JUMPI NUMBER PUSH1 0x6 DUP2 SWAP1 SSTORE POP POP PUSH2 0x204D JUMP JUMPDEST PUSH1 0x0 PUSH2 0x2002 PUSH1 0x6 SLOAD NUMBER PUSH2 0x2222 JUMP JUMPDEST SWAP1 POP PUSH1 0x0 PUSH1 0xB SLOAD DUP3 PUSH2 0x2014 SWAP2 SWAP1 PUSH2 0x2E1E JUMP JUMPDEST SWAP1 POP DUP3 PUSH1 0xC SLOAD DUP3 PUSH2 0x2025 SWAP2 SWAP1 PUSH2 0x2E1E JUMP JUMPDEST PUSH2 0x202F SWAP2 SWAP1 PUSH2 0x2EA7 JUMP JUMPDEST PUSH1 0x3 SLOAD PUSH2 0x203C SWAP2 SWAP1 PUSH2 0x2F93 JUMP JUMPDEST PUSH1 0x3 DUP2 SWAP1 SSTORE POP NUMBER PUSH1 0x6 DUP2 SWAP1 SSTORE POP POP POP POP JUMPDEST JUMP JUMPDEST PUSH2 0x20D0 DUP4 PUSH4 0xA9059CBB PUSH1 0xE0 SHL DUP5 DUP5 PUSH1 0x40 MLOAD PUSH1 0x24 ADD PUSH2 0x206E SWAP3 SWAP2 SWAP1 PUSH2 0x36E3 JUMP JUMPDEST PUSH1 0x40 MLOAD PUSH1 0x20 DUP2 DUP4 SUB SUB DUP2 MSTORE SWAP1 PUSH1 0x40 MSTORE SWAP1 PUSH28 0xFFFFFFFFFFFFFFFFFFFFFFFFFFFFFFFFFFFFFFFFFFFFFFFFFFFFFFFF NOT AND PUSH1 0x20 DUP3 ADD DUP1 MLOAD PUSH28 0xFFFFFFFFFFFFFFFFFFFFFFFFFFFFFFFFFFFFFFFFFFFFFFFFFFFFFFFF DUP4 DUP2 DUP4 AND OR DUP4 MSTORE POP POP POP POP PUSH2 0x2269 JUMP JUMPDEST POP POP POP JUMP JUMPDEST PUSH1 0x0 DUP1 PUSH1 0x0 SWAP1 SLOAD SWAP1 PUSH2 0x100 EXP SWAP1 DIV PUSH20 0xFFFFFFFFFFFFFFFFFFFFFFFFFFFFFFFFFFFFFFFF AND SWAP1 POP DUP2 PUSH1 0x0 DUP1 PUSH2 0x100 EXP DUP2 SLOAD DUP2 PUSH20 0xFFFFFFFFFFFFFFFFFFFFFFFFFFFFFFFFFFFFFFFF MUL NOT AND SWAP1 DUP4 PUSH20 0xFFFFFFFFFFFFFFFFFFFFFFFFFFFFFFFFFFFFFFFF AND MUL OR SWAP1 SSTORE POP DUP2 PUSH20 0xFFFFFFFFFFFFFFFFFFFFFFFFFFFFFFFFFFFFFFFF AND DUP2 PUSH20 0xFFFFFFFFFFFFFFFFFFFFFFFFFFFFFFFFFFFFFFFF AND PUSH32 0x8BE0079C531659141344CD1FD0A4F28419497F9722A3DAAFE3B4186F6B6457E0 PUSH1 0x40 MLOAD PUSH1 0x40 MLOAD DUP1 SWAP2 SUB SWAP1 LOG3 POP POP JUMP JUMPDEST PUSH2 0x221C DUP5 PUSH4 0x23B872DD PUSH1 0xE0 SHL DUP6 DUP6 DUP6 PUSH1 0x40 MLOAD PUSH1 0x24 ADD PUSH2 0x21BA SWAP4 SWAP3 SWAP2 SWAP1 PUSH2 0x370C JUMP JUMPDEST PUSH1 0x40 MLOAD PUSH1 0x20 DUP2 DUP4 SUB SUB DUP2 MSTORE SWAP1 PUSH1 0x40 MSTORE SWAP1 PUSH28 0xFFFFFFFFFFFFFFFFFFFFFFFFFFFFFFFFFFFFFFFFFFFFFFFFFFFFFFFF NOT AND PUSH1 0x20 DUP3 ADD DUP1 MLOAD PUSH28 0xFFFFFFFFFFFFFFFFFFFFFFFFFFFFFFFFFFFFFFFFFFFFFFFFFFFFFFFF DUP4 DUP2 DUP4 AND OR DUP4 MSTORE POP POP POP POP PUSH2 0x2269 JUMP JUMPDEST POP POP POP POP JUMP JUMPDEST PUSH1 0x0 PUSH1 0x4 SLOAD DUP3 GT PUSH2 0x2240 JUMPI DUP3 DUP3 PUSH2 0x2239 SWAP2 SWAP1 PUSH2 0x2B94 JUMP JUMPDEST SWAP1 POP PUSH2 0x2263 JUMP JUMPDEST PUSH1 0x4 SLOAD DUP4 LT PUSH2 0x2252 JUMPI PUSH1 0x0 SWAP1 POP PUSH2 0x2263 JUMP JUMPDEST DUP3 PUSH1 0x4 SLOAD PUSH2 0x2260 SWAP2 SWAP1 PUSH2 0x2B94 JUMP JUMPDEST SWAP1 POP JUMPDEST SWAP3 SWAP2 POP POP JUMP JUMPDEST PUSH1 0x0 PUSH2 0x22CB DUP3 PUSH1 0x40 MLOAD DUP1 PUSH1 0x40 ADD PUSH1 0x40 MSTORE DUP1 PUSH1 0x20 DUP2 MSTORE PUSH1 0x20 ADD PUSH32 0x5361666545524332303A206C6F772D6C6576656C2063616C6C206661696C6564 DUP2 MSTORE POP DUP6 PUSH20 0xFFFFFFFFFFFFFFFFFFFFFFFFFFFFFFFFFFFFFFFF AND PUSH2 0x2330 SWAP1 SWAP3 SWAP2 SWAP1 PUSH4 0xFFFFFFFF AND JUMP JUMPDEST SWAP1 POP PUSH1 0x0 DUP2 MLOAD GT ISZERO PUSH2 0x232B JUMPI DUP1 DUP1 PUSH1 0x20 ADD SWAP1 MLOAD DUP2 ADD SWAP1 PUSH2 0x22EB SWAP2 SWAP1 PUSH2 0x33F2 JUMP JUMPDEST PUSH2 0x232A JUMPI PUSH1 0x40 MLOAD PUSH32 0x8C379A000000000000000000000000000000000000000000000000000000000 DUP2 MSTORE PUSH1 0x4 ADD PUSH2 0x2321 SWAP1 PUSH2 0x37B5 JUMP JUMPDEST PUSH1 0x40 MLOAD DUP1 SWAP2 SUB SWAP1 REVERT JUMPDEST JUMPDEST POP POP POP JUMP JUMPDEST PUSH1 0x60 PUSH2 0x233F DUP5 DUP5 PUSH1 0x0 DUP6 PUSH2 0x2348 JUMP JUMPDEST SWAP1 POP SWAP4 SWAP3 POP POP POP JUMP JUMPDEST PUSH1 0x60 DUP3 SELFBALANCE LT ISZERO PUSH2 0x238D JUMPI PUSH1 0x40 MLOAD PUSH32 0x8C379A000000000000000000000000000000000000000000000000000000000 DUP2 MSTORE PUSH1 0x4 ADD PUSH2 0x2384 SWAP1 PUSH2 0x3847 JUMP JUMPDEST PUSH1 0x40 MLOAD DUP1 SWAP2 SUB SWAP1 REVERT JUMPDEST PUSH2 0x2396 DUP6 PUSH2 0x245C JUMP JUMPDEST PUSH2 0x23D5 JUMPI PUSH1 0x40 MLOAD PUSH32 0x8C379A000000000000000000000000000000000000000000000000000000000 DUP2 MSTORE PUSH1 0x4 ADD PUSH2 0x23CC SWAP1 PUSH2 0x38B3 JUMP JUMPDEST PUSH1 0x40 MLOAD DUP1 SWAP2 SUB SWAP1 REVERT JUMPDEST PUSH1 0x0 DUP1 DUP7 PUSH20 0xFFFFFFFFFFFFFFFFFFFFFFFFFFFFFFFFFFFFFFFF AND DUP6 DUP8 PUSH1 0x40 MLOAD PUSH2 0x23FE SWAP2 SWAP1 PUSH2 0x394D JUMP JUMPDEST PUSH1 0x0 PUSH1 0x40 MLOAD DUP1 DUP4 SUB DUP2 DUP6 DUP8 GAS CALL SWAP3 POP POP POP RETURNDATASIZE DUP1 PUSH1 0x0 DUP2 EQ PUSH2 0x243B JUMPI PUSH1 0x40 MLOAD SWAP2 POP PUSH1 0x1F NOT PUSH1 0x3F RETURNDATASIZE ADD AND DUP3 ADD PUSH1 0x40 MSTORE RETURNDATASIZE DUP3 MSTORE RETURNDATASIZE PUSH1 0x0 PUSH1 0x20 DUP5 ADD RETURNDATACOPY PUSH2 0x2440 JUMP JUMPDEST PUSH1 0x60 SWAP2 POP JUMPDEST POP SWAP2 POP SWAP2 POP PUSH2 0x2450 DUP3 DUP3 DUP7 PUSH2 0x246F JUMP JUMPDEST SWAP3 POP POP POP SWAP5 SWAP4 POP POP POP POP JUMP JUMPDEST PUSH1 0x0 DUP1 DUP3 EXTCODESIZE SWAP1 POP PUSH1 0x0 DUP2 GT SWAP2 POP POP SWAP2 SWAP1 POP JUMP JUMPDEST PUSH1 0x60 DUP4 ISZERO PUSH2 0x247F JUMPI DUP3 SWAP1 POP PUSH2 0x24CF JUMP JUMPDEST PUSH1 0x0 DUP4 MLOAD GT ISZERO PUSH2 0x2492 JUMPI DUP3 MLOAD DUP1 DUP5 PUSH1 0x20 ADD REVERT JUMPDEST DUP2 PUSH1 0x40 MLOAD PUSH32 0x8C379A000000000000000000000000000000000000000000000000000000000 DUP2 MSTORE PUSH1 0x4 ADD PUSH2 0x24C6 SWAP2 SWAP1 PUSH2 0x39B9 JUMP JUMPDEST PUSH1 0x40 MLOAD DUP1 SWAP2 SUB SWAP1 REVERT JUMPDEST SWAP4 SWAP3 POP POP POP JUMP JUMPDEST PUSH1 0x0 DUP1 REVERT JUMPDEST PUSH1 0x0 DUP2 SWAP1 POP SWAP2 SWAP1 POP JUMP JUMPDEST PUSH2 0x24EE DUP2 PUSH2 0x24DB JUMP JUMPDEST DUP2 EQ PUSH2 0x24F9 JUMPI PUSH1 0x0 DUP1 REVERT JUMPDEST POP JUMP JUMPDEST PUSH1 0x0 DUP2 CALLDATALOAD SWAP1 POP PUSH2 0x250B DUP2 PUSH2 0x24E5 JUMP JUMPDEST SWAP3 SWAP2 POP POP JUMP JUMPDEST PUSH1 0x0 PUSH1 0x20 DUP3 DUP5 SUB SLT ISZERO PUSH2 0x2527 JUMPI PUSH2 0x2526 PUSH2 0x24D6 JUMP JUMPDEST JUMPDEST PUSH1 0x0 PUSH2 0x2535 DUP5 DUP3 DUP6 ADD PUSH2 0x24FC JUMP JUMPDEST SWAP2 POP POP SWAP3 SWAP2 POP POP JUMP JUMPDEST PUSH2 0x2547 DUP2 PUSH2 0x24DB JUMP JUMPDEST DUP3 MSTORE POP POP JUMP JUMPDEST PUSH1 0x0 PUSH1 0x20 DUP3 ADD SWAP1 POP PUSH2 0x2562 PUSH1 0x0 DUP4 ADD DUP5 PUSH2 0x253E JUMP JUMPDEST SWAP3 SWAP2 POP POP JUMP JUMPDEST PUSH1 0x0 PUSH20 0xFFFFFFFFFFFFFFFFFFFFFFFFFFFFFFFFFFFFFFFF DUP3 AND SWAP1 POP SWAP2 SWAP1 POP JUMP JUMPDEST PUSH1 0x0 PUSH2 0x2593 DUP3 PUSH2 0x2568 JUMP JUMPDEST SWAP1 POP SWAP2 SWAP1 POP JUMP JUMPDEST PUSH2 0x25A3 DUP2 PUSH2 0x2588 JUMP JUMPDEST DUP2 EQ PUSH2 0x25AE JUMPI PUSH1 0x0 DUP1 REVERT JUMPDEST POP JUMP JUMPDEST PUSH1 0x0 DUP2 CALLDATALOAD SWAP1 POP PUSH2 0x25C0 DUP2 PUSH2 0x259A JUMP JUMPDEST SWAP3 SWAP2 POP POP JUMP JUMPDEST PUSH1 0x0 PUSH1 0x20 DUP3 DUP5 SUB SLT ISZERO PUSH2 0x25DC JUMPI PUSH2 0x25DB PUSH2 0x24D6 JUMP JUMPDEST JUMPDEST PUSH1 0x0 PUSH2 0x25EA DUP5 DUP3 DUP6 ADD PUSH2 0x25B1 JUMP JUMPDEST SWAP2 POP POP SWAP3 SWAP2 POP POP JUMP JUMPDEST PUSH1 0x0 PUSH1 0x40 DUP3 ADD SWAP1 POP PUSH2 0x2608 PUSH1 0x0 DUP4 ADD DUP6 PUSH2 0x253E JUMP JUMPDEST PUSH2 0x2615 PUSH1 0x20 DUP4 ADD DUP5 PUSH2 0x253E JUMP JUMPDEST SWAP4 SWAP3 POP POP POP JUMP JUMPDEST PUSH1 0x0 PUSH2 0x2627 DUP3 PUSH2 0x2588 JUMP JUMPDEST SWAP1 POP SWAP2 SWAP1 POP JUMP JUMPDEST PUSH2 0x2637 DUP2 PUSH2 0x261C JUMP JUMPDEST DUP2 EQ PUSH2 0x2642 JUMPI PUSH1 0x0 DUP1 REVERT JUMPDEST POP JUMP JUMPDEST PUSH1 0x0 DUP2 CALLDATALOAD SWAP1 POP PUSH2 0x2654 DUP2 PUSH2 0x262E JUMP JUMPDEST SWAP3 SWAP2 POP POP JUMP JUMPDEST PUSH1 0x0 DUP1 PUSH1 0x0 DUP1 PUSH1 0x0 DUP1 PUSH1 0x0 DUP1 PUSH2 0x100 DUP10 DUP12 SUB SLT ISZERO PUSH2 0x267B JUMPI PUSH2 0x267A PUSH2 0x24D6 JUMP JUMPDEST JUMPDEST PUSH1 0x0 PUSH2 0x2689 DUP12 DUP3 DUP13 ADD PUSH2 0x2645 JUMP JUMPDEST SWAP9 POP POP PUSH1 0x20 PUSH2 0x269A DUP12 DUP3 DUP13 ADD PUSH2 0x2645 JUMP JUMPDEST SWAP8 POP POP PUSH1 0x40 PUSH2 0x26AB DUP12 DUP3 DUP13 ADD PUSH2 0x24FC JUMP JUMPDEST SWAP7 POP POP PUSH1 0x60 PUSH2 0x26BC DUP12 DUP3 DUP13 ADD PUSH2 0x24FC JUMP JUMPDEST SWAP6 POP POP PUSH1 0x80 PUSH2 0x26CD DUP12 DUP3 DUP13 ADD PUSH2 0x24FC JUMP JUMPDEST SWAP5 POP POP PUSH1 0xA0 PUSH2 0x26DE DUP12 DUP3 DUP13 ADD PUSH2 0x24FC JUMP JUMPDEST SWAP4 POP POP PUSH1 0xC0 PUSH2 0x26EF DUP12 DUP3 DUP13 ADD PUSH2 0x24FC JUMP JUMPDEST SWAP3 POP POP PUSH1 0xE0 PUSH2 0x2700 DUP12 DUP3 DUP13 ADD PUSH2 0x25B1 JUMP JUMPDEST SWAP2 POP POP SWAP3 SWAP6 SWAP9 POP SWAP3 SWAP6 SWAP9 SWAP1 SWAP4 SWAP7 POP JUMP JUMPDEST PUSH1 0x0 DUP2 ISZERO ISZERO SWAP1 POP SWAP2 SWAP1 POP JUMP JUMPDEST PUSH2 0x2725 DUP2 PUSH2 0x2710 JUMP JUMPDEST DUP3 MSTORE POP POP JUMP JUMPDEST PUSH1 0x0 PUSH1 0x20 DUP3 ADD SWAP1 POP PUSH2 0x2740 PUSH1 0x0 DUP4 ADD DUP5 PUSH2 0x271C JUMP JUMPDEST SWAP3 SWAP2 POP POP JUMP JUMPDEST PUSH2 0x274F DUP2 PUSH2 0x2710 JUMP JUMPDEST DUP2 EQ PUSH2 0x275A JUMPI PUSH1 0x0 DUP1 REVERT JUMPDEST POP JUMP JUMPDEST PUSH1 0x0 DUP2 CALLDATALOAD SWAP1 POP PUSH2 0x276C DUP2 PUSH2 0x2746 JUMP JUMPDEST SWAP3 SWAP2 POP POP JUMP JUMPDEST PUSH1 0x0 DUP1 PUSH1 0x40 DUP4 DUP6 SUB SLT ISZERO PUSH2 0x2789 JUMPI PUSH2 0x2788 PUSH2 0x24D6 JUMP JUMPDEST JUMPDEST PUSH1 0x0 PUSH2 0x2797 DUP6 DUP3 DUP7 ADD PUSH2 0x275D JUMP JUMPDEST SWAP3 POP POP PUSH1 0x20 PUSH2 0x27A8 DUP6 DUP3 DUP7 ADD PUSH2 0x24FC JUMP JUMPDEST SWAP2 POP POP SWAP3 POP SWAP3 SWAP1 POP JUMP JUMPDEST PUSH2 0x27BB DUP2 PUSH2 0x2588 JUMP JUMPDEST DUP3 MSTORE POP POP JUMP JUMPDEST PUSH1 0x0 PUSH1 0x20 DUP3 ADD SWAP1 POP PUSH2 0x27D6 PUSH1 0x0 DUP4 ADD DUP5 PUSH2 0x27B2 JUMP JUMPDEST SWAP3 SWAP2 POP POP JUMP JUMPDEST PUSH1 0x0 DUP1 PUSH1 0x40 DUP4 DUP6 SUB SLT ISZERO PUSH2 0x27F3 JUMPI PUSH2 0x27F2 PUSH2 0x24D6 JUMP JUMPDEST JUMPDEST PUSH1 0x0 PUSH2 0x2801 DUP6 DUP3 DUP7 ADD PUSH2 0x24FC JUMP JUMPDEST SWAP3 POP POP PUSH1 0x20 PUSH2 0x2812 DUP6 DUP3 DUP7 ADD PUSH2 0x24FC JUMP JUMPDEST SWAP2 POP POP SWAP3 POP SWAP3 SWAP1 POP JUMP JUMPDEST PUSH1 0x0 DUP2 SWAP1 POP SWAP2 SWAP1 POP JUMP JUMPDEST PUSH1 0x0 PUSH2 0x2841 PUSH2 0x283C PUSH2 0x2837 DUP5 PUSH2 0x2568 JUMP JUMPDEST PUSH2 0x281C JUMP JUMPDEST PUSH2 0x2568 JUMP JUMPDEST SWAP1 POP SWAP2 SWAP1 POP JUMP JUMPDEST PUSH1 0x0 PUSH2 0x2853 DUP3 PUSH2 0x2826 JUMP JUMPDEST SWAP1 POP SWAP2 SWAP1 POP JUMP JUMPDEST PUSH1 0x0 PUSH2 0x2865 DUP3 PUSH2 0x2848 JUMP JUMPDEST SWAP1 POP SWAP2 SWAP1 POP JUMP JUMPDEST PUSH2 0x2875 DUP2 PUSH2 0x285A JUMP JUMPDEST DUP3 MSTORE POP POP JUMP JUMPDEST PUSH1 0x0 PUSH1 0x20 DUP3 ADD SWAP1 POP PUSH2 0x2890 PUSH1 0x0 DUP4 ADD DUP5 PUSH2 0x286C JUMP JUMPDEST SWAP3 SWAP2 POP POP JUMP JUMPDEST PUSH1 0x0 PUSH2 0x28A1 DUP3 PUSH2 0x2848 JUMP JUMPDEST SWAP1 POP SWAP2 SWAP1 POP JUMP JUMPDEST PUSH2 0x28B1 DUP2 PUSH2 0x2896 JUMP JUMPDEST DUP3 MSTORE POP POP JUMP JUMPDEST PUSH1 0x0 PUSH1 0x20 DUP3 ADD SWAP1 POP PUSH2 0x28CC PUSH1 0x0 DUP4 ADD DUP5 PUSH2 0x28A8 JUMP JUMPDEST SWAP3 SWAP2 POP POP JUMP JUMPDEST PUSH1 0x0 DUP3 DUP3 MSTORE PUSH1 0x20 DUP3 ADD SWAP1 POP SWAP3 SWAP2 POP POP JUMP JUMPDEST PUSH32 0x4F776E61626C653A2063616C6C6572206973206E6F7420746865206F776E6572 PUSH1 0x0 DUP3 ADD MSTORE POP JUMP JUMPDEST PUSH1 0x0 PUSH2 0x2919 PUSH1 0x20 DUP4 PUSH2 0x28D2 JUMP JUMPDEST SWAP2 POP PUSH2 0x2924 DUP3 PUSH2 0x28E3 JUMP JUMPDEST PUSH1 0x20 DUP3 ADD SWAP1 POP SWAP2 SWAP1 POP JUMP JUMPDEST PUSH1 0x0 PUSH1 0x20 DUP3 ADD SWAP1 POP DUP2 DUP2 SUB PUSH1 0x0 DUP4 ADD MSTORE PUSH2 0x2948 DUP2 PUSH2 0x290C JUMP JUMPDEST SWAP1 POP SWAP2 SWAP1 POP JUMP JUMPDEST PUSH32 0x506F6F6C20686173207374617274656400000000000000000000000000000000 PUSH1 0x0 DUP3 ADD MSTORE POP JUMP JUMPDEST PUSH1 0x0 PUSH2 0x2985 PUSH1 0x10 DUP4 PUSH2 0x28D2 JUMP JUMPDEST SWAP2 POP PUSH2 0x2990 DUP3 PUSH2 0x294F JUMP JUMPDEST PUSH1 0x20 DUP3 ADD SWAP1 POP SWAP2 SWAP1 POP JUMP JUMPDEST PUSH1 0x0 PUSH1 0x20 DUP3 ADD SWAP1 POP DUP2 DUP2 SUB PUSH1 0x0 DUP4 ADD MSTORE PUSH2 0x29B4 DUP2 PUSH2 0x2978 JUMP JUMPDEST SWAP1 POP SWAP2 SWAP1 POP JUMP JUMPDEST PUSH32 0x416C726561647920696E697469616C697A656400000000000000000000000000 PUSH1 0x0 DUP3 ADD MSTORE POP JUMP JUMPDEST PUSH1 0x0 PUSH2 0x29F1 PUSH1 0x13 DUP4 PUSH2 0x28D2 JUMP JUMPDEST SWAP2 POP PUSH2 0x29FC DUP3 PUSH2 0x29BB JUMP JUMPDEST PUSH1 0x20 DUP3 ADD SWAP1 POP SWAP2 SWAP1 POP JUMP JUMPDEST PUSH1 0x0 PUSH1 0x20 DUP3 ADD SWAP1 POP DUP2 DUP2 SUB PUSH1 0x0 DUP4 ADD MSTORE PUSH2 0x2A20 DUP2 PUSH2 0x29E4 JUMP JUMPDEST SWAP1 POP SWAP2 SWAP1 POP JUMP JUMPDEST PUSH32 0x4E6F7420666163746F7279000000000000000000000000000000000000000000 PUSH1 0x0 DUP3 ADD MSTORE POP JUMP JUMPDEST PUSH1 0x0 PUSH2 0x2A5D PUSH1 0xB DUP4 PUSH2 0x28D2 JUMP JUMPDEST SWAP2 POP PUSH2 0x2A68 DUP3 PUSH2 0x2A27 JUMP JUMPDEST PUSH1 0x20 DUP3 ADD SWAP1 POP SWAP2 SWAP1 POP JUMP JUMPDEST PUSH1 0x0 PUSH1 0x20 DUP3 ADD SWAP1 POP DUP2 DUP2 SUB PUSH1 0x0 DUP4 ADD MSTORE PUSH2 0x2A8C DUP2 PUSH2 0x2A50 JUMP JUMPDEST SWAP1 POP SWAP2 SWAP1 POP JUMP JUMPDEST PUSH1 0x0 PUSH1 0xFF DUP3 AND SWAP1 POP SWAP2 SWAP1 POP JUMP JUMPDEST PUSH2 0x2AA9 DUP2 PUSH2 0x2A93 JUMP JUMPDEST DUP2 EQ PUSH2 0x2AB4 JUMPI PUSH1 0x0 DUP1 REVERT JUMPDEST POP JUMP JUMPDEST PUSH1 0x0 DUP2 MLOAD SWAP1 POP PUSH2 0x2AC6 DUP2 PUSH2 0x2AA0 JUMP JUMPDEST SWAP3 SWAP2 POP POP JUMP JUMPDEST PUSH1 0x0 PUSH1 0x20 DUP3 DUP5 SUB SLT ISZERO PUSH2 0x2AE2 JUMPI PUSH2 0x2AE1 PUSH2 0x24D6 JUMP JUMPDEST JUMPDEST PUSH1 0x0 PUSH2 0x2AF0 DUP5 DUP3 DUP6 ADD PUSH2 0x2AB7 JUMP JUMPDEST SWAP2 POP POP SWAP3 SWAP2 POP POP JUMP JUMPDEST PUSH32 0x4D757374206265206C657373207468616E203330000000000000000000000000 PUSH1 0x0 DUP3 ADD MSTORE POP JUMP JUMPDEST PUSH1 0x0 PUSH2 0x2B2F PUSH1 0x14 DUP4 PUSH2 0x28D2 JUMP JUMPDEST SWAP2 POP PUSH2 0x2B3A DUP3 PUSH2 0x2AF9 JUMP JUMPDEST PUSH1 0x20 DUP3 ADD SWAP1 POP SWAP2 SWAP1 POP JUMP JUMPDEST PUSH1 0x0 PUSH1 0x20 DUP3 ADD SWAP1 POP DUP2 DUP2 SUB PUSH1 0x0 DUP4 ADD MSTORE PUSH2 0x2B5E DUP2 PUSH2 0x2B22 JUMP JUMPDEST SWAP1 POP SWAP2 SWAP1 POP JUMP JUMPDEST PUSH32 0x4E487B7100000000000000000000000000000000000000000000000000000000 PUSH1 0x0 MSTORE PUSH1 0x11 PUSH1 0x4 MSTORE PUSH1 0x24 PUSH1 0x0 REVERT JUMPDEST PUSH1 0x0 PUSH2 0x2B9F DUP3 PUSH2 0x24DB JUMP JUMPDEST SWAP2 POP PUSH2 0x2BAA DUP4 PUSH2 0x24DB JUMP JUMPDEST SWAP3 POP DUP3 DUP3 LT ISZERO PUSH2 0x2BBD JUMPI PUSH2 0x2BBC PUSH2 0x2B65 JUMP JUMPDEST JUMPDEST DUP3 DUP3 SUB SWAP1 POP SWAP3 SWAP2 POP POP JUMP JUMPDEST PUSH1 0x0 DUP2 PUSH1 0x1 SHR SWAP1 POP SWAP2 SWAP1 POP JUMP JUMPDEST PUSH1 0x0 DUP1 DUP3 SWAP2 POP DUP4 SWAP1 POP JUMPDEST PUSH1 0x1 DUP6 GT ISZERO PUSH2 0x2C1F JUMPI DUP1 DUP7 DIV DUP2 GT ISZERO PUSH2 0x2BFB JUMPI PUSH2 0x2BFA PUSH2 0x2B65 JUMP JUMPDEST JUMPDEST PUSH1 0x1 DUP6 AND ISZERO PUSH2 0x2C0A JUMPI DUP1 DUP3 MUL SWAP2 POP JUMPDEST DUP1 DUP2 MUL SWAP1 POP PUSH2 0x2C18 DUP6 PUSH2 0x2BC8 JUMP JUMPDEST SWAP5 POP PUSH2 0x2BDF JUMP JUMPDEST SWAP5 POP SWAP5 SWAP3 POP POP POP JUMP JUMPDEST PUSH1 0x0 DUP3 PUSH2 0x2C38 JUMPI PUSH1 0x1 SWAP1 POP PUSH2 0x2CF4 JUMP JUMPDEST DUP2 PUSH2 0x2C46 JUMPI PUSH1 0x0 SWAP1 POP PUSH2 0x2CF4 JUMP JUMPDEST DUP2 PUSH1 0x1 DUP2 EQ PUSH2 0x2C5C JUMPI PUSH1 0x2 DUP2 EQ PUSH2 0x2C66 JUMPI PUSH2 0x2C95 JUMP JUMPDEST PUSH1 0x1 SWAP2 POP POP PUSH2 0x2CF4 JUMP JUMPDEST PUSH1 0xFF DUP5 GT ISZERO PUSH2 0x2C78 JUMPI PUSH2 0x2C77 PUSH2 0x2B65 JUMP JUMPDEST JUMPDEST DUP4 PUSH1 0x2 EXP SWAP2 POP DUP5 DUP3 GT ISZERO PUSH2 0x2C8F JUMPI PUSH2 0x2C8E PUSH2 0x2B65 JUMP JUMPDEST JUMPDEST POP PUSH2 0x2CF4 JUMP JUMPDEST POP PUSH1 0x20 DUP4 LT PUSH2 0x133 DUP4 LT AND PUSH1 0x4E DUP5 LT PUSH1 0xB DUP5 LT AND OR ISZERO PUSH2 0x2CCA JUMPI DUP3 DUP3 EXP SWAP1 POP DUP4 DUP2 GT ISZERO PUSH2 0x2CC5 JUMPI PUSH2 0x2CC4 PUSH2 0x2B65 JUMP JUMPDEST JUMPDEST PUSH2 0x2CF4 JUMP JUMPDEST PUSH2 0x2CD7 DUP5 DUP5 DUP5 PUSH1 0x1 PUSH2 0x2BD5 JUMP JUMPDEST SWAP3 POP SWAP1 POP DUP2 DUP5 DIV DUP2 GT ISZERO PUSH2 0x2CEE JUMPI PUSH2 0x2CED PUSH2 0x2B65 JUMP JUMPDEST JUMPDEST DUP2 DUP2 MUL SWAP1 POP JUMPDEST SWAP4 SWAP3 POP POP POP JUMP JUMPDEST PUSH1 0x0 PUSH2 0x2D06 DUP3 PUSH2 0x24DB JUMP JUMPDEST SWAP2 POP PUSH2 0x2D11 DUP4 PUSH2 0x24DB JUMP JUMPDEST SWAP3 POP PUSH2 0x2D3E PUSH32 0xFFFFFFFFFFFFFFFFFFFFFFFFFFFFFFFFFFFFFFFFFFFFFFFFFFFFFFFFFFFFFFFF DUP5 DUP5 PUSH2 0x2C28 JUMP JUMPDEST SWAP1 POP SWAP3 SWAP2 POP POP JUMP JUMPDEST PUSH32 0x5265656E7472616E637947756172643A207265656E7472616E742063616C6C00 PUSH1 0x0 DUP3 ADD MSTORE POP JUMP JUMPDEST PUSH1 0x0 PUSH2 0x2D7C PUSH1 0x1F DUP4 PUSH2 0x28D2 JUMP JUMPDEST SWAP2 POP PUSH2 0x2D87 DUP3 PUSH2 0x2D46 JUMP JUMPDEST PUSH1 0x20 DUP3 ADD SWAP1 POP SWAP2 SWAP1 POP JUMP JUMPDEST PUSH1 0x0 PUSH1 0x20 DUP3 ADD SWAP1 POP DUP2 DUP2 SUB PUSH1 0x0 DUP4 ADD MSTORE PUSH2 0x2DAB DUP2 PUSH2 0x2D6F JUMP JUMPDEST SWAP1 POP SWAP2 SWAP1 POP JUMP JUMPDEST PUSH32 0x416D6F756E7420746F20776974686472617720746F6F20686967680000000000 PUSH1 0x0 DUP3 ADD MSTORE POP JUMP JUMPDEST PUSH1 0x0 PUSH2 0x2DE8 PUSH1 0x1B DUP4 PUSH2 0x28D2 JUMP JUMPDEST SWAP2 POP PUSH2 0x2DF3 DUP3 PUSH2 0x2DB2 JUMP JUMPDEST PUSH1 0x20 DUP3 ADD SWAP1 POP SWAP2 SWAP1 POP JUMP JUMPDEST PUSH1 0x0 PUSH1 0x20 DUP3 ADD SWAP1 POP DUP2 DUP2 SUB PUSH1 0x0 DUP4 ADD MSTORE PUSH2 0x2E17 DUP2 PUSH2 0x2DDB JUMP JUMPDEST SWAP1 POP SWAP2 SWAP1 POP JUMP JUMPDEST PUSH1 0x0 PUSH2 0x2E29 DUP3 PUSH2 0x24DB JUMP JUMPDEST SWAP2 POP PUSH2 0x2E34 DUP4 PUSH2 0x24DB JUMP JUMPDEST SWAP3 POP DUP2 PUSH32 0xFFFFFFFFFFFFFFFFFFFFFFFFFFFFFFFFFFFFFFFFFFFFFFFFFFFFFFFFFFFFFFFF DIV DUP4 GT DUP3 ISZERO ISZERO AND ISZERO PUSH2 0x2E6D JUMPI PUSH2 0x2E6C PUSH2 0x2B65 JUMP JUMPDEST JUMPDEST DUP3 DUP3 MUL SWAP1 POP SWAP3 SWAP2 POP POP JUMP JUMPDEST PUSH32 0x4E487B7100000000000000000000000000000000000000000000000000000000 PUSH1 0x0 MSTORE PUSH1 0x12 PUSH1 0x4 MSTORE PUSH1 0x24 PUSH1 0x0 REVERT JUMPDEST PUSH1 0x0 PUSH2 0x2EB2 DUP3 PUSH2 0x24DB JUMP JUMPDEST SWAP2 POP PUSH2 0x2EBD DUP4 PUSH2 0x24DB JUMP JUMPDEST SWAP3 POP DUP3 PUSH2 0x2ECD JUMPI PUSH2 0x2ECC PUSH2 0x2E78 JUMP JUMPDEST JUMPDEST DUP3 DUP3 DIV SWAP1 POP SWAP3 SWAP2 POP POP JUMP JUMPDEST PUSH32 0x5468726573686F6C6420706F696E7473206E65656420746F2065786365656420 PUSH1 0x0 DUP3 ADD MSTORE PUSH32 0x3000000000000000000000000000000000000000000000000000000000000000 PUSH1 0x20 DUP3 ADD MSTORE POP JUMP JUMPDEST PUSH1 0x0 PUSH2 0x2F34 PUSH1 0x21 DUP4 PUSH2 0x28D2 JUMP JUMPDEST SWAP2 POP PUSH2 0x2F3F DUP3 PUSH2 0x2ED8 JUMP JUMPDEST PUSH1 0x40 DUP3 ADD SWAP1 POP SWAP2 SWAP1 POP JUMP JUMPDEST PUSH1 0x0 PUSH1 0x20 DUP3 ADD SWAP1 POP DUP2 DUP2 SUB PUSH1 0x0 DUP4 ADD MSTORE PUSH2 0x2F63 DUP2 PUSH2 0x2F27 JUMP JUMPDEST SWAP1 POP SWAP2 SWAP1 POP JUMP JUMPDEST PUSH1 0x0 PUSH1 0x40 DUP3 ADD SWAP1 POP PUSH2 0x2F7F PUSH1 0x0 DUP4 ADD DUP6 PUSH2 0x271C JUMP JUMPDEST PUSH2 0x2F8C PUSH1 0x20 DUP4 ADD DUP5 PUSH2 0x253E JUMP JUMPDEST SWAP4 SWAP3 POP POP POP JUMP JUMPDEST PUSH1 0x0 PUSH2 0x2F9E DUP3 PUSH2 0x24DB JUMP JUMPDEST SWAP2 POP PUSH2 0x2FA9 DUP4 PUSH2 0x24DB JUMP JUMPDEST SWAP3 POP DUP3 PUSH32 0xFFFFFFFFFFFFFFFFFFFFFFFFFFFFFFFFFFFFFFFFFFFFFFFFFFFFFFFFFFFFFFFF SUB DUP3 GT ISZERO PUSH2 0x2FDE JUMPI PUSH2 0x2FDD PUSH2 0x2B65 JUMP JUMPDEST JUMPDEST DUP3 DUP3 ADD SWAP1 POP SWAP3 SWAP2 POP POP JUMP JUMPDEST PUSH32 0x4E6577207374617274426C6F636B206D757374206265206C6F77657220746861 PUSH1 0x0 DUP3 ADD MSTORE PUSH32 0x6E206E657720656E64426C6F636B000000000000000000000000000000000000 PUSH1 0x20 DUP3 ADD MSTORE POP JUMP JUMPDEST PUSH1 0x0 PUSH2 0x3045 PUSH1 0x2E DUP4 PUSH2 0x28D2 JUMP JUMPDEST SWAP2 POP PUSH2 0x3050 DUP3 PUSH2 0x2FE9 JUMP JUMPDEST PUSH1 0x40 DUP3 ADD SWAP1 POP SWAP2 SWAP1 POP JUMP JUMPDEST PUSH1 0x0 PUSH1 0x20 DUP3 ADD SWAP1 POP DUP2 DUP2 SUB PUSH1 0x0 DUP4 ADD MSTORE PUSH2 0x3074 DUP2 PUSH2 0x3038 JUMP JUMPDEST SWAP1 POP SWAP2 SWAP1 POP JUMP JUMPDEST PUSH32 0x4E6577207374617274426C6F636B206D75737420626520686967686572207468 PUSH1 0x0 DUP3 ADD MSTORE PUSH32 0x616E2063757272656E7420626C6F636B00000000000000000000000000000000 PUSH1 0x20 DUP3 ADD MSTORE POP JUMP JUMPDEST PUSH1 0x0 PUSH2 0x30D7 PUSH1 0x30 DUP4 PUSH2 0x28D2 JUMP JUMPDEST SWAP2 POP PUSH2 0x30E2 DUP3 PUSH2 0x307B JUMP JUMPDEST PUSH1 0x40 DUP3 ADD SWAP1 POP SWAP2 SWAP1 POP JUMP JUMPDEST PUSH1 0x0 PUSH1 0x20 DUP3 ADD SWAP1 POP DUP2 DUP2 SUB PUSH1 0x0 DUP4 ADD MSTORE PUSH2 0x3106 DUP2 PUSH2 0x30CA JUMP JUMPDEST SWAP1 POP SWAP2 SWAP1 POP JUMP JUMPDEST PUSH32 0x4F7065726174696F6E733A2043616E6E6F74207265636F766572207374616B65 PUSH1 0x0 DUP3 ADD MSTORE PUSH32 0x6420746F6B656E00000000000000000000000000000000000000000000000000 PUSH1 0x20 DUP3 ADD MSTORE POP JUMP JUMPDEST PUSH1 0x0 PUSH2 0x3169 PUSH1 0x27 DUP4 PUSH2 0x28D2 JUMP JUMPDEST SWAP2 POP PUSH2 0x3174 DUP3 PUSH2 0x310D JUMP JUMPDEST PUSH1 0x40 DUP3 ADD SWAP1 POP SWAP2 SWAP1 POP JUMP JUMPDEST PUSH1 0x0 PUSH1 0x20 DUP3 ADD SWAP1 POP DUP2 DUP2 SUB PUSH1 0x0 DUP4 ADD MSTORE PUSH2 0x3198 DUP2 PUSH2 0x315C JUMP JUMPDEST SWAP1 POP SWAP2 SWAP1 POP JUMP JUMPDEST PUSH32 0x4F7065726174696F6E733A2043616E6E6F74207265636F766572207265776172 PUSH1 0x0 DUP3 ADD MSTORE PUSH32 0x6420746F6B656E00000000000000000000000000000000000000000000000000 PUSH1 0x20 DUP3 ADD MSTORE POP JUMP JUMPDEST PUSH1 0x0 PUSH2 0x31FB PUSH1 0x27 DUP4 PUSH2 0x28D2 JUMP JUMPDEST SWAP2 POP PUSH2 0x3206 DUP3 PUSH2 0x319F JUMP JUMPDEST PUSH1 0x40 DUP3 ADD SWAP1 POP SWAP2 SWAP1 POP JUMP JUMPDEST PUSH1 0x0 PUSH1 0x20 DUP3 ADD SWAP1 POP DUP2 DUP2 SUB PUSH1 0x0 DUP4 ADD MSTORE PUSH2 0x322A DUP2 PUSH2 0x31EE JUMP JUMPDEST SWAP1 POP SWAP2 SWAP1 POP JUMP JUMPDEST PUSH1 0x0 DUP2 MLOAD SWAP1 POP PUSH2 0x3240 DUP2 PUSH2 0x24E5 JUMP JUMPDEST SWAP3 SWAP2 POP POP JUMP JUMPDEST PUSH1 0x0 PUSH1 0x20 DUP3 DUP5 SUB SLT ISZERO PUSH2 0x325C JUMPI PUSH2 0x325B PUSH2 0x24D6 JUMP JUMPDEST JUMPDEST PUSH1 0x0 PUSH2 0x326A DUP5 DUP3 DUP6 ADD PUSH2 0x3231 JUMP JUMPDEST SWAP2 POP POP SWAP3 SWAP2 POP POP JUMP JUMPDEST PUSH32 0x4F7065726174696F6E733A2043616E6E6F74207265636F766572207A65726F20 PUSH1 0x0 DUP3 ADD MSTORE PUSH32 0x62616C616E636500000000000000000000000000000000000000000000000000 PUSH1 0x20 DUP3 ADD MSTORE POP JUMP JUMPDEST PUSH1 0x0 PUSH2 0x32CF PUSH1 0x27 DUP4 PUSH2 0x28D2 JUMP JUMPDEST SWAP2 POP PUSH2 0x32DA DUP3 PUSH2 0x3273 JUMP JUMPDEST PUSH1 0x40 DUP3 ADD SWAP1 POP SWAP2 SWAP1 POP JUMP JUMPDEST PUSH1 0x0 PUSH1 0x20 DUP3 ADD SWAP1 POP DUP2 DUP2 SUB PUSH1 0x0 DUP4 ADD MSTORE PUSH2 0x32FE DUP2 PUSH2 0x32C2 JUMP JUMPDEST SWAP1 POP SWAP2 SWAP1 POP JUMP JUMPDEST PUSH32 0x4D75737420626520736574000000000000000000000000000000000000000000 PUSH1 0x0 DUP3 ADD MSTORE POP JUMP JUMPDEST PUSH1 0x0 PUSH2 0x333B PUSH1 0xB DUP4 PUSH2 0x28D2 JUMP JUMPDEST SWAP2 POP PUSH2 0x3346 DUP3 PUSH2 0x3305 JUMP JUMPDEST PUSH1 0x20 DUP3 ADD SWAP1 POP SWAP2 SWAP1 POP JUMP JUMPDEST PUSH1 0x0 PUSH1 0x20 DUP3 ADD SWAP1 POP DUP2 DUP2 SUB PUSH1 0x0 DUP4 ADD MSTORE PUSH2 0x336A DUP2 PUSH2 0x332E JUMP JUMPDEST SWAP1 POP SWAP2 SWAP1 POP JUMP JUMPDEST PUSH32 0x4E6577206C696D6974206D757374206265206869676865720000000000000000 PUSH1 0x0 DUP3 ADD MSTORE POP JUMP JUMPDEST PUSH1 0x0 PUSH2 0x33A7 PUSH1 0x18 DUP4 PUSH2 0x28D2 JUMP JUMPDEST SWAP2 POP PUSH2 0x33B2 DUP3 PUSH2 0x3371 JUMP JUMPDEST PUSH1 0x20 DUP3 ADD SWAP1 POP SWAP2 SWAP1 POP JUMP JUMPDEST PUSH1 0x0 PUSH1 0x20 DUP3 ADD SWAP1 POP DUP2 DUP2 SUB PUSH1 0x0 DUP4 ADD MSTORE PUSH2 0x33D6 DUP2 PUSH2 0x339A JUMP JUMPDEST SWAP1 POP SWAP2 SWAP1 POP JUMP JUMPDEST PUSH1 0x0 DUP2 MLOAD SWAP1 POP PUSH2 0x33EC DUP2 PUSH2 0x2746 JUMP JUMPDEST SWAP3 SWAP2 POP POP JUMP JUMPDEST PUSH1 0x0 PUSH1 0x20 DUP3 DUP5 SUB SLT ISZERO PUSH2 0x3408 JUMPI PUSH2 0x3407 PUSH2 0x24D6 JUMP JUMPDEST JUMPDEST PUSH1 0x0 PUSH2 0x3416 DUP5 DUP3 DUP6 ADD PUSH2 0x33DD JUMP JUMPDEST SWAP2 POP POP SWAP3 SWAP2 POP POP JUMP JUMPDEST PUSH32 0x4465706F7369743A204D757374206861766520616E206163746976652070726F PUSH1 0x0 DUP3 ADD MSTORE PUSH32 0x66696C6500000000000000000000000000000000000000000000000000000000 PUSH1 0x20 DUP3 ADD MSTORE POP JUMP JUMPDEST PUSH1 0x0 PUSH2 0x347B PUSH1 0x24 DUP4 PUSH2 0x28D2 JUMP JUMPDEST SWAP2 POP PUSH2 0x3486 DUP3 PUSH2 0x341F JUMP JUMPDEST PUSH1 0x40 DUP3 ADD SWAP1 POP SWAP2 SWAP1 POP JUMP JUMPDEST PUSH1 0x0 PUSH1 0x20 DUP3 ADD SWAP1 POP DUP2 DUP2 SUB PUSH1 0x0 DUP4 ADD MSTORE PUSH2 0x34AA DUP2 PUSH2 0x346E JUMP JUMPDEST SWAP1 POP SWAP2 SWAP1 POP JUMP JUMPDEST PUSH1 0x0 DUP2 MLOAD SWAP1 POP PUSH2 0x34C0 DUP2 PUSH2 0x259A JUMP JUMPDEST SWAP3 SWAP2 POP POP JUMP JUMPDEST PUSH1 0x0 DUP1 PUSH1 0x0 DUP1 PUSH1 0x0 DUP1 PUSH1 0xC0 DUP8 DUP10 SUB SLT ISZERO PUSH2 0x34E3 JUMPI PUSH2 0x34E2 PUSH2 0x24D6 JUMP JUMPDEST JUMPDEST PUSH1 0x0 PUSH2 0x34F1 DUP10 DUP3 DUP11 ADD PUSH2 0x3231 JUMP JUMPDEST SWAP7 POP POP PUSH1 0x20 PUSH2 0x3502 DUP10 DUP3 DUP11 ADD PUSH2 0x3231 JUMP JUMPDEST SWAP6 POP POP PUSH1 0x40 PUSH2 0x3513 DUP10 DUP3 DUP11 ADD PUSH2 0x3231 JUMP JUMPDEST SWAP5 POP POP PUSH1 0x60 PUSH2 0x3524 DUP10 DUP3 DUP11 ADD PUSH2 0x34B1 JUMP JUMPDEST SWAP4 POP POP PUSH1 0x80 PUSH2 0x3535 DUP10 DUP3 DUP11 ADD PUSH2 0x3231 JUMP JUMPDEST SWAP3 POP POP PUSH1 0xA0 PUSH2 0x3546 DUP10 DUP3 DUP11 ADD PUSH2 0x33DD JUMP JUMPDEST SWAP2 POP POP SWAP3 SWAP6 POP SWAP3 SWAP6 POP SWAP3 SWAP6 JUMP JUMPDEST PUSH32 0x4465706F7369743A205573657220686173206E6F7420656E6F75676820706F69 PUSH1 0x0 DUP3 ADD MSTORE PUSH32 0x6E74730000000000000000000000000000000000000000000000000000000000 PUSH1 0x20 DUP3 ADD MSTORE POP JUMP JUMPDEST PUSH1 0x0 PUSH2 0x35AF PUSH1 0x23 DUP4 PUSH2 0x28D2 JUMP JUMPDEST SWAP2 POP PUSH2 0x35BA DUP3 PUSH2 0x3553 JUMP JUMPDEST PUSH1 0x40 DUP3 ADD SWAP1 POP SWAP2 SWAP1 POP JUMP JUMPDEST PUSH1 0x0 PUSH1 0x20 DUP3 ADD SWAP1 POP DUP2 DUP2 SUB PUSH1 0x0 DUP4 ADD MSTORE PUSH2 0x35DE DUP2 PUSH2 0x35A2 JUMP JUMPDEST SWAP1 POP SWAP2 SWAP1 POP JUMP JUMPDEST PUSH32 0x4465706F7369743A20416D6F756E742061626F7665206C696D69740000000000 PUSH1 0x0 DUP3 ADD MSTORE POP JUMP JUMPDEST PUSH1 0x0 PUSH2 0x361B PUSH1 0x1B DUP4 PUSH2 0x28D2 JUMP JUMPDEST SWAP2 POP PUSH2 0x3626 DUP3 PUSH2 0x35E5 JUMP JUMPDEST PUSH1 0x20 DUP3 ADD SWAP1 POP SWAP2 SWAP1 POP JUMP JUMPDEST PUSH1 0x0 PUSH1 0x20 DUP3 ADD SWAP1 POP DUP2 DUP2 SUB PUSH1 0x0 DUP4 ADD MSTORE PUSH2 0x364A DUP2 PUSH2 0x360E JUMP JUMPDEST SWAP1 POP SWAP2 SWAP1 POP JUMP JUMPDEST PUSH32 0x4F776E61626C653A206E6577206F776E657220697320746865207A65726F2061 PUSH1 0x0 DUP3 ADD MSTORE PUSH32 0x6464726573730000000000000000000000000000000000000000000000000000 PUSH1 0x20 DUP3 ADD MSTORE POP JUMP JUMPDEST PUSH1 0x0 PUSH2 0x36AD PUSH1 0x26 DUP4 PUSH2 0x28D2 JUMP JUMPDEST SWAP2 POP PUSH2 0x36B8 DUP3 PUSH2 0x3651 JUMP JUMPDEST PUSH1 0x40 DUP3 ADD SWAP1 POP SWAP2 SWAP1 POP JUMP JUMPDEST PUSH1 0x0 PUSH1 0x20 DUP3 ADD SWAP1 POP DUP2 DUP2 SUB PUSH1 0x0 DUP4 ADD MSTORE PUSH2 0x36DC DUP2 PUSH2 0x36A0 JUMP JUMPDEST SWAP1 POP SWAP2 SWAP1 POP JUMP JUMPDEST PUSH1 0x0 PUSH1 0x40 DUP3 ADD SWAP1 POP PUSH2 0x36F8 PUSH1 0x0 DUP4 ADD DUP6 PUSH2 0x27B2 JUMP JUMPDEST PUSH2 0x3705 PUSH1 0x20 DUP4 ADD DUP5 PUSH2 0x253E JUMP JUMPDEST SWAP4 SWAP3 POP POP POP JUMP JUMPDEST PUSH1 0x0 PUSH1 0x60 DUP3 ADD SWAP1 POP PUSH2 0x3721 PUSH1 0x0 DUP4 ADD DUP7 PUSH2 0x27B2 JUMP JUMPDEST PUSH2 0x372E PUSH1 0x20 DUP4 ADD DUP6 PUSH2 0x27B2 JUMP JUMPDEST PUSH2 0x373B PUSH1 0x40 DUP4 ADD DUP5 PUSH2 0x253E JUMP JUMPDEST SWAP5 SWAP4 POP POP POP POP JUMP JUMPDEST PUSH32 0x5361666545524332303A204552433230206F7065726174696F6E20646964206E PUSH1 0x0 DUP3 ADD MSTORE PUSH32 0x6F74207375636365656400000000000000000000000000000000000000000000 PUSH1 0x20 DUP3 ADD MSTORE POP JUMP JUMPDEST PUSH1 0x0 PUSH2 0x379F PUSH1 0x2A DUP4 PUSH2 0x28D2 JUMP JUMPDEST SWAP2 POP PUSH2 0x37AA DUP3 PUSH2 0x3743 JUMP JUMPDEST PUSH1 0x40 DUP3 ADD SWAP1 POP SWAP2 SWAP1 POP JUMP JUMPDEST PUSH1 0x0 PUSH1 0x20 DUP3 ADD SWAP1 POP DUP2 DUP2 SUB PUSH1 0x0 DUP4 ADD MSTORE PUSH2 0x37CE DUP2 PUSH2 0x3792 JUMP JUMPDEST SWAP1 POP SWAP2 SWAP1 POP JUMP JUMPDEST PUSH32 0x416464726573733A20696E73756666696369656E742062616C616E636520666F PUSH1 0x0 DUP3 ADD MSTORE PUSH32 0x722063616C6C0000000000000000000000000000000000000000000000000000 PUSH1 0x20 DUP3 ADD MSTORE POP JUMP JUMPDEST PUSH1 0x0 PUSH2 0x3831 PUSH1 0x26 DUP4 PUSH2 0x28D2 JUMP JUMPDEST SWAP2 POP PUSH2 0x383C DUP3 PUSH2 0x37D5 JUMP JUMPDEST PUSH1 0x40 DUP3 ADD SWAP1 POP SWAP2 SWAP1 POP JUMP JUMPDEST PUSH1 0x0 PUSH1 0x20 DUP3 ADD SWAP1 POP DUP2 DUP2 SUB PUSH1 0x0 DUP4 ADD MSTORE PUSH2 0x3860 DUP2 PUSH2 0x3824 JUMP JUMPDEST SWAP1 POP SWAP2 SWAP1 POP JUMP JUMPDEST PUSH32 0x416464726573733A2063616C6C20746F206E6F6E2D636F6E7472616374000000 PUSH1 0x0 DUP3 ADD MSTORE POP JUMP JUMPDEST PUSH1 0x0 PUSH2 0x389D PUSH1 0x1D DUP4 PUSH2 0x28D2 JUMP JUMPDEST SWAP2 POP PUSH2 0x38A8 DUP3 PUSH2 0x3867 JUMP JUMPDEST PUSH1 0x20 DUP3 ADD SWAP1 POP SWAP2 SWAP1 POP JUMP JUMPDEST PUSH1 0x0 PUSH1 0x20 DUP3 ADD SWAP1 POP DUP2 DUP2 SUB PUSH1 0x0 DUP4 ADD MSTORE PUSH2 0x38CC DUP2 PUSH2 0x3890 JUMP JUMPDEST SWAP1 POP SWAP2 SWAP1 POP JUMP JUMPDEST PUSH1 0x0 DUP2 MLOAD SWAP1 POP SWAP2 SWAP1 POP JUMP JUMPDEST PUSH1 0x0 DUP2 SWAP1 POP SWAP3 SWAP2 POP POP JUMP JUMPDEST PUSH1 0x0 JUMPDEST DUP4 DUP2 LT ISZERO PUSH2 0x3907 JUMPI DUP1 DUP3 ADD MLOAD DUP2 DUP5 ADD MSTORE PUSH1 0x20 DUP2 ADD SWAP1 POP PUSH2 0x38EC JUMP JUMPDEST DUP4 DUP2 GT ISZERO PUSH2 0x3916 JUMPI PUSH1 0x0 DUP5 DUP5 ADD MSTORE JUMPDEST POP POP POP POP JUMP JUMPDEST PUSH1 0x0 PUSH2 0x3927 DUP3 PUSH2 0x38D3 JUMP JUMPDEST PUSH2 0x3931 DUP2 DUP6 PUSH2 0x38DE JUMP JUMPDEST SWAP4 POP PUSH2 0x3941 DUP2 DUP6 PUSH1 0x20 DUP7 ADD PUSH2 0x38E9 JUMP JUMPDEST DUP1 DUP5 ADD SWAP2 POP POP SWAP3 SWAP2 POP POP JUMP JUMPDEST PUSH1 0x0 PUSH2 0x3959 DUP3 DUP5 PUSH2 0x391C JUMP JUMPDEST SWAP2 POP DUP2 SWAP1 POP SWAP3 SWAP2 POP POP JUMP JUMPDEST PUSH1 0x0 DUP2 MLOAD SWAP1 POP SWAP2 SWAP1 POP JUMP JUMPDEST PUSH1 0x0 PUSH1 0x1F NOT PUSH1 0x1F DUP4 ADD AND SWAP1 POP SWAP2 SWAP1 POP JUMP JUMPDEST PUSH1 0x0 PUSH2 0x398B DUP3 PUSH2 0x3964 JUMP JUMPDEST PUSH2 0x3995 DUP2 DUP6 PUSH2 0x28D2 JUMP JUMPDEST SWAP4 POP PUSH2 0x39A5 DUP2 DUP6 PUSH1 0x20 DUP7 ADD PUSH2 0x38E9 JUMP JUMPDEST PUSH2 0x39AE DUP2 PUSH2 0x396F JUMP JUMPDEST DUP5 ADD SWAP2 POP POP SWAP3 SWAP2 POP POP JUMP JUMPDEST PUSH1 0x0 PUSH1 0x20 DUP3 ADD SWAP1 POP DUP2 DUP2 SUB PUSH1 0x0 DUP4 ADD MSTORE PUSH2 0x39D3 DUP2 DUP5 PUSH2 0x3980 JUMP JUMPDEST SWAP1 POP SWAP3 SWAP2 POP POP JUMP INVALID LOG2 PUSH5 0x6970667358 0x22 SLT KECCAK256 SUB 0xE2 SMOD SWAP16 CREATE 0x5F 0x2D 0xD5 LOG4 DUP15 PUSH28 0x9CEB80A760C8D40840EBCA714C1417C5BB6C20955064736F6C634300 ADDMOD 0xF STOP CALLER LOG2 PUSH5 0x6970667358 0x22 SLT KECCAK256 0xDB GASLIMIT SWAP15 0xE3 0xB5 PUSH32 0x6AB5F9338D9EB6F7248B1909429531772F821E8D8B1E0F175E7264736F6C6343 STOP ADDMOD 0xF STOP CALLER "
		},
		"gasEstimates": {
			"creation": {
				"codeDepositCost": "4033400",
				"executionCost": "infinite",
				"totalCost": "infinite"
			},
			"external": {
				"deployPool(address,address,uint256,uint256,uint256,uint256,uint256,address,bool,uint256,address)": "infinite",
				"owner()": "2522",
				"renounceOwnership()": "30352",
				"transferOwnership(address)": "30742"
			}
		},
		"methodIdentifiers": {
			"deployPool(address,address,uint256,uint256,uint256,uint256,uint256,address,bool,uint256,address)": "f8d98c8a",
			"owner()": "8da5cb5b",
			"renounceOwnership()": "715018a6",
			"transferOwnership(address)": "f2fde38b"
		}
	},
	"abi": [
		{
			"inputs": [],
			"stateMutability": "nonpayable",
			"type": "constructor"
		},
		{
			"anonymous": false,
			"inputs": [
				{
					"indexed": true,
					"internalType": "address",
					"name": "smartChef",
					"type": "address"
				}
			],
			"name": "NewSmartChefContract",
			"type": "event"
		},
		{
			"anonymous": false,
			"inputs": [
				{
					"indexed": true,
					"internalType": "address",
					"name": "previousOwner",
					"type": "address"
				},
				{
					"indexed": true,
					"internalType": "address",
					"name": "newOwner",
					"type": "address"
				}
			],
			"name": "OwnershipTransferred",
			"type": "event"
		},
		{
			"inputs": [
				{
					"internalType": "contract IERC20Metadata",
					"name": "_stakedToken",
					"type": "address"
				},
				{
					"internalType": "contract IERC20Metadata",
					"name": "_rewardToken",
					"type": "address"
				},
				{
					"internalType": "uint256",
					"name": "_rewardPerBlock",
					"type": "uint256"
				},
				{
					"internalType": "uint256",
					"name": "_startBlock",
					"type": "uint256"
				},
				{
					"internalType": "uint256",
					"name": "_bonusEndBlock",
					"type": "uint256"
				},
				{
					"internalType": "uint256",
					"name": "_poolLimitPerUser",
					"type": "uint256"
				},
				{
					"internalType": "uint256",
					"name": "_numberBlocksForUserLimit",
					"type": "uint256"
				},
				{
					"internalType": "address",
					"name": "_pancakeProfile",
					"type": "address"
				},
				{
					"internalType": "bool",
					"name": "_pancakeProfileIsRequested",
					"type": "bool"
				},
				{
					"internalType": "uint256",
					"name": "_pancakeProfileThresholdPoints",
					"type": "uint256"
				},
				{
					"internalType": "address",
					"name": "_admin",
					"type": "address"
				}
			],
			"name": "deployPool",
			"outputs": [],
			"stateMutability": "nonpayable",
			"type": "function"
		},
		{
			"inputs": [],
			"name": "owner",
			"outputs": [
				{
					"internalType": "address",
					"name": "",
					"type": "address"
				}
			],
			"stateMutability": "view",
			"type": "function"
		},
		{
			"inputs": [],
			"name": "renounceOwnership",
			"outputs": [],
			"stateMutability": "nonpayable",
			"type": "function"
		},
		{
			"inputs": [
				{
					"internalType": "address",
					"name": "newOwner",
					"type": "address"
				}
			],
			"name": "transferOwnership",
			"outputs": [],
			"stateMutability": "nonpayable",
			"type": "function"
		}
	]
}