{
	"data": {
		"bytecode": {
			"linkReferences": {},
			"object": "608060405234801561001057600080fd5b506040516108aa3803806108aa8339818101604052810190610032919061007a565b80600281905550506100a7565b600080fd5b6000819050919050565b61005781610044565b811461006257600080fd5b50565b6000815190506100748161004e565b92915050565b6000602082840312156100905761008f61003f565b5b600061009e84828501610065565b91505092915050565b6107f4806100b66000396000f3fe608060405234801561001057600080fd5b506004361061009e5760003560e01c8063a694fc3a11610066578063a694fc3a1461013b578063a87430ba14610157578063c74465651461018a578063f20eaeb8146101a8578063f5ad7722146101c65761009e565b80634b5c8bdf146100a35780635d8d1585146100c157806364d4db10146100e1578063833a3b85146100ff5780638d48c9c81461011d575b600080fd5b6100ab6101e2565b6040516100b891906104cb565b60405180910390f35b6100c96101e8565b6040516100d8939291906104e6565b60405180910390f35b6100e96102f0565b6040516100f691906104cb565b60405180910390f35b6101076102f6565b60405161011491906104cb565b60405180910390f35b6101256102fc565b60405161013291906104cb565b60405180910390f35b6101556004803603810190610150919061054e565b610302565b005b610171600480360381019061016c91906105d9565b61045a565b6040516101819493929190610606565b60405180910390f35b61019261048a565b60405161019f91906104cb565b60405180910390f35b6101b0610490565b6040516101bd91906104cb565b60405180910390f35b6101e060048036038101906101db919061054e565b610496565b005b60015481565b6000806000806000803373ffffffffffffffffffffffffffffffffffffffff1673ffffffffffffffffffffffffffffffffffffffff16815260200190815260200160002090506000806001541461024c5760015460025461024991906106a9565b90505b60006d04ee2d6d415b85acef81000000008260045460065461026e91906106da565b610278919061070e565b610282919061070e565b60035461028f9190610768565b90506d04ee2d6d415b85acef810000000083600001548460030154836102b591906106da565b6102bf919061070e565b6102c991906106a9565b83600201546102d89190610768565b95508260030154945082600001549350505050909192565b60045481565b60065481565b60035481565b60008060003373ffffffffffffffffffffffffffffffffffffffff1673ffffffffffffffffffffffffffffffffffffffff1681526020019081526020016000209050600080600154146103625760015460025461035f91906106a9565b90505b6d04ee2d6d415b85acef81000000008160045460065461038291906106da565b61038c919061070e565b610396919061070e565b600360008282546103a79190610768565b925050819055506d04ee2d6d415b85acef8100000000826000015483600301546003546103d491906106da565b6103de919061070e565b6103e891906106a9565b8260020160008282546103fb9190610768565b925050819055506003548260030181905550828260000160008282546104219190610768565b92505081905550600654826001018190555082600160008282546104459190610768565b92505081905550600654600481905550505050565b60006020528060005260406000206000915090508060000154908060010154908060020154908060030154905084565b60055481565b60025481565b80600660008282546104a89190610768565b9250508190555050565b6000819050919050565b6104c5816104b2565b82525050565b60006020820190506104e060008301846104bc565b92915050565b60006060820190506104fb60008301866104bc565b61050860208301856104bc565b61051560408301846104bc565b949350505050565b600080fd5b61052b816104b2565b811461053657600080fd5b50565b60008135905061054881610522565b92915050565b6000602082840312156105645761056361051d565b5b600061057284828501610539565b91505092915050565b600073ffffffffffffffffffffffffffffffffffffffff82169050919050565b60006105a68261057b565b9050919050565b6105b68161059b565b81146105c157600080fd5b50565b6000813590506105d3816105ad565b92915050565b6000602082840312156105ef576105ee61051d565b5b60006105fd848285016105c4565b91505092915050565b600060808201905061061b60008301876104bc565b61062860208301866104bc565b61063560408301856104bc565b61064260608301846104bc565b95945050505050565b7f4e487b7100000000000000000000000000000000000000000000000000000000600052601260045260246000fd5b7f4e487b7100000000000000000000000000000000000000000000000000000000600052601160045260246000fd5b60006106b4826104b2565b91506106bf836104b2565b9250826106cf576106ce61064b565b5b828204905092915050565b60006106e5826104b2565b91506106f0836104b2565b9250828210156107035761070261067a565b5b828203905092915050565b6000610719826104b2565b9150610724836104b2565b9250817fffffffffffffffffffffffffffffffffffffffffffffffffffffffffffffffff048311821515161561075d5761075c61067a565b5b828202905092915050565b6000610773826104b2565b915061077e836104b2565b9250827fffffffffffffffffffffffffffffffffffffffffffffffffffffffffffffffff038211156107b3576107b261067a565b5b82820190509291505056fea264697066735822122053707f734465b5c139a5afeea919e7948c9a5b61f6cbba78b205e576e524e46364736f6c634300080f0033",
			"opcodes": "PUSH1 0x80 PUSH1 0x40 MSTORE CALLVALUE DUP1 ISZERO PUSH2 0x10 JUMPI PUSH1 0x0 DUP1 REVERT JUMPDEST POP PUSH1 0x40 MLOAD PUSH2 0x8AA CODESIZE SUB DUP1 PUSH2 0x8AA DUP4 CODECOPY DUP2 DUP2 ADD PUSH1 0x40 MSTORE DUP2 ADD SWAP1 PUSH2 0x32 SWAP2 SWAP1 PUSH2 0x7A JUMP JUMPDEST DUP1 PUSH1 0x2 DUP2 SWAP1 SSTORE POP POP PUSH2 0xA7 JUMP JUMPDEST PUSH1 0x0 DUP1 REVERT JUMPDEST PUSH1 0x0 DUP2 SWAP1 POP SWAP2 SWAP1 POP JUMP JUMPDEST PUSH2 0x57 DUP2 PUSH2 0x44 JUMP JUMPDEST DUP2 EQ PUSH2 0x62 JUMPI PUSH1 0x0 DUP1 REVERT JUMPDEST POP JUMP JUMPDEST PUSH1 0x0 DUP2 MLOAD SWAP1 POP PUSH2 0x74 DUP2 PUSH2 0x4E JUMP JUMPDEST SWAP3 SWAP2 POP POP JUMP JUMPDEST PUSH1 0x0 PUSH1 0x20 DUP3 DUP5 SUB SLT ISZERO PUSH2 0x90 JUMPI PUSH2 0x8F PUSH2 0x3F JUMP JUMPDEST JUMPDEST PUSH1 0x0 PUSH2 0x9E DUP5 DUP3 DUP6 ADD PUSH2 0x65 JUMP JUMPDEST SWAP2 POP POP SWAP3 SWAP2 POP POP JUMP JUMPDEST PUSH2 0x7F4 DUP1 PUSH2 0xB6 PUSH1 0x0 CODECOPY PUSH1 0x0 RETURN INVALID PUSH1 0x80 PUSH1 0x40 MSTORE CALLVALUE DUP1 ISZERO PUSH2 0x10 JUMPI PUSH1 0x0 DUP1 REVERT JUMPDEST POP PUSH1 0x4 CALLDATASIZE LT PUSH2 0x9E JUMPI PUSH1 0x0 CALLDATALOAD PUSH1 0xE0 SHR DUP1 PUSH4 0xA694FC3A GT PUSH2 0x66 JUMPI DUP1 PUSH4 0xA694FC3A EQ PUSH2 0x13B JUMPI DUP1 PUSH4 0xA87430BA EQ PUSH2 0x157 JUMPI DUP1 PUSH4 0xC7446565 EQ PUSH2 0x18A JUMPI DUP1 PUSH4 0xF20EAEB8 EQ PUSH2 0x1A8 JUMPI DUP1 PUSH4 0xF5AD7722 EQ PUSH2 0x1C6 JUMPI PUSH2 0x9E JUMP JUMPDEST DUP1 PUSH4 0x4B5C8BDF EQ PUSH2 0xA3 JUMPI DUP1 PUSH4 0x5D8D1585 EQ PUSH2 0xC1 JUMPI DUP1 PUSH4 0x64D4DB10 EQ PUSH2 0xE1 JUMPI DUP1 PUSH4 0x833A3B85 EQ PUSH2 0xFF JUMPI DUP1 PUSH4 0x8D48C9C8 EQ PUSH2 0x11D JUMPI JUMPDEST PUSH1 0x0 DUP1 REVERT JUMPDEST PUSH2 0xAB PUSH2 0x1E2 JUMP JUMPDEST PUSH1 0x40 MLOAD PUSH2 0xB8 SWAP2 SWAP1 PUSH2 0x4CB JUMP JUMPDEST PUSH1 0x40 MLOAD DUP1 SWAP2 SUB SWAP1 RETURN JUMPDEST PUSH2 0xC9 PUSH2 0x1E8 JUMP JUMPDEST PUSH1 0x40 MLOAD PUSH2 0xD8 SWAP4 SWAP3 SWAP2 SWAP1 PUSH2 0x4E6 JUMP JUMPDEST PUSH1 0x40 MLOAD DUP1 SWAP2 SUB SWAP1 RETURN JUMPDEST PUSH2 0xE9 PUSH2 0x2F0 JUMP JUMPDEST PUSH1 0x40 MLOAD PUSH2 0xF6 SWAP2 SWAP1 PUSH2 0x4CB JUMP JUMPDEST PUSH1 0x40 MLOAD DUP1 SWAP2 SUB SWAP1 RETURN JUMPDEST PUSH2 0x107 PUSH2 0x2F6 JUMP JUMPDEST PUSH1 0x40 MLOAD PUSH2 0x114 SWAP2 SWAP1 PUSH2 0x4CB JUMP JUMPDEST PUSH1 0x40 MLOAD DUP1 SWAP2 SUB SWAP1 RETURN JUMPDEST PUSH2 0x125 PUSH2 0x2FC JUMP JUMPDEST PUSH1 0x40 MLOAD PUSH2 0x132 SWAP2 SWAP1 PUSH2 0x4CB JUMP JUMPDEST PUSH1 0x40 MLOAD DUP1 SWAP2 SUB SWAP1 RETURN JUMPDEST PUSH2 0x155 PUSH1 0x4 DUP1 CALLDATASIZE SUB DUP2 ADD SWAP1 PUSH2 0x150 SWAP2 SWAP1 PUSH2 0x54E JUMP JUMPDEST PUSH2 0x302 JUMP JUMPDEST STOP JUMPDEST PUSH2 0x171 PUSH1 0x4 DUP1 CALLDATASIZE SUB DUP2 ADD SWAP1 PUSH2 0x16C SWAP2 SWAP1 PUSH2 0x5D9 JUMP JUMPDEST PUSH2 0x45A JUMP JUMPDEST PUSH1 0x40 MLOAD PUSH2 0x181 SWAP5 SWAP4 SWAP3 SWAP2 SWAP1 PUSH2 0x606 JUMP JUMPDEST PUSH1 0x40 MLOAD DUP1 SWAP2 SUB SWAP1 RETURN JUMPDEST PUSH2 0x192 PUSH2 0x48A JUMP JUMPDEST PUSH1 0x40 MLOAD PUSH2 0x19F SWAP2 SWAP1 PUSH2 0x4CB JUMP JUMPDEST PUSH1 0x40 MLOAD DUP1 SWAP2 SUB SWAP1 RETURN JUMPDEST PUSH2 0x1B0 PUSH2 0x490 JUMP JUMPDEST PUSH1 0x40 MLOAD PUSH2 0x1BD SWAP2 SWAP1 PUSH2 0x4CB JUMP JUMPDEST PUSH1 0x40 MLOAD DUP1 SWAP2 SUB SWAP1 RETURN JUMPDEST PUSH2 0x1E0 PUSH1 0x4 DUP1 CALLDATASIZE SUB DUP2 ADD SWAP1 PUSH2 0x1DB SWAP2 SWAP1 PUSH2 0x54E JUMP JUMPDEST PUSH2 0x496 JUMP JUMPDEST STOP JUMPDEST PUSH1 0x1 SLOAD DUP2 JUMP JUMPDEST PUSH1 0x0 DUP1 PUSH1 0x0 DUP1 PUSH1 0x0 DUP1 CALLER PUSH20 0xFFFFFFFFFFFFFFFFFFFFFFFFFFFFFFFFFFFFFFFF AND PUSH20 0xFFFFFFFFFFFFFFFFFFFFFFFFFFFFFFFFFFFFFFFF AND DUP2 MSTORE PUSH1 0x20 ADD SWAP1 DUP2 MSTORE PUSH1 0x20 ADD PUSH1 0x0 KECCAK256 SWAP1 POP PUSH1 0x0 DUP1 PUSH1 0x1 SLOAD EQ PUSH2 0x24C JUMPI PUSH1 0x1 SLOAD PUSH1 0x2 SLOAD PUSH2 0x249 SWAP2 SWAP1 PUSH2 0x6A9 JUMP JUMPDEST SWAP1 POP JUMPDEST PUSH1 0x0 PUSH14 0x4EE2D6D415B85ACEF8100000000 DUP3 PUSH1 0x4 SLOAD PUSH1 0x6 SLOAD PUSH2 0x26E SWAP2 SWAP1 PUSH2 0x6DA JUMP JUMPDEST PUSH2 0x278 SWAP2 SWAP1 PUSH2 0x70E JUMP JUMPDEST PUSH2 0x282 SWAP2 SWAP1 PUSH2 0x70E JUMP JUMPDEST PUSH1 0x3 SLOAD PUSH2 0x28F SWAP2 SWAP1 PUSH2 0x768 JUMP JUMPDEST SWAP1 POP PUSH14 0x4EE2D6D415B85ACEF8100000000 DUP4 PUSH1 0x0 ADD SLOAD DUP5 PUSH1 0x3 ADD SLOAD DUP4 PUSH2 0x2B5 SWAP2 SWAP1 PUSH2 0x6DA JUMP JUMPDEST PUSH2 0x2BF SWAP2 SWAP1 PUSH2 0x70E JUMP JUMPDEST PUSH2 0x2C9 SWAP2 SWAP1 PUSH2 0x6A9 JUMP JUMPDEST DUP4 PUSH1 0x2 ADD SLOAD PUSH2 0x2D8 SWAP2 SWAP1 PUSH2 0x768 JUMP JUMPDEST SWAP6 POP DUP3 PUSH1 0x3 ADD SLOAD SWAP5 POP DUP3 PUSH1 0x0 ADD SLOAD SWAP4 POP POP POP POP SWAP1 SWAP2 SWAP3 JUMP JUMPDEST PUSH1 0x4 SLOAD DUP2 JUMP JUMPDEST PUSH1 0x6 SLOAD DUP2 JUMP JUMPDEST PUSH1 0x3 SLOAD DUP2 JUMP JUMPDEST PUSH1 0x0 DUP1 PUSH1 0x0 CALLER PUSH20 0xFFFFFFFFFFFFFFFFFFFFFFFFFFFFFFFFFFFFFFFF AND PUSH20 0xFFFFFFFFFFFFFFFFFFFFFFFFFFFFFFFFFFFFFFFF AND DUP2 MSTORE PUSH1 0x20 ADD SWAP1 DUP2 MSTORE PUSH1 0x20 ADD PUSH1 0x0 KECCAK256 SWAP1 POP PUSH1 0x0 DUP1 PUSH1 0x1 SLOAD EQ PUSH2 0x362 JUMPI PUSH1 0x1 SLOAD PUSH1 0x2 SLOAD PUSH2 0x35F SWAP2 SWAP1 PUSH2 0x6A9 JUMP JUMPDEST SWAP1 POP JUMPDEST PUSH14 0x4EE2D6D415B85ACEF8100000000 DUP2 PUSH1 0x4 SLOAD PUSH1 0x6 SLOAD PUSH2 0x382 SWAP2 SWAP1 PUSH2 0x6DA JUMP JUMPDEST PUSH2 0x38C SWAP2 SWAP1 PUSH2 0x70E JUMP JUMPDEST PUSH2 0x396 SWAP2 SWAP1 PUSH2 0x70E JUMP JUMPDEST PUSH1 0x3 PUSH1 0x0 DUP3 DUP3 SLOAD PUSH2 0x3A7 SWAP2 SWAP1 PUSH2 0x768 JUMP JUMPDEST SWAP3 POP POP DUP2 SWAP1 SSTORE POP PUSH14 0x4EE2D6D415B85ACEF8100000000 DUP3 PUSH1 0x0 ADD SLOAD DUP4 PUSH1 0x3 ADD SLOAD PUSH1 0x3 SLOAD PUSH2 0x3D4 SWAP2 SWAP1 PUSH2 0x6DA JUMP JUMPDEST PUSH2 0x3DE SWAP2 SWAP1 PUSH2 0x70E JUMP JUMPDEST PUSH2 0x3E8 SWAP2 SWAP1 PUSH2 0x6A9 JUMP JUMPDEST DUP3 PUSH1 0x2 ADD PUSH1 0x0 DUP3 DUP3 SLOAD PUSH2 0x3FB SWAP2 SWAP1 PUSH2 0x768 JUMP JUMPDEST SWAP3 POP POP DUP2 SWAP1 SSTORE POP PUSH1 0x3 SLOAD DUP3 PUSH1 0x3 ADD DUP2 SWAP1 SSTORE POP DUP3 DUP3 PUSH1 0x0 ADD PUSH1 0x0 DUP3 DUP3 SLOAD PUSH2 0x421 SWAP2 SWAP1 PUSH2 0x768 JUMP JUMPDEST SWAP3 POP POP DUP2 SWAP1 SSTORE POP PUSH1 0x6 SLOAD DUP3 PUSH1 0x1 ADD DUP2 SWAP1 SSTORE POP DUP3 PUSH1 0x1 PUSH1 0x0 DUP3 DUP3 SLOAD PUSH2 0x445 SWAP2 SWAP1 PUSH2 0x768 JUMP JUMPDEST SWAP3 POP POP DUP2 SWAP1 SSTORE POP PUSH1 0x6 SLOAD PUSH1 0x4 DUP2 SWAP1 SSTORE POP POP POP POP JUMP JUMPDEST PUSH1 0x0 PUSH1 0x20 MSTORE DUP1 PUSH1 0x0 MSTORE PUSH1 0x40 PUSH1 0x0 KECCAK256 PUSH1 0x0 SWAP2 POP SWAP1 POP DUP1 PUSH1 0x0 ADD SLOAD SWAP1 DUP1 PUSH1 0x1 ADD SLOAD SWAP1 DUP1 PUSH1 0x2 ADD SLOAD SWAP1 DUP1 PUSH1 0x3 ADD SLOAD SWAP1 POP DUP5 JUMP JUMPDEST PUSH1 0x5 SLOAD DUP2 JUMP JUMPDEST PUSH1 0x2 SLOAD DUP2 JUMP JUMPDEST DUP1 PUSH1 0x6 PUSH1 0x0 DUP3 DUP3 SLOAD PUSH2 0x4A8 SWAP2 SWAP1 PUSH2 0x768 JUMP JUMPDEST SWAP3 POP POP DUP2 SWAP1 SSTORE POP POP JUMP JUMPDEST PUSH1 0x0 DUP2 SWAP1 POP SWAP2 SWAP1 POP JUMP JUMPDEST PUSH2 0x4C5 DUP2 PUSH2 0x4B2 JUMP JUMPDEST DUP3 MSTORE POP POP JUMP JUMPDEST PUSH1 0x0 PUSH1 0x20 DUP3 ADD SWAP1 POP PUSH2 0x4E0 PUSH1 0x0 DUP4 ADD DUP5 PUSH2 0x4BC JUMP JUMPDEST SWAP3 SWAP2 POP POP JUMP JUMPDEST PUSH1 0x0 PUSH1 0x60 DUP3 ADD SWAP1 POP PUSH2 0x4FB PUSH1 0x0 DUP4 ADD DUP7 PUSH2 0x4BC JUMP JUMPDEST PUSH2 0x508 PUSH1 0x20 DUP4 ADD DUP6 PUSH2 0x4BC JUMP JUMPDEST PUSH2 0x515 PUSH1 0x40 DUP4 ADD DUP5 PUSH2 0x4BC JUMP JUMPDEST SWAP5 SWAP4 POP POP POP POP JUMP JUMPDEST PUSH1 0x0 DUP1 REVERT JUMPDEST PUSH2 0x52B DUP2 PUSH2 0x4B2 JUMP JUMPDEST DUP2 EQ PUSH2 0x536 JUMPI PUSH1 0x0 DUP1 REVERT JUMPDEST POP JUMP JUMPDEST PUSH1 0x0 DUP2 CALLDATALOAD SWAP1 POP PUSH2 0x548 DUP2 PUSH2 0x522 JUMP JUMPDEST SWAP3 SWAP2 POP POP JUMP JUMPDEST PUSH1 0x0 PUSH1 0x20 DUP3 DUP5 SUB SLT ISZERO PUSH2 0x564 JUMPI PUSH2 0x563 PUSH2 0x51D JUMP JUMPDEST JUMPDEST PUSH1 0x0 PUSH2 0x572 DUP5 DUP3 DUP6 ADD PUSH2 0x539 JUMP JUMPDEST SWAP2 POP POP SWAP3 SWAP2 POP POP JUMP JUMPDEST PUSH1 0x0 PUSH20 0xFFFFFFFFFFFFFFFFFFFFFFFFFFFFFFFFFFFFFFFF DUP3 AND SWAP1 POP SWAP2 SWAP1 POP JUMP JUMPDEST PUSH1 0x0 PUSH2 0x5A6 DUP3 PUSH2 0x57B JUMP JUMPDEST SWAP1 POP SWAP2 SWAP1 POP JUMP JUMPDEST PUSH2 0x5B6 DUP2 PUSH2 0x59B JUMP JUMPDEST DUP2 EQ PUSH2 0x5C1 JUMPI PUSH1 0x0 DUP1 REVERT JUMPDEST POP JUMP JUMPDEST PUSH1 0x0 DUP2 CALLDATALOAD SWAP1 POP PUSH2 0x5D3 DUP2 PUSH2 0x5AD JUMP JUMPDEST SWAP3 SWAP2 POP POP JUMP JUMPDEST PUSH1 0x0 PUSH1 0x20 DUP3 DUP5 SUB SLT ISZERO PUSH2 0x5EF JUMPI PUSH2 0x5EE PUSH2 0x51D JUMP JUMPDEST JUMPDEST PUSH1 0x0 PUSH2 0x5FD DUP5 DUP3 DUP6 ADD PUSH2 0x5C4 JUMP JUMPDEST SWAP2 POP POP SWAP3 SWAP2 POP POP JUMP JUMPDEST PUSH1 0x0 PUSH1 0x80 DUP3 ADD SWAP1 POP PUSH2 0x61B PUSH1 0x0 DUP4 ADD DUP8 PUSH2 0x4BC JUMP JUMPDEST PUSH2 0x628 PUSH1 0x20 DUP4 ADD DUP7 PUSH2 0x4BC JUMP JUMPDEST PUSH2 0x635 PUSH1 0x40 DUP4 ADD DUP6 PUSH2 0x4BC JUMP JUMPDEST PUSH2 0x642 PUSH1 0x60 DUP4 ADD DUP5 PUSH2 0x4BC JUMP JUMPDEST SWAP6 SWAP5 POP POP POP POP POP JUMP JUMPDEST PUSH32 0x4E487B7100000000000000000000000000000000000000000000000000000000 PUSH1 0x0 MSTORE PUSH1 0x12 PUSH1 0x4 MSTORE PUSH1 0x24 PUSH1 0x0 REVERT JUMPDEST PUSH32 0x4E487B7100000000000000000000000000000000000000000000000000000000 PUSH1 0x0 MSTORE PUSH1 0x11 PUSH1 0x4 MSTORE PUSH1 0x24 PUSH1 0x0 REVERT JUMPDEST PUSH1 0x0 PUSH2 0x6B4 DUP3 PUSH2 0x4B2 JUMP JUMPDEST SWAP2 POP PUSH2 0x6BF DUP4 PUSH2 0x4B2 JUMP JUMPDEST SWAP3 POP DUP3 PUSH2 0x6CF JUMPI PUSH2 0x6CE PUSH2 0x64B JUMP JUMPDEST JUMPDEST DUP3 DUP3 DIV SWAP1 POP SWAP3 SWAP2 POP POP JUMP JUMPDEST PUSH1 0x0 PUSH2 0x6E5 DUP3 PUSH2 0x4B2 JUMP JUMPDEST SWAP2 POP PUSH2 0x6F0 DUP4 PUSH2 0x4B2 JUMP JUMPDEST SWAP3 POP DUP3 DUP3 LT ISZERO PUSH2 0x703 JUMPI PUSH2 0x702 PUSH2 0x67A JUMP JUMPDEST JUMPDEST DUP3 DUP3 SUB SWAP1 POP SWAP3 SWAP2 POP POP JUMP JUMPDEST PUSH1 0x0 PUSH2 0x719 DUP3 PUSH2 0x4B2 JUMP JUMPDEST SWAP2 POP PUSH2 0x724 DUP4 PUSH2 0x4B2 JUMP JUMPDEST SWAP3 POP DUP2 PUSH32 0xFFFFFFFFFFFFFFFFFFFFFFFFFFFFFFFFFFFFFFFFFFFFFFFFFFFFFFFFFFFFFFFF DIV DUP4 GT DUP3 ISZERO ISZERO AND ISZERO PUSH2 0x75D JUMPI PUSH2 0x75C PUSH2 0x67A JUMP JUMPDEST JUMPDEST DUP3 DUP3 MUL SWAP1 POP SWAP3 SWAP2 POP POP JUMP JUMPDEST PUSH1 0x0 PUSH2 0x773 DUP3 PUSH2 0x4B2 JUMP JUMPDEST SWAP2 POP PUSH2 0x77E DUP4 PUSH2 0x4B2 JUMP JUMPDEST SWAP3 POP DUP3 PUSH32 0xFFFFFFFFFFFFFFFFFFFFFFFFFFFFFFFFFFFFFFFFFFFFFFFFFFFFFFFFFFFFFFFF SUB DUP3 GT ISZERO PUSH2 0x7B3 JUMPI PUSH2 0x7B2 PUSH2 0x67A JUMP JUMPDEST JUMPDEST DUP3 DUP3 ADD SWAP1 POP SWAP3 SWAP2 POP POP JUMP INVALID LOG2 PUSH5 0x6970667358 0x22 SLT KECCAK256 MSTORE8 PUSH17 0x7F734465B5C139A5AFEEA919E7948C9A5B PUSH2 0xF6CB 0xBA PUSH25 0xB205E576E524E46364736F6C634300080F0033000000000000 "
		},
		"gasEstimates": {
			"creation": {
				"codeDepositCost": "407200",
				"executionCost": "infinite",
				"totalCost": "infinite"
			},
			"external": {
				"addAt(uint256)": "infinite",
				"currentAt()": "2496",
				"getUserInfo()": "infinite",
				"lastStakeTime()": "2474",
				"output()": "2495",
				"rn()": "2518",
				"stake(uint256)": "infinite",
				"stakeTotal()": "2430",
				"startAt()": "2473",
				"users(address)": "infinite"
			}
		},
		"methodIdentifiers": {
			"addAt(uint256)": "f5ad7722",
			"currentAt()": "833a3b85",
			"getUserInfo()": "5d8d1585",
			"lastStakeTime()": "64d4db10",
			"output()": "f20eaeb8",
			"rn()": "8d48c9c8",
			"stake(uint256)": "a694fc3a",
			"stakeTotal()": "4b5c8bdf",
			"startAt()": "c7446565",
			"users(address)": "a87430ba"
		}
	},
	"abi": [
		{
			"inputs": [
				{
					"internalType": "uint256",
					"name": "_output",
					"type": "uint256"
				}
			],
			"stateMutability": "nonpayable",
			"type": "constructor"
		},
		{
			"inputs": [
				{
					"internalType": "uint256",
					"name": "time",
					"type": "uint256"
				}
			],
			"name": "addAt",
			"outputs": [],
			"stateMutability": "nonpayable",
			"type": "function"
		},
		{
			"inputs": [],
			"name": "currentAt",
			"outputs": [
				{
					"internalType": "uint256",
					"name": "",
					"type": "uint256"
				}
			],
			"stateMutability": "view",
			"type": "function"
		},
		{
			"inputs": [],
			"name": "getUserInfo",
			"outputs": [
				{
					"internalType": "uint256",
					"name": "insert",
					"type": "uint256"
				},
				{
					"internalType": "uint256",
					"name": "ru",
					"type": "uint256"
				},
				{
					"internalType": "uint256",
					"name": "stakeNumber",
					"type": "uint256"
				}
			],
			"stateMutability": "view",
			"type": "function"
		},
		{
			"inputs": [],
			"name": "lastStakeTime",
			"outputs": [
				{
					"internalType": "uint256",
					"name": "",
					"type": "uint256"
				}
			],
			"stateMutability": "view",
			"type": "function"
		},
		{
			"inputs": [],
			"name": "output",
			"outputs": [
				{
					"internalType": "uint256",
					"name": "",
					"type": "uint256"
				}
			],
			"stateMutability": "view",
			"type": "function"
		},
		{
			"inputs": [],
			"name": "rn",
			"outputs": [
				{
					"internalType": "uint256",
					"name": "",
					"type": "uint256"
				}
			],
			"stateMutability": "view",
			"type": "function"
		},
		{
			"inputs": [
				{
					"internalType": "uint256",
					"name": "_amount",
					"type": "uint256"
				}
			],
			"name": "stake",
			"outputs": [],
			"stateMutability": "nonpayable",
			"type": "function"
		},
		{
			"inputs": [],
			"name": "stakeTotal",
			"outputs": [
				{
					"internalType": "uint256",
					"name": "",
					"type": "uint256"
				}
			],
			"stateMutability": "view",
			"type": "function"
		},
		{
			"inputs": [],
			"name": "startAt",
			"outputs": [
				{
					"internalType": "uint256",
					"name": "",
					"type": "uint256"
				}
			],
			"stateMutability": "view",
			"type": "function"
		},
		{
			"inputs": [
				{
					"internalType": "address",
					"name": "",
					"type": "address"
				}
			],
			"name": "users",
			"outputs": [
				{
					"internalType": "uint256",
					"name": "stakeNumber",
					"type": "uint256"
				},
				{
					"internalType": "uint256",
					"name": "stakeTime",
					"type": "uint256"
				},
				{
					"internalType": "uint256",
					"name": "insert",
					"type": "uint256"
				},
				{
					"internalType": "uint256",
					"name": "ru",
					"type": "uint256"
				}
			],
			"stateMutability": "view",
			"type": "function"
		}
	]
}